{
	"tronbox/contracts/SmartGenie.sol": {
		"SmartGenie": {
			"abi": [
				{
					"inputs": [
						{
							"internalType": "address",
							"name": "_prWallet1",
							"type": "address"
						},
						{
							"internalType": "address",
							"name": "_prWallet2",
							"type": "address"
						},
						{
							"internalType": "address",
							"name": "_prWallet3",
							"type": "address"
						},
						{
							"internalType": "address",
							"name": "_sprWallet",
							"type": "address"
						},
						{
							"internalType": "address",
							"name": "_ursWallet",
							"type": "address"
						}
					],
					"stateMutability": "nonpayable",
					"type": "constructor"
				},
				{
					"anonymous": false,
					"inputs": [
						{
							"indexed": true,
							"internalType": "address",
							"name": "_user",
							"type": "address"
						},
						{
							"indexed": true,
							"internalType": "address",
							"name": "_referral",
							"type": "address"
						},
						{
							"indexed": false,
							"internalType": "uint256",
							"name": "_level",
							"type": "uint256"
						},
						{
							"indexed": false,
							"internalType": "uint256",
							"name": "_time",
							"type": "uint256"
						}
					],
					"name": "getMoneyForLevelEvent",
					"type": "event"
				},
				{
					"anonymous": false,
					"inputs": [
						{
							"indexed": true,
							"internalType": "address",
							"name": "_user",
							"type": "address"
						},
						{
							"indexed": true,
							"internalType": "address",
							"name": "_referral",
							"type": "address"
						},
						{
							"indexed": false,
							"internalType": "uint256",
							"name": "_level",
							"type": "uint256"
						},
						{
							"indexed": false,
							"internalType": "uint256",
							"name": "_time",
							"type": "uint256"
						}
					],
					"name": "lostMoneyForLevelEvent",
					"type": "event"
				},
				{
					"anonymous": false,
					"inputs": [
						{
							"indexed": true,
							"internalType": "address",
							"name": "_user",
							"type": "address"
						},
						{
							"indexed": true,
							"internalType": "address",
							"name": "_referrer",
							"type": "address"
						},
						{
							"indexed": false,
							"internalType": "uint256",
							"name": "_time",
							"type": "uint256"
						}
					],
					"name": "regLevelEvent",
					"type": "event"
				},
				{
					"inputs": [
						{
							"internalType": "uint256",
							"name": "",
							"type": "uint256"
						}
					],
					"name": "LEVEL_PRICE",
					"outputs": [
						{
							"internalType": "uint256",
							"name": "",
							"type": "uint256"
						}
					],
					"stateMutability": "view",
					"type": "function"
				},
				{
					"inputs": [],
					"name": "adminWallet",
					"outputs": [
						{
							"internalType": "address",
							"name": "",
							"type": "address"
						}
					],
					"stateMutability": "view",
					"type": "function"
				},
				{
					"inputs": [
						{
							"internalType": "uint8",
							"name": "walletIndex",
							"type": "uint8"
						}
					],
					"name": "checkWalletBalance",
					"outputs": [
						{
							"internalType": "uint256",
							"name": "",
							"type": "uint256"
						}
					],
					"stateMutability": "view",
					"type": "function"
				},
				{
					"inputs": [],
					"name": "currUserID",
					"outputs": [
						{
							"internalType": "uint256",
							"name": "",
							"type": "uint256"
						}
					],
					"stateMutability": "view",
					"type": "function"
				},
				{
					"inputs": [],
					"name": "getContractBalance",
					"outputs": [
						{
							"internalType": "uint256",
							"name": "",
							"type": "uint256"
						}
					],
					"stateMutability": "view",
					"type": "function"
				},
				{
					"inputs": [
						{
							"internalType": "address",
							"name": "_user",
							"type": "address"
						},
						{
							"internalType": "uint256",
							"name": "_level",
							"type": "uint256"
						}
					],
					"name": "getUserIncomeCount",
					"outputs": [
						{
							"internalType": "uint256",
							"name": "",
							"type": "uint256"
						}
					],
					"stateMutability": "view",
					"type": "function"
				},
				{
					"inputs": [
						{
							"internalType": "address",
							"name": "_user",
							"type": "address"
						}
					],
					"name": "getUserLevelEligibility",
					"outputs": [
						{
							"internalType": "uint256[]",
							"name": "",
							"type": "uint256[]"
						}
					],
					"stateMutability": "view",
					"type": "function"
				},
				{
					"inputs": [
						{
							"internalType": "address",
							"name": "_user",
							"type": "address"
						}
					],
					"name": "getUserReferrals",
					"outputs": [
						{
							"internalType": "address[]",
							"name": "",
							"type": "address[]"
						}
					],
					"stateMutability": "view",
					"type": "function"
				},
				{
					"inputs": [
						{
							"internalType": "uint256",
							"name": "",
							"type": "uint256"
						},
						{
							"internalType": "address",
							"name": "",
							"type": "address"
						}
					],
					"name": "isLevelUpgradedForAddress",
					"outputs": [
						{
							"internalType": "bool",
							"name": "",
							"type": "bool"
						}
					],
					"stateMutability": "view",
					"type": "function"
				},
				{
					"inputs": [
						{
							"internalType": "uint256",
							"name": "",
							"type": "uint256"
						},
						{
							"internalType": "address",
							"name": "",
							"type": "address"
						}
					],
					"name": "levelCounter",
					"outputs": [
						{
							"internalType": "uint256",
							"name": "",
							"type": "uint256"
						}
					],
					"stateMutability": "view",
					"type": "function"
				},
				{
					"inputs": [
						{
							"internalType": "uint256",
							"name": "",
							"type": "uint256"
						},
						{
							"internalType": "address",
							"name": "",
							"type": "address"
						}
					],
					"name": "levelUpgradePayments",
					"outputs": [
						{
							"internalType": "address",
							"name": "",
							"type": "address"
						}
					],
					"stateMutability": "view",
					"type": "function"
				},
				{
					"inputs": [
						{
							"internalType": "uint256",
							"name": "",
							"type": "uint256"
						}
					],
					"name": "promotionAmounts",
					"outputs": [
						{
							"internalType": "uint256",
							"name": "",
							"type": "uint256"
						}
					],
					"stateMutability": "view",
					"type": "function"
				},
				{
					"inputs": [
						{
							"internalType": "uint256",
							"name": "",
							"type": "uint256"
						}
					],
					"name": "promotionPercantage",
					"outputs": [
						{
							"internalType": "uint8",
							"name": "",
							"type": "uint8"
						}
					],
					"stateMutability": "view",
					"type": "function"
				},
				{
					"inputs": [
						{
							"internalType": "uint256",
							"name": "",
							"type": "uint256"
						}
					],
					"name": "promotionWallets",
					"outputs": [
						{
							"internalType": "address",
							"name": "",
							"type": "address"
						}
					],
					"stateMutability": "view",
					"type": "function"
				},
				{
					"inputs": [
						{
							"internalType": "uint256",
							"name": "_referrerID",
							"type": "uint256"
						}
					],
					"name": "regUser",
					"outputs": [
						{
							"internalType": "bool",
							"name": "",
							"type": "bool"
						}
					],
					"stateMutability": "payable",
					"type": "function"
				},
				{
					"inputs": [],
					"name": "splPromoWallet",
					"outputs": [
						{
							"internalType": "address",
							"name": "",
							"type": "address"
						}
					],
					"stateMutability": "view",
					"type": "function"
				},
				{
					"inputs": [
						{
							"internalType": "address",
							"name": "walletAddr",
							"type": "address"
						},
						{
							"internalType": "uint256",
							"name": "index",
							"type": "uint256"
						}
					],
					"name": "updateWallet",
					"outputs": [],
					"stateMutability": "nonpayable",
					"type": "function"
				},
				{
					"inputs": [],
					"name": "ursWallet",
					"outputs": [
						{
							"internalType": "address",
							"name": "",
							"type": "address"
						}
					],
					"stateMutability": "view",
					"type": "function"
				},
				{
					"inputs": [
						{
							"internalType": "uint256",
							"name": "",
							"type": "uint256"
						}
					],
					"name": "userList",
					"outputs": [
						{
							"internalType": "address",
							"name": "",
							"type": "address"
						}
					],
					"stateMutability": "view",
					"type": "function"
				},
				{
					"inputs": [
						{
							"internalType": "address",
							"name": "",
							"type": "address"
						}
					],
					"name": "users",
					"outputs": [
						{
							"internalType": "bool",
							"name": "isExist",
							"type": "bool"
						},
						{
							"internalType": "uint256",
							"name": "id",
							"type": "uint256"
						},
						{
							"internalType": "uint256",
							"name": "referrerID",
							"type": "uint256"
						},
						{
							"internalType": "uint256",
							"name": "joined",
							"type": "uint256"
						}
					],
					"stateMutability": "view",
					"type": "function"
				},
				{
					"inputs": [
						{
							"internalType": "uint8",
							"name": "walletIndex",
							"type": "uint8"
						}
					],
					"name": "withdrawWallet",
					"outputs": [
						{
							"internalType": "bool",
							"name": "",
							"type": "bool"
						}
					],
					"stateMutability": "nonpayable",
					"type": "function"
				}
			],
			"devdoc": {
				"custom:dev-run-script": "./tronbox/test/TestSG.js",
				"kind": "dev",
				"methods": {},
				"version": 1
			},
			"evm": {
				"assembly": "    /* \"tronbox/contracts/SmartGenie.sol\":124:24963  contract SmartGenie {... */\n  mstore(0x40, 0x80)\n    /* \"tronbox/contracts/SmartGenie.sol\":898:943  uint8[3] public promotionPercantage = [5,3,1] */\n  mload(0x40)\n  dup1\n  0x60\n  add\n  0x40\n  mstore\n  dup1\n    /* \"tronbox/contracts/SmartGenie.sol\":937:938  5 */\n  0x05\n    /* \"tronbox/contracts/SmartGenie.sol\":898:943  uint8[3] public promotionPercantage = [5,3,1] */\n  0xff\n  and\n  dup2\n  mstore\n  0x20\n  add\n    /* \"tronbox/contracts/SmartGenie.sol\":939:940  3 */\n  0x03\n    /* \"tronbox/contracts/SmartGenie.sol\":898:943  uint8[3] public promotionPercantage = [5,3,1] */\n  0xff\n  and\n  dup2\n  mstore\n  0x20\n  add\n    /* \"tronbox/contracts/SmartGenie.sol\":941:942  1 */\n  0x01\n    /* \"tronbox/contracts/SmartGenie.sol\":898:943  uint8[3] public promotionPercantage = [5,3,1] */\n  0xff\n  and\n  dup2\n  mstore\n  pop\n  0x0c\n  swap1\n  0x03\n  tag_1\n  swap3\n  swap2\n  swap1\n  tag_2\n  jump\t// in\ntag_1:\n  pop\n    /* \"tronbox/contracts/SmartGenie.sol\":1019:1020  0 */\n  0x00\n    /* \"tronbox/contracts/SmartGenie.sol\":994:1020  uint public currUserID = 0 */\n  0x10\n  sstore\n    /* \"tronbox/contracts/SmartGenie.sol\":1047:1048  0 */\n  0x00\n    /* \"tronbox/contracts/SmartGenie.sol\":1026:1048  uint256 splPromAmt = 0 */\n  0x11\n  sstore\n    /* \"tronbox/contracts/SmartGenie.sol\":1071:1072  0 */\n  0x00\n    /* \"tronbox/contracts/SmartGenie.sol\":1054:1072  uint256 ursAmt = 0 */\n  0x12\n  sstore\n    /* \"tronbox/contracts/SmartGenie.sol\":1095:1103  50 ether */\n  0x02b5e3af16b1880000\n    /* \"tronbox/contracts/SmartGenie.sol\":1078:1103  uint256 regFee = 50 ether */\n  0x13\n  sstore\n    /* \"tronbox/contracts/SmartGenie.sol\":1140:1143  100 */\n  0x64\n    /* \"tronbox/contracts/SmartGenie.sol\":1136:1138  10 */\n  0x0a\n    /* \"tronbox/contracts/SmartGenie.sol\":1129:1135  regFee */\n  sload(0x13)\n    /* \"tronbox/contracts/SmartGenie.sol\":1129:1138  regFee*10 */\n  tag_3\n  swap2\n  swap1\n  tag_4\n  jump\t// in\ntag_3:\n    /* \"tronbox/contracts/SmartGenie.sol\":1128:1143  (regFee*10)/100 */\n  tag_5\n  swap2\n  swap1\n  tag_6\n  jump\t// in\ntag_5:\n    /* \"tronbox/contracts/SmartGenie.sol\":1109:1143  uint256 regShare = (regFee*10)/100 */\n  0x14\n  sstore\n    /* \"tronbox/contracts/SmartGenie.sol\":1203:1206  100 */\n  0x64\n    /* \"tronbox/contracts/SmartGenie.sol\":1200:1201  9 */\n  0x09\n    /* \"tronbox/contracts/SmartGenie.sol\":1193:1199  regFee */\n  sload(0x13)\n    /* \"tronbox/contracts/SmartGenie.sol\":1193:1201  regFee*9 */\n  tag_7\n  swap2\n  swap1\n  tag_4\n  jump\t// in\ntag_7:\n    /* \"tronbox/contracts/SmartGenie.sol\":1192:1206  (regFee*9)/100 */\n  tag_8\n  swap2\n  swap1\n  tag_6\n  jump\t// in\ntag_8:\n    /* \"tronbox/contracts/SmartGenie.sol\":1167:1206  uint256 promotionShare = (regFee*9)/100 */\n  0x15\n  sstore\n    /* \"tronbox/contracts/SmartGenie.sol\":1264:1267  100 */\n  0x64\n    /* \"tronbox/contracts/SmartGenie.sol\":1261:1262  1 */\n  0x01\n    /* \"tronbox/contracts/SmartGenie.sol\":1254:1260  regFee */\n  sload(0x13)\n    /* \"tronbox/contracts/SmartGenie.sol\":1254:1262  regFee*1 */\n  tag_9\n  swap2\n  swap1\n  tag_4\n  jump\t// in\ntag_9:\n    /* \"tronbox/contracts/SmartGenie.sol\":1253:1267  (regFee*1)/100 */\n  tag_10\n  swap2\n  swap1\n  tag_6\n  jump\t// in\ntag_10:\n    /* \"tronbox/contracts/SmartGenie.sol\":1229:1267  uint256 splPromoShare = (regFee*1)/100 */\n  0x16\n  sstore\n    /* \"tronbox/contracts/SmartGenie.sol\":1719:2955  constructor(address _prWallet1, address _prWallet2, ... */\n  callvalue\n  dup1\n  iszero\n  tag_11\n  jumpi\n  0x00\n  dup1\n  revert\ntag_11:\n  pop\n  mload(0x40)\n  sub(codesize, bytecodeSize)\n  dup1\n  bytecodeSize\n  dup4\n  codecopy\n  dup2\n  dup2\n  add\n  0x40\n  mstore\n  dup2\n  add\n  swap1\n  tag_12\n  swap2\n  swap1\n  tag_13\n  jump\t// in\ntag_12:\n    /* \"tronbox/contracts/SmartGenie.sol\":1927:1937  msg.sender */\n  caller\n    /* \"tronbox/contracts/SmartGenie.sol\":1913:1924  adminWallet */\n  0x00\n  dup1\n    /* \"tronbox/contracts/SmartGenie.sol\":1913:1937  adminWallet = msg.sender */\n  0x0100\n  exp\n  dup2\n  sload\n  dup2\n  0xffffffffffffffffffffffffffffffffffffffff\n  mul\n  not\n  and\n  swap1\n  dup4\n  0xffffffffffffffffffffffffffffffffffffffff\n  and\n  mul\n  or\n  swap1\n  sstore\n  pop\n    /* \"tronbox/contracts/SmartGenie.sol\":1959:1969  _ursWallet */\n  dup1\n    /* \"tronbox/contracts/SmartGenie.sol\":1947:1956  ursWallet */\n  0x01\n  0x00\n    /* \"tronbox/contracts/SmartGenie.sol\":1947:1969  ursWallet = _ursWallet */\n  0x0100\n  exp\n  dup2\n  sload\n  dup2\n  0xffffffffffffffffffffffffffffffffffffffff\n  mul\n  not\n  and\n  swap1\n  dup4\n  0xffffffffffffffffffffffffffffffffffffffff\n  and\n  mul\n  or\n  swap1\n  sstore\n  pop\n    /* \"tronbox/contracts/SmartGenie.sol\":1996:2006  _sprWallet */\n  dup2\n    /* \"tronbox/contracts/SmartGenie.sol\":1979:1993  splPromoWallet */\n  0x02\n  0x00\n    /* \"tronbox/contracts/SmartGenie.sol\":1979:2006  splPromoWallet = _sprWallet */\n  0x0100\n  exp\n  dup2\n  sload\n  dup2\n  0xffffffffffffffffffffffffffffffffffffffff\n  mul\n  not\n  and\n  swap1\n  dup4\n  0xffffffffffffffffffffffffffffffffffffffff\n  and\n  mul\n  or\n  swap1\n  sstore\n  pop\n    /* \"tronbox/contracts/SmartGenie.sol\":2016:2071  promotionWallets = [_prWallet1, _prWallet2, _prWallet3] */\n  mload(0x40)\n  dup1\n  0x60\n  add\n  0x40\n  mstore\n  dup1\n    /* \"tronbox/contracts/SmartGenie.sol\":2036:2046  _prWallet1 */\n  dup7\n    /* \"tronbox/contracts/SmartGenie.sol\":2016:2071  promotionWallets = [_prWallet1, _prWallet2, _prWallet3] */\n  0xffffffffffffffffffffffffffffffffffffffff\n  and\n  0xffffffffffffffffffffffffffffffffffffffff\n  and\n  dup2\n  mstore\n  0x20\n  add\n    /* \"tronbox/contracts/SmartGenie.sol\":2048:2058  _prWallet2 */\n  dup6\n    /* \"tronbox/contracts/SmartGenie.sol\":2016:2071  promotionWallets = [_prWallet1, _prWallet2, _prWallet3] */\n  0xffffffffffffffffffffffffffffffffffffffff\n  and\n  0xffffffffffffffffffffffffffffffffffffffff\n  and\n  dup2\n  mstore\n  0x20\n  add\n    /* \"tronbox/contracts/SmartGenie.sol\":2060:2070  _prWallet3 */\n  dup5\n    /* \"tronbox/contracts/SmartGenie.sol\":2016:2071  promotionWallets = [_prWallet1, _prWallet2, _prWallet3] */\n  0xffffffffffffffffffffffffffffffffffffffff\n  and\n  0xffffffffffffffffffffffffffffffffffffffff\n  and\n  dup2\n  mstore\n  pop\n    /* \"tronbox/contracts/SmartGenie.sol\":2016:2032  promotionWallets */\n  0x09\n    /* \"tronbox/contracts/SmartGenie.sol\":2016:2071  promotionWallets = [_prWallet1, _prWallet2, _prWallet3] */\n  swap1\n  0x03\n  tag_16\n  swap3\n  swap2\n  swap1\n  tag_17\n  jump\t// in\ntag_16:\n  pop\n    /* \"tronbox/contracts/SmartGenie.sol\":2170:2173  100 */\n  0x64\n    /* \"tronbox/contracts/SmartGenie.sol\":2166:2168  80 */\n  0x50\n    /* \"tronbox/contracts/SmartGenie.sol\":2159:2165  regFee */\n  sload(0x13)\n    /* \"tronbox/contracts/SmartGenie.sol\":2159:2168  regFee*80 */\n  tag_18\n  swap2\n  swap1\n  tag_4\n  jump\t// in\ntag_18:\n    /* \"tronbox/contracts/SmartGenie.sol\":2158:2173  (regFee*80)/100 */\n  tag_19\n  swap2\n  swap1\n  tag_6\n  jump\t// in\ntag_19:\n    /* \"tronbox/contracts/SmartGenie.sol\":2141:2152  LEVEL_PRICE */\n  0x03\n    /* \"tronbox/contracts/SmartGenie.sol\":2141:2155  LEVEL_PRICE[1] */\n  0x00\n    /* \"tronbox/contracts/SmartGenie.sol\":2153:2154  1 */\n  0x01\n    /* \"tronbox/contracts/SmartGenie.sol\":2141:2155  LEVEL_PRICE[1] */\n  dup2\n  mstore\n  0x20\n  add\n  swap1\n  dup2\n  mstore\n  0x20\n  add\n  0x00\n  keccak256\n    /* \"tronbox/contracts/SmartGenie.sol\":2141:2173  LEVEL_PRICE[1] = (regFee*80)/100 */\n  dup2\n  swap1\n  sstore\n  pop\n    /* \"tronbox/contracts/SmartGenie.sol\":2215:2216  2 */\n  0x02\n    /* \"tronbox/contracts/SmartGenie.sol\":2200:2211  LEVEL_PRICE */\n  0x03\n    /* \"tronbox/contracts/SmartGenie.sol\":2200:2214  LEVEL_PRICE[1] */\n  0x00\n    /* \"tronbox/contracts/SmartGenie.sol\":2212:2213  1 */\n  0x01\n    /* \"tronbox/contracts/SmartGenie.sol\":2200:2214  LEVEL_PRICE[1] */\n  dup2\n  mstore\n  0x20\n  add\n  swap1\n  dup2\n  mstore\n  0x20\n  add\n  0x00\n  keccak256\n  sload\n    /* \"tronbox/contracts/SmartGenie.sol\":2200:2216  LEVEL_PRICE[1]*2 */\n  tag_20\n  swap2\n  swap1\n  tag_4\n  jump\t// in\ntag_20:\n    /* \"tronbox/contracts/SmartGenie.sol\":2183:2194  LEVEL_PRICE */\n  0x03\n    /* \"tronbox/contracts/SmartGenie.sol\":2183:2197  LEVEL_PRICE[2] */\n  0x00\n    /* \"tronbox/contracts/SmartGenie.sol\":2195:2196  2 */\n  0x02\n    /* \"tronbox/contracts/SmartGenie.sol\":2183:2197  LEVEL_PRICE[2] */\n  dup2\n  mstore\n  0x20\n  add\n  swap1\n  dup2\n  mstore\n  0x20\n  add\n  0x00\n  keccak256\n    /* \"tronbox/contracts/SmartGenie.sol\":2183:2216  LEVEL_PRICE[2] = LEVEL_PRICE[1]*2 */\n  dup2\n  swap1\n  sstore\n  pop\n    /* \"tronbox/contracts/SmartGenie.sol\":2258:2259  2 */\n  0x02\n    /* \"tronbox/contracts/SmartGenie.sol\":2243:2254  LEVEL_PRICE */\n  0x03\n    /* \"tronbox/contracts/SmartGenie.sol\":2243:2257  LEVEL_PRICE[2] */\n  0x00\n    /* \"tronbox/contracts/SmartGenie.sol\":2255:2256  2 */\n  0x02\n    /* \"tronbox/contracts/SmartGenie.sol\":2243:2257  LEVEL_PRICE[2] */\n  dup2\n  mstore\n  0x20\n  add\n  swap1\n  dup2\n  mstore\n  0x20\n  add\n  0x00\n  keccak256\n  sload\n    /* \"tronbox/contracts/SmartGenie.sol\":2243:2259  LEVEL_PRICE[2]*2 */\n  tag_21\n  swap2\n  swap1\n  tag_4\n  jump\t// in\ntag_21:\n    /* \"tronbox/contracts/SmartGenie.sol\":2226:2237  LEVEL_PRICE */\n  0x03\n    /* \"tronbox/contracts/SmartGenie.sol\":2226:2240  LEVEL_PRICE[3] */\n  0x00\n    /* \"tronbox/contracts/SmartGenie.sol\":2238:2239  3 */\n  0x03\n    /* \"tronbox/contracts/SmartGenie.sol\":2226:2240  LEVEL_PRICE[3] */\n  dup2\n  mstore\n  0x20\n  add\n  swap1\n  dup2\n  mstore\n  0x20\n  add\n  0x00\n  keccak256\n    /* \"tronbox/contracts/SmartGenie.sol\":2226:2259  LEVEL_PRICE[3] = LEVEL_PRICE[2]*2 */\n  dup2\n  swap1\n  sstore\n  pop\n    /* \"tronbox/contracts/SmartGenie.sol\":2301:2302  2 */\n  0x02\n    /* \"tronbox/contracts/SmartGenie.sol\":2286:2297  LEVEL_PRICE */\n  0x03\n    /* \"tronbox/contracts/SmartGenie.sol\":2286:2300  LEVEL_PRICE[3] */\n  0x00\n    /* \"tronbox/contracts/SmartGenie.sol\":2298:2299  3 */\n  0x03\n    /* \"tronbox/contracts/SmartGenie.sol\":2286:2300  LEVEL_PRICE[3] */\n  dup2\n  mstore\n  0x20\n  add\n  swap1\n  dup2\n  mstore\n  0x20\n  add\n  0x00\n  keccak256\n  sload\n    /* \"tronbox/contracts/SmartGenie.sol\":2286:2302  LEVEL_PRICE[3]*2 */\n  tag_22\n  swap2\n  swap1\n  tag_4\n  jump\t// in\ntag_22:\n    /* \"tronbox/contracts/SmartGenie.sol\":2269:2280  LEVEL_PRICE */\n  0x03\n    /* \"tronbox/contracts/SmartGenie.sol\":2269:2283  LEVEL_PRICE[4] */\n  0x00\n    /* \"tronbox/contracts/SmartGenie.sol\":2281:2282  4 */\n  0x04\n    /* \"tronbox/contracts/SmartGenie.sol\":2269:2283  LEVEL_PRICE[4] */\n  dup2\n  mstore\n  0x20\n  add\n  swap1\n  dup2\n  mstore\n  0x20\n  add\n  0x00\n  keccak256\n    /* \"tronbox/contracts/SmartGenie.sol\":2269:2302  LEVEL_PRICE[4] = LEVEL_PRICE[3]*2 */\n  dup2\n  swap1\n  sstore\n  pop\n    /* \"tronbox/contracts/SmartGenie.sol\":2344:2345  2 */\n  0x02\n    /* \"tronbox/contracts/SmartGenie.sol\":2329:2340  LEVEL_PRICE */\n  0x03\n    /* \"tronbox/contracts/SmartGenie.sol\":2329:2343  LEVEL_PRICE[4] */\n  0x00\n    /* \"tronbox/contracts/SmartGenie.sol\":2341:2342  4 */\n  0x04\n    /* \"tronbox/contracts/SmartGenie.sol\":2329:2343  LEVEL_PRICE[4] */\n  dup2\n  mstore\n  0x20\n  add\n  swap1\n  dup2\n  mstore\n  0x20\n  add\n  0x00\n  keccak256\n  sload\n    /* \"tronbox/contracts/SmartGenie.sol\":2329:2345  LEVEL_PRICE[4]*2 */\n  tag_23\n  swap2\n  swap1\n  tag_4\n  jump\t// in\ntag_23:\n    /* \"tronbox/contracts/SmartGenie.sol\":2312:2323  LEVEL_PRICE */\n  0x03\n    /* \"tronbox/contracts/SmartGenie.sol\":2312:2326  LEVEL_PRICE[5] */\n  0x00\n    /* \"tronbox/contracts/SmartGenie.sol\":2324:2325  5 */\n  0x05\n    /* \"tronbox/contracts/SmartGenie.sol\":2312:2326  LEVEL_PRICE[5] */\n  dup2\n  mstore\n  0x20\n  add\n  swap1\n  dup2\n  mstore\n  0x20\n  add\n  0x00\n  keccak256\n    /* \"tronbox/contracts/SmartGenie.sol\":2312:2345  LEVEL_PRICE[5] = LEVEL_PRICE[4]*2 */\n  dup2\n  swap1\n  sstore\n  pop\n    /* \"tronbox/contracts/SmartGenie.sol\":2387:2388  2 */\n  0x02\n    /* \"tronbox/contracts/SmartGenie.sol\":2372:2383  LEVEL_PRICE */\n  0x03\n    /* \"tronbox/contracts/SmartGenie.sol\":2372:2386  LEVEL_PRICE[5] */\n  0x00\n    /* \"tronbox/contracts/SmartGenie.sol\":2384:2385  5 */\n  0x05\n    /* \"tronbox/contracts/SmartGenie.sol\":2372:2386  LEVEL_PRICE[5] */\n  dup2\n  mstore\n  0x20\n  add\n  swap1\n  dup2\n  mstore\n  0x20\n  add\n  0x00\n  keccak256\n  sload\n    /* \"tronbox/contracts/SmartGenie.sol\":2372:2388  LEVEL_PRICE[5]*2 */\n  tag_24\n  swap2\n  swap1\n  tag_4\n  jump\t// in\ntag_24:\n    /* \"tronbox/contracts/SmartGenie.sol\":2355:2366  LEVEL_PRICE */\n  0x03\n    /* \"tronbox/contracts/SmartGenie.sol\":2355:2369  LEVEL_PRICE[6] */\n  0x00\n    /* \"tronbox/contracts/SmartGenie.sol\":2367:2368  6 */\n  0x06\n    /* \"tronbox/contracts/SmartGenie.sol\":2355:2369  LEVEL_PRICE[6] */\n  dup2\n  mstore\n  0x20\n  add\n  swap1\n  dup2\n  mstore\n  0x20\n  add\n  0x00\n  keccak256\n    /* \"tronbox/contracts/SmartGenie.sol\":2355:2388  LEVEL_PRICE[6] = LEVEL_PRICE[5]*2 */\n  dup2\n  swap1\n  sstore\n  pop\n    /* \"tronbox/contracts/SmartGenie.sol\":2430:2431  2 */\n  0x02\n    /* \"tronbox/contracts/SmartGenie.sol\":2415:2426  LEVEL_PRICE */\n  0x03\n    /* \"tronbox/contracts/SmartGenie.sol\":2415:2429  LEVEL_PRICE[6] */\n  0x00\n    /* \"tronbox/contracts/SmartGenie.sol\":2427:2428  6 */\n  0x06\n    /* \"tronbox/contracts/SmartGenie.sol\":2415:2429  LEVEL_PRICE[6] */\n  dup2\n  mstore\n  0x20\n  add\n  swap1\n  dup2\n  mstore\n  0x20\n  add\n  0x00\n  keccak256\n  sload\n    /* \"tronbox/contracts/SmartGenie.sol\":2415:2431  LEVEL_PRICE[6]*2 */\n  tag_25\n  swap2\n  swap1\n  tag_4\n  jump\t// in\ntag_25:\n    /* \"tronbox/contracts/SmartGenie.sol\":2398:2409  LEVEL_PRICE */\n  0x03\n    /* \"tronbox/contracts/SmartGenie.sol\":2398:2412  LEVEL_PRICE[7] */\n  0x00\n    /* \"tronbox/contracts/SmartGenie.sol\":2410:2411  7 */\n  0x07\n    /* \"tronbox/contracts/SmartGenie.sol\":2398:2412  LEVEL_PRICE[7] */\n  dup2\n  mstore\n  0x20\n  add\n  swap1\n  dup2\n  mstore\n  0x20\n  add\n  0x00\n  keccak256\n    /* \"tronbox/contracts/SmartGenie.sol\":2398:2431  LEVEL_PRICE[7] = LEVEL_PRICE[6]*2 */\n  dup2\n  swap1\n  sstore\n  pop\n    /* \"tronbox/contracts/SmartGenie.sol\":2473:2474  2 */\n  0x02\n    /* \"tronbox/contracts/SmartGenie.sol\":2458:2469  LEVEL_PRICE */\n  0x03\n    /* \"tronbox/contracts/SmartGenie.sol\":2458:2472  LEVEL_PRICE[7] */\n  0x00\n    /* \"tronbox/contracts/SmartGenie.sol\":2470:2471  7 */\n  0x07\n    /* \"tronbox/contracts/SmartGenie.sol\":2458:2472  LEVEL_PRICE[7] */\n  dup2\n  mstore\n  0x20\n  add\n  swap1\n  dup2\n  mstore\n  0x20\n  add\n  0x00\n  keccak256\n  sload\n    /* \"tronbox/contracts/SmartGenie.sol\":2458:2474  LEVEL_PRICE[7]*2 */\n  tag_26\n  swap2\n  swap1\n  tag_4\n  jump\t// in\ntag_26:\n    /* \"tronbox/contracts/SmartGenie.sol\":2441:2452  LEVEL_PRICE */\n  0x03\n    /* \"tronbox/contracts/SmartGenie.sol\":2441:2455  LEVEL_PRICE[8] */\n  0x00\n    /* \"tronbox/contracts/SmartGenie.sol\":2453:2454  8 */\n  0x08\n    /* \"tronbox/contracts/SmartGenie.sol\":2441:2455  LEVEL_PRICE[8] */\n  dup2\n  mstore\n  0x20\n  add\n  swap1\n  dup2\n  mstore\n  0x20\n  add\n  0x00\n  keccak256\n    /* \"tronbox/contracts/SmartGenie.sol\":2441:2474  LEVEL_PRICE[8] = LEVEL_PRICE[7]*2 */\n  dup2\n  swap1\n  sstore\n  pop\n    /* \"tronbox/contracts/SmartGenie.sol\":2516:2517  2 */\n  0x02\n    /* \"tronbox/contracts/SmartGenie.sol\":2501:2512  LEVEL_PRICE */\n  0x03\n    /* \"tronbox/contracts/SmartGenie.sol\":2501:2515  LEVEL_PRICE[8] */\n  0x00\n    /* \"tronbox/contracts/SmartGenie.sol\":2513:2514  8 */\n  0x08\n    /* \"tronbox/contracts/SmartGenie.sol\":2501:2515  LEVEL_PRICE[8] */\n  dup2\n  mstore\n  0x20\n  add\n  swap1\n  dup2\n  mstore\n  0x20\n  add\n  0x00\n  keccak256\n  sload\n    /* \"tronbox/contracts/SmartGenie.sol\":2501:2517  LEVEL_PRICE[8]*2 */\n  tag_27\n  swap2\n  swap1\n  tag_4\n  jump\t// in\ntag_27:\n    /* \"tronbox/contracts/SmartGenie.sol\":2484:2495  LEVEL_PRICE */\n  0x03\n    /* \"tronbox/contracts/SmartGenie.sol\":2484:2498  LEVEL_PRICE[9] */\n  0x00\n    /* \"tronbox/contracts/SmartGenie.sol\":2496:2497  9 */\n  0x09\n    /* \"tronbox/contracts/SmartGenie.sol\":2484:2498  LEVEL_PRICE[9] */\n  dup2\n  mstore\n  0x20\n  add\n  swap1\n  dup2\n  mstore\n  0x20\n  add\n  0x00\n  keccak256\n    /* \"tronbox/contracts/SmartGenie.sol\":2484:2517  LEVEL_PRICE[9] = LEVEL_PRICE[8]*2 */\n  dup2\n  swap1\n  sstore\n  pop\n    /* \"tronbox/contracts/SmartGenie.sol\":2578:2607  UserStruct storage userStruct */\n  0x00\n    /* \"tronbox/contracts/SmartGenie.sol\":2610:2615  users */\n  0x04\n    /* \"tronbox/contracts/SmartGenie.sol\":2610:2628  users[adminWallet] */\n  0x00\n    /* \"tronbox/contracts/SmartGenie.sol\":2616:2627  adminWallet */\n  dup1\n  0x00\n  swap1\n  sload\n  swap1\n  0x0100\n  exp\n  swap1\n  div\n  0xffffffffffffffffffffffffffffffffffffffff\n  and\n    /* \"tronbox/contracts/SmartGenie.sol\":2610:2628  users[adminWallet] */\n  0xffffffffffffffffffffffffffffffffffffffff\n  and\n  0xffffffffffffffffffffffffffffffffffffffff\n  and\n  dup2\n  mstore\n  0x20\n  add\n  swap1\n  dup2\n  mstore\n  0x20\n  add\n  0x00\n  keccak256\n    /* \"tronbox/contracts/SmartGenie.sol\":2578:2628  UserStruct storage userStruct = users[adminWallet] */\n  swap1\n  pop\n    /* \"tronbox/contracts/SmartGenie.sol\":2659:2663  true */\n  0x01\n    /* \"tronbox/contracts/SmartGenie.sol\":2638:2648  userStruct */\n  dup2\n    /* \"tronbox/contracts/SmartGenie.sol\":2638:2656  userStruct.isExist */\n  0x00\n  add\n  0x00\n    /* \"tronbox/contracts/SmartGenie.sol\":2638:2663  userStruct.isExist = true */\n  0x0100\n  exp\n  dup2\n  sload\n  dup2\n  0xff\n  mul\n  not\n  and\n  swap1\n  dup4\n  iszero\n  iszero\n  mul\n  or\n  swap1\n  sstore\n  pop\n    /* \"tronbox/contracts/SmartGenie.sol\":2689:2699  currUserID */\n  sload(0x10)\n    /* \"tronbox/contracts/SmartGenie.sol\":2673:2683  userStruct */\n  dup2\n    /* \"tronbox/contracts/SmartGenie.sol\":2673:2686  userStruct.id */\n  0x01\n  add\n    /* \"tronbox/contracts/SmartGenie.sol\":2673:2699  userStruct.id = currUserID */\n  dup2\n  swap1\n  sstore\n  pop\n    /* \"tronbox/contracts/SmartGenie.sol\":2733:2734  0 */\n  0x00\n    /* \"tronbox/contracts/SmartGenie.sol\":2709:2719  userStruct */\n  dup2\n    /* \"tronbox/contracts/SmartGenie.sol\":2709:2730  userStruct.referrerID */\n  0x02\n  add\n    /* \"tronbox/contracts/SmartGenie.sol\":2709:2734  userStruct.referrerID = 0 */\n  dup2\n  swap1\n  sstore\n  pop\n    /* \"tronbox/contracts/SmartGenie.sol\":2780:2781  0 */\n  0x00\n    /* \"tronbox/contracts/SmartGenie.sol\":2766:2782  new address[](0) */\n  0xffffffffffffffff\n  dup2\n  gt\n  iszero\n  tag_28\n  jumpi\n  tag_29\n  tag_30\n  jump\t// in\ntag_29:\ntag_28:\n  mload(0x40)\n  swap1\n  dup1\n  dup3\n  mstore\n  dup1\n  0x20\n  mul\n  0x20\n  add\n  dup3\n  add\n  0x40\n  mstore\n  dup1\n  iszero\n  tag_31\n  jumpi\n  dup2\n  0x20\n  add\n  0x20\n  dup3\n  mul\n  dup1\n  calldatasize\n  dup4\n  calldatacopy\n  dup1\n  dup3\n  add\n  swap2\n  pop\n  pop\n  swap1\n  pop\ntag_31:\n  pop\n    /* \"tronbox/contracts/SmartGenie.sol\":2744:2754  userStruct */\n  dup2\n    /* \"tronbox/contracts/SmartGenie.sol\":2744:2763  userStruct.referral */\n  0x03\n  add\n    /* \"tronbox/contracts/SmartGenie.sol\":2744:2782  userStruct.referral = new address[](0) */\n  swap1\n  dup1\n  mload\n  swap1\n  0x20\n  add\n  swap1\n  tag_32\n  swap3\n  swap2\n  swap1\n  tag_33\n  jump\t// in\ntag_32:\n  pop\n    /* \"tronbox/contracts/SmartGenie.sol\":2812:2827  block.timestamp */\n  timestamp\n    /* \"tronbox/contracts/SmartGenie.sol\":2792:2802  userStruct */\n  dup2\n    /* \"tronbox/contracts/SmartGenie.sol\":2792:2809  userStruct.joined */\n  0x04\n  add\n    /* \"tronbox/contracts/SmartGenie.sol\":2792:2827  userStruct.joined = block.timestamp */\n  dup2\n  swap1\n  sstore\n  pop\n    /* \"tronbox/contracts/SmartGenie.sol\":2878:2879  0 */\n  0x00\n    /* \"tronbox/contracts/SmartGenie.sol\":2867:2880  new uint[](0) */\n  0xffffffffffffffff\n  dup2\n  gt\n  iszero\n  tag_34\n  jumpi\n  tag_35\n  tag_30\n  jump\t// in\ntag_35:\ntag_34:\n  mload(0x40)\n  swap1\n  dup1\n  dup3\n  mstore\n  dup1\n  0x20\n  mul\n  0x20\n  add\n  dup3\n  add\n  0x40\n  mstore\n  dup1\n  iszero\n  tag_36\n  jumpi\n  dup2\n  0x20\n  add\n  0x20\n  dup3\n  mul\n  dup1\n  calldatasize\n  dup4\n  calldatacopy\n  dup1\n  dup3\n  add\n  swap2\n  pop\n  pop\n  swap1\n  pop\ntag_36:\n  pop\n    /* \"tronbox/contracts/SmartGenie.sol\":2837:2847  userStruct */\n  dup2\n    /* \"tronbox/contracts/SmartGenie.sol\":2837:2864  userStruct.levelEligibility */\n  0x06\n  add\n    /* \"tronbox/contracts/SmartGenie.sol\":2837:2880  userStruct.levelEligibility = new uint[](0) */\n  swap1\n  dup1\n  mload\n  swap1\n  0x20\n  add\n  swap1\n  tag_37\n  swap3\n  swap2\n  swap1\n  tag_38\n  jump\t// in\ntag_37:\n  pop\n    /* \"tronbox/contracts/SmartGenie.sol\":2892:2902  currUserID */\n  0x10\n  0x00\n    /* \"tronbox/contracts/SmartGenie.sol\":2892:2904  currUserID++ */\n  dup2\n  sload\n  dup1\n  swap3\n  swap2\n  swap1\n  tag_39\n  swap1\n  tag_40\n  jump\t// in\ntag_39:\n  swap2\n  swap1\n  pop\n  sstore\n  pop\n    /* \"tronbox/contracts/SmartGenie.sol\":2937:2948  adminWallet */\n  0x00\n  dup1\n  sload\n  swap1\n  0x0100\n  exp\n  swap1\n  div\n  0xffffffffffffffffffffffffffffffffffffffff\n  and\n    /* \"tronbox/contracts/SmartGenie.sol\":2914:2922  userList */\n  0x05\n    /* \"tronbox/contracts/SmartGenie.sol\":2914:2934  userList[currUserID] */\n  0x00\n    /* \"tronbox/contracts/SmartGenie.sol\":2923:2933  currUserID */\n  sload(0x10)\n    /* \"tronbox/contracts/SmartGenie.sol\":2914:2934  userList[currUserID] */\n  dup2\n  mstore\n  0x20\n  add\n  swap1\n  dup2\n  mstore\n  0x20\n  add\n  0x00\n  keccak256\n  0x00\n    /* \"tronbox/contracts/SmartGenie.sol\":2914:2948  userList[currUserID] = adminWallet */\n  0x0100\n  exp\n  dup2\n  sload\n  dup2\n  0xffffffffffffffffffffffffffffffffffffffff\n  mul\n  not\n  and\n  swap1\n  dup4\n  0xffffffffffffffffffffffffffffffffffffffff\n  and\n  mul\n  or\n  swap1\n  sstore\n  pop\n    /* \"tronbox/contracts/SmartGenie.sol\":1848:2955  {... */\n  pop\n    /* \"tronbox/contracts/SmartGenie.sol\":1719:2955  constructor(address _prWallet1, address _prWallet2, ... */\n  pop\n  pop\n  pop\n  pop\n  pop\n    /* \"tronbox/contracts/SmartGenie.sol\":124:24963  contract SmartGenie {... */\n  jump(tag_41)\ntag_2:\n  dup3\n  add(0x1f, 0x03)\n  0x20\n  swap1\n  div\n  dup2\n  add\n  swap3\n  dup3\n  iszero\n  tag_42\n  jumpi\n  swap2\n  0x20\n  mul\n  dup3\n  add\n  0x00\ntag_43:\n  dup4\n  dup3\n  gt\n  iszero\n  tag_44\n  jumpi\n  dup4\n  mload\n  dup4\n  dup3\n  0x0100\n  exp\n  dup2\n  sload\n  dup2\n  0xff\n  mul\n  not\n  and\n  swap1\n  dup4\n  0xff\n  and\n  mul\n  or\n  swap1\n  sstore\n  pop\n  swap3\n  0x20\n  add\n  swap3\n  0x01\n  add\n  0x20\n  dup2\n  0x00\n  add\n  div\n  swap3\n  dup4\n  add\n  swap3\n  0x01\n  sub\n  mul\n  jump(tag_43)\ntag_44:\n  dup1\n  iszero\n  tag_45\n  jumpi\n  dup3\n  dup2\n  0x0100\n  exp\n  dup2\n  sload\n  swap1\n  0xff\n  mul\n  not\n  and\n  swap1\n  sstore\n  0x01\n  add\n  0x20\n  dup2\n  0x00\n  add\n  div\n  swap3\n  dup4\n  add\n  swap3\n  0x01\n  sub\n  mul\n  jump(tag_44)\ntag_45:\n  pop\ntag_42:\n  pop\n  swap1\n  pop\n  tag_46\n  swap2\n  swap1\n  tag_47\n  jump\t// in\ntag_46:\n  pop\n  swap1\n  jump\t// out\ntag_17:\n  dup3\n  0x03\n  dup2\n  add\n  swap3\n  dup3\n  iszero\n  tag_48\n  jumpi\n  swap2\n  0x20\n  mul\n  dup3\n  add\ntag_49:\n  dup3\n  dup2\n  gt\n  iszero\n  tag_50\n  jumpi\n  dup3\n  mload\n  dup3\n  exp(0x0100, 0x00)\n  dup2\n  sload\n  dup2\n  0xffffffffffffffffffffffffffffffffffffffff\n  mul\n  not\n  and\n  swap1\n  dup4\n  0xffffffffffffffffffffffffffffffffffffffff\n  and\n  mul\n  or\n  swap1\n  sstore\n  pop\n  swap2\n  0x20\n  add\n  swap2\n  swap1\n  0x01\n  add\n  swap1\n  jump(tag_49)\ntag_50:\ntag_48:\n  pop\n  swap1\n  pop\n  tag_51\n  swap2\n  swap1\n  tag_47\n  jump\t// in\ntag_51:\n  pop\n  swap1\n  jump\t// out\ntag_33:\n  dup3\n  dup1\n  sload\n  dup3\n  dup3\n  sstore\n  swap1\n  0x00\n  mstore\n  keccak256(0x00, 0x20)\n  swap1\n  dup2\n  add\n  swap3\n  dup3\n  iszero\n  tag_52\n  jumpi\n  swap2\n  0x20\n  mul\n  dup3\n  add\ntag_53:\n  dup3\n  dup2\n  gt\n  iszero\n  tag_54\n  jumpi\n  dup3\n  mload\n  dup3\n  exp(0x0100, 0x00)\n  dup2\n  sload\n  dup2\n  0xffffffffffffffffffffffffffffffffffffffff\n  mul\n  not\n  and\n  swap1\n  dup4\n  0xffffffffffffffffffffffffffffffffffffffff\n  and\n  mul\n  or\n  swap1\n  sstore\n  pop\n  swap2\n  0x20\n  add\n  swap2\n  swap1\n  0x01\n  add\n  swap1\n  jump(tag_53)\ntag_54:\ntag_52:\n  pop\n  swap1\n  pop\n  tag_55\n  swap2\n  swap1\n  tag_47\n  jump\t// in\ntag_55:\n  pop\n  swap1\n  jump\t// out\ntag_38:\n  dup3\n  dup1\n  sload\n  dup3\n  dup3\n  sstore\n  swap1\n  0x00\n  mstore\n  keccak256(0x00, 0x20)\n  swap1\n  dup2\n  add\n  swap3\n  dup3\n  iszero\n  tag_56\n  jumpi\n  swap2\n  0x20\n  mul\n  dup3\n  add\ntag_57:\n  dup3\n  dup2\n  gt\n  iszero\n  tag_58\n  jumpi\n  dup3\n  mload\n  dup3\n  sstore\n  swap2\n  0x20\n  add\n  swap2\n  swap1\n  0x01\n  add\n  swap1\n  jump(tag_57)\ntag_58:\ntag_56:\n  pop\n  swap1\n  pop\n  tag_59\n  swap2\n  swap1\n  tag_47\n  jump\t// in\ntag_59:\n  pop\n  swap1\n  jump\t// out\ntag_47:\ntag_60:\n  dup1\n  dup3\n  gt\n  iszero\n  tag_61\n  jumpi\n  0x00\n  dup2\n  0x00\n  swap1\n  sstore\n  pop\n  0x01\n  add\n  jump(tag_60)\ntag_61:\n  pop\n  swap1\n  jump\t// out\n    /* \"#utility.yul\":7:84   */\ntag_62:\n    /* \"#utility.yul\":44:51   */\n  0x00\n    /* \"#utility.yul\":73:78   */\n  dup2\n    /* \"#utility.yul\":62:78   */\n  swap1\n  pop\n    /* \"#utility.yul\":7:84   */\n  swap2\n  swap1\n  pop\n  jump\t// out\n    /* \"#utility.yul\":90:270   */\ntag_63:\n    /* \"#utility.yul\":138:215   */\n  0x4e487b7100000000000000000000000000000000000000000000000000000000\n    /* \"#utility.yul\":135:136   */\n  0x00\n    /* \"#utility.yul\":128:216   */\n  mstore\n    /* \"#utility.yul\":235:239   */\n  0x11\n    /* \"#utility.yul\":232:233   */\n  0x04\n    /* \"#utility.yul\":225:240   */\n  mstore\n    /* \"#utility.yul\":259:263   */\n  0x24\n    /* \"#utility.yul\":256:257   */\n  0x00\n    /* \"#utility.yul\":249:264   */\n  revert\n    /* \"#utility.yul\":276:624   */\ntag_4:\n    /* \"#utility.yul\":316:323   */\n  0x00\n    /* \"#utility.yul\":339:359   */\n  tag_76\n    /* \"#utility.yul\":357:358   */\n  dup3\n    /* \"#utility.yul\":339:359   */\n  tag_62\n  jump\t// in\ntag_76:\n    /* \"#utility.yul\":334:359   */\n  swap2\n  pop\n    /* \"#utility.yul\":373:393   */\n  tag_77\n    /* \"#utility.yul\":391:392   */\n  dup4\n    /* \"#utility.yul\":373:393   */\n  tag_62\n  jump\t// in\ntag_77:\n    /* \"#utility.yul\":368:393   */\n  swap3\n  pop\n    /* \"#utility.yul\":561:562   */\n  dup2\n    /* \"#utility.yul\":493:559   */\n  0xffffffffffffffffffffffffffffffffffffffffffffffffffffffffffffffff\n    /* \"#utility.yul\":489:563   */\n  div\n    /* \"#utility.yul\":486:487   */\n  dup4\n    /* \"#utility.yul\":483:564   */\n  gt\n    /* \"#utility.yul\":478:479   */\n  dup3\n    /* \"#utility.yul\":471:480   */\n  iszero\n    /* \"#utility.yul\":464:481   */\n  iszero\n    /* \"#utility.yul\":460:565   */\n  and\n    /* \"#utility.yul\":457:588   */\n  iszero\n  tag_78\n  jumpi\n    /* \"#utility.yul\":568:586   */\n  tag_79\n  tag_63\n  jump\t// in\ntag_79:\n    /* \"#utility.yul\":457:588   */\ntag_78:\n    /* \"#utility.yul\":616:617   */\n  dup3\n    /* \"#utility.yul\":613:614   */\n  dup3\n    /* \"#utility.yul\":609:618   */\n  mul\n    /* \"#utility.yul\":598:618   */\n  swap1\n  pop\n    /* \"#utility.yul\":276:624   */\n  swap3\n  swap2\n  pop\n  pop\n  jump\t// out\n    /* \"#utility.yul\":630:810   */\ntag_64:\n    /* \"#utility.yul\":678:755   */\n  0x4e487b7100000000000000000000000000000000000000000000000000000000\n    /* \"#utility.yul\":675:676   */\n  0x00\n    /* \"#utility.yul\":668:756   */\n  mstore\n    /* \"#utility.yul\":775:779   */\n  0x12\n    /* \"#utility.yul\":772:773   */\n  0x04\n    /* \"#utility.yul\":765:780   */\n  mstore\n    /* \"#utility.yul\":799:803   */\n  0x24\n    /* \"#utility.yul\":796:797   */\n  0x00\n    /* \"#utility.yul\":789:804   */\n  revert\n    /* \"#utility.yul\":816:1001   */\ntag_6:\n    /* \"#utility.yul\":856:857   */\n  0x00\n    /* \"#utility.yul\":873:893   */\n  tag_82\n    /* \"#utility.yul\":891:892   */\n  dup3\n    /* \"#utility.yul\":873:893   */\n  tag_62\n  jump\t// in\ntag_82:\n    /* \"#utility.yul\":868:893   */\n  swap2\n  pop\n    /* \"#utility.yul\":907:927   */\n  tag_83\n    /* \"#utility.yul\":925:926   */\n  dup4\n    /* \"#utility.yul\":907:927   */\n  tag_62\n  jump\t// in\ntag_83:\n    /* \"#utility.yul\":902:927   */\n  swap3\n  pop\n    /* \"#utility.yul\":946:947   */\n  dup3\n    /* \"#utility.yul\":936:971   */\n  tag_84\n  jumpi\n    /* \"#utility.yul\":951:969   */\n  tag_85\n  tag_64\n  jump\t// in\ntag_85:\n    /* \"#utility.yul\":936:971   */\ntag_84:\n    /* \"#utility.yul\":993:994   */\n  dup3\n    /* \"#utility.yul\":990:991   */\n  dup3\n    /* \"#utility.yul\":986:995   */\n  div\n    /* \"#utility.yul\":981:995   */\n  swap1\n  pop\n    /* \"#utility.yul\":816:1001   */\n  swap3\n  swap2\n  pop\n  pop\n  jump\t// out\n    /* \"#utility.yul\":1088:1205   */\ntag_66:\n    /* \"#utility.yul\":1197:1198   */\n  0x00\n    /* \"#utility.yul\":1194:1195   */\n  dup1\n    /* \"#utility.yul\":1187:1199   */\n  revert\n    /* \"#utility.yul\":1334:1460   */\ntag_68:\n    /* \"#utility.yul\":1371:1378   */\n  0x00\n    /* \"#utility.yul\":1411:1453   */\n  0xffffffffffffffffffffffffffffffffffffffff\n    /* \"#utility.yul\":1404:1409   */\n  dup3\n    /* \"#utility.yul\":1400:1454   */\n  and\n    /* \"#utility.yul\":1389:1454   */\n  swap1\n  pop\n    /* \"#utility.yul\":1334:1460   */\n  swap2\n  swap1\n  pop\n  jump\t// out\n    /* \"#utility.yul\":1466:1562   */\ntag_69:\n    /* \"#utility.yul\":1503:1510   */\n  0x00\n    /* \"#utility.yul\":1532:1556   */\n  tag_91\n    /* \"#utility.yul\":1550:1555   */\n  dup3\n    /* \"#utility.yul\":1532:1556   */\n  tag_68\n  jump\t// in\ntag_91:\n    /* \"#utility.yul\":1521:1556   */\n  swap1\n  pop\n    /* \"#utility.yul\":1466:1562   */\n  swap2\n  swap1\n  pop\n  jump\t// out\n    /* \"#utility.yul\":1568:1690   */\ntag_70:\n    /* \"#utility.yul\":1641:1665   */\n  tag_93\n    /* \"#utility.yul\":1659:1664   */\n  dup2\n    /* \"#utility.yul\":1641:1665   */\n  tag_69\n  jump\t// in\ntag_93:\n    /* \"#utility.yul\":1634:1639   */\n  dup2\n    /* \"#utility.yul\":1631:1666   */\n  eq\n    /* \"#utility.yul\":1621:1684   */\n  tag_94\n  jumpi\n    /* \"#utility.yul\":1680:1681   */\n  0x00\n    /* \"#utility.yul\":1677:1678   */\n  dup1\n    /* \"#utility.yul\":1670:1682   */\n  revert\n    /* \"#utility.yul\":1621:1684   */\ntag_94:\n    /* \"#utility.yul\":1568:1690   */\n  pop\n  jump\t// out\n    /* \"#utility.yul\":1696:1839   */\ntag_71:\n    /* \"#utility.yul\":1753:1758   */\n  0x00\n    /* \"#utility.yul\":1784:1790   */\n  dup2\n    /* \"#utility.yul\":1778:1791   */\n  mload\n    /* \"#utility.yul\":1769:1791   */\n  swap1\n  pop\n    /* \"#utility.yul\":1800:1833   */\n  tag_96\n    /* \"#utility.yul\":1827:1832   */\n  dup2\n    /* \"#utility.yul\":1800:1833   */\n  tag_70\n  jump\t// in\ntag_96:\n    /* \"#utility.yul\":1696:1839   */\n  swap3\n  swap2\n  pop\n  pop\n  jump\t// out\n    /* \"#utility.yul\":1845:2822   */\ntag_13:\n    /* \"#utility.yul\":1951:1957   */\n  0x00\n    /* \"#utility.yul\":1959:1965   */\n  dup1\n    /* \"#utility.yul\":1967:1973   */\n  0x00\n    /* \"#utility.yul\":1975:1981   */\n  dup1\n    /* \"#utility.yul\":1983:1989   */\n  0x00\n    /* \"#utility.yul\":2032:2035   */\n  0xa0\n    /* \"#utility.yul\":2020:2029   */\n  dup7\n    /* \"#utility.yul\":2011:2018   */\n  dup9\n    /* \"#utility.yul\":2007:2030   */\n  sub\n    /* \"#utility.yul\":2003:2036   */\n  slt\n    /* \"#utility.yul\":2000:2120   */\n  iszero\n  tag_98\n  jumpi\n    /* \"#utility.yul\":2039:2118   */\n  tag_99\n  tag_66\n  jump\t// in\ntag_99:\n    /* \"#utility.yul\":2000:2120   */\ntag_98:\n    /* \"#utility.yul\":2159:2160   */\n  0x00\n    /* \"#utility.yul\":2184:2248   */\n  tag_100\n    /* \"#utility.yul\":2240:2247   */\n  dup9\n    /* \"#utility.yul\":2231:2237   */\n  dup3\n    /* \"#utility.yul\":2220:2229   */\n  dup10\n    /* \"#utility.yul\":2216:2238   */\n  add\n    /* \"#utility.yul\":2184:2248   */\n  tag_71\n  jump\t// in\ntag_100:\n    /* \"#utility.yul\":2174:2248   */\n  swap6\n  pop\n    /* \"#utility.yul\":2130:2258   */\n  pop\n    /* \"#utility.yul\":2297:2299   */\n  0x20\n    /* \"#utility.yul\":2323:2387   */\n  tag_101\n    /* \"#utility.yul\":2379:2386   */\n  dup9\n    /* \"#utility.yul\":2370:2376   */\n  dup3\n    /* \"#utility.yul\":2359:2368   */\n  dup10\n    /* \"#utility.yul\":2355:2377   */\n  add\n    /* \"#utility.yul\":2323:2387   */\n  tag_71\n  jump\t// in\ntag_101:\n    /* \"#utility.yul\":2313:2387   */\n  swap5\n  pop\n    /* \"#utility.yul\":2268:2397   */\n  pop\n    /* \"#utility.yul\":2436:2438   */\n  0x40\n    /* \"#utility.yul\":2462:2526   */\n  tag_102\n    /* \"#utility.yul\":2518:2525   */\n  dup9\n    /* \"#utility.yul\":2509:2515   */\n  dup3\n    /* \"#utility.yul\":2498:2507   */\n  dup10\n    /* \"#utility.yul\":2494:2516   */\n  add\n    /* \"#utility.yul\":2462:2526   */\n  tag_71\n  jump\t// in\ntag_102:\n    /* \"#utility.yul\":2452:2526   */\n  swap4\n  pop\n    /* \"#utility.yul\":2407:2536   */\n  pop\n    /* \"#utility.yul\":2575:2577   */\n  0x60\n    /* \"#utility.yul\":2601:2665   */\n  tag_103\n    /* \"#utility.yul\":2657:2664   */\n  dup9\n    /* \"#utility.yul\":2648:2654   */\n  dup3\n    /* \"#utility.yul\":2637:2646   */\n  dup10\n    /* \"#utility.yul\":2633:2655   */\n  add\n    /* \"#utility.yul\":2601:2665   */\n  tag_71\n  jump\t// in\ntag_103:\n    /* \"#utility.yul\":2591:2665   */\n  swap3\n  pop\n    /* \"#utility.yul\":2546:2675   */\n  pop\n    /* \"#utility.yul\":2714:2717   */\n  0x80\n    /* \"#utility.yul\":2741:2805   */\n  tag_104\n    /* \"#utility.yul\":2797:2804   */\n  dup9\n    /* \"#utility.yul\":2788:2794   */\n  dup3\n    /* \"#utility.yul\":2777:2786   */\n  dup10\n    /* \"#utility.yul\":2773:2795   */\n  add\n    /* \"#utility.yul\":2741:2805   */\n  tag_71\n  jump\t// in\ntag_104:\n    /* \"#utility.yul\":2731:2805   */\n  swap2\n  pop\n    /* \"#utility.yul\":2685:2815   */\n  pop\n    /* \"#utility.yul\":1845:2822   */\n  swap3\n  swap6\n  pop\n  swap3\n  swap6\n  swap1\n  swap4\n  pop\n  jump\t// out\n    /* \"#utility.yul\":2828:3008   */\ntag_30:\n    /* \"#utility.yul\":2876:2953   */\n  0x4e487b7100000000000000000000000000000000000000000000000000000000\n    /* \"#utility.yul\":2873:2874   */\n  0x00\n    /* \"#utility.yul\":2866:2954   */\n  mstore\n    /* \"#utility.yul\":2973:2977   */\n  0x41\n    /* \"#utility.yul\":2970:2971   */\n  0x04\n    /* \"#utility.yul\":2963:2978   */\n  mstore\n    /* \"#utility.yul\":2997:3001   */\n  0x24\n    /* \"#utility.yul\":2994:2995   */\n  0x00\n    /* \"#utility.yul\":2987:3002   */\n  revert\n    /* \"#utility.yul\":3014:3247   */\ntag_40:\n    /* \"#utility.yul\":3053:3056   */\n  0x00\n    /* \"#utility.yul\":3076:3100   */\n  tag_107\n    /* \"#utility.yul\":3094:3099   */\n  dup3\n    /* \"#utility.yul\":3076:3100   */\n  tag_62\n  jump\t// in\ntag_107:\n    /* \"#utility.yul\":3067:3100   */\n  swap2\n  pop\n    /* \"#utility.yul\":3122:3188   */\n  0xffffffffffffffffffffffffffffffffffffffffffffffffffffffffffffffff\n    /* \"#utility.yul\":3115:3120   */\n  dup3\n    /* \"#utility.yul\":3112:3189   */\n  eq\n    /* \"#utility.yul\":3109:3212   */\n  iszero\n  tag_108\n  jumpi\n    /* \"#utility.yul\":3192:3210   */\n  tag_109\n  tag_63\n  jump\t// in\ntag_109:\n    /* \"#utility.yul\":3109:3212   */\ntag_108:\n    /* \"#utility.yul\":3239:3240   */\n  0x01\n    /* \"#utility.yul\":3232:3237   */\n  dup3\n    /* \"#utility.yul\":3228:3241   */\n  add\n    /* \"#utility.yul\":3221:3241   */\n  swap1\n  pop\n    /* \"#utility.yul\":3014:3247   */\n  swap2\n  swap1\n  pop\n  jump\t// out\n    /* \"tronbox/contracts/SmartGenie.sol\":124:24963  contract SmartGenie {... */\ntag_41:\n  dataSize(sub_0)\n  dup1\n  dataOffset(sub_0)\n  0x00\n  codecopy\n  0x00\n  return\nstop\n\nsub_0: assembly {\n        /* \"tronbox/contracts/SmartGenie.sol\":124:24963  contract SmartGenie {... */\n      mstore(0x40, 0x80)\n      jumpi(tag_1, lt(calldatasize, 0x04))\n      shr(0xe0, calldataload(0x00))\n      dup1\n      0x6f9fb98a\n      gt\n      tag_23\n      jumpi\n      dup1\n      0xa4bb170d\n      gt\n      tag_24\n      jumpi\n      dup1\n      0xa4bb170d\n      eq\n      tag_17\n      jumpi\n      dup1\n      0xa87430ba\n      eq\n      tag_18\n      jumpi\n      dup1\n      0xaa24c5c5\n      eq\n      tag_19\n      jumpi\n      dup1\n      0xb2c4cc1f\n      eq\n      tag_20\n      jumpi\n      dup1\n      0xbbf57068\n      eq\n      tag_21\n      jumpi\n      dup1\n      0xc15dec85\n      eq\n      tag_22\n      jumpi\n      jump(tag_1)\n    tag_24:\n      dup1\n      0x6f9fb98a\n      eq\n      tag_12\n      jumpi\n      dup1\n      0x79378e30\n      eq\n      tag_13\n      jumpi\n      dup1\n      0x8853b53e\n      eq\n      tag_14\n      jumpi\n      dup1\n      0x992c85d2\n      eq\n      tag_15\n      jumpi\n      dup1\n      0x9f4216e8\n      eq\n      tag_16\n      jumpi\n      jump(tag_1)\n    tag_23:\n      dup1\n      0x4676b06c\n      gt\n      tag_25\n      jumpi\n      dup1\n      0x4676b06c\n      eq\n      tag_7\n      jumpi\n      dup1\n      0x4d948bea\n      eq\n      tag_8\n      jumpi\n      dup1\n      0x575cea6b\n      eq\n      tag_9\n      jumpi\n      dup1\n      0x6043ddad\n      eq\n      tag_10\n      jumpi\n      dup1\n      0x6158fa00\n      eq\n      tag_11\n      jumpi\n      jump(tag_1)\n    tag_25:\n      dup1\n      0x10e4077a\n      eq\n      tag_2\n      jumpi\n      dup1\n      0x12c468ea\n      eq\n      tag_3\n      jumpi\n      dup1\n      0x15a1da1b\n      eq\n      tag_4\n      jumpi\n      dup1\n      0x36b19cd7\n      eq\n      tag_5\n      jumpi\n      dup1\n      0x43f6753c\n      eq\n      tag_6\n      jumpi\n    tag_1:\n      0x00\n      dup1\n      revert\n        /* \"tronbox/contracts/SmartGenie.sol\":858:892  address[3] public promotionWallets */\n    tag_2:\n      callvalue\n      dup1\n      iszero\n      tag_26\n      jumpi\n      0x00\n      dup1\n      revert\n    tag_26:\n      pop\n      tag_27\n      0x04\n      dup1\n      calldatasize\n      sub\n      dup2\n      add\n      swap1\n      tag_28\n      swap2\n      swap1\n      tag_29\n      jump\t// in\n    tag_28:\n      tag_30\n      jump\t// in\n    tag_27:\n      mload(0x40)\n      tag_31\n      swap2\n      swap1\n      tag_32\n      jump\t// in\n    tag_31:\n      mload(0x40)\n      dup1\n      swap2\n      sub\n      swap1\n      return\n        /* \"tronbox/contracts/SmartGenie.sol\":23116:24246  function checkWalletBalance(uint8 walletIndex) public view returns (uint256) {... */\n    tag_3:\n      callvalue\n      dup1\n      iszero\n      tag_33\n      jumpi\n      0x00\n      dup1\n      revert\n    tag_33:\n      pop\n      tag_34\n      0x04\n      dup1\n      calldatasize\n      sub\n      dup2\n      add\n      swap1\n      tag_35\n      swap2\n      swap1\n      tag_36\n      jump\t// in\n    tag_35:\n      tag_37\n      jump\t// in\n    tag_34:\n      mload(0x40)\n      tag_38\n      swap2\n      swap1\n      tag_39\n      jump\t// in\n    tag_38:\n      mload(0x40)\n      dup1\n      swap2\n      sub\n      swap1\n      return\n        /* \"tronbox/contracts/SmartGenie.sol\":949:983  uint256[3] public promotionAmounts */\n    tag_4:\n      callvalue\n      dup1\n      iszero\n      tag_40\n      jumpi\n      0x00\n      dup1\n      revert\n    tag_40:\n      pop\n      tag_41\n      0x04\n      dup1\n      calldatasize\n      sub\n      dup2\n      add\n      swap1\n      tag_42\n      swap2\n      swap1\n      tag_29\n      jump\t// in\n    tag_42:\n      tag_43\n      jump\t// in\n    tag_41:\n      mload(0x40)\n      tag_44\n      swap2\n      swap1\n      tag_39\n      jump\t// in\n    tag_44:\n      mload(0x40)\n      dup1\n      swap2\n      sub\n      swap1\n      return\n        /* \"tronbox/contracts/SmartGenie.sol\":155:181  address public adminWallet */\n    tag_5:\n      callvalue\n      dup1\n      iszero\n      tag_45\n      jumpi\n      0x00\n      dup1\n      revert\n    tag_45:\n      pop\n      tag_46\n      tag_47\n      jump\t// in\n    tag_46:\n      mload(0x40)\n      tag_48\n      swap2\n      swap1\n      tag_32\n      jump\t// in\n    tag_48:\n      mload(0x40)\n      dup1\n      swap2\n      sub\n      swap1\n      return\n        /* \"tronbox/contracts/SmartGenie.sol\":692:767  mapping(uint256 => mapping(address => address)) public levelUpgradePayments */\n    tag_6:\n      callvalue\n      dup1\n      iszero\n      tag_49\n      jumpi\n      0x00\n      dup1\n      revert\n    tag_49:\n      pop\n      tag_50\n      0x04\n      dup1\n      calldatasize\n      sub\n      dup2\n      add\n      swap1\n      tag_51\n      swap2\n      swap1\n      tag_52\n      jump\t// in\n    tag_51:\n      tag_53\n      jump\t// in\n    tag_50:\n      mload(0x40)\n      tag_54\n      swap2\n      swap1\n      tag_32\n      jump\t// in\n    tag_54:\n      mload(0x40)\n      dup1\n      swap2\n      sub\n      swap1\n      return\n        /* \"tronbox/contracts/SmartGenie.sol\":21505:23029  function withdrawWallet(uint8 walletIndex) public returns (bool) {... */\n    tag_7:\n      callvalue\n      dup1\n      iszero\n      tag_55\n      jumpi\n      0x00\n      dup1\n      revert\n    tag_55:\n      pop\n      tag_56\n      0x04\n      dup1\n      calldatasize\n      sub\n      dup2\n      add\n      swap1\n      tag_57\n      swap2\n      swap1\n      tag_36\n      jump\t// in\n    tag_57:\n      tag_58\n      jump\t// in\n    tag_56:\n      mload(0x40)\n      tag_59\n      swap2\n      swap1\n      tag_60\n      jump\t// in\n    tag_59:\n      mload(0x40)\n      dup1\n      swap2\n      sub\n      swap1\n      return\n        /* \"tronbox/contracts/SmartGenie.sol\":773:850  mapping(uint256 => mapping(address => bool)) public isLevelUpgradedForAddress */\n    tag_8:\n      callvalue\n      dup1\n      iszero\n      tag_61\n      jumpi\n      0x00\n      dup1\n      revert\n    tag_61:\n      pop\n      tag_62\n      0x04\n      dup1\n      calldatasize\n      sub\n      dup2\n      add\n      swap1\n      tag_63\n      swap2\n      swap1\n      tag_52\n      jump\t// in\n    tag_63:\n      tag_64\n      jump\t// in\n    tag_62:\n      mload(0x40)\n      tag_65\n      swap2\n      swap1\n      tag_60\n      jump\t// in\n    tag_65:\n      mload(0x40)\n      dup1\n      swap2\n      sub\n      swap1\n      return\n        /* \"tronbox/contracts/SmartGenie.sol\":24631:24755  function getUserReferrals(address _user) public view returns(address[] memory) {... */\n    tag_9:\n      callvalue\n      dup1\n      iszero\n      tag_66\n      jumpi\n      0x00\n      dup1\n      revert\n    tag_66:\n      pop\n      tag_67\n      0x04\n      dup1\n      calldatasize\n      sub\n      dup2\n      add\n      swap1\n      tag_68\n      swap2\n      swap1\n      tag_69\n      jump\t// in\n    tag_68:\n      tag_70\n      jump\t// in\n    tag_67:\n      mload(0x40)\n      tag_71\n      swap2\n      swap1\n      tag_72\n      jump\t// in\n    tag_71:\n      mload(0x40)\n      dup1\n      swap2\n      sub\n      swap1\n      return\n        /* \"tronbox/contracts/SmartGenie.sol\":898:943  uint8[3] public promotionPercantage = [5,3,1] */\n    tag_10:\n      callvalue\n      dup1\n      iszero\n      tag_73\n      jumpi\n      0x00\n      dup1\n      revert\n    tag_73:\n      pop\n      tag_74\n      0x04\n      dup1\n      calldatasize\n      sub\n      dup2\n      add\n      swap1\n      tag_75\n      swap2\n      swap1\n      tag_29\n      jump\t// in\n    tag_75:\n      tag_76\n      jump\t// in\n    tag_74:\n      mload(0x40)\n      tag_77\n      swap2\n      swap1\n      tag_78\n      jump\t// in\n    tag_77:\n      mload(0x40)\n      dup1\n      swap2\n      sub\n      swap1\n      return\n        /* \"tronbox/contracts/SmartGenie.sol\":24455:24594  function getUserLevelEligibility(address _user) public view returns(uint256[] memory) {... */\n    tag_11:\n      callvalue\n      dup1\n      iszero\n      tag_79\n      jumpi\n      0x00\n      dup1\n      revert\n    tag_79:\n      pop\n      tag_80\n      0x04\n      dup1\n      calldatasize\n      sub\n      dup2\n      add\n      swap1\n      tag_81\n      swap2\n      swap1\n      tag_69\n      jump\t// in\n    tag_81:\n      tag_82\n      jump\t// in\n    tag_80:\n      mload(0x40)\n      tag_83\n      swap2\n      swap1\n      tag_84\n      jump\t// in\n    tag_83:\n      mload(0x40)\n      dup1\n      swap2\n      sub\n      swap1\n      return\n        /* \"tronbox/contracts/SmartGenie.sol\":24290:24402  function getContractBalance() public view returns(uint256) {... */\n    tag_12:\n      callvalue\n      dup1\n      iszero\n      tag_85\n      jumpi\n      0x00\n      dup1\n      revert\n    tag_85:\n      pop\n      tag_86\n      tag_87\n      jump\t// in\n    tag_86:\n      mload(0x40)\n      tag_88\n      swap2\n      swap1\n      tag_39\n      jump\t// in\n    tag_88:\n      mload(0x40)\n      dup1\n      swap2\n      sub\n      swap1\n      return\n        /* \"tronbox/contracts/SmartGenie.sol\":478:518  mapping(uint => uint) public LEVEL_PRICE */\n    tag_13:\n      callvalue\n      dup1\n      iszero\n      tag_89\n      jumpi\n      0x00\n      dup1\n      revert\n    tag_89:\n      pop\n      tag_90\n      0x04\n      dup1\n      calldatasize\n      sub\n      dup2\n      add\n      swap1\n      tag_91\n      swap2\n      swap1\n      tag_29\n      jump\t// in\n    tag_91:\n      tag_92\n      jump\t// in\n    tag_90:\n      mload(0x40)\n      tag_93\n      swap2\n      swap1\n      tag_39\n      jump\t// in\n    tag_93:\n      mload(0x40)\n      dup1\n      swap2\n      sub\n      swap1\n      return\n        /* \"tronbox/contracts/SmartGenie.sol\":3015:5619  function regUser(uint _referrerID) public payable returns (bool) {... */\n    tag_14:\n      tag_94\n      0x04\n      dup1\n      calldatasize\n      sub\n      dup2\n      add\n      swap1\n      tag_95\n      swap2\n      swap1\n      tag_29\n      jump\t// in\n    tag_95:\n      tag_96\n      jump\t// in\n    tag_94:\n      mload(0x40)\n      tag_97\n      swap2\n      swap1\n      tag_60\n      jump\t// in\n    tag_97:\n      mload(0x40)\n      dup1\n      swap2\n      sub\n      swap1\n      return\n        /* \"tronbox/contracts/SmartGenie.sol\":217:246  address public splPromoWallet */\n    tag_15:\n      callvalue\n      dup1\n      iszero\n      tag_98\n      jumpi\n      0x00\n      dup1\n      revert\n    tag_98:\n      pop\n      tag_99\n      tag_100\n      jump\t// in\n    tag_99:\n      mload(0x40)\n      tag_101\n      swap2\n      swap1\n      tag_32\n      jump\t// in\n    tag_101:\n      mload(0x40)\n      dup1\n      swap2\n      sub\n      swap1\n      return\n        /* \"tronbox/contracts/SmartGenie.sol\":573:613  mapping(uint => address) public userList */\n    tag_16:\n      callvalue\n      dup1\n      iszero\n      tag_102\n      jumpi\n      0x00\n      dup1\n      revert\n    tag_102:\n      pop\n      tag_103\n      0x04\n      dup1\n      calldatasize\n      sub\n      dup2\n      add\n      swap1\n      tag_104\n      swap2\n      swap1\n      tag_29\n      jump\t// in\n    tag_104:\n      tag_105\n      jump\t// in\n    tag_103:\n      mload(0x40)\n      tag_106\n      swap2\n      swap1\n      tag_32\n      jump\t// in\n    tag_106:\n      mload(0x40)\n      dup1\n      swap2\n      sub\n      swap1\n      return\n        /* \"tronbox/contracts/SmartGenie.sol\":994:1020  uint public currUserID = 0 */\n    tag_17:\n      callvalue\n      dup1\n      iszero\n      tag_107\n      jumpi\n      0x00\n      dup1\n      revert\n    tag_107:\n      pop\n      tag_108\n      tag_109\n      jump\t// in\n    tag_108:\n      mload(0x40)\n      tag_110\n      swap2\n      swap1\n      tag_39\n      jump\t// in\n    tag_110:\n      mload(0x40)\n      dup1\n      swap2\n      sub\n      swap1\n      return\n        /* \"tronbox/contracts/SmartGenie.sol\":524:567  mapping(address => UserStruct) public users */\n    tag_18:\n      callvalue\n      dup1\n      iszero\n      tag_111\n      jumpi\n      0x00\n      dup1\n      revert\n    tag_111:\n      pop\n      tag_112\n      0x04\n      dup1\n      calldatasize\n      sub\n      dup2\n      add\n      swap1\n      tag_113\n      swap2\n      swap1\n      tag_69\n      jump\t// in\n    tag_113:\n      tag_114\n      jump\t// in\n    tag_112:\n      mload(0x40)\n      tag_115\n      swap5\n      swap4\n      swap3\n      swap2\n      swap1\n      tag_116\n      jump\t// in\n    tag_115:\n      mload(0x40)\n      dup1\n      swap2\n      sub\n      swap1\n      return\n        /* \"tronbox/contracts/SmartGenie.sol\":24811:24955  function getUserIncomeCount(address _user, uint256 _level) public view returns(uint256) {... */\n    tag_19:\n      callvalue\n      dup1\n      iszero\n      tag_117\n      jumpi\n      0x00\n      dup1\n      revert\n    tag_117:\n      pop\n      tag_118\n      0x04\n      dup1\n      calldatasize\n      sub\n      dup2\n      add\n      swap1\n      tag_119\n      swap2\n      swap1\n      tag_120\n      jump\t// in\n    tag_119:\n      tag_121\n      jump\t// in\n    tag_118:\n      mload(0x40)\n      tag_122\n      swap2\n      swap1\n      tag_39\n      jump\t// in\n    tag_122:\n      mload(0x40)\n      dup1\n      swap2\n      sub\n      swap1\n      return\n        /* \"tronbox/contracts/SmartGenie.sol\":21010:21425  function updateWallet(address walletAddr, uint index) onlyAdmin public {... */\n    tag_20:\n      callvalue\n      dup1\n      iszero\n      tag_123\n      jumpi\n      0x00\n      dup1\n      revert\n    tag_123:\n      pop\n      tag_124\n      0x04\n      dup1\n      calldatasize\n      sub\n      dup2\n      add\n      swap1\n      tag_125\n      swap2\n      swap1\n      tag_120\n      jump\t// in\n    tag_125:\n      tag_126\n      jump\t// in\n    tag_124:\n      stop\n        /* \"tronbox/contracts/SmartGenie.sol\":619:686  mapping(uint256 => mapping(address => uint256)) public levelCounter */\n    tag_21:\n      callvalue\n      dup1\n      iszero\n      tag_127\n      jumpi\n      0x00\n      dup1\n      revert\n    tag_127:\n      pop\n      tag_128\n      0x04\n      dup1\n      calldatasize\n      sub\n      dup2\n      add\n      swap1\n      tag_129\n      swap2\n      swap1\n      tag_52\n      jump\t// in\n    tag_129:\n      tag_130\n      jump\t// in\n    tag_128:\n      mload(0x40)\n      tag_131\n      swap2\n      swap1\n      tag_39\n      jump\t// in\n    tag_131:\n      mload(0x40)\n      dup1\n      swap2\n      sub\n      swap1\n      return\n        /* \"tronbox/contracts/SmartGenie.sol\":187:211  address public ursWallet */\n    tag_22:\n      callvalue\n      dup1\n      iszero\n      tag_132\n      jumpi\n      0x00\n      dup1\n      revert\n    tag_132:\n      pop\n      tag_133\n      tag_134\n      jump\t// in\n    tag_133:\n      mload(0x40)\n      tag_135\n      swap2\n      swap1\n      tag_32\n      jump\t// in\n    tag_135:\n      mload(0x40)\n      dup1\n      swap2\n      sub\n      swap1\n      return\n        /* \"tronbox/contracts/SmartGenie.sol\":858:892  address[3] public promotionWallets */\n    tag_30:\n      0x09\n      dup2\n      0x03\n      dup2\n      lt\n      tag_136\n      jumpi\n      0x00\n      dup1\n      revert\n    tag_136:\n      add\n      0x00\n      swap2\n      pop\n      sload\n      swap1\n      0x0100\n      exp\n      swap1\n      div\n      0xffffffffffffffffffffffffffffffffffffffff\n      and\n      dup2\n      jump\t// out\n        /* \"tronbox/contracts/SmartGenie.sol\":23116:24246  function checkWalletBalance(uint8 walletIndex) public view returns (uint256) {... */\n    tag_37:\n        /* \"tronbox/contracts/SmartGenie.sol\":23184:23191  uint256 */\n      0x00\n        /* \"tronbox/contracts/SmartGenie.sol\":23226:23227  4 */\n      0x04\n        /* \"tronbox/contracts/SmartGenie.sol\":23211:23222  walletIndex */\n      dup3\n        /* \"tronbox/contracts/SmartGenie.sol\":23211:23227  walletIndex <= 4 */\n      0xff\n      and\n      gt\n      iszero\n        /* \"tronbox/contracts/SmartGenie.sol\":23203:23253  require(walletIndex <= 4, \"Invalid wallet Index;\") */\n      tag_139\n      jumpi\n      mload(0x40)\n      0x08c379a000000000000000000000000000000000000000000000000000000000\n      dup2\n      mstore\n      0x04\n      add\n      tag_140\n      swap1\n      tag_141\n      jump\t// in\n    tag_140:\n      mload(0x40)\n      dup1\n      swap2\n      sub\n      swap1\n      revert\n    tag_139:\n        /* \"tronbox/contracts/SmartGenie.sol\":23263:23285  uint maxEligibleAmount */\n      0x00\n        /* \"tronbox/contracts/SmartGenie.sol\":23388:23389  2 */\n      0x02\n        /* \"tronbox/contracts/SmartGenie.sol\":23375:23386  walletIndex */\n      dup4\n        /* \"tronbox/contracts/SmartGenie.sol\":23375:23389  walletIndex<=2 */\n      0xff\n      and\n      gt\n        /* \"tronbox/contracts/SmartGenie.sol\":23371:24189  if (walletIndex<=2) {... */\n      tag_142\n      jumpi\n        /* \"tronbox/contracts/SmartGenie.sol\":23405:23421  bool checkCaller */\n      0x00\n        /* \"tronbox/contracts/SmartGenie.sol\":23443:23459  uint callerIndex */\n      dup1\n        /* \"tronbox/contracts/SmartGenie.sol\":23482:23488  uint i */\n      0x00\n        /* \"tronbox/contracts/SmartGenie.sol\":23477:23722  for (uint i = 0; i < promotionWallets.length; i++) {... */\n    tag_143:\n        /* \"tronbox/contracts/SmartGenie.sol\":23498:23521  promotionWallets.length */\n      0x03\n        /* \"tronbox/contracts/SmartGenie.sol\":23494:23495  i */\n      dup2\n        /* \"tronbox/contracts/SmartGenie.sol\":23494:23521  i < promotionWallets.length */\n      lt\n        /* \"tronbox/contracts/SmartGenie.sol\":23477:23722  for (uint i = 0; i < promotionWallets.length; i++) {... */\n      iszero\n      tag_144\n      jumpi\n        /* \"tronbox/contracts/SmartGenie.sol\":23573:23583  msg.sender */\n      caller\n        /* \"tronbox/contracts/SmartGenie.sol\":23550:23583  promotionWallets[i] == msg.sender */\n      0xffffffffffffffffffffffffffffffffffffffff\n      and\n        /* \"tronbox/contracts/SmartGenie.sol\":23550:23566  promotionWallets */\n      0x09\n        /* \"tronbox/contracts/SmartGenie.sol\":23567:23568  i */\n      dup3\n        /* \"tronbox/contracts/SmartGenie.sol\":23550:23569  promotionWallets[i] */\n      0x03\n      dup2\n      lt\n      tag_146\n      jumpi\n      tag_147\n      tag_148\n      jump\t// in\n    tag_147:\n    tag_146:\n      add\n      0x00\n      swap1\n      sload\n      swap1\n      0x0100\n      exp\n      swap1\n      div\n      0xffffffffffffffffffffffffffffffffffffffff\n      and\n        /* \"tronbox/contracts/SmartGenie.sol\":23550:23583  promotionWallets[i] == msg.sender */\n      0xffffffffffffffffffffffffffffffffffffffff\n      and\n      eq\n        /* \"tronbox/contracts/SmartGenie.sol\":23546:23708  if (promotionWallets[i] == msg.sender) {... */\n      iszero\n      tag_150\n      jumpi\n        /* \"tronbox/contracts/SmartGenie.sol\":23621:23625  true */\n      0x01\n        /* \"tronbox/contracts/SmartGenie.sol\":23607:23625  checkCaller = true */\n      swap3\n      pop\n        /* \"tronbox/contracts/SmartGenie.sol\":23661:23662  i */\n      dup1\n        /* \"tronbox/contracts/SmartGenie.sol\":23647:23662  callerIndex = i */\n      swap2\n      pop\n        /* \"tronbox/contracts/SmartGenie.sol\":23684:23689  break */\n      jump(tag_144)\n        /* \"tronbox/contracts/SmartGenie.sol\":23546:23708  if (promotionWallets[i] == msg.sender) {... */\n    tag_150:\n        /* \"tronbox/contracts/SmartGenie.sol\":23523:23526  i++ */\n      dup1\n      dup1\n      tag_151\n      swap1\n      tag_152\n      jump\t// in\n    tag_151:\n      swap2\n      pop\n      pop\n        /* \"tronbox/contracts/SmartGenie.sol\":23477:23722  for (uint i = 0; i < promotionWallets.length; i++) {... */\n      jump(tag_143)\n    tag_144:\n      pop\n        /* \"tronbox/contracts/SmartGenie.sol\":23758:23762  true */\n      0x01\n        /* \"tronbox/contracts/SmartGenie.sol\":23743:23762  checkCaller == true */\n      iszero\n      iszero\n        /* \"tronbox/contracts/SmartGenie.sol\":23743:23754  checkCaller */\n      dup3\n        /* \"tronbox/contracts/SmartGenie.sol\":23743:23762  checkCaller == true */\n      iszero\n      iszero\n      eq\n        /* \"tronbox/contracts/SmartGenie.sol\":23735:23781  require(checkCaller == true, \"Invalid caller\") */\n      tag_153\n      jumpi\n      mload(0x40)\n      0x08c379a000000000000000000000000000000000000000000000000000000000\n      dup2\n      mstore\n      0x04\n      add\n      tag_154\n      swap1\n      tag_155\n      jump\t// in\n    tag_154:\n      mload(0x40)\n      dup1\n      swap2\n      sub\n      swap1\n      revert\n    tag_153:\n        /* \"tronbox/contracts/SmartGenie.sol\":23815:23831  promotionAmounts */\n      0x0d\n        /* \"tronbox/contracts/SmartGenie.sol\":23832:23843  callerIndex */\n      dup2\n        /* \"tronbox/contracts/SmartGenie.sol\":23815:23844  promotionAmounts[callerIndex] */\n      0x03\n      dup2\n      lt\n      tag_156\n      jumpi\n      tag_157\n      tag_148\n      jump\t// in\n    tag_157:\n    tag_156:\n      add\n      sload\n        /* \"tronbox/contracts/SmartGenie.sol\":23795:23844  maxEligibleAmount = promotionAmounts[callerIndex] */\n      swap3\n      pop\n        /* \"tronbox/contracts/SmartGenie.sol\":23391:23855  {... */\n      pop\n      pop\n        /* \"tronbox/contracts/SmartGenie.sol\":23371:24189  if (walletIndex<=2) {... */\n      jump(tag_159)\n    tag_142:\n        /* \"tronbox/contracts/SmartGenie.sol\":23880:23881  3 */\n      0x03\n        /* \"tronbox/contracts/SmartGenie.sol\":23865:23876  walletIndex */\n      dup4\n        /* \"tronbox/contracts/SmartGenie.sol\":23865:23881  walletIndex == 3 */\n      0xff\n      and\n      eq\n        /* \"tronbox/contracts/SmartGenie.sol\":23861:24189  if (walletIndex == 3) {... */\n      iszero\n      tag_160\n      jumpi\n        /* \"tronbox/contracts/SmartGenie.sol\":23919:23933  splPromoWallet */\n      0x02\n      0x00\n      swap1\n      sload\n      swap1\n      0x0100\n      exp\n      swap1\n      div\n      0xffffffffffffffffffffffffffffffffffffffff\n      and\n        /* \"tronbox/contracts/SmartGenie.sol\":23905:23933  msg.sender == splPromoWallet */\n      0xffffffffffffffffffffffffffffffffffffffff\n      and\n        /* \"tronbox/contracts/SmartGenie.sol\":23905:23915  msg.sender */\n      caller\n        /* \"tronbox/contracts/SmartGenie.sol\":23905:23933  msg.sender == splPromoWallet */\n      0xffffffffffffffffffffffffffffffffffffffff\n      and\n      eq\n        /* \"tronbox/contracts/SmartGenie.sol\":23897:23952  require(msg.sender == splPromoWallet, \"invalid caller\") */\n      tag_161\n      jumpi\n      mload(0x40)\n      0x08c379a000000000000000000000000000000000000000000000000000000000\n      dup2\n      mstore\n      0x04\n      add\n      tag_162\n      swap1\n      tag_163\n      jump\t// in\n    tag_162:\n      mload(0x40)\n      dup1\n      swap2\n      sub\n      swap1\n      revert\n    tag_161:\n        /* \"tronbox/contracts/SmartGenie.sol\":23986:23996  splPromAmt */\n      sload(0x11)\n        /* \"tronbox/contracts/SmartGenie.sol\":23966:23996  maxEligibleAmount = splPromAmt */\n      swap1\n      pop\n        /* \"tronbox/contracts/SmartGenie.sol\":23861:24189  if (walletIndex == 3) {... */\n      jump(tag_164)\n    tag_160:\n        /* \"tronbox/contracts/SmartGenie.sol\":24049:24058  ursWallet */\n      0x01\n      0x00\n      swap1\n      sload\n      swap1\n      0x0100\n      exp\n      swap1\n      div\n      0xffffffffffffffffffffffffffffffffffffffff\n      and\n        /* \"tronbox/contracts/SmartGenie.sol\":24035:24058  msg.sender == ursWallet */\n      0xffffffffffffffffffffffffffffffffffffffff\n      and\n        /* \"tronbox/contracts/SmartGenie.sol\":24035:24045  msg.sender */\n      caller\n        /* \"tronbox/contracts/SmartGenie.sol\":24035:24058  msg.sender == ursWallet */\n      0xffffffffffffffffffffffffffffffffffffffff\n      and\n      eq\n        /* \"tronbox/contracts/SmartGenie.sol\":24027:24077  require(msg.sender == ursWallet, \"invalid caller\") */\n      tag_165\n      jumpi\n      mload(0x40)\n      0x08c379a000000000000000000000000000000000000000000000000000000000\n      dup2\n      mstore\n      0x04\n      add\n      tag_166\n      swap1\n      tag_163\n      jump\t// in\n    tag_166:\n      mload(0x40)\n      dup1\n      swap2\n      sub\n      swap1\n      revert\n    tag_165:\n        /* \"tronbox/contracts/SmartGenie.sol\":24123:24126  100 */\n      0x64\n        /* \"tronbox/contracts/SmartGenie.sol\":24119:24121  10 */\n      0x0a\n        /* \"tronbox/contracts/SmartGenie.sol\":24112:24118  ursAmt */\n      sload(0x12)\n        /* \"tronbox/contracts/SmartGenie.sol\":24112:24121  ursAmt*10 */\n      tag_167\n      swap2\n      swap1\n      tag_168\n      jump\t// in\n    tag_167:\n        /* \"tronbox/contracts/SmartGenie.sol\":24111:24126  (ursAmt*10)/100 */\n      tag_169\n      swap2\n      swap1\n      tag_170\n      jump\t// in\n    tag_169:\n        /* \"tronbox/contracts/SmartGenie.sol\":24091:24126  maxEligibleAmount = (ursAmt*10)/100 */\n      swap1\n      pop\n        /* \"tronbox/contracts/SmartGenie.sol\":23861:24189  if (walletIndex == 3) {... */\n    tag_164:\n        /* \"tronbox/contracts/SmartGenie.sol\":23371:24189  if (walletIndex<=2) {... */\n    tag_159:\n        /* \"tronbox/contracts/SmartGenie.sol\":24232:24239  1 ether */\n      0x0de0b6b3a7640000\n        /* \"tronbox/contracts/SmartGenie.sol\":24214:24231  maxEligibleAmount */\n      dup2\n        /* \"tronbox/contracts/SmartGenie.sol\":24214:24239  maxEligibleAmount/1 ether */\n      tag_171\n      swap2\n      swap1\n      tag_170\n      jump\t// in\n    tag_171:\n        /* \"tronbox/contracts/SmartGenie.sol\":24207:24239  return maxEligibleAmount/1 ether */\n      swap2\n      pop\n      pop\n        /* \"tronbox/contracts/SmartGenie.sol\":23116:24246  function checkWalletBalance(uint8 walletIndex) public view returns (uint256) {... */\n      swap2\n      swap1\n      pop\n      jump\t// out\n        /* \"tronbox/contracts/SmartGenie.sol\":949:983  uint256[3] public promotionAmounts */\n    tag_43:\n      0x0d\n      dup2\n      0x03\n      dup2\n      lt\n      tag_172\n      jumpi\n      0x00\n      dup1\n      revert\n    tag_172:\n      add\n      0x00\n      swap2\n      pop\n      swap1\n      pop\n      sload\n      dup2\n      jump\t// out\n        /* \"tronbox/contracts/SmartGenie.sol\":155:181  address public adminWallet */\n    tag_47:\n      0x00\n      dup1\n      sload\n      swap1\n      0x0100\n      exp\n      swap1\n      div\n      0xffffffffffffffffffffffffffffffffffffffff\n      and\n      dup2\n      jump\t// out\n        /* \"tronbox/contracts/SmartGenie.sol\":692:767  mapping(uint256 => mapping(address => address)) public levelUpgradePayments */\n    tag_53:\n      mstore(0x20, 0x07)\n      dup2\n      0x00\n      mstore\n      mstore(0x20, keccak256(0x00, 0x40))\n      dup1\n      0x00\n      mstore\n      keccak256(0x00, 0x40)\n      0x00\n      swap2\n      pop\n      swap2\n      pop\n      swap1\n      sload\n      swap1\n      0x0100\n      exp\n      swap1\n      div\n      0xffffffffffffffffffffffffffffffffffffffff\n      and\n      dup2\n      jump\t// out\n        /* \"tronbox/contracts/SmartGenie.sol\":21505:23029  function withdrawWallet(uint8 walletIndex) public returns (bool) {... */\n    tag_58:\n        /* \"tronbox/contracts/SmartGenie.sol\":21564:21568  bool */\n      0x00\n        /* \"tronbox/contracts/SmartGenie.sol\":21599:21600  4 */\n      0x04\n        /* \"tronbox/contracts/SmartGenie.sol\":21584:21595  walletIndex */\n      dup3\n        /* \"tronbox/contracts/SmartGenie.sol\":21584:21600  walletIndex <= 4 */\n      0xff\n      and\n      gt\n      iszero\n        /* \"tronbox/contracts/SmartGenie.sol\":21576:21626  require(walletIndex <= 4, \"Invalid wallet Index;\") */\n      tag_175\n      jumpi\n      mload(0x40)\n      0x08c379a000000000000000000000000000000000000000000000000000000000\n      dup2\n      mstore\n      0x04\n      add\n      tag_176\n      swap1\n      tag_141\n      jump\t// in\n    tag_176:\n      mload(0x40)\n      dup1\n      swap2\n      sub\n      swap1\n      revert\n    tag_175:\n        /* \"tronbox/contracts/SmartGenie.sol\":21636:21658  uint maxEligibleAmount */\n      0x00\n        /* \"tronbox/contracts/SmartGenie.sol\":21761:21762  2 */\n      0x02\n        /* \"tronbox/contracts/SmartGenie.sol\":21748:21759  walletIndex */\n      dup4\n        /* \"tronbox/contracts/SmartGenie.sol\":21748:21762  walletIndex<=2 */\n      0xff\n      and\n      gt\n        /* \"tronbox/contracts/SmartGenie.sol\":21744:22665  if (walletIndex<=2) {... */\n      tag_177\n      jumpi\n        /* \"tronbox/contracts/SmartGenie.sol\":21778:21794  bool checkCaller */\n      0x00\n        /* \"tronbox/contracts/SmartGenie.sol\":21816:21832  uint callerIndex */\n      dup1\n        /* \"tronbox/contracts/SmartGenie.sol\":21855:21861  uint i */\n      0x00\n        /* \"tronbox/contracts/SmartGenie.sol\":21850:22095  for (uint i = 0; i < promotionWallets.length; i++) {... */\n    tag_178:\n        /* \"tronbox/contracts/SmartGenie.sol\":21871:21894  promotionWallets.length */\n      0x03\n        /* \"tronbox/contracts/SmartGenie.sol\":21867:21868  i */\n      dup2\n        /* \"tronbox/contracts/SmartGenie.sol\":21867:21894  i < promotionWallets.length */\n      lt\n        /* \"tronbox/contracts/SmartGenie.sol\":21850:22095  for (uint i = 0; i < promotionWallets.length; i++) {... */\n      iszero\n      tag_179\n      jumpi\n        /* \"tronbox/contracts/SmartGenie.sol\":21946:21956  msg.sender */\n      caller\n        /* \"tronbox/contracts/SmartGenie.sol\":21923:21956  promotionWallets[i] == msg.sender */\n      0xffffffffffffffffffffffffffffffffffffffff\n      and\n        /* \"tronbox/contracts/SmartGenie.sol\":21923:21939  promotionWallets */\n      0x09\n        /* \"tronbox/contracts/SmartGenie.sol\":21940:21941  i */\n      dup3\n        /* \"tronbox/contracts/SmartGenie.sol\":21923:21942  promotionWallets[i] */\n      0x03\n      dup2\n      lt\n      tag_181\n      jumpi\n      tag_182\n      tag_148\n      jump\t// in\n    tag_182:\n    tag_181:\n      add\n      0x00\n      swap1\n      sload\n      swap1\n      0x0100\n      exp\n      swap1\n      div\n      0xffffffffffffffffffffffffffffffffffffffff\n      and\n        /* \"tronbox/contracts/SmartGenie.sol\":21923:21956  promotionWallets[i] == msg.sender */\n      0xffffffffffffffffffffffffffffffffffffffff\n      and\n      eq\n        /* \"tronbox/contracts/SmartGenie.sol\":21919:22081  if (promotionWallets[i] == msg.sender) {... */\n      iszero\n      tag_184\n      jumpi\n        /* \"tronbox/contracts/SmartGenie.sol\":21994:21998  true */\n      0x01\n        /* \"tronbox/contracts/SmartGenie.sol\":21980:21998  checkCaller = true */\n      swap3\n      pop\n        /* \"tronbox/contracts/SmartGenie.sol\":22034:22035  i */\n      dup1\n        /* \"tronbox/contracts/SmartGenie.sol\":22020:22035  callerIndex = i */\n      swap2\n      pop\n        /* \"tronbox/contracts/SmartGenie.sol\":22057:22062  break */\n      jump(tag_179)\n        /* \"tronbox/contracts/SmartGenie.sol\":21919:22081  if (promotionWallets[i] == msg.sender) {... */\n    tag_184:\n        /* \"tronbox/contracts/SmartGenie.sol\":21896:21899  i++ */\n      dup1\n      dup1\n      tag_185\n      swap1\n      tag_152\n      jump\t// in\n    tag_185:\n      swap2\n      pop\n      pop\n        /* \"tronbox/contracts/SmartGenie.sol\":21850:22095  for (uint i = 0; i < promotionWallets.length; i++) {... */\n      jump(tag_178)\n    tag_179:\n      pop\n        /* \"tronbox/contracts/SmartGenie.sol\":22131:22135  true */\n      0x01\n        /* \"tronbox/contracts/SmartGenie.sol\":22116:22135  checkCaller == true */\n      iszero\n      iszero\n        /* \"tronbox/contracts/SmartGenie.sol\":22116:22127  checkCaller */\n      dup3\n        /* \"tronbox/contracts/SmartGenie.sol\":22116:22135  checkCaller == true */\n      iszero\n      iszero\n      eq\n        /* \"tronbox/contracts/SmartGenie.sol\":22108:22154  require(checkCaller == true, \"Invalid caller\") */\n      tag_186\n      jumpi\n      mload(0x40)\n      0x08c379a000000000000000000000000000000000000000000000000000000000\n      dup2\n      mstore\n      0x04\n      add\n      tag_187\n      swap1\n      tag_155\n      jump\t// in\n    tag_187:\n      mload(0x40)\n      dup1\n      swap2\n      sub\n      swap1\n      revert\n    tag_186:\n        /* \"tronbox/contracts/SmartGenie.sol\":22188:22204  promotionAmounts */\n      0x0d\n        /* \"tronbox/contracts/SmartGenie.sol\":22205:22216  callerIndex */\n      dup2\n        /* \"tronbox/contracts/SmartGenie.sol\":22188:22217  promotionAmounts[callerIndex] */\n      0x03\n      dup2\n      lt\n      tag_188\n      jumpi\n      tag_189\n      tag_148\n      jump\t// in\n    tag_189:\n    tag_188:\n      add\n      sload\n        /* \"tronbox/contracts/SmartGenie.sol\":22168:22217  maxEligibleAmount = promotionAmounts[callerIndex] */\n      swap3\n      pop\n        /* \"tronbox/contracts/SmartGenie.sol\":22263:22264  0 */\n      0x00\n        /* \"tronbox/contracts/SmartGenie.sol\":22231:22247  promotionAmounts */\n      0x0d\n        /* \"tronbox/contracts/SmartGenie.sol\":22248:22259  callerIndex */\n      dup3\n        /* \"tronbox/contracts/SmartGenie.sol\":22231:22260  promotionAmounts[callerIndex] */\n      0x03\n      dup2\n      lt\n      tag_191\n      jumpi\n      tag_192\n      tag_148\n      jump\t// in\n    tag_192:\n    tag_191:\n      add\n        /* \"tronbox/contracts/SmartGenie.sol\":22231:22264  promotionAmounts[callerIndex] = 0 */\n      dup2\n      swap1\n      sstore\n      pop\n        /* \"tronbox/contracts/SmartGenie.sol\":21764:22275  {... */\n      pop\n      pop\n        /* \"tronbox/contracts/SmartGenie.sol\":21744:22665  if (walletIndex<=2) {... */\n      jump(tag_194)\n    tag_177:\n        /* \"tronbox/contracts/SmartGenie.sol\":22300:22301  3 */\n      0x03\n        /* \"tronbox/contracts/SmartGenie.sol\":22285:22296  walletIndex */\n      dup4\n        /* \"tronbox/contracts/SmartGenie.sol\":22285:22301  walletIndex == 3 */\n      0xff\n      and\n      eq\n        /* \"tronbox/contracts/SmartGenie.sol\":22281:22665  if (walletIndex == 3) {... */\n      iszero\n      tag_195\n      jumpi\n        /* \"tronbox/contracts/SmartGenie.sol\":22339:22353  splPromoWallet */\n      0x02\n      0x00\n      swap1\n      sload\n      swap1\n      0x0100\n      exp\n      swap1\n      div\n      0xffffffffffffffffffffffffffffffffffffffff\n      and\n        /* \"tronbox/contracts/SmartGenie.sol\":22325:22353  msg.sender == splPromoWallet */\n      0xffffffffffffffffffffffffffffffffffffffff\n      and\n        /* \"tronbox/contracts/SmartGenie.sol\":22325:22335  msg.sender */\n      caller\n        /* \"tronbox/contracts/SmartGenie.sol\":22325:22353  msg.sender == splPromoWallet */\n      0xffffffffffffffffffffffffffffffffffffffff\n      and\n      eq\n        /* \"tronbox/contracts/SmartGenie.sol\":22317:22372  require(msg.sender == splPromoWallet, \"invalid caller\") */\n      tag_196\n      jumpi\n      mload(0x40)\n      0x08c379a000000000000000000000000000000000000000000000000000000000\n      dup2\n      mstore\n      0x04\n      add\n      tag_197\n      swap1\n      tag_163\n      jump\t// in\n    tag_197:\n      mload(0x40)\n      dup1\n      swap2\n      sub\n      swap1\n      revert\n    tag_196:\n        /* \"tronbox/contracts/SmartGenie.sol\":22406:22416  splPromAmt */\n      sload(0x11)\n        /* \"tronbox/contracts/SmartGenie.sol\":22386:22416  maxEligibleAmount = splPromAmt */\n      swap1\n      pop\n        /* \"tronbox/contracts/SmartGenie.sol\":22443:22444  0 */\n      0x00\n        /* \"tronbox/contracts/SmartGenie.sol\":22430:22440  splPromAmt */\n      0x11\n        /* \"tronbox/contracts/SmartGenie.sol\":22430:22444  splPromAmt = 0 */\n      dup2\n      swap1\n      sstore\n      pop\n        /* \"tronbox/contracts/SmartGenie.sol\":22281:22665  if (walletIndex == 3) {... */\n      jump(tag_198)\n    tag_195:\n        /* \"tronbox/contracts/SmartGenie.sol\":22497:22506  ursWallet */\n      0x01\n      0x00\n      swap1\n      sload\n      swap1\n      0x0100\n      exp\n      swap1\n      div\n      0xffffffffffffffffffffffffffffffffffffffff\n      and\n        /* \"tronbox/contracts/SmartGenie.sol\":22483:22506  msg.sender == ursWallet */\n      0xffffffffffffffffffffffffffffffffffffffff\n      and\n        /* \"tronbox/contracts/SmartGenie.sol\":22483:22493  msg.sender */\n      caller\n        /* \"tronbox/contracts/SmartGenie.sol\":22483:22506  msg.sender == ursWallet */\n      0xffffffffffffffffffffffffffffffffffffffff\n      and\n      eq\n        /* \"tronbox/contracts/SmartGenie.sol\":22475:22525  require(msg.sender == ursWallet, \"invalid caller\") */\n      tag_199\n      jumpi\n      mload(0x40)\n      0x08c379a000000000000000000000000000000000000000000000000000000000\n      dup2\n      mstore\n      0x04\n      add\n      tag_200\n      swap1\n      tag_163\n      jump\t// in\n    tag_200:\n      mload(0x40)\n      dup1\n      swap2\n      sub\n      swap1\n      revert\n    tag_199:\n        /* \"tronbox/contracts/SmartGenie.sol\":22571:22574  100 */\n      0x64\n        /* \"tronbox/contracts/SmartGenie.sol\":22567:22569  10 */\n      0x0a\n        /* \"tronbox/contracts/SmartGenie.sol\":22560:22566  ursAmt */\n      sload(0x12)\n        /* \"tronbox/contracts/SmartGenie.sol\":22560:22569  ursAmt*10 */\n      tag_201\n      swap2\n      swap1\n      tag_168\n      jump\t// in\n    tag_201:\n        /* \"tronbox/contracts/SmartGenie.sol\":22559:22574  (ursAmt*10)/100 */\n      tag_202\n      swap2\n      swap1\n      tag_170\n      jump\t// in\n    tag_202:\n        /* \"tronbox/contracts/SmartGenie.sol\":22539:22574  maxEligibleAmount = (ursAmt*10)/100 */\n      swap1\n      pop\n        /* \"tronbox/contracts/SmartGenie.sol\":22637:22654  maxEligibleAmount */\n      dup1\n        /* \"tronbox/contracts/SmartGenie.sol\":22627:22633  ursAmt */\n      0x12\n      0x00\n        /* \"tronbox/contracts/SmartGenie.sol\":22627:22654  ursAmt -= maxEligibleAmount */\n      dup3\n      dup3\n      sload\n      tag_203\n      swap2\n      swap1\n      tag_204\n      jump\t// in\n    tag_203:\n      swap3\n      pop\n      pop\n      dup2\n      swap1\n      sstore\n      pop\n        /* \"tronbox/contracts/SmartGenie.sol\":22281:22665  if (walletIndex == 3) {... */\n    tag_198:\n        /* \"tronbox/contracts/SmartGenie.sol\":21744:22665  if (walletIndex<=2) {... */\n    tag_194:\n        /* \"tronbox/contracts/SmartGenie.sol\":22828:22829  0 */\n      0x00\n        /* \"tronbox/contracts/SmartGenie.sol\":22808:22825  maxEligibleAmount */\n      dup2\n        /* \"tronbox/contracts/SmartGenie.sol\":22808:22829  maxEligibleAmount > 0 */\n      gt\n        /* \"tronbox/contracts/SmartGenie.sol\":22800:22856  require(maxEligibleAmount > 0 , \"No amount to withdraw\") */\n      tag_205\n      jumpi\n      mload(0x40)\n      0x08c379a000000000000000000000000000000000000000000000000000000000\n      dup2\n      mstore\n      0x04\n      add\n      tag_206\n      swap1\n      tag_207\n      jump\t// in\n    tag_206:\n      mload(0x40)\n      dup1\n      swap2\n      sub\n      swap1\n      revert\n    tag_205:\n        /* \"tronbox/contracts/SmartGenie.sol\":22867:22879  bool success */\n      0x00\n        /* \"tronbox/contracts/SmartGenie.sol\":22901:22911  msg.sender */\n      caller\n        /* \"tronbox/contracts/SmartGenie.sol\":22884:22919  (address(uint160(msg.sender))).call */\n      0xffffffffffffffffffffffffffffffffffffffff\n      and\n        /* \"tronbox/contracts/SmartGenie.sol\":22927:22944  maxEligibleAmount */\n      dup3\n        /* \"tronbox/contracts/SmartGenie.sol\":22884:22949  (address(uint160(msg.sender))).call{value: maxEligibleAmount}(\"\") */\n      mload(0x40)\n      tag_208\n      swap1\n      tag_209\n      jump\t// in\n    tag_208:\n      0x00\n      mload(0x40)\n      dup1\n      dup4\n      sub\n      dup2\n      dup6\n      dup8\n      gas\n      call\n      swap3\n      pop\n      pop\n      pop\n      returndatasize\n      dup1\n      0x00\n      dup2\n      eq\n      tag_212\n      jumpi\n      mload(0x40)\n      swap2\n      pop\n      and(add(returndatasize, 0x3f), not(0x1f))\n      dup3\n      add\n      0x40\n      mstore\n      returndatasize\n      dup3\n      mstore\n      returndatasize\n      0x00\n      0x20\n      dup5\n      add\n      returndatacopy\n      jump(tag_211)\n    tag_212:\n      0x60\n      swap2\n      pop\n    tag_211:\n      pop\n        /* \"tronbox/contracts/SmartGenie.sol\":22866:22949  (bool success,) = (address(uint160(msg.sender))).call{value: maxEligibleAmount}(\"\") */\n      pop\n      swap1\n      pop\n        /* \"tronbox/contracts/SmartGenie.sol\":22967:22974  success */\n      dup1\n        /* \"tronbox/contracts/SmartGenie.sol\":22959:22998  require(success, 'Transaction failed!') */\n      tag_213\n      jumpi\n      mload(0x40)\n      0x08c379a000000000000000000000000000000000000000000000000000000000\n      dup2\n      mstore\n      0x04\n      add\n      tag_214\n      swap1\n      tag_215\n      jump\t// in\n    tag_214:\n      mload(0x40)\n      dup1\n      swap2\n      sub\n      swap1\n      revert\n    tag_213:\n        /* \"tronbox/contracts/SmartGenie.sol\":23015:23022  success */\n      dup1\n        /* \"tronbox/contracts/SmartGenie.sol\":23008:23022  return success */\n      swap3\n      pop\n      pop\n      pop\n        /* \"tronbox/contracts/SmartGenie.sol\":21505:23029  function withdrawWallet(uint8 walletIndex) public returns (bool) {... */\n      swap2\n      swap1\n      pop\n      jump\t// out\n        /* \"tronbox/contracts/SmartGenie.sol\":773:850  mapping(uint256 => mapping(address => bool)) public isLevelUpgradedForAddress */\n    tag_64:\n      mstore(0x20, 0x08)\n      dup2\n      0x00\n      mstore\n      mstore(0x20, keccak256(0x00, 0x40))\n      dup1\n      0x00\n      mstore\n      keccak256(0x00, 0x40)\n      0x00\n      swap2\n      pop\n      swap2\n      pop\n      swap1\n      sload\n      swap1\n      0x0100\n      exp\n      swap1\n      div\n      0xff\n      and\n      dup2\n      jump\t// out\n        /* \"tronbox/contracts/SmartGenie.sol\":24631:24755  function getUserReferrals(address _user) public view returns(address[] memory) {... */\n    tag_70:\n        /* \"tronbox/contracts/SmartGenie.sol\":24692:24708  address[] memory */\n      0x60\n        /* \"tronbox/contracts/SmartGenie.sol\":24727:24732  users */\n      0x04\n        /* \"tronbox/contracts/SmartGenie.sol\":24727:24739  users[_user] */\n      0x00\n        /* \"tronbox/contracts/SmartGenie.sol\":24733:24738  _user */\n      dup4\n        /* \"tronbox/contracts/SmartGenie.sol\":24727:24739  users[_user] */\n      0xffffffffffffffffffffffffffffffffffffffff\n      and\n      0xffffffffffffffffffffffffffffffffffffffff\n      and\n      dup2\n      mstore\n      0x20\n      add\n      swap1\n      dup2\n      mstore\n      0x20\n      add\n      0x00\n      keccak256\n        /* \"tronbox/contracts/SmartGenie.sol\":24727:24748  users[_user].referral */\n      0x03\n      add\n        /* \"tronbox/contracts/SmartGenie.sol\":24720:24748  return users[_user].referral */\n      dup1\n      sload\n      dup1\n      0x20\n      mul\n      0x20\n      add\n      mload(0x40)\n      swap1\n      dup2\n      add\n      0x40\n      mstore\n      dup1\n      swap3\n      swap2\n      swap1\n      dup2\n      dup2\n      mstore\n      0x20\n      add\n      dup3\n      dup1\n      sload\n      dup1\n      iszero\n      tag_217\n      jumpi\n      0x20\n      mul\n      dup3\n      add\n      swap2\n      swap1\n      0x00\n      mstore\n      keccak256(0x00, 0x20)\n      swap1\n    tag_218:\n      dup2\n      0x00\n      swap1\n      sload\n      swap1\n      0x0100\n      exp\n      swap1\n      div\n      0xffffffffffffffffffffffffffffffffffffffff\n      and\n      0xffffffffffffffffffffffffffffffffffffffff\n      and\n      dup2\n      mstore\n      0x20\n      add\n      swap1\n      0x01\n      add\n      swap1\n      dup1\n      dup4\n      gt\n      tag_218\n      jumpi\n    tag_217:\n      pop\n      pop\n      pop\n      pop\n      pop\n      swap1\n      pop\n        /* \"tronbox/contracts/SmartGenie.sol\":24631:24755  function getUserReferrals(address _user) public view returns(address[] memory) {... */\n      swap2\n      swap1\n      pop\n      jump\t// out\n        /* \"tronbox/contracts/SmartGenie.sol\":898:943  uint8[3] public promotionPercantage = [5,3,1] */\n    tag_76:\n      0x0c\n      dup2\n      0x03\n      dup2\n      lt\n      tag_219\n      jumpi\n      0x00\n      dup1\n      revert\n    tag_219:\n      0x20\n      swap2\n      dup3\n      dup3\n      div\n      add\n      swap2\n      swap1\n      mod\n      swap2\n      pop\n      sload\n      swap1\n      0x0100\n      exp\n      swap1\n      div\n      0xff\n      and\n      dup2\n      jump\t// out\n        /* \"tronbox/contracts/SmartGenie.sol\":24455:24594  function getUserLevelEligibility(address _user) public view returns(uint256[] memory) {... */\n    tag_82:\n        /* \"tronbox/contracts/SmartGenie.sol\":24523:24539  uint256[] memory */\n      0x60\n        /* \"tronbox/contracts/SmartGenie.sol\":24558:24563  users */\n      0x04\n        /* \"tronbox/contracts/SmartGenie.sol\":24558:24570  users[_user] */\n      0x00\n        /* \"tronbox/contracts/SmartGenie.sol\":24564:24569  _user */\n      dup4\n        /* \"tronbox/contracts/SmartGenie.sol\":24558:24570  users[_user] */\n      0xffffffffffffffffffffffffffffffffffffffff\n      and\n      0xffffffffffffffffffffffffffffffffffffffff\n      and\n      dup2\n      mstore\n      0x20\n      add\n      swap1\n      dup2\n      mstore\n      0x20\n      add\n      0x00\n      keccak256\n        /* \"tronbox/contracts/SmartGenie.sol\":24558:24587  users[_user].levelEligibility */\n      0x06\n      add\n        /* \"tronbox/contracts/SmartGenie.sol\":24551:24587  return users[_user].levelEligibility */\n      dup1\n      sload\n      dup1\n      0x20\n      mul\n      0x20\n      add\n      mload(0x40)\n      swap1\n      dup2\n      add\n      0x40\n      mstore\n      dup1\n      swap3\n      swap2\n      swap1\n      dup2\n      dup2\n      mstore\n      0x20\n      add\n      dup3\n      dup1\n      sload\n      dup1\n      iszero\n      tag_222\n      jumpi\n      0x20\n      mul\n      dup3\n      add\n      swap2\n      swap1\n      0x00\n      mstore\n      keccak256(0x00, 0x20)\n      swap1\n    tag_223:\n      dup2\n      sload\n      dup2\n      mstore\n      0x20\n      add\n      swap1\n      0x01\n      add\n      swap1\n      dup1\n      dup4\n      gt\n      tag_223\n      jumpi\n    tag_222:\n      pop\n      pop\n      pop\n      pop\n      pop\n      swap1\n      pop\n        /* \"tronbox/contracts/SmartGenie.sol\":24455:24594  function getUserLevelEligibility(address _user) public view returns(uint256[] memory) {... */\n      swap2\n      swap1\n      pop\n      jump\t// out\n        /* \"tronbox/contracts/SmartGenie.sol\":24290:24402  function getContractBalance() public view returns(uint256) {... */\n    tag_87:\n        /* \"tronbox/contracts/SmartGenie.sol\":24340:24347  uint256 */\n      0x00\n        /* \"tronbox/contracts/SmartGenie.sol\":24388:24395  1000000 */\n      0x0f4240\n        /* \"tronbox/contracts/SmartGenie.sol\":24366:24387  address(this).balance */\n      selfbalance\n        /* \"tronbox/contracts/SmartGenie.sol\":24366:24395  address(this).balance/1000000 */\n      tag_225\n      swap2\n      swap1\n      tag_170\n      jump\t// in\n    tag_225:\n        /* \"tronbox/contracts/SmartGenie.sol\":24359:24395  return address(this).balance/1000000 */\n      swap1\n      pop\n        /* \"tronbox/contracts/SmartGenie.sol\":24290:24402  function getContractBalance() public view returns(uint256) {... */\n      swap1\n      jump\t// out\n        /* \"tronbox/contracts/SmartGenie.sol\":478:518  mapping(uint => uint) public LEVEL_PRICE */\n    tag_92:\n      mstore(0x20, 0x03)\n      dup1\n      0x00\n      mstore\n      keccak256(0x00, 0x40)\n      0x00\n      swap2\n      pop\n      swap1\n      pop\n      sload\n      dup2\n      jump\t// out\n        /* \"tronbox/contracts/SmartGenie.sol\":3015:5619  function regUser(uint _referrerID) public payable returns (bool) {... */\n    tag_96:\n        /* \"tronbox/contracts/SmartGenie.sol\":3074:3078  bool */\n      0x00\n        /* \"tronbox/contracts/SmartGenie.sol\":3176:3181  users */\n      0x04\n        /* \"tronbox/contracts/SmartGenie.sol\":3176:3193  users[msg.sender] */\n      0x00\n        /* \"tronbox/contracts/SmartGenie.sol\":3182:3192  msg.sender */\n      caller\n        /* \"tronbox/contracts/SmartGenie.sol\":3176:3193  users[msg.sender] */\n      0xffffffffffffffffffffffffffffffffffffffff\n      and\n      0xffffffffffffffffffffffffffffffffffffffff\n      and\n      dup2\n      mstore\n      0x20\n      add\n      swap1\n      dup2\n      mstore\n      0x20\n      add\n      0x00\n      keccak256\n        /* \"tronbox/contracts/SmartGenie.sol\":3176:3201  users[msg.sender].isExist */\n      0x00\n      add\n      0x00\n      swap1\n      sload\n      swap1\n      0x0100\n      exp\n      swap1\n      div\n      0xff\n      and\n        /* \"tronbox/contracts/SmartGenie.sol\":3175:3201  !users[msg.sender].isExist */\n      iszero\n        /* \"tronbox/contracts/SmartGenie.sol\":3167:3216  require(!users[msg.sender].isExist, 'User exist') */\n      tag_227\n      jumpi\n      mload(0x40)\n      0x08c379a000000000000000000000000000000000000000000000000000000000\n      dup2\n      mstore\n      0x04\n      add\n      tag_228\n      swap1\n      tag_229\n      jump\t// in\n    tag_228:\n      mload(0x40)\n      dup1\n      swap2\n      sub\n      swap1\n      revert\n    tag_227:\n        /* \"tronbox/contracts/SmartGenie.sol\":3310:3311  0 */\n      0x00\n        /* \"tronbox/contracts/SmartGenie.sol\":3296:3307  _referrerID */\n      dup3\n        /* \"tronbox/contracts/SmartGenie.sol\":3296:3311  _referrerID > 0 */\n      gt\n        /* \"tronbox/contracts/SmartGenie.sol\":3296:3340  _referrerID > 0 && _referrerID <= currUserID */\n      dup1\n      iszero\n      tag_230\n      jumpi\n      pop\n        /* \"tronbox/contracts/SmartGenie.sol\":3330:3340  currUserID */\n      sload(0x10)\n        /* \"tronbox/contracts/SmartGenie.sol\":3315:3326  _referrerID */\n      dup3\n        /* \"tronbox/contracts/SmartGenie.sol\":3315:3340  _referrerID <= currUserID */\n      gt\n      iszero\n        /* \"tronbox/contracts/SmartGenie.sol\":3296:3340  _referrerID > 0 && _referrerID <= currUserID */\n    tag_230:\n        /* \"tronbox/contracts/SmartGenie.sol\":3288:3366  require(_referrerID > 0 && _referrerID <= currUserID, 'Incorrect referrer Id') */\n      tag_231\n      jumpi\n      mload(0x40)\n      0x08c379a000000000000000000000000000000000000000000000000000000000\n      dup2\n      mstore\n      0x04\n      add\n      tag_232\n      swap1\n      tag_233\n      jump\t// in\n    tag_232:\n      mload(0x40)\n      dup1\n      swap2\n      sub\n      swap1\n      revert\n    tag_231:\n        /* \"tronbox/contracts/SmartGenie.sol\":3471:3477  regFee */\n      sload(0x13)\n        /* \"tronbox/contracts/SmartGenie.sol\":3458:3467  msg.value */\n      callvalue\n        /* \"tronbox/contracts/SmartGenie.sol\":3458:3477  msg.value == regFee */\n      eq\n        /* \"tronbox/contracts/SmartGenie.sol\":3450:3497  require(msg.value == regFee, 'Incorrect Value') */\n      tag_234\n      jumpi\n      mload(0x40)\n      0x08c379a000000000000000000000000000000000000000000000000000000000\n      dup2\n      mstore\n      0x04\n      add\n      tag_235\n      swap1\n      tag_236\n      jump\t// in\n    tag_235:\n      mload(0x40)\n      dup1\n      swap2\n      sub\n      swap1\n      revert\n    tag_234:\n        /* \"tronbox/contracts/SmartGenie.sol\":3573:3602  UserStruct storage userStruct */\n      0x00\n        /* \"tronbox/contracts/SmartGenie.sol\":3605:3610  users */\n      0x04\n        /* \"tronbox/contracts/SmartGenie.sol\":3605:3622  users[msg.sender] */\n      0x00\n        /* \"tronbox/contracts/SmartGenie.sol\":3611:3621  msg.sender */\n      caller\n        /* \"tronbox/contracts/SmartGenie.sol\":3605:3622  users[msg.sender] */\n      0xffffffffffffffffffffffffffffffffffffffff\n      and\n      0xffffffffffffffffffffffffffffffffffffffff\n      and\n      dup2\n      mstore\n      0x20\n      add\n      swap1\n      dup2\n      mstore\n      0x20\n      add\n      0x00\n      keccak256\n        /* \"tronbox/contracts/SmartGenie.sol\":3573:3622  UserStruct storage userStruct = users[msg.sender] */\n      swap1\n      pop\n        /* \"tronbox/contracts/SmartGenie.sol\":3653:3657  true */\n      0x01\n        /* \"tronbox/contracts/SmartGenie.sol\":3632:3642  userStruct */\n      dup2\n        /* \"tronbox/contracts/SmartGenie.sol\":3632:3650  userStruct.isExist */\n      0x00\n      add\n      0x00\n        /* \"tronbox/contracts/SmartGenie.sol\":3632:3657  userStruct.isExist = true */\n      0x0100\n      exp\n      dup2\n      sload\n      dup2\n      0xff\n      mul\n      not\n      and\n      swap1\n      dup4\n      iszero\n      iszero\n      mul\n      or\n      swap1\n      sstore\n      pop\n        /* \"tronbox/contracts/SmartGenie.sol\":3683:3693  currUserID */\n      sload(0x10)\n        /* \"tronbox/contracts/SmartGenie.sol\":3667:3677  userStruct */\n      dup2\n        /* \"tronbox/contracts/SmartGenie.sol\":3667:3680  userStruct.id */\n      0x01\n      add\n        /* \"tronbox/contracts/SmartGenie.sol\":3667:3693  userStruct.id = currUserID */\n      dup2\n      swap1\n      sstore\n      pop\n        /* \"tronbox/contracts/SmartGenie.sol\":3727:3738  _referrerID */\n      dup3\n        /* \"tronbox/contracts/SmartGenie.sol\":3703:3713  userStruct */\n      dup2\n        /* \"tronbox/contracts/SmartGenie.sol\":3703:3724  userStruct.referrerID */\n      0x02\n      add\n        /* \"tronbox/contracts/SmartGenie.sol\":3703:3738  userStruct.referrerID = _referrerID */\n      dup2\n      swap1\n      sstore\n      pop\n        /* \"tronbox/contracts/SmartGenie.sol\":3784:3785  0 */\n      0x00\n        /* \"tronbox/contracts/SmartGenie.sol\":3770:3786  new address[](0) */\n      0xffffffffffffffff\n      dup2\n      gt\n      iszero\n      tag_237\n      jumpi\n      tag_238\n      tag_239\n      jump\t// in\n    tag_238:\n    tag_237:\n      mload(0x40)\n      swap1\n      dup1\n      dup3\n      mstore\n      dup1\n      0x20\n      mul\n      0x20\n      add\n      dup3\n      add\n      0x40\n      mstore\n      dup1\n      iszero\n      tag_240\n      jumpi\n      dup2\n      0x20\n      add\n      0x20\n      dup3\n      mul\n      dup1\n      calldatasize\n      dup4\n      calldatacopy\n      dup1\n      dup3\n      add\n      swap2\n      pop\n      pop\n      swap1\n      pop\n    tag_240:\n      pop\n        /* \"tronbox/contracts/SmartGenie.sol\":3748:3758  userStruct */\n      dup2\n        /* \"tronbox/contracts/SmartGenie.sol\":3748:3767  userStruct.referral */\n      0x03\n      add\n        /* \"tronbox/contracts/SmartGenie.sol\":3748:3786  userStruct.referral = new address[](0) */\n      swap1\n      dup1\n      mload\n      swap1\n      0x20\n      add\n      swap1\n      tag_241\n      swap3\n      swap2\n      swap1\n      tag_242\n      jump\t// in\n    tag_241:\n      pop\n        /* \"tronbox/contracts/SmartGenie.sol\":3816:3831  block.timestamp */\n      timestamp\n        /* \"tronbox/contracts/SmartGenie.sol\":3796:3806  userStruct */\n      dup2\n        /* \"tronbox/contracts/SmartGenie.sol\":3796:3813  userStruct.joined */\n      0x04\n      add\n        /* \"tronbox/contracts/SmartGenie.sol\":3796:3831  userStruct.joined = block.timestamp */\n      dup2\n      swap1\n      sstore\n      pop\n        /* \"tronbox/contracts/SmartGenie.sol\":3882:3883  0 */\n      0x00\n        /* \"tronbox/contracts/SmartGenie.sol\":3871:3884  new uint[](0) */\n      0xffffffffffffffff\n      dup2\n      gt\n      iszero\n      tag_243\n      jumpi\n      tag_244\n      tag_239\n      jump\t// in\n    tag_244:\n    tag_243:\n      mload(0x40)\n      swap1\n      dup1\n      dup3\n      mstore\n      dup1\n      0x20\n      mul\n      0x20\n      add\n      dup3\n      add\n      0x40\n      mstore\n      dup1\n      iszero\n      tag_245\n      jumpi\n      dup2\n      0x20\n      add\n      0x20\n      dup3\n      mul\n      dup1\n      calldatasize\n      dup4\n      calldatacopy\n      dup1\n      dup3\n      add\n      swap2\n      pop\n      pop\n      swap1\n      pop\n    tag_245:\n      pop\n        /* \"tronbox/contracts/SmartGenie.sol\":3841:3851  userStruct */\n      dup2\n        /* \"tronbox/contracts/SmartGenie.sol\":3841:3868  userStruct.levelEligibility */\n      0x06\n      add\n        /* \"tronbox/contracts/SmartGenie.sol\":3841:3884  userStruct.levelEligibility = new uint[](0) */\n      swap1\n      dup1\n      mload\n      swap1\n      0x20\n      add\n      swap1\n      tag_246\n      swap3\n      swap2\n      swap1\n      tag_247\n      jump\t// in\n    tag_246:\n      pop\n        /* \"tronbox/contracts/SmartGenie.sol\":3895:3905  currUserID */\n      0x10\n      0x00\n        /* \"tronbox/contracts/SmartGenie.sol\":3895:3907  currUserID++ */\n      dup2\n      sload\n      dup1\n      swap3\n      swap2\n      swap1\n      tag_248\n      swap1\n      tag_152\n      jump\t// in\n    tag_248:\n      swap2\n      swap1\n      pop\n      sstore\n      pop\n        /* \"tronbox/contracts/SmartGenie.sol\":3994:4004  msg.sender */\n      caller\n        /* \"tronbox/contracts/SmartGenie.sol\":3971:3979  userList */\n      0x05\n        /* \"tronbox/contracts/SmartGenie.sol\":3971:3991  userList[currUserID] */\n      0x00\n        /* \"tronbox/contracts/SmartGenie.sol\":3980:3990  currUserID */\n      sload(0x10)\n        /* \"tronbox/contracts/SmartGenie.sol\":3971:3991  userList[currUserID] */\n      dup2\n      mstore\n      0x20\n      add\n      swap1\n      dup2\n      mstore\n      0x20\n      add\n      0x00\n      keccak256\n      0x00\n        /* \"tronbox/contracts/SmartGenie.sol\":3971:4004  userList[currUserID] = msg.sender */\n      0x0100\n      exp\n      dup2\n      sload\n      dup2\n      0xffffffffffffffffffffffffffffffffffffffff\n      mul\n      not\n      and\n      swap1\n      dup4\n      0xffffffffffffffffffffffffffffffffffffffff\n      and\n      mul\n      or\n      swap1\n      sstore\n      pop\n        /* \"tronbox/contracts/SmartGenie.sol\":4079:4084  users */\n      0x04\n        /* \"tronbox/contracts/SmartGenie.sol\":4079:4107  users[userList[_referrerID]] */\n      0x00\n        /* \"tronbox/contracts/SmartGenie.sol\":4085:4093  userList */\n      0x05\n        /* \"tronbox/contracts/SmartGenie.sol\":4085:4106  userList[_referrerID] */\n      0x00\n        /* \"tronbox/contracts/SmartGenie.sol\":4094:4105  _referrerID */\n      dup7\n        /* \"tronbox/contracts/SmartGenie.sol\":4085:4106  userList[_referrerID] */\n      dup2\n      mstore\n      0x20\n      add\n      swap1\n      dup2\n      mstore\n      0x20\n      add\n      0x00\n      keccak256\n      0x00\n      swap1\n      sload\n      swap1\n      0x0100\n      exp\n      swap1\n      div\n      0xffffffffffffffffffffffffffffffffffffffff\n      and\n        /* \"tronbox/contracts/SmartGenie.sol\":4079:4107  users[userList[_referrerID]] */\n      0xffffffffffffffffffffffffffffffffffffffff\n      and\n      0xffffffffffffffffffffffffffffffffffffffff\n      and\n      dup2\n      mstore\n      0x20\n      add\n      swap1\n      dup2\n      mstore\n      0x20\n      add\n      0x00\n      keccak256\n        /* \"tronbox/contracts/SmartGenie.sol\":4079:4116  users[userList[_referrerID]].referral */\n      0x03\n      add\n        /* \"tronbox/contracts/SmartGenie.sol\":4122:4132  msg.sender */\n      caller\n        /* \"tronbox/contracts/SmartGenie.sol\":4079:4133  users[userList[_referrerID]].referral.push(msg.sender) */\n      swap1\n      dup1\n      0x01\n      dup2\n      sload\n      add\n      dup1\n      dup3\n      sstore\n      dup1\n      swap2\n      pop\n      pop\n      0x01\n      swap1\n      sub\n      swap1\n      0x00\n      mstore\n      keccak256(0x00, 0x20)\n      add\n      0x00\n      swap1\n      swap2\n      swap1\n      swap2\n      swap1\n      swap2\n      0x0100\n      exp\n      dup2\n      sload\n      dup2\n      0xffffffffffffffffffffffffffffffffffffffff\n      mul\n      not\n      and\n      swap1\n      dup4\n      0xffffffffffffffffffffffffffffffffffffffff\n      and\n      mul\n      or\n      swap1\n      sstore\n      pop\n        /* \"tronbox/contracts/SmartGenie.sol\":4214:4225  LEVEL_PRICE */\n      0x03\n        /* \"tronbox/contracts/SmartGenie.sol\":4214:4228  LEVEL_PRICE[1] */\n      0x00\n        /* \"tronbox/contracts/SmartGenie.sol\":4226:4227  1 */\n      0x01\n        /* \"tronbox/contracts/SmartGenie.sol\":4214:4228  LEVEL_PRICE[1] */\n      dup2\n      mstore\n      0x20\n      add\n      swap1\n      dup2\n      mstore\n      0x20\n      add\n      0x00\n      keccak256\n      sload\n        /* \"tronbox/contracts/SmartGenie.sol\":4204:4210  ursAmt */\n      0x12\n      0x00\n        /* \"tronbox/contracts/SmartGenie.sol\":4204:4228  ursAmt += LEVEL_PRICE[1] */\n      dup3\n      dup3\n      sload\n      tag_250\n      swap2\n      swap1\n      tag_251\n      jump\t// in\n    tag_250:\n      swap3\n      pop\n      pop\n      dup2\n      swap1\n      sstore\n      pop\n        /* \"tronbox/contracts/SmartGenie.sol\":4252:4265  splPromoShare */\n      sload(0x16)\n        /* \"tronbox/contracts/SmartGenie.sol\":4238:4248  splPromAmt */\n      0x11\n      0x00\n        /* \"tronbox/contracts/SmartGenie.sol\":4238:4265  splPromAmt += splPromoShare */\n      dup3\n      dup3\n      sload\n      tag_252\n      swap2\n      swap1\n      tag_251\n      jump\t// in\n    tag_252:\n      swap3\n      pop\n      pop\n      dup2\n      swap1\n      sstore\n      pop\n        /* \"tronbox/contracts/SmartGenie.sol\":4361:4364  100 */\n      0x64\n        /* \"tronbox/contracts/SmartGenie.sol\":4337:4356  promotionPercantage */\n      0x0c\n        /* \"tronbox/contracts/SmartGenie.sol\":4357:4358  0 */\n      0x00\n        /* \"tronbox/contracts/SmartGenie.sol\":4337:4359  promotionPercantage[0] */\n      0x03\n      dup2\n      lt\n      tag_253\n      jumpi\n      tag_254\n      tag_148\n      jump\t// in\n    tag_254:\n    tag_253:\n      0x20\n      swap2\n      dup3\n      dup3\n      div\n      add\n      swap2\n      swap1\n      mod\n      swap1\n      sload\n      swap1\n      0x0100\n      exp\n      swap1\n      div\n      0xff\n      and\n        /* \"tronbox/contracts/SmartGenie.sol\":4320:4359  promotionShare * promotionPercantage[0] */\n      0xff\n      and\n        /* \"tronbox/contracts/SmartGenie.sol\":4320:4334  promotionShare */\n      sload(0x15)\n        /* \"tronbox/contracts/SmartGenie.sol\":4320:4359  promotionShare * promotionPercantage[0] */\n      tag_256\n      swap2\n      swap1\n      tag_168\n      jump\t// in\n    tag_256:\n        /* \"tronbox/contracts/SmartGenie.sol\":4319:4364  (promotionShare * promotionPercantage[0])/100 */\n      tag_257\n      swap2\n      swap1\n      tag_170\n      jump\t// in\n    tag_257:\n        /* \"tronbox/contracts/SmartGenie.sol\":4297:4313  promotionAmounts */\n      0x0d\n        /* \"tronbox/contracts/SmartGenie.sol\":4314:4315  0 */\n      0x00\n        /* \"tronbox/contracts/SmartGenie.sol\":4297:4316  promotionAmounts[0] */\n      0x03\n      dup2\n      lt\n      tag_258\n      jumpi\n      tag_259\n      tag_148\n      jump\t// in\n    tag_259:\n    tag_258:\n      add\n      sload\n        /* \"tronbox/contracts/SmartGenie.sol\":4297:4364  promotionAmounts[0] + (promotionShare * promotionPercantage[0])/100 */\n      tag_261\n      swap2\n      swap1\n      tag_251\n      jump\t// in\n    tag_261:\n        /* \"tronbox/contracts/SmartGenie.sol\":4275:4291  promotionAmounts */\n      0x0d\n        /* \"tronbox/contracts/SmartGenie.sol\":4292:4293  0 */\n      0x00\n        /* \"tronbox/contracts/SmartGenie.sol\":4275:4294  promotionAmounts[0] */\n      0x03\n      dup2\n      lt\n      tag_262\n      jumpi\n      tag_263\n      tag_148\n      jump\t// in\n    tag_263:\n    tag_262:\n      add\n        /* \"tronbox/contracts/SmartGenie.sol\":4275:4364  promotionAmounts[0] = promotionAmounts[0] + (promotionShare * promotionPercantage[0])/100 */\n      dup2\n      swap1\n      sstore\n      pop\n        /* \"tronbox/contracts/SmartGenie.sol\":4460:4463  100 */\n      0x64\n        /* \"tronbox/contracts/SmartGenie.sol\":4436:4455  promotionPercantage */\n      0x0c\n        /* \"tronbox/contracts/SmartGenie.sol\":4456:4457  1 */\n      0x01\n        /* \"tronbox/contracts/SmartGenie.sol\":4436:4458  promotionPercantage[1] */\n      0x03\n      dup2\n      lt\n      tag_265\n      jumpi\n      tag_266\n      tag_148\n      jump\t// in\n    tag_266:\n    tag_265:\n      0x20\n      swap2\n      dup3\n      dup3\n      div\n      add\n      swap2\n      swap1\n      mod\n      swap1\n      sload\n      swap1\n      0x0100\n      exp\n      swap1\n      div\n      0xff\n      and\n        /* \"tronbox/contracts/SmartGenie.sol\":4419:4458  promotionShare * promotionPercantage[1] */\n      0xff\n      and\n        /* \"tronbox/contracts/SmartGenie.sol\":4419:4433  promotionShare */\n      sload(0x15)\n        /* \"tronbox/contracts/SmartGenie.sol\":4419:4458  promotionShare * promotionPercantage[1] */\n      tag_268\n      swap2\n      swap1\n      tag_168\n      jump\t// in\n    tag_268:\n        /* \"tronbox/contracts/SmartGenie.sol\":4418:4463  (promotionShare * promotionPercantage[1])/100 */\n      tag_269\n      swap2\n      swap1\n      tag_170\n      jump\t// in\n    tag_269:\n        /* \"tronbox/contracts/SmartGenie.sol\":4396:4412  promotionAmounts */\n      0x0d\n        /* \"tronbox/contracts/SmartGenie.sol\":4413:4414  1 */\n      0x01\n        /* \"tronbox/contracts/SmartGenie.sol\":4396:4415  promotionAmounts[1] */\n      0x03\n      dup2\n      lt\n      tag_270\n      jumpi\n      tag_271\n      tag_148\n      jump\t// in\n    tag_271:\n    tag_270:\n      add\n      sload\n        /* \"tronbox/contracts/SmartGenie.sol\":4396:4463  promotionAmounts[1] + (promotionShare * promotionPercantage[1])/100 */\n      tag_273\n      swap2\n      swap1\n      tag_251\n      jump\t// in\n    tag_273:\n        /* \"tronbox/contracts/SmartGenie.sol\":4374:4390  promotionAmounts */\n      0x0d\n        /* \"tronbox/contracts/SmartGenie.sol\":4391:4392  1 */\n      0x01\n        /* \"tronbox/contracts/SmartGenie.sol\":4374:4393  promotionAmounts[1] */\n      0x03\n      dup2\n      lt\n      tag_274\n      jumpi\n      tag_275\n      tag_148\n      jump\t// in\n    tag_275:\n    tag_274:\n      add\n        /* \"tronbox/contracts/SmartGenie.sol\":4374:4463  promotionAmounts[1] = promotionAmounts[1] + (promotionShare * promotionPercantage[1])/100 */\n      dup2\n      swap1\n      sstore\n      pop\n        /* \"tronbox/contracts/SmartGenie.sol\":4559:4562  100 */\n      0x64\n        /* \"tronbox/contracts/SmartGenie.sol\":4535:4554  promotionPercantage */\n      0x0c\n        /* \"tronbox/contracts/SmartGenie.sol\":4555:4556  2 */\n      0x02\n        /* \"tronbox/contracts/SmartGenie.sol\":4535:4557  promotionPercantage[2] */\n      0x03\n      dup2\n      lt\n      tag_277\n      jumpi\n      tag_278\n      tag_148\n      jump\t// in\n    tag_278:\n    tag_277:\n      0x20\n      swap2\n      dup3\n      dup3\n      div\n      add\n      swap2\n      swap1\n      mod\n      swap1\n      sload\n      swap1\n      0x0100\n      exp\n      swap1\n      div\n      0xff\n      and\n        /* \"tronbox/contracts/SmartGenie.sol\":4518:4557  promotionShare * promotionPercantage[2] */\n      0xff\n      and\n        /* \"tronbox/contracts/SmartGenie.sol\":4518:4532  promotionShare */\n      sload(0x15)\n        /* \"tronbox/contracts/SmartGenie.sol\":4518:4557  promotionShare * promotionPercantage[2] */\n      tag_280\n      swap2\n      swap1\n      tag_168\n      jump\t// in\n    tag_280:\n        /* \"tronbox/contracts/SmartGenie.sol\":4517:4562  (promotionShare * promotionPercantage[2])/100 */\n      tag_281\n      swap2\n      swap1\n      tag_170\n      jump\t// in\n    tag_281:\n        /* \"tronbox/contracts/SmartGenie.sol\":4495:4511  promotionAmounts */\n      0x0d\n        /* \"tronbox/contracts/SmartGenie.sol\":4512:4513  2 */\n      0x02\n        /* \"tronbox/contracts/SmartGenie.sol\":4495:4514  promotionAmounts[2] */\n      0x03\n      dup2\n      lt\n      tag_282\n      jumpi\n      tag_283\n      tag_148\n      jump\t// in\n    tag_283:\n    tag_282:\n      add\n      sload\n        /* \"tronbox/contracts/SmartGenie.sol\":4495:4562  promotionAmounts[2] + (promotionShare * promotionPercantage[2])/100 */\n      tag_285\n      swap2\n      swap1\n      tag_251\n      jump\t// in\n    tag_285:\n        /* \"tronbox/contracts/SmartGenie.sol\":4473:4489  promotionAmounts */\n      0x0d\n        /* \"tronbox/contracts/SmartGenie.sol\":4490:4491  2 */\n      0x02\n        /* \"tronbox/contracts/SmartGenie.sol\":4473:4492  promotionAmounts[2] */\n      0x03\n      dup2\n      lt\n      tag_286\n      jumpi\n      tag_287\n      tag_148\n      jump\t// in\n    tag_287:\n    tag_286:\n      add\n        /* \"tronbox/contracts/SmartGenie.sol\":4473:4562  promotionAmounts[2] = promotionAmounts[2] + (promotionShare * promotionPercantage[2])/100 */\n      dup2\n      swap1\n      sstore\n      pop\n        /* \"tronbox/contracts/SmartGenie.sol\":4689:4716  uint referrerReferralLength */\n      0x00\n        /* \"tronbox/contracts/SmartGenie.sol\":4719:4724  users */\n      0x04\n        /* \"tronbox/contracts/SmartGenie.sol\":4719:4747  users[userList[_referrerID]] */\n      0x00\n        /* \"tronbox/contracts/SmartGenie.sol\":4725:4733  userList */\n      0x05\n        /* \"tronbox/contracts/SmartGenie.sol\":4725:4746  userList[_referrerID] */\n      0x00\n        /* \"tronbox/contracts/SmartGenie.sol\":4734:4745  _referrerID */\n      dup8\n        /* \"tronbox/contracts/SmartGenie.sol\":4725:4746  userList[_referrerID] */\n      dup2\n      mstore\n      0x20\n      add\n      swap1\n      dup2\n      mstore\n      0x20\n      add\n      0x00\n      keccak256\n      0x00\n      swap1\n      sload\n      swap1\n      0x0100\n      exp\n      swap1\n      div\n      0xffffffffffffffffffffffffffffffffffffffff\n      and\n        /* \"tronbox/contracts/SmartGenie.sol\":4719:4747  users[userList[_referrerID]] */\n      0xffffffffffffffffffffffffffffffffffffffff\n      and\n      0xffffffffffffffffffffffffffffffffffffffff\n      and\n      dup2\n      mstore\n      0x20\n      add\n      swap1\n      dup2\n      mstore\n      0x20\n      add\n      0x00\n      keccak256\n        /* \"tronbox/contracts/SmartGenie.sol\":4719:4756  users[userList[_referrerID]].referral */\n      0x03\n      add\n        /* \"tronbox/contracts/SmartGenie.sol\":4719:4763  users[userList[_referrerID]].referral.length */\n      dup1\n      sload\n      swap1\n      pop\n        /* \"tronbox/contracts/SmartGenie.sol\":4689:4763  uint referrerReferralLength = users[userList[_referrerID]].referral.length */\n      swap1\n      pop\n        /* \"tronbox/contracts/SmartGenie.sol\":4802:4803  1 */\n      0x01\n        /* \"tronbox/contracts/SmartGenie.sol\":4776:4798  referrerReferralLength */\n      dup2\n        /* \"tronbox/contracts/SmartGenie.sol\":4776:4803  referrerReferralLength != 1 */\n      eq\n      iszero\n        /* \"tronbox/contracts/SmartGenie.sol\":4776:4823  referrerReferralLength != 1 || _referrerID == 1 */\n      dup1\n      tag_289\n      jumpi\n      pop\n        /* \"tronbox/contracts/SmartGenie.sol\":4822:4823  1 */\n      0x01\n        /* \"tronbox/contracts/SmartGenie.sol\":4807:4818  _referrerID */\n      dup5\n        /* \"tronbox/contracts/SmartGenie.sol\":4807:4823  _referrerID == 1 */\n      eq\n        /* \"tronbox/contracts/SmartGenie.sol\":4776:4823  referrerReferralLength != 1 || _referrerID == 1 */\n    tag_289:\n        /* \"tronbox/contracts/SmartGenie.sol\":4773:5161  if(referrerReferralLength != 1 || _referrerID == 1) {... */\n      iszero\n      tag_290\n      jumpi\n        /* \"tronbox/contracts/SmartGenie.sol\":4876:4929  payment(1, msg.sender, referrerReferralLength, false) */\n      tag_291\n        /* \"tronbox/contracts/SmartGenie.sol\":4884:4885  1 */\n      0x01\n        /* \"tronbox/contracts/SmartGenie.sol\":4887:4897  msg.sender */\n      caller\n        /* \"tronbox/contracts/SmartGenie.sol\":4899:4921  referrerReferralLength */\n      dup4\n        /* \"tronbox/contracts/SmartGenie.sol\":4923:4928  false */\n      0x00\n        /* \"tronbox/contracts/SmartGenie.sol\":4876:4883  payment */\n      tag_292\n        /* \"tronbox/contracts/SmartGenie.sol\":4876:4929  payment(1, msg.sender, referrerReferralLength, false) */\n      jump\t// in\n    tag_291:\n        /* \"tronbox/contracts/SmartGenie.sol\":4773:5161  if(referrerReferralLength != 1 || _referrerID == 1) {... */\n      jump(tag_293)\n    tag_290:\n        /* \"tronbox/contracts/SmartGenie.sol\":4960:4965  users */\n      0x04\n        /* \"tronbox/contracts/SmartGenie.sol\":4960:4988  users[userList[_referrerID]] */\n      0x00\n        /* \"tronbox/contracts/SmartGenie.sol\":4966:4974  userList */\n      0x05\n        /* \"tronbox/contracts/SmartGenie.sol\":4966:4987  userList[_referrerID] */\n      0x00\n        /* \"tronbox/contracts/SmartGenie.sol\":4975:4986  _referrerID */\n      dup8\n        /* \"tronbox/contracts/SmartGenie.sol\":4966:4987  userList[_referrerID] */\n      dup2\n      mstore\n      0x20\n      add\n      swap1\n      dup2\n      mstore\n      0x20\n      add\n      0x00\n      keccak256\n      0x00\n      swap1\n      sload\n      swap1\n      0x0100\n      exp\n      swap1\n      div\n      0xffffffffffffffffffffffffffffffffffffffff\n      and\n        /* \"tronbox/contracts/SmartGenie.sol\":4960:4988  users[userList[_referrerID]] */\n      0xffffffffffffffffffffffffffffffffffffffff\n      and\n      0xffffffffffffffffffffffffffffffffffffffff\n      and\n      dup2\n      mstore\n      0x20\n      add\n      swap1\n      dup2\n      mstore\n      0x20\n      add\n      0x00\n      keccak256\n        /* \"tronbox/contracts/SmartGenie.sol\":4960:5005  users[userList[_referrerID]].levelEligibility */\n      0x06\n      add\n        /* \"tronbox/contracts/SmartGenie.sol\":5011:5012  1 */\n      0x01\n        /* \"tronbox/contracts/SmartGenie.sol\":4960:5013  users[userList[_referrerID]].levelEligibility.push(1) */\n      swap1\n      dup1\n      0x01\n      dup2\n      sload\n      add\n      dup1\n      dup3\n      sstore\n      dup1\n      swap2\n      pop\n      pop\n      0x01\n      swap1\n      sub\n      swap1\n      0x00\n      mstore\n      keccak256(0x00, 0x20)\n      add\n      0x00\n      swap1\n      swap2\n      swap1\n      swap2\n      swap1\n      swap2\n      pop\n      sstore\n        /* \"tronbox/contracts/SmartGenie.sol\":5027:5043  address referrer */\n      0x00\n        /* \"tronbox/contracts/SmartGenie.sol\":5046:5054  userList */\n      0x05\n        /* \"tronbox/contracts/SmartGenie.sol\":5046:5067  userList[_referrerID] */\n      0x00\n        /* \"tronbox/contracts/SmartGenie.sol\":5055:5066  _referrerID */\n      dup7\n        /* \"tronbox/contracts/SmartGenie.sol\":5046:5067  userList[_referrerID] */\n      dup2\n      mstore\n      0x20\n      add\n      swap1\n      dup2\n      mstore\n      0x20\n      add\n      0x00\n      keccak256\n      0x00\n      swap1\n      sload\n      swap1\n      0x0100\n      exp\n      swap1\n      div\n      0xffffffffffffffffffffffffffffffffffffffff\n      and\n        /* \"tronbox/contracts/SmartGenie.sol\":5027:5067  address referrer = userList[_referrerID] */\n      swap1\n      pop\n        /* \"tronbox/contracts/SmartGenie.sol\":5149:5150  1 */\n      0x01\n        /* \"tronbox/contracts/SmartGenie.sol\":5118:5123  users */\n      0x04\n        /* \"tronbox/contracts/SmartGenie.sol\":5118:5133  users[referrer] */\n      0x00\n        /* \"tronbox/contracts/SmartGenie.sol\":5124:5132  referrer */\n      dup4\n        /* \"tronbox/contracts/SmartGenie.sol\":5118:5133  users[referrer] */\n      0xffffffffffffffffffffffffffffffffffffffff\n      and\n      0xffffffffffffffffffffffffffffffffffffffff\n      and\n      dup2\n      mstore\n      0x20\n      add\n      swap1\n      dup2\n      mstore\n      0x20\n      add\n      0x00\n      keccak256\n        /* \"tronbox/contracts/SmartGenie.sol\":5118:5145  users[referrer].incomeCount */\n      0x05\n      add\n        /* \"tronbox/contracts/SmartGenie.sol\":5118:5148  users[referrer].incomeCount[1] */\n      0x00\n        /* \"tronbox/contracts/SmartGenie.sol\":5146:5147  1 */\n      0x01\n        /* \"tronbox/contracts/SmartGenie.sol\":5118:5148  users[referrer].incomeCount[1] */\n      dup2\n      mstore\n      0x20\n      add\n      swap1\n      dup2\n      mstore\n      0x20\n      add\n      0x00\n      keccak256\n      sload\n        /* \"tronbox/contracts/SmartGenie.sol\":5118:5150  users[referrer].incomeCount[1]+1 */\n      tag_295\n      swap2\n      swap1\n      tag_251\n      jump\t// in\n    tag_295:\n        /* \"tronbox/contracts/SmartGenie.sol\":5085:5090  users */\n      0x04\n        /* \"tronbox/contracts/SmartGenie.sol\":5085:5100  users[referrer] */\n      0x00\n        /* \"tronbox/contracts/SmartGenie.sol\":5091:5099  referrer */\n      dup4\n        /* \"tronbox/contracts/SmartGenie.sol\":5085:5100  users[referrer] */\n      0xffffffffffffffffffffffffffffffffffffffff\n      and\n      0xffffffffffffffffffffffffffffffffffffffff\n      and\n      dup2\n      mstore\n      0x20\n      add\n      swap1\n      dup2\n      mstore\n      0x20\n      add\n      0x00\n      keccak256\n        /* \"tronbox/contracts/SmartGenie.sol\":5085:5112  users[referrer].incomeCount */\n      0x05\n      add\n        /* \"tronbox/contracts/SmartGenie.sol\":5085:5115  users[referrer].incomeCount[1] */\n      0x00\n        /* \"tronbox/contracts/SmartGenie.sol\":5113:5114  1 */\n      0x01\n        /* \"tronbox/contracts/SmartGenie.sol\":5085:5115  users[referrer].incomeCount[1] */\n      dup2\n      mstore\n      0x20\n      add\n      swap1\n      dup2\n      mstore\n      0x20\n      add\n      0x00\n      keccak256\n        /* \"tronbox/contracts/SmartGenie.sol\":5085:5150  users[referrer].incomeCount[1] = users[referrer].incomeCount[1]+1 */\n      dup2\n      swap1\n      sstore\n      pop\n        /* \"tronbox/contracts/SmartGenie.sol\":4946:5161  {... */\n      pop\n        /* \"tronbox/contracts/SmartGenie.sol\":4773:5161  if(referrerReferralLength != 1 || _referrerID == 1) {... */\n    tag_293:\n        /* \"tronbox/contracts/SmartGenie.sol\":5343:5355  bool success */\n      0x00\n        /* \"tronbox/contracts/SmartGenie.sol\":5361:5369  userList */\n      0x05\n        /* \"tronbox/contracts/SmartGenie.sol\":5361:5382  userList[_referrerID] */\n      0x00\n        /* \"tronbox/contracts/SmartGenie.sol\":5370:5381  _referrerID */\n      dup7\n        /* \"tronbox/contracts/SmartGenie.sol\":5361:5382  userList[_referrerID] */\n      dup2\n      mstore\n      0x20\n      add\n      swap1\n      dup2\n      mstore\n      0x20\n      add\n      0x00\n      keccak256\n      0x00\n      swap1\n      sload\n      swap1\n      0x0100\n      exp\n      swap1\n      div\n      0xffffffffffffffffffffffffffffffffffffffff\n      and\n        /* \"tronbox/contracts/SmartGenie.sol\":5360:5388  (userList[_referrerID]).call */\n      0xffffffffffffffffffffffffffffffffffffffff\n      and\n        /* \"tronbox/contracts/SmartGenie.sol\":5396:5404  regShare */\n      sload(0x14)\n        /* \"tronbox/contracts/SmartGenie.sol\":5360:5409  (userList[_referrerID]).call{value: regShare}(\"\") */\n      mload(0x40)\n      tag_296\n      swap1\n      tag_209\n      jump\t// in\n    tag_296:\n      0x00\n      mload(0x40)\n      dup1\n      dup4\n      sub\n      dup2\n      dup6\n      dup8\n      gas\n      call\n      swap3\n      pop\n      pop\n      pop\n      returndatasize\n      dup1\n      0x00\n      dup2\n      eq\n      tag_299\n      jumpi\n      mload(0x40)\n      swap2\n      pop\n      and(add(returndatasize, 0x3f), not(0x1f))\n      dup3\n      add\n      0x40\n      mstore\n      returndatasize\n      dup3\n      mstore\n      returndatasize\n      0x00\n      0x20\n      dup5\n      add\n      returndatacopy\n      jump(tag_298)\n    tag_299:\n      0x60\n      swap2\n      pop\n    tag_298:\n      pop\n        /* \"tronbox/contracts/SmartGenie.sol\":5342:5409  (bool success,) = (userList[_referrerID]).call{value: regShare}(\"\") */\n      pop\n      swap1\n      pop\n        /* \"tronbox/contracts/SmartGenie.sol\":5427:5434  success */\n      dup1\n        /* \"tronbox/contracts/SmartGenie.sol\":5419:5458  require(success, 'Transaction failed!') */\n      tag_300\n      jumpi\n      mload(0x40)\n      0x08c379a000000000000000000000000000000000000000000000000000000000\n      dup2\n      mstore\n      0x04\n      add\n      tag_301\n      swap1\n      tag_215\n      jump\t// in\n    tag_301:\n      mload(0x40)\n      dup1\n      swap2\n      sub\n      swap1\n      revert\n    tag_300:\n        /* \"tronbox/contracts/SmartGenie.sol\":5540:5548  userList */\n      0x05\n        /* \"tronbox/contracts/SmartGenie.sol\":5540:5561  userList[_referrerID] */\n      0x00\n        /* \"tronbox/contracts/SmartGenie.sol\":5549:5560  _referrerID */\n      dup7\n        /* \"tronbox/contracts/SmartGenie.sol\":5540:5561  userList[_referrerID] */\n      dup2\n      mstore\n      0x20\n      add\n      swap1\n      dup2\n      mstore\n      0x20\n      add\n      0x00\n      keccak256\n      0x00\n      swap1\n      sload\n      swap1\n      0x0100\n      exp\n      swap1\n      div\n      0xffffffffffffffffffffffffffffffffffffffff\n      and\n        /* \"tronbox/contracts/SmartGenie.sol\":5514:5579  regLevelEvent(msg.sender, userList[_referrerID], block.timestamp) */\n      0xffffffffffffffffffffffffffffffffffffffff\n      and\n        /* \"tronbox/contracts/SmartGenie.sol\":5528:5538  msg.sender */\n      caller\n        /* \"tronbox/contracts/SmartGenie.sol\":5514:5579  regLevelEvent(msg.sender, userList[_referrerID], block.timestamp) */\n      0xffffffffffffffffffffffffffffffffffffffff\n      and\n      0x788c06d2405ae89dd3f0528d38be7691289474d72176408bc2c2406dc5e342f1\n        /* \"tronbox/contracts/SmartGenie.sol\":5563:5578  block.timestamp */\n      timestamp\n        /* \"tronbox/contracts/SmartGenie.sol\":5514:5579  regLevelEvent(msg.sender, userList[_referrerID], block.timestamp) */\n      mload(0x40)\n      tag_302\n      swap2\n      swap1\n      tag_39\n      jump\t// in\n    tag_302:\n      mload(0x40)\n      dup1\n      swap2\n      sub\n      swap1\n      log3\n        /* \"tronbox/contracts/SmartGenie.sol\":5596:5603  success */\n      dup1\n        /* \"tronbox/contracts/SmartGenie.sol\":5589:5603  return success */\n      swap4\n      pop\n      pop\n      pop\n      pop\n        /* \"tronbox/contracts/SmartGenie.sol\":3015:5619  function regUser(uint _referrerID) public payable returns (bool) {... */\n      swap2\n      swap1\n      pop\n      jump\t// out\n        /* \"tronbox/contracts/SmartGenie.sol\":217:246  address public splPromoWallet */\n    tag_100:\n      0x02\n      0x00\n      swap1\n      sload\n      swap1\n      0x0100\n      exp\n      swap1\n      div\n      0xffffffffffffffffffffffffffffffffffffffff\n      and\n      dup2\n      jump\t// out\n        /* \"tronbox/contracts/SmartGenie.sol\":573:613  mapping(uint => address) public userList */\n    tag_105:\n      mstore(0x20, 0x05)\n      dup1\n      0x00\n      mstore\n      keccak256(0x00, 0x40)\n      0x00\n      swap2\n      pop\n      sload\n      swap1\n      0x0100\n      exp\n      swap1\n      div\n      0xffffffffffffffffffffffffffffffffffffffff\n      and\n      dup2\n      jump\t// out\n        /* \"tronbox/contracts/SmartGenie.sol\":994:1020  uint public currUserID = 0 */\n    tag_109:\n      sload(0x10)\n      dup2\n      jump\t// out\n        /* \"tronbox/contracts/SmartGenie.sol\":524:567  mapping(address => UserStruct) public users */\n    tag_114:\n      mstore(0x20, 0x04)\n      dup1\n      0x00\n      mstore\n      keccak256(0x00, 0x40)\n      0x00\n      swap2\n      pop\n      swap1\n      pop\n      dup1\n      0x00\n      add\n      0x00\n      swap1\n      sload\n      swap1\n      0x0100\n      exp\n      swap1\n      div\n      0xff\n      and\n      swap1\n      dup1\n      0x01\n      add\n      sload\n      swap1\n      dup1\n      0x02\n      add\n      sload\n      swap1\n      dup1\n      0x04\n      add\n      sload\n      swap1\n      pop\n      dup5\n      jump\t// out\n        /* \"tronbox/contracts/SmartGenie.sol\":24811:24955  function getUserIncomeCount(address _user, uint256 _level) public view returns(uint256) {... */\n    tag_121:\n        /* \"tronbox/contracts/SmartGenie.sol\":24890:24897  uint256 */\n      0x00\n        /* \"tronbox/contracts/SmartGenie.sol\":24916:24921  users */\n      0x04\n        /* \"tronbox/contracts/SmartGenie.sol\":24916:24928  users[_user] */\n      0x00\n        /* \"tronbox/contracts/SmartGenie.sol\":24922:24927  _user */\n      dup5\n        /* \"tronbox/contracts/SmartGenie.sol\":24916:24928  users[_user] */\n      0xffffffffffffffffffffffffffffffffffffffff\n      and\n      0xffffffffffffffffffffffffffffffffffffffff\n      and\n      dup2\n      mstore\n      0x20\n      add\n      swap1\n      dup2\n      mstore\n      0x20\n      add\n      0x00\n      keccak256\n        /* \"tronbox/contracts/SmartGenie.sol\":24916:24940  users[_user].incomeCount */\n      0x05\n      add\n        /* \"tronbox/contracts/SmartGenie.sol\":24916:24948  users[_user].incomeCount[_level] */\n      0x00\n        /* \"tronbox/contracts/SmartGenie.sol\":24941:24947  _level */\n      dup4\n        /* \"tronbox/contracts/SmartGenie.sol\":24916:24948  users[_user].incomeCount[_level] */\n      dup2\n      mstore\n      0x20\n      add\n      swap1\n      dup2\n      mstore\n      0x20\n      add\n      0x00\n      keccak256\n      sload\n        /* \"tronbox/contracts/SmartGenie.sol\":24909:24948  return users[_user].incomeCount[_level] */\n      swap1\n      pop\n        /* \"tronbox/contracts/SmartGenie.sol\":24811:24955  function getUserIncomeCount(address _user, uint256 _level) public view returns(uint256) {... */\n      swap3\n      swap2\n      pop\n      pop\n      jump\t// out\n        /* \"tronbox/contracts/SmartGenie.sol\":21010:21425  function updateWallet(address walletAddr, uint index) onlyAdmin public {... */\n    tag_126:\n        /* \"tronbox/contracts/SmartGenie.sol\":1655:1666  adminWallet */\n      0x00\n      dup1\n      sload\n      swap1\n      0x0100\n      exp\n      swap1\n      div\n      0xffffffffffffffffffffffffffffffffffffffff\n      and\n        /* \"tronbox/contracts/SmartGenie.sol\":1641:1666  msg.sender == adminWallet */\n      0xffffffffffffffffffffffffffffffffffffffff\n      and\n        /* \"tronbox/contracts/SmartGenie.sol\":1641:1651  msg.sender */\n      caller\n        /* \"tronbox/contracts/SmartGenie.sol\":1641:1666  msg.sender == adminWallet */\n      0xffffffffffffffffffffffffffffffffffffffff\n      and\n      eq\n        /* \"tronbox/contracts/SmartGenie.sol\":1633:1691  require(msg.sender == adminWallet, \"Caller is not Admin.\") */\n      tag_305\n      jumpi\n      mload(0x40)\n      0x08c379a000000000000000000000000000000000000000000000000000000000\n      dup2\n      mstore\n      0x04\n      add\n      tag_306\n      swap1\n      tag_307\n      jump\t// in\n    tag_306:\n      mload(0x40)\n      dup1\n      swap2\n      sub\n      swap1\n      revert\n    tag_305:\n        /* \"tronbox/contracts/SmartGenie.sol\":21113:21124  adminWallet */\n      0x00\n      dup1\n      sload\n      swap1\n      0x0100\n      exp\n      swap1\n      div\n      0xffffffffffffffffffffffffffffffffffffffff\n      and\n        /* \"tronbox/contracts/SmartGenie.sol\":21099:21124  msg.sender == adminWallet */\n      0xffffffffffffffffffffffffffffffffffffffff\n      and\n        /* \"tronbox/contracts/SmartGenie.sol\":21099:21109  msg.sender */\n      caller\n        /* \"tronbox/contracts/SmartGenie.sol\":21099:21124  msg.sender == adminWallet */\n      0xffffffffffffffffffffffffffffffffffffffff\n      and\n      eq\n        /* \"tronbox/contracts/SmartGenie.sol\":21091:21143  require(msg.sender == adminWallet, \"Invalid caller\") */\n      tag_309\n      jumpi\n      mload(0x40)\n      0x08c379a000000000000000000000000000000000000000000000000000000000\n      dup2\n      mstore\n      0x04\n      add\n      tag_310\n      swap1\n      tag_155\n      jump\t// in\n    tag_310:\n      mload(0x40)\n      dup1\n      swap2\n      sub\n      swap1\n      revert\n    tag_309:\n        /* \"tronbox/contracts/SmartGenie.sol\":21170:21171  5 */\n      0x05\n        /* \"tronbox/contracts/SmartGenie.sol\":21161:21166  index */\n      dup2\n        /* \"tronbox/contracts/SmartGenie.sol\":21161:21171  index <= 5 */\n      gt\n      iszero\n        /* \"tronbox/contracts/SmartGenie.sol\":21153:21189  require(index <= 5, \"Invalid Index\") */\n      tag_311\n      jumpi\n      mload(0x40)\n      0x08c379a000000000000000000000000000000000000000000000000000000000\n      dup2\n      mstore\n      0x04\n      add\n      tag_312\n      swap1\n      tag_313\n      jump\t// in\n    tag_312:\n      mload(0x40)\n      dup1\n      swap2\n      sub\n      swap1\n      revert\n    tag_311:\n        /* \"tronbox/contracts/SmartGenie.sol\":21210:21211  3 */\n      0x03\n        /* \"tronbox/contracts/SmartGenie.sol\":21202:21207  index */\n      dup2\n        /* \"tronbox/contracts/SmartGenie.sol\":21202:21211  index <=3 */\n      gt\n        /* \"tronbox/contracts/SmartGenie.sol\":21199:21419  if(index <=3 ) {... */\n      tag_314\n      jumpi\n        /* \"tronbox/contracts/SmartGenie.sol\":21256:21266  walletAddr */\n      dup2\n        /* \"tronbox/contracts/SmartGenie.sol\":21228:21244  promotionWallets */\n      0x09\n        /* \"tronbox/contracts/SmartGenie.sol\":21251:21252  1 */\n      0x01\n        /* \"tronbox/contracts/SmartGenie.sol\":21245:21250  index */\n      dup4\n        /* \"tronbox/contracts/SmartGenie.sol\":21245:21252  index-1 */\n      tag_315\n      swap2\n      swap1\n      tag_204\n      jump\t// in\n    tag_315:\n        /* \"tronbox/contracts/SmartGenie.sol\":21228:21253  promotionWallets[index-1] */\n      0x03\n      dup2\n      lt\n      tag_316\n      jumpi\n      tag_317\n      tag_148\n      jump\t// in\n    tag_317:\n    tag_316:\n      add\n      0x00\n        /* \"tronbox/contracts/SmartGenie.sol\":21228:21266  promotionWallets[index-1] = walletAddr */\n      0x0100\n      exp\n      dup2\n      sload\n      dup2\n      0xffffffffffffffffffffffffffffffffffffffff\n      mul\n      not\n      and\n      swap1\n      dup4\n      0xffffffffffffffffffffffffffffffffffffffff\n      and\n      mul\n      or\n      swap1\n      sstore\n      pop\n        /* \"tronbox/contracts/SmartGenie.sol\":21199:21419  if(index <=3 ) {... */\n      jump(tag_319)\n    tag_314:\n        /* \"tronbox/contracts/SmartGenie.sol\":21296:21297  4 */\n      0x04\n        /* \"tronbox/contracts/SmartGenie.sol\":21287:21292  index */\n      dup2\n        /* \"tronbox/contracts/SmartGenie.sol\":21287:21297  index == 4 */\n      eq\n        /* \"tronbox/contracts/SmartGenie.sol\":21283:21419  if (index == 4) {... */\n      iszero\n      tag_320\n      jumpi\n        /* \"tronbox/contracts/SmartGenie.sol\":21330:21340  walletAddr */\n      dup2\n        /* \"tronbox/contracts/SmartGenie.sol\":21313:21327  splPromoWallet */\n      0x02\n      0x00\n        /* \"tronbox/contracts/SmartGenie.sol\":21313:21340  splPromoWallet = walletAddr */\n      0x0100\n      exp\n      dup2\n      sload\n      dup2\n      0xffffffffffffffffffffffffffffffffffffffff\n      mul\n      not\n      and\n      swap1\n      dup4\n      0xffffffffffffffffffffffffffffffffffffffff\n      and\n      mul\n      or\n      swap1\n      sstore\n      pop\n        /* \"tronbox/contracts/SmartGenie.sol\":21283:21419  if (index == 4) {... */\n      jump(tag_321)\n    tag_320:\n        /* \"tronbox/contracts/SmartGenie.sol\":21383:21393  walletAddr */\n      dup2\n        /* \"tronbox/contracts/SmartGenie.sol\":21371:21380  ursWallet */\n      0x01\n      0x00\n        /* \"tronbox/contracts/SmartGenie.sol\":21371:21393  ursWallet = walletAddr */\n      0x0100\n      exp\n      dup2\n      sload\n      dup2\n      0xffffffffffffffffffffffffffffffffffffffff\n      mul\n      not\n      and\n      swap1\n      dup4\n      0xffffffffffffffffffffffffffffffffffffffff\n      and\n      mul\n      or\n      swap1\n      sstore\n      pop\n        /* \"tronbox/contracts/SmartGenie.sol\":21283:21419  if (index == 4) {... */\n    tag_321:\n        /* \"tronbox/contracts/SmartGenie.sol\":21199:21419  if(index <=3 ) {... */\n    tag_319:\n        /* \"tronbox/contracts/SmartGenie.sol\":21010:21425  function updateWallet(address walletAddr, uint index) onlyAdmin public {... */\n      pop\n      pop\n      jump\t// out\n        /* \"tronbox/contracts/SmartGenie.sol\":619:686  mapping(uint256 => mapping(address => uint256)) public levelCounter */\n    tag_130:\n      mstore(0x20, 0x06)\n      dup2\n      0x00\n      mstore\n      mstore(0x20, keccak256(0x00, 0x40))\n      dup1\n      0x00\n      mstore\n      keccak256(0x00, 0x40)\n      0x00\n      swap2\n      pop\n      swap2\n      pop\n      pop\n      sload\n      dup2\n      jump\t// out\n        /* \"tronbox/contracts/SmartGenie.sol\":187:211  address public ursWallet */\n    tag_134:\n      0x01\n      0x00\n      swap1\n      sload\n      swap1\n      0x0100\n      exp\n      swap1\n      div\n      0xffffffffffffffffffffffffffffffffffffffff\n      and\n      dup2\n      jump\t// out\n        /* \"tronbox/contracts/SmartGenie.sol\":5666:8262  function payment(uint _reglevel, address _user, uint256 length, bool loop) internal { //4... */\n    tag_292:\n        /* \"tronbox/contracts/SmartGenie.sol\":5764:5777  address payer */\n      0x00\n        /* \"tronbox/contracts/SmartGenie.sol\":5787:5801  bool isRenewal */\n      dup1\n        /* \"tronbox/contracts/SmartGenie.sol\":5804:5809  false */\n      0x00\n        /* \"tronbox/contracts/SmartGenie.sol\":5787:5809  bool isRenewal = false */\n      swap1\n      pop\n        /* \"tronbox/contracts/SmartGenie.sol\":5819:5833  bool isSameLeg */\n      0x00\n        /* \"tronbox/contracts/SmartGenie.sol\":5851:5865  bool isPayNeed */\n      dup1\n        /* \"tronbox/contracts/SmartGenie.sol\":5868:5872  true */\n      0x01\n        /* \"tronbox/contracts/SmartGenie.sol\":5851:5872  bool isPayNeed = true */\n      swap1\n      pop\n        /* \"tronbox/contracts/SmartGenie.sol\":5882:5906  uint256 levelEligibility */\n      0x00\n        /* \"tronbox/contracts/SmartGenie.sol\":5917:5933  uint256 payLevel */\n      dup1\n        /* \"tronbox/contracts/SmartGenie.sol\":5936:5945  _reglevel */\n      dup10\n        /* \"tronbox/contracts/SmartGenie.sol\":5917:5945  uint256 payLevel = _reglevel */\n      swap1\n      pop\n        /* \"tronbox/contracts/SmartGenie.sol\":6003:6004  2 */\n      0x02\n        /* \"tronbox/contracts/SmartGenie.sol\":5993:5999  length */\n      dup9\n        /* \"tronbox/contracts/SmartGenie.sol\":5993:6004  length == 2 */\n      eq\n        /* \"tronbox/contracts/SmartGenie.sol\":5989:6725  if (length == 2) {... */\n      iszero\n      tag_323\n      jumpi\n        /* \"tronbox/contracts/SmartGenie.sol\":6050:6121  levelUpgrade (_reglevel, _user, levelEligibility, isSameLeg, isPayNeed) */\n      tag_324\n        /* \"tronbox/contracts/SmartGenie.sol\":6064:6073  _reglevel */\n      dup11\n        /* \"tronbox/contracts/SmartGenie.sol\":6075:6080  _user */\n      dup11\n        /* \"tronbox/contracts/SmartGenie.sol\":6082:6098  levelEligibility */\n      dup5\n        /* \"tronbox/contracts/SmartGenie.sol\":6100:6109  isSameLeg */\n      dup8\n        /* \"tronbox/contracts/SmartGenie.sol\":6111:6120  isPayNeed */\n      dup8\n        /* \"tronbox/contracts/SmartGenie.sol\":6050:6062  levelUpgrade */\n      tag_325\n        /* \"tronbox/contracts/SmartGenie.sol\":6050:6121  levelUpgrade (_reglevel, _user, levelEligibility, isSameLeg, isPayNeed) */\n      jump\t// in\n    tag_324:\n        /* \"tronbox/contracts/SmartGenie.sol\":6018:6121  (payer, isPayNeed, isSameLeg) = levelUpgrade (_reglevel, _user, levelEligibility, isSameLeg, isPayNeed) */\n      dup1\n      swap7\n      pop\n      dup2\n      swap6\n      pop\n      dup3\n      swap9\n      pop\n      pop\n      pop\n      pop\n        /* \"tronbox/contracts/SmartGenie.sol\":6154:6155  1 */\n      0x01\n        /* \"tronbox/contracts/SmartGenie.sol\":6144:6153  _reglevel */\n      dup11\n        /* \"tronbox/contracts/SmartGenie.sol\":6144:6155  _reglevel+1 */\n      tag_326\n      swap2\n      swap1\n      tag_251\n      jump\t// in\n    tag_326:\n        /* \"tronbox/contracts/SmartGenie.sol\":6133:6155  payLevel = _reglevel+1 */\n      swap1\n      pop\n        /* \"tronbox/contracts/SmartGenie.sol\":5989:6725  if (length == 2) {... */\n      jump(tag_327)\n    tag_323:\n        /* \"tronbox/contracts/SmartGenie.sol\":6221:6223  20 */\n      0x14\n        /* \"tronbox/contracts/SmartGenie.sol\":6211:6217  length */\n      dup9\n        /* \"tronbox/contracts/SmartGenie.sol\":6211:6223  length >= 20 */\n      lt\n      iszero\n        /* \"tronbox/contracts/SmartGenie.sol\":6211:6243  length >= 20 && length % 20 == 0 */\n      dup1\n      iszero\n      tag_328\n      jumpi\n      pop\n        /* \"tronbox/contracts/SmartGenie.sol\":6242:6243  0 */\n      0x00\n        /* \"tronbox/contracts/SmartGenie.sol\":6236:6238  20 */\n      0x14\n        /* \"tronbox/contracts/SmartGenie.sol\":6227:6233  length */\n      dup10\n        /* \"tronbox/contracts/SmartGenie.sol\":6227:6238  length % 20 */\n      tag_329\n      swap2\n      swap1\n      tag_330\n      jump\t// in\n    tag_329:\n        /* \"tronbox/contracts/SmartGenie.sol\":6227:6243  length % 20 == 0 */\n      eq\n        /* \"tronbox/contracts/SmartGenie.sol\":6211:6243  length >= 20 && length % 20 == 0 */\n    tag_328:\n        /* \"tronbox/contracts/SmartGenie.sol\":6207:6725  if (length >= 20 && length % 20 == 0) { ... */\n      iszero\n      tag_331\n      jumpi\n        /* \"tronbox/contracts/SmartGenie.sol\":6267:6275  userList */\n      0x05\n        /* \"tronbox/contracts/SmartGenie.sol\":6267:6278  userList[1] */\n      0x00\n        /* \"tronbox/contracts/SmartGenie.sol\":6276:6277  1 */\n      0x01\n        /* \"tronbox/contracts/SmartGenie.sol\":6267:6278  userList[1] */\n      dup2\n      mstore\n      0x20\n      add\n      swap1\n      dup2\n      mstore\n      0x20\n      add\n      0x00\n      keccak256\n      0x00\n      swap1\n      sload\n      swap1\n      0x0100\n      exp\n      swap1\n      div\n      0xffffffffffffffffffffffffffffffffffffffff\n      and\n        /* \"tronbox/contracts/SmartGenie.sol\":6259:6278  payer = userList[1] */\n      swap6\n      pop\n        /* \"tronbox/contracts/SmartGenie.sol\":6207:6725  if (length >= 20 && length % 20 == 0) { ... */\n      jump(tag_332)\n    tag_331:\n        /* \"tronbox/contracts/SmartGenie.sol\":6343:6344  4 */\n      0x04\n        /* \"tronbox/contracts/SmartGenie.sol\":6333:6339  length */\n      dup9\n        /* \"tronbox/contracts/SmartGenie.sol\":6333:6344  length >= 4 */\n      lt\n      iszero\n        /* \"tronbox/contracts/SmartGenie.sol\":6333:6363  length >= 4 && length % 4 == 0 */\n      dup1\n      iszero\n      tag_333\n      jumpi\n      pop\n        /* \"tronbox/contracts/SmartGenie.sol\":6362:6363  0 */\n      0x00\n        /* \"tronbox/contracts/SmartGenie.sol\":6357:6358  4 */\n      0x04\n        /* \"tronbox/contracts/SmartGenie.sol\":6348:6354  length */\n      dup10\n        /* \"tronbox/contracts/SmartGenie.sol\":6348:6358  length % 4 */\n      tag_334\n      swap2\n      swap1\n      tag_330\n      jump\t// in\n    tag_334:\n        /* \"tronbox/contracts/SmartGenie.sol\":6348:6363  length % 4 == 0 */\n      eq\n        /* \"tronbox/contracts/SmartGenie.sol\":6333:6363  length >= 4 && length % 4 == 0 */\n    tag_333:\n        /* \"tronbox/contracts/SmartGenie.sol\":6329:6725  if (length >= 4 && length % 4 == 0) { ... */\n      iszero\n      tag_335\n      jumpi\n        /* \"tronbox/contracts/SmartGenie.sol\":6520:6574  levelRenewal(loop, _user, _reglevel, levelEligibility) */\n      tag_336\n        /* \"tronbox/contracts/SmartGenie.sol\":6533:6537  loop */\n      dup8\n        /* \"tronbox/contracts/SmartGenie.sol\":6539:6544  _user */\n      dup11\n        /* \"tronbox/contracts/SmartGenie.sol\":6546:6555  _reglevel */\n      dup13\n        /* \"tronbox/contracts/SmartGenie.sol\":6557:6573  levelEligibility */\n      dup6\n        /* \"tronbox/contracts/SmartGenie.sol\":6520:6532  levelRenewal */\n      tag_337\n        /* \"tronbox/contracts/SmartGenie.sol\":6520:6574  levelRenewal(loop, _user, _reglevel, levelEligibility) */\n      jump\t// in\n    tag_336:\n        /* \"tronbox/contracts/SmartGenie.sol\":6499:6574  (payer, isRenewal) = levelRenewal(loop, _user, _reglevel, levelEligibility) */\n      dup1\n      swap7\n      pop\n      dup2\n      swap8\n      pop\n      pop\n      pop\n        /* \"tronbox/contracts/SmartGenie.sol\":6598:6607  _reglevel */\n      dup10\n        /* \"tronbox/contracts/SmartGenie.sol\":6587:6607  payLevel = _reglevel */\n      swap1\n      pop\n        /* \"tronbox/contracts/SmartGenie.sol\":6329:6725  if (length >= 4 && length % 4 == 0) { ... */\n      jump(tag_338)\n    tag_335:\n        /* \"tronbox/contracts/SmartGenie.sol\":6681:6689  userList */\n      0x05\n        /* \"tronbox/contracts/SmartGenie.sol\":6681:6714  userList[users[_user].referrerID] */\n      0x00\n        /* \"tronbox/contracts/SmartGenie.sol\":6690:6695  users */\n      0x04\n        /* \"tronbox/contracts/SmartGenie.sol\":6690:6702  users[_user] */\n      0x00\n        /* \"tronbox/contracts/SmartGenie.sol\":6696:6701  _user */\n      dup13\n        /* \"tronbox/contracts/SmartGenie.sol\":6690:6702  users[_user] */\n      0xffffffffffffffffffffffffffffffffffffffff\n      and\n      0xffffffffffffffffffffffffffffffffffffffff\n      and\n      dup2\n      mstore\n      0x20\n      add\n      swap1\n      dup2\n      mstore\n      0x20\n      add\n      0x00\n      keccak256\n        /* \"tronbox/contracts/SmartGenie.sol\":6690:6713  users[_user].referrerID */\n      0x02\n      add\n      sload\n        /* \"tronbox/contracts/SmartGenie.sol\":6681:6714  userList[users[_user].referrerID] */\n      dup2\n      mstore\n      0x20\n      add\n      swap1\n      dup2\n      mstore\n      0x20\n      add\n      0x00\n      keccak256\n      0x00\n      swap1\n      sload\n      swap1\n      0x0100\n      exp\n      swap1\n      div\n      0xffffffffffffffffffffffffffffffffffffffff\n      and\n        /* \"tronbox/contracts/SmartGenie.sol\":6673:6714  payer = userList[users[_user].referrerID] */\n      swap6\n      pop\n        /* \"tronbox/contracts/SmartGenie.sol\":6329:6725  if (length >= 4 && length % 4 == 0) { ... */\n    tag_338:\n        /* \"tronbox/contracts/SmartGenie.sol\":6207:6725  if (length >= 20 && length % 20 == 0) { ... */\n    tag_332:\n        /* \"tronbox/contracts/SmartGenie.sol\":5989:6725  if (length == 2) {... */\n    tag_327:\n        /* \"tronbox/contracts/SmartGenie.sol\":6794:6803  isPayNeed */\n      dup3\n        /* \"tronbox/contracts/SmartGenie.sol\":6794:6828  isPayNeed || !users[payer].isExist */\n      dup1\n      tag_339\n      jumpi\n      pop\n        /* \"tronbox/contracts/SmartGenie.sol\":6808:6813  users */\n      0x04\n        /* \"tronbox/contracts/SmartGenie.sol\":6808:6820  users[payer] */\n      0x00\n        /* \"tronbox/contracts/SmartGenie.sol\":6814:6819  payer */\n      dup8\n        /* \"tronbox/contracts/SmartGenie.sol\":6808:6820  users[payer] */\n      0xffffffffffffffffffffffffffffffffffffffff\n      and\n      0xffffffffffffffffffffffffffffffffffffffff\n      and\n      dup2\n      mstore\n      0x20\n      add\n      swap1\n      dup2\n      mstore\n      0x20\n      add\n      0x00\n      keccak256\n        /* \"tronbox/contracts/SmartGenie.sol\":6808:6828  users[payer].isExist */\n      0x00\n      add\n      0x00\n      swap1\n      sload\n      swap1\n      0x0100\n      exp\n      swap1\n      div\n      0xff\n      and\n        /* \"tronbox/contracts/SmartGenie.sol\":6807:6828  !users[payer].isExist */\n      iszero\n        /* \"tronbox/contracts/SmartGenie.sol\":6794:6828  isPayNeed || !users[payer].isExist */\n    tag_339:\n        /* \"tronbox/contracts/SmartGenie.sol\":6794:6852  isPayNeed || !users[payer].isExist || payer == userList[1] */\n      dup1\n      tag_340\n      jumpi\n      pop\n        /* \"tronbox/contracts/SmartGenie.sol\":6841:6849  userList */\n      0x05\n        /* \"tronbox/contracts/SmartGenie.sol\":6841:6852  userList[1] */\n      0x00\n        /* \"tronbox/contracts/SmartGenie.sol\":6850:6851  1 */\n      0x01\n        /* \"tronbox/contracts/SmartGenie.sol\":6841:6852  userList[1] */\n      dup2\n      mstore\n      0x20\n      add\n      swap1\n      dup2\n      mstore\n      0x20\n      add\n      0x00\n      keccak256\n      0x00\n      swap1\n      sload\n      swap1\n      0x0100\n      exp\n      swap1\n      div\n      0xffffffffffffffffffffffffffffffffffffffff\n      and\n        /* \"tronbox/contracts/SmartGenie.sol\":6832:6852  payer == userList[1] */\n      0xffffffffffffffffffffffffffffffffffffffff\n      and\n        /* \"tronbox/contracts/SmartGenie.sol\":6832:6837  payer */\n      dup7\n        /* \"tronbox/contracts/SmartGenie.sol\":6832:6852  payer == userList[1] */\n      0xffffffffffffffffffffffffffffffffffffffff\n      and\n      eq\n        /* \"tronbox/contracts/SmartGenie.sol\":6794:6852  isPayNeed || !users[payer].isExist || payer == userList[1] */\n    tag_340:\n        /* \"tronbox/contracts/SmartGenie.sol\":6790:8256  if (isPayNeed || !users[payer].isExist || payer == userList[1]) {... */\n      iszero\n      tag_341\n      jumpi\n        /* \"tronbox/contracts/SmartGenie.sol\":6885:6949  checkLoopRequired(payer, payLevel, length, isRenewal, isSameLeg) */\n      tag_342\n        /* \"tronbox/contracts/SmartGenie.sol\":6903:6908  payer */\n      dup7\n        /* \"tronbox/contracts/SmartGenie.sol\":6910:6918  payLevel */\n      dup3\n        /* \"tronbox/contracts/SmartGenie.sol\":6920:6926  length */\n      dup11\n        /* \"tronbox/contracts/SmartGenie.sol\":6928:6937  isRenewal */\n      dup9\n        /* \"tronbox/contracts/SmartGenie.sol\":6939:6948  isSameLeg */\n      dup9\n        /* \"tronbox/contracts/SmartGenie.sol\":6885:6902  checkLoopRequired */\n      tag_343\n        /* \"tronbox/contracts/SmartGenie.sol\":6885:6949  checkLoopRequired(payer, payLevel, length, isRenewal, isSameLeg) */\n      jump\t// in\n    tag_342:\n        /* \"tronbox/contracts/SmartGenie.sol\":6868:6949  (loop, length) = checkLoopRequired(payer, payLevel, length, isRenewal, isSameLeg) */\n      dup1\n      swap10\n      pop\n      dup2\n      swap9\n      pop\n      pop\n      pop\n        /* \"tronbox/contracts/SmartGenie.sol\":6967:6971  loop */\n      dup7\n        /* \"tronbox/contracts/SmartGenie.sol\":6964:8246  if(loop) {  ... */\n      iszero\n      tag_344\n      jumpi\n        /* \"tronbox/contracts/SmartGenie.sol\":7076:7085  isPayNeed */\n      dup3\n        /* \"tronbox/contracts/SmartGenie.sol\":7076:7099  isPayNeed && !isSameLeg */\n      dup1\n      iszero\n      tag_345\n      jumpi\n      pop\n        /* \"tronbox/contracts/SmartGenie.sol\":7090:7099  isSameLeg */\n      dup4\n        /* \"tronbox/contracts/SmartGenie.sol\":7089:7099  !isSameLeg */\n      iszero\n        /* \"tronbox/contracts/SmartGenie.sol\":7076:7099  isPayNeed && !isSameLeg */\n    tag_345:\n        /* \"tronbox/contracts/SmartGenie.sol\":7076:7112  isPayNeed && !isSameLeg && length==2 */\n      dup1\n      iszero\n      tag_346\n      jumpi\n      pop\n        /* \"tronbox/contracts/SmartGenie.sol\":7111:7112  2 */\n      0x02\n        /* \"tronbox/contracts/SmartGenie.sol\":7103:7109  length */\n      dup9\n        /* \"tronbox/contracts/SmartGenie.sol\":7103:7112  length==2 */\n      eq\n        /* \"tronbox/contracts/SmartGenie.sol\":7076:7112  isPayNeed && !isSameLeg && length==2 */\n    tag_346:\n        /* \"tronbox/contracts/SmartGenie.sol\":7073:7175  if(isPayNeed && !isSameLeg && length==2) {... */\n      iszero\n      tag_347\n      jumpi\n        /* \"tronbox/contracts/SmartGenie.sol\":7148:7156  payLevel */\n      dup1\n        /* \"tronbox/contracts/SmartGenie.sol\":7136:7156  _reglevel = payLevel */\n      swap10\n      pop\n        /* \"tronbox/contracts/SmartGenie.sol\":7073:7175  if(isPayNeed && !isSameLeg && length==2) {... */\n    tag_347:\n        /* \"tronbox/contracts/SmartGenie.sol\":7252:7261  isPayNeed */\n      dup3\n        /* \"tronbox/contracts/SmartGenie.sol\":7252:7275  isPayNeed && !isSameLeg */\n      dup1\n      iszero\n      tag_348\n      jumpi\n      pop\n        /* \"tronbox/contracts/SmartGenie.sol\":7266:7275  isSameLeg */\n      dup4\n        /* \"tronbox/contracts/SmartGenie.sol\":7265:7275  !isSameLeg */\n      iszero\n        /* \"tronbox/contracts/SmartGenie.sol\":7252:7275  isPayNeed && !isSameLeg */\n    tag_348:\n        /* \"tronbox/contracts/SmartGenie.sol\":7252:7290  isPayNeed && !isSameLeg && length == 4 */\n      dup1\n      iszero\n      tag_349\n      jumpi\n      pop\n        /* \"tronbox/contracts/SmartGenie.sol\":7289:7290  4 */\n      0x04\n        /* \"tronbox/contracts/SmartGenie.sol\":7279:7285  length */\n      dup9\n        /* \"tronbox/contracts/SmartGenie.sol\":7279:7290  length == 4 */\n      eq\n        /* \"tronbox/contracts/SmartGenie.sol\":7252:7290  isPayNeed && !isSameLeg && length == 4 */\n    tag_349:\n        /* \"tronbox/contracts/SmartGenie.sol\":7252:7305  isPayNeed && !isSameLeg && length == 4 && payLevel>=1 */\n      dup1\n      iszero\n      tag_350\n      jumpi\n      pop\n        /* \"tronbox/contracts/SmartGenie.sol\":7304:7305  1 */\n      0x01\n        /* \"tronbox/contracts/SmartGenie.sol\":7294:7302  payLevel */\n      dup2\n        /* \"tronbox/contracts/SmartGenie.sol\":7294:7305  payLevel>=1 */\n      lt\n      iszero\n        /* \"tronbox/contracts/SmartGenie.sol\":7252:7305  isPayNeed && !isSameLeg && length == 4 && payLevel>=1 */\n    tag_350:\n        /* \"tronbox/contracts/SmartGenie.sol\":7249:7368  if(isPayNeed && !isSameLeg && length == 4 && payLevel>=1) {... */\n      iszero\n      tag_351\n      jumpi\n        /* \"tronbox/contracts/SmartGenie.sol\":7341:7349  payLevel */\n      dup1\n        /* \"tronbox/contracts/SmartGenie.sol\":7329:7349  _reglevel = payLevel */\n      swap10\n      pop\n        /* \"tronbox/contracts/SmartGenie.sol\":7249:7368  if(isPayNeed && !isSameLeg && length == 4 && payLevel>=1) {... */\n    tag_351:\n        /* \"tronbox/contracts/SmartGenie.sol\":7400:7439  payment(_reglevel, payer, length, true) */\n      tag_352\n        /* \"tronbox/contracts/SmartGenie.sol\":7408:7417  _reglevel */\n      dup11\n        /* \"tronbox/contracts/SmartGenie.sol\":7419:7424  payer */\n      dup8\n        /* \"tronbox/contracts/SmartGenie.sol\":7426:7432  length */\n      dup11\n        /* \"tronbox/contracts/SmartGenie.sol\":7434:7438  true */\n      0x01\n        /* \"tronbox/contracts/SmartGenie.sol\":7400:7407  payment */\n      tag_292\n        /* \"tronbox/contracts/SmartGenie.sol\":7400:7439  payment(_reglevel, payer, length, true) */\n      jump\t// in\n    tag_352:\n        /* \"tronbox/contracts/SmartGenie.sol\":6964:8246  if(loop) {  ... */\n      jump(tag_353)\n    tag_344:\n        /* \"tronbox/contracts/SmartGenie.sol\":7518:7523  users */\n      0x04\n        /* \"tronbox/contracts/SmartGenie.sol\":7518:7530  users[payer] */\n      0x00\n        /* \"tronbox/contracts/SmartGenie.sol\":7524:7529  payer */\n      dup8\n        /* \"tronbox/contracts/SmartGenie.sol\":7518:7530  users[payer] */\n      0xffffffffffffffffffffffffffffffffffffffff\n      and\n      0xffffffffffffffffffffffffffffffffffffffff\n      and\n      dup2\n      mstore\n      0x20\n      add\n      swap1\n      dup2\n      mstore\n      0x20\n      add\n      0x00\n      keccak256\n        /* \"tronbox/contracts/SmartGenie.sol\":7518:7538  users[payer].isExist */\n      0x00\n      add\n      0x00\n      swap1\n      sload\n      swap1\n      0x0100\n      exp\n      swap1\n      div\n      0xff\n      and\n        /* \"tronbox/contracts/SmartGenie.sol\":7514:7559  if(!users[payer].isExist) payer = userList[1] */\n      tag_354\n      jumpi\n        /* \"tronbox/contracts/SmartGenie.sol\":7548:7556  userList */\n      0x05\n        /* \"tronbox/contracts/SmartGenie.sol\":7548:7559  userList[1] */\n      0x00\n        /* \"tronbox/contracts/SmartGenie.sol\":7557:7558  1 */\n      0x01\n        /* \"tronbox/contracts/SmartGenie.sol\":7548:7559  userList[1] */\n      dup2\n      mstore\n      0x20\n      add\n      swap1\n      dup2\n      mstore\n      0x20\n      add\n      0x00\n      keccak256\n      0x00\n      swap1\n      sload\n      swap1\n      0x0100\n      exp\n      swap1\n      div\n      0xffffffffffffffffffffffffffffffffffffffff\n      and\n        /* \"tronbox/contracts/SmartGenie.sol\":7540:7559  payer = userList[1] */\n      swap6\n      pop\n        /* \"tronbox/contracts/SmartGenie.sol\":7514:7559  if(!users[payer].isExist) payer = userList[1] */\n    tag_354:\n        /* \"tronbox/contracts/SmartGenie.sol\":7665:7666  1 */\n      0x01\n        /* \"tronbox/contracts/SmartGenie.sol\":7630:7635  users */\n      0x04\n        /* \"tronbox/contracts/SmartGenie.sol\":7630:7642  users[payer] */\n      0x00\n        /* \"tronbox/contracts/SmartGenie.sol\":7636:7641  payer */\n      dup9\n        /* \"tronbox/contracts/SmartGenie.sol\":7630:7642  users[payer] */\n      0xffffffffffffffffffffffffffffffffffffffff\n      and\n      0xffffffffffffffffffffffffffffffffffffffff\n      and\n      dup2\n      mstore\n      0x20\n      add\n      swap1\n      dup2\n      mstore\n      0x20\n      add\n      0x00\n      keccak256\n        /* \"tronbox/contracts/SmartGenie.sol\":7630:7654  users[payer].incomeCount */\n      0x05\n      add\n        /* \"tronbox/contracts/SmartGenie.sol\":7630:7664  users[payer].incomeCount[payLevel] */\n      0x00\n        /* \"tronbox/contracts/SmartGenie.sol\":7655:7663  payLevel */\n      dup4\n        /* \"tronbox/contracts/SmartGenie.sol\":7630:7664  users[payer].incomeCount[payLevel] */\n      dup2\n      mstore\n      0x20\n      add\n      swap1\n      dup2\n      mstore\n      0x20\n      add\n      0x00\n      keccak256\n      sload\n        /* \"tronbox/contracts/SmartGenie.sol\":7630:7666  users[payer].incomeCount[payLevel]+1 */\n      tag_355\n      swap2\n      swap1\n      tag_251\n      jump\t// in\n    tag_355:\n        /* \"tronbox/contracts/SmartGenie.sol\":7594:7599  users */\n      0x04\n        /* \"tronbox/contracts/SmartGenie.sol\":7594:7606  users[payer] */\n      0x00\n        /* \"tronbox/contracts/SmartGenie.sol\":7600:7605  payer */\n      dup9\n        /* \"tronbox/contracts/SmartGenie.sol\":7594:7606  users[payer] */\n      0xffffffffffffffffffffffffffffffffffffffff\n      and\n      0xffffffffffffffffffffffffffffffffffffffff\n      and\n      dup2\n      mstore\n      0x20\n      add\n      swap1\n      dup2\n      mstore\n      0x20\n      add\n      0x00\n      keccak256\n        /* \"tronbox/contracts/SmartGenie.sol\":7594:7618  users[payer].incomeCount */\n      0x05\n      add\n        /* \"tronbox/contracts/SmartGenie.sol\":7594:7628  users[payer].incomeCount[payLevel] */\n      0x00\n        /* \"tronbox/contracts/SmartGenie.sol\":7619:7627  payLevel */\n      dup4\n        /* \"tronbox/contracts/SmartGenie.sol\":7594:7628  users[payer].incomeCount[payLevel] */\n      dup2\n      mstore\n      0x20\n      add\n      swap1\n      dup2\n      mstore\n      0x20\n      add\n      0x00\n      keccak256\n        /* \"tronbox/contracts/SmartGenie.sol\":7594:7666  users[payer].incomeCount[payLevel]= users[payer].incomeCount[payLevel]+1 */\n      dup2\n      swap1\n      sstore\n      pop\n        /* \"tronbox/contracts/SmartGenie.sol\":7805:7817  bool success */\n      0x00\n        /* \"tronbox/contracts/SmartGenie.sol\":7839:7844  payer */\n      dup7\n        /* \"tronbox/contracts/SmartGenie.sol\":7822:7852  (address(uint160(payer))).call */\n      0xffffffffffffffffffffffffffffffffffffffff\n      and\n        /* \"tronbox/contracts/SmartGenie.sol\":7860:7871  LEVEL_PRICE */\n      0x03\n        /* \"tronbox/contracts/SmartGenie.sol\":7860:7881  LEVEL_PRICE[payLevel] */\n      0x00\n        /* \"tronbox/contracts/SmartGenie.sol\":7872:7880  payLevel */\n      dup5\n        /* \"tronbox/contracts/SmartGenie.sol\":7860:7881  LEVEL_PRICE[payLevel] */\n      dup2\n      mstore\n      0x20\n      add\n      swap1\n      dup2\n      mstore\n      0x20\n      add\n      0x00\n      keccak256\n      sload\n        /* \"tronbox/contracts/SmartGenie.sol\":7822:7886  (address(uint160(payer))).call{value: LEVEL_PRICE[payLevel]}(\"\") */\n      mload(0x40)\n      tag_356\n      swap1\n      tag_209\n      jump\t// in\n    tag_356:\n      0x00\n      mload(0x40)\n      dup1\n      dup4\n      sub\n      dup2\n      dup6\n      dup8\n      gas\n      call\n      swap3\n      pop\n      pop\n      pop\n      returndatasize\n      dup1\n      0x00\n      dup2\n      eq\n      tag_359\n      jumpi\n      mload(0x40)\n      swap2\n      pop\n      and(add(returndatasize, 0x3f), not(0x1f))\n      dup3\n      add\n      0x40\n      mstore\n      returndatasize\n      dup3\n      mstore\n      returndatasize\n      0x00\n      0x20\n      dup5\n      add\n      returndatacopy\n      jump(tag_358)\n    tag_359:\n      0x60\n      swap2\n      pop\n    tag_358:\n      pop\n        /* \"tronbox/contracts/SmartGenie.sol\":7804:7886  (bool success,) = (address(uint160(payer))).call{value: LEVEL_PRICE[payLevel]}(\"\") */\n      pop\n      swap1\n      pop\n        /* \"tronbox/contracts/SmartGenie.sol\":7912:7919  success */\n      dup1\n        /* \"tronbox/contracts/SmartGenie.sol\":7904:7943  require(success, 'Transaction failed!') */\n      tag_360\n      jumpi\n      mload(0x40)\n      0x08c379a000000000000000000000000000000000000000000000000000000000\n      dup2\n      mstore\n      0x04\n      add\n      tag_361\n      swap1\n      tag_215\n      jump\t// in\n    tag_361:\n      mload(0x40)\n      dup1\n      swap2\n      sub\n      swap1\n      revert\n    tag_360:\n        /* \"tronbox/contracts/SmartGenie.sol\":7966:7973  success */\n      dup1\n        /* \"tronbox/contracts/SmartGenie.sol\":7962:8088  if (success) {... */\n      iszero\n      tag_362\n      jumpi\n        /* \"tronbox/contracts/SmartGenie.sol\":8031:8041  msg.sender */\n      caller\n        /* \"tronbox/contracts/SmartGenie.sol\":8002:8069  getMoneyForLevelEvent(payer, msg.sender, payLevel, block.timestamp) */\n      0xffffffffffffffffffffffffffffffffffffffff\n      and\n        /* \"tronbox/contracts/SmartGenie.sol\":8024:8029  payer */\n      dup8\n        /* \"tronbox/contracts/SmartGenie.sol\":8002:8069  getMoneyForLevelEvent(payer, msg.sender, payLevel, block.timestamp) */\n      0xffffffffffffffffffffffffffffffffffffffff\n      and\n      0xce7dc747411ac40191c5335943fcc79d8c2d8c01ca5ae83d9fed160409fa6120\n        /* \"tronbox/contracts/SmartGenie.sol\":8043:8051  payLevel */\n      dup5\n        /* \"tronbox/contracts/SmartGenie.sol\":8053:8068  block.timestamp */\n      timestamp\n        /* \"tronbox/contracts/SmartGenie.sol\":8002:8069  getMoneyForLevelEvent(payer, msg.sender, payLevel, block.timestamp) */\n      mload(0x40)\n      tag_363\n      swap3\n      swap2\n      swap1\n      tag_364\n      jump\t// in\n    tag_363:\n      mload(0x40)\n      dup1\n      swap2\n      sub\n      swap1\n      log3\n        /* \"tronbox/contracts/SmartGenie.sol\":7962:8088  if (success) {... */\n    tag_362:\n        /* \"tronbox/contracts/SmartGenie.sol\":8109:8116  success */\n      dup1\n        /* \"tronbox/contracts/SmartGenie.sol\":8105:8232  if(!success) {... */\n      tag_365\n      jumpi\n        /* \"tronbox/contracts/SmartGenie.sol\":8175:8185  msg.sender */\n      caller\n        /* \"tronbox/contracts/SmartGenie.sol\":8145:8213  lostMoneyForLevelEvent(payer, msg.sender, payLevel, block.timestamp) */\n      0xffffffffffffffffffffffffffffffffffffffff\n      and\n        /* \"tronbox/contracts/SmartGenie.sol\":8168:8173  payer */\n      dup8\n        /* \"tronbox/contracts/SmartGenie.sol\":8145:8213  lostMoneyForLevelEvent(payer, msg.sender, payLevel, block.timestamp) */\n      0xffffffffffffffffffffffffffffffffffffffff\n      and\n      0x7df0f6bac5c770af7783500bb7f1c0d073adb11316004ba6f9f6c704af1a1aea\n        /* \"tronbox/contracts/SmartGenie.sol\":8187:8195  payLevel */\n      dup5\n        /* \"tronbox/contracts/SmartGenie.sol\":8197:8212  block.timestamp */\n      timestamp\n        /* \"tronbox/contracts/SmartGenie.sol\":8145:8213  lostMoneyForLevelEvent(payer, msg.sender, payLevel, block.timestamp) */\n      mload(0x40)\n      tag_366\n      swap3\n      swap2\n      swap1\n      tag_364\n      jump\t// in\n    tag_366:\n      mload(0x40)\n      dup1\n      swap2\n      sub\n      swap1\n      log3\n        /* \"tronbox/contracts/SmartGenie.sol\":8105:8232  if(!success) {... */\n    tag_365:\n        /* \"tronbox/contracts/SmartGenie.sol\":7461:8246  {... */\n      pop\n        /* \"tronbox/contracts/SmartGenie.sol\":6964:8246  if(loop) {  ... */\n    tag_353:\n        /* \"tronbox/contracts/SmartGenie.sol\":6790:8256  if (isPayNeed || !users[payer].isExist || payer == userList[1]) {... */\n    tag_341:\n        /* \"tronbox/contracts/SmartGenie.sol\":5750:8262  { //4... */\n      pop\n      pop\n      pop\n      pop\n      pop\n      pop\n        /* \"tronbox/contracts/SmartGenie.sol\":5666:8262  function payment(uint _reglevel, address _user, uint256 length, bool loop) internal { //4... */\n      pop\n      pop\n      pop\n      pop\n      jump\t// out\n        /* \"tronbox/contracts/SmartGenie.sol\":8971:11063  function levelUpgrade(uint256 _regLevel, address _user, uint256 _levelEligibility, bool isSameLeg, bool isPayNeed ) ... */\n    tag_325:\n        /* \"tronbox/contracts/SmartGenie.sol\":9119:9126  address */\n      0x00\n        /* \"tronbox/contracts/SmartGenie.sol\":9128:9132  bool */\n      dup1\n        /* \"tronbox/contracts/SmartGenie.sol\":9134:9138  bool */\n      0x00\n        /* \"tronbox/contracts/SmartGenie.sol\":9154:9169  uint256 upLevel */\n      dup1\n        /* \"tronbox/contracts/SmartGenie.sol\":9182:9183  1 */\n      0x01\n        /* \"tronbox/contracts/SmartGenie.sol\":9172:9181  _regLevel */\n      dup10\n        /* \"tronbox/contracts/SmartGenie.sol\":9172:9183  _regLevel+1 */\n      tag_368\n      swap2\n      swap1\n      tag_251\n      jump\t// in\n    tag_368:\n        /* \"tronbox/contracts/SmartGenie.sol\":9154:9183  uint256 upLevel = _regLevel+1 */\n      swap1\n      pop\n        /* \"tronbox/contracts/SmartGenie.sol\":9197:9210  address payer */\n      0x00\n        /* \"tronbox/contracts/SmartGenie.sol\":9212:9228  address referrer */\n      dup1\n        /* \"tronbox/contracts/SmartGenie.sol\":9289:9290  2 */\n      0x02\n        /* \"tronbox/contracts/SmartGenie.sol\":9278:9285  upLevel */\n      dup4\n        /* \"tronbox/contracts/SmartGenie.sol\":9278:9290  upLevel <= 2 */\n      gt\n        /* \"tronbox/contracts/SmartGenie.sol\":9275:9394  if(upLevel <= 2) {... */\n      tag_369\n      jumpi\n        /* \"tronbox/contracts/SmartGenie.sol\":9318:9326  userList */\n      0x05\n        /* \"tronbox/contracts/SmartGenie.sol\":9318:9351  userList[users[_user].referrerID] */\n      0x00\n        /* \"tronbox/contracts/SmartGenie.sol\":9327:9332  users */\n      0x04\n        /* \"tronbox/contracts/SmartGenie.sol\":9327:9339  users[_user] */\n      0x00\n        /* \"tronbox/contracts/SmartGenie.sol\":9333:9338  _user */\n      dup14\n        /* \"tronbox/contracts/SmartGenie.sol\":9327:9339  users[_user] */\n      0xffffffffffffffffffffffffffffffffffffffff\n      and\n      0xffffffffffffffffffffffffffffffffffffffff\n      and\n      dup2\n      mstore\n      0x20\n      add\n      swap1\n      dup2\n      mstore\n      0x20\n      add\n      0x00\n      keccak256\n        /* \"tronbox/contracts/SmartGenie.sol\":9327:9350  users[_user].referrerID */\n      0x02\n      add\n      sload\n        /* \"tronbox/contracts/SmartGenie.sol\":9318:9351  userList[users[_user].referrerID] */\n      dup2\n      mstore\n      0x20\n      add\n      swap1\n      dup2\n      mstore\n      0x20\n      add\n      0x00\n      keccak256\n      0x00\n      swap1\n      sload\n      swap1\n      0x0100\n      exp\n      swap1\n      div\n      0xffffffffffffffffffffffffffffffffffffffff\n      and\n        /* \"tronbox/contracts/SmartGenie.sol\":9307:9351  referrer = userList[users[_user].referrerID] */\n      swap1\n      pop\n        /* \"tronbox/contracts/SmartGenie.sol\":9275:9394  if(upLevel <= 2) {... */\n      jump(tag_370)\n    tag_369:\n        /* \"tronbox/contracts/SmartGenie.sol\":9387:9392  _user */\n      dup10\n        /* \"tronbox/contracts/SmartGenie.sol\":9376:9392  referrer = _user */\n      swap1\n      pop\n        /* \"tronbox/contracts/SmartGenie.sol\":9275:9394  if(upLevel <= 2) {... */\n    tag_370:\n        /* \"tronbox/contracts/SmartGenie.sol\":9427:9484  findEligiblePayer(referrer, _regLevel, _levelEligibility) */\n      tag_371\n        /* \"tronbox/contracts/SmartGenie.sol\":9445:9453  referrer */\n      dup2\n        /* \"tronbox/contracts/SmartGenie.sol\":9455:9464  _regLevel */\n      dup13\n        /* \"tronbox/contracts/SmartGenie.sol\":9466:9483  _levelEligibility */\n      dup12\n        /* \"tronbox/contracts/SmartGenie.sol\":9427:9444  findEligiblePayer */\n      tag_372\n        /* \"tronbox/contracts/SmartGenie.sol\":9427:9484  findEligiblePayer(referrer, _regLevel, _levelEligibility) */\n      jump\t// in\n    tag_371:\n        /* \"tronbox/contracts/SmartGenie.sol\":9407:9484  (payer, referrer) = findEligiblePayer(referrer, _regLevel, _levelEligibility) */\n      dup1\n      swap3\n      pop\n      dup2\n      swap4\n      pop\n      pop\n      pop\n        /* \"tronbox/contracts/SmartGenie.sol\":9527:9532  users */\n      0x04\n        /* \"tronbox/contracts/SmartGenie.sol\":9527:9539  users[payer] */\n      0x00\n        /* \"tronbox/contracts/SmartGenie.sol\":9533:9538  payer */\n      dup4\n        /* \"tronbox/contracts/SmartGenie.sol\":9527:9539  users[payer] */\n      0xffffffffffffffffffffffffffffffffffffffff\n      and\n      0xffffffffffffffffffffffffffffffffffffffff\n      and\n      dup2\n      mstore\n      0x20\n      add\n      swap1\n      dup2\n      mstore\n      0x20\n      add\n      0x00\n      keccak256\n        /* \"tronbox/contracts/SmartGenie.sol\":9527:9547  users[payer].isExist */\n      0x00\n      add\n      0x00\n      swap1\n      sload\n      swap1\n      0x0100\n      exp\n      swap1\n      div\n      0xff\n      and\n        /* \"tronbox/contracts/SmartGenie.sol\":9526:9547  !users[payer].isExist */\n      iszero\n        /* \"tronbox/contracts/SmartGenie.sol\":9526:9696  !users[payer].isExist || ... */\n      dup1\n      tag_373\n      jumpi\n      pop\n        /* \"tronbox/contracts/SmartGenie.sol\":9617:9618  0 */\n      0x00\n        /* \"tronbox/contracts/SmartGenie.sol\":9569:9619  levelUpgradePayments[upLevel][payer] == address(0) */\n      0xffffffffffffffffffffffffffffffffffffffff\n      and\n        /* \"tronbox/contracts/SmartGenie.sol\":9569:9589  levelUpgradePayments */\n      0x07\n        /* \"tronbox/contracts/SmartGenie.sol\":9569:9598  levelUpgradePayments[upLevel] */\n      0x00\n        /* \"tronbox/contracts/SmartGenie.sol\":9590:9597  upLevel */\n      dup6\n        /* \"tronbox/contracts/SmartGenie.sol\":9569:9598  levelUpgradePayments[upLevel] */\n      dup2\n      mstore\n      0x20\n      add\n      swap1\n      dup2\n      mstore\n      0x20\n      add\n      0x00\n      keccak256\n        /* \"tronbox/contracts/SmartGenie.sol\":9569:9605  levelUpgradePayments[upLevel][payer] */\n      0x00\n        /* \"tronbox/contracts/SmartGenie.sol\":9599:9604  payer */\n      dup5\n        /* \"tronbox/contracts/SmartGenie.sol\":9569:9605  levelUpgradePayments[upLevel][payer] */\n      0xffffffffffffffffffffffffffffffffffffffff\n      and\n      0xffffffffffffffffffffffffffffffffffffffff\n      and\n      dup2\n      mstore\n      0x20\n      add\n      swap1\n      dup2\n      mstore\n      0x20\n      add\n      0x00\n      keccak256\n      0x00\n      swap1\n      sload\n      swap1\n      0x0100\n      exp\n      swap1\n      div\n      0xffffffffffffffffffffffffffffffffffffffff\n      and\n        /* \"tronbox/contracts/SmartGenie.sol\":9569:9619  levelUpgradePayments[upLevel][payer] == address(0) */\n      0xffffffffffffffffffffffffffffffffffffffff\n      and\n      eq\n        /* \"tronbox/contracts/SmartGenie.sol\":9569:9695  levelUpgradePayments[upLevel][payer] == address(0) && ... */\n      dup1\n      iszero\n      tag_374\n      jumpi\n      pop\n        /* \"tronbox/contracts/SmartGenie.sol\":9690:9695  false */\n      0x00\n        /* \"tronbox/contracts/SmartGenie.sol\":9644:9695  isLevelUpgradedForAddress[upLevel][payer] ==  false */\n      iszero\n      iszero\n        /* \"tronbox/contracts/SmartGenie.sol\":9644:9669  isLevelUpgradedForAddress */\n      0x08\n        /* \"tronbox/contracts/SmartGenie.sol\":9644:9678  isLevelUpgradedForAddress[upLevel] */\n      0x00\n        /* \"tronbox/contracts/SmartGenie.sol\":9670:9677  upLevel */\n      dup6\n        /* \"tronbox/contracts/SmartGenie.sol\":9644:9678  isLevelUpgradedForAddress[upLevel] */\n      dup2\n      mstore\n      0x20\n      add\n      swap1\n      dup2\n      mstore\n      0x20\n      add\n      0x00\n      keccak256\n        /* \"tronbox/contracts/SmartGenie.sol\":9644:9685  isLevelUpgradedForAddress[upLevel][payer] */\n      0x00\n        /* \"tronbox/contracts/SmartGenie.sol\":9679:9684  payer */\n      dup5\n        /* \"tronbox/contracts/SmartGenie.sol\":9644:9685  isLevelUpgradedForAddress[upLevel][payer] */\n      0xffffffffffffffffffffffffffffffffffffffff\n      and\n      0xffffffffffffffffffffffffffffffffffffffff\n      and\n      dup2\n      mstore\n      0x20\n      add\n      swap1\n      dup2\n      mstore\n      0x20\n      add\n      0x00\n      keccak256\n      0x00\n      swap1\n      sload\n      swap1\n      0x0100\n      exp\n      swap1\n      div\n      0xff\n      and\n        /* \"tronbox/contracts/SmartGenie.sol\":9644:9695  isLevelUpgradedForAddress[upLevel][payer] ==  false */\n      iszero\n      iszero\n      eq\n        /* \"tronbox/contracts/SmartGenie.sol\":9569:9695  levelUpgradePayments[upLevel][payer] == address(0) && ... */\n    tag_374:\n        /* \"tronbox/contracts/SmartGenie.sol\":9526:9696  !users[payer].isExist || ... */\n    tag_373:\n        /* \"tronbox/contracts/SmartGenie.sol\":9523:10943  if(!users[payer].isExist || ... */\n      iszero\n      tag_375\n      jumpi\n        /* \"tronbox/contracts/SmartGenie.sol\":9720:9725  users */\n      0x04\n        /* \"tronbox/contracts/SmartGenie.sol\":9720:9732  users[payer] */\n      0x00\n        /* \"tronbox/contracts/SmartGenie.sol\":9726:9731  payer */\n      dup4\n        /* \"tronbox/contracts/SmartGenie.sol\":9720:9732  users[payer] */\n      0xffffffffffffffffffffffffffffffffffffffff\n      and\n      0xffffffffffffffffffffffffffffffffffffffff\n      and\n      dup2\n      mstore\n      0x20\n      add\n      swap1\n      dup2\n      mstore\n      0x20\n      add\n      0x00\n      keccak256\n        /* \"tronbox/contracts/SmartGenie.sol\":9720:9740  users[payer].isExist */\n      0x00\n      add\n      0x00\n      swap1\n      sload\n      swap1\n      0x0100\n      exp\n      swap1\n      div\n      0xff\n      and\n        /* \"tronbox/contracts/SmartGenie.sol\":9716:9761  if(!users[payer].isExist) payer = userList[1] */\n      tag_376\n      jumpi\n        /* \"tronbox/contracts/SmartGenie.sol\":9750:9758  userList */\n      0x05\n        /* \"tronbox/contracts/SmartGenie.sol\":9750:9761  userList[1] */\n      0x00\n        /* \"tronbox/contracts/SmartGenie.sol\":9759:9760  1 */\n      0x01\n        /* \"tronbox/contracts/SmartGenie.sol\":9750:9761  userList[1] */\n      dup2\n      mstore\n      0x20\n      add\n      swap1\n      dup2\n      mstore\n      0x20\n      add\n      0x00\n      keccak256\n      0x00\n      swap1\n      sload\n      swap1\n      0x0100\n      exp\n      swap1\n      div\n      0xffffffffffffffffffffffffffffffffffffffff\n      and\n        /* \"tronbox/contracts/SmartGenie.sol\":9742:9761  payer = userList[1] */\n      swap2\n      pop\n        /* \"tronbox/contracts/SmartGenie.sol\":9716:9761  if(!users[payer].isExist) payer = userList[1] */\n    tag_376:\n        /* \"tronbox/contracts/SmartGenie.sol\":9924:9932  userList */\n      0x05\n        /* \"tronbox/contracts/SmartGenie.sol\":9924:9935  userList[1] */\n      0x00\n        /* \"tronbox/contracts/SmartGenie.sol\":9933:9934  1 */\n      0x01\n        /* \"tronbox/contracts/SmartGenie.sol\":9924:9935  userList[1] */\n      dup2\n      mstore\n      0x20\n      add\n      swap1\n      dup2\n      mstore\n      0x20\n      add\n      0x00\n      keccak256\n      0x00\n      swap1\n      sload\n      swap1\n      0x0100\n      exp\n      swap1\n      div\n      0xffffffffffffffffffffffffffffffffffffffff\n      and\n        /* \"tronbox/contracts/SmartGenie.sol\":9915:9935  payer != userList[1] */\n      0xffffffffffffffffffffffffffffffffffffffff\n      and\n        /* \"tronbox/contracts/SmartGenie.sol\":9915:9920  payer */\n      dup3\n        /* \"tronbox/contracts/SmartGenie.sol\":9915:9935  payer != userList[1] */\n      0xffffffffffffffffffffffffffffffffffffffff\n      and\n      eq\n        /* \"tronbox/contracts/SmartGenie.sol\":9912:10088  if(payer != userList[1]) {... */\n      tag_377\n      jumpi\n        /* \"tronbox/contracts/SmartGenie.sol\":10029:10030  1 */\n      0x01\n        /* \"tronbox/contracts/SmartGenie.sol\":9995:10000  users */\n      0x04\n        /* \"tronbox/contracts/SmartGenie.sol\":9995:10007  users[payer] */\n      0x00\n        /* \"tronbox/contracts/SmartGenie.sol\":10001:10006  payer */\n      dup5\n        /* \"tronbox/contracts/SmartGenie.sol\":9995:10007  users[payer] */\n      0xffffffffffffffffffffffffffffffffffffffff\n      and\n      0xffffffffffffffffffffffffffffffffffffffff\n      and\n      dup2\n      mstore\n      0x20\n      add\n      swap1\n      dup2\n      mstore\n      0x20\n      add\n      0x00\n      keccak256\n        /* \"tronbox/contracts/SmartGenie.sol\":9995:10019  users[payer].incomeCount */\n      0x05\n      add\n        /* \"tronbox/contracts/SmartGenie.sol\":9995:10028  users[payer].incomeCount[upLevel] */\n      0x00\n        /* \"tronbox/contracts/SmartGenie.sol\":10020:10027  upLevel */\n      dup6\n        /* \"tronbox/contracts/SmartGenie.sol\":9995:10028  users[payer].incomeCount[upLevel] */\n      dup2\n      mstore\n      0x20\n      add\n      swap1\n      dup2\n      mstore\n      0x20\n      add\n      0x00\n      keccak256\n      sload\n        /* \"tronbox/contracts/SmartGenie.sol\":9995:10030  users[payer].incomeCount[upLevel]+1 */\n      tag_378\n      swap2\n      swap1\n      tag_251\n      jump\t// in\n    tag_378:\n        /* \"tronbox/contracts/SmartGenie.sol\":9959:9964  users */\n      0x04\n        /* \"tronbox/contracts/SmartGenie.sol\":9959:9971  users[payer] */\n      0x00\n        /* \"tronbox/contracts/SmartGenie.sol\":9965:9970  payer */\n      dup5\n        /* \"tronbox/contracts/SmartGenie.sol\":9959:9971  users[payer] */\n      0xffffffffffffffffffffffffffffffffffffffff\n      and\n      0xffffffffffffffffffffffffffffffffffffffff\n      and\n      dup2\n      mstore\n      0x20\n      add\n      swap1\n      dup2\n      mstore\n      0x20\n      add\n      0x00\n      keccak256\n        /* \"tronbox/contracts/SmartGenie.sol\":9959:9983  users[payer].incomeCount */\n      0x05\n      add\n        /* \"tronbox/contracts/SmartGenie.sol\":9959:9992  users[payer].incomeCount[upLevel] */\n      0x00\n        /* \"tronbox/contracts/SmartGenie.sol\":9984:9991  upLevel */\n      dup6\n        /* \"tronbox/contracts/SmartGenie.sol\":9959:9992  users[payer].incomeCount[upLevel] */\n      dup2\n      mstore\n      0x20\n      add\n      swap1\n      dup2\n      mstore\n      0x20\n      add\n      0x00\n      keccak256\n        /* \"tronbox/contracts/SmartGenie.sol\":9959:10030  users[payer].incomeCount[upLevel] = users[payer].incomeCount[upLevel]+1 */\n      dup2\n      swap1\n      sstore\n      pop\n        /* \"tronbox/contracts/SmartGenie.sol\":10064:10069  false */\n      0x00\n        /* \"tronbox/contracts/SmartGenie.sol\":10052:10069  isPayNeed = false */\n      swap7\n      pop\n        /* \"tronbox/contracts/SmartGenie.sol\":9912:10088  if(payer != userList[1]) {... */\n    tag_377:\n        /* \"tronbox/contracts/SmartGenie.sol\":10224:10232  referrer */\n      dup1\n        /* \"tronbox/contracts/SmartGenie.sol\":10185:10205  levelUpgradePayments */\n      0x07\n        /* \"tronbox/contracts/SmartGenie.sol\":10185:10214  levelUpgradePayments[upLevel] */\n      0x00\n        /* \"tronbox/contracts/SmartGenie.sol\":10206:10213  upLevel */\n      dup6\n        /* \"tronbox/contracts/SmartGenie.sol\":10185:10214  levelUpgradePayments[upLevel] */\n      dup2\n      mstore\n      0x20\n      add\n      swap1\n      dup2\n      mstore\n      0x20\n      add\n      0x00\n      keccak256\n        /* \"tronbox/contracts/SmartGenie.sol\":10185:10221  levelUpgradePayments[upLevel][payer] */\n      0x00\n        /* \"tronbox/contracts/SmartGenie.sol\":10215:10220  payer */\n      dup5\n        /* \"tronbox/contracts/SmartGenie.sol\":10185:10221  levelUpgradePayments[upLevel][payer] */\n      0xffffffffffffffffffffffffffffffffffffffff\n      and\n      0xffffffffffffffffffffffffffffffffffffffff\n      and\n      dup2\n      mstore\n      0x20\n      add\n      swap1\n      dup2\n      mstore\n      0x20\n      add\n      0x00\n      keccak256\n      0x00\n        /* \"tronbox/contracts/SmartGenie.sol\":10185:10232  levelUpgradePayments[upLevel][payer] = referrer */\n      0x0100\n      exp\n      dup2\n      sload\n      dup2\n      0xffffffffffffffffffffffffffffffffffffffff\n      mul\n      not\n      and\n      swap1\n      dup4\n      0xffffffffffffffffffffffffffffffffffffffff\n      and\n      mul\n      or\n      swap1\n      sstore\n      pop\n        /* \"tronbox/contracts/SmartGenie.sol\":10361:10362  1 */\n      0x01\n        /* \"tronbox/contracts/SmartGenie.sol\":10330:10342  levelCounter */\n      0x06\n        /* \"tronbox/contracts/SmartGenie.sol\":10330:10351  levelCounter[upLevel] */\n      0x00\n        /* \"tronbox/contracts/SmartGenie.sol\":10343:10350  upLevel */\n      dup6\n        /* \"tronbox/contracts/SmartGenie.sol\":10330:10351  levelCounter[upLevel] */\n      dup2\n      mstore\n      0x20\n      add\n      swap1\n      dup2\n      mstore\n      0x20\n      add\n      0x00\n      keccak256\n        /* \"tronbox/contracts/SmartGenie.sol\":10330:10358  levelCounter[upLevel][payer] */\n      0x00\n        /* \"tronbox/contracts/SmartGenie.sol\":10352:10357  payer */\n      dup5\n        /* \"tronbox/contracts/SmartGenie.sol\":10330:10358  levelCounter[upLevel][payer] */\n      0xffffffffffffffffffffffffffffffffffffffff\n      and\n      0xffffffffffffffffffffffffffffffffffffffff\n      and\n      dup2\n      mstore\n      0x20\n      add\n      swap1\n      dup2\n      mstore\n      0x20\n      add\n      0x00\n      keccak256\n        /* \"tronbox/contracts/SmartGenie.sol\":10330:10362  levelCounter[upLevel][payer] = 1 */\n      dup2\n      swap1\n      sstore\n      pop\n        /* \"tronbox/contracts/SmartGenie.sol\":9523:10943  if(!users[payer].isExist || ... */\n      jump(tag_379)\n    tag_375:\n        /* \"tronbox/contracts/SmartGenie.sol\":10401:10425  address existingReferrer */\n      0x00\n        /* \"tronbox/contracts/SmartGenie.sol\":10428:10448  levelUpgradePayments */\n      0x07\n        /* \"tronbox/contracts/SmartGenie.sol\":10428:10457  levelUpgradePayments[upLevel] */\n      0x00\n        /* \"tronbox/contracts/SmartGenie.sol\":10449:10456  upLevel */\n      dup6\n        /* \"tronbox/contracts/SmartGenie.sol\":10428:10457  levelUpgradePayments[upLevel] */\n      dup2\n      mstore\n      0x20\n      add\n      swap1\n      dup2\n      mstore\n      0x20\n      add\n      0x00\n      keccak256\n        /* \"tronbox/contracts/SmartGenie.sol\":10428:10464  levelUpgradePayments[upLevel][payer] */\n      0x00\n        /* \"tronbox/contracts/SmartGenie.sol\":10458:10463  payer */\n      dup5\n        /* \"tronbox/contracts/SmartGenie.sol\":10428:10464  levelUpgradePayments[upLevel][payer] */\n      0xffffffffffffffffffffffffffffffffffffffff\n      and\n      0xffffffffffffffffffffffffffffffffffffffff\n      and\n      dup2\n      mstore\n      0x20\n      add\n      swap1\n      dup2\n      mstore\n      0x20\n      add\n      0x00\n      keccak256\n      0x00\n      swap1\n      sload\n      swap1\n      0x0100\n      exp\n      swap1\n      div\n      0xffffffffffffffffffffffffffffffffffffffff\n      and\n        /* \"tronbox/contracts/SmartGenie.sol\":10401:10464  address existingReferrer = levelUpgradePayments[upLevel][payer] */\n      swap1\n      pop\n        /* \"tronbox/contracts/SmartGenie.sol\":10486:10546  isLevelUpgradeFromSameLeg(payer, existingReferrer, referrer) */\n      tag_380\n        /* \"tronbox/contracts/SmartGenie.sol\":10512:10517  payer */\n      dup4\n        /* \"tronbox/contracts/SmartGenie.sol\":10519:10535  existingReferrer */\n      dup3\n        /* \"tronbox/contracts/SmartGenie.sol\":10537:10545  referrer */\n      dup5\n        /* \"tronbox/contracts/SmartGenie.sol\":10486:10511  isLevelUpgradeFromSameLeg */\n      tag_381\n        /* \"tronbox/contracts/SmartGenie.sol\":10486:10546  isLevelUpgradeFromSameLeg(payer, existingReferrer, referrer) */\n      jump\t// in\n    tag_380:\n        /* \"tronbox/contracts/SmartGenie.sol\":10482:10929  if (isLevelUpgradeFromSameLeg(payer, existingReferrer, referrer)) {... */\n      iszero\n      tag_382\n      jumpi\n        /* \"tronbox/contracts/SmartGenie.sol\":10582:10586  true */\n      0x01\n        /* \"tronbox/contracts/SmartGenie.sol\":10570:10586  isSameLeg = true */\n      swap9\n      pop\n        /* \"tronbox/contracts/SmartGenie.sol\":10482:10929  if (isLevelUpgradeFromSameLeg(payer, existingReferrer, referrer)) {... */\n      jump(tag_383)\n    tag_382:\n        /* \"tronbox/contracts/SmartGenie.sol\":10753:10754  0 */\n      0x00\n        /* \"tronbox/contracts/SmartGenie.sol\":10706:10726  levelUpgradePayments */\n      0x07\n        /* \"tronbox/contracts/SmartGenie.sol\":10706:10735  levelUpgradePayments[upLevel] */\n      0x00\n        /* \"tronbox/contracts/SmartGenie.sol\":10727:10734  upLevel */\n      dup7\n        /* \"tronbox/contracts/SmartGenie.sol\":10706:10735  levelUpgradePayments[upLevel] */\n      dup2\n      mstore\n      0x20\n      add\n      swap1\n      dup2\n      mstore\n      0x20\n      add\n      0x00\n      keccak256\n        /* \"tronbox/contracts/SmartGenie.sol\":10706:10742  levelUpgradePayments[upLevel][payer] */\n      0x00\n        /* \"tronbox/contracts/SmartGenie.sol\":10736:10741  payer */\n      dup6\n        /* \"tronbox/contracts/SmartGenie.sol\":10706:10742  levelUpgradePayments[upLevel][payer] */\n      0xffffffffffffffffffffffffffffffffffffffff\n      and\n      0xffffffffffffffffffffffffffffffffffffffff\n      and\n      dup2\n      mstore\n      0x20\n      add\n      swap1\n      dup2\n      mstore\n      0x20\n      add\n      0x00\n      keccak256\n      0x00\n        /* \"tronbox/contracts/SmartGenie.sol\":10706:10755  levelUpgradePayments[upLevel][payer] = address(0) */\n      0x0100\n      exp\n      dup2\n      sload\n      dup2\n      0xffffffffffffffffffffffffffffffffffffffff\n      mul\n      not\n      and\n      swap1\n      dup4\n      0xffffffffffffffffffffffffffffffffffffffff\n      and\n      mul\n      or\n      swap1\n      sstore\n      pop\n        /* \"tronbox/contracts/SmartGenie.sol\":10821:10825  true */\n      0x01\n        /* \"tronbox/contracts/SmartGenie.sol\":10777:10802  isLevelUpgradedForAddress */\n      0x08\n        /* \"tronbox/contracts/SmartGenie.sol\":10777:10811  isLevelUpgradedForAddress[upLevel] */\n      0x00\n        /* \"tronbox/contracts/SmartGenie.sol\":10803:10810  upLevel */\n      dup7\n        /* \"tronbox/contracts/SmartGenie.sol\":10777:10811  isLevelUpgradedForAddress[upLevel] */\n      dup2\n      mstore\n      0x20\n      add\n      swap1\n      dup2\n      mstore\n      0x20\n      add\n      0x00\n      keccak256\n        /* \"tronbox/contracts/SmartGenie.sol\":10777:10818  isLevelUpgradedForAddress[upLevel][payer] */\n      0x00\n        /* \"tronbox/contracts/SmartGenie.sol\":10812:10817  payer */\n      dup6\n        /* \"tronbox/contracts/SmartGenie.sol\":10777:10818  isLevelUpgradedForAddress[upLevel][payer] */\n      0xffffffffffffffffffffffffffffffffffffffff\n      and\n      0xffffffffffffffffffffffffffffffffffffffff\n      and\n      dup2\n      mstore\n      0x20\n      add\n      swap1\n      dup2\n      mstore\n      0x20\n      add\n      0x00\n      keccak256\n      0x00\n        /* \"tronbox/contracts/SmartGenie.sol\":10777:10825  isLevelUpgradedForAddress[upLevel][payer] = true */\n      0x0100\n      exp\n      dup2\n      sload\n      dup2\n      0xff\n      mul\n      not\n      and\n      swap1\n      dup4\n      iszero\n      iszero\n      mul\n      or\n      swap1\n      sstore\n      pop\n        /* \"tronbox/contracts/SmartGenie.sol\":10909:10910  1 */\n      0x01\n        /* \"tronbox/contracts/SmartGenie.sol\":10878:10890  levelCounter */\n      0x06\n        /* \"tronbox/contracts/SmartGenie.sol\":10878:10899  levelCounter[upLevel] */\n      0x00\n        /* \"tronbox/contracts/SmartGenie.sol\":10891:10898  upLevel */\n      dup7\n        /* \"tronbox/contracts/SmartGenie.sol\":10878:10899  levelCounter[upLevel] */\n      dup2\n      mstore\n      0x20\n      add\n      swap1\n      dup2\n      mstore\n      0x20\n      add\n      0x00\n      keccak256\n        /* \"tronbox/contracts/SmartGenie.sol\":10878:10906  levelCounter[upLevel][payer] */\n      0x00\n        /* \"tronbox/contracts/SmartGenie.sol\":10900:10905  payer */\n      dup6\n        /* \"tronbox/contracts/SmartGenie.sol\":10878:10906  levelCounter[upLevel][payer] */\n      0xffffffffffffffffffffffffffffffffffffffff\n      and\n      0xffffffffffffffffffffffffffffffffffffffff\n      and\n      dup2\n      mstore\n      0x20\n      add\n      swap1\n      dup2\n      mstore\n      0x20\n      add\n      0x00\n      keccak256\n      sload\n        /* \"tronbox/contracts/SmartGenie.sol\":10878:10910  levelCounter[upLevel][payer] + 1 */\n      tag_384\n      swap2\n      swap1\n      tag_251\n      jump\t// in\n    tag_384:\n        /* \"tronbox/contracts/SmartGenie.sol\":10847:10859  levelCounter */\n      0x06\n        /* \"tronbox/contracts/SmartGenie.sol\":10847:10868  levelCounter[upLevel] */\n      0x00\n        /* \"tronbox/contracts/SmartGenie.sol\":10860:10867  upLevel */\n      dup7\n        /* \"tronbox/contracts/SmartGenie.sol\":10847:10868  levelCounter[upLevel] */\n      dup2\n      mstore\n      0x20\n      add\n      swap1\n      dup2\n      mstore\n      0x20\n      add\n      0x00\n      keccak256\n        /* \"tronbox/contracts/SmartGenie.sol\":10847:10875  levelCounter[upLevel][payer] */\n      0x00\n        /* \"tronbox/contracts/SmartGenie.sol\":10869:10874  payer */\n      dup6\n        /* \"tronbox/contracts/SmartGenie.sol\":10847:10875  levelCounter[upLevel][payer] */\n      0xffffffffffffffffffffffffffffffffffffffff\n      and\n      0xffffffffffffffffffffffffffffffffffffffff\n      and\n      dup2\n      mstore\n      0x20\n      add\n      swap1\n      dup2\n      mstore\n      0x20\n      add\n      0x00\n      keccak256\n        /* \"tronbox/contracts/SmartGenie.sol\":10847:10910  levelCounter[upLevel][payer] = levelCounter[upLevel][payer] + 1 */\n      dup2\n      swap1\n      sstore\n      pop\n        /* \"tronbox/contracts/SmartGenie.sol\":10482:10929  if (isLevelUpgradeFromSameLeg(payer, existingReferrer, referrer)) {... */\n    tag_383:\n        /* \"tronbox/contracts/SmartGenie.sol\":10383:10943  {... */\n      pop\n        /* \"tronbox/contracts/SmartGenie.sol\":9523:10943  if(!users[payer].isExist || ... */\n    tag_379:\n        /* \"tronbox/contracts/SmartGenie.sol\":10963:10968  users */\n      0x04\n        /* \"tronbox/contracts/SmartGenie.sol\":10963:10978  users[referrer] */\n      0x00\n        /* \"tronbox/contracts/SmartGenie.sol\":10969:10977  referrer */\n      dup3\n        /* \"tronbox/contracts/SmartGenie.sol\":10963:10978  users[referrer] */\n      0xffffffffffffffffffffffffffffffffffffffff\n      and\n      0xffffffffffffffffffffffffffffffffffffffff\n      and\n      dup2\n      mstore\n      0x20\n      add\n      swap1\n      dup2\n      mstore\n      0x20\n      add\n      0x00\n      keccak256\n        /* \"tronbox/contracts/SmartGenie.sol\":10963:10995  users[referrer].levelEligibility */\n      0x06\n      add\n        /* \"tronbox/contracts/SmartGenie.sol\":11001:11008  upLevel */\n      dup4\n        /* \"tronbox/contracts/SmartGenie.sol\":10963:11009  users[referrer].levelEligibility.push(upLevel) */\n      swap1\n      dup1\n      0x01\n      dup2\n      sload\n      add\n      dup1\n      dup3\n      sstore\n      dup1\n      swap2\n      pop\n      pop\n      0x01\n      swap1\n      sub\n      swap1\n      0x00\n      mstore\n      keccak256(0x00, 0x20)\n      add\n      0x00\n      swap1\n      swap2\n      swap1\n      swap2\n      swap1\n      swap2\n      pop\n      sstore\n        /* \"tronbox/contracts/SmartGenie.sol\":11028:11033  payer */\n      dup2\n        /* \"tronbox/contracts/SmartGenie.sol\":11035:11044  isPayNeed */\n      dup8\n        /* \"tronbox/contracts/SmartGenie.sol\":11046:11055  isSameLeg */\n      dup10\n        /* \"tronbox/contracts/SmartGenie.sol\":11020:11056  return (payer, isPayNeed, isSameLeg) */\n      swap6\n      pop\n      swap6\n      pop\n      swap6\n      pop\n      pop\n      pop\n      pop\n        /* \"tronbox/contracts/SmartGenie.sol\":8971:11063  function levelUpgrade(uint256 _regLevel, address _user, uint256 _levelEligibility, bool isSameLeg, bool isPayNeed ) ... */\n      swap6\n      pop\n      swap6\n      pop\n      swap6\n      swap3\n      pop\n      pop\n      pop\n      jump\t// out\n        /* \"tronbox/contracts/SmartGenie.sol\":16337:17072  function levelRenewal(bool _loop, address _user, uint256 _regLevel, uint256 _levelEligibility)internal returns(address, bool) {... */\n    tag_337:\n        /* \"tronbox/contracts/SmartGenie.sol\":16448:16455  address */\n      0x00\n        /* \"tronbox/contracts/SmartGenie.sol\":16457:16461  bool */\n      dup1\n        /* \"tronbox/contracts/SmartGenie.sol\":16473:16488  bool _isRenewal */\n      0x00\n        /* \"tronbox/contracts/SmartGenie.sol\":16491:16495  true */\n      0x01\n        /* \"tronbox/contracts/SmartGenie.sol\":16473:16495  bool _isRenewal = true */\n      swap1\n      pop\n        /* \"tronbox/contracts/SmartGenie.sol\":16505:16521  address referrer */\n      0x00\n        /* \"tronbox/contracts/SmartGenie.sol\":16523:16536  address payer */\n      dup1\n        /* \"tronbox/contracts/SmartGenie.sol\":16551:16556  _loop */\n      dup9\n        /* \"tronbox/contracts/SmartGenie.sol\":16547:16890  if(!_loop) {... */\n      tag_387\n      jumpi\n        /* \"tronbox/contracts/SmartGenie.sol\":16584:16592  userList */\n      0x05\n        /* \"tronbox/contracts/SmartGenie.sol\":16584:16617  userList[users[_user].referrerID] */\n      0x00\n        /* \"tronbox/contracts/SmartGenie.sol\":16593:16598  users */\n      0x04\n        /* \"tronbox/contracts/SmartGenie.sol\":16593:16605  users[_user] */\n      0x00\n        /* \"tronbox/contracts/SmartGenie.sol\":16599:16604  _user */\n      dup12\n        /* \"tronbox/contracts/SmartGenie.sol\":16593:16605  users[_user] */\n      0xffffffffffffffffffffffffffffffffffffffff\n      and\n      0xffffffffffffffffffffffffffffffffffffffff\n      and\n      dup2\n      mstore\n      0x20\n      add\n      swap1\n      dup2\n      mstore\n      0x20\n      add\n      0x00\n      keccak256\n        /* \"tronbox/contracts/SmartGenie.sol\":16593:16616  users[_user].referrerID */\n      0x02\n      add\n      sload\n        /* \"tronbox/contracts/SmartGenie.sol\":16584:16617  userList[users[_user].referrerID] */\n      dup2\n      mstore\n      0x20\n      add\n      swap1\n      dup2\n      mstore\n      0x20\n      add\n      0x00\n      keccak256\n      0x00\n      swap1\n      sload\n      swap1\n      0x0100\n      exp\n      swap1\n      div\n      0xffffffffffffffffffffffffffffffffffffffff\n      and\n        /* \"tronbox/contracts/SmartGenie.sol\":16573:16617  referrer = userList[users[_user].referrerID] */\n      swap2\n      pop\n        /* \"tronbox/contracts/SmartGenie.sol\":16547:16890  if(!_loop) {... */\n      jump(tag_388)\n    tag_387:\n        /* \"tronbox/contracts/SmartGenie.sol\":16661:16666  _user */\n      dup8\n        /* \"tronbox/contracts/SmartGenie.sol\":16650:16666  referrer = _user */\n      swap2\n      pop\n        /* \"tronbox/contracts/SmartGenie.sol\":16547:16890  if(!_loop) {... */\n    tag_388:\n        /* \"tronbox/contracts/SmartGenie.sol\":16909:16965  findRenewalPayer(referrer, _regLevel, _levelEligibility) */\n      tag_389\n        /* \"tronbox/contracts/SmartGenie.sol\":16926:16934  referrer */\n      dup3\n        /* \"tronbox/contracts/SmartGenie.sol\":16936:16945  _regLevel */\n      dup9\n        /* \"tronbox/contracts/SmartGenie.sol\":16947:16964  _levelEligibility */\n      dup9\n        /* \"tronbox/contracts/SmartGenie.sol\":16909:16925  findRenewalPayer */\n      tag_390\n        /* \"tronbox/contracts/SmartGenie.sol\":16909:16965  findRenewalPayer(referrer, _regLevel, _levelEligibility) */\n      jump\t// in\n    tag_389:\n        /* \"tronbox/contracts/SmartGenie.sol\":16898:16965  (payer,) = findRenewalPayer(referrer, _regLevel, _levelEligibility) */\n      pop\n      dup1\n      swap2\n      pop\n      pop\n        /* \"tronbox/contracts/SmartGenie.sol\":16979:16984  users */\n      0x04\n        /* \"tronbox/contracts/SmartGenie.sol\":16979:16991  users[payer] */\n      0x00\n        /* \"tronbox/contracts/SmartGenie.sol\":16985:16990  payer */\n      dup3\n        /* \"tronbox/contracts/SmartGenie.sol\":16979:16991  users[payer] */\n      0xffffffffffffffffffffffffffffffffffffffff\n      and\n      0xffffffffffffffffffffffffffffffffffffffff\n      and\n      dup2\n      mstore\n      0x20\n      add\n      swap1\n      dup2\n      mstore\n      0x20\n      add\n      0x00\n      keccak256\n        /* \"tronbox/contracts/SmartGenie.sol\":16979:16999  users[payer].isExist */\n      0x00\n      add\n      0x00\n      swap1\n      sload\n      swap1\n      0x0100\n      exp\n      swap1\n      div\n      0xff\n      and\n        /* \"tronbox/contracts/SmartGenie.sol\":16975:17020  if(!users[payer].isExist) payer = userList[1] */\n      tag_391\n      jumpi\n        /* \"tronbox/contracts/SmartGenie.sol\":17009:17017  userList */\n      0x05\n        /* \"tronbox/contracts/SmartGenie.sol\":17009:17020  userList[1] */\n      0x00\n        /* \"tronbox/contracts/SmartGenie.sol\":17018:17019  1 */\n      0x01\n        /* \"tronbox/contracts/SmartGenie.sol\":17009:17020  userList[1] */\n      dup2\n      mstore\n      0x20\n      add\n      swap1\n      dup2\n      mstore\n      0x20\n      add\n      0x00\n      keccak256\n      0x00\n      swap1\n      sload\n      swap1\n      0x0100\n      exp\n      swap1\n      div\n      0xffffffffffffffffffffffffffffffffffffffff\n      and\n        /* \"tronbox/contracts/SmartGenie.sol\":17001:17020  payer = userList[1] */\n      swap1\n      pop\n        /* \"tronbox/contracts/SmartGenie.sol\":16975:17020  if(!users[payer].isExist) payer = userList[1] */\n    tag_391:\n        /* \"tronbox/contracts/SmartGenie.sol\":17047:17052  payer */\n      dup1\n        /* \"tronbox/contracts/SmartGenie.sol\":17054:17064  _isRenewal */\n      dup4\n        /* \"tronbox/contracts/SmartGenie.sol\":17039:17065  return (payer, _isRenewal) */\n      swap5\n      pop\n      swap5\n      pop\n      pop\n      pop\n      pop\n        /* \"tronbox/contracts/SmartGenie.sol\":16337:17072  function levelRenewal(bool _loop, address _user, uint256 _regLevel, uint256 _levelEligibility)internal returns(address, bool) {... */\n      swap5\n      pop\n      swap5\n      swap3\n      pop\n      pop\n      pop\n      jump\t// out\n        /* \"tronbox/contracts/SmartGenie.sol\":17082:19375  function checkLoopRequired(address _payer, uint256 _regLevel, uint256 _length, bool isRenewal, bool isSameLeg) ... */\n    tag_343:\n        /* \"tronbox/contracts/SmartGenie.sol\":17229:17233  bool */\n      0x00\n        /* \"tronbox/contracts/SmartGenie.sol\":17235:17242  uint256 */\n      dup1\n        /* \"tronbox/contracts/SmartGenie.sol\":17254:17263  bool loop */\n      0x00\n        /* \"tronbox/contracts/SmartGenie.sol\":17281:17295  uint256 length */\n      dup1\n        /* \"tronbox/contracts/SmartGenie.sol\":17298:17305  _length */\n      dup7\n        /* \"tronbox/contracts/SmartGenie.sol\":17281:17305  uint256 length = _length */\n      swap1\n      pop\n        /* \"tronbox/contracts/SmartGenie.sol\":17416:17440  uint256 tempPaymentCount */\n      0x00\n        /* \"tronbox/contracts/SmartGenie.sol\":17480:17481  1 */\n      0x01\n        /* \"tronbox/contracts/SmartGenie.sol\":17443:17448  users */\n      0x04\n        /* \"tronbox/contracts/SmartGenie.sol\":17443:17456  users[_payer] */\n      0x00\n        /* \"tronbox/contracts/SmartGenie.sol\":17449:17455  _payer */\n      dup13\n        /* \"tronbox/contracts/SmartGenie.sol\":17443:17456  users[_payer] */\n      0xffffffffffffffffffffffffffffffffffffffff\n      and\n      0xffffffffffffffffffffffffffffffffffffffff\n      and\n      dup2\n      mstore\n      0x20\n      add\n      swap1\n      dup2\n      mstore\n      0x20\n      add\n      0x00\n      keccak256\n        /* \"tronbox/contracts/SmartGenie.sol\":17443:17468  users[_payer].incomeCount */\n      0x05\n      add\n        /* \"tronbox/contracts/SmartGenie.sol\":17443:17479  users[_payer].incomeCount[_regLevel] */\n      0x00\n        /* \"tronbox/contracts/SmartGenie.sol\":17469:17478  _regLevel */\n      dup12\n        /* \"tronbox/contracts/SmartGenie.sol\":17443:17479  users[_payer].incomeCount[_regLevel] */\n      dup2\n      mstore\n      0x20\n      add\n      swap1\n      dup2\n      mstore\n      0x20\n      add\n      0x00\n      keccak256\n      sload\n        /* \"tronbox/contracts/SmartGenie.sol\":17443:17481  users[_payer].incomeCount[_regLevel]+1 */\n      tag_393\n      swap2\n      swap1\n      tag_251\n      jump\t// in\n    tag_393:\n        /* \"tronbox/contracts/SmartGenie.sol\":17416:17481  uint256 tempPaymentCount = users[_payer].incomeCount[_regLevel]+1 */\n      swap1\n      pop\n        /* \"tronbox/contracts/SmartGenie.sol\":17575:17576  2 */\n      0x02\n        /* \"tronbox/contracts/SmartGenie.sol\":17540:17552  levelCounter */\n      0x06\n        /* \"tronbox/contracts/SmartGenie.sol\":17540:17563  levelCounter[_regLevel] */\n      0x00\n        /* \"tronbox/contracts/SmartGenie.sol\":17553:17562  _regLevel */\n      dup12\n        /* \"tronbox/contracts/SmartGenie.sol\":17540:17563  levelCounter[_regLevel] */\n      dup2\n      mstore\n      0x20\n      add\n      swap1\n      dup2\n      mstore\n      0x20\n      add\n      0x00\n      keccak256\n        /* \"tronbox/contracts/SmartGenie.sol\":17540:17571  levelCounter[_regLevel][_payer] */\n      0x00\n        /* \"tronbox/contracts/SmartGenie.sol\":17564:17570  _payer */\n      dup13\n        /* \"tronbox/contracts/SmartGenie.sol\":17540:17571  levelCounter[_regLevel][_payer] */\n      0xffffffffffffffffffffffffffffffffffffffff\n      and\n      0xffffffffffffffffffffffffffffffffffffffff\n      and\n      dup2\n      mstore\n      0x20\n      add\n      swap1\n      dup2\n      mstore\n      0x20\n      add\n      0x00\n      keccak256\n      sload\n        /* \"tronbox/contracts/SmartGenie.sol\":17540:17576  levelCounter[_regLevel][_payer] == 2 */\n      eq\n        /* \"tronbox/contracts/SmartGenie.sol\":17537:19331  if(levelCounter[_regLevel][_payer] == 2) {... */\n      iszero\n      tag_394\n      jumpi\n        /* \"tronbox/contracts/SmartGenie.sol\":17599:17603  true */\n      0x01\n        /* \"tronbox/contracts/SmartGenie.sol\":17592:17603  loop = true */\n      swap3\n      pop\n        /* \"tronbox/contracts/SmartGenie.sol\":17537:19331  if(levelCounter[_regLevel][_payer] == 2) {... */\n      jump(tag_395)\n    tag_394:\n        /* \"tronbox/contracts/SmartGenie.sol\":17812:17813  4 */\n      0x04\n        /* \"tronbox/contracts/SmartGenie.sol\":17792:17808  tempPaymentCount */\n      dup2\n        /* \"tronbox/contracts/SmartGenie.sol\":17792:17813  tempPaymentCount >= 4 */\n      lt\n      iszero\n        /* \"tronbox/contracts/SmartGenie.sol\":17792:17852  tempPaymentCount >= 4 &&... */\n      dup1\n      iszero\n      tag_396\n      jumpi\n      pop\n        /* \"tronbox/contracts/SmartGenie.sol\":17851:17852  0 */\n      0x00\n        /* \"tronbox/contracts/SmartGenie.sol\":17846:17847  4 */\n      0x04\n        /* \"tronbox/contracts/SmartGenie.sol\":17827:17843  tempPaymentCount */\n      dup3\n        /* \"tronbox/contracts/SmartGenie.sol\":17827:17847  tempPaymentCount % 4 */\n      tag_397\n      swap2\n      swap1\n      tag_330\n      jump\t// in\n    tag_397:\n        /* \"tronbox/contracts/SmartGenie.sol\":17827:17852  tempPaymentCount % 4 == 0 */\n      eq\n        /* \"tronbox/contracts/SmartGenie.sol\":17792:17852  tempPaymentCount >= 4 &&... */\n    tag_396:\n        /* \"tronbox/contracts/SmartGenie.sol\":17792:17894  tempPaymentCount >= 4 &&... */\n      dup1\n      iszero\n      tag_398\n      jumpi\n      pop\n        /* \"tronbox/contracts/SmartGenie.sol\":17893:17894  0 */\n      0x00\n        /* \"tronbox/contracts/SmartGenie.sol\":17867:17872  users */\n      0x04\n        /* \"tronbox/contracts/SmartGenie.sol\":17867:17880  users[_payer] */\n      0x00\n        /* \"tronbox/contracts/SmartGenie.sol\":17873:17879  _payer */\n      dup13\n        /* \"tronbox/contracts/SmartGenie.sol\":17867:17880  users[_payer] */\n      0xffffffffffffffffffffffffffffffffffffffff\n      and\n      0xffffffffffffffffffffffffffffffffffffffff\n      and\n      dup2\n      mstore\n      0x20\n      add\n      swap1\n      dup2\n      mstore\n      0x20\n      add\n      0x00\n      keccak256\n        /* \"tronbox/contracts/SmartGenie.sol\":17867:17891  users[_payer].referrerID */\n      0x02\n      add\n      sload\n        /* \"tronbox/contracts/SmartGenie.sol\":17867:17894  users[_payer].referrerID!=0 */\n      eq\n      iszero\n        /* \"tronbox/contracts/SmartGenie.sol\":17792:17894  tempPaymentCount >= 4 &&... */\n    tag_398:\n        /* \"tronbox/contracts/SmartGenie.sol\":17792:17912  tempPaymentCount >= 4 &&... */\n      dup1\n      iszero\n      tag_399\n      jumpi\n      pop\n        /* \"tronbox/contracts/SmartGenie.sol\":17911:17912  1 */\n      0x01\n        /* \"tronbox/contracts/SmartGenie.sol\":17898:17907  _regLevel */\n      dup10\n        /* \"tronbox/contracts/SmartGenie.sol\":17898:17912  _regLevel == 1 */\n      eq\n        /* \"tronbox/contracts/SmartGenie.sol\":17792:17912  tempPaymentCount >= 4 &&... */\n    tag_399:\n        /* \"tronbox/contracts/SmartGenie.sol\":17789:19331  if(tempPaymentCount >= 4 &&... */\n      iszero\n      tag_400\n      jumpi\n        /* \"tronbox/contracts/SmartGenie.sol\":17949:17950  3 */\n      0x03\n        /* \"tronbox/contracts/SmartGenie.sol\":17938:17945  _length */\n      dup9\n        /* \"tronbox/contracts/SmartGenie.sol\":17938:17950  _length == 3 */\n      eq\n        /* \"tronbox/contracts/SmartGenie.sol\":17938:17974  _length == 3 && tempPaymentCount ==4 */\n      dup1\n      iszero\n      tag_401\n      jumpi\n      pop\n        /* \"tronbox/contracts/SmartGenie.sol\":17973:17974  4 */\n      0x04\n        /* \"tronbox/contracts/SmartGenie.sol\":17954:17970  tempPaymentCount */\n      dup2\n        /* \"tronbox/contracts/SmartGenie.sol\":17954:17974  tempPaymentCount ==4 */\n      eq\n        /* \"tronbox/contracts/SmartGenie.sol\":17938:17974  _length == 3 && tempPaymentCount ==4 */\n    tag_401:\n        /* \"tronbox/contracts/SmartGenie.sol\":17935:18032  if(_length == 3 && tempPaymentCount ==4) {... */\n      iszero\n      tag_402\n      jumpi\n        /* \"tronbox/contracts/SmartGenie.sol\":18003:18019  tempPaymentCount */\n      dup1\n        /* \"tronbox/contracts/SmartGenie.sol\":17994:18019  length = tempPaymentCount */\n      swap2\n      pop\n        /* \"tronbox/contracts/SmartGenie.sol\":17935:18032  if(_length == 3 && tempPaymentCount ==4) {... */\n    tag_402:\n        /* \"tronbox/contracts/SmartGenie.sol\":18052:18056  true */\n      0x01\n        /* \"tronbox/contracts/SmartGenie.sol\":18045:18056  loop = true */\n      swap3\n      pop\n        /* \"tronbox/contracts/SmartGenie.sol\":17789:19331  if(tempPaymentCount >= 4 &&... */\n      jump(tag_403)\n    tag_400:\n        /* \"tronbox/contracts/SmartGenie.sol\":18253:18254  4 */\n      0x04\n        /* \"tronbox/contracts/SmartGenie.sol\":18233:18249  tempPaymentCount */\n      dup2\n        /* \"tronbox/contracts/SmartGenie.sol\":18233:18254  tempPaymentCount >= 4 */\n      lt\n      iszero\n        /* \"tronbox/contracts/SmartGenie.sol\":18233:18295  tempPaymentCount >= 4 &&... */\n      dup1\n      iszero\n      tag_404\n      jumpi\n      pop\n        /* \"tronbox/contracts/SmartGenie.sol\":18294:18295  0 */\n      0x00\n        /* \"tronbox/contracts/SmartGenie.sol\":18289:18290  4 */\n      0x04\n        /* \"tronbox/contracts/SmartGenie.sol\":18270:18286  tempPaymentCount */\n      dup3\n        /* \"tronbox/contracts/SmartGenie.sol\":18270:18290  tempPaymentCount % 4 */\n      tag_405\n      swap2\n      swap1\n      tag_330\n      jump\t// in\n    tag_405:\n        /* \"tronbox/contracts/SmartGenie.sol\":18270:18295  tempPaymentCount % 4 == 0 */\n      eq\n        /* \"tronbox/contracts/SmartGenie.sol\":18233:18295  tempPaymentCount >= 4 &&... */\n    tag_404:\n        /* \"tronbox/contracts/SmartGenie.sol\":18233:18324  tempPaymentCount >= 4 &&... */\n      dup1\n      iszero\n      tag_406\n      jumpi\n      pop\n        /* \"tronbox/contracts/SmartGenie.sol\":18323:18324  2 */\n      0x02\n        /* \"tronbox/contracts/SmartGenie.sol\":18312:18319  _length */\n      dup9\n        /* \"tronbox/contracts/SmartGenie.sol\":18312:18324  _length == 2 */\n      eq\n        /* \"tronbox/contracts/SmartGenie.sol\":18233:18324  tempPaymentCount >= 4 &&... */\n    tag_406:\n        /* \"tronbox/contracts/SmartGenie.sol\":18233:18338  tempPaymentCount >= 4 &&... */\n      dup1\n      iszero\n      tag_407\n      jumpi\n      pop\n        /* \"tronbox/contracts/SmartGenie.sol\":18329:18338  isSameLeg */\n      dup6\n        /* \"tronbox/contracts/SmartGenie.sol\":18328:18338  !isSameLeg */\n      iszero\n        /* \"tronbox/contracts/SmartGenie.sol\":18233:18338  tempPaymentCount >= 4 &&... */\n    tag_407:\n        /* \"tronbox/contracts/SmartGenie.sol\":18233:18367  tempPaymentCount >= 4 &&... */\n      dup1\n      iszero\n      tag_408\n      jumpi\n      pop\n        /* \"tronbox/contracts/SmartGenie.sol\":18366:18367  1 */\n      0x01\n        /* \"tronbox/contracts/SmartGenie.sol\":18354:18363  _regLevel */\n      dup10\n        /* \"tronbox/contracts/SmartGenie.sol\":18354:18367  _regLevel > 1 */\n      gt\n        /* \"tronbox/contracts/SmartGenie.sol\":18233:18367  tempPaymentCount >= 4 &&... */\n    tag_408:\n        /* \"tronbox/contracts/SmartGenie.sol\":18229:19331  if (tempPaymentCount >= 4 &&... */\n      iszero\n      tag_409\n      jumpi\n        /* \"tronbox/contracts/SmartGenie.sol\":18485:18493  userList */\n      0x05\n        /* \"tronbox/contracts/SmartGenie.sol\":18485:18496  userList[1] */\n      0x00\n        /* \"tronbox/contracts/SmartGenie.sol\":18494:18495  1 */\n      0x01\n        /* \"tronbox/contracts/SmartGenie.sol\":18485:18496  userList[1] */\n      dup2\n      mstore\n      0x20\n      add\n      swap1\n      dup2\n      mstore\n      0x20\n      add\n      0x00\n      keccak256\n      0x00\n      swap1\n      sload\n      swap1\n      0x0100\n      exp\n      swap1\n      div\n      0xffffffffffffffffffffffffffffffffffffffff\n      and\n        /* \"tronbox/contracts/SmartGenie.sol\":18475:18496  _payer == userList[1] */\n      0xffffffffffffffffffffffffffffffffffffffff\n      and\n        /* \"tronbox/contracts/SmartGenie.sol\":18475:18481  _payer */\n      dup11\n        /* \"tronbox/contracts/SmartGenie.sol\":18475:18496  _payer == userList[1] */\n      0xffffffffffffffffffffffffffffffffffffffff\n      and\n      eq\n        /* \"tronbox/contracts/SmartGenie.sol\":18472:18621  if(_payer == userList[1]) {... */\n      iszero\n      tag_410\n      jumpi\n        /* \"tronbox/contracts/SmartGenie.sol\":18523:18528  false */\n      0x00\n        /* \"tronbox/contracts/SmartGenie.sol\":18516:18528  loop = false */\n      swap3\n      pop\n        /* \"tronbox/contracts/SmartGenie.sol\":18472:18621  if(_payer == userList[1]) {... */\n      jump(tag_411)\n    tag_410:\n        /* \"tronbox/contracts/SmartGenie.sol\":18576:18577  4 */\n      0x04\n        /* \"tronbox/contracts/SmartGenie.sol\":18567:18577  length = 4 */\n      swap2\n      pop\n        /* \"tronbox/contracts/SmartGenie.sol\":18602:18606  true */\n      0x01\n        /* \"tronbox/contracts/SmartGenie.sol\":18595:18606  loop = true */\n      swap3\n      pop\n        /* \"tronbox/contracts/SmartGenie.sol\":18472:18621  if(_payer == userList[1]) {... */\n    tag_411:\n        /* \"tronbox/contracts/SmartGenie.sol\":18229:19331  if (tempPaymentCount >= 4 &&... */\n      jump(tag_412)\n    tag_409:\n        /* \"tronbox/contracts/SmartGenie.sol\":18726:18727  2 */\n      0x02\n        /* \"tronbox/contracts/SmartGenie.sol\":18706:18722  tempPaymentCount */\n      dup2\n        /* \"tronbox/contracts/SmartGenie.sol\":18706:18727  tempPaymentCount == 2 */\n      eq\n        /* \"tronbox/contracts/SmartGenie.sol\":18706:18768  tempPaymentCount == 2 &&... */\n      dup1\n      iszero\n      tag_413\n      jumpi\n      pop\n        /* \"tronbox/contracts/SmartGenie.sol\":18767:18768  0 */\n      0x00\n        /* \"tronbox/contracts/SmartGenie.sol\":18741:18746  users */\n      0x04\n        /* \"tronbox/contracts/SmartGenie.sol\":18741:18754  users[_payer] */\n      0x00\n        /* \"tronbox/contracts/SmartGenie.sol\":18747:18753  _payer */\n      dup13\n        /* \"tronbox/contracts/SmartGenie.sol\":18741:18754  users[_payer] */\n      0xffffffffffffffffffffffffffffffffffffffff\n      and\n      0xffffffffffffffffffffffffffffffffffffffff\n      and\n      dup2\n      mstore\n      0x20\n      add\n      swap1\n      dup2\n      mstore\n      0x20\n      add\n      0x00\n      keccak256\n        /* \"tronbox/contracts/SmartGenie.sol\":18741:18765  users[_payer].referrerID */\n      0x02\n      add\n      sload\n        /* \"tronbox/contracts/SmartGenie.sol\":18741:18768  users[_payer].referrerID!=0 */\n      eq\n      iszero\n        /* \"tronbox/contracts/SmartGenie.sol\":18706:18768  tempPaymentCount == 2 &&... */\n    tag_413:\n        /* \"tronbox/contracts/SmartGenie.sol\":18706:18782  tempPaymentCount == 2 &&... */\n      dup1\n      iszero\n      tag_414\n      jumpi\n      pop\n        /* \"tronbox/contracts/SmartGenie.sol\":18773:18782  isRenewal */\n      dup7\n        /* \"tronbox/contracts/SmartGenie.sol\":18772:18782  !isRenewal */\n      iszero\n        /* \"tronbox/contracts/SmartGenie.sol\":18706:18782  tempPaymentCount == 2 &&... */\n    tag_414:\n        /* \"tronbox/contracts/SmartGenie.sol\":18706:18796  tempPaymentCount == 2 &&... */\n      dup1\n      iszero\n      tag_415\n      jumpi\n      pop\n        /* \"tronbox/contracts/SmartGenie.sol\":18787:18796  isSameLeg */\n      dup6\n        /* \"tronbox/contracts/SmartGenie.sol\":18786:18796  !isSameLeg */\n      iszero\n        /* \"tronbox/contracts/SmartGenie.sol\":18706:18796  tempPaymentCount == 2 &&... */\n    tag_415:\n        /* \"tronbox/contracts/SmartGenie.sol\":18703:19331  if(tempPaymentCount == 2 &&... */\n      iszero\n      tag_416\n      jumpi\n        /* \"tronbox/contracts/SmartGenie.sol\":18815:18820  users */\n      0x04\n        /* \"tronbox/contracts/SmartGenie.sol\":18815:18828  users[_payer] */\n      0x00\n        /* \"tronbox/contracts/SmartGenie.sol\":18821:18827  _payer */\n      dup12\n        /* \"tronbox/contracts/SmartGenie.sol\":18815:18828  users[_payer] */\n      0xffffffffffffffffffffffffffffffffffffffff\n      and\n      0xffffffffffffffffffffffffffffffffffffffff\n      and\n      dup2\n      mstore\n      0x20\n      add\n      swap1\n      dup2\n      mstore\n      0x20\n      add\n      0x00\n      keccak256\n        /* \"tronbox/contracts/SmartGenie.sol\":18815:18836  users[_payer].isExist */\n      0x00\n      add\n      0x00\n      swap1\n      sload\n      swap1\n      0x0100\n      exp\n      swap1\n      div\n      0xff\n      and\n        /* \"tronbox/contracts/SmartGenie.sol\":18811:18858  if(!users[_payer].isExist) _payer = userList[1] */\n      tag_417\n      jumpi\n        /* \"tronbox/contracts/SmartGenie.sol\":18847:18855  userList */\n      0x05\n        /* \"tronbox/contracts/SmartGenie.sol\":18847:18858  userList[1] */\n      0x00\n        /* \"tronbox/contracts/SmartGenie.sol\":18856:18857  1 */\n      0x01\n        /* \"tronbox/contracts/SmartGenie.sol\":18847:18858  userList[1] */\n      dup2\n      mstore\n      0x20\n      add\n      swap1\n      dup2\n      mstore\n      0x20\n      add\n      0x00\n      keccak256\n      0x00\n      swap1\n      sload\n      swap1\n      0x0100\n      exp\n      swap1\n      div\n      0xffffffffffffffffffffffffffffffffffffffff\n      and\n        /* \"tronbox/contracts/SmartGenie.sol\":18838:18858  _payer = userList[1] */\n      swap10\n      pop\n        /* \"tronbox/contracts/SmartGenie.sol\":18811:18858  if(!users[_payer].isExist) _payer = userList[1] */\n    tag_417:\n        /* \"tronbox/contracts/SmartGenie.sol\":18885:18893  userList */\n      0x05\n        /* \"tronbox/contracts/SmartGenie.sol\":18885:18896  userList[1] */\n      0x00\n        /* \"tronbox/contracts/SmartGenie.sol\":18894:18895  1 */\n      0x01\n        /* \"tronbox/contracts/SmartGenie.sol\":18885:18896  userList[1] */\n      dup2\n      mstore\n      0x20\n      add\n      swap1\n      dup2\n      mstore\n      0x20\n      add\n      0x00\n      keccak256\n      0x00\n      swap1\n      sload\n      swap1\n      0x0100\n      exp\n      swap1\n      div\n      0xffffffffffffffffffffffffffffffffffffffff\n      and\n        /* \"tronbox/contracts/SmartGenie.sol\":18875:18896  _payer == userList[1] */\n      0xffffffffffffffffffffffffffffffffffffffff\n      and\n        /* \"tronbox/contracts/SmartGenie.sol\":18875:18881  _payer */\n      dup11\n        /* \"tronbox/contracts/SmartGenie.sol\":18875:18896  _payer == userList[1] */\n      0xffffffffffffffffffffffffffffffffffffffff\n      and\n      eq\n        /* \"tronbox/contracts/SmartGenie.sol\":18872:19036  if(_payer == userList[1]) {... */\n      iszero\n      tag_418\n      jumpi\n        /* \"tronbox/contracts/SmartGenie.sol\":18923:18928  false */\n      0x00\n        /* \"tronbox/contracts/SmartGenie.sol\":18916:18928  loop = false */\n      swap3\n      pop\n        /* \"tronbox/contracts/SmartGenie.sol\":18872:19036  if(_payer == userList[1]) {... */\n      jump(tag_419)\n    tag_418:\n        /* \"tronbox/contracts/SmartGenie.sol\":18974:18978  true */\n      0x01\n        /* \"tronbox/contracts/SmartGenie.sol\":18967:18978  loop = true */\n      swap3\n      pop\n        /* \"tronbox/contracts/SmartGenie.sol\":19005:19021  tempPaymentCount */\n      dup1\n        /* \"tronbox/contracts/SmartGenie.sol\":18996:19021  length = tempPaymentCount */\n      swap2\n      pop\n        /* \"tronbox/contracts/SmartGenie.sol\":18872:19036  if(_payer == userList[1]) {... */\n    tag_419:\n        /* \"tronbox/contracts/SmartGenie.sol\":18703:19331  if(tempPaymentCount == 2 &&... */\n      jump(tag_420)\n    tag_416:\n        /* \"tronbox/contracts/SmartGenie.sol\":19216:19217  1 */\n      0x01\n        /* \"tronbox/contracts/SmartGenie.sol\":19196:19212  tempPaymentCount */\n      dup2\n        /* \"tronbox/contracts/SmartGenie.sol\":19196:19217  tempPaymentCount == 1 */\n      eq\n        /* \"tronbox/contracts/SmartGenie.sol\":19196:19258  tempPaymentCount == 1 &&... */\n      dup1\n      iszero\n      tag_421\n      jumpi\n      pop\n        /* \"tronbox/contracts/SmartGenie.sol\":19257:19258  0 */\n      0x00\n        /* \"tronbox/contracts/SmartGenie.sol\":19231:19236  users */\n      0x04\n        /* \"tronbox/contracts/SmartGenie.sol\":19231:19244  users[_payer] */\n      0x00\n        /* \"tronbox/contracts/SmartGenie.sol\":19237:19243  _payer */\n      dup13\n        /* \"tronbox/contracts/SmartGenie.sol\":19231:19244  users[_payer] */\n      0xffffffffffffffffffffffffffffffffffffffff\n      and\n      0xffffffffffffffffffffffffffffffffffffffff\n      and\n      dup2\n      mstore\n      0x20\n      add\n      swap1\n      dup2\n      mstore\n      0x20\n      add\n      0x00\n      keccak256\n        /* \"tronbox/contracts/SmartGenie.sol\":19231:19255  users[_payer].referrerID */\n      0x02\n      add\n      sload\n        /* \"tronbox/contracts/SmartGenie.sol\":19231:19258  users[_payer].referrerID==0 */\n      eq\n        /* \"tronbox/contracts/SmartGenie.sol\":19196:19258  tempPaymentCount == 1 &&... */\n    tag_421:\n        /* \"tronbox/contracts/SmartGenie.sol\":19193:19331  if(tempPaymentCount == 1 &&... */\n      iszero\n      tag_422\n      jumpi\n        /* \"tronbox/contracts/SmartGenie.sol\":19277:19282  users */\n      0x04\n        /* \"tronbox/contracts/SmartGenie.sol\":19277:19290  users[_payer] */\n      0x00\n        /* \"tronbox/contracts/SmartGenie.sol\":19283:19289  _payer */\n      dup12\n        /* \"tronbox/contracts/SmartGenie.sol\":19277:19290  users[_payer] */\n      0xffffffffffffffffffffffffffffffffffffffff\n      and\n      0xffffffffffffffffffffffffffffffffffffffff\n      and\n      dup2\n      mstore\n      0x20\n      add\n      swap1\n      dup2\n      mstore\n      0x20\n      add\n      0x00\n      keccak256\n        /* \"tronbox/contracts/SmartGenie.sol\":19277:19298  users[_payer].isExist */\n      0x00\n      add\n      0x00\n      swap1\n      sload\n      swap1\n      0x0100\n      exp\n      swap1\n      div\n      0xff\n      and\n        /* \"tronbox/contracts/SmartGenie.sol\":19273:19320  if(!users[_payer].isExist) _payer = userList[1] */\n      tag_423\n      jumpi\n        /* \"tronbox/contracts/SmartGenie.sol\":19309:19317  userList */\n      0x05\n        /* \"tronbox/contracts/SmartGenie.sol\":19309:19320  userList[1] */\n      0x00\n        /* \"tronbox/contracts/SmartGenie.sol\":19318:19319  1 */\n      0x01\n        /* \"tronbox/contracts/SmartGenie.sol\":19309:19320  userList[1] */\n      dup2\n      mstore\n      0x20\n      add\n      swap1\n      dup2\n      mstore\n      0x20\n      add\n      0x00\n      keccak256\n      0x00\n      swap1\n      sload\n      swap1\n      0x0100\n      exp\n      swap1\n      div\n      0xffffffffffffffffffffffffffffffffffffffff\n      and\n        /* \"tronbox/contracts/SmartGenie.sol\":19300:19320  _payer = userList[1] */\n      swap10\n      pop\n        /* \"tronbox/contracts/SmartGenie.sol\":19273:19320  if(!users[_payer].isExist) _payer = userList[1] */\n    tag_423:\n        /* \"tronbox/contracts/SmartGenie.sol\":19193:19331  if(tempPaymentCount == 1 &&... */\n    tag_422:\n        /* \"tronbox/contracts/SmartGenie.sol\":18703:19331  if(tempPaymentCount == 2 &&... */\n    tag_420:\n        /* \"tronbox/contracts/SmartGenie.sol\":18229:19331  if (tempPaymentCount >= 4 &&... */\n    tag_412:\n        /* \"tronbox/contracts/SmartGenie.sol\":17789:19331  if(tempPaymentCount >= 4 &&... */\n    tag_403:\n        /* \"tronbox/contracts/SmartGenie.sol\":17537:19331  if(levelCounter[_regLevel][_payer] == 2) {... */\n    tag_395:\n        /* \"tronbox/contracts/SmartGenie.sol\":19355:19359  loop */\n      dup3\n        /* \"tronbox/contracts/SmartGenie.sol\":19361:19367  length */\n      dup3\n        /* \"tronbox/contracts/SmartGenie.sol\":19347:19368  return (loop, length) */\n      swap5\n      pop\n      swap5\n      pop\n      pop\n      pop\n      pop\n        /* \"tronbox/contracts/SmartGenie.sol\":17082:19375  function checkLoopRequired(address _payer, uint256 _regLevel, uint256 _length, bool isRenewal, bool isSameLeg) ... */\n      swap6\n      pop\n      swap6\n      swap4\n      pop\n      pop\n      pop\n      pop\n      jump\t// out\n        /* \"tronbox/contracts/SmartGenie.sol\":11077:13586  function findEligiblePayer(address _referrer, uint256 _regLevel, uint256 _levelEligibility) internal returns (address, address){... */\n    tag_372:\n        /* \"tronbox/contracts/SmartGenie.sol\":11187:11194  address */\n      0x00\n        /* \"tronbox/contracts/SmartGenie.sol\":11196:11203  address */\n      dup1\n        /* \"tronbox/contracts/SmartGenie.sol\":11217:11239  address _eligiblePayer */\n      0x00\n        /* \"tronbox/contracts/SmartGenie.sol\":11253:11274  address _tempreferrer */\n      dup1\n        /* \"tronbox/contracts/SmartGenie.sol\":11277:11286  _referrer */\n      dup7\n        /* \"tronbox/contracts/SmartGenie.sol\":11253:11286  address _tempreferrer = _referrer */\n      swap1\n      pop\n        /* \"tronbox/contracts/SmartGenie.sol\":11382:11387  int i */\n      0x00\n        /* \"tronbox/contracts/SmartGenie.sol\":11378:13434  for(int i=0; i<9; i++) { ... */\n    tag_425:\n        /* \"tronbox/contracts/SmartGenie.sol\":11393:11394  9 */\n      0x09\n        /* \"tronbox/contracts/SmartGenie.sol\":11391:11392  i */\n      dup2\n        /* \"tronbox/contracts/SmartGenie.sol\":11391:11394  i<9 */\n      slt\n        /* \"tronbox/contracts/SmartGenie.sol\":11378:13434  for(int i=0; i<9; i++) { ... */\n      iszero\n      tag_426\n      jumpi\n        /* \"tronbox/contracts/SmartGenie.sol\":11598:11599  1 */\n      0x01\n        /* \"tronbox/contracts/SmartGenie.sol\":11567:11572  users */\n      0x04\n        /* \"tronbox/contracts/SmartGenie.sol\":11567:11583  users[_referrer] */\n      0x00\n        /* \"tronbox/contracts/SmartGenie.sol\":11573:11582  _referrer */\n      dup11\n        /* \"tronbox/contracts/SmartGenie.sol\":11567:11583  users[_referrer] */\n      0xffffffffffffffffffffffffffffffffffffffff\n      and\n      0xffffffffffffffffffffffffffffffffffffffff\n      and\n      dup2\n      mstore\n      0x20\n      add\n      swap1\n      dup2\n      mstore\n      0x20\n      add\n      0x00\n      keccak256\n        /* \"tronbox/contracts/SmartGenie.sol\":11567:11594  users[_referrer].referrerID */\n      0x02\n      add\n      sload\n        /* \"tronbox/contracts/SmartGenie.sol\":11567:11599  users[_referrer].referrerID == 1 */\n      eq\n        /* \"tronbox/contracts/SmartGenie.sol\":11567:11632  users[_referrer].referrerID == 1 || _eligiblePayer == userList[1] */\n      dup1\n      tag_428\n      jumpi\n      pop\n        /* \"tronbox/contracts/SmartGenie.sol\":11621:11629  userList */\n      0x05\n        /* \"tronbox/contracts/SmartGenie.sol\":11621:11632  userList[1] */\n      0x00\n        /* \"tronbox/contracts/SmartGenie.sol\":11630:11631  1 */\n      0x01\n        /* \"tronbox/contracts/SmartGenie.sol\":11621:11632  userList[1] */\n      dup2\n      mstore\n      0x20\n      add\n      swap1\n      dup2\n      mstore\n      0x20\n      add\n      0x00\n      keccak256\n      0x00\n      swap1\n      sload\n      swap1\n      0x0100\n      exp\n      swap1\n      div\n      0xffffffffffffffffffffffffffffffffffffffff\n      and\n        /* \"tronbox/contracts/SmartGenie.sol\":11603:11632  _eligiblePayer == userList[1] */\n      0xffffffffffffffffffffffffffffffffffffffff\n      and\n        /* \"tronbox/contracts/SmartGenie.sol\":11603:11617  _eligiblePayer */\n      dup4\n        /* \"tronbox/contracts/SmartGenie.sol\":11603:11632  _eligiblePayer == userList[1] */\n      0xffffffffffffffffffffffffffffffffffffffff\n      and\n      eq\n        /* \"tronbox/contracts/SmartGenie.sol\":11567:11632  users[_referrer].referrerID == 1 || _eligiblePayer == userList[1] */\n    tag_428:\n        /* \"tronbox/contracts/SmartGenie.sol\":11564:13416  if(users[_referrer].referrerID == 1 || _eligiblePayer == userList[1]) {... */\n      iszero\n      tag_429\n      jumpi\n        /* \"tronbox/contracts/SmartGenie.sol\":11660:11665  break */\n      jump(tag_426)\n        /* \"tronbox/contracts/SmartGenie.sol\":11564:13416  if(users[_referrer].referrerID == 1 || _eligiblePayer == userList[1]) {... */\n    tag_429:\n        /* \"tronbox/contracts/SmartGenie.sol\":11720:11736  uint256 _lelevel */\n      0x00\n        /* \"tronbox/contracts/SmartGenie.sol\":11784:11785  1 */\n      0x01\n        /* \"tronbox/contracts/SmartGenie.sol\":11739:11744  users */\n      0x04\n        /* \"tronbox/contracts/SmartGenie.sol\":11739:11759  users[_tempreferrer] */\n      0x00\n        /* \"tronbox/contracts/SmartGenie.sol\":11745:11758  _tempreferrer */\n      dup6\n        /* \"tronbox/contracts/SmartGenie.sol\":11739:11759  users[_tempreferrer] */\n      0xffffffffffffffffffffffffffffffffffffffff\n      and\n      0xffffffffffffffffffffffffffffffffffffffff\n      and\n      dup2\n      mstore\n      0x20\n      add\n      swap1\n      dup2\n      mstore\n      0x20\n      add\n      0x00\n      keccak256\n        /* \"tronbox/contracts/SmartGenie.sol\":11739:11776  users[_tempreferrer].levelEligibility */\n      0x06\n      add\n        /* \"tronbox/contracts/SmartGenie.sol\":11739:11783  users[_tempreferrer].levelEligibility.length */\n      dup1\n      sload\n      swap1\n      pop\n        /* \"tronbox/contracts/SmartGenie.sol\":11739:11785  users[_tempreferrer].levelEligibility.length-1 */\n      tag_431\n      swap2\n      swap1\n      tag_204\n      jump\t// in\n    tag_431:\n        /* \"tronbox/contracts/SmartGenie.sol\":11720:11785  uint256 _lelevel = users[_tempreferrer].levelEligibility.length-1 */\n      swap1\n      pop\n        /* \"tronbox/contracts/SmartGenie.sol\":11831:11836  users */\n      0x04\n        /* \"tronbox/contracts/SmartGenie.sol\":11831:11851  users[_tempreferrer] */\n      0x00\n        /* \"tronbox/contracts/SmartGenie.sol\":11837:11850  _tempreferrer */\n      dup5\n        /* \"tronbox/contracts/SmartGenie.sol\":11831:11851  users[_tempreferrer] */\n      0xffffffffffffffffffffffffffffffffffffffff\n      and\n      0xffffffffffffffffffffffffffffffffffffffff\n      and\n      dup2\n      mstore\n      0x20\n      add\n      swap1\n      dup2\n      mstore\n      0x20\n      add\n      0x00\n      keccak256\n        /* \"tronbox/contracts/SmartGenie.sol\":11831:11868  users[_tempreferrer].levelEligibility */\n      0x06\n      add\n        /* \"tronbox/contracts/SmartGenie.sol\":11869:11877  _lelevel */\n      dup2\n        /* \"tronbox/contracts/SmartGenie.sol\":11831:11878  users[_tempreferrer].levelEligibility[_lelevel] */\n      dup2\n      sload\n      dup2\n      lt\n      tag_432\n      jumpi\n      tag_433\n      tag_148\n      jump\t// in\n    tag_433:\n    tag_432:\n      swap1\n      0x00\n      mstore\n      keccak256(0x00, 0x20)\n      add\n      sload\n        /* \"tronbox/contracts/SmartGenie.sol\":11811:11878  _levelEligibility = users[_tempreferrer].levelEligibility[_lelevel] */\n      swap7\n      pop\n        /* \"tronbox/contracts/SmartGenie.sol\":11930:11944  address payer1 */\n      0x00\n        /* \"tronbox/contracts/SmartGenie.sol\":11947:11955  userList */\n      0x05\n        /* \"tronbox/contracts/SmartGenie.sol\":11947:11988  userList[users[_tempreferrer].referrerID] */\n      0x00\n        /* \"tronbox/contracts/SmartGenie.sol\":11956:11961  users */\n      0x04\n        /* \"tronbox/contracts/SmartGenie.sol\":11956:11976  users[_tempreferrer] */\n      0x00\n        /* \"tronbox/contracts/SmartGenie.sol\":11962:11975  _tempreferrer */\n      dup8\n        /* \"tronbox/contracts/SmartGenie.sol\":11956:11976  users[_tempreferrer] */\n      0xffffffffffffffffffffffffffffffffffffffff\n      and\n      0xffffffffffffffffffffffffffffffffffffffff\n      and\n      dup2\n      mstore\n      0x20\n      add\n      swap1\n      dup2\n      mstore\n      0x20\n      add\n      0x00\n      keccak256\n        /* \"tronbox/contracts/SmartGenie.sol\":11956:11987  users[_tempreferrer].referrerID */\n      0x02\n      add\n      sload\n        /* \"tronbox/contracts/SmartGenie.sol\":11947:11988  userList[users[_tempreferrer].referrerID] */\n      dup2\n      mstore\n      0x20\n      add\n      swap1\n      dup2\n      mstore\n      0x20\n      add\n      0x00\n      keccak256\n      0x00\n      swap1\n      sload\n      swap1\n      0x0100\n      exp\n      swap1\n      div\n      0xffffffffffffffffffffffffffffffffffffffff\n      and\n        /* \"tronbox/contracts/SmartGenie.sol\":11930:11988  address payer1 = userList[users[_tempreferrer].referrerID] */\n      swap1\n      pop\n        /* \"tronbox/contracts/SmartGenie.sol\":12018:12037  address secReferrer */\n      0x00\n        /* \"tronbox/contracts/SmartGenie.sol\":12040:12048  userList */\n      0x05\n        /* \"tronbox/contracts/SmartGenie.sol\":12040:12074  userList[users[payer1].referrerID] */\n      0x00\n        /* \"tronbox/contracts/SmartGenie.sol\":12049:12054  users */\n      0x04\n        /* \"tronbox/contracts/SmartGenie.sol\":12049:12062  users[payer1] */\n      0x00\n        /* \"tronbox/contracts/SmartGenie.sol\":12055:12061  payer1 */\n      dup6\n        /* \"tronbox/contracts/SmartGenie.sol\":12049:12062  users[payer1] */\n      0xffffffffffffffffffffffffffffffffffffffff\n      and\n      0xffffffffffffffffffffffffffffffffffffffff\n      and\n      dup2\n      mstore\n      0x20\n      add\n      swap1\n      dup2\n      mstore\n      0x20\n      add\n      0x00\n      keccak256\n        /* \"tronbox/contracts/SmartGenie.sol\":12049:12073  users[payer1].referrerID */\n      0x02\n      add\n      sload\n        /* \"tronbox/contracts/SmartGenie.sol\":12040:12074  userList[users[payer1].referrerID] */\n      dup2\n      mstore\n      0x20\n      add\n      swap1\n      dup2\n      mstore\n      0x20\n      add\n      0x00\n      keccak256\n      0x00\n      swap1\n      sload\n      swap1\n      0x0100\n      exp\n      swap1\n      div\n      0xffffffffffffffffffffffffffffffffffffffff\n      and\n        /* \"tronbox/contracts/SmartGenie.sol\":12018:12074  address secReferrer = userList[users[payer1].referrerID] */\n      swap1\n      pop\n        /* \"tronbox/contracts/SmartGenie.sol\":12110:12116  uint j */\n      0x00\n        /* \"tronbox/contracts/SmartGenie.sol\":12117:12118  1 */\n      0x01\n        /* \"tronbox/contracts/SmartGenie.sol\":12110:12118  uint j=1 */\n      swap1\n      pop\n        /* \"tronbox/contracts/SmartGenie.sol\":12105:12380  for (uint j=1; j< _regLevel; j++) {... */\n    tag_435:\n        /* \"tronbox/contracts/SmartGenie.sol\":12123:12132  _regLevel */\n      dup11\n        /* \"tronbox/contracts/SmartGenie.sol\":12120:12121  j */\n      dup2\n        /* \"tronbox/contracts/SmartGenie.sol\":12120:12132  j< _regLevel */\n      lt\n        /* \"tronbox/contracts/SmartGenie.sol\":12105:12380  for (uint j=1; j< _regLevel; j++) {... */\n      iszero\n      tag_436\n      jumpi\n        /* \"tronbox/contracts/SmartGenie.sol\":12187:12195  userList */\n      0x05\n        /* \"tronbox/contracts/SmartGenie.sol\":12187:12198  userList[1] */\n      0x00\n        /* \"tronbox/contracts/SmartGenie.sol\":12196:12197  1 */\n      0x01\n        /* \"tronbox/contracts/SmartGenie.sol\":12187:12198  userList[1] */\n      dup2\n      mstore\n      0x20\n      add\n      swap1\n      dup2\n      mstore\n      0x20\n      add\n      0x00\n      keccak256\n      0x00\n      swap1\n      sload\n      swap1\n      0x0100\n      exp\n      swap1\n      div\n      0xffffffffffffffffffffffffffffffffffffffff\n      and\n        /* \"tronbox/contracts/SmartGenie.sol\":12172:12198  secReferrer == userList[1] */\n      0xffffffffffffffffffffffffffffffffffffffff\n      and\n        /* \"tronbox/contracts/SmartGenie.sol\":12172:12183  secReferrer */\n      dup3\n        /* \"tronbox/contracts/SmartGenie.sol\":12172:12198  secReferrer == userList[1] */\n      0xffffffffffffffffffffffffffffffffffffffff\n      and\n      eq\n        /* \"tronbox/contracts/SmartGenie.sol\":12169:12270  if(secReferrer == userList[1]) {... */\n      iszero\n      tag_438\n      jumpi\n        /* \"tronbox/contracts/SmartGenie.sol\":12234:12239  break */\n      jump(tag_436)\n        /* \"tronbox/contracts/SmartGenie.sol\":12169:12270  if(secReferrer == userList[1]) {... */\n    tag_438:\n        /* \"tronbox/contracts/SmartGenie.sol\":12313:12321  userList */\n      0x05\n        /* \"tronbox/contracts/SmartGenie.sol\":12313:12352  userList[users[secReferrer].referrerID] */\n      0x00\n        /* \"tronbox/contracts/SmartGenie.sol\":12322:12327  users */\n      0x04\n        /* \"tronbox/contracts/SmartGenie.sol\":12322:12340  users[secReferrer] */\n      0x00\n        /* \"tronbox/contracts/SmartGenie.sol\":12328:12339  secReferrer */\n      dup6\n        /* \"tronbox/contracts/SmartGenie.sol\":12322:12340  users[secReferrer] */\n      0xffffffffffffffffffffffffffffffffffffffff\n      and\n      0xffffffffffffffffffffffffffffffffffffffff\n      and\n      dup2\n      mstore\n      0x20\n      add\n      swap1\n      dup2\n      mstore\n      0x20\n      add\n      0x00\n      keccak256\n        /* \"tronbox/contracts/SmartGenie.sol\":12322:12351  users[secReferrer].referrerID */\n      0x02\n      add\n      sload\n        /* \"tronbox/contracts/SmartGenie.sol\":12313:12352  userList[users[secReferrer].referrerID] */\n      dup2\n      mstore\n      0x20\n      add\n      swap1\n      dup2\n      mstore\n      0x20\n      add\n      0x00\n      keccak256\n      0x00\n      swap1\n      sload\n      swap1\n      0x0100\n      exp\n      swap1\n      div\n      0xffffffffffffffffffffffffffffffffffffffff\n      and\n        /* \"tronbox/contracts/SmartGenie.sol\":12299:12352  secReferrer = userList[users[secReferrer].referrerID] */\n      swap2\n      pop\n        /* \"tronbox/contracts/SmartGenie.sol\":12134:12137  j++ */\n      dup1\n      dup1\n      tag_439\n      swap1\n      tag_152\n      jump\t// in\n    tag_439:\n      swap2\n      pop\n      pop\n        /* \"tronbox/contracts/SmartGenie.sol\":12105:12380  for (uint j=1; j< _regLevel; j++) {... */\n      jump(tag_435)\n    tag_436:\n      pop\n        /* \"tronbox/contracts/SmartGenie.sol\":12473:12474  1 */\n      0x01\n        /* \"tronbox/contracts/SmartGenie.sol\":12463:12472  _regLevel */\n      dup11\n        /* \"tronbox/contracts/SmartGenie.sol\":12463:12474  _regLevel+1 */\n      tag_440\n      swap2\n      swap1\n      tag_251\n      jump\t// in\n    tag_440:\n        /* \"tronbox/contracts/SmartGenie.sol\":12443:12460  _levelEligibility */\n      dup10\n        /* \"tronbox/contracts/SmartGenie.sol\":12443:12474  _levelEligibility < _regLevel+1 */\n      lt\n        /* \"tronbox/contracts/SmartGenie.sol\":12440:13394  if(_levelEligibility < _regLevel+1) { ... */\n      iszero\n      tag_441\n      jumpi\n        /* \"tronbox/contracts/SmartGenie.sol\":12507:12512  users */\n      0x04\n        /* \"tronbox/contracts/SmartGenie.sol\":12507:12525  users[secReferrer] */\n      0x00\n        /* \"tronbox/contracts/SmartGenie.sol\":12513:12524  secReferrer */\n      dup3\n        /* \"tronbox/contracts/SmartGenie.sol\":12507:12525  users[secReferrer] */\n      0xffffffffffffffffffffffffffffffffffffffff\n      and\n      0xffffffffffffffffffffffffffffffffffffffff\n      and\n      dup2\n      mstore\n      0x20\n      add\n      swap1\n      dup2\n      mstore\n      0x20\n      add\n      0x00\n      keccak256\n        /* \"tronbox/contracts/SmartGenie.sol\":12507:12533  users[secReferrer].isExist */\n      0x00\n      add\n      0x00\n      swap1\n      sload\n      swap1\n      0x0100\n      exp\n      swap1\n      div\n      0xff\n      and\n        /* \"tronbox/contracts/SmartGenie.sol\":12506:12533  !users[secReferrer].isExist */\n      iszero\n        /* \"tronbox/contracts/SmartGenie.sol\":12506:12566  !users[secReferrer].isExist || users[payer1].referrerID == 0 */\n      dup1\n      tag_442\n      jumpi\n      pop\n        /* \"tronbox/contracts/SmartGenie.sol\":12565:12566  0 */\n      0x00\n        /* \"tronbox/contracts/SmartGenie.sol\":12537:12542  users */\n      0x04\n        /* \"tronbox/contracts/SmartGenie.sol\":12537:12550  users[payer1] */\n      0x00\n        /* \"tronbox/contracts/SmartGenie.sol\":12543:12549  payer1 */\n      dup5\n        /* \"tronbox/contracts/SmartGenie.sol\":12537:12550  users[payer1] */\n      0xffffffffffffffffffffffffffffffffffffffff\n      and\n      0xffffffffffffffffffffffffffffffffffffffff\n      and\n      dup2\n      mstore\n      0x20\n      add\n      swap1\n      dup2\n      mstore\n      0x20\n      add\n      0x00\n      keccak256\n        /* \"tronbox/contracts/SmartGenie.sol\":12537:12561  users[payer1].referrerID */\n      0x02\n      add\n      sload\n        /* \"tronbox/contracts/SmartGenie.sol\":12537:12566  users[payer1].referrerID == 0 */\n      eq\n        /* \"tronbox/contracts/SmartGenie.sol\":12506:12566  !users[secReferrer].isExist || users[payer1].referrerID == 0 */\n    tag_442:\n        /* \"tronbox/contracts/SmartGenie.sol\":12506:12628  !users[secReferrer].isExist || users[payer1].referrerID == 0 || ... */\n      dup1\n      tag_443\n      jumpi\n      pop\n        /* \"tronbox/contracts/SmartGenie.sol\":12627:12628  1 */\n      0x01\n        /* \"tronbox/contracts/SmartGenie.sol\":12599:12604  users */\n      0x04\n        /* \"tronbox/contracts/SmartGenie.sol\":12599:12612  users[payer1] */\n      0x00\n        /* \"tronbox/contracts/SmartGenie.sol\":12605:12611  payer1 */\n      dup5\n        /* \"tronbox/contracts/SmartGenie.sol\":12599:12612  users[payer1] */\n      0xffffffffffffffffffffffffffffffffffffffff\n      and\n      0xffffffffffffffffffffffffffffffffffffffff\n      and\n      dup2\n      mstore\n      0x20\n      add\n      swap1\n      dup2\n      mstore\n      0x20\n      add\n      0x00\n      keccak256\n        /* \"tronbox/contracts/SmartGenie.sol\":12599:12623  users[payer1].referrerID */\n      0x02\n      add\n      sload\n        /* \"tronbox/contracts/SmartGenie.sol\":12599:12628  users[payer1].referrerID == 1 */\n      eq\n        /* \"tronbox/contracts/SmartGenie.sol\":12506:12628  !users[secReferrer].isExist || users[payer1].referrerID == 0 || ... */\n    tag_443:\n        /* \"tronbox/contracts/SmartGenie.sol\":12503:13116  if(!users[secReferrer].isExist || users[payer1].referrerID == 0 || ... */\n      iszero\n      tag_444\n      jumpi\n        /* \"tronbox/contracts/SmartGenie.sol\":12791:12796  users */\n      0x04\n        /* \"tronbox/contracts/SmartGenie.sol\":12791:12832  users[userList[users[payer1].referrerID]] */\n      0x00\n        /* \"tronbox/contracts/SmartGenie.sol\":12797:12805  userList */\n      0x05\n        /* \"tronbox/contracts/SmartGenie.sol\":12797:12831  userList[users[payer1].referrerID] */\n      0x00\n        /* \"tronbox/contracts/SmartGenie.sol\":12806:12811  users */\n      0x04\n        /* \"tronbox/contracts/SmartGenie.sol\":12806:12819  users[payer1] */\n      0x00\n        /* \"tronbox/contracts/SmartGenie.sol\":12812:12818  payer1 */\n      dup8\n        /* \"tronbox/contracts/SmartGenie.sol\":12806:12819  users[payer1] */\n      0xffffffffffffffffffffffffffffffffffffffff\n      and\n      0xffffffffffffffffffffffffffffffffffffffff\n      and\n      dup2\n      mstore\n      0x20\n      add\n      swap1\n      dup2\n      mstore\n      0x20\n      add\n      0x00\n      keccak256\n        /* \"tronbox/contracts/SmartGenie.sol\":12806:12830  users[payer1].referrerID */\n      0x02\n      add\n      sload\n        /* \"tronbox/contracts/SmartGenie.sol\":12797:12831  userList[users[payer1].referrerID] */\n      dup2\n      mstore\n      0x20\n      add\n      swap1\n      dup2\n      mstore\n      0x20\n      add\n      0x00\n      keccak256\n      0x00\n      swap1\n      sload\n      swap1\n      0x0100\n      exp\n      swap1\n      div\n      0xffffffffffffffffffffffffffffffffffffffff\n      and\n        /* \"tronbox/contracts/SmartGenie.sol\":12791:12832  users[userList[users[payer1].referrerID]] */\n      0xffffffffffffffffffffffffffffffffffffffff\n      and\n      0xffffffffffffffffffffffffffffffffffffffff\n      and\n      dup2\n      mstore\n      0x20\n      add\n      swap1\n      dup2\n      mstore\n      0x20\n      add\n      0x00\n      keccak256\n        /* \"tronbox/contracts/SmartGenie.sol\":12791:12840  users[userList[users[payer1].referrerID]].isExist */\n      0x00\n      add\n      0x00\n      swap1\n      sload\n      swap1\n      0x0100\n      exp\n      swap1\n      div\n      0xff\n      and\n        /* \"tronbox/contracts/SmartGenie.sol\":12787:13055  if(!users[userList[users[payer1].referrerID]].isExist) { ... */\n      tag_445\n      jumpi\n        /* \"tronbox/contracts/SmartGenie.sol\":12894:12902  userList */\n      0x05\n        /* \"tronbox/contracts/SmartGenie.sol\":12894:12905  userList[1] */\n      0x00\n        /* \"tronbox/contracts/SmartGenie.sol\":12903:12904  1 */\n      0x01\n        /* \"tronbox/contracts/SmartGenie.sol\":12894:12905  userList[1] */\n      dup2\n      mstore\n      0x20\n      add\n      swap1\n      dup2\n      mstore\n      0x20\n      add\n      0x00\n      keccak256\n      0x00\n      swap1\n      sload\n      swap1\n      0x0100\n      exp\n      swap1\n      div\n      0xffffffffffffffffffffffffffffffffffffffff\n      and\n        /* \"tronbox/contracts/SmartGenie.sol\":12877:12905  _eligiblePayer = userList[1] */\n      swap6\n      pop\n        /* \"tronbox/contracts/SmartGenie.sol\":12787:13055  if(!users[userList[users[payer1].referrerID]].isExist) { ... */\n      jump(tag_446)\n    tag_445:\n        /* \"tronbox/contracts/SmartGenie.sol\":12990:12998  userList */\n      0x05\n        /* \"tronbox/contracts/SmartGenie.sol\":12990:13024  userList[users[payer1].referrerID] */\n      0x00\n        /* \"tronbox/contracts/SmartGenie.sol\":12999:13004  users */\n      0x04\n        /* \"tronbox/contracts/SmartGenie.sol\":12999:13012  users[payer1] */\n      0x00\n        /* \"tronbox/contracts/SmartGenie.sol\":13005:13011  payer1 */\n      dup6\n        /* \"tronbox/contracts/SmartGenie.sol\":12999:13012  users[payer1] */\n      0xffffffffffffffffffffffffffffffffffffffff\n      and\n      0xffffffffffffffffffffffffffffffffffffffff\n      and\n      dup2\n      mstore\n      0x20\n      add\n      swap1\n      dup2\n      mstore\n      0x20\n      add\n      0x00\n      keccak256\n        /* \"tronbox/contracts/SmartGenie.sol\":12999:13023  users[payer1].referrerID */\n      0x02\n      add\n      sload\n        /* \"tronbox/contracts/SmartGenie.sol\":12990:13024  userList[users[payer1].referrerID] */\n      dup2\n      mstore\n      0x20\n      add\n      swap1\n      dup2\n      mstore\n      0x20\n      add\n      0x00\n      keccak256\n      0x00\n      swap1\n      sload\n      swap1\n      0x0100\n      exp\n      swap1\n      div\n      0xffffffffffffffffffffffffffffffffffffffff\n      and\n        /* \"tronbox/contracts/SmartGenie.sol\":12973:13024  _eligiblePayer = userList[users[payer1].referrerID] */\n      swap6\n      pop\n        /* \"tronbox/contracts/SmartGenie.sol\":12787:13055  if(!users[userList[users[payer1].referrerID]].isExist) { ... */\n    tag_446:\n        /* \"tronbox/contracts/SmartGenie.sol\":13084:13089  break */\n      pop\n      pop\n      pop\n      jump(tag_426)\n        /* \"tronbox/contracts/SmartGenie.sol\":12503:13116  if(!users[secReferrer].isExist || users[payer1].referrerID == 0 || ... */\n    tag_444:\n        /* \"tronbox/contracts/SmartGenie.sol\":13158:13169  secReferrer */\n      dup1\n        /* \"tronbox/contracts/SmartGenie.sol\":13142:13169  _tempreferrer = secReferrer */\n      swap5\n      pop\n        /* \"tronbox/contracts/SmartGenie.sol\":13213:13224  secReferrer */\n      dup1\n        /* \"tronbox/contracts/SmartGenie.sol\":13196:13224  _eligiblePayer = secReferrer */\n      swap6\n      pop\n        /* \"tronbox/contracts/SmartGenie.sol\":12440:13394  if(_levelEligibility < _regLevel+1) { ... */\n      jump(tag_447)\n    tag_441:\n        /* \"tronbox/contracts/SmartGenie.sol\":13324:13337  _tempreferrer */\n      dup5\n        /* \"tronbox/contracts/SmartGenie.sol\":13307:13337  _eligiblePayer = _tempreferrer */\n      swap6\n      pop\n        /* \"tronbox/contracts/SmartGenie.sol\":13365:13370  break */\n      pop\n      pop\n      pop\n      jump(tag_426)\n        /* \"tronbox/contracts/SmartGenie.sol\":12440:13394  if(_levelEligibility < _regLevel+1) { ... */\n    tag_447:\n        /* \"tronbox/contracts/SmartGenie.sol\":11694:13416  {... */\n      pop\n      pop\n      pop\n        /* \"tronbox/contracts/SmartGenie.sol\":11396:11399  i++ */\n      dup1\n      dup1\n      tag_448\n      swap1\n      tag_449\n      jump\t// in\n    tag_448:\n      swap2\n      pop\n      pop\n        /* \"tronbox/contracts/SmartGenie.sol\":11378:13434  for(int i=0; i<9; i++) { ... */\n      jump(tag_425)\n    tag_426:\n      pop\n        /* \"tronbox/contracts/SmartGenie.sol\":13529:13530  1 */\n      0x01\n        /* \"tronbox/contracts/SmartGenie.sol\":13489:13494  users */\n      0x04\n        /* \"tronbox/contracts/SmartGenie.sol\":13489:13505  users[_referrer] */\n      0x00\n        /* \"tronbox/contracts/SmartGenie.sol\":13495:13504  _referrer */\n      dup10\n        /* \"tronbox/contracts/SmartGenie.sol\":13489:13505  users[_referrer] */\n      0xffffffffffffffffffffffffffffffffffffffff\n      and\n      0xffffffffffffffffffffffffffffffffffffffff\n      and\n      dup2\n      mstore\n      0x20\n      add\n      swap1\n      dup2\n      mstore\n      0x20\n      add\n      0x00\n      keccak256\n        /* \"tronbox/contracts/SmartGenie.sol\":13489:13517  users[_referrer].incomeCount */\n      0x05\n      add\n        /* \"tronbox/contracts/SmartGenie.sol\":13489:13528  users[_referrer].incomeCount[_regLevel] */\n      0x00\n        /* \"tronbox/contracts/SmartGenie.sol\":13518:13527  _regLevel */\n      dup9\n        /* \"tronbox/contracts/SmartGenie.sol\":13489:13528  users[_referrer].incomeCount[_regLevel] */\n      dup2\n      mstore\n      0x20\n      add\n      swap1\n      dup2\n      mstore\n      0x20\n      add\n      0x00\n      keccak256\n      sload\n        /* \"tronbox/contracts/SmartGenie.sol\":13489:13530  users[_referrer].incomeCount[_regLevel]+1 */\n      tag_450\n      swap2\n      swap1\n      tag_251\n      jump\t// in\n    tag_450:\n        /* \"tronbox/contracts/SmartGenie.sol\":13447:13452  users */\n      0x04\n        /* \"tronbox/contracts/SmartGenie.sol\":13447:13463  users[_referrer] */\n      0x00\n        /* \"tronbox/contracts/SmartGenie.sol\":13453:13462  _referrer */\n      dup10\n        /* \"tronbox/contracts/SmartGenie.sol\":13447:13463  users[_referrer] */\n      0xffffffffffffffffffffffffffffffffffffffff\n      and\n      0xffffffffffffffffffffffffffffffffffffffff\n      and\n      dup2\n      mstore\n      0x20\n      add\n      swap1\n      dup2\n      mstore\n      0x20\n      add\n      0x00\n      keccak256\n        /* \"tronbox/contracts/SmartGenie.sol\":13447:13475  users[_referrer].incomeCount */\n      0x05\n      add\n        /* \"tronbox/contracts/SmartGenie.sol\":13447:13486  users[_referrer].incomeCount[_regLevel] */\n      0x00\n        /* \"tronbox/contracts/SmartGenie.sol\":13476:13485  _regLevel */\n      dup9\n        /* \"tronbox/contracts/SmartGenie.sol\":13447:13486  users[_referrer].incomeCount[_regLevel] */\n      dup2\n      mstore\n      0x20\n      add\n      swap1\n      dup2\n      mstore\n      0x20\n      add\n      0x00\n      keccak256\n        /* \"tronbox/contracts/SmartGenie.sol\":13447:13530  users[_referrer].incomeCount[_regLevel] = users[_referrer].incomeCount[_regLevel]+1 */\n      dup2\n      swap1\n      sstore\n      pop\n        /* \"tronbox/contracts/SmartGenie.sol\":13553:13567  _eligiblePayer */\n      dup2\n        /* \"tronbox/contracts/SmartGenie.sol\":13569:13578  _referrer */\n      dup8\n        /* \"tronbox/contracts/SmartGenie.sol\":13545:13579  return (_eligiblePayer, _referrer) */\n      swap4\n      pop\n      swap4\n      pop\n      pop\n      pop\n        /* \"tronbox/contracts/SmartGenie.sol\":11077:13586  function findEligiblePayer(address _referrer, uint256 _regLevel, uint256 _levelEligibility) internal returns (address, address){... */\n      swap4\n      pop\n      swap4\n      swap2\n      pop\n      pop\n      jump\t// out\n        /* \"tronbox/contracts/SmartGenie.sol\":19385:20928  function isLevelUpgradeFromSameLeg(address _payer, address _existingReferrer, address _newReferrer) ... */\n    tag_381:\n        /* \"tronbox/contracts/SmartGenie.sol\":19520:19524  bool */\n      0x00\n        /* \"tronbox/contracts/SmartGenie.sol\":19535:19549  bool isSameLeg */\n      dup1\n        /* \"tronbox/contracts/SmartGenie.sol\":19552:19557  false */\n      0x00\n        /* \"tronbox/contracts/SmartGenie.sol\":19535:19557  bool isSameLeg = false */\n      swap1\n      pop\n        /* \"tronbox/contracts/SmartGenie.sol\":19576:19607  address[] memory payerReferrals */\n      0x00\n        /* \"tronbox/contracts/SmartGenie.sol\":19610:19634  getUserReferrals(_payer) */\n      tag_452\n        /* \"tronbox/contracts/SmartGenie.sol\":19627:19633  _payer */\n      dup7\n        /* \"tronbox/contracts/SmartGenie.sol\":19610:19626  getUserReferrals */\n      tag_70\n        /* \"tronbox/contracts/SmartGenie.sol\":19610:19634  getUserReferrals(_payer) */\n      jump\t// in\n    tag_452:\n        /* \"tronbox/contracts/SmartGenie.sol\":19576:19634  address[] memory payerReferrals = getUserReferrals(_payer) */\n      swap1\n      pop\n        /* \"tronbox/contracts/SmartGenie.sol\":19644:19660  address firstLeg */\n      0x00\n        /* \"tronbox/contracts/SmartGenie.sol\":19663:19680  _existingReferrer */\n      dup6\n        /* \"tronbox/contracts/SmartGenie.sol\":19644:19680  address firstLeg = _existingReferrer */\n      swap1\n      pop\n        /* \"tronbox/contracts/SmartGenie.sol\":19691:19708  address secondLeg */\n      0x00\n        /* \"tronbox/contracts/SmartGenie.sol\":19711:19723  _newReferrer */\n      dup6\n        /* \"tronbox/contracts/SmartGenie.sol\":19691:19723  address secondLeg = _newReferrer */\n      swap1\n      pop\n        /* \"tronbox/contracts/SmartGenie.sol\":19742:19763  address tempReferrer1 */\n      0x00\n        /* \"tronbox/contracts/SmartGenie.sol\":19766:19774  userList */\n      0x05\n        /* \"tronbox/contracts/SmartGenie.sol\":19766:19802  userList[users[firstLeg].referrerID] */\n      0x00\n        /* \"tronbox/contracts/SmartGenie.sol\":19775:19780  users */\n      0x04\n        /* \"tronbox/contracts/SmartGenie.sol\":19775:19790  users[firstLeg] */\n      0x00\n        /* \"tronbox/contracts/SmartGenie.sol\":19781:19789  firstLeg */\n      dup7\n        /* \"tronbox/contracts/SmartGenie.sol\":19775:19790  users[firstLeg] */\n      0xffffffffffffffffffffffffffffffffffffffff\n      and\n      0xffffffffffffffffffffffffffffffffffffffff\n      and\n      dup2\n      mstore\n      0x20\n      add\n      swap1\n      dup2\n      mstore\n      0x20\n      add\n      0x00\n      keccak256\n        /* \"tronbox/contracts/SmartGenie.sol\":19775:19801  users[firstLeg].referrerID */\n      0x02\n      add\n      sload\n        /* \"tronbox/contracts/SmartGenie.sol\":19766:19802  userList[users[firstLeg].referrerID] */\n      dup2\n      mstore\n      0x20\n      add\n      swap1\n      dup2\n      mstore\n      0x20\n      add\n      0x00\n      keccak256\n      0x00\n      swap1\n      sload\n      swap1\n      0x0100\n      exp\n      swap1\n      div\n      0xffffffffffffffffffffffffffffffffffffffff\n      and\n        /* \"tronbox/contracts/SmartGenie.sol\":19742:19802  address tempReferrer1 = userList[users[firstLeg].referrerID] */\n      swap1\n      pop\n        /* \"tronbox/contracts/SmartGenie.sol\":19817:19822  int i */\n      0x00\n        /* \"tronbox/contracts/SmartGenie.sol\":19813:20273  for(int i=0; i<12; i++) { ... */\n    tag_453:\n        /* \"tronbox/contracts/SmartGenie.sol\":19828:19830  12 */\n      0x0c\n        /* \"tronbox/contracts/SmartGenie.sol\":19826:19827  i */\n      dup2\n        /* \"tronbox/contracts/SmartGenie.sol\":19826:19830  i<12 */\n      slt\n        /* \"tronbox/contracts/SmartGenie.sol\":19813:20273  for(int i=0; i<12; i++) { ... */\n      iszero\n      tag_454\n      jumpi\n        /* \"tronbox/contracts/SmartGenie.sol\":19852:19870  bool foundReferrer */\n      0x00\n        /* \"tronbox/contracts/SmartGenie.sol\":19902:19908  uint j */\n      dup1\n        /* \"tronbox/contracts/SmartGenie.sol\":19897:20151  for (uint j=0; j<payerReferrals.length; j++) {... */\n    tag_456:\n        /* \"tronbox/contracts/SmartGenie.sol\":19914:19928  payerReferrals */\n      dup7\n        /* \"tronbox/contracts/SmartGenie.sol\":19914:19935  payerReferrals.length */\n      mload\n        /* \"tronbox/contracts/SmartGenie.sol\":19912:19913  j */\n      dup2\n        /* \"tronbox/contracts/SmartGenie.sol\":19912:19935  j<payerReferrals.length */\n      lt\n        /* \"tronbox/contracts/SmartGenie.sol\":19897:20151  for (uint j=0; j<payerReferrals.length; j++) {... */\n      iszero\n      tag_457\n      jumpi\n        /* \"tronbox/contracts/SmartGenie.sol\":19980:19994  payerReferrals */\n      dup7\n        /* \"tronbox/contracts/SmartGenie.sol\":19995:19996  j */\n      dup2\n        /* \"tronbox/contracts/SmartGenie.sol\":19980:19997  payerReferrals[j] */\n      dup2\n      mload\n      dup2\n      lt\n      tag_459\n      jumpi\n      tag_460\n      tag_148\n      jump\t// in\n    tag_460:\n    tag_459:\n      0x20\n      mul\n      0x20\n      add\n      add\n      mload\n        /* \"tronbox/contracts/SmartGenie.sol\":19963:19997  tempReferrer1 == payerReferrals[j] */\n      0xffffffffffffffffffffffffffffffffffffffff\n      and\n        /* \"tronbox/contracts/SmartGenie.sol\":19963:19976  tempReferrer1 */\n      dup5\n        /* \"tronbox/contracts/SmartGenie.sol\":19963:19997  tempReferrer1 == payerReferrals[j] */\n      0xffffffffffffffffffffffffffffffffffffffff\n      and\n      eq\n        /* \"tronbox/contracts/SmartGenie.sol\":19960:20137  if(tempReferrer1 == payerReferrals[j]) {... */\n      iszero\n      tag_461\n      jumpi\n        /* \"tronbox/contracts/SmartGenie.sol\":20032:20046  payerReferrals */\n      dup7\n        /* \"tronbox/contracts/SmartGenie.sol\":20047:20048  j */\n      dup2\n        /* \"tronbox/contracts/SmartGenie.sol\":20032:20049  payerReferrals[j] */\n      dup2\n      mload\n      dup2\n      lt\n      tag_462\n      jumpi\n      tag_463\n      tag_148\n      jump\t// in\n    tag_463:\n    tag_462:\n      0x20\n      mul\n      0x20\n      add\n      add\n      mload\n        /* \"tronbox/contracts/SmartGenie.sol\":20021:20049  firstLeg = payerReferrals[j] */\n      swap6\n      pop\n        /* \"tronbox/contracts/SmartGenie.sol\":20087:20091  true */\n      0x01\n        /* \"tronbox/contracts/SmartGenie.sol\":20071:20091  foundReferrer = true */\n      swap2\n      pop\n        /* \"tronbox/contracts/SmartGenie.sol\":20113:20118  break */\n      jump(tag_457)\n        /* \"tronbox/contracts/SmartGenie.sol\":19960:20137  if(tempReferrer1 == payerReferrals[j]) {... */\n    tag_461:\n        /* \"tronbox/contracts/SmartGenie.sol\":19937:19940  j++ */\n      dup1\n      dup1\n      tag_464\n      swap1\n      tag_152\n      jump\t// in\n    tag_464:\n      swap2\n      pop\n      pop\n        /* \"tronbox/contracts/SmartGenie.sol\":19897:20151  for (uint j=0; j<payerReferrals.length; j++) {... */\n      jump(tag_456)\n    tag_457:\n      pop\n        /* \"tronbox/contracts/SmartGenie.sol\":20167:20180  foundReferrer */\n      dup1\n        /* \"tronbox/contracts/SmartGenie.sol\":20164:20191  if(foundReferrer) { break;} */\n      iszero\n      tag_465\n      jumpi\n        /* \"tronbox/contracts/SmartGenie.sol\":20184:20189  break */\n      pop\n      jump(tag_454)\n        /* \"tronbox/contracts/SmartGenie.sol\":20164:20191  if(foundReferrer) { break;} */\n    tag_465:\n        /* \"tronbox/contracts/SmartGenie.sol\":20221:20229  userList */\n      0x05\n        /* \"tronbox/contracts/SmartGenie.sol\":20221:20262  userList[users[tempReferrer1].referrerID] */\n      0x00\n        /* \"tronbox/contracts/SmartGenie.sol\":20230:20235  users */\n      0x04\n        /* \"tronbox/contracts/SmartGenie.sol\":20230:20250  users[tempReferrer1] */\n      0x00\n        /* \"tronbox/contracts/SmartGenie.sol\":20236:20249  tempReferrer1 */\n      dup7\n        /* \"tronbox/contracts/SmartGenie.sol\":20230:20250  users[tempReferrer1] */\n      0xffffffffffffffffffffffffffffffffffffffff\n      and\n      0xffffffffffffffffffffffffffffffffffffffff\n      and\n      dup2\n      mstore\n      0x20\n      add\n      swap1\n      dup2\n      mstore\n      0x20\n      add\n      0x00\n      keccak256\n        /* \"tronbox/contracts/SmartGenie.sol\":20230:20261  users[tempReferrer1].referrerID */\n      0x02\n      add\n      sload\n        /* \"tronbox/contracts/SmartGenie.sol\":20221:20262  userList[users[tempReferrer1].referrerID] */\n      dup2\n      mstore\n      0x20\n      add\n      swap1\n      dup2\n      mstore\n      0x20\n      add\n      0x00\n      keccak256\n      0x00\n      swap1\n      sload\n      swap1\n      0x0100\n      exp\n      swap1\n      div\n      0xffffffffffffffffffffffffffffffffffffffff\n      and\n        /* \"tronbox/contracts/SmartGenie.sol\":20204:20262  tempReferrer1 =  userList[users[tempReferrer1].referrerID] */\n      swap3\n      pop\n        /* \"tronbox/contracts/SmartGenie.sol\":19837:20273  { ... */\n      pop\n        /* \"tronbox/contracts/SmartGenie.sol\":19832:19835  i++ */\n      dup1\n      dup1\n      tag_466\n      swap1\n      tag_449\n      jump\t// in\n    tag_466:\n      swap2\n      pop\n      pop\n        /* \"tronbox/contracts/SmartGenie.sol\":19813:20273  for(int i=0; i<12; i++) { ... */\n      jump(tag_453)\n    tag_454:\n      pop\n        /* \"tronbox/contracts/SmartGenie.sol\":20291:20312  address tempReferrer2 */\n      0x00\n        /* \"tronbox/contracts/SmartGenie.sol\":20315:20323  userList */\n      0x05\n        /* \"tronbox/contracts/SmartGenie.sol\":20315:20352  userList[users[secondLeg].referrerID] */\n      0x00\n        /* \"tronbox/contracts/SmartGenie.sol\":20324:20329  users */\n      0x04\n        /* \"tronbox/contracts/SmartGenie.sol\":20324:20340  users[secondLeg] */\n      0x00\n        /* \"tronbox/contracts/SmartGenie.sol\":20330:20339  secondLeg */\n      dup7\n        /* \"tronbox/contracts/SmartGenie.sol\":20324:20340  users[secondLeg] */\n      0xffffffffffffffffffffffffffffffffffffffff\n      and\n      0xffffffffffffffffffffffffffffffffffffffff\n      and\n      dup2\n      mstore\n      0x20\n      add\n      swap1\n      dup2\n      mstore\n      0x20\n      add\n      0x00\n      keccak256\n        /* \"tronbox/contracts/SmartGenie.sol\":20324:20351  users[secondLeg].referrerID */\n      0x02\n      add\n      sload\n        /* \"tronbox/contracts/SmartGenie.sol\":20315:20352  userList[users[secondLeg].referrerID] */\n      dup2\n      mstore\n      0x20\n      add\n      swap1\n      dup2\n      mstore\n      0x20\n      add\n      0x00\n      keccak256\n      0x00\n      swap1\n      sload\n      swap1\n      0x0100\n      exp\n      swap1\n      div\n      0xffffffffffffffffffffffffffffffffffffffff\n      and\n        /* \"tronbox/contracts/SmartGenie.sol\":20291:20352  address tempReferrer2 = userList[users[secondLeg].referrerID] */\n      swap1\n      pop\n        /* \"tronbox/contracts/SmartGenie.sol\":20367:20372  int i */\n      0x00\n        /* \"tronbox/contracts/SmartGenie.sol\":20363:20825  for(int i=0; i<12; i++) { ... */\n    tag_467:\n        /* \"tronbox/contracts/SmartGenie.sol\":20378:20380  12 */\n      0x0c\n        /* \"tronbox/contracts/SmartGenie.sol\":20376:20377  i */\n      dup2\n        /* \"tronbox/contracts/SmartGenie.sol\":20376:20380  i<12 */\n      slt\n        /* \"tronbox/contracts/SmartGenie.sol\":20363:20825  for(int i=0; i<12; i++) { ... */\n      iszero\n      tag_468\n      jumpi\n        /* \"tronbox/contracts/SmartGenie.sol\":20402:20420  bool foundReferrer */\n      0x00\n        /* \"tronbox/contracts/SmartGenie.sol\":20452:20458  uint j */\n      dup1\n        /* \"tronbox/contracts/SmartGenie.sol\":20447:20702  for (uint j=0; j<payerReferrals.length; j++) {... */\n    tag_470:\n        /* \"tronbox/contracts/SmartGenie.sol\":20464:20478  payerReferrals */\n      dup8\n        /* \"tronbox/contracts/SmartGenie.sol\":20464:20485  payerReferrals.length */\n      mload\n        /* \"tronbox/contracts/SmartGenie.sol\":20462:20463  j */\n      dup2\n        /* \"tronbox/contracts/SmartGenie.sol\":20462:20485  j<payerReferrals.length */\n      lt\n        /* \"tronbox/contracts/SmartGenie.sol\":20447:20702  for (uint j=0; j<payerReferrals.length; j++) {... */\n      iszero\n      tag_471\n      jumpi\n        /* \"tronbox/contracts/SmartGenie.sol\":20530:20544  payerReferrals */\n      dup8\n        /* \"tronbox/contracts/SmartGenie.sol\":20545:20546  j */\n      dup2\n        /* \"tronbox/contracts/SmartGenie.sol\":20530:20547  payerReferrals[j] */\n      dup2\n      mload\n      dup2\n      lt\n      tag_473\n      jumpi\n      tag_474\n      tag_148\n      jump\t// in\n    tag_474:\n    tag_473:\n      0x20\n      mul\n      0x20\n      add\n      add\n      mload\n        /* \"tronbox/contracts/SmartGenie.sol\":20513:20547  tempReferrer2 == payerReferrals[j] */\n      0xffffffffffffffffffffffffffffffffffffffff\n      and\n        /* \"tronbox/contracts/SmartGenie.sol\":20513:20526  tempReferrer2 */\n      dup5\n        /* \"tronbox/contracts/SmartGenie.sol\":20513:20547  tempReferrer2 == payerReferrals[j] */\n      0xffffffffffffffffffffffffffffffffffffffff\n      and\n      eq\n        /* \"tronbox/contracts/SmartGenie.sol\":20510:20688  if(tempReferrer2 == payerReferrals[j]) {... */\n      iszero\n      tag_475\n      jumpi\n        /* \"tronbox/contracts/SmartGenie.sol\":20583:20597  payerReferrals */\n      dup8\n        /* \"tronbox/contracts/SmartGenie.sol\":20598:20599  j */\n      dup2\n        /* \"tronbox/contracts/SmartGenie.sol\":20583:20600  payerReferrals[j] */\n      dup2\n      mload\n      dup2\n      lt\n      tag_476\n      jumpi\n      tag_477\n      tag_148\n      jump\t// in\n    tag_477:\n    tag_476:\n      0x20\n      mul\n      0x20\n      add\n      add\n      mload\n        /* \"tronbox/contracts/SmartGenie.sol\":20571:20600  secondLeg = payerReferrals[j] */\n      swap6\n      pop\n        /* \"tronbox/contracts/SmartGenie.sol\":20638:20642  true */\n      0x01\n        /* \"tronbox/contracts/SmartGenie.sol\":20622:20642  foundReferrer = true */\n      swap2\n      pop\n        /* \"tronbox/contracts/SmartGenie.sol\":20664:20669  break */\n      jump(tag_471)\n        /* \"tronbox/contracts/SmartGenie.sol\":20510:20688  if(tempReferrer2 == payerReferrals[j]) {... */\n    tag_475:\n        /* \"tronbox/contracts/SmartGenie.sol\":20487:20490  j++ */\n      dup1\n      dup1\n      tag_478\n      swap1\n      tag_152\n      jump\t// in\n    tag_478:\n      swap2\n      pop\n      pop\n        /* \"tronbox/contracts/SmartGenie.sol\":20447:20702  for (uint j=0; j<payerReferrals.length; j++) {... */\n      jump(tag_470)\n    tag_471:\n      pop\n        /* \"tronbox/contracts/SmartGenie.sol\":20718:20731  foundReferrer */\n      dup1\n        /* \"tronbox/contracts/SmartGenie.sol\":20715:20742  if(foundReferrer) { break;} */\n      iszero\n      tag_479\n      jumpi\n        /* \"tronbox/contracts/SmartGenie.sol\":20735:20740  break */\n      pop\n      jump(tag_468)\n        /* \"tronbox/contracts/SmartGenie.sol\":20715:20742  if(foundReferrer) { break;} */\n    tag_479:\n        /* \"tronbox/contracts/SmartGenie.sol\":20772:20780  userList */\n      0x05\n        /* \"tronbox/contracts/SmartGenie.sol\":20772:20813  userList[users[tempReferrer2].referrerID] */\n      0x00\n        /* \"tronbox/contracts/SmartGenie.sol\":20781:20786  users */\n      0x04\n        /* \"tronbox/contracts/SmartGenie.sol\":20781:20801  users[tempReferrer2] */\n      0x00\n        /* \"tronbox/contracts/SmartGenie.sol\":20787:20800  tempReferrer2 */\n      dup7\n        /* \"tronbox/contracts/SmartGenie.sol\":20781:20801  users[tempReferrer2] */\n      0xffffffffffffffffffffffffffffffffffffffff\n      and\n      0xffffffffffffffffffffffffffffffffffffffff\n      and\n      dup2\n      mstore\n      0x20\n      add\n      swap1\n      dup2\n      mstore\n      0x20\n      add\n      0x00\n      keccak256\n        /* \"tronbox/contracts/SmartGenie.sol\":20781:20812  users[tempReferrer2].referrerID */\n      0x02\n      add\n      sload\n        /* \"tronbox/contracts/SmartGenie.sol\":20772:20813  userList[users[tempReferrer2].referrerID] */\n      dup2\n      mstore\n      0x20\n      add\n      swap1\n      dup2\n      mstore\n      0x20\n      add\n      0x00\n      keccak256\n      0x00\n      swap1\n      sload\n      swap1\n      0x0100\n      exp\n      swap1\n      div\n      0xffffffffffffffffffffffffffffffffffffffff\n      and\n        /* \"tronbox/contracts/SmartGenie.sol\":20756:20813  tempReferrer2 = userList[users[tempReferrer2].referrerID] */\n      swap3\n      pop\n        /* \"tronbox/contracts/SmartGenie.sol\":20387:20825  { ... */\n      pop\n        /* \"tronbox/contracts/SmartGenie.sol\":20382:20385  i++ */\n      dup1\n      dup1\n      tag_480\n      swap1\n      tag_449\n      jump\t// in\n    tag_480:\n      swap2\n      pop\n      pop\n        /* \"tronbox/contracts/SmartGenie.sol\":20363:20825  for(int i=0; i<12; i++) { ... */\n      jump(tag_467)\n    tag_468:\n      pop\n        /* \"tronbox/contracts/SmartGenie.sol\":20858:20867  secondLeg */\n      dup3\n        /* \"tronbox/contracts/SmartGenie.sol\":20846:20867  firstLeg == secondLeg */\n      0xffffffffffffffffffffffffffffffffffffffff\n      and\n        /* \"tronbox/contracts/SmartGenie.sol\":20846:20854  firstLeg */\n      dup5\n        /* \"tronbox/contracts/SmartGenie.sol\":20846:20867  firstLeg == secondLeg */\n      0xffffffffffffffffffffffffffffffffffffffff\n      and\n      eq\n        /* \"tronbox/contracts/SmartGenie.sol\":20843:20888  if(firstLeg == secondLeg) {isSameLeg = true;} */\n      iszero\n      tag_481\n      jumpi\n        /* \"tronbox/contracts/SmartGenie.sol\":20882:20886  true */\n      0x01\n        /* \"tronbox/contracts/SmartGenie.sol\":20870:20886  isSameLeg = true */\n      swap6\n      pop\n        /* \"tronbox/contracts/SmartGenie.sol\":20843:20888  if(firstLeg == secondLeg) {isSameLeg = true;} */\n    tag_481:\n        /* \"tronbox/contracts/SmartGenie.sol\":20906:20915  isSameLeg */\n      dup6\n        /* \"tronbox/contracts/SmartGenie.sol\":20898:20915  return  isSameLeg */\n      swap7\n      pop\n      pop\n      pop\n      pop\n      pop\n      pop\n      pop\n        /* \"tronbox/contracts/SmartGenie.sol\":19385:20928  function isLevelUpgradeFromSameLeg(address _payer, address _existingReferrer, address _newReferrer) ... */\n      swap4\n      swap3\n      pop\n      pop\n      pop\n      jump\t// out\n        /* \"tronbox/contracts/SmartGenie.sol\":13592:16327  function findRenewalPayer(address _referrer, uint256 _regLevel, uint256 _levelEligibility) internal returns (address, address){... */\n    tag_390:\n        /* \"tronbox/contracts/SmartGenie.sol\":13701:13708  address */\n      0x00\n        /* \"tronbox/contracts/SmartGenie.sol\":13710:13717  address */\n      dup1\n        /* \"tronbox/contracts/SmartGenie.sol\":13731:13753  address _eligiblePayer */\n      0x00\n        /* \"tronbox/contracts/SmartGenie.sol\":13767:13788  address _tempreferrer */\n      dup1\n        /* \"tronbox/contracts/SmartGenie.sol\":13791:13800  _referrer */\n      dup7\n        /* \"tronbox/contracts/SmartGenie.sol\":13767:13800  address _tempreferrer = _referrer */\n      swap1\n      pop\n        /* \"tronbox/contracts/SmartGenie.sol\":13815:13834  address secReferrer */\n      0x00\n        /* \"tronbox/contracts/SmartGenie.sol\":13837:13850  _tempreferrer */\n      dup2\n        /* \"tronbox/contracts/SmartGenie.sol\":13815:13850  address secReferrer = _tempreferrer */\n      swap1\n      pop\n        /* \"tronbox/contracts/SmartGenie.sol\":13911:13916  int i */\n      0x00\n        /* \"tronbox/contracts/SmartGenie.sol\":13907:16175  for(int i=0; i<9; i++) { ... */\n    tag_483:\n        /* \"tronbox/contracts/SmartGenie.sol\":13922:13923  9 */\n      0x09\n        /* \"tronbox/contracts/SmartGenie.sol\":13920:13921  i */\n      dup2\n        /* \"tronbox/contracts/SmartGenie.sol\":13920:13923  i<9 */\n      slt\n        /* \"tronbox/contracts/SmartGenie.sol\":13907:16175  for(int i=0; i<9; i++) { ... */\n      iszero\n      tag_484\n      jumpi\n        /* \"tronbox/contracts/SmartGenie.sol\":14127:14128  1 */\n      0x01\n        /* \"tronbox/contracts/SmartGenie.sol\":14096:14101  users */\n      0x04\n        /* \"tronbox/contracts/SmartGenie.sol\":14096:14112  users[_referrer] */\n      0x00\n        /* \"tronbox/contracts/SmartGenie.sol\":14102:14111  _referrer */\n      dup12\n        /* \"tronbox/contracts/SmartGenie.sol\":14096:14112  users[_referrer] */\n      0xffffffffffffffffffffffffffffffffffffffff\n      and\n      0xffffffffffffffffffffffffffffffffffffffff\n      and\n      dup2\n      mstore\n      0x20\n      add\n      swap1\n      dup2\n      mstore\n      0x20\n      add\n      0x00\n      keccak256\n        /* \"tronbox/contracts/SmartGenie.sol\":14096:14123  users[_referrer].referrerID */\n      0x02\n      add\n      sload\n        /* \"tronbox/contracts/SmartGenie.sol\":14096:14128  users[_referrer].referrerID == 1 */\n      eq\n        /* \"tronbox/contracts/SmartGenie.sol\":14096:14161  users[_referrer].referrerID == 1 || _eligiblePayer == userList[1] */\n      dup1\n      tag_486\n      jumpi\n      pop\n        /* \"tronbox/contracts/SmartGenie.sol\":14150:14158  userList */\n      0x05\n        /* \"tronbox/contracts/SmartGenie.sol\":14150:14161  userList[1] */\n      0x00\n        /* \"tronbox/contracts/SmartGenie.sol\":14159:14160  1 */\n      0x01\n        /* \"tronbox/contracts/SmartGenie.sol\":14150:14161  userList[1] */\n      dup2\n      mstore\n      0x20\n      add\n      swap1\n      dup2\n      mstore\n      0x20\n      add\n      0x00\n      keccak256\n      0x00\n      swap1\n      sload\n      swap1\n      0x0100\n      exp\n      swap1\n      div\n      0xffffffffffffffffffffffffffffffffffffffff\n      and\n        /* \"tronbox/contracts/SmartGenie.sol\":14132:14161  _eligiblePayer == userList[1] */\n      0xffffffffffffffffffffffffffffffffffffffff\n      and\n        /* \"tronbox/contracts/SmartGenie.sol\":14132:14146  _eligiblePayer */\n      dup5\n        /* \"tronbox/contracts/SmartGenie.sol\":14132:14161  _eligiblePayer == userList[1] */\n      0xffffffffffffffffffffffffffffffffffffffff\n      and\n      eq\n        /* \"tronbox/contracts/SmartGenie.sol\":14096:14161  users[_referrer].referrerID == 1 || _eligiblePayer == userList[1] */\n    tag_486:\n        /* \"tronbox/contracts/SmartGenie.sol\":14093:16157  if(users[_referrer].referrerID == 1 || _eligiblePayer == userList[1]) {... */\n      iszero\n      tag_487\n      jumpi\n        /* \"tronbox/contracts/SmartGenie.sol\":14189:14194  break */\n      jump(tag_484)\n        /* \"tronbox/contracts/SmartGenie.sol\":14093:16157  if(users[_referrer].referrerID == 1 || _eligiblePayer == userList[1]) {... */\n    tag_487:\n        /* \"tronbox/contracts/SmartGenie.sol\":14254:14260  uint j */\n      0x00\n        /* \"tronbox/contracts/SmartGenie.sol\":14249:14526  for (uint j=0; j< _regLevel; j++) {... */\n    tag_489:\n        /* \"tronbox/contracts/SmartGenie.sol\":14267:14276  _regLevel */\n      dup9\n        /* \"tronbox/contracts/SmartGenie.sol\":14264:14265  j */\n      dup2\n        /* \"tronbox/contracts/SmartGenie.sol\":14264:14276  j< _regLevel */\n      lt\n        /* \"tronbox/contracts/SmartGenie.sol\":14249:14526  for (uint j=0; j< _regLevel; j++) {... */\n      iszero\n      tag_490\n      jumpi\n        /* \"tronbox/contracts/SmartGenie.sol\":14333:14341  userList */\n      0x05\n        /* \"tronbox/contracts/SmartGenie.sol\":14333:14344  userList[1] */\n      0x00\n        /* \"tronbox/contracts/SmartGenie.sol\":14342:14343  1 */\n      0x01\n        /* \"tronbox/contracts/SmartGenie.sol\":14333:14344  userList[1] */\n      dup2\n      mstore\n      0x20\n      add\n      swap1\n      dup2\n      mstore\n      0x20\n      add\n      0x00\n      keccak256\n      0x00\n      swap1\n      sload\n      swap1\n      0x0100\n      exp\n      swap1\n      div\n      0xffffffffffffffffffffffffffffffffffffffff\n      and\n        /* \"tronbox/contracts/SmartGenie.sol\":14316:14344  _tempreferrer == userList[1] */\n      0xffffffffffffffffffffffffffffffffffffffff\n      and\n        /* \"tronbox/contracts/SmartGenie.sol\":14316:14329  _tempreferrer */\n      dup5\n        /* \"tronbox/contracts/SmartGenie.sol\":14316:14344  _tempreferrer == userList[1] */\n      0xffffffffffffffffffffffffffffffffffffffff\n      and\n      eq\n        /* \"tronbox/contracts/SmartGenie.sol\":14313:14416  if(_tempreferrer == userList[1]) {... */\n      iszero\n      tag_492\n      jumpi\n        /* \"tronbox/contracts/SmartGenie.sol\":14380:14385  break */\n      jump(tag_490)\n        /* \"tronbox/contracts/SmartGenie.sol\":14313:14416  if(_tempreferrer == userList[1]) {... */\n    tag_492:\n        /* \"tronbox/contracts/SmartGenie.sol\":14459:14467  userList */\n      0x05\n        /* \"tronbox/contracts/SmartGenie.sol\":14459:14498  userList[users[secReferrer].referrerID] */\n      0x00\n        /* \"tronbox/contracts/SmartGenie.sol\":14468:14473  users */\n      0x04\n        /* \"tronbox/contracts/SmartGenie.sol\":14468:14486  users[secReferrer] */\n      0x00\n        /* \"tronbox/contracts/SmartGenie.sol\":14474:14485  secReferrer */\n      dup7\n        /* \"tronbox/contracts/SmartGenie.sol\":14468:14486  users[secReferrer] */\n      0xffffffffffffffffffffffffffffffffffffffff\n      and\n      0xffffffffffffffffffffffffffffffffffffffff\n      and\n      dup2\n      mstore\n      0x20\n      add\n      swap1\n      dup2\n      mstore\n      0x20\n      add\n      0x00\n      keccak256\n        /* \"tronbox/contracts/SmartGenie.sol\":14468:14497  users[secReferrer].referrerID */\n      0x02\n      add\n      sload\n        /* \"tronbox/contracts/SmartGenie.sol\":14459:14498  userList[users[secReferrer].referrerID] */\n      dup2\n      mstore\n      0x20\n      add\n      swap1\n      dup2\n      mstore\n      0x20\n      add\n      0x00\n      keccak256\n      0x00\n      swap1\n      sload\n      swap1\n      0x0100\n      exp\n      swap1\n      div\n      0xffffffffffffffffffffffffffffffffffffffff\n      and\n        /* \"tronbox/contracts/SmartGenie.sol\":14445:14498  secReferrer = userList[users[secReferrer].referrerID] */\n      swap3\n      pop\n        /* \"tronbox/contracts/SmartGenie.sol\":14278:14281  j++ */\n      dup1\n      dup1\n      tag_493\n      swap1\n      tag_152\n      jump\t// in\n    tag_493:\n      swap2\n      pop\n      pop\n        /* \"tronbox/contracts/SmartGenie.sol\":14249:14526  for (uint j=0; j< _regLevel; j++) {... */\n      jump(tag_489)\n    tag_490:\n      pop\n        /* \"tronbox/contracts/SmartGenie.sol\":14570:14578  userList */\n      0x05\n        /* \"tronbox/contracts/SmartGenie.sol\":14570:14581  userList[1] */\n      0x00\n        /* \"tronbox/contracts/SmartGenie.sol\":14579:14580  1 */\n      0x01\n        /* \"tronbox/contracts/SmartGenie.sol\":14570:14581  userList[1] */\n      dup2\n      mstore\n      0x20\n      add\n      swap1\n      dup2\n      mstore\n      0x20\n      add\n      0x00\n      keccak256\n      0x00\n      swap1\n      sload\n      swap1\n      0x0100\n      exp\n      swap1\n      div\n      0xffffffffffffffffffffffffffffffffffffffff\n      and\n        /* \"tronbox/contracts/SmartGenie.sol\":14555:14581  secReferrer == userList[1] */\n      0xffffffffffffffffffffffffffffffffffffffff\n      and\n        /* \"tronbox/contracts/SmartGenie.sol\":14555:14566  secReferrer */\n      dup3\n        /* \"tronbox/contracts/SmartGenie.sol\":14555:14581  secReferrer == userList[1] */\n      0xffffffffffffffffffffffffffffffffffffffff\n      and\n      eq\n        /* \"tronbox/contracts/SmartGenie.sol\":14551:16110  if( secReferrer == userList[1]) {... */\n      iszero\n      tag_494\n      jumpi\n        /* \"tronbox/contracts/SmartGenie.sol\":14630:14641  secReferrer */\n      dup2\n        /* \"tronbox/contracts/SmartGenie.sol\":14613:14641  _eligiblePayer = secReferrer */\n      swap4\n      pop\n        /* \"tronbox/contracts/SmartGenie.sol\":14671:14676  break */\n      jump(tag_484)\n        /* \"tronbox/contracts/SmartGenie.sol\":14551:16110  if( secReferrer == userList[1]) {... */\n    tag_494:\n        /* \"tronbox/contracts/SmartGenie.sol\":14739:14755  uint256 _lelevel */\n      0x00\n        /* \"tronbox/contracts/SmartGenie.sol\":14801:14802  1 */\n      0x01\n        /* \"tronbox/contracts/SmartGenie.sol\":14758:14763  users */\n      0x04\n        /* \"tronbox/contracts/SmartGenie.sol\":14758:14776  users[secReferrer] */\n      0x00\n        /* \"tronbox/contracts/SmartGenie.sol\":14764:14775  secReferrer */\n      dup6\n        /* \"tronbox/contracts/SmartGenie.sol\":14758:14776  users[secReferrer] */\n      0xffffffffffffffffffffffffffffffffffffffff\n      and\n      0xffffffffffffffffffffffffffffffffffffffff\n      and\n      dup2\n      mstore\n      0x20\n      add\n      swap1\n      dup2\n      mstore\n      0x20\n      add\n      0x00\n      keccak256\n        /* \"tronbox/contracts/SmartGenie.sol\":14758:14793  users[secReferrer].levelEligibility */\n      0x06\n      add\n        /* \"tronbox/contracts/SmartGenie.sol\":14758:14800  users[secReferrer].levelEligibility.length */\n      dup1\n      sload\n      swap1\n      pop\n        /* \"tronbox/contracts/SmartGenie.sol\":14758:14802  users[secReferrer].levelEligibility.length-1 */\n      tag_496\n      swap2\n      swap1\n      tag_204\n      jump\t// in\n    tag_496:\n        /* \"tronbox/contracts/SmartGenie.sol\":14739:14802  uint256 _lelevel = users[secReferrer].levelEligibility.length-1 */\n      swap1\n      pop\n        /* \"tronbox/contracts/SmartGenie.sol\":14852:14857  users */\n      0x04\n        /* \"tronbox/contracts/SmartGenie.sol\":14852:14870  users[secReferrer] */\n      0x00\n        /* \"tronbox/contracts/SmartGenie.sol\":14858:14869  secReferrer */\n      dup5\n        /* \"tronbox/contracts/SmartGenie.sol\":14852:14870  users[secReferrer] */\n      0xffffffffffffffffffffffffffffffffffffffff\n      and\n      0xffffffffffffffffffffffffffffffffffffffff\n      and\n      dup2\n      mstore\n      0x20\n      add\n      swap1\n      dup2\n      mstore\n      0x20\n      add\n      0x00\n      keccak256\n        /* \"tronbox/contracts/SmartGenie.sol\":14852:14887  users[secReferrer].levelEligibility */\n      0x06\n      add\n        /* \"tronbox/contracts/SmartGenie.sol\":14888:14896  _lelevel */\n      dup2\n        /* \"tronbox/contracts/SmartGenie.sol\":14852:14897  users[secReferrer].levelEligibility[_lelevel] */\n      dup2\n      sload\n      dup2\n      lt\n      tag_497\n      jumpi\n      tag_498\n      tag_148\n      jump\t// in\n    tag_498:\n    tag_497:\n      swap1\n      0x00\n      mstore\n      keccak256(0x00, 0x20)\n      add\n      sload\n        /* \"tronbox/contracts/SmartGenie.sol\":14832:14897  _levelEligibility = users[secReferrer].levelEligibility[_lelevel] */\n      swap8\n      pop\n        /* \"tronbox/contracts/SmartGenie.sol\":14989:14998  _regLevel */\n      dup9\n        /* \"tronbox/contracts/SmartGenie.sol\":14969:14986  _levelEligibility */\n      dup9\n        /* \"tronbox/contracts/SmartGenie.sol\":14969:14998  _levelEligibility < _regLevel */\n      lt\n        /* \"tronbox/contracts/SmartGenie.sol\":14966:16076  if(_levelEligibility < _regLevel) { ... */\n      iszero\n      tag_500\n      jumpi\n        /* \"tronbox/contracts/SmartGenie.sol\":15039:15044  users */\n      0x04\n        /* \"tronbox/contracts/SmartGenie.sol\":15039:15057  users[secReferrer] */\n      0x00\n        /* \"tronbox/contracts/SmartGenie.sol\":15045:15056  secReferrer */\n      dup5\n        /* \"tronbox/contracts/SmartGenie.sol\":15039:15057  users[secReferrer] */\n      0xffffffffffffffffffffffffffffffffffffffff\n      and\n      0xffffffffffffffffffffffffffffffffffffffff\n      and\n      dup2\n      mstore\n      0x20\n      add\n      swap1\n      dup2\n      mstore\n      0x20\n      add\n      0x00\n      keccak256\n        /* \"tronbox/contracts/SmartGenie.sol\":15039:15065  users[secReferrer].isExist */\n      0x00\n      add\n      0x00\n      swap1\n      sload\n      swap1\n      0x0100\n      exp\n      swap1\n      div\n      0xff\n      and\n        /* \"tronbox/contracts/SmartGenie.sol\":15038:15065  !users[secReferrer].isExist */\n      iszero\n        /* \"tronbox/contracts/SmartGenie.sol\":15038:15103  !users[secReferrer].isExist || users[secReferrer].referrerID == 0 */\n      dup1\n      tag_501\n      jumpi\n      pop\n        /* \"tronbox/contracts/SmartGenie.sol\":15102:15103  0 */\n      0x00\n        /* \"tronbox/contracts/SmartGenie.sol\":15069:15074  users */\n      0x04\n        /* \"tronbox/contracts/SmartGenie.sol\":15069:15087  users[secReferrer] */\n      0x00\n        /* \"tronbox/contracts/SmartGenie.sol\":15075:15086  secReferrer */\n      dup6\n        /* \"tronbox/contracts/SmartGenie.sol\":15069:15087  users[secReferrer] */\n      0xffffffffffffffffffffffffffffffffffffffff\n      and\n      0xffffffffffffffffffffffffffffffffffffffff\n      and\n      dup2\n      mstore\n      0x20\n      add\n      swap1\n      dup2\n      mstore\n      0x20\n      add\n      0x00\n      keccak256\n        /* \"tronbox/contracts/SmartGenie.sol\":15069:15098  users[secReferrer].referrerID */\n      0x02\n      add\n      sload\n        /* \"tronbox/contracts/SmartGenie.sol\":15069:15103  users[secReferrer].referrerID == 0 */\n      eq\n        /* \"tronbox/contracts/SmartGenie.sol\":15038:15103  !users[secReferrer].isExist || users[secReferrer].referrerID == 0 */\n    tag_501:\n        /* \"tronbox/contracts/SmartGenie.sol\":15038:15178  !users[secReferrer].isExist || users[secReferrer].referrerID == 0 || ... */\n      dup1\n      tag_502\n      jumpi\n      pop\n        /* \"tronbox/contracts/SmartGenie.sol\":15177:15178  1 */\n      0x01\n        /* \"tronbox/contracts/SmartGenie.sol\":15144:15149  users */\n      0x04\n        /* \"tronbox/contracts/SmartGenie.sol\":15144:15162  users[secReferrer] */\n      0x00\n        /* \"tronbox/contracts/SmartGenie.sol\":15150:15161  secReferrer */\n      dup6\n        /* \"tronbox/contracts/SmartGenie.sol\":15144:15162  users[secReferrer] */\n      0xffffffffffffffffffffffffffffffffffffffff\n      and\n      0xffffffffffffffffffffffffffffffffffffffff\n      and\n      dup2\n      mstore\n      0x20\n      add\n      swap1\n      dup2\n      mstore\n      0x20\n      add\n      0x00\n      keccak256\n        /* \"tronbox/contracts/SmartGenie.sol\":15144:15173  users[secReferrer].referrerID */\n      0x02\n      add\n      sload\n        /* \"tronbox/contracts/SmartGenie.sol\":15144:15178  users[secReferrer].referrerID == 1 */\n      eq\n        /* \"tronbox/contracts/SmartGenie.sol\":15038:15178  !users[secReferrer].isExist || users[secReferrer].referrerID == 0 || ... */\n    tag_502:\n        /* \"tronbox/contracts/SmartGenie.sol\":15035:15748  if(!users[secReferrer].isExist || users[secReferrer].referrerID == 0 || ... */\n      iszero\n      tag_503\n      jumpi\n        /* \"tronbox/contracts/SmartGenie.sol\":15365:15370  users */\n      0x04\n        /* \"tronbox/contracts/SmartGenie.sol\":15365:15411  users[userList[users[secReferrer].referrerID]] */\n      0x00\n        /* \"tronbox/contracts/SmartGenie.sol\":15371:15379  userList */\n      0x05\n        /* \"tronbox/contracts/SmartGenie.sol\":15371:15410  userList[users[secReferrer].referrerID] */\n      0x00\n        /* \"tronbox/contracts/SmartGenie.sol\":15380:15385  users */\n      0x04\n        /* \"tronbox/contracts/SmartGenie.sol\":15380:15398  users[secReferrer] */\n      0x00\n        /* \"tronbox/contracts/SmartGenie.sol\":15386:15397  secReferrer */\n      dup9\n        /* \"tronbox/contracts/SmartGenie.sol\":15380:15398  users[secReferrer] */\n      0xffffffffffffffffffffffffffffffffffffffff\n      and\n      0xffffffffffffffffffffffffffffffffffffffff\n      and\n      dup2\n      mstore\n      0x20\n      add\n      swap1\n      dup2\n      mstore\n      0x20\n      add\n      0x00\n      keccak256\n        /* \"tronbox/contracts/SmartGenie.sol\":15380:15409  users[secReferrer].referrerID */\n      0x02\n      add\n      sload\n        /* \"tronbox/contracts/SmartGenie.sol\":15371:15410  userList[users[secReferrer].referrerID] */\n      dup2\n      mstore\n      0x20\n      add\n      swap1\n      dup2\n      mstore\n      0x20\n      add\n      0x00\n      keccak256\n      0x00\n      swap1\n      sload\n      swap1\n      0x0100\n      exp\n      swap1\n      div\n      0xffffffffffffffffffffffffffffffffffffffff\n      and\n        /* \"tronbox/contracts/SmartGenie.sol\":15365:15411  users[userList[users[secReferrer].referrerID]] */\n      0xffffffffffffffffffffffffffffffffffffffff\n      and\n      0xffffffffffffffffffffffffffffffffffffffff\n      and\n      dup2\n      mstore\n      0x20\n      add\n      swap1\n      dup2\n      mstore\n      0x20\n      add\n      0x00\n      keccak256\n        /* \"tronbox/contracts/SmartGenie.sol\":15365:15419  users[userList[users[secReferrer].referrerID]].isExist */\n      0x00\n      add\n      0x00\n      swap1\n      sload\n      swap1\n      0x0100\n      exp\n      swap1\n      div\n      0xff\n      and\n        /* \"tronbox/contracts/SmartGenie.sol\":15361:15671  if(!users[userList[users[secReferrer].referrerID]].isExist) { ... */\n      tag_504\n      jumpi\n        /* \"tronbox/contracts/SmartGenie.sol\":15481:15489  userList */\n      0x05\n        /* \"tronbox/contracts/SmartGenie.sol\":15481:15492  userList[1] */\n      0x00\n        /* \"tronbox/contracts/SmartGenie.sol\":15490:15491  1 */\n      0x01\n        /* \"tronbox/contracts/SmartGenie.sol\":15481:15492  userList[1] */\n      dup2\n      mstore\n      0x20\n      add\n      swap1\n      dup2\n      mstore\n      0x20\n      add\n      0x00\n      keccak256\n      0x00\n      swap1\n      sload\n      swap1\n      0x0100\n      exp\n      swap1\n      div\n      0xffffffffffffffffffffffffffffffffffffffff\n      and\n        /* \"tronbox/contracts/SmartGenie.sol\":15464:15492  _eligiblePayer = userList[1] */\n      swap5\n      pop\n        /* \"tronbox/contracts/SmartGenie.sol\":15361:15671  if(!users[userList[users[secReferrer].referrerID]].isExist) { ... */\n      jump(tag_505)\n    tag_504:\n        /* \"tronbox/contracts/SmartGenie.sol\":15593:15601  userList */\n      0x05\n        /* \"tronbox/contracts/SmartGenie.sol\":15593:15632  userList[users[secReferrer].referrerID] */\n      0x00\n        /* \"tronbox/contracts/SmartGenie.sol\":15602:15607  users */\n      0x04\n        /* \"tronbox/contracts/SmartGenie.sol\":15602:15620  users[secReferrer] */\n      0x00\n        /* \"tronbox/contracts/SmartGenie.sol\":15608:15619  secReferrer */\n      dup7\n        /* \"tronbox/contracts/SmartGenie.sol\":15602:15620  users[secReferrer] */\n      0xffffffffffffffffffffffffffffffffffffffff\n      and\n      0xffffffffffffffffffffffffffffffffffffffff\n      and\n      dup2\n      mstore\n      0x20\n      add\n      swap1\n      dup2\n      mstore\n      0x20\n      add\n      0x00\n      keccak256\n        /* \"tronbox/contracts/SmartGenie.sol\":15602:15631  users[secReferrer].referrerID */\n      0x02\n      add\n      sload\n        /* \"tronbox/contracts/SmartGenie.sol\":15593:15632  userList[users[secReferrer].referrerID] */\n      dup2\n      mstore\n      0x20\n      add\n      swap1\n      dup2\n      mstore\n      0x20\n      add\n      0x00\n      keccak256\n      0x00\n      swap1\n      sload\n      swap1\n      0x0100\n      exp\n      swap1\n      div\n      0xffffffffffffffffffffffffffffffffffffffff\n      and\n        /* \"tronbox/contracts/SmartGenie.sol\":15576:15632  _eligiblePayer = userList[users[secReferrer].referrerID] */\n      swap5\n      pop\n        /* \"tronbox/contracts/SmartGenie.sol\":15361:15671  if(!users[userList[users[secReferrer].referrerID]].isExist) { ... */\n    tag_505:\n        /* \"tronbox/contracts/SmartGenie.sol\":15708:15713  break */\n      pop\n      jump(tag_484)\n        /* \"tronbox/contracts/SmartGenie.sol\":15035:15748  if(!users[secReferrer].isExist || users[secReferrer].referrerID == 0 || ... */\n    tag_503:\n        /* \"tronbox/contracts/SmartGenie.sol\":15798:15809  secReferrer */\n      dup3\n        /* \"tronbox/contracts/SmartGenie.sol\":15782:15809  _tempreferrer = secReferrer */\n      swap4\n      pop\n        /* \"tronbox/contracts/SmartGenie.sol\":15861:15872  secReferrer */\n      dup3\n        /* \"tronbox/contracts/SmartGenie.sol\":15844:15872  _eligiblePayer = secReferrer */\n      swap5\n      pop\n        /* \"tronbox/contracts/SmartGenie.sol\":14966:16076  if(_levelEligibility < _regLevel) { ... */\n      jump(tag_506)\n    tag_500:\n        /* \"tronbox/contracts/SmartGenie.sol\":15994:16005  secReferrer */\n      dup3\n        /* \"tronbox/contracts/SmartGenie.sol\":15977:16005  _eligiblePayer = secReferrer */\n      swap5\n      pop\n        /* \"tronbox/contracts/SmartGenie.sol\":16040:16045  break */\n      pop\n      jump(tag_484)\n        /* \"tronbox/contracts/SmartGenie.sol\":14966:16076  if(_levelEligibility < _regLevel) { ... */\n    tag_506:\n        /* \"tronbox/contracts/SmartGenie.sol\":14709:16110  {... */\n      pop\n        /* \"tronbox/contracts/SmartGenie.sol\":13925:13928  i++ */\n      dup1\n      dup1\n      tag_507\n      swap1\n      tag_449\n      jump\t// in\n    tag_507:\n      swap2\n      pop\n      pop\n        /* \"tronbox/contracts/SmartGenie.sol\":13907:16175  for(int i=0; i<9; i++) { ... */\n      jump(tag_483)\n    tag_484:\n      pop\n        /* \"tronbox/contracts/SmartGenie.sol\":16270:16271  1 */\n      0x01\n        /* \"tronbox/contracts/SmartGenie.sol\":16230:16235  users */\n      0x04\n        /* \"tronbox/contracts/SmartGenie.sol\":16230:16246  users[_referrer] */\n      0x00\n        /* \"tronbox/contracts/SmartGenie.sol\":16236:16245  _referrer */\n      dup11\n        /* \"tronbox/contracts/SmartGenie.sol\":16230:16246  users[_referrer] */\n      0xffffffffffffffffffffffffffffffffffffffff\n      and\n      0xffffffffffffffffffffffffffffffffffffffff\n      and\n      dup2\n      mstore\n      0x20\n      add\n      swap1\n      dup2\n      mstore\n      0x20\n      add\n      0x00\n      keccak256\n        /* \"tronbox/contracts/SmartGenie.sol\":16230:16258  users[_referrer].incomeCount */\n      0x05\n      add\n        /* \"tronbox/contracts/SmartGenie.sol\":16230:16269  users[_referrer].incomeCount[_regLevel] */\n      0x00\n        /* \"tronbox/contracts/SmartGenie.sol\":16259:16268  _regLevel */\n      dup10\n        /* \"tronbox/contracts/SmartGenie.sol\":16230:16269  users[_referrer].incomeCount[_regLevel] */\n      dup2\n      mstore\n      0x20\n      add\n      swap1\n      dup2\n      mstore\n      0x20\n      add\n      0x00\n      keccak256\n      sload\n        /* \"tronbox/contracts/SmartGenie.sol\":16230:16271  users[_referrer].incomeCount[_regLevel]+1 */\n      tag_508\n      swap2\n      swap1\n      tag_251\n      jump\t// in\n    tag_508:\n        /* \"tronbox/contracts/SmartGenie.sol\":16188:16193  users */\n      0x04\n        /* \"tronbox/contracts/SmartGenie.sol\":16188:16204  users[_referrer] */\n      0x00\n        /* \"tronbox/contracts/SmartGenie.sol\":16194:16203  _referrer */\n      dup11\n        /* \"tronbox/contracts/SmartGenie.sol\":16188:16204  users[_referrer] */\n      0xffffffffffffffffffffffffffffffffffffffff\n      and\n      0xffffffffffffffffffffffffffffffffffffffff\n      and\n      dup2\n      mstore\n      0x20\n      add\n      swap1\n      dup2\n      mstore\n      0x20\n      add\n      0x00\n      keccak256\n        /* \"tronbox/contracts/SmartGenie.sol\":16188:16216  users[_referrer].incomeCount */\n      0x05\n      add\n        /* \"tronbox/contracts/SmartGenie.sol\":16188:16227  users[_referrer].incomeCount[_regLevel] */\n      0x00\n        /* \"tronbox/contracts/SmartGenie.sol\":16217:16226  _regLevel */\n      dup10\n        /* \"tronbox/contracts/SmartGenie.sol\":16188:16227  users[_referrer].incomeCount[_regLevel] */\n      dup2\n      mstore\n      0x20\n      add\n      swap1\n      dup2\n      mstore\n      0x20\n      add\n      0x00\n      keccak256\n        /* \"tronbox/contracts/SmartGenie.sol\":16188:16271  users[_referrer].incomeCount[_regLevel] = users[_referrer].incomeCount[_regLevel]+1 */\n      dup2\n      swap1\n      sstore\n      pop\n        /* \"tronbox/contracts/SmartGenie.sol\":16294:16308  _eligiblePayer */\n      dup3\n        /* \"tronbox/contracts/SmartGenie.sol\":16310:16319  _referrer */\n      dup9\n        /* \"tronbox/contracts/SmartGenie.sol\":16286:16320  return (_eligiblePayer, _referrer) */\n      swap5\n      pop\n      swap5\n      pop\n      pop\n      pop\n      pop\n        /* \"tronbox/contracts/SmartGenie.sol\":13592:16327  function findRenewalPayer(address _referrer, uint256 _regLevel, uint256 _levelEligibility) internal returns (address, address){... */\n      swap4\n      pop\n      swap4\n      swap2\n      pop\n      pop\n      jump\t// out\n    tag_242:\n      dup3\n      dup1\n      sload\n      dup3\n      dup3\n      sstore\n      swap1\n      0x00\n      mstore\n      keccak256(0x00, 0x20)\n      swap1\n      dup2\n      add\n      swap3\n      dup3\n      iszero\n      tag_509\n      jumpi\n      swap2\n      0x20\n      mul\n      dup3\n      add\n    tag_510:\n      dup3\n      dup2\n      gt\n      iszero\n      tag_511\n      jumpi\n      dup3\n      mload\n      dup3\n      exp(0x0100, 0x00)\n      dup2\n      sload\n      dup2\n      0xffffffffffffffffffffffffffffffffffffffff\n      mul\n      not\n      and\n      swap1\n      dup4\n      0xffffffffffffffffffffffffffffffffffffffff\n      and\n      mul\n      or\n      swap1\n      sstore\n      pop\n      swap2\n      0x20\n      add\n      swap2\n      swap1\n      0x01\n      add\n      swap1\n      jump(tag_510)\n    tag_511:\n    tag_509:\n      pop\n      swap1\n      pop\n      tag_512\n      swap2\n      swap1\n      tag_513\n      jump\t// in\n    tag_512:\n      pop\n      swap1\n      jump\t// out\n    tag_247:\n      dup3\n      dup1\n      sload\n      dup3\n      dup3\n      sstore\n      swap1\n      0x00\n      mstore\n      keccak256(0x00, 0x20)\n      swap1\n      dup2\n      add\n      swap3\n      dup3\n      iszero\n      tag_514\n      jumpi\n      swap2\n      0x20\n      mul\n      dup3\n      add\n    tag_515:\n      dup3\n      dup2\n      gt\n      iszero\n      tag_516\n      jumpi\n      dup3\n      mload\n      dup3\n      sstore\n      swap2\n      0x20\n      add\n      swap2\n      swap1\n      0x01\n      add\n      swap1\n      jump(tag_515)\n    tag_516:\n    tag_514:\n      pop\n      swap1\n      pop\n      tag_517\n      swap2\n      swap1\n      tag_513\n      jump\t// in\n    tag_517:\n      pop\n      swap1\n      jump\t// out\n    tag_513:\n    tag_518:\n      dup1\n      dup3\n      gt\n      iszero\n      tag_519\n      jumpi\n      0x00\n      dup2\n      0x00\n      swap1\n      sstore\n      pop\n      0x01\n      add\n      jump(tag_518)\n    tag_519:\n      pop\n      swap1\n      jump\t// out\n        /* \"#utility.yul\":88:205   */\n    tag_521:\n        /* \"#utility.yul\":197:198   */\n      0x00\n        /* \"#utility.yul\":194:195   */\n      dup1\n        /* \"#utility.yul\":187:199   */\n      revert\n        /* \"#utility.yul\":334:411   */\n    tag_523:\n        /* \"#utility.yul\":371:378   */\n      0x00\n        /* \"#utility.yul\":400:405   */\n      dup2\n        /* \"#utility.yul\":389:405   */\n      swap1\n      pop\n        /* \"#utility.yul\":334:411   */\n      swap2\n      swap1\n      pop\n      jump\t// out\n        /* \"#utility.yul\":417:539   */\n    tag_524:\n        /* \"#utility.yul\":490:514   */\n      tag_585\n        /* \"#utility.yul\":508:513   */\n      dup2\n        /* \"#utility.yul\":490:514   */\n      tag_523\n      jump\t// in\n    tag_585:\n        /* \"#utility.yul\":483:488   */\n      dup2\n        /* \"#utility.yul\":480:515   */\n      eq\n        /* \"#utility.yul\":470:533   */\n      tag_586\n      jumpi\n        /* \"#utility.yul\":529:530   */\n      0x00\n        /* \"#utility.yul\":526:527   */\n      dup1\n        /* \"#utility.yul\":519:531   */\n      revert\n        /* \"#utility.yul\":470:533   */\n    tag_586:\n        /* \"#utility.yul\":417:539   */\n      pop\n      jump\t// out\n        /* \"#utility.yul\":545:684   */\n    tag_525:\n        /* \"#utility.yul\":591:596   */\n      0x00\n        /* \"#utility.yul\":629:635   */\n      dup2\n        /* \"#utility.yul\":616:636   */\n      calldataload\n        /* \"#utility.yul\":607:636   */\n      swap1\n      pop\n        /* \"#utility.yul\":645:678   */\n      tag_588\n        /* \"#utility.yul\":672:677   */\n      dup2\n        /* \"#utility.yul\":645:678   */\n      tag_524\n      jump\t// in\n    tag_588:\n        /* \"#utility.yul\":545:684   */\n      swap3\n      swap2\n      pop\n      pop\n      jump\t// out\n        /* \"#utility.yul\":690:1019   */\n    tag_29:\n        /* \"#utility.yul\":749:755   */\n      0x00\n        /* \"#utility.yul\":798:800   */\n      0x20\n        /* \"#utility.yul\":786:795   */\n      dup3\n        /* \"#utility.yul\":777:784   */\n      dup5\n        /* \"#utility.yul\":773:796   */\n      sub\n        /* \"#utility.yul\":769:801   */\n      slt\n        /* \"#utility.yul\":766:885   */\n      iszero\n      tag_590\n      jumpi\n        /* \"#utility.yul\":804:883   */\n      tag_591\n      tag_521\n      jump\t// in\n    tag_591:\n        /* \"#utility.yul\":766:885   */\n    tag_590:\n        /* \"#utility.yul\":924:925   */\n      0x00\n        /* \"#utility.yul\":949:1002   */\n      tag_592\n        /* \"#utility.yul\":994:1001   */\n      dup5\n        /* \"#utility.yul\":985:991   */\n      dup3\n        /* \"#utility.yul\":974:983   */\n      dup6\n        /* \"#utility.yul\":970:992   */\n      add\n        /* \"#utility.yul\":949:1002   */\n      tag_525\n      jump\t// in\n    tag_592:\n        /* \"#utility.yul\":939:1002   */\n      swap2\n      pop\n        /* \"#utility.yul\":895:1012   */\n      pop\n        /* \"#utility.yul\":690:1019   */\n      swap3\n      swap2\n      pop\n      pop\n      jump\t// out\n        /* \"#utility.yul\":1025:1151   */\n    tag_526:\n        /* \"#utility.yul\":1062:1069   */\n      0x00\n        /* \"#utility.yul\":1102:1144   */\n      0xffffffffffffffffffffffffffffffffffffffff\n        /* \"#utility.yul\":1095:1100   */\n      dup3\n        /* \"#utility.yul\":1091:1145   */\n      and\n        /* \"#utility.yul\":1080:1145   */\n      swap1\n      pop\n        /* \"#utility.yul\":1025:1151   */\n      swap2\n      swap1\n      pop\n      jump\t// out\n        /* \"#utility.yul\":1157:1253   */\n    tag_527:\n        /* \"#utility.yul\":1194:1201   */\n      0x00\n        /* \"#utility.yul\":1223:1247   */\n      tag_595\n        /* \"#utility.yul\":1241:1246   */\n      dup3\n        /* \"#utility.yul\":1223:1247   */\n      tag_526\n      jump\t// in\n    tag_595:\n        /* \"#utility.yul\":1212:1247   */\n      swap1\n      pop\n        /* \"#utility.yul\":1157:1253   */\n      swap2\n      swap1\n      pop\n      jump\t// out\n        /* \"#utility.yul\":1259:1377   */\n    tag_528:\n        /* \"#utility.yul\":1346:1370   */\n      tag_597\n        /* \"#utility.yul\":1364:1369   */\n      dup2\n        /* \"#utility.yul\":1346:1370   */\n      tag_527\n      jump\t// in\n    tag_597:\n        /* \"#utility.yul\":1341:1344   */\n      dup3\n        /* \"#utility.yul\":1334:1371   */\n      mstore\n        /* \"#utility.yul\":1259:1377   */\n      pop\n      pop\n      jump\t// out\n        /* \"#utility.yul\":1383:1605   */\n    tag_32:\n        /* \"#utility.yul\":1476:1480   */\n      0x00\n        /* \"#utility.yul\":1514:1516   */\n      0x20\n        /* \"#utility.yul\":1503:1512   */\n      dup3\n        /* \"#utility.yul\":1499:1517   */\n      add\n        /* \"#utility.yul\":1491:1517   */\n      swap1\n      pop\n        /* \"#utility.yul\":1527:1598   */\n      tag_599\n        /* \"#utility.yul\":1595:1596   */\n      0x00\n        /* \"#utility.yul\":1584:1593   */\n      dup4\n        /* \"#utility.yul\":1580:1597   */\n      add\n        /* \"#utility.yul\":1571:1577   */\n      dup5\n        /* \"#utility.yul\":1527:1598   */\n      tag_528\n      jump\t// in\n    tag_599:\n        /* \"#utility.yul\":1383:1605   */\n      swap3\n      swap2\n      pop\n      pop\n      jump\t// out\n        /* \"#utility.yul\":1611:1697   */\n    tag_529:\n        /* \"#utility.yul\":1646:1653   */\n      0x00\n        /* \"#utility.yul\":1686:1690   */\n      0xff\n        /* \"#utility.yul\":1679:1684   */\n      dup3\n        /* \"#utility.yul\":1675:1691   */\n      and\n        /* \"#utility.yul\":1664:1691   */\n      swap1\n      pop\n        /* \"#utility.yul\":1611:1697   */\n      swap2\n      swap1\n      pop\n      jump\t// out\n        /* \"#utility.yul\":1703:1821   */\n    tag_530:\n        /* \"#utility.yul\":1774:1796   */\n      tag_602\n        /* \"#utility.yul\":1790:1795   */\n      dup2\n        /* \"#utility.yul\":1774:1796   */\n      tag_529\n      jump\t// in\n    tag_602:\n        /* \"#utility.yul\":1767:1772   */\n      dup2\n        /* \"#utility.yul\":1764:1797   */\n      eq\n        /* \"#utility.yul\":1754:1815   */\n      tag_603\n      jumpi\n        /* \"#utility.yul\":1811:1812   */\n      0x00\n        /* \"#utility.yul\":1808:1809   */\n      dup1\n        /* \"#utility.yul\":1801:1813   */\n      revert\n        /* \"#utility.yul\":1754:1815   */\n    tag_603:\n        /* \"#utility.yul\":1703:1821   */\n      pop\n      jump\t// out\n        /* \"#utility.yul\":1827:1962   */\n    tag_531:\n        /* \"#utility.yul\":1871:1876   */\n      0x00\n        /* \"#utility.yul\":1909:1915   */\n      dup2\n        /* \"#utility.yul\":1896:1916   */\n      calldataload\n        /* \"#utility.yul\":1887:1916   */\n      swap1\n      pop\n        /* \"#utility.yul\":1925:1956   */\n      tag_605\n        /* \"#utility.yul\":1950:1955   */\n      dup2\n        /* \"#utility.yul\":1925:1956   */\n      tag_530\n      jump\t// in\n    tag_605:\n        /* \"#utility.yul\":1827:1962   */\n      swap3\n      swap2\n      pop\n      pop\n      jump\t// out\n        /* \"#utility.yul\":1968:2293   */\n    tag_36:\n        /* \"#utility.yul\":2025:2031   */\n      0x00\n        /* \"#utility.yul\":2074:2076   */\n      0x20\n        /* \"#utility.yul\":2062:2071   */\n      dup3\n        /* \"#utility.yul\":2053:2060   */\n      dup5\n        /* \"#utility.yul\":2049:2072   */\n      sub\n        /* \"#utility.yul\":2045:2077   */\n      slt\n        /* \"#utility.yul\":2042:2161   */\n      iszero\n      tag_607\n      jumpi\n        /* \"#utility.yul\":2080:2159   */\n      tag_608\n      tag_521\n      jump\t// in\n    tag_608:\n        /* \"#utility.yul\":2042:2161   */\n    tag_607:\n        /* \"#utility.yul\":2200:2201   */\n      0x00\n        /* \"#utility.yul\":2225:2276   */\n      tag_609\n        /* \"#utility.yul\":2268:2275   */\n      dup5\n        /* \"#utility.yul\":2259:2265   */\n      dup3\n        /* \"#utility.yul\":2248:2257   */\n      dup6\n        /* \"#utility.yul\":2244:2266   */\n      add\n        /* \"#utility.yul\":2225:2276   */\n      tag_531\n      jump\t// in\n    tag_609:\n        /* \"#utility.yul\":2215:2276   */\n      swap2\n      pop\n        /* \"#utility.yul\":2171:2286   */\n      pop\n        /* \"#utility.yul\":1968:2293   */\n      swap3\n      swap2\n      pop\n      pop\n      jump\t// out\n        /* \"#utility.yul\":2299:2417   */\n    tag_532:\n        /* \"#utility.yul\":2386:2410   */\n      tag_611\n        /* \"#utility.yul\":2404:2409   */\n      dup2\n        /* \"#utility.yul\":2386:2410   */\n      tag_523\n      jump\t// in\n    tag_611:\n        /* \"#utility.yul\":2381:2384   */\n      dup3\n        /* \"#utility.yul\":2374:2411   */\n      mstore\n        /* \"#utility.yul\":2299:2417   */\n      pop\n      pop\n      jump\t// out\n        /* \"#utility.yul\":2423:2645   */\n    tag_39:\n        /* \"#utility.yul\":2516:2520   */\n      0x00\n        /* \"#utility.yul\":2554:2556   */\n      0x20\n        /* \"#utility.yul\":2543:2552   */\n      dup3\n        /* \"#utility.yul\":2539:2557   */\n      add\n        /* \"#utility.yul\":2531:2557   */\n      swap1\n      pop\n        /* \"#utility.yul\":2567:2638   */\n      tag_613\n        /* \"#utility.yul\":2635:2636   */\n      0x00\n        /* \"#utility.yul\":2624:2633   */\n      dup4\n        /* \"#utility.yul\":2620:2637   */\n      add\n        /* \"#utility.yul\":2611:2617   */\n      dup5\n        /* \"#utility.yul\":2567:2638   */\n      tag_532\n      jump\t// in\n    tag_613:\n        /* \"#utility.yul\":2423:2645   */\n      swap3\n      swap2\n      pop\n      pop\n      jump\t// out\n        /* \"#utility.yul\":2651:2773   */\n    tag_533:\n        /* \"#utility.yul\":2724:2748   */\n      tag_615\n        /* \"#utility.yul\":2742:2747   */\n      dup2\n        /* \"#utility.yul\":2724:2748   */\n      tag_527\n      jump\t// in\n    tag_615:\n        /* \"#utility.yul\":2717:2722   */\n      dup2\n        /* \"#utility.yul\":2714:2749   */\n      eq\n        /* \"#utility.yul\":2704:2767   */\n      tag_616\n      jumpi\n        /* \"#utility.yul\":2763:2764   */\n      0x00\n        /* \"#utility.yul\":2760:2761   */\n      dup1\n        /* \"#utility.yul\":2753:2765   */\n      revert\n        /* \"#utility.yul\":2704:2767   */\n    tag_616:\n        /* \"#utility.yul\":2651:2773   */\n      pop\n      jump\t// out\n        /* \"#utility.yul\":2779:2918   */\n    tag_534:\n        /* \"#utility.yul\":2825:2830   */\n      0x00\n        /* \"#utility.yul\":2863:2869   */\n      dup2\n        /* \"#utility.yul\":2850:2870   */\n      calldataload\n        /* \"#utility.yul\":2841:2870   */\n      swap1\n      pop\n        /* \"#utility.yul\":2879:2912   */\n      tag_618\n        /* \"#utility.yul\":2906:2911   */\n      dup2\n        /* \"#utility.yul\":2879:2912   */\n      tag_533\n      jump\t// in\n    tag_618:\n        /* \"#utility.yul\":2779:2918   */\n      swap3\n      swap2\n      pop\n      pop\n      jump\t// out\n        /* \"#utility.yul\":2924:3398   */\n    tag_52:\n        /* \"#utility.yul\":2992:2998   */\n      0x00\n        /* \"#utility.yul\":3000:3006   */\n      dup1\n        /* \"#utility.yul\":3049:3051   */\n      0x40\n        /* \"#utility.yul\":3037:3046   */\n      dup4\n        /* \"#utility.yul\":3028:3035   */\n      dup6\n        /* \"#utility.yul\":3024:3047   */\n      sub\n        /* \"#utility.yul\":3020:3052   */\n      slt\n        /* \"#utility.yul\":3017:3136   */\n      iszero\n      tag_620\n      jumpi\n        /* \"#utility.yul\":3055:3134   */\n      tag_621\n      tag_521\n      jump\t// in\n    tag_621:\n        /* \"#utility.yul\":3017:3136   */\n    tag_620:\n        /* \"#utility.yul\":3175:3176   */\n      0x00\n        /* \"#utility.yul\":3200:3253   */\n      tag_622\n        /* \"#utility.yul\":3245:3252   */\n      dup6\n        /* \"#utility.yul\":3236:3242   */\n      dup3\n        /* \"#utility.yul\":3225:3234   */\n      dup7\n        /* \"#utility.yul\":3221:3243   */\n      add\n        /* \"#utility.yul\":3200:3253   */\n      tag_525\n      jump\t// in\n    tag_622:\n        /* \"#utility.yul\":3190:3253   */\n      swap3\n      pop\n        /* \"#utility.yul\":3146:3263   */\n      pop\n        /* \"#utility.yul\":3302:3304   */\n      0x20\n        /* \"#utility.yul\":3328:3381   */\n      tag_623\n        /* \"#utility.yul\":3373:3380   */\n      dup6\n        /* \"#utility.yul\":3364:3370   */\n      dup3\n        /* \"#utility.yul\":3353:3362   */\n      dup7\n        /* \"#utility.yul\":3349:3371   */\n      add\n        /* \"#utility.yul\":3328:3381   */\n      tag_534\n      jump\t// in\n    tag_623:\n        /* \"#utility.yul\":3318:3381   */\n      swap2\n      pop\n        /* \"#utility.yul\":3273:3391   */\n      pop\n        /* \"#utility.yul\":2924:3398   */\n      swap3\n      pop\n      swap3\n      swap1\n      pop\n      jump\t// out\n        /* \"#utility.yul\":3404:3494   */\n    tag_535:\n        /* \"#utility.yul\":3438:3445   */\n      0x00\n        /* \"#utility.yul\":3481:3486   */\n      dup2\n        /* \"#utility.yul\":3474:3487   */\n      iszero\n        /* \"#utility.yul\":3467:3488   */\n      iszero\n        /* \"#utility.yul\":3456:3488   */\n      swap1\n      pop\n        /* \"#utility.yul\":3404:3494   */\n      swap2\n      swap1\n      pop\n      jump\t// out\n        /* \"#utility.yul\":3500:3609   */\n    tag_536:\n        /* \"#utility.yul\":3581:3602   */\n      tag_626\n        /* \"#utility.yul\":3596:3601   */\n      dup2\n        /* \"#utility.yul\":3581:3602   */\n      tag_535\n      jump\t// in\n    tag_626:\n        /* \"#utility.yul\":3576:3579   */\n      dup3\n        /* \"#utility.yul\":3569:3603   */\n      mstore\n        /* \"#utility.yul\":3500:3609   */\n      pop\n      pop\n      jump\t// out\n        /* \"#utility.yul\":3615:3825   */\n    tag_60:\n        /* \"#utility.yul\":3702:3706   */\n      0x00\n        /* \"#utility.yul\":3740:3742   */\n      0x20\n        /* \"#utility.yul\":3729:3738   */\n      dup3\n        /* \"#utility.yul\":3725:3743   */\n      add\n        /* \"#utility.yul\":3717:3743   */\n      swap1\n      pop\n        /* \"#utility.yul\":3753:3818   */\n      tag_628\n        /* \"#utility.yul\":3815:3816   */\n      0x00\n        /* \"#utility.yul\":3804:3813   */\n      dup4\n        /* \"#utility.yul\":3800:3817   */\n      add\n        /* \"#utility.yul\":3791:3797   */\n      dup5\n        /* \"#utility.yul\":3753:3818   */\n      tag_536\n      jump\t// in\n    tag_628:\n        /* \"#utility.yul\":3615:3825   */\n      swap3\n      swap2\n      pop\n      pop\n      jump\t// out\n        /* \"#utility.yul\":3831:4160   */\n    tag_69:\n        /* \"#utility.yul\":3890:3896   */\n      0x00\n        /* \"#utility.yul\":3939:3941   */\n      0x20\n        /* \"#utility.yul\":3927:3936   */\n      dup3\n        /* \"#utility.yul\":3918:3925   */\n      dup5\n        /* \"#utility.yul\":3914:3937   */\n      sub\n        /* \"#utility.yul\":3910:3942   */\n      slt\n        /* \"#utility.yul\":3907:4026   */\n      iszero\n      tag_630\n      jumpi\n        /* \"#utility.yul\":3945:4024   */\n      tag_631\n      tag_521\n      jump\t// in\n    tag_631:\n        /* \"#utility.yul\":3907:4026   */\n    tag_630:\n        /* \"#utility.yul\":4065:4066   */\n      0x00\n        /* \"#utility.yul\":4090:4143   */\n      tag_632\n        /* \"#utility.yul\":4135:4142   */\n      dup5\n        /* \"#utility.yul\":4126:4132   */\n      dup3\n        /* \"#utility.yul\":4115:4124   */\n      dup6\n        /* \"#utility.yul\":4111:4133   */\n      add\n        /* \"#utility.yul\":4090:4143   */\n      tag_534\n      jump\t// in\n    tag_632:\n        /* \"#utility.yul\":4080:4143   */\n      swap2\n      pop\n        /* \"#utility.yul\":4036:4153   */\n      pop\n        /* \"#utility.yul\":3831:4160   */\n      swap3\n      swap2\n      pop\n      pop\n      jump\t// out\n        /* \"#utility.yul\":4166:4280   */\n    tag_537:\n        /* \"#utility.yul\":4233:4239   */\n      0x00\n        /* \"#utility.yul\":4267:4272   */\n      dup2\n        /* \"#utility.yul\":4261:4273   */\n      mload\n        /* \"#utility.yul\":4251:4273   */\n      swap1\n      pop\n        /* \"#utility.yul\":4166:4280   */\n      swap2\n      swap1\n      pop\n      jump\t// out\n        /* \"#utility.yul\":4286:4470   */\n    tag_538:\n        /* \"#utility.yul\":4385:4396   */\n      0x00\n        /* \"#utility.yul\":4419:4425   */\n      dup3\n        /* \"#utility.yul\":4414:4417   */\n      dup3\n        /* \"#utility.yul\":4407:4426   */\n      mstore\n        /* \"#utility.yul\":4459:4463   */\n      0x20\n        /* \"#utility.yul\":4454:4457   */\n      dup3\n        /* \"#utility.yul\":4450:4464   */\n      add\n        /* \"#utility.yul\":4435:4464   */\n      swap1\n      pop\n        /* \"#utility.yul\":4286:4470   */\n      swap3\n      swap2\n      pop\n      pop\n      jump\t// out\n        /* \"#utility.yul\":4476:4608   */\n    tag_539:\n        /* \"#utility.yul\":4543:4547   */\n      0x00\n        /* \"#utility.yul\":4566:4569   */\n      dup2\n        /* \"#utility.yul\":4558:4569   */\n      swap1\n      pop\n        /* \"#utility.yul\":4596:4600   */\n      0x20\n        /* \"#utility.yul\":4591:4594   */\n      dup3\n        /* \"#utility.yul\":4587:4601   */\n      add\n        /* \"#utility.yul\":4579:4601   */\n      swap1\n      pop\n        /* \"#utility.yul\":4476:4608   */\n      swap2\n      swap1\n      pop\n      jump\t// out\n        /* \"#utility.yul\":4614:4722   */\n    tag_540:\n        /* \"#utility.yul\":4691:4715   */\n      tag_637\n        /* \"#utility.yul\":4709:4714   */\n      dup2\n        /* \"#utility.yul\":4691:4715   */\n      tag_527\n      jump\t// in\n    tag_637:\n        /* \"#utility.yul\":4686:4689   */\n      dup3\n        /* \"#utility.yul\":4679:4716   */\n      mstore\n        /* \"#utility.yul\":4614:4722   */\n      pop\n      pop\n      jump\t// out\n        /* \"#utility.yul\":4728:4907   */\n    tag_541:\n        /* \"#utility.yul\":4797:4807   */\n      0x00\n        /* \"#utility.yul\":4818:4864   */\n      tag_639\n        /* \"#utility.yul\":4860:4863   */\n      dup4\n        /* \"#utility.yul\":4852:4858   */\n      dup4\n        /* \"#utility.yul\":4818:4864   */\n      tag_540\n      jump\t// in\n    tag_639:\n        /* \"#utility.yul\":4896:4900   */\n      0x20\n        /* \"#utility.yul\":4891:4894   */\n      dup4\n        /* \"#utility.yul\":4887:4901   */\n      add\n        /* \"#utility.yul\":4873:4901   */\n      swap1\n      pop\n        /* \"#utility.yul\":4728:4907   */\n      swap3\n      swap2\n      pop\n      pop\n      jump\t// out\n        /* \"#utility.yul\":4913:5026   */\n    tag_542:\n        /* \"#utility.yul\":4983:4987   */\n      0x00\n        /* \"#utility.yul\":5015:5019   */\n      0x20\n        /* \"#utility.yul\":5010:5013   */\n      dup3\n        /* \"#utility.yul\":5006:5020   */\n      add\n        /* \"#utility.yul\":4998:5020   */\n      swap1\n      pop\n        /* \"#utility.yul\":4913:5026   */\n      swap2\n      swap1\n      pop\n      jump\t// out\n        /* \"#utility.yul\":5062:5794   */\n    tag_543:\n        /* \"#utility.yul\":5181:5184   */\n      0x00\n        /* \"#utility.yul\":5210:5264   */\n      tag_642\n        /* \"#utility.yul\":5258:5263   */\n      dup3\n        /* \"#utility.yul\":5210:5264   */\n      tag_537\n      jump\t// in\n    tag_642:\n        /* \"#utility.yul\":5280:5366   */\n      tag_643\n        /* \"#utility.yul\":5359:5365   */\n      dup2\n        /* \"#utility.yul\":5354:5357   */\n      dup6\n        /* \"#utility.yul\":5280:5366   */\n      tag_538\n      jump\t// in\n    tag_643:\n        /* \"#utility.yul\":5273:5366   */\n      swap4\n      pop\n        /* \"#utility.yul\":5390:5446   */\n      tag_644\n        /* \"#utility.yul\":5440:5445   */\n      dup4\n        /* \"#utility.yul\":5390:5446   */\n      tag_539\n      jump\t// in\n    tag_644:\n        /* \"#utility.yul\":5469:5476   */\n      dup1\n        /* \"#utility.yul\":5500:5501   */\n      0x00\n        /* \"#utility.yul\":5485:5769   */\n    tag_645:\n        /* \"#utility.yul\":5510:5516   */\n      dup4\n        /* \"#utility.yul\":5507:5508   */\n      dup2\n        /* \"#utility.yul\":5504:5517   */\n      lt\n        /* \"#utility.yul\":5485:5769   */\n      iszero\n      tag_647\n      jumpi\n        /* \"#utility.yul\":5586:5592   */\n      dup2\n        /* \"#utility.yul\":5580:5593   */\n      mload\n        /* \"#utility.yul\":5613:5676   */\n      tag_648\n        /* \"#utility.yul\":5672:5675   */\n      dup9\n        /* \"#utility.yul\":5657:5670   */\n      dup3\n        /* \"#utility.yul\":5613:5676   */\n      tag_541\n      jump\t// in\n    tag_648:\n        /* \"#utility.yul\":5606:5676   */\n      swap8\n      pop\n        /* \"#utility.yul\":5699:5759   */\n      tag_649\n        /* \"#utility.yul\":5752:5758   */\n      dup4\n        /* \"#utility.yul\":5699:5759   */\n      tag_542\n      jump\t// in\n    tag_649:\n        /* \"#utility.yul\":5689:5759   */\n      swap3\n      pop\n        /* \"#utility.yul\":5545:5769   */\n      pop\n        /* \"#utility.yul\":5532:5533   */\n      0x01\n        /* \"#utility.yul\":5529:5530   */\n      dup2\n        /* \"#utility.yul\":5525:5534   */\n      add\n        /* \"#utility.yul\":5520:5534   */\n      swap1\n      pop\n        /* \"#utility.yul\":5485:5769   */\n      jump(tag_645)\n    tag_647:\n        /* \"#utility.yul\":5489:5503   */\n      pop\n        /* \"#utility.yul\":5785:5788   */\n      dup6\n        /* \"#utility.yul\":5778:5788   */\n      swap4\n      pop\n        /* \"#utility.yul\":5186:5794   */\n      pop\n      pop\n      pop\n        /* \"#utility.yul\":5062:5794   */\n      swap3\n      swap2\n      pop\n      pop\n      jump\t// out\n        /* \"#utility.yul\":5800:6173   */\n    tag_72:\n        /* \"#utility.yul\":5943:5947   */\n      0x00\n        /* \"#utility.yul\":5981:5983   */\n      0x20\n        /* \"#utility.yul\":5970:5979   */\n      dup3\n        /* \"#utility.yul\":5966:5984   */\n      add\n        /* \"#utility.yul\":5958:5984   */\n      swap1\n      pop\n        /* \"#utility.yul\":6030:6039   */\n      dup2\n        /* \"#utility.yul\":6024:6028   */\n      dup2\n        /* \"#utility.yul\":6020:6040   */\n      sub\n        /* \"#utility.yul\":6016:6017   */\n      0x00\n        /* \"#utility.yul\":6005:6014   */\n      dup4\n        /* \"#utility.yul\":6001:6018   */\n      add\n        /* \"#utility.yul\":5994:6041   */\n      mstore\n        /* \"#utility.yul\":6058:6166   */\n      tag_651\n        /* \"#utility.yul\":6161:6165   */\n      dup2\n        /* \"#utility.yul\":6152:6158   */\n      dup5\n        /* \"#utility.yul\":6058:6166   */\n      tag_543\n      jump\t// in\n    tag_651:\n        /* \"#utility.yul\":6050:6166   */\n      swap1\n      pop\n        /* \"#utility.yul\":5800:6173   */\n      swap3\n      swap2\n      pop\n      pop\n      jump\t// out\n        /* \"#utility.yul\":6179:6291   */\n    tag_544:\n        /* \"#utility.yul\":6262:6284   */\n      tag_653\n        /* \"#utility.yul\":6278:6283   */\n      dup2\n        /* \"#utility.yul\":6262:6284   */\n      tag_529\n      jump\t// in\n    tag_653:\n        /* \"#utility.yul\":6257:6260   */\n      dup3\n        /* \"#utility.yul\":6250:6285   */\n      mstore\n        /* \"#utility.yul\":6179:6291   */\n      pop\n      pop\n      jump\t// out\n        /* \"#utility.yul\":6297:6511   */\n    tag_78:\n        /* \"#utility.yul\":6386:6390   */\n      0x00\n        /* \"#utility.yul\":6424:6426   */\n      0x20\n        /* \"#utility.yul\":6413:6422   */\n      dup3\n        /* \"#utility.yul\":6409:6427   */\n      add\n        /* \"#utility.yul\":6401:6427   */\n      swap1\n      pop\n        /* \"#utility.yul\":6437:6504   */\n      tag_655\n        /* \"#utility.yul\":6501:6502   */\n      0x00\n        /* \"#utility.yul\":6490:6499   */\n      dup4\n        /* \"#utility.yul\":6486:6503   */\n      add\n        /* \"#utility.yul\":6477:6483   */\n      dup5\n        /* \"#utility.yul\":6437:6504   */\n      tag_544\n      jump\t// in\n    tag_655:\n        /* \"#utility.yul\":6297:6511   */\n      swap3\n      swap2\n      pop\n      pop\n      jump\t// out\n        /* \"#utility.yul\":6517:6631   */\n    tag_545:\n        /* \"#utility.yul\":6584:6590   */\n      0x00\n        /* \"#utility.yul\":6618:6623   */\n      dup2\n        /* \"#utility.yul\":6612:6624   */\n      mload\n        /* \"#utility.yul\":6602:6624   */\n      swap1\n      pop\n        /* \"#utility.yul\":6517:6631   */\n      swap2\n      swap1\n      pop\n      jump\t// out\n        /* \"#utility.yul\":6637:6821   */\n    tag_546:\n        /* \"#utility.yul\":6736:6747   */\n      0x00\n        /* \"#utility.yul\":6770:6776   */\n      dup3\n        /* \"#utility.yul\":6765:6768   */\n      dup3\n        /* \"#utility.yul\":6758:6777   */\n      mstore\n        /* \"#utility.yul\":6810:6814   */\n      0x20\n        /* \"#utility.yul\":6805:6808   */\n      dup3\n        /* \"#utility.yul\":6801:6815   */\n      add\n        /* \"#utility.yul\":6786:6815   */\n      swap1\n      pop\n        /* \"#utility.yul\":6637:6821   */\n      swap3\n      swap2\n      pop\n      pop\n      jump\t// out\n        /* \"#utility.yul\":6827:6959   */\n    tag_547:\n        /* \"#utility.yul\":6894:6898   */\n      0x00\n        /* \"#utility.yul\":6917:6920   */\n      dup2\n        /* \"#utility.yul\":6909:6920   */\n      swap1\n      pop\n        /* \"#utility.yul\":6947:6951   */\n      0x20\n        /* \"#utility.yul\":6942:6945   */\n      dup3\n        /* \"#utility.yul\":6938:6952   */\n      add\n        /* \"#utility.yul\":6930:6952   */\n      swap1\n      pop\n        /* \"#utility.yul\":6827:6959   */\n      swap2\n      swap1\n      pop\n      jump\t// out\n        /* \"#utility.yul\":6965:7073   */\n    tag_548:\n        /* \"#utility.yul\":7042:7066   */\n      tag_660\n        /* \"#utility.yul\":7060:7065   */\n      dup2\n        /* \"#utility.yul\":7042:7066   */\n      tag_523\n      jump\t// in\n    tag_660:\n        /* \"#utility.yul\":7037:7040   */\n      dup3\n        /* \"#utility.yul\":7030:7067   */\n      mstore\n        /* \"#utility.yul\":6965:7073   */\n      pop\n      pop\n      jump\t// out\n        /* \"#utility.yul\":7079:7258   */\n    tag_549:\n        /* \"#utility.yul\":7148:7158   */\n      0x00\n        /* \"#utility.yul\":7169:7215   */\n      tag_662\n        /* \"#utility.yul\":7211:7214   */\n      dup4\n        /* \"#utility.yul\":7203:7209   */\n      dup4\n        /* \"#utility.yul\":7169:7215   */\n      tag_548\n      jump\t// in\n    tag_662:\n        /* \"#utility.yul\":7247:7251   */\n      0x20\n        /* \"#utility.yul\":7242:7245   */\n      dup4\n        /* \"#utility.yul\":7238:7252   */\n      add\n        /* \"#utility.yul\":7224:7252   */\n      swap1\n      pop\n        /* \"#utility.yul\":7079:7258   */\n      swap3\n      swap2\n      pop\n      pop\n      jump\t// out\n        /* \"#utility.yul\":7264:7377   */\n    tag_550:\n        /* \"#utility.yul\":7334:7338   */\n      0x00\n        /* \"#utility.yul\":7366:7370   */\n      0x20\n        /* \"#utility.yul\":7361:7364   */\n      dup3\n        /* \"#utility.yul\":7357:7371   */\n      add\n        /* \"#utility.yul\":7349:7371   */\n      swap1\n      pop\n        /* \"#utility.yul\":7264:7377   */\n      swap2\n      swap1\n      pop\n      jump\t// out\n        /* \"#utility.yul\":7413:8145   */\n    tag_551:\n        /* \"#utility.yul\":7532:7535   */\n      0x00\n        /* \"#utility.yul\":7561:7615   */\n      tag_665\n        /* \"#utility.yul\":7609:7614   */\n      dup3\n        /* \"#utility.yul\":7561:7615   */\n      tag_545\n      jump\t// in\n    tag_665:\n        /* \"#utility.yul\":7631:7717   */\n      tag_666\n        /* \"#utility.yul\":7710:7716   */\n      dup2\n        /* \"#utility.yul\":7705:7708   */\n      dup6\n        /* \"#utility.yul\":7631:7717   */\n      tag_546\n      jump\t// in\n    tag_666:\n        /* \"#utility.yul\":7624:7717   */\n      swap4\n      pop\n        /* \"#utility.yul\":7741:7797   */\n      tag_667\n        /* \"#utility.yul\":7791:7796   */\n      dup4\n        /* \"#utility.yul\":7741:7797   */\n      tag_547\n      jump\t// in\n    tag_667:\n        /* \"#utility.yul\":7820:7827   */\n      dup1\n        /* \"#utility.yul\":7851:7852   */\n      0x00\n        /* \"#utility.yul\":7836:8120   */\n    tag_668:\n        /* \"#utility.yul\":7861:7867   */\n      dup4\n        /* \"#utility.yul\":7858:7859   */\n      dup2\n        /* \"#utility.yul\":7855:7868   */\n      lt\n        /* \"#utility.yul\":7836:8120   */\n      iszero\n      tag_670\n      jumpi\n        /* \"#utility.yul\":7937:7943   */\n      dup2\n        /* \"#utility.yul\":7931:7944   */\n      mload\n        /* \"#utility.yul\":7964:8027   */\n      tag_671\n        /* \"#utility.yul\":8023:8026   */\n      dup9\n        /* \"#utility.yul\":8008:8021   */\n      dup3\n        /* \"#utility.yul\":7964:8027   */\n      tag_549\n      jump\t// in\n    tag_671:\n        /* \"#utility.yul\":7957:8027   */\n      swap8\n      pop\n        /* \"#utility.yul\":8050:8110   */\n      tag_672\n        /* \"#utility.yul\":8103:8109   */\n      dup4\n        /* \"#utility.yul\":8050:8110   */\n      tag_550\n      jump\t// in\n    tag_672:\n        /* \"#utility.yul\":8040:8110   */\n      swap3\n      pop\n        /* \"#utility.yul\":7896:8120   */\n      pop\n        /* \"#utility.yul\":7883:7884   */\n      0x01\n        /* \"#utility.yul\":7880:7881   */\n      dup2\n        /* \"#utility.yul\":7876:7885   */\n      add\n        /* \"#utility.yul\":7871:7885   */\n      swap1\n      pop\n        /* \"#utility.yul\":7836:8120   */\n      jump(tag_668)\n    tag_670:\n        /* \"#utility.yul\":7840:7854   */\n      pop\n        /* \"#utility.yul\":8136:8139   */\n      dup6\n        /* \"#utility.yul\":8129:8139   */\n      swap4\n      pop\n        /* \"#utility.yul\":7537:8145   */\n      pop\n      pop\n      pop\n        /* \"#utility.yul\":7413:8145   */\n      swap3\n      swap2\n      pop\n      pop\n      jump\t// out\n        /* \"#utility.yul\":8151:8524   */\n    tag_84:\n        /* \"#utility.yul\":8294:8298   */\n      0x00\n        /* \"#utility.yul\":8332:8334   */\n      0x20\n        /* \"#utility.yul\":8321:8330   */\n      dup3\n        /* \"#utility.yul\":8317:8335   */\n      add\n        /* \"#utility.yul\":8309:8335   */\n      swap1\n      pop\n        /* \"#utility.yul\":8381:8390   */\n      dup2\n        /* \"#utility.yul\":8375:8379   */\n      dup2\n        /* \"#utility.yul\":8371:8391   */\n      sub\n        /* \"#utility.yul\":8367:8368   */\n      0x00\n        /* \"#utility.yul\":8356:8365   */\n      dup4\n        /* \"#utility.yul\":8352:8369   */\n      add\n        /* \"#utility.yul\":8345:8392   */\n      mstore\n        /* \"#utility.yul\":8409:8517   */\n      tag_674\n        /* \"#utility.yul\":8512:8516   */\n      dup2\n        /* \"#utility.yul\":8503:8509   */\n      dup5\n        /* \"#utility.yul\":8409:8517   */\n      tag_551\n      jump\t// in\n    tag_674:\n        /* \"#utility.yul\":8401:8517   */\n      swap1\n      pop\n        /* \"#utility.yul\":8151:8524   */\n      swap3\n      swap2\n      pop\n      pop\n      jump\t// out\n        /* \"#utility.yul\":8530:9071   */\n    tag_116:\n        /* \"#utility.yul\":8701:8705   */\n      0x00\n        /* \"#utility.yul\":8739:8742   */\n      0x80\n        /* \"#utility.yul\":8728:8737   */\n      dup3\n        /* \"#utility.yul\":8724:8743   */\n      add\n        /* \"#utility.yul\":8716:8743   */\n      swap1\n      pop\n        /* \"#utility.yul\":8753:8818   */\n      tag_676\n        /* \"#utility.yul\":8815:8816   */\n      0x00\n        /* \"#utility.yul\":8804:8813   */\n      dup4\n        /* \"#utility.yul\":8800:8817   */\n      add\n        /* \"#utility.yul\":8791:8797   */\n      dup8\n        /* \"#utility.yul\":8753:8818   */\n      tag_536\n      jump\t// in\n    tag_676:\n        /* \"#utility.yul\":8828:8900   */\n      tag_677\n        /* \"#utility.yul\":8896:8898   */\n      0x20\n        /* \"#utility.yul\":8885:8894   */\n      dup4\n        /* \"#utility.yul\":8881:8899   */\n      add\n        /* \"#utility.yul\":8872:8878   */\n      dup7\n        /* \"#utility.yul\":8828:8900   */\n      tag_532\n      jump\t// in\n    tag_677:\n        /* \"#utility.yul\":8910:8982   */\n      tag_678\n        /* \"#utility.yul\":8978:8980   */\n      0x40\n        /* \"#utility.yul\":8967:8976   */\n      dup4\n        /* \"#utility.yul\":8963:8981   */\n      add\n        /* \"#utility.yul\":8954:8960   */\n      dup6\n        /* \"#utility.yul\":8910:8982   */\n      tag_532\n      jump\t// in\n    tag_678:\n        /* \"#utility.yul\":8992:9064   */\n      tag_679\n        /* \"#utility.yul\":9060:9062   */\n      0x60\n        /* \"#utility.yul\":9049:9058   */\n      dup4\n        /* \"#utility.yul\":9045:9063   */\n      add\n        /* \"#utility.yul\":9036:9042   */\n      dup5\n        /* \"#utility.yul\":8992:9064   */\n      tag_532\n      jump\t// in\n    tag_679:\n        /* \"#utility.yul\":8530:9071   */\n      swap6\n      swap5\n      pop\n      pop\n      pop\n      pop\n      pop\n      jump\t// out\n        /* \"#utility.yul\":9077:9551   */\n    tag_120:\n        /* \"#utility.yul\":9145:9151   */\n      0x00\n        /* \"#utility.yul\":9153:9159   */\n      dup1\n        /* \"#utility.yul\":9202:9204   */\n      0x40\n        /* \"#utility.yul\":9190:9199   */\n      dup4\n        /* \"#utility.yul\":9181:9188   */\n      dup6\n        /* \"#utility.yul\":9177:9200   */\n      sub\n        /* \"#utility.yul\":9173:9205   */\n      slt\n        /* \"#utility.yul\":9170:9289   */\n      iszero\n      tag_681\n      jumpi\n        /* \"#utility.yul\":9208:9287   */\n      tag_682\n      tag_521\n      jump\t// in\n    tag_682:\n        /* \"#utility.yul\":9170:9289   */\n    tag_681:\n        /* \"#utility.yul\":9328:9329   */\n      0x00\n        /* \"#utility.yul\":9353:9406   */\n      tag_683\n        /* \"#utility.yul\":9398:9405   */\n      dup6\n        /* \"#utility.yul\":9389:9395   */\n      dup3\n        /* \"#utility.yul\":9378:9387   */\n      dup7\n        /* \"#utility.yul\":9374:9396   */\n      add\n        /* \"#utility.yul\":9353:9406   */\n      tag_534\n      jump\t// in\n    tag_683:\n        /* \"#utility.yul\":9343:9406   */\n      swap3\n      pop\n        /* \"#utility.yul\":9299:9416   */\n      pop\n        /* \"#utility.yul\":9455:9457   */\n      0x20\n        /* \"#utility.yul\":9481:9534   */\n      tag_684\n        /* \"#utility.yul\":9526:9533   */\n      dup6\n        /* \"#utility.yul\":9517:9523   */\n      dup3\n        /* \"#utility.yul\":9506:9515   */\n      dup7\n        /* \"#utility.yul\":9502:9524   */\n      add\n        /* \"#utility.yul\":9481:9534   */\n      tag_525\n      jump\t// in\n    tag_684:\n        /* \"#utility.yul\":9471:9534   */\n      swap2\n      pop\n        /* \"#utility.yul\":9426:9544   */\n      pop\n        /* \"#utility.yul\":9077:9551   */\n      swap3\n      pop\n      swap3\n      swap1\n      pop\n      jump\t// out\n        /* \"#utility.yul\":9557:9726   */\n    tag_552:\n        /* \"#utility.yul\":9641:9652   */\n      0x00\n        /* \"#utility.yul\":9675:9681   */\n      dup3\n        /* \"#utility.yul\":9670:9673   */\n      dup3\n        /* \"#utility.yul\":9663:9682   */\n      mstore\n        /* \"#utility.yul\":9715:9719   */\n      0x20\n        /* \"#utility.yul\":9710:9713   */\n      dup3\n        /* \"#utility.yul\":9706:9720   */\n      add\n        /* \"#utility.yul\":9691:9720   */\n      swap1\n      pop\n        /* \"#utility.yul\":9557:9726   */\n      swap3\n      swap2\n      pop\n      pop\n      jump\t// out\n        /* \"#utility.yul\":9732:9903   */\n    tag_553:\n        /* \"#utility.yul\":9872:9895   */\n      0x496e76616c69642077616c6c657420496e6465783b0000000000000000000000\n        /* \"#utility.yul\":9868:9869   */\n      0x00\n        /* \"#utility.yul\":9860:9866   */\n      dup3\n        /* \"#utility.yul\":9856:9870   */\n      add\n        /* \"#utility.yul\":9849:9896   */\n      mstore\n        /* \"#utility.yul\":9732:9903   */\n      pop\n      jump\t// out\n        /* \"#utility.yul\":9909:10275   */\n    tag_554:\n        /* \"#utility.yul\":10051:10054   */\n      0x00\n        /* \"#utility.yul\":10072:10139   */\n      tag_688\n        /* \"#utility.yul\":10136:10138   */\n      0x15\n        /* \"#utility.yul\":10131:10134   */\n      dup4\n        /* \"#utility.yul\":10072:10139   */\n      tag_552\n      jump\t// in\n    tag_688:\n        /* \"#utility.yul\":10065:10139   */\n      swap2\n      pop\n        /* \"#utility.yul\":10148:10241   */\n      tag_689\n        /* \"#utility.yul\":10237:10240   */\n      dup3\n        /* \"#utility.yul\":10148:10241   */\n      tag_553\n      jump\t// in\n    tag_689:\n        /* \"#utility.yul\":10266:10268   */\n      0x20\n        /* \"#utility.yul\":10261:10264   */\n      dup3\n        /* \"#utility.yul\":10257:10269   */\n      add\n        /* \"#utility.yul\":10250:10269   */\n      swap1\n      pop\n        /* \"#utility.yul\":9909:10275   */\n      swap2\n      swap1\n      pop\n      jump\t// out\n        /* \"#utility.yul\":10281:10700   */\n    tag_141:\n        /* \"#utility.yul\":10447:10451   */\n      0x00\n        /* \"#utility.yul\":10485:10487   */\n      0x20\n        /* \"#utility.yul\":10474:10483   */\n      dup3\n        /* \"#utility.yul\":10470:10488   */\n      add\n        /* \"#utility.yul\":10462:10488   */\n      swap1\n      pop\n        /* \"#utility.yul\":10534:10543   */\n      dup2\n        /* \"#utility.yul\":10528:10532   */\n      dup2\n        /* \"#utility.yul\":10524:10544   */\n      sub\n        /* \"#utility.yul\":10520:10521   */\n      0x00\n        /* \"#utility.yul\":10509:10518   */\n      dup4\n        /* \"#utility.yul\":10505:10522   */\n      add\n        /* \"#utility.yul\":10498:10545   */\n      mstore\n        /* \"#utility.yul\":10562:10693   */\n      tag_691\n        /* \"#utility.yul\":10688:10692   */\n      dup2\n        /* \"#utility.yul\":10562:10693   */\n      tag_554\n      jump\t// in\n    tag_691:\n        /* \"#utility.yul\":10554:10693   */\n      swap1\n      pop\n        /* \"#utility.yul\":10281:10700   */\n      swap2\n      swap1\n      pop\n      jump\t// out\n        /* \"#utility.yul\":10706:10886   */\n    tag_148:\n        /* \"#utility.yul\":10754:10831   */\n      0x4e487b7100000000000000000000000000000000000000000000000000000000\n        /* \"#utility.yul\":10751:10752   */\n      0x00\n        /* \"#utility.yul\":10744:10832   */\n      mstore\n        /* \"#utility.yul\":10851:10855   */\n      0x32\n        /* \"#utility.yul\":10848:10849   */\n      0x04\n        /* \"#utility.yul\":10841:10856   */\n      mstore\n        /* \"#utility.yul\":10875:10879   */\n      0x24\n        /* \"#utility.yul\":10872:10873   */\n      0x00\n        /* \"#utility.yul\":10865:10880   */\n      revert\n        /* \"#utility.yul\":10892:11072   */\n    tag_555:\n        /* \"#utility.yul\":10940:11017   */\n      0x4e487b7100000000000000000000000000000000000000000000000000000000\n        /* \"#utility.yul\":10937:10938   */\n      0x00\n        /* \"#utility.yul\":10930:11018   */\n      mstore\n        /* \"#utility.yul\":11037:11041   */\n      0x11\n        /* \"#utility.yul\":11034:11035   */\n      0x04\n        /* \"#utility.yul\":11027:11042   */\n      mstore\n        /* \"#utility.yul\":11061:11065   */\n      0x24\n        /* \"#utility.yul\":11058:11059   */\n      0x00\n        /* \"#utility.yul\":11051:11066   */\n      revert\n        /* \"#utility.yul\":11078:11311   */\n    tag_152:\n        /* \"#utility.yul\":11117:11120   */\n      0x00\n        /* \"#utility.yul\":11140:11164   */\n      tag_695\n        /* \"#utility.yul\":11158:11163   */\n      dup3\n        /* \"#utility.yul\":11140:11164   */\n      tag_523\n      jump\t// in\n    tag_695:\n        /* \"#utility.yul\":11131:11164   */\n      swap2\n      pop\n        /* \"#utility.yul\":11186:11252   */\n      0xffffffffffffffffffffffffffffffffffffffffffffffffffffffffffffffff\n        /* \"#utility.yul\":11179:11184   */\n      dup3\n        /* \"#utility.yul\":11176:11253   */\n      eq\n        /* \"#utility.yul\":11173:11276   */\n      iszero\n      tag_696\n      jumpi\n        /* \"#utility.yul\":11256:11274   */\n      tag_697\n      tag_555\n      jump\t// in\n    tag_697:\n        /* \"#utility.yul\":11173:11276   */\n    tag_696:\n        /* \"#utility.yul\":11303:11304   */\n      0x01\n        /* \"#utility.yul\":11296:11301   */\n      dup3\n        /* \"#utility.yul\":11292:11305   */\n      add\n        /* \"#utility.yul\":11285:11305   */\n      swap1\n      pop\n        /* \"#utility.yul\":11078:11311   */\n      swap2\n      swap1\n      pop\n      jump\t// out\n        /* \"#utility.yul\":11317:11481   */\n    tag_556:\n        /* \"#utility.yul\":11457:11473   */\n      0x496e76616c69642063616c6c6572000000000000000000000000000000000000\n        /* \"#utility.yul\":11453:11454   */\n      0x00\n        /* \"#utility.yul\":11445:11451   */\n      dup3\n        /* \"#utility.yul\":11441:11455   */\n      add\n        /* \"#utility.yul\":11434:11474   */\n      mstore\n        /* \"#utility.yul\":11317:11481   */\n      pop\n      jump\t// out\n        /* \"#utility.yul\":11487:11853   */\n    tag_557:\n        /* \"#utility.yul\":11629:11632   */\n      0x00\n        /* \"#utility.yul\":11650:11717   */\n      tag_700\n        /* \"#utility.yul\":11714:11716   */\n      0x0e\n        /* \"#utility.yul\":11709:11712   */\n      dup4\n        /* \"#utility.yul\":11650:11717   */\n      tag_552\n      jump\t// in\n    tag_700:\n        /* \"#utility.yul\":11643:11717   */\n      swap2\n      pop\n        /* \"#utility.yul\":11726:11819   */\n      tag_701\n        /* \"#utility.yul\":11815:11818   */\n      dup3\n        /* \"#utility.yul\":11726:11819   */\n      tag_556\n      jump\t// in\n    tag_701:\n        /* \"#utility.yul\":11844:11846   */\n      0x20\n        /* \"#utility.yul\":11839:11842   */\n      dup3\n        /* \"#utility.yul\":11835:11847   */\n      add\n        /* \"#utility.yul\":11828:11847   */\n      swap1\n      pop\n        /* \"#utility.yul\":11487:11853   */\n      swap2\n      swap1\n      pop\n      jump\t// out\n        /* \"#utility.yul\":11859:12278   */\n    tag_155:\n        /* \"#utility.yul\":12025:12029   */\n      0x00\n        /* \"#utility.yul\":12063:12065   */\n      0x20\n        /* \"#utility.yul\":12052:12061   */\n      dup3\n        /* \"#utility.yul\":12048:12066   */\n      add\n        /* \"#utility.yul\":12040:12066   */\n      swap1\n      pop\n        /* \"#utility.yul\":12112:12121   */\n      dup2\n        /* \"#utility.yul\":12106:12110   */\n      dup2\n        /* \"#utility.yul\":12102:12122   */\n      sub\n        /* \"#utility.yul\":12098:12099   */\n      0x00\n        /* \"#utility.yul\":12087:12096   */\n      dup4\n        /* \"#utility.yul\":12083:12100   */\n      add\n        /* \"#utility.yul\":12076:12123   */\n      mstore\n        /* \"#utility.yul\":12140:12271   */\n      tag_703\n        /* \"#utility.yul\":12266:12270   */\n      dup2\n        /* \"#utility.yul\":12140:12271   */\n      tag_557\n      jump\t// in\n    tag_703:\n        /* \"#utility.yul\":12132:12271   */\n      swap1\n      pop\n        /* \"#utility.yul\":11859:12278   */\n      swap2\n      swap1\n      pop\n      jump\t// out\n        /* \"#utility.yul\":12284:12448   */\n    tag_558:\n        /* \"#utility.yul\":12424:12440   */\n      0x696e76616c69642063616c6c6572000000000000000000000000000000000000\n        /* \"#utility.yul\":12420:12421   */\n      0x00\n        /* \"#utility.yul\":12412:12418   */\n      dup3\n        /* \"#utility.yul\":12408:12422   */\n      add\n        /* \"#utility.yul\":12401:12441   */\n      mstore\n        /* \"#utility.yul\":12284:12448   */\n      pop\n      jump\t// out\n        /* \"#utility.yul\":12454:12820   */\n    tag_559:\n        /* \"#utility.yul\":12596:12599   */\n      0x00\n        /* \"#utility.yul\":12617:12684   */\n      tag_706\n        /* \"#utility.yul\":12681:12683   */\n      0x0e\n        /* \"#utility.yul\":12676:12679   */\n      dup4\n        /* \"#utility.yul\":12617:12684   */\n      tag_552\n      jump\t// in\n    tag_706:\n        /* \"#utility.yul\":12610:12684   */\n      swap2\n      pop\n        /* \"#utility.yul\":12693:12786   */\n      tag_707\n        /* \"#utility.yul\":12782:12785   */\n      dup3\n        /* \"#utility.yul\":12693:12786   */\n      tag_558\n      jump\t// in\n    tag_707:\n        /* \"#utility.yul\":12811:12813   */\n      0x20\n        /* \"#utility.yul\":12806:12809   */\n      dup3\n        /* \"#utility.yul\":12802:12814   */\n      add\n        /* \"#utility.yul\":12795:12814   */\n      swap1\n      pop\n        /* \"#utility.yul\":12454:12820   */\n      swap2\n      swap1\n      pop\n      jump\t// out\n        /* \"#utility.yul\":12826:13245   */\n    tag_163:\n        /* \"#utility.yul\":12992:12996   */\n      0x00\n        /* \"#utility.yul\":13030:13032   */\n      0x20\n        /* \"#utility.yul\":13019:13028   */\n      dup3\n        /* \"#utility.yul\":13015:13033   */\n      add\n        /* \"#utility.yul\":13007:13033   */\n      swap1\n      pop\n        /* \"#utility.yul\":13079:13088   */\n      dup2\n        /* \"#utility.yul\":13073:13077   */\n      dup2\n        /* \"#utility.yul\":13069:13089   */\n      sub\n        /* \"#utility.yul\":13065:13066   */\n      0x00\n        /* \"#utility.yul\":13054:13063   */\n      dup4\n        /* \"#utility.yul\":13050:13067   */\n      add\n        /* \"#utility.yul\":13043:13090   */\n      mstore\n        /* \"#utility.yul\":13107:13238   */\n      tag_709\n        /* \"#utility.yul\":13233:13237   */\n      dup2\n        /* \"#utility.yul\":13107:13238   */\n      tag_559\n      jump\t// in\n    tag_709:\n        /* \"#utility.yul\":13099:13238   */\n      swap1\n      pop\n        /* \"#utility.yul\":12826:13245   */\n      swap2\n      swap1\n      pop\n      jump\t// out\n        /* \"#utility.yul\":13251:13599   */\n    tag_168:\n        /* \"#utility.yul\":13291:13298   */\n      0x00\n        /* \"#utility.yul\":13314:13334   */\n      tag_711\n        /* \"#utility.yul\":13332:13333   */\n      dup3\n        /* \"#utility.yul\":13314:13334   */\n      tag_523\n      jump\t// in\n    tag_711:\n        /* \"#utility.yul\":13309:13334   */\n      swap2\n      pop\n        /* \"#utility.yul\":13348:13368   */\n      tag_712\n        /* \"#utility.yul\":13366:13367   */\n      dup4\n        /* \"#utility.yul\":13348:13368   */\n      tag_523\n      jump\t// in\n    tag_712:\n        /* \"#utility.yul\":13343:13368   */\n      swap3\n      pop\n        /* \"#utility.yul\":13536:13537   */\n      dup2\n        /* \"#utility.yul\":13468:13534   */\n      0xffffffffffffffffffffffffffffffffffffffffffffffffffffffffffffffff\n        /* \"#utility.yul\":13464:13538   */\n      div\n        /* \"#utility.yul\":13461:13462   */\n      dup4\n        /* \"#utility.yul\":13458:13539   */\n      gt\n        /* \"#utility.yul\":13453:13454   */\n      dup3\n        /* \"#utility.yul\":13446:13455   */\n      iszero\n        /* \"#utility.yul\":13439:13456   */\n      iszero\n        /* \"#utility.yul\":13435:13540   */\n      and\n        /* \"#utility.yul\":13432:13563   */\n      iszero\n      tag_713\n      jumpi\n        /* \"#utility.yul\":13543:13561   */\n      tag_714\n      tag_555\n      jump\t// in\n    tag_714:\n        /* \"#utility.yul\":13432:13563   */\n    tag_713:\n        /* \"#utility.yul\":13591:13592   */\n      dup3\n        /* \"#utility.yul\":13588:13589   */\n      dup3\n        /* \"#utility.yul\":13584:13593   */\n      mul\n        /* \"#utility.yul\":13573:13593   */\n      swap1\n      pop\n        /* \"#utility.yul\":13251:13599   */\n      swap3\n      swap2\n      pop\n      pop\n      jump\t// out\n        /* \"#utility.yul\":13605:13785   */\n    tag_560:\n        /* \"#utility.yul\":13653:13730   */\n      0x4e487b7100000000000000000000000000000000000000000000000000000000\n        /* \"#utility.yul\":13650:13651   */\n      0x00\n        /* \"#utility.yul\":13643:13731   */\n      mstore\n        /* \"#utility.yul\":13750:13754   */\n      0x12\n        /* \"#utility.yul\":13747:13748   */\n      0x04\n        /* \"#utility.yul\":13740:13755   */\n      mstore\n        /* \"#utility.yul\":13774:13778   */\n      0x24\n        /* \"#utility.yul\":13771:13772   */\n      0x00\n        /* \"#utility.yul\":13764:13779   */\n      revert\n        /* \"#utility.yul\":13791:13976   */\n    tag_170:\n        /* \"#utility.yul\":13831:13832   */\n      0x00\n        /* \"#utility.yul\":13848:13868   */\n      tag_717\n        /* \"#utility.yul\":13866:13867   */\n      dup3\n        /* \"#utility.yul\":13848:13868   */\n      tag_523\n      jump\t// in\n    tag_717:\n        /* \"#utility.yul\":13843:13868   */\n      swap2\n      pop\n        /* \"#utility.yul\":13882:13902   */\n      tag_718\n        /* \"#utility.yul\":13900:13901   */\n      dup4\n        /* \"#utility.yul\":13882:13902   */\n      tag_523\n      jump\t// in\n    tag_718:\n        /* \"#utility.yul\":13877:13902   */\n      swap3\n      pop\n        /* \"#utility.yul\":13921:13922   */\n      dup3\n        /* \"#utility.yul\":13911:13946   */\n      tag_719\n      jumpi\n        /* \"#utility.yul\":13926:13944   */\n      tag_720\n      tag_560\n      jump\t// in\n    tag_720:\n        /* \"#utility.yul\":13911:13946   */\n    tag_719:\n        /* \"#utility.yul\":13968:13969   */\n      dup3\n        /* \"#utility.yul\":13965:13966   */\n      dup3\n        /* \"#utility.yul\":13961:13970   */\n      div\n        /* \"#utility.yul\":13956:13970   */\n      swap1\n      pop\n        /* \"#utility.yul\":13791:13976   */\n      swap3\n      swap2\n      pop\n      pop\n      jump\t// out\n        /* \"#utility.yul\":13982:14173   */\n    tag_204:\n        /* \"#utility.yul\":14022:14026   */\n      0x00\n        /* \"#utility.yul\":14042:14062   */\n      tag_722\n        /* \"#utility.yul\":14060:14061   */\n      dup3\n        /* \"#utility.yul\":14042:14062   */\n      tag_523\n      jump\t// in\n    tag_722:\n        /* \"#utility.yul\":14037:14062   */\n      swap2\n      pop\n        /* \"#utility.yul\":14076:14096   */\n      tag_723\n        /* \"#utility.yul\":14094:14095   */\n      dup4\n        /* \"#utility.yul\":14076:14096   */\n      tag_523\n      jump\t// in\n    tag_723:\n        /* \"#utility.yul\":14071:14096   */\n      swap3\n      pop\n        /* \"#utility.yul\":14115:14116   */\n      dup3\n        /* \"#utility.yul\":14112:14113   */\n      dup3\n        /* \"#utility.yul\":14109:14117   */\n      lt\n        /* \"#utility.yul\":14106:14140   */\n      iszero\n      tag_724\n      jumpi\n        /* \"#utility.yul\":14120:14138   */\n      tag_725\n      tag_555\n      jump\t// in\n    tag_725:\n        /* \"#utility.yul\":14106:14140   */\n    tag_724:\n        /* \"#utility.yul\":14165:14166   */\n      dup3\n        /* \"#utility.yul\":14162:14163   */\n      dup3\n        /* \"#utility.yul\":14158:14167   */\n      sub\n        /* \"#utility.yul\":14150:14167   */\n      swap1\n      pop\n        /* \"#utility.yul\":13982:14173   */\n      swap3\n      swap2\n      pop\n      pop\n      jump\t// out\n        /* \"#utility.yul\":14179:14350   */\n    tag_561:\n        /* \"#utility.yul\":14319:14342   */\n      0x4e6f20616d6f756e7420746f2077697468647261770000000000000000000000\n        /* \"#utility.yul\":14315:14316   */\n      0x00\n        /* \"#utility.yul\":14307:14313   */\n      dup3\n        /* \"#utility.yul\":14303:14317   */\n      add\n        /* \"#utility.yul\":14296:14343   */\n      mstore\n        /* \"#utility.yul\":14179:14350   */\n      pop\n      jump\t// out\n        /* \"#utility.yul\":14356:14722   */\n    tag_562:\n        /* \"#utility.yul\":14498:14501   */\n      0x00\n        /* \"#utility.yul\":14519:14586   */\n      tag_728\n        /* \"#utility.yul\":14583:14585   */\n      0x15\n        /* \"#utility.yul\":14578:14581   */\n      dup4\n        /* \"#utility.yul\":14519:14586   */\n      tag_552\n      jump\t// in\n    tag_728:\n        /* \"#utility.yul\":14512:14586   */\n      swap2\n      pop\n        /* \"#utility.yul\":14595:14688   */\n      tag_729\n        /* \"#utility.yul\":14684:14687   */\n      dup3\n        /* \"#utility.yul\":14595:14688   */\n      tag_561\n      jump\t// in\n    tag_729:\n        /* \"#utility.yul\":14713:14715   */\n      0x20\n        /* \"#utility.yul\":14708:14711   */\n      dup3\n        /* \"#utility.yul\":14704:14716   */\n      add\n        /* \"#utility.yul\":14697:14716   */\n      swap1\n      pop\n        /* \"#utility.yul\":14356:14722   */\n      swap2\n      swap1\n      pop\n      jump\t// out\n        /* \"#utility.yul\":14728:15147   */\n    tag_207:\n        /* \"#utility.yul\":14894:14898   */\n      0x00\n        /* \"#utility.yul\":14932:14934   */\n      0x20\n        /* \"#utility.yul\":14921:14930   */\n      dup3\n        /* \"#utility.yul\":14917:14935   */\n      add\n        /* \"#utility.yul\":14909:14935   */\n      swap1\n      pop\n        /* \"#utility.yul\":14981:14990   */\n      dup2\n        /* \"#utility.yul\":14975:14979   */\n      dup2\n        /* \"#utility.yul\":14971:14991   */\n      sub\n        /* \"#utility.yul\":14967:14968   */\n      0x00\n        /* \"#utility.yul\":14956:14965   */\n      dup4\n        /* \"#utility.yul\":14952:14969   */\n      add\n        /* \"#utility.yul\":14945:14992   */\n      mstore\n        /* \"#utility.yul\":15009:15140   */\n      tag_731\n        /* \"#utility.yul\":15135:15139   */\n      dup2\n        /* \"#utility.yul\":15009:15140   */\n      tag_562\n      jump\t// in\n    tag_731:\n        /* \"#utility.yul\":15001:15140   */\n      swap1\n      pop\n        /* \"#utility.yul\":14728:15147   */\n      swap2\n      swap1\n      pop\n      jump\t// out\n        /* \"#utility.yul\":15153:15300   */\n    tag_563:\n        /* \"#utility.yul\":15254:15265   */\n      0x00\n        /* \"#utility.yul\":15291:15294   */\n      dup2\n        /* \"#utility.yul\":15276:15294   */\n      swap1\n      pop\n        /* \"#utility.yul\":15153:15300   */\n      swap3\n      swap2\n      pop\n      pop\n      jump\t// out\n        /* \"#utility.yul\":15306:15420   */\n    tag_564:\n      pop\n      jump\t// out\n        /* \"#utility.yul\":15426:15824   */\n    tag_565:\n        /* \"#utility.yul\":15585:15588   */\n      0x00\n        /* \"#utility.yul\":15606:15689   */\n      tag_735\n        /* \"#utility.yul\":15687:15688   */\n      0x00\n        /* \"#utility.yul\":15682:15685   */\n      dup4\n        /* \"#utility.yul\":15606:15689   */\n      tag_563\n      jump\t// in\n    tag_735:\n        /* \"#utility.yul\":15599:15689   */\n      swap2\n      pop\n        /* \"#utility.yul\":15698:15791   */\n      tag_736\n        /* \"#utility.yul\":15787:15790   */\n      dup3\n        /* \"#utility.yul\":15698:15791   */\n      tag_564\n      jump\t// in\n    tag_736:\n        /* \"#utility.yul\":15816:15817   */\n      0x00\n        /* \"#utility.yul\":15811:15814   */\n      dup3\n        /* \"#utility.yul\":15807:15818   */\n      add\n        /* \"#utility.yul\":15800:15818   */\n      swap1\n      pop\n        /* \"#utility.yul\":15426:15824   */\n      swap2\n      swap1\n      pop\n      jump\t// out\n        /* \"#utility.yul\":15830:16209   */\n    tag_209:\n        /* \"#utility.yul\":16014:16017   */\n      0x00\n        /* \"#utility.yul\":16036:16183   */\n      tag_738\n        /* \"#utility.yul\":16179:16182   */\n      dup3\n        /* \"#utility.yul\":16036:16183   */\n      tag_565\n      jump\t// in\n    tag_738:\n        /* \"#utility.yul\":16029:16183   */\n      swap2\n      pop\n        /* \"#utility.yul\":16200:16203   */\n      dup2\n        /* \"#utility.yul\":16193:16203   */\n      swap1\n      pop\n        /* \"#utility.yul\":15830:16209   */\n      swap2\n      swap1\n      pop\n      jump\t// out\n        /* \"#utility.yul\":16215:16384   */\n    tag_566:\n        /* \"#utility.yul\":16355:16376   */\n      0x5472616e73616374696f6e206661696c65642100000000000000000000000000\n        /* \"#utility.yul\":16351:16352   */\n      0x00\n        /* \"#utility.yul\":16343:16349   */\n      dup3\n        /* \"#utility.yul\":16339:16353   */\n      add\n        /* \"#utility.yul\":16332:16377   */\n      mstore\n        /* \"#utility.yul\":16215:16384   */\n      pop\n      jump\t// out\n        /* \"#utility.yul\":16390:16756   */\n    tag_567:\n        /* \"#utility.yul\":16532:16535   */\n      0x00\n        /* \"#utility.yul\":16553:16620   */\n      tag_741\n        /* \"#utility.yul\":16617:16619   */\n      0x13\n        /* \"#utility.yul\":16612:16615   */\n      dup4\n        /* \"#utility.yul\":16553:16620   */\n      tag_552\n      jump\t// in\n    tag_741:\n        /* \"#utility.yul\":16546:16620   */\n      swap2\n      pop\n        /* \"#utility.yul\":16629:16722   */\n      tag_742\n        /* \"#utility.yul\":16718:16721   */\n      dup3\n        /* \"#utility.yul\":16629:16722   */\n      tag_566\n      jump\t// in\n    tag_742:\n        /* \"#utility.yul\":16747:16749   */\n      0x20\n        /* \"#utility.yul\":16742:16745   */\n      dup3\n        /* \"#utility.yul\":16738:16750   */\n      add\n        /* \"#utility.yul\":16731:16750   */\n      swap1\n      pop\n        /* \"#utility.yul\":16390:16756   */\n      swap2\n      swap1\n      pop\n      jump\t// out\n        /* \"#utility.yul\":16762:17181   */\n    tag_215:\n        /* \"#utility.yul\":16928:16932   */\n      0x00\n        /* \"#utility.yul\":16966:16968   */\n      0x20\n        /* \"#utility.yul\":16955:16964   */\n      dup3\n        /* \"#utility.yul\":16951:16969   */\n      add\n        /* \"#utility.yul\":16943:16969   */\n      swap1\n      pop\n        /* \"#utility.yul\":17015:17024   */\n      dup2\n        /* \"#utility.yul\":17009:17013   */\n      dup2\n        /* \"#utility.yul\":17005:17025   */\n      sub\n        /* \"#utility.yul\":17001:17002   */\n      0x00\n        /* \"#utility.yul\":16990:16999   */\n      dup4\n        /* \"#utility.yul\":16986:17003   */\n      add\n        /* \"#utility.yul\":16979:17026   */\n      mstore\n        /* \"#utility.yul\":17043:17174   */\n      tag_744\n        /* \"#utility.yul\":17169:17173   */\n      dup2\n        /* \"#utility.yul\":17043:17174   */\n      tag_567\n      jump\t// in\n    tag_744:\n        /* \"#utility.yul\":17035:17174   */\n      swap1\n      pop\n        /* \"#utility.yul\":16762:17181   */\n      swap2\n      swap1\n      pop\n      jump\t// out\n        /* \"#utility.yul\":17187:17347   */\n    tag_568:\n        /* \"#utility.yul\":17327:17339   */\n      0x5573657220657869737400000000000000000000000000000000000000000000\n        /* \"#utility.yul\":17323:17324   */\n      0x00\n        /* \"#utility.yul\":17315:17321   */\n      dup3\n        /* \"#utility.yul\":17311:17325   */\n      add\n        /* \"#utility.yul\":17304:17340   */\n      mstore\n        /* \"#utility.yul\":17187:17347   */\n      pop\n      jump\t// out\n        /* \"#utility.yul\":17353:17719   */\n    tag_569:\n        /* \"#utility.yul\":17495:17498   */\n      0x00\n        /* \"#utility.yul\":17516:17583   */\n      tag_747\n        /* \"#utility.yul\":17580:17582   */\n      0x0a\n        /* \"#utility.yul\":17575:17578   */\n      dup4\n        /* \"#utility.yul\":17516:17583   */\n      tag_552\n      jump\t// in\n    tag_747:\n        /* \"#utility.yul\":17509:17583   */\n      swap2\n      pop\n        /* \"#utility.yul\":17592:17685   */\n      tag_748\n        /* \"#utility.yul\":17681:17684   */\n      dup3\n        /* \"#utility.yul\":17592:17685   */\n      tag_568\n      jump\t// in\n    tag_748:\n        /* \"#utility.yul\":17710:17712   */\n      0x20\n        /* \"#utility.yul\":17705:17708   */\n      dup3\n        /* \"#utility.yul\":17701:17713   */\n      add\n        /* \"#utility.yul\":17694:17713   */\n      swap1\n      pop\n        /* \"#utility.yul\":17353:17719   */\n      swap2\n      swap1\n      pop\n      jump\t// out\n        /* \"#utility.yul\":17725:18144   */\n    tag_229:\n        /* \"#utility.yul\":17891:17895   */\n      0x00\n        /* \"#utility.yul\":17929:17931   */\n      0x20\n        /* \"#utility.yul\":17918:17927   */\n      dup3\n        /* \"#utility.yul\":17914:17932   */\n      add\n        /* \"#utility.yul\":17906:17932   */\n      swap1\n      pop\n        /* \"#utility.yul\":17978:17987   */\n      dup2\n        /* \"#utility.yul\":17972:17976   */\n      dup2\n        /* \"#utility.yul\":17968:17988   */\n      sub\n        /* \"#utility.yul\":17964:17965   */\n      0x00\n        /* \"#utility.yul\":17953:17962   */\n      dup4\n        /* \"#utility.yul\":17949:17966   */\n      add\n        /* \"#utility.yul\":17942:17989   */\n      mstore\n        /* \"#utility.yul\":18006:18137   */\n      tag_750\n        /* \"#utility.yul\":18132:18136   */\n      dup2\n        /* \"#utility.yul\":18006:18137   */\n      tag_569\n      jump\t// in\n    tag_750:\n        /* \"#utility.yul\":17998:18137   */\n      swap1\n      pop\n        /* \"#utility.yul\":17725:18144   */\n      swap2\n      swap1\n      pop\n      jump\t// out\n        /* \"#utility.yul\":18150:18321   */\n    tag_570:\n        /* \"#utility.yul\":18290:18313   */\n      0x496e636f72726563742072656665727265722049640000000000000000000000\n        /* \"#utility.yul\":18286:18287   */\n      0x00\n        /* \"#utility.yul\":18278:18284   */\n      dup3\n        /* \"#utility.yul\":18274:18288   */\n      add\n        /* \"#utility.yul\":18267:18314   */\n      mstore\n        /* \"#utility.yul\":18150:18321   */\n      pop\n      jump\t// out\n        /* \"#utility.yul\":18327:18693   */\n    tag_571:\n        /* \"#utility.yul\":18469:18472   */\n      0x00\n        /* \"#utility.yul\":18490:18557   */\n      tag_753\n        /* \"#utility.yul\":18554:18556   */\n      0x15\n        /* \"#utility.yul\":18549:18552   */\n      dup4\n        /* \"#utility.yul\":18490:18557   */\n      tag_552\n      jump\t// in\n    tag_753:\n        /* \"#utility.yul\":18483:18557   */\n      swap2\n      pop\n        /* \"#utility.yul\":18566:18659   */\n      tag_754\n        /* \"#utility.yul\":18655:18658   */\n      dup3\n        /* \"#utility.yul\":18566:18659   */\n      tag_570\n      jump\t// in\n    tag_754:\n        /* \"#utility.yul\":18684:18686   */\n      0x20\n        /* \"#utility.yul\":18679:18682   */\n      dup3\n        /* \"#utility.yul\":18675:18687   */\n      add\n        /* \"#utility.yul\":18668:18687   */\n      swap1\n      pop\n        /* \"#utility.yul\":18327:18693   */\n      swap2\n      swap1\n      pop\n      jump\t// out\n        /* \"#utility.yul\":18699:19118   */\n    tag_233:\n        /* \"#utility.yul\":18865:18869   */\n      0x00\n        /* \"#utility.yul\":18903:18905   */\n      0x20\n        /* \"#utility.yul\":18892:18901   */\n      dup3\n        /* \"#utility.yul\":18888:18906   */\n      add\n        /* \"#utility.yul\":18880:18906   */\n      swap1\n      pop\n        /* \"#utility.yul\":18952:18961   */\n      dup2\n        /* \"#utility.yul\":18946:18950   */\n      dup2\n        /* \"#utility.yul\":18942:18962   */\n      sub\n        /* \"#utility.yul\":18938:18939   */\n      0x00\n        /* \"#utility.yul\":18927:18936   */\n      dup4\n        /* \"#utility.yul\":18923:18940   */\n      add\n        /* \"#utility.yul\":18916:18963   */\n      mstore\n        /* \"#utility.yul\":18980:19111   */\n      tag_756\n        /* \"#utility.yul\":19106:19110   */\n      dup2\n        /* \"#utility.yul\":18980:19111   */\n      tag_571\n      jump\t// in\n    tag_756:\n        /* \"#utility.yul\":18972:19111   */\n      swap1\n      pop\n        /* \"#utility.yul\":18699:19118   */\n      swap2\n      swap1\n      pop\n      jump\t// out\n        /* \"#utility.yul\":19124:19289   */\n    tag_572:\n        /* \"#utility.yul\":19264:19281   */\n      0x496e636f72726563742056616c75650000000000000000000000000000000000\n        /* \"#utility.yul\":19260:19261   */\n      0x00\n        /* \"#utility.yul\":19252:19258   */\n      dup3\n        /* \"#utility.yul\":19248:19262   */\n      add\n        /* \"#utility.yul\":19241:19282   */\n      mstore\n        /* \"#utility.yul\":19124:19289   */\n      pop\n      jump\t// out\n        /* \"#utility.yul\":19295:19661   */\n    tag_573:\n        /* \"#utility.yul\":19437:19440   */\n      0x00\n        /* \"#utility.yul\":19458:19525   */\n      tag_759\n        /* \"#utility.yul\":19522:19524   */\n      0x0f\n        /* \"#utility.yul\":19517:19520   */\n      dup4\n        /* \"#utility.yul\":19458:19525   */\n      tag_552\n      jump\t// in\n    tag_759:\n        /* \"#utility.yul\":19451:19525   */\n      swap2\n      pop\n        /* \"#utility.yul\":19534:19627   */\n      tag_760\n        /* \"#utility.yul\":19623:19626   */\n      dup3\n        /* \"#utility.yul\":19534:19627   */\n      tag_572\n      jump\t// in\n    tag_760:\n        /* \"#utility.yul\":19652:19654   */\n      0x20\n        /* \"#utility.yul\":19647:19650   */\n      dup3\n        /* \"#utility.yul\":19643:19655   */\n      add\n        /* \"#utility.yul\":19636:19655   */\n      swap1\n      pop\n        /* \"#utility.yul\":19295:19661   */\n      swap2\n      swap1\n      pop\n      jump\t// out\n        /* \"#utility.yul\":19667:20086   */\n    tag_236:\n        /* \"#utility.yul\":19833:19837   */\n      0x00\n        /* \"#utility.yul\":19871:19873   */\n      0x20\n        /* \"#utility.yul\":19860:19869   */\n      dup3\n        /* \"#utility.yul\":19856:19874   */\n      add\n        /* \"#utility.yul\":19848:19874   */\n      swap1\n      pop\n        /* \"#utility.yul\":19920:19929   */\n      dup2\n        /* \"#utility.yul\":19914:19918   */\n      dup2\n        /* \"#utility.yul\":19910:19930   */\n      sub\n        /* \"#utility.yul\":19906:19907   */\n      0x00\n        /* \"#utility.yul\":19895:19904   */\n      dup4\n        /* \"#utility.yul\":19891:19908   */\n      add\n        /* \"#utility.yul\":19884:19931   */\n      mstore\n        /* \"#utility.yul\":19948:20079   */\n      tag_762\n        /* \"#utility.yul\":20074:20078   */\n      dup2\n        /* \"#utility.yul\":19948:20079   */\n      tag_573\n      jump\t// in\n    tag_762:\n        /* \"#utility.yul\":19940:20079   */\n      swap1\n      pop\n        /* \"#utility.yul\":19667:20086   */\n      swap2\n      swap1\n      pop\n      jump\t// out\n        /* \"#utility.yul\":20092:20272   */\n    tag_239:\n        /* \"#utility.yul\":20140:20217   */\n      0x4e487b7100000000000000000000000000000000000000000000000000000000\n        /* \"#utility.yul\":20137:20138   */\n      0x00\n        /* \"#utility.yul\":20130:20218   */\n      mstore\n        /* \"#utility.yul\":20237:20241   */\n      0x41\n        /* \"#utility.yul\":20234:20235   */\n      0x04\n        /* \"#utility.yul\":20227:20242   */\n      mstore\n        /* \"#utility.yul\":20261:20265   */\n      0x24\n        /* \"#utility.yul\":20258:20259   */\n      0x00\n        /* \"#utility.yul\":20251:20266   */\n      revert\n        /* \"#utility.yul\":20278:20583   */\n    tag_251:\n        /* \"#utility.yul\":20318:20321   */\n      0x00\n        /* \"#utility.yul\":20337:20357   */\n      tag_765\n        /* \"#utility.yul\":20355:20356   */\n      dup3\n        /* \"#utility.yul\":20337:20357   */\n      tag_523\n      jump\t// in\n    tag_765:\n        /* \"#utility.yul\":20332:20357   */\n      swap2\n      pop\n        /* \"#utility.yul\":20371:20391   */\n      tag_766\n        /* \"#utility.yul\":20389:20390   */\n      dup4\n        /* \"#utility.yul\":20371:20391   */\n      tag_523\n      jump\t// in\n    tag_766:\n        /* \"#utility.yul\":20366:20391   */\n      swap3\n      pop\n        /* \"#utility.yul\":20525:20526   */\n      dup3\n        /* \"#utility.yul\":20457:20523   */\n      0xffffffffffffffffffffffffffffffffffffffffffffffffffffffffffffffff\n        /* \"#utility.yul\":20453:20527   */\n      sub\n        /* \"#utility.yul\":20450:20451   */\n      dup3\n        /* \"#utility.yul\":20447:20528   */\n      gt\n        /* \"#utility.yul\":20444:20551   */\n      iszero\n      tag_767\n      jumpi\n        /* \"#utility.yul\":20531:20549   */\n      tag_768\n      tag_555\n      jump\t// in\n    tag_768:\n        /* \"#utility.yul\":20444:20551   */\n    tag_767:\n        /* \"#utility.yul\":20575:20576   */\n      dup3\n        /* \"#utility.yul\":20572:20573   */\n      dup3\n        /* \"#utility.yul\":20568:20577   */\n      add\n        /* \"#utility.yul\":20561:20577   */\n      swap1\n      pop\n        /* \"#utility.yul\":20278:20583   */\n      swap3\n      swap2\n      pop\n      pop\n      jump\t// out\n        /* \"#utility.yul\":20589:20759   */\n    tag_574:\n        /* \"#utility.yul\":20729:20751   */\n      0x43616c6c6572206973206e6f742041646d696e2e000000000000000000000000\n        /* \"#utility.yul\":20725:20726   */\n      0x00\n        /* \"#utility.yul\":20717:20723   */\n      dup3\n        /* \"#utility.yul\":20713:20727   */\n      add\n        /* \"#utility.yul\":20706:20752   */\n      mstore\n        /* \"#utility.yul\":20589:20759   */\n      pop\n      jump\t// out\n        /* \"#utility.yul\":20765:21131   */\n    tag_575:\n        /* \"#utility.yul\":20907:20910   */\n      0x00\n        /* \"#utility.yul\":20928:20995   */\n      tag_771\n        /* \"#utility.yul\":20992:20994   */\n      0x14\n        /* \"#utility.yul\":20987:20990   */\n      dup4\n        /* \"#utility.yul\":20928:20995   */\n      tag_552\n      jump\t// in\n    tag_771:\n        /* \"#utility.yul\":20921:20995   */\n      swap2\n      pop\n        /* \"#utility.yul\":21004:21097   */\n      tag_772\n        /* \"#utility.yul\":21093:21096   */\n      dup3\n        /* \"#utility.yul\":21004:21097   */\n      tag_574\n      jump\t// in\n    tag_772:\n        /* \"#utility.yul\":21122:21124   */\n      0x20\n        /* \"#utility.yul\":21117:21120   */\n      dup3\n        /* \"#utility.yul\":21113:21125   */\n      add\n        /* \"#utility.yul\":21106:21125   */\n      swap1\n      pop\n        /* \"#utility.yul\":20765:21131   */\n      swap2\n      swap1\n      pop\n      jump\t// out\n        /* \"#utility.yul\":21137:21556   */\n    tag_307:\n        /* \"#utility.yul\":21303:21307   */\n      0x00\n        /* \"#utility.yul\":21341:21343   */\n      0x20\n        /* \"#utility.yul\":21330:21339   */\n      dup3\n        /* \"#utility.yul\":21326:21344   */\n      add\n        /* \"#utility.yul\":21318:21344   */\n      swap1\n      pop\n        /* \"#utility.yul\":21390:21399   */\n      dup2\n        /* \"#utility.yul\":21384:21388   */\n      dup2\n        /* \"#utility.yul\":21380:21400   */\n      sub\n        /* \"#utility.yul\":21376:21377   */\n      0x00\n        /* \"#utility.yul\":21365:21374   */\n      dup4\n        /* \"#utility.yul\":21361:21378   */\n      add\n        /* \"#utility.yul\":21354:21401   */\n      mstore\n        /* \"#utility.yul\":21418:21549   */\n      tag_774\n        /* \"#utility.yul\":21544:21548   */\n      dup2\n        /* \"#utility.yul\":21418:21549   */\n      tag_575\n      jump\t// in\n    tag_774:\n        /* \"#utility.yul\":21410:21549   */\n      swap1\n      pop\n        /* \"#utility.yul\":21137:21556   */\n      swap2\n      swap1\n      pop\n      jump\t// out\n        /* \"#utility.yul\":21562:21725   */\n    tag_576:\n        /* \"#utility.yul\":21702:21717   */\n      0x496e76616c696420496e64657800000000000000000000000000000000000000\n        /* \"#utility.yul\":21698:21699   */\n      0x00\n        /* \"#utility.yul\":21690:21696   */\n      dup3\n        /* \"#utility.yul\":21686:21700   */\n      add\n        /* \"#utility.yul\":21679:21718   */\n      mstore\n        /* \"#utility.yul\":21562:21725   */\n      pop\n      jump\t// out\n        /* \"#utility.yul\":21731:22097   */\n    tag_577:\n        /* \"#utility.yul\":21873:21876   */\n      0x00\n        /* \"#utility.yul\":21894:21961   */\n      tag_777\n        /* \"#utility.yul\":21958:21960   */\n      0x0d\n        /* \"#utility.yul\":21953:21956   */\n      dup4\n        /* \"#utility.yul\":21894:21961   */\n      tag_552\n      jump\t// in\n    tag_777:\n        /* \"#utility.yul\":21887:21961   */\n      swap2\n      pop\n        /* \"#utility.yul\":21970:22063   */\n      tag_778\n        /* \"#utility.yul\":22059:22062   */\n      dup3\n        /* \"#utility.yul\":21970:22063   */\n      tag_576\n      jump\t// in\n    tag_778:\n        /* \"#utility.yul\":22088:22090   */\n      0x20\n        /* \"#utility.yul\":22083:22086   */\n      dup3\n        /* \"#utility.yul\":22079:22091   */\n      add\n        /* \"#utility.yul\":22072:22091   */\n      swap1\n      pop\n        /* \"#utility.yul\":21731:22097   */\n      swap2\n      swap1\n      pop\n      jump\t// out\n        /* \"#utility.yul\":22103:22522   */\n    tag_313:\n        /* \"#utility.yul\":22269:22273   */\n      0x00\n        /* \"#utility.yul\":22307:22309   */\n      0x20\n        /* \"#utility.yul\":22296:22305   */\n      dup3\n        /* \"#utility.yul\":22292:22310   */\n      add\n        /* \"#utility.yul\":22284:22310   */\n      swap1\n      pop\n        /* \"#utility.yul\":22356:22365   */\n      dup2\n        /* \"#utility.yul\":22350:22354   */\n      dup2\n        /* \"#utility.yul\":22346:22366   */\n      sub\n        /* \"#utility.yul\":22342:22343   */\n      0x00\n        /* \"#utility.yul\":22331:22340   */\n      dup4\n        /* \"#utility.yul\":22327:22344   */\n      add\n        /* \"#utility.yul\":22320:22367   */\n      mstore\n        /* \"#utility.yul\":22384:22515   */\n      tag_780\n        /* \"#utility.yul\":22510:22514   */\n      dup2\n        /* \"#utility.yul\":22384:22515   */\n      tag_577\n      jump\t// in\n    tag_780:\n        /* \"#utility.yul\":22376:22515   */\n      swap1\n      pop\n        /* \"#utility.yul\":22103:22522   */\n      swap2\n      swap1\n      pop\n      jump\t// out\n        /* \"#utility.yul\":22528:22704   */\n    tag_330:\n        /* \"#utility.yul\":22560:22561   */\n      0x00\n        /* \"#utility.yul\":22577:22597   */\n      tag_782\n        /* \"#utility.yul\":22595:22596   */\n      dup3\n        /* \"#utility.yul\":22577:22597   */\n      tag_523\n      jump\t// in\n    tag_782:\n        /* \"#utility.yul\":22572:22597   */\n      swap2\n      pop\n        /* \"#utility.yul\":22611:22631   */\n      tag_783\n        /* \"#utility.yul\":22629:22630   */\n      dup4\n        /* \"#utility.yul\":22611:22631   */\n      tag_523\n      jump\t// in\n    tag_783:\n        /* \"#utility.yul\":22606:22631   */\n      swap3\n      pop\n        /* \"#utility.yul\":22650:22651   */\n      dup3\n        /* \"#utility.yul\":22640:22675   */\n      tag_784\n      jumpi\n        /* \"#utility.yul\":22655:22673   */\n      tag_785\n      tag_560\n      jump\t// in\n    tag_785:\n        /* \"#utility.yul\":22640:22675   */\n    tag_784:\n        /* \"#utility.yul\":22696:22697   */\n      dup3\n        /* \"#utility.yul\":22693:22694   */\n      dup3\n        /* \"#utility.yul\":22689:22698   */\n      mod\n        /* \"#utility.yul\":22684:22698   */\n      swap1\n      pop\n        /* \"#utility.yul\":22528:22704   */\n      swap3\n      swap2\n      pop\n      pop\n      jump\t// out\n        /* \"#utility.yul\":22710:23042   */\n    tag_364:\n        /* \"#utility.yul\":22831:22835   */\n      0x00\n        /* \"#utility.yul\":22869:22871   */\n      0x40\n        /* \"#utility.yul\":22858:22867   */\n      dup3\n        /* \"#utility.yul\":22854:22872   */\n      add\n        /* \"#utility.yul\":22846:22872   */\n      swap1\n      pop\n        /* \"#utility.yul\":22882:22953   */\n      tag_787\n        /* \"#utility.yul\":22950:22951   */\n      0x00\n        /* \"#utility.yul\":22939:22948   */\n      dup4\n        /* \"#utility.yul\":22935:22952   */\n      add\n        /* \"#utility.yul\":22926:22932   */\n      dup6\n        /* \"#utility.yul\":22882:22953   */\n      tag_532\n      jump\t// in\n    tag_787:\n        /* \"#utility.yul\":22963:23035   */\n      tag_788\n        /* \"#utility.yul\":23031:23033   */\n      0x20\n        /* \"#utility.yul\":23020:23029   */\n      dup4\n        /* \"#utility.yul\":23016:23034   */\n      add\n        /* \"#utility.yul\":23007:23013   */\n      dup5\n        /* \"#utility.yul\":22963:23035   */\n      tag_532\n      jump\t// in\n    tag_788:\n        /* \"#utility.yul\":22710:23042   */\n      swap4\n      swap3\n      pop\n      pop\n      pop\n      jump\t// out\n        /* \"#utility.yul\":23048:23124   */\n    tag_578:\n        /* \"#utility.yul\":23084:23091   */\n      0x00\n        /* \"#utility.yul\":23113:23118   */\n      dup2\n        /* \"#utility.yul\":23102:23118   */\n      swap1\n      pop\n        /* \"#utility.yul\":23048:23124   */\n      swap2\n      swap1\n      pop\n      jump\t// out\n        /* \"#utility.yul\":23130:23361   */\n    tag_449:\n        /* \"#utility.yul\":23168:23171   */\n      0x00\n        /* \"#utility.yul\":23191:23214   */\n      tag_791\n        /* \"#utility.yul\":23208:23213   */\n      dup3\n        /* \"#utility.yul\":23191:23214   */\n      tag_578\n      jump\t// in\n    tag_791:\n        /* \"#utility.yul\":23182:23214   */\n      swap2\n      pop\n        /* \"#utility.yul\":23236:23302   */\n      0x7fffffffffffffffffffffffffffffffffffffffffffffffffffffffffffffff\n        /* \"#utility.yul\":23229:23234   */\n      dup3\n        /* \"#utility.yul\":23226:23303   */\n      eq\n        /* \"#utility.yul\":23223:23326   */\n      iszero\n      tag_792\n      jumpi\n        /* \"#utility.yul\":23306:23324   */\n      tag_793\n      tag_555\n      jump\t// in\n    tag_793:\n        /* \"#utility.yul\":23223:23326   */\n    tag_792:\n        /* \"#utility.yul\":23353:23354   */\n      0x01\n        /* \"#utility.yul\":23346:23351   */\n      dup3\n        /* \"#utility.yul\":23342:23355   */\n      add\n        /* \"#utility.yul\":23335:23355   */\n      swap1\n      pop\n        /* \"#utility.yul\":23130:23361   */\n      swap2\n      swap1\n      pop\n      jump\t// out\n\n    auxdata: 0xa2646970667358221220ffb7220660246eae47e81a6ee004d6c9c3cdd47e5a7781150bd3ef9bb0fe160564736f6c634300080b0033\n}\n",
				"bytecode": {
					"linkReferences": {},
					"object": "60806040526040518060600160405280600560ff168152602001600360ff168152602001600160ff16815250600c9060036200003d9291906200067f565b506000601055600060115560006012556802b5e3af16b18800006013556064600a6013546200006d9190620008db565b6200007991906200096b565b601455606460096013546200008f9190620008db565b6200009b91906200096b565b60155560646001601354620000b19190620008db565b620000bd91906200096b565b601655348015620000cd57600080fd5b506040516200582e3803806200582e8339818101604052810190620000f3919062000a0d565b336000806101000a81548173ffffffffffffffffffffffffffffffffffffffff021916908373ffffffffffffffffffffffffffffffffffffffff16021790555080600160006101000a81548173ffffffffffffffffffffffffffffffffffffffff021916908373ffffffffffffffffffffffffffffffffffffffff16021790555081600260006101000a81548173ffffffffffffffffffffffffffffffffffffffff021916908373ffffffffffffffffffffffffffffffffffffffff16021790555060405180606001604052808673ffffffffffffffffffffffffffffffffffffffff1673ffffffffffffffffffffffffffffffffffffffff1681526020018573ffffffffffffffffffffffffffffffffffffffff1673ffffffffffffffffffffffffffffffffffffffff1681526020018473ffffffffffffffffffffffffffffffffffffffff1673ffffffffffffffffffffffffffffffffffffffff1681525060099060036200026692919062000720565b50606460506013546200027a9190620008db565b6200028691906200096b565b6003600060018152602001908152602001600020819055506002600360006001815260200190815260200160002054620002c19190620008db565b6003600060028152602001908152602001600020819055506002600360006002815260200190815260200160002054620002fc9190620008db565b6003600060038152602001908152602001600020819055506002600360006003815260200190815260200160002054620003379190620008db565b6003600060048152602001908152602001600020819055506002600360006004815260200190815260200160002054620003729190620008db565b6003600060058152602001908152602001600020819055506002600360006005815260200190815260200160002054620003ad9190620008db565b6003600060068152602001908152602001600020819055506002600360006006815260200190815260200160002054620003e89190620008db565b6003600060078152602001908152602001600020819055506002600360006007815260200190815260200160002054620004239190620008db565b60036000600881526020019081526020016000208190555060026003600060088152602001908152602001600020546200045e9190620008db565b6003600060098152602001908152602001600020819055506000600460008060009054906101000a900473ffffffffffffffffffffffffffffffffffffffff1673ffffffffffffffffffffffffffffffffffffffff1673ffffffffffffffffffffffffffffffffffffffff168152602001908152602001600020905060018160000160006101000a81548160ff021916908315150217905550601054816001018190555060008160020181905550600067ffffffffffffffff8111156200052a576200052962000a95565b5b604051908082528060200260200182016040528015620005595781602001602082028036833780820191505090505b5081600301908051906020019062000573929190620007a2565b50428160040181905550600067ffffffffffffffff8111156200059b576200059a62000a95565b5b604051908082528060200260200182016040528015620005ca5781602001602082028036833780820191505090505b50816006019080519060200190620005e492919062000831565b5060106000815480929190620005fa9062000ac4565b919050555060008054906101000a900473ffffffffffffffffffffffffffffffffffffffff1660056000601054815260200190815260200160002060006101000a81548173ffffffffffffffffffffffffffffffffffffffff021916908373ffffffffffffffffffffffffffffffffffffffff16021790555050505050505062000b12565b826003601f016020900481019282156200070d5791602002820160005b83821115620006dc57835183826101000a81548160ff021916908360ff16021790555092602001926001016020816000010492830192600103026200069c565b80156200070b5782816101000a81549060ff0219169055600101602081600001049283019260010302620006dc565b505b5090506200071c919062000883565b5090565b82600381019282156200078f579160200282015b828111156200078e5782518260006101000a81548173ffffffffffffffffffffffffffffffffffffffff021916908373ffffffffffffffffffffffffffffffffffffffff1602179055509160200191906001019062000734565b5b5090506200079e919062000883565b5090565b8280548282559060005260206000209081019282156200081e579160200282015b828111156200081d5782518260006101000a81548173ffffffffffffffffffffffffffffffffffffffff021916908373ffffffffffffffffffffffffffffffffffffffff16021790555091602001919060010190620007c3565b5b5090506200082d919062000883565b5090565b82805482825590600052602060002090810192821562000870579160200282015b828111156200086f57825182559160200191906001019062000852565b5b5090506200087f919062000883565b5090565b5b808211156200089e57600081600090555060010162000884565b5090565b6000819050919050565b7f4e487b7100000000000000000000000000000000000000000000000000000000600052601160045260246000fd5b6000620008e882620008a2565b9150620008f583620008a2565b9250817fffffffffffffffffffffffffffffffffffffffffffffffffffffffffffffffff0483118215151615620009315762000930620008ac565b5b828202905092915050565b7f4e487b7100000000000000000000000000000000000000000000000000000000600052601260045260246000fd5b60006200097882620008a2565b91506200098583620008a2565b9250826200099857620009976200093c565b5b828204905092915050565b600080fd5b600073ffffffffffffffffffffffffffffffffffffffff82169050919050565b6000620009d582620009a8565b9050919050565b620009e781620009c8565b8114620009f357600080fd5b50565b60008151905062000a0781620009dc565b92915050565b600080600080600060a0868803121562000a2c5762000a2b620009a3565b5b600062000a3c88828901620009f6565b955050602062000a4f88828901620009f6565b945050604062000a6288828901620009f6565b935050606062000a7588828901620009f6565b925050608062000a8888828901620009f6565b9150509295509295909350565b7f4e487b7100000000000000000000000000000000000000000000000000000000600052604160045260246000fd5b600062000ad182620008a2565b91507fffffffffffffffffffffffffffffffffffffffffffffffffffffffffffffffff82141562000b075762000b06620008ac565b5b600182019050919050565b614d0c8062000b226000396000f3fe60806040526004361061012a5760003560e01c80636f9fb98a116100ab578063a4bb170d1161006f578063a4bb170d1461047f578063a87430ba146104aa578063aa24c5c5146104ea578063b2c4cc1f14610527578063bbf5706814610550578063c15dec851461058d5761012a565b80636f9fb98a1461037f57806379378e30146103aa5780638853b53e146103e7578063992c85d2146104175780639f4216e8146104425761012a565b80634676b06c116100f25780634676b06c1461024e5780634d948bea1461028b578063575cea6b146102c85780636043ddad146103055780636158fa00146103425761012a565b806310e4077a1461012f57806312c468ea1461016c57806315a1da1b146101a957806336b19cd7146101e657806343f6753c14610211575b600080fd5b34801561013b57600080fd5b5061015660048036038101906101519190614129565b6105b8565b6040516101639190614197565b60405180910390f35b34801561017857600080fd5b50610193600480360381019061018e91906141eb565b6105ee565b6040516101a09190614227565b60405180910390f35b3480156101b557600080fd5b506101d060048036038101906101cb9190614129565b6108b3565b6040516101dd9190614227565b60405180910390f35b3480156101f257600080fd5b506101fb6108ce565b6040516102089190614197565b60405180910390f35b34801561021d57600080fd5b506102386004803603810190610233919061426e565b6108f2565b6040516102459190614197565b60405180910390f35b34801561025a57600080fd5b50610275600480360381019061027091906141eb565b610934565b60405161028291906142c9565b60405180910390f35b34801561029757600080fd5b506102b260048036038101906102ad919061426e565b610d12565b6040516102bf91906142c9565b60405180910390f35b3480156102d457600080fd5b506102ef60048036038101906102ea91906142e4565b610d41565b6040516102fc91906143cf565b60405180910390f35b34801561031157600080fd5b5061032c60048036038101906103279190614129565b610e11565b6040516103399190614400565b60405180910390f35b34801561034e57600080fd5b50610369600480360381019061036491906142e4565b610e3b565b60405161037691906144d9565b60405180910390f35b34801561038b57600080fd5b50610394610ed5565b6040516103a19190614227565b60405180910390f35b3480156103b657600080fd5b506103d160048036038101906103cc9190614129565b610eeb565b6040516103de9190614227565b60405180910390f35b61040160048036038101906103fc9190614129565b610f03565b60405161040e91906142c9565b60405180910390f35b34801561042357600080fd5b5061042c611834565b6040516104399190614197565b60405180910390f35b34801561044e57600080fd5b5061046960048036038101906104649190614129565b61185a565b6040516104769190614197565b60405180910390f35b34801561048b57600080fd5b5061049461188d565b6040516104a19190614227565b60405180910390f35b3480156104b657600080fd5b506104d160048036038101906104cc91906142e4565b611893565b6040516104e194939291906144fb565b60405180910390f35b3480156104f657600080fd5b50610511600480360381019061050c9190614540565b6118d0565b60405161051e9190614227565b60405180910390f35b34801561053357600080fd5b5061054e60048036038101906105499190614540565b61192e565b005b34801561055c57600080fd5b506105776004803603810190610572919061426e565b611b91565b6040516105849190614227565b60405180910390f35b34801561059957600080fd5b506105a2611bb6565b6040516105af9190614197565b60405180910390f35b600981600381106105c857600080fd5b016000915054906101000a900473ffffffffffffffffffffffffffffffffffffffff1681565b600060048260ff161115610637576040517f08c379a000000000000000000000000000000000000000000000000000000000815260040161062e906145dd565b60405180910390fd5b600060028360ff16116107425760008060005b60038110156106db573373ffffffffffffffffffffffffffffffffffffffff166009826003811061067e5761067d6145fd565b5b0160009054906101000a900473ffffffffffffffffffffffffffffffffffffffff1673ffffffffffffffffffffffffffffffffffffffff1614156106c857600192508091506106db565b80806106d39061465b565b91505061064a565b506001151582151514610723576040517f08c379a000000000000000000000000000000000000000000000000000000000815260040161071a906146f0565b60405180910390fd5b600d8160038110610737576107366145fd565b5b015492505050610897565b60038360ff1614156107e857600260009054906101000a900473ffffffffffffffffffffffffffffffffffffffff1673ffffffffffffffffffffffffffffffffffffffff163373ffffffffffffffffffffffffffffffffffffffff16146107de576040517f08c379a00000000000000000000000000000000000000000000000000000000081526004016107d59061475c565b60405180910390fd5b6011549050610896565b600160009054906101000a900473ffffffffffffffffffffffffffffffffffffffff1673ffffffffffffffffffffffffffffffffffffffff163373ffffffffffffffffffffffffffffffffffffffff1614610878576040517f08c379a000000000000000000000000000000000000000000000000000000000815260040161086f9061475c565b60405180910390fd5b6064600a601254610889919061477c565b6108939190614805565b90505b5b670de0b6b3a7640000816108ab9190614805565b915050919050565b600d81600381106108c357600080fd5b016000915090505481565b60008054906101000a900473ffffffffffffffffffffffffffffffffffffffff1681565b60076020528160005260406000206020528060005260406000206000915091509054906101000a900473ffffffffffffffffffffffffffffffffffffffff1681565b600060048260ff16111561097d576040517f08c379a0000000000000000000000000000000000000000000000000000000008152600401610974906145dd565b60405180910390fd5b600060028360ff1611610aa35760008060005b6003811015610a21573373ffffffffffffffffffffffffffffffffffffffff16600982600381106109c4576109c36145fd565b5b0160009054906101000a900473ffffffffffffffffffffffffffffffffffffffff1673ffffffffffffffffffffffffffffffffffffffff161415610a0e5760019250809150610a21565b8080610a199061465b565b915050610990565b506001151582151514610a69576040517f08c379a0000000000000000000000000000000000000000000000000000000008152600401610a60906146f0565b60405180910390fd5b600d8160038110610a7d57610a7c6145fd565b5b015492506000600d8260038110610a9757610a966145fd565b5b01819055505050610c19565b60038360ff161415610b5157600260009054906101000a900473ffffffffffffffffffffffffffffffffffffffff1673ffffffffffffffffffffffffffffffffffffffff163373ffffffffffffffffffffffffffffffffffffffff1614610b3f576040517f08c379a0000000000000000000000000000000000000000000000000000000008152600401610b369061475c565b60405180910390fd5b60115490506000601181905550610c18565b600160009054906101000a900473ffffffffffffffffffffffffffffffffffffffff1673ffffffffffffffffffffffffffffffffffffffff163373ffffffffffffffffffffffffffffffffffffffff1614610be1576040517f08c379a0000000000000000000000000000000000000000000000000000000008152600401610bd89061475c565b60405180910390fd5b6064600a601254610bf2919061477c565b610bfc9190614805565b90508060126000828254610c109190614836565b925050819055505b5b60008111610c5c576040517f08c379a0000000000000000000000000000000000000000000000000000000008152600401610c53906148b6565b60405180910390fd5b60003373ffffffffffffffffffffffffffffffffffffffff1682604051610c8290614907565b60006040518083038185875af1925050503d8060008114610cbf576040519150601f19603f3d011682016040523d82523d6000602084013e610cc4565b606091505b5050905080610d08576040517f08c379a0000000000000000000000000000000000000000000000000000000008152600401610cff90614968565b60405180910390fd5b8092505050919050565b60086020528160005260406000206020528060005260406000206000915091509054906101000a900460ff1681565b6060600460008373ffffffffffffffffffffffffffffffffffffffff1673ffffffffffffffffffffffffffffffffffffffff168152602001908152602001600020600301805480602002602001604051908101604052809291908181526020018280548015610e0557602002820191906000526020600020905b8160009054906101000a900473ffffffffffffffffffffffffffffffffffffffff1673ffffffffffffffffffffffffffffffffffffffff1681526020019060010190808311610dbb575b50505050509050919050565b600c8160038110610e2157600080fd5b60209182820401919006915054906101000a900460ff1681565b6060600460008373ffffffffffffffffffffffffffffffffffffffff1673ffffffffffffffffffffffffffffffffffffffff168152602001908152602001600020600601805480602002602001604051908101604052809291908181526020018280548015610ec957602002820191906000526020600020905b815481526020019060010190808311610eb5575b50505050509050919050565b6000620f424047610ee69190614805565b905090565b60036020528060005260406000206000915090505481565b6000600460003373ffffffffffffffffffffffffffffffffffffffff1673ffffffffffffffffffffffffffffffffffffffff16815260200190815260200160002060000160009054906101000a900460ff1615610f95576040517f08c379a0000000000000000000000000000000000000000000000000000000008152600401610f8c906149d4565b60405180910390fd5b600082118015610fa757506010548211155b610fe6576040517f08c379a0000000000000000000000000000000000000000000000000000000008152600401610fdd90614a40565b60405180910390fd5b601354341461102a576040517f08c379a000000000000000000000000000000000000000000000000000000000815260040161102190614aac565b60405180910390fd5b6000600460003373ffffffffffffffffffffffffffffffffffffffff1673ffffffffffffffffffffffffffffffffffffffff168152602001908152602001600020905060018160000160006101000a81548160ff0219169083151502179055506010548160010181905550828160020181905550600067ffffffffffffffff8111156110b9576110b8614acc565b5b6040519080825280602002602001820160405280156110e75781602001602082028036833780820191505090505b508160030190805190602001906110ff929190613ffa565b50428160040181905550600067ffffffffffffffff81111561112457611123614acc565b5b6040519080825280602002602001820160405280156111525781602001602082028036833780820191505090505b5081600601908051906020019061116a929190614084565b506010600081548092919061117e9061465b565b91905055503360056000601054815260200190815260200160002060006101000a81548173ffffffffffffffffffffffffffffffffffffffff021916908373ffffffffffffffffffffffffffffffffffffffff160217905550600460006005600086815260200190815260200160002060009054906101000a900473ffffffffffffffffffffffffffffffffffffffff1673ffffffffffffffffffffffffffffffffffffffff1673ffffffffffffffffffffffffffffffffffffffff168152602001908152602001600020600301339080600181540180825580915050600190039060005260206000200160009091909190916101000a81548173ffffffffffffffffffffffffffffffffffffffff021916908373ffffffffffffffffffffffffffffffffffffffff160217905550600360006001815260200190815260200160002054601260008282546112d39190614afb565b92505081905550601654601160008282546112ee9190614afb565b925050819055506064600c60006003811061130c5761130b6145fd565b5b602091828204019190069054906101000a900460ff1660ff16601554611332919061477c565b61133c9190614805565b600d600060038110611351576113506145fd565b5b015461135d9190614afb565b600d600060038110611372576113716145fd565b5b01819055506064600c60016003811061138e5761138d6145fd565b5b602091828204019190069054906101000a900460ff1660ff166015546113b4919061477c565b6113be9190614805565b600d6001600381106113d3576113d26145fd565b5b01546113df9190614afb565b600d6001600381106113f4576113f36145fd565b5b01819055506064600c6002600381106114105761140f6145fd565b5b602091828204019190069054906101000a900460ff1660ff16601554611436919061477c565b6114409190614805565b600d600260038110611455576114546145fd565b5b01546114619190614afb565b600d600260038110611476576114756145fd565b5b01819055506000600460006005600087815260200190815260200160002060009054906101000a900473ffffffffffffffffffffffffffffffffffffffff1673ffffffffffffffffffffffffffffffffffffffff1673ffffffffffffffffffffffffffffffffffffffff1681526020019081526020016000206003018054905090506001811415806115085750600184145b156115205761151b600133836000611bdc565b6116b0565b600460006005600087815260200190815260200160002060009054906101000a900473ffffffffffffffffffffffffffffffffffffffff1673ffffffffffffffffffffffffffffffffffffffff1673ffffffffffffffffffffffffffffffffffffffff1681526020019081526020016000206006016001908060018154018082558091505060019003906000526020600020016000909190919091505560006005600086815260200190815260200160002060009054906101000a900473ffffffffffffffffffffffffffffffffffffffff1690506001600460008373ffffffffffffffffffffffffffffffffffffffff1673ffffffffffffffffffffffffffffffffffffffff168152602001908152602001600020600501600060018152602001908152602001600020546116569190614afb565b600460008373ffffffffffffffffffffffffffffffffffffffff1673ffffffffffffffffffffffffffffffffffffffff16815260200190815260200160002060050160006001815260200190815260200160002081905550505b60006005600086815260200190815260200160002060009054906101000a900473ffffffffffffffffffffffffffffffffffffffff1673ffffffffffffffffffffffffffffffffffffffff1660145460405161170b90614907565b60006040518083038185875af1925050503d8060008114611748576040519150601f19603f3d011682016040523d82523d6000602084013e61174d565b606091505b5050905080611791576040517f08c379a000000000000000000000000000000000000000000000000000000000815260040161178890614968565b60405180910390fd5b6005600086815260200190815260200160002060009054906101000a900473ffffffffffffffffffffffffffffffffffffffff1673ffffffffffffffffffffffffffffffffffffffff163373ffffffffffffffffffffffffffffffffffffffff167f788c06d2405ae89dd3f0528d38be7691289474d72176408bc2c2406dc5e342f1426040516118219190614227565b60405180910390a3809350505050919050565b600260009054906101000a900473ffffffffffffffffffffffffffffffffffffffff1681565b60056020528060005260406000206000915054906101000a900473ffffffffffffffffffffffffffffffffffffffff1681565b60105481565b60046020528060005260406000206000915090508060000160009054906101000a900460ff16908060010154908060020154908060040154905084565b6000600460008473ffffffffffffffffffffffffffffffffffffffff1673ffffffffffffffffffffffffffffffffffffffff168152602001908152602001600020600501600083815260200190815260200160002054905092915050565b60008054906101000a900473ffffffffffffffffffffffffffffffffffffffff1673ffffffffffffffffffffffffffffffffffffffff163373ffffffffffffffffffffffffffffffffffffffff16146119bc576040517f08c379a00000000000000000000000000000000000000000000000000000000081526004016119b390614b9d565b60405180910390fd5b60008054906101000a900473ffffffffffffffffffffffffffffffffffffffff1673ffffffffffffffffffffffffffffffffffffffff163373ffffffffffffffffffffffffffffffffffffffff1614611a4a576040517f08c379a0000000000000000000000000000000000000000000000000000000008152600401611a41906146f0565b60405180910390fd5b6005811115611a8e576040517f08c379a0000000000000000000000000000000000000000000000000000000008152600401611a8590614c09565b60405180910390fd5b60038111611afb57816009600183611aa69190614836565b60038110611ab757611ab66145fd565b5b0160006101000a81548173ffffffffffffffffffffffffffffffffffffffff021916908373ffffffffffffffffffffffffffffffffffffffff160217905550611b8d565b6004811415611b4a5781600260006101000a81548173ffffffffffffffffffffffffffffffffffffffff021916908373ffffffffffffffffffffffffffffffffffffffff160217905550611b8c565b81600160006101000a81548173ffffffffffffffffffffffffffffffffffffffff021916908373ffffffffffffffffffffffffffffffffffffffff1602179055505b5b5050565b6006602052816000526040600020602052806000526040600020600091509150505481565b600160009054906101000a900473ffffffffffffffffffffffffffffffffffffffff1681565b60008060009050600080600190506000808990506002881415611c2657611c068a8a84878761216b565b80965081955082985050505060018a611c1f9190614afb565b9050611d3d565b60148810158015611c4357506000601489611c419190614c29565b145b15611c8457600560006001815260200190815260200160002060009054906101000a900473ffffffffffffffffffffffffffffffffffffffff169550611d3c565b60048810158015611ca157506000600489611c9f9190614c29565b145b15611cc257611cb2878a8c856128dd565b8096508197505050899050611d3b565b60056000600460008c73ffffffffffffffffffffffffffffffffffffffff1673ffffffffffffffffffffffffffffffffffffffff16815260200190815260200160002060020154815260200190815260200160002060009054906101000a900473ffffffffffffffffffffffffffffffffffffffff1695505b5b5b8280611d965750600460008773ffffffffffffffffffffffffffffffffffffffff1673ffffffffffffffffffffffffffffffffffffffff16815260200190815260200160002060000160009054906101000a900460ff16155b80611e005750600560006001815260200190815260200160002060009054906101000a900473ffffffffffffffffffffffffffffffffffffffff1673ffffffffffffffffffffffffffffffffffffffff168673ffffffffffffffffffffffffffffffffffffffff16145b1561215f57611e1286828a8888612a1d565b80995081985050508615611e7f57828015611e2b575083155b8015611e375750600288145b15611e40578099505b828015611e4b575083155b8015611e575750600488145b8015611e64575060018110155b15611e6d578099505b611e7a8a878a6001611bdc565b61215e565b600460008773ffffffffffffffffffffffffffffffffffffffff1673ffffffffffffffffffffffffffffffffffffffff16815260200190815260200160002060000160009054906101000a900460ff16611f0b57600560006001815260200190815260200160002060009054906101000a900473ffffffffffffffffffffffffffffffffffffffff1695505b6001600460008873ffffffffffffffffffffffffffffffffffffffff1673ffffffffffffffffffffffffffffffffffffffff168152602001908152602001600020600501600083815260200190815260200160002054611f6b9190614afb565b600460008873ffffffffffffffffffffffffffffffffffffffff1673ffffffffffffffffffffffffffffffffffffffff16815260200190815260200160002060050160008381526020019081526020016000208190555060008673ffffffffffffffffffffffffffffffffffffffff166003600084815260200190815260200160002054604051611ffb90614907565b60006040518083038185875af1925050503d8060008114612038576040519150601f19603f3d011682016040523d82523d6000602084013e61203d565b606091505b5050905080612081576040517f08c379a000000000000000000000000000000000000000000000000000000000815260040161207890614968565b60405180910390fd5b80156120ef573373ffffffffffffffffffffffffffffffffffffffff168773ffffffffffffffffffffffffffffffffffffffff167fce7dc747411ac40191c5335943fcc79d8c2d8c01ca5ae83d9fed160409fa612084426040516120e6929190614c5a565b60405180910390a35b8061215c573373ffffffffffffffffffffffffffffffffffffffff168773ffffffffffffffffffffffffffffffffffffffff167f7df0f6bac5c770af7783500bb7f1c0d073adb11316004ba6f9f6c704af1a1aea8442604051612153929190614c5a565b60405180910390a35b505b5b50505050505050505050565b60008060008060018961217e9190614afb565b9050600080600283116122085760056000600460008d73ffffffffffffffffffffffffffffffffffffffff1673ffffffffffffffffffffffffffffffffffffffff16815260200190815260200160002060020154815260200190815260200160002060009054906101000a900473ffffffffffffffffffffffffffffffffffffffff16905061220c565b8990505b612217818c8b612ebf565b8092508193505050600460008373ffffffffffffffffffffffffffffffffffffffff1673ffffffffffffffffffffffffffffffffffffffff16815260200190815260200160002060000160009054906101000a900460ff1615806123845750600073ffffffffffffffffffffffffffffffffffffffff166007600085815260200190815260200160002060008473ffffffffffffffffffffffffffffffffffffffff1673ffffffffffffffffffffffffffffffffffffffff16815260200190815260200160002060009054906101000a900473ffffffffffffffffffffffffffffffffffffffff1673ffffffffffffffffffffffffffffffffffffffff161480156123835750600015156008600085815260200190815260200160002060008473ffffffffffffffffffffffffffffffffffffffff1673ffffffffffffffffffffffffffffffffffffffff16815260200190815260200160002060009054906101000a900460ff161515145b5b1561262257600460008373ffffffffffffffffffffffffffffffffffffffff1673ffffffffffffffffffffffffffffffffffffffff16815260200190815260200160002060000160009054906101000a900460ff1661241557600560006001815260200190815260200160002060009054906101000a900473ffffffffffffffffffffffffffffffffffffffff1691505b600560006001815260200190815260200160002060009054906101000a900473ffffffffffffffffffffffffffffffffffffffff1673ffffffffffffffffffffffffffffffffffffffff168273ffffffffffffffffffffffffffffffffffffffff1614612538576001600460008473ffffffffffffffffffffffffffffffffffffffff1673ffffffffffffffffffffffffffffffffffffffff1681526020019081526020016000206005016000858152602001908152602001600020546124dc9190614afb565b600460008473ffffffffffffffffffffffffffffffffffffffff1673ffffffffffffffffffffffffffffffffffffffff168152602001908152602001600020600501600085815260200190815260200160002081905550600096505b806007600085815260200190815260200160002060008473ffffffffffffffffffffffffffffffffffffffff1673ffffffffffffffffffffffffffffffffffffffff16815260200190815260200160002060006101000a81548173ffffffffffffffffffffffffffffffffffffffff021916908373ffffffffffffffffffffffffffffffffffffffff16021790555060016006600085815260200190815260200160002060008473ffffffffffffffffffffffffffffffffffffffff1673ffffffffffffffffffffffffffffffffffffffff1681526020019081526020016000208190555061285d565b60006007600085815260200190815260200160002060008473ffffffffffffffffffffffffffffffffffffffff1673ffffffffffffffffffffffffffffffffffffffff16815260200190815260200160002060009054906101000a900473ffffffffffffffffffffffffffffffffffffffff1690506126a28382846135bf565b156126b0576001985061285b565b60006007600086815260200190815260200160002060008573ffffffffffffffffffffffffffffffffffffffff1673ffffffffffffffffffffffffffffffffffffffff16815260200190815260200160002060006101000a81548173ffffffffffffffffffffffffffffffffffffffff021916908373ffffffffffffffffffffffffffffffffffffffff16021790555060016008600086815260200190815260200160002060008573ffffffffffffffffffffffffffffffffffffffff1673ffffffffffffffffffffffffffffffffffffffff16815260200190815260200160002060006101000a81548160ff02191690831515021790555060016006600086815260200190815260200160002060008573ffffffffffffffffffffffffffffffffffffffff1673ffffffffffffffffffffffffffffffffffffffff168152602001908152602001600020546128069190614afb565b6006600086815260200190815260200160002060008573ffffffffffffffffffffffffffffffffffffffff1673ffffffffffffffffffffffffffffffffffffffff168152602001908152602001600020819055505b505b600460008273ffffffffffffffffffffffffffffffffffffffff1673ffffffffffffffffffffffffffffffffffffffff168152602001908152602001600020600601839080600181540180825580915050600190039060005260206000200160009091909190915055818789955095509550505050955095509592505050565b6000806000600190506000808861296b5760056000600460008b73ffffffffffffffffffffffffffffffffffffffff1673ffffffffffffffffffffffffffffffffffffffff16815260200190815260200160002060020154815260200190815260200160002060009054906101000a900473ffffffffffffffffffffffffffffffffffffffff16915061296f565b8791505b61297a82888861398e565b5080915050600460008273ffffffffffffffffffffffffffffffffffffffff1673ffffffffffffffffffffffffffffffffffffffff16815260200190815260200160002060000160009054906101000a900460ff16612a0b57600560006001815260200190815260200160002060009054906101000a900473ffffffffffffffffffffffffffffffffffffffff1690505b80839450945050505094509492505050565b60008060008086905060006001600460008c73ffffffffffffffffffffffffffffffffffffffff1673ffffffffffffffffffffffffffffffffffffffff16815260200190815260200160002060050160008b815260200190815260200160002054612a889190614afb565b90506002600660008b815260200190815260200160002060008c73ffffffffffffffffffffffffffffffffffffffff1673ffffffffffffffffffffffffffffffffffffffff168152602001908152602001600020541415612aec5760019250612eac565b60048110158015612b0957506000600482612b079190614c29565b145b8015612b5857506000600460008c73ffffffffffffffffffffffffffffffffffffffff1673ffffffffffffffffffffffffffffffffffffffff1681526020019081526020016000206002015414155b8015612b645750600189145b15612b8b57600388148015612b795750600481145b15612b82578091505b60019250612eab565b60048110158015612ba857506000600482612ba69190614c29565b145b8015612bb45750600288145b8015612bbe575085155b8015612bca5750600189115b15612c4e57600560006001815260200190815260200160002060009054906101000a900473ffffffffffffffffffffffffffffffffffffffff1673ffffffffffffffffffffffffffffffffffffffff168a73ffffffffffffffffffffffffffffffffffffffff161415612c405760009250612c49565b60049150600192505b612eaa565b600281148015612ca157506000600460008c73ffffffffffffffffffffffffffffffffffffffff1673ffffffffffffffffffffffffffffffffffffffff1681526020019081526020016000206002015414155b8015612cab575086155b8015612cb5575085155b15612dc457600460008b73ffffffffffffffffffffffffffffffffffffffff1673ffffffffffffffffffffffffffffffffffffffff16815260200190815260200160002060000160009054906101000a900460ff16612d4657600560006001815260200190815260200160002060009054906101000a900473ffffffffffffffffffffffffffffffffffffffff1699505b600560006001815260200190815260200160002060009054906101000a900473ffffffffffffffffffffffffffffffffffffffff1673ffffffffffffffffffffffffffffffffffffffff168a73ffffffffffffffffffffffffffffffffffffffff161415612db75760009250612dbf565b600192508091505b612ea9565b600181148015612e1657506000600460008c73ffffffffffffffffffffffffffffffffffffffff1673ffffffffffffffffffffffffffffffffffffffff16815260200190815260200160002060020154145b15612ea857600460008b73ffffffffffffffffffffffffffffffffffffffff1673ffffffffffffffffffffffffffffffffffffffff16815260200190815260200160002060000160009054906101000a900460ff16612ea757600560006001815260200190815260200160002060009054906101000a900473ffffffffffffffffffffffffffffffffffffffff1699505b5b5b5b5b5b8282945094505050509550959350505050565b60008060008086905060005b60098112156134f7576001600460008a73ffffffffffffffffffffffffffffffffffffffff1673ffffffffffffffffffffffffffffffffffffffff168152602001908152602001600020600201541480612f845750600560006001815260200190815260200160002060009054906101000a900473ffffffffffffffffffffffffffffffffffffffff1673ffffffffffffffffffffffffffffffffffffffff168373ffffffffffffffffffffffffffffffffffffffff16145b15612f8e576134f7565b60006001600460008573ffffffffffffffffffffffffffffffffffffffff1673ffffffffffffffffffffffffffffffffffffffff16815260200190815260200160002060060180549050612fe29190614836565b9050600460008473ffffffffffffffffffffffffffffffffffffffff1673ffffffffffffffffffffffffffffffffffffffff1681526020019081526020016000206006018181548110613038576130376145fd565b5b90600052602060002001549650600060056000600460008773ffffffffffffffffffffffffffffffffffffffff1673ffffffffffffffffffffffffffffffffffffffff16815260200190815260200160002060020154815260200190815260200160002060009054906101000a900473ffffffffffffffffffffffffffffffffffffffff169050600060056000600460008573ffffffffffffffffffffffffffffffffffffffff1673ffffffffffffffffffffffffffffffffffffffff16815260200190815260200160002060020154815260200190815260200160002060009054906101000a900473ffffffffffffffffffffffffffffffffffffffff1690506000600190505b8a81101561324057600560006001815260200190815260200160002060009054906101000a900473ffffffffffffffffffffffffffffffffffffffff1673ffffffffffffffffffffffffffffffffffffffff168273ffffffffffffffffffffffffffffffffffffffff1614156131b557613240565b60056000600460008573ffffffffffffffffffffffffffffffffffffffff1673ffffffffffffffffffffffffffffffffffffffff16815260200190815260200160002060020154815260200190815260200160002060009054906101000a900473ffffffffffffffffffffffffffffffffffffffff16915080806132389061465b565b915050613140565b5060018a61324e9190614afb565b8910156134d657600460008273ffffffffffffffffffffffffffffffffffffffff1673ffffffffffffffffffffffffffffffffffffffff16815260200190815260200160002060000160009054906101000a900460ff1615806132f357506000600460008473ffffffffffffffffffffffffffffffffffffffff1673ffffffffffffffffffffffffffffffffffffffff16815260200190815260200160002060020154145b8061334057506001600460008473ffffffffffffffffffffffffffffffffffffffff1673ffffffffffffffffffffffffffffffffffffffff16815260200190815260200160002060020154145b156134cb576004600060056000600460008773ffffffffffffffffffffffffffffffffffffffff1673ffffffffffffffffffffffffffffffffffffffff16815260200190815260200160002060020154815260200190815260200160002060009054906101000a900473ffffffffffffffffffffffffffffffffffffffff1673ffffffffffffffffffffffffffffffffffffffff1673ffffffffffffffffffffffffffffffffffffffff16815260200190815260200160002060000160009054906101000a900460ff1661344a57600560006001815260200190815260200160002060009054906101000a900473ffffffffffffffffffffffffffffffffffffffff1695506134c3565b60056000600460008573ffffffffffffffffffffffffffffffffffffffff1673ffffffffffffffffffffffffffffffffffffffff16815260200190815260200160002060020154815260200190815260200160002060009054906101000a900473ffffffffffffffffffffffffffffffffffffffff1695505b5050506134f7565b8094508095506134e1565b8495505050506134f7565b50505080806134ef90614c8d565b915050612ecb565b506001600460008973ffffffffffffffffffffffffffffffffffffffff1673ffffffffffffffffffffffffffffffffffffffff1681526020019081526020016000206005016000888152602001908152602001600020546135589190614afb565b600460008973ffffffffffffffffffffffffffffffffffffffff1673ffffffffffffffffffffffffffffffffffffffff1681526020019081526020016000206005016000888152602001908152602001600020819055508187935093505050935093915050565b6000806000905060006135d186610d41565b905060008590506000859050600060056000600460008673ffffffffffffffffffffffffffffffffffffffff1673ffffffffffffffffffffffffffffffffffffffff16815260200190815260200160002060020154815260200190815260200160002060009054906101000a900473ffffffffffffffffffffffffffffffffffffffff16905060005b600c811215613790576000805b86518110156136f757868181518110613683576136826145fd565b5b602002602001015173ffffffffffffffffffffffffffffffffffffffff168473ffffffffffffffffffffffffffffffffffffffff1614156136e4578681815181106136d1576136d06145fd565b5b60200260200101519550600191506136f7565b80806136ef9061465b565b915050613667565b5080156137045750613790565b60056000600460008673ffffffffffffffffffffffffffffffffffffffff1673ffffffffffffffffffffffffffffffffffffffff16815260200190815260200160002060020154815260200190815260200160002060009054906101000a900473ffffffffffffffffffffffffffffffffffffffff16925050808061378890614c8d565b91505061365a565b50600060056000600460008673ffffffffffffffffffffffffffffffffffffffff1673ffffffffffffffffffffffffffffffffffffffff16815260200190815260200160002060020154815260200190815260200160002060009054906101000a900473ffffffffffffffffffffffffffffffffffffffff16905060005b600c811215613944576000805b87518110156138ab57878181518110613837576138366145fd565b5b602002602001015173ffffffffffffffffffffffffffffffffffffffff168473ffffffffffffffffffffffffffffffffffffffff16141561389857878181518110613885576138846145fd565b5b60200260200101519550600191506138ab565b80806138a39061465b565b91505061381b565b5080156138b85750613944565b60056000600460008673ffffffffffffffffffffffffffffffffffffffff1673ffffffffffffffffffffffffffffffffffffffff16815260200190815260200160002060020154815260200190815260200160002060009054906101000a900473ffffffffffffffffffffffffffffffffffffffff16925050808061393c90614c8d565b91505061380e565b508273ffffffffffffffffffffffffffffffffffffffff168473ffffffffffffffffffffffffffffffffffffffff16141561397e57600195505b8596505050505050509392505050565b600080600080869050600081905060005b6009811215613f31576001600460008b73ffffffffffffffffffffffffffffffffffffffff1673ffffffffffffffffffffffffffffffffffffffff168152602001908152602001600020600201541480613a585750600560006001815260200190815260200160002060009054906101000a900473ffffffffffffffffffffffffffffffffffffffff1673ffffffffffffffffffffffffffffffffffffffff168473ffffffffffffffffffffffffffffffffffffffff16145b15613a6257613f31565b60005b88811015613b6557600560006001815260200190815260200160002060009054906101000a900473ffffffffffffffffffffffffffffffffffffffff1673ffffffffffffffffffffffffffffffffffffffff168473ffffffffffffffffffffffffffffffffffffffff161415613ada57613b65565b60056000600460008673ffffffffffffffffffffffffffffffffffffffff1673ffffffffffffffffffffffffffffffffffffffff16815260200190815260200160002060020154815260200190815260200160002060009054906101000a900473ffffffffffffffffffffffffffffffffffffffff1692508080613b5d9061465b565b915050613a65565b50600560006001815260200190815260200160002060009054906101000a900473ffffffffffffffffffffffffffffffffffffffff1673ffffffffffffffffffffffffffffffffffffffff168273ffffffffffffffffffffffffffffffffffffffff161415613bd657819350613f31565b60006001600460008573ffffffffffffffffffffffffffffffffffffffff1673ffffffffffffffffffffffffffffffffffffffff16815260200190815260200160002060060180549050613c2a9190614836565b9050600460008473ffffffffffffffffffffffffffffffffffffffff1673ffffffffffffffffffffffffffffffffffffffff1681526020019081526020016000206006018181548110613c8057613c7f6145fd565b5b9060005260206000200154975088881015613f1457600460008473ffffffffffffffffffffffffffffffffffffffff1673ffffffffffffffffffffffffffffffffffffffff16815260200190815260200160002060000160009054906101000a900460ff161580613d3357506000600460008573ffffffffffffffffffffffffffffffffffffffff1673ffffffffffffffffffffffffffffffffffffffff16815260200190815260200160002060020154145b80613d8057506001600460008573ffffffffffffffffffffffffffffffffffffffff1673ffffffffffffffffffffffffffffffffffffffff16815260200190815260200160002060020154145b15613f09576004600060056000600460008873ffffffffffffffffffffffffffffffffffffffff1673ffffffffffffffffffffffffffffffffffffffff16815260200190815260200160002060020154815260200190815260200160002060009054906101000a900473ffffffffffffffffffffffffffffffffffffffff1673ffffffffffffffffffffffffffffffffffffffff1673ffffffffffffffffffffffffffffffffffffffff16815260200190815260200160002060000160009054906101000a900460ff16613e8a57600560006001815260200190815260200160002060009054906101000a900473ffffffffffffffffffffffffffffffffffffffff169450613f03565b60056000600460008673ffffffffffffffffffffffffffffffffffffffff1673ffffffffffffffffffffffffffffffffffffffff16815260200190815260200160002060020154815260200190815260200160002060009054906101000a900473ffffffffffffffffffffffffffffffffffffffff1694505b50613f31565b829350829450613f1d565b82945050613f31565b508080613f2990614c8d565b91505061399f565b506001600460008a73ffffffffffffffffffffffffffffffffffffffff1673ffffffffffffffffffffffffffffffffffffffff168152602001908152602001600020600501600089815260200190815260200160002054613f929190614afb565b600460008a73ffffffffffffffffffffffffffffffffffffffff1673ffffffffffffffffffffffffffffffffffffffff168152602001908152602001600020600501600089815260200190815260200160002081905550828894509450505050935093915050565b828054828255906000526020600020908101928215614073579160200282015b828111156140725782518260006101000a81548173ffffffffffffffffffffffffffffffffffffffff021916908373ffffffffffffffffffffffffffffffffffffffff1602179055509160200191906001019061401a565b5b50905061408091906140d1565b5090565b8280548282559060005260206000209081019282156140c0579160200282015b828111156140bf5782518255916020019190600101906140a4565b5b5090506140cd91906140d1565b5090565b5b808211156140ea5760008160009055506001016140d2565b5090565b600080fd5b6000819050919050565b614106816140f3565b811461411157600080fd5b50565b600081359050614123816140fd565b92915050565b60006020828403121561413f5761413e6140ee565b5b600061414d84828501614114565b91505092915050565b600073ffffffffffffffffffffffffffffffffffffffff82169050919050565b600061418182614156565b9050919050565b61419181614176565b82525050565b60006020820190506141ac6000830184614188565b92915050565b600060ff82169050919050565b6141c8816141b2565b81146141d357600080fd5b50565b6000813590506141e5816141bf565b92915050565b600060208284031215614201576142006140ee565b5b600061420f848285016141d6565b91505092915050565b614221816140f3565b82525050565b600060208201905061423c6000830184614218565b92915050565b61424b81614176565b811461425657600080fd5b50565b60008135905061426881614242565b92915050565b60008060408385031215614285576142846140ee565b5b600061429385828601614114565b92505060206142a485828601614259565b9150509250929050565b60008115159050919050565b6142c3816142ae565b82525050565b60006020820190506142de60008301846142ba565b92915050565b6000602082840312156142fa576142f96140ee565b5b600061430884828501614259565b91505092915050565b600081519050919050565b600082825260208201905092915050565b6000819050602082019050919050565b61434681614176565b82525050565b6000614358838361433d565b60208301905092915050565b6000602082019050919050565b600061437c82614311565b614386818561431c565b93506143918361432d565b8060005b838110156143c25781516143a9888261434c565b97506143b483614364565b925050600181019050614395565b5085935050505092915050565b600060208201905081810360008301526143e98184614371565b905092915050565b6143fa816141b2565b82525050565b600060208201905061441560008301846143f1565b92915050565b600081519050919050565b600082825260208201905092915050565b6000819050602082019050919050565b614450816140f3565b82525050565b60006144628383614447565b60208301905092915050565b6000602082019050919050565b60006144868261441b565b6144908185614426565b935061449b83614437565b8060005b838110156144cc5781516144b38882614456565b97506144be8361446e565b92505060018101905061449f565b5085935050505092915050565b600060208201905081810360008301526144f3818461447b565b905092915050565b600060808201905061451060008301876142ba565b61451d6020830186614218565b61452a6040830185614218565b6145376060830184614218565b95945050505050565b60008060408385031215614557576145566140ee565b5b600061456585828601614259565b925050602061457685828601614114565b9150509250929050565b600082825260208201905092915050565b7f496e76616c69642077616c6c657420496e6465783b0000000000000000000000600082015250565b60006145c7601583614580565b91506145d282614591565b602082019050919050565b600060208201905081810360008301526145f6816145ba565b9050919050565b7f4e487b7100000000000000000000000000000000000000000000000000000000600052603260045260246000fd5b7f4e487b7100000000000000000000000000000000000000000000000000000000600052601160045260246000fd5b6000614666826140f3565b91507fffffffffffffffffffffffffffffffffffffffffffffffffffffffffffffffff8214156146995761469861462c565b5b600182019050919050565b7f496e76616c69642063616c6c6572000000000000000000000000000000000000600082015250565b60006146da600e83614580565b91506146e5826146a4565b602082019050919050565b60006020820190508181036000830152614709816146cd565b9050919050565b7f696e76616c69642063616c6c6572000000000000000000000000000000000000600082015250565b6000614746600e83614580565b915061475182614710565b602082019050919050565b6000602082019050818103600083015261477581614739565b9050919050565b6000614787826140f3565b9150614792836140f3565b9250817fffffffffffffffffffffffffffffffffffffffffffffffffffffffffffffffff04831182151516156147cb576147ca61462c565b5b828202905092915050565b7f4e487b7100000000000000000000000000000000000000000000000000000000600052601260045260246000fd5b6000614810826140f3565b915061481b836140f3565b92508261482b5761482a6147d6565b5b828204905092915050565b6000614841826140f3565b915061484c836140f3565b92508282101561485f5761485e61462c565b5b828203905092915050565b7f4e6f20616d6f756e7420746f2077697468647261770000000000000000000000600082015250565b60006148a0601583614580565b91506148ab8261486a565b602082019050919050565b600060208201905081810360008301526148cf81614893565b9050919050565b600081905092915050565b50565b60006148f16000836148d6565b91506148fc826148e1565b600082019050919050565b6000614912826148e4565b9150819050919050565b7f5472616e73616374696f6e206661696c65642100000000000000000000000000600082015250565b6000614952601383614580565b915061495d8261491c565b602082019050919050565b6000602082019050818103600083015261498181614945565b9050919050565b7f5573657220657869737400000000000000000000000000000000000000000000600082015250565b60006149be600a83614580565b91506149c982614988565b602082019050919050565b600060208201905081810360008301526149ed816149b1565b9050919050565b7f496e636f72726563742072656665727265722049640000000000000000000000600082015250565b6000614a2a601583614580565b9150614a35826149f4565b602082019050919050565b60006020820190508181036000830152614a5981614a1d565b9050919050565b7f496e636f72726563742056616c75650000000000000000000000000000000000600082015250565b6000614a96600f83614580565b9150614aa182614a60565b602082019050919050565b60006020820190508181036000830152614ac581614a89565b9050919050565b7f4e487b7100000000000000000000000000000000000000000000000000000000600052604160045260246000fd5b6000614b06826140f3565b9150614b11836140f3565b9250827fffffffffffffffffffffffffffffffffffffffffffffffffffffffffffffffff03821115614b4657614b4561462c565b5b828201905092915050565b7f43616c6c6572206973206e6f742041646d696e2e000000000000000000000000600082015250565b6000614b87601483614580565b9150614b9282614b51565b602082019050919050565b60006020820190508181036000830152614bb681614b7a565b9050919050565b7f496e76616c696420496e64657800000000000000000000000000000000000000600082015250565b6000614bf3600d83614580565b9150614bfe82614bbd565b602082019050919050565b60006020820190508181036000830152614c2281614be6565b9050919050565b6000614c34826140f3565b9150614c3f836140f3565b925082614c4f57614c4e6147d6565b5b828206905092915050565b6000604082019050614c6f6000830185614218565b614c7c6020830184614218565b9392505050565b6000819050919050565b6000614c9882614c83565b91507f7fffffffffffffffffffffffffffffffffffffffffffffffffffffffffffffff821415614ccb57614cca61462c565b5b60018201905091905056fea2646970667358221220ffb7220660246eae47e81a6ee004d6c9c3cdd47e5a7781150bd3ef9bb0fe160564736f6c634300080b0033",
					"opcodes": "PUSH1 0x80 PUSH1 0x40 MSTORE PUSH1 0x40 MLOAD DUP1 PUSH1 0x60 ADD PUSH1 0x40 MSTORE DUP1 PUSH1 0x5 PUSH1 0xFF AND DUP2 MSTORE PUSH1 0x20 ADD PUSH1 0x3 PUSH1 0xFF AND DUP2 MSTORE PUSH1 0x20 ADD PUSH1 0x1 PUSH1 0xFF AND DUP2 MSTORE POP PUSH1 0xC SWAP1 PUSH1 0x3 PUSH3 0x3D SWAP3 SWAP2 SWAP1 PUSH3 0x67F JUMP JUMPDEST POP PUSH1 0x0 PUSH1 0x10 SSTORE PUSH1 0x0 PUSH1 0x11 SSTORE PUSH1 0x0 PUSH1 0x12 SSTORE PUSH9 0x2B5E3AF16B1880000 PUSH1 0x13 SSTORE PUSH1 0x64 PUSH1 0xA PUSH1 0x13 SLOAD PUSH3 0x6D SWAP2 SWAP1 PUSH3 0x8DB JUMP JUMPDEST PUSH3 0x79 SWAP2 SWAP1 PUSH3 0x96B JUMP JUMPDEST PUSH1 0x14 SSTORE PUSH1 0x64 PUSH1 0x9 PUSH1 0x13 SLOAD PUSH3 0x8F SWAP2 SWAP1 PUSH3 0x8DB JUMP JUMPDEST PUSH3 0x9B SWAP2 SWAP1 PUSH3 0x96B JUMP JUMPDEST PUSH1 0x15 SSTORE PUSH1 0x64 PUSH1 0x1 PUSH1 0x13 SLOAD PUSH3 0xB1 SWAP2 SWAP1 PUSH3 0x8DB JUMP JUMPDEST PUSH3 0xBD SWAP2 SWAP1 PUSH3 0x96B JUMP JUMPDEST PUSH1 0x16 SSTORE CALLVALUE DUP1 ISZERO PUSH3 0xCD JUMPI PUSH1 0x0 DUP1 REVERT JUMPDEST POP PUSH1 0x40 MLOAD PUSH3 0x582E CODESIZE SUB DUP1 PUSH3 0x582E DUP4 CODECOPY DUP2 DUP2 ADD PUSH1 0x40 MSTORE DUP2 ADD SWAP1 PUSH3 0xF3 SWAP2 SWAP1 PUSH3 0xA0D JUMP JUMPDEST CALLER PUSH1 0x0 DUP1 PUSH2 0x100 EXP DUP2 SLOAD DUP2 PUSH20 0xFFFFFFFFFFFFFFFFFFFFFFFFFFFFFFFFFFFFFFFF MUL NOT AND SWAP1 DUP4 PUSH20 0xFFFFFFFFFFFFFFFFFFFFFFFFFFFFFFFFFFFFFFFF AND MUL OR SWAP1 SSTORE POP DUP1 PUSH1 0x1 PUSH1 0x0 PUSH2 0x100 EXP DUP2 SLOAD DUP2 PUSH20 0xFFFFFFFFFFFFFFFFFFFFFFFFFFFFFFFFFFFFFFFF MUL NOT AND SWAP1 DUP4 PUSH20 0xFFFFFFFFFFFFFFFFFFFFFFFFFFFFFFFFFFFFFFFF AND MUL OR SWAP1 SSTORE POP DUP2 PUSH1 0x2 PUSH1 0x0 PUSH2 0x100 EXP DUP2 SLOAD DUP2 PUSH20 0xFFFFFFFFFFFFFFFFFFFFFFFFFFFFFFFFFFFFFFFF MUL NOT AND SWAP1 DUP4 PUSH20 0xFFFFFFFFFFFFFFFFFFFFFFFFFFFFFFFFFFFFFFFF AND MUL OR SWAP1 SSTORE POP PUSH1 0x40 MLOAD DUP1 PUSH1 0x60 ADD PUSH1 0x40 MSTORE DUP1 DUP7 PUSH20 0xFFFFFFFFFFFFFFFFFFFFFFFFFFFFFFFFFFFFFFFF AND PUSH20 0xFFFFFFFFFFFFFFFFFFFFFFFFFFFFFFFFFFFFFFFF AND DUP2 MSTORE PUSH1 0x20 ADD DUP6 PUSH20 0xFFFFFFFFFFFFFFFFFFFFFFFFFFFFFFFFFFFFFFFF AND PUSH20 0xFFFFFFFFFFFFFFFFFFFFFFFFFFFFFFFFFFFFFFFF AND DUP2 MSTORE PUSH1 0x20 ADD DUP5 PUSH20 0xFFFFFFFFFFFFFFFFFFFFFFFFFFFFFFFFFFFFFFFF AND PUSH20 0xFFFFFFFFFFFFFFFFFFFFFFFFFFFFFFFFFFFFFFFF AND DUP2 MSTORE POP PUSH1 0x9 SWAP1 PUSH1 0x3 PUSH3 0x266 SWAP3 SWAP2 SWAP1 PUSH3 0x720 JUMP JUMPDEST POP PUSH1 0x64 PUSH1 0x50 PUSH1 0x13 SLOAD PUSH3 0x27A SWAP2 SWAP1 PUSH3 0x8DB JUMP JUMPDEST PUSH3 0x286 SWAP2 SWAP1 PUSH3 0x96B JUMP JUMPDEST PUSH1 0x3 PUSH1 0x0 PUSH1 0x1 DUP2 MSTORE PUSH1 0x20 ADD SWAP1 DUP2 MSTORE PUSH1 0x20 ADD PUSH1 0x0 KECCAK256 DUP2 SWAP1 SSTORE POP PUSH1 0x2 PUSH1 0x3 PUSH1 0x0 PUSH1 0x1 DUP2 MSTORE PUSH1 0x20 ADD SWAP1 DUP2 MSTORE PUSH1 0x20 ADD PUSH1 0x0 KECCAK256 SLOAD PUSH3 0x2C1 SWAP2 SWAP1 PUSH3 0x8DB JUMP JUMPDEST PUSH1 0x3 PUSH1 0x0 PUSH1 0x2 DUP2 MSTORE PUSH1 0x20 ADD SWAP1 DUP2 MSTORE PUSH1 0x20 ADD PUSH1 0x0 KECCAK256 DUP2 SWAP1 SSTORE POP PUSH1 0x2 PUSH1 0x3 PUSH1 0x0 PUSH1 0x2 DUP2 MSTORE PUSH1 0x20 ADD SWAP1 DUP2 MSTORE PUSH1 0x20 ADD PUSH1 0x0 KECCAK256 SLOAD PUSH3 0x2FC SWAP2 SWAP1 PUSH3 0x8DB JUMP JUMPDEST PUSH1 0x3 PUSH1 0x0 PUSH1 0x3 DUP2 MSTORE PUSH1 0x20 ADD SWAP1 DUP2 MSTORE PUSH1 0x20 ADD PUSH1 0x0 KECCAK256 DUP2 SWAP1 SSTORE POP PUSH1 0x2 PUSH1 0x3 PUSH1 0x0 PUSH1 0x3 DUP2 MSTORE PUSH1 0x20 ADD SWAP1 DUP2 MSTORE PUSH1 0x20 ADD PUSH1 0x0 KECCAK256 SLOAD PUSH3 0x337 SWAP2 SWAP1 PUSH3 0x8DB JUMP JUMPDEST PUSH1 0x3 PUSH1 0x0 PUSH1 0x4 DUP2 MSTORE PUSH1 0x20 ADD SWAP1 DUP2 MSTORE PUSH1 0x20 ADD PUSH1 0x0 KECCAK256 DUP2 SWAP1 SSTORE POP PUSH1 0x2 PUSH1 0x3 PUSH1 0x0 PUSH1 0x4 DUP2 MSTORE PUSH1 0x20 ADD SWAP1 DUP2 MSTORE PUSH1 0x20 ADD PUSH1 0x0 KECCAK256 SLOAD PUSH3 0x372 SWAP2 SWAP1 PUSH3 0x8DB JUMP JUMPDEST PUSH1 0x3 PUSH1 0x0 PUSH1 0x5 DUP2 MSTORE PUSH1 0x20 ADD SWAP1 DUP2 MSTORE PUSH1 0x20 ADD PUSH1 0x0 KECCAK256 DUP2 SWAP1 SSTORE POP PUSH1 0x2 PUSH1 0x3 PUSH1 0x0 PUSH1 0x5 DUP2 MSTORE PUSH1 0x20 ADD SWAP1 DUP2 MSTORE PUSH1 0x20 ADD PUSH1 0x0 KECCAK256 SLOAD PUSH3 0x3AD SWAP2 SWAP1 PUSH3 0x8DB JUMP JUMPDEST PUSH1 0x3 PUSH1 0x0 PUSH1 0x6 DUP2 MSTORE PUSH1 0x20 ADD SWAP1 DUP2 MSTORE PUSH1 0x20 ADD PUSH1 0x0 KECCAK256 DUP2 SWAP1 SSTORE POP PUSH1 0x2 PUSH1 0x3 PUSH1 0x0 PUSH1 0x6 DUP2 MSTORE PUSH1 0x20 ADD SWAP1 DUP2 MSTORE PUSH1 0x20 ADD PUSH1 0x0 KECCAK256 SLOAD PUSH3 0x3E8 SWAP2 SWAP1 PUSH3 0x8DB JUMP JUMPDEST PUSH1 0x3 PUSH1 0x0 PUSH1 0x7 DUP2 MSTORE PUSH1 0x20 ADD SWAP1 DUP2 MSTORE PUSH1 0x20 ADD PUSH1 0x0 KECCAK256 DUP2 SWAP1 SSTORE POP PUSH1 0x2 PUSH1 0x3 PUSH1 0x0 PUSH1 0x7 DUP2 MSTORE PUSH1 0x20 ADD SWAP1 DUP2 MSTORE PUSH1 0x20 ADD PUSH1 0x0 KECCAK256 SLOAD PUSH3 0x423 SWAP2 SWAP1 PUSH3 0x8DB JUMP JUMPDEST PUSH1 0x3 PUSH1 0x0 PUSH1 0x8 DUP2 MSTORE PUSH1 0x20 ADD SWAP1 DUP2 MSTORE PUSH1 0x20 ADD PUSH1 0x0 KECCAK256 DUP2 SWAP1 SSTORE POP PUSH1 0x2 PUSH1 0x3 PUSH1 0x0 PUSH1 0x8 DUP2 MSTORE PUSH1 0x20 ADD SWAP1 DUP2 MSTORE PUSH1 0x20 ADD PUSH1 0x0 KECCAK256 SLOAD PUSH3 0x45E SWAP2 SWAP1 PUSH3 0x8DB JUMP JUMPDEST PUSH1 0x3 PUSH1 0x0 PUSH1 0x9 DUP2 MSTORE PUSH1 0x20 ADD SWAP1 DUP2 MSTORE PUSH1 0x20 ADD PUSH1 0x0 KECCAK256 DUP2 SWAP1 SSTORE POP PUSH1 0x0 PUSH1 0x4 PUSH1 0x0 DUP1 PUSH1 0x0 SWAP1 SLOAD SWAP1 PUSH2 0x100 EXP SWAP1 DIV PUSH20 0xFFFFFFFFFFFFFFFFFFFFFFFFFFFFFFFFFFFFFFFF AND PUSH20 0xFFFFFFFFFFFFFFFFFFFFFFFFFFFFFFFFFFFFFFFF AND PUSH20 0xFFFFFFFFFFFFFFFFFFFFFFFFFFFFFFFFFFFFFFFF AND DUP2 MSTORE PUSH1 0x20 ADD SWAP1 DUP2 MSTORE PUSH1 0x20 ADD PUSH1 0x0 KECCAK256 SWAP1 POP PUSH1 0x1 DUP2 PUSH1 0x0 ADD PUSH1 0x0 PUSH2 0x100 EXP DUP2 SLOAD DUP2 PUSH1 0xFF MUL NOT AND SWAP1 DUP4 ISZERO ISZERO MUL OR SWAP1 SSTORE POP PUSH1 0x10 SLOAD DUP2 PUSH1 0x1 ADD DUP2 SWAP1 SSTORE POP PUSH1 0x0 DUP2 PUSH1 0x2 ADD DUP2 SWAP1 SSTORE POP PUSH1 0x0 PUSH8 0xFFFFFFFFFFFFFFFF DUP2 GT ISZERO PUSH3 0x52A JUMPI PUSH3 0x529 PUSH3 0xA95 JUMP JUMPDEST JUMPDEST PUSH1 0x40 MLOAD SWAP1 DUP1 DUP3 MSTORE DUP1 PUSH1 0x20 MUL PUSH1 0x20 ADD DUP3 ADD PUSH1 0x40 MSTORE DUP1 ISZERO PUSH3 0x559 JUMPI DUP2 PUSH1 0x20 ADD PUSH1 0x20 DUP3 MUL DUP1 CALLDATASIZE DUP4 CALLDATACOPY DUP1 DUP3 ADD SWAP2 POP POP SWAP1 POP JUMPDEST POP DUP2 PUSH1 0x3 ADD SWAP1 DUP1 MLOAD SWAP1 PUSH1 0x20 ADD SWAP1 PUSH3 0x573 SWAP3 SWAP2 SWAP1 PUSH3 0x7A2 JUMP JUMPDEST POP TIMESTAMP DUP2 PUSH1 0x4 ADD DUP2 SWAP1 SSTORE POP PUSH1 0x0 PUSH8 0xFFFFFFFFFFFFFFFF DUP2 GT ISZERO PUSH3 0x59B JUMPI PUSH3 0x59A PUSH3 0xA95 JUMP JUMPDEST JUMPDEST PUSH1 0x40 MLOAD SWAP1 DUP1 DUP3 MSTORE DUP1 PUSH1 0x20 MUL PUSH1 0x20 ADD DUP3 ADD PUSH1 0x40 MSTORE DUP1 ISZERO PUSH3 0x5CA JUMPI DUP2 PUSH1 0x20 ADD PUSH1 0x20 DUP3 MUL DUP1 CALLDATASIZE DUP4 CALLDATACOPY DUP1 DUP3 ADD SWAP2 POP POP SWAP1 POP JUMPDEST POP DUP2 PUSH1 0x6 ADD SWAP1 DUP1 MLOAD SWAP1 PUSH1 0x20 ADD SWAP1 PUSH3 0x5E4 SWAP3 SWAP2 SWAP1 PUSH3 0x831 JUMP JUMPDEST POP PUSH1 0x10 PUSH1 0x0 DUP2 SLOAD DUP1 SWAP3 SWAP2 SWAP1 PUSH3 0x5FA SWAP1 PUSH3 0xAC4 JUMP JUMPDEST SWAP2 SWAP1 POP SSTORE POP PUSH1 0x0 DUP1 SLOAD SWAP1 PUSH2 0x100 EXP SWAP1 DIV PUSH20 0xFFFFFFFFFFFFFFFFFFFFFFFFFFFFFFFFFFFFFFFF AND PUSH1 0x5 PUSH1 0x0 PUSH1 0x10 SLOAD DUP2 MSTORE PUSH1 0x20 ADD SWAP1 DUP2 MSTORE PUSH1 0x20 ADD PUSH1 0x0 KECCAK256 PUSH1 0x0 PUSH2 0x100 EXP DUP2 SLOAD DUP2 PUSH20 0xFFFFFFFFFFFFFFFFFFFFFFFFFFFFFFFFFFFFFFFF MUL NOT AND SWAP1 DUP4 PUSH20 0xFFFFFFFFFFFFFFFFFFFFFFFFFFFFFFFFFFFFFFFF AND MUL OR SWAP1 SSTORE POP POP POP POP POP POP POP PUSH3 0xB12 JUMP JUMPDEST DUP3 PUSH1 0x3 PUSH1 0x1F ADD PUSH1 0x20 SWAP1 DIV DUP2 ADD SWAP3 DUP3 ISZERO PUSH3 0x70D JUMPI SWAP2 PUSH1 0x20 MUL DUP3 ADD PUSH1 0x0 JUMPDEST DUP4 DUP3 GT ISZERO PUSH3 0x6DC JUMPI DUP4 MLOAD DUP4 DUP3 PUSH2 0x100 EXP DUP2 SLOAD DUP2 PUSH1 0xFF MUL NOT AND SWAP1 DUP4 PUSH1 0xFF AND MUL OR SWAP1 SSTORE POP SWAP3 PUSH1 0x20 ADD SWAP3 PUSH1 0x1 ADD PUSH1 0x20 DUP2 PUSH1 0x0 ADD DIV SWAP3 DUP4 ADD SWAP3 PUSH1 0x1 SUB MUL PUSH3 0x69C JUMP JUMPDEST DUP1 ISZERO PUSH3 0x70B JUMPI DUP3 DUP2 PUSH2 0x100 EXP DUP2 SLOAD SWAP1 PUSH1 0xFF MUL NOT AND SWAP1 SSTORE PUSH1 0x1 ADD PUSH1 0x20 DUP2 PUSH1 0x0 ADD DIV SWAP3 DUP4 ADD SWAP3 PUSH1 0x1 SUB MUL PUSH3 0x6DC JUMP JUMPDEST POP JUMPDEST POP SWAP1 POP PUSH3 0x71C SWAP2 SWAP1 PUSH3 0x883 JUMP JUMPDEST POP SWAP1 JUMP JUMPDEST DUP3 PUSH1 0x3 DUP2 ADD SWAP3 DUP3 ISZERO PUSH3 0x78F JUMPI SWAP2 PUSH1 0x20 MUL DUP3 ADD JUMPDEST DUP3 DUP2 GT ISZERO PUSH3 0x78E JUMPI DUP3 MLOAD DUP3 PUSH1 0x0 PUSH2 0x100 EXP DUP2 SLOAD DUP2 PUSH20 0xFFFFFFFFFFFFFFFFFFFFFFFFFFFFFFFFFFFFFFFF MUL NOT AND SWAP1 DUP4 PUSH20 0xFFFFFFFFFFFFFFFFFFFFFFFFFFFFFFFFFFFFFFFF AND MUL OR SWAP1 SSTORE POP SWAP2 PUSH1 0x20 ADD SWAP2 SWAP1 PUSH1 0x1 ADD SWAP1 PUSH3 0x734 JUMP JUMPDEST JUMPDEST POP SWAP1 POP PUSH3 0x79E SWAP2 SWAP1 PUSH3 0x883 JUMP JUMPDEST POP SWAP1 JUMP JUMPDEST DUP3 DUP1 SLOAD DUP3 DUP3 SSTORE SWAP1 PUSH1 0x0 MSTORE PUSH1 0x20 PUSH1 0x0 KECCAK256 SWAP1 DUP2 ADD SWAP3 DUP3 ISZERO PUSH3 0x81E JUMPI SWAP2 PUSH1 0x20 MUL DUP3 ADD JUMPDEST DUP3 DUP2 GT ISZERO PUSH3 0x81D JUMPI DUP3 MLOAD DUP3 PUSH1 0x0 PUSH2 0x100 EXP DUP2 SLOAD DUP2 PUSH20 0xFFFFFFFFFFFFFFFFFFFFFFFFFFFFFFFFFFFFFFFF MUL NOT AND SWAP1 DUP4 PUSH20 0xFFFFFFFFFFFFFFFFFFFFFFFFFFFFFFFFFFFFFFFF AND MUL OR SWAP1 SSTORE POP SWAP2 PUSH1 0x20 ADD SWAP2 SWAP1 PUSH1 0x1 ADD SWAP1 PUSH3 0x7C3 JUMP JUMPDEST JUMPDEST POP SWAP1 POP PUSH3 0x82D SWAP2 SWAP1 PUSH3 0x883 JUMP JUMPDEST POP SWAP1 JUMP JUMPDEST DUP3 DUP1 SLOAD DUP3 DUP3 SSTORE SWAP1 PUSH1 0x0 MSTORE PUSH1 0x20 PUSH1 0x0 KECCAK256 SWAP1 DUP2 ADD SWAP3 DUP3 ISZERO PUSH3 0x870 JUMPI SWAP2 PUSH1 0x20 MUL DUP3 ADD JUMPDEST DUP3 DUP2 GT ISZERO PUSH3 0x86F JUMPI DUP3 MLOAD DUP3 SSTORE SWAP2 PUSH1 0x20 ADD SWAP2 SWAP1 PUSH1 0x1 ADD SWAP1 PUSH3 0x852 JUMP JUMPDEST JUMPDEST POP SWAP1 POP PUSH3 0x87F SWAP2 SWAP1 PUSH3 0x883 JUMP JUMPDEST POP SWAP1 JUMP JUMPDEST JUMPDEST DUP1 DUP3 GT ISZERO PUSH3 0x89E JUMPI PUSH1 0x0 DUP2 PUSH1 0x0 SWAP1 SSTORE POP PUSH1 0x1 ADD PUSH3 0x884 JUMP JUMPDEST POP SWAP1 JUMP JUMPDEST PUSH1 0x0 DUP2 SWAP1 POP SWAP2 SWAP1 POP JUMP JUMPDEST PUSH32 0x4E487B7100000000000000000000000000000000000000000000000000000000 PUSH1 0x0 MSTORE PUSH1 0x11 PUSH1 0x4 MSTORE PUSH1 0x24 PUSH1 0x0 REVERT JUMPDEST PUSH1 0x0 PUSH3 0x8E8 DUP3 PUSH3 0x8A2 JUMP JUMPDEST SWAP2 POP PUSH3 0x8F5 DUP4 PUSH3 0x8A2 JUMP JUMPDEST SWAP3 POP DUP2 PUSH32 0xFFFFFFFFFFFFFFFFFFFFFFFFFFFFFFFFFFFFFFFFFFFFFFFFFFFFFFFFFFFFFFFF DIV DUP4 GT DUP3 ISZERO ISZERO AND ISZERO PUSH3 0x931 JUMPI PUSH3 0x930 PUSH3 0x8AC JUMP JUMPDEST JUMPDEST DUP3 DUP3 MUL SWAP1 POP SWAP3 SWAP2 POP POP JUMP JUMPDEST PUSH32 0x4E487B7100000000000000000000000000000000000000000000000000000000 PUSH1 0x0 MSTORE PUSH1 0x12 PUSH1 0x4 MSTORE PUSH1 0x24 PUSH1 0x0 REVERT JUMPDEST PUSH1 0x0 PUSH3 0x978 DUP3 PUSH3 0x8A2 JUMP JUMPDEST SWAP2 POP PUSH3 0x985 DUP4 PUSH3 0x8A2 JUMP JUMPDEST SWAP3 POP DUP3 PUSH3 0x998 JUMPI PUSH3 0x997 PUSH3 0x93C JUMP JUMPDEST JUMPDEST DUP3 DUP3 DIV SWAP1 POP SWAP3 SWAP2 POP POP JUMP JUMPDEST PUSH1 0x0 DUP1 REVERT JUMPDEST PUSH1 0x0 PUSH20 0xFFFFFFFFFFFFFFFFFFFFFFFFFFFFFFFFFFFFFFFF DUP3 AND SWAP1 POP SWAP2 SWAP1 POP JUMP JUMPDEST PUSH1 0x0 PUSH3 0x9D5 DUP3 PUSH3 0x9A8 JUMP JUMPDEST SWAP1 POP SWAP2 SWAP1 POP JUMP JUMPDEST PUSH3 0x9E7 DUP2 PUSH3 0x9C8 JUMP JUMPDEST DUP2 EQ PUSH3 0x9F3 JUMPI PUSH1 0x0 DUP1 REVERT JUMPDEST POP JUMP JUMPDEST PUSH1 0x0 DUP2 MLOAD SWAP1 POP PUSH3 0xA07 DUP2 PUSH3 0x9DC JUMP JUMPDEST SWAP3 SWAP2 POP POP JUMP JUMPDEST PUSH1 0x0 DUP1 PUSH1 0x0 DUP1 PUSH1 0x0 PUSH1 0xA0 DUP7 DUP9 SUB SLT ISZERO PUSH3 0xA2C JUMPI PUSH3 0xA2B PUSH3 0x9A3 JUMP JUMPDEST JUMPDEST PUSH1 0x0 PUSH3 0xA3C DUP9 DUP3 DUP10 ADD PUSH3 0x9F6 JUMP JUMPDEST SWAP6 POP POP PUSH1 0x20 PUSH3 0xA4F DUP9 DUP3 DUP10 ADD PUSH3 0x9F6 JUMP JUMPDEST SWAP5 POP POP PUSH1 0x40 PUSH3 0xA62 DUP9 DUP3 DUP10 ADD PUSH3 0x9F6 JUMP JUMPDEST SWAP4 POP POP PUSH1 0x60 PUSH3 0xA75 DUP9 DUP3 DUP10 ADD PUSH3 0x9F6 JUMP JUMPDEST SWAP3 POP POP PUSH1 0x80 PUSH3 0xA88 DUP9 DUP3 DUP10 ADD PUSH3 0x9F6 JUMP JUMPDEST SWAP2 POP POP SWAP3 SWAP6 POP SWAP3 SWAP6 SWAP1 SWAP4 POP JUMP JUMPDEST PUSH32 0x4E487B7100000000000000000000000000000000000000000000000000000000 PUSH1 0x0 MSTORE PUSH1 0x41 PUSH1 0x4 MSTORE PUSH1 0x24 PUSH1 0x0 REVERT JUMPDEST PUSH1 0x0 PUSH3 0xAD1 DUP3 PUSH3 0x8A2 JUMP JUMPDEST SWAP2 POP PUSH32 0xFFFFFFFFFFFFFFFFFFFFFFFFFFFFFFFFFFFFFFFFFFFFFFFFFFFFFFFFFFFFFFFF DUP3 EQ ISZERO PUSH3 0xB07 JUMPI PUSH3 0xB06 PUSH3 0x8AC JUMP JUMPDEST JUMPDEST PUSH1 0x1 DUP3 ADD SWAP1 POP SWAP2 SWAP1 POP JUMP JUMPDEST PUSH2 0x4D0C DUP1 PUSH3 0xB22 PUSH1 0x0 CODECOPY PUSH1 0x0 RETURN INVALID PUSH1 0x80 PUSH1 0x40 MSTORE PUSH1 0x4 CALLDATASIZE LT PUSH2 0x12A JUMPI PUSH1 0x0 CALLDATALOAD PUSH1 0xE0 SHR DUP1 PUSH4 0x6F9FB98A GT PUSH2 0xAB JUMPI DUP1 PUSH4 0xA4BB170D GT PUSH2 0x6F JUMPI DUP1 PUSH4 0xA4BB170D EQ PUSH2 0x47F JUMPI DUP1 PUSH4 0xA87430BA EQ PUSH2 0x4AA JUMPI DUP1 PUSH4 0xAA24C5C5 EQ PUSH2 0x4EA JUMPI DUP1 PUSH4 0xB2C4CC1F EQ PUSH2 0x527 JUMPI DUP1 PUSH4 0xBBF57068 EQ PUSH2 0x550 JUMPI DUP1 PUSH4 0xC15DEC85 EQ PUSH2 0x58D JUMPI PUSH2 0x12A JUMP JUMPDEST DUP1 PUSH4 0x6F9FB98A EQ PUSH2 0x37F JUMPI DUP1 PUSH4 0x79378E30 EQ PUSH2 0x3AA JUMPI DUP1 PUSH4 0x8853B53E EQ PUSH2 0x3E7 JUMPI DUP1 PUSH4 0x992C85D2 EQ PUSH2 0x417 JUMPI DUP1 PUSH4 0x9F4216E8 EQ PUSH2 0x442 JUMPI PUSH2 0x12A JUMP JUMPDEST DUP1 PUSH4 0x4676B06C GT PUSH2 0xF2 JUMPI DUP1 PUSH4 0x4676B06C EQ PUSH2 0x24E JUMPI DUP1 PUSH4 0x4D948BEA EQ PUSH2 0x28B JUMPI DUP1 PUSH4 0x575CEA6B EQ PUSH2 0x2C8 JUMPI DUP1 PUSH4 0x6043DDAD EQ PUSH2 0x305 JUMPI DUP1 PUSH4 0x6158FA00 EQ PUSH2 0x342 JUMPI PUSH2 0x12A JUMP JUMPDEST DUP1 PUSH4 0x10E4077A EQ PUSH2 0x12F JUMPI DUP1 PUSH4 0x12C468EA EQ PUSH2 0x16C JUMPI DUP1 PUSH4 0x15A1DA1B EQ PUSH2 0x1A9 JUMPI DUP1 PUSH4 0x36B19CD7 EQ PUSH2 0x1E6 JUMPI DUP1 PUSH4 0x43F6753C EQ PUSH2 0x211 JUMPI JUMPDEST PUSH1 0x0 DUP1 REVERT JUMPDEST CALLVALUE DUP1 ISZERO PUSH2 0x13B JUMPI PUSH1 0x0 DUP1 REVERT JUMPDEST POP PUSH2 0x156 PUSH1 0x4 DUP1 CALLDATASIZE SUB DUP2 ADD SWAP1 PUSH2 0x151 SWAP2 SWAP1 PUSH2 0x4129 JUMP JUMPDEST PUSH2 0x5B8 JUMP JUMPDEST PUSH1 0x40 MLOAD PUSH2 0x163 SWAP2 SWAP1 PUSH2 0x4197 JUMP JUMPDEST PUSH1 0x40 MLOAD DUP1 SWAP2 SUB SWAP1 RETURN JUMPDEST CALLVALUE DUP1 ISZERO PUSH2 0x178 JUMPI PUSH1 0x0 DUP1 REVERT JUMPDEST POP PUSH2 0x193 PUSH1 0x4 DUP1 CALLDATASIZE SUB DUP2 ADD SWAP1 PUSH2 0x18E SWAP2 SWAP1 PUSH2 0x41EB JUMP JUMPDEST PUSH2 0x5EE JUMP JUMPDEST PUSH1 0x40 MLOAD PUSH2 0x1A0 SWAP2 SWAP1 PUSH2 0x4227 JUMP JUMPDEST PUSH1 0x40 MLOAD DUP1 SWAP2 SUB SWAP1 RETURN JUMPDEST CALLVALUE DUP1 ISZERO PUSH2 0x1B5 JUMPI PUSH1 0x0 DUP1 REVERT JUMPDEST POP PUSH2 0x1D0 PUSH1 0x4 DUP1 CALLDATASIZE SUB DUP2 ADD SWAP1 PUSH2 0x1CB SWAP2 SWAP1 PUSH2 0x4129 JUMP JUMPDEST PUSH2 0x8B3 JUMP JUMPDEST PUSH1 0x40 MLOAD PUSH2 0x1DD SWAP2 SWAP1 PUSH2 0x4227 JUMP JUMPDEST PUSH1 0x40 MLOAD DUP1 SWAP2 SUB SWAP1 RETURN JUMPDEST CALLVALUE DUP1 ISZERO PUSH2 0x1F2 JUMPI PUSH1 0x0 DUP1 REVERT JUMPDEST POP PUSH2 0x1FB PUSH2 0x8CE JUMP JUMPDEST PUSH1 0x40 MLOAD PUSH2 0x208 SWAP2 SWAP1 PUSH2 0x4197 JUMP JUMPDEST PUSH1 0x40 MLOAD DUP1 SWAP2 SUB SWAP1 RETURN JUMPDEST CALLVALUE DUP1 ISZERO PUSH2 0x21D JUMPI PUSH1 0x0 DUP1 REVERT JUMPDEST POP PUSH2 0x238 PUSH1 0x4 DUP1 CALLDATASIZE SUB DUP2 ADD SWAP1 PUSH2 0x233 SWAP2 SWAP1 PUSH2 0x426E JUMP JUMPDEST PUSH2 0x8F2 JUMP JUMPDEST PUSH1 0x40 MLOAD PUSH2 0x245 SWAP2 SWAP1 PUSH2 0x4197 JUMP JUMPDEST PUSH1 0x40 MLOAD DUP1 SWAP2 SUB SWAP1 RETURN JUMPDEST CALLVALUE DUP1 ISZERO PUSH2 0x25A JUMPI PUSH1 0x0 DUP1 REVERT JUMPDEST POP PUSH2 0x275 PUSH1 0x4 DUP1 CALLDATASIZE SUB DUP2 ADD SWAP1 PUSH2 0x270 SWAP2 SWAP1 PUSH2 0x41EB JUMP JUMPDEST PUSH2 0x934 JUMP JUMPDEST PUSH1 0x40 MLOAD PUSH2 0x282 SWAP2 SWAP1 PUSH2 0x42C9 JUMP JUMPDEST PUSH1 0x40 MLOAD DUP1 SWAP2 SUB SWAP1 RETURN JUMPDEST CALLVALUE DUP1 ISZERO PUSH2 0x297 JUMPI PUSH1 0x0 DUP1 REVERT JUMPDEST POP PUSH2 0x2B2 PUSH1 0x4 DUP1 CALLDATASIZE SUB DUP2 ADD SWAP1 PUSH2 0x2AD SWAP2 SWAP1 PUSH2 0x426E JUMP JUMPDEST PUSH2 0xD12 JUMP JUMPDEST PUSH1 0x40 MLOAD PUSH2 0x2BF SWAP2 SWAP1 PUSH2 0x42C9 JUMP JUMPDEST PUSH1 0x40 MLOAD DUP1 SWAP2 SUB SWAP1 RETURN JUMPDEST CALLVALUE DUP1 ISZERO PUSH2 0x2D4 JUMPI PUSH1 0x0 DUP1 REVERT JUMPDEST POP PUSH2 0x2EF PUSH1 0x4 DUP1 CALLDATASIZE SUB DUP2 ADD SWAP1 PUSH2 0x2EA SWAP2 SWAP1 PUSH2 0x42E4 JUMP JUMPDEST PUSH2 0xD41 JUMP JUMPDEST PUSH1 0x40 MLOAD PUSH2 0x2FC SWAP2 SWAP1 PUSH2 0x43CF JUMP JUMPDEST PUSH1 0x40 MLOAD DUP1 SWAP2 SUB SWAP1 RETURN JUMPDEST CALLVALUE DUP1 ISZERO PUSH2 0x311 JUMPI PUSH1 0x0 DUP1 REVERT JUMPDEST POP PUSH2 0x32C PUSH1 0x4 DUP1 CALLDATASIZE SUB DUP2 ADD SWAP1 PUSH2 0x327 SWAP2 SWAP1 PUSH2 0x4129 JUMP JUMPDEST PUSH2 0xE11 JUMP JUMPDEST PUSH1 0x40 MLOAD PUSH2 0x339 SWAP2 SWAP1 PUSH2 0x4400 JUMP JUMPDEST PUSH1 0x40 MLOAD DUP1 SWAP2 SUB SWAP1 RETURN JUMPDEST CALLVALUE DUP1 ISZERO PUSH2 0x34E JUMPI PUSH1 0x0 DUP1 REVERT JUMPDEST POP PUSH2 0x369 PUSH1 0x4 DUP1 CALLDATASIZE SUB DUP2 ADD SWAP1 PUSH2 0x364 SWAP2 SWAP1 PUSH2 0x42E4 JUMP JUMPDEST PUSH2 0xE3B JUMP JUMPDEST PUSH1 0x40 MLOAD PUSH2 0x376 SWAP2 SWAP1 PUSH2 0x44D9 JUMP JUMPDEST PUSH1 0x40 MLOAD DUP1 SWAP2 SUB SWAP1 RETURN JUMPDEST CALLVALUE DUP1 ISZERO PUSH2 0x38B JUMPI PUSH1 0x0 DUP1 REVERT JUMPDEST POP PUSH2 0x394 PUSH2 0xED5 JUMP JUMPDEST PUSH1 0x40 MLOAD PUSH2 0x3A1 SWAP2 SWAP1 PUSH2 0x4227 JUMP JUMPDEST PUSH1 0x40 MLOAD DUP1 SWAP2 SUB SWAP1 RETURN JUMPDEST CALLVALUE DUP1 ISZERO PUSH2 0x3B6 JUMPI PUSH1 0x0 DUP1 REVERT JUMPDEST POP PUSH2 0x3D1 PUSH1 0x4 DUP1 CALLDATASIZE SUB DUP2 ADD SWAP1 PUSH2 0x3CC SWAP2 SWAP1 PUSH2 0x4129 JUMP JUMPDEST PUSH2 0xEEB JUMP JUMPDEST PUSH1 0x40 MLOAD PUSH2 0x3DE SWAP2 SWAP1 PUSH2 0x4227 JUMP JUMPDEST PUSH1 0x40 MLOAD DUP1 SWAP2 SUB SWAP1 RETURN JUMPDEST PUSH2 0x401 PUSH1 0x4 DUP1 CALLDATASIZE SUB DUP2 ADD SWAP1 PUSH2 0x3FC SWAP2 SWAP1 PUSH2 0x4129 JUMP JUMPDEST PUSH2 0xF03 JUMP JUMPDEST PUSH1 0x40 MLOAD PUSH2 0x40E SWAP2 SWAP1 PUSH2 0x42C9 JUMP JUMPDEST PUSH1 0x40 MLOAD DUP1 SWAP2 SUB SWAP1 RETURN JUMPDEST CALLVALUE DUP1 ISZERO PUSH2 0x423 JUMPI PUSH1 0x0 DUP1 REVERT JUMPDEST POP PUSH2 0x42C PUSH2 0x1834 JUMP JUMPDEST PUSH1 0x40 MLOAD PUSH2 0x439 SWAP2 SWAP1 PUSH2 0x4197 JUMP JUMPDEST PUSH1 0x40 MLOAD DUP1 SWAP2 SUB SWAP1 RETURN JUMPDEST CALLVALUE DUP1 ISZERO PUSH2 0x44E JUMPI PUSH1 0x0 DUP1 REVERT JUMPDEST POP PUSH2 0x469 PUSH1 0x4 DUP1 CALLDATASIZE SUB DUP2 ADD SWAP1 PUSH2 0x464 SWAP2 SWAP1 PUSH2 0x4129 JUMP JUMPDEST PUSH2 0x185A JUMP JUMPDEST PUSH1 0x40 MLOAD PUSH2 0x476 SWAP2 SWAP1 PUSH2 0x4197 JUMP JUMPDEST PUSH1 0x40 MLOAD DUP1 SWAP2 SUB SWAP1 RETURN JUMPDEST CALLVALUE DUP1 ISZERO PUSH2 0x48B JUMPI PUSH1 0x0 DUP1 REVERT JUMPDEST POP PUSH2 0x494 PUSH2 0x188D JUMP JUMPDEST PUSH1 0x40 MLOAD PUSH2 0x4A1 SWAP2 SWAP1 PUSH2 0x4227 JUMP JUMPDEST PUSH1 0x40 MLOAD DUP1 SWAP2 SUB SWAP1 RETURN JUMPDEST CALLVALUE DUP1 ISZERO PUSH2 0x4B6 JUMPI PUSH1 0x0 DUP1 REVERT JUMPDEST POP PUSH2 0x4D1 PUSH1 0x4 DUP1 CALLDATASIZE SUB DUP2 ADD SWAP1 PUSH2 0x4CC SWAP2 SWAP1 PUSH2 0x42E4 JUMP JUMPDEST PUSH2 0x1893 JUMP JUMPDEST PUSH1 0x40 MLOAD PUSH2 0x4E1 SWAP5 SWAP4 SWAP3 SWAP2 SWAP1 PUSH2 0x44FB JUMP JUMPDEST PUSH1 0x40 MLOAD DUP1 SWAP2 SUB SWAP1 RETURN JUMPDEST CALLVALUE DUP1 ISZERO PUSH2 0x4F6 JUMPI PUSH1 0x0 DUP1 REVERT JUMPDEST POP PUSH2 0x511 PUSH1 0x4 DUP1 CALLDATASIZE SUB DUP2 ADD SWAP1 PUSH2 0x50C SWAP2 SWAP1 PUSH2 0x4540 JUMP JUMPDEST PUSH2 0x18D0 JUMP JUMPDEST PUSH1 0x40 MLOAD PUSH2 0x51E SWAP2 SWAP1 PUSH2 0x4227 JUMP JUMPDEST PUSH1 0x40 MLOAD DUP1 SWAP2 SUB SWAP1 RETURN JUMPDEST CALLVALUE DUP1 ISZERO PUSH2 0x533 JUMPI PUSH1 0x0 DUP1 REVERT JUMPDEST POP PUSH2 0x54E PUSH1 0x4 DUP1 CALLDATASIZE SUB DUP2 ADD SWAP1 PUSH2 0x549 SWAP2 SWAP1 PUSH2 0x4540 JUMP JUMPDEST PUSH2 0x192E JUMP JUMPDEST STOP JUMPDEST CALLVALUE DUP1 ISZERO PUSH2 0x55C JUMPI PUSH1 0x0 DUP1 REVERT JUMPDEST POP PUSH2 0x577 PUSH1 0x4 DUP1 CALLDATASIZE SUB DUP2 ADD SWAP1 PUSH2 0x572 SWAP2 SWAP1 PUSH2 0x426E JUMP JUMPDEST PUSH2 0x1B91 JUMP JUMPDEST PUSH1 0x40 MLOAD PUSH2 0x584 SWAP2 SWAP1 PUSH2 0x4227 JUMP JUMPDEST PUSH1 0x40 MLOAD DUP1 SWAP2 SUB SWAP1 RETURN JUMPDEST CALLVALUE DUP1 ISZERO PUSH2 0x599 JUMPI PUSH1 0x0 DUP1 REVERT JUMPDEST POP PUSH2 0x5A2 PUSH2 0x1BB6 JUMP JUMPDEST PUSH1 0x40 MLOAD PUSH2 0x5AF SWAP2 SWAP1 PUSH2 0x4197 JUMP JUMPDEST PUSH1 0x40 MLOAD DUP1 SWAP2 SUB SWAP1 RETURN JUMPDEST PUSH1 0x9 DUP2 PUSH1 0x3 DUP2 LT PUSH2 0x5C8 JUMPI PUSH1 0x0 DUP1 REVERT JUMPDEST ADD PUSH1 0x0 SWAP2 POP SLOAD SWAP1 PUSH2 0x100 EXP SWAP1 DIV PUSH20 0xFFFFFFFFFFFFFFFFFFFFFFFFFFFFFFFFFFFFFFFF AND DUP2 JUMP JUMPDEST PUSH1 0x0 PUSH1 0x4 DUP3 PUSH1 0xFF AND GT ISZERO PUSH2 0x637 JUMPI PUSH1 0x40 MLOAD PUSH32 0x8C379A000000000000000000000000000000000000000000000000000000000 DUP2 MSTORE PUSH1 0x4 ADD PUSH2 0x62E SWAP1 PUSH2 0x45DD JUMP JUMPDEST PUSH1 0x40 MLOAD DUP1 SWAP2 SUB SWAP1 REVERT JUMPDEST PUSH1 0x0 PUSH1 0x2 DUP4 PUSH1 0xFF AND GT PUSH2 0x742 JUMPI PUSH1 0x0 DUP1 PUSH1 0x0 JUMPDEST PUSH1 0x3 DUP2 LT ISZERO PUSH2 0x6DB JUMPI CALLER PUSH20 0xFFFFFFFFFFFFFFFFFFFFFFFFFFFFFFFFFFFFFFFF AND PUSH1 0x9 DUP3 PUSH1 0x3 DUP2 LT PUSH2 0x67E JUMPI PUSH2 0x67D PUSH2 0x45FD JUMP JUMPDEST JUMPDEST ADD PUSH1 0x0 SWAP1 SLOAD SWAP1 PUSH2 0x100 EXP SWAP1 DIV PUSH20 0xFFFFFFFFFFFFFFFFFFFFFFFFFFFFFFFFFFFFFFFF AND PUSH20 0xFFFFFFFFFFFFFFFFFFFFFFFFFFFFFFFFFFFFFFFF AND EQ ISZERO PUSH2 0x6C8 JUMPI PUSH1 0x1 SWAP3 POP DUP1 SWAP2 POP PUSH2 0x6DB JUMP JUMPDEST DUP1 DUP1 PUSH2 0x6D3 SWAP1 PUSH2 0x465B JUMP JUMPDEST SWAP2 POP POP PUSH2 0x64A JUMP JUMPDEST POP PUSH1 0x1 ISZERO ISZERO DUP3 ISZERO ISZERO EQ PUSH2 0x723 JUMPI PUSH1 0x40 MLOAD PUSH32 0x8C379A000000000000000000000000000000000000000000000000000000000 DUP2 MSTORE PUSH1 0x4 ADD PUSH2 0x71A SWAP1 PUSH2 0x46F0 JUMP JUMPDEST PUSH1 0x40 MLOAD DUP1 SWAP2 SUB SWAP1 REVERT JUMPDEST PUSH1 0xD DUP2 PUSH1 0x3 DUP2 LT PUSH2 0x737 JUMPI PUSH2 0x736 PUSH2 0x45FD JUMP JUMPDEST JUMPDEST ADD SLOAD SWAP3 POP POP POP PUSH2 0x897 JUMP JUMPDEST PUSH1 0x3 DUP4 PUSH1 0xFF AND EQ ISZERO PUSH2 0x7E8 JUMPI PUSH1 0x2 PUSH1 0x0 SWAP1 SLOAD SWAP1 PUSH2 0x100 EXP SWAP1 DIV PUSH20 0xFFFFFFFFFFFFFFFFFFFFFFFFFFFFFFFFFFFFFFFF AND PUSH20 0xFFFFFFFFFFFFFFFFFFFFFFFFFFFFFFFFFFFFFFFF AND CALLER PUSH20 0xFFFFFFFFFFFFFFFFFFFFFFFFFFFFFFFFFFFFFFFF AND EQ PUSH2 0x7DE JUMPI PUSH1 0x40 MLOAD PUSH32 0x8C379A000000000000000000000000000000000000000000000000000000000 DUP2 MSTORE PUSH1 0x4 ADD PUSH2 0x7D5 SWAP1 PUSH2 0x475C JUMP JUMPDEST PUSH1 0x40 MLOAD DUP1 SWAP2 SUB SWAP1 REVERT JUMPDEST PUSH1 0x11 SLOAD SWAP1 POP PUSH2 0x896 JUMP JUMPDEST PUSH1 0x1 PUSH1 0x0 SWAP1 SLOAD SWAP1 PUSH2 0x100 EXP SWAP1 DIV PUSH20 0xFFFFFFFFFFFFFFFFFFFFFFFFFFFFFFFFFFFFFFFF AND PUSH20 0xFFFFFFFFFFFFFFFFFFFFFFFFFFFFFFFFFFFFFFFF AND CALLER PUSH20 0xFFFFFFFFFFFFFFFFFFFFFFFFFFFFFFFFFFFFFFFF AND EQ PUSH2 0x878 JUMPI PUSH1 0x40 MLOAD PUSH32 0x8C379A000000000000000000000000000000000000000000000000000000000 DUP2 MSTORE PUSH1 0x4 ADD PUSH2 0x86F SWAP1 PUSH2 0x475C JUMP JUMPDEST PUSH1 0x40 MLOAD DUP1 SWAP2 SUB SWAP1 REVERT JUMPDEST PUSH1 0x64 PUSH1 0xA PUSH1 0x12 SLOAD PUSH2 0x889 SWAP2 SWAP1 PUSH2 0x477C JUMP JUMPDEST PUSH2 0x893 SWAP2 SWAP1 PUSH2 0x4805 JUMP JUMPDEST SWAP1 POP JUMPDEST JUMPDEST PUSH8 0xDE0B6B3A7640000 DUP2 PUSH2 0x8AB SWAP2 SWAP1 PUSH2 0x4805 JUMP JUMPDEST SWAP2 POP POP SWAP2 SWAP1 POP JUMP JUMPDEST PUSH1 0xD DUP2 PUSH1 0x3 DUP2 LT PUSH2 0x8C3 JUMPI PUSH1 0x0 DUP1 REVERT JUMPDEST ADD PUSH1 0x0 SWAP2 POP SWAP1 POP SLOAD DUP2 JUMP JUMPDEST PUSH1 0x0 DUP1 SLOAD SWAP1 PUSH2 0x100 EXP SWAP1 DIV PUSH20 0xFFFFFFFFFFFFFFFFFFFFFFFFFFFFFFFFFFFFFFFF AND DUP2 JUMP JUMPDEST PUSH1 0x7 PUSH1 0x20 MSTORE DUP2 PUSH1 0x0 MSTORE PUSH1 0x40 PUSH1 0x0 KECCAK256 PUSH1 0x20 MSTORE DUP1 PUSH1 0x0 MSTORE PUSH1 0x40 PUSH1 0x0 KECCAK256 PUSH1 0x0 SWAP2 POP SWAP2 POP SWAP1 SLOAD SWAP1 PUSH2 0x100 EXP SWAP1 DIV PUSH20 0xFFFFFFFFFFFFFFFFFFFFFFFFFFFFFFFFFFFFFFFF AND DUP2 JUMP JUMPDEST PUSH1 0x0 PUSH1 0x4 DUP3 PUSH1 0xFF AND GT ISZERO PUSH2 0x97D JUMPI PUSH1 0x40 MLOAD PUSH32 0x8C379A000000000000000000000000000000000000000000000000000000000 DUP2 MSTORE PUSH1 0x4 ADD PUSH2 0x974 SWAP1 PUSH2 0x45DD JUMP JUMPDEST PUSH1 0x40 MLOAD DUP1 SWAP2 SUB SWAP1 REVERT JUMPDEST PUSH1 0x0 PUSH1 0x2 DUP4 PUSH1 0xFF AND GT PUSH2 0xAA3 JUMPI PUSH1 0x0 DUP1 PUSH1 0x0 JUMPDEST PUSH1 0x3 DUP2 LT ISZERO PUSH2 0xA21 JUMPI CALLER PUSH20 0xFFFFFFFFFFFFFFFFFFFFFFFFFFFFFFFFFFFFFFFF AND PUSH1 0x9 DUP3 PUSH1 0x3 DUP2 LT PUSH2 0x9C4 JUMPI PUSH2 0x9C3 PUSH2 0x45FD JUMP JUMPDEST JUMPDEST ADD PUSH1 0x0 SWAP1 SLOAD SWAP1 PUSH2 0x100 EXP SWAP1 DIV PUSH20 0xFFFFFFFFFFFFFFFFFFFFFFFFFFFFFFFFFFFFFFFF AND PUSH20 0xFFFFFFFFFFFFFFFFFFFFFFFFFFFFFFFFFFFFFFFF AND EQ ISZERO PUSH2 0xA0E JUMPI PUSH1 0x1 SWAP3 POP DUP1 SWAP2 POP PUSH2 0xA21 JUMP JUMPDEST DUP1 DUP1 PUSH2 0xA19 SWAP1 PUSH2 0x465B JUMP JUMPDEST SWAP2 POP POP PUSH2 0x990 JUMP JUMPDEST POP PUSH1 0x1 ISZERO ISZERO DUP3 ISZERO ISZERO EQ PUSH2 0xA69 JUMPI PUSH1 0x40 MLOAD PUSH32 0x8C379A000000000000000000000000000000000000000000000000000000000 DUP2 MSTORE PUSH1 0x4 ADD PUSH2 0xA60 SWAP1 PUSH2 0x46F0 JUMP JUMPDEST PUSH1 0x40 MLOAD DUP1 SWAP2 SUB SWAP1 REVERT JUMPDEST PUSH1 0xD DUP2 PUSH1 0x3 DUP2 LT PUSH2 0xA7D JUMPI PUSH2 0xA7C PUSH2 0x45FD JUMP JUMPDEST JUMPDEST ADD SLOAD SWAP3 POP PUSH1 0x0 PUSH1 0xD DUP3 PUSH1 0x3 DUP2 LT PUSH2 0xA97 JUMPI PUSH2 0xA96 PUSH2 0x45FD JUMP JUMPDEST JUMPDEST ADD DUP2 SWAP1 SSTORE POP POP POP PUSH2 0xC19 JUMP JUMPDEST PUSH1 0x3 DUP4 PUSH1 0xFF AND EQ ISZERO PUSH2 0xB51 JUMPI PUSH1 0x2 PUSH1 0x0 SWAP1 SLOAD SWAP1 PUSH2 0x100 EXP SWAP1 DIV PUSH20 0xFFFFFFFFFFFFFFFFFFFFFFFFFFFFFFFFFFFFFFFF AND PUSH20 0xFFFFFFFFFFFFFFFFFFFFFFFFFFFFFFFFFFFFFFFF AND CALLER PUSH20 0xFFFFFFFFFFFFFFFFFFFFFFFFFFFFFFFFFFFFFFFF AND EQ PUSH2 0xB3F JUMPI PUSH1 0x40 MLOAD PUSH32 0x8C379A000000000000000000000000000000000000000000000000000000000 DUP2 MSTORE PUSH1 0x4 ADD PUSH2 0xB36 SWAP1 PUSH2 0x475C JUMP JUMPDEST PUSH1 0x40 MLOAD DUP1 SWAP2 SUB SWAP1 REVERT JUMPDEST PUSH1 0x11 SLOAD SWAP1 POP PUSH1 0x0 PUSH1 0x11 DUP2 SWAP1 SSTORE POP PUSH2 0xC18 JUMP JUMPDEST PUSH1 0x1 PUSH1 0x0 SWAP1 SLOAD SWAP1 PUSH2 0x100 EXP SWAP1 DIV PUSH20 0xFFFFFFFFFFFFFFFFFFFFFFFFFFFFFFFFFFFFFFFF AND PUSH20 0xFFFFFFFFFFFFFFFFFFFFFFFFFFFFFFFFFFFFFFFF AND CALLER PUSH20 0xFFFFFFFFFFFFFFFFFFFFFFFFFFFFFFFFFFFFFFFF AND EQ PUSH2 0xBE1 JUMPI PUSH1 0x40 MLOAD PUSH32 0x8C379A000000000000000000000000000000000000000000000000000000000 DUP2 MSTORE PUSH1 0x4 ADD PUSH2 0xBD8 SWAP1 PUSH2 0x475C JUMP JUMPDEST PUSH1 0x40 MLOAD DUP1 SWAP2 SUB SWAP1 REVERT JUMPDEST PUSH1 0x64 PUSH1 0xA PUSH1 0x12 SLOAD PUSH2 0xBF2 SWAP2 SWAP1 PUSH2 0x477C JUMP JUMPDEST PUSH2 0xBFC SWAP2 SWAP1 PUSH2 0x4805 JUMP JUMPDEST SWAP1 POP DUP1 PUSH1 0x12 PUSH1 0x0 DUP3 DUP3 SLOAD PUSH2 0xC10 SWAP2 SWAP1 PUSH2 0x4836 JUMP JUMPDEST SWAP3 POP POP DUP2 SWAP1 SSTORE POP JUMPDEST JUMPDEST PUSH1 0x0 DUP2 GT PUSH2 0xC5C JUMPI PUSH1 0x40 MLOAD PUSH32 0x8C379A000000000000000000000000000000000000000000000000000000000 DUP2 MSTORE PUSH1 0x4 ADD PUSH2 0xC53 SWAP1 PUSH2 0x48B6 JUMP JUMPDEST PUSH1 0x40 MLOAD DUP1 SWAP2 SUB SWAP1 REVERT JUMPDEST PUSH1 0x0 CALLER PUSH20 0xFFFFFFFFFFFFFFFFFFFFFFFFFFFFFFFFFFFFFFFF AND DUP3 PUSH1 0x40 MLOAD PUSH2 0xC82 SWAP1 PUSH2 0x4907 JUMP JUMPDEST PUSH1 0x0 PUSH1 0x40 MLOAD DUP1 DUP4 SUB DUP2 DUP6 DUP8 GAS CALL SWAP3 POP POP POP RETURNDATASIZE DUP1 PUSH1 0x0 DUP2 EQ PUSH2 0xCBF JUMPI PUSH1 0x40 MLOAD SWAP2 POP PUSH1 0x1F NOT PUSH1 0x3F RETURNDATASIZE ADD AND DUP3 ADD PUSH1 0x40 MSTORE RETURNDATASIZE DUP3 MSTORE RETURNDATASIZE PUSH1 0x0 PUSH1 0x20 DUP5 ADD RETURNDATACOPY PUSH2 0xCC4 JUMP JUMPDEST PUSH1 0x60 SWAP2 POP JUMPDEST POP POP SWAP1 POP DUP1 PUSH2 0xD08 JUMPI PUSH1 0x40 MLOAD PUSH32 0x8C379A000000000000000000000000000000000000000000000000000000000 DUP2 MSTORE PUSH1 0x4 ADD PUSH2 0xCFF SWAP1 PUSH2 0x4968 JUMP JUMPDEST PUSH1 0x40 MLOAD DUP1 SWAP2 SUB SWAP1 REVERT JUMPDEST DUP1 SWAP3 POP POP POP SWAP2 SWAP1 POP JUMP JUMPDEST PUSH1 0x8 PUSH1 0x20 MSTORE DUP2 PUSH1 0x0 MSTORE PUSH1 0x40 PUSH1 0x0 KECCAK256 PUSH1 0x20 MSTORE DUP1 PUSH1 0x0 MSTORE PUSH1 0x40 PUSH1 0x0 KECCAK256 PUSH1 0x0 SWAP2 POP SWAP2 POP SWAP1 SLOAD SWAP1 PUSH2 0x100 EXP SWAP1 DIV PUSH1 0xFF AND DUP2 JUMP JUMPDEST PUSH1 0x60 PUSH1 0x4 PUSH1 0x0 DUP4 PUSH20 0xFFFFFFFFFFFFFFFFFFFFFFFFFFFFFFFFFFFFFFFF AND PUSH20 0xFFFFFFFFFFFFFFFFFFFFFFFFFFFFFFFFFFFFFFFF AND DUP2 MSTORE PUSH1 0x20 ADD SWAP1 DUP2 MSTORE PUSH1 0x20 ADD PUSH1 0x0 KECCAK256 PUSH1 0x3 ADD DUP1 SLOAD DUP1 PUSH1 0x20 MUL PUSH1 0x20 ADD PUSH1 0x40 MLOAD SWAP1 DUP2 ADD PUSH1 0x40 MSTORE DUP1 SWAP3 SWAP2 SWAP1 DUP2 DUP2 MSTORE PUSH1 0x20 ADD DUP3 DUP1 SLOAD DUP1 ISZERO PUSH2 0xE05 JUMPI PUSH1 0x20 MUL DUP3 ADD SWAP2 SWAP1 PUSH1 0x0 MSTORE PUSH1 0x20 PUSH1 0x0 KECCAK256 SWAP1 JUMPDEST DUP2 PUSH1 0x0 SWAP1 SLOAD SWAP1 PUSH2 0x100 EXP SWAP1 DIV PUSH20 0xFFFFFFFFFFFFFFFFFFFFFFFFFFFFFFFFFFFFFFFF AND PUSH20 0xFFFFFFFFFFFFFFFFFFFFFFFFFFFFFFFFFFFFFFFF AND DUP2 MSTORE PUSH1 0x20 ADD SWAP1 PUSH1 0x1 ADD SWAP1 DUP1 DUP4 GT PUSH2 0xDBB JUMPI JUMPDEST POP POP POP POP POP SWAP1 POP SWAP2 SWAP1 POP JUMP JUMPDEST PUSH1 0xC DUP2 PUSH1 0x3 DUP2 LT PUSH2 0xE21 JUMPI PUSH1 0x0 DUP1 REVERT JUMPDEST PUSH1 0x20 SWAP2 DUP3 DUP3 DIV ADD SWAP2 SWAP1 MOD SWAP2 POP SLOAD SWAP1 PUSH2 0x100 EXP SWAP1 DIV PUSH1 0xFF AND DUP2 JUMP JUMPDEST PUSH1 0x60 PUSH1 0x4 PUSH1 0x0 DUP4 PUSH20 0xFFFFFFFFFFFFFFFFFFFFFFFFFFFFFFFFFFFFFFFF AND PUSH20 0xFFFFFFFFFFFFFFFFFFFFFFFFFFFFFFFFFFFFFFFF AND DUP2 MSTORE PUSH1 0x20 ADD SWAP1 DUP2 MSTORE PUSH1 0x20 ADD PUSH1 0x0 KECCAK256 PUSH1 0x6 ADD DUP1 SLOAD DUP1 PUSH1 0x20 MUL PUSH1 0x20 ADD PUSH1 0x40 MLOAD SWAP1 DUP2 ADD PUSH1 0x40 MSTORE DUP1 SWAP3 SWAP2 SWAP1 DUP2 DUP2 MSTORE PUSH1 0x20 ADD DUP3 DUP1 SLOAD DUP1 ISZERO PUSH2 0xEC9 JUMPI PUSH1 0x20 MUL DUP3 ADD SWAP2 SWAP1 PUSH1 0x0 MSTORE PUSH1 0x20 PUSH1 0x0 KECCAK256 SWAP1 JUMPDEST DUP2 SLOAD DUP2 MSTORE PUSH1 0x20 ADD SWAP1 PUSH1 0x1 ADD SWAP1 DUP1 DUP4 GT PUSH2 0xEB5 JUMPI JUMPDEST POP POP POP POP POP SWAP1 POP SWAP2 SWAP1 POP JUMP JUMPDEST PUSH1 0x0 PUSH3 0xF4240 SELFBALANCE PUSH2 0xEE6 SWAP2 SWAP1 PUSH2 0x4805 JUMP JUMPDEST SWAP1 POP SWAP1 JUMP JUMPDEST PUSH1 0x3 PUSH1 0x20 MSTORE DUP1 PUSH1 0x0 MSTORE PUSH1 0x40 PUSH1 0x0 KECCAK256 PUSH1 0x0 SWAP2 POP SWAP1 POP SLOAD DUP2 JUMP JUMPDEST PUSH1 0x0 PUSH1 0x4 PUSH1 0x0 CALLER PUSH20 0xFFFFFFFFFFFFFFFFFFFFFFFFFFFFFFFFFFFFFFFF AND PUSH20 0xFFFFFFFFFFFFFFFFFFFFFFFFFFFFFFFFFFFFFFFF AND DUP2 MSTORE PUSH1 0x20 ADD SWAP1 DUP2 MSTORE PUSH1 0x20 ADD PUSH1 0x0 KECCAK256 PUSH1 0x0 ADD PUSH1 0x0 SWAP1 SLOAD SWAP1 PUSH2 0x100 EXP SWAP1 DIV PUSH1 0xFF AND ISZERO PUSH2 0xF95 JUMPI PUSH1 0x40 MLOAD PUSH32 0x8C379A000000000000000000000000000000000000000000000000000000000 DUP2 MSTORE PUSH1 0x4 ADD PUSH2 0xF8C SWAP1 PUSH2 0x49D4 JUMP JUMPDEST PUSH1 0x40 MLOAD DUP1 SWAP2 SUB SWAP1 REVERT JUMPDEST PUSH1 0x0 DUP3 GT DUP1 ISZERO PUSH2 0xFA7 JUMPI POP PUSH1 0x10 SLOAD DUP3 GT ISZERO JUMPDEST PUSH2 0xFE6 JUMPI PUSH1 0x40 MLOAD PUSH32 0x8C379A000000000000000000000000000000000000000000000000000000000 DUP2 MSTORE PUSH1 0x4 ADD PUSH2 0xFDD SWAP1 PUSH2 0x4A40 JUMP JUMPDEST PUSH1 0x40 MLOAD DUP1 SWAP2 SUB SWAP1 REVERT JUMPDEST PUSH1 0x13 SLOAD CALLVALUE EQ PUSH2 0x102A JUMPI PUSH1 0x40 MLOAD PUSH32 0x8C379A000000000000000000000000000000000000000000000000000000000 DUP2 MSTORE PUSH1 0x4 ADD PUSH2 0x1021 SWAP1 PUSH2 0x4AAC JUMP JUMPDEST PUSH1 0x40 MLOAD DUP1 SWAP2 SUB SWAP1 REVERT JUMPDEST PUSH1 0x0 PUSH1 0x4 PUSH1 0x0 CALLER PUSH20 0xFFFFFFFFFFFFFFFFFFFFFFFFFFFFFFFFFFFFFFFF AND PUSH20 0xFFFFFFFFFFFFFFFFFFFFFFFFFFFFFFFFFFFFFFFF AND DUP2 MSTORE PUSH1 0x20 ADD SWAP1 DUP2 MSTORE PUSH1 0x20 ADD PUSH1 0x0 KECCAK256 SWAP1 POP PUSH1 0x1 DUP2 PUSH1 0x0 ADD PUSH1 0x0 PUSH2 0x100 EXP DUP2 SLOAD DUP2 PUSH1 0xFF MUL NOT AND SWAP1 DUP4 ISZERO ISZERO MUL OR SWAP1 SSTORE POP PUSH1 0x10 SLOAD DUP2 PUSH1 0x1 ADD DUP2 SWAP1 SSTORE POP DUP3 DUP2 PUSH1 0x2 ADD DUP2 SWAP1 SSTORE POP PUSH1 0x0 PUSH8 0xFFFFFFFFFFFFFFFF DUP2 GT ISZERO PUSH2 0x10B9 JUMPI PUSH2 0x10B8 PUSH2 0x4ACC JUMP JUMPDEST JUMPDEST PUSH1 0x40 MLOAD SWAP1 DUP1 DUP3 MSTORE DUP1 PUSH1 0x20 MUL PUSH1 0x20 ADD DUP3 ADD PUSH1 0x40 MSTORE DUP1 ISZERO PUSH2 0x10E7 JUMPI DUP2 PUSH1 0x20 ADD PUSH1 0x20 DUP3 MUL DUP1 CALLDATASIZE DUP4 CALLDATACOPY DUP1 DUP3 ADD SWAP2 POP POP SWAP1 POP JUMPDEST POP DUP2 PUSH1 0x3 ADD SWAP1 DUP1 MLOAD SWAP1 PUSH1 0x20 ADD SWAP1 PUSH2 0x10FF SWAP3 SWAP2 SWAP1 PUSH2 0x3FFA JUMP JUMPDEST POP TIMESTAMP DUP2 PUSH1 0x4 ADD DUP2 SWAP1 SSTORE POP PUSH1 0x0 PUSH8 0xFFFFFFFFFFFFFFFF DUP2 GT ISZERO PUSH2 0x1124 JUMPI PUSH2 0x1123 PUSH2 0x4ACC JUMP JUMPDEST JUMPDEST PUSH1 0x40 MLOAD SWAP1 DUP1 DUP3 MSTORE DUP1 PUSH1 0x20 MUL PUSH1 0x20 ADD DUP3 ADD PUSH1 0x40 MSTORE DUP1 ISZERO PUSH2 0x1152 JUMPI DUP2 PUSH1 0x20 ADD PUSH1 0x20 DUP3 MUL DUP1 CALLDATASIZE DUP4 CALLDATACOPY DUP1 DUP3 ADD SWAP2 POP POP SWAP1 POP JUMPDEST POP DUP2 PUSH1 0x6 ADD SWAP1 DUP1 MLOAD SWAP1 PUSH1 0x20 ADD SWAP1 PUSH2 0x116A SWAP3 SWAP2 SWAP1 PUSH2 0x4084 JUMP JUMPDEST POP PUSH1 0x10 PUSH1 0x0 DUP2 SLOAD DUP1 SWAP3 SWAP2 SWAP1 PUSH2 0x117E SWAP1 PUSH2 0x465B JUMP JUMPDEST SWAP2 SWAP1 POP SSTORE POP CALLER PUSH1 0x5 PUSH1 0x0 PUSH1 0x10 SLOAD DUP2 MSTORE PUSH1 0x20 ADD SWAP1 DUP2 MSTORE PUSH1 0x20 ADD PUSH1 0x0 KECCAK256 PUSH1 0x0 PUSH2 0x100 EXP DUP2 SLOAD DUP2 PUSH20 0xFFFFFFFFFFFFFFFFFFFFFFFFFFFFFFFFFFFFFFFF MUL NOT AND SWAP1 DUP4 PUSH20 0xFFFFFFFFFFFFFFFFFFFFFFFFFFFFFFFFFFFFFFFF AND MUL OR SWAP1 SSTORE POP PUSH1 0x4 PUSH1 0x0 PUSH1 0x5 PUSH1 0x0 DUP7 DUP2 MSTORE PUSH1 0x20 ADD SWAP1 DUP2 MSTORE PUSH1 0x20 ADD PUSH1 0x0 KECCAK256 PUSH1 0x0 SWAP1 SLOAD SWAP1 PUSH2 0x100 EXP SWAP1 DIV PUSH20 0xFFFFFFFFFFFFFFFFFFFFFFFFFFFFFFFFFFFFFFFF AND PUSH20 0xFFFFFFFFFFFFFFFFFFFFFFFFFFFFFFFFFFFFFFFF AND PUSH20 0xFFFFFFFFFFFFFFFFFFFFFFFFFFFFFFFFFFFFFFFF AND DUP2 MSTORE PUSH1 0x20 ADD SWAP1 DUP2 MSTORE PUSH1 0x20 ADD PUSH1 0x0 KECCAK256 PUSH1 0x3 ADD CALLER SWAP1 DUP1 PUSH1 0x1 DUP2 SLOAD ADD DUP1 DUP3 SSTORE DUP1 SWAP2 POP POP PUSH1 0x1 SWAP1 SUB SWAP1 PUSH1 0x0 MSTORE PUSH1 0x20 PUSH1 0x0 KECCAK256 ADD PUSH1 0x0 SWAP1 SWAP2 SWAP1 SWAP2 SWAP1 SWAP2 PUSH2 0x100 EXP DUP2 SLOAD DUP2 PUSH20 0xFFFFFFFFFFFFFFFFFFFFFFFFFFFFFFFFFFFFFFFF MUL NOT AND SWAP1 DUP4 PUSH20 0xFFFFFFFFFFFFFFFFFFFFFFFFFFFFFFFFFFFFFFFF AND MUL OR SWAP1 SSTORE POP PUSH1 0x3 PUSH1 0x0 PUSH1 0x1 DUP2 MSTORE PUSH1 0x20 ADD SWAP1 DUP2 MSTORE PUSH1 0x20 ADD PUSH1 0x0 KECCAK256 SLOAD PUSH1 0x12 PUSH1 0x0 DUP3 DUP3 SLOAD PUSH2 0x12D3 SWAP2 SWAP1 PUSH2 0x4AFB JUMP JUMPDEST SWAP3 POP POP DUP2 SWAP1 SSTORE POP PUSH1 0x16 SLOAD PUSH1 0x11 PUSH1 0x0 DUP3 DUP3 SLOAD PUSH2 0x12EE SWAP2 SWAP1 PUSH2 0x4AFB JUMP JUMPDEST SWAP3 POP POP DUP2 SWAP1 SSTORE POP PUSH1 0x64 PUSH1 0xC PUSH1 0x0 PUSH1 0x3 DUP2 LT PUSH2 0x130C JUMPI PUSH2 0x130B PUSH2 0x45FD JUMP JUMPDEST JUMPDEST PUSH1 0x20 SWAP2 DUP3 DUP3 DIV ADD SWAP2 SWAP1 MOD SWAP1 SLOAD SWAP1 PUSH2 0x100 EXP SWAP1 DIV PUSH1 0xFF AND PUSH1 0xFF AND PUSH1 0x15 SLOAD PUSH2 0x1332 SWAP2 SWAP1 PUSH2 0x477C JUMP JUMPDEST PUSH2 0x133C SWAP2 SWAP1 PUSH2 0x4805 JUMP JUMPDEST PUSH1 0xD PUSH1 0x0 PUSH1 0x3 DUP2 LT PUSH2 0x1351 JUMPI PUSH2 0x1350 PUSH2 0x45FD JUMP JUMPDEST JUMPDEST ADD SLOAD PUSH2 0x135D SWAP2 SWAP1 PUSH2 0x4AFB JUMP JUMPDEST PUSH1 0xD PUSH1 0x0 PUSH1 0x3 DUP2 LT PUSH2 0x1372 JUMPI PUSH2 0x1371 PUSH2 0x45FD JUMP JUMPDEST JUMPDEST ADD DUP2 SWAP1 SSTORE POP PUSH1 0x64 PUSH1 0xC PUSH1 0x1 PUSH1 0x3 DUP2 LT PUSH2 0x138E JUMPI PUSH2 0x138D PUSH2 0x45FD JUMP JUMPDEST JUMPDEST PUSH1 0x20 SWAP2 DUP3 DUP3 DIV ADD SWAP2 SWAP1 MOD SWAP1 SLOAD SWAP1 PUSH2 0x100 EXP SWAP1 DIV PUSH1 0xFF AND PUSH1 0xFF AND PUSH1 0x15 SLOAD PUSH2 0x13B4 SWAP2 SWAP1 PUSH2 0x477C JUMP JUMPDEST PUSH2 0x13BE SWAP2 SWAP1 PUSH2 0x4805 JUMP JUMPDEST PUSH1 0xD PUSH1 0x1 PUSH1 0x3 DUP2 LT PUSH2 0x13D3 JUMPI PUSH2 0x13D2 PUSH2 0x45FD JUMP JUMPDEST JUMPDEST ADD SLOAD PUSH2 0x13DF SWAP2 SWAP1 PUSH2 0x4AFB JUMP JUMPDEST PUSH1 0xD PUSH1 0x1 PUSH1 0x3 DUP2 LT PUSH2 0x13F4 JUMPI PUSH2 0x13F3 PUSH2 0x45FD JUMP JUMPDEST JUMPDEST ADD DUP2 SWAP1 SSTORE POP PUSH1 0x64 PUSH1 0xC PUSH1 0x2 PUSH1 0x3 DUP2 LT PUSH2 0x1410 JUMPI PUSH2 0x140F PUSH2 0x45FD JUMP JUMPDEST JUMPDEST PUSH1 0x20 SWAP2 DUP3 DUP3 DIV ADD SWAP2 SWAP1 MOD SWAP1 SLOAD SWAP1 PUSH2 0x100 EXP SWAP1 DIV PUSH1 0xFF AND PUSH1 0xFF AND PUSH1 0x15 SLOAD PUSH2 0x1436 SWAP2 SWAP1 PUSH2 0x477C JUMP JUMPDEST PUSH2 0x1440 SWAP2 SWAP1 PUSH2 0x4805 JUMP JUMPDEST PUSH1 0xD PUSH1 0x2 PUSH1 0x3 DUP2 LT PUSH2 0x1455 JUMPI PUSH2 0x1454 PUSH2 0x45FD JUMP JUMPDEST JUMPDEST ADD SLOAD PUSH2 0x1461 SWAP2 SWAP1 PUSH2 0x4AFB JUMP JUMPDEST PUSH1 0xD PUSH1 0x2 PUSH1 0x3 DUP2 LT PUSH2 0x1476 JUMPI PUSH2 0x1475 PUSH2 0x45FD JUMP JUMPDEST JUMPDEST ADD DUP2 SWAP1 SSTORE POP PUSH1 0x0 PUSH1 0x4 PUSH1 0x0 PUSH1 0x5 PUSH1 0x0 DUP8 DUP2 MSTORE PUSH1 0x20 ADD SWAP1 DUP2 MSTORE PUSH1 0x20 ADD PUSH1 0x0 KECCAK256 PUSH1 0x0 SWAP1 SLOAD SWAP1 PUSH2 0x100 EXP SWAP1 DIV PUSH20 0xFFFFFFFFFFFFFFFFFFFFFFFFFFFFFFFFFFFFFFFF AND PUSH20 0xFFFFFFFFFFFFFFFFFFFFFFFFFFFFFFFFFFFFFFFF AND PUSH20 0xFFFFFFFFFFFFFFFFFFFFFFFFFFFFFFFFFFFFFFFF AND DUP2 MSTORE PUSH1 0x20 ADD SWAP1 DUP2 MSTORE PUSH1 0x20 ADD PUSH1 0x0 KECCAK256 PUSH1 0x3 ADD DUP1 SLOAD SWAP1 POP SWAP1 POP PUSH1 0x1 DUP2 EQ ISZERO DUP1 PUSH2 0x1508 JUMPI POP PUSH1 0x1 DUP5 EQ JUMPDEST ISZERO PUSH2 0x1520 JUMPI PUSH2 0x151B PUSH1 0x1 CALLER DUP4 PUSH1 0x0 PUSH2 0x1BDC JUMP JUMPDEST PUSH2 0x16B0 JUMP JUMPDEST PUSH1 0x4 PUSH1 0x0 PUSH1 0x5 PUSH1 0x0 DUP8 DUP2 MSTORE PUSH1 0x20 ADD SWAP1 DUP2 MSTORE PUSH1 0x20 ADD PUSH1 0x0 KECCAK256 PUSH1 0x0 SWAP1 SLOAD SWAP1 PUSH2 0x100 EXP SWAP1 DIV PUSH20 0xFFFFFFFFFFFFFFFFFFFFFFFFFFFFFFFFFFFFFFFF AND PUSH20 0xFFFFFFFFFFFFFFFFFFFFFFFFFFFFFFFFFFFFFFFF AND PUSH20 0xFFFFFFFFFFFFFFFFFFFFFFFFFFFFFFFFFFFFFFFF AND DUP2 MSTORE PUSH1 0x20 ADD SWAP1 DUP2 MSTORE PUSH1 0x20 ADD PUSH1 0x0 KECCAK256 PUSH1 0x6 ADD PUSH1 0x1 SWAP1 DUP1 PUSH1 0x1 DUP2 SLOAD ADD DUP1 DUP3 SSTORE DUP1 SWAP2 POP POP PUSH1 0x1 SWAP1 SUB SWAP1 PUSH1 0x0 MSTORE PUSH1 0x20 PUSH1 0x0 KECCAK256 ADD PUSH1 0x0 SWAP1 SWAP2 SWAP1 SWAP2 SWAP1 SWAP2 POP SSTORE PUSH1 0x0 PUSH1 0x5 PUSH1 0x0 DUP7 DUP2 MSTORE PUSH1 0x20 ADD SWAP1 DUP2 MSTORE PUSH1 0x20 ADD PUSH1 0x0 KECCAK256 PUSH1 0x0 SWAP1 SLOAD SWAP1 PUSH2 0x100 EXP SWAP1 DIV PUSH20 0xFFFFFFFFFFFFFFFFFFFFFFFFFFFFFFFFFFFFFFFF AND SWAP1 POP PUSH1 0x1 PUSH1 0x4 PUSH1 0x0 DUP4 PUSH20 0xFFFFFFFFFFFFFFFFFFFFFFFFFFFFFFFFFFFFFFFF AND PUSH20 0xFFFFFFFFFFFFFFFFFFFFFFFFFFFFFFFFFFFFFFFF AND DUP2 MSTORE PUSH1 0x20 ADD SWAP1 DUP2 MSTORE PUSH1 0x20 ADD PUSH1 0x0 KECCAK256 PUSH1 0x5 ADD PUSH1 0x0 PUSH1 0x1 DUP2 MSTORE PUSH1 0x20 ADD SWAP1 DUP2 MSTORE PUSH1 0x20 ADD PUSH1 0x0 KECCAK256 SLOAD PUSH2 0x1656 SWAP2 SWAP1 PUSH2 0x4AFB JUMP JUMPDEST PUSH1 0x4 PUSH1 0x0 DUP4 PUSH20 0xFFFFFFFFFFFFFFFFFFFFFFFFFFFFFFFFFFFFFFFF AND PUSH20 0xFFFFFFFFFFFFFFFFFFFFFFFFFFFFFFFFFFFFFFFF AND DUP2 MSTORE PUSH1 0x20 ADD SWAP1 DUP2 MSTORE PUSH1 0x20 ADD PUSH1 0x0 KECCAK256 PUSH1 0x5 ADD PUSH1 0x0 PUSH1 0x1 DUP2 MSTORE PUSH1 0x20 ADD SWAP1 DUP2 MSTORE PUSH1 0x20 ADD PUSH1 0x0 KECCAK256 DUP2 SWAP1 SSTORE POP POP JUMPDEST PUSH1 0x0 PUSH1 0x5 PUSH1 0x0 DUP7 DUP2 MSTORE PUSH1 0x20 ADD SWAP1 DUP2 MSTORE PUSH1 0x20 ADD PUSH1 0x0 KECCAK256 PUSH1 0x0 SWAP1 SLOAD SWAP1 PUSH2 0x100 EXP SWAP1 DIV PUSH20 0xFFFFFFFFFFFFFFFFFFFFFFFFFFFFFFFFFFFFFFFF AND PUSH20 0xFFFFFFFFFFFFFFFFFFFFFFFFFFFFFFFFFFFFFFFF AND PUSH1 0x14 SLOAD PUSH1 0x40 MLOAD PUSH2 0x170B SWAP1 PUSH2 0x4907 JUMP JUMPDEST PUSH1 0x0 PUSH1 0x40 MLOAD DUP1 DUP4 SUB DUP2 DUP6 DUP8 GAS CALL SWAP3 POP POP POP RETURNDATASIZE DUP1 PUSH1 0x0 DUP2 EQ PUSH2 0x1748 JUMPI PUSH1 0x40 MLOAD SWAP2 POP PUSH1 0x1F NOT PUSH1 0x3F RETURNDATASIZE ADD AND DUP3 ADD PUSH1 0x40 MSTORE RETURNDATASIZE DUP3 MSTORE RETURNDATASIZE PUSH1 0x0 PUSH1 0x20 DUP5 ADD RETURNDATACOPY PUSH2 0x174D JUMP JUMPDEST PUSH1 0x60 SWAP2 POP JUMPDEST POP POP SWAP1 POP DUP1 PUSH2 0x1791 JUMPI PUSH1 0x40 MLOAD PUSH32 0x8C379A000000000000000000000000000000000000000000000000000000000 DUP2 MSTORE PUSH1 0x4 ADD PUSH2 0x1788 SWAP1 PUSH2 0x4968 JUMP JUMPDEST PUSH1 0x40 MLOAD DUP1 SWAP2 SUB SWAP1 REVERT JUMPDEST PUSH1 0x5 PUSH1 0x0 DUP7 DUP2 MSTORE PUSH1 0x20 ADD SWAP1 DUP2 MSTORE PUSH1 0x20 ADD PUSH1 0x0 KECCAK256 PUSH1 0x0 SWAP1 SLOAD SWAP1 PUSH2 0x100 EXP SWAP1 DIV PUSH20 0xFFFFFFFFFFFFFFFFFFFFFFFFFFFFFFFFFFFFFFFF AND PUSH20 0xFFFFFFFFFFFFFFFFFFFFFFFFFFFFFFFFFFFFFFFF AND CALLER PUSH20 0xFFFFFFFFFFFFFFFFFFFFFFFFFFFFFFFFFFFFFFFF AND PUSH32 0x788C06D2405AE89DD3F0528D38BE7691289474D72176408BC2C2406DC5E342F1 TIMESTAMP PUSH1 0x40 MLOAD PUSH2 0x1821 SWAP2 SWAP1 PUSH2 0x4227 JUMP JUMPDEST PUSH1 0x40 MLOAD DUP1 SWAP2 SUB SWAP1 LOG3 DUP1 SWAP4 POP POP POP POP SWAP2 SWAP1 POP JUMP JUMPDEST PUSH1 0x2 PUSH1 0x0 SWAP1 SLOAD SWAP1 PUSH2 0x100 EXP SWAP1 DIV PUSH20 0xFFFFFFFFFFFFFFFFFFFFFFFFFFFFFFFFFFFFFFFF AND DUP2 JUMP JUMPDEST PUSH1 0x5 PUSH1 0x20 MSTORE DUP1 PUSH1 0x0 MSTORE PUSH1 0x40 PUSH1 0x0 KECCAK256 PUSH1 0x0 SWAP2 POP SLOAD SWAP1 PUSH2 0x100 EXP SWAP1 DIV PUSH20 0xFFFFFFFFFFFFFFFFFFFFFFFFFFFFFFFFFFFFFFFF AND DUP2 JUMP JUMPDEST PUSH1 0x10 SLOAD DUP2 JUMP JUMPDEST PUSH1 0x4 PUSH1 0x20 MSTORE DUP1 PUSH1 0x0 MSTORE PUSH1 0x40 PUSH1 0x0 KECCAK256 PUSH1 0x0 SWAP2 POP SWAP1 POP DUP1 PUSH1 0x0 ADD PUSH1 0x0 SWAP1 SLOAD SWAP1 PUSH2 0x100 EXP SWAP1 DIV PUSH1 0xFF AND SWAP1 DUP1 PUSH1 0x1 ADD SLOAD SWAP1 DUP1 PUSH1 0x2 ADD SLOAD SWAP1 DUP1 PUSH1 0x4 ADD SLOAD SWAP1 POP DUP5 JUMP JUMPDEST PUSH1 0x0 PUSH1 0x4 PUSH1 0x0 DUP5 PUSH20 0xFFFFFFFFFFFFFFFFFFFFFFFFFFFFFFFFFFFFFFFF AND PUSH20 0xFFFFFFFFFFFFFFFFFFFFFFFFFFFFFFFFFFFFFFFF AND DUP2 MSTORE PUSH1 0x20 ADD SWAP1 DUP2 MSTORE PUSH1 0x20 ADD PUSH1 0x0 KECCAK256 PUSH1 0x5 ADD PUSH1 0x0 DUP4 DUP2 MSTORE PUSH1 0x20 ADD SWAP1 DUP2 MSTORE PUSH1 0x20 ADD PUSH1 0x0 KECCAK256 SLOAD SWAP1 POP SWAP3 SWAP2 POP POP JUMP JUMPDEST PUSH1 0x0 DUP1 SLOAD SWAP1 PUSH2 0x100 EXP SWAP1 DIV PUSH20 0xFFFFFFFFFFFFFFFFFFFFFFFFFFFFFFFFFFFFFFFF AND PUSH20 0xFFFFFFFFFFFFFFFFFFFFFFFFFFFFFFFFFFFFFFFF AND CALLER PUSH20 0xFFFFFFFFFFFFFFFFFFFFFFFFFFFFFFFFFFFFFFFF AND EQ PUSH2 0x19BC JUMPI PUSH1 0x40 MLOAD PUSH32 0x8C379A000000000000000000000000000000000000000000000000000000000 DUP2 MSTORE PUSH1 0x4 ADD PUSH2 0x19B3 SWAP1 PUSH2 0x4B9D JUMP JUMPDEST PUSH1 0x40 MLOAD DUP1 SWAP2 SUB SWAP1 REVERT JUMPDEST PUSH1 0x0 DUP1 SLOAD SWAP1 PUSH2 0x100 EXP SWAP1 DIV PUSH20 0xFFFFFFFFFFFFFFFFFFFFFFFFFFFFFFFFFFFFFFFF AND PUSH20 0xFFFFFFFFFFFFFFFFFFFFFFFFFFFFFFFFFFFFFFFF AND CALLER PUSH20 0xFFFFFFFFFFFFFFFFFFFFFFFFFFFFFFFFFFFFFFFF AND EQ PUSH2 0x1A4A JUMPI PUSH1 0x40 MLOAD PUSH32 0x8C379A000000000000000000000000000000000000000000000000000000000 DUP2 MSTORE PUSH1 0x4 ADD PUSH2 0x1A41 SWAP1 PUSH2 0x46F0 JUMP JUMPDEST PUSH1 0x40 MLOAD DUP1 SWAP2 SUB SWAP1 REVERT JUMPDEST PUSH1 0x5 DUP2 GT ISZERO PUSH2 0x1A8E JUMPI PUSH1 0x40 MLOAD PUSH32 0x8C379A000000000000000000000000000000000000000000000000000000000 DUP2 MSTORE PUSH1 0x4 ADD PUSH2 0x1A85 SWAP1 PUSH2 0x4C09 JUMP JUMPDEST PUSH1 0x40 MLOAD DUP1 SWAP2 SUB SWAP1 REVERT JUMPDEST PUSH1 0x3 DUP2 GT PUSH2 0x1AFB JUMPI DUP2 PUSH1 0x9 PUSH1 0x1 DUP4 PUSH2 0x1AA6 SWAP2 SWAP1 PUSH2 0x4836 JUMP JUMPDEST PUSH1 0x3 DUP2 LT PUSH2 0x1AB7 JUMPI PUSH2 0x1AB6 PUSH2 0x45FD JUMP JUMPDEST JUMPDEST ADD PUSH1 0x0 PUSH2 0x100 EXP DUP2 SLOAD DUP2 PUSH20 0xFFFFFFFFFFFFFFFFFFFFFFFFFFFFFFFFFFFFFFFF MUL NOT AND SWAP1 DUP4 PUSH20 0xFFFFFFFFFFFFFFFFFFFFFFFFFFFFFFFFFFFFFFFF AND MUL OR SWAP1 SSTORE POP PUSH2 0x1B8D JUMP JUMPDEST PUSH1 0x4 DUP2 EQ ISZERO PUSH2 0x1B4A JUMPI DUP2 PUSH1 0x2 PUSH1 0x0 PUSH2 0x100 EXP DUP2 SLOAD DUP2 PUSH20 0xFFFFFFFFFFFFFFFFFFFFFFFFFFFFFFFFFFFFFFFF MUL NOT AND SWAP1 DUP4 PUSH20 0xFFFFFFFFFFFFFFFFFFFFFFFFFFFFFFFFFFFFFFFF AND MUL OR SWAP1 SSTORE POP PUSH2 0x1B8C JUMP JUMPDEST DUP2 PUSH1 0x1 PUSH1 0x0 PUSH2 0x100 EXP DUP2 SLOAD DUP2 PUSH20 0xFFFFFFFFFFFFFFFFFFFFFFFFFFFFFFFFFFFFFFFF MUL NOT AND SWAP1 DUP4 PUSH20 0xFFFFFFFFFFFFFFFFFFFFFFFFFFFFFFFFFFFFFFFF AND MUL OR SWAP1 SSTORE POP JUMPDEST JUMPDEST POP POP JUMP JUMPDEST PUSH1 0x6 PUSH1 0x20 MSTORE DUP2 PUSH1 0x0 MSTORE PUSH1 0x40 PUSH1 0x0 KECCAK256 PUSH1 0x20 MSTORE DUP1 PUSH1 0x0 MSTORE PUSH1 0x40 PUSH1 0x0 KECCAK256 PUSH1 0x0 SWAP2 POP SWAP2 POP POP SLOAD DUP2 JUMP JUMPDEST PUSH1 0x1 PUSH1 0x0 SWAP1 SLOAD SWAP1 PUSH2 0x100 EXP SWAP1 DIV PUSH20 0xFFFFFFFFFFFFFFFFFFFFFFFFFFFFFFFFFFFFFFFF AND DUP2 JUMP JUMPDEST PUSH1 0x0 DUP1 PUSH1 0x0 SWAP1 POP PUSH1 0x0 DUP1 PUSH1 0x1 SWAP1 POP PUSH1 0x0 DUP1 DUP10 SWAP1 POP PUSH1 0x2 DUP9 EQ ISZERO PUSH2 0x1C26 JUMPI PUSH2 0x1C06 DUP11 DUP11 DUP5 DUP8 DUP8 PUSH2 0x216B JUMP JUMPDEST DUP1 SWAP7 POP DUP2 SWAP6 POP DUP3 SWAP9 POP POP POP POP PUSH1 0x1 DUP11 PUSH2 0x1C1F SWAP2 SWAP1 PUSH2 0x4AFB JUMP JUMPDEST SWAP1 POP PUSH2 0x1D3D JUMP JUMPDEST PUSH1 0x14 DUP9 LT ISZERO DUP1 ISZERO PUSH2 0x1C43 JUMPI POP PUSH1 0x0 PUSH1 0x14 DUP10 PUSH2 0x1C41 SWAP2 SWAP1 PUSH2 0x4C29 JUMP JUMPDEST EQ JUMPDEST ISZERO PUSH2 0x1C84 JUMPI PUSH1 0x5 PUSH1 0x0 PUSH1 0x1 DUP2 MSTORE PUSH1 0x20 ADD SWAP1 DUP2 MSTORE PUSH1 0x20 ADD PUSH1 0x0 KECCAK256 PUSH1 0x0 SWAP1 SLOAD SWAP1 PUSH2 0x100 EXP SWAP1 DIV PUSH20 0xFFFFFFFFFFFFFFFFFFFFFFFFFFFFFFFFFFFFFFFF AND SWAP6 POP PUSH2 0x1D3C JUMP JUMPDEST PUSH1 0x4 DUP9 LT ISZERO DUP1 ISZERO PUSH2 0x1CA1 JUMPI POP PUSH1 0x0 PUSH1 0x4 DUP10 PUSH2 0x1C9F SWAP2 SWAP1 PUSH2 0x4C29 JUMP JUMPDEST EQ JUMPDEST ISZERO PUSH2 0x1CC2 JUMPI PUSH2 0x1CB2 DUP8 DUP11 DUP13 DUP6 PUSH2 0x28DD JUMP JUMPDEST DUP1 SWAP7 POP DUP2 SWAP8 POP POP POP DUP10 SWAP1 POP PUSH2 0x1D3B JUMP JUMPDEST PUSH1 0x5 PUSH1 0x0 PUSH1 0x4 PUSH1 0x0 DUP13 PUSH20 0xFFFFFFFFFFFFFFFFFFFFFFFFFFFFFFFFFFFFFFFF AND PUSH20 0xFFFFFFFFFFFFFFFFFFFFFFFFFFFFFFFFFFFFFFFF AND DUP2 MSTORE PUSH1 0x20 ADD SWAP1 DUP2 MSTORE PUSH1 0x20 ADD PUSH1 0x0 KECCAK256 PUSH1 0x2 ADD SLOAD DUP2 MSTORE PUSH1 0x20 ADD SWAP1 DUP2 MSTORE PUSH1 0x20 ADD PUSH1 0x0 KECCAK256 PUSH1 0x0 SWAP1 SLOAD SWAP1 PUSH2 0x100 EXP SWAP1 DIV PUSH20 0xFFFFFFFFFFFFFFFFFFFFFFFFFFFFFFFFFFFFFFFF AND SWAP6 POP JUMPDEST JUMPDEST JUMPDEST DUP3 DUP1 PUSH2 0x1D96 JUMPI POP PUSH1 0x4 PUSH1 0x0 DUP8 PUSH20 0xFFFFFFFFFFFFFFFFFFFFFFFFFFFFFFFFFFFFFFFF AND PUSH20 0xFFFFFFFFFFFFFFFFFFFFFFFFFFFFFFFFFFFFFFFF AND DUP2 MSTORE PUSH1 0x20 ADD SWAP1 DUP2 MSTORE PUSH1 0x20 ADD PUSH1 0x0 KECCAK256 PUSH1 0x0 ADD PUSH1 0x0 SWAP1 SLOAD SWAP1 PUSH2 0x100 EXP SWAP1 DIV PUSH1 0xFF AND ISZERO JUMPDEST DUP1 PUSH2 0x1E00 JUMPI POP PUSH1 0x5 PUSH1 0x0 PUSH1 0x1 DUP2 MSTORE PUSH1 0x20 ADD SWAP1 DUP2 MSTORE PUSH1 0x20 ADD PUSH1 0x0 KECCAK256 PUSH1 0x0 SWAP1 SLOAD SWAP1 PUSH2 0x100 EXP SWAP1 DIV PUSH20 0xFFFFFFFFFFFFFFFFFFFFFFFFFFFFFFFFFFFFFFFF AND PUSH20 0xFFFFFFFFFFFFFFFFFFFFFFFFFFFFFFFFFFFFFFFF AND DUP7 PUSH20 0xFFFFFFFFFFFFFFFFFFFFFFFFFFFFFFFFFFFFFFFF AND EQ JUMPDEST ISZERO PUSH2 0x215F JUMPI PUSH2 0x1E12 DUP7 DUP3 DUP11 DUP9 DUP9 PUSH2 0x2A1D JUMP JUMPDEST DUP1 SWAP10 POP DUP2 SWAP9 POP POP POP DUP7 ISZERO PUSH2 0x1E7F JUMPI DUP3 DUP1 ISZERO PUSH2 0x1E2B JUMPI POP DUP4 ISZERO JUMPDEST DUP1 ISZERO PUSH2 0x1E37 JUMPI POP PUSH1 0x2 DUP9 EQ JUMPDEST ISZERO PUSH2 0x1E40 JUMPI DUP1 SWAP10 POP JUMPDEST DUP3 DUP1 ISZERO PUSH2 0x1E4B JUMPI POP DUP4 ISZERO JUMPDEST DUP1 ISZERO PUSH2 0x1E57 JUMPI POP PUSH1 0x4 DUP9 EQ JUMPDEST DUP1 ISZERO PUSH2 0x1E64 JUMPI POP PUSH1 0x1 DUP2 LT ISZERO JUMPDEST ISZERO PUSH2 0x1E6D JUMPI DUP1 SWAP10 POP JUMPDEST PUSH2 0x1E7A DUP11 DUP8 DUP11 PUSH1 0x1 PUSH2 0x1BDC JUMP JUMPDEST PUSH2 0x215E JUMP JUMPDEST PUSH1 0x4 PUSH1 0x0 DUP8 PUSH20 0xFFFFFFFFFFFFFFFFFFFFFFFFFFFFFFFFFFFFFFFF AND PUSH20 0xFFFFFFFFFFFFFFFFFFFFFFFFFFFFFFFFFFFFFFFF AND DUP2 MSTORE PUSH1 0x20 ADD SWAP1 DUP2 MSTORE PUSH1 0x20 ADD PUSH1 0x0 KECCAK256 PUSH1 0x0 ADD PUSH1 0x0 SWAP1 SLOAD SWAP1 PUSH2 0x100 EXP SWAP1 DIV PUSH1 0xFF AND PUSH2 0x1F0B JUMPI PUSH1 0x5 PUSH1 0x0 PUSH1 0x1 DUP2 MSTORE PUSH1 0x20 ADD SWAP1 DUP2 MSTORE PUSH1 0x20 ADD PUSH1 0x0 KECCAK256 PUSH1 0x0 SWAP1 SLOAD SWAP1 PUSH2 0x100 EXP SWAP1 DIV PUSH20 0xFFFFFFFFFFFFFFFFFFFFFFFFFFFFFFFFFFFFFFFF AND SWAP6 POP JUMPDEST PUSH1 0x1 PUSH1 0x4 PUSH1 0x0 DUP9 PUSH20 0xFFFFFFFFFFFFFFFFFFFFFFFFFFFFFFFFFFFFFFFF AND PUSH20 0xFFFFFFFFFFFFFFFFFFFFFFFFFFFFFFFFFFFFFFFF AND DUP2 MSTORE PUSH1 0x20 ADD SWAP1 DUP2 MSTORE PUSH1 0x20 ADD PUSH1 0x0 KECCAK256 PUSH1 0x5 ADD PUSH1 0x0 DUP4 DUP2 MSTORE PUSH1 0x20 ADD SWAP1 DUP2 MSTORE PUSH1 0x20 ADD PUSH1 0x0 KECCAK256 SLOAD PUSH2 0x1F6B SWAP2 SWAP1 PUSH2 0x4AFB JUMP JUMPDEST PUSH1 0x4 PUSH1 0x0 DUP9 PUSH20 0xFFFFFFFFFFFFFFFFFFFFFFFFFFFFFFFFFFFFFFFF AND PUSH20 0xFFFFFFFFFFFFFFFFFFFFFFFFFFFFFFFFFFFFFFFF AND DUP2 MSTORE PUSH1 0x20 ADD SWAP1 DUP2 MSTORE PUSH1 0x20 ADD PUSH1 0x0 KECCAK256 PUSH1 0x5 ADD PUSH1 0x0 DUP4 DUP2 MSTORE PUSH1 0x20 ADD SWAP1 DUP2 MSTORE PUSH1 0x20 ADD PUSH1 0x0 KECCAK256 DUP2 SWAP1 SSTORE POP PUSH1 0x0 DUP7 PUSH20 0xFFFFFFFFFFFFFFFFFFFFFFFFFFFFFFFFFFFFFFFF AND PUSH1 0x3 PUSH1 0x0 DUP5 DUP2 MSTORE PUSH1 0x20 ADD SWAP1 DUP2 MSTORE PUSH1 0x20 ADD PUSH1 0x0 KECCAK256 SLOAD PUSH1 0x40 MLOAD PUSH2 0x1FFB SWAP1 PUSH2 0x4907 JUMP JUMPDEST PUSH1 0x0 PUSH1 0x40 MLOAD DUP1 DUP4 SUB DUP2 DUP6 DUP8 GAS CALL SWAP3 POP POP POP RETURNDATASIZE DUP1 PUSH1 0x0 DUP2 EQ PUSH2 0x2038 JUMPI PUSH1 0x40 MLOAD SWAP2 POP PUSH1 0x1F NOT PUSH1 0x3F RETURNDATASIZE ADD AND DUP3 ADD PUSH1 0x40 MSTORE RETURNDATASIZE DUP3 MSTORE RETURNDATASIZE PUSH1 0x0 PUSH1 0x20 DUP5 ADD RETURNDATACOPY PUSH2 0x203D JUMP JUMPDEST PUSH1 0x60 SWAP2 POP JUMPDEST POP POP SWAP1 POP DUP1 PUSH2 0x2081 JUMPI PUSH1 0x40 MLOAD PUSH32 0x8C379A000000000000000000000000000000000000000000000000000000000 DUP2 MSTORE PUSH1 0x4 ADD PUSH2 0x2078 SWAP1 PUSH2 0x4968 JUMP JUMPDEST PUSH1 0x40 MLOAD DUP1 SWAP2 SUB SWAP1 REVERT JUMPDEST DUP1 ISZERO PUSH2 0x20EF JUMPI CALLER PUSH20 0xFFFFFFFFFFFFFFFFFFFFFFFFFFFFFFFFFFFFFFFF AND DUP8 PUSH20 0xFFFFFFFFFFFFFFFFFFFFFFFFFFFFFFFFFFFFFFFF AND PUSH32 0xCE7DC747411AC40191C5335943FCC79D8C2D8C01CA5AE83D9FED160409FA6120 DUP5 TIMESTAMP PUSH1 0x40 MLOAD PUSH2 0x20E6 SWAP3 SWAP2 SWAP1 PUSH2 0x4C5A JUMP JUMPDEST PUSH1 0x40 MLOAD DUP1 SWAP2 SUB SWAP1 LOG3 JUMPDEST DUP1 PUSH2 0x215C JUMPI CALLER PUSH20 0xFFFFFFFFFFFFFFFFFFFFFFFFFFFFFFFFFFFFFFFF AND DUP8 PUSH20 0xFFFFFFFFFFFFFFFFFFFFFFFFFFFFFFFFFFFFFFFF AND PUSH32 0x7DF0F6BAC5C770AF7783500BB7F1C0D073ADB11316004BA6F9F6C704AF1A1AEA DUP5 TIMESTAMP PUSH1 0x40 MLOAD PUSH2 0x2153 SWAP3 SWAP2 SWAP1 PUSH2 0x4C5A JUMP JUMPDEST PUSH1 0x40 MLOAD DUP1 SWAP2 SUB SWAP1 LOG3 JUMPDEST POP JUMPDEST JUMPDEST POP POP POP POP POP POP POP POP POP POP JUMP JUMPDEST PUSH1 0x0 DUP1 PUSH1 0x0 DUP1 PUSH1 0x1 DUP10 PUSH2 0x217E SWAP2 SWAP1 PUSH2 0x4AFB JUMP JUMPDEST SWAP1 POP PUSH1 0x0 DUP1 PUSH1 0x2 DUP4 GT PUSH2 0x2208 JUMPI PUSH1 0x5 PUSH1 0x0 PUSH1 0x4 PUSH1 0x0 DUP14 PUSH20 0xFFFFFFFFFFFFFFFFFFFFFFFFFFFFFFFFFFFFFFFF AND PUSH20 0xFFFFFFFFFFFFFFFFFFFFFFFFFFFFFFFFFFFFFFFF AND DUP2 MSTORE PUSH1 0x20 ADD SWAP1 DUP2 MSTORE PUSH1 0x20 ADD PUSH1 0x0 KECCAK256 PUSH1 0x2 ADD SLOAD DUP2 MSTORE PUSH1 0x20 ADD SWAP1 DUP2 MSTORE PUSH1 0x20 ADD PUSH1 0x0 KECCAK256 PUSH1 0x0 SWAP1 SLOAD SWAP1 PUSH2 0x100 EXP SWAP1 DIV PUSH20 0xFFFFFFFFFFFFFFFFFFFFFFFFFFFFFFFFFFFFFFFF AND SWAP1 POP PUSH2 0x220C JUMP JUMPDEST DUP10 SWAP1 POP JUMPDEST PUSH2 0x2217 DUP2 DUP13 DUP12 PUSH2 0x2EBF JUMP JUMPDEST DUP1 SWAP3 POP DUP2 SWAP4 POP POP POP PUSH1 0x4 PUSH1 0x0 DUP4 PUSH20 0xFFFFFFFFFFFFFFFFFFFFFFFFFFFFFFFFFFFFFFFF AND PUSH20 0xFFFFFFFFFFFFFFFFFFFFFFFFFFFFFFFFFFFFFFFF AND DUP2 MSTORE PUSH1 0x20 ADD SWAP1 DUP2 MSTORE PUSH1 0x20 ADD PUSH1 0x0 KECCAK256 PUSH1 0x0 ADD PUSH1 0x0 SWAP1 SLOAD SWAP1 PUSH2 0x100 EXP SWAP1 DIV PUSH1 0xFF AND ISZERO DUP1 PUSH2 0x2384 JUMPI POP PUSH1 0x0 PUSH20 0xFFFFFFFFFFFFFFFFFFFFFFFFFFFFFFFFFFFFFFFF AND PUSH1 0x7 PUSH1 0x0 DUP6 DUP2 MSTORE PUSH1 0x20 ADD SWAP1 DUP2 MSTORE PUSH1 0x20 ADD PUSH1 0x0 KECCAK256 PUSH1 0x0 DUP5 PUSH20 0xFFFFFFFFFFFFFFFFFFFFFFFFFFFFFFFFFFFFFFFF AND PUSH20 0xFFFFFFFFFFFFFFFFFFFFFFFFFFFFFFFFFFFFFFFF AND DUP2 MSTORE PUSH1 0x20 ADD SWAP1 DUP2 MSTORE PUSH1 0x20 ADD PUSH1 0x0 KECCAK256 PUSH1 0x0 SWAP1 SLOAD SWAP1 PUSH2 0x100 EXP SWAP1 DIV PUSH20 0xFFFFFFFFFFFFFFFFFFFFFFFFFFFFFFFFFFFFFFFF AND PUSH20 0xFFFFFFFFFFFFFFFFFFFFFFFFFFFFFFFFFFFFFFFF AND EQ DUP1 ISZERO PUSH2 0x2383 JUMPI POP PUSH1 0x0 ISZERO ISZERO PUSH1 0x8 PUSH1 0x0 DUP6 DUP2 MSTORE PUSH1 0x20 ADD SWAP1 DUP2 MSTORE PUSH1 0x20 ADD PUSH1 0x0 KECCAK256 PUSH1 0x0 DUP5 PUSH20 0xFFFFFFFFFFFFFFFFFFFFFFFFFFFFFFFFFFFFFFFF AND PUSH20 0xFFFFFFFFFFFFFFFFFFFFFFFFFFFFFFFFFFFFFFFF AND DUP2 MSTORE PUSH1 0x20 ADD SWAP1 DUP2 MSTORE PUSH1 0x20 ADD PUSH1 0x0 KECCAK256 PUSH1 0x0 SWAP1 SLOAD SWAP1 PUSH2 0x100 EXP SWAP1 DIV PUSH1 0xFF AND ISZERO ISZERO EQ JUMPDEST JUMPDEST ISZERO PUSH2 0x2622 JUMPI PUSH1 0x4 PUSH1 0x0 DUP4 PUSH20 0xFFFFFFFFFFFFFFFFFFFFFFFFFFFFFFFFFFFFFFFF AND PUSH20 0xFFFFFFFFFFFFFFFFFFFFFFFFFFFFFFFFFFFFFFFF AND DUP2 MSTORE PUSH1 0x20 ADD SWAP1 DUP2 MSTORE PUSH1 0x20 ADD PUSH1 0x0 KECCAK256 PUSH1 0x0 ADD PUSH1 0x0 SWAP1 SLOAD SWAP1 PUSH2 0x100 EXP SWAP1 DIV PUSH1 0xFF AND PUSH2 0x2415 JUMPI PUSH1 0x5 PUSH1 0x0 PUSH1 0x1 DUP2 MSTORE PUSH1 0x20 ADD SWAP1 DUP2 MSTORE PUSH1 0x20 ADD PUSH1 0x0 KECCAK256 PUSH1 0x0 SWAP1 SLOAD SWAP1 PUSH2 0x100 EXP SWAP1 DIV PUSH20 0xFFFFFFFFFFFFFFFFFFFFFFFFFFFFFFFFFFFFFFFF AND SWAP2 POP JUMPDEST PUSH1 0x5 PUSH1 0x0 PUSH1 0x1 DUP2 MSTORE PUSH1 0x20 ADD SWAP1 DUP2 MSTORE PUSH1 0x20 ADD PUSH1 0x0 KECCAK256 PUSH1 0x0 SWAP1 SLOAD SWAP1 PUSH2 0x100 EXP SWAP1 DIV PUSH20 0xFFFFFFFFFFFFFFFFFFFFFFFFFFFFFFFFFFFFFFFF AND PUSH20 0xFFFFFFFFFFFFFFFFFFFFFFFFFFFFFFFFFFFFFFFF AND DUP3 PUSH20 0xFFFFFFFFFFFFFFFFFFFFFFFFFFFFFFFFFFFFFFFF AND EQ PUSH2 0x2538 JUMPI PUSH1 0x1 PUSH1 0x4 PUSH1 0x0 DUP5 PUSH20 0xFFFFFFFFFFFFFFFFFFFFFFFFFFFFFFFFFFFFFFFF AND PUSH20 0xFFFFFFFFFFFFFFFFFFFFFFFFFFFFFFFFFFFFFFFF AND DUP2 MSTORE PUSH1 0x20 ADD SWAP1 DUP2 MSTORE PUSH1 0x20 ADD PUSH1 0x0 KECCAK256 PUSH1 0x5 ADD PUSH1 0x0 DUP6 DUP2 MSTORE PUSH1 0x20 ADD SWAP1 DUP2 MSTORE PUSH1 0x20 ADD PUSH1 0x0 KECCAK256 SLOAD PUSH2 0x24DC SWAP2 SWAP1 PUSH2 0x4AFB JUMP JUMPDEST PUSH1 0x4 PUSH1 0x0 DUP5 PUSH20 0xFFFFFFFFFFFFFFFFFFFFFFFFFFFFFFFFFFFFFFFF AND PUSH20 0xFFFFFFFFFFFFFFFFFFFFFFFFFFFFFFFFFFFFFFFF AND DUP2 MSTORE PUSH1 0x20 ADD SWAP1 DUP2 MSTORE PUSH1 0x20 ADD PUSH1 0x0 KECCAK256 PUSH1 0x5 ADD PUSH1 0x0 DUP6 DUP2 MSTORE PUSH1 0x20 ADD SWAP1 DUP2 MSTORE PUSH1 0x20 ADD PUSH1 0x0 KECCAK256 DUP2 SWAP1 SSTORE POP PUSH1 0x0 SWAP7 POP JUMPDEST DUP1 PUSH1 0x7 PUSH1 0x0 DUP6 DUP2 MSTORE PUSH1 0x20 ADD SWAP1 DUP2 MSTORE PUSH1 0x20 ADD PUSH1 0x0 KECCAK256 PUSH1 0x0 DUP5 PUSH20 0xFFFFFFFFFFFFFFFFFFFFFFFFFFFFFFFFFFFFFFFF AND PUSH20 0xFFFFFFFFFFFFFFFFFFFFFFFFFFFFFFFFFFFFFFFF AND DUP2 MSTORE PUSH1 0x20 ADD SWAP1 DUP2 MSTORE PUSH1 0x20 ADD PUSH1 0x0 KECCAK256 PUSH1 0x0 PUSH2 0x100 EXP DUP2 SLOAD DUP2 PUSH20 0xFFFFFFFFFFFFFFFFFFFFFFFFFFFFFFFFFFFFFFFF MUL NOT AND SWAP1 DUP4 PUSH20 0xFFFFFFFFFFFFFFFFFFFFFFFFFFFFFFFFFFFFFFFF AND MUL OR SWAP1 SSTORE POP PUSH1 0x1 PUSH1 0x6 PUSH1 0x0 DUP6 DUP2 MSTORE PUSH1 0x20 ADD SWAP1 DUP2 MSTORE PUSH1 0x20 ADD PUSH1 0x0 KECCAK256 PUSH1 0x0 DUP5 PUSH20 0xFFFFFFFFFFFFFFFFFFFFFFFFFFFFFFFFFFFFFFFF AND PUSH20 0xFFFFFFFFFFFFFFFFFFFFFFFFFFFFFFFFFFFFFFFF AND DUP2 MSTORE PUSH1 0x20 ADD SWAP1 DUP2 MSTORE PUSH1 0x20 ADD PUSH1 0x0 KECCAK256 DUP2 SWAP1 SSTORE POP PUSH2 0x285D JUMP JUMPDEST PUSH1 0x0 PUSH1 0x7 PUSH1 0x0 DUP6 DUP2 MSTORE PUSH1 0x20 ADD SWAP1 DUP2 MSTORE PUSH1 0x20 ADD PUSH1 0x0 KECCAK256 PUSH1 0x0 DUP5 PUSH20 0xFFFFFFFFFFFFFFFFFFFFFFFFFFFFFFFFFFFFFFFF AND PUSH20 0xFFFFFFFFFFFFFFFFFFFFFFFFFFFFFFFFFFFFFFFF AND DUP2 MSTORE PUSH1 0x20 ADD SWAP1 DUP2 MSTORE PUSH1 0x20 ADD PUSH1 0x0 KECCAK256 PUSH1 0x0 SWAP1 SLOAD SWAP1 PUSH2 0x100 EXP SWAP1 DIV PUSH20 0xFFFFFFFFFFFFFFFFFFFFFFFFFFFFFFFFFFFFFFFF AND SWAP1 POP PUSH2 0x26A2 DUP4 DUP3 DUP5 PUSH2 0x35BF JUMP JUMPDEST ISZERO PUSH2 0x26B0 JUMPI PUSH1 0x1 SWAP9 POP PUSH2 0x285B JUMP JUMPDEST PUSH1 0x0 PUSH1 0x7 PUSH1 0x0 DUP7 DUP2 MSTORE PUSH1 0x20 ADD SWAP1 DUP2 MSTORE PUSH1 0x20 ADD PUSH1 0x0 KECCAK256 PUSH1 0x0 DUP6 PUSH20 0xFFFFFFFFFFFFFFFFFFFFFFFFFFFFFFFFFFFFFFFF AND PUSH20 0xFFFFFFFFFFFFFFFFFFFFFFFFFFFFFFFFFFFFFFFF AND DUP2 MSTORE PUSH1 0x20 ADD SWAP1 DUP2 MSTORE PUSH1 0x20 ADD PUSH1 0x0 KECCAK256 PUSH1 0x0 PUSH2 0x100 EXP DUP2 SLOAD DUP2 PUSH20 0xFFFFFFFFFFFFFFFFFFFFFFFFFFFFFFFFFFFFFFFF MUL NOT AND SWAP1 DUP4 PUSH20 0xFFFFFFFFFFFFFFFFFFFFFFFFFFFFFFFFFFFFFFFF AND MUL OR SWAP1 SSTORE POP PUSH1 0x1 PUSH1 0x8 PUSH1 0x0 DUP7 DUP2 MSTORE PUSH1 0x20 ADD SWAP1 DUP2 MSTORE PUSH1 0x20 ADD PUSH1 0x0 KECCAK256 PUSH1 0x0 DUP6 PUSH20 0xFFFFFFFFFFFFFFFFFFFFFFFFFFFFFFFFFFFFFFFF AND PUSH20 0xFFFFFFFFFFFFFFFFFFFFFFFFFFFFFFFFFFFFFFFF AND DUP2 MSTORE PUSH1 0x20 ADD SWAP1 DUP2 MSTORE PUSH1 0x20 ADD PUSH1 0x0 KECCAK256 PUSH1 0x0 PUSH2 0x100 EXP DUP2 SLOAD DUP2 PUSH1 0xFF MUL NOT AND SWAP1 DUP4 ISZERO ISZERO MUL OR SWAP1 SSTORE POP PUSH1 0x1 PUSH1 0x6 PUSH1 0x0 DUP7 DUP2 MSTORE PUSH1 0x20 ADD SWAP1 DUP2 MSTORE PUSH1 0x20 ADD PUSH1 0x0 KECCAK256 PUSH1 0x0 DUP6 PUSH20 0xFFFFFFFFFFFFFFFFFFFFFFFFFFFFFFFFFFFFFFFF AND PUSH20 0xFFFFFFFFFFFFFFFFFFFFFFFFFFFFFFFFFFFFFFFF AND DUP2 MSTORE PUSH1 0x20 ADD SWAP1 DUP2 MSTORE PUSH1 0x20 ADD PUSH1 0x0 KECCAK256 SLOAD PUSH2 0x2806 SWAP2 SWAP1 PUSH2 0x4AFB JUMP JUMPDEST PUSH1 0x6 PUSH1 0x0 DUP7 DUP2 MSTORE PUSH1 0x20 ADD SWAP1 DUP2 MSTORE PUSH1 0x20 ADD PUSH1 0x0 KECCAK256 PUSH1 0x0 DUP6 PUSH20 0xFFFFFFFFFFFFFFFFFFFFFFFFFFFFFFFFFFFFFFFF AND PUSH20 0xFFFFFFFFFFFFFFFFFFFFFFFFFFFFFFFFFFFFFFFF AND DUP2 MSTORE PUSH1 0x20 ADD SWAP1 DUP2 MSTORE PUSH1 0x20 ADD PUSH1 0x0 KECCAK256 DUP2 SWAP1 SSTORE POP JUMPDEST POP JUMPDEST PUSH1 0x4 PUSH1 0x0 DUP3 PUSH20 0xFFFFFFFFFFFFFFFFFFFFFFFFFFFFFFFFFFFFFFFF AND PUSH20 0xFFFFFFFFFFFFFFFFFFFFFFFFFFFFFFFFFFFFFFFF AND DUP2 MSTORE PUSH1 0x20 ADD SWAP1 DUP2 MSTORE PUSH1 0x20 ADD PUSH1 0x0 KECCAK256 PUSH1 0x6 ADD DUP4 SWAP1 DUP1 PUSH1 0x1 DUP2 SLOAD ADD DUP1 DUP3 SSTORE DUP1 SWAP2 POP POP PUSH1 0x1 SWAP1 SUB SWAP1 PUSH1 0x0 MSTORE PUSH1 0x20 PUSH1 0x0 KECCAK256 ADD PUSH1 0x0 SWAP1 SWAP2 SWAP1 SWAP2 SWAP1 SWAP2 POP SSTORE DUP2 DUP8 DUP10 SWAP6 POP SWAP6 POP SWAP6 POP POP POP POP SWAP6 POP SWAP6 POP SWAP6 SWAP3 POP POP POP JUMP JUMPDEST PUSH1 0x0 DUP1 PUSH1 0x0 PUSH1 0x1 SWAP1 POP PUSH1 0x0 DUP1 DUP9 PUSH2 0x296B JUMPI PUSH1 0x5 PUSH1 0x0 PUSH1 0x4 PUSH1 0x0 DUP12 PUSH20 0xFFFFFFFFFFFFFFFFFFFFFFFFFFFFFFFFFFFFFFFF AND PUSH20 0xFFFFFFFFFFFFFFFFFFFFFFFFFFFFFFFFFFFFFFFF AND DUP2 MSTORE PUSH1 0x20 ADD SWAP1 DUP2 MSTORE PUSH1 0x20 ADD PUSH1 0x0 KECCAK256 PUSH1 0x2 ADD SLOAD DUP2 MSTORE PUSH1 0x20 ADD SWAP1 DUP2 MSTORE PUSH1 0x20 ADD PUSH1 0x0 KECCAK256 PUSH1 0x0 SWAP1 SLOAD SWAP1 PUSH2 0x100 EXP SWAP1 DIV PUSH20 0xFFFFFFFFFFFFFFFFFFFFFFFFFFFFFFFFFFFFFFFF AND SWAP2 POP PUSH2 0x296F JUMP JUMPDEST DUP8 SWAP2 POP JUMPDEST PUSH2 0x297A DUP3 DUP9 DUP9 PUSH2 0x398E JUMP JUMPDEST POP DUP1 SWAP2 POP POP PUSH1 0x4 PUSH1 0x0 DUP3 PUSH20 0xFFFFFFFFFFFFFFFFFFFFFFFFFFFFFFFFFFFFFFFF AND PUSH20 0xFFFFFFFFFFFFFFFFFFFFFFFFFFFFFFFFFFFFFFFF AND DUP2 MSTORE PUSH1 0x20 ADD SWAP1 DUP2 MSTORE PUSH1 0x20 ADD PUSH1 0x0 KECCAK256 PUSH1 0x0 ADD PUSH1 0x0 SWAP1 SLOAD SWAP1 PUSH2 0x100 EXP SWAP1 DIV PUSH1 0xFF AND PUSH2 0x2A0B JUMPI PUSH1 0x5 PUSH1 0x0 PUSH1 0x1 DUP2 MSTORE PUSH1 0x20 ADD SWAP1 DUP2 MSTORE PUSH1 0x20 ADD PUSH1 0x0 KECCAK256 PUSH1 0x0 SWAP1 SLOAD SWAP1 PUSH2 0x100 EXP SWAP1 DIV PUSH20 0xFFFFFFFFFFFFFFFFFFFFFFFFFFFFFFFFFFFFFFFF AND SWAP1 POP JUMPDEST DUP1 DUP4 SWAP5 POP SWAP5 POP POP POP POP SWAP5 POP SWAP5 SWAP3 POP POP POP JUMP JUMPDEST PUSH1 0x0 DUP1 PUSH1 0x0 DUP1 DUP7 SWAP1 POP PUSH1 0x0 PUSH1 0x1 PUSH1 0x4 PUSH1 0x0 DUP13 PUSH20 0xFFFFFFFFFFFFFFFFFFFFFFFFFFFFFFFFFFFFFFFF AND PUSH20 0xFFFFFFFFFFFFFFFFFFFFFFFFFFFFFFFFFFFFFFFF AND DUP2 MSTORE PUSH1 0x20 ADD SWAP1 DUP2 MSTORE PUSH1 0x20 ADD PUSH1 0x0 KECCAK256 PUSH1 0x5 ADD PUSH1 0x0 DUP12 DUP2 MSTORE PUSH1 0x20 ADD SWAP1 DUP2 MSTORE PUSH1 0x20 ADD PUSH1 0x0 KECCAK256 SLOAD PUSH2 0x2A88 SWAP2 SWAP1 PUSH2 0x4AFB JUMP JUMPDEST SWAP1 POP PUSH1 0x2 PUSH1 0x6 PUSH1 0x0 DUP12 DUP2 MSTORE PUSH1 0x20 ADD SWAP1 DUP2 MSTORE PUSH1 0x20 ADD PUSH1 0x0 KECCAK256 PUSH1 0x0 DUP13 PUSH20 0xFFFFFFFFFFFFFFFFFFFFFFFFFFFFFFFFFFFFFFFF AND PUSH20 0xFFFFFFFFFFFFFFFFFFFFFFFFFFFFFFFFFFFFFFFF AND DUP2 MSTORE PUSH1 0x20 ADD SWAP1 DUP2 MSTORE PUSH1 0x20 ADD PUSH1 0x0 KECCAK256 SLOAD EQ ISZERO PUSH2 0x2AEC JUMPI PUSH1 0x1 SWAP3 POP PUSH2 0x2EAC JUMP JUMPDEST PUSH1 0x4 DUP2 LT ISZERO DUP1 ISZERO PUSH2 0x2B09 JUMPI POP PUSH1 0x0 PUSH1 0x4 DUP3 PUSH2 0x2B07 SWAP2 SWAP1 PUSH2 0x4C29 JUMP JUMPDEST EQ JUMPDEST DUP1 ISZERO PUSH2 0x2B58 JUMPI POP PUSH1 0x0 PUSH1 0x4 PUSH1 0x0 DUP13 PUSH20 0xFFFFFFFFFFFFFFFFFFFFFFFFFFFFFFFFFFFFFFFF AND PUSH20 0xFFFFFFFFFFFFFFFFFFFFFFFFFFFFFFFFFFFFFFFF AND DUP2 MSTORE PUSH1 0x20 ADD SWAP1 DUP2 MSTORE PUSH1 0x20 ADD PUSH1 0x0 KECCAK256 PUSH1 0x2 ADD SLOAD EQ ISZERO JUMPDEST DUP1 ISZERO PUSH2 0x2B64 JUMPI POP PUSH1 0x1 DUP10 EQ JUMPDEST ISZERO PUSH2 0x2B8B JUMPI PUSH1 0x3 DUP9 EQ DUP1 ISZERO PUSH2 0x2B79 JUMPI POP PUSH1 0x4 DUP2 EQ JUMPDEST ISZERO PUSH2 0x2B82 JUMPI DUP1 SWAP2 POP JUMPDEST PUSH1 0x1 SWAP3 POP PUSH2 0x2EAB JUMP JUMPDEST PUSH1 0x4 DUP2 LT ISZERO DUP1 ISZERO PUSH2 0x2BA8 JUMPI POP PUSH1 0x0 PUSH1 0x4 DUP3 PUSH2 0x2BA6 SWAP2 SWAP1 PUSH2 0x4C29 JUMP JUMPDEST EQ JUMPDEST DUP1 ISZERO PUSH2 0x2BB4 JUMPI POP PUSH1 0x2 DUP9 EQ JUMPDEST DUP1 ISZERO PUSH2 0x2BBE JUMPI POP DUP6 ISZERO JUMPDEST DUP1 ISZERO PUSH2 0x2BCA JUMPI POP PUSH1 0x1 DUP10 GT JUMPDEST ISZERO PUSH2 0x2C4E JUMPI PUSH1 0x5 PUSH1 0x0 PUSH1 0x1 DUP2 MSTORE PUSH1 0x20 ADD SWAP1 DUP2 MSTORE PUSH1 0x20 ADD PUSH1 0x0 KECCAK256 PUSH1 0x0 SWAP1 SLOAD SWAP1 PUSH2 0x100 EXP SWAP1 DIV PUSH20 0xFFFFFFFFFFFFFFFFFFFFFFFFFFFFFFFFFFFFFFFF AND PUSH20 0xFFFFFFFFFFFFFFFFFFFFFFFFFFFFFFFFFFFFFFFF AND DUP11 PUSH20 0xFFFFFFFFFFFFFFFFFFFFFFFFFFFFFFFFFFFFFFFF AND EQ ISZERO PUSH2 0x2C40 JUMPI PUSH1 0x0 SWAP3 POP PUSH2 0x2C49 JUMP JUMPDEST PUSH1 0x4 SWAP2 POP PUSH1 0x1 SWAP3 POP JUMPDEST PUSH2 0x2EAA JUMP JUMPDEST PUSH1 0x2 DUP2 EQ DUP1 ISZERO PUSH2 0x2CA1 JUMPI POP PUSH1 0x0 PUSH1 0x4 PUSH1 0x0 DUP13 PUSH20 0xFFFFFFFFFFFFFFFFFFFFFFFFFFFFFFFFFFFFFFFF AND PUSH20 0xFFFFFFFFFFFFFFFFFFFFFFFFFFFFFFFFFFFFFFFF AND DUP2 MSTORE PUSH1 0x20 ADD SWAP1 DUP2 MSTORE PUSH1 0x20 ADD PUSH1 0x0 KECCAK256 PUSH1 0x2 ADD SLOAD EQ ISZERO JUMPDEST DUP1 ISZERO PUSH2 0x2CAB JUMPI POP DUP7 ISZERO JUMPDEST DUP1 ISZERO PUSH2 0x2CB5 JUMPI POP DUP6 ISZERO JUMPDEST ISZERO PUSH2 0x2DC4 JUMPI PUSH1 0x4 PUSH1 0x0 DUP12 PUSH20 0xFFFFFFFFFFFFFFFFFFFFFFFFFFFFFFFFFFFFFFFF AND PUSH20 0xFFFFFFFFFFFFFFFFFFFFFFFFFFFFFFFFFFFFFFFF AND DUP2 MSTORE PUSH1 0x20 ADD SWAP1 DUP2 MSTORE PUSH1 0x20 ADD PUSH1 0x0 KECCAK256 PUSH1 0x0 ADD PUSH1 0x0 SWAP1 SLOAD SWAP1 PUSH2 0x100 EXP SWAP1 DIV PUSH1 0xFF AND PUSH2 0x2D46 JUMPI PUSH1 0x5 PUSH1 0x0 PUSH1 0x1 DUP2 MSTORE PUSH1 0x20 ADD SWAP1 DUP2 MSTORE PUSH1 0x20 ADD PUSH1 0x0 KECCAK256 PUSH1 0x0 SWAP1 SLOAD SWAP1 PUSH2 0x100 EXP SWAP1 DIV PUSH20 0xFFFFFFFFFFFFFFFFFFFFFFFFFFFFFFFFFFFFFFFF AND SWAP10 POP JUMPDEST PUSH1 0x5 PUSH1 0x0 PUSH1 0x1 DUP2 MSTORE PUSH1 0x20 ADD SWAP1 DUP2 MSTORE PUSH1 0x20 ADD PUSH1 0x0 KECCAK256 PUSH1 0x0 SWAP1 SLOAD SWAP1 PUSH2 0x100 EXP SWAP1 DIV PUSH20 0xFFFFFFFFFFFFFFFFFFFFFFFFFFFFFFFFFFFFFFFF AND PUSH20 0xFFFFFFFFFFFFFFFFFFFFFFFFFFFFFFFFFFFFFFFF AND DUP11 PUSH20 0xFFFFFFFFFFFFFFFFFFFFFFFFFFFFFFFFFFFFFFFF AND EQ ISZERO PUSH2 0x2DB7 JUMPI PUSH1 0x0 SWAP3 POP PUSH2 0x2DBF JUMP JUMPDEST PUSH1 0x1 SWAP3 POP DUP1 SWAP2 POP JUMPDEST PUSH2 0x2EA9 JUMP JUMPDEST PUSH1 0x1 DUP2 EQ DUP1 ISZERO PUSH2 0x2E16 JUMPI POP PUSH1 0x0 PUSH1 0x4 PUSH1 0x0 DUP13 PUSH20 0xFFFFFFFFFFFFFFFFFFFFFFFFFFFFFFFFFFFFFFFF AND PUSH20 0xFFFFFFFFFFFFFFFFFFFFFFFFFFFFFFFFFFFFFFFF AND DUP2 MSTORE PUSH1 0x20 ADD SWAP1 DUP2 MSTORE PUSH1 0x20 ADD PUSH1 0x0 KECCAK256 PUSH1 0x2 ADD SLOAD EQ JUMPDEST ISZERO PUSH2 0x2EA8 JUMPI PUSH1 0x4 PUSH1 0x0 DUP12 PUSH20 0xFFFFFFFFFFFFFFFFFFFFFFFFFFFFFFFFFFFFFFFF AND PUSH20 0xFFFFFFFFFFFFFFFFFFFFFFFFFFFFFFFFFFFFFFFF AND DUP2 MSTORE PUSH1 0x20 ADD SWAP1 DUP2 MSTORE PUSH1 0x20 ADD PUSH1 0x0 KECCAK256 PUSH1 0x0 ADD PUSH1 0x0 SWAP1 SLOAD SWAP1 PUSH2 0x100 EXP SWAP1 DIV PUSH1 0xFF AND PUSH2 0x2EA7 JUMPI PUSH1 0x5 PUSH1 0x0 PUSH1 0x1 DUP2 MSTORE PUSH1 0x20 ADD SWAP1 DUP2 MSTORE PUSH1 0x20 ADD PUSH1 0x0 KECCAK256 PUSH1 0x0 SWAP1 SLOAD SWAP1 PUSH2 0x100 EXP SWAP1 DIV PUSH20 0xFFFFFFFFFFFFFFFFFFFFFFFFFFFFFFFFFFFFFFFF AND SWAP10 POP JUMPDEST JUMPDEST JUMPDEST JUMPDEST JUMPDEST JUMPDEST DUP3 DUP3 SWAP5 POP SWAP5 POP POP POP POP SWAP6 POP SWAP6 SWAP4 POP POP POP POP JUMP JUMPDEST PUSH1 0x0 DUP1 PUSH1 0x0 DUP1 DUP7 SWAP1 POP PUSH1 0x0 JUMPDEST PUSH1 0x9 DUP2 SLT ISZERO PUSH2 0x34F7 JUMPI PUSH1 0x1 PUSH1 0x4 PUSH1 0x0 DUP11 PUSH20 0xFFFFFFFFFFFFFFFFFFFFFFFFFFFFFFFFFFFFFFFF AND PUSH20 0xFFFFFFFFFFFFFFFFFFFFFFFFFFFFFFFFFFFFFFFF AND DUP2 MSTORE PUSH1 0x20 ADD SWAP1 DUP2 MSTORE PUSH1 0x20 ADD PUSH1 0x0 KECCAK256 PUSH1 0x2 ADD SLOAD EQ DUP1 PUSH2 0x2F84 JUMPI POP PUSH1 0x5 PUSH1 0x0 PUSH1 0x1 DUP2 MSTORE PUSH1 0x20 ADD SWAP1 DUP2 MSTORE PUSH1 0x20 ADD PUSH1 0x0 KECCAK256 PUSH1 0x0 SWAP1 SLOAD SWAP1 PUSH2 0x100 EXP SWAP1 DIV PUSH20 0xFFFFFFFFFFFFFFFFFFFFFFFFFFFFFFFFFFFFFFFF AND PUSH20 0xFFFFFFFFFFFFFFFFFFFFFFFFFFFFFFFFFFFFFFFF AND DUP4 PUSH20 0xFFFFFFFFFFFFFFFFFFFFFFFFFFFFFFFFFFFFFFFF AND EQ JUMPDEST ISZERO PUSH2 0x2F8E JUMPI PUSH2 0x34F7 JUMP JUMPDEST PUSH1 0x0 PUSH1 0x1 PUSH1 0x4 PUSH1 0x0 DUP6 PUSH20 0xFFFFFFFFFFFFFFFFFFFFFFFFFFFFFFFFFFFFFFFF AND PUSH20 0xFFFFFFFFFFFFFFFFFFFFFFFFFFFFFFFFFFFFFFFF AND DUP2 MSTORE PUSH1 0x20 ADD SWAP1 DUP2 MSTORE PUSH1 0x20 ADD PUSH1 0x0 KECCAK256 PUSH1 0x6 ADD DUP1 SLOAD SWAP1 POP PUSH2 0x2FE2 SWAP2 SWAP1 PUSH2 0x4836 JUMP JUMPDEST SWAP1 POP PUSH1 0x4 PUSH1 0x0 DUP5 PUSH20 0xFFFFFFFFFFFFFFFFFFFFFFFFFFFFFFFFFFFFFFFF AND PUSH20 0xFFFFFFFFFFFFFFFFFFFFFFFFFFFFFFFFFFFFFFFF AND DUP2 MSTORE PUSH1 0x20 ADD SWAP1 DUP2 MSTORE PUSH1 0x20 ADD PUSH1 0x0 KECCAK256 PUSH1 0x6 ADD DUP2 DUP2 SLOAD DUP2 LT PUSH2 0x3038 JUMPI PUSH2 0x3037 PUSH2 0x45FD JUMP JUMPDEST JUMPDEST SWAP1 PUSH1 0x0 MSTORE PUSH1 0x20 PUSH1 0x0 KECCAK256 ADD SLOAD SWAP7 POP PUSH1 0x0 PUSH1 0x5 PUSH1 0x0 PUSH1 0x4 PUSH1 0x0 DUP8 PUSH20 0xFFFFFFFFFFFFFFFFFFFFFFFFFFFFFFFFFFFFFFFF AND PUSH20 0xFFFFFFFFFFFFFFFFFFFFFFFFFFFFFFFFFFFFFFFF AND DUP2 MSTORE PUSH1 0x20 ADD SWAP1 DUP2 MSTORE PUSH1 0x20 ADD PUSH1 0x0 KECCAK256 PUSH1 0x2 ADD SLOAD DUP2 MSTORE PUSH1 0x20 ADD SWAP1 DUP2 MSTORE PUSH1 0x20 ADD PUSH1 0x0 KECCAK256 PUSH1 0x0 SWAP1 SLOAD SWAP1 PUSH2 0x100 EXP SWAP1 DIV PUSH20 0xFFFFFFFFFFFFFFFFFFFFFFFFFFFFFFFFFFFFFFFF AND SWAP1 POP PUSH1 0x0 PUSH1 0x5 PUSH1 0x0 PUSH1 0x4 PUSH1 0x0 DUP6 PUSH20 0xFFFFFFFFFFFFFFFFFFFFFFFFFFFFFFFFFFFFFFFF AND PUSH20 0xFFFFFFFFFFFFFFFFFFFFFFFFFFFFFFFFFFFFFFFF AND DUP2 MSTORE PUSH1 0x20 ADD SWAP1 DUP2 MSTORE PUSH1 0x20 ADD PUSH1 0x0 KECCAK256 PUSH1 0x2 ADD SLOAD DUP2 MSTORE PUSH1 0x20 ADD SWAP1 DUP2 MSTORE PUSH1 0x20 ADD PUSH1 0x0 KECCAK256 PUSH1 0x0 SWAP1 SLOAD SWAP1 PUSH2 0x100 EXP SWAP1 DIV PUSH20 0xFFFFFFFFFFFFFFFFFFFFFFFFFFFFFFFFFFFFFFFF AND SWAP1 POP PUSH1 0x0 PUSH1 0x1 SWAP1 POP JUMPDEST DUP11 DUP2 LT ISZERO PUSH2 0x3240 JUMPI PUSH1 0x5 PUSH1 0x0 PUSH1 0x1 DUP2 MSTORE PUSH1 0x20 ADD SWAP1 DUP2 MSTORE PUSH1 0x20 ADD PUSH1 0x0 KECCAK256 PUSH1 0x0 SWAP1 SLOAD SWAP1 PUSH2 0x100 EXP SWAP1 DIV PUSH20 0xFFFFFFFFFFFFFFFFFFFFFFFFFFFFFFFFFFFFFFFF AND PUSH20 0xFFFFFFFFFFFFFFFFFFFFFFFFFFFFFFFFFFFFFFFF AND DUP3 PUSH20 0xFFFFFFFFFFFFFFFFFFFFFFFFFFFFFFFFFFFFFFFF AND EQ ISZERO PUSH2 0x31B5 JUMPI PUSH2 0x3240 JUMP JUMPDEST PUSH1 0x5 PUSH1 0x0 PUSH1 0x4 PUSH1 0x0 DUP6 PUSH20 0xFFFFFFFFFFFFFFFFFFFFFFFFFFFFFFFFFFFFFFFF AND PUSH20 0xFFFFFFFFFFFFFFFFFFFFFFFFFFFFFFFFFFFFFFFF AND DUP2 MSTORE PUSH1 0x20 ADD SWAP1 DUP2 MSTORE PUSH1 0x20 ADD PUSH1 0x0 KECCAK256 PUSH1 0x2 ADD SLOAD DUP2 MSTORE PUSH1 0x20 ADD SWAP1 DUP2 MSTORE PUSH1 0x20 ADD PUSH1 0x0 KECCAK256 PUSH1 0x0 SWAP1 SLOAD SWAP1 PUSH2 0x100 EXP SWAP1 DIV PUSH20 0xFFFFFFFFFFFFFFFFFFFFFFFFFFFFFFFFFFFFFFFF AND SWAP2 POP DUP1 DUP1 PUSH2 0x3238 SWAP1 PUSH2 0x465B JUMP JUMPDEST SWAP2 POP POP PUSH2 0x3140 JUMP JUMPDEST POP PUSH1 0x1 DUP11 PUSH2 0x324E SWAP2 SWAP1 PUSH2 0x4AFB JUMP JUMPDEST DUP10 LT ISZERO PUSH2 0x34D6 JUMPI PUSH1 0x4 PUSH1 0x0 DUP3 PUSH20 0xFFFFFFFFFFFFFFFFFFFFFFFFFFFFFFFFFFFFFFFF AND PUSH20 0xFFFFFFFFFFFFFFFFFFFFFFFFFFFFFFFFFFFFFFFF AND DUP2 MSTORE PUSH1 0x20 ADD SWAP1 DUP2 MSTORE PUSH1 0x20 ADD PUSH1 0x0 KECCAK256 PUSH1 0x0 ADD PUSH1 0x0 SWAP1 SLOAD SWAP1 PUSH2 0x100 EXP SWAP1 DIV PUSH1 0xFF AND ISZERO DUP1 PUSH2 0x32F3 JUMPI POP PUSH1 0x0 PUSH1 0x4 PUSH1 0x0 DUP5 PUSH20 0xFFFFFFFFFFFFFFFFFFFFFFFFFFFFFFFFFFFFFFFF AND PUSH20 0xFFFFFFFFFFFFFFFFFFFFFFFFFFFFFFFFFFFFFFFF AND DUP2 MSTORE PUSH1 0x20 ADD SWAP1 DUP2 MSTORE PUSH1 0x20 ADD PUSH1 0x0 KECCAK256 PUSH1 0x2 ADD SLOAD EQ JUMPDEST DUP1 PUSH2 0x3340 JUMPI POP PUSH1 0x1 PUSH1 0x4 PUSH1 0x0 DUP5 PUSH20 0xFFFFFFFFFFFFFFFFFFFFFFFFFFFFFFFFFFFFFFFF AND PUSH20 0xFFFFFFFFFFFFFFFFFFFFFFFFFFFFFFFFFFFFFFFF AND DUP2 MSTORE PUSH1 0x20 ADD SWAP1 DUP2 MSTORE PUSH1 0x20 ADD PUSH1 0x0 KECCAK256 PUSH1 0x2 ADD SLOAD EQ JUMPDEST ISZERO PUSH2 0x34CB JUMPI PUSH1 0x4 PUSH1 0x0 PUSH1 0x5 PUSH1 0x0 PUSH1 0x4 PUSH1 0x0 DUP8 PUSH20 0xFFFFFFFFFFFFFFFFFFFFFFFFFFFFFFFFFFFFFFFF AND PUSH20 0xFFFFFFFFFFFFFFFFFFFFFFFFFFFFFFFFFFFFFFFF AND DUP2 MSTORE PUSH1 0x20 ADD SWAP1 DUP2 MSTORE PUSH1 0x20 ADD PUSH1 0x0 KECCAK256 PUSH1 0x2 ADD SLOAD DUP2 MSTORE PUSH1 0x20 ADD SWAP1 DUP2 MSTORE PUSH1 0x20 ADD PUSH1 0x0 KECCAK256 PUSH1 0x0 SWAP1 SLOAD SWAP1 PUSH2 0x100 EXP SWAP1 DIV PUSH20 0xFFFFFFFFFFFFFFFFFFFFFFFFFFFFFFFFFFFFFFFF AND PUSH20 0xFFFFFFFFFFFFFFFFFFFFFFFFFFFFFFFFFFFFFFFF AND PUSH20 0xFFFFFFFFFFFFFFFFFFFFFFFFFFFFFFFFFFFFFFFF AND DUP2 MSTORE PUSH1 0x20 ADD SWAP1 DUP2 MSTORE PUSH1 0x20 ADD PUSH1 0x0 KECCAK256 PUSH1 0x0 ADD PUSH1 0x0 SWAP1 SLOAD SWAP1 PUSH2 0x100 EXP SWAP1 DIV PUSH1 0xFF AND PUSH2 0x344A JUMPI PUSH1 0x5 PUSH1 0x0 PUSH1 0x1 DUP2 MSTORE PUSH1 0x20 ADD SWAP1 DUP2 MSTORE PUSH1 0x20 ADD PUSH1 0x0 KECCAK256 PUSH1 0x0 SWAP1 SLOAD SWAP1 PUSH2 0x100 EXP SWAP1 DIV PUSH20 0xFFFFFFFFFFFFFFFFFFFFFFFFFFFFFFFFFFFFFFFF AND SWAP6 POP PUSH2 0x34C3 JUMP JUMPDEST PUSH1 0x5 PUSH1 0x0 PUSH1 0x4 PUSH1 0x0 DUP6 PUSH20 0xFFFFFFFFFFFFFFFFFFFFFFFFFFFFFFFFFFFFFFFF AND PUSH20 0xFFFFFFFFFFFFFFFFFFFFFFFFFFFFFFFFFFFFFFFF AND DUP2 MSTORE PUSH1 0x20 ADD SWAP1 DUP2 MSTORE PUSH1 0x20 ADD PUSH1 0x0 KECCAK256 PUSH1 0x2 ADD SLOAD DUP2 MSTORE PUSH1 0x20 ADD SWAP1 DUP2 MSTORE PUSH1 0x20 ADD PUSH1 0x0 KECCAK256 PUSH1 0x0 SWAP1 SLOAD SWAP1 PUSH2 0x100 EXP SWAP1 DIV PUSH20 0xFFFFFFFFFFFFFFFFFFFFFFFFFFFFFFFFFFFFFFFF AND SWAP6 POP JUMPDEST POP POP POP PUSH2 0x34F7 JUMP JUMPDEST DUP1 SWAP5 POP DUP1 SWAP6 POP PUSH2 0x34E1 JUMP JUMPDEST DUP5 SWAP6 POP POP POP POP PUSH2 0x34F7 JUMP JUMPDEST POP POP POP DUP1 DUP1 PUSH2 0x34EF SWAP1 PUSH2 0x4C8D JUMP JUMPDEST SWAP2 POP POP PUSH2 0x2ECB JUMP JUMPDEST POP PUSH1 0x1 PUSH1 0x4 PUSH1 0x0 DUP10 PUSH20 0xFFFFFFFFFFFFFFFFFFFFFFFFFFFFFFFFFFFFFFFF AND PUSH20 0xFFFFFFFFFFFFFFFFFFFFFFFFFFFFFFFFFFFFFFFF AND DUP2 MSTORE PUSH1 0x20 ADD SWAP1 DUP2 MSTORE PUSH1 0x20 ADD PUSH1 0x0 KECCAK256 PUSH1 0x5 ADD PUSH1 0x0 DUP9 DUP2 MSTORE PUSH1 0x20 ADD SWAP1 DUP2 MSTORE PUSH1 0x20 ADD PUSH1 0x0 KECCAK256 SLOAD PUSH2 0x3558 SWAP2 SWAP1 PUSH2 0x4AFB JUMP JUMPDEST PUSH1 0x4 PUSH1 0x0 DUP10 PUSH20 0xFFFFFFFFFFFFFFFFFFFFFFFFFFFFFFFFFFFFFFFF AND PUSH20 0xFFFFFFFFFFFFFFFFFFFFFFFFFFFFFFFFFFFFFFFF AND DUP2 MSTORE PUSH1 0x20 ADD SWAP1 DUP2 MSTORE PUSH1 0x20 ADD PUSH1 0x0 KECCAK256 PUSH1 0x5 ADD PUSH1 0x0 DUP9 DUP2 MSTORE PUSH1 0x20 ADD SWAP1 DUP2 MSTORE PUSH1 0x20 ADD PUSH1 0x0 KECCAK256 DUP2 SWAP1 SSTORE POP DUP2 DUP8 SWAP4 POP SWAP4 POP POP POP SWAP4 POP SWAP4 SWAP2 POP POP JUMP JUMPDEST PUSH1 0x0 DUP1 PUSH1 0x0 SWAP1 POP PUSH1 0x0 PUSH2 0x35D1 DUP7 PUSH2 0xD41 JUMP JUMPDEST SWAP1 POP PUSH1 0x0 DUP6 SWAP1 POP PUSH1 0x0 DUP6 SWAP1 POP PUSH1 0x0 PUSH1 0x5 PUSH1 0x0 PUSH1 0x4 PUSH1 0x0 DUP7 PUSH20 0xFFFFFFFFFFFFFFFFFFFFFFFFFFFFFFFFFFFFFFFF AND PUSH20 0xFFFFFFFFFFFFFFFFFFFFFFFFFFFFFFFFFFFFFFFF AND DUP2 MSTORE PUSH1 0x20 ADD SWAP1 DUP2 MSTORE PUSH1 0x20 ADD PUSH1 0x0 KECCAK256 PUSH1 0x2 ADD SLOAD DUP2 MSTORE PUSH1 0x20 ADD SWAP1 DUP2 MSTORE PUSH1 0x20 ADD PUSH1 0x0 KECCAK256 PUSH1 0x0 SWAP1 SLOAD SWAP1 PUSH2 0x100 EXP SWAP1 DIV PUSH20 0xFFFFFFFFFFFFFFFFFFFFFFFFFFFFFFFFFFFFFFFF AND SWAP1 POP PUSH1 0x0 JUMPDEST PUSH1 0xC DUP2 SLT ISZERO PUSH2 0x3790 JUMPI PUSH1 0x0 DUP1 JUMPDEST DUP7 MLOAD DUP2 LT ISZERO PUSH2 0x36F7 JUMPI DUP7 DUP2 DUP2 MLOAD DUP2 LT PUSH2 0x3683 JUMPI PUSH2 0x3682 PUSH2 0x45FD JUMP JUMPDEST JUMPDEST PUSH1 0x20 MUL PUSH1 0x20 ADD ADD MLOAD PUSH20 0xFFFFFFFFFFFFFFFFFFFFFFFFFFFFFFFFFFFFFFFF AND DUP5 PUSH20 0xFFFFFFFFFFFFFFFFFFFFFFFFFFFFFFFFFFFFFFFF AND EQ ISZERO PUSH2 0x36E4 JUMPI DUP7 DUP2 DUP2 MLOAD DUP2 LT PUSH2 0x36D1 JUMPI PUSH2 0x36D0 PUSH2 0x45FD JUMP JUMPDEST JUMPDEST PUSH1 0x20 MUL PUSH1 0x20 ADD ADD MLOAD SWAP6 POP PUSH1 0x1 SWAP2 POP PUSH2 0x36F7 JUMP JUMPDEST DUP1 DUP1 PUSH2 0x36EF SWAP1 PUSH2 0x465B JUMP JUMPDEST SWAP2 POP POP PUSH2 0x3667 JUMP JUMPDEST POP DUP1 ISZERO PUSH2 0x3704 JUMPI POP PUSH2 0x3790 JUMP JUMPDEST PUSH1 0x5 PUSH1 0x0 PUSH1 0x4 PUSH1 0x0 DUP7 PUSH20 0xFFFFFFFFFFFFFFFFFFFFFFFFFFFFFFFFFFFFFFFF AND PUSH20 0xFFFFFFFFFFFFFFFFFFFFFFFFFFFFFFFFFFFFFFFF AND DUP2 MSTORE PUSH1 0x20 ADD SWAP1 DUP2 MSTORE PUSH1 0x20 ADD PUSH1 0x0 KECCAK256 PUSH1 0x2 ADD SLOAD DUP2 MSTORE PUSH1 0x20 ADD SWAP1 DUP2 MSTORE PUSH1 0x20 ADD PUSH1 0x0 KECCAK256 PUSH1 0x0 SWAP1 SLOAD SWAP1 PUSH2 0x100 EXP SWAP1 DIV PUSH20 0xFFFFFFFFFFFFFFFFFFFFFFFFFFFFFFFFFFFFFFFF AND SWAP3 POP POP DUP1 DUP1 PUSH2 0x3788 SWAP1 PUSH2 0x4C8D JUMP JUMPDEST SWAP2 POP POP PUSH2 0x365A JUMP JUMPDEST POP PUSH1 0x0 PUSH1 0x5 PUSH1 0x0 PUSH1 0x4 PUSH1 0x0 DUP7 PUSH20 0xFFFFFFFFFFFFFFFFFFFFFFFFFFFFFFFFFFFFFFFF AND PUSH20 0xFFFFFFFFFFFFFFFFFFFFFFFFFFFFFFFFFFFFFFFF AND DUP2 MSTORE PUSH1 0x20 ADD SWAP1 DUP2 MSTORE PUSH1 0x20 ADD PUSH1 0x0 KECCAK256 PUSH1 0x2 ADD SLOAD DUP2 MSTORE PUSH1 0x20 ADD SWAP1 DUP2 MSTORE PUSH1 0x20 ADD PUSH1 0x0 KECCAK256 PUSH1 0x0 SWAP1 SLOAD SWAP1 PUSH2 0x100 EXP SWAP1 DIV PUSH20 0xFFFFFFFFFFFFFFFFFFFFFFFFFFFFFFFFFFFFFFFF AND SWAP1 POP PUSH1 0x0 JUMPDEST PUSH1 0xC DUP2 SLT ISZERO PUSH2 0x3944 JUMPI PUSH1 0x0 DUP1 JUMPDEST DUP8 MLOAD DUP2 LT ISZERO PUSH2 0x38AB JUMPI DUP8 DUP2 DUP2 MLOAD DUP2 LT PUSH2 0x3837 JUMPI PUSH2 0x3836 PUSH2 0x45FD JUMP JUMPDEST JUMPDEST PUSH1 0x20 MUL PUSH1 0x20 ADD ADD MLOAD PUSH20 0xFFFFFFFFFFFFFFFFFFFFFFFFFFFFFFFFFFFFFFFF AND DUP5 PUSH20 0xFFFFFFFFFFFFFFFFFFFFFFFFFFFFFFFFFFFFFFFF AND EQ ISZERO PUSH2 0x3898 JUMPI DUP8 DUP2 DUP2 MLOAD DUP2 LT PUSH2 0x3885 JUMPI PUSH2 0x3884 PUSH2 0x45FD JUMP JUMPDEST JUMPDEST PUSH1 0x20 MUL PUSH1 0x20 ADD ADD MLOAD SWAP6 POP PUSH1 0x1 SWAP2 POP PUSH2 0x38AB JUMP JUMPDEST DUP1 DUP1 PUSH2 0x38A3 SWAP1 PUSH2 0x465B JUMP JUMPDEST SWAP2 POP POP PUSH2 0x381B JUMP JUMPDEST POP DUP1 ISZERO PUSH2 0x38B8 JUMPI POP PUSH2 0x3944 JUMP JUMPDEST PUSH1 0x5 PUSH1 0x0 PUSH1 0x4 PUSH1 0x0 DUP7 PUSH20 0xFFFFFFFFFFFFFFFFFFFFFFFFFFFFFFFFFFFFFFFF AND PUSH20 0xFFFFFFFFFFFFFFFFFFFFFFFFFFFFFFFFFFFFFFFF AND DUP2 MSTORE PUSH1 0x20 ADD SWAP1 DUP2 MSTORE PUSH1 0x20 ADD PUSH1 0x0 KECCAK256 PUSH1 0x2 ADD SLOAD DUP2 MSTORE PUSH1 0x20 ADD SWAP1 DUP2 MSTORE PUSH1 0x20 ADD PUSH1 0x0 KECCAK256 PUSH1 0x0 SWAP1 SLOAD SWAP1 PUSH2 0x100 EXP SWAP1 DIV PUSH20 0xFFFFFFFFFFFFFFFFFFFFFFFFFFFFFFFFFFFFFFFF AND SWAP3 POP POP DUP1 DUP1 PUSH2 0x393C SWAP1 PUSH2 0x4C8D JUMP JUMPDEST SWAP2 POP POP PUSH2 0x380E JUMP JUMPDEST POP DUP3 PUSH20 0xFFFFFFFFFFFFFFFFFFFFFFFFFFFFFFFFFFFFFFFF AND DUP5 PUSH20 0xFFFFFFFFFFFFFFFFFFFFFFFFFFFFFFFFFFFFFFFF AND EQ ISZERO PUSH2 0x397E JUMPI PUSH1 0x1 SWAP6 POP JUMPDEST DUP6 SWAP7 POP POP POP POP POP POP POP SWAP4 SWAP3 POP POP POP JUMP JUMPDEST PUSH1 0x0 DUP1 PUSH1 0x0 DUP1 DUP7 SWAP1 POP PUSH1 0x0 DUP2 SWAP1 POP PUSH1 0x0 JUMPDEST PUSH1 0x9 DUP2 SLT ISZERO PUSH2 0x3F31 JUMPI PUSH1 0x1 PUSH1 0x4 PUSH1 0x0 DUP12 PUSH20 0xFFFFFFFFFFFFFFFFFFFFFFFFFFFFFFFFFFFFFFFF AND PUSH20 0xFFFFFFFFFFFFFFFFFFFFFFFFFFFFFFFFFFFFFFFF AND DUP2 MSTORE PUSH1 0x20 ADD SWAP1 DUP2 MSTORE PUSH1 0x20 ADD PUSH1 0x0 KECCAK256 PUSH1 0x2 ADD SLOAD EQ DUP1 PUSH2 0x3A58 JUMPI POP PUSH1 0x5 PUSH1 0x0 PUSH1 0x1 DUP2 MSTORE PUSH1 0x20 ADD SWAP1 DUP2 MSTORE PUSH1 0x20 ADD PUSH1 0x0 KECCAK256 PUSH1 0x0 SWAP1 SLOAD SWAP1 PUSH2 0x100 EXP SWAP1 DIV PUSH20 0xFFFFFFFFFFFFFFFFFFFFFFFFFFFFFFFFFFFFFFFF AND PUSH20 0xFFFFFFFFFFFFFFFFFFFFFFFFFFFFFFFFFFFFFFFF AND DUP5 PUSH20 0xFFFFFFFFFFFFFFFFFFFFFFFFFFFFFFFFFFFFFFFF AND EQ JUMPDEST ISZERO PUSH2 0x3A62 JUMPI PUSH2 0x3F31 JUMP JUMPDEST PUSH1 0x0 JUMPDEST DUP9 DUP2 LT ISZERO PUSH2 0x3B65 JUMPI PUSH1 0x5 PUSH1 0x0 PUSH1 0x1 DUP2 MSTORE PUSH1 0x20 ADD SWAP1 DUP2 MSTORE PUSH1 0x20 ADD PUSH1 0x0 KECCAK256 PUSH1 0x0 SWAP1 SLOAD SWAP1 PUSH2 0x100 EXP SWAP1 DIV PUSH20 0xFFFFFFFFFFFFFFFFFFFFFFFFFFFFFFFFFFFFFFFF AND PUSH20 0xFFFFFFFFFFFFFFFFFFFFFFFFFFFFFFFFFFFFFFFF AND DUP5 PUSH20 0xFFFFFFFFFFFFFFFFFFFFFFFFFFFFFFFFFFFFFFFF AND EQ ISZERO PUSH2 0x3ADA JUMPI PUSH2 0x3B65 JUMP JUMPDEST PUSH1 0x5 PUSH1 0x0 PUSH1 0x4 PUSH1 0x0 DUP7 PUSH20 0xFFFFFFFFFFFFFFFFFFFFFFFFFFFFFFFFFFFFFFFF AND PUSH20 0xFFFFFFFFFFFFFFFFFFFFFFFFFFFFFFFFFFFFFFFF AND DUP2 MSTORE PUSH1 0x20 ADD SWAP1 DUP2 MSTORE PUSH1 0x20 ADD PUSH1 0x0 KECCAK256 PUSH1 0x2 ADD SLOAD DUP2 MSTORE PUSH1 0x20 ADD SWAP1 DUP2 MSTORE PUSH1 0x20 ADD PUSH1 0x0 KECCAK256 PUSH1 0x0 SWAP1 SLOAD SWAP1 PUSH2 0x100 EXP SWAP1 DIV PUSH20 0xFFFFFFFFFFFFFFFFFFFFFFFFFFFFFFFFFFFFFFFF AND SWAP3 POP DUP1 DUP1 PUSH2 0x3B5D SWAP1 PUSH2 0x465B JUMP JUMPDEST SWAP2 POP POP PUSH2 0x3A65 JUMP JUMPDEST POP PUSH1 0x5 PUSH1 0x0 PUSH1 0x1 DUP2 MSTORE PUSH1 0x20 ADD SWAP1 DUP2 MSTORE PUSH1 0x20 ADD PUSH1 0x0 KECCAK256 PUSH1 0x0 SWAP1 SLOAD SWAP1 PUSH2 0x100 EXP SWAP1 DIV PUSH20 0xFFFFFFFFFFFFFFFFFFFFFFFFFFFFFFFFFFFFFFFF AND PUSH20 0xFFFFFFFFFFFFFFFFFFFFFFFFFFFFFFFFFFFFFFFF AND DUP3 PUSH20 0xFFFFFFFFFFFFFFFFFFFFFFFFFFFFFFFFFFFFFFFF AND EQ ISZERO PUSH2 0x3BD6 JUMPI DUP2 SWAP4 POP PUSH2 0x3F31 JUMP JUMPDEST PUSH1 0x0 PUSH1 0x1 PUSH1 0x4 PUSH1 0x0 DUP6 PUSH20 0xFFFFFFFFFFFFFFFFFFFFFFFFFFFFFFFFFFFFFFFF AND PUSH20 0xFFFFFFFFFFFFFFFFFFFFFFFFFFFFFFFFFFFFFFFF AND DUP2 MSTORE PUSH1 0x20 ADD SWAP1 DUP2 MSTORE PUSH1 0x20 ADD PUSH1 0x0 KECCAK256 PUSH1 0x6 ADD DUP1 SLOAD SWAP1 POP PUSH2 0x3C2A SWAP2 SWAP1 PUSH2 0x4836 JUMP JUMPDEST SWAP1 POP PUSH1 0x4 PUSH1 0x0 DUP5 PUSH20 0xFFFFFFFFFFFFFFFFFFFFFFFFFFFFFFFFFFFFFFFF AND PUSH20 0xFFFFFFFFFFFFFFFFFFFFFFFFFFFFFFFFFFFFFFFF AND DUP2 MSTORE PUSH1 0x20 ADD SWAP1 DUP2 MSTORE PUSH1 0x20 ADD PUSH1 0x0 KECCAK256 PUSH1 0x6 ADD DUP2 DUP2 SLOAD DUP2 LT PUSH2 0x3C80 JUMPI PUSH2 0x3C7F PUSH2 0x45FD JUMP JUMPDEST JUMPDEST SWAP1 PUSH1 0x0 MSTORE PUSH1 0x20 PUSH1 0x0 KECCAK256 ADD SLOAD SWAP8 POP DUP9 DUP9 LT ISZERO PUSH2 0x3F14 JUMPI PUSH1 0x4 PUSH1 0x0 DUP5 PUSH20 0xFFFFFFFFFFFFFFFFFFFFFFFFFFFFFFFFFFFFFFFF AND PUSH20 0xFFFFFFFFFFFFFFFFFFFFFFFFFFFFFFFFFFFFFFFF AND DUP2 MSTORE PUSH1 0x20 ADD SWAP1 DUP2 MSTORE PUSH1 0x20 ADD PUSH1 0x0 KECCAK256 PUSH1 0x0 ADD PUSH1 0x0 SWAP1 SLOAD SWAP1 PUSH2 0x100 EXP SWAP1 DIV PUSH1 0xFF AND ISZERO DUP1 PUSH2 0x3D33 JUMPI POP PUSH1 0x0 PUSH1 0x4 PUSH1 0x0 DUP6 PUSH20 0xFFFFFFFFFFFFFFFFFFFFFFFFFFFFFFFFFFFFFFFF AND PUSH20 0xFFFFFFFFFFFFFFFFFFFFFFFFFFFFFFFFFFFFFFFF AND DUP2 MSTORE PUSH1 0x20 ADD SWAP1 DUP2 MSTORE PUSH1 0x20 ADD PUSH1 0x0 KECCAK256 PUSH1 0x2 ADD SLOAD EQ JUMPDEST DUP1 PUSH2 0x3D80 JUMPI POP PUSH1 0x1 PUSH1 0x4 PUSH1 0x0 DUP6 PUSH20 0xFFFFFFFFFFFFFFFFFFFFFFFFFFFFFFFFFFFFFFFF AND PUSH20 0xFFFFFFFFFFFFFFFFFFFFFFFFFFFFFFFFFFFFFFFF AND DUP2 MSTORE PUSH1 0x20 ADD SWAP1 DUP2 MSTORE PUSH1 0x20 ADD PUSH1 0x0 KECCAK256 PUSH1 0x2 ADD SLOAD EQ JUMPDEST ISZERO PUSH2 0x3F09 JUMPI PUSH1 0x4 PUSH1 0x0 PUSH1 0x5 PUSH1 0x0 PUSH1 0x4 PUSH1 0x0 DUP9 PUSH20 0xFFFFFFFFFFFFFFFFFFFFFFFFFFFFFFFFFFFFFFFF AND PUSH20 0xFFFFFFFFFFFFFFFFFFFFFFFFFFFFFFFFFFFFFFFF AND DUP2 MSTORE PUSH1 0x20 ADD SWAP1 DUP2 MSTORE PUSH1 0x20 ADD PUSH1 0x0 KECCAK256 PUSH1 0x2 ADD SLOAD DUP2 MSTORE PUSH1 0x20 ADD SWAP1 DUP2 MSTORE PUSH1 0x20 ADD PUSH1 0x0 KECCAK256 PUSH1 0x0 SWAP1 SLOAD SWAP1 PUSH2 0x100 EXP SWAP1 DIV PUSH20 0xFFFFFFFFFFFFFFFFFFFFFFFFFFFFFFFFFFFFFFFF AND PUSH20 0xFFFFFFFFFFFFFFFFFFFFFFFFFFFFFFFFFFFFFFFF AND PUSH20 0xFFFFFFFFFFFFFFFFFFFFFFFFFFFFFFFFFFFFFFFF AND DUP2 MSTORE PUSH1 0x20 ADD SWAP1 DUP2 MSTORE PUSH1 0x20 ADD PUSH1 0x0 KECCAK256 PUSH1 0x0 ADD PUSH1 0x0 SWAP1 SLOAD SWAP1 PUSH2 0x100 EXP SWAP1 DIV PUSH1 0xFF AND PUSH2 0x3E8A JUMPI PUSH1 0x5 PUSH1 0x0 PUSH1 0x1 DUP2 MSTORE PUSH1 0x20 ADD SWAP1 DUP2 MSTORE PUSH1 0x20 ADD PUSH1 0x0 KECCAK256 PUSH1 0x0 SWAP1 SLOAD SWAP1 PUSH2 0x100 EXP SWAP1 DIV PUSH20 0xFFFFFFFFFFFFFFFFFFFFFFFFFFFFFFFFFFFFFFFF AND SWAP5 POP PUSH2 0x3F03 JUMP JUMPDEST PUSH1 0x5 PUSH1 0x0 PUSH1 0x4 PUSH1 0x0 DUP7 PUSH20 0xFFFFFFFFFFFFFFFFFFFFFFFFFFFFFFFFFFFFFFFF AND PUSH20 0xFFFFFFFFFFFFFFFFFFFFFFFFFFFFFFFFFFFFFFFF AND DUP2 MSTORE PUSH1 0x20 ADD SWAP1 DUP2 MSTORE PUSH1 0x20 ADD PUSH1 0x0 KECCAK256 PUSH1 0x2 ADD SLOAD DUP2 MSTORE PUSH1 0x20 ADD SWAP1 DUP2 MSTORE PUSH1 0x20 ADD PUSH1 0x0 KECCAK256 PUSH1 0x0 SWAP1 SLOAD SWAP1 PUSH2 0x100 EXP SWAP1 DIV PUSH20 0xFFFFFFFFFFFFFFFFFFFFFFFFFFFFFFFFFFFFFFFF AND SWAP5 POP JUMPDEST POP PUSH2 0x3F31 JUMP JUMPDEST DUP3 SWAP4 POP DUP3 SWAP5 POP PUSH2 0x3F1D JUMP JUMPDEST DUP3 SWAP5 POP POP PUSH2 0x3F31 JUMP JUMPDEST POP DUP1 DUP1 PUSH2 0x3F29 SWAP1 PUSH2 0x4C8D JUMP JUMPDEST SWAP2 POP POP PUSH2 0x399F JUMP JUMPDEST POP PUSH1 0x1 PUSH1 0x4 PUSH1 0x0 DUP11 PUSH20 0xFFFFFFFFFFFFFFFFFFFFFFFFFFFFFFFFFFFFFFFF AND PUSH20 0xFFFFFFFFFFFFFFFFFFFFFFFFFFFFFFFFFFFFFFFF AND DUP2 MSTORE PUSH1 0x20 ADD SWAP1 DUP2 MSTORE PUSH1 0x20 ADD PUSH1 0x0 KECCAK256 PUSH1 0x5 ADD PUSH1 0x0 DUP10 DUP2 MSTORE PUSH1 0x20 ADD SWAP1 DUP2 MSTORE PUSH1 0x20 ADD PUSH1 0x0 KECCAK256 SLOAD PUSH2 0x3F92 SWAP2 SWAP1 PUSH2 0x4AFB JUMP JUMPDEST PUSH1 0x4 PUSH1 0x0 DUP11 PUSH20 0xFFFFFFFFFFFFFFFFFFFFFFFFFFFFFFFFFFFFFFFF AND PUSH20 0xFFFFFFFFFFFFFFFFFFFFFFFFFFFFFFFFFFFFFFFF AND DUP2 MSTORE PUSH1 0x20 ADD SWAP1 DUP2 MSTORE PUSH1 0x20 ADD PUSH1 0x0 KECCAK256 PUSH1 0x5 ADD PUSH1 0x0 DUP10 DUP2 MSTORE PUSH1 0x20 ADD SWAP1 DUP2 MSTORE PUSH1 0x20 ADD PUSH1 0x0 KECCAK256 DUP2 SWAP1 SSTORE POP DUP3 DUP9 SWAP5 POP SWAP5 POP POP POP POP SWAP4 POP SWAP4 SWAP2 POP POP JUMP JUMPDEST DUP3 DUP1 SLOAD DUP3 DUP3 SSTORE SWAP1 PUSH1 0x0 MSTORE PUSH1 0x20 PUSH1 0x0 KECCAK256 SWAP1 DUP2 ADD SWAP3 DUP3 ISZERO PUSH2 0x4073 JUMPI SWAP2 PUSH1 0x20 MUL DUP3 ADD JUMPDEST DUP3 DUP2 GT ISZERO PUSH2 0x4072 JUMPI DUP3 MLOAD DUP3 PUSH1 0x0 PUSH2 0x100 EXP DUP2 SLOAD DUP2 PUSH20 0xFFFFFFFFFFFFFFFFFFFFFFFFFFFFFFFFFFFFFFFF MUL NOT AND SWAP1 DUP4 PUSH20 0xFFFFFFFFFFFFFFFFFFFFFFFFFFFFFFFFFFFFFFFF AND MUL OR SWAP1 SSTORE POP SWAP2 PUSH1 0x20 ADD SWAP2 SWAP1 PUSH1 0x1 ADD SWAP1 PUSH2 0x401A JUMP JUMPDEST JUMPDEST POP SWAP1 POP PUSH2 0x4080 SWAP2 SWAP1 PUSH2 0x40D1 JUMP JUMPDEST POP SWAP1 JUMP JUMPDEST DUP3 DUP1 SLOAD DUP3 DUP3 SSTORE SWAP1 PUSH1 0x0 MSTORE PUSH1 0x20 PUSH1 0x0 KECCAK256 SWAP1 DUP2 ADD SWAP3 DUP3 ISZERO PUSH2 0x40C0 JUMPI SWAP2 PUSH1 0x20 MUL DUP3 ADD JUMPDEST DUP3 DUP2 GT ISZERO PUSH2 0x40BF JUMPI DUP3 MLOAD DUP3 SSTORE SWAP2 PUSH1 0x20 ADD SWAP2 SWAP1 PUSH1 0x1 ADD SWAP1 PUSH2 0x40A4 JUMP JUMPDEST JUMPDEST POP SWAP1 POP PUSH2 0x40CD SWAP2 SWAP1 PUSH2 0x40D1 JUMP JUMPDEST POP SWAP1 JUMP JUMPDEST JUMPDEST DUP1 DUP3 GT ISZERO PUSH2 0x40EA JUMPI PUSH1 0x0 DUP2 PUSH1 0x0 SWAP1 SSTORE POP PUSH1 0x1 ADD PUSH2 0x40D2 JUMP JUMPDEST POP SWAP1 JUMP JUMPDEST PUSH1 0x0 DUP1 REVERT JUMPDEST PUSH1 0x0 DUP2 SWAP1 POP SWAP2 SWAP1 POP JUMP JUMPDEST PUSH2 0x4106 DUP2 PUSH2 0x40F3 JUMP JUMPDEST DUP2 EQ PUSH2 0x4111 JUMPI PUSH1 0x0 DUP1 REVERT JUMPDEST POP JUMP JUMPDEST PUSH1 0x0 DUP2 CALLDATALOAD SWAP1 POP PUSH2 0x4123 DUP2 PUSH2 0x40FD JUMP JUMPDEST SWAP3 SWAP2 POP POP JUMP JUMPDEST PUSH1 0x0 PUSH1 0x20 DUP3 DUP5 SUB SLT ISZERO PUSH2 0x413F JUMPI PUSH2 0x413E PUSH2 0x40EE JUMP JUMPDEST JUMPDEST PUSH1 0x0 PUSH2 0x414D DUP5 DUP3 DUP6 ADD PUSH2 0x4114 JUMP JUMPDEST SWAP2 POP POP SWAP3 SWAP2 POP POP JUMP JUMPDEST PUSH1 0x0 PUSH20 0xFFFFFFFFFFFFFFFFFFFFFFFFFFFFFFFFFFFFFFFF DUP3 AND SWAP1 POP SWAP2 SWAP1 POP JUMP JUMPDEST PUSH1 0x0 PUSH2 0x4181 DUP3 PUSH2 0x4156 JUMP JUMPDEST SWAP1 POP SWAP2 SWAP1 POP JUMP JUMPDEST PUSH2 0x4191 DUP2 PUSH2 0x4176 JUMP JUMPDEST DUP3 MSTORE POP POP JUMP JUMPDEST PUSH1 0x0 PUSH1 0x20 DUP3 ADD SWAP1 POP PUSH2 0x41AC PUSH1 0x0 DUP4 ADD DUP5 PUSH2 0x4188 JUMP JUMPDEST SWAP3 SWAP2 POP POP JUMP JUMPDEST PUSH1 0x0 PUSH1 0xFF DUP3 AND SWAP1 POP SWAP2 SWAP1 POP JUMP JUMPDEST PUSH2 0x41C8 DUP2 PUSH2 0x41B2 JUMP JUMPDEST DUP2 EQ PUSH2 0x41D3 JUMPI PUSH1 0x0 DUP1 REVERT JUMPDEST POP JUMP JUMPDEST PUSH1 0x0 DUP2 CALLDATALOAD SWAP1 POP PUSH2 0x41E5 DUP2 PUSH2 0x41BF JUMP JUMPDEST SWAP3 SWAP2 POP POP JUMP JUMPDEST PUSH1 0x0 PUSH1 0x20 DUP3 DUP5 SUB SLT ISZERO PUSH2 0x4201 JUMPI PUSH2 0x4200 PUSH2 0x40EE JUMP JUMPDEST JUMPDEST PUSH1 0x0 PUSH2 0x420F DUP5 DUP3 DUP6 ADD PUSH2 0x41D6 JUMP JUMPDEST SWAP2 POP POP SWAP3 SWAP2 POP POP JUMP JUMPDEST PUSH2 0x4221 DUP2 PUSH2 0x40F3 JUMP JUMPDEST DUP3 MSTORE POP POP JUMP JUMPDEST PUSH1 0x0 PUSH1 0x20 DUP3 ADD SWAP1 POP PUSH2 0x423C PUSH1 0x0 DUP4 ADD DUP5 PUSH2 0x4218 JUMP JUMPDEST SWAP3 SWAP2 POP POP JUMP JUMPDEST PUSH2 0x424B DUP2 PUSH2 0x4176 JUMP JUMPDEST DUP2 EQ PUSH2 0x4256 JUMPI PUSH1 0x0 DUP1 REVERT JUMPDEST POP JUMP JUMPDEST PUSH1 0x0 DUP2 CALLDATALOAD SWAP1 POP PUSH2 0x4268 DUP2 PUSH2 0x4242 JUMP JUMPDEST SWAP3 SWAP2 POP POP JUMP JUMPDEST PUSH1 0x0 DUP1 PUSH1 0x40 DUP4 DUP6 SUB SLT ISZERO PUSH2 0x4285 JUMPI PUSH2 0x4284 PUSH2 0x40EE JUMP JUMPDEST JUMPDEST PUSH1 0x0 PUSH2 0x4293 DUP6 DUP3 DUP7 ADD PUSH2 0x4114 JUMP JUMPDEST SWAP3 POP POP PUSH1 0x20 PUSH2 0x42A4 DUP6 DUP3 DUP7 ADD PUSH2 0x4259 JUMP JUMPDEST SWAP2 POP POP SWAP3 POP SWAP3 SWAP1 POP JUMP JUMPDEST PUSH1 0x0 DUP2 ISZERO ISZERO SWAP1 POP SWAP2 SWAP1 POP JUMP JUMPDEST PUSH2 0x42C3 DUP2 PUSH2 0x42AE JUMP JUMPDEST DUP3 MSTORE POP POP JUMP JUMPDEST PUSH1 0x0 PUSH1 0x20 DUP3 ADD SWAP1 POP PUSH2 0x42DE PUSH1 0x0 DUP4 ADD DUP5 PUSH2 0x42BA JUMP JUMPDEST SWAP3 SWAP2 POP POP JUMP JUMPDEST PUSH1 0x0 PUSH1 0x20 DUP3 DUP5 SUB SLT ISZERO PUSH2 0x42FA JUMPI PUSH2 0x42F9 PUSH2 0x40EE JUMP JUMPDEST JUMPDEST PUSH1 0x0 PUSH2 0x4308 DUP5 DUP3 DUP6 ADD PUSH2 0x4259 JUMP JUMPDEST SWAP2 POP POP SWAP3 SWAP2 POP POP JUMP JUMPDEST PUSH1 0x0 DUP2 MLOAD SWAP1 POP SWAP2 SWAP1 POP JUMP JUMPDEST PUSH1 0x0 DUP3 DUP3 MSTORE PUSH1 0x20 DUP3 ADD SWAP1 POP SWAP3 SWAP2 POP POP JUMP JUMPDEST PUSH1 0x0 DUP2 SWAP1 POP PUSH1 0x20 DUP3 ADD SWAP1 POP SWAP2 SWAP1 POP JUMP JUMPDEST PUSH2 0x4346 DUP2 PUSH2 0x4176 JUMP JUMPDEST DUP3 MSTORE POP POP JUMP JUMPDEST PUSH1 0x0 PUSH2 0x4358 DUP4 DUP4 PUSH2 0x433D JUMP JUMPDEST PUSH1 0x20 DUP4 ADD SWAP1 POP SWAP3 SWAP2 POP POP JUMP JUMPDEST PUSH1 0x0 PUSH1 0x20 DUP3 ADD SWAP1 POP SWAP2 SWAP1 POP JUMP JUMPDEST PUSH1 0x0 PUSH2 0x437C DUP3 PUSH2 0x4311 JUMP JUMPDEST PUSH2 0x4386 DUP2 DUP6 PUSH2 0x431C JUMP JUMPDEST SWAP4 POP PUSH2 0x4391 DUP4 PUSH2 0x432D JUMP JUMPDEST DUP1 PUSH1 0x0 JUMPDEST DUP4 DUP2 LT ISZERO PUSH2 0x43C2 JUMPI DUP2 MLOAD PUSH2 0x43A9 DUP9 DUP3 PUSH2 0x434C JUMP JUMPDEST SWAP8 POP PUSH2 0x43B4 DUP4 PUSH2 0x4364 JUMP JUMPDEST SWAP3 POP POP PUSH1 0x1 DUP2 ADD SWAP1 POP PUSH2 0x4395 JUMP JUMPDEST POP DUP6 SWAP4 POP POP POP POP SWAP3 SWAP2 POP POP JUMP JUMPDEST PUSH1 0x0 PUSH1 0x20 DUP3 ADD SWAP1 POP DUP2 DUP2 SUB PUSH1 0x0 DUP4 ADD MSTORE PUSH2 0x43E9 DUP2 DUP5 PUSH2 0x4371 JUMP JUMPDEST SWAP1 POP SWAP3 SWAP2 POP POP JUMP JUMPDEST PUSH2 0x43FA DUP2 PUSH2 0x41B2 JUMP JUMPDEST DUP3 MSTORE POP POP JUMP JUMPDEST PUSH1 0x0 PUSH1 0x20 DUP3 ADD SWAP1 POP PUSH2 0x4415 PUSH1 0x0 DUP4 ADD DUP5 PUSH2 0x43F1 JUMP JUMPDEST SWAP3 SWAP2 POP POP JUMP JUMPDEST PUSH1 0x0 DUP2 MLOAD SWAP1 POP SWAP2 SWAP1 POP JUMP JUMPDEST PUSH1 0x0 DUP3 DUP3 MSTORE PUSH1 0x20 DUP3 ADD SWAP1 POP SWAP3 SWAP2 POP POP JUMP JUMPDEST PUSH1 0x0 DUP2 SWAP1 POP PUSH1 0x20 DUP3 ADD SWAP1 POP SWAP2 SWAP1 POP JUMP JUMPDEST PUSH2 0x4450 DUP2 PUSH2 0x40F3 JUMP JUMPDEST DUP3 MSTORE POP POP JUMP JUMPDEST PUSH1 0x0 PUSH2 0x4462 DUP4 DUP4 PUSH2 0x4447 JUMP JUMPDEST PUSH1 0x20 DUP4 ADD SWAP1 POP SWAP3 SWAP2 POP POP JUMP JUMPDEST PUSH1 0x0 PUSH1 0x20 DUP3 ADD SWAP1 POP SWAP2 SWAP1 POP JUMP JUMPDEST PUSH1 0x0 PUSH2 0x4486 DUP3 PUSH2 0x441B JUMP JUMPDEST PUSH2 0x4490 DUP2 DUP6 PUSH2 0x4426 JUMP JUMPDEST SWAP4 POP PUSH2 0x449B DUP4 PUSH2 0x4437 JUMP JUMPDEST DUP1 PUSH1 0x0 JUMPDEST DUP4 DUP2 LT ISZERO PUSH2 0x44CC JUMPI DUP2 MLOAD PUSH2 0x44B3 DUP9 DUP3 PUSH2 0x4456 JUMP JUMPDEST SWAP8 POP PUSH2 0x44BE DUP4 PUSH2 0x446E JUMP JUMPDEST SWAP3 POP POP PUSH1 0x1 DUP2 ADD SWAP1 POP PUSH2 0x449F JUMP JUMPDEST POP DUP6 SWAP4 POP POP POP POP SWAP3 SWAP2 POP POP JUMP JUMPDEST PUSH1 0x0 PUSH1 0x20 DUP3 ADD SWAP1 POP DUP2 DUP2 SUB PUSH1 0x0 DUP4 ADD MSTORE PUSH2 0x44F3 DUP2 DUP5 PUSH2 0x447B JUMP JUMPDEST SWAP1 POP SWAP3 SWAP2 POP POP JUMP JUMPDEST PUSH1 0x0 PUSH1 0x80 DUP3 ADD SWAP1 POP PUSH2 0x4510 PUSH1 0x0 DUP4 ADD DUP8 PUSH2 0x42BA JUMP JUMPDEST PUSH2 0x451D PUSH1 0x20 DUP4 ADD DUP7 PUSH2 0x4218 JUMP JUMPDEST PUSH2 0x452A PUSH1 0x40 DUP4 ADD DUP6 PUSH2 0x4218 JUMP JUMPDEST PUSH2 0x4537 PUSH1 0x60 DUP4 ADD DUP5 PUSH2 0x4218 JUMP JUMPDEST SWAP6 SWAP5 POP POP POP POP POP JUMP JUMPDEST PUSH1 0x0 DUP1 PUSH1 0x40 DUP4 DUP6 SUB SLT ISZERO PUSH2 0x4557 JUMPI PUSH2 0x4556 PUSH2 0x40EE JUMP JUMPDEST JUMPDEST PUSH1 0x0 PUSH2 0x4565 DUP6 DUP3 DUP7 ADD PUSH2 0x4259 JUMP JUMPDEST SWAP3 POP POP PUSH1 0x20 PUSH2 0x4576 DUP6 DUP3 DUP7 ADD PUSH2 0x4114 JUMP JUMPDEST SWAP2 POP POP SWAP3 POP SWAP3 SWAP1 POP JUMP JUMPDEST PUSH1 0x0 DUP3 DUP3 MSTORE PUSH1 0x20 DUP3 ADD SWAP1 POP SWAP3 SWAP2 POP POP JUMP JUMPDEST PUSH32 0x496E76616C69642077616C6C657420496E6465783B0000000000000000000000 PUSH1 0x0 DUP3 ADD MSTORE POP JUMP JUMPDEST PUSH1 0x0 PUSH2 0x45C7 PUSH1 0x15 DUP4 PUSH2 0x4580 JUMP JUMPDEST SWAP2 POP PUSH2 0x45D2 DUP3 PUSH2 0x4591 JUMP JUMPDEST PUSH1 0x20 DUP3 ADD SWAP1 POP SWAP2 SWAP1 POP JUMP JUMPDEST PUSH1 0x0 PUSH1 0x20 DUP3 ADD SWAP1 POP DUP2 DUP2 SUB PUSH1 0x0 DUP4 ADD MSTORE PUSH2 0x45F6 DUP2 PUSH2 0x45BA JUMP JUMPDEST SWAP1 POP SWAP2 SWAP1 POP JUMP JUMPDEST PUSH32 0x4E487B7100000000000000000000000000000000000000000000000000000000 PUSH1 0x0 MSTORE PUSH1 0x32 PUSH1 0x4 MSTORE PUSH1 0x24 PUSH1 0x0 REVERT JUMPDEST PUSH32 0x4E487B7100000000000000000000000000000000000000000000000000000000 PUSH1 0x0 MSTORE PUSH1 0x11 PUSH1 0x4 MSTORE PUSH1 0x24 PUSH1 0x0 REVERT JUMPDEST PUSH1 0x0 PUSH2 0x4666 DUP3 PUSH2 0x40F3 JUMP JUMPDEST SWAP2 POP PUSH32 0xFFFFFFFFFFFFFFFFFFFFFFFFFFFFFFFFFFFFFFFFFFFFFFFFFFFFFFFFFFFFFFFF DUP3 EQ ISZERO PUSH2 0x4699 JUMPI PUSH2 0x4698 PUSH2 0x462C JUMP JUMPDEST JUMPDEST PUSH1 0x1 DUP3 ADD SWAP1 POP SWAP2 SWAP1 POP JUMP JUMPDEST PUSH32 0x496E76616C69642063616C6C6572000000000000000000000000000000000000 PUSH1 0x0 DUP3 ADD MSTORE POP JUMP JUMPDEST PUSH1 0x0 PUSH2 0x46DA PUSH1 0xE DUP4 PUSH2 0x4580 JUMP JUMPDEST SWAP2 POP PUSH2 0x46E5 DUP3 PUSH2 0x46A4 JUMP JUMPDEST PUSH1 0x20 DUP3 ADD SWAP1 POP SWAP2 SWAP1 POP JUMP JUMPDEST PUSH1 0x0 PUSH1 0x20 DUP3 ADD SWAP1 POP DUP2 DUP2 SUB PUSH1 0x0 DUP4 ADD MSTORE PUSH2 0x4709 DUP2 PUSH2 0x46CD JUMP JUMPDEST SWAP1 POP SWAP2 SWAP1 POP JUMP JUMPDEST PUSH32 0x696E76616C69642063616C6C6572000000000000000000000000000000000000 PUSH1 0x0 DUP3 ADD MSTORE POP JUMP JUMPDEST PUSH1 0x0 PUSH2 0x4746 PUSH1 0xE DUP4 PUSH2 0x4580 JUMP JUMPDEST SWAP2 POP PUSH2 0x4751 DUP3 PUSH2 0x4710 JUMP JUMPDEST PUSH1 0x20 DUP3 ADD SWAP1 POP SWAP2 SWAP1 POP JUMP JUMPDEST PUSH1 0x0 PUSH1 0x20 DUP3 ADD SWAP1 POP DUP2 DUP2 SUB PUSH1 0x0 DUP4 ADD MSTORE PUSH2 0x4775 DUP2 PUSH2 0x4739 JUMP JUMPDEST SWAP1 POP SWAP2 SWAP1 POP JUMP JUMPDEST PUSH1 0x0 PUSH2 0x4787 DUP3 PUSH2 0x40F3 JUMP JUMPDEST SWAP2 POP PUSH2 0x4792 DUP4 PUSH2 0x40F3 JUMP JUMPDEST SWAP3 POP DUP2 PUSH32 0xFFFFFFFFFFFFFFFFFFFFFFFFFFFFFFFFFFFFFFFFFFFFFFFFFFFFFFFFFFFFFFFF DIV DUP4 GT DUP3 ISZERO ISZERO AND ISZERO PUSH2 0x47CB JUMPI PUSH2 0x47CA PUSH2 0x462C JUMP JUMPDEST JUMPDEST DUP3 DUP3 MUL SWAP1 POP SWAP3 SWAP2 POP POP JUMP JUMPDEST PUSH32 0x4E487B7100000000000000000000000000000000000000000000000000000000 PUSH1 0x0 MSTORE PUSH1 0x12 PUSH1 0x4 MSTORE PUSH1 0x24 PUSH1 0x0 REVERT JUMPDEST PUSH1 0x0 PUSH2 0x4810 DUP3 PUSH2 0x40F3 JUMP JUMPDEST SWAP2 POP PUSH2 0x481B DUP4 PUSH2 0x40F3 JUMP JUMPDEST SWAP3 POP DUP3 PUSH2 0x482B JUMPI PUSH2 0x482A PUSH2 0x47D6 JUMP JUMPDEST JUMPDEST DUP3 DUP3 DIV SWAP1 POP SWAP3 SWAP2 POP POP JUMP JUMPDEST PUSH1 0x0 PUSH2 0x4841 DUP3 PUSH2 0x40F3 JUMP JUMPDEST SWAP2 POP PUSH2 0x484C DUP4 PUSH2 0x40F3 JUMP JUMPDEST SWAP3 POP DUP3 DUP3 LT ISZERO PUSH2 0x485F JUMPI PUSH2 0x485E PUSH2 0x462C JUMP JUMPDEST JUMPDEST DUP3 DUP3 SUB SWAP1 POP SWAP3 SWAP2 POP POP JUMP JUMPDEST PUSH32 0x4E6F20616D6F756E7420746F2077697468647261770000000000000000000000 PUSH1 0x0 DUP3 ADD MSTORE POP JUMP JUMPDEST PUSH1 0x0 PUSH2 0x48A0 PUSH1 0x15 DUP4 PUSH2 0x4580 JUMP JUMPDEST SWAP2 POP PUSH2 0x48AB DUP3 PUSH2 0x486A JUMP JUMPDEST PUSH1 0x20 DUP3 ADD SWAP1 POP SWAP2 SWAP1 POP JUMP JUMPDEST PUSH1 0x0 PUSH1 0x20 DUP3 ADD SWAP1 POP DUP2 DUP2 SUB PUSH1 0x0 DUP4 ADD MSTORE PUSH2 0x48CF DUP2 PUSH2 0x4893 JUMP JUMPDEST SWAP1 POP SWAP2 SWAP1 POP JUMP JUMPDEST PUSH1 0x0 DUP2 SWAP1 POP SWAP3 SWAP2 POP POP JUMP JUMPDEST POP JUMP JUMPDEST PUSH1 0x0 PUSH2 0x48F1 PUSH1 0x0 DUP4 PUSH2 0x48D6 JUMP JUMPDEST SWAP2 POP PUSH2 0x48FC DUP3 PUSH2 0x48E1 JUMP JUMPDEST PUSH1 0x0 DUP3 ADD SWAP1 POP SWAP2 SWAP1 POP JUMP JUMPDEST PUSH1 0x0 PUSH2 0x4912 DUP3 PUSH2 0x48E4 JUMP JUMPDEST SWAP2 POP DUP2 SWAP1 POP SWAP2 SWAP1 POP JUMP JUMPDEST PUSH32 0x5472616E73616374696F6E206661696C65642100000000000000000000000000 PUSH1 0x0 DUP3 ADD MSTORE POP JUMP JUMPDEST PUSH1 0x0 PUSH2 0x4952 PUSH1 0x13 DUP4 PUSH2 0x4580 JUMP JUMPDEST SWAP2 POP PUSH2 0x495D DUP3 PUSH2 0x491C JUMP JUMPDEST PUSH1 0x20 DUP3 ADD SWAP1 POP SWAP2 SWAP1 POP JUMP JUMPDEST PUSH1 0x0 PUSH1 0x20 DUP3 ADD SWAP1 POP DUP2 DUP2 SUB PUSH1 0x0 DUP4 ADD MSTORE PUSH2 0x4981 DUP2 PUSH2 0x4945 JUMP JUMPDEST SWAP1 POP SWAP2 SWAP1 POP JUMP JUMPDEST PUSH32 0x5573657220657869737400000000000000000000000000000000000000000000 PUSH1 0x0 DUP3 ADD MSTORE POP JUMP JUMPDEST PUSH1 0x0 PUSH2 0x49BE PUSH1 0xA DUP4 PUSH2 0x4580 JUMP JUMPDEST SWAP2 POP PUSH2 0x49C9 DUP3 PUSH2 0x4988 JUMP JUMPDEST PUSH1 0x20 DUP3 ADD SWAP1 POP SWAP2 SWAP1 POP JUMP JUMPDEST PUSH1 0x0 PUSH1 0x20 DUP3 ADD SWAP1 POP DUP2 DUP2 SUB PUSH1 0x0 DUP4 ADD MSTORE PUSH2 0x49ED DUP2 PUSH2 0x49B1 JUMP JUMPDEST SWAP1 POP SWAP2 SWAP1 POP JUMP JUMPDEST PUSH32 0x496E636F72726563742072656665727265722049640000000000000000000000 PUSH1 0x0 DUP3 ADD MSTORE POP JUMP JUMPDEST PUSH1 0x0 PUSH2 0x4A2A PUSH1 0x15 DUP4 PUSH2 0x4580 JUMP JUMPDEST SWAP2 POP PUSH2 0x4A35 DUP3 PUSH2 0x49F4 JUMP JUMPDEST PUSH1 0x20 DUP3 ADD SWAP1 POP SWAP2 SWAP1 POP JUMP JUMPDEST PUSH1 0x0 PUSH1 0x20 DUP3 ADD SWAP1 POP DUP2 DUP2 SUB PUSH1 0x0 DUP4 ADD MSTORE PUSH2 0x4A59 DUP2 PUSH2 0x4A1D JUMP JUMPDEST SWAP1 POP SWAP2 SWAP1 POP JUMP JUMPDEST PUSH32 0x496E636F72726563742056616C75650000000000000000000000000000000000 PUSH1 0x0 DUP3 ADD MSTORE POP JUMP JUMPDEST PUSH1 0x0 PUSH2 0x4A96 PUSH1 0xF DUP4 PUSH2 0x4580 JUMP JUMPDEST SWAP2 POP PUSH2 0x4AA1 DUP3 PUSH2 0x4A60 JUMP JUMPDEST PUSH1 0x20 DUP3 ADD SWAP1 POP SWAP2 SWAP1 POP JUMP JUMPDEST PUSH1 0x0 PUSH1 0x20 DUP3 ADD SWAP1 POP DUP2 DUP2 SUB PUSH1 0x0 DUP4 ADD MSTORE PUSH2 0x4AC5 DUP2 PUSH2 0x4A89 JUMP JUMPDEST SWAP1 POP SWAP2 SWAP1 POP JUMP JUMPDEST PUSH32 0x4E487B7100000000000000000000000000000000000000000000000000000000 PUSH1 0x0 MSTORE PUSH1 0x41 PUSH1 0x4 MSTORE PUSH1 0x24 PUSH1 0x0 REVERT JUMPDEST PUSH1 0x0 PUSH2 0x4B06 DUP3 PUSH2 0x40F3 JUMP JUMPDEST SWAP2 POP PUSH2 0x4B11 DUP4 PUSH2 0x40F3 JUMP JUMPDEST SWAP3 POP DUP3 PUSH32 0xFFFFFFFFFFFFFFFFFFFFFFFFFFFFFFFFFFFFFFFFFFFFFFFFFFFFFFFFFFFFFFFF SUB DUP3 GT ISZERO PUSH2 0x4B46 JUMPI PUSH2 0x4B45 PUSH2 0x462C JUMP JUMPDEST JUMPDEST DUP3 DUP3 ADD SWAP1 POP SWAP3 SWAP2 POP POP JUMP JUMPDEST PUSH32 0x43616C6C6572206973206E6F742041646D696E2E000000000000000000000000 PUSH1 0x0 DUP3 ADD MSTORE POP JUMP JUMPDEST PUSH1 0x0 PUSH2 0x4B87 PUSH1 0x14 DUP4 PUSH2 0x4580 JUMP JUMPDEST SWAP2 POP PUSH2 0x4B92 DUP3 PUSH2 0x4B51 JUMP JUMPDEST PUSH1 0x20 DUP3 ADD SWAP1 POP SWAP2 SWAP1 POP JUMP JUMPDEST PUSH1 0x0 PUSH1 0x20 DUP3 ADD SWAP1 POP DUP2 DUP2 SUB PUSH1 0x0 DUP4 ADD MSTORE PUSH2 0x4BB6 DUP2 PUSH2 0x4B7A JUMP JUMPDEST SWAP1 POP SWAP2 SWAP1 POP JUMP JUMPDEST PUSH32 0x496E76616C696420496E64657800000000000000000000000000000000000000 PUSH1 0x0 DUP3 ADD MSTORE POP JUMP JUMPDEST PUSH1 0x0 PUSH2 0x4BF3 PUSH1 0xD DUP4 PUSH2 0x4580 JUMP JUMPDEST SWAP2 POP PUSH2 0x4BFE DUP3 PUSH2 0x4BBD JUMP JUMPDEST PUSH1 0x20 DUP3 ADD SWAP1 POP SWAP2 SWAP1 POP JUMP JUMPDEST PUSH1 0x0 PUSH1 0x20 DUP3 ADD SWAP1 POP DUP2 DUP2 SUB PUSH1 0x0 DUP4 ADD MSTORE PUSH2 0x4C22 DUP2 PUSH2 0x4BE6 JUMP JUMPDEST SWAP1 POP SWAP2 SWAP1 POP JUMP JUMPDEST PUSH1 0x0 PUSH2 0x4C34 DUP3 PUSH2 0x40F3 JUMP JUMPDEST SWAP2 POP PUSH2 0x4C3F DUP4 PUSH2 0x40F3 JUMP JUMPDEST SWAP3 POP DUP3 PUSH2 0x4C4F JUMPI PUSH2 0x4C4E PUSH2 0x47D6 JUMP JUMPDEST JUMPDEST DUP3 DUP3 MOD SWAP1 POP SWAP3 SWAP2 POP POP JUMP JUMPDEST PUSH1 0x0 PUSH1 0x40 DUP3 ADD SWAP1 POP PUSH2 0x4C6F PUSH1 0x0 DUP4 ADD DUP6 PUSH2 0x4218 JUMP JUMPDEST PUSH2 0x4C7C PUSH1 0x20 DUP4 ADD DUP5 PUSH2 0x4218 JUMP JUMPDEST SWAP4 SWAP3 POP POP POP JUMP JUMPDEST PUSH1 0x0 DUP2 SWAP1 POP SWAP2 SWAP1 POP JUMP JUMPDEST PUSH1 0x0 PUSH2 0x4C98 DUP3 PUSH2 0x4C83 JUMP JUMPDEST SWAP2 POP PUSH32 0x7FFFFFFFFFFFFFFFFFFFFFFFFFFFFFFFFFFFFFFFFFFFFFFFFFFFFFFFFFFFFFFF DUP3 EQ ISZERO PUSH2 0x4CCB JUMPI PUSH2 0x4CCA PUSH2 0x462C JUMP JUMPDEST JUMPDEST PUSH1 0x1 DUP3 ADD SWAP1 POP SWAP2 SWAP1 POP JUMP INVALID LOG2 PUSH5 0x6970667358 0x22 SLT KECCAK256 SELFDESTRUCT 0xB7 0x22 MOD PUSH1 0x24 PUSH15 0xAE47E81A6EE004D6C9C3CDD47E5A77 DUP2 ISZERO SIGNEXTEND 0xD3 0xEF SWAP12 0xB0 INVALID AND SDIV PUSH5 0x736F6C6343 STOP ADDMOD SIGNEXTEND STOP CALLER "
				},
				"gasEstimates": {
					"creation": {
						"codeDepositCost": "3944800",
						"executionCost": "infinite",
						"totalCost": "infinite"
					},
					"external": {
						"LEVEL_PRICE(uint256)": "infinite",
						"adminWallet()": "2601",
						"checkWalletBalance(uint8)": "infinite",
						"currUserID()": "2451",
						"getContractBalance()": "infinite",
						"getUserIncomeCount(address,uint256)": "infinite",
						"getUserLevelEligibility(address)": "infinite",
						"getUserReferrals(address)": "infinite",
						"isLevelUpgradedForAddress(uint256,address)": "3132",
						"levelCounter(uint256,address)": "infinite",
						"levelUpgradePayments(uint256,address)": "infinite",
						"promotionAmounts(uint256)": "infinite",
						"promotionPercantage(uint256)": "4476",
						"promotionWallets(uint256)": "2829",
						"regUser(uint256)": "infinite",
						"splPromoWallet()": "2603",
						"updateWallet(address,uint256)": "infinite",
						"ursWallet()": "2646",
						"userList(uint256)": "2950",
						"users(address)": "infinite",
						"withdrawWallet(uint8)": "infinite"
					},
					"internal": {
						"checkLoopRequired(address,uint256,uint256,bool,bool)": "infinite",
						"findEligiblePayer(address,uint256,uint256)": "infinite",
						"findRenewalPayer(address,uint256,uint256)": "infinite",
						"isLevelUpgradeFromSameLeg(address,address,address)": "infinite",
						"levelRenewal(bool,address,uint256,uint256)": "infinite",
						"levelUpgrade(uint256,address,uint256,bool,bool)": "infinite",
						"payment(uint256,address,uint256,bool)": "infinite"
					}
				},
				"methodIdentifiers": {
					"LEVEL_PRICE(uint256)": "79378e30",
					"adminWallet()": "36b19cd7",
					"checkWalletBalance(uint8)": "12c468ea",
					"currUserID()": "a4bb170d",
					"getContractBalance()": "6f9fb98a",
					"getUserIncomeCount(address,uint256)": "aa24c5c5",
					"getUserLevelEligibility(address)": "6158fa00",
					"getUserReferrals(address)": "575cea6b",
					"isLevelUpgradedForAddress(uint256,address)": "4d948bea",
					"levelCounter(uint256,address)": "bbf57068",
					"levelUpgradePayments(uint256,address)": "43f6753c",
					"promotionAmounts(uint256)": "15a1da1b",
					"promotionPercantage(uint256)": "6043ddad",
					"promotionWallets(uint256)": "10e4077a",
					"regUser(uint256)": "8853b53e",
					"splPromoWallet()": "992c85d2",
					"updateWallet(address,uint256)": "b2c4cc1f",
					"ursWallet()": "c15dec85",
					"userList(uint256)": "9f4216e8",
					"users(address)": "a87430ba",
					"withdrawWallet(uint8)": "4676b06c"
				}
			},
			"storageLayout": {
				"storage": [
					{
						"astId": 4,
						"contract": "tronbox/contracts/SmartGenie.sol:SmartGenie",
						"label": "adminWallet",
						"offset": 0,
						"slot": "0",
						"type": "t_address"
					},
					{
						"astId": 6,
						"contract": "tronbox/contracts/SmartGenie.sol:SmartGenie",
						"label": "ursWallet",
						"offset": 0,
						"slot": "1",
						"type": "t_address"
					},
					{
						"astId": 8,
						"contract": "tronbox/contracts/SmartGenie.sol:SmartGenie",
						"label": "splPromoWallet",
						"offset": 0,
						"slot": "2",
						"type": "t_address"
					},
					{
						"astId": 31,
						"contract": "tronbox/contracts/SmartGenie.sol:SmartGenie",
						"label": "LEVEL_PRICE",
						"offset": 0,
						"slot": "3",
						"type": "t_mapping(t_uint256,t_uint256)"
					},
					{
						"astId": 36,
						"contract": "tronbox/contracts/SmartGenie.sol:SmartGenie",
						"label": "users",
						"offset": 0,
						"slot": "4",
						"type": "t_mapping(t_address,t_struct(UserStruct)27_storage)"
					},
					{
						"astId": 40,
						"contract": "tronbox/contracts/SmartGenie.sol:SmartGenie",
						"label": "userList",
						"offset": 0,
						"slot": "5",
						"type": "t_mapping(t_uint256,t_address)"
					},
					{
						"astId": 46,
						"contract": "tronbox/contracts/SmartGenie.sol:SmartGenie",
						"label": "levelCounter",
						"offset": 0,
						"slot": "6",
						"type": "t_mapping(t_uint256,t_mapping(t_address,t_uint256))"
					},
					{
						"astId": 52,
						"contract": "tronbox/contracts/SmartGenie.sol:SmartGenie",
						"label": "levelUpgradePayments",
						"offset": 0,
						"slot": "7",
						"type": "t_mapping(t_uint256,t_mapping(t_address,t_address))"
					},
					{
						"astId": 58,
						"contract": "tronbox/contracts/SmartGenie.sol:SmartGenie",
						"label": "isLevelUpgradedForAddress",
						"offset": 0,
						"slot": "8",
						"type": "t_mapping(t_uint256,t_mapping(t_address,t_bool))"
					},
					{
						"astId": 62,
						"contract": "tronbox/contracts/SmartGenie.sol:SmartGenie",
						"label": "promotionWallets",
						"offset": 0,
						"slot": "9",
						"type": "t_array(t_address)3_storage"
					},
					{
						"astId": 70,
						"contract": "tronbox/contracts/SmartGenie.sol:SmartGenie",
						"label": "promotionPercantage",
						"offset": 0,
						"slot": "12",
						"type": "t_array(t_uint8)3_storage"
					},
					{
						"astId": 74,
						"contract": "tronbox/contracts/SmartGenie.sol:SmartGenie",
						"label": "promotionAmounts",
						"offset": 0,
						"slot": "13",
						"type": "t_array(t_uint256)3_storage"
					},
					{
						"astId": 77,
						"contract": "tronbox/contracts/SmartGenie.sol:SmartGenie",
						"label": "currUserID",
						"offset": 0,
						"slot": "16",
						"type": "t_uint256"
					},
					{
						"astId": 80,
						"contract": "tronbox/contracts/SmartGenie.sol:SmartGenie",
						"label": "splPromAmt",
						"offset": 0,
						"slot": "17",
						"type": "t_uint256"
					},
					{
						"astId": 83,
						"contract": "tronbox/contracts/SmartGenie.sol:SmartGenie",
						"label": "ursAmt",
						"offset": 0,
						"slot": "18",
						"type": "t_uint256"
					},
					{
						"astId": 86,
						"contract": "tronbox/contracts/SmartGenie.sol:SmartGenie",
						"label": "regFee",
						"offset": 0,
						"slot": "19",
						"type": "t_uint256"
					},
					{
						"astId": 94,
						"contract": "tronbox/contracts/SmartGenie.sol:SmartGenie",
						"label": "regShare",
						"offset": 0,
						"slot": "20",
						"type": "t_uint256"
					},
					{
						"astId": 102,
						"contract": "tronbox/contracts/SmartGenie.sol:SmartGenie",
						"label": "promotionShare",
						"offset": 0,
						"slot": "21",
						"type": "t_uint256"
					},
					{
						"astId": 110,
						"contract": "tronbox/contracts/SmartGenie.sol:SmartGenie",
						"label": "splPromoShare",
						"offset": 0,
						"slot": "22",
						"type": "t_uint256"
					}
				],
				"types": {
					"t_address": {
						"encoding": "inplace",
						"label": "address",
						"numberOfBytes": "20"
					},
					"t_array(t_address)3_storage": {
						"base": "t_address",
						"encoding": "inplace",
						"label": "address[3]",
						"numberOfBytes": "96"
					},
					"t_array(t_address)dyn_storage": {
						"base": "t_address",
						"encoding": "dynamic_array",
						"label": "address[]",
						"numberOfBytes": "32"
					},
					"t_array(t_uint256)3_storage": {
						"base": "t_uint256",
						"encoding": "inplace",
						"label": "uint256[3]",
						"numberOfBytes": "96"
					},
					"t_array(t_uint256)dyn_storage": {
						"base": "t_uint256",
						"encoding": "dynamic_array",
						"label": "uint256[]",
						"numberOfBytes": "32"
					},
					"t_array(t_uint8)3_storage": {
						"base": "t_uint8",
						"encoding": "inplace",
						"label": "uint8[3]",
						"numberOfBytes": "32"
					},
					"t_bool": {
						"encoding": "inplace",
						"label": "bool",
						"numberOfBytes": "1"
					},
					"t_mapping(t_address,t_address)": {
						"encoding": "mapping",
						"key": "t_address",
						"label": "mapping(address => address)",
						"numberOfBytes": "32",
						"value": "t_address"
					},
					"t_mapping(t_address,t_bool)": {
						"encoding": "mapping",
						"key": "t_address",
						"label": "mapping(address => bool)",
						"numberOfBytes": "32",
						"value": "t_bool"
					},
					"t_mapping(t_address,t_struct(UserStruct)27_storage)": {
						"encoding": "mapping",
						"key": "t_address",
						"label": "mapping(address => struct SmartGenie.UserStruct)",
						"numberOfBytes": "32",
						"value": "t_struct(UserStruct)27_storage"
					},
					"t_mapping(t_address,t_uint256)": {
						"encoding": "mapping",
						"key": "t_address",
						"label": "mapping(address => uint256)",
						"numberOfBytes": "32",
						"value": "t_uint256"
					},
					"t_mapping(t_uint256,t_address)": {
						"encoding": "mapping",
						"key": "t_uint256",
						"label": "mapping(uint256 => address)",
						"numberOfBytes": "32",
						"value": "t_address"
					},
					"t_mapping(t_uint256,t_mapping(t_address,t_address))": {
						"encoding": "mapping",
						"key": "t_uint256",
						"label": "mapping(uint256 => mapping(address => address))",
						"numberOfBytes": "32",
						"value": "t_mapping(t_address,t_address)"
					},
					"t_mapping(t_uint256,t_mapping(t_address,t_bool))": {
						"encoding": "mapping",
						"key": "t_uint256",
						"label": "mapping(uint256 => mapping(address => bool))",
						"numberOfBytes": "32",
						"value": "t_mapping(t_address,t_bool)"
					},
					"t_mapping(t_uint256,t_mapping(t_address,t_uint256))": {
						"encoding": "mapping",
						"key": "t_uint256",
						"label": "mapping(uint256 => mapping(address => uint256))",
						"numberOfBytes": "32",
						"value": "t_mapping(t_address,t_uint256)"
					},
					"t_mapping(t_uint256,t_uint256)": {
						"encoding": "mapping",
						"key": "t_uint256",
						"label": "mapping(uint256 => uint256)",
						"numberOfBytes": "32",
						"value": "t_uint256"
					},
					"t_struct(UserStruct)27_storage": {
						"encoding": "inplace",
						"label": "struct SmartGenie.UserStruct",
						"members": [
							{
								"astId": 10,
								"contract": "tronbox/contracts/SmartGenie.sol:SmartGenie",
								"label": "isExist",
								"offset": 0,
								"slot": "0",
								"type": "t_bool"
							},
							{
								"astId": 12,
								"contract": "tronbox/contracts/SmartGenie.sol:SmartGenie",
								"label": "id",
								"offset": 0,
								"slot": "1",
								"type": "t_uint256"
							},
							{
								"astId": 14,
								"contract": "tronbox/contracts/SmartGenie.sol:SmartGenie",
								"label": "referrerID",
								"offset": 0,
								"slot": "2",
								"type": "t_uint256"
							},
							{
								"astId": 17,
								"contract": "tronbox/contracts/SmartGenie.sol:SmartGenie",
								"label": "referral",
								"offset": 0,
								"slot": "3",
								"type": "t_array(t_address)dyn_storage"
							},
							{
								"astId": 19,
								"contract": "tronbox/contracts/SmartGenie.sol:SmartGenie",
								"label": "joined",
								"offset": 0,
								"slot": "4",
								"type": "t_uint256"
							},
							{
								"astId": 23,
								"contract": "tronbox/contracts/SmartGenie.sol:SmartGenie",
								"label": "incomeCount",
								"offset": 0,
								"slot": "5",
								"type": "t_mapping(t_uint256,t_uint256)"
							},
							{
								"astId": 26,
								"contract": "tronbox/contracts/SmartGenie.sol:SmartGenie",
								"label": "levelEligibility",
								"offset": 0,
								"slot": "6",
								"type": "t_array(t_uint256)dyn_storage"
							}
						],
						"numberOfBytes": "224"
					},
					"t_uint256": {
						"encoding": "inplace",
						"label": "uint256",
						"numberOfBytes": "32"
					},
					"t_uint8": {
						"encoding": "inplace",
						"label": "uint8",
						"numberOfBytes": "1"
					}
				}
			},
			"userdoc": {
				"kind": "user",
				"methods": {},
				"version": 1
			}
		}
	}
}