{
	"tronbox/contracts/SmartGenie.sol": {
		"SmartGenie": {
			"abi": [
				{
					"inputs": [
						{
							"internalType": "address",
							"name": "_prWallet1",
							"type": "address"
						},
						{
							"internalType": "address",
							"name": "_prWallet2",
							"type": "address"
						},
						{
							"internalType": "address",
							"name": "_prWallet3",
							"type": "address"
						},
						{
							"internalType": "address",
							"name": "_sprWallet",
							"type": "address"
						},
						{
							"internalType": "address",
							"name": "_ursWallet",
							"type": "address"
						}
					],
					"stateMutability": "nonpayable",
					"type": "constructor"
				},
				{
					"anonymous": false,
					"inputs": [
						{
							"indexed": true,
							"internalType": "address",
							"name": "_user",
							"type": "address"
						},
						{
							"indexed": true,
							"internalType": "address",
							"name": "_referral",
							"type": "address"
						},
						{
							"indexed": false,
							"internalType": "uint256",
							"name": "_level",
							"type": "uint256"
						},
						{
							"indexed": false,
							"internalType": "uint256",
							"name": "_time",
							"type": "uint256"
						}
					],
					"name": "getMoneyForLevelEvent",
					"type": "event"
				},
				{
					"anonymous": false,
					"inputs": [
						{
							"indexed": true,
							"internalType": "address",
							"name": "_user",
							"type": "address"
						},
						{
							"indexed": true,
							"internalType": "address",
							"name": "_referral",
							"type": "address"
						},
						{
							"indexed": false,
							"internalType": "uint256",
							"name": "_level",
							"type": "uint256"
						},
						{
							"indexed": false,
							"internalType": "uint256",
							"name": "_time",
							"type": "uint256"
						}
					],
					"name": "lostMoneyForLevelEvent",
					"type": "event"
				},
				{
					"anonymous": false,
					"inputs": [
						{
							"indexed": true,
							"internalType": "address",
							"name": "_user",
							"type": "address"
						},
						{
							"indexed": true,
							"internalType": "address",
							"name": "_referrer",
							"type": "address"
						},
						{
							"indexed": false,
							"internalType": "uint256",
							"name": "_time",
							"type": "uint256"
						}
					],
					"name": "regLevelEvent",
					"type": "event"
				},
				{
					"inputs": [
						{
							"internalType": "uint256",
							"name": "",
							"type": "uint256"
						}
					],
					"name": "LEVEL_PRICE",
					"outputs": [
						{
							"internalType": "uint256",
							"name": "",
							"type": "uint256"
						}
					],
					"stateMutability": "view",
					"type": "function"
				},
				{
					"inputs": [],
					"name": "adminWallet",
					"outputs": [
						{
							"internalType": "address",
							"name": "",
							"type": "address"
						}
					],
					"stateMutability": "view",
					"type": "function"
				},
				{
					"inputs": [],
					"name": "currUserID",
					"outputs": [
						{
							"internalType": "uint256",
							"name": "",
							"type": "uint256"
						}
					],
					"stateMutability": "view",
					"type": "function"
				},
				{
					"inputs": [],
					"name": "getContractBalance",
					"outputs": [
						{
							"internalType": "uint256",
							"name": "",
							"type": "uint256"
						}
					],
					"stateMutability": "view",
					"type": "function"
				},
				{
					"inputs": [
						{
							"internalType": "address",
							"name": "_user",
							"type": "address"
						},
						{
							"internalType": "uint256",
							"name": "_level",
							"type": "uint256"
						}
					],
					"name": "getUserIncomeCount",
					"outputs": [
						{
							"internalType": "uint256",
							"name": "",
							"type": "uint256"
						}
					],
					"stateMutability": "view",
					"type": "function"
				},
				{
					"inputs": [
						{
							"internalType": "address",
							"name": "_user",
							"type": "address"
						}
					],
					"name": "getUserLevelEligibility",
					"outputs": [
						{
							"internalType": "uint256[]",
							"name": "",
							"type": "uint256[]"
						}
					],
					"stateMutability": "view",
					"type": "function"
				},
				{
					"inputs": [
						{
							"internalType": "address",
							"name": "_user",
							"type": "address"
						}
					],
					"name": "getUserReferrals",
					"outputs": [
						{
							"internalType": "address[]",
							"name": "",
							"type": "address[]"
						}
					],
					"stateMutability": "view",
					"type": "function"
				},
				{
					"inputs": [
						{
							"internalType": "uint256",
							"name": "",
							"type": "uint256"
						},
						{
							"internalType": "address",
							"name": "",
							"type": "address"
						}
					],
					"name": "isLevelUpgradedForAddress",
					"outputs": [
						{
							"internalType": "bool",
							"name": "",
							"type": "bool"
						}
					],
					"stateMutability": "view",
					"type": "function"
				},
				{
					"inputs": [
						{
							"internalType": "uint256",
							"name": "",
							"type": "uint256"
						},
						{
							"internalType": "address",
							"name": "",
							"type": "address"
						}
					],
					"name": "levelCounter",
					"outputs": [
						{
							"internalType": "uint256",
							"name": "",
							"type": "uint256"
						}
					],
					"stateMutability": "view",
					"type": "function"
				},
				{
					"inputs": [
						{
							"internalType": "uint256",
							"name": "",
							"type": "uint256"
						},
						{
							"internalType": "address",
							"name": "",
							"type": "address"
						}
					],
					"name": "levelUpgradePayments",
					"outputs": [
						{
							"internalType": "address",
							"name": "",
							"type": "address"
						}
					],
					"stateMutability": "view",
					"type": "function"
				},
				{
					"inputs": [
						{
							"internalType": "uint256",
							"name": "",
							"type": "uint256"
						}
					],
					"name": "promotionPercantage",
					"outputs": [
						{
							"internalType": "uint8",
							"name": "",
							"type": "uint8"
						}
					],
					"stateMutability": "view",
					"type": "function"
				},
				{
					"inputs": [
						{
							"internalType": "uint256",
							"name": "",
							"type": "uint256"
						}
					],
					"name": "promotionWallets",
					"outputs": [
						{
							"internalType": "address",
							"name": "",
							"type": "address"
						}
					],
					"stateMutability": "view",
					"type": "function"
				},
				{
					"inputs": [
						{
							"internalType": "uint256",
							"name": "_referrerID",
							"type": "uint256"
						}
					],
					"name": "regUser",
					"outputs": [
						{
							"internalType": "bool",
							"name": "",
							"type": "bool"
						}
					],
					"stateMutability": "payable",
					"type": "function"
				},
				{
					"inputs": [],
					"name": "splPromoWallet",
					"outputs": [
						{
							"internalType": "address",
							"name": "",
							"type": "address"
						}
					],
					"stateMutability": "view",
					"type": "function"
				},
				{
					"inputs": [],
					"name": "transferURS",
					"outputs": [
						{
							"internalType": "bool",
							"name": "",
							"type": "bool"
						}
					],
					"stateMutability": "nonpayable",
					"type": "function"
				},
				{
					"inputs": [
						{
							"internalType": "address",
							"name": "walletAddr",
							"type": "address"
						},
						{
							"internalType": "uint256",
							"name": "index",
							"type": "uint256"
						}
					],
					"name": "updatePromotionWallet",
					"outputs": [],
					"stateMutability": "nonpayable",
					"type": "function"
				},
				{
					"inputs": [],
					"name": "ursWallet",
					"outputs": [
						{
							"internalType": "address",
							"name": "",
							"type": "address"
						}
					],
					"stateMutability": "view",
					"type": "function"
				},
				{
					"inputs": [
						{
							"internalType": "uint256",
							"name": "",
							"type": "uint256"
						}
					],
					"name": "userList",
					"outputs": [
						{
							"internalType": "address",
							"name": "",
							"type": "address"
						}
					],
					"stateMutability": "view",
					"type": "function"
				},
				{
					"inputs": [
						{
							"internalType": "address",
							"name": "",
							"type": "address"
						}
					],
					"name": "users",
					"outputs": [
						{
							"internalType": "bool",
							"name": "isExist",
							"type": "bool"
						},
						{
							"internalType": "uint256",
							"name": "id",
							"type": "uint256"
						},
						{
							"internalType": "uint256",
							"name": "referrerID",
							"type": "uint256"
						},
						{
							"internalType": "uint256",
							"name": "joined",
							"type": "uint256"
						}
					],
					"stateMutability": "view",
					"type": "function"
				},
				{
					"inputs": [],
					"name": "withdrawPromotion",
					"outputs": [
						{
							"internalType": "bool",
							"name": "",
							"type": "bool"
						}
					],
					"stateMutability": "nonpayable",
					"type": "function"
				},
				{
					"inputs": [],
					"name": "withdrawSplPromotion",
					"outputs": [
						{
							"internalType": "bool",
							"name": "",
							"type": "bool"
						}
					],
					"stateMutability": "nonpayable",
					"type": "function"
				}
			],
			"devdoc": {
				"custom:dev-run-script": "./tronbox/test/TestSG.js",
				"kind": "dev",
				"methods": {},
				"version": 1
			},
			"evm": {
				"assembly": "    /* \"tronbox/contracts/SmartGenie.sol\":124:24042  contract SmartGenie {... */\n  mstore(0x40, 0x80)\n    /* \"tronbox/contracts/SmartGenie.sol\":990:1035  uint8[4] public promotionPercantage = [5,3,1] */\n  mload(0x40)\n  dup1\n  0x60\n  add\n  0x40\n  mstore\n  dup1\n    /* \"tronbox/contracts/SmartGenie.sol\":1029:1030  5 */\n  0x05\n    /* \"tronbox/contracts/SmartGenie.sol\":990:1035  uint8[4] public promotionPercantage = [5,3,1] */\n  0xff\n  and\n  dup2\n  mstore\n  0x20\n  add\n    /* \"tronbox/contracts/SmartGenie.sol\":1031:1032  3 */\n  0x03\n    /* \"tronbox/contracts/SmartGenie.sol\":990:1035  uint8[4] public promotionPercantage = [5,3,1] */\n  0xff\n  and\n  dup2\n  mstore\n  0x20\n  add\n    /* \"tronbox/contracts/SmartGenie.sol\":1033:1034  1 */\n  0x01\n    /* \"tronbox/contracts/SmartGenie.sol\":990:1035  uint8[4] public promotionPercantage = [5,3,1] */\n  0xff\n  and\n  dup2\n  mstore\n  pop\n  0x07\n  swap1\n  0x03\n  tag_1\n  swap3\n  swap2\n  swap1\n  tag_2\n  jump\t// in\ntag_1:\n  pop\n    /* \"tronbox/contracts/SmartGenie.sol\":1454:1455  0 */\n  0x00\n    /* \"tronbox/contracts/SmartGenie.sol\":1429:1455  uint public currUserID = 0 */\n  0x0e\n  sstore\n    /* \"tronbox/contracts/SmartGenie.sol\":1482:1483  0 */\n  0x00\n    /* \"tronbox/contracts/SmartGenie.sol\":1461:1483  uint256 splPromAmt = 0 */\n  0x0f\n  sstore\n    /* \"tronbox/contracts/SmartGenie.sol\":1507:1508  0 */\n  0x00\n    /* \"tronbox/contracts/SmartGenie.sol\":1489:1508  uint256 promAmt = 0 */\n  0x10\n  sstore\n    /* \"tronbox/contracts/SmartGenie.sol\":1531:1532  0 */\n  0x00\n    /* \"tronbox/contracts/SmartGenie.sol\":1514:1532  uint256 ursAmt = 0 */\n  0x11\n  sstore\n    /* \"tronbox/contracts/SmartGenie.sol\":1555:1563  50 ether */\n  0x02b5e3af16b1880000\n    /* \"tronbox/contracts/SmartGenie.sol\":1538:1563  uint256 regFee = 50 ether */\n  0x12\n  sstore\n    /* \"tronbox/contracts/SmartGenie.sol\":1600:1603  100 */\n  0x64\n    /* \"tronbox/contracts/SmartGenie.sol\":1596:1598  10 */\n  0x0a\n    /* \"tronbox/contracts/SmartGenie.sol\":1589:1595  regFee */\n  sload(0x12)\n    /* \"tronbox/contracts/SmartGenie.sol\":1589:1598  regFee*10 */\n  tag_3\n  swap2\n  swap1\n  tag_4\n  jump\t// in\ntag_3:\n    /* \"tronbox/contracts/SmartGenie.sol\":1588:1603  (regFee*10)/100 */\n  tag_5\n  swap2\n  swap1\n  tag_6\n  jump\t// in\ntag_5:\n    /* \"tronbox/contracts/SmartGenie.sol\":1569:1603  uint256 regShare = (regFee*10)/100 */\n  0x13\n  sstore\n    /* \"tronbox/contracts/SmartGenie.sol\":1663:1666  100 */\n  0x64\n    /* \"tronbox/contracts/SmartGenie.sol\":1660:1661  9 */\n  0x09\n    /* \"tronbox/contracts/SmartGenie.sol\":1653:1659  regFee */\n  sload(0x12)\n    /* \"tronbox/contracts/SmartGenie.sol\":1653:1661  regFee*9 */\n  tag_7\n  swap2\n  swap1\n  tag_4\n  jump\t// in\ntag_7:\n    /* \"tronbox/contracts/SmartGenie.sol\":1652:1666  (regFee*9)/100 */\n  tag_8\n  swap2\n  swap1\n  tag_6\n  jump\t// in\ntag_8:\n    /* \"tronbox/contracts/SmartGenie.sol\":1627:1666  uint256 promotionShare = (regFee*9)/100 */\n  0x14\n  sstore\n    /* \"tronbox/contracts/SmartGenie.sol\":1724:1727  100 */\n  0x64\n    /* \"tronbox/contracts/SmartGenie.sol\":1721:1722  1 */\n  0x01\n    /* \"tronbox/contracts/SmartGenie.sol\":1714:1720  regFee */\n  sload(0x12)\n    /* \"tronbox/contracts/SmartGenie.sol\":1714:1722  regFee*1 */\n  tag_9\n  swap2\n  swap1\n  tag_4\n  jump\t// in\ntag_9:\n    /* \"tronbox/contracts/SmartGenie.sol\":1713:1727  (regFee*1)/100 */\n  tag_10\n  swap2\n  swap1\n  tag_6\n  jump\t// in\ntag_10:\n    /* \"tronbox/contracts/SmartGenie.sol\":1689:1727  uint256 splPromoShare = (regFee*1)/100 */\n  0x15\n  sstore\n    /* \"tronbox/contracts/SmartGenie.sol\":2179:3415  constructor(address _prWallet1, address _prWallet2, ... */\n  callvalue\n  dup1\n  iszero\n  tag_11\n  jumpi\n  0x00\n  dup1\n  revert\ntag_11:\n  pop\n  mload(0x40)\n  sub(codesize, bytecodeSize)\n  dup1\n  bytecodeSize\n  dup4\n  codecopy\n  dup2\n  dup2\n  add\n  0x40\n  mstore\n  dup2\n  add\n  swap1\n  tag_12\n  swap2\n  swap1\n  tag_13\n  jump\t// in\ntag_12:\n    /* \"tronbox/contracts/SmartGenie.sol\":2387:2397  msg.sender */\n  caller\n    /* \"tronbox/contracts/SmartGenie.sol\":2373:2384  adminWallet */\n  0x00\n  dup1\n    /* \"tronbox/contracts/SmartGenie.sol\":2373:2397  adminWallet = msg.sender */\n  0x0100\n  exp\n  dup2\n  sload\n  dup2\n  0xffffffffffffffffffffffffffffffffffffffff\n  mul\n  not\n  and\n  swap1\n  dup4\n  0xffffffffffffffffffffffffffffffffffffffff\n  and\n  mul\n  or\n  swap1\n  sstore\n  pop\n    /* \"tronbox/contracts/SmartGenie.sol\":2419:2429  _ursWallet */\n  dup1\n    /* \"tronbox/contracts/SmartGenie.sol\":2407:2416  ursWallet */\n  0x01\n  0x00\n    /* \"tronbox/contracts/SmartGenie.sol\":2407:2429  ursWallet = _ursWallet */\n  0x0100\n  exp\n  dup2\n  sload\n  dup2\n  0xffffffffffffffffffffffffffffffffffffffff\n  mul\n  not\n  and\n  swap1\n  dup4\n  0xffffffffffffffffffffffffffffffffffffffff\n  and\n  mul\n  or\n  swap1\n  sstore\n  pop\n    /* \"tronbox/contracts/SmartGenie.sol\":2456:2466  _sprWallet */\n  dup2\n    /* \"tronbox/contracts/SmartGenie.sol\":2439:2453  splPromoWallet */\n  0x02\n  0x00\n    /* \"tronbox/contracts/SmartGenie.sol\":2439:2466  splPromoWallet = _sprWallet */\n  0x0100\n  exp\n  dup2\n  sload\n  dup2\n  0xffffffffffffffffffffffffffffffffffffffff\n  mul\n  not\n  and\n  swap1\n  dup4\n  0xffffffffffffffffffffffffffffffffffffffff\n  and\n  mul\n  or\n  swap1\n  sstore\n  pop\n    /* \"tronbox/contracts/SmartGenie.sol\":2476:2531  promotionWallets = [_prWallet1, _prWallet2, _prWallet3] */\n  mload(0x40)\n  dup1\n  0x60\n  add\n  0x40\n  mstore\n  dup1\n    /* \"tronbox/contracts/SmartGenie.sol\":2496:2506  _prWallet1 */\n  dup7\n    /* \"tronbox/contracts/SmartGenie.sol\":2476:2531  promotionWallets = [_prWallet1, _prWallet2, _prWallet3] */\n  0xffffffffffffffffffffffffffffffffffffffff\n  and\n  0xffffffffffffffffffffffffffffffffffffffff\n  and\n  dup2\n  mstore\n  0x20\n  add\n    /* \"tronbox/contracts/SmartGenie.sol\":2508:2518  _prWallet2 */\n  dup6\n    /* \"tronbox/contracts/SmartGenie.sol\":2476:2531  promotionWallets = [_prWallet1, _prWallet2, _prWallet3] */\n  0xffffffffffffffffffffffffffffffffffffffff\n  and\n  0xffffffffffffffffffffffffffffffffffffffff\n  and\n  dup2\n  mstore\n  0x20\n  add\n    /* \"tronbox/contracts/SmartGenie.sol\":2520:2530  _prWallet3 */\n  dup5\n    /* \"tronbox/contracts/SmartGenie.sol\":2476:2531  promotionWallets = [_prWallet1, _prWallet2, _prWallet3] */\n  0xffffffffffffffffffffffffffffffffffffffff\n  and\n  0xffffffffffffffffffffffffffffffffffffffff\n  and\n  dup2\n  mstore\n  pop\n    /* \"tronbox/contracts/SmartGenie.sol\":2476:2492  promotionWallets */\n  0x03\n    /* \"tronbox/contracts/SmartGenie.sol\":2476:2531  promotionWallets = [_prWallet1, _prWallet2, _prWallet3] */\n  swap1\n  0x03\n  tag_16\n  swap3\n  swap2\n  swap1\n  tag_17\n  jump\t// in\ntag_16:\n  pop\n    /* \"tronbox/contracts/SmartGenie.sol\":2630:2633  100 */\n  0x64\n    /* \"tronbox/contracts/SmartGenie.sol\":2626:2628  80 */\n  0x50\n    /* \"tronbox/contracts/SmartGenie.sol\":2619:2625  regFee */\n  sload(0x12)\n    /* \"tronbox/contracts/SmartGenie.sol\":2619:2628  regFee*80 */\n  tag_18\n  swap2\n  swap1\n  tag_4\n  jump\t// in\ntag_18:\n    /* \"tronbox/contracts/SmartGenie.sol\":2618:2633  (regFee*80)/100 */\n  tag_19\n  swap2\n  swap1\n  tag_6\n  jump\t// in\ntag_19:\n    /* \"tronbox/contracts/SmartGenie.sol\":2601:2612  LEVEL_PRICE */\n  0x08\n    /* \"tronbox/contracts/SmartGenie.sol\":2601:2615  LEVEL_PRICE[1] */\n  0x00\n    /* \"tronbox/contracts/SmartGenie.sol\":2613:2614  1 */\n  0x01\n    /* \"tronbox/contracts/SmartGenie.sol\":2601:2615  LEVEL_PRICE[1] */\n  dup2\n  mstore\n  0x20\n  add\n  swap1\n  dup2\n  mstore\n  0x20\n  add\n  0x00\n  keccak256\n    /* \"tronbox/contracts/SmartGenie.sol\":2601:2633  LEVEL_PRICE[1] = (regFee*80)/100 */\n  dup2\n  swap1\n  sstore\n  pop\n    /* \"tronbox/contracts/SmartGenie.sol\":2675:2676  2 */\n  0x02\n    /* \"tronbox/contracts/SmartGenie.sol\":2660:2671  LEVEL_PRICE */\n  0x08\n    /* \"tronbox/contracts/SmartGenie.sol\":2660:2674  LEVEL_PRICE[1] */\n  0x00\n    /* \"tronbox/contracts/SmartGenie.sol\":2672:2673  1 */\n  0x01\n    /* \"tronbox/contracts/SmartGenie.sol\":2660:2674  LEVEL_PRICE[1] */\n  dup2\n  mstore\n  0x20\n  add\n  swap1\n  dup2\n  mstore\n  0x20\n  add\n  0x00\n  keccak256\n  sload\n    /* \"tronbox/contracts/SmartGenie.sol\":2660:2676  LEVEL_PRICE[1]*2 */\n  tag_20\n  swap2\n  swap1\n  tag_4\n  jump\t// in\ntag_20:\n    /* \"tronbox/contracts/SmartGenie.sol\":2643:2654  LEVEL_PRICE */\n  0x08\n    /* \"tronbox/contracts/SmartGenie.sol\":2643:2657  LEVEL_PRICE[2] */\n  0x00\n    /* \"tronbox/contracts/SmartGenie.sol\":2655:2656  2 */\n  0x02\n    /* \"tronbox/contracts/SmartGenie.sol\":2643:2657  LEVEL_PRICE[2] */\n  dup2\n  mstore\n  0x20\n  add\n  swap1\n  dup2\n  mstore\n  0x20\n  add\n  0x00\n  keccak256\n    /* \"tronbox/contracts/SmartGenie.sol\":2643:2676  LEVEL_PRICE[2] = LEVEL_PRICE[1]*2 */\n  dup2\n  swap1\n  sstore\n  pop\n    /* \"tronbox/contracts/SmartGenie.sol\":2718:2719  2 */\n  0x02\n    /* \"tronbox/contracts/SmartGenie.sol\":2703:2714  LEVEL_PRICE */\n  0x08\n    /* \"tronbox/contracts/SmartGenie.sol\":2703:2717  LEVEL_PRICE[2] */\n  0x00\n    /* \"tronbox/contracts/SmartGenie.sol\":2715:2716  2 */\n  0x02\n    /* \"tronbox/contracts/SmartGenie.sol\":2703:2717  LEVEL_PRICE[2] */\n  dup2\n  mstore\n  0x20\n  add\n  swap1\n  dup2\n  mstore\n  0x20\n  add\n  0x00\n  keccak256\n  sload\n    /* \"tronbox/contracts/SmartGenie.sol\":2703:2719  LEVEL_PRICE[2]*2 */\n  tag_21\n  swap2\n  swap1\n  tag_4\n  jump\t// in\ntag_21:\n    /* \"tronbox/contracts/SmartGenie.sol\":2686:2697  LEVEL_PRICE */\n  0x08\n    /* \"tronbox/contracts/SmartGenie.sol\":2686:2700  LEVEL_PRICE[3] */\n  0x00\n    /* \"tronbox/contracts/SmartGenie.sol\":2698:2699  3 */\n  0x03\n    /* \"tronbox/contracts/SmartGenie.sol\":2686:2700  LEVEL_PRICE[3] */\n  dup2\n  mstore\n  0x20\n  add\n  swap1\n  dup2\n  mstore\n  0x20\n  add\n  0x00\n  keccak256\n    /* \"tronbox/contracts/SmartGenie.sol\":2686:2719  LEVEL_PRICE[3] = LEVEL_PRICE[2]*2 */\n  dup2\n  swap1\n  sstore\n  pop\n    /* \"tronbox/contracts/SmartGenie.sol\":2761:2762  2 */\n  0x02\n    /* \"tronbox/contracts/SmartGenie.sol\":2746:2757  LEVEL_PRICE */\n  0x08\n    /* \"tronbox/contracts/SmartGenie.sol\":2746:2760  LEVEL_PRICE[3] */\n  0x00\n    /* \"tronbox/contracts/SmartGenie.sol\":2758:2759  3 */\n  0x03\n    /* \"tronbox/contracts/SmartGenie.sol\":2746:2760  LEVEL_PRICE[3] */\n  dup2\n  mstore\n  0x20\n  add\n  swap1\n  dup2\n  mstore\n  0x20\n  add\n  0x00\n  keccak256\n  sload\n    /* \"tronbox/contracts/SmartGenie.sol\":2746:2762  LEVEL_PRICE[3]*2 */\n  tag_22\n  swap2\n  swap1\n  tag_4\n  jump\t// in\ntag_22:\n    /* \"tronbox/contracts/SmartGenie.sol\":2729:2740  LEVEL_PRICE */\n  0x08\n    /* \"tronbox/contracts/SmartGenie.sol\":2729:2743  LEVEL_PRICE[4] */\n  0x00\n    /* \"tronbox/contracts/SmartGenie.sol\":2741:2742  4 */\n  0x04\n    /* \"tronbox/contracts/SmartGenie.sol\":2729:2743  LEVEL_PRICE[4] */\n  dup2\n  mstore\n  0x20\n  add\n  swap1\n  dup2\n  mstore\n  0x20\n  add\n  0x00\n  keccak256\n    /* \"tronbox/contracts/SmartGenie.sol\":2729:2762  LEVEL_PRICE[4] = LEVEL_PRICE[3]*2 */\n  dup2\n  swap1\n  sstore\n  pop\n    /* \"tronbox/contracts/SmartGenie.sol\":2804:2805  2 */\n  0x02\n    /* \"tronbox/contracts/SmartGenie.sol\":2789:2800  LEVEL_PRICE */\n  0x08\n    /* \"tronbox/contracts/SmartGenie.sol\":2789:2803  LEVEL_PRICE[4] */\n  0x00\n    /* \"tronbox/contracts/SmartGenie.sol\":2801:2802  4 */\n  0x04\n    /* \"tronbox/contracts/SmartGenie.sol\":2789:2803  LEVEL_PRICE[4] */\n  dup2\n  mstore\n  0x20\n  add\n  swap1\n  dup2\n  mstore\n  0x20\n  add\n  0x00\n  keccak256\n  sload\n    /* \"tronbox/contracts/SmartGenie.sol\":2789:2805  LEVEL_PRICE[4]*2 */\n  tag_23\n  swap2\n  swap1\n  tag_4\n  jump\t// in\ntag_23:\n    /* \"tronbox/contracts/SmartGenie.sol\":2772:2783  LEVEL_PRICE */\n  0x08\n    /* \"tronbox/contracts/SmartGenie.sol\":2772:2786  LEVEL_PRICE[5] */\n  0x00\n    /* \"tronbox/contracts/SmartGenie.sol\":2784:2785  5 */\n  0x05\n    /* \"tronbox/contracts/SmartGenie.sol\":2772:2786  LEVEL_PRICE[5] */\n  dup2\n  mstore\n  0x20\n  add\n  swap1\n  dup2\n  mstore\n  0x20\n  add\n  0x00\n  keccak256\n    /* \"tronbox/contracts/SmartGenie.sol\":2772:2805  LEVEL_PRICE[5] = LEVEL_PRICE[4]*2 */\n  dup2\n  swap1\n  sstore\n  pop\n    /* \"tronbox/contracts/SmartGenie.sol\":2847:2848  2 */\n  0x02\n    /* \"tronbox/contracts/SmartGenie.sol\":2832:2843  LEVEL_PRICE */\n  0x08\n    /* \"tronbox/contracts/SmartGenie.sol\":2832:2846  LEVEL_PRICE[5] */\n  0x00\n    /* \"tronbox/contracts/SmartGenie.sol\":2844:2845  5 */\n  0x05\n    /* \"tronbox/contracts/SmartGenie.sol\":2832:2846  LEVEL_PRICE[5] */\n  dup2\n  mstore\n  0x20\n  add\n  swap1\n  dup2\n  mstore\n  0x20\n  add\n  0x00\n  keccak256\n  sload\n    /* \"tronbox/contracts/SmartGenie.sol\":2832:2848  LEVEL_PRICE[5]*2 */\n  tag_24\n  swap2\n  swap1\n  tag_4\n  jump\t// in\ntag_24:\n    /* \"tronbox/contracts/SmartGenie.sol\":2815:2826  LEVEL_PRICE */\n  0x08\n    /* \"tronbox/contracts/SmartGenie.sol\":2815:2829  LEVEL_PRICE[6] */\n  0x00\n    /* \"tronbox/contracts/SmartGenie.sol\":2827:2828  6 */\n  0x06\n    /* \"tronbox/contracts/SmartGenie.sol\":2815:2829  LEVEL_PRICE[6] */\n  dup2\n  mstore\n  0x20\n  add\n  swap1\n  dup2\n  mstore\n  0x20\n  add\n  0x00\n  keccak256\n    /* \"tronbox/contracts/SmartGenie.sol\":2815:2848  LEVEL_PRICE[6] = LEVEL_PRICE[5]*2 */\n  dup2\n  swap1\n  sstore\n  pop\n    /* \"tronbox/contracts/SmartGenie.sol\":2890:2891  2 */\n  0x02\n    /* \"tronbox/contracts/SmartGenie.sol\":2875:2886  LEVEL_PRICE */\n  0x08\n    /* \"tronbox/contracts/SmartGenie.sol\":2875:2889  LEVEL_PRICE[6] */\n  0x00\n    /* \"tronbox/contracts/SmartGenie.sol\":2887:2888  6 */\n  0x06\n    /* \"tronbox/contracts/SmartGenie.sol\":2875:2889  LEVEL_PRICE[6] */\n  dup2\n  mstore\n  0x20\n  add\n  swap1\n  dup2\n  mstore\n  0x20\n  add\n  0x00\n  keccak256\n  sload\n    /* \"tronbox/contracts/SmartGenie.sol\":2875:2891  LEVEL_PRICE[6]*2 */\n  tag_25\n  swap2\n  swap1\n  tag_4\n  jump\t// in\ntag_25:\n    /* \"tronbox/contracts/SmartGenie.sol\":2858:2869  LEVEL_PRICE */\n  0x08\n    /* \"tronbox/contracts/SmartGenie.sol\":2858:2872  LEVEL_PRICE[7] */\n  0x00\n    /* \"tronbox/contracts/SmartGenie.sol\":2870:2871  7 */\n  0x07\n    /* \"tronbox/contracts/SmartGenie.sol\":2858:2872  LEVEL_PRICE[7] */\n  dup2\n  mstore\n  0x20\n  add\n  swap1\n  dup2\n  mstore\n  0x20\n  add\n  0x00\n  keccak256\n    /* \"tronbox/contracts/SmartGenie.sol\":2858:2891  LEVEL_PRICE[7] = LEVEL_PRICE[6]*2 */\n  dup2\n  swap1\n  sstore\n  pop\n    /* \"tronbox/contracts/SmartGenie.sol\":2933:2934  2 */\n  0x02\n    /* \"tronbox/contracts/SmartGenie.sol\":2918:2929  LEVEL_PRICE */\n  0x08\n    /* \"tronbox/contracts/SmartGenie.sol\":2918:2932  LEVEL_PRICE[7] */\n  0x00\n    /* \"tronbox/contracts/SmartGenie.sol\":2930:2931  7 */\n  0x07\n    /* \"tronbox/contracts/SmartGenie.sol\":2918:2932  LEVEL_PRICE[7] */\n  dup2\n  mstore\n  0x20\n  add\n  swap1\n  dup2\n  mstore\n  0x20\n  add\n  0x00\n  keccak256\n  sload\n    /* \"tronbox/contracts/SmartGenie.sol\":2918:2934  LEVEL_PRICE[7]*2 */\n  tag_26\n  swap2\n  swap1\n  tag_4\n  jump\t// in\ntag_26:\n    /* \"tronbox/contracts/SmartGenie.sol\":2901:2912  LEVEL_PRICE */\n  0x08\n    /* \"tronbox/contracts/SmartGenie.sol\":2901:2915  LEVEL_PRICE[8] */\n  0x00\n    /* \"tronbox/contracts/SmartGenie.sol\":2913:2914  8 */\n  0x08\n    /* \"tronbox/contracts/SmartGenie.sol\":2901:2915  LEVEL_PRICE[8] */\n  dup2\n  mstore\n  0x20\n  add\n  swap1\n  dup2\n  mstore\n  0x20\n  add\n  0x00\n  keccak256\n    /* \"tronbox/contracts/SmartGenie.sol\":2901:2934  LEVEL_PRICE[8] = LEVEL_PRICE[7]*2 */\n  dup2\n  swap1\n  sstore\n  pop\n    /* \"tronbox/contracts/SmartGenie.sol\":2976:2977  2 */\n  0x02\n    /* \"tronbox/contracts/SmartGenie.sol\":2961:2972  LEVEL_PRICE */\n  0x08\n    /* \"tronbox/contracts/SmartGenie.sol\":2961:2975  LEVEL_PRICE[8] */\n  0x00\n    /* \"tronbox/contracts/SmartGenie.sol\":2973:2974  8 */\n  0x08\n    /* \"tronbox/contracts/SmartGenie.sol\":2961:2975  LEVEL_PRICE[8] */\n  dup2\n  mstore\n  0x20\n  add\n  swap1\n  dup2\n  mstore\n  0x20\n  add\n  0x00\n  keccak256\n  sload\n    /* \"tronbox/contracts/SmartGenie.sol\":2961:2977  LEVEL_PRICE[8]*2 */\n  tag_27\n  swap2\n  swap1\n  tag_4\n  jump\t// in\ntag_27:\n    /* \"tronbox/contracts/SmartGenie.sol\":2944:2955  LEVEL_PRICE */\n  0x08\n    /* \"tronbox/contracts/SmartGenie.sol\":2944:2958  LEVEL_PRICE[9] */\n  0x00\n    /* \"tronbox/contracts/SmartGenie.sol\":2956:2957  9 */\n  0x09\n    /* \"tronbox/contracts/SmartGenie.sol\":2944:2958  LEVEL_PRICE[9] */\n  dup2\n  mstore\n  0x20\n  add\n  swap1\n  dup2\n  mstore\n  0x20\n  add\n  0x00\n  keccak256\n    /* \"tronbox/contracts/SmartGenie.sol\":2944:2977  LEVEL_PRICE[9] = LEVEL_PRICE[8]*2 */\n  dup2\n  swap1\n  sstore\n  pop\n    /* \"tronbox/contracts/SmartGenie.sol\":3038:3067  UserStruct storage userStruct */\n  0x00\n    /* \"tronbox/contracts/SmartGenie.sol\":3070:3075  users */\n  0x09\n    /* \"tronbox/contracts/SmartGenie.sol\":3070:3088  users[adminWallet] */\n  0x00\n    /* \"tronbox/contracts/SmartGenie.sol\":3076:3087  adminWallet */\n  dup1\n  0x00\n  swap1\n  sload\n  swap1\n  0x0100\n  exp\n  swap1\n  div\n  0xffffffffffffffffffffffffffffffffffffffff\n  and\n    /* \"tronbox/contracts/SmartGenie.sol\":3070:3088  users[adminWallet] */\n  0xffffffffffffffffffffffffffffffffffffffff\n  and\n  0xffffffffffffffffffffffffffffffffffffffff\n  and\n  dup2\n  mstore\n  0x20\n  add\n  swap1\n  dup2\n  mstore\n  0x20\n  add\n  0x00\n  keccak256\n    /* \"tronbox/contracts/SmartGenie.sol\":3038:3088  UserStruct storage userStruct = users[adminWallet] */\n  swap1\n  pop\n    /* \"tronbox/contracts/SmartGenie.sol\":3119:3123  true */\n  0x01\n    /* \"tronbox/contracts/SmartGenie.sol\":3098:3108  userStruct */\n  dup2\n    /* \"tronbox/contracts/SmartGenie.sol\":3098:3116  userStruct.isExist */\n  0x00\n  add\n  0x00\n    /* \"tronbox/contracts/SmartGenie.sol\":3098:3123  userStruct.isExist = true */\n  0x0100\n  exp\n  dup2\n  sload\n  dup2\n  0xff\n  mul\n  not\n  and\n  swap1\n  dup4\n  iszero\n  iszero\n  mul\n  or\n  swap1\n  sstore\n  pop\n    /* \"tronbox/contracts/SmartGenie.sol\":3149:3159  currUserID */\n  sload(0x0e)\n    /* \"tronbox/contracts/SmartGenie.sol\":3133:3143  userStruct */\n  dup2\n    /* \"tronbox/contracts/SmartGenie.sol\":3133:3146  userStruct.id */\n  0x01\n  add\n    /* \"tronbox/contracts/SmartGenie.sol\":3133:3159  userStruct.id = currUserID */\n  dup2\n  swap1\n  sstore\n  pop\n    /* \"tronbox/contracts/SmartGenie.sol\":3193:3194  0 */\n  0x00\n    /* \"tronbox/contracts/SmartGenie.sol\":3169:3179  userStruct */\n  dup2\n    /* \"tronbox/contracts/SmartGenie.sol\":3169:3190  userStruct.referrerID */\n  0x02\n  add\n    /* \"tronbox/contracts/SmartGenie.sol\":3169:3194  userStruct.referrerID = 0 */\n  dup2\n  swap1\n  sstore\n  pop\n    /* \"tronbox/contracts/SmartGenie.sol\":3240:3241  0 */\n  0x00\n    /* \"tronbox/contracts/SmartGenie.sol\":3226:3242  new address[](0) */\n  0xffffffffffffffff\n  dup2\n  gt\n  iszero\n  tag_28\n  jumpi\n  tag_29\n  tag_30\n  jump\t// in\ntag_29:\ntag_28:\n  mload(0x40)\n  swap1\n  dup1\n  dup3\n  mstore\n  dup1\n  0x20\n  mul\n  0x20\n  add\n  dup3\n  add\n  0x40\n  mstore\n  dup1\n  iszero\n  tag_31\n  jumpi\n  dup2\n  0x20\n  add\n  0x20\n  dup3\n  mul\n  dup1\n  calldatasize\n  dup4\n  calldatacopy\n  dup1\n  dup3\n  add\n  swap2\n  pop\n  pop\n  swap1\n  pop\ntag_31:\n  pop\n    /* \"tronbox/contracts/SmartGenie.sol\":3204:3214  userStruct */\n  dup2\n    /* \"tronbox/contracts/SmartGenie.sol\":3204:3223  userStruct.referral */\n  0x03\n  add\n    /* \"tronbox/contracts/SmartGenie.sol\":3204:3242  userStruct.referral = new address[](0) */\n  swap1\n  dup1\n  mload\n  swap1\n  0x20\n  add\n  swap1\n  tag_32\n  swap3\n  swap2\n  swap1\n  tag_33\n  jump\t// in\ntag_32:\n  pop\n    /* \"tronbox/contracts/SmartGenie.sol\":3272:3287  block.timestamp */\n  timestamp\n    /* \"tronbox/contracts/SmartGenie.sol\":3252:3262  userStruct */\n  dup2\n    /* \"tronbox/contracts/SmartGenie.sol\":3252:3269  userStruct.joined */\n  0x04\n  add\n    /* \"tronbox/contracts/SmartGenie.sol\":3252:3287  userStruct.joined = block.timestamp */\n  dup2\n  swap1\n  sstore\n  pop\n    /* \"tronbox/contracts/SmartGenie.sol\":3338:3339  0 */\n  0x00\n    /* \"tronbox/contracts/SmartGenie.sol\":3327:3340  new uint[](0) */\n  0xffffffffffffffff\n  dup2\n  gt\n  iszero\n  tag_34\n  jumpi\n  tag_35\n  tag_30\n  jump\t// in\ntag_35:\ntag_34:\n  mload(0x40)\n  swap1\n  dup1\n  dup3\n  mstore\n  dup1\n  0x20\n  mul\n  0x20\n  add\n  dup3\n  add\n  0x40\n  mstore\n  dup1\n  iszero\n  tag_36\n  jumpi\n  dup2\n  0x20\n  add\n  0x20\n  dup3\n  mul\n  dup1\n  calldatasize\n  dup4\n  calldatacopy\n  dup1\n  dup3\n  add\n  swap2\n  pop\n  pop\n  swap1\n  pop\ntag_36:\n  pop\n    /* \"tronbox/contracts/SmartGenie.sol\":3297:3307  userStruct */\n  dup2\n    /* \"tronbox/contracts/SmartGenie.sol\":3297:3324  userStruct.levelEligibility */\n  0x06\n  add\n    /* \"tronbox/contracts/SmartGenie.sol\":3297:3340  userStruct.levelEligibility = new uint[](0) */\n  swap1\n  dup1\n  mload\n  swap1\n  0x20\n  add\n  swap1\n  tag_37\n  swap3\n  swap2\n  swap1\n  tag_38\n  jump\t// in\ntag_37:\n  pop\n    /* \"tronbox/contracts/SmartGenie.sol\":3352:3362  currUserID */\n  0x0e\n  0x00\n    /* \"tronbox/contracts/SmartGenie.sol\":3352:3364  currUserID++ */\n  dup2\n  sload\n  dup1\n  swap3\n  swap2\n  swap1\n  tag_39\n  swap1\n  tag_40\n  jump\t// in\ntag_39:\n  swap2\n  swap1\n  pop\n  sstore\n  pop\n    /* \"tronbox/contracts/SmartGenie.sol\":3397:3408  adminWallet */\n  0x00\n  dup1\n  sload\n  swap1\n  0x0100\n  exp\n  swap1\n  div\n  0xffffffffffffffffffffffffffffffffffffffff\n  and\n    /* \"tronbox/contracts/SmartGenie.sol\":3374:3382  userList */\n  0x0a\n    /* \"tronbox/contracts/SmartGenie.sol\":3374:3394  userList[currUserID] */\n  0x00\n    /* \"tronbox/contracts/SmartGenie.sol\":3383:3393  currUserID */\n  sload(0x0e)\n    /* \"tronbox/contracts/SmartGenie.sol\":3374:3394  userList[currUserID] */\n  dup2\n  mstore\n  0x20\n  add\n  swap1\n  dup2\n  mstore\n  0x20\n  add\n  0x00\n  keccak256\n  0x00\n    /* \"tronbox/contracts/SmartGenie.sol\":3374:3408  userList[currUserID] = adminWallet */\n  0x0100\n  exp\n  dup2\n  sload\n  dup2\n  0xffffffffffffffffffffffffffffffffffffffff\n  mul\n  not\n  and\n  swap1\n  dup4\n  0xffffffffffffffffffffffffffffffffffffffff\n  and\n  mul\n  or\n  swap1\n  sstore\n  pop\n    /* \"tronbox/contracts/SmartGenie.sol\":2308:3415  {... */\n  pop\n    /* \"tronbox/contracts/SmartGenie.sol\":2179:3415  constructor(address _prWallet1, address _prWallet2, ... */\n  pop\n  pop\n  pop\n  pop\n  pop\n    /* \"tronbox/contracts/SmartGenie.sol\":124:24042  contract SmartGenie {... */\n  jump(tag_41)\ntag_2:\n  dup3\n  add(0x1f, 0x04)\n  0x20\n  swap1\n  div\n  dup2\n  add\n  swap3\n  dup3\n  iszero\n  tag_42\n  jumpi\n  swap2\n  0x20\n  mul\n  dup3\n  add\n  0x00\ntag_43:\n  dup4\n  dup3\n  gt\n  iszero\n  tag_44\n  jumpi\n  dup4\n  mload\n  dup4\n  dup3\n  0x0100\n  exp\n  dup2\n  sload\n  dup2\n  0xff\n  mul\n  not\n  and\n  swap1\n  dup4\n  0xff\n  and\n  mul\n  or\n  swap1\n  sstore\n  pop\n  swap3\n  0x20\n  add\n  swap3\n  0x01\n  add\n  0x20\n  dup2\n  0x00\n  add\n  div\n  swap3\n  dup4\n  add\n  swap3\n  0x01\n  sub\n  mul\n  jump(tag_43)\ntag_44:\n  dup1\n  iszero\n  tag_45\n  jumpi\n  dup3\n  dup2\n  0x0100\n  exp\n  dup2\n  sload\n  swap1\n  0xff\n  mul\n  not\n  and\n  swap1\n  sstore\n  0x01\n  add\n  0x20\n  dup2\n  0x00\n  add\n  div\n  swap3\n  dup4\n  add\n  swap3\n  0x01\n  sub\n  mul\n  jump(tag_44)\ntag_45:\n  pop\ntag_42:\n  pop\n  swap1\n  pop\n  tag_46\n  swap2\n  swap1\n  tag_47\n  jump\t// in\ntag_46:\n  pop\n  swap1\n  jump\t// out\ntag_17:\n  dup3\n  0x04\n  dup2\n  add\n  swap3\n  dup3\n  iszero\n  tag_48\n  jumpi\n  swap2\n  0x20\n  mul\n  dup3\n  add\ntag_49:\n  dup3\n  dup2\n  gt\n  iszero\n  tag_50\n  jumpi\n  dup3\n  mload\n  dup3\n  exp(0x0100, 0x00)\n  dup2\n  sload\n  dup2\n  0xffffffffffffffffffffffffffffffffffffffff\n  mul\n  not\n  and\n  swap1\n  dup4\n  0xffffffffffffffffffffffffffffffffffffffff\n  and\n  mul\n  or\n  swap1\n  sstore\n  pop\n  swap2\n  0x20\n  add\n  swap2\n  swap1\n  0x01\n  add\n  swap1\n  jump(tag_49)\ntag_50:\ntag_48:\n  pop\n  swap1\n  pop\n  tag_51\n  swap2\n  swap1\n  tag_47\n  jump\t// in\ntag_51:\n  pop\n  swap1\n  jump\t// out\ntag_33:\n  dup3\n  dup1\n  sload\n  dup3\n  dup3\n  sstore\n  swap1\n  0x00\n  mstore\n  keccak256(0x00, 0x20)\n  swap1\n  dup2\n  add\n  swap3\n  dup3\n  iszero\n  tag_52\n  jumpi\n  swap2\n  0x20\n  mul\n  dup3\n  add\ntag_53:\n  dup3\n  dup2\n  gt\n  iszero\n  tag_54\n  jumpi\n  dup3\n  mload\n  dup3\n  exp(0x0100, 0x00)\n  dup2\n  sload\n  dup2\n  0xffffffffffffffffffffffffffffffffffffffff\n  mul\n  not\n  and\n  swap1\n  dup4\n  0xffffffffffffffffffffffffffffffffffffffff\n  and\n  mul\n  or\n  swap1\n  sstore\n  pop\n  swap2\n  0x20\n  add\n  swap2\n  swap1\n  0x01\n  add\n  swap1\n  jump(tag_53)\ntag_54:\ntag_52:\n  pop\n  swap1\n  pop\n  tag_55\n  swap2\n  swap1\n  tag_47\n  jump\t// in\ntag_55:\n  pop\n  swap1\n  jump\t// out\ntag_38:\n  dup3\n  dup1\n  sload\n  dup3\n  dup3\n  sstore\n  swap1\n  0x00\n  mstore\n  keccak256(0x00, 0x20)\n  swap1\n  dup2\n  add\n  swap3\n  dup3\n  iszero\n  tag_56\n  jumpi\n  swap2\n  0x20\n  mul\n  dup3\n  add\ntag_57:\n  dup3\n  dup2\n  gt\n  iszero\n  tag_58\n  jumpi\n  dup3\n  mload\n  dup3\n  sstore\n  swap2\n  0x20\n  add\n  swap2\n  swap1\n  0x01\n  add\n  swap1\n  jump(tag_57)\ntag_58:\ntag_56:\n  pop\n  swap1\n  pop\n  tag_59\n  swap2\n  swap1\n  tag_47\n  jump\t// in\ntag_59:\n  pop\n  swap1\n  jump\t// out\ntag_47:\ntag_60:\n  dup1\n  dup3\n  gt\n  iszero\n  tag_61\n  jumpi\n  0x00\n  dup2\n  0x00\n  swap1\n  sstore\n  pop\n  0x01\n  add\n  jump(tag_60)\ntag_61:\n  pop\n  swap1\n  jump\t// out\n    /* \"#utility.yul\":7:84   */\ntag_62:\n    /* \"#utility.yul\":44:51   */\n  0x00\n    /* \"#utility.yul\":73:78   */\n  dup2\n    /* \"#utility.yul\":62:78   */\n  swap1\n  pop\n    /* \"#utility.yul\":7:84   */\n  swap2\n  swap1\n  pop\n  jump\t// out\n    /* \"#utility.yul\":90:270   */\ntag_63:\n    /* \"#utility.yul\":138:215   */\n  0x4e487b7100000000000000000000000000000000000000000000000000000000\n    /* \"#utility.yul\":135:136   */\n  0x00\n    /* \"#utility.yul\":128:216   */\n  mstore\n    /* \"#utility.yul\":235:239   */\n  0x11\n    /* \"#utility.yul\":232:233   */\n  0x04\n    /* \"#utility.yul\":225:240   */\n  mstore\n    /* \"#utility.yul\":259:263   */\n  0x24\n    /* \"#utility.yul\":256:257   */\n  0x00\n    /* \"#utility.yul\":249:264   */\n  revert\n    /* \"#utility.yul\":276:624   */\ntag_4:\n    /* \"#utility.yul\":316:323   */\n  0x00\n    /* \"#utility.yul\":339:359   */\n  tag_76\n    /* \"#utility.yul\":357:358   */\n  dup3\n    /* \"#utility.yul\":339:359   */\n  tag_62\n  jump\t// in\ntag_76:\n    /* \"#utility.yul\":334:359   */\n  swap2\n  pop\n    /* \"#utility.yul\":373:393   */\n  tag_77\n    /* \"#utility.yul\":391:392   */\n  dup4\n    /* \"#utility.yul\":373:393   */\n  tag_62\n  jump\t// in\ntag_77:\n    /* \"#utility.yul\":368:393   */\n  swap3\n  pop\n    /* \"#utility.yul\":561:562   */\n  dup2\n    /* \"#utility.yul\":493:559   */\n  0xffffffffffffffffffffffffffffffffffffffffffffffffffffffffffffffff\n    /* \"#utility.yul\":489:563   */\n  div\n    /* \"#utility.yul\":486:487   */\n  dup4\n    /* \"#utility.yul\":483:564   */\n  gt\n    /* \"#utility.yul\":478:479   */\n  dup3\n    /* \"#utility.yul\":471:480   */\n  iszero\n    /* \"#utility.yul\":464:481   */\n  iszero\n    /* \"#utility.yul\":460:565   */\n  and\n    /* \"#utility.yul\":457:588   */\n  iszero\n  tag_78\n  jumpi\n    /* \"#utility.yul\":568:586   */\n  tag_79\n  tag_63\n  jump\t// in\ntag_79:\n    /* \"#utility.yul\":457:588   */\ntag_78:\n    /* \"#utility.yul\":616:617   */\n  dup3\n    /* \"#utility.yul\":613:614   */\n  dup3\n    /* \"#utility.yul\":609:618   */\n  mul\n    /* \"#utility.yul\":598:618   */\n  swap1\n  pop\n    /* \"#utility.yul\":276:624   */\n  swap3\n  swap2\n  pop\n  pop\n  jump\t// out\n    /* \"#utility.yul\":630:810   */\ntag_64:\n    /* \"#utility.yul\":678:755   */\n  0x4e487b7100000000000000000000000000000000000000000000000000000000\n    /* \"#utility.yul\":675:676   */\n  0x00\n    /* \"#utility.yul\":668:756   */\n  mstore\n    /* \"#utility.yul\":775:779   */\n  0x12\n    /* \"#utility.yul\":772:773   */\n  0x04\n    /* \"#utility.yul\":765:780   */\n  mstore\n    /* \"#utility.yul\":799:803   */\n  0x24\n    /* \"#utility.yul\":796:797   */\n  0x00\n    /* \"#utility.yul\":789:804   */\n  revert\n    /* \"#utility.yul\":816:1001   */\ntag_6:\n    /* \"#utility.yul\":856:857   */\n  0x00\n    /* \"#utility.yul\":873:893   */\n  tag_82\n    /* \"#utility.yul\":891:892   */\n  dup3\n    /* \"#utility.yul\":873:893   */\n  tag_62\n  jump\t// in\ntag_82:\n    /* \"#utility.yul\":868:893   */\n  swap2\n  pop\n    /* \"#utility.yul\":907:927   */\n  tag_83\n    /* \"#utility.yul\":925:926   */\n  dup4\n    /* \"#utility.yul\":907:927   */\n  tag_62\n  jump\t// in\ntag_83:\n    /* \"#utility.yul\":902:927   */\n  swap3\n  pop\n    /* \"#utility.yul\":946:947   */\n  dup3\n    /* \"#utility.yul\":936:971   */\n  tag_84\n  jumpi\n    /* \"#utility.yul\":951:969   */\n  tag_85\n  tag_64\n  jump\t// in\ntag_85:\n    /* \"#utility.yul\":936:971   */\ntag_84:\n    /* \"#utility.yul\":993:994   */\n  dup3\n    /* \"#utility.yul\":990:991   */\n  dup3\n    /* \"#utility.yul\":986:995   */\n  div\n    /* \"#utility.yul\":981:995   */\n  swap1\n  pop\n    /* \"#utility.yul\":816:1001   */\n  swap3\n  swap2\n  pop\n  pop\n  jump\t// out\n    /* \"#utility.yul\":1088:1205   */\ntag_66:\n    /* \"#utility.yul\":1197:1198   */\n  0x00\n    /* \"#utility.yul\":1194:1195   */\n  dup1\n    /* \"#utility.yul\":1187:1199   */\n  revert\n    /* \"#utility.yul\":1334:1460   */\ntag_68:\n    /* \"#utility.yul\":1371:1378   */\n  0x00\n    /* \"#utility.yul\":1411:1453   */\n  0xffffffffffffffffffffffffffffffffffffffff\n    /* \"#utility.yul\":1404:1409   */\n  dup3\n    /* \"#utility.yul\":1400:1454   */\n  and\n    /* \"#utility.yul\":1389:1454   */\n  swap1\n  pop\n    /* \"#utility.yul\":1334:1460   */\n  swap2\n  swap1\n  pop\n  jump\t// out\n    /* \"#utility.yul\":1466:1562   */\ntag_69:\n    /* \"#utility.yul\":1503:1510   */\n  0x00\n    /* \"#utility.yul\":1532:1556   */\n  tag_91\n    /* \"#utility.yul\":1550:1555   */\n  dup3\n    /* \"#utility.yul\":1532:1556   */\n  tag_68\n  jump\t// in\ntag_91:\n    /* \"#utility.yul\":1521:1556   */\n  swap1\n  pop\n    /* \"#utility.yul\":1466:1562   */\n  swap2\n  swap1\n  pop\n  jump\t// out\n    /* \"#utility.yul\":1568:1690   */\ntag_70:\n    /* \"#utility.yul\":1641:1665   */\n  tag_93\n    /* \"#utility.yul\":1659:1664   */\n  dup2\n    /* \"#utility.yul\":1641:1665   */\n  tag_69\n  jump\t// in\ntag_93:\n    /* \"#utility.yul\":1634:1639   */\n  dup2\n    /* \"#utility.yul\":1631:1666   */\n  eq\n    /* \"#utility.yul\":1621:1684   */\n  tag_94\n  jumpi\n    /* \"#utility.yul\":1680:1681   */\n  0x00\n    /* \"#utility.yul\":1677:1678   */\n  dup1\n    /* \"#utility.yul\":1670:1682   */\n  revert\n    /* \"#utility.yul\":1621:1684   */\ntag_94:\n    /* \"#utility.yul\":1568:1690   */\n  pop\n  jump\t// out\n    /* \"#utility.yul\":1696:1839   */\ntag_71:\n    /* \"#utility.yul\":1753:1758   */\n  0x00\n    /* \"#utility.yul\":1784:1790   */\n  dup2\n    /* \"#utility.yul\":1778:1791   */\n  mload\n    /* \"#utility.yul\":1769:1791   */\n  swap1\n  pop\n    /* \"#utility.yul\":1800:1833   */\n  tag_96\n    /* \"#utility.yul\":1827:1832   */\n  dup2\n    /* \"#utility.yul\":1800:1833   */\n  tag_70\n  jump\t// in\ntag_96:\n    /* \"#utility.yul\":1696:1839   */\n  swap3\n  swap2\n  pop\n  pop\n  jump\t// out\n    /* \"#utility.yul\":1845:2822   */\ntag_13:\n    /* \"#utility.yul\":1951:1957   */\n  0x00\n    /* \"#utility.yul\":1959:1965   */\n  dup1\n    /* \"#utility.yul\":1967:1973   */\n  0x00\n    /* \"#utility.yul\":1975:1981   */\n  dup1\n    /* \"#utility.yul\":1983:1989   */\n  0x00\n    /* \"#utility.yul\":2032:2035   */\n  0xa0\n    /* \"#utility.yul\":2020:2029   */\n  dup7\n    /* \"#utility.yul\":2011:2018   */\n  dup9\n    /* \"#utility.yul\":2007:2030   */\n  sub\n    /* \"#utility.yul\":2003:2036   */\n  slt\n    /* \"#utility.yul\":2000:2120   */\n  iszero\n  tag_98\n  jumpi\n    /* \"#utility.yul\":2039:2118   */\n  tag_99\n  tag_66\n  jump\t// in\ntag_99:\n    /* \"#utility.yul\":2000:2120   */\ntag_98:\n    /* \"#utility.yul\":2159:2160   */\n  0x00\n    /* \"#utility.yul\":2184:2248   */\n  tag_100\n    /* \"#utility.yul\":2240:2247   */\n  dup9\n    /* \"#utility.yul\":2231:2237   */\n  dup3\n    /* \"#utility.yul\":2220:2229   */\n  dup10\n    /* \"#utility.yul\":2216:2238   */\n  add\n    /* \"#utility.yul\":2184:2248   */\n  tag_71\n  jump\t// in\ntag_100:\n    /* \"#utility.yul\":2174:2248   */\n  swap6\n  pop\n    /* \"#utility.yul\":2130:2258   */\n  pop\n    /* \"#utility.yul\":2297:2299   */\n  0x20\n    /* \"#utility.yul\":2323:2387   */\n  tag_101\n    /* \"#utility.yul\":2379:2386   */\n  dup9\n    /* \"#utility.yul\":2370:2376   */\n  dup3\n    /* \"#utility.yul\":2359:2368   */\n  dup10\n    /* \"#utility.yul\":2355:2377   */\n  add\n    /* \"#utility.yul\":2323:2387   */\n  tag_71\n  jump\t// in\ntag_101:\n    /* \"#utility.yul\":2313:2387   */\n  swap5\n  pop\n    /* \"#utility.yul\":2268:2397   */\n  pop\n    /* \"#utility.yul\":2436:2438   */\n  0x40\n    /* \"#utility.yul\":2462:2526   */\n  tag_102\n    /* \"#utility.yul\":2518:2525   */\n  dup9\n    /* \"#utility.yul\":2509:2515   */\n  dup3\n    /* \"#utility.yul\":2498:2507   */\n  dup10\n    /* \"#utility.yul\":2494:2516   */\n  add\n    /* \"#utility.yul\":2462:2526   */\n  tag_71\n  jump\t// in\ntag_102:\n    /* \"#utility.yul\":2452:2526   */\n  swap4\n  pop\n    /* \"#utility.yul\":2407:2536   */\n  pop\n    /* \"#utility.yul\":2575:2577   */\n  0x60\n    /* \"#utility.yul\":2601:2665   */\n  tag_103\n    /* \"#utility.yul\":2657:2664   */\n  dup9\n    /* \"#utility.yul\":2648:2654   */\n  dup3\n    /* \"#utility.yul\":2637:2646   */\n  dup10\n    /* \"#utility.yul\":2633:2655   */\n  add\n    /* \"#utility.yul\":2601:2665   */\n  tag_71\n  jump\t// in\ntag_103:\n    /* \"#utility.yul\":2591:2665   */\n  swap3\n  pop\n    /* \"#utility.yul\":2546:2675   */\n  pop\n    /* \"#utility.yul\":2714:2717   */\n  0x80\n    /* \"#utility.yul\":2741:2805   */\n  tag_104\n    /* \"#utility.yul\":2797:2804   */\n  dup9\n    /* \"#utility.yul\":2788:2794   */\n  dup3\n    /* \"#utility.yul\":2777:2786   */\n  dup10\n    /* \"#utility.yul\":2773:2795   */\n  add\n    /* \"#utility.yul\":2741:2805   */\n  tag_71\n  jump\t// in\ntag_104:\n    /* \"#utility.yul\":2731:2805   */\n  swap2\n  pop\n    /* \"#utility.yul\":2685:2815   */\n  pop\n    /* \"#utility.yul\":1845:2822   */\n  swap3\n  swap6\n  pop\n  swap3\n  swap6\n  swap1\n  swap4\n  pop\n  jump\t// out\n    /* \"#utility.yul\":2828:3008   */\ntag_30:\n    /* \"#utility.yul\":2876:2953   */\n  0x4e487b7100000000000000000000000000000000000000000000000000000000\n    /* \"#utility.yul\":2873:2874   */\n  0x00\n    /* \"#utility.yul\":2866:2954   */\n  mstore\n    /* \"#utility.yul\":2973:2977   */\n  0x41\n    /* \"#utility.yul\":2970:2971   */\n  0x04\n    /* \"#utility.yul\":2963:2978   */\n  mstore\n    /* \"#utility.yul\":2997:3001   */\n  0x24\n    /* \"#utility.yul\":2994:2995   */\n  0x00\n    /* \"#utility.yul\":2987:3002   */\n  revert\n    /* \"#utility.yul\":3014:3247   */\ntag_40:\n    /* \"#utility.yul\":3053:3056   */\n  0x00\n    /* \"#utility.yul\":3076:3100   */\n  tag_107\n    /* \"#utility.yul\":3094:3099   */\n  dup3\n    /* \"#utility.yul\":3076:3100   */\n  tag_62\n  jump\t// in\ntag_107:\n    /* \"#utility.yul\":3067:3100   */\n  swap2\n  pop\n    /* \"#utility.yul\":3122:3188   */\n  0xffffffffffffffffffffffffffffffffffffffffffffffffffffffffffffffff\n    /* \"#utility.yul\":3115:3120   */\n  dup3\n    /* \"#utility.yul\":3112:3189   */\n  eq\n    /* \"#utility.yul\":3109:3212   */\n  iszero\n  tag_108\n  jumpi\n    /* \"#utility.yul\":3192:3210   */\n  tag_109\n  tag_63\n  jump\t// in\ntag_109:\n    /* \"#utility.yul\":3109:3212   */\ntag_108:\n    /* \"#utility.yul\":3239:3240   */\n  0x01\n    /* \"#utility.yul\":3232:3237   */\n  dup3\n    /* \"#utility.yul\":3228:3241   */\n  add\n    /* \"#utility.yul\":3221:3241   */\n  swap1\n  pop\n    /* \"#utility.yul\":3014:3247   */\n  swap2\n  swap1\n  pop\n  jump\t// out\n    /* \"tronbox/contracts/SmartGenie.sol\":124:24042  contract SmartGenie {... */\ntag_41:\n  dataSize(sub_0)\n  dup1\n  dataOffset(sub_0)\n  0x00\n  codecopy\n  0x00\n  return\nstop\n\nsub_0: assembly {\n        /* \"tronbox/contracts/SmartGenie.sol\":124:24042  contract SmartGenie {... */\n      mstore(0x40, 0x80)\n      jumpi(tag_1, lt(calldatasize, 0x04))\n      shr(0xe0, calldataload(0x00))\n      dup1\n      0x8853b53e\n      gt\n      tag_23\n      jumpi\n      dup1\n      0xa4bb170d\n      gt\n      tag_24\n      jumpi\n      dup1\n      0xa4bb170d\n      eq\n      tag_17\n      jumpi\n      dup1\n      0xa87430ba\n      eq\n      tag_18\n      jumpi\n      dup1\n      0xaa24c5c5\n      eq\n      tag_19\n      jumpi\n      dup1\n      0xbbf57068\n      eq\n      tag_20\n      jumpi\n      dup1\n      0xc15dec85\n      eq\n      tag_21\n      jumpi\n      dup1\n      0xf7bbfccd\n      eq\n      tag_22\n      jumpi\n      jump(tag_1)\n    tag_24:\n      dup1\n      0x8853b53e\n      eq\n      tag_12\n      jumpi\n      dup1\n      0x992c85d2\n      eq\n      tag_13\n      jumpi\n      dup1\n      0x99cbd74f\n      eq\n      tag_14\n      jumpi\n      dup1\n      0x9f4216e8\n      eq\n      tag_15\n      jumpi\n      dup1\n      0xa457c050\n      eq\n      tag_16\n      jumpi\n      jump(tag_1)\n    tag_23:\n      dup1\n      0x5e8a7069\n      gt\n      tag_25\n      jumpi\n      dup1\n      0x5e8a7069\n      eq\n      tag_7\n      jumpi\n      dup1\n      0x6043ddad\n      eq\n      tag_8\n      jumpi\n      dup1\n      0x6158fa00\n      eq\n      tag_9\n      jumpi\n      dup1\n      0x6f9fb98a\n      eq\n      tag_10\n      jumpi\n      dup1\n      0x79378e30\n      eq\n      tag_11\n      jumpi\n      jump(tag_1)\n    tag_25:\n      dup1\n      0x10e4077a\n      eq\n      tag_2\n      jumpi\n      dup1\n      0x36b19cd7\n      eq\n      tag_3\n      jumpi\n      dup1\n      0x43f6753c\n      eq\n      tag_4\n      jumpi\n      dup1\n      0x4d948bea\n      eq\n      tag_5\n      jumpi\n      dup1\n      0x575cea6b\n      eq\n      tag_6\n      jumpi\n    tag_1:\n      0x00\n      dup1\n      revert\n        /* \"tronbox/contracts/SmartGenie.sol\":950:984  address[4] public promotionWallets */\n    tag_2:\n      callvalue\n      dup1\n      iszero\n      tag_26\n      jumpi\n      0x00\n      dup1\n      revert\n    tag_26:\n      pop\n      tag_27\n      0x04\n      dup1\n      calldatasize\n      sub\n      dup2\n      add\n      swap1\n      tag_28\n      swap2\n      swap1\n      tag_29\n      jump\t// in\n    tag_28:\n      tag_30\n      jump\t// in\n    tag_27:\n      mload(0x40)\n      tag_31\n      swap2\n      swap1\n      tag_32\n      jump\t// in\n    tag_31:\n      mload(0x40)\n      dup1\n      swap2\n      sub\n      swap1\n      return\n        /* \"tronbox/contracts/SmartGenie.sol\":632:658  address public adminWallet */\n    tag_3:\n      callvalue\n      dup1\n      iszero\n      tag_33\n      jumpi\n      0x00\n      dup1\n      revert\n    tag_33:\n      pop\n      tag_34\n      tag_35\n      jump\t// in\n    tag_34:\n      mload(0x40)\n      tag_36\n      swap2\n      swap1\n      tag_32\n      jump\t// in\n    tag_36:\n      mload(0x40)\n      dup1\n      swap2\n      sub\n      swap1\n      return\n        /* \"tronbox/contracts/SmartGenie.sol\":1260:1335  mapping(uint256 => mapping(address => address)) public levelUpgradePayments */\n    tag_4:\n      callvalue\n      dup1\n      iszero\n      tag_37\n      jumpi\n      0x00\n      dup1\n      revert\n    tag_37:\n      pop\n      tag_38\n      0x04\n      dup1\n      calldatasize\n      sub\n      dup2\n      add\n      swap1\n      tag_39\n      swap2\n      swap1\n      tag_40\n      jump\t// in\n    tag_39:\n      tag_41\n      jump\t// in\n    tag_38:\n      mload(0x40)\n      tag_42\n      swap2\n      swap1\n      tag_32\n      jump\t// in\n    tag_42:\n      mload(0x40)\n      dup1\n      swap2\n      sub\n      swap1\n      return\n        /* \"tronbox/contracts/SmartGenie.sol\":1341:1418  mapping(uint256 => mapping(address => bool)) public isLevelUpgradedForAddress */\n    tag_5:\n      callvalue\n      dup1\n      iszero\n      tag_43\n      jumpi\n      0x00\n      dup1\n      revert\n    tag_43:\n      pop\n      tag_44\n      0x04\n      dup1\n      calldatasize\n      sub\n      dup2\n      add\n      swap1\n      tag_45\n      swap2\n      swap1\n      tag_40\n      jump\t// in\n    tag_45:\n      tag_46\n      jump\t// in\n    tag_44:\n      mload(0x40)\n      tag_47\n      swap2\n      swap1\n      tag_48\n      jump\t// in\n    tag_47:\n      mload(0x40)\n      dup1\n      swap2\n      sub\n      swap1\n      return\n        /* \"tronbox/contracts/SmartGenie.sol\":23710:23834  function getUserReferrals(address _user) public view returns(address[] memory) {... */\n    tag_6:\n      callvalue\n      dup1\n      iszero\n      tag_49\n      jumpi\n      0x00\n      dup1\n      revert\n    tag_49:\n      pop\n      tag_50\n      0x04\n      dup1\n      calldatasize\n      sub\n      dup2\n      add\n      swap1\n      tag_51\n      swap2\n      swap1\n      tag_52\n      jump\t// in\n    tag_51:\n      tag_53\n      jump\t// in\n    tag_50:\n      mload(0x40)\n      tag_54\n      swap2\n      swap1\n      tag_55\n      jump\t// in\n    tag_54:\n      mload(0x40)\n      dup1\n      swap2\n      sub\n      swap1\n      return\n        /* \"tronbox/contracts/SmartGenie.sol\":22436:22816  function transferURS() public returns (bool) {... */\n    tag_7:\n      callvalue\n      dup1\n      iszero\n      tag_56\n      jumpi\n      0x00\n      dup1\n      revert\n    tag_56:\n      pop\n      tag_57\n      tag_58\n      jump\t// in\n    tag_57:\n      mload(0x40)\n      tag_59\n      swap2\n      swap1\n      tag_48\n      jump\t// in\n    tag_59:\n      mload(0x40)\n      dup1\n      swap2\n      sub\n      swap1\n      return\n        /* \"tronbox/contracts/SmartGenie.sol\":990:1035  uint8[4] public promotionPercantage = [5,3,1] */\n    tag_8:\n      callvalue\n      dup1\n      iszero\n      tag_60\n      jumpi\n      0x00\n      dup1\n      revert\n    tag_60:\n      pop\n      tag_61\n      0x04\n      dup1\n      calldatasize\n      sub\n      dup2\n      add\n      swap1\n      tag_62\n      swap2\n      swap1\n      tag_29\n      jump\t// in\n    tag_62:\n      tag_63\n      jump\t// in\n    tag_61:\n      mload(0x40)\n      tag_64\n      swap2\n      swap1\n      tag_65\n      jump\t// in\n    tag_64:\n      mload(0x40)\n      dup1\n      swap2\n      sub\n      swap1\n      return\n        /* \"tronbox/contracts/SmartGenie.sol\":23534:23673  function getUserLevelEligibility(address _user) public view returns(uint256[] memory) {... */\n    tag_9:\n      callvalue\n      dup1\n      iszero\n      tag_66\n      jumpi\n      0x00\n      dup1\n      revert\n    tag_66:\n      pop\n      tag_67\n      0x04\n      dup1\n      calldatasize\n      sub\n      dup2\n      add\n      swap1\n      tag_68\n      swap2\n      swap1\n      tag_52\n      jump\t// in\n    tag_68:\n      tag_69\n      jump\t// in\n    tag_67:\n      mload(0x40)\n      tag_70\n      swap2\n      swap1\n      tag_71\n      jump\t// in\n    tag_70:\n      mload(0x40)\n      dup1\n      swap2\n      sub\n      swap1\n      return\n        /* \"tronbox/contracts/SmartGenie.sol\":23369:23481  function getContractBalance() public view returns(uint256) {... */\n    tag_10:\n      callvalue\n      dup1\n      iszero\n      tag_72\n      jumpi\n      0x00\n      dup1\n      revert\n    tag_72:\n      pop\n      tag_73\n      tag_74\n      jump\t// in\n    tag_73:\n      mload(0x40)\n      tag_75\n      swap2\n      swap1\n      tag_76\n      jump\t// in\n    tag_75:\n      mload(0x40)\n      dup1\n      swap2\n      sub\n      swap1\n      return\n        /* \"tronbox/contracts/SmartGenie.sol\":1046:1086  mapping(uint => uint) public LEVEL_PRICE */\n    tag_11:\n      callvalue\n      dup1\n      iszero\n      tag_77\n      jumpi\n      0x00\n      dup1\n      revert\n    tag_77:\n      pop\n      tag_78\n      0x04\n      dup1\n      calldatasize\n      sub\n      dup2\n      add\n      swap1\n      tag_79\n      swap2\n      swap1\n      tag_29\n      jump\t// in\n    tag_79:\n      tag_80\n      jump\t// in\n    tag_78:\n      mload(0x40)\n      tag_81\n      swap2\n      swap1\n      tag_76\n      jump\t// in\n    tag_81:\n      mload(0x40)\n      dup1\n      swap2\n      sub\n      swap1\n      return\n        /* \"tronbox/contracts/SmartGenie.sol\":3475:5797  function regUser(uint _referrerID) public payable returns (bool) {... */\n    tag_12:\n      tag_82\n      0x04\n      dup1\n      calldatasize\n      sub\n      dup2\n      add\n      swap1\n      tag_83\n      swap2\n      swap1\n      tag_29\n      jump\t// in\n    tag_83:\n      tag_84\n      jump\t// in\n    tag_82:\n      mload(0x40)\n      tag_85\n      swap2\n      swap1\n      tag_48\n      jump\t// in\n    tag_85:\n      mload(0x40)\n      dup1\n      swap2\n      sub\n      swap1\n      return\n        /* \"tronbox/contracts/SmartGenie.sol\":694:723  address public splPromoWallet */\n    tag_13:\n      callvalue\n      dup1\n      iszero\n      tag_86\n      jumpi\n      0x00\n      dup1\n      revert\n    tag_86:\n      pop\n      tag_87\n      tag_88\n      jump\t// in\n    tag_87:\n      mload(0x40)\n      tag_89\n      swap2\n      swap1\n      tag_32\n      jump\t// in\n    tag_89:\n      mload(0x40)\n      dup1\n      swap2\n      sub\n      swap1\n      return\n        /* \"tronbox/contracts/SmartGenie.sol\":21153:21937  function withdrawPromotion() public returns (bool) {... */\n    tag_14:\n      callvalue\n      dup1\n      iszero\n      tag_90\n      jumpi\n      0x00\n      dup1\n      revert\n    tag_90:\n      pop\n      tag_91\n      tag_92\n      jump\t// in\n    tag_91:\n      mload(0x40)\n      tag_93\n      swap2\n      swap1\n      tag_48\n      jump\t// in\n    tag_93:\n      mload(0x40)\n      dup1\n      swap2\n      sub\n      swap1\n      return\n        /* \"tronbox/contracts/SmartGenie.sol\":1141:1181  mapping(uint => address) public userList */\n    tag_15:\n      callvalue\n      dup1\n      iszero\n      tag_94\n      jumpi\n      0x00\n      dup1\n      revert\n    tag_94:\n      pop\n      tag_95\n      0x04\n      dup1\n      calldatasize\n      sub\n      dup2\n      add\n      swap1\n      tag_96\n      swap2\n      swap1\n      tag_29\n      jump\t// in\n    tag_96:\n      tag_97\n      jump\t// in\n    tag_95:\n      mload(0x40)\n      tag_98\n      swap2\n      swap1\n      tag_32\n      jump\t// in\n    tag_98:\n      mload(0x40)\n      dup1\n      swap2\n      sub\n      swap1\n      return\n        /* \"tronbox/contracts/SmartGenie.sol\":21987:22399  function withdrawSplPromotion() public returns (bool) {... */\n    tag_16:\n      callvalue\n      dup1\n      iszero\n      tag_99\n      jumpi\n      0x00\n      dup1\n      revert\n    tag_99:\n      pop\n      tag_100\n      tag_101\n      jump\t// in\n    tag_100:\n      mload(0x40)\n      tag_102\n      swap2\n      swap1\n      tag_48\n      jump\t// in\n    tag_102:\n      mload(0x40)\n      dup1\n      swap2\n      sub\n      swap1\n      return\n        /* \"tronbox/contracts/SmartGenie.sol\":1429:1455  uint public currUserID = 0 */\n    tag_17:\n      callvalue\n      dup1\n      iszero\n      tag_103\n      jumpi\n      0x00\n      dup1\n      revert\n    tag_103:\n      pop\n      tag_104\n      tag_105\n      jump\t// in\n    tag_104:\n      mload(0x40)\n      tag_106\n      swap2\n      swap1\n      tag_76\n      jump\t// in\n    tag_106:\n      mload(0x40)\n      dup1\n      swap2\n      sub\n      swap1\n      return\n        /* \"tronbox/contracts/SmartGenie.sol\":1092:1135  mapping(address => UserStruct) public users */\n    tag_18:\n      callvalue\n      dup1\n      iszero\n      tag_107\n      jumpi\n      0x00\n      dup1\n      revert\n    tag_107:\n      pop\n      tag_108\n      0x04\n      dup1\n      calldatasize\n      sub\n      dup2\n      add\n      swap1\n      tag_109\n      swap2\n      swap1\n      tag_52\n      jump\t// in\n    tag_109:\n      tag_110\n      jump\t// in\n    tag_108:\n      mload(0x40)\n      tag_111\n      swap5\n      swap4\n      swap3\n      swap2\n      swap1\n      tag_112\n      jump\t// in\n    tag_111:\n      mload(0x40)\n      dup1\n      swap2\n      sub\n      swap1\n      return\n        /* \"tronbox/contracts/SmartGenie.sol\":23890:24034  function getUserIncomeCount(address _user, uint256 _level) public view returns(uint256) {... */\n    tag_19:\n      callvalue\n      dup1\n      iszero\n      tag_113\n      jumpi\n      0x00\n      dup1\n      revert\n    tag_113:\n      pop\n      tag_114\n      0x04\n      dup1\n      calldatasize\n      sub\n      dup2\n      add\n      swap1\n      tag_115\n      swap2\n      swap1\n      tag_116\n      jump\t// in\n    tag_115:\n      tag_117\n      jump\t// in\n    tag_114:\n      mload(0x40)\n      tag_118\n      swap2\n      swap1\n      tag_76\n      jump\t// in\n    tag_118:\n      mload(0x40)\n      dup1\n      swap2\n      sub\n      swap1\n      return\n        /* \"tronbox/contracts/SmartGenie.sol\":1187:1254  mapping(uint256 => mapping(address => uint256)) public levelCounter */\n    tag_20:\n      callvalue\n      dup1\n      iszero\n      tag_119\n      jumpi\n      0x00\n      dup1\n      revert\n    tag_119:\n      pop\n      tag_120\n      0x04\n      dup1\n      calldatasize\n      sub\n      dup2\n      add\n      swap1\n      tag_121\n      swap2\n      swap1\n      tag_40\n      jump\t// in\n    tag_121:\n      tag_122\n      jump\t// in\n    tag_120:\n      mload(0x40)\n      tag_123\n      swap2\n      swap1\n      tag_76\n      jump\t// in\n    tag_123:\n      mload(0x40)\n      dup1\n      swap2\n      sub\n      swap1\n      return\n        /* \"tronbox/contracts/SmartGenie.sol\":664:688  address public ursWallet */\n    tag_21:\n      callvalue\n      dup1\n      iszero\n      tag_124\n      jumpi\n      0x00\n      dup1\n      revert\n    tag_124:\n      pop\n      tag_125\n      tag_126\n      jump\t// in\n    tag_125:\n      mload(0x40)\n      tag_127\n      swap2\n      swap1\n      tag_32\n      jump\t// in\n    tag_127:\n      mload(0x40)\n      dup1\n      swap2\n      sub\n      swap1\n      return\n        /* \"tronbox/contracts/SmartGenie.sol\":22902:23326  function updatePromotionWallet(address walletAddr, uint index) onlyAdmin public {... */\n    tag_22:\n      callvalue\n      dup1\n      iszero\n      tag_128\n      jumpi\n      0x00\n      dup1\n      revert\n    tag_128:\n      pop\n      tag_129\n      0x04\n      dup1\n      calldatasize\n      sub\n      dup2\n      add\n      swap1\n      tag_130\n      swap2\n      swap1\n      tag_116\n      jump\t// in\n    tag_130:\n      tag_131\n      jump\t// in\n    tag_129:\n      stop\n        /* \"tronbox/contracts/SmartGenie.sol\":950:984  address[4] public promotionWallets */\n    tag_30:\n      0x03\n      dup2\n      0x04\n      dup2\n      lt\n      tag_132\n      jumpi\n      0x00\n      dup1\n      revert\n    tag_132:\n      add\n      0x00\n      swap2\n      pop\n      sload\n      swap1\n      0x0100\n      exp\n      swap1\n      div\n      0xffffffffffffffffffffffffffffffffffffffff\n      and\n      dup2\n      jump\t// out\n        /* \"tronbox/contracts/SmartGenie.sol\":632:658  address public adminWallet */\n    tag_35:\n      0x00\n      dup1\n      sload\n      swap1\n      0x0100\n      exp\n      swap1\n      div\n      0xffffffffffffffffffffffffffffffffffffffff\n      and\n      dup2\n      jump\t// out\n        /* \"tronbox/contracts/SmartGenie.sol\":1260:1335  mapping(uint256 => mapping(address => address)) public levelUpgradePayments */\n    tag_41:\n      mstore(0x20, 0x0c)\n      dup2\n      0x00\n      mstore\n      mstore(0x20, keccak256(0x00, 0x40))\n      dup1\n      0x00\n      mstore\n      keccak256(0x00, 0x40)\n      0x00\n      swap2\n      pop\n      swap2\n      pop\n      swap1\n      sload\n      swap1\n      0x0100\n      exp\n      swap1\n      div\n      0xffffffffffffffffffffffffffffffffffffffff\n      and\n      dup2\n      jump\t// out\n        /* \"tronbox/contracts/SmartGenie.sol\":1341:1418  mapping(uint256 => mapping(address => bool)) public isLevelUpgradedForAddress */\n    tag_46:\n      mstore(0x20, 0x0d)\n      dup2\n      0x00\n      mstore\n      mstore(0x20, keccak256(0x00, 0x40))\n      dup1\n      0x00\n      mstore\n      keccak256(0x00, 0x40)\n      0x00\n      swap2\n      pop\n      swap2\n      pop\n      swap1\n      sload\n      swap1\n      0x0100\n      exp\n      swap1\n      div\n      0xff\n      and\n      dup2\n      jump\t// out\n        /* \"tronbox/contracts/SmartGenie.sol\":23710:23834  function getUserReferrals(address _user) public view returns(address[] memory) {... */\n    tag_53:\n        /* \"tronbox/contracts/SmartGenie.sol\":23771:23787  address[] memory */\n      0x60\n        /* \"tronbox/contracts/SmartGenie.sol\":23806:23811  users */\n      0x09\n        /* \"tronbox/contracts/SmartGenie.sol\":23806:23818  users[_user] */\n      0x00\n        /* \"tronbox/contracts/SmartGenie.sol\":23812:23817  _user */\n      dup4\n        /* \"tronbox/contracts/SmartGenie.sol\":23806:23818  users[_user] */\n      0xffffffffffffffffffffffffffffffffffffffff\n      and\n      0xffffffffffffffffffffffffffffffffffffffff\n      and\n      dup2\n      mstore\n      0x20\n      add\n      swap1\n      dup2\n      mstore\n      0x20\n      add\n      0x00\n      keccak256\n        /* \"tronbox/contracts/SmartGenie.sol\":23806:23827  users[_user].referral */\n      0x03\n      add\n        /* \"tronbox/contracts/SmartGenie.sol\":23799:23827  return users[_user].referral */\n      dup1\n      sload\n      dup1\n      0x20\n      mul\n      0x20\n      add\n      mload(0x40)\n      swap1\n      dup2\n      add\n      0x40\n      mstore\n      dup1\n      swap3\n      swap2\n      swap1\n      dup2\n      dup2\n      mstore\n      0x20\n      add\n      dup3\n      dup1\n      sload\n      dup1\n      iszero\n      tag_135\n      jumpi\n      0x20\n      mul\n      dup3\n      add\n      swap2\n      swap1\n      0x00\n      mstore\n      keccak256(0x00, 0x20)\n      swap1\n    tag_136:\n      dup2\n      0x00\n      swap1\n      sload\n      swap1\n      0x0100\n      exp\n      swap1\n      div\n      0xffffffffffffffffffffffffffffffffffffffff\n      and\n      0xffffffffffffffffffffffffffffffffffffffff\n      and\n      dup2\n      mstore\n      0x20\n      add\n      swap1\n      0x01\n      add\n      swap1\n      dup1\n      dup4\n      gt\n      tag_136\n      jumpi\n    tag_135:\n      pop\n      pop\n      pop\n      pop\n      pop\n      swap1\n      pop\n        /* \"tronbox/contracts/SmartGenie.sol\":23710:23834  function getUserReferrals(address _user) public view returns(address[] memory) {... */\n      swap2\n      swap1\n      pop\n      jump\t// out\n        /* \"tronbox/contracts/SmartGenie.sol\":22436:22816  function transferURS() public returns (bool) {... */\n    tag_58:\n        /* \"tronbox/contracts/SmartGenie.sol\":22475:22479  bool */\n      0x00\n        /* \"tronbox/contracts/SmartGenie.sol\":22513:22522  ursWallet */\n      0x01\n      0x00\n      swap1\n      sload\n      swap1\n      0x0100\n      exp\n      swap1\n      div\n      0xffffffffffffffffffffffffffffffffffffffff\n      and\n        /* \"tronbox/contracts/SmartGenie.sol\":22499:22522  msg.sender == ursWallet */\n      0xffffffffffffffffffffffffffffffffffffffff\n      and\n        /* \"tronbox/contracts/SmartGenie.sol\":22499:22509  msg.sender */\n      caller\n        /* \"tronbox/contracts/SmartGenie.sol\":22499:22522  msg.sender == ursWallet */\n      0xffffffffffffffffffffffffffffffffffffffff\n      and\n      eq\n        /* \"tronbox/contracts/SmartGenie.sol\":22491:22541  require(msg.sender == ursWallet, \"Invalid caller\") */\n      tag_138\n      jumpi\n      mload(0x40)\n      0x08c379a000000000000000000000000000000000000000000000000000000000\n      dup2\n      mstore\n      0x04\n      add\n      tag_139\n      swap1\n      tag_140\n      jump\t// in\n    tag_139:\n      mload(0x40)\n      dup1\n      swap2\n      sub\n      swap1\n      revert\n    tag_138:\n        /* \"tronbox/contracts/SmartGenie.sol\":22666:22678  bool success */\n      0x00\n        /* \"tronbox/contracts/SmartGenie.sol\":22700:22709  ursWallet */\n      0x01\n      0x00\n      swap1\n      sload\n      swap1\n      0x0100\n      exp\n      swap1\n      div\n      0xffffffffffffffffffffffffffffffffffffffff\n      and\n        /* \"tronbox/contracts/SmartGenie.sol\":22683:22717  (address(uint160(ursWallet))).call */\n      0xffffffffffffffffffffffffffffffffffffffff\n      and\n        /* \"tronbox/contracts/SmartGenie.sol\":22725:22731  ursAmt */\n      sload(0x11)\n        /* \"tronbox/contracts/SmartGenie.sol\":22683:22736  (address(uint160(ursWallet))).call{value: ursAmt}(\"\") */\n      mload(0x40)\n      tag_141\n      swap1\n      tag_142\n      jump\t// in\n    tag_141:\n      0x00\n      mload(0x40)\n      dup1\n      dup4\n      sub\n      dup2\n      dup6\n      dup8\n      gas\n      call\n      swap3\n      pop\n      pop\n      pop\n      returndatasize\n      dup1\n      0x00\n      dup2\n      eq\n      tag_145\n      jumpi\n      mload(0x40)\n      swap2\n      pop\n      and(add(returndatasize, 0x3f), not(0x1f))\n      dup3\n      add\n      0x40\n      mstore\n      returndatasize\n      dup3\n      mstore\n      returndatasize\n      0x00\n      0x20\n      dup5\n      add\n      returndatacopy\n      jump(tag_144)\n    tag_145:\n      0x60\n      swap2\n      pop\n    tag_144:\n      pop\n        /* \"tronbox/contracts/SmartGenie.sol\":22665:22736  (bool success,) = (address(uint160(ursWallet))).call{value: ursAmt}(\"\") */\n      pop\n      swap1\n      pop\n        /* \"tronbox/contracts/SmartGenie.sol\":22754:22761  success */\n      dup1\n        /* \"tronbox/contracts/SmartGenie.sol\":22746:22785  require(success, 'Transaction failed!') */\n      tag_146\n      jumpi\n      mload(0x40)\n      0x08c379a000000000000000000000000000000000000000000000000000000000\n      dup2\n      mstore\n      0x04\n      add\n      tag_147\n      swap1\n      tag_148\n      jump\t// in\n    tag_147:\n      mload(0x40)\n      dup1\n      swap2\n      sub\n      swap1\n      revert\n    tag_146:\n        /* \"tronbox/contracts/SmartGenie.sol\":22802:22809  success */\n      dup1\n        /* \"tronbox/contracts/SmartGenie.sol\":22795:22809  return success */\n      swap2\n      pop\n      pop\n        /* \"tronbox/contracts/SmartGenie.sol\":22436:22816  function transferURS() public returns (bool) {... */\n      swap1\n      jump\t// out\n        /* \"tronbox/contracts/SmartGenie.sol\":990:1035  uint8[4] public promotionPercantage = [5,3,1] */\n    tag_63:\n      0x07\n      dup2\n      0x04\n      dup2\n      lt\n      tag_149\n      jumpi\n      0x00\n      dup1\n      revert\n    tag_149:\n      0x20\n      swap2\n      dup3\n      dup3\n      div\n      add\n      swap2\n      swap1\n      mod\n      swap2\n      pop\n      sload\n      swap1\n      0x0100\n      exp\n      swap1\n      div\n      0xff\n      and\n      dup2\n      jump\t// out\n        /* \"tronbox/contracts/SmartGenie.sol\":23534:23673  function getUserLevelEligibility(address _user) public view returns(uint256[] memory) {... */\n    tag_69:\n        /* \"tronbox/contracts/SmartGenie.sol\":23602:23618  uint256[] memory */\n      0x60\n        /* \"tronbox/contracts/SmartGenie.sol\":23637:23642  users */\n      0x09\n        /* \"tronbox/contracts/SmartGenie.sol\":23637:23649  users[_user] */\n      0x00\n        /* \"tronbox/contracts/SmartGenie.sol\":23643:23648  _user */\n      dup4\n        /* \"tronbox/contracts/SmartGenie.sol\":23637:23649  users[_user] */\n      0xffffffffffffffffffffffffffffffffffffffff\n      and\n      0xffffffffffffffffffffffffffffffffffffffff\n      and\n      dup2\n      mstore\n      0x20\n      add\n      swap1\n      dup2\n      mstore\n      0x20\n      add\n      0x00\n      keccak256\n        /* \"tronbox/contracts/SmartGenie.sol\":23637:23666  users[_user].levelEligibility */\n      0x06\n      add\n        /* \"tronbox/contracts/SmartGenie.sol\":23630:23666  return users[_user].levelEligibility */\n      dup1\n      sload\n      dup1\n      0x20\n      mul\n      0x20\n      add\n      mload(0x40)\n      swap1\n      dup2\n      add\n      0x40\n      mstore\n      dup1\n      swap3\n      swap2\n      swap1\n      dup2\n      dup2\n      mstore\n      0x20\n      add\n      dup3\n      dup1\n      sload\n      dup1\n      iszero\n      tag_152\n      jumpi\n      0x20\n      mul\n      dup3\n      add\n      swap2\n      swap1\n      0x00\n      mstore\n      keccak256(0x00, 0x20)\n      swap1\n    tag_153:\n      dup2\n      sload\n      dup2\n      mstore\n      0x20\n      add\n      swap1\n      0x01\n      add\n      swap1\n      dup1\n      dup4\n      gt\n      tag_153\n      jumpi\n    tag_152:\n      pop\n      pop\n      pop\n      pop\n      pop\n      swap1\n      pop\n        /* \"tronbox/contracts/SmartGenie.sol\":23534:23673  function getUserLevelEligibility(address _user) public view returns(uint256[] memory) {... */\n      swap2\n      swap1\n      pop\n      jump\t// out\n        /* \"tronbox/contracts/SmartGenie.sol\":23369:23481  function getContractBalance() public view returns(uint256) {... */\n    tag_74:\n        /* \"tronbox/contracts/SmartGenie.sol\":23419:23426  uint256 */\n      0x00\n        /* \"tronbox/contracts/SmartGenie.sol\":23467:23474  1000000 */\n      0x0f4240\n        /* \"tronbox/contracts/SmartGenie.sol\":23445:23466  address(this).balance */\n      selfbalance\n        /* \"tronbox/contracts/SmartGenie.sol\":23445:23474  address(this).balance/1000000 */\n      tag_155\n      swap2\n      swap1\n      tag_156\n      jump\t// in\n    tag_155:\n        /* \"tronbox/contracts/SmartGenie.sol\":23438:23474  return address(this).balance/1000000 */\n      swap1\n      pop\n        /* \"tronbox/contracts/SmartGenie.sol\":23369:23481  function getContractBalance() public view returns(uint256) {... */\n      swap1\n      jump\t// out\n        /* \"tronbox/contracts/SmartGenie.sol\":1046:1086  mapping(uint => uint) public LEVEL_PRICE */\n    tag_80:\n      mstore(0x20, 0x08)\n      dup1\n      0x00\n      mstore\n      keccak256(0x00, 0x40)\n      0x00\n      swap2\n      pop\n      swap1\n      pop\n      sload\n      dup2\n      jump\t// out\n        /* \"tronbox/contracts/SmartGenie.sol\":3475:5797  function regUser(uint _referrerID) public payable returns (bool) {... */\n    tag_84:\n        /* \"tronbox/contracts/SmartGenie.sol\":3534:3538  bool */\n      0x00\n        /* \"tronbox/contracts/SmartGenie.sol\":3636:3641  users */\n      0x09\n        /* \"tronbox/contracts/SmartGenie.sol\":3636:3653  users[msg.sender] */\n      0x00\n        /* \"tronbox/contracts/SmartGenie.sol\":3642:3652  msg.sender */\n      caller\n        /* \"tronbox/contracts/SmartGenie.sol\":3636:3653  users[msg.sender] */\n      0xffffffffffffffffffffffffffffffffffffffff\n      and\n      0xffffffffffffffffffffffffffffffffffffffff\n      and\n      dup2\n      mstore\n      0x20\n      add\n      swap1\n      dup2\n      mstore\n      0x20\n      add\n      0x00\n      keccak256\n        /* \"tronbox/contracts/SmartGenie.sol\":3636:3661  users[msg.sender].isExist */\n      0x00\n      add\n      0x00\n      swap1\n      sload\n      swap1\n      0x0100\n      exp\n      swap1\n      div\n      0xff\n      and\n        /* \"tronbox/contracts/SmartGenie.sol\":3635:3661  !users[msg.sender].isExist */\n      iszero\n        /* \"tronbox/contracts/SmartGenie.sol\":3627:3676  require(!users[msg.sender].isExist, 'User exist') */\n      tag_158\n      jumpi\n      mload(0x40)\n      0x08c379a000000000000000000000000000000000000000000000000000000000\n      dup2\n      mstore\n      0x04\n      add\n      tag_159\n      swap1\n      tag_160\n      jump\t// in\n    tag_159:\n      mload(0x40)\n      dup1\n      swap2\n      sub\n      swap1\n      revert\n    tag_158:\n        /* \"tronbox/contracts/SmartGenie.sol\":3770:3771  0 */\n      0x00\n        /* \"tronbox/contracts/SmartGenie.sol\":3756:3767  _referrerID */\n      dup3\n        /* \"tronbox/contracts/SmartGenie.sol\":3756:3771  _referrerID > 0 */\n      gt\n        /* \"tronbox/contracts/SmartGenie.sol\":3756:3800  _referrerID > 0 && _referrerID <= currUserID */\n      dup1\n      iszero\n      tag_161\n      jumpi\n      pop\n        /* \"tronbox/contracts/SmartGenie.sol\":3790:3800  currUserID */\n      sload(0x0e)\n        /* \"tronbox/contracts/SmartGenie.sol\":3775:3786  _referrerID */\n      dup3\n        /* \"tronbox/contracts/SmartGenie.sol\":3775:3800  _referrerID <= currUserID */\n      gt\n      iszero\n        /* \"tronbox/contracts/SmartGenie.sol\":3756:3800  _referrerID > 0 && _referrerID <= currUserID */\n    tag_161:\n        /* \"tronbox/contracts/SmartGenie.sol\":3748:3826  require(_referrerID > 0 && _referrerID <= currUserID, 'Incorrect referrer Id') */\n      tag_162\n      jumpi\n      mload(0x40)\n      0x08c379a000000000000000000000000000000000000000000000000000000000\n      dup2\n      mstore\n      0x04\n      add\n      tag_163\n      swap1\n      tag_164\n      jump\t// in\n    tag_163:\n      mload(0x40)\n      dup1\n      swap2\n      sub\n      swap1\n      revert\n    tag_162:\n        /* \"tronbox/contracts/SmartGenie.sol\":3931:3937  regFee */\n      sload(0x12)\n        /* \"tronbox/contracts/SmartGenie.sol\":3918:3927  msg.value */\n      callvalue\n        /* \"tronbox/contracts/SmartGenie.sol\":3918:3937  msg.value == regFee */\n      eq\n        /* \"tronbox/contracts/SmartGenie.sol\":3910:3957  require(msg.value == regFee, 'Incorrect Value') */\n      tag_165\n      jumpi\n      mload(0x40)\n      0x08c379a000000000000000000000000000000000000000000000000000000000\n      dup2\n      mstore\n      0x04\n      add\n      tag_166\n      swap1\n      tag_167\n      jump\t// in\n    tag_166:\n      mload(0x40)\n      dup1\n      swap2\n      sub\n      swap1\n      revert\n    tag_165:\n        /* \"tronbox/contracts/SmartGenie.sol\":4033:4062  UserStruct storage userStruct */\n      0x00\n        /* \"tronbox/contracts/SmartGenie.sol\":4065:4070  users */\n      0x09\n        /* \"tronbox/contracts/SmartGenie.sol\":4065:4082  users[msg.sender] */\n      0x00\n        /* \"tronbox/contracts/SmartGenie.sol\":4071:4081  msg.sender */\n      caller\n        /* \"tronbox/contracts/SmartGenie.sol\":4065:4082  users[msg.sender] */\n      0xffffffffffffffffffffffffffffffffffffffff\n      and\n      0xffffffffffffffffffffffffffffffffffffffff\n      and\n      dup2\n      mstore\n      0x20\n      add\n      swap1\n      dup2\n      mstore\n      0x20\n      add\n      0x00\n      keccak256\n        /* \"tronbox/contracts/SmartGenie.sol\":4033:4082  UserStruct storage userStruct = users[msg.sender] */\n      swap1\n      pop\n        /* \"tronbox/contracts/SmartGenie.sol\":4113:4117  true */\n      0x01\n        /* \"tronbox/contracts/SmartGenie.sol\":4092:4102  userStruct */\n      dup2\n        /* \"tronbox/contracts/SmartGenie.sol\":4092:4110  userStruct.isExist */\n      0x00\n      add\n      0x00\n        /* \"tronbox/contracts/SmartGenie.sol\":4092:4117  userStruct.isExist = true */\n      0x0100\n      exp\n      dup2\n      sload\n      dup2\n      0xff\n      mul\n      not\n      and\n      swap1\n      dup4\n      iszero\n      iszero\n      mul\n      or\n      swap1\n      sstore\n      pop\n        /* \"tronbox/contracts/SmartGenie.sol\":4143:4153  currUserID */\n      sload(0x0e)\n        /* \"tronbox/contracts/SmartGenie.sol\":4127:4137  userStruct */\n      dup2\n        /* \"tronbox/contracts/SmartGenie.sol\":4127:4140  userStruct.id */\n      0x01\n      add\n        /* \"tronbox/contracts/SmartGenie.sol\":4127:4153  userStruct.id = currUserID */\n      dup2\n      swap1\n      sstore\n      pop\n        /* \"tronbox/contracts/SmartGenie.sol\":4187:4198  _referrerID */\n      dup3\n        /* \"tronbox/contracts/SmartGenie.sol\":4163:4173  userStruct */\n      dup2\n        /* \"tronbox/contracts/SmartGenie.sol\":4163:4184  userStruct.referrerID */\n      0x02\n      add\n        /* \"tronbox/contracts/SmartGenie.sol\":4163:4198  userStruct.referrerID = _referrerID */\n      dup2\n      swap1\n      sstore\n      pop\n        /* \"tronbox/contracts/SmartGenie.sol\":4244:4245  0 */\n      0x00\n        /* \"tronbox/contracts/SmartGenie.sol\":4230:4246  new address[](0) */\n      0xffffffffffffffff\n      dup2\n      gt\n      iszero\n      tag_168\n      jumpi\n      tag_169\n      tag_170\n      jump\t// in\n    tag_169:\n    tag_168:\n      mload(0x40)\n      swap1\n      dup1\n      dup3\n      mstore\n      dup1\n      0x20\n      mul\n      0x20\n      add\n      dup3\n      add\n      0x40\n      mstore\n      dup1\n      iszero\n      tag_171\n      jumpi\n      dup2\n      0x20\n      add\n      0x20\n      dup3\n      mul\n      dup1\n      calldatasize\n      dup4\n      calldatacopy\n      dup1\n      dup3\n      add\n      swap2\n      pop\n      pop\n      swap1\n      pop\n    tag_171:\n      pop\n        /* \"tronbox/contracts/SmartGenie.sol\":4208:4218  userStruct */\n      dup2\n        /* \"tronbox/contracts/SmartGenie.sol\":4208:4227  userStruct.referral */\n      0x03\n      add\n        /* \"tronbox/contracts/SmartGenie.sol\":4208:4246  userStruct.referral = new address[](0) */\n      swap1\n      dup1\n      mload\n      swap1\n      0x20\n      add\n      swap1\n      tag_172\n      swap3\n      swap2\n      swap1\n      tag_173\n      jump\t// in\n    tag_172:\n      pop\n        /* \"tronbox/contracts/SmartGenie.sol\":4276:4291  block.timestamp */\n      timestamp\n        /* \"tronbox/contracts/SmartGenie.sol\":4256:4266  userStruct */\n      dup2\n        /* \"tronbox/contracts/SmartGenie.sol\":4256:4273  userStruct.joined */\n      0x04\n      add\n        /* \"tronbox/contracts/SmartGenie.sol\":4256:4291  userStruct.joined = block.timestamp */\n      dup2\n      swap1\n      sstore\n      pop\n        /* \"tronbox/contracts/SmartGenie.sol\":4342:4343  0 */\n      0x00\n        /* \"tronbox/contracts/SmartGenie.sol\":4331:4344  new uint[](0) */\n      0xffffffffffffffff\n      dup2\n      gt\n      iszero\n      tag_174\n      jumpi\n      tag_175\n      tag_170\n      jump\t// in\n    tag_175:\n    tag_174:\n      mload(0x40)\n      swap1\n      dup1\n      dup3\n      mstore\n      dup1\n      0x20\n      mul\n      0x20\n      add\n      dup3\n      add\n      0x40\n      mstore\n      dup1\n      iszero\n      tag_176\n      jumpi\n      dup2\n      0x20\n      add\n      0x20\n      dup3\n      mul\n      dup1\n      calldatasize\n      dup4\n      calldatacopy\n      dup1\n      dup3\n      add\n      swap2\n      pop\n      pop\n      swap1\n      pop\n    tag_176:\n      pop\n        /* \"tronbox/contracts/SmartGenie.sol\":4301:4311  userStruct */\n      dup2\n        /* \"tronbox/contracts/SmartGenie.sol\":4301:4328  userStruct.levelEligibility */\n      0x06\n      add\n        /* \"tronbox/contracts/SmartGenie.sol\":4301:4344  userStruct.levelEligibility = new uint[](0) */\n      swap1\n      dup1\n      mload\n      swap1\n      0x20\n      add\n      swap1\n      tag_177\n      swap3\n      swap2\n      swap1\n      tag_178\n      jump\t// in\n    tag_177:\n      pop\n        /* \"tronbox/contracts/SmartGenie.sol\":4355:4365  currUserID */\n      0x0e\n      0x00\n        /* \"tronbox/contracts/SmartGenie.sol\":4355:4367  currUserID++ */\n      dup2\n      sload\n      dup1\n      swap3\n      swap2\n      swap1\n      tag_179\n      swap1\n      tag_180\n      jump\t// in\n    tag_179:\n      swap2\n      swap1\n      pop\n      sstore\n      pop\n        /* \"tronbox/contracts/SmartGenie.sol\":4454:4464  msg.sender */\n      caller\n        /* \"tronbox/contracts/SmartGenie.sol\":4431:4439  userList */\n      0x0a\n        /* \"tronbox/contracts/SmartGenie.sol\":4431:4451  userList[currUserID] */\n      0x00\n        /* \"tronbox/contracts/SmartGenie.sol\":4440:4450  currUserID */\n      sload(0x0e)\n        /* \"tronbox/contracts/SmartGenie.sol\":4431:4451  userList[currUserID] */\n      dup2\n      mstore\n      0x20\n      add\n      swap1\n      dup2\n      mstore\n      0x20\n      add\n      0x00\n      keccak256\n      0x00\n        /* \"tronbox/contracts/SmartGenie.sol\":4431:4464  userList[currUserID] = msg.sender */\n      0x0100\n      exp\n      dup2\n      sload\n      dup2\n      0xffffffffffffffffffffffffffffffffffffffff\n      mul\n      not\n      and\n      swap1\n      dup4\n      0xffffffffffffffffffffffffffffffffffffffff\n      and\n      mul\n      or\n      swap1\n      sstore\n      pop\n        /* \"tronbox/contracts/SmartGenie.sol\":4539:4544  users */\n      0x09\n        /* \"tronbox/contracts/SmartGenie.sol\":4539:4567  users[userList[_referrerID]] */\n      0x00\n        /* \"tronbox/contracts/SmartGenie.sol\":4545:4553  userList */\n      0x0a\n        /* \"tronbox/contracts/SmartGenie.sol\":4545:4566  userList[_referrerID] */\n      0x00\n        /* \"tronbox/contracts/SmartGenie.sol\":4554:4565  _referrerID */\n      dup7\n        /* \"tronbox/contracts/SmartGenie.sol\":4545:4566  userList[_referrerID] */\n      dup2\n      mstore\n      0x20\n      add\n      swap1\n      dup2\n      mstore\n      0x20\n      add\n      0x00\n      keccak256\n      0x00\n      swap1\n      sload\n      swap1\n      0x0100\n      exp\n      swap1\n      div\n      0xffffffffffffffffffffffffffffffffffffffff\n      and\n        /* \"tronbox/contracts/SmartGenie.sol\":4539:4567  users[userList[_referrerID]] */\n      0xffffffffffffffffffffffffffffffffffffffff\n      and\n      0xffffffffffffffffffffffffffffffffffffffff\n      and\n      dup2\n      mstore\n      0x20\n      add\n      swap1\n      dup2\n      mstore\n      0x20\n      add\n      0x00\n      keccak256\n        /* \"tronbox/contracts/SmartGenie.sol\":4539:4576  users[userList[_referrerID]].referral */\n      0x03\n      add\n        /* \"tronbox/contracts/SmartGenie.sol\":4582:4592  msg.sender */\n      caller\n        /* \"tronbox/contracts/SmartGenie.sol\":4539:4593  users[userList[_referrerID]].referral.push(msg.sender) */\n      swap1\n      dup1\n      0x01\n      dup2\n      sload\n      add\n      dup1\n      dup3\n      sstore\n      dup1\n      swap2\n      pop\n      pop\n      0x01\n      swap1\n      sub\n      swap1\n      0x00\n      mstore\n      keccak256(0x00, 0x20)\n      add\n      0x00\n      swap1\n      swap2\n      swap1\n      swap2\n      swap1\n      swap2\n      0x0100\n      exp\n      dup2\n      sload\n      dup2\n      0xffffffffffffffffffffffffffffffffffffffff\n      mul\n      not\n      and\n      swap1\n      dup4\n      0xffffffffffffffffffffffffffffffffffffffff\n      and\n      mul\n      or\n      swap1\n      sstore\n      pop\n        /* \"tronbox/contracts/SmartGenie.sol\":4662:4673  LEVEL_PRICE */\n      0x08\n        /* \"tronbox/contracts/SmartGenie.sol\":4662:4676  LEVEL_PRICE[1] */\n      0x00\n        /* \"tronbox/contracts/SmartGenie.sol\":4674:4675  1 */\n      0x01\n        /* \"tronbox/contracts/SmartGenie.sol\":4662:4676  LEVEL_PRICE[1] */\n      dup2\n      mstore\n      0x20\n      add\n      swap1\n      dup2\n      mstore\n      0x20\n      add\n      0x00\n      keccak256\n      sload\n        /* \"tronbox/contracts/SmartGenie.sol\":4652:4658  ursAmt */\n      0x11\n      0x00\n        /* \"tronbox/contracts/SmartGenie.sol\":4652:4676  ursAmt += LEVEL_PRICE[1] */\n      dup3\n      dup3\n      sload\n      tag_182\n      swap2\n      swap1\n      tag_183\n      jump\t// in\n    tag_182:\n      swap3\n      pop\n      pop\n      dup2\n      swap1\n      sstore\n      pop\n        /* \"tronbox/contracts/SmartGenie.sol\":4697:4711  promotionShare */\n      sload(0x14)\n        /* \"tronbox/contracts/SmartGenie.sol\":4686:4693  promAmt */\n      0x10\n      0x00\n        /* \"tronbox/contracts/SmartGenie.sol\":4686:4711  promAmt += promotionShare */\n      dup3\n      dup3\n      sload\n      tag_184\n      swap2\n      swap1\n      tag_183\n      jump\t// in\n    tag_184:\n      swap3\n      pop\n      pop\n      dup2\n      swap1\n      sstore\n      pop\n        /* \"tronbox/contracts/SmartGenie.sol\":4735:4748  splPromoShare */\n      sload(0x15)\n        /* \"tronbox/contracts/SmartGenie.sol\":4721:4731  splPromAmt */\n      0x0f\n      0x00\n        /* \"tronbox/contracts/SmartGenie.sol\":4721:4748  splPromAmt += splPromoShare */\n      dup3\n      dup3\n      sload\n      tag_185\n      swap2\n      swap1\n      tag_183\n      jump\t// in\n    tag_185:\n      swap3\n      pop\n      pop\n      dup2\n      swap1\n      sstore\n      pop\n        /* \"tronbox/contracts/SmartGenie.sol\":4867:4894  uint referrerReferralLength */\n      0x00\n        /* \"tronbox/contracts/SmartGenie.sol\":4897:4902  users */\n      0x09\n        /* \"tronbox/contracts/SmartGenie.sol\":4897:4925  users[userList[_referrerID]] */\n      0x00\n        /* \"tronbox/contracts/SmartGenie.sol\":4903:4911  userList */\n      0x0a\n        /* \"tronbox/contracts/SmartGenie.sol\":4903:4924  userList[_referrerID] */\n      0x00\n        /* \"tronbox/contracts/SmartGenie.sol\":4912:4923  _referrerID */\n      dup8\n        /* \"tronbox/contracts/SmartGenie.sol\":4903:4924  userList[_referrerID] */\n      dup2\n      mstore\n      0x20\n      add\n      swap1\n      dup2\n      mstore\n      0x20\n      add\n      0x00\n      keccak256\n      0x00\n      swap1\n      sload\n      swap1\n      0x0100\n      exp\n      swap1\n      div\n      0xffffffffffffffffffffffffffffffffffffffff\n      and\n        /* \"tronbox/contracts/SmartGenie.sol\":4897:4925  users[userList[_referrerID]] */\n      0xffffffffffffffffffffffffffffffffffffffff\n      and\n      0xffffffffffffffffffffffffffffffffffffffff\n      and\n      dup2\n      mstore\n      0x20\n      add\n      swap1\n      dup2\n      mstore\n      0x20\n      add\n      0x00\n      keccak256\n        /* \"tronbox/contracts/SmartGenie.sol\":4897:4934  users[userList[_referrerID]].referral */\n      0x03\n      add\n        /* \"tronbox/contracts/SmartGenie.sol\":4897:4941  users[userList[_referrerID]].referral.length */\n      dup1\n      sload\n      swap1\n      pop\n        /* \"tronbox/contracts/SmartGenie.sol\":4867:4941  uint referrerReferralLength = users[userList[_referrerID]].referral.length */\n      swap1\n      pop\n        /* \"tronbox/contracts/SmartGenie.sol\":4980:4981  1 */\n      0x01\n        /* \"tronbox/contracts/SmartGenie.sol\":4954:4976  referrerReferralLength */\n      dup2\n        /* \"tronbox/contracts/SmartGenie.sol\":4954:4981  referrerReferralLength != 1 */\n      eq\n      iszero\n        /* \"tronbox/contracts/SmartGenie.sol\":4954:5001  referrerReferralLength != 1 || _referrerID == 1 */\n      dup1\n      tag_186\n      jumpi\n      pop\n        /* \"tronbox/contracts/SmartGenie.sol\":5000:5001  1 */\n      0x01\n        /* \"tronbox/contracts/SmartGenie.sol\":4985:4996  _referrerID */\n      dup5\n        /* \"tronbox/contracts/SmartGenie.sol\":4985:5001  _referrerID == 1 */\n      eq\n        /* \"tronbox/contracts/SmartGenie.sol\":4954:5001  referrerReferralLength != 1 || _referrerID == 1 */\n    tag_186:\n        /* \"tronbox/contracts/SmartGenie.sol\":4951:5339  if(referrerReferralLength != 1 || _referrerID == 1) {... */\n      iszero\n      tag_187\n      jumpi\n        /* \"tronbox/contracts/SmartGenie.sol\":5054:5107  payment(1, msg.sender, referrerReferralLength, false) */\n      tag_188\n        /* \"tronbox/contracts/SmartGenie.sol\":5062:5063  1 */\n      0x01\n        /* \"tronbox/contracts/SmartGenie.sol\":5065:5075  msg.sender */\n      caller\n        /* \"tronbox/contracts/SmartGenie.sol\":5077:5099  referrerReferralLength */\n      dup4\n        /* \"tronbox/contracts/SmartGenie.sol\":5101:5106  false */\n      0x00\n        /* \"tronbox/contracts/SmartGenie.sol\":5054:5061  payment */\n      tag_189\n        /* \"tronbox/contracts/SmartGenie.sol\":5054:5107  payment(1, msg.sender, referrerReferralLength, false) */\n      jump\t// in\n    tag_188:\n        /* \"tronbox/contracts/SmartGenie.sol\":4951:5339  if(referrerReferralLength != 1 || _referrerID == 1) {... */\n      jump(tag_190)\n    tag_187:\n        /* \"tronbox/contracts/SmartGenie.sol\":5138:5143  users */\n      0x09\n        /* \"tronbox/contracts/SmartGenie.sol\":5138:5166  users[userList[_referrerID]] */\n      0x00\n        /* \"tronbox/contracts/SmartGenie.sol\":5144:5152  userList */\n      0x0a\n        /* \"tronbox/contracts/SmartGenie.sol\":5144:5165  userList[_referrerID] */\n      0x00\n        /* \"tronbox/contracts/SmartGenie.sol\":5153:5164  _referrerID */\n      dup8\n        /* \"tronbox/contracts/SmartGenie.sol\":5144:5165  userList[_referrerID] */\n      dup2\n      mstore\n      0x20\n      add\n      swap1\n      dup2\n      mstore\n      0x20\n      add\n      0x00\n      keccak256\n      0x00\n      swap1\n      sload\n      swap1\n      0x0100\n      exp\n      swap1\n      div\n      0xffffffffffffffffffffffffffffffffffffffff\n      and\n        /* \"tronbox/contracts/SmartGenie.sol\":5138:5166  users[userList[_referrerID]] */\n      0xffffffffffffffffffffffffffffffffffffffff\n      and\n      0xffffffffffffffffffffffffffffffffffffffff\n      and\n      dup2\n      mstore\n      0x20\n      add\n      swap1\n      dup2\n      mstore\n      0x20\n      add\n      0x00\n      keccak256\n        /* \"tronbox/contracts/SmartGenie.sol\":5138:5183  users[userList[_referrerID]].levelEligibility */\n      0x06\n      add\n        /* \"tronbox/contracts/SmartGenie.sol\":5189:5190  1 */\n      0x01\n        /* \"tronbox/contracts/SmartGenie.sol\":5138:5191  users[userList[_referrerID]].levelEligibility.push(1) */\n      swap1\n      dup1\n      0x01\n      dup2\n      sload\n      add\n      dup1\n      dup3\n      sstore\n      dup1\n      swap2\n      pop\n      pop\n      0x01\n      swap1\n      sub\n      swap1\n      0x00\n      mstore\n      keccak256(0x00, 0x20)\n      add\n      0x00\n      swap1\n      swap2\n      swap1\n      swap2\n      swap1\n      swap2\n      pop\n      sstore\n        /* \"tronbox/contracts/SmartGenie.sol\":5205:5221  address referrer */\n      0x00\n        /* \"tronbox/contracts/SmartGenie.sol\":5224:5232  userList */\n      0x0a\n        /* \"tronbox/contracts/SmartGenie.sol\":5224:5245  userList[_referrerID] */\n      0x00\n        /* \"tronbox/contracts/SmartGenie.sol\":5233:5244  _referrerID */\n      dup7\n        /* \"tronbox/contracts/SmartGenie.sol\":5224:5245  userList[_referrerID] */\n      dup2\n      mstore\n      0x20\n      add\n      swap1\n      dup2\n      mstore\n      0x20\n      add\n      0x00\n      keccak256\n      0x00\n      swap1\n      sload\n      swap1\n      0x0100\n      exp\n      swap1\n      div\n      0xffffffffffffffffffffffffffffffffffffffff\n      and\n        /* \"tronbox/contracts/SmartGenie.sol\":5205:5245  address referrer = userList[_referrerID] */\n      swap1\n      pop\n        /* \"tronbox/contracts/SmartGenie.sol\":5327:5328  1 */\n      0x01\n        /* \"tronbox/contracts/SmartGenie.sol\":5296:5301  users */\n      0x09\n        /* \"tronbox/contracts/SmartGenie.sol\":5296:5311  users[referrer] */\n      0x00\n        /* \"tronbox/contracts/SmartGenie.sol\":5302:5310  referrer */\n      dup4\n        /* \"tronbox/contracts/SmartGenie.sol\":5296:5311  users[referrer] */\n      0xffffffffffffffffffffffffffffffffffffffff\n      and\n      0xffffffffffffffffffffffffffffffffffffffff\n      and\n      dup2\n      mstore\n      0x20\n      add\n      swap1\n      dup2\n      mstore\n      0x20\n      add\n      0x00\n      keccak256\n        /* \"tronbox/contracts/SmartGenie.sol\":5296:5323  users[referrer].incomeCount */\n      0x05\n      add\n        /* \"tronbox/contracts/SmartGenie.sol\":5296:5326  users[referrer].incomeCount[1] */\n      0x00\n        /* \"tronbox/contracts/SmartGenie.sol\":5324:5325  1 */\n      0x01\n        /* \"tronbox/contracts/SmartGenie.sol\":5296:5326  users[referrer].incomeCount[1] */\n      dup2\n      mstore\n      0x20\n      add\n      swap1\n      dup2\n      mstore\n      0x20\n      add\n      0x00\n      keccak256\n      sload\n        /* \"tronbox/contracts/SmartGenie.sol\":5296:5328  users[referrer].incomeCount[1]+1 */\n      tag_192\n      swap2\n      swap1\n      tag_183\n      jump\t// in\n    tag_192:\n        /* \"tronbox/contracts/SmartGenie.sol\":5263:5268  users */\n      0x09\n        /* \"tronbox/contracts/SmartGenie.sol\":5263:5278  users[referrer] */\n      0x00\n        /* \"tronbox/contracts/SmartGenie.sol\":5269:5277  referrer */\n      dup4\n        /* \"tronbox/contracts/SmartGenie.sol\":5263:5278  users[referrer] */\n      0xffffffffffffffffffffffffffffffffffffffff\n      and\n      0xffffffffffffffffffffffffffffffffffffffff\n      and\n      dup2\n      mstore\n      0x20\n      add\n      swap1\n      dup2\n      mstore\n      0x20\n      add\n      0x00\n      keccak256\n        /* \"tronbox/contracts/SmartGenie.sol\":5263:5290  users[referrer].incomeCount */\n      0x05\n      add\n        /* \"tronbox/contracts/SmartGenie.sol\":5263:5293  users[referrer].incomeCount[1] */\n      0x00\n        /* \"tronbox/contracts/SmartGenie.sol\":5291:5292  1 */\n      0x01\n        /* \"tronbox/contracts/SmartGenie.sol\":5263:5293  users[referrer].incomeCount[1] */\n      dup2\n      mstore\n      0x20\n      add\n      swap1\n      dup2\n      mstore\n      0x20\n      add\n      0x00\n      keccak256\n        /* \"tronbox/contracts/SmartGenie.sol\":5263:5328  users[referrer].incomeCount[1] = users[referrer].incomeCount[1]+1 */\n      dup2\n      swap1\n      sstore\n      pop\n        /* \"tronbox/contracts/SmartGenie.sol\":5124:5339  {... */\n      pop\n        /* \"tronbox/contracts/SmartGenie.sol\":4951:5339  if(referrerReferralLength != 1 || _referrerID == 1) {... */\n    tag_190:\n        /* \"tronbox/contracts/SmartGenie.sol\":5521:5533  bool success */\n      0x00\n        /* \"tronbox/contracts/SmartGenie.sol\":5539:5547  userList */\n      0x0a\n        /* \"tronbox/contracts/SmartGenie.sol\":5539:5560  userList[_referrerID] */\n      0x00\n        /* \"tronbox/contracts/SmartGenie.sol\":5548:5559  _referrerID */\n      dup7\n        /* \"tronbox/contracts/SmartGenie.sol\":5539:5560  userList[_referrerID] */\n      dup2\n      mstore\n      0x20\n      add\n      swap1\n      dup2\n      mstore\n      0x20\n      add\n      0x00\n      keccak256\n      0x00\n      swap1\n      sload\n      swap1\n      0x0100\n      exp\n      swap1\n      div\n      0xffffffffffffffffffffffffffffffffffffffff\n      and\n        /* \"tronbox/contracts/SmartGenie.sol\":5538:5566  (userList[_referrerID]).call */\n      0xffffffffffffffffffffffffffffffffffffffff\n      and\n        /* \"tronbox/contracts/SmartGenie.sol\":5574:5582  regShare */\n      sload(0x13)\n        /* \"tronbox/contracts/SmartGenie.sol\":5538:5587  (userList[_referrerID]).call{value: regShare}(\"\") */\n      mload(0x40)\n      tag_193\n      swap1\n      tag_142\n      jump\t// in\n    tag_193:\n      0x00\n      mload(0x40)\n      dup1\n      dup4\n      sub\n      dup2\n      dup6\n      dup8\n      gas\n      call\n      swap3\n      pop\n      pop\n      pop\n      returndatasize\n      dup1\n      0x00\n      dup2\n      eq\n      tag_196\n      jumpi\n      mload(0x40)\n      swap2\n      pop\n      and(add(returndatasize, 0x3f), not(0x1f))\n      dup3\n      add\n      0x40\n      mstore\n      returndatasize\n      dup3\n      mstore\n      returndatasize\n      0x00\n      0x20\n      dup5\n      add\n      returndatacopy\n      jump(tag_195)\n    tag_196:\n      0x60\n      swap2\n      pop\n    tag_195:\n      pop\n        /* \"tronbox/contracts/SmartGenie.sol\":5520:5587  (bool success,) = (userList[_referrerID]).call{value: regShare}(\"\") */\n      pop\n      swap1\n      pop\n        /* \"tronbox/contracts/SmartGenie.sol\":5605:5612  success */\n      dup1\n        /* \"tronbox/contracts/SmartGenie.sol\":5597:5636  require(success, 'Transaction failed!') */\n      tag_197\n      jumpi\n      mload(0x40)\n      0x08c379a000000000000000000000000000000000000000000000000000000000\n      dup2\n      mstore\n      0x04\n      add\n      tag_198\n      swap1\n      tag_148\n      jump\t// in\n    tag_198:\n      mload(0x40)\n      dup1\n      swap2\n      sub\n      swap1\n      revert\n    tag_197:\n        /* \"tronbox/contracts/SmartGenie.sol\":5718:5726  userList */\n      0x0a\n        /* \"tronbox/contracts/SmartGenie.sol\":5718:5739  userList[_referrerID] */\n      0x00\n        /* \"tronbox/contracts/SmartGenie.sol\":5727:5738  _referrerID */\n      dup7\n        /* \"tronbox/contracts/SmartGenie.sol\":5718:5739  userList[_referrerID] */\n      dup2\n      mstore\n      0x20\n      add\n      swap1\n      dup2\n      mstore\n      0x20\n      add\n      0x00\n      keccak256\n      0x00\n      swap1\n      sload\n      swap1\n      0x0100\n      exp\n      swap1\n      div\n      0xffffffffffffffffffffffffffffffffffffffff\n      and\n        /* \"tronbox/contracts/SmartGenie.sol\":5692:5757  regLevelEvent(msg.sender, userList[_referrerID], block.timestamp) */\n      0xffffffffffffffffffffffffffffffffffffffff\n      and\n        /* \"tronbox/contracts/SmartGenie.sol\":5706:5716  msg.sender */\n      caller\n        /* \"tronbox/contracts/SmartGenie.sol\":5692:5757  regLevelEvent(msg.sender, userList[_referrerID], block.timestamp) */\n      0xffffffffffffffffffffffffffffffffffffffff\n      and\n      0x788c06d2405ae89dd3f0528d38be7691289474d72176408bc2c2406dc5e342f1\n        /* \"tronbox/contracts/SmartGenie.sol\":5741:5756  block.timestamp */\n      timestamp\n        /* \"tronbox/contracts/SmartGenie.sol\":5692:5757  regLevelEvent(msg.sender, userList[_referrerID], block.timestamp) */\n      mload(0x40)\n      tag_199\n      swap2\n      swap1\n      tag_76\n      jump\t// in\n    tag_199:\n      mload(0x40)\n      dup1\n      swap2\n      sub\n      swap1\n      log3\n        /* \"tronbox/contracts/SmartGenie.sol\":5774:5781  success */\n      dup1\n        /* \"tronbox/contracts/SmartGenie.sol\":5767:5781  return success */\n      swap4\n      pop\n      pop\n      pop\n      pop\n        /* \"tronbox/contracts/SmartGenie.sol\":3475:5797  function regUser(uint _referrerID) public payable returns (bool) {... */\n      swap2\n      swap1\n      pop\n      jump\t// out\n        /* \"tronbox/contracts/SmartGenie.sol\":694:723  address public splPromoWallet */\n    tag_88:\n      0x02\n      0x00\n      swap1\n      sload\n      swap1\n      0x0100\n      exp\n      swap1\n      div\n      0xffffffffffffffffffffffffffffffffffffffff\n      and\n      dup2\n      jump\t// out\n        /* \"tronbox/contracts/SmartGenie.sol\":21153:21937  function withdrawPromotion() public returns (bool) {... */\n    tag_92:\n        /* \"tronbox/contracts/SmartGenie.sol\":21198:21202  bool */\n      0x00\n        /* \"tronbox/contracts/SmartGenie.sol\":21214:21230  bool checkCaller */\n      dup1\n        /* \"tronbox/contracts/SmartGenie.sol\":21233:21238  false */\n      0x00\n        /* \"tronbox/contracts/SmartGenie.sol\":21214:21238  bool checkCaller = false */\n      swap1\n      pop\n        /* \"tronbox/contracts/SmartGenie.sol\":21248:21264  uint callerIndex */\n      0x00\n        /* \"tronbox/contracts/SmartGenie.sol\":21283:21289  uint i */\n      dup1\n        /* \"tronbox/contracts/SmartGenie.sol\":21278:21499  for (uint i = 0; i < promotionWallets.length; i++) {... */\n    tag_201:\n        /* \"tronbox/contracts/SmartGenie.sol\":21299:21322  promotionWallets.length */\n      0x04\n        /* \"tronbox/contracts/SmartGenie.sol\":21295:21296  i */\n      dup2\n        /* \"tronbox/contracts/SmartGenie.sol\":21295:21322  i < promotionWallets.length */\n      lt\n        /* \"tronbox/contracts/SmartGenie.sol\":21278:21499  for (uint i = 0; i < promotionWallets.length; i++) {... */\n      iszero\n      tag_202\n      jumpi\n        /* \"tronbox/contracts/SmartGenie.sol\":21370:21380  msg.sender */\n      caller\n        /* \"tronbox/contracts/SmartGenie.sol\":21347:21380  promotionWallets[i] == msg.sender */\n      0xffffffffffffffffffffffffffffffffffffffff\n      and\n        /* \"tronbox/contracts/SmartGenie.sol\":21347:21363  promotionWallets */\n      0x03\n        /* \"tronbox/contracts/SmartGenie.sol\":21364:21365  i */\n      dup3\n        /* \"tronbox/contracts/SmartGenie.sol\":21347:21366  promotionWallets[i] */\n      0x04\n      dup2\n      lt\n      tag_204\n      jumpi\n      tag_205\n      tag_206\n      jump\t// in\n    tag_205:\n    tag_204:\n      add\n      0x00\n      swap1\n      sload\n      swap1\n      0x0100\n      exp\n      swap1\n      div\n      0xffffffffffffffffffffffffffffffffffffffff\n      and\n        /* \"tronbox/contracts/SmartGenie.sol\":21347:21380  promotionWallets[i] == msg.sender */\n      0xffffffffffffffffffffffffffffffffffffffff\n      and\n      eq\n        /* \"tronbox/contracts/SmartGenie.sol\":21343:21489  if (promotionWallets[i] == msg.sender) {... */\n      iszero\n      tag_208\n      jumpi\n        /* \"tronbox/contracts/SmartGenie.sol\":21414:21418  true */\n      0x01\n        /* \"tronbox/contracts/SmartGenie.sol\":21400:21418  checkCaller = true */\n      swap3\n      pop\n        /* \"tronbox/contracts/SmartGenie.sol\":21450:21451  i */\n      dup1\n        /* \"tronbox/contracts/SmartGenie.sol\":21436:21451  callerIndex = i */\n      swap2\n      pop\n        /* \"tronbox/contracts/SmartGenie.sol\":21469:21474  break */\n      jump(tag_202)\n        /* \"tronbox/contracts/SmartGenie.sol\":21343:21489  if (promotionWallets[i] == msg.sender) {... */\n    tag_208:\n        /* \"tronbox/contracts/SmartGenie.sol\":21324:21327  i++ */\n      dup1\n      dup1\n      tag_209\n      swap1\n      tag_180\n      jump\t// in\n    tag_209:\n      swap2\n      pop\n      pop\n        /* \"tronbox/contracts/SmartGenie.sol\":21278:21499  for (uint i = 0; i < promotionWallets.length; i++) {... */\n      jump(tag_201)\n    tag_202:\n      pop\n        /* \"tronbox/contracts/SmartGenie.sol\":21532:21536  true */\n      0x01\n        /* \"tronbox/contracts/SmartGenie.sol\":21517:21536  checkCaller == true */\n      iszero\n      iszero\n        /* \"tronbox/contracts/SmartGenie.sol\":21517:21528  checkCaller */\n      dup3\n        /* \"tronbox/contracts/SmartGenie.sol\":21517:21536  checkCaller == true */\n      iszero\n      iszero\n      eq\n        /* \"tronbox/contracts/SmartGenie.sol\":21509:21555  require(checkCaller == true, \"Invalid caller\") */\n      tag_210\n      jumpi\n      mload(0x40)\n      0x08c379a000000000000000000000000000000000000000000000000000000000\n      dup2\n      mstore\n      0x04\n      add\n      tag_211\n      swap1\n      tag_140\n      jump\t// in\n    tag_211:\n      mload(0x40)\n      dup1\n      swap2\n      sub\n      swap1\n      revert\n    tag_210:\n        /* \"tronbox/contracts/SmartGenie.sol\":21565:21587  uint maxEligibleAmount */\n      0x00\n        /* \"tronbox/contracts/SmartGenie.sol\":21635:21638  100 */\n      0x64\n        /* \"tronbox/contracts/SmartGenie.sol\":21601:21620  promotionPercantage */\n      0x07\n        /* \"tronbox/contracts/SmartGenie.sol\":21621:21632  callerIndex */\n      dup4\n        /* \"tronbox/contracts/SmartGenie.sol\":21601:21633  promotionPercantage[callerIndex] */\n      0x04\n      dup2\n      lt\n      tag_212\n      jumpi\n      tag_213\n      tag_206\n      jump\t// in\n    tag_213:\n    tag_212:\n      0x20\n      swap2\n      dup3\n      dup3\n      div\n      add\n      swap2\n      swap1\n      mod\n      swap1\n      sload\n      swap1\n      0x0100\n      exp\n      swap1\n      div\n      0xff\n      and\n        /* \"tronbox/contracts/SmartGenie.sol\":21591:21633  promAmt * promotionPercantage[callerIndex] */\n      0xff\n      and\n        /* \"tronbox/contracts/SmartGenie.sol\":21591:21598  promAmt */\n      sload(0x10)\n        /* \"tronbox/contracts/SmartGenie.sol\":21591:21633  promAmt * promotionPercantage[callerIndex] */\n      tag_215\n      swap2\n      swap1\n      tag_216\n      jump\t// in\n    tag_215:\n        /* \"tronbox/contracts/SmartGenie.sol\":21590:21638  (promAmt * promotionPercantage[callerIndex])/100 */\n      tag_217\n      swap2\n      swap1\n      tag_156\n      jump\t// in\n    tag_217:\n        /* \"tronbox/contracts/SmartGenie.sol\":21565:21638  uint maxEligibleAmount = (promAmt * promotionPercantage[callerIndex])/100 */\n      swap1\n      pop\n        /* \"tronbox/contracts/SmartGenie.sol\":21775:21787  bool success */\n      0x00\n        /* \"tronbox/contracts/SmartGenie.sol\":21809:21819  msg.sender */\n      caller\n        /* \"tronbox/contracts/SmartGenie.sol\":21792:21827  (address(uint160(msg.sender))).call */\n      0xffffffffffffffffffffffffffffffffffffffff\n      and\n        /* \"tronbox/contracts/SmartGenie.sol\":21835:21852  maxEligibleAmount */\n      dup3\n        /* \"tronbox/contracts/SmartGenie.sol\":21792:21857  (address(uint160(msg.sender))).call{value: maxEligibleAmount}(\"\") */\n      mload(0x40)\n      tag_218\n      swap1\n      tag_142\n      jump\t// in\n    tag_218:\n      0x00\n      mload(0x40)\n      dup1\n      dup4\n      sub\n      dup2\n      dup6\n      dup8\n      gas\n      call\n      swap3\n      pop\n      pop\n      pop\n      returndatasize\n      dup1\n      0x00\n      dup2\n      eq\n      tag_221\n      jumpi\n      mload(0x40)\n      swap2\n      pop\n      and(add(returndatasize, 0x3f), not(0x1f))\n      dup3\n      add\n      0x40\n      mstore\n      returndatasize\n      dup3\n      mstore\n      returndatasize\n      0x00\n      0x20\n      dup5\n      add\n      returndatacopy\n      jump(tag_220)\n    tag_221:\n      0x60\n      swap2\n      pop\n    tag_220:\n      pop\n        /* \"tronbox/contracts/SmartGenie.sol\":21774:21857  (bool success,) = (address(uint160(msg.sender))).call{value: maxEligibleAmount}(\"\") */\n      pop\n      swap1\n      pop\n        /* \"tronbox/contracts/SmartGenie.sol\":21875:21882  success */\n      dup1\n        /* \"tronbox/contracts/SmartGenie.sol\":21867:21906  require(success, 'Transaction failed!') */\n      tag_222\n      jumpi\n      mload(0x40)\n      0x08c379a000000000000000000000000000000000000000000000000000000000\n      dup2\n      mstore\n      0x04\n      add\n      tag_223\n      swap1\n      tag_148\n      jump\t// in\n    tag_223:\n      mload(0x40)\n      dup1\n      swap2\n      sub\n      swap1\n      revert\n    tag_222:\n        /* \"tronbox/contracts/SmartGenie.sol\":21923:21930  success */\n      dup1\n        /* \"tronbox/contracts/SmartGenie.sol\":21916:21930  return success */\n      swap5\n      pop\n      pop\n      pop\n      pop\n      pop\n        /* \"tronbox/contracts/SmartGenie.sol\":21153:21937  function withdrawPromotion() public returns (bool) {... */\n      swap1\n      jump\t// out\n        /* \"tronbox/contracts/SmartGenie.sol\":1141:1181  mapping(uint => address) public userList */\n    tag_97:\n      mstore(0x20, 0x0a)\n      dup1\n      0x00\n      mstore\n      keccak256(0x00, 0x40)\n      0x00\n      swap2\n      pop\n      sload\n      swap1\n      0x0100\n      exp\n      swap1\n      div\n      0xffffffffffffffffffffffffffffffffffffffff\n      and\n      dup2\n      jump\t// out\n        /* \"tronbox/contracts/SmartGenie.sol\":21987:22399  function withdrawSplPromotion() public returns (bool) {... */\n    tag_101:\n        /* \"tronbox/contracts/SmartGenie.sol\":22035:22039  bool */\n      0x00\n        /* \"tronbox/contracts/SmartGenie.sol\":22073:22087  splPromoWallet */\n      0x02\n      0x00\n      swap1\n      sload\n      swap1\n      0x0100\n      exp\n      swap1\n      div\n      0xffffffffffffffffffffffffffffffffffffffff\n      and\n        /* \"tronbox/contracts/SmartGenie.sol\":22059:22087  msg.sender == splPromoWallet */\n      0xffffffffffffffffffffffffffffffffffffffff\n      and\n        /* \"tronbox/contracts/SmartGenie.sol\":22059:22069  msg.sender */\n      caller\n        /* \"tronbox/contracts/SmartGenie.sol\":22059:22087  msg.sender == splPromoWallet */\n      0xffffffffffffffffffffffffffffffffffffffff\n      and\n      eq\n        /* \"tronbox/contracts/SmartGenie.sol\":22051:22106  require(msg.sender == splPromoWallet, \"Invalid caller\") */\n      tag_225\n      jumpi\n      mload(0x40)\n      0x08c379a000000000000000000000000000000000000000000000000000000000\n      dup2\n      mstore\n      0x04\n      add\n      tag_226\n      swap1\n      tag_140\n      jump\t// in\n    tag_226:\n      mload(0x40)\n      dup1\n      swap2\n      sub\n      swap1\n      revert\n    tag_225:\n        /* \"tronbox/contracts/SmartGenie.sol\":22240:22252  bool success */\n      0x00\n        /* \"tronbox/contracts/SmartGenie.sol\":22274:22288  splPromoWallet */\n      0x02\n      0x00\n      swap1\n      sload\n      swap1\n      0x0100\n      exp\n      swap1\n      div\n      0xffffffffffffffffffffffffffffffffffffffff\n      and\n        /* \"tronbox/contracts/SmartGenie.sol\":22257:22296  (address(uint160(splPromoWallet))).call */\n      0xffffffffffffffffffffffffffffffffffffffff\n      and\n        /* \"tronbox/contracts/SmartGenie.sol\":22304:22314  splPromAmt */\n      sload(0x0f)\n        /* \"tronbox/contracts/SmartGenie.sol\":22257:22319  (address(uint160(splPromoWallet))).call{value: splPromAmt}(\"\") */\n      mload(0x40)\n      tag_227\n      swap1\n      tag_142\n      jump\t// in\n    tag_227:\n      0x00\n      mload(0x40)\n      dup1\n      dup4\n      sub\n      dup2\n      dup6\n      dup8\n      gas\n      call\n      swap3\n      pop\n      pop\n      pop\n      returndatasize\n      dup1\n      0x00\n      dup2\n      eq\n      tag_230\n      jumpi\n      mload(0x40)\n      swap2\n      pop\n      and(add(returndatasize, 0x3f), not(0x1f))\n      dup3\n      add\n      0x40\n      mstore\n      returndatasize\n      dup3\n      mstore\n      returndatasize\n      0x00\n      0x20\n      dup5\n      add\n      returndatacopy\n      jump(tag_229)\n    tag_230:\n      0x60\n      swap2\n      pop\n    tag_229:\n      pop\n        /* \"tronbox/contracts/SmartGenie.sol\":22239:22319  (bool success,) = (address(uint160(splPromoWallet))).call{value: splPromAmt}(\"\") */\n      pop\n      swap1\n      pop\n        /* \"tronbox/contracts/SmartGenie.sol\":22337:22344  success */\n      dup1\n        /* \"tronbox/contracts/SmartGenie.sol\":22329:22368  require(success, 'Transaction failed!') */\n      tag_231\n      jumpi\n      mload(0x40)\n      0x08c379a000000000000000000000000000000000000000000000000000000000\n      dup2\n      mstore\n      0x04\n      add\n      tag_232\n      swap1\n      tag_148\n      jump\t// in\n    tag_232:\n      mload(0x40)\n      dup1\n      swap2\n      sub\n      swap1\n      revert\n    tag_231:\n        /* \"tronbox/contracts/SmartGenie.sol\":22385:22392  success */\n      dup1\n        /* \"tronbox/contracts/SmartGenie.sol\":22378:22392  return success */\n      swap2\n      pop\n      pop\n        /* \"tronbox/contracts/SmartGenie.sol\":21987:22399  function withdrawSplPromotion() public returns (bool) {... */\n      swap1\n      jump\t// out\n        /* \"tronbox/contracts/SmartGenie.sol\":1429:1455  uint public currUserID = 0 */\n    tag_105:\n      sload(0x0e)\n      dup2\n      jump\t// out\n        /* \"tronbox/contracts/SmartGenie.sol\":1092:1135  mapping(address => UserStruct) public users */\n    tag_110:\n      mstore(0x20, 0x09)\n      dup1\n      0x00\n      mstore\n      keccak256(0x00, 0x40)\n      0x00\n      swap2\n      pop\n      swap1\n      pop\n      dup1\n      0x00\n      add\n      0x00\n      swap1\n      sload\n      swap1\n      0x0100\n      exp\n      swap1\n      div\n      0xff\n      and\n      swap1\n      dup1\n      0x01\n      add\n      sload\n      swap1\n      dup1\n      0x02\n      add\n      sload\n      swap1\n      dup1\n      0x04\n      add\n      sload\n      swap1\n      pop\n      dup5\n      jump\t// out\n        /* \"tronbox/contracts/SmartGenie.sol\":23890:24034  function getUserIncomeCount(address _user, uint256 _level) public view returns(uint256) {... */\n    tag_117:\n        /* \"tronbox/contracts/SmartGenie.sol\":23969:23976  uint256 */\n      0x00\n        /* \"tronbox/contracts/SmartGenie.sol\":23995:24000  users */\n      0x09\n        /* \"tronbox/contracts/SmartGenie.sol\":23995:24007  users[_user] */\n      0x00\n        /* \"tronbox/contracts/SmartGenie.sol\":24001:24006  _user */\n      dup5\n        /* \"tronbox/contracts/SmartGenie.sol\":23995:24007  users[_user] */\n      0xffffffffffffffffffffffffffffffffffffffff\n      and\n      0xffffffffffffffffffffffffffffffffffffffff\n      and\n      dup2\n      mstore\n      0x20\n      add\n      swap1\n      dup2\n      mstore\n      0x20\n      add\n      0x00\n      keccak256\n        /* \"tronbox/contracts/SmartGenie.sol\":23995:24019  users[_user].incomeCount */\n      0x05\n      add\n        /* \"tronbox/contracts/SmartGenie.sol\":23995:24027  users[_user].incomeCount[_level] */\n      0x00\n        /* \"tronbox/contracts/SmartGenie.sol\":24020:24026  _level */\n      dup4\n        /* \"tronbox/contracts/SmartGenie.sol\":23995:24027  users[_user].incomeCount[_level] */\n      dup2\n      mstore\n      0x20\n      add\n      swap1\n      dup2\n      mstore\n      0x20\n      add\n      0x00\n      keccak256\n      sload\n        /* \"tronbox/contracts/SmartGenie.sol\":23988:24027  return users[_user].incomeCount[_level] */\n      swap1\n      pop\n        /* \"tronbox/contracts/SmartGenie.sol\":23890:24034  function getUserIncomeCount(address _user, uint256 _level) public view returns(uint256) {... */\n      swap3\n      swap2\n      pop\n      pop\n      jump\t// out\n        /* \"tronbox/contracts/SmartGenie.sol\":1187:1254  mapping(uint256 => mapping(address => uint256)) public levelCounter */\n    tag_122:\n      mstore(0x20, 0x0b)\n      dup2\n      0x00\n      mstore\n      mstore(0x20, keccak256(0x00, 0x40))\n      dup1\n      0x00\n      mstore\n      keccak256(0x00, 0x40)\n      0x00\n      swap2\n      pop\n      swap2\n      pop\n      pop\n      sload\n      dup2\n      jump\t// out\n        /* \"tronbox/contracts/SmartGenie.sol\":664:688  address public ursWallet */\n    tag_126:\n      0x01\n      0x00\n      swap1\n      sload\n      swap1\n      0x0100\n      exp\n      swap1\n      div\n      0xffffffffffffffffffffffffffffffffffffffff\n      and\n      dup2\n      jump\t// out\n        /* \"tronbox/contracts/SmartGenie.sol\":22902:23326  function updatePromotionWallet(address walletAddr, uint index) onlyAdmin public {... */\n    tag_131:\n        /* \"tronbox/contracts/SmartGenie.sol\":2115:2126  adminWallet */\n      0x00\n      dup1\n      sload\n      swap1\n      0x0100\n      exp\n      swap1\n      div\n      0xffffffffffffffffffffffffffffffffffffffff\n      and\n        /* \"tronbox/contracts/SmartGenie.sol\":2101:2126  msg.sender == adminWallet */\n      0xffffffffffffffffffffffffffffffffffffffff\n      and\n        /* \"tronbox/contracts/SmartGenie.sol\":2101:2111  msg.sender */\n      caller\n        /* \"tronbox/contracts/SmartGenie.sol\":2101:2126  msg.sender == adminWallet */\n      0xffffffffffffffffffffffffffffffffffffffff\n      and\n      eq\n        /* \"tronbox/contracts/SmartGenie.sol\":2093:2151  require(msg.sender == adminWallet, \"Caller is not Admin.\") */\n      tag_235\n      jumpi\n      mload(0x40)\n      0x08c379a000000000000000000000000000000000000000000000000000000000\n      dup2\n      mstore\n      0x04\n      add\n      tag_236\n      swap1\n      tag_237\n      jump\t// in\n    tag_236:\n      mload(0x40)\n      dup1\n      swap2\n      sub\n      swap1\n      revert\n    tag_235:\n        /* \"tronbox/contracts/SmartGenie.sol\":23014:23025  adminWallet */\n      0x00\n      dup1\n      sload\n      swap1\n      0x0100\n      exp\n      swap1\n      div\n      0xffffffffffffffffffffffffffffffffffffffff\n      and\n        /* \"tronbox/contracts/SmartGenie.sol\":23000:23025  msg.sender == adminWallet */\n      0xffffffffffffffffffffffffffffffffffffffff\n      and\n        /* \"tronbox/contracts/SmartGenie.sol\":23000:23010  msg.sender */\n      caller\n        /* \"tronbox/contracts/SmartGenie.sol\":23000:23025  msg.sender == adminWallet */\n      0xffffffffffffffffffffffffffffffffffffffff\n      and\n      eq\n        /* \"tronbox/contracts/SmartGenie.sol\":22992:23044  require(msg.sender == adminWallet, \"Invalid caller\") */\n      tag_239\n      jumpi\n      mload(0x40)\n      0x08c379a000000000000000000000000000000000000000000000000000000000\n      dup2\n      mstore\n      0x04\n      add\n      tag_240\n      swap1\n      tag_140\n      jump\t// in\n    tag_240:\n      mload(0x40)\n      dup1\n      swap2\n      sub\n      swap1\n      revert\n    tag_239:\n        /* \"tronbox/contracts/SmartGenie.sol\":23071:23072  5 */\n      0x05\n        /* \"tronbox/contracts/SmartGenie.sol\":23062:23067  index */\n      dup2\n        /* \"tronbox/contracts/SmartGenie.sol\":23062:23072  index <= 5 */\n      gt\n      iszero\n        /* \"tronbox/contracts/SmartGenie.sol\":23054:23090  require(index <= 5, \"Invalid Index\") */\n      tag_241\n      jumpi\n      mload(0x40)\n      0x08c379a000000000000000000000000000000000000000000000000000000000\n      dup2\n      mstore\n      0x04\n      add\n      tag_242\n      swap1\n      tag_243\n      jump\t// in\n    tag_242:\n      mload(0x40)\n      dup1\n      swap2\n      sub\n      swap1\n      revert\n    tag_241:\n        /* \"tronbox/contracts/SmartGenie.sol\":23111:23112  3 */\n      0x03\n        /* \"tronbox/contracts/SmartGenie.sol\":23103:23108  index */\n      dup2\n        /* \"tronbox/contracts/SmartGenie.sol\":23103:23112  index <=3 */\n      gt\n        /* \"tronbox/contracts/SmartGenie.sol\":23100:23320  if(index <=3 ) {... */\n      tag_244\n      jumpi\n        /* \"tronbox/contracts/SmartGenie.sol\":23157:23167  walletAddr */\n      dup2\n        /* \"tronbox/contracts/SmartGenie.sol\":23129:23145  promotionWallets */\n      0x03\n        /* \"tronbox/contracts/SmartGenie.sol\":23152:23153  1 */\n      0x01\n        /* \"tronbox/contracts/SmartGenie.sol\":23146:23151  index */\n      dup4\n        /* \"tronbox/contracts/SmartGenie.sol\":23146:23153  index-1 */\n      tag_245\n      swap2\n      swap1\n      tag_246\n      jump\t// in\n    tag_245:\n        /* \"tronbox/contracts/SmartGenie.sol\":23129:23154  promotionWallets[index-1] */\n      0x04\n      dup2\n      lt\n      tag_247\n      jumpi\n      tag_248\n      tag_206\n      jump\t// in\n    tag_248:\n    tag_247:\n      add\n      0x00\n        /* \"tronbox/contracts/SmartGenie.sol\":23129:23167  promotionWallets[index-1] = walletAddr */\n      0x0100\n      exp\n      dup2\n      sload\n      dup2\n      0xffffffffffffffffffffffffffffffffffffffff\n      mul\n      not\n      and\n      swap1\n      dup4\n      0xffffffffffffffffffffffffffffffffffffffff\n      and\n      mul\n      or\n      swap1\n      sstore\n      pop\n        /* \"tronbox/contracts/SmartGenie.sol\":23100:23320  if(index <=3 ) {... */\n      jump(tag_250)\n    tag_244:\n        /* \"tronbox/contracts/SmartGenie.sol\":23197:23198  4 */\n      0x04\n        /* \"tronbox/contracts/SmartGenie.sol\":23188:23193  index */\n      dup2\n        /* \"tronbox/contracts/SmartGenie.sol\":23188:23198  index == 4 */\n      eq\n        /* \"tronbox/contracts/SmartGenie.sol\":23184:23320  if (index == 4) {... */\n      iszero\n      tag_251\n      jumpi\n        /* \"tronbox/contracts/SmartGenie.sol\":23231:23241  walletAddr */\n      dup2\n        /* \"tronbox/contracts/SmartGenie.sol\":23214:23228  splPromoWallet */\n      0x02\n      0x00\n        /* \"tronbox/contracts/SmartGenie.sol\":23214:23241  splPromoWallet = walletAddr */\n      0x0100\n      exp\n      dup2\n      sload\n      dup2\n      0xffffffffffffffffffffffffffffffffffffffff\n      mul\n      not\n      and\n      swap1\n      dup4\n      0xffffffffffffffffffffffffffffffffffffffff\n      and\n      mul\n      or\n      swap1\n      sstore\n      pop\n        /* \"tronbox/contracts/SmartGenie.sol\":23184:23320  if (index == 4) {... */\n      jump(tag_252)\n    tag_251:\n        /* \"tronbox/contracts/SmartGenie.sol\":23284:23294  walletAddr */\n      dup2\n        /* \"tronbox/contracts/SmartGenie.sol\":23272:23281  ursWallet */\n      0x01\n      0x00\n        /* \"tronbox/contracts/SmartGenie.sol\":23272:23294  ursWallet = walletAddr */\n      0x0100\n      exp\n      dup2\n      sload\n      dup2\n      0xffffffffffffffffffffffffffffffffffffffff\n      mul\n      not\n      and\n      swap1\n      dup4\n      0xffffffffffffffffffffffffffffffffffffffff\n      and\n      mul\n      or\n      swap1\n      sstore\n      pop\n        /* \"tronbox/contracts/SmartGenie.sol\":23184:23320  if (index == 4) {... */\n    tag_252:\n        /* \"tronbox/contracts/SmartGenie.sol\":23100:23320  if(index <=3 ) {... */\n    tag_250:\n        /* \"tronbox/contracts/SmartGenie.sol\":22902:23326  function updatePromotionWallet(address walletAddr, uint index) onlyAdmin public {... */\n      pop\n      pop\n      jump\t// out\n        /* \"tronbox/contracts/SmartGenie.sol\":5844:8440  function payment(uint _reglevel, address _user, uint256 length, bool loop) internal { //4... */\n    tag_189:\n        /* \"tronbox/contracts/SmartGenie.sol\":5942:5955  address payer */\n      0x00\n        /* \"tronbox/contracts/SmartGenie.sol\":5965:5979  bool isRenewal */\n      dup1\n        /* \"tronbox/contracts/SmartGenie.sol\":5982:5987  false */\n      0x00\n        /* \"tronbox/contracts/SmartGenie.sol\":5965:5987  bool isRenewal = false */\n      swap1\n      pop\n        /* \"tronbox/contracts/SmartGenie.sol\":5997:6011  bool isSameLeg */\n      0x00\n        /* \"tronbox/contracts/SmartGenie.sol\":6029:6043  bool isPayNeed */\n      dup1\n        /* \"tronbox/contracts/SmartGenie.sol\":6046:6050  true */\n      0x01\n        /* \"tronbox/contracts/SmartGenie.sol\":6029:6050  bool isPayNeed = true */\n      swap1\n      pop\n        /* \"tronbox/contracts/SmartGenie.sol\":6060:6084  uint256 levelEligibility */\n      0x00\n        /* \"tronbox/contracts/SmartGenie.sol\":6095:6111  uint256 payLevel */\n      dup1\n        /* \"tronbox/contracts/SmartGenie.sol\":6114:6123  _reglevel */\n      dup10\n        /* \"tronbox/contracts/SmartGenie.sol\":6095:6123  uint256 payLevel = _reglevel */\n      swap1\n      pop\n        /* \"tronbox/contracts/SmartGenie.sol\":6181:6182  2 */\n      0x02\n        /* \"tronbox/contracts/SmartGenie.sol\":6171:6177  length */\n      dup9\n        /* \"tronbox/contracts/SmartGenie.sol\":6171:6182  length == 2 */\n      eq\n        /* \"tronbox/contracts/SmartGenie.sol\":6167:6903  if (length == 2) {... */\n      iszero\n      tag_254\n      jumpi\n        /* \"tronbox/contracts/SmartGenie.sol\":6228:6299  levelUpgrade (_reglevel, _user, levelEligibility, isSameLeg, isPayNeed) */\n      tag_255\n        /* \"tronbox/contracts/SmartGenie.sol\":6242:6251  _reglevel */\n      dup11\n        /* \"tronbox/contracts/SmartGenie.sol\":6253:6258  _user */\n      dup11\n        /* \"tronbox/contracts/SmartGenie.sol\":6260:6276  levelEligibility */\n      dup5\n        /* \"tronbox/contracts/SmartGenie.sol\":6278:6287  isSameLeg */\n      dup8\n        /* \"tronbox/contracts/SmartGenie.sol\":6289:6298  isPayNeed */\n      dup8\n        /* \"tronbox/contracts/SmartGenie.sol\":6228:6240  levelUpgrade */\n      tag_256\n        /* \"tronbox/contracts/SmartGenie.sol\":6228:6299  levelUpgrade (_reglevel, _user, levelEligibility, isSameLeg, isPayNeed) */\n      jump\t// in\n    tag_255:\n        /* \"tronbox/contracts/SmartGenie.sol\":6196:6299  (payer, isPayNeed, isSameLeg) = levelUpgrade (_reglevel, _user, levelEligibility, isSameLeg, isPayNeed) */\n      dup1\n      swap7\n      pop\n      dup2\n      swap6\n      pop\n      dup3\n      swap9\n      pop\n      pop\n      pop\n      pop\n        /* \"tronbox/contracts/SmartGenie.sol\":6332:6333  1 */\n      0x01\n        /* \"tronbox/contracts/SmartGenie.sol\":6322:6331  _reglevel */\n      dup11\n        /* \"tronbox/contracts/SmartGenie.sol\":6322:6333  _reglevel+1 */\n      tag_257\n      swap2\n      swap1\n      tag_183\n      jump\t// in\n    tag_257:\n        /* \"tronbox/contracts/SmartGenie.sol\":6311:6333  payLevel = _reglevel+1 */\n      swap1\n      pop\n        /* \"tronbox/contracts/SmartGenie.sol\":6167:6903  if (length == 2) {... */\n      jump(tag_258)\n    tag_254:\n        /* \"tronbox/contracts/SmartGenie.sol\":6399:6401  20 */\n      0x14\n        /* \"tronbox/contracts/SmartGenie.sol\":6389:6395  length */\n      dup9\n        /* \"tronbox/contracts/SmartGenie.sol\":6389:6401  length >= 20 */\n      lt\n      iszero\n        /* \"tronbox/contracts/SmartGenie.sol\":6389:6421  length >= 20 && length % 20 == 0 */\n      dup1\n      iszero\n      tag_259\n      jumpi\n      pop\n        /* \"tronbox/contracts/SmartGenie.sol\":6420:6421  0 */\n      0x00\n        /* \"tronbox/contracts/SmartGenie.sol\":6414:6416  20 */\n      0x14\n        /* \"tronbox/contracts/SmartGenie.sol\":6405:6411  length */\n      dup10\n        /* \"tronbox/contracts/SmartGenie.sol\":6405:6416  length % 20 */\n      tag_260\n      swap2\n      swap1\n      tag_261\n      jump\t// in\n    tag_260:\n        /* \"tronbox/contracts/SmartGenie.sol\":6405:6421  length % 20 == 0 */\n      eq\n        /* \"tronbox/contracts/SmartGenie.sol\":6389:6421  length >= 20 && length % 20 == 0 */\n    tag_259:\n        /* \"tronbox/contracts/SmartGenie.sol\":6385:6903  if (length >= 20 && length % 20 == 0) { ... */\n      iszero\n      tag_262\n      jumpi\n        /* \"tronbox/contracts/SmartGenie.sol\":6445:6453  userList */\n      0x0a\n        /* \"tronbox/contracts/SmartGenie.sol\":6445:6456  userList[1] */\n      0x00\n        /* \"tronbox/contracts/SmartGenie.sol\":6454:6455  1 */\n      0x01\n        /* \"tronbox/contracts/SmartGenie.sol\":6445:6456  userList[1] */\n      dup2\n      mstore\n      0x20\n      add\n      swap1\n      dup2\n      mstore\n      0x20\n      add\n      0x00\n      keccak256\n      0x00\n      swap1\n      sload\n      swap1\n      0x0100\n      exp\n      swap1\n      div\n      0xffffffffffffffffffffffffffffffffffffffff\n      and\n        /* \"tronbox/contracts/SmartGenie.sol\":6437:6456  payer = userList[1] */\n      swap6\n      pop\n        /* \"tronbox/contracts/SmartGenie.sol\":6385:6903  if (length >= 20 && length % 20 == 0) { ... */\n      jump(tag_263)\n    tag_262:\n        /* \"tronbox/contracts/SmartGenie.sol\":6521:6522  4 */\n      0x04\n        /* \"tronbox/contracts/SmartGenie.sol\":6511:6517  length */\n      dup9\n        /* \"tronbox/contracts/SmartGenie.sol\":6511:6522  length >= 4 */\n      lt\n      iszero\n        /* \"tronbox/contracts/SmartGenie.sol\":6511:6541  length >= 4 && length % 4 == 0 */\n      dup1\n      iszero\n      tag_264\n      jumpi\n      pop\n        /* \"tronbox/contracts/SmartGenie.sol\":6540:6541  0 */\n      0x00\n        /* \"tronbox/contracts/SmartGenie.sol\":6535:6536  4 */\n      0x04\n        /* \"tronbox/contracts/SmartGenie.sol\":6526:6532  length */\n      dup10\n        /* \"tronbox/contracts/SmartGenie.sol\":6526:6536  length % 4 */\n      tag_265\n      swap2\n      swap1\n      tag_261\n      jump\t// in\n    tag_265:\n        /* \"tronbox/contracts/SmartGenie.sol\":6526:6541  length % 4 == 0 */\n      eq\n        /* \"tronbox/contracts/SmartGenie.sol\":6511:6541  length >= 4 && length % 4 == 0 */\n    tag_264:\n        /* \"tronbox/contracts/SmartGenie.sol\":6507:6903  if (length >= 4 && length % 4 == 0) { ... */\n      iszero\n      tag_266\n      jumpi\n        /* \"tronbox/contracts/SmartGenie.sol\":6698:6752  levelRenewal(loop, _user, _reglevel, levelEligibility) */\n      tag_267\n        /* \"tronbox/contracts/SmartGenie.sol\":6711:6715  loop */\n      dup8\n        /* \"tronbox/contracts/SmartGenie.sol\":6717:6722  _user */\n      dup11\n        /* \"tronbox/contracts/SmartGenie.sol\":6724:6733  _reglevel */\n      dup13\n        /* \"tronbox/contracts/SmartGenie.sol\":6735:6751  levelEligibility */\n      dup6\n        /* \"tronbox/contracts/SmartGenie.sol\":6698:6710  levelRenewal */\n      tag_268\n        /* \"tronbox/contracts/SmartGenie.sol\":6698:6752  levelRenewal(loop, _user, _reglevel, levelEligibility) */\n      jump\t// in\n    tag_267:\n        /* \"tronbox/contracts/SmartGenie.sol\":6677:6752  (payer, isRenewal) = levelRenewal(loop, _user, _reglevel, levelEligibility) */\n      dup1\n      swap7\n      pop\n      dup2\n      swap8\n      pop\n      pop\n      pop\n        /* \"tronbox/contracts/SmartGenie.sol\":6776:6785  _reglevel */\n      dup10\n        /* \"tronbox/contracts/SmartGenie.sol\":6765:6785  payLevel = _reglevel */\n      swap1\n      pop\n        /* \"tronbox/contracts/SmartGenie.sol\":6507:6903  if (length >= 4 && length % 4 == 0) { ... */\n      jump(tag_269)\n    tag_266:\n        /* \"tronbox/contracts/SmartGenie.sol\":6859:6867  userList */\n      0x0a\n        /* \"tronbox/contracts/SmartGenie.sol\":6859:6892  userList[users[_user].referrerID] */\n      0x00\n        /* \"tronbox/contracts/SmartGenie.sol\":6868:6873  users */\n      0x09\n        /* \"tronbox/contracts/SmartGenie.sol\":6868:6880  users[_user] */\n      0x00\n        /* \"tronbox/contracts/SmartGenie.sol\":6874:6879  _user */\n      dup13\n        /* \"tronbox/contracts/SmartGenie.sol\":6868:6880  users[_user] */\n      0xffffffffffffffffffffffffffffffffffffffff\n      and\n      0xffffffffffffffffffffffffffffffffffffffff\n      and\n      dup2\n      mstore\n      0x20\n      add\n      swap1\n      dup2\n      mstore\n      0x20\n      add\n      0x00\n      keccak256\n        /* \"tronbox/contracts/SmartGenie.sol\":6868:6891  users[_user].referrerID */\n      0x02\n      add\n      sload\n        /* \"tronbox/contracts/SmartGenie.sol\":6859:6892  userList[users[_user].referrerID] */\n      dup2\n      mstore\n      0x20\n      add\n      swap1\n      dup2\n      mstore\n      0x20\n      add\n      0x00\n      keccak256\n      0x00\n      swap1\n      sload\n      swap1\n      0x0100\n      exp\n      swap1\n      div\n      0xffffffffffffffffffffffffffffffffffffffff\n      and\n        /* \"tronbox/contracts/SmartGenie.sol\":6851:6892  payer = userList[users[_user].referrerID] */\n      swap6\n      pop\n        /* \"tronbox/contracts/SmartGenie.sol\":6507:6903  if (length >= 4 && length % 4 == 0) { ... */\n    tag_269:\n        /* \"tronbox/contracts/SmartGenie.sol\":6385:6903  if (length >= 20 && length % 20 == 0) { ... */\n    tag_263:\n        /* \"tronbox/contracts/SmartGenie.sol\":6167:6903  if (length == 2) {... */\n    tag_258:\n        /* \"tronbox/contracts/SmartGenie.sol\":6972:6981  isPayNeed */\n      dup3\n        /* \"tronbox/contracts/SmartGenie.sol\":6972:7006  isPayNeed || !users[payer].isExist */\n      dup1\n      tag_270\n      jumpi\n      pop\n        /* \"tronbox/contracts/SmartGenie.sol\":6986:6991  users */\n      0x09\n        /* \"tronbox/contracts/SmartGenie.sol\":6986:6998  users[payer] */\n      0x00\n        /* \"tronbox/contracts/SmartGenie.sol\":6992:6997  payer */\n      dup8\n        /* \"tronbox/contracts/SmartGenie.sol\":6986:6998  users[payer] */\n      0xffffffffffffffffffffffffffffffffffffffff\n      and\n      0xffffffffffffffffffffffffffffffffffffffff\n      and\n      dup2\n      mstore\n      0x20\n      add\n      swap1\n      dup2\n      mstore\n      0x20\n      add\n      0x00\n      keccak256\n        /* \"tronbox/contracts/SmartGenie.sol\":6986:7006  users[payer].isExist */\n      0x00\n      add\n      0x00\n      swap1\n      sload\n      swap1\n      0x0100\n      exp\n      swap1\n      div\n      0xff\n      and\n        /* \"tronbox/contracts/SmartGenie.sol\":6985:7006  !users[payer].isExist */\n      iszero\n        /* \"tronbox/contracts/SmartGenie.sol\":6972:7006  isPayNeed || !users[payer].isExist */\n    tag_270:\n        /* \"tronbox/contracts/SmartGenie.sol\":6972:7030  isPayNeed || !users[payer].isExist || payer == userList[1] */\n      dup1\n      tag_271\n      jumpi\n      pop\n        /* \"tronbox/contracts/SmartGenie.sol\":7019:7027  userList */\n      0x0a\n        /* \"tronbox/contracts/SmartGenie.sol\":7019:7030  userList[1] */\n      0x00\n        /* \"tronbox/contracts/SmartGenie.sol\":7028:7029  1 */\n      0x01\n        /* \"tronbox/contracts/SmartGenie.sol\":7019:7030  userList[1] */\n      dup2\n      mstore\n      0x20\n      add\n      swap1\n      dup2\n      mstore\n      0x20\n      add\n      0x00\n      keccak256\n      0x00\n      swap1\n      sload\n      swap1\n      0x0100\n      exp\n      swap1\n      div\n      0xffffffffffffffffffffffffffffffffffffffff\n      and\n        /* \"tronbox/contracts/SmartGenie.sol\":7010:7030  payer == userList[1] */\n      0xffffffffffffffffffffffffffffffffffffffff\n      and\n        /* \"tronbox/contracts/SmartGenie.sol\":7010:7015  payer */\n      dup7\n        /* \"tronbox/contracts/SmartGenie.sol\":7010:7030  payer == userList[1] */\n      0xffffffffffffffffffffffffffffffffffffffff\n      and\n      eq\n        /* \"tronbox/contracts/SmartGenie.sol\":6972:7030  isPayNeed || !users[payer].isExist || payer == userList[1] */\n    tag_271:\n        /* \"tronbox/contracts/SmartGenie.sol\":6968:8434  if (isPayNeed || !users[payer].isExist || payer == userList[1]) {... */\n      iszero\n      tag_272\n      jumpi\n        /* \"tronbox/contracts/SmartGenie.sol\":7063:7127  checkLoopRequired(payer, payLevel, length, isRenewal, isSameLeg) */\n      tag_273\n        /* \"tronbox/contracts/SmartGenie.sol\":7081:7086  payer */\n      dup7\n        /* \"tronbox/contracts/SmartGenie.sol\":7088:7096  payLevel */\n      dup3\n        /* \"tronbox/contracts/SmartGenie.sol\":7098:7104  length */\n      dup11\n        /* \"tronbox/contracts/SmartGenie.sol\":7106:7115  isRenewal */\n      dup9\n        /* \"tronbox/contracts/SmartGenie.sol\":7117:7126  isSameLeg */\n      dup9\n        /* \"tronbox/contracts/SmartGenie.sol\":7063:7080  checkLoopRequired */\n      tag_274\n        /* \"tronbox/contracts/SmartGenie.sol\":7063:7127  checkLoopRequired(payer, payLevel, length, isRenewal, isSameLeg) */\n      jump\t// in\n    tag_273:\n        /* \"tronbox/contracts/SmartGenie.sol\":7046:7127  (loop, length) = checkLoopRequired(payer, payLevel, length, isRenewal, isSameLeg) */\n      dup1\n      swap10\n      pop\n      dup2\n      swap9\n      pop\n      pop\n      pop\n        /* \"tronbox/contracts/SmartGenie.sol\":7145:7149  loop */\n      dup7\n        /* \"tronbox/contracts/SmartGenie.sol\":7142:8424  if(loop) {  ... */\n      iszero\n      tag_275\n      jumpi\n        /* \"tronbox/contracts/SmartGenie.sol\":7254:7263  isPayNeed */\n      dup3\n        /* \"tronbox/contracts/SmartGenie.sol\":7254:7277  isPayNeed && !isSameLeg */\n      dup1\n      iszero\n      tag_276\n      jumpi\n      pop\n        /* \"tronbox/contracts/SmartGenie.sol\":7268:7277  isSameLeg */\n      dup4\n        /* \"tronbox/contracts/SmartGenie.sol\":7267:7277  !isSameLeg */\n      iszero\n        /* \"tronbox/contracts/SmartGenie.sol\":7254:7277  isPayNeed && !isSameLeg */\n    tag_276:\n        /* \"tronbox/contracts/SmartGenie.sol\":7254:7290  isPayNeed && !isSameLeg && length==2 */\n      dup1\n      iszero\n      tag_277\n      jumpi\n      pop\n        /* \"tronbox/contracts/SmartGenie.sol\":7289:7290  2 */\n      0x02\n        /* \"tronbox/contracts/SmartGenie.sol\":7281:7287  length */\n      dup9\n        /* \"tronbox/contracts/SmartGenie.sol\":7281:7290  length==2 */\n      eq\n        /* \"tronbox/contracts/SmartGenie.sol\":7254:7290  isPayNeed && !isSameLeg && length==2 */\n    tag_277:\n        /* \"tronbox/contracts/SmartGenie.sol\":7251:7353  if(isPayNeed && !isSameLeg && length==2) {... */\n      iszero\n      tag_278\n      jumpi\n        /* \"tronbox/contracts/SmartGenie.sol\":7326:7334  payLevel */\n      dup1\n        /* \"tronbox/contracts/SmartGenie.sol\":7314:7334  _reglevel = payLevel */\n      swap10\n      pop\n        /* \"tronbox/contracts/SmartGenie.sol\":7251:7353  if(isPayNeed && !isSameLeg && length==2) {... */\n    tag_278:\n        /* \"tronbox/contracts/SmartGenie.sol\":7430:7439  isPayNeed */\n      dup3\n        /* \"tronbox/contracts/SmartGenie.sol\":7430:7453  isPayNeed && !isSameLeg */\n      dup1\n      iszero\n      tag_279\n      jumpi\n      pop\n        /* \"tronbox/contracts/SmartGenie.sol\":7444:7453  isSameLeg */\n      dup4\n        /* \"tronbox/contracts/SmartGenie.sol\":7443:7453  !isSameLeg */\n      iszero\n        /* \"tronbox/contracts/SmartGenie.sol\":7430:7453  isPayNeed && !isSameLeg */\n    tag_279:\n        /* \"tronbox/contracts/SmartGenie.sol\":7430:7468  isPayNeed && !isSameLeg && length == 4 */\n      dup1\n      iszero\n      tag_280\n      jumpi\n      pop\n        /* \"tronbox/contracts/SmartGenie.sol\":7467:7468  4 */\n      0x04\n        /* \"tronbox/contracts/SmartGenie.sol\":7457:7463  length */\n      dup9\n        /* \"tronbox/contracts/SmartGenie.sol\":7457:7468  length == 4 */\n      eq\n        /* \"tronbox/contracts/SmartGenie.sol\":7430:7468  isPayNeed && !isSameLeg && length == 4 */\n    tag_280:\n        /* \"tronbox/contracts/SmartGenie.sol\":7430:7483  isPayNeed && !isSameLeg && length == 4 && payLevel>=1 */\n      dup1\n      iszero\n      tag_281\n      jumpi\n      pop\n        /* \"tronbox/contracts/SmartGenie.sol\":7482:7483  1 */\n      0x01\n        /* \"tronbox/contracts/SmartGenie.sol\":7472:7480  payLevel */\n      dup2\n        /* \"tronbox/contracts/SmartGenie.sol\":7472:7483  payLevel>=1 */\n      lt\n      iszero\n        /* \"tronbox/contracts/SmartGenie.sol\":7430:7483  isPayNeed && !isSameLeg && length == 4 && payLevel>=1 */\n    tag_281:\n        /* \"tronbox/contracts/SmartGenie.sol\":7427:7546  if(isPayNeed && !isSameLeg && length == 4 && payLevel>=1) {... */\n      iszero\n      tag_282\n      jumpi\n        /* \"tronbox/contracts/SmartGenie.sol\":7519:7527  payLevel */\n      dup1\n        /* \"tronbox/contracts/SmartGenie.sol\":7507:7527  _reglevel = payLevel */\n      swap10\n      pop\n        /* \"tronbox/contracts/SmartGenie.sol\":7427:7546  if(isPayNeed && !isSameLeg && length == 4 && payLevel>=1) {... */\n    tag_282:\n        /* \"tronbox/contracts/SmartGenie.sol\":7578:7617  payment(_reglevel, payer, length, true) */\n      tag_283\n        /* \"tronbox/contracts/SmartGenie.sol\":7586:7595  _reglevel */\n      dup11\n        /* \"tronbox/contracts/SmartGenie.sol\":7597:7602  payer */\n      dup8\n        /* \"tronbox/contracts/SmartGenie.sol\":7604:7610  length */\n      dup11\n        /* \"tronbox/contracts/SmartGenie.sol\":7612:7616  true */\n      0x01\n        /* \"tronbox/contracts/SmartGenie.sol\":7578:7585  payment */\n      tag_189\n        /* \"tronbox/contracts/SmartGenie.sol\":7578:7617  payment(_reglevel, payer, length, true) */\n      jump\t// in\n    tag_283:\n        /* \"tronbox/contracts/SmartGenie.sol\":7142:8424  if(loop) {  ... */\n      jump(tag_284)\n    tag_275:\n        /* \"tronbox/contracts/SmartGenie.sol\":7696:7701  users */\n      0x09\n        /* \"tronbox/contracts/SmartGenie.sol\":7696:7708  users[payer] */\n      0x00\n        /* \"tronbox/contracts/SmartGenie.sol\":7702:7707  payer */\n      dup8\n        /* \"tronbox/contracts/SmartGenie.sol\":7696:7708  users[payer] */\n      0xffffffffffffffffffffffffffffffffffffffff\n      and\n      0xffffffffffffffffffffffffffffffffffffffff\n      and\n      dup2\n      mstore\n      0x20\n      add\n      swap1\n      dup2\n      mstore\n      0x20\n      add\n      0x00\n      keccak256\n        /* \"tronbox/contracts/SmartGenie.sol\":7696:7716  users[payer].isExist */\n      0x00\n      add\n      0x00\n      swap1\n      sload\n      swap1\n      0x0100\n      exp\n      swap1\n      div\n      0xff\n      and\n        /* \"tronbox/contracts/SmartGenie.sol\":7692:7737  if(!users[payer].isExist) payer = userList[1] */\n      tag_285\n      jumpi\n        /* \"tronbox/contracts/SmartGenie.sol\":7726:7734  userList */\n      0x0a\n        /* \"tronbox/contracts/SmartGenie.sol\":7726:7737  userList[1] */\n      0x00\n        /* \"tronbox/contracts/SmartGenie.sol\":7735:7736  1 */\n      0x01\n        /* \"tronbox/contracts/SmartGenie.sol\":7726:7737  userList[1] */\n      dup2\n      mstore\n      0x20\n      add\n      swap1\n      dup2\n      mstore\n      0x20\n      add\n      0x00\n      keccak256\n      0x00\n      swap1\n      sload\n      swap1\n      0x0100\n      exp\n      swap1\n      div\n      0xffffffffffffffffffffffffffffffffffffffff\n      and\n        /* \"tronbox/contracts/SmartGenie.sol\":7718:7737  payer = userList[1] */\n      swap6\n      pop\n        /* \"tronbox/contracts/SmartGenie.sol\":7692:7737  if(!users[payer].isExist) payer = userList[1] */\n    tag_285:\n        /* \"tronbox/contracts/SmartGenie.sol\":7843:7844  1 */\n      0x01\n        /* \"tronbox/contracts/SmartGenie.sol\":7808:7813  users */\n      0x09\n        /* \"tronbox/contracts/SmartGenie.sol\":7808:7820  users[payer] */\n      0x00\n        /* \"tronbox/contracts/SmartGenie.sol\":7814:7819  payer */\n      dup9\n        /* \"tronbox/contracts/SmartGenie.sol\":7808:7820  users[payer] */\n      0xffffffffffffffffffffffffffffffffffffffff\n      and\n      0xffffffffffffffffffffffffffffffffffffffff\n      and\n      dup2\n      mstore\n      0x20\n      add\n      swap1\n      dup2\n      mstore\n      0x20\n      add\n      0x00\n      keccak256\n        /* \"tronbox/contracts/SmartGenie.sol\":7808:7832  users[payer].incomeCount */\n      0x05\n      add\n        /* \"tronbox/contracts/SmartGenie.sol\":7808:7842  users[payer].incomeCount[payLevel] */\n      0x00\n        /* \"tronbox/contracts/SmartGenie.sol\":7833:7841  payLevel */\n      dup4\n        /* \"tronbox/contracts/SmartGenie.sol\":7808:7842  users[payer].incomeCount[payLevel] */\n      dup2\n      mstore\n      0x20\n      add\n      swap1\n      dup2\n      mstore\n      0x20\n      add\n      0x00\n      keccak256\n      sload\n        /* \"tronbox/contracts/SmartGenie.sol\":7808:7844  users[payer].incomeCount[payLevel]+1 */\n      tag_286\n      swap2\n      swap1\n      tag_183\n      jump\t// in\n    tag_286:\n        /* \"tronbox/contracts/SmartGenie.sol\":7772:7777  users */\n      0x09\n        /* \"tronbox/contracts/SmartGenie.sol\":7772:7784  users[payer] */\n      0x00\n        /* \"tronbox/contracts/SmartGenie.sol\":7778:7783  payer */\n      dup9\n        /* \"tronbox/contracts/SmartGenie.sol\":7772:7784  users[payer] */\n      0xffffffffffffffffffffffffffffffffffffffff\n      and\n      0xffffffffffffffffffffffffffffffffffffffff\n      and\n      dup2\n      mstore\n      0x20\n      add\n      swap1\n      dup2\n      mstore\n      0x20\n      add\n      0x00\n      keccak256\n        /* \"tronbox/contracts/SmartGenie.sol\":7772:7796  users[payer].incomeCount */\n      0x05\n      add\n        /* \"tronbox/contracts/SmartGenie.sol\":7772:7806  users[payer].incomeCount[payLevel] */\n      0x00\n        /* \"tronbox/contracts/SmartGenie.sol\":7797:7805  payLevel */\n      dup4\n        /* \"tronbox/contracts/SmartGenie.sol\":7772:7806  users[payer].incomeCount[payLevel] */\n      dup2\n      mstore\n      0x20\n      add\n      swap1\n      dup2\n      mstore\n      0x20\n      add\n      0x00\n      keccak256\n        /* \"tronbox/contracts/SmartGenie.sol\":7772:7844  users[payer].incomeCount[payLevel]= users[payer].incomeCount[payLevel]+1 */\n      dup2\n      swap1\n      sstore\n      pop\n        /* \"tronbox/contracts/SmartGenie.sol\":7983:7995  bool success */\n      0x00\n        /* \"tronbox/contracts/SmartGenie.sol\":8017:8022  payer */\n      dup7\n        /* \"tronbox/contracts/SmartGenie.sol\":8000:8030  (address(uint160(payer))).call */\n      0xffffffffffffffffffffffffffffffffffffffff\n      and\n        /* \"tronbox/contracts/SmartGenie.sol\":8038:8049  LEVEL_PRICE */\n      0x08\n        /* \"tronbox/contracts/SmartGenie.sol\":8038:8059  LEVEL_PRICE[payLevel] */\n      0x00\n        /* \"tronbox/contracts/SmartGenie.sol\":8050:8058  payLevel */\n      dup5\n        /* \"tronbox/contracts/SmartGenie.sol\":8038:8059  LEVEL_PRICE[payLevel] */\n      dup2\n      mstore\n      0x20\n      add\n      swap1\n      dup2\n      mstore\n      0x20\n      add\n      0x00\n      keccak256\n      sload\n        /* \"tronbox/contracts/SmartGenie.sol\":8000:8064  (address(uint160(payer))).call{value: LEVEL_PRICE[payLevel]}(\"\") */\n      mload(0x40)\n      tag_287\n      swap1\n      tag_142\n      jump\t// in\n    tag_287:\n      0x00\n      mload(0x40)\n      dup1\n      dup4\n      sub\n      dup2\n      dup6\n      dup8\n      gas\n      call\n      swap3\n      pop\n      pop\n      pop\n      returndatasize\n      dup1\n      0x00\n      dup2\n      eq\n      tag_290\n      jumpi\n      mload(0x40)\n      swap2\n      pop\n      and(add(returndatasize, 0x3f), not(0x1f))\n      dup3\n      add\n      0x40\n      mstore\n      returndatasize\n      dup3\n      mstore\n      returndatasize\n      0x00\n      0x20\n      dup5\n      add\n      returndatacopy\n      jump(tag_289)\n    tag_290:\n      0x60\n      swap2\n      pop\n    tag_289:\n      pop\n        /* \"tronbox/contracts/SmartGenie.sol\":7982:8064  (bool success,) = (address(uint160(payer))).call{value: LEVEL_PRICE[payLevel]}(\"\") */\n      pop\n      swap1\n      pop\n        /* \"tronbox/contracts/SmartGenie.sol\":8090:8097  success */\n      dup1\n        /* \"tronbox/contracts/SmartGenie.sol\":8082:8121  require(success, 'Transaction failed!') */\n      tag_291\n      jumpi\n      mload(0x40)\n      0x08c379a000000000000000000000000000000000000000000000000000000000\n      dup2\n      mstore\n      0x04\n      add\n      tag_292\n      swap1\n      tag_148\n      jump\t// in\n    tag_292:\n      mload(0x40)\n      dup1\n      swap2\n      sub\n      swap1\n      revert\n    tag_291:\n        /* \"tronbox/contracts/SmartGenie.sol\":8144:8151  success */\n      dup1\n        /* \"tronbox/contracts/SmartGenie.sol\":8140:8266  if (success) {... */\n      iszero\n      tag_293\n      jumpi\n        /* \"tronbox/contracts/SmartGenie.sol\":8209:8219  msg.sender */\n      caller\n        /* \"tronbox/contracts/SmartGenie.sol\":8180:8247  getMoneyForLevelEvent(payer, msg.sender, payLevel, block.timestamp) */\n      0xffffffffffffffffffffffffffffffffffffffff\n      and\n        /* \"tronbox/contracts/SmartGenie.sol\":8202:8207  payer */\n      dup8\n        /* \"tronbox/contracts/SmartGenie.sol\":8180:8247  getMoneyForLevelEvent(payer, msg.sender, payLevel, block.timestamp) */\n      0xffffffffffffffffffffffffffffffffffffffff\n      and\n      0xce7dc747411ac40191c5335943fcc79d8c2d8c01ca5ae83d9fed160409fa6120\n        /* \"tronbox/contracts/SmartGenie.sol\":8221:8229  payLevel */\n      dup5\n        /* \"tronbox/contracts/SmartGenie.sol\":8231:8246  block.timestamp */\n      timestamp\n        /* \"tronbox/contracts/SmartGenie.sol\":8180:8247  getMoneyForLevelEvent(payer, msg.sender, payLevel, block.timestamp) */\n      mload(0x40)\n      tag_294\n      swap3\n      swap2\n      swap1\n      tag_295\n      jump\t// in\n    tag_294:\n      mload(0x40)\n      dup1\n      swap2\n      sub\n      swap1\n      log3\n        /* \"tronbox/contracts/SmartGenie.sol\":8140:8266  if (success) {... */\n    tag_293:\n        /* \"tronbox/contracts/SmartGenie.sol\":8287:8294  success */\n      dup1\n        /* \"tronbox/contracts/SmartGenie.sol\":8283:8410  if(!success) {... */\n      tag_296\n      jumpi\n        /* \"tronbox/contracts/SmartGenie.sol\":8353:8363  msg.sender */\n      caller\n        /* \"tronbox/contracts/SmartGenie.sol\":8323:8391  lostMoneyForLevelEvent(payer, msg.sender, payLevel, block.timestamp) */\n      0xffffffffffffffffffffffffffffffffffffffff\n      and\n        /* \"tronbox/contracts/SmartGenie.sol\":8346:8351  payer */\n      dup8\n        /* \"tronbox/contracts/SmartGenie.sol\":8323:8391  lostMoneyForLevelEvent(payer, msg.sender, payLevel, block.timestamp) */\n      0xffffffffffffffffffffffffffffffffffffffff\n      and\n      0x7df0f6bac5c770af7783500bb7f1c0d073adb11316004ba6f9f6c704af1a1aea\n        /* \"tronbox/contracts/SmartGenie.sol\":8365:8373  payLevel */\n      dup5\n        /* \"tronbox/contracts/SmartGenie.sol\":8375:8390  block.timestamp */\n      timestamp\n        /* \"tronbox/contracts/SmartGenie.sol\":8323:8391  lostMoneyForLevelEvent(payer, msg.sender, payLevel, block.timestamp) */\n      mload(0x40)\n      tag_297\n      swap3\n      swap2\n      swap1\n      tag_295\n      jump\t// in\n    tag_297:\n      mload(0x40)\n      dup1\n      swap2\n      sub\n      swap1\n      log3\n        /* \"tronbox/contracts/SmartGenie.sol\":8283:8410  if(!success) {... */\n    tag_296:\n        /* \"tronbox/contracts/SmartGenie.sol\":7639:8424  {... */\n      pop\n        /* \"tronbox/contracts/SmartGenie.sol\":7142:8424  if(loop) {  ... */\n    tag_284:\n        /* \"tronbox/contracts/SmartGenie.sol\":6968:8434  if (isPayNeed || !users[payer].isExist || payer == userList[1]) {... */\n    tag_272:\n        /* \"tronbox/contracts/SmartGenie.sol\":5928:8440  { //4... */\n      pop\n      pop\n      pop\n      pop\n      pop\n      pop\n        /* \"tronbox/contracts/SmartGenie.sol\":5844:8440  function payment(uint _reglevel, address _user, uint256 length, bool loop) internal { //4... */\n      pop\n      pop\n      pop\n      pop\n      jump\t// out\n        /* \"tronbox/contracts/SmartGenie.sol\":9149:11241  function levelUpgrade(uint256 _regLevel, address _user, uint256 _levelEligibility, bool isSameLeg, bool isPayNeed ) ... */\n    tag_256:\n        /* \"tronbox/contracts/SmartGenie.sol\":9297:9304  address */\n      0x00\n        /* \"tronbox/contracts/SmartGenie.sol\":9306:9310  bool */\n      dup1\n        /* \"tronbox/contracts/SmartGenie.sol\":9312:9316  bool */\n      0x00\n        /* \"tronbox/contracts/SmartGenie.sol\":9332:9347  uint256 upLevel */\n      dup1\n        /* \"tronbox/contracts/SmartGenie.sol\":9360:9361  1 */\n      0x01\n        /* \"tronbox/contracts/SmartGenie.sol\":9350:9359  _regLevel */\n      dup10\n        /* \"tronbox/contracts/SmartGenie.sol\":9350:9361  _regLevel+1 */\n      tag_299\n      swap2\n      swap1\n      tag_183\n      jump\t// in\n    tag_299:\n        /* \"tronbox/contracts/SmartGenie.sol\":9332:9361  uint256 upLevel = _regLevel+1 */\n      swap1\n      pop\n        /* \"tronbox/contracts/SmartGenie.sol\":9375:9388  address payer */\n      0x00\n        /* \"tronbox/contracts/SmartGenie.sol\":9390:9406  address referrer */\n      dup1\n        /* \"tronbox/contracts/SmartGenie.sol\":9467:9468  2 */\n      0x02\n        /* \"tronbox/contracts/SmartGenie.sol\":9456:9463  upLevel */\n      dup4\n        /* \"tronbox/contracts/SmartGenie.sol\":9456:9468  upLevel <= 2 */\n      gt\n        /* \"tronbox/contracts/SmartGenie.sol\":9453:9572  if(upLevel <= 2) {... */\n      tag_300\n      jumpi\n        /* \"tronbox/contracts/SmartGenie.sol\":9496:9504  userList */\n      0x0a\n        /* \"tronbox/contracts/SmartGenie.sol\":9496:9529  userList[users[_user].referrerID] */\n      0x00\n        /* \"tronbox/contracts/SmartGenie.sol\":9505:9510  users */\n      0x09\n        /* \"tronbox/contracts/SmartGenie.sol\":9505:9517  users[_user] */\n      0x00\n        /* \"tronbox/contracts/SmartGenie.sol\":9511:9516  _user */\n      dup14\n        /* \"tronbox/contracts/SmartGenie.sol\":9505:9517  users[_user] */\n      0xffffffffffffffffffffffffffffffffffffffff\n      and\n      0xffffffffffffffffffffffffffffffffffffffff\n      and\n      dup2\n      mstore\n      0x20\n      add\n      swap1\n      dup2\n      mstore\n      0x20\n      add\n      0x00\n      keccak256\n        /* \"tronbox/contracts/SmartGenie.sol\":9505:9528  users[_user].referrerID */\n      0x02\n      add\n      sload\n        /* \"tronbox/contracts/SmartGenie.sol\":9496:9529  userList[users[_user].referrerID] */\n      dup2\n      mstore\n      0x20\n      add\n      swap1\n      dup2\n      mstore\n      0x20\n      add\n      0x00\n      keccak256\n      0x00\n      swap1\n      sload\n      swap1\n      0x0100\n      exp\n      swap1\n      div\n      0xffffffffffffffffffffffffffffffffffffffff\n      and\n        /* \"tronbox/contracts/SmartGenie.sol\":9485:9529  referrer = userList[users[_user].referrerID] */\n      swap1\n      pop\n        /* \"tronbox/contracts/SmartGenie.sol\":9453:9572  if(upLevel <= 2) {... */\n      jump(tag_301)\n    tag_300:\n        /* \"tronbox/contracts/SmartGenie.sol\":9565:9570  _user */\n      dup10\n        /* \"tronbox/contracts/SmartGenie.sol\":9554:9570  referrer = _user */\n      swap1\n      pop\n        /* \"tronbox/contracts/SmartGenie.sol\":9453:9572  if(upLevel <= 2) {... */\n    tag_301:\n        /* \"tronbox/contracts/SmartGenie.sol\":9605:9662  findEligiblePayer(referrer, _regLevel, _levelEligibility) */\n      tag_302\n        /* \"tronbox/contracts/SmartGenie.sol\":9623:9631  referrer */\n      dup2\n        /* \"tronbox/contracts/SmartGenie.sol\":9633:9642  _regLevel */\n      dup13\n        /* \"tronbox/contracts/SmartGenie.sol\":9644:9661  _levelEligibility */\n      dup12\n        /* \"tronbox/contracts/SmartGenie.sol\":9605:9622  findEligiblePayer */\n      tag_303\n        /* \"tronbox/contracts/SmartGenie.sol\":9605:9662  findEligiblePayer(referrer, _regLevel, _levelEligibility) */\n      jump\t// in\n    tag_302:\n        /* \"tronbox/contracts/SmartGenie.sol\":9585:9662  (payer, referrer) = findEligiblePayer(referrer, _regLevel, _levelEligibility) */\n      dup1\n      swap3\n      pop\n      dup2\n      swap4\n      pop\n      pop\n      pop\n        /* \"tronbox/contracts/SmartGenie.sol\":9705:9710  users */\n      0x09\n        /* \"tronbox/contracts/SmartGenie.sol\":9705:9717  users[payer] */\n      0x00\n        /* \"tronbox/contracts/SmartGenie.sol\":9711:9716  payer */\n      dup4\n        /* \"tronbox/contracts/SmartGenie.sol\":9705:9717  users[payer] */\n      0xffffffffffffffffffffffffffffffffffffffff\n      and\n      0xffffffffffffffffffffffffffffffffffffffff\n      and\n      dup2\n      mstore\n      0x20\n      add\n      swap1\n      dup2\n      mstore\n      0x20\n      add\n      0x00\n      keccak256\n        /* \"tronbox/contracts/SmartGenie.sol\":9705:9725  users[payer].isExist */\n      0x00\n      add\n      0x00\n      swap1\n      sload\n      swap1\n      0x0100\n      exp\n      swap1\n      div\n      0xff\n      and\n        /* \"tronbox/contracts/SmartGenie.sol\":9704:9725  !users[payer].isExist */\n      iszero\n        /* \"tronbox/contracts/SmartGenie.sol\":9704:9874  !users[payer].isExist || ... */\n      dup1\n      tag_304\n      jumpi\n      pop\n        /* \"tronbox/contracts/SmartGenie.sol\":9795:9796  0 */\n      0x00\n        /* \"tronbox/contracts/SmartGenie.sol\":9747:9797  levelUpgradePayments[upLevel][payer] == address(0) */\n      0xffffffffffffffffffffffffffffffffffffffff\n      and\n        /* \"tronbox/contracts/SmartGenie.sol\":9747:9767  levelUpgradePayments */\n      0x0c\n        /* \"tronbox/contracts/SmartGenie.sol\":9747:9776  levelUpgradePayments[upLevel] */\n      0x00\n        /* \"tronbox/contracts/SmartGenie.sol\":9768:9775  upLevel */\n      dup6\n        /* \"tronbox/contracts/SmartGenie.sol\":9747:9776  levelUpgradePayments[upLevel] */\n      dup2\n      mstore\n      0x20\n      add\n      swap1\n      dup2\n      mstore\n      0x20\n      add\n      0x00\n      keccak256\n        /* \"tronbox/contracts/SmartGenie.sol\":9747:9783  levelUpgradePayments[upLevel][payer] */\n      0x00\n        /* \"tronbox/contracts/SmartGenie.sol\":9777:9782  payer */\n      dup5\n        /* \"tronbox/contracts/SmartGenie.sol\":9747:9783  levelUpgradePayments[upLevel][payer] */\n      0xffffffffffffffffffffffffffffffffffffffff\n      and\n      0xffffffffffffffffffffffffffffffffffffffff\n      and\n      dup2\n      mstore\n      0x20\n      add\n      swap1\n      dup2\n      mstore\n      0x20\n      add\n      0x00\n      keccak256\n      0x00\n      swap1\n      sload\n      swap1\n      0x0100\n      exp\n      swap1\n      div\n      0xffffffffffffffffffffffffffffffffffffffff\n      and\n        /* \"tronbox/contracts/SmartGenie.sol\":9747:9797  levelUpgradePayments[upLevel][payer] == address(0) */\n      0xffffffffffffffffffffffffffffffffffffffff\n      and\n      eq\n        /* \"tronbox/contracts/SmartGenie.sol\":9747:9873  levelUpgradePayments[upLevel][payer] == address(0) && ... */\n      dup1\n      iszero\n      tag_305\n      jumpi\n      pop\n        /* \"tronbox/contracts/SmartGenie.sol\":9868:9873  false */\n      0x00\n        /* \"tronbox/contracts/SmartGenie.sol\":9822:9873  isLevelUpgradedForAddress[upLevel][payer] ==  false */\n      iszero\n      iszero\n        /* \"tronbox/contracts/SmartGenie.sol\":9822:9847  isLevelUpgradedForAddress */\n      0x0d\n        /* \"tronbox/contracts/SmartGenie.sol\":9822:9856  isLevelUpgradedForAddress[upLevel] */\n      0x00\n        /* \"tronbox/contracts/SmartGenie.sol\":9848:9855  upLevel */\n      dup6\n        /* \"tronbox/contracts/SmartGenie.sol\":9822:9856  isLevelUpgradedForAddress[upLevel] */\n      dup2\n      mstore\n      0x20\n      add\n      swap1\n      dup2\n      mstore\n      0x20\n      add\n      0x00\n      keccak256\n        /* \"tronbox/contracts/SmartGenie.sol\":9822:9863  isLevelUpgradedForAddress[upLevel][payer] */\n      0x00\n        /* \"tronbox/contracts/SmartGenie.sol\":9857:9862  payer */\n      dup5\n        /* \"tronbox/contracts/SmartGenie.sol\":9822:9863  isLevelUpgradedForAddress[upLevel][payer] */\n      0xffffffffffffffffffffffffffffffffffffffff\n      and\n      0xffffffffffffffffffffffffffffffffffffffff\n      and\n      dup2\n      mstore\n      0x20\n      add\n      swap1\n      dup2\n      mstore\n      0x20\n      add\n      0x00\n      keccak256\n      0x00\n      swap1\n      sload\n      swap1\n      0x0100\n      exp\n      swap1\n      div\n      0xff\n      and\n        /* \"tronbox/contracts/SmartGenie.sol\":9822:9873  isLevelUpgradedForAddress[upLevel][payer] ==  false */\n      iszero\n      iszero\n      eq\n        /* \"tronbox/contracts/SmartGenie.sol\":9747:9873  levelUpgradePayments[upLevel][payer] == address(0) && ... */\n    tag_305:\n        /* \"tronbox/contracts/SmartGenie.sol\":9704:9874  !users[payer].isExist || ... */\n    tag_304:\n        /* \"tronbox/contracts/SmartGenie.sol\":9701:11121  if(!users[payer].isExist || ... */\n      iszero\n      tag_306\n      jumpi\n        /* \"tronbox/contracts/SmartGenie.sol\":9898:9903  users */\n      0x09\n        /* \"tronbox/contracts/SmartGenie.sol\":9898:9910  users[payer] */\n      0x00\n        /* \"tronbox/contracts/SmartGenie.sol\":9904:9909  payer */\n      dup4\n        /* \"tronbox/contracts/SmartGenie.sol\":9898:9910  users[payer] */\n      0xffffffffffffffffffffffffffffffffffffffff\n      and\n      0xffffffffffffffffffffffffffffffffffffffff\n      and\n      dup2\n      mstore\n      0x20\n      add\n      swap1\n      dup2\n      mstore\n      0x20\n      add\n      0x00\n      keccak256\n        /* \"tronbox/contracts/SmartGenie.sol\":9898:9918  users[payer].isExist */\n      0x00\n      add\n      0x00\n      swap1\n      sload\n      swap1\n      0x0100\n      exp\n      swap1\n      div\n      0xff\n      and\n        /* \"tronbox/contracts/SmartGenie.sol\":9894:9939  if(!users[payer].isExist) payer = userList[1] */\n      tag_307\n      jumpi\n        /* \"tronbox/contracts/SmartGenie.sol\":9928:9936  userList */\n      0x0a\n        /* \"tronbox/contracts/SmartGenie.sol\":9928:9939  userList[1] */\n      0x00\n        /* \"tronbox/contracts/SmartGenie.sol\":9937:9938  1 */\n      0x01\n        /* \"tronbox/contracts/SmartGenie.sol\":9928:9939  userList[1] */\n      dup2\n      mstore\n      0x20\n      add\n      swap1\n      dup2\n      mstore\n      0x20\n      add\n      0x00\n      keccak256\n      0x00\n      swap1\n      sload\n      swap1\n      0x0100\n      exp\n      swap1\n      div\n      0xffffffffffffffffffffffffffffffffffffffff\n      and\n        /* \"tronbox/contracts/SmartGenie.sol\":9920:9939  payer = userList[1] */\n      swap2\n      pop\n        /* \"tronbox/contracts/SmartGenie.sol\":9894:9939  if(!users[payer].isExist) payer = userList[1] */\n    tag_307:\n        /* \"tronbox/contracts/SmartGenie.sol\":10102:10110  userList */\n      0x0a\n        /* \"tronbox/contracts/SmartGenie.sol\":10102:10113  userList[1] */\n      0x00\n        /* \"tronbox/contracts/SmartGenie.sol\":10111:10112  1 */\n      0x01\n        /* \"tronbox/contracts/SmartGenie.sol\":10102:10113  userList[1] */\n      dup2\n      mstore\n      0x20\n      add\n      swap1\n      dup2\n      mstore\n      0x20\n      add\n      0x00\n      keccak256\n      0x00\n      swap1\n      sload\n      swap1\n      0x0100\n      exp\n      swap1\n      div\n      0xffffffffffffffffffffffffffffffffffffffff\n      and\n        /* \"tronbox/contracts/SmartGenie.sol\":10093:10113  payer != userList[1] */\n      0xffffffffffffffffffffffffffffffffffffffff\n      and\n        /* \"tronbox/contracts/SmartGenie.sol\":10093:10098  payer */\n      dup3\n        /* \"tronbox/contracts/SmartGenie.sol\":10093:10113  payer != userList[1] */\n      0xffffffffffffffffffffffffffffffffffffffff\n      and\n      eq\n        /* \"tronbox/contracts/SmartGenie.sol\":10090:10266  if(payer != userList[1]) {... */\n      tag_308\n      jumpi\n        /* \"tronbox/contracts/SmartGenie.sol\":10207:10208  1 */\n      0x01\n        /* \"tronbox/contracts/SmartGenie.sol\":10173:10178  users */\n      0x09\n        /* \"tronbox/contracts/SmartGenie.sol\":10173:10185  users[payer] */\n      0x00\n        /* \"tronbox/contracts/SmartGenie.sol\":10179:10184  payer */\n      dup5\n        /* \"tronbox/contracts/SmartGenie.sol\":10173:10185  users[payer] */\n      0xffffffffffffffffffffffffffffffffffffffff\n      and\n      0xffffffffffffffffffffffffffffffffffffffff\n      and\n      dup2\n      mstore\n      0x20\n      add\n      swap1\n      dup2\n      mstore\n      0x20\n      add\n      0x00\n      keccak256\n        /* \"tronbox/contracts/SmartGenie.sol\":10173:10197  users[payer].incomeCount */\n      0x05\n      add\n        /* \"tronbox/contracts/SmartGenie.sol\":10173:10206  users[payer].incomeCount[upLevel] */\n      0x00\n        /* \"tronbox/contracts/SmartGenie.sol\":10198:10205  upLevel */\n      dup6\n        /* \"tronbox/contracts/SmartGenie.sol\":10173:10206  users[payer].incomeCount[upLevel] */\n      dup2\n      mstore\n      0x20\n      add\n      swap1\n      dup2\n      mstore\n      0x20\n      add\n      0x00\n      keccak256\n      sload\n        /* \"tronbox/contracts/SmartGenie.sol\":10173:10208  users[payer].incomeCount[upLevel]+1 */\n      tag_309\n      swap2\n      swap1\n      tag_183\n      jump\t// in\n    tag_309:\n        /* \"tronbox/contracts/SmartGenie.sol\":10137:10142  users */\n      0x09\n        /* \"tronbox/contracts/SmartGenie.sol\":10137:10149  users[payer] */\n      0x00\n        /* \"tronbox/contracts/SmartGenie.sol\":10143:10148  payer */\n      dup5\n        /* \"tronbox/contracts/SmartGenie.sol\":10137:10149  users[payer] */\n      0xffffffffffffffffffffffffffffffffffffffff\n      and\n      0xffffffffffffffffffffffffffffffffffffffff\n      and\n      dup2\n      mstore\n      0x20\n      add\n      swap1\n      dup2\n      mstore\n      0x20\n      add\n      0x00\n      keccak256\n        /* \"tronbox/contracts/SmartGenie.sol\":10137:10161  users[payer].incomeCount */\n      0x05\n      add\n        /* \"tronbox/contracts/SmartGenie.sol\":10137:10170  users[payer].incomeCount[upLevel] */\n      0x00\n        /* \"tronbox/contracts/SmartGenie.sol\":10162:10169  upLevel */\n      dup6\n        /* \"tronbox/contracts/SmartGenie.sol\":10137:10170  users[payer].incomeCount[upLevel] */\n      dup2\n      mstore\n      0x20\n      add\n      swap1\n      dup2\n      mstore\n      0x20\n      add\n      0x00\n      keccak256\n        /* \"tronbox/contracts/SmartGenie.sol\":10137:10208  users[payer].incomeCount[upLevel] = users[payer].incomeCount[upLevel]+1 */\n      dup2\n      swap1\n      sstore\n      pop\n        /* \"tronbox/contracts/SmartGenie.sol\":10242:10247  false */\n      0x00\n        /* \"tronbox/contracts/SmartGenie.sol\":10230:10247  isPayNeed = false */\n      swap7\n      pop\n        /* \"tronbox/contracts/SmartGenie.sol\":10090:10266  if(payer != userList[1]) {... */\n    tag_308:\n        /* \"tronbox/contracts/SmartGenie.sol\":10402:10410  referrer */\n      dup1\n        /* \"tronbox/contracts/SmartGenie.sol\":10363:10383  levelUpgradePayments */\n      0x0c\n        /* \"tronbox/contracts/SmartGenie.sol\":10363:10392  levelUpgradePayments[upLevel] */\n      0x00\n        /* \"tronbox/contracts/SmartGenie.sol\":10384:10391  upLevel */\n      dup6\n        /* \"tronbox/contracts/SmartGenie.sol\":10363:10392  levelUpgradePayments[upLevel] */\n      dup2\n      mstore\n      0x20\n      add\n      swap1\n      dup2\n      mstore\n      0x20\n      add\n      0x00\n      keccak256\n        /* \"tronbox/contracts/SmartGenie.sol\":10363:10399  levelUpgradePayments[upLevel][payer] */\n      0x00\n        /* \"tronbox/contracts/SmartGenie.sol\":10393:10398  payer */\n      dup5\n        /* \"tronbox/contracts/SmartGenie.sol\":10363:10399  levelUpgradePayments[upLevel][payer] */\n      0xffffffffffffffffffffffffffffffffffffffff\n      and\n      0xffffffffffffffffffffffffffffffffffffffff\n      and\n      dup2\n      mstore\n      0x20\n      add\n      swap1\n      dup2\n      mstore\n      0x20\n      add\n      0x00\n      keccak256\n      0x00\n        /* \"tronbox/contracts/SmartGenie.sol\":10363:10410  levelUpgradePayments[upLevel][payer] = referrer */\n      0x0100\n      exp\n      dup2\n      sload\n      dup2\n      0xffffffffffffffffffffffffffffffffffffffff\n      mul\n      not\n      and\n      swap1\n      dup4\n      0xffffffffffffffffffffffffffffffffffffffff\n      and\n      mul\n      or\n      swap1\n      sstore\n      pop\n        /* \"tronbox/contracts/SmartGenie.sol\":10539:10540  1 */\n      0x01\n        /* \"tronbox/contracts/SmartGenie.sol\":10508:10520  levelCounter */\n      0x0b\n        /* \"tronbox/contracts/SmartGenie.sol\":10508:10529  levelCounter[upLevel] */\n      0x00\n        /* \"tronbox/contracts/SmartGenie.sol\":10521:10528  upLevel */\n      dup6\n        /* \"tronbox/contracts/SmartGenie.sol\":10508:10529  levelCounter[upLevel] */\n      dup2\n      mstore\n      0x20\n      add\n      swap1\n      dup2\n      mstore\n      0x20\n      add\n      0x00\n      keccak256\n        /* \"tronbox/contracts/SmartGenie.sol\":10508:10536  levelCounter[upLevel][payer] */\n      0x00\n        /* \"tronbox/contracts/SmartGenie.sol\":10530:10535  payer */\n      dup5\n        /* \"tronbox/contracts/SmartGenie.sol\":10508:10536  levelCounter[upLevel][payer] */\n      0xffffffffffffffffffffffffffffffffffffffff\n      and\n      0xffffffffffffffffffffffffffffffffffffffff\n      and\n      dup2\n      mstore\n      0x20\n      add\n      swap1\n      dup2\n      mstore\n      0x20\n      add\n      0x00\n      keccak256\n        /* \"tronbox/contracts/SmartGenie.sol\":10508:10540  levelCounter[upLevel][payer] = 1 */\n      dup2\n      swap1\n      sstore\n      pop\n        /* \"tronbox/contracts/SmartGenie.sol\":9701:11121  if(!users[payer].isExist || ... */\n      jump(tag_310)\n    tag_306:\n        /* \"tronbox/contracts/SmartGenie.sol\":10579:10603  address existingReferrer */\n      0x00\n        /* \"tronbox/contracts/SmartGenie.sol\":10606:10626  levelUpgradePayments */\n      0x0c\n        /* \"tronbox/contracts/SmartGenie.sol\":10606:10635  levelUpgradePayments[upLevel] */\n      0x00\n        /* \"tronbox/contracts/SmartGenie.sol\":10627:10634  upLevel */\n      dup6\n        /* \"tronbox/contracts/SmartGenie.sol\":10606:10635  levelUpgradePayments[upLevel] */\n      dup2\n      mstore\n      0x20\n      add\n      swap1\n      dup2\n      mstore\n      0x20\n      add\n      0x00\n      keccak256\n        /* \"tronbox/contracts/SmartGenie.sol\":10606:10642  levelUpgradePayments[upLevel][payer] */\n      0x00\n        /* \"tronbox/contracts/SmartGenie.sol\":10636:10641  payer */\n      dup5\n        /* \"tronbox/contracts/SmartGenie.sol\":10606:10642  levelUpgradePayments[upLevel][payer] */\n      0xffffffffffffffffffffffffffffffffffffffff\n      and\n      0xffffffffffffffffffffffffffffffffffffffff\n      and\n      dup2\n      mstore\n      0x20\n      add\n      swap1\n      dup2\n      mstore\n      0x20\n      add\n      0x00\n      keccak256\n      0x00\n      swap1\n      sload\n      swap1\n      0x0100\n      exp\n      swap1\n      div\n      0xffffffffffffffffffffffffffffffffffffffff\n      and\n        /* \"tronbox/contracts/SmartGenie.sol\":10579:10642  address existingReferrer = levelUpgradePayments[upLevel][payer] */\n      swap1\n      pop\n        /* \"tronbox/contracts/SmartGenie.sol\":10664:10724  isLevelUpgradeFromSameLeg(payer, existingReferrer, referrer) */\n      tag_311\n        /* \"tronbox/contracts/SmartGenie.sol\":10690:10695  payer */\n      dup4\n        /* \"tronbox/contracts/SmartGenie.sol\":10697:10713  existingReferrer */\n      dup3\n        /* \"tronbox/contracts/SmartGenie.sol\":10715:10723  referrer */\n      dup5\n        /* \"tronbox/contracts/SmartGenie.sol\":10664:10689  isLevelUpgradeFromSameLeg */\n      tag_312\n        /* \"tronbox/contracts/SmartGenie.sol\":10664:10724  isLevelUpgradeFromSameLeg(payer, existingReferrer, referrer) */\n      jump\t// in\n    tag_311:\n        /* \"tronbox/contracts/SmartGenie.sol\":10660:11107  if (isLevelUpgradeFromSameLeg(payer, existingReferrer, referrer)) {... */\n      iszero\n      tag_313\n      jumpi\n        /* \"tronbox/contracts/SmartGenie.sol\":10760:10764  true */\n      0x01\n        /* \"tronbox/contracts/SmartGenie.sol\":10748:10764  isSameLeg = true */\n      swap9\n      pop\n        /* \"tronbox/contracts/SmartGenie.sol\":10660:11107  if (isLevelUpgradeFromSameLeg(payer, existingReferrer, referrer)) {... */\n      jump(tag_314)\n    tag_313:\n        /* \"tronbox/contracts/SmartGenie.sol\":10931:10932  0 */\n      0x00\n        /* \"tronbox/contracts/SmartGenie.sol\":10884:10904  levelUpgradePayments */\n      0x0c\n        /* \"tronbox/contracts/SmartGenie.sol\":10884:10913  levelUpgradePayments[upLevel] */\n      0x00\n        /* \"tronbox/contracts/SmartGenie.sol\":10905:10912  upLevel */\n      dup7\n        /* \"tronbox/contracts/SmartGenie.sol\":10884:10913  levelUpgradePayments[upLevel] */\n      dup2\n      mstore\n      0x20\n      add\n      swap1\n      dup2\n      mstore\n      0x20\n      add\n      0x00\n      keccak256\n        /* \"tronbox/contracts/SmartGenie.sol\":10884:10920  levelUpgradePayments[upLevel][payer] */\n      0x00\n        /* \"tronbox/contracts/SmartGenie.sol\":10914:10919  payer */\n      dup6\n        /* \"tronbox/contracts/SmartGenie.sol\":10884:10920  levelUpgradePayments[upLevel][payer] */\n      0xffffffffffffffffffffffffffffffffffffffff\n      and\n      0xffffffffffffffffffffffffffffffffffffffff\n      and\n      dup2\n      mstore\n      0x20\n      add\n      swap1\n      dup2\n      mstore\n      0x20\n      add\n      0x00\n      keccak256\n      0x00\n        /* \"tronbox/contracts/SmartGenie.sol\":10884:10933  levelUpgradePayments[upLevel][payer] = address(0) */\n      0x0100\n      exp\n      dup2\n      sload\n      dup2\n      0xffffffffffffffffffffffffffffffffffffffff\n      mul\n      not\n      and\n      swap1\n      dup4\n      0xffffffffffffffffffffffffffffffffffffffff\n      and\n      mul\n      or\n      swap1\n      sstore\n      pop\n        /* \"tronbox/contracts/SmartGenie.sol\":10999:11003  true */\n      0x01\n        /* \"tronbox/contracts/SmartGenie.sol\":10955:10980  isLevelUpgradedForAddress */\n      0x0d\n        /* \"tronbox/contracts/SmartGenie.sol\":10955:10989  isLevelUpgradedForAddress[upLevel] */\n      0x00\n        /* \"tronbox/contracts/SmartGenie.sol\":10981:10988  upLevel */\n      dup7\n        /* \"tronbox/contracts/SmartGenie.sol\":10955:10989  isLevelUpgradedForAddress[upLevel] */\n      dup2\n      mstore\n      0x20\n      add\n      swap1\n      dup2\n      mstore\n      0x20\n      add\n      0x00\n      keccak256\n        /* \"tronbox/contracts/SmartGenie.sol\":10955:10996  isLevelUpgradedForAddress[upLevel][payer] */\n      0x00\n        /* \"tronbox/contracts/SmartGenie.sol\":10990:10995  payer */\n      dup6\n        /* \"tronbox/contracts/SmartGenie.sol\":10955:10996  isLevelUpgradedForAddress[upLevel][payer] */\n      0xffffffffffffffffffffffffffffffffffffffff\n      and\n      0xffffffffffffffffffffffffffffffffffffffff\n      and\n      dup2\n      mstore\n      0x20\n      add\n      swap1\n      dup2\n      mstore\n      0x20\n      add\n      0x00\n      keccak256\n      0x00\n        /* \"tronbox/contracts/SmartGenie.sol\":10955:11003  isLevelUpgradedForAddress[upLevel][payer] = true */\n      0x0100\n      exp\n      dup2\n      sload\n      dup2\n      0xff\n      mul\n      not\n      and\n      swap1\n      dup4\n      iszero\n      iszero\n      mul\n      or\n      swap1\n      sstore\n      pop\n        /* \"tronbox/contracts/SmartGenie.sol\":11087:11088  1 */\n      0x01\n        /* \"tronbox/contracts/SmartGenie.sol\":11056:11068  levelCounter */\n      0x0b\n        /* \"tronbox/contracts/SmartGenie.sol\":11056:11077  levelCounter[upLevel] */\n      0x00\n        /* \"tronbox/contracts/SmartGenie.sol\":11069:11076  upLevel */\n      dup7\n        /* \"tronbox/contracts/SmartGenie.sol\":11056:11077  levelCounter[upLevel] */\n      dup2\n      mstore\n      0x20\n      add\n      swap1\n      dup2\n      mstore\n      0x20\n      add\n      0x00\n      keccak256\n        /* \"tronbox/contracts/SmartGenie.sol\":11056:11084  levelCounter[upLevel][payer] */\n      0x00\n        /* \"tronbox/contracts/SmartGenie.sol\":11078:11083  payer */\n      dup6\n        /* \"tronbox/contracts/SmartGenie.sol\":11056:11084  levelCounter[upLevel][payer] */\n      0xffffffffffffffffffffffffffffffffffffffff\n      and\n      0xffffffffffffffffffffffffffffffffffffffff\n      and\n      dup2\n      mstore\n      0x20\n      add\n      swap1\n      dup2\n      mstore\n      0x20\n      add\n      0x00\n      keccak256\n      sload\n        /* \"tronbox/contracts/SmartGenie.sol\":11056:11088  levelCounter[upLevel][payer] + 1 */\n      tag_315\n      swap2\n      swap1\n      tag_183\n      jump\t// in\n    tag_315:\n        /* \"tronbox/contracts/SmartGenie.sol\":11025:11037  levelCounter */\n      0x0b\n        /* \"tronbox/contracts/SmartGenie.sol\":11025:11046  levelCounter[upLevel] */\n      0x00\n        /* \"tronbox/contracts/SmartGenie.sol\":11038:11045  upLevel */\n      dup7\n        /* \"tronbox/contracts/SmartGenie.sol\":11025:11046  levelCounter[upLevel] */\n      dup2\n      mstore\n      0x20\n      add\n      swap1\n      dup2\n      mstore\n      0x20\n      add\n      0x00\n      keccak256\n        /* \"tronbox/contracts/SmartGenie.sol\":11025:11053  levelCounter[upLevel][payer] */\n      0x00\n        /* \"tronbox/contracts/SmartGenie.sol\":11047:11052  payer */\n      dup6\n        /* \"tronbox/contracts/SmartGenie.sol\":11025:11053  levelCounter[upLevel][payer] */\n      0xffffffffffffffffffffffffffffffffffffffff\n      and\n      0xffffffffffffffffffffffffffffffffffffffff\n      and\n      dup2\n      mstore\n      0x20\n      add\n      swap1\n      dup2\n      mstore\n      0x20\n      add\n      0x00\n      keccak256\n        /* \"tronbox/contracts/SmartGenie.sol\":11025:11088  levelCounter[upLevel][payer] = levelCounter[upLevel][payer] + 1 */\n      dup2\n      swap1\n      sstore\n      pop\n        /* \"tronbox/contracts/SmartGenie.sol\":10660:11107  if (isLevelUpgradeFromSameLeg(payer, existingReferrer, referrer)) {... */\n    tag_314:\n        /* \"tronbox/contracts/SmartGenie.sol\":10561:11121  {... */\n      pop\n        /* \"tronbox/contracts/SmartGenie.sol\":9701:11121  if(!users[payer].isExist || ... */\n    tag_310:\n        /* \"tronbox/contracts/SmartGenie.sol\":11141:11146  users */\n      0x09\n        /* \"tronbox/contracts/SmartGenie.sol\":11141:11156  users[referrer] */\n      0x00\n        /* \"tronbox/contracts/SmartGenie.sol\":11147:11155  referrer */\n      dup3\n        /* \"tronbox/contracts/SmartGenie.sol\":11141:11156  users[referrer] */\n      0xffffffffffffffffffffffffffffffffffffffff\n      and\n      0xffffffffffffffffffffffffffffffffffffffff\n      and\n      dup2\n      mstore\n      0x20\n      add\n      swap1\n      dup2\n      mstore\n      0x20\n      add\n      0x00\n      keccak256\n        /* \"tronbox/contracts/SmartGenie.sol\":11141:11173  users[referrer].levelEligibility */\n      0x06\n      add\n        /* \"tronbox/contracts/SmartGenie.sol\":11179:11186  upLevel */\n      dup4\n        /* \"tronbox/contracts/SmartGenie.sol\":11141:11187  users[referrer].levelEligibility.push(upLevel) */\n      swap1\n      dup1\n      0x01\n      dup2\n      sload\n      add\n      dup1\n      dup3\n      sstore\n      dup1\n      swap2\n      pop\n      pop\n      0x01\n      swap1\n      sub\n      swap1\n      0x00\n      mstore\n      keccak256(0x00, 0x20)\n      add\n      0x00\n      swap1\n      swap2\n      swap1\n      swap2\n      swap1\n      swap2\n      pop\n      sstore\n        /* \"tronbox/contracts/SmartGenie.sol\":11206:11211  payer */\n      dup2\n        /* \"tronbox/contracts/SmartGenie.sol\":11213:11222  isPayNeed */\n      dup8\n        /* \"tronbox/contracts/SmartGenie.sol\":11224:11233  isSameLeg */\n      dup10\n        /* \"tronbox/contracts/SmartGenie.sol\":11198:11234  return (payer, isPayNeed, isSameLeg) */\n      swap6\n      pop\n      swap6\n      pop\n      swap6\n      pop\n      pop\n      pop\n      pop\n        /* \"tronbox/contracts/SmartGenie.sol\":9149:11241  function levelUpgrade(uint256 _regLevel, address _user, uint256 _levelEligibility, bool isSameLeg, bool isPayNeed ) ... */\n      swap6\n      pop\n      swap6\n      pop\n      swap6\n      swap3\n      pop\n      pop\n      pop\n      jump\t// out\n        /* \"tronbox/contracts/SmartGenie.sol\":16515:17250  function levelRenewal(bool _loop, address _user, uint256 _regLevel, uint256 _levelEligibility)internal returns(address, bool) {... */\n    tag_268:\n        /* \"tronbox/contracts/SmartGenie.sol\":16626:16633  address */\n      0x00\n        /* \"tronbox/contracts/SmartGenie.sol\":16635:16639  bool */\n      dup1\n        /* \"tronbox/contracts/SmartGenie.sol\":16651:16666  bool _isRenewal */\n      0x00\n        /* \"tronbox/contracts/SmartGenie.sol\":16669:16673  true */\n      0x01\n        /* \"tronbox/contracts/SmartGenie.sol\":16651:16673  bool _isRenewal = true */\n      swap1\n      pop\n        /* \"tronbox/contracts/SmartGenie.sol\":16683:16699  address referrer */\n      0x00\n        /* \"tronbox/contracts/SmartGenie.sol\":16701:16714  address payer */\n      dup1\n        /* \"tronbox/contracts/SmartGenie.sol\":16729:16734  _loop */\n      dup9\n        /* \"tronbox/contracts/SmartGenie.sol\":16725:17068  if(!_loop) {... */\n      tag_318\n      jumpi\n        /* \"tronbox/contracts/SmartGenie.sol\":16762:16770  userList */\n      0x0a\n        /* \"tronbox/contracts/SmartGenie.sol\":16762:16795  userList[users[_user].referrerID] */\n      0x00\n        /* \"tronbox/contracts/SmartGenie.sol\":16771:16776  users */\n      0x09\n        /* \"tronbox/contracts/SmartGenie.sol\":16771:16783  users[_user] */\n      0x00\n        /* \"tronbox/contracts/SmartGenie.sol\":16777:16782  _user */\n      dup12\n        /* \"tronbox/contracts/SmartGenie.sol\":16771:16783  users[_user] */\n      0xffffffffffffffffffffffffffffffffffffffff\n      and\n      0xffffffffffffffffffffffffffffffffffffffff\n      and\n      dup2\n      mstore\n      0x20\n      add\n      swap1\n      dup2\n      mstore\n      0x20\n      add\n      0x00\n      keccak256\n        /* \"tronbox/contracts/SmartGenie.sol\":16771:16794  users[_user].referrerID */\n      0x02\n      add\n      sload\n        /* \"tronbox/contracts/SmartGenie.sol\":16762:16795  userList[users[_user].referrerID] */\n      dup2\n      mstore\n      0x20\n      add\n      swap1\n      dup2\n      mstore\n      0x20\n      add\n      0x00\n      keccak256\n      0x00\n      swap1\n      sload\n      swap1\n      0x0100\n      exp\n      swap1\n      div\n      0xffffffffffffffffffffffffffffffffffffffff\n      and\n        /* \"tronbox/contracts/SmartGenie.sol\":16751:16795  referrer = userList[users[_user].referrerID] */\n      swap2\n      pop\n        /* \"tronbox/contracts/SmartGenie.sol\":16725:17068  if(!_loop) {... */\n      jump(tag_319)\n    tag_318:\n        /* \"tronbox/contracts/SmartGenie.sol\":16839:16844  _user */\n      dup8\n        /* \"tronbox/contracts/SmartGenie.sol\":16828:16844  referrer = _user */\n      swap2\n      pop\n        /* \"tronbox/contracts/SmartGenie.sol\":16725:17068  if(!_loop) {... */\n    tag_319:\n        /* \"tronbox/contracts/SmartGenie.sol\":17087:17143  findRenewalPayer(referrer, _regLevel, _levelEligibility) */\n      tag_320\n        /* \"tronbox/contracts/SmartGenie.sol\":17104:17112  referrer */\n      dup3\n        /* \"tronbox/contracts/SmartGenie.sol\":17114:17123  _regLevel */\n      dup9\n        /* \"tronbox/contracts/SmartGenie.sol\":17125:17142  _levelEligibility */\n      dup9\n        /* \"tronbox/contracts/SmartGenie.sol\":17087:17103  findRenewalPayer */\n      tag_321\n        /* \"tronbox/contracts/SmartGenie.sol\":17087:17143  findRenewalPayer(referrer, _regLevel, _levelEligibility) */\n      jump\t// in\n    tag_320:\n        /* \"tronbox/contracts/SmartGenie.sol\":17076:17143  (payer,) = findRenewalPayer(referrer, _regLevel, _levelEligibility) */\n      pop\n      dup1\n      swap2\n      pop\n      pop\n        /* \"tronbox/contracts/SmartGenie.sol\":17157:17162  users */\n      0x09\n        /* \"tronbox/contracts/SmartGenie.sol\":17157:17169  users[payer] */\n      0x00\n        /* \"tronbox/contracts/SmartGenie.sol\":17163:17168  payer */\n      dup3\n        /* \"tronbox/contracts/SmartGenie.sol\":17157:17169  users[payer] */\n      0xffffffffffffffffffffffffffffffffffffffff\n      and\n      0xffffffffffffffffffffffffffffffffffffffff\n      and\n      dup2\n      mstore\n      0x20\n      add\n      swap1\n      dup2\n      mstore\n      0x20\n      add\n      0x00\n      keccak256\n        /* \"tronbox/contracts/SmartGenie.sol\":17157:17177  users[payer].isExist */\n      0x00\n      add\n      0x00\n      swap1\n      sload\n      swap1\n      0x0100\n      exp\n      swap1\n      div\n      0xff\n      and\n        /* \"tronbox/contracts/SmartGenie.sol\":17153:17198  if(!users[payer].isExist) payer = userList[1] */\n      tag_322\n      jumpi\n        /* \"tronbox/contracts/SmartGenie.sol\":17187:17195  userList */\n      0x0a\n        /* \"tronbox/contracts/SmartGenie.sol\":17187:17198  userList[1] */\n      0x00\n        /* \"tronbox/contracts/SmartGenie.sol\":17196:17197  1 */\n      0x01\n        /* \"tronbox/contracts/SmartGenie.sol\":17187:17198  userList[1] */\n      dup2\n      mstore\n      0x20\n      add\n      swap1\n      dup2\n      mstore\n      0x20\n      add\n      0x00\n      keccak256\n      0x00\n      swap1\n      sload\n      swap1\n      0x0100\n      exp\n      swap1\n      div\n      0xffffffffffffffffffffffffffffffffffffffff\n      and\n        /* \"tronbox/contracts/SmartGenie.sol\":17179:17198  payer = userList[1] */\n      swap1\n      pop\n        /* \"tronbox/contracts/SmartGenie.sol\":17153:17198  if(!users[payer].isExist) payer = userList[1] */\n    tag_322:\n        /* \"tronbox/contracts/SmartGenie.sol\":17225:17230  payer */\n      dup1\n        /* \"tronbox/contracts/SmartGenie.sol\":17232:17242  _isRenewal */\n      dup4\n        /* \"tronbox/contracts/SmartGenie.sol\":17217:17243  return (payer, _isRenewal) */\n      swap5\n      pop\n      swap5\n      pop\n      pop\n      pop\n      pop\n        /* \"tronbox/contracts/SmartGenie.sol\":16515:17250  function levelRenewal(bool _loop, address _user, uint256 _regLevel, uint256 _levelEligibility)internal returns(address, bool) {... */\n      swap5\n      pop\n      swap5\n      swap3\n      pop\n      pop\n      pop\n      jump\t// out\n        /* \"tronbox/contracts/SmartGenie.sol\":17260:19553  function checkLoopRequired(address _payer, uint256 _regLevel, uint256 _length, bool isRenewal, bool isSameLeg) ... */\n    tag_274:\n        /* \"tronbox/contracts/SmartGenie.sol\":17407:17411  bool */\n      0x00\n        /* \"tronbox/contracts/SmartGenie.sol\":17413:17420  uint256 */\n      dup1\n        /* \"tronbox/contracts/SmartGenie.sol\":17432:17441  bool loop */\n      0x00\n        /* \"tronbox/contracts/SmartGenie.sol\":17459:17473  uint256 length */\n      dup1\n        /* \"tronbox/contracts/SmartGenie.sol\":17476:17483  _length */\n      dup7\n        /* \"tronbox/contracts/SmartGenie.sol\":17459:17483  uint256 length = _length */\n      swap1\n      pop\n        /* \"tronbox/contracts/SmartGenie.sol\":17594:17618  uint256 tempPaymentCount */\n      0x00\n        /* \"tronbox/contracts/SmartGenie.sol\":17658:17659  1 */\n      0x01\n        /* \"tronbox/contracts/SmartGenie.sol\":17621:17626  users */\n      0x09\n        /* \"tronbox/contracts/SmartGenie.sol\":17621:17634  users[_payer] */\n      0x00\n        /* \"tronbox/contracts/SmartGenie.sol\":17627:17633  _payer */\n      dup13\n        /* \"tronbox/contracts/SmartGenie.sol\":17621:17634  users[_payer] */\n      0xffffffffffffffffffffffffffffffffffffffff\n      and\n      0xffffffffffffffffffffffffffffffffffffffff\n      and\n      dup2\n      mstore\n      0x20\n      add\n      swap1\n      dup2\n      mstore\n      0x20\n      add\n      0x00\n      keccak256\n        /* \"tronbox/contracts/SmartGenie.sol\":17621:17646  users[_payer].incomeCount */\n      0x05\n      add\n        /* \"tronbox/contracts/SmartGenie.sol\":17621:17657  users[_payer].incomeCount[_regLevel] */\n      0x00\n        /* \"tronbox/contracts/SmartGenie.sol\":17647:17656  _regLevel */\n      dup12\n        /* \"tronbox/contracts/SmartGenie.sol\":17621:17657  users[_payer].incomeCount[_regLevel] */\n      dup2\n      mstore\n      0x20\n      add\n      swap1\n      dup2\n      mstore\n      0x20\n      add\n      0x00\n      keccak256\n      sload\n        /* \"tronbox/contracts/SmartGenie.sol\":17621:17659  users[_payer].incomeCount[_regLevel]+1 */\n      tag_324\n      swap2\n      swap1\n      tag_183\n      jump\t// in\n    tag_324:\n        /* \"tronbox/contracts/SmartGenie.sol\":17594:17659  uint256 tempPaymentCount = users[_payer].incomeCount[_regLevel]+1 */\n      swap1\n      pop\n        /* \"tronbox/contracts/SmartGenie.sol\":17753:17754  2 */\n      0x02\n        /* \"tronbox/contracts/SmartGenie.sol\":17718:17730  levelCounter */\n      0x0b\n        /* \"tronbox/contracts/SmartGenie.sol\":17718:17741  levelCounter[_regLevel] */\n      0x00\n        /* \"tronbox/contracts/SmartGenie.sol\":17731:17740  _regLevel */\n      dup12\n        /* \"tronbox/contracts/SmartGenie.sol\":17718:17741  levelCounter[_regLevel] */\n      dup2\n      mstore\n      0x20\n      add\n      swap1\n      dup2\n      mstore\n      0x20\n      add\n      0x00\n      keccak256\n        /* \"tronbox/contracts/SmartGenie.sol\":17718:17749  levelCounter[_regLevel][_payer] */\n      0x00\n        /* \"tronbox/contracts/SmartGenie.sol\":17742:17748  _payer */\n      dup13\n        /* \"tronbox/contracts/SmartGenie.sol\":17718:17749  levelCounter[_regLevel][_payer] */\n      0xffffffffffffffffffffffffffffffffffffffff\n      and\n      0xffffffffffffffffffffffffffffffffffffffff\n      and\n      dup2\n      mstore\n      0x20\n      add\n      swap1\n      dup2\n      mstore\n      0x20\n      add\n      0x00\n      keccak256\n      sload\n        /* \"tronbox/contracts/SmartGenie.sol\":17718:17754  levelCounter[_regLevel][_payer] == 2 */\n      eq\n        /* \"tronbox/contracts/SmartGenie.sol\":17715:19509  if(levelCounter[_regLevel][_payer] == 2) {... */\n      iszero\n      tag_325\n      jumpi\n        /* \"tronbox/contracts/SmartGenie.sol\":17777:17781  true */\n      0x01\n        /* \"tronbox/contracts/SmartGenie.sol\":17770:17781  loop = true */\n      swap3\n      pop\n        /* \"tronbox/contracts/SmartGenie.sol\":17715:19509  if(levelCounter[_regLevel][_payer] == 2) {... */\n      jump(tag_326)\n    tag_325:\n        /* \"tronbox/contracts/SmartGenie.sol\":17990:17991  4 */\n      0x04\n        /* \"tronbox/contracts/SmartGenie.sol\":17970:17986  tempPaymentCount */\n      dup2\n        /* \"tronbox/contracts/SmartGenie.sol\":17970:17991  tempPaymentCount >= 4 */\n      lt\n      iszero\n        /* \"tronbox/contracts/SmartGenie.sol\":17970:18030  tempPaymentCount >= 4 &&... */\n      dup1\n      iszero\n      tag_327\n      jumpi\n      pop\n        /* \"tronbox/contracts/SmartGenie.sol\":18029:18030  0 */\n      0x00\n        /* \"tronbox/contracts/SmartGenie.sol\":18024:18025  4 */\n      0x04\n        /* \"tronbox/contracts/SmartGenie.sol\":18005:18021  tempPaymentCount */\n      dup3\n        /* \"tronbox/contracts/SmartGenie.sol\":18005:18025  tempPaymentCount % 4 */\n      tag_328\n      swap2\n      swap1\n      tag_261\n      jump\t// in\n    tag_328:\n        /* \"tronbox/contracts/SmartGenie.sol\":18005:18030  tempPaymentCount % 4 == 0 */\n      eq\n        /* \"tronbox/contracts/SmartGenie.sol\":17970:18030  tempPaymentCount >= 4 &&... */\n    tag_327:\n        /* \"tronbox/contracts/SmartGenie.sol\":17970:18072  tempPaymentCount >= 4 &&... */\n      dup1\n      iszero\n      tag_329\n      jumpi\n      pop\n        /* \"tronbox/contracts/SmartGenie.sol\":18071:18072  0 */\n      0x00\n        /* \"tronbox/contracts/SmartGenie.sol\":18045:18050  users */\n      0x09\n        /* \"tronbox/contracts/SmartGenie.sol\":18045:18058  users[_payer] */\n      0x00\n        /* \"tronbox/contracts/SmartGenie.sol\":18051:18057  _payer */\n      dup13\n        /* \"tronbox/contracts/SmartGenie.sol\":18045:18058  users[_payer] */\n      0xffffffffffffffffffffffffffffffffffffffff\n      and\n      0xffffffffffffffffffffffffffffffffffffffff\n      and\n      dup2\n      mstore\n      0x20\n      add\n      swap1\n      dup2\n      mstore\n      0x20\n      add\n      0x00\n      keccak256\n        /* \"tronbox/contracts/SmartGenie.sol\":18045:18069  users[_payer].referrerID */\n      0x02\n      add\n      sload\n        /* \"tronbox/contracts/SmartGenie.sol\":18045:18072  users[_payer].referrerID!=0 */\n      eq\n      iszero\n        /* \"tronbox/contracts/SmartGenie.sol\":17970:18072  tempPaymentCount >= 4 &&... */\n    tag_329:\n        /* \"tronbox/contracts/SmartGenie.sol\":17970:18090  tempPaymentCount >= 4 &&... */\n      dup1\n      iszero\n      tag_330\n      jumpi\n      pop\n        /* \"tronbox/contracts/SmartGenie.sol\":18089:18090  1 */\n      0x01\n        /* \"tronbox/contracts/SmartGenie.sol\":18076:18085  _regLevel */\n      dup10\n        /* \"tronbox/contracts/SmartGenie.sol\":18076:18090  _regLevel == 1 */\n      eq\n        /* \"tronbox/contracts/SmartGenie.sol\":17970:18090  tempPaymentCount >= 4 &&... */\n    tag_330:\n        /* \"tronbox/contracts/SmartGenie.sol\":17967:19509  if(tempPaymentCount >= 4 &&... */\n      iszero\n      tag_331\n      jumpi\n        /* \"tronbox/contracts/SmartGenie.sol\":18127:18128  3 */\n      0x03\n        /* \"tronbox/contracts/SmartGenie.sol\":18116:18123  _length */\n      dup9\n        /* \"tronbox/contracts/SmartGenie.sol\":18116:18128  _length == 3 */\n      eq\n        /* \"tronbox/contracts/SmartGenie.sol\":18116:18152  _length == 3 && tempPaymentCount ==4 */\n      dup1\n      iszero\n      tag_332\n      jumpi\n      pop\n        /* \"tronbox/contracts/SmartGenie.sol\":18151:18152  4 */\n      0x04\n        /* \"tronbox/contracts/SmartGenie.sol\":18132:18148  tempPaymentCount */\n      dup2\n        /* \"tronbox/contracts/SmartGenie.sol\":18132:18152  tempPaymentCount ==4 */\n      eq\n        /* \"tronbox/contracts/SmartGenie.sol\":18116:18152  _length == 3 && tempPaymentCount ==4 */\n    tag_332:\n        /* \"tronbox/contracts/SmartGenie.sol\":18113:18210  if(_length == 3 && tempPaymentCount ==4) {... */\n      iszero\n      tag_333\n      jumpi\n        /* \"tronbox/contracts/SmartGenie.sol\":18181:18197  tempPaymentCount */\n      dup1\n        /* \"tronbox/contracts/SmartGenie.sol\":18172:18197  length = tempPaymentCount */\n      swap2\n      pop\n        /* \"tronbox/contracts/SmartGenie.sol\":18113:18210  if(_length == 3 && tempPaymentCount ==4) {... */\n    tag_333:\n        /* \"tronbox/contracts/SmartGenie.sol\":18230:18234  true */\n      0x01\n        /* \"tronbox/contracts/SmartGenie.sol\":18223:18234  loop = true */\n      swap3\n      pop\n        /* \"tronbox/contracts/SmartGenie.sol\":17967:19509  if(tempPaymentCount >= 4 &&... */\n      jump(tag_334)\n    tag_331:\n        /* \"tronbox/contracts/SmartGenie.sol\":18431:18432  4 */\n      0x04\n        /* \"tronbox/contracts/SmartGenie.sol\":18411:18427  tempPaymentCount */\n      dup2\n        /* \"tronbox/contracts/SmartGenie.sol\":18411:18432  tempPaymentCount >= 4 */\n      lt\n      iszero\n        /* \"tronbox/contracts/SmartGenie.sol\":18411:18473  tempPaymentCount >= 4 &&... */\n      dup1\n      iszero\n      tag_335\n      jumpi\n      pop\n        /* \"tronbox/contracts/SmartGenie.sol\":18472:18473  0 */\n      0x00\n        /* \"tronbox/contracts/SmartGenie.sol\":18467:18468  4 */\n      0x04\n        /* \"tronbox/contracts/SmartGenie.sol\":18448:18464  tempPaymentCount */\n      dup3\n        /* \"tronbox/contracts/SmartGenie.sol\":18448:18468  tempPaymentCount % 4 */\n      tag_336\n      swap2\n      swap1\n      tag_261\n      jump\t// in\n    tag_336:\n        /* \"tronbox/contracts/SmartGenie.sol\":18448:18473  tempPaymentCount % 4 == 0 */\n      eq\n        /* \"tronbox/contracts/SmartGenie.sol\":18411:18473  tempPaymentCount >= 4 &&... */\n    tag_335:\n        /* \"tronbox/contracts/SmartGenie.sol\":18411:18502  tempPaymentCount >= 4 &&... */\n      dup1\n      iszero\n      tag_337\n      jumpi\n      pop\n        /* \"tronbox/contracts/SmartGenie.sol\":18501:18502  2 */\n      0x02\n        /* \"tronbox/contracts/SmartGenie.sol\":18490:18497  _length */\n      dup9\n        /* \"tronbox/contracts/SmartGenie.sol\":18490:18502  _length == 2 */\n      eq\n        /* \"tronbox/contracts/SmartGenie.sol\":18411:18502  tempPaymentCount >= 4 &&... */\n    tag_337:\n        /* \"tronbox/contracts/SmartGenie.sol\":18411:18516  tempPaymentCount >= 4 &&... */\n      dup1\n      iszero\n      tag_338\n      jumpi\n      pop\n        /* \"tronbox/contracts/SmartGenie.sol\":18507:18516  isSameLeg */\n      dup6\n        /* \"tronbox/contracts/SmartGenie.sol\":18506:18516  !isSameLeg */\n      iszero\n        /* \"tronbox/contracts/SmartGenie.sol\":18411:18516  tempPaymentCount >= 4 &&... */\n    tag_338:\n        /* \"tronbox/contracts/SmartGenie.sol\":18411:18545  tempPaymentCount >= 4 &&... */\n      dup1\n      iszero\n      tag_339\n      jumpi\n      pop\n        /* \"tronbox/contracts/SmartGenie.sol\":18544:18545  1 */\n      0x01\n        /* \"tronbox/contracts/SmartGenie.sol\":18532:18541  _regLevel */\n      dup10\n        /* \"tronbox/contracts/SmartGenie.sol\":18532:18545  _regLevel > 1 */\n      gt\n        /* \"tronbox/contracts/SmartGenie.sol\":18411:18545  tempPaymentCount >= 4 &&... */\n    tag_339:\n        /* \"tronbox/contracts/SmartGenie.sol\":18407:19509  if (tempPaymentCount >= 4 &&... */\n      iszero\n      tag_340\n      jumpi\n        /* \"tronbox/contracts/SmartGenie.sol\":18663:18671  userList */\n      0x0a\n        /* \"tronbox/contracts/SmartGenie.sol\":18663:18674  userList[1] */\n      0x00\n        /* \"tronbox/contracts/SmartGenie.sol\":18672:18673  1 */\n      0x01\n        /* \"tronbox/contracts/SmartGenie.sol\":18663:18674  userList[1] */\n      dup2\n      mstore\n      0x20\n      add\n      swap1\n      dup2\n      mstore\n      0x20\n      add\n      0x00\n      keccak256\n      0x00\n      swap1\n      sload\n      swap1\n      0x0100\n      exp\n      swap1\n      div\n      0xffffffffffffffffffffffffffffffffffffffff\n      and\n        /* \"tronbox/contracts/SmartGenie.sol\":18653:18674  _payer == userList[1] */\n      0xffffffffffffffffffffffffffffffffffffffff\n      and\n        /* \"tronbox/contracts/SmartGenie.sol\":18653:18659  _payer */\n      dup11\n        /* \"tronbox/contracts/SmartGenie.sol\":18653:18674  _payer == userList[1] */\n      0xffffffffffffffffffffffffffffffffffffffff\n      and\n      eq\n        /* \"tronbox/contracts/SmartGenie.sol\":18650:18799  if(_payer == userList[1]) {... */\n      iszero\n      tag_341\n      jumpi\n        /* \"tronbox/contracts/SmartGenie.sol\":18701:18706  false */\n      0x00\n        /* \"tronbox/contracts/SmartGenie.sol\":18694:18706  loop = false */\n      swap3\n      pop\n        /* \"tronbox/contracts/SmartGenie.sol\":18650:18799  if(_payer == userList[1]) {... */\n      jump(tag_342)\n    tag_341:\n        /* \"tronbox/contracts/SmartGenie.sol\":18754:18755  4 */\n      0x04\n        /* \"tronbox/contracts/SmartGenie.sol\":18745:18755  length = 4 */\n      swap2\n      pop\n        /* \"tronbox/contracts/SmartGenie.sol\":18780:18784  true */\n      0x01\n        /* \"tronbox/contracts/SmartGenie.sol\":18773:18784  loop = true */\n      swap3\n      pop\n        /* \"tronbox/contracts/SmartGenie.sol\":18650:18799  if(_payer == userList[1]) {... */\n    tag_342:\n        /* \"tronbox/contracts/SmartGenie.sol\":18407:19509  if (tempPaymentCount >= 4 &&... */\n      jump(tag_343)\n    tag_340:\n        /* \"tronbox/contracts/SmartGenie.sol\":18904:18905  2 */\n      0x02\n        /* \"tronbox/contracts/SmartGenie.sol\":18884:18900  tempPaymentCount */\n      dup2\n        /* \"tronbox/contracts/SmartGenie.sol\":18884:18905  tempPaymentCount == 2 */\n      eq\n        /* \"tronbox/contracts/SmartGenie.sol\":18884:18946  tempPaymentCount == 2 &&... */\n      dup1\n      iszero\n      tag_344\n      jumpi\n      pop\n        /* \"tronbox/contracts/SmartGenie.sol\":18945:18946  0 */\n      0x00\n        /* \"tronbox/contracts/SmartGenie.sol\":18919:18924  users */\n      0x09\n        /* \"tronbox/contracts/SmartGenie.sol\":18919:18932  users[_payer] */\n      0x00\n        /* \"tronbox/contracts/SmartGenie.sol\":18925:18931  _payer */\n      dup13\n        /* \"tronbox/contracts/SmartGenie.sol\":18919:18932  users[_payer] */\n      0xffffffffffffffffffffffffffffffffffffffff\n      and\n      0xffffffffffffffffffffffffffffffffffffffff\n      and\n      dup2\n      mstore\n      0x20\n      add\n      swap1\n      dup2\n      mstore\n      0x20\n      add\n      0x00\n      keccak256\n        /* \"tronbox/contracts/SmartGenie.sol\":18919:18943  users[_payer].referrerID */\n      0x02\n      add\n      sload\n        /* \"tronbox/contracts/SmartGenie.sol\":18919:18946  users[_payer].referrerID!=0 */\n      eq\n      iszero\n        /* \"tronbox/contracts/SmartGenie.sol\":18884:18946  tempPaymentCount == 2 &&... */\n    tag_344:\n        /* \"tronbox/contracts/SmartGenie.sol\":18884:18960  tempPaymentCount == 2 &&... */\n      dup1\n      iszero\n      tag_345\n      jumpi\n      pop\n        /* \"tronbox/contracts/SmartGenie.sol\":18951:18960  isRenewal */\n      dup7\n        /* \"tronbox/contracts/SmartGenie.sol\":18950:18960  !isRenewal */\n      iszero\n        /* \"tronbox/contracts/SmartGenie.sol\":18884:18960  tempPaymentCount == 2 &&... */\n    tag_345:\n        /* \"tronbox/contracts/SmartGenie.sol\":18884:18974  tempPaymentCount == 2 &&... */\n      dup1\n      iszero\n      tag_346\n      jumpi\n      pop\n        /* \"tronbox/contracts/SmartGenie.sol\":18965:18974  isSameLeg */\n      dup6\n        /* \"tronbox/contracts/SmartGenie.sol\":18964:18974  !isSameLeg */\n      iszero\n        /* \"tronbox/contracts/SmartGenie.sol\":18884:18974  tempPaymentCount == 2 &&... */\n    tag_346:\n        /* \"tronbox/contracts/SmartGenie.sol\":18881:19509  if(tempPaymentCount == 2 &&... */\n      iszero\n      tag_347\n      jumpi\n        /* \"tronbox/contracts/SmartGenie.sol\":18993:18998  users */\n      0x09\n        /* \"tronbox/contracts/SmartGenie.sol\":18993:19006  users[_payer] */\n      0x00\n        /* \"tronbox/contracts/SmartGenie.sol\":18999:19005  _payer */\n      dup12\n        /* \"tronbox/contracts/SmartGenie.sol\":18993:19006  users[_payer] */\n      0xffffffffffffffffffffffffffffffffffffffff\n      and\n      0xffffffffffffffffffffffffffffffffffffffff\n      and\n      dup2\n      mstore\n      0x20\n      add\n      swap1\n      dup2\n      mstore\n      0x20\n      add\n      0x00\n      keccak256\n        /* \"tronbox/contracts/SmartGenie.sol\":18993:19014  users[_payer].isExist */\n      0x00\n      add\n      0x00\n      swap1\n      sload\n      swap1\n      0x0100\n      exp\n      swap1\n      div\n      0xff\n      and\n        /* \"tronbox/contracts/SmartGenie.sol\":18989:19036  if(!users[_payer].isExist) _payer = userList[1] */\n      tag_348\n      jumpi\n        /* \"tronbox/contracts/SmartGenie.sol\":19025:19033  userList */\n      0x0a\n        /* \"tronbox/contracts/SmartGenie.sol\":19025:19036  userList[1] */\n      0x00\n        /* \"tronbox/contracts/SmartGenie.sol\":19034:19035  1 */\n      0x01\n        /* \"tronbox/contracts/SmartGenie.sol\":19025:19036  userList[1] */\n      dup2\n      mstore\n      0x20\n      add\n      swap1\n      dup2\n      mstore\n      0x20\n      add\n      0x00\n      keccak256\n      0x00\n      swap1\n      sload\n      swap1\n      0x0100\n      exp\n      swap1\n      div\n      0xffffffffffffffffffffffffffffffffffffffff\n      and\n        /* \"tronbox/contracts/SmartGenie.sol\":19016:19036  _payer = userList[1] */\n      swap10\n      pop\n        /* \"tronbox/contracts/SmartGenie.sol\":18989:19036  if(!users[_payer].isExist) _payer = userList[1] */\n    tag_348:\n        /* \"tronbox/contracts/SmartGenie.sol\":19063:19071  userList */\n      0x0a\n        /* \"tronbox/contracts/SmartGenie.sol\":19063:19074  userList[1] */\n      0x00\n        /* \"tronbox/contracts/SmartGenie.sol\":19072:19073  1 */\n      0x01\n        /* \"tronbox/contracts/SmartGenie.sol\":19063:19074  userList[1] */\n      dup2\n      mstore\n      0x20\n      add\n      swap1\n      dup2\n      mstore\n      0x20\n      add\n      0x00\n      keccak256\n      0x00\n      swap1\n      sload\n      swap1\n      0x0100\n      exp\n      swap1\n      div\n      0xffffffffffffffffffffffffffffffffffffffff\n      and\n        /* \"tronbox/contracts/SmartGenie.sol\":19053:19074  _payer == userList[1] */\n      0xffffffffffffffffffffffffffffffffffffffff\n      and\n        /* \"tronbox/contracts/SmartGenie.sol\":19053:19059  _payer */\n      dup11\n        /* \"tronbox/contracts/SmartGenie.sol\":19053:19074  _payer == userList[1] */\n      0xffffffffffffffffffffffffffffffffffffffff\n      and\n      eq\n        /* \"tronbox/contracts/SmartGenie.sol\":19050:19214  if(_payer == userList[1]) {... */\n      iszero\n      tag_349\n      jumpi\n        /* \"tronbox/contracts/SmartGenie.sol\":19101:19106  false */\n      0x00\n        /* \"tronbox/contracts/SmartGenie.sol\":19094:19106  loop = false */\n      swap3\n      pop\n        /* \"tronbox/contracts/SmartGenie.sol\":19050:19214  if(_payer == userList[1]) {... */\n      jump(tag_350)\n    tag_349:\n        /* \"tronbox/contracts/SmartGenie.sol\":19152:19156  true */\n      0x01\n        /* \"tronbox/contracts/SmartGenie.sol\":19145:19156  loop = true */\n      swap3\n      pop\n        /* \"tronbox/contracts/SmartGenie.sol\":19183:19199  tempPaymentCount */\n      dup1\n        /* \"tronbox/contracts/SmartGenie.sol\":19174:19199  length = tempPaymentCount */\n      swap2\n      pop\n        /* \"tronbox/contracts/SmartGenie.sol\":19050:19214  if(_payer == userList[1]) {... */\n    tag_350:\n        /* \"tronbox/contracts/SmartGenie.sol\":18881:19509  if(tempPaymentCount == 2 &&... */\n      jump(tag_351)\n    tag_347:\n        /* \"tronbox/contracts/SmartGenie.sol\":19394:19395  1 */\n      0x01\n        /* \"tronbox/contracts/SmartGenie.sol\":19374:19390  tempPaymentCount */\n      dup2\n        /* \"tronbox/contracts/SmartGenie.sol\":19374:19395  tempPaymentCount == 1 */\n      eq\n        /* \"tronbox/contracts/SmartGenie.sol\":19374:19436  tempPaymentCount == 1 &&... */\n      dup1\n      iszero\n      tag_352\n      jumpi\n      pop\n        /* \"tronbox/contracts/SmartGenie.sol\":19435:19436  0 */\n      0x00\n        /* \"tronbox/contracts/SmartGenie.sol\":19409:19414  users */\n      0x09\n        /* \"tronbox/contracts/SmartGenie.sol\":19409:19422  users[_payer] */\n      0x00\n        /* \"tronbox/contracts/SmartGenie.sol\":19415:19421  _payer */\n      dup13\n        /* \"tronbox/contracts/SmartGenie.sol\":19409:19422  users[_payer] */\n      0xffffffffffffffffffffffffffffffffffffffff\n      and\n      0xffffffffffffffffffffffffffffffffffffffff\n      and\n      dup2\n      mstore\n      0x20\n      add\n      swap1\n      dup2\n      mstore\n      0x20\n      add\n      0x00\n      keccak256\n        /* \"tronbox/contracts/SmartGenie.sol\":19409:19433  users[_payer].referrerID */\n      0x02\n      add\n      sload\n        /* \"tronbox/contracts/SmartGenie.sol\":19409:19436  users[_payer].referrerID==0 */\n      eq\n        /* \"tronbox/contracts/SmartGenie.sol\":19374:19436  tempPaymentCount == 1 &&... */\n    tag_352:\n        /* \"tronbox/contracts/SmartGenie.sol\":19371:19509  if(tempPaymentCount == 1 &&... */\n      iszero\n      tag_353\n      jumpi\n        /* \"tronbox/contracts/SmartGenie.sol\":19455:19460  users */\n      0x09\n        /* \"tronbox/contracts/SmartGenie.sol\":19455:19468  users[_payer] */\n      0x00\n        /* \"tronbox/contracts/SmartGenie.sol\":19461:19467  _payer */\n      dup12\n        /* \"tronbox/contracts/SmartGenie.sol\":19455:19468  users[_payer] */\n      0xffffffffffffffffffffffffffffffffffffffff\n      and\n      0xffffffffffffffffffffffffffffffffffffffff\n      and\n      dup2\n      mstore\n      0x20\n      add\n      swap1\n      dup2\n      mstore\n      0x20\n      add\n      0x00\n      keccak256\n        /* \"tronbox/contracts/SmartGenie.sol\":19455:19476  users[_payer].isExist */\n      0x00\n      add\n      0x00\n      swap1\n      sload\n      swap1\n      0x0100\n      exp\n      swap1\n      div\n      0xff\n      and\n        /* \"tronbox/contracts/SmartGenie.sol\":19451:19498  if(!users[_payer].isExist) _payer = userList[1] */\n      tag_354\n      jumpi\n        /* \"tronbox/contracts/SmartGenie.sol\":19487:19495  userList */\n      0x0a\n        /* \"tronbox/contracts/SmartGenie.sol\":19487:19498  userList[1] */\n      0x00\n        /* \"tronbox/contracts/SmartGenie.sol\":19496:19497  1 */\n      0x01\n        /* \"tronbox/contracts/SmartGenie.sol\":19487:19498  userList[1] */\n      dup2\n      mstore\n      0x20\n      add\n      swap1\n      dup2\n      mstore\n      0x20\n      add\n      0x00\n      keccak256\n      0x00\n      swap1\n      sload\n      swap1\n      0x0100\n      exp\n      swap1\n      div\n      0xffffffffffffffffffffffffffffffffffffffff\n      and\n        /* \"tronbox/contracts/SmartGenie.sol\":19478:19498  _payer = userList[1] */\n      swap10\n      pop\n        /* \"tronbox/contracts/SmartGenie.sol\":19451:19498  if(!users[_payer].isExist) _payer = userList[1] */\n    tag_354:\n        /* \"tronbox/contracts/SmartGenie.sol\":19371:19509  if(tempPaymentCount == 1 &&... */\n    tag_353:\n        /* \"tronbox/contracts/SmartGenie.sol\":18881:19509  if(tempPaymentCount == 2 &&... */\n    tag_351:\n        /* \"tronbox/contracts/SmartGenie.sol\":18407:19509  if (tempPaymentCount >= 4 &&... */\n    tag_343:\n        /* \"tronbox/contracts/SmartGenie.sol\":17967:19509  if(tempPaymentCount >= 4 &&... */\n    tag_334:\n        /* \"tronbox/contracts/SmartGenie.sol\":17715:19509  if(levelCounter[_regLevel][_payer] == 2) {... */\n    tag_326:\n        /* \"tronbox/contracts/SmartGenie.sol\":19533:19537  loop */\n      dup3\n        /* \"tronbox/contracts/SmartGenie.sol\":19539:19545  length */\n      dup3\n        /* \"tronbox/contracts/SmartGenie.sol\":19525:19546  return (loop, length) */\n      swap5\n      pop\n      swap5\n      pop\n      pop\n      pop\n      pop\n        /* \"tronbox/contracts/SmartGenie.sol\":17260:19553  function checkLoopRequired(address _payer, uint256 _regLevel, uint256 _length, bool isRenewal, bool isSameLeg) ... */\n      swap6\n      pop\n      swap6\n      swap4\n      pop\n      pop\n      pop\n      pop\n      jump\t// out\n        /* \"tronbox/contracts/SmartGenie.sol\":11255:13764  function findEligiblePayer(address _referrer, uint256 _regLevel, uint256 _levelEligibility) internal returns (address, address){... */\n    tag_303:\n        /* \"tronbox/contracts/SmartGenie.sol\":11365:11372  address */\n      0x00\n        /* \"tronbox/contracts/SmartGenie.sol\":11374:11381  address */\n      dup1\n        /* \"tronbox/contracts/SmartGenie.sol\":11395:11417  address _eligiblePayer */\n      0x00\n        /* \"tronbox/contracts/SmartGenie.sol\":11431:11452  address _tempreferrer */\n      dup1\n        /* \"tronbox/contracts/SmartGenie.sol\":11455:11464  _referrer */\n      dup7\n        /* \"tronbox/contracts/SmartGenie.sol\":11431:11464  address _tempreferrer = _referrer */\n      swap1\n      pop\n        /* \"tronbox/contracts/SmartGenie.sol\":11560:11565  int i */\n      0x00\n        /* \"tronbox/contracts/SmartGenie.sol\":11556:13612  for(int i=0; i<9; i++) { ... */\n    tag_356:\n        /* \"tronbox/contracts/SmartGenie.sol\":11571:11572  9 */\n      0x09\n        /* \"tronbox/contracts/SmartGenie.sol\":11569:11570  i */\n      dup2\n        /* \"tronbox/contracts/SmartGenie.sol\":11569:11572  i<9 */\n      slt\n        /* \"tronbox/contracts/SmartGenie.sol\":11556:13612  for(int i=0; i<9; i++) { ... */\n      iszero\n      tag_357\n      jumpi\n        /* \"tronbox/contracts/SmartGenie.sol\":11776:11777  1 */\n      0x01\n        /* \"tronbox/contracts/SmartGenie.sol\":11745:11750  users */\n      0x09\n        /* \"tronbox/contracts/SmartGenie.sol\":11745:11761  users[_referrer] */\n      0x00\n        /* \"tronbox/contracts/SmartGenie.sol\":11751:11760  _referrer */\n      dup11\n        /* \"tronbox/contracts/SmartGenie.sol\":11745:11761  users[_referrer] */\n      0xffffffffffffffffffffffffffffffffffffffff\n      and\n      0xffffffffffffffffffffffffffffffffffffffff\n      and\n      dup2\n      mstore\n      0x20\n      add\n      swap1\n      dup2\n      mstore\n      0x20\n      add\n      0x00\n      keccak256\n        /* \"tronbox/contracts/SmartGenie.sol\":11745:11772  users[_referrer].referrerID */\n      0x02\n      add\n      sload\n        /* \"tronbox/contracts/SmartGenie.sol\":11745:11777  users[_referrer].referrerID == 1 */\n      eq\n        /* \"tronbox/contracts/SmartGenie.sol\":11745:11810  users[_referrer].referrerID == 1 || _eligiblePayer == userList[1] */\n      dup1\n      tag_359\n      jumpi\n      pop\n        /* \"tronbox/contracts/SmartGenie.sol\":11799:11807  userList */\n      0x0a\n        /* \"tronbox/contracts/SmartGenie.sol\":11799:11810  userList[1] */\n      0x00\n        /* \"tronbox/contracts/SmartGenie.sol\":11808:11809  1 */\n      0x01\n        /* \"tronbox/contracts/SmartGenie.sol\":11799:11810  userList[1] */\n      dup2\n      mstore\n      0x20\n      add\n      swap1\n      dup2\n      mstore\n      0x20\n      add\n      0x00\n      keccak256\n      0x00\n      swap1\n      sload\n      swap1\n      0x0100\n      exp\n      swap1\n      div\n      0xffffffffffffffffffffffffffffffffffffffff\n      and\n        /* \"tronbox/contracts/SmartGenie.sol\":11781:11810  _eligiblePayer == userList[1] */\n      0xffffffffffffffffffffffffffffffffffffffff\n      and\n        /* \"tronbox/contracts/SmartGenie.sol\":11781:11795  _eligiblePayer */\n      dup4\n        /* \"tronbox/contracts/SmartGenie.sol\":11781:11810  _eligiblePayer == userList[1] */\n      0xffffffffffffffffffffffffffffffffffffffff\n      and\n      eq\n        /* \"tronbox/contracts/SmartGenie.sol\":11745:11810  users[_referrer].referrerID == 1 || _eligiblePayer == userList[1] */\n    tag_359:\n        /* \"tronbox/contracts/SmartGenie.sol\":11742:13594  if(users[_referrer].referrerID == 1 || _eligiblePayer == userList[1]) {... */\n      iszero\n      tag_360\n      jumpi\n        /* \"tronbox/contracts/SmartGenie.sol\":11838:11843  break */\n      jump(tag_357)\n        /* \"tronbox/contracts/SmartGenie.sol\":11742:13594  if(users[_referrer].referrerID == 1 || _eligiblePayer == userList[1]) {... */\n    tag_360:\n        /* \"tronbox/contracts/SmartGenie.sol\":11898:11914  uint256 _lelevel */\n      0x00\n        /* \"tronbox/contracts/SmartGenie.sol\":11962:11963  1 */\n      0x01\n        /* \"tronbox/contracts/SmartGenie.sol\":11917:11922  users */\n      0x09\n        /* \"tronbox/contracts/SmartGenie.sol\":11917:11937  users[_tempreferrer] */\n      0x00\n        /* \"tronbox/contracts/SmartGenie.sol\":11923:11936  _tempreferrer */\n      dup6\n        /* \"tronbox/contracts/SmartGenie.sol\":11917:11937  users[_tempreferrer] */\n      0xffffffffffffffffffffffffffffffffffffffff\n      and\n      0xffffffffffffffffffffffffffffffffffffffff\n      and\n      dup2\n      mstore\n      0x20\n      add\n      swap1\n      dup2\n      mstore\n      0x20\n      add\n      0x00\n      keccak256\n        /* \"tronbox/contracts/SmartGenie.sol\":11917:11954  users[_tempreferrer].levelEligibility */\n      0x06\n      add\n        /* \"tronbox/contracts/SmartGenie.sol\":11917:11961  users[_tempreferrer].levelEligibility.length */\n      dup1\n      sload\n      swap1\n      pop\n        /* \"tronbox/contracts/SmartGenie.sol\":11917:11963  users[_tempreferrer].levelEligibility.length-1 */\n      tag_362\n      swap2\n      swap1\n      tag_246\n      jump\t// in\n    tag_362:\n        /* \"tronbox/contracts/SmartGenie.sol\":11898:11963  uint256 _lelevel = users[_tempreferrer].levelEligibility.length-1 */\n      swap1\n      pop\n        /* \"tronbox/contracts/SmartGenie.sol\":12009:12014  users */\n      0x09\n        /* \"tronbox/contracts/SmartGenie.sol\":12009:12029  users[_tempreferrer] */\n      0x00\n        /* \"tronbox/contracts/SmartGenie.sol\":12015:12028  _tempreferrer */\n      dup5\n        /* \"tronbox/contracts/SmartGenie.sol\":12009:12029  users[_tempreferrer] */\n      0xffffffffffffffffffffffffffffffffffffffff\n      and\n      0xffffffffffffffffffffffffffffffffffffffff\n      and\n      dup2\n      mstore\n      0x20\n      add\n      swap1\n      dup2\n      mstore\n      0x20\n      add\n      0x00\n      keccak256\n        /* \"tronbox/contracts/SmartGenie.sol\":12009:12046  users[_tempreferrer].levelEligibility */\n      0x06\n      add\n        /* \"tronbox/contracts/SmartGenie.sol\":12047:12055  _lelevel */\n      dup2\n        /* \"tronbox/contracts/SmartGenie.sol\":12009:12056  users[_tempreferrer].levelEligibility[_lelevel] */\n      dup2\n      sload\n      dup2\n      lt\n      tag_363\n      jumpi\n      tag_364\n      tag_206\n      jump\t// in\n    tag_364:\n    tag_363:\n      swap1\n      0x00\n      mstore\n      keccak256(0x00, 0x20)\n      add\n      sload\n        /* \"tronbox/contracts/SmartGenie.sol\":11989:12056  _levelEligibility = users[_tempreferrer].levelEligibility[_lelevel] */\n      swap7\n      pop\n        /* \"tronbox/contracts/SmartGenie.sol\":12108:12122  address payer1 */\n      0x00\n        /* \"tronbox/contracts/SmartGenie.sol\":12125:12133  userList */\n      0x0a\n        /* \"tronbox/contracts/SmartGenie.sol\":12125:12166  userList[users[_tempreferrer].referrerID] */\n      0x00\n        /* \"tronbox/contracts/SmartGenie.sol\":12134:12139  users */\n      0x09\n        /* \"tronbox/contracts/SmartGenie.sol\":12134:12154  users[_tempreferrer] */\n      0x00\n        /* \"tronbox/contracts/SmartGenie.sol\":12140:12153  _tempreferrer */\n      dup8\n        /* \"tronbox/contracts/SmartGenie.sol\":12134:12154  users[_tempreferrer] */\n      0xffffffffffffffffffffffffffffffffffffffff\n      and\n      0xffffffffffffffffffffffffffffffffffffffff\n      and\n      dup2\n      mstore\n      0x20\n      add\n      swap1\n      dup2\n      mstore\n      0x20\n      add\n      0x00\n      keccak256\n        /* \"tronbox/contracts/SmartGenie.sol\":12134:12165  users[_tempreferrer].referrerID */\n      0x02\n      add\n      sload\n        /* \"tronbox/contracts/SmartGenie.sol\":12125:12166  userList[users[_tempreferrer].referrerID] */\n      dup2\n      mstore\n      0x20\n      add\n      swap1\n      dup2\n      mstore\n      0x20\n      add\n      0x00\n      keccak256\n      0x00\n      swap1\n      sload\n      swap1\n      0x0100\n      exp\n      swap1\n      div\n      0xffffffffffffffffffffffffffffffffffffffff\n      and\n        /* \"tronbox/contracts/SmartGenie.sol\":12108:12166  address payer1 = userList[users[_tempreferrer].referrerID] */\n      swap1\n      pop\n        /* \"tronbox/contracts/SmartGenie.sol\":12196:12215  address secReferrer */\n      0x00\n        /* \"tronbox/contracts/SmartGenie.sol\":12218:12226  userList */\n      0x0a\n        /* \"tronbox/contracts/SmartGenie.sol\":12218:12252  userList[users[payer1].referrerID] */\n      0x00\n        /* \"tronbox/contracts/SmartGenie.sol\":12227:12232  users */\n      0x09\n        /* \"tronbox/contracts/SmartGenie.sol\":12227:12240  users[payer1] */\n      0x00\n        /* \"tronbox/contracts/SmartGenie.sol\":12233:12239  payer1 */\n      dup6\n        /* \"tronbox/contracts/SmartGenie.sol\":12227:12240  users[payer1] */\n      0xffffffffffffffffffffffffffffffffffffffff\n      and\n      0xffffffffffffffffffffffffffffffffffffffff\n      and\n      dup2\n      mstore\n      0x20\n      add\n      swap1\n      dup2\n      mstore\n      0x20\n      add\n      0x00\n      keccak256\n        /* \"tronbox/contracts/SmartGenie.sol\":12227:12251  users[payer1].referrerID */\n      0x02\n      add\n      sload\n        /* \"tronbox/contracts/SmartGenie.sol\":12218:12252  userList[users[payer1].referrerID] */\n      dup2\n      mstore\n      0x20\n      add\n      swap1\n      dup2\n      mstore\n      0x20\n      add\n      0x00\n      keccak256\n      0x00\n      swap1\n      sload\n      swap1\n      0x0100\n      exp\n      swap1\n      div\n      0xffffffffffffffffffffffffffffffffffffffff\n      and\n        /* \"tronbox/contracts/SmartGenie.sol\":12196:12252  address secReferrer = userList[users[payer1].referrerID] */\n      swap1\n      pop\n        /* \"tronbox/contracts/SmartGenie.sol\":12288:12294  uint j */\n      0x00\n        /* \"tronbox/contracts/SmartGenie.sol\":12295:12296  1 */\n      0x01\n        /* \"tronbox/contracts/SmartGenie.sol\":12288:12296  uint j=1 */\n      swap1\n      pop\n        /* \"tronbox/contracts/SmartGenie.sol\":12283:12558  for (uint j=1; j< _regLevel; j++) {... */\n    tag_366:\n        /* \"tronbox/contracts/SmartGenie.sol\":12301:12310  _regLevel */\n      dup11\n        /* \"tronbox/contracts/SmartGenie.sol\":12298:12299  j */\n      dup2\n        /* \"tronbox/contracts/SmartGenie.sol\":12298:12310  j< _regLevel */\n      lt\n        /* \"tronbox/contracts/SmartGenie.sol\":12283:12558  for (uint j=1; j< _regLevel; j++) {... */\n      iszero\n      tag_367\n      jumpi\n        /* \"tronbox/contracts/SmartGenie.sol\":12365:12373  userList */\n      0x0a\n        /* \"tronbox/contracts/SmartGenie.sol\":12365:12376  userList[1] */\n      0x00\n        /* \"tronbox/contracts/SmartGenie.sol\":12374:12375  1 */\n      0x01\n        /* \"tronbox/contracts/SmartGenie.sol\":12365:12376  userList[1] */\n      dup2\n      mstore\n      0x20\n      add\n      swap1\n      dup2\n      mstore\n      0x20\n      add\n      0x00\n      keccak256\n      0x00\n      swap1\n      sload\n      swap1\n      0x0100\n      exp\n      swap1\n      div\n      0xffffffffffffffffffffffffffffffffffffffff\n      and\n        /* \"tronbox/contracts/SmartGenie.sol\":12350:12376  secReferrer == userList[1] */\n      0xffffffffffffffffffffffffffffffffffffffff\n      and\n        /* \"tronbox/contracts/SmartGenie.sol\":12350:12361  secReferrer */\n      dup3\n        /* \"tronbox/contracts/SmartGenie.sol\":12350:12376  secReferrer == userList[1] */\n      0xffffffffffffffffffffffffffffffffffffffff\n      and\n      eq\n        /* \"tronbox/contracts/SmartGenie.sol\":12347:12448  if(secReferrer == userList[1]) {... */\n      iszero\n      tag_369\n      jumpi\n        /* \"tronbox/contracts/SmartGenie.sol\":12412:12417  break */\n      jump(tag_367)\n        /* \"tronbox/contracts/SmartGenie.sol\":12347:12448  if(secReferrer == userList[1]) {... */\n    tag_369:\n        /* \"tronbox/contracts/SmartGenie.sol\":12491:12499  userList */\n      0x0a\n        /* \"tronbox/contracts/SmartGenie.sol\":12491:12530  userList[users[secReferrer].referrerID] */\n      0x00\n        /* \"tronbox/contracts/SmartGenie.sol\":12500:12505  users */\n      0x09\n        /* \"tronbox/contracts/SmartGenie.sol\":12500:12518  users[secReferrer] */\n      0x00\n        /* \"tronbox/contracts/SmartGenie.sol\":12506:12517  secReferrer */\n      dup6\n        /* \"tronbox/contracts/SmartGenie.sol\":12500:12518  users[secReferrer] */\n      0xffffffffffffffffffffffffffffffffffffffff\n      and\n      0xffffffffffffffffffffffffffffffffffffffff\n      and\n      dup2\n      mstore\n      0x20\n      add\n      swap1\n      dup2\n      mstore\n      0x20\n      add\n      0x00\n      keccak256\n        /* \"tronbox/contracts/SmartGenie.sol\":12500:12529  users[secReferrer].referrerID */\n      0x02\n      add\n      sload\n        /* \"tronbox/contracts/SmartGenie.sol\":12491:12530  userList[users[secReferrer].referrerID] */\n      dup2\n      mstore\n      0x20\n      add\n      swap1\n      dup2\n      mstore\n      0x20\n      add\n      0x00\n      keccak256\n      0x00\n      swap1\n      sload\n      swap1\n      0x0100\n      exp\n      swap1\n      div\n      0xffffffffffffffffffffffffffffffffffffffff\n      and\n        /* \"tronbox/contracts/SmartGenie.sol\":12477:12530  secReferrer = userList[users[secReferrer].referrerID] */\n      swap2\n      pop\n        /* \"tronbox/contracts/SmartGenie.sol\":12312:12315  j++ */\n      dup1\n      dup1\n      tag_370\n      swap1\n      tag_180\n      jump\t// in\n    tag_370:\n      swap2\n      pop\n      pop\n        /* \"tronbox/contracts/SmartGenie.sol\":12283:12558  for (uint j=1; j< _regLevel; j++) {... */\n      jump(tag_366)\n    tag_367:\n      pop\n        /* \"tronbox/contracts/SmartGenie.sol\":12651:12652  1 */\n      0x01\n        /* \"tronbox/contracts/SmartGenie.sol\":12641:12650  _regLevel */\n      dup11\n        /* \"tronbox/contracts/SmartGenie.sol\":12641:12652  _regLevel+1 */\n      tag_371\n      swap2\n      swap1\n      tag_183\n      jump\t// in\n    tag_371:\n        /* \"tronbox/contracts/SmartGenie.sol\":12621:12638  _levelEligibility */\n      dup10\n        /* \"tronbox/contracts/SmartGenie.sol\":12621:12652  _levelEligibility < _regLevel+1 */\n      lt\n        /* \"tronbox/contracts/SmartGenie.sol\":12618:13572  if(_levelEligibility < _regLevel+1) { ... */\n      iszero\n      tag_372\n      jumpi\n        /* \"tronbox/contracts/SmartGenie.sol\":12685:12690  users */\n      0x09\n        /* \"tronbox/contracts/SmartGenie.sol\":12685:12703  users[secReferrer] */\n      0x00\n        /* \"tronbox/contracts/SmartGenie.sol\":12691:12702  secReferrer */\n      dup3\n        /* \"tronbox/contracts/SmartGenie.sol\":12685:12703  users[secReferrer] */\n      0xffffffffffffffffffffffffffffffffffffffff\n      and\n      0xffffffffffffffffffffffffffffffffffffffff\n      and\n      dup2\n      mstore\n      0x20\n      add\n      swap1\n      dup2\n      mstore\n      0x20\n      add\n      0x00\n      keccak256\n        /* \"tronbox/contracts/SmartGenie.sol\":12685:12711  users[secReferrer].isExist */\n      0x00\n      add\n      0x00\n      swap1\n      sload\n      swap1\n      0x0100\n      exp\n      swap1\n      div\n      0xff\n      and\n        /* \"tronbox/contracts/SmartGenie.sol\":12684:12711  !users[secReferrer].isExist */\n      iszero\n        /* \"tronbox/contracts/SmartGenie.sol\":12684:12744  !users[secReferrer].isExist || users[payer1].referrerID == 0 */\n      dup1\n      tag_373\n      jumpi\n      pop\n        /* \"tronbox/contracts/SmartGenie.sol\":12743:12744  0 */\n      0x00\n        /* \"tronbox/contracts/SmartGenie.sol\":12715:12720  users */\n      0x09\n        /* \"tronbox/contracts/SmartGenie.sol\":12715:12728  users[payer1] */\n      0x00\n        /* \"tronbox/contracts/SmartGenie.sol\":12721:12727  payer1 */\n      dup5\n        /* \"tronbox/contracts/SmartGenie.sol\":12715:12728  users[payer1] */\n      0xffffffffffffffffffffffffffffffffffffffff\n      and\n      0xffffffffffffffffffffffffffffffffffffffff\n      and\n      dup2\n      mstore\n      0x20\n      add\n      swap1\n      dup2\n      mstore\n      0x20\n      add\n      0x00\n      keccak256\n        /* \"tronbox/contracts/SmartGenie.sol\":12715:12739  users[payer1].referrerID */\n      0x02\n      add\n      sload\n        /* \"tronbox/contracts/SmartGenie.sol\":12715:12744  users[payer1].referrerID == 0 */\n      eq\n        /* \"tronbox/contracts/SmartGenie.sol\":12684:12744  !users[secReferrer].isExist || users[payer1].referrerID == 0 */\n    tag_373:\n        /* \"tronbox/contracts/SmartGenie.sol\":12684:12806  !users[secReferrer].isExist || users[payer1].referrerID == 0 || ... */\n      dup1\n      tag_374\n      jumpi\n      pop\n        /* \"tronbox/contracts/SmartGenie.sol\":12805:12806  1 */\n      0x01\n        /* \"tronbox/contracts/SmartGenie.sol\":12777:12782  users */\n      0x09\n        /* \"tronbox/contracts/SmartGenie.sol\":12777:12790  users[payer1] */\n      0x00\n        /* \"tronbox/contracts/SmartGenie.sol\":12783:12789  payer1 */\n      dup5\n        /* \"tronbox/contracts/SmartGenie.sol\":12777:12790  users[payer1] */\n      0xffffffffffffffffffffffffffffffffffffffff\n      and\n      0xffffffffffffffffffffffffffffffffffffffff\n      and\n      dup2\n      mstore\n      0x20\n      add\n      swap1\n      dup2\n      mstore\n      0x20\n      add\n      0x00\n      keccak256\n        /* \"tronbox/contracts/SmartGenie.sol\":12777:12801  users[payer1].referrerID */\n      0x02\n      add\n      sload\n        /* \"tronbox/contracts/SmartGenie.sol\":12777:12806  users[payer1].referrerID == 1 */\n      eq\n        /* \"tronbox/contracts/SmartGenie.sol\":12684:12806  !users[secReferrer].isExist || users[payer1].referrerID == 0 || ... */\n    tag_374:\n        /* \"tronbox/contracts/SmartGenie.sol\":12681:13294  if(!users[secReferrer].isExist || users[payer1].referrerID == 0 || ... */\n      iszero\n      tag_375\n      jumpi\n        /* \"tronbox/contracts/SmartGenie.sol\":12969:12974  users */\n      0x09\n        /* \"tronbox/contracts/SmartGenie.sol\":12969:13010  users[userList[users[payer1].referrerID]] */\n      0x00\n        /* \"tronbox/contracts/SmartGenie.sol\":12975:12983  userList */\n      0x0a\n        /* \"tronbox/contracts/SmartGenie.sol\":12975:13009  userList[users[payer1].referrerID] */\n      0x00\n        /* \"tronbox/contracts/SmartGenie.sol\":12984:12989  users */\n      0x09\n        /* \"tronbox/contracts/SmartGenie.sol\":12984:12997  users[payer1] */\n      0x00\n        /* \"tronbox/contracts/SmartGenie.sol\":12990:12996  payer1 */\n      dup8\n        /* \"tronbox/contracts/SmartGenie.sol\":12984:12997  users[payer1] */\n      0xffffffffffffffffffffffffffffffffffffffff\n      and\n      0xffffffffffffffffffffffffffffffffffffffff\n      and\n      dup2\n      mstore\n      0x20\n      add\n      swap1\n      dup2\n      mstore\n      0x20\n      add\n      0x00\n      keccak256\n        /* \"tronbox/contracts/SmartGenie.sol\":12984:13008  users[payer1].referrerID */\n      0x02\n      add\n      sload\n        /* \"tronbox/contracts/SmartGenie.sol\":12975:13009  userList[users[payer1].referrerID] */\n      dup2\n      mstore\n      0x20\n      add\n      swap1\n      dup2\n      mstore\n      0x20\n      add\n      0x00\n      keccak256\n      0x00\n      swap1\n      sload\n      swap1\n      0x0100\n      exp\n      swap1\n      div\n      0xffffffffffffffffffffffffffffffffffffffff\n      and\n        /* \"tronbox/contracts/SmartGenie.sol\":12969:13010  users[userList[users[payer1].referrerID]] */\n      0xffffffffffffffffffffffffffffffffffffffff\n      and\n      0xffffffffffffffffffffffffffffffffffffffff\n      and\n      dup2\n      mstore\n      0x20\n      add\n      swap1\n      dup2\n      mstore\n      0x20\n      add\n      0x00\n      keccak256\n        /* \"tronbox/contracts/SmartGenie.sol\":12969:13018  users[userList[users[payer1].referrerID]].isExist */\n      0x00\n      add\n      0x00\n      swap1\n      sload\n      swap1\n      0x0100\n      exp\n      swap1\n      div\n      0xff\n      and\n        /* \"tronbox/contracts/SmartGenie.sol\":12965:13233  if(!users[userList[users[payer1].referrerID]].isExist) { ... */\n      tag_376\n      jumpi\n        /* \"tronbox/contracts/SmartGenie.sol\":13072:13080  userList */\n      0x0a\n        /* \"tronbox/contracts/SmartGenie.sol\":13072:13083  userList[1] */\n      0x00\n        /* \"tronbox/contracts/SmartGenie.sol\":13081:13082  1 */\n      0x01\n        /* \"tronbox/contracts/SmartGenie.sol\":13072:13083  userList[1] */\n      dup2\n      mstore\n      0x20\n      add\n      swap1\n      dup2\n      mstore\n      0x20\n      add\n      0x00\n      keccak256\n      0x00\n      swap1\n      sload\n      swap1\n      0x0100\n      exp\n      swap1\n      div\n      0xffffffffffffffffffffffffffffffffffffffff\n      and\n        /* \"tronbox/contracts/SmartGenie.sol\":13055:13083  _eligiblePayer = userList[1] */\n      swap6\n      pop\n        /* \"tronbox/contracts/SmartGenie.sol\":12965:13233  if(!users[userList[users[payer1].referrerID]].isExist) { ... */\n      jump(tag_377)\n    tag_376:\n        /* \"tronbox/contracts/SmartGenie.sol\":13168:13176  userList */\n      0x0a\n        /* \"tronbox/contracts/SmartGenie.sol\":13168:13202  userList[users[payer1].referrerID] */\n      0x00\n        /* \"tronbox/contracts/SmartGenie.sol\":13177:13182  users */\n      0x09\n        /* \"tronbox/contracts/SmartGenie.sol\":13177:13190  users[payer1] */\n      0x00\n        /* \"tronbox/contracts/SmartGenie.sol\":13183:13189  payer1 */\n      dup6\n        /* \"tronbox/contracts/SmartGenie.sol\":13177:13190  users[payer1] */\n      0xffffffffffffffffffffffffffffffffffffffff\n      and\n      0xffffffffffffffffffffffffffffffffffffffff\n      and\n      dup2\n      mstore\n      0x20\n      add\n      swap1\n      dup2\n      mstore\n      0x20\n      add\n      0x00\n      keccak256\n        /* \"tronbox/contracts/SmartGenie.sol\":13177:13201  users[payer1].referrerID */\n      0x02\n      add\n      sload\n        /* \"tronbox/contracts/SmartGenie.sol\":13168:13202  userList[users[payer1].referrerID] */\n      dup2\n      mstore\n      0x20\n      add\n      swap1\n      dup2\n      mstore\n      0x20\n      add\n      0x00\n      keccak256\n      0x00\n      swap1\n      sload\n      swap1\n      0x0100\n      exp\n      swap1\n      div\n      0xffffffffffffffffffffffffffffffffffffffff\n      and\n        /* \"tronbox/contracts/SmartGenie.sol\":13151:13202  _eligiblePayer = userList[users[payer1].referrerID] */\n      swap6\n      pop\n        /* \"tronbox/contracts/SmartGenie.sol\":12965:13233  if(!users[userList[users[payer1].referrerID]].isExist) { ... */\n    tag_377:\n        /* \"tronbox/contracts/SmartGenie.sol\":13262:13267  break */\n      pop\n      pop\n      pop\n      jump(tag_357)\n        /* \"tronbox/contracts/SmartGenie.sol\":12681:13294  if(!users[secReferrer].isExist || users[payer1].referrerID == 0 || ... */\n    tag_375:\n        /* \"tronbox/contracts/SmartGenie.sol\":13336:13347  secReferrer */\n      dup1\n        /* \"tronbox/contracts/SmartGenie.sol\":13320:13347  _tempreferrer = secReferrer */\n      swap5\n      pop\n        /* \"tronbox/contracts/SmartGenie.sol\":13391:13402  secReferrer */\n      dup1\n        /* \"tronbox/contracts/SmartGenie.sol\":13374:13402  _eligiblePayer = secReferrer */\n      swap6\n      pop\n        /* \"tronbox/contracts/SmartGenie.sol\":12618:13572  if(_levelEligibility < _regLevel+1) { ... */\n      jump(tag_378)\n    tag_372:\n        /* \"tronbox/contracts/SmartGenie.sol\":13502:13515  _tempreferrer */\n      dup5\n        /* \"tronbox/contracts/SmartGenie.sol\":13485:13515  _eligiblePayer = _tempreferrer */\n      swap6\n      pop\n        /* \"tronbox/contracts/SmartGenie.sol\":13543:13548  break */\n      pop\n      pop\n      pop\n      jump(tag_357)\n        /* \"tronbox/contracts/SmartGenie.sol\":12618:13572  if(_levelEligibility < _regLevel+1) { ... */\n    tag_378:\n        /* \"tronbox/contracts/SmartGenie.sol\":11872:13594  {... */\n      pop\n      pop\n      pop\n        /* \"tronbox/contracts/SmartGenie.sol\":11574:11577  i++ */\n      dup1\n      dup1\n      tag_379\n      swap1\n      tag_380\n      jump\t// in\n    tag_379:\n      swap2\n      pop\n      pop\n        /* \"tronbox/contracts/SmartGenie.sol\":11556:13612  for(int i=0; i<9; i++) { ... */\n      jump(tag_356)\n    tag_357:\n      pop\n        /* \"tronbox/contracts/SmartGenie.sol\":13707:13708  1 */\n      0x01\n        /* \"tronbox/contracts/SmartGenie.sol\":13667:13672  users */\n      0x09\n        /* \"tronbox/contracts/SmartGenie.sol\":13667:13683  users[_referrer] */\n      0x00\n        /* \"tronbox/contracts/SmartGenie.sol\":13673:13682  _referrer */\n      dup10\n        /* \"tronbox/contracts/SmartGenie.sol\":13667:13683  users[_referrer] */\n      0xffffffffffffffffffffffffffffffffffffffff\n      and\n      0xffffffffffffffffffffffffffffffffffffffff\n      and\n      dup2\n      mstore\n      0x20\n      add\n      swap1\n      dup2\n      mstore\n      0x20\n      add\n      0x00\n      keccak256\n        /* \"tronbox/contracts/SmartGenie.sol\":13667:13695  users[_referrer].incomeCount */\n      0x05\n      add\n        /* \"tronbox/contracts/SmartGenie.sol\":13667:13706  users[_referrer].incomeCount[_regLevel] */\n      0x00\n        /* \"tronbox/contracts/SmartGenie.sol\":13696:13705  _regLevel */\n      dup9\n        /* \"tronbox/contracts/SmartGenie.sol\":13667:13706  users[_referrer].incomeCount[_regLevel] */\n      dup2\n      mstore\n      0x20\n      add\n      swap1\n      dup2\n      mstore\n      0x20\n      add\n      0x00\n      keccak256\n      sload\n        /* \"tronbox/contracts/SmartGenie.sol\":13667:13708  users[_referrer].incomeCount[_regLevel]+1 */\n      tag_381\n      swap2\n      swap1\n      tag_183\n      jump\t// in\n    tag_381:\n        /* \"tronbox/contracts/SmartGenie.sol\":13625:13630  users */\n      0x09\n        /* \"tronbox/contracts/SmartGenie.sol\":13625:13641  users[_referrer] */\n      0x00\n        /* \"tronbox/contracts/SmartGenie.sol\":13631:13640  _referrer */\n      dup10\n        /* \"tronbox/contracts/SmartGenie.sol\":13625:13641  users[_referrer] */\n      0xffffffffffffffffffffffffffffffffffffffff\n      and\n      0xffffffffffffffffffffffffffffffffffffffff\n      and\n      dup2\n      mstore\n      0x20\n      add\n      swap1\n      dup2\n      mstore\n      0x20\n      add\n      0x00\n      keccak256\n        /* \"tronbox/contracts/SmartGenie.sol\":13625:13653  users[_referrer].incomeCount */\n      0x05\n      add\n        /* \"tronbox/contracts/SmartGenie.sol\":13625:13664  users[_referrer].incomeCount[_regLevel] */\n      0x00\n        /* \"tronbox/contracts/SmartGenie.sol\":13654:13663  _regLevel */\n      dup9\n        /* \"tronbox/contracts/SmartGenie.sol\":13625:13664  users[_referrer].incomeCount[_regLevel] */\n      dup2\n      mstore\n      0x20\n      add\n      swap1\n      dup2\n      mstore\n      0x20\n      add\n      0x00\n      keccak256\n        /* \"tronbox/contracts/SmartGenie.sol\":13625:13708  users[_referrer].incomeCount[_regLevel] = users[_referrer].incomeCount[_regLevel]+1 */\n      dup2\n      swap1\n      sstore\n      pop\n        /* \"tronbox/contracts/SmartGenie.sol\":13731:13745  _eligiblePayer */\n      dup2\n        /* \"tronbox/contracts/SmartGenie.sol\":13747:13756  _referrer */\n      dup8\n        /* \"tronbox/contracts/SmartGenie.sol\":13723:13757  return (_eligiblePayer, _referrer) */\n      swap4\n      pop\n      swap4\n      pop\n      pop\n      pop\n        /* \"tronbox/contracts/SmartGenie.sol\":11255:13764  function findEligiblePayer(address _referrer, uint256 _regLevel, uint256 _levelEligibility) internal returns (address, address){... */\n      swap4\n      pop\n      swap4\n      swap2\n      pop\n      pop\n      jump\t// out\n        /* \"tronbox/contracts/SmartGenie.sol\":19563:21106  function isLevelUpgradeFromSameLeg(address _payer, address _existingReferrer, address _newReferrer) ... */\n    tag_312:\n        /* \"tronbox/contracts/SmartGenie.sol\":19698:19702  bool */\n      0x00\n        /* \"tronbox/contracts/SmartGenie.sol\":19713:19727  bool isSameLeg */\n      dup1\n        /* \"tronbox/contracts/SmartGenie.sol\":19730:19735  false */\n      0x00\n        /* \"tronbox/contracts/SmartGenie.sol\":19713:19735  bool isSameLeg = false */\n      swap1\n      pop\n        /* \"tronbox/contracts/SmartGenie.sol\":19754:19785  address[] memory payerReferrals */\n      0x00\n        /* \"tronbox/contracts/SmartGenie.sol\":19788:19812  getUserReferrals(_payer) */\n      tag_383\n        /* \"tronbox/contracts/SmartGenie.sol\":19805:19811  _payer */\n      dup7\n        /* \"tronbox/contracts/SmartGenie.sol\":19788:19804  getUserReferrals */\n      tag_53\n        /* \"tronbox/contracts/SmartGenie.sol\":19788:19812  getUserReferrals(_payer) */\n      jump\t// in\n    tag_383:\n        /* \"tronbox/contracts/SmartGenie.sol\":19754:19812  address[] memory payerReferrals = getUserReferrals(_payer) */\n      swap1\n      pop\n        /* \"tronbox/contracts/SmartGenie.sol\":19822:19838  address firstLeg */\n      0x00\n        /* \"tronbox/contracts/SmartGenie.sol\":19841:19858  _existingReferrer */\n      dup6\n        /* \"tronbox/contracts/SmartGenie.sol\":19822:19858  address firstLeg = _existingReferrer */\n      swap1\n      pop\n        /* \"tronbox/contracts/SmartGenie.sol\":19869:19886  address secondLeg */\n      0x00\n        /* \"tronbox/contracts/SmartGenie.sol\":19889:19901  _newReferrer */\n      dup6\n        /* \"tronbox/contracts/SmartGenie.sol\":19869:19901  address secondLeg = _newReferrer */\n      swap1\n      pop\n        /* \"tronbox/contracts/SmartGenie.sol\":19920:19941  address tempReferrer1 */\n      0x00\n        /* \"tronbox/contracts/SmartGenie.sol\":19944:19952  userList */\n      0x0a\n        /* \"tronbox/contracts/SmartGenie.sol\":19944:19980  userList[users[firstLeg].referrerID] */\n      0x00\n        /* \"tronbox/contracts/SmartGenie.sol\":19953:19958  users */\n      0x09\n        /* \"tronbox/contracts/SmartGenie.sol\":19953:19968  users[firstLeg] */\n      0x00\n        /* \"tronbox/contracts/SmartGenie.sol\":19959:19967  firstLeg */\n      dup7\n        /* \"tronbox/contracts/SmartGenie.sol\":19953:19968  users[firstLeg] */\n      0xffffffffffffffffffffffffffffffffffffffff\n      and\n      0xffffffffffffffffffffffffffffffffffffffff\n      and\n      dup2\n      mstore\n      0x20\n      add\n      swap1\n      dup2\n      mstore\n      0x20\n      add\n      0x00\n      keccak256\n        /* \"tronbox/contracts/SmartGenie.sol\":19953:19979  users[firstLeg].referrerID */\n      0x02\n      add\n      sload\n        /* \"tronbox/contracts/SmartGenie.sol\":19944:19980  userList[users[firstLeg].referrerID] */\n      dup2\n      mstore\n      0x20\n      add\n      swap1\n      dup2\n      mstore\n      0x20\n      add\n      0x00\n      keccak256\n      0x00\n      swap1\n      sload\n      swap1\n      0x0100\n      exp\n      swap1\n      div\n      0xffffffffffffffffffffffffffffffffffffffff\n      and\n        /* \"tronbox/contracts/SmartGenie.sol\":19920:19980  address tempReferrer1 = userList[users[firstLeg].referrerID] */\n      swap1\n      pop\n        /* \"tronbox/contracts/SmartGenie.sol\":19995:20000  int i */\n      0x00\n        /* \"tronbox/contracts/SmartGenie.sol\":19991:20451  for(int i=0; i<12; i++) { ... */\n    tag_384:\n        /* \"tronbox/contracts/SmartGenie.sol\":20006:20008  12 */\n      0x0c\n        /* \"tronbox/contracts/SmartGenie.sol\":20004:20005  i */\n      dup2\n        /* \"tronbox/contracts/SmartGenie.sol\":20004:20008  i<12 */\n      slt\n        /* \"tronbox/contracts/SmartGenie.sol\":19991:20451  for(int i=0; i<12; i++) { ... */\n      iszero\n      tag_385\n      jumpi\n        /* \"tronbox/contracts/SmartGenie.sol\":20030:20048  bool foundReferrer */\n      0x00\n        /* \"tronbox/contracts/SmartGenie.sol\":20080:20086  uint j */\n      dup1\n        /* \"tronbox/contracts/SmartGenie.sol\":20075:20329  for (uint j=0; j<payerReferrals.length; j++) {... */\n    tag_387:\n        /* \"tronbox/contracts/SmartGenie.sol\":20092:20106  payerReferrals */\n      dup7\n        /* \"tronbox/contracts/SmartGenie.sol\":20092:20113  payerReferrals.length */\n      mload\n        /* \"tronbox/contracts/SmartGenie.sol\":20090:20091  j */\n      dup2\n        /* \"tronbox/contracts/SmartGenie.sol\":20090:20113  j<payerReferrals.length */\n      lt\n        /* \"tronbox/contracts/SmartGenie.sol\":20075:20329  for (uint j=0; j<payerReferrals.length; j++) {... */\n      iszero\n      tag_388\n      jumpi\n        /* \"tronbox/contracts/SmartGenie.sol\":20158:20172  payerReferrals */\n      dup7\n        /* \"tronbox/contracts/SmartGenie.sol\":20173:20174  j */\n      dup2\n        /* \"tronbox/contracts/SmartGenie.sol\":20158:20175  payerReferrals[j] */\n      dup2\n      mload\n      dup2\n      lt\n      tag_390\n      jumpi\n      tag_391\n      tag_206\n      jump\t// in\n    tag_391:\n    tag_390:\n      0x20\n      mul\n      0x20\n      add\n      add\n      mload\n        /* \"tronbox/contracts/SmartGenie.sol\":20141:20175  tempReferrer1 == payerReferrals[j] */\n      0xffffffffffffffffffffffffffffffffffffffff\n      and\n        /* \"tronbox/contracts/SmartGenie.sol\":20141:20154  tempReferrer1 */\n      dup5\n        /* \"tronbox/contracts/SmartGenie.sol\":20141:20175  tempReferrer1 == payerReferrals[j] */\n      0xffffffffffffffffffffffffffffffffffffffff\n      and\n      eq\n        /* \"tronbox/contracts/SmartGenie.sol\":20138:20315  if(tempReferrer1 == payerReferrals[j]) {... */\n      iszero\n      tag_392\n      jumpi\n        /* \"tronbox/contracts/SmartGenie.sol\":20210:20224  payerReferrals */\n      dup7\n        /* \"tronbox/contracts/SmartGenie.sol\":20225:20226  j */\n      dup2\n        /* \"tronbox/contracts/SmartGenie.sol\":20210:20227  payerReferrals[j] */\n      dup2\n      mload\n      dup2\n      lt\n      tag_393\n      jumpi\n      tag_394\n      tag_206\n      jump\t// in\n    tag_394:\n    tag_393:\n      0x20\n      mul\n      0x20\n      add\n      add\n      mload\n        /* \"tronbox/contracts/SmartGenie.sol\":20199:20227  firstLeg = payerReferrals[j] */\n      swap6\n      pop\n        /* \"tronbox/contracts/SmartGenie.sol\":20265:20269  true */\n      0x01\n        /* \"tronbox/contracts/SmartGenie.sol\":20249:20269  foundReferrer = true */\n      swap2\n      pop\n        /* \"tronbox/contracts/SmartGenie.sol\":20291:20296  break */\n      jump(tag_388)\n        /* \"tronbox/contracts/SmartGenie.sol\":20138:20315  if(tempReferrer1 == payerReferrals[j]) {... */\n    tag_392:\n        /* \"tronbox/contracts/SmartGenie.sol\":20115:20118  j++ */\n      dup1\n      dup1\n      tag_395\n      swap1\n      tag_180\n      jump\t// in\n    tag_395:\n      swap2\n      pop\n      pop\n        /* \"tronbox/contracts/SmartGenie.sol\":20075:20329  for (uint j=0; j<payerReferrals.length; j++) {... */\n      jump(tag_387)\n    tag_388:\n      pop\n        /* \"tronbox/contracts/SmartGenie.sol\":20345:20358  foundReferrer */\n      dup1\n        /* \"tronbox/contracts/SmartGenie.sol\":20342:20369  if(foundReferrer) { break;} */\n      iszero\n      tag_396\n      jumpi\n        /* \"tronbox/contracts/SmartGenie.sol\":20362:20367  break */\n      pop\n      jump(tag_385)\n        /* \"tronbox/contracts/SmartGenie.sol\":20342:20369  if(foundReferrer) { break;} */\n    tag_396:\n        /* \"tronbox/contracts/SmartGenie.sol\":20399:20407  userList */\n      0x0a\n        /* \"tronbox/contracts/SmartGenie.sol\":20399:20440  userList[users[tempReferrer1].referrerID] */\n      0x00\n        /* \"tronbox/contracts/SmartGenie.sol\":20408:20413  users */\n      0x09\n        /* \"tronbox/contracts/SmartGenie.sol\":20408:20428  users[tempReferrer1] */\n      0x00\n        /* \"tronbox/contracts/SmartGenie.sol\":20414:20427  tempReferrer1 */\n      dup7\n        /* \"tronbox/contracts/SmartGenie.sol\":20408:20428  users[tempReferrer1] */\n      0xffffffffffffffffffffffffffffffffffffffff\n      and\n      0xffffffffffffffffffffffffffffffffffffffff\n      and\n      dup2\n      mstore\n      0x20\n      add\n      swap1\n      dup2\n      mstore\n      0x20\n      add\n      0x00\n      keccak256\n        /* \"tronbox/contracts/SmartGenie.sol\":20408:20439  users[tempReferrer1].referrerID */\n      0x02\n      add\n      sload\n        /* \"tronbox/contracts/SmartGenie.sol\":20399:20440  userList[users[tempReferrer1].referrerID] */\n      dup2\n      mstore\n      0x20\n      add\n      swap1\n      dup2\n      mstore\n      0x20\n      add\n      0x00\n      keccak256\n      0x00\n      swap1\n      sload\n      swap1\n      0x0100\n      exp\n      swap1\n      div\n      0xffffffffffffffffffffffffffffffffffffffff\n      and\n        /* \"tronbox/contracts/SmartGenie.sol\":20382:20440  tempReferrer1 =  userList[users[tempReferrer1].referrerID] */\n      swap3\n      pop\n        /* \"tronbox/contracts/SmartGenie.sol\":20015:20451  { ... */\n      pop\n        /* \"tronbox/contracts/SmartGenie.sol\":20010:20013  i++ */\n      dup1\n      dup1\n      tag_397\n      swap1\n      tag_380\n      jump\t// in\n    tag_397:\n      swap2\n      pop\n      pop\n        /* \"tronbox/contracts/SmartGenie.sol\":19991:20451  for(int i=0; i<12; i++) { ... */\n      jump(tag_384)\n    tag_385:\n      pop\n        /* \"tronbox/contracts/SmartGenie.sol\":20469:20490  address tempReferrer2 */\n      0x00\n        /* \"tronbox/contracts/SmartGenie.sol\":20493:20501  userList */\n      0x0a\n        /* \"tronbox/contracts/SmartGenie.sol\":20493:20530  userList[users[secondLeg].referrerID] */\n      0x00\n        /* \"tronbox/contracts/SmartGenie.sol\":20502:20507  users */\n      0x09\n        /* \"tronbox/contracts/SmartGenie.sol\":20502:20518  users[secondLeg] */\n      0x00\n        /* \"tronbox/contracts/SmartGenie.sol\":20508:20517  secondLeg */\n      dup7\n        /* \"tronbox/contracts/SmartGenie.sol\":20502:20518  users[secondLeg] */\n      0xffffffffffffffffffffffffffffffffffffffff\n      and\n      0xffffffffffffffffffffffffffffffffffffffff\n      and\n      dup2\n      mstore\n      0x20\n      add\n      swap1\n      dup2\n      mstore\n      0x20\n      add\n      0x00\n      keccak256\n        /* \"tronbox/contracts/SmartGenie.sol\":20502:20529  users[secondLeg].referrerID */\n      0x02\n      add\n      sload\n        /* \"tronbox/contracts/SmartGenie.sol\":20493:20530  userList[users[secondLeg].referrerID] */\n      dup2\n      mstore\n      0x20\n      add\n      swap1\n      dup2\n      mstore\n      0x20\n      add\n      0x00\n      keccak256\n      0x00\n      swap1\n      sload\n      swap1\n      0x0100\n      exp\n      swap1\n      div\n      0xffffffffffffffffffffffffffffffffffffffff\n      and\n        /* \"tronbox/contracts/SmartGenie.sol\":20469:20530  address tempReferrer2 = userList[users[secondLeg].referrerID] */\n      swap1\n      pop\n        /* \"tronbox/contracts/SmartGenie.sol\":20545:20550  int i */\n      0x00\n        /* \"tronbox/contracts/SmartGenie.sol\":20541:21003  for(int i=0; i<12; i++) { ... */\n    tag_398:\n        /* \"tronbox/contracts/SmartGenie.sol\":20556:20558  12 */\n      0x0c\n        /* \"tronbox/contracts/SmartGenie.sol\":20554:20555  i */\n      dup2\n        /* \"tronbox/contracts/SmartGenie.sol\":20554:20558  i<12 */\n      slt\n        /* \"tronbox/contracts/SmartGenie.sol\":20541:21003  for(int i=0; i<12; i++) { ... */\n      iszero\n      tag_399\n      jumpi\n        /* \"tronbox/contracts/SmartGenie.sol\":20580:20598  bool foundReferrer */\n      0x00\n        /* \"tronbox/contracts/SmartGenie.sol\":20630:20636  uint j */\n      dup1\n        /* \"tronbox/contracts/SmartGenie.sol\":20625:20880  for (uint j=0; j<payerReferrals.length; j++) {... */\n    tag_401:\n        /* \"tronbox/contracts/SmartGenie.sol\":20642:20656  payerReferrals */\n      dup8\n        /* \"tronbox/contracts/SmartGenie.sol\":20642:20663  payerReferrals.length */\n      mload\n        /* \"tronbox/contracts/SmartGenie.sol\":20640:20641  j */\n      dup2\n        /* \"tronbox/contracts/SmartGenie.sol\":20640:20663  j<payerReferrals.length */\n      lt\n        /* \"tronbox/contracts/SmartGenie.sol\":20625:20880  for (uint j=0; j<payerReferrals.length; j++) {... */\n      iszero\n      tag_402\n      jumpi\n        /* \"tronbox/contracts/SmartGenie.sol\":20708:20722  payerReferrals */\n      dup8\n        /* \"tronbox/contracts/SmartGenie.sol\":20723:20724  j */\n      dup2\n        /* \"tronbox/contracts/SmartGenie.sol\":20708:20725  payerReferrals[j] */\n      dup2\n      mload\n      dup2\n      lt\n      tag_404\n      jumpi\n      tag_405\n      tag_206\n      jump\t// in\n    tag_405:\n    tag_404:\n      0x20\n      mul\n      0x20\n      add\n      add\n      mload\n        /* \"tronbox/contracts/SmartGenie.sol\":20691:20725  tempReferrer2 == payerReferrals[j] */\n      0xffffffffffffffffffffffffffffffffffffffff\n      and\n        /* \"tronbox/contracts/SmartGenie.sol\":20691:20704  tempReferrer2 */\n      dup5\n        /* \"tronbox/contracts/SmartGenie.sol\":20691:20725  tempReferrer2 == payerReferrals[j] */\n      0xffffffffffffffffffffffffffffffffffffffff\n      and\n      eq\n        /* \"tronbox/contracts/SmartGenie.sol\":20688:20866  if(tempReferrer2 == payerReferrals[j]) {... */\n      iszero\n      tag_406\n      jumpi\n        /* \"tronbox/contracts/SmartGenie.sol\":20761:20775  payerReferrals */\n      dup8\n        /* \"tronbox/contracts/SmartGenie.sol\":20776:20777  j */\n      dup2\n        /* \"tronbox/contracts/SmartGenie.sol\":20761:20778  payerReferrals[j] */\n      dup2\n      mload\n      dup2\n      lt\n      tag_407\n      jumpi\n      tag_408\n      tag_206\n      jump\t// in\n    tag_408:\n    tag_407:\n      0x20\n      mul\n      0x20\n      add\n      add\n      mload\n        /* \"tronbox/contracts/SmartGenie.sol\":20749:20778  secondLeg = payerReferrals[j] */\n      swap6\n      pop\n        /* \"tronbox/contracts/SmartGenie.sol\":20816:20820  true */\n      0x01\n        /* \"tronbox/contracts/SmartGenie.sol\":20800:20820  foundReferrer = true */\n      swap2\n      pop\n        /* \"tronbox/contracts/SmartGenie.sol\":20842:20847  break */\n      jump(tag_402)\n        /* \"tronbox/contracts/SmartGenie.sol\":20688:20866  if(tempReferrer2 == payerReferrals[j]) {... */\n    tag_406:\n        /* \"tronbox/contracts/SmartGenie.sol\":20665:20668  j++ */\n      dup1\n      dup1\n      tag_409\n      swap1\n      tag_180\n      jump\t// in\n    tag_409:\n      swap2\n      pop\n      pop\n        /* \"tronbox/contracts/SmartGenie.sol\":20625:20880  for (uint j=0; j<payerReferrals.length; j++) {... */\n      jump(tag_401)\n    tag_402:\n      pop\n        /* \"tronbox/contracts/SmartGenie.sol\":20896:20909  foundReferrer */\n      dup1\n        /* \"tronbox/contracts/SmartGenie.sol\":20893:20920  if(foundReferrer) { break;} */\n      iszero\n      tag_410\n      jumpi\n        /* \"tronbox/contracts/SmartGenie.sol\":20913:20918  break */\n      pop\n      jump(tag_399)\n        /* \"tronbox/contracts/SmartGenie.sol\":20893:20920  if(foundReferrer) { break;} */\n    tag_410:\n        /* \"tronbox/contracts/SmartGenie.sol\":20950:20958  userList */\n      0x0a\n        /* \"tronbox/contracts/SmartGenie.sol\":20950:20991  userList[users[tempReferrer2].referrerID] */\n      0x00\n        /* \"tronbox/contracts/SmartGenie.sol\":20959:20964  users */\n      0x09\n        /* \"tronbox/contracts/SmartGenie.sol\":20959:20979  users[tempReferrer2] */\n      0x00\n        /* \"tronbox/contracts/SmartGenie.sol\":20965:20978  tempReferrer2 */\n      dup7\n        /* \"tronbox/contracts/SmartGenie.sol\":20959:20979  users[tempReferrer2] */\n      0xffffffffffffffffffffffffffffffffffffffff\n      and\n      0xffffffffffffffffffffffffffffffffffffffff\n      and\n      dup2\n      mstore\n      0x20\n      add\n      swap1\n      dup2\n      mstore\n      0x20\n      add\n      0x00\n      keccak256\n        /* \"tronbox/contracts/SmartGenie.sol\":20959:20990  users[tempReferrer2].referrerID */\n      0x02\n      add\n      sload\n        /* \"tronbox/contracts/SmartGenie.sol\":20950:20991  userList[users[tempReferrer2].referrerID] */\n      dup2\n      mstore\n      0x20\n      add\n      swap1\n      dup2\n      mstore\n      0x20\n      add\n      0x00\n      keccak256\n      0x00\n      swap1\n      sload\n      swap1\n      0x0100\n      exp\n      swap1\n      div\n      0xffffffffffffffffffffffffffffffffffffffff\n      and\n        /* \"tronbox/contracts/SmartGenie.sol\":20934:20991  tempReferrer2 = userList[users[tempReferrer2].referrerID] */\n      swap3\n      pop\n        /* \"tronbox/contracts/SmartGenie.sol\":20565:21003  { ... */\n      pop\n        /* \"tronbox/contracts/SmartGenie.sol\":20560:20563  i++ */\n      dup1\n      dup1\n      tag_411\n      swap1\n      tag_380\n      jump\t// in\n    tag_411:\n      swap2\n      pop\n      pop\n        /* \"tronbox/contracts/SmartGenie.sol\":20541:21003  for(int i=0; i<12; i++) { ... */\n      jump(tag_398)\n    tag_399:\n      pop\n        /* \"tronbox/contracts/SmartGenie.sol\":21036:21045  secondLeg */\n      dup3\n        /* \"tronbox/contracts/SmartGenie.sol\":21024:21045  firstLeg == secondLeg */\n      0xffffffffffffffffffffffffffffffffffffffff\n      and\n        /* \"tronbox/contracts/SmartGenie.sol\":21024:21032  firstLeg */\n      dup5\n        /* \"tronbox/contracts/SmartGenie.sol\":21024:21045  firstLeg == secondLeg */\n      0xffffffffffffffffffffffffffffffffffffffff\n      and\n      eq\n        /* \"tronbox/contracts/SmartGenie.sol\":21021:21066  if(firstLeg == secondLeg) {isSameLeg = true;} */\n      iszero\n      tag_412\n      jumpi\n        /* \"tronbox/contracts/SmartGenie.sol\":21060:21064  true */\n      0x01\n        /* \"tronbox/contracts/SmartGenie.sol\":21048:21064  isSameLeg = true */\n      swap6\n      pop\n        /* \"tronbox/contracts/SmartGenie.sol\":21021:21066  if(firstLeg == secondLeg) {isSameLeg = true;} */\n    tag_412:\n        /* \"tronbox/contracts/SmartGenie.sol\":21084:21093  isSameLeg */\n      dup6\n        /* \"tronbox/contracts/SmartGenie.sol\":21076:21093  return  isSameLeg */\n      swap7\n      pop\n      pop\n      pop\n      pop\n      pop\n      pop\n      pop\n        /* \"tronbox/contracts/SmartGenie.sol\":19563:21106  function isLevelUpgradeFromSameLeg(address _payer, address _existingReferrer, address _newReferrer) ... */\n      swap4\n      swap3\n      pop\n      pop\n      pop\n      jump\t// out\n        /* \"tronbox/contracts/SmartGenie.sol\":13770:16505  function findRenewalPayer(address _referrer, uint256 _regLevel, uint256 _levelEligibility) internal returns (address, address){... */\n    tag_321:\n        /* \"tronbox/contracts/SmartGenie.sol\":13879:13886  address */\n      0x00\n        /* \"tronbox/contracts/SmartGenie.sol\":13888:13895  address */\n      dup1\n        /* \"tronbox/contracts/SmartGenie.sol\":13909:13931  address _eligiblePayer */\n      0x00\n        /* \"tronbox/contracts/SmartGenie.sol\":13945:13966  address _tempreferrer */\n      dup1\n        /* \"tronbox/contracts/SmartGenie.sol\":13969:13978  _referrer */\n      dup7\n        /* \"tronbox/contracts/SmartGenie.sol\":13945:13978  address _tempreferrer = _referrer */\n      swap1\n      pop\n        /* \"tronbox/contracts/SmartGenie.sol\":13993:14012  address secReferrer */\n      0x00\n        /* \"tronbox/contracts/SmartGenie.sol\":14015:14028  _tempreferrer */\n      dup2\n        /* \"tronbox/contracts/SmartGenie.sol\":13993:14028  address secReferrer = _tempreferrer */\n      swap1\n      pop\n        /* \"tronbox/contracts/SmartGenie.sol\":14089:14094  int i */\n      0x00\n        /* \"tronbox/contracts/SmartGenie.sol\":14085:16353  for(int i=0; i<9; i++) { ... */\n    tag_414:\n        /* \"tronbox/contracts/SmartGenie.sol\":14100:14101  9 */\n      0x09\n        /* \"tronbox/contracts/SmartGenie.sol\":14098:14099  i */\n      dup2\n        /* \"tronbox/contracts/SmartGenie.sol\":14098:14101  i<9 */\n      slt\n        /* \"tronbox/contracts/SmartGenie.sol\":14085:16353  for(int i=0; i<9; i++) { ... */\n      iszero\n      tag_415\n      jumpi\n        /* \"tronbox/contracts/SmartGenie.sol\":14305:14306  1 */\n      0x01\n        /* \"tronbox/contracts/SmartGenie.sol\":14274:14279  users */\n      0x09\n        /* \"tronbox/contracts/SmartGenie.sol\":14274:14290  users[_referrer] */\n      0x00\n        /* \"tronbox/contracts/SmartGenie.sol\":14280:14289  _referrer */\n      dup12\n        /* \"tronbox/contracts/SmartGenie.sol\":14274:14290  users[_referrer] */\n      0xffffffffffffffffffffffffffffffffffffffff\n      and\n      0xffffffffffffffffffffffffffffffffffffffff\n      and\n      dup2\n      mstore\n      0x20\n      add\n      swap1\n      dup2\n      mstore\n      0x20\n      add\n      0x00\n      keccak256\n        /* \"tronbox/contracts/SmartGenie.sol\":14274:14301  users[_referrer].referrerID */\n      0x02\n      add\n      sload\n        /* \"tronbox/contracts/SmartGenie.sol\":14274:14306  users[_referrer].referrerID == 1 */\n      eq\n        /* \"tronbox/contracts/SmartGenie.sol\":14274:14339  users[_referrer].referrerID == 1 || _eligiblePayer == userList[1] */\n      dup1\n      tag_417\n      jumpi\n      pop\n        /* \"tronbox/contracts/SmartGenie.sol\":14328:14336  userList */\n      0x0a\n        /* \"tronbox/contracts/SmartGenie.sol\":14328:14339  userList[1] */\n      0x00\n        /* \"tronbox/contracts/SmartGenie.sol\":14337:14338  1 */\n      0x01\n        /* \"tronbox/contracts/SmartGenie.sol\":14328:14339  userList[1] */\n      dup2\n      mstore\n      0x20\n      add\n      swap1\n      dup2\n      mstore\n      0x20\n      add\n      0x00\n      keccak256\n      0x00\n      swap1\n      sload\n      swap1\n      0x0100\n      exp\n      swap1\n      div\n      0xffffffffffffffffffffffffffffffffffffffff\n      and\n        /* \"tronbox/contracts/SmartGenie.sol\":14310:14339  _eligiblePayer == userList[1] */\n      0xffffffffffffffffffffffffffffffffffffffff\n      and\n        /* \"tronbox/contracts/SmartGenie.sol\":14310:14324  _eligiblePayer */\n      dup5\n        /* \"tronbox/contracts/SmartGenie.sol\":14310:14339  _eligiblePayer == userList[1] */\n      0xffffffffffffffffffffffffffffffffffffffff\n      and\n      eq\n        /* \"tronbox/contracts/SmartGenie.sol\":14274:14339  users[_referrer].referrerID == 1 || _eligiblePayer == userList[1] */\n    tag_417:\n        /* \"tronbox/contracts/SmartGenie.sol\":14271:16335  if(users[_referrer].referrerID == 1 || _eligiblePayer == userList[1]) {... */\n      iszero\n      tag_418\n      jumpi\n        /* \"tronbox/contracts/SmartGenie.sol\":14367:14372  break */\n      jump(tag_415)\n        /* \"tronbox/contracts/SmartGenie.sol\":14271:16335  if(users[_referrer].referrerID == 1 || _eligiblePayer == userList[1]) {... */\n    tag_418:\n        /* \"tronbox/contracts/SmartGenie.sol\":14432:14438  uint j */\n      0x00\n        /* \"tronbox/contracts/SmartGenie.sol\":14427:14704  for (uint j=0; j< _regLevel; j++) {... */\n    tag_420:\n        /* \"tronbox/contracts/SmartGenie.sol\":14445:14454  _regLevel */\n      dup9\n        /* \"tronbox/contracts/SmartGenie.sol\":14442:14443  j */\n      dup2\n        /* \"tronbox/contracts/SmartGenie.sol\":14442:14454  j< _regLevel */\n      lt\n        /* \"tronbox/contracts/SmartGenie.sol\":14427:14704  for (uint j=0; j< _regLevel; j++) {... */\n      iszero\n      tag_421\n      jumpi\n        /* \"tronbox/contracts/SmartGenie.sol\":14511:14519  userList */\n      0x0a\n        /* \"tronbox/contracts/SmartGenie.sol\":14511:14522  userList[1] */\n      0x00\n        /* \"tronbox/contracts/SmartGenie.sol\":14520:14521  1 */\n      0x01\n        /* \"tronbox/contracts/SmartGenie.sol\":14511:14522  userList[1] */\n      dup2\n      mstore\n      0x20\n      add\n      swap1\n      dup2\n      mstore\n      0x20\n      add\n      0x00\n      keccak256\n      0x00\n      swap1\n      sload\n      swap1\n      0x0100\n      exp\n      swap1\n      div\n      0xffffffffffffffffffffffffffffffffffffffff\n      and\n        /* \"tronbox/contracts/SmartGenie.sol\":14494:14522  _tempreferrer == userList[1] */\n      0xffffffffffffffffffffffffffffffffffffffff\n      and\n        /* \"tronbox/contracts/SmartGenie.sol\":14494:14507  _tempreferrer */\n      dup5\n        /* \"tronbox/contracts/SmartGenie.sol\":14494:14522  _tempreferrer == userList[1] */\n      0xffffffffffffffffffffffffffffffffffffffff\n      and\n      eq\n        /* \"tronbox/contracts/SmartGenie.sol\":14491:14594  if(_tempreferrer == userList[1]) {... */\n      iszero\n      tag_423\n      jumpi\n        /* \"tronbox/contracts/SmartGenie.sol\":14558:14563  break */\n      jump(tag_421)\n        /* \"tronbox/contracts/SmartGenie.sol\":14491:14594  if(_tempreferrer == userList[1]) {... */\n    tag_423:\n        /* \"tronbox/contracts/SmartGenie.sol\":14637:14645  userList */\n      0x0a\n        /* \"tronbox/contracts/SmartGenie.sol\":14637:14676  userList[users[secReferrer].referrerID] */\n      0x00\n        /* \"tronbox/contracts/SmartGenie.sol\":14646:14651  users */\n      0x09\n        /* \"tronbox/contracts/SmartGenie.sol\":14646:14664  users[secReferrer] */\n      0x00\n        /* \"tronbox/contracts/SmartGenie.sol\":14652:14663  secReferrer */\n      dup7\n        /* \"tronbox/contracts/SmartGenie.sol\":14646:14664  users[secReferrer] */\n      0xffffffffffffffffffffffffffffffffffffffff\n      and\n      0xffffffffffffffffffffffffffffffffffffffff\n      and\n      dup2\n      mstore\n      0x20\n      add\n      swap1\n      dup2\n      mstore\n      0x20\n      add\n      0x00\n      keccak256\n        /* \"tronbox/contracts/SmartGenie.sol\":14646:14675  users[secReferrer].referrerID */\n      0x02\n      add\n      sload\n        /* \"tronbox/contracts/SmartGenie.sol\":14637:14676  userList[users[secReferrer].referrerID] */\n      dup2\n      mstore\n      0x20\n      add\n      swap1\n      dup2\n      mstore\n      0x20\n      add\n      0x00\n      keccak256\n      0x00\n      swap1\n      sload\n      swap1\n      0x0100\n      exp\n      swap1\n      div\n      0xffffffffffffffffffffffffffffffffffffffff\n      and\n        /* \"tronbox/contracts/SmartGenie.sol\":14623:14676  secReferrer = userList[users[secReferrer].referrerID] */\n      swap3\n      pop\n        /* \"tronbox/contracts/SmartGenie.sol\":14456:14459  j++ */\n      dup1\n      dup1\n      tag_424\n      swap1\n      tag_180\n      jump\t// in\n    tag_424:\n      swap2\n      pop\n      pop\n        /* \"tronbox/contracts/SmartGenie.sol\":14427:14704  for (uint j=0; j< _regLevel; j++) {... */\n      jump(tag_420)\n    tag_421:\n      pop\n        /* \"tronbox/contracts/SmartGenie.sol\":14748:14756  userList */\n      0x0a\n        /* \"tronbox/contracts/SmartGenie.sol\":14748:14759  userList[1] */\n      0x00\n        /* \"tronbox/contracts/SmartGenie.sol\":14757:14758  1 */\n      0x01\n        /* \"tronbox/contracts/SmartGenie.sol\":14748:14759  userList[1] */\n      dup2\n      mstore\n      0x20\n      add\n      swap1\n      dup2\n      mstore\n      0x20\n      add\n      0x00\n      keccak256\n      0x00\n      swap1\n      sload\n      swap1\n      0x0100\n      exp\n      swap1\n      div\n      0xffffffffffffffffffffffffffffffffffffffff\n      and\n        /* \"tronbox/contracts/SmartGenie.sol\":14733:14759  secReferrer == userList[1] */\n      0xffffffffffffffffffffffffffffffffffffffff\n      and\n        /* \"tronbox/contracts/SmartGenie.sol\":14733:14744  secReferrer */\n      dup3\n        /* \"tronbox/contracts/SmartGenie.sol\":14733:14759  secReferrer == userList[1] */\n      0xffffffffffffffffffffffffffffffffffffffff\n      and\n      eq\n        /* \"tronbox/contracts/SmartGenie.sol\":14729:16288  if( secReferrer == userList[1]) {... */\n      iszero\n      tag_425\n      jumpi\n        /* \"tronbox/contracts/SmartGenie.sol\":14808:14819  secReferrer */\n      dup2\n        /* \"tronbox/contracts/SmartGenie.sol\":14791:14819  _eligiblePayer = secReferrer */\n      swap4\n      pop\n        /* \"tronbox/contracts/SmartGenie.sol\":14849:14854  break */\n      jump(tag_415)\n        /* \"tronbox/contracts/SmartGenie.sol\":14729:16288  if( secReferrer == userList[1]) {... */\n    tag_425:\n        /* \"tronbox/contracts/SmartGenie.sol\":14917:14933  uint256 _lelevel */\n      0x00\n        /* \"tronbox/contracts/SmartGenie.sol\":14979:14980  1 */\n      0x01\n        /* \"tronbox/contracts/SmartGenie.sol\":14936:14941  users */\n      0x09\n        /* \"tronbox/contracts/SmartGenie.sol\":14936:14954  users[secReferrer] */\n      0x00\n        /* \"tronbox/contracts/SmartGenie.sol\":14942:14953  secReferrer */\n      dup6\n        /* \"tronbox/contracts/SmartGenie.sol\":14936:14954  users[secReferrer] */\n      0xffffffffffffffffffffffffffffffffffffffff\n      and\n      0xffffffffffffffffffffffffffffffffffffffff\n      and\n      dup2\n      mstore\n      0x20\n      add\n      swap1\n      dup2\n      mstore\n      0x20\n      add\n      0x00\n      keccak256\n        /* \"tronbox/contracts/SmartGenie.sol\":14936:14971  users[secReferrer].levelEligibility */\n      0x06\n      add\n        /* \"tronbox/contracts/SmartGenie.sol\":14936:14978  users[secReferrer].levelEligibility.length */\n      dup1\n      sload\n      swap1\n      pop\n        /* \"tronbox/contracts/SmartGenie.sol\":14936:14980  users[secReferrer].levelEligibility.length-1 */\n      tag_427\n      swap2\n      swap1\n      tag_246\n      jump\t// in\n    tag_427:\n        /* \"tronbox/contracts/SmartGenie.sol\":14917:14980  uint256 _lelevel = users[secReferrer].levelEligibility.length-1 */\n      swap1\n      pop\n        /* \"tronbox/contracts/SmartGenie.sol\":15030:15035  users */\n      0x09\n        /* \"tronbox/contracts/SmartGenie.sol\":15030:15048  users[secReferrer] */\n      0x00\n        /* \"tronbox/contracts/SmartGenie.sol\":15036:15047  secReferrer */\n      dup5\n        /* \"tronbox/contracts/SmartGenie.sol\":15030:15048  users[secReferrer] */\n      0xffffffffffffffffffffffffffffffffffffffff\n      and\n      0xffffffffffffffffffffffffffffffffffffffff\n      and\n      dup2\n      mstore\n      0x20\n      add\n      swap1\n      dup2\n      mstore\n      0x20\n      add\n      0x00\n      keccak256\n        /* \"tronbox/contracts/SmartGenie.sol\":15030:15065  users[secReferrer].levelEligibility */\n      0x06\n      add\n        /* \"tronbox/contracts/SmartGenie.sol\":15066:15074  _lelevel */\n      dup2\n        /* \"tronbox/contracts/SmartGenie.sol\":15030:15075  users[secReferrer].levelEligibility[_lelevel] */\n      dup2\n      sload\n      dup2\n      lt\n      tag_428\n      jumpi\n      tag_429\n      tag_206\n      jump\t// in\n    tag_429:\n    tag_428:\n      swap1\n      0x00\n      mstore\n      keccak256(0x00, 0x20)\n      add\n      sload\n        /* \"tronbox/contracts/SmartGenie.sol\":15010:15075  _levelEligibility = users[secReferrer].levelEligibility[_lelevel] */\n      swap8\n      pop\n        /* \"tronbox/contracts/SmartGenie.sol\":15167:15176  _regLevel */\n      dup9\n        /* \"tronbox/contracts/SmartGenie.sol\":15147:15164  _levelEligibility */\n      dup9\n        /* \"tronbox/contracts/SmartGenie.sol\":15147:15176  _levelEligibility < _regLevel */\n      lt\n        /* \"tronbox/contracts/SmartGenie.sol\":15144:16254  if(_levelEligibility < _regLevel) { ... */\n      iszero\n      tag_431\n      jumpi\n        /* \"tronbox/contracts/SmartGenie.sol\":15217:15222  users */\n      0x09\n        /* \"tronbox/contracts/SmartGenie.sol\":15217:15235  users[secReferrer] */\n      0x00\n        /* \"tronbox/contracts/SmartGenie.sol\":15223:15234  secReferrer */\n      dup5\n        /* \"tronbox/contracts/SmartGenie.sol\":15217:15235  users[secReferrer] */\n      0xffffffffffffffffffffffffffffffffffffffff\n      and\n      0xffffffffffffffffffffffffffffffffffffffff\n      and\n      dup2\n      mstore\n      0x20\n      add\n      swap1\n      dup2\n      mstore\n      0x20\n      add\n      0x00\n      keccak256\n        /* \"tronbox/contracts/SmartGenie.sol\":15217:15243  users[secReferrer].isExist */\n      0x00\n      add\n      0x00\n      swap1\n      sload\n      swap1\n      0x0100\n      exp\n      swap1\n      div\n      0xff\n      and\n        /* \"tronbox/contracts/SmartGenie.sol\":15216:15243  !users[secReferrer].isExist */\n      iszero\n        /* \"tronbox/contracts/SmartGenie.sol\":15216:15281  !users[secReferrer].isExist || users[secReferrer].referrerID == 0 */\n      dup1\n      tag_432\n      jumpi\n      pop\n        /* \"tronbox/contracts/SmartGenie.sol\":15280:15281  0 */\n      0x00\n        /* \"tronbox/contracts/SmartGenie.sol\":15247:15252  users */\n      0x09\n        /* \"tronbox/contracts/SmartGenie.sol\":15247:15265  users[secReferrer] */\n      0x00\n        /* \"tronbox/contracts/SmartGenie.sol\":15253:15264  secReferrer */\n      dup6\n        /* \"tronbox/contracts/SmartGenie.sol\":15247:15265  users[secReferrer] */\n      0xffffffffffffffffffffffffffffffffffffffff\n      and\n      0xffffffffffffffffffffffffffffffffffffffff\n      and\n      dup2\n      mstore\n      0x20\n      add\n      swap1\n      dup2\n      mstore\n      0x20\n      add\n      0x00\n      keccak256\n        /* \"tronbox/contracts/SmartGenie.sol\":15247:15276  users[secReferrer].referrerID */\n      0x02\n      add\n      sload\n        /* \"tronbox/contracts/SmartGenie.sol\":15247:15281  users[secReferrer].referrerID == 0 */\n      eq\n        /* \"tronbox/contracts/SmartGenie.sol\":15216:15281  !users[secReferrer].isExist || users[secReferrer].referrerID == 0 */\n    tag_432:\n        /* \"tronbox/contracts/SmartGenie.sol\":15216:15356  !users[secReferrer].isExist || users[secReferrer].referrerID == 0 || ... */\n      dup1\n      tag_433\n      jumpi\n      pop\n        /* \"tronbox/contracts/SmartGenie.sol\":15355:15356  1 */\n      0x01\n        /* \"tronbox/contracts/SmartGenie.sol\":15322:15327  users */\n      0x09\n        /* \"tronbox/contracts/SmartGenie.sol\":15322:15340  users[secReferrer] */\n      0x00\n        /* \"tronbox/contracts/SmartGenie.sol\":15328:15339  secReferrer */\n      dup6\n        /* \"tronbox/contracts/SmartGenie.sol\":15322:15340  users[secReferrer] */\n      0xffffffffffffffffffffffffffffffffffffffff\n      and\n      0xffffffffffffffffffffffffffffffffffffffff\n      and\n      dup2\n      mstore\n      0x20\n      add\n      swap1\n      dup2\n      mstore\n      0x20\n      add\n      0x00\n      keccak256\n        /* \"tronbox/contracts/SmartGenie.sol\":15322:15351  users[secReferrer].referrerID */\n      0x02\n      add\n      sload\n        /* \"tronbox/contracts/SmartGenie.sol\":15322:15356  users[secReferrer].referrerID == 1 */\n      eq\n        /* \"tronbox/contracts/SmartGenie.sol\":15216:15356  !users[secReferrer].isExist || users[secReferrer].referrerID == 0 || ... */\n    tag_433:\n        /* \"tronbox/contracts/SmartGenie.sol\":15213:15926  if(!users[secReferrer].isExist || users[secReferrer].referrerID == 0 || ... */\n      iszero\n      tag_434\n      jumpi\n        /* \"tronbox/contracts/SmartGenie.sol\":15543:15548  users */\n      0x09\n        /* \"tronbox/contracts/SmartGenie.sol\":15543:15589  users[userList[users[secReferrer].referrerID]] */\n      0x00\n        /* \"tronbox/contracts/SmartGenie.sol\":15549:15557  userList */\n      0x0a\n        /* \"tronbox/contracts/SmartGenie.sol\":15549:15588  userList[users[secReferrer].referrerID] */\n      0x00\n        /* \"tronbox/contracts/SmartGenie.sol\":15558:15563  users */\n      0x09\n        /* \"tronbox/contracts/SmartGenie.sol\":15558:15576  users[secReferrer] */\n      0x00\n        /* \"tronbox/contracts/SmartGenie.sol\":15564:15575  secReferrer */\n      dup9\n        /* \"tronbox/contracts/SmartGenie.sol\":15558:15576  users[secReferrer] */\n      0xffffffffffffffffffffffffffffffffffffffff\n      and\n      0xffffffffffffffffffffffffffffffffffffffff\n      and\n      dup2\n      mstore\n      0x20\n      add\n      swap1\n      dup2\n      mstore\n      0x20\n      add\n      0x00\n      keccak256\n        /* \"tronbox/contracts/SmartGenie.sol\":15558:15587  users[secReferrer].referrerID */\n      0x02\n      add\n      sload\n        /* \"tronbox/contracts/SmartGenie.sol\":15549:15588  userList[users[secReferrer].referrerID] */\n      dup2\n      mstore\n      0x20\n      add\n      swap1\n      dup2\n      mstore\n      0x20\n      add\n      0x00\n      keccak256\n      0x00\n      swap1\n      sload\n      swap1\n      0x0100\n      exp\n      swap1\n      div\n      0xffffffffffffffffffffffffffffffffffffffff\n      and\n        /* \"tronbox/contracts/SmartGenie.sol\":15543:15589  users[userList[users[secReferrer].referrerID]] */\n      0xffffffffffffffffffffffffffffffffffffffff\n      and\n      0xffffffffffffffffffffffffffffffffffffffff\n      and\n      dup2\n      mstore\n      0x20\n      add\n      swap1\n      dup2\n      mstore\n      0x20\n      add\n      0x00\n      keccak256\n        /* \"tronbox/contracts/SmartGenie.sol\":15543:15597  users[userList[users[secReferrer].referrerID]].isExist */\n      0x00\n      add\n      0x00\n      swap1\n      sload\n      swap1\n      0x0100\n      exp\n      swap1\n      div\n      0xff\n      and\n        /* \"tronbox/contracts/SmartGenie.sol\":15539:15849  if(!users[userList[users[secReferrer].referrerID]].isExist) { ... */\n      tag_435\n      jumpi\n        /* \"tronbox/contracts/SmartGenie.sol\":15659:15667  userList */\n      0x0a\n        /* \"tronbox/contracts/SmartGenie.sol\":15659:15670  userList[1] */\n      0x00\n        /* \"tronbox/contracts/SmartGenie.sol\":15668:15669  1 */\n      0x01\n        /* \"tronbox/contracts/SmartGenie.sol\":15659:15670  userList[1] */\n      dup2\n      mstore\n      0x20\n      add\n      swap1\n      dup2\n      mstore\n      0x20\n      add\n      0x00\n      keccak256\n      0x00\n      swap1\n      sload\n      swap1\n      0x0100\n      exp\n      swap1\n      div\n      0xffffffffffffffffffffffffffffffffffffffff\n      and\n        /* \"tronbox/contracts/SmartGenie.sol\":15642:15670  _eligiblePayer = userList[1] */\n      swap5\n      pop\n        /* \"tronbox/contracts/SmartGenie.sol\":15539:15849  if(!users[userList[users[secReferrer].referrerID]].isExist) { ... */\n      jump(tag_436)\n    tag_435:\n        /* \"tronbox/contracts/SmartGenie.sol\":15771:15779  userList */\n      0x0a\n        /* \"tronbox/contracts/SmartGenie.sol\":15771:15810  userList[users[secReferrer].referrerID] */\n      0x00\n        /* \"tronbox/contracts/SmartGenie.sol\":15780:15785  users */\n      0x09\n        /* \"tronbox/contracts/SmartGenie.sol\":15780:15798  users[secReferrer] */\n      0x00\n        /* \"tronbox/contracts/SmartGenie.sol\":15786:15797  secReferrer */\n      dup7\n        /* \"tronbox/contracts/SmartGenie.sol\":15780:15798  users[secReferrer] */\n      0xffffffffffffffffffffffffffffffffffffffff\n      and\n      0xffffffffffffffffffffffffffffffffffffffff\n      and\n      dup2\n      mstore\n      0x20\n      add\n      swap1\n      dup2\n      mstore\n      0x20\n      add\n      0x00\n      keccak256\n        /* \"tronbox/contracts/SmartGenie.sol\":15780:15809  users[secReferrer].referrerID */\n      0x02\n      add\n      sload\n        /* \"tronbox/contracts/SmartGenie.sol\":15771:15810  userList[users[secReferrer].referrerID] */\n      dup2\n      mstore\n      0x20\n      add\n      swap1\n      dup2\n      mstore\n      0x20\n      add\n      0x00\n      keccak256\n      0x00\n      swap1\n      sload\n      swap1\n      0x0100\n      exp\n      swap1\n      div\n      0xffffffffffffffffffffffffffffffffffffffff\n      and\n        /* \"tronbox/contracts/SmartGenie.sol\":15754:15810  _eligiblePayer = userList[users[secReferrer].referrerID] */\n      swap5\n      pop\n        /* \"tronbox/contracts/SmartGenie.sol\":15539:15849  if(!users[userList[users[secReferrer].referrerID]].isExist) { ... */\n    tag_436:\n        /* \"tronbox/contracts/SmartGenie.sol\":15886:15891  break */\n      pop\n      jump(tag_415)\n        /* \"tronbox/contracts/SmartGenie.sol\":15213:15926  if(!users[secReferrer].isExist || users[secReferrer].referrerID == 0 || ... */\n    tag_434:\n        /* \"tronbox/contracts/SmartGenie.sol\":15976:15987  secReferrer */\n      dup3\n        /* \"tronbox/contracts/SmartGenie.sol\":15960:15987  _tempreferrer = secReferrer */\n      swap4\n      pop\n        /* \"tronbox/contracts/SmartGenie.sol\":16039:16050  secReferrer */\n      dup3\n        /* \"tronbox/contracts/SmartGenie.sol\":16022:16050  _eligiblePayer = secReferrer */\n      swap5\n      pop\n        /* \"tronbox/contracts/SmartGenie.sol\":15144:16254  if(_levelEligibility < _regLevel) { ... */\n      jump(tag_437)\n    tag_431:\n        /* \"tronbox/contracts/SmartGenie.sol\":16172:16183  secReferrer */\n      dup3\n        /* \"tronbox/contracts/SmartGenie.sol\":16155:16183  _eligiblePayer = secReferrer */\n      swap5\n      pop\n        /* \"tronbox/contracts/SmartGenie.sol\":16218:16223  break */\n      pop\n      jump(tag_415)\n        /* \"tronbox/contracts/SmartGenie.sol\":15144:16254  if(_levelEligibility < _regLevel) { ... */\n    tag_437:\n        /* \"tronbox/contracts/SmartGenie.sol\":14887:16288  {... */\n      pop\n        /* \"tronbox/contracts/SmartGenie.sol\":14103:14106  i++ */\n      dup1\n      dup1\n      tag_438\n      swap1\n      tag_380\n      jump\t// in\n    tag_438:\n      swap2\n      pop\n      pop\n        /* \"tronbox/contracts/SmartGenie.sol\":14085:16353  for(int i=0; i<9; i++) { ... */\n      jump(tag_414)\n    tag_415:\n      pop\n        /* \"tronbox/contracts/SmartGenie.sol\":16448:16449  1 */\n      0x01\n        /* \"tronbox/contracts/SmartGenie.sol\":16408:16413  users */\n      0x09\n        /* \"tronbox/contracts/SmartGenie.sol\":16408:16424  users[_referrer] */\n      0x00\n        /* \"tronbox/contracts/SmartGenie.sol\":16414:16423  _referrer */\n      dup11\n        /* \"tronbox/contracts/SmartGenie.sol\":16408:16424  users[_referrer] */\n      0xffffffffffffffffffffffffffffffffffffffff\n      and\n      0xffffffffffffffffffffffffffffffffffffffff\n      and\n      dup2\n      mstore\n      0x20\n      add\n      swap1\n      dup2\n      mstore\n      0x20\n      add\n      0x00\n      keccak256\n        /* \"tronbox/contracts/SmartGenie.sol\":16408:16436  users[_referrer].incomeCount */\n      0x05\n      add\n        /* \"tronbox/contracts/SmartGenie.sol\":16408:16447  users[_referrer].incomeCount[_regLevel] */\n      0x00\n        /* \"tronbox/contracts/SmartGenie.sol\":16437:16446  _regLevel */\n      dup10\n        /* \"tronbox/contracts/SmartGenie.sol\":16408:16447  users[_referrer].incomeCount[_regLevel] */\n      dup2\n      mstore\n      0x20\n      add\n      swap1\n      dup2\n      mstore\n      0x20\n      add\n      0x00\n      keccak256\n      sload\n        /* \"tronbox/contracts/SmartGenie.sol\":16408:16449  users[_referrer].incomeCount[_regLevel]+1 */\n      tag_439\n      swap2\n      swap1\n      tag_183\n      jump\t// in\n    tag_439:\n        /* \"tronbox/contracts/SmartGenie.sol\":16366:16371  users */\n      0x09\n        /* \"tronbox/contracts/SmartGenie.sol\":16366:16382  users[_referrer] */\n      0x00\n        /* \"tronbox/contracts/SmartGenie.sol\":16372:16381  _referrer */\n      dup11\n        /* \"tronbox/contracts/SmartGenie.sol\":16366:16382  users[_referrer] */\n      0xffffffffffffffffffffffffffffffffffffffff\n      and\n      0xffffffffffffffffffffffffffffffffffffffff\n      and\n      dup2\n      mstore\n      0x20\n      add\n      swap1\n      dup2\n      mstore\n      0x20\n      add\n      0x00\n      keccak256\n        /* \"tronbox/contracts/SmartGenie.sol\":16366:16394  users[_referrer].incomeCount */\n      0x05\n      add\n        /* \"tronbox/contracts/SmartGenie.sol\":16366:16405  users[_referrer].incomeCount[_regLevel] */\n      0x00\n        /* \"tronbox/contracts/SmartGenie.sol\":16395:16404  _regLevel */\n      dup10\n        /* \"tronbox/contracts/SmartGenie.sol\":16366:16405  users[_referrer].incomeCount[_regLevel] */\n      dup2\n      mstore\n      0x20\n      add\n      swap1\n      dup2\n      mstore\n      0x20\n      add\n      0x00\n      keccak256\n        /* \"tronbox/contracts/SmartGenie.sol\":16366:16449  users[_referrer].incomeCount[_regLevel] = users[_referrer].incomeCount[_regLevel]+1 */\n      dup2\n      swap1\n      sstore\n      pop\n        /* \"tronbox/contracts/SmartGenie.sol\":16472:16486  _eligiblePayer */\n      dup3\n        /* \"tronbox/contracts/SmartGenie.sol\":16488:16497  _referrer */\n      dup9\n        /* \"tronbox/contracts/SmartGenie.sol\":16464:16498  return (_eligiblePayer, _referrer) */\n      swap5\n      pop\n      swap5\n      pop\n      pop\n      pop\n      pop\n        /* \"tronbox/contracts/SmartGenie.sol\":13770:16505  function findRenewalPayer(address _referrer, uint256 _regLevel, uint256 _levelEligibility) internal returns (address, address){... */\n      swap4\n      pop\n      swap4\n      swap2\n      pop\n      pop\n      jump\t// out\n    tag_173:\n      dup3\n      dup1\n      sload\n      dup3\n      dup3\n      sstore\n      swap1\n      0x00\n      mstore\n      keccak256(0x00, 0x20)\n      swap1\n      dup2\n      add\n      swap3\n      dup3\n      iszero\n      tag_440\n      jumpi\n      swap2\n      0x20\n      mul\n      dup3\n      add\n    tag_441:\n      dup3\n      dup2\n      gt\n      iszero\n      tag_442\n      jumpi\n      dup3\n      mload\n      dup3\n      exp(0x0100, 0x00)\n      dup2\n      sload\n      dup2\n      0xffffffffffffffffffffffffffffffffffffffff\n      mul\n      not\n      and\n      swap1\n      dup4\n      0xffffffffffffffffffffffffffffffffffffffff\n      and\n      mul\n      or\n      swap1\n      sstore\n      pop\n      swap2\n      0x20\n      add\n      swap2\n      swap1\n      0x01\n      add\n      swap1\n      jump(tag_441)\n    tag_442:\n    tag_440:\n      pop\n      swap1\n      pop\n      tag_443\n      swap2\n      swap1\n      tag_444\n      jump\t// in\n    tag_443:\n      pop\n      swap1\n      jump\t// out\n    tag_178:\n      dup3\n      dup1\n      sload\n      dup3\n      dup3\n      sstore\n      swap1\n      0x00\n      mstore\n      keccak256(0x00, 0x20)\n      swap1\n      dup2\n      add\n      swap3\n      dup3\n      iszero\n      tag_445\n      jumpi\n      swap2\n      0x20\n      mul\n      dup3\n      add\n    tag_446:\n      dup3\n      dup2\n      gt\n      iszero\n      tag_447\n      jumpi\n      dup3\n      mload\n      dup3\n      sstore\n      swap2\n      0x20\n      add\n      swap2\n      swap1\n      0x01\n      add\n      swap1\n      jump(tag_446)\n    tag_447:\n    tag_445:\n      pop\n      swap1\n      pop\n      tag_448\n      swap2\n      swap1\n      tag_444\n      jump\t// in\n    tag_448:\n      pop\n      swap1\n      jump\t// out\n    tag_444:\n    tag_449:\n      dup1\n      dup3\n      gt\n      iszero\n      tag_450\n      jumpi\n      0x00\n      dup2\n      0x00\n      swap1\n      sstore\n      pop\n      0x01\n      add\n      jump(tag_449)\n    tag_450:\n      pop\n      swap1\n      jump\t// out\n        /* \"#utility.yul\":88:205   */\n    tag_452:\n        /* \"#utility.yul\":197:198   */\n      0x00\n        /* \"#utility.yul\":194:195   */\n      dup1\n        /* \"#utility.yul\":187:199   */\n      revert\n        /* \"#utility.yul\":334:411   */\n    tag_454:\n        /* \"#utility.yul\":371:378   */\n      0x00\n        /* \"#utility.yul\":400:405   */\n      dup2\n        /* \"#utility.yul\":389:405   */\n      swap1\n      pop\n        /* \"#utility.yul\":334:411   */\n      swap2\n      swap1\n      pop\n      jump\t// out\n        /* \"#utility.yul\":417:539   */\n    tag_455:\n        /* \"#utility.yul\":490:514   */\n      tag_508\n        /* \"#utility.yul\":508:513   */\n      dup2\n        /* \"#utility.yul\":490:514   */\n      tag_454\n      jump\t// in\n    tag_508:\n        /* \"#utility.yul\":483:488   */\n      dup2\n        /* \"#utility.yul\":480:515   */\n      eq\n        /* \"#utility.yul\":470:533   */\n      tag_509\n      jumpi\n        /* \"#utility.yul\":529:530   */\n      0x00\n        /* \"#utility.yul\":526:527   */\n      dup1\n        /* \"#utility.yul\":519:531   */\n      revert\n        /* \"#utility.yul\":470:533   */\n    tag_509:\n        /* \"#utility.yul\":417:539   */\n      pop\n      jump\t// out\n        /* \"#utility.yul\":545:684   */\n    tag_456:\n        /* \"#utility.yul\":591:596   */\n      0x00\n        /* \"#utility.yul\":629:635   */\n      dup2\n        /* \"#utility.yul\":616:636   */\n      calldataload\n        /* \"#utility.yul\":607:636   */\n      swap1\n      pop\n        /* \"#utility.yul\":645:678   */\n      tag_511\n        /* \"#utility.yul\":672:677   */\n      dup2\n        /* \"#utility.yul\":645:678   */\n      tag_455\n      jump\t// in\n    tag_511:\n        /* \"#utility.yul\":545:684   */\n      swap3\n      swap2\n      pop\n      pop\n      jump\t// out\n        /* \"#utility.yul\":690:1019   */\n    tag_29:\n        /* \"#utility.yul\":749:755   */\n      0x00\n        /* \"#utility.yul\":798:800   */\n      0x20\n        /* \"#utility.yul\":786:795   */\n      dup3\n        /* \"#utility.yul\":777:784   */\n      dup5\n        /* \"#utility.yul\":773:796   */\n      sub\n        /* \"#utility.yul\":769:801   */\n      slt\n        /* \"#utility.yul\":766:885   */\n      iszero\n      tag_513\n      jumpi\n        /* \"#utility.yul\":804:883   */\n      tag_514\n      tag_452\n      jump\t// in\n    tag_514:\n        /* \"#utility.yul\":766:885   */\n    tag_513:\n        /* \"#utility.yul\":924:925   */\n      0x00\n        /* \"#utility.yul\":949:1002   */\n      tag_515\n        /* \"#utility.yul\":994:1001   */\n      dup5\n        /* \"#utility.yul\":985:991   */\n      dup3\n        /* \"#utility.yul\":974:983   */\n      dup6\n        /* \"#utility.yul\":970:992   */\n      add\n        /* \"#utility.yul\":949:1002   */\n      tag_456\n      jump\t// in\n    tag_515:\n        /* \"#utility.yul\":939:1002   */\n      swap2\n      pop\n        /* \"#utility.yul\":895:1012   */\n      pop\n        /* \"#utility.yul\":690:1019   */\n      swap3\n      swap2\n      pop\n      pop\n      jump\t// out\n        /* \"#utility.yul\":1025:1151   */\n    tag_457:\n        /* \"#utility.yul\":1062:1069   */\n      0x00\n        /* \"#utility.yul\":1102:1144   */\n      0xffffffffffffffffffffffffffffffffffffffff\n        /* \"#utility.yul\":1095:1100   */\n      dup3\n        /* \"#utility.yul\":1091:1145   */\n      and\n        /* \"#utility.yul\":1080:1145   */\n      swap1\n      pop\n        /* \"#utility.yul\":1025:1151   */\n      swap2\n      swap1\n      pop\n      jump\t// out\n        /* \"#utility.yul\":1157:1253   */\n    tag_458:\n        /* \"#utility.yul\":1194:1201   */\n      0x00\n        /* \"#utility.yul\":1223:1247   */\n      tag_518\n        /* \"#utility.yul\":1241:1246   */\n      dup3\n        /* \"#utility.yul\":1223:1247   */\n      tag_457\n      jump\t// in\n    tag_518:\n        /* \"#utility.yul\":1212:1247   */\n      swap1\n      pop\n        /* \"#utility.yul\":1157:1253   */\n      swap2\n      swap1\n      pop\n      jump\t// out\n        /* \"#utility.yul\":1259:1377   */\n    tag_459:\n        /* \"#utility.yul\":1346:1370   */\n      tag_520\n        /* \"#utility.yul\":1364:1369   */\n      dup2\n        /* \"#utility.yul\":1346:1370   */\n      tag_458\n      jump\t// in\n    tag_520:\n        /* \"#utility.yul\":1341:1344   */\n      dup3\n        /* \"#utility.yul\":1334:1371   */\n      mstore\n        /* \"#utility.yul\":1259:1377   */\n      pop\n      pop\n      jump\t// out\n        /* \"#utility.yul\":1383:1605   */\n    tag_32:\n        /* \"#utility.yul\":1476:1480   */\n      0x00\n        /* \"#utility.yul\":1514:1516   */\n      0x20\n        /* \"#utility.yul\":1503:1512   */\n      dup3\n        /* \"#utility.yul\":1499:1517   */\n      add\n        /* \"#utility.yul\":1491:1517   */\n      swap1\n      pop\n        /* \"#utility.yul\":1527:1598   */\n      tag_522\n        /* \"#utility.yul\":1595:1596   */\n      0x00\n        /* \"#utility.yul\":1584:1593   */\n      dup4\n        /* \"#utility.yul\":1580:1597   */\n      add\n        /* \"#utility.yul\":1571:1577   */\n      dup5\n        /* \"#utility.yul\":1527:1598   */\n      tag_459\n      jump\t// in\n    tag_522:\n        /* \"#utility.yul\":1383:1605   */\n      swap3\n      swap2\n      pop\n      pop\n      jump\t// out\n        /* \"#utility.yul\":1611:1733   */\n    tag_460:\n        /* \"#utility.yul\":1684:1708   */\n      tag_524\n        /* \"#utility.yul\":1702:1707   */\n      dup2\n        /* \"#utility.yul\":1684:1708   */\n      tag_458\n      jump\t// in\n    tag_524:\n        /* \"#utility.yul\":1677:1682   */\n      dup2\n        /* \"#utility.yul\":1674:1709   */\n      eq\n        /* \"#utility.yul\":1664:1727   */\n      tag_525\n      jumpi\n        /* \"#utility.yul\":1723:1724   */\n      0x00\n        /* \"#utility.yul\":1720:1721   */\n      dup1\n        /* \"#utility.yul\":1713:1725   */\n      revert\n        /* \"#utility.yul\":1664:1727   */\n    tag_525:\n        /* \"#utility.yul\":1611:1733   */\n      pop\n      jump\t// out\n        /* \"#utility.yul\":1739:1878   */\n    tag_461:\n        /* \"#utility.yul\":1785:1790   */\n      0x00\n        /* \"#utility.yul\":1823:1829   */\n      dup2\n        /* \"#utility.yul\":1810:1830   */\n      calldataload\n        /* \"#utility.yul\":1801:1830   */\n      swap1\n      pop\n        /* \"#utility.yul\":1839:1872   */\n      tag_527\n        /* \"#utility.yul\":1866:1871   */\n      dup2\n        /* \"#utility.yul\":1839:1872   */\n      tag_460\n      jump\t// in\n    tag_527:\n        /* \"#utility.yul\":1739:1878   */\n      swap3\n      swap2\n      pop\n      pop\n      jump\t// out\n        /* \"#utility.yul\":1884:2358   */\n    tag_40:\n        /* \"#utility.yul\":1952:1958   */\n      0x00\n        /* \"#utility.yul\":1960:1966   */\n      dup1\n        /* \"#utility.yul\":2009:2011   */\n      0x40\n        /* \"#utility.yul\":1997:2006   */\n      dup4\n        /* \"#utility.yul\":1988:1995   */\n      dup6\n        /* \"#utility.yul\":1984:2007   */\n      sub\n        /* \"#utility.yul\":1980:2012   */\n      slt\n        /* \"#utility.yul\":1977:2096   */\n      iszero\n      tag_529\n      jumpi\n        /* \"#utility.yul\":2015:2094   */\n      tag_530\n      tag_452\n      jump\t// in\n    tag_530:\n        /* \"#utility.yul\":1977:2096   */\n    tag_529:\n        /* \"#utility.yul\":2135:2136   */\n      0x00\n        /* \"#utility.yul\":2160:2213   */\n      tag_531\n        /* \"#utility.yul\":2205:2212   */\n      dup6\n        /* \"#utility.yul\":2196:2202   */\n      dup3\n        /* \"#utility.yul\":2185:2194   */\n      dup7\n        /* \"#utility.yul\":2181:2203   */\n      add\n        /* \"#utility.yul\":2160:2213   */\n      tag_456\n      jump\t// in\n    tag_531:\n        /* \"#utility.yul\":2150:2213   */\n      swap3\n      pop\n        /* \"#utility.yul\":2106:2223   */\n      pop\n        /* \"#utility.yul\":2262:2264   */\n      0x20\n        /* \"#utility.yul\":2288:2341   */\n      tag_532\n        /* \"#utility.yul\":2333:2340   */\n      dup6\n        /* \"#utility.yul\":2324:2330   */\n      dup3\n        /* \"#utility.yul\":2313:2322   */\n      dup7\n        /* \"#utility.yul\":2309:2331   */\n      add\n        /* \"#utility.yul\":2288:2341   */\n      tag_461\n      jump\t// in\n    tag_532:\n        /* \"#utility.yul\":2278:2341   */\n      swap2\n      pop\n        /* \"#utility.yul\":2233:2351   */\n      pop\n        /* \"#utility.yul\":1884:2358   */\n      swap3\n      pop\n      swap3\n      swap1\n      pop\n      jump\t// out\n        /* \"#utility.yul\":2364:2454   */\n    tag_462:\n        /* \"#utility.yul\":2398:2405   */\n      0x00\n        /* \"#utility.yul\":2441:2446   */\n      dup2\n        /* \"#utility.yul\":2434:2447   */\n      iszero\n        /* \"#utility.yul\":2427:2448   */\n      iszero\n        /* \"#utility.yul\":2416:2448   */\n      swap1\n      pop\n        /* \"#utility.yul\":2364:2454   */\n      swap2\n      swap1\n      pop\n      jump\t// out\n        /* \"#utility.yul\":2460:2569   */\n    tag_463:\n        /* \"#utility.yul\":2541:2562   */\n      tag_535\n        /* \"#utility.yul\":2556:2561   */\n      dup2\n        /* \"#utility.yul\":2541:2562   */\n      tag_462\n      jump\t// in\n    tag_535:\n        /* \"#utility.yul\":2536:2539   */\n      dup3\n        /* \"#utility.yul\":2529:2563   */\n      mstore\n        /* \"#utility.yul\":2460:2569   */\n      pop\n      pop\n      jump\t// out\n        /* \"#utility.yul\":2575:2785   */\n    tag_48:\n        /* \"#utility.yul\":2662:2666   */\n      0x00\n        /* \"#utility.yul\":2700:2702   */\n      0x20\n        /* \"#utility.yul\":2689:2698   */\n      dup3\n        /* \"#utility.yul\":2685:2703   */\n      add\n        /* \"#utility.yul\":2677:2703   */\n      swap1\n      pop\n        /* \"#utility.yul\":2713:2778   */\n      tag_537\n        /* \"#utility.yul\":2775:2776   */\n      0x00\n        /* \"#utility.yul\":2764:2773   */\n      dup4\n        /* \"#utility.yul\":2760:2777   */\n      add\n        /* \"#utility.yul\":2751:2757   */\n      dup5\n        /* \"#utility.yul\":2713:2778   */\n      tag_463\n      jump\t// in\n    tag_537:\n        /* \"#utility.yul\":2575:2785   */\n      swap3\n      swap2\n      pop\n      pop\n      jump\t// out\n        /* \"#utility.yul\":2791:3120   */\n    tag_52:\n        /* \"#utility.yul\":2850:2856   */\n      0x00\n        /* \"#utility.yul\":2899:2901   */\n      0x20\n        /* \"#utility.yul\":2887:2896   */\n      dup3\n        /* \"#utility.yul\":2878:2885   */\n      dup5\n        /* \"#utility.yul\":2874:2897   */\n      sub\n        /* \"#utility.yul\":2870:2902   */\n      slt\n        /* \"#utility.yul\":2867:2986   */\n      iszero\n      tag_539\n      jumpi\n        /* \"#utility.yul\":2905:2984   */\n      tag_540\n      tag_452\n      jump\t// in\n    tag_540:\n        /* \"#utility.yul\":2867:2986   */\n    tag_539:\n        /* \"#utility.yul\":3025:3026   */\n      0x00\n        /* \"#utility.yul\":3050:3103   */\n      tag_541\n        /* \"#utility.yul\":3095:3102   */\n      dup5\n        /* \"#utility.yul\":3086:3092   */\n      dup3\n        /* \"#utility.yul\":3075:3084   */\n      dup6\n        /* \"#utility.yul\":3071:3093   */\n      add\n        /* \"#utility.yul\":3050:3103   */\n      tag_461\n      jump\t// in\n    tag_541:\n        /* \"#utility.yul\":3040:3103   */\n      swap2\n      pop\n        /* \"#utility.yul\":2996:3113   */\n      pop\n        /* \"#utility.yul\":2791:3120   */\n      swap3\n      swap2\n      pop\n      pop\n      jump\t// out\n        /* \"#utility.yul\":3126:3240   */\n    tag_464:\n        /* \"#utility.yul\":3193:3199   */\n      0x00\n        /* \"#utility.yul\":3227:3232   */\n      dup2\n        /* \"#utility.yul\":3221:3233   */\n      mload\n        /* \"#utility.yul\":3211:3233   */\n      swap1\n      pop\n        /* \"#utility.yul\":3126:3240   */\n      swap2\n      swap1\n      pop\n      jump\t// out\n        /* \"#utility.yul\":3246:3430   */\n    tag_465:\n        /* \"#utility.yul\":3345:3356   */\n      0x00\n        /* \"#utility.yul\":3379:3385   */\n      dup3\n        /* \"#utility.yul\":3374:3377   */\n      dup3\n        /* \"#utility.yul\":3367:3386   */\n      mstore\n        /* \"#utility.yul\":3419:3423   */\n      0x20\n        /* \"#utility.yul\":3414:3417   */\n      dup3\n        /* \"#utility.yul\":3410:3424   */\n      add\n        /* \"#utility.yul\":3395:3424   */\n      swap1\n      pop\n        /* \"#utility.yul\":3246:3430   */\n      swap3\n      swap2\n      pop\n      pop\n      jump\t// out\n        /* \"#utility.yul\":3436:3568   */\n    tag_466:\n        /* \"#utility.yul\":3503:3507   */\n      0x00\n        /* \"#utility.yul\":3526:3529   */\n      dup2\n        /* \"#utility.yul\":3518:3529   */\n      swap1\n      pop\n        /* \"#utility.yul\":3556:3560   */\n      0x20\n        /* \"#utility.yul\":3551:3554   */\n      dup3\n        /* \"#utility.yul\":3547:3561   */\n      add\n        /* \"#utility.yul\":3539:3561   */\n      swap1\n      pop\n        /* \"#utility.yul\":3436:3568   */\n      swap2\n      swap1\n      pop\n      jump\t// out\n        /* \"#utility.yul\":3574:3682   */\n    tag_467:\n        /* \"#utility.yul\":3651:3675   */\n      tag_546\n        /* \"#utility.yul\":3669:3674   */\n      dup2\n        /* \"#utility.yul\":3651:3675   */\n      tag_458\n      jump\t// in\n    tag_546:\n        /* \"#utility.yul\":3646:3649   */\n      dup3\n        /* \"#utility.yul\":3639:3676   */\n      mstore\n        /* \"#utility.yul\":3574:3682   */\n      pop\n      pop\n      jump\t// out\n        /* \"#utility.yul\":3688:3867   */\n    tag_468:\n        /* \"#utility.yul\":3757:3767   */\n      0x00\n        /* \"#utility.yul\":3778:3824   */\n      tag_548\n        /* \"#utility.yul\":3820:3823   */\n      dup4\n        /* \"#utility.yul\":3812:3818   */\n      dup4\n        /* \"#utility.yul\":3778:3824   */\n      tag_467\n      jump\t// in\n    tag_548:\n        /* \"#utility.yul\":3856:3860   */\n      0x20\n        /* \"#utility.yul\":3851:3854   */\n      dup4\n        /* \"#utility.yul\":3847:3861   */\n      add\n        /* \"#utility.yul\":3833:3861   */\n      swap1\n      pop\n        /* \"#utility.yul\":3688:3867   */\n      swap3\n      swap2\n      pop\n      pop\n      jump\t// out\n        /* \"#utility.yul\":3873:3986   */\n    tag_469:\n        /* \"#utility.yul\":3943:3947   */\n      0x00\n        /* \"#utility.yul\":3975:3979   */\n      0x20\n        /* \"#utility.yul\":3970:3973   */\n      dup3\n        /* \"#utility.yul\":3966:3980   */\n      add\n        /* \"#utility.yul\":3958:3980   */\n      swap1\n      pop\n        /* \"#utility.yul\":3873:3986   */\n      swap2\n      swap1\n      pop\n      jump\t// out\n        /* \"#utility.yul\":4022:4754   */\n    tag_470:\n        /* \"#utility.yul\":4141:4144   */\n      0x00\n        /* \"#utility.yul\":4170:4224   */\n      tag_551\n        /* \"#utility.yul\":4218:4223   */\n      dup3\n        /* \"#utility.yul\":4170:4224   */\n      tag_464\n      jump\t// in\n    tag_551:\n        /* \"#utility.yul\":4240:4326   */\n      tag_552\n        /* \"#utility.yul\":4319:4325   */\n      dup2\n        /* \"#utility.yul\":4314:4317   */\n      dup6\n        /* \"#utility.yul\":4240:4326   */\n      tag_465\n      jump\t// in\n    tag_552:\n        /* \"#utility.yul\":4233:4326   */\n      swap4\n      pop\n        /* \"#utility.yul\":4350:4406   */\n      tag_553\n        /* \"#utility.yul\":4400:4405   */\n      dup4\n        /* \"#utility.yul\":4350:4406   */\n      tag_466\n      jump\t// in\n    tag_553:\n        /* \"#utility.yul\":4429:4436   */\n      dup1\n        /* \"#utility.yul\":4460:4461   */\n      0x00\n        /* \"#utility.yul\":4445:4729   */\n    tag_554:\n        /* \"#utility.yul\":4470:4476   */\n      dup4\n        /* \"#utility.yul\":4467:4468   */\n      dup2\n        /* \"#utility.yul\":4464:4477   */\n      lt\n        /* \"#utility.yul\":4445:4729   */\n      iszero\n      tag_556\n      jumpi\n        /* \"#utility.yul\":4546:4552   */\n      dup2\n        /* \"#utility.yul\":4540:4553   */\n      mload\n        /* \"#utility.yul\":4573:4636   */\n      tag_557\n        /* \"#utility.yul\":4632:4635   */\n      dup9\n        /* \"#utility.yul\":4617:4630   */\n      dup3\n        /* \"#utility.yul\":4573:4636   */\n      tag_468\n      jump\t// in\n    tag_557:\n        /* \"#utility.yul\":4566:4636   */\n      swap8\n      pop\n        /* \"#utility.yul\":4659:4719   */\n      tag_558\n        /* \"#utility.yul\":4712:4718   */\n      dup4\n        /* \"#utility.yul\":4659:4719   */\n      tag_469\n      jump\t// in\n    tag_558:\n        /* \"#utility.yul\":4649:4719   */\n      swap3\n      pop\n        /* \"#utility.yul\":4505:4729   */\n      pop\n        /* \"#utility.yul\":4492:4493   */\n      0x01\n        /* \"#utility.yul\":4489:4490   */\n      dup2\n        /* \"#utility.yul\":4485:4494   */\n      add\n        /* \"#utility.yul\":4480:4494   */\n      swap1\n      pop\n        /* \"#utility.yul\":4445:4729   */\n      jump(tag_554)\n    tag_556:\n        /* \"#utility.yul\":4449:4463   */\n      pop\n        /* \"#utility.yul\":4745:4748   */\n      dup6\n        /* \"#utility.yul\":4738:4748   */\n      swap4\n      pop\n        /* \"#utility.yul\":4146:4754   */\n      pop\n      pop\n      pop\n        /* \"#utility.yul\":4022:4754   */\n      swap3\n      swap2\n      pop\n      pop\n      jump\t// out\n        /* \"#utility.yul\":4760:5133   */\n    tag_55:\n        /* \"#utility.yul\":4903:4907   */\n      0x00\n        /* \"#utility.yul\":4941:4943   */\n      0x20\n        /* \"#utility.yul\":4930:4939   */\n      dup3\n        /* \"#utility.yul\":4926:4944   */\n      add\n        /* \"#utility.yul\":4918:4944   */\n      swap1\n      pop\n        /* \"#utility.yul\":4990:4999   */\n      dup2\n        /* \"#utility.yul\":4984:4988   */\n      dup2\n        /* \"#utility.yul\":4980:5000   */\n      sub\n        /* \"#utility.yul\":4976:4977   */\n      0x00\n        /* \"#utility.yul\":4965:4974   */\n      dup4\n        /* \"#utility.yul\":4961:4978   */\n      add\n        /* \"#utility.yul\":4954:5001   */\n      mstore\n        /* \"#utility.yul\":5018:5126   */\n      tag_560\n        /* \"#utility.yul\":5121:5125   */\n      dup2\n        /* \"#utility.yul\":5112:5118   */\n      dup5\n        /* \"#utility.yul\":5018:5126   */\n      tag_470\n      jump\t// in\n    tag_560:\n        /* \"#utility.yul\":5010:5126   */\n      swap1\n      pop\n        /* \"#utility.yul\":4760:5133   */\n      swap3\n      swap2\n      pop\n      pop\n      jump\t// out\n        /* \"#utility.yul\":5139:5225   */\n    tag_471:\n        /* \"#utility.yul\":5174:5181   */\n      0x00\n        /* \"#utility.yul\":5214:5218   */\n      0xff\n        /* \"#utility.yul\":5207:5212   */\n      dup3\n        /* \"#utility.yul\":5203:5219   */\n      and\n        /* \"#utility.yul\":5192:5219   */\n      swap1\n      pop\n        /* \"#utility.yul\":5139:5225   */\n      swap2\n      swap1\n      pop\n      jump\t// out\n        /* \"#utility.yul\":5231:5343   */\n    tag_472:\n        /* \"#utility.yul\":5314:5336   */\n      tag_563\n        /* \"#utility.yul\":5330:5335   */\n      dup2\n        /* \"#utility.yul\":5314:5336   */\n      tag_471\n      jump\t// in\n    tag_563:\n        /* \"#utility.yul\":5309:5312   */\n      dup3\n        /* \"#utility.yul\":5302:5337   */\n      mstore\n        /* \"#utility.yul\":5231:5343   */\n      pop\n      pop\n      jump\t// out\n        /* \"#utility.yul\":5349:5563   */\n    tag_65:\n        /* \"#utility.yul\":5438:5442   */\n      0x00\n        /* \"#utility.yul\":5476:5478   */\n      0x20\n        /* \"#utility.yul\":5465:5474   */\n      dup3\n        /* \"#utility.yul\":5461:5479   */\n      add\n        /* \"#utility.yul\":5453:5479   */\n      swap1\n      pop\n        /* \"#utility.yul\":5489:5556   */\n      tag_565\n        /* \"#utility.yul\":5553:5554   */\n      0x00\n        /* \"#utility.yul\":5542:5551   */\n      dup4\n        /* \"#utility.yul\":5538:5555   */\n      add\n        /* \"#utility.yul\":5529:5535   */\n      dup5\n        /* \"#utility.yul\":5489:5556   */\n      tag_472\n      jump\t// in\n    tag_565:\n        /* \"#utility.yul\":5349:5563   */\n      swap3\n      swap2\n      pop\n      pop\n      jump\t// out\n        /* \"#utility.yul\":5569:5683   */\n    tag_473:\n        /* \"#utility.yul\":5636:5642   */\n      0x00\n        /* \"#utility.yul\":5670:5675   */\n      dup2\n        /* \"#utility.yul\":5664:5676   */\n      mload\n        /* \"#utility.yul\":5654:5676   */\n      swap1\n      pop\n        /* \"#utility.yul\":5569:5683   */\n      swap2\n      swap1\n      pop\n      jump\t// out\n        /* \"#utility.yul\":5689:5873   */\n    tag_474:\n        /* \"#utility.yul\":5788:5799   */\n      0x00\n        /* \"#utility.yul\":5822:5828   */\n      dup3\n        /* \"#utility.yul\":5817:5820   */\n      dup3\n        /* \"#utility.yul\":5810:5829   */\n      mstore\n        /* \"#utility.yul\":5862:5866   */\n      0x20\n        /* \"#utility.yul\":5857:5860   */\n      dup3\n        /* \"#utility.yul\":5853:5867   */\n      add\n        /* \"#utility.yul\":5838:5867   */\n      swap1\n      pop\n        /* \"#utility.yul\":5689:5873   */\n      swap3\n      swap2\n      pop\n      pop\n      jump\t// out\n        /* \"#utility.yul\":5879:6011   */\n    tag_475:\n        /* \"#utility.yul\":5946:5950   */\n      0x00\n        /* \"#utility.yul\":5969:5972   */\n      dup2\n        /* \"#utility.yul\":5961:5972   */\n      swap1\n      pop\n        /* \"#utility.yul\":5999:6003   */\n      0x20\n        /* \"#utility.yul\":5994:5997   */\n      dup3\n        /* \"#utility.yul\":5990:6004   */\n      add\n        /* \"#utility.yul\":5982:6004   */\n      swap1\n      pop\n        /* \"#utility.yul\":5879:6011   */\n      swap2\n      swap1\n      pop\n      jump\t// out\n        /* \"#utility.yul\":6017:6125   */\n    tag_476:\n        /* \"#utility.yul\":6094:6118   */\n      tag_570\n        /* \"#utility.yul\":6112:6117   */\n      dup2\n        /* \"#utility.yul\":6094:6118   */\n      tag_454\n      jump\t// in\n    tag_570:\n        /* \"#utility.yul\":6089:6092   */\n      dup3\n        /* \"#utility.yul\":6082:6119   */\n      mstore\n        /* \"#utility.yul\":6017:6125   */\n      pop\n      pop\n      jump\t// out\n        /* \"#utility.yul\":6131:6310   */\n    tag_477:\n        /* \"#utility.yul\":6200:6210   */\n      0x00\n        /* \"#utility.yul\":6221:6267   */\n      tag_572\n        /* \"#utility.yul\":6263:6266   */\n      dup4\n        /* \"#utility.yul\":6255:6261   */\n      dup4\n        /* \"#utility.yul\":6221:6267   */\n      tag_476\n      jump\t// in\n    tag_572:\n        /* \"#utility.yul\":6299:6303   */\n      0x20\n        /* \"#utility.yul\":6294:6297   */\n      dup4\n        /* \"#utility.yul\":6290:6304   */\n      add\n        /* \"#utility.yul\":6276:6304   */\n      swap1\n      pop\n        /* \"#utility.yul\":6131:6310   */\n      swap3\n      swap2\n      pop\n      pop\n      jump\t// out\n        /* \"#utility.yul\":6316:6429   */\n    tag_478:\n        /* \"#utility.yul\":6386:6390   */\n      0x00\n        /* \"#utility.yul\":6418:6422   */\n      0x20\n        /* \"#utility.yul\":6413:6416   */\n      dup3\n        /* \"#utility.yul\":6409:6423   */\n      add\n        /* \"#utility.yul\":6401:6423   */\n      swap1\n      pop\n        /* \"#utility.yul\":6316:6429   */\n      swap2\n      swap1\n      pop\n      jump\t// out\n        /* \"#utility.yul\":6465:7197   */\n    tag_479:\n        /* \"#utility.yul\":6584:6587   */\n      0x00\n        /* \"#utility.yul\":6613:6667   */\n      tag_575\n        /* \"#utility.yul\":6661:6666   */\n      dup3\n        /* \"#utility.yul\":6613:6667   */\n      tag_473\n      jump\t// in\n    tag_575:\n        /* \"#utility.yul\":6683:6769   */\n      tag_576\n        /* \"#utility.yul\":6762:6768   */\n      dup2\n        /* \"#utility.yul\":6757:6760   */\n      dup6\n        /* \"#utility.yul\":6683:6769   */\n      tag_474\n      jump\t// in\n    tag_576:\n        /* \"#utility.yul\":6676:6769   */\n      swap4\n      pop\n        /* \"#utility.yul\":6793:6849   */\n      tag_577\n        /* \"#utility.yul\":6843:6848   */\n      dup4\n        /* \"#utility.yul\":6793:6849   */\n      tag_475\n      jump\t// in\n    tag_577:\n        /* \"#utility.yul\":6872:6879   */\n      dup1\n        /* \"#utility.yul\":6903:6904   */\n      0x00\n        /* \"#utility.yul\":6888:7172   */\n    tag_578:\n        /* \"#utility.yul\":6913:6919   */\n      dup4\n        /* \"#utility.yul\":6910:6911   */\n      dup2\n        /* \"#utility.yul\":6907:6920   */\n      lt\n        /* \"#utility.yul\":6888:7172   */\n      iszero\n      tag_580\n      jumpi\n        /* \"#utility.yul\":6989:6995   */\n      dup2\n        /* \"#utility.yul\":6983:6996   */\n      mload\n        /* \"#utility.yul\":7016:7079   */\n      tag_581\n        /* \"#utility.yul\":7075:7078   */\n      dup9\n        /* \"#utility.yul\":7060:7073   */\n      dup3\n        /* \"#utility.yul\":7016:7079   */\n      tag_477\n      jump\t// in\n    tag_581:\n        /* \"#utility.yul\":7009:7079   */\n      swap8\n      pop\n        /* \"#utility.yul\":7102:7162   */\n      tag_582\n        /* \"#utility.yul\":7155:7161   */\n      dup4\n        /* \"#utility.yul\":7102:7162   */\n      tag_478\n      jump\t// in\n    tag_582:\n        /* \"#utility.yul\":7092:7162   */\n      swap3\n      pop\n        /* \"#utility.yul\":6948:7172   */\n      pop\n        /* \"#utility.yul\":6935:6936   */\n      0x01\n        /* \"#utility.yul\":6932:6933   */\n      dup2\n        /* \"#utility.yul\":6928:6937   */\n      add\n        /* \"#utility.yul\":6923:6937   */\n      swap1\n      pop\n        /* \"#utility.yul\":6888:7172   */\n      jump(tag_578)\n    tag_580:\n        /* \"#utility.yul\":6892:6906   */\n      pop\n        /* \"#utility.yul\":7188:7191   */\n      dup6\n        /* \"#utility.yul\":7181:7191   */\n      swap4\n      pop\n        /* \"#utility.yul\":6589:7197   */\n      pop\n      pop\n      pop\n        /* \"#utility.yul\":6465:7197   */\n      swap3\n      swap2\n      pop\n      pop\n      jump\t// out\n        /* \"#utility.yul\":7203:7576   */\n    tag_71:\n        /* \"#utility.yul\":7346:7350   */\n      0x00\n        /* \"#utility.yul\":7384:7386   */\n      0x20\n        /* \"#utility.yul\":7373:7382   */\n      dup3\n        /* \"#utility.yul\":7369:7387   */\n      add\n        /* \"#utility.yul\":7361:7387   */\n      swap1\n      pop\n        /* \"#utility.yul\":7433:7442   */\n      dup2\n        /* \"#utility.yul\":7427:7431   */\n      dup2\n        /* \"#utility.yul\":7423:7443   */\n      sub\n        /* \"#utility.yul\":7419:7420   */\n      0x00\n        /* \"#utility.yul\":7408:7417   */\n      dup4\n        /* \"#utility.yul\":7404:7421   */\n      add\n        /* \"#utility.yul\":7397:7444   */\n      mstore\n        /* \"#utility.yul\":7461:7569   */\n      tag_584\n        /* \"#utility.yul\":7564:7568   */\n      dup2\n        /* \"#utility.yul\":7555:7561   */\n      dup5\n        /* \"#utility.yul\":7461:7569   */\n      tag_479\n      jump\t// in\n    tag_584:\n        /* \"#utility.yul\":7453:7569   */\n      swap1\n      pop\n        /* \"#utility.yul\":7203:7576   */\n      swap3\n      swap2\n      pop\n      pop\n      jump\t// out\n        /* \"#utility.yul\":7582:7700   */\n    tag_480:\n        /* \"#utility.yul\":7669:7693   */\n      tag_586\n        /* \"#utility.yul\":7687:7692   */\n      dup2\n        /* \"#utility.yul\":7669:7693   */\n      tag_454\n      jump\t// in\n    tag_586:\n        /* \"#utility.yul\":7664:7667   */\n      dup3\n        /* \"#utility.yul\":7657:7694   */\n      mstore\n        /* \"#utility.yul\":7582:7700   */\n      pop\n      pop\n      jump\t// out\n        /* \"#utility.yul\":7706:7928   */\n    tag_76:\n        /* \"#utility.yul\":7799:7803   */\n      0x00\n        /* \"#utility.yul\":7837:7839   */\n      0x20\n        /* \"#utility.yul\":7826:7835   */\n      dup3\n        /* \"#utility.yul\":7822:7840   */\n      add\n        /* \"#utility.yul\":7814:7840   */\n      swap1\n      pop\n        /* \"#utility.yul\":7850:7921   */\n      tag_588\n        /* \"#utility.yul\":7918:7919   */\n      0x00\n        /* \"#utility.yul\":7907:7916   */\n      dup4\n        /* \"#utility.yul\":7903:7920   */\n      add\n        /* \"#utility.yul\":7894:7900   */\n      dup5\n        /* \"#utility.yul\":7850:7921   */\n      tag_480\n      jump\t// in\n    tag_588:\n        /* \"#utility.yul\":7706:7928   */\n      swap3\n      swap2\n      pop\n      pop\n      jump\t// out\n        /* \"#utility.yul\":7934:8475   */\n    tag_112:\n        /* \"#utility.yul\":8105:8109   */\n      0x00\n        /* \"#utility.yul\":8143:8146   */\n      0x80\n        /* \"#utility.yul\":8132:8141   */\n      dup3\n        /* \"#utility.yul\":8128:8147   */\n      add\n        /* \"#utility.yul\":8120:8147   */\n      swap1\n      pop\n        /* \"#utility.yul\":8157:8222   */\n      tag_590\n        /* \"#utility.yul\":8219:8220   */\n      0x00\n        /* \"#utility.yul\":8208:8217   */\n      dup4\n        /* \"#utility.yul\":8204:8221   */\n      add\n        /* \"#utility.yul\":8195:8201   */\n      dup8\n        /* \"#utility.yul\":8157:8222   */\n      tag_463\n      jump\t// in\n    tag_590:\n        /* \"#utility.yul\":8232:8304   */\n      tag_591\n        /* \"#utility.yul\":8300:8302   */\n      0x20\n        /* \"#utility.yul\":8289:8298   */\n      dup4\n        /* \"#utility.yul\":8285:8303   */\n      add\n        /* \"#utility.yul\":8276:8282   */\n      dup7\n        /* \"#utility.yul\":8232:8304   */\n      tag_480\n      jump\t// in\n    tag_591:\n        /* \"#utility.yul\":8314:8386   */\n      tag_592\n        /* \"#utility.yul\":8382:8384   */\n      0x40\n        /* \"#utility.yul\":8371:8380   */\n      dup4\n        /* \"#utility.yul\":8367:8385   */\n      add\n        /* \"#utility.yul\":8358:8364   */\n      dup6\n        /* \"#utility.yul\":8314:8386   */\n      tag_480\n      jump\t// in\n    tag_592:\n        /* \"#utility.yul\":8396:8468   */\n      tag_593\n        /* \"#utility.yul\":8464:8466   */\n      0x60\n        /* \"#utility.yul\":8453:8462   */\n      dup4\n        /* \"#utility.yul\":8449:8467   */\n      add\n        /* \"#utility.yul\":8440:8446   */\n      dup5\n        /* \"#utility.yul\":8396:8468   */\n      tag_480\n      jump\t// in\n    tag_593:\n        /* \"#utility.yul\":7934:8475   */\n      swap6\n      swap5\n      pop\n      pop\n      pop\n      pop\n      pop\n      jump\t// out\n        /* \"#utility.yul\":8481:8955   */\n    tag_116:\n        /* \"#utility.yul\":8549:8555   */\n      0x00\n        /* \"#utility.yul\":8557:8563   */\n      dup1\n        /* \"#utility.yul\":8606:8608   */\n      0x40\n        /* \"#utility.yul\":8594:8603   */\n      dup4\n        /* \"#utility.yul\":8585:8592   */\n      dup6\n        /* \"#utility.yul\":8581:8604   */\n      sub\n        /* \"#utility.yul\":8577:8609   */\n      slt\n        /* \"#utility.yul\":8574:8693   */\n      iszero\n      tag_595\n      jumpi\n        /* \"#utility.yul\":8612:8691   */\n      tag_596\n      tag_452\n      jump\t// in\n    tag_596:\n        /* \"#utility.yul\":8574:8693   */\n    tag_595:\n        /* \"#utility.yul\":8732:8733   */\n      0x00\n        /* \"#utility.yul\":8757:8810   */\n      tag_597\n        /* \"#utility.yul\":8802:8809   */\n      dup6\n        /* \"#utility.yul\":8793:8799   */\n      dup3\n        /* \"#utility.yul\":8782:8791   */\n      dup7\n        /* \"#utility.yul\":8778:8800   */\n      add\n        /* \"#utility.yul\":8757:8810   */\n      tag_461\n      jump\t// in\n    tag_597:\n        /* \"#utility.yul\":8747:8810   */\n      swap3\n      pop\n        /* \"#utility.yul\":8703:8820   */\n      pop\n        /* \"#utility.yul\":8859:8861   */\n      0x20\n        /* \"#utility.yul\":8885:8938   */\n      tag_598\n        /* \"#utility.yul\":8930:8937   */\n      dup6\n        /* \"#utility.yul\":8921:8927   */\n      dup3\n        /* \"#utility.yul\":8910:8919   */\n      dup7\n        /* \"#utility.yul\":8906:8928   */\n      add\n        /* \"#utility.yul\":8885:8938   */\n      tag_456\n      jump\t// in\n    tag_598:\n        /* \"#utility.yul\":8875:8938   */\n      swap2\n      pop\n        /* \"#utility.yul\":8830:8948   */\n      pop\n        /* \"#utility.yul\":8481:8955   */\n      swap3\n      pop\n      swap3\n      swap1\n      pop\n      jump\t// out\n        /* \"#utility.yul\":8961:9130   */\n    tag_481:\n        /* \"#utility.yul\":9045:9056   */\n      0x00\n        /* \"#utility.yul\":9079:9085   */\n      dup3\n        /* \"#utility.yul\":9074:9077   */\n      dup3\n        /* \"#utility.yul\":9067:9086   */\n      mstore\n        /* \"#utility.yul\":9119:9123   */\n      0x20\n        /* \"#utility.yul\":9114:9117   */\n      dup3\n        /* \"#utility.yul\":9110:9124   */\n      add\n        /* \"#utility.yul\":9095:9124   */\n      swap1\n      pop\n        /* \"#utility.yul\":8961:9130   */\n      swap3\n      swap2\n      pop\n      pop\n      jump\t// out\n        /* \"#utility.yul\":9136:9300   */\n    tag_482:\n        /* \"#utility.yul\":9276:9292   */\n      0x496e76616c69642063616c6c6572000000000000000000000000000000000000\n        /* \"#utility.yul\":9272:9273   */\n      0x00\n        /* \"#utility.yul\":9264:9270   */\n      dup3\n        /* \"#utility.yul\":9260:9274   */\n      add\n        /* \"#utility.yul\":9253:9293   */\n      mstore\n        /* \"#utility.yul\":9136:9300   */\n      pop\n      jump\t// out\n        /* \"#utility.yul\":9306:9672   */\n    tag_483:\n        /* \"#utility.yul\":9448:9451   */\n      0x00\n        /* \"#utility.yul\":9469:9536   */\n      tag_602\n        /* \"#utility.yul\":9533:9535   */\n      0x0e\n        /* \"#utility.yul\":9528:9531   */\n      dup4\n        /* \"#utility.yul\":9469:9536   */\n      tag_481\n      jump\t// in\n    tag_602:\n        /* \"#utility.yul\":9462:9536   */\n      swap2\n      pop\n        /* \"#utility.yul\":9545:9638   */\n      tag_603\n        /* \"#utility.yul\":9634:9637   */\n      dup3\n        /* \"#utility.yul\":9545:9638   */\n      tag_482\n      jump\t// in\n    tag_603:\n        /* \"#utility.yul\":9663:9665   */\n      0x20\n        /* \"#utility.yul\":9658:9661   */\n      dup3\n        /* \"#utility.yul\":9654:9666   */\n      add\n        /* \"#utility.yul\":9647:9666   */\n      swap1\n      pop\n        /* \"#utility.yul\":9306:9672   */\n      swap2\n      swap1\n      pop\n      jump\t// out\n        /* \"#utility.yul\":9678:10097   */\n    tag_140:\n        /* \"#utility.yul\":9844:9848   */\n      0x00\n        /* \"#utility.yul\":9882:9884   */\n      0x20\n        /* \"#utility.yul\":9871:9880   */\n      dup3\n        /* \"#utility.yul\":9867:9885   */\n      add\n        /* \"#utility.yul\":9859:9885   */\n      swap1\n      pop\n        /* \"#utility.yul\":9931:9940   */\n      dup2\n        /* \"#utility.yul\":9925:9929   */\n      dup2\n        /* \"#utility.yul\":9921:9941   */\n      sub\n        /* \"#utility.yul\":9917:9918   */\n      0x00\n        /* \"#utility.yul\":9906:9915   */\n      dup4\n        /* \"#utility.yul\":9902:9919   */\n      add\n        /* \"#utility.yul\":9895:9942   */\n      mstore\n        /* \"#utility.yul\":9959:10090   */\n      tag_605\n        /* \"#utility.yul\":10085:10089   */\n      dup2\n        /* \"#utility.yul\":9959:10090   */\n      tag_483\n      jump\t// in\n    tag_605:\n        /* \"#utility.yul\":9951:10090   */\n      swap1\n      pop\n        /* \"#utility.yul\":9678:10097   */\n      swap2\n      swap1\n      pop\n      jump\t// out\n        /* \"#utility.yul\":10103:10250   */\n    tag_484:\n        /* \"#utility.yul\":10204:10215   */\n      0x00\n        /* \"#utility.yul\":10241:10244   */\n      dup2\n        /* \"#utility.yul\":10226:10244   */\n      swap1\n      pop\n        /* \"#utility.yul\":10103:10250   */\n      swap3\n      swap2\n      pop\n      pop\n      jump\t// out\n        /* \"#utility.yul\":10256:10370   */\n    tag_485:\n      pop\n      jump\t// out\n        /* \"#utility.yul\":10376:10774   */\n    tag_486:\n        /* \"#utility.yul\":10535:10538   */\n      0x00\n        /* \"#utility.yul\":10556:10639   */\n      tag_609\n        /* \"#utility.yul\":10637:10638   */\n      0x00\n        /* \"#utility.yul\":10632:10635   */\n      dup4\n        /* \"#utility.yul\":10556:10639   */\n      tag_484\n      jump\t// in\n    tag_609:\n        /* \"#utility.yul\":10549:10639   */\n      swap2\n      pop\n        /* \"#utility.yul\":10648:10741   */\n      tag_610\n        /* \"#utility.yul\":10737:10740   */\n      dup3\n        /* \"#utility.yul\":10648:10741   */\n      tag_485\n      jump\t// in\n    tag_610:\n        /* \"#utility.yul\":10766:10767   */\n      0x00\n        /* \"#utility.yul\":10761:10764   */\n      dup3\n        /* \"#utility.yul\":10757:10768   */\n      add\n        /* \"#utility.yul\":10750:10768   */\n      swap1\n      pop\n        /* \"#utility.yul\":10376:10774   */\n      swap2\n      swap1\n      pop\n      jump\t// out\n        /* \"#utility.yul\":10780:11159   */\n    tag_142:\n        /* \"#utility.yul\":10964:10967   */\n      0x00\n        /* \"#utility.yul\":10986:11133   */\n      tag_612\n        /* \"#utility.yul\":11129:11132   */\n      dup3\n        /* \"#utility.yul\":10986:11133   */\n      tag_486\n      jump\t// in\n    tag_612:\n        /* \"#utility.yul\":10979:11133   */\n      swap2\n      pop\n        /* \"#utility.yul\":11150:11153   */\n      dup2\n        /* \"#utility.yul\":11143:11153   */\n      swap1\n      pop\n        /* \"#utility.yul\":10780:11159   */\n      swap2\n      swap1\n      pop\n      jump\t// out\n        /* \"#utility.yul\":11165:11334   */\n    tag_487:\n        /* \"#utility.yul\":11305:11326   */\n      0x5472616e73616374696f6e206661696c65642100000000000000000000000000\n        /* \"#utility.yul\":11301:11302   */\n      0x00\n        /* \"#utility.yul\":11293:11299   */\n      dup3\n        /* \"#utility.yul\":11289:11303   */\n      add\n        /* \"#utility.yul\":11282:11327   */\n      mstore\n        /* \"#utility.yul\":11165:11334   */\n      pop\n      jump\t// out\n        /* \"#utility.yul\":11340:11706   */\n    tag_488:\n        /* \"#utility.yul\":11482:11485   */\n      0x00\n        /* \"#utility.yul\":11503:11570   */\n      tag_615\n        /* \"#utility.yul\":11567:11569   */\n      0x13\n        /* \"#utility.yul\":11562:11565   */\n      dup4\n        /* \"#utility.yul\":11503:11570   */\n      tag_481\n      jump\t// in\n    tag_615:\n        /* \"#utility.yul\":11496:11570   */\n      swap2\n      pop\n        /* \"#utility.yul\":11579:11672   */\n      tag_616\n        /* \"#utility.yul\":11668:11671   */\n      dup3\n        /* \"#utility.yul\":11579:11672   */\n      tag_487\n      jump\t// in\n    tag_616:\n        /* \"#utility.yul\":11697:11699   */\n      0x20\n        /* \"#utility.yul\":11692:11695   */\n      dup3\n        /* \"#utility.yul\":11688:11700   */\n      add\n        /* \"#utility.yul\":11681:11700   */\n      swap1\n      pop\n        /* \"#utility.yul\":11340:11706   */\n      swap2\n      swap1\n      pop\n      jump\t// out\n        /* \"#utility.yul\":11712:12131   */\n    tag_148:\n        /* \"#utility.yul\":11878:11882   */\n      0x00\n        /* \"#utility.yul\":11916:11918   */\n      0x20\n        /* \"#utility.yul\":11905:11914   */\n      dup3\n        /* \"#utility.yul\":11901:11919   */\n      add\n        /* \"#utility.yul\":11893:11919   */\n      swap1\n      pop\n        /* \"#utility.yul\":11965:11974   */\n      dup2\n        /* \"#utility.yul\":11959:11963   */\n      dup2\n        /* \"#utility.yul\":11955:11975   */\n      sub\n        /* \"#utility.yul\":11951:11952   */\n      0x00\n        /* \"#utility.yul\":11940:11949   */\n      dup4\n        /* \"#utility.yul\":11936:11953   */\n      add\n        /* \"#utility.yul\":11929:11976   */\n      mstore\n        /* \"#utility.yul\":11993:12124   */\n      tag_618\n        /* \"#utility.yul\":12119:12123   */\n      dup2\n        /* \"#utility.yul\":11993:12124   */\n      tag_488\n      jump\t// in\n    tag_618:\n        /* \"#utility.yul\":11985:12124   */\n      swap1\n      pop\n        /* \"#utility.yul\":11712:12131   */\n      swap2\n      swap1\n      pop\n      jump\t// out\n        /* \"#utility.yul\":12137:12317   */\n    tag_489:\n        /* \"#utility.yul\":12185:12262   */\n      0x4e487b7100000000000000000000000000000000000000000000000000000000\n        /* \"#utility.yul\":12182:12183   */\n      0x00\n        /* \"#utility.yul\":12175:12263   */\n      mstore\n        /* \"#utility.yul\":12282:12286   */\n      0x12\n        /* \"#utility.yul\":12279:12280   */\n      0x04\n        /* \"#utility.yul\":12272:12287   */\n      mstore\n        /* \"#utility.yul\":12306:12310   */\n      0x24\n        /* \"#utility.yul\":12303:12304   */\n      0x00\n        /* \"#utility.yul\":12296:12311   */\n      revert\n        /* \"#utility.yul\":12323:12503   */\n    tag_490:\n        /* \"#utility.yul\":12371:12448   */\n      0x4e487b7100000000000000000000000000000000000000000000000000000000\n        /* \"#utility.yul\":12368:12369   */\n      0x00\n        /* \"#utility.yul\":12361:12449   */\n      mstore\n        /* \"#utility.yul\":12468:12472   */\n      0x11\n        /* \"#utility.yul\":12465:12466   */\n      0x04\n        /* \"#utility.yul\":12458:12473   */\n      mstore\n        /* \"#utility.yul\":12492:12496   */\n      0x24\n        /* \"#utility.yul\":12489:12490   */\n      0x00\n        /* \"#utility.yul\":12482:12497   */\n      revert\n        /* \"#utility.yul\":12509:12694   */\n    tag_156:\n        /* \"#utility.yul\":12549:12550   */\n      0x00\n        /* \"#utility.yul\":12566:12586   */\n      tag_622\n        /* \"#utility.yul\":12584:12585   */\n      dup3\n        /* \"#utility.yul\":12566:12586   */\n      tag_454\n      jump\t// in\n    tag_622:\n        /* \"#utility.yul\":12561:12586   */\n      swap2\n      pop\n        /* \"#utility.yul\":12600:12620   */\n      tag_623\n        /* \"#utility.yul\":12618:12619   */\n      dup4\n        /* \"#utility.yul\":12600:12620   */\n      tag_454\n      jump\t// in\n    tag_623:\n        /* \"#utility.yul\":12595:12620   */\n      swap3\n      pop\n        /* \"#utility.yul\":12639:12640   */\n      dup3\n        /* \"#utility.yul\":12629:12664   */\n      tag_624\n      jumpi\n        /* \"#utility.yul\":12644:12662   */\n      tag_625\n      tag_489\n      jump\t// in\n    tag_625:\n        /* \"#utility.yul\":12629:12664   */\n    tag_624:\n        /* \"#utility.yul\":12686:12687   */\n      dup3\n        /* \"#utility.yul\":12683:12684   */\n      dup3\n        /* \"#utility.yul\":12679:12688   */\n      div\n        /* \"#utility.yul\":12674:12688   */\n      swap1\n      pop\n        /* \"#utility.yul\":12509:12694   */\n      swap3\n      swap2\n      pop\n      pop\n      jump\t// out\n        /* \"#utility.yul\":12700:12860   */\n    tag_491:\n        /* \"#utility.yul\":12840:12852   */\n      0x5573657220657869737400000000000000000000000000000000000000000000\n        /* \"#utility.yul\":12836:12837   */\n      0x00\n        /* \"#utility.yul\":12828:12834   */\n      dup3\n        /* \"#utility.yul\":12824:12838   */\n      add\n        /* \"#utility.yul\":12817:12853   */\n      mstore\n        /* \"#utility.yul\":12700:12860   */\n      pop\n      jump\t// out\n        /* \"#utility.yul\":12866:13232   */\n    tag_492:\n        /* \"#utility.yul\":13008:13011   */\n      0x00\n        /* \"#utility.yul\":13029:13096   */\n      tag_628\n        /* \"#utility.yul\":13093:13095   */\n      0x0a\n        /* \"#utility.yul\":13088:13091   */\n      dup4\n        /* \"#utility.yul\":13029:13096   */\n      tag_481\n      jump\t// in\n    tag_628:\n        /* \"#utility.yul\":13022:13096   */\n      swap2\n      pop\n        /* \"#utility.yul\":13105:13198   */\n      tag_629\n        /* \"#utility.yul\":13194:13197   */\n      dup3\n        /* \"#utility.yul\":13105:13198   */\n      tag_491\n      jump\t// in\n    tag_629:\n        /* \"#utility.yul\":13223:13225   */\n      0x20\n        /* \"#utility.yul\":13218:13221   */\n      dup3\n        /* \"#utility.yul\":13214:13226   */\n      add\n        /* \"#utility.yul\":13207:13226   */\n      swap1\n      pop\n        /* \"#utility.yul\":12866:13232   */\n      swap2\n      swap1\n      pop\n      jump\t// out\n        /* \"#utility.yul\":13238:13657   */\n    tag_160:\n        /* \"#utility.yul\":13404:13408   */\n      0x00\n        /* \"#utility.yul\":13442:13444   */\n      0x20\n        /* \"#utility.yul\":13431:13440   */\n      dup3\n        /* \"#utility.yul\":13427:13445   */\n      add\n        /* \"#utility.yul\":13419:13445   */\n      swap1\n      pop\n        /* \"#utility.yul\":13491:13500   */\n      dup2\n        /* \"#utility.yul\":13485:13489   */\n      dup2\n        /* \"#utility.yul\":13481:13501   */\n      sub\n        /* \"#utility.yul\":13477:13478   */\n      0x00\n        /* \"#utility.yul\":13466:13475   */\n      dup4\n        /* \"#utility.yul\":13462:13479   */\n      add\n        /* \"#utility.yul\":13455:13502   */\n      mstore\n        /* \"#utility.yul\":13519:13650   */\n      tag_631\n        /* \"#utility.yul\":13645:13649   */\n      dup2\n        /* \"#utility.yul\":13519:13650   */\n      tag_492\n      jump\t// in\n    tag_631:\n        /* \"#utility.yul\":13511:13650   */\n      swap1\n      pop\n        /* \"#utility.yul\":13238:13657   */\n      swap2\n      swap1\n      pop\n      jump\t// out\n        /* \"#utility.yul\":13663:13834   */\n    tag_493:\n        /* \"#utility.yul\":13803:13826   */\n      0x496e636f72726563742072656665727265722049640000000000000000000000\n        /* \"#utility.yul\":13799:13800   */\n      0x00\n        /* \"#utility.yul\":13791:13797   */\n      dup3\n        /* \"#utility.yul\":13787:13801   */\n      add\n        /* \"#utility.yul\":13780:13827   */\n      mstore\n        /* \"#utility.yul\":13663:13834   */\n      pop\n      jump\t// out\n        /* \"#utility.yul\":13840:14206   */\n    tag_494:\n        /* \"#utility.yul\":13982:13985   */\n      0x00\n        /* \"#utility.yul\":14003:14070   */\n      tag_634\n        /* \"#utility.yul\":14067:14069   */\n      0x15\n        /* \"#utility.yul\":14062:14065   */\n      dup4\n        /* \"#utility.yul\":14003:14070   */\n      tag_481\n      jump\t// in\n    tag_634:\n        /* \"#utility.yul\":13996:14070   */\n      swap2\n      pop\n        /* \"#utility.yul\":14079:14172   */\n      tag_635\n        /* \"#utility.yul\":14168:14171   */\n      dup3\n        /* \"#utility.yul\":14079:14172   */\n      tag_493\n      jump\t// in\n    tag_635:\n        /* \"#utility.yul\":14197:14199   */\n      0x20\n        /* \"#utility.yul\":14192:14195   */\n      dup3\n        /* \"#utility.yul\":14188:14200   */\n      add\n        /* \"#utility.yul\":14181:14200   */\n      swap1\n      pop\n        /* \"#utility.yul\":13840:14206   */\n      swap2\n      swap1\n      pop\n      jump\t// out\n        /* \"#utility.yul\":14212:14631   */\n    tag_164:\n        /* \"#utility.yul\":14378:14382   */\n      0x00\n        /* \"#utility.yul\":14416:14418   */\n      0x20\n        /* \"#utility.yul\":14405:14414   */\n      dup3\n        /* \"#utility.yul\":14401:14419   */\n      add\n        /* \"#utility.yul\":14393:14419   */\n      swap1\n      pop\n        /* \"#utility.yul\":14465:14474   */\n      dup2\n        /* \"#utility.yul\":14459:14463   */\n      dup2\n        /* \"#utility.yul\":14455:14475   */\n      sub\n        /* \"#utility.yul\":14451:14452   */\n      0x00\n        /* \"#utility.yul\":14440:14449   */\n      dup4\n        /* \"#utility.yul\":14436:14453   */\n      add\n        /* \"#utility.yul\":14429:14476   */\n      mstore\n        /* \"#utility.yul\":14493:14624   */\n      tag_637\n        /* \"#utility.yul\":14619:14623   */\n      dup2\n        /* \"#utility.yul\":14493:14624   */\n      tag_494\n      jump\t// in\n    tag_637:\n        /* \"#utility.yul\":14485:14624   */\n      swap1\n      pop\n        /* \"#utility.yul\":14212:14631   */\n      swap2\n      swap1\n      pop\n      jump\t// out\n        /* \"#utility.yul\":14637:14802   */\n    tag_495:\n        /* \"#utility.yul\":14777:14794   */\n      0x496e636f72726563742056616c75650000000000000000000000000000000000\n        /* \"#utility.yul\":14773:14774   */\n      0x00\n        /* \"#utility.yul\":14765:14771   */\n      dup3\n        /* \"#utility.yul\":14761:14775   */\n      add\n        /* \"#utility.yul\":14754:14795   */\n      mstore\n        /* \"#utility.yul\":14637:14802   */\n      pop\n      jump\t// out\n        /* \"#utility.yul\":14808:15174   */\n    tag_496:\n        /* \"#utility.yul\":14950:14953   */\n      0x00\n        /* \"#utility.yul\":14971:15038   */\n      tag_640\n        /* \"#utility.yul\":15035:15037   */\n      0x0f\n        /* \"#utility.yul\":15030:15033   */\n      dup4\n        /* \"#utility.yul\":14971:15038   */\n      tag_481\n      jump\t// in\n    tag_640:\n        /* \"#utility.yul\":14964:15038   */\n      swap2\n      pop\n        /* \"#utility.yul\":15047:15140   */\n      tag_641\n        /* \"#utility.yul\":15136:15139   */\n      dup3\n        /* \"#utility.yul\":15047:15140   */\n      tag_495\n      jump\t// in\n    tag_641:\n        /* \"#utility.yul\":15165:15167   */\n      0x20\n        /* \"#utility.yul\":15160:15163   */\n      dup3\n        /* \"#utility.yul\":15156:15168   */\n      add\n        /* \"#utility.yul\":15149:15168   */\n      swap1\n      pop\n        /* \"#utility.yul\":14808:15174   */\n      swap2\n      swap1\n      pop\n      jump\t// out\n        /* \"#utility.yul\":15180:15599   */\n    tag_167:\n        /* \"#utility.yul\":15346:15350   */\n      0x00\n        /* \"#utility.yul\":15384:15386   */\n      0x20\n        /* \"#utility.yul\":15373:15382   */\n      dup3\n        /* \"#utility.yul\":15369:15387   */\n      add\n        /* \"#utility.yul\":15361:15387   */\n      swap1\n      pop\n        /* \"#utility.yul\":15433:15442   */\n      dup2\n        /* \"#utility.yul\":15427:15431   */\n      dup2\n        /* \"#utility.yul\":15423:15443   */\n      sub\n        /* \"#utility.yul\":15419:15420   */\n      0x00\n        /* \"#utility.yul\":15408:15417   */\n      dup4\n        /* \"#utility.yul\":15404:15421   */\n      add\n        /* \"#utility.yul\":15397:15444   */\n      mstore\n        /* \"#utility.yul\":15461:15592   */\n      tag_643\n        /* \"#utility.yul\":15587:15591   */\n      dup2\n        /* \"#utility.yul\":15461:15592   */\n      tag_496\n      jump\t// in\n    tag_643:\n        /* \"#utility.yul\":15453:15592   */\n      swap1\n      pop\n        /* \"#utility.yul\":15180:15599   */\n      swap2\n      swap1\n      pop\n      jump\t// out\n        /* \"#utility.yul\":15605:15785   */\n    tag_170:\n        /* \"#utility.yul\":15653:15730   */\n      0x4e487b7100000000000000000000000000000000000000000000000000000000\n        /* \"#utility.yul\":15650:15651   */\n      0x00\n        /* \"#utility.yul\":15643:15731   */\n      mstore\n        /* \"#utility.yul\":15750:15754   */\n      0x41\n        /* \"#utility.yul\":15747:15748   */\n      0x04\n        /* \"#utility.yul\":15740:15755   */\n      mstore\n        /* \"#utility.yul\":15774:15778   */\n      0x24\n        /* \"#utility.yul\":15771:15772   */\n      0x00\n        /* \"#utility.yul\":15764:15779   */\n      revert\n        /* \"#utility.yul\":15791:16024   */\n    tag_180:\n        /* \"#utility.yul\":15830:15833   */\n      0x00\n        /* \"#utility.yul\":15853:15877   */\n      tag_646\n        /* \"#utility.yul\":15871:15876   */\n      dup3\n        /* \"#utility.yul\":15853:15877   */\n      tag_454\n      jump\t// in\n    tag_646:\n        /* \"#utility.yul\":15844:15877   */\n      swap2\n      pop\n        /* \"#utility.yul\":15899:15965   */\n      0xffffffffffffffffffffffffffffffffffffffffffffffffffffffffffffffff\n        /* \"#utility.yul\":15892:15897   */\n      dup3\n        /* \"#utility.yul\":15889:15966   */\n      eq\n        /* \"#utility.yul\":15886:15989   */\n      iszero\n      tag_647\n      jumpi\n        /* \"#utility.yul\":15969:15987   */\n      tag_648\n      tag_490\n      jump\t// in\n    tag_648:\n        /* \"#utility.yul\":15886:15989   */\n    tag_647:\n        /* \"#utility.yul\":16016:16017   */\n      0x01\n        /* \"#utility.yul\":16009:16014   */\n      dup3\n        /* \"#utility.yul\":16005:16018   */\n      add\n        /* \"#utility.yul\":15998:16018   */\n      swap1\n      pop\n        /* \"#utility.yul\":15791:16024   */\n      swap2\n      swap1\n      pop\n      jump\t// out\n        /* \"#utility.yul\":16030:16335   */\n    tag_183:\n        /* \"#utility.yul\":16070:16073   */\n      0x00\n        /* \"#utility.yul\":16089:16109   */\n      tag_650\n        /* \"#utility.yul\":16107:16108   */\n      dup3\n        /* \"#utility.yul\":16089:16109   */\n      tag_454\n      jump\t// in\n    tag_650:\n        /* \"#utility.yul\":16084:16109   */\n      swap2\n      pop\n        /* \"#utility.yul\":16123:16143   */\n      tag_651\n        /* \"#utility.yul\":16141:16142   */\n      dup4\n        /* \"#utility.yul\":16123:16143   */\n      tag_454\n      jump\t// in\n    tag_651:\n        /* \"#utility.yul\":16118:16143   */\n      swap3\n      pop\n        /* \"#utility.yul\":16277:16278   */\n      dup3\n        /* \"#utility.yul\":16209:16275   */\n      0xffffffffffffffffffffffffffffffffffffffffffffffffffffffffffffffff\n        /* \"#utility.yul\":16205:16279   */\n      sub\n        /* \"#utility.yul\":16202:16203   */\n      dup3\n        /* \"#utility.yul\":16199:16280   */\n      gt\n        /* \"#utility.yul\":16196:16303   */\n      iszero\n      tag_652\n      jumpi\n        /* \"#utility.yul\":16283:16301   */\n      tag_653\n      tag_490\n      jump\t// in\n    tag_653:\n        /* \"#utility.yul\":16196:16303   */\n    tag_652:\n        /* \"#utility.yul\":16327:16328   */\n      dup3\n        /* \"#utility.yul\":16324:16325   */\n      dup3\n        /* \"#utility.yul\":16320:16329   */\n      add\n        /* \"#utility.yul\":16313:16329   */\n      swap1\n      pop\n        /* \"#utility.yul\":16030:16335   */\n      swap3\n      swap2\n      pop\n      pop\n      jump\t// out\n        /* \"#utility.yul\":16341:16521   */\n    tag_206:\n        /* \"#utility.yul\":16389:16466   */\n      0x4e487b7100000000000000000000000000000000000000000000000000000000\n        /* \"#utility.yul\":16386:16387   */\n      0x00\n        /* \"#utility.yul\":16379:16467   */\n      mstore\n        /* \"#utility.yul\":16486:16490   */\n      0x32\n        /* \"#utility.yul\":16483:16484   */\n      0x04\n        /* \"#utility.yul\":16476:16491   */\n      mstore\n        /* \"#utility.yul\":16510:16514   */\n      0x24\n        /* \"#utility.yul\":16507:16508   */\n      0x00\n        /* \"#utility.yul\":16500:16515   */\n      revert\n        /* \"#utility.yul\":16527:16875   */\n    tag_216:\n        /* \"#utility.yul\":16567:16574   */\n      0x00\n        /* \"#utility.yul\":16590:16610   */\n      tag_656\n        /* \"#utility.yul\":16608:16609   */\n      dup3\n        /* \"#utility.yul\":16590:16610   */\n      tag_454\n      jump\t// in\n    tag_656:\n        /* \"#utility.yul\":16585:16610   */\n      swap2\n      pop\n        /* \"#utility.yul\":16624:16644   */\n      tag_657\n        /* \"#utility.yul\":16642:16643   */\n      dup4\n        /* \"#utility.yul\":16624:16644   */\n      tag_454\n      jump\t// in\n    tag_657:\n        /* \"#utility.yul\":16619:16644   */\n      swap3\n      pop\n        /* \"#utility.yul\":16812:16813   */\n      dup2\n        /* \"#utility.yul\":16744:16810   */\n      0xffffffffffffffffffffffffffffffffffffffffffffffffffffffffffffffff\n        /* \"#utility.yul\":16740:16814   */\n      div\n        /* \"#utility.yul\":16737:16738   */\n      dup4\n        /* \"#utility.yul\":16734:16815   */\n      gt\n        /* \"#utility.yul\":16729:16730   */\n      dup3\n        /* \"#utility.yul\":16722:16731   */\n      iszero\n        /* \"#utility.yul\":16715:16732   */\n      iszero\n        /* \"#utility.yul\":16711:16816   */\n      and\n        /* \"#utility.yul\":16708:16839   */\n      iszero\n      tag_658\n      jumpi\n        /* \"#utility.yul\":16819:16837   */\n      tag_659\n      tag_490\n      jump\t// in\n    tag_659:\n        /* \"#utility.yul\":16708:16839   */\n    tag_658:\n        /* \"#utility.yul\":16867:16868   */\n      dup3\n        /* \"#utility.yul\":16864:16865   */\n      dup3\n        /* \"#utility.yul\":16860:16869   */\n      mul\n        /* \"#utility.yul\":16849:16869   */\n      swap1\n      pop\n        /* \"#utility.yul\":16527:16875   */\n      swap3\n      swap2\n      pop\n      pop\n      jump\t// out\n        /* \"#utility.yul\":16881:17051   */\n    tag_497:\n        /* \"#utility.yul\":17021:17043   */\n      0x43616c6c6572206973206e6f742041646d696e2e000000000000000000000000\n        /* \"#utility.yul\":17017:17018   */\n      0x00\n        /* \"#utility.yul\":17009:17015   */\n      dup3\n        /* \"#utility.yul\":17005:17019   */\n      add\n        /* \"#utility.yul\":16998:17044   */\n      mstore\n        /* \"#utility.yul\":16881:17051   */\n      pop\n      jump\t// out\n        /* \"#utility.yul\":17057:17423   */\n    tag_498:\n        /* \"#utility.yul\":17199:17202   */\n      0x00\n        /* \"#utility.yul\":17220:17287   */\n      tag_662\n        /* \"#utility.yul\":17284:17286   */\n      0x14\n        /* \"#utility.yul\":17279:17282   */\n      dup4\n        /* \"#utility.yul\":17220:17287   */\n      tag_481\n      jump\t// in\n    tag_662:\n        /* \"#utility.yul\":17213:17287   */\n      swap2\n      pop\n        /* \"#utility.yul\":17296:17389   */\n      tag_663\n        /* \"#utility.yul\":17385:17388   */\n      dup3\n        /* \"#utility.yul\":17296:17389   */\n      tag_497\n      jump\t// in\n    tag_663:\n        /* \"#utility.yul\":17414:17416   */\n      0x20\n        /* \"#utility.yul\":17409:17412   */\n      dup3\n        /* \"#utility.yul\":17405:17417   */\n      add\n        /* \"#utility.yul\":17398:17417   */\n      swap1\n      pop\n        /* \"#utility.yul\":17057:17423   */\n      swap2\n      swap1\n      pop\n      jump\t// out\n        /* \"#utility.yul\":17429:17848   */\n    tag_237:\n        /* \"#utility.yul\":17595:17599   */\n      0x00\n        /* \"#utility.yul\":17633:17635   */\n      0x20\n        /* \"#utility.yul\":17622:17631   */\n      dup3\n        /* \"#utility.yul\":17618:17636   */\n      add\n        /* \"#utility.yul\":17610:17636   */\n      swap1\n      pop\n        /* \"#utility.yul\":17682:17691   */\n      dup2\n        /* \"#utility.yul\":17676:17680   */\n      dup2\n        /* \"#utility.yul\":17672:17692   */\n      sub\n        /* \"#utility.yul\":17668:17669   */\n      0x00\n        /* \"#utility.yul\":17657:17666   */\n      dup4\n        /* \"#utility.yul\":17653:17670   */\n      add\n        /* \"#utility.yul\":17646:17693   */\n      mstore\n        /* \"#utility.yul\":17710:17841   */\n      tag_665\n        /* \"#utility.yul\":17836:17840   */\n      dup2\n        /* \"#utility.yul\":17710:17841   */\n      tag_498\n      jump\t// in\n    tag_665:\n        /* \"#utility.yul\":17702:17841   */\n      swap1\n      pop\n        /* \"#utility.yul\":17429:17848   */\n      swap2\n      swap1\n      pop\n      jump\t// out\n        /* \"#utility.yul\":17854:18017   */\n    tag_499:\n        /* \"#utility.yul\":17994:18009   */\n      0x496e76616c696420496e64657800000000000000000000000000000000000000\n        /* \"#utility.yul\":17990:17991   */\n      0x00\n        /* \"#utility.yul\":17982:17988   */\n      dup3\n        /* \"#utility.yul\":17978:17992   */\n      add\n        /* \"#utility.yul\":17971:18010   */\n      mstore\n        /* \"#utility.yul\":17854:18017   */\n      pop\n      jump\t// out\n        /* \"#utility.yul\":18023:18389   */\n    tag_500:\n        /* \"#utility.yul\":18165:18168   */\n      0x00\n        /* \"#utility.yul\":18186:18253   */\n      tag_668\n        /* \"#utility.yul\":18250:18252   */\n      0x0d\n        /* \"#utility.yul\":18245:18248   */\n      dup4\n        /* \"#utility.yul\":18186:18253   */\n      tag_481\n      jump\t// in\n    tag_668:\n        /* \"#utility.yul\":18179:18253   */\n      swap2\n      pop\n        /* \"#utility.yul\":18262:18355   */\n      tag_669\n        /* \"#utility.yul\":18351:18354   */\n      dup3\n        /* \"#utility.yul\":18262:18355   */\n      tag_499\n      jump\t// in\n    tag_669:\n        /* \"#utility.yul\":18380:18382   */\n      0x20\n        /* \"#utility.yul\":18375:18378   */\n      dup3\n        /* \"#utility.yul\":18371:18383   */\n      add\n        /* \"#utility.yul\":18364:18383   */\n      swap1\n      pop\n        /* \"#utility.yul\":18023:18389   */\n      swap2\n      swap1\n      pop\n      jump\t// out\n        /* \"#utility.yul\":18395:18814   */\n    tag_243:\n        /* \"#utility.yul\":18561:18565   */\n      0x00\n        /* \"#utility.yul\":18599:18601   */\n      0x20\n        /* \"#utility.yul\":18588:18597   */\n      dup3\n        /* \"#utility.yul\":18584:18602   */\n      add\n        /* \"#utility.yul\":18576:18602   */\n      swap1\n      pop\n        /* \"#utility.yul\":18648:18657   */\n      dup2\n        /* \"#utility.yul\":18642:18646   */\n      dup2\n        /* \"#utility.yul\":18638:18658   */\n      sub\n        /* \"#utility.yul\":18634:18635   */\n      0x00\n        /* \"#utility.yul\":18623:18632   */\n      dup4\n        /* \"#utility.yul\":18619:18636   */\n      add\n        /* \"#utility.yul\":18612:18659   */\n      mstore\n        /* \"#utility.yul\":18676:18807   */\n      tag_671\n        /* \"#utility.yul\":18802:18806   */\n      dup2\n        /* \"#utility.yul\":18676:18807   */\n      tag_500\n      jump\t// in\n    tag_671:\n        /* \"#utility.yul\":18668:18807   */\n      swap1\n      pop\n        /* \"#utility.yul\":18395:18814   */\n      swap2\n      swap1\n      pop\n      jump\t// out\n        /* \"#utility.yul\":18820:19011   */\n    tag_246:\n        /* \"#utility.yul\":18860:18864   */\n      0x00\n        /* \"#utility.yul\":18880:18900   */\n      tag_673\n        /* \"#utility.yul\":18898:18899   */\n      dup3\n        /* \"#utility.yul\":18880:18900   */\n      tag_454\n      jump\t// in\n    tag_673:\n        /* \"#utility.yul\":18875:18900   */\n      swap2\n      pop\n        /* \"#utility.yul\":18914:18934   */\n      tag_674\n        /* \"#utility.yul\":18932:18933   */\n      dup4\n        /* \"#utility.yul\":18914:18934   */\n      tag_454\n      jump\t// in\n    tag_674:\n        /* \"#utility.yul\":18909:18934   */\n      swap3\n      pop\n        /* \"#utility.yul\":18953:18954   */\n      dup3\n        /* \"#utility.yul\":18950:18951   */\n      dup3\n        /* \"#utility.yul\":18947:18955   */\n      lt\n        /* \"#utility.yul\":18944:18978   */\n      iszero\n      tag_675\n      jumpi\n        /* \"#utility.yul\":18958:18976   */\n      tag_676\n      tag_490\n      jump\t// in\n    tag_676:\n        /* \"#utility.yul\":18944:18978   */\n    tag_675:\n        /* \"#utility.yul\":19003:19004   */\n      dup3\n        /* \"#utility.yul\":19000:19001   */\n      dup3\n        /* \"#utility.yul\":18996:19005   */\n      sub\n        /* \"#utility.yul\":18988:19005   */\n      swap1\n      pop\n        /* \"#utility.yul\":18820:19011   */\n      swap3\n      swap2\n      pop\n      pop\n      jump\t// out\n        /* \"#utility.yul\":19017:19193   */\n    tag_261:\n        /* \"#utility.yul\":19049:19050   */\n      0x00\n        /* \"#utility.yul\":19066:19086   */\n      tag_678\n        /* \"#utility.yul\":19084:19085   */\n      dup3\n        /* \"#utility.yul\":19066:19086   */\n      tag_454\n      jump\t// in\n    tag_678:\n        /* \"#utility.yul\":19061:19086   */\n      swap2\n      pop\n        /* \"#utility.yul\":19100:19120   */\n      tag_679\n        /* \"#utility.yul\":19118:19119   */\n      dup4\n        /* \"#utility.yul\":19100:19120   */\n      tag_454\n      jump\t// in\n    tag_679:\n        /* \"#utility.yul\":19095:19120   */\n      swap3\n      pop\n        /* \"#utility.yul\":19139:19140   */\n      dup3\n        /* \"#utility.yul\":19129:19164   */\n      tag_680\n      jumpi\n        /* \"#utility.yul\":19144:19162   */\n      tag_681\n      tag_489\n      jump\t// in\n    tag_681:\n        /* \"#utility.yul\":19129:19164   */\n    tag_680:\n        /* \"#utility.yul\":19185:19186   */\n      dup3\n        /* \"#utility.yul\":19182:19183   */\n      dup3\n        /* \"#utility.yul\":19178:19187   */\n      mod\n        /* \"#utility.yul\":19173:19187   */\n      swap1\n      pop\n        /* \"#utility.yul\":19017:19193   */\n      swap3\n      swap2\n      pop\n      pop\n      jump\t// out\n        /* \"#utility.yul\":19199:19531   */\n    tag_295:\n        /* \"#utility.yul\":19320:19324   */\n      0x00\n        /* \"#utility.yul\":19358:19360   */\n      0x40\n        /* \"#utility.yul\":19347:19356   */\n      dup3\n        /* \"#utility.yul\":19343:19361   */\n      add\n        /* \"#utility.yul\":19335:19361   */\n      swap1\n      pop\n        /* \"#utility.yul\":19371:19442   */\n      tag_683\n        /* \"#utility.yul\":19439:19440   */\n      0x00\n        /* \"#utility.yul\":19428:19437   */\n      dup4\n        /* \"#utility.yul\":19424:19441   */\n      add\n        /* \"#utility.yul\":19415:19421   */\n      dup6\n        /* \"#utility.yul\":19371:19442   */\n      tag_480\n      jump\t// in\n    tag_683:\n        /* \"#utility.yul\":19452:19524   */\n      tag_684\n        /* \"#utility.yul\":19520:19522   */\n      0x20\n        /* \"#utility.yul\":19509:19518   */\n      dup4\n        /* \"#utility.yul\":19505:19523   */\n      add\n        /* \"#utility.yul\":19496:19502   */\n      dup5\n        /* \"#utility.yul\":19452:19524   */\n      tag_480\n      jump\t// in\n    tag_684:\n        /* \"#utility.yul\":19199:19531   */\n      swap4\n      swap3\n      pop\n      pop\n      pop\n      jump\t// out\n        /* \"#utility.yul\":19537:19613   */\n    tag_501:\n        /* \"#utility.yul\":19573:19580   */\n      0x00\n        /* \"#utility.yul\":19602:19607   */\n      dup2\n        /* \"#utility.yul\":19591:19607   */\n      swap1\n      pop\n        /* \"#utility.yul\":19537:19613   */\n      swap2\n      swap1\n      pop\n      jump\t// out\n        /* \"#utility.yul\":19619:19850   */\n    tag_380:\n        /* \"#utility.yul\":19657:19660   */\n      0x00\n        /* \"#utility.yul\":19680:19703   */\n      tag_687\n        /* \"#utility.yul\":19697:19702   */\n      dup3\n        /* \"#utility.yul\":19680:19703   */\n      tag_501\n      jump\t// in\n    tag_687:\n        /* \"#utility.yul\":19671:19703   */\n      swap2\n      pop\n        /* \"#utility.yul\":19725:19791   */\n      0x7fffffffffffffffffffffffffffffffffffffffffffffffffffffffffffffff\n        /* \"#utility.yul\":19718:19723   */\n      dup3\n        /* \"#utility.yul\":19715:19792   */\n      eq\n        /* \"#utility.yul\":19712:19815   */\n      iszero\n      tag_688\n      jumpi\n        /* \"#utility.yul\":19795:19813   */\n      tag_689\n      tag_490\n      jump\t// in\n    tag_689:\n        /* \"#utility.yul\":19712:19815   */\n    tag_688:\n        /* \"#utility.yul\":19842:19843   */\n      0x01\n        /* \"#utility.yul\":19835:19840   */\n      dup3\n        /* \"#utility.yul\":19831:19844   */\n      add\n        /* \"#utility.yul\":19824:19844   */\n      swap1\n      pop\n        /* \"#utility.yul\":19619:19850   */\n      swap2\n      swap1\n      pop\n      jump\t// out\n\n    auxdata: 0xa264697066735822122045bc88e79c8e45edc18f28bfde606615b427e28a2a5b7b4e9fd4db166695c3a164736f6c634300080b0033\n}\n",
				"bytecode": {
					"linkReferences": {},
					"object": "60806040526040518060600160405280600560ff168152602001600360ff168152602001600160ff1681525060079060036200003d92919062000684565b506000600e556000600f55600060105560006011556802b5e3af16b18800006012556064600a601254620000729190620008e0565b6200007e919062000970565b60135560646009601254620000949190620008e0565b620000a0919062000970565b60145560646001601254620000b69190620008e0565b620000c2919062000970565b601555348015620000d257600080fd5b50604051620052ed380380620052ed8339818101604052810190620000f8919062000a12565b336000806101000a81548173ffffffffffffffffffffffffffffffffffffffff021916908373ffffffffffffffffffffffffffffffffffffffff16021790555080600160006101000a81548173ffffffffffffffffffffffffffffffffffffffff021916908373ffffffffffffffffffffffffffffffffffffffff16021790555081600260006101000a81548173ffffffffffffffffffffffffffffffffffffffff021916908373ffffffffffffffffffffffffffffffffffffffff16021790555060405180606001604052808673ffffffffffffffffffffffffffffffffffffffff1673ffffffffffffffffffffffffffffffffffffffff1681526020018573ffffffffffffffffffffffffffffffffffffffff1673ffffffffffffffffffffffffffffffffffffffff1681526020018473ffffffffffffffffffffffffffffffffffffffff1673ffffffffffffffffffffffffffffffffffffffff1681525060039060036200026b92919062000725565b50606460506012546200027f9190620008e0565b6200028b919062000970565b6008600060018152602001908152602001600020819055506002600860006001815260200190815260200160002054620002c69190620008e0565b6008600060028152602001908152602001600020819055506002600860006002815260200190815260200160002054620003019190620008e0565b60086000600381526020019081526020016000208190555060026008600060038152602001908152602001600020546200033c9190620008e0565b6008600060048152602001908152602001600020819055506002600860006004815260200190815260200160002054620003779190620008e0565b6008600060058152602001908152602001600020819055506002600860006005815260200190815260200160002054620003b29190620008e0565b6008600060068152602001908152602001600020819055506002600860006006815260200190815260200160002054620003ed9190620008e0565b6008600060078152602001908152602001600020819055506002600860006007815260200190815260200160002054620004289190620008e0565b6008600060088152602001908152602001600020819055506002600860006008815260200190815260200160002054620004639190620008e0565b6008600060098152602001908152602001600020819055506000600960008060009054906101000a900473ffffffffffffffffffffffffffffffffffffffff1673ffffffffffffffffffffffffffffffffffffffff1673ffffffffffffffffffffffffffffffffffffffff168152602001908152602001600020905060018160000160006101000a81548160ff021916908315150217905550600e54816001018190555060008160020181905550600067ffffffffffffffff8111156200052f576200052e62000a9a565b5b6040519080825280602002602001820160405280156200055e5781602001602082028036833780820191505090505b5081600301908051906020019062000578929190620007a7565b50428160040181905550600067ffffffffffffffff811115620005a0576200059f62000a9a565b5b604051908082528060200260200182016040528015620005cf5781602001602082028036833780820191505090505b50816006019080519060200190620005e992919062000836565b50600e6000815480929190620005ff9062000ac9565b919050555060008054906101000a900473ffffffffffffffffffffffffffffffffffffffff16600a6000600e54815260200190815260200160002060006101000a81548173ffffffffffffffffffffffffffffffffffffffff021916908373ffffffffffffffffffffffffffffffffffffffff16021790555050505050505062000b17565b826004601f01602090048101928215620007125791602002820160005b83821115620006e157835183826101000a81548160ff021916908360ff1602179055509260200192600101602081600001049283019260010302620006a1565b8015620007105782816101000a81549060ff0219169055600101602081600001049283019260010302620006e1565b505b50905062000721919062000888565b5090565b826004810192821562000794579160200282015b82811115620007935782518260006101000a81548173ffffffffffffffffffffffffffffffffffffffff021916908373ffffffffffffffffffffffffffffffffffffffff1602179055509160200191906001019062000739565b5b509050620007a3919062000888565b5090565b82805482825590600052602060002090810192821562000823579160200282015b82811115620008225782518260006101000a81548173ffffffffffffffffffffffffffffffffffffffff021916908373ffffffffffffffffffffffffffffffffffffffff16021790555091602001919060010190620007c8565b5b50905062000832919062000888565b5090565b82805482825590600052602060002090810192821562000875579160200282015b828111156200087457825182559160200191906001019062000857565b5b50905062000884919062000888565b5090565b5b80821115620008a357600081600090555060010162000889565b5090565b6000819050919050565b7f4e487b7100000000000000000000000000000000000000000000000000000000600052601160045260246000fd5b6000620008ed82620008a7565b9150620008fa83620008a7565b9250817fffffffffffffffffffffffffffffffffffffffffffffffffffffffffffffffff0483118215151615620009365762000935620008b1565b5b828202905092915050565b7f4e487b7100000000000000000000000000000000000000000000000000000000600052601260045260246000fd5b60006200097d82620008a7565b91506200098a83620008a7565b9250826200099d576200099c62000941565b5b828204905092915050565b600080fd5b600073ffffffffffffffffffffffffffffffffffffffff82169050919050565b6000620009da82620009ad565b9050919050565b620009ec81620009cd565b8114620009f857600080fd5b50565b60008151905062000a0c81620009e1565b92915050565b600080600080600060a0868803121562000a315762000a30620009a8565b5b600062000a4188828901620009fb565b955050602062000a5488828901620009fb565b945050604062000a6788828901620009fb565b935050606062000a7a88828901620009fb565b925050608062000a8d88828901620009fb565b9150509295509295909350565b7f4e487b7100000000000000000000000000000000000000000000000000000000600052604160045260246000fd5b600062000ad682620008a7565b91507fffffffffffffffffffffffffffffffffffffffffffffffffffffffffffffffff82141562000b0c5762000b0b620008b1565b5b600182019050919050565b6147c68062000b276000396000f3fe60806040526004361061012a5760003560e01c80638853b53e116100ab578063a4bb170d1161006f578063a4bb170d14610449578063a87430ba14610474578063aa24c5c5146104b4578063bbf57068146104f1578063c15dec851461052e578063f7bbfccd146105595761012a565b80638853b53e1461035b578063992c85d21461038b57806399cbd74f146103b65780639f4216e8146103e1578063a457c0501461041e5761012a565b80635e8a7069116100f25780635e8a70691461024e5780636043ddad146102795780636158fa00146102b65780636f9fb98a146102f357806379378e301461031e5761012a565b806310e4077a1461012f57806336b19cd71461016c57806343f6753c146101975780634d948bea146101d4578063575cea6b14610211575b600080fd5b34801561013b57600080fd5b5061015660048036038101906101519190613d80565b610582565b6040516101639190613dee565b60405180910390f35b34801561017857600080fd5b506101816105b8565b60405161018e9190613dee565b60405180910390f35b3480156101a357600080fd5b506101be60048036038101906101b99190613e35565b6105dc565b6040516101cb9190613dee565b60405180910390f35b3480156101e057600080fd5b506101fb60048036038101906101f69190613e35565b61061e565b6040516102089190613e90565b60405180910390f35b34801561021d57600080fd5b5061023860048036038101906102339190613eab565b61064d565b6040516102459190613f96565b60405180910390f35b34801561025a57600080fd5b5061026361071d565b6040516102709190613e90565b60405180910390f35b34801561028557600080fd5b506102a0600480360381019061029b9190613d80565b610886565b6040516102ad9190613fd4565b60405180910390f35b3480156102c257600080fd5b506102dd60048036038101906102d89190613eab565b6108b0565b6040516102ea91906140ad565b60405180910390f35b3480156102ff57600080fd5b5061030861094a565b60405161031591906140de565b60405180910390f35b34801561032a57600080fd5b5061034560048036038101906103409190613d80565b610960565b60405161035291906140de565b60405180910390f35b61037560048036038101906103709190613d80565b610978565b6040516103829190613e90565b60405180910390f35b34801561039757600080fd5b506103a061113e565b6040516103ad9190613dee565b60405180910390f35b3480156103c257600080fd5b506103cb611164565b6040516103d89190613e90565b60405180910390f35b3480156103ed57600080fd5b5061040860048036038101906104039190613d80565b611348565b6040516104159190613dee565b60405180910390f35b34801561042a57600080fd5b5061043361137b565b6040516104409190613e90565b60405180910390f35b34801561045557600080fd5b5061045e6114e4565b60405161046b91906140de565b60405180910390f35b34801561048057600080fd5b5061049b60048036038101906104969190613eab565b6114ea565b6040516104ab94939291906140f9565b60405180910390f35b3480156104c057600080fd5b506104db60048036038101906104d6919061413e565b611527565b6040516104e891906140de565b60405180910390f35b3480156104fd57600080fd5b5061051860048036038101906105139190613e35565b611585565b60405161052591906140de565b60405180910390f35b34801561053a57600080fd5b506105436115aa565b6040516105509190613dee565b60405180910390f35b34801561056557600080fd5b50610580600480360381019061057b919061413e565b6115d0565b005b6003816004811061059257600080fd5b016000915054906101000a900473ffffffffffffffffffffffffffffffffffffffff1681565b60008054906101000a900473ffffffffffffffffffffffffffffffffffffffff1681565b600c6020528160005260406000206020528060005260406000206000915091509054906101000a900473ffffffffffffffffffffffffffffffffffffffff1681565b600d6020528160005260406000206020528060005260406000206000915091509054906101000a900460ff1681565b6060600960008373ffffffffffffffffffffffffffffffffffffffff1673ffffffffffffffffffffffffffffffffffffffff16815260200190815260200160002060030180548060200260200160405190810160405280929190818152602001828054801561071157602002820191906000526020600020905b8160009054906101000a900473ffffffffffffffffffffffffffffffffffffffff1673ffffffffffffffffffffffffffffffffffffffff16815260200190600101908083116106c7575b50505050509050919050565b6000600160009054906101000a900473ffffffffffffffffffffffffffffffffffffffff1673ffffffffffffffffffffffffffffffffffffffff163373ffffffffffffffffffffffffffffffffffffffff16146107af576040517f08c379a00000000000000000000000000000000000000000000000000000000081526004016107a6906141db565b60405180910390fd5b6000600160009054906101000a900473ffffffffffffffffffffffffffffffffffffffff1673ffffffffffffffffffffffffffffffffffffffff166011546040516107f99061422c565b60006040518083038185875af1925050503d8060008114610836576040519150601f19603f3d011682016040523d82523d6000602084013e61083b565b606091505b505090508061087f576040517f08c379a00000000000000000000000000000000000000000000000000000000081526004016108769061428d565b60405180910390fd5b8091505090565b6007816004811061089657600080fd5b60209182820401919006915054906101000a900460ff1681565b6060600960008373ffffffffffffffffffffffffffffffffffffffff1673ffffffffffffffffffffffffffffffffffffffff16815260200190815260200160002060060180548060200260200160405190810160405280929190818152602001828054801561093e57602002820191906000526020600020905b81548152602001906001019080831161092a575b50505050509050919050565b6000620f42404761095b919061430b565b905090565b60086020528060005260406000206000915090505481565b6000600960003373ffffffffffffffffffffffffffffffffffffffff1673ffffffffffffffffffffffffffffffffffffffff16815260200190815260200160002060000160009054906101000a900460ff1615610a0a576040517f08c379a0000000000000000000000000000000000000000000000000000000008152600401610a0190614388565b60405180910390fd5b600082118015610a1c5750600e548211155b610a5b576040517f08c379a0000000000000000000000000000000000000000000000000000000008152600401610a52906143f4565b60405180910390fd5b6012543414610a9f576040517f08c379a0000000000000000000000000000000000000000000000000000000008152600401610a9690614460565b60405180910390fd5b6000600960003373ffffffffffffffffffffffffffffffffffffffff1673ffffffffffffffffffffffffffffffffffffffff168152602001908152602001600020905060018160000160006101000a81548160ff021916908315150217905550600e548160010181905550828160020181905550600067ffffffffffffffff811115610b2e57610b2d614480565b5b604051908082528060200260200182016040528015610b5c5781602001602082028036833780820191505090505b50816003019080519060200190610b74929190613c51565b50428160040181905550600067ffffffffffffffff811115610b9957610b98614480565b5b604051908082528060200260200182016040528015610bc75781602001602082028036833780820191505090505b50816006019080519060200190610bdf929190613cdb565b50600e6000815480929190610bf3906144af565b919050555033600a6000600e54815260200190815260200160002060006101000a81548173ffffffffffffffffffffffffffffffffffffffff021916908373ffffffffffffffffffffffffffffffffffffffff16021790555060096000600a600086815260200190815260200160002060009054906101000a900473ffffffffffffffffffffffffffffffffffffffff1673ffffffffffffffffffffffffffffffffffffffff1673ffffffffffffffffffffffffffffffffffffffff168152602001908152602001600020600301339080600181540180825580915050600190039060005260206000200160009091909190916101000a81548173ffffffffffffffffffffffffffffffffffffffff021916908373ffffffffffffffffffffffffffffffffffffffff16021790555060086000600181526020019081526020016000205460116000828254610d4891906144f8565b9250508190555060145460106000828254610d6391906144f8565b92505081905550601554600f6000828254610d7e91906144f8565b92505081905550600060096000600a600087815260200190815260200160002060009054906101000a900473ffffffffffffffffffffffffffffffffffffffff1673ffffffffffffffffffffffffffffffffffffffff1673ffffffffffffffffffffffffffffffffffffffff168152602001908152602001600020600301805490509050600181141580610e125750600184145b15610e2a57610e25600133836000611833565b610fba565b60096000600a600087815260200190815260200160002060009054906101000a900473ffffffffffffffffffffffffffffffffffffffff1673ffffffffffffffffffffffffffffffffffffffff1673ffffffffffffffffffffffffffffffffffffffff168152602001908152602001600020600601600190806001815401808255809150506001900390600052602060002001600090919091909150556000600a600086815260200190815260200160002060009054906101000a900473ffffffffffffffffffffffffffffffffffffffff1690506001600960008373ffffffffffffffffffffffffffffffffffffffff1673ffffffffffffffffffffffffffffffffffffffff16815260200190815260200160002060050160006001815260200190815260200160002054610f6091906144f8565b600960008373ffffffffffffffffffffffffffffffffffffffff1673ffffffffffffffffffffffffffffffffffffffff16815260200190815260200160002060050160006001815260200190815260200160002081905550505b6000600a600086815260200190815260200160002060009054906101000a900473ffffffffffffffffffffffffffffffffffffffff1673ffffffffffffffffffffffffffffffffffffffff166013546040516110159061422c565b60006040518083038185875af1925050503d8060008114611052576040519150601f19603f3d011682016040523d82523d6000602084013e611057565b606091505b505090508061109b576040517f08c379a00000000000000000000000000000000000000000000000000000000081526004016110929061428d565b60405180910390fd5b600a600086815260200190815260200160002060009054906101000a900473ffffffffffffffffffffffffffffffffffffffff1673ffffffffffffffffffffffffffffffffffffffff163373ffffffffffffffffffffffffffffffffffffffff167f788c06d2405ae89dd3f0528d38be7691289474d72176408bc2c2406dc5e342f14260405161112b91906140de565b60405180910390a3809350505050919050565b600260009054906101000a900473ffffffffffffffffffffffffffffffffffffffff1681565b600080600090506000805b6004811015611200573373ffffffffffffffffffffffffffffffffffffffff16600382600481106111a3576111a261454e565b5b0160009054906101000a900473ffffffffffffffffffffffffffffffffffffffff1673ffffffffffffffffffffffffffffffffffffffff1614156111ed5760019250809150611200565b80806111f8906144af565b91505061116f565b506001151582151514611248576040517f08c379a000000000000000000000000000000000000000000000000000000000815260040161123f906141db565b60405180910390fd5b60006064600783600481106112605761125f61454e565b5b602091828204019190069054906101000a900460ff1660ff16601054611286919061457d565b611290919061430b565b905060003373ffffffffffffffffffffffffffffffffffffffff16826040516112b89061422c565b60006040518083038185875af1925050503d80600081146112f5576040519150601f19603f3d011682016040523d82523d6000602084013e6112fa565b606091505b505090508061133e576040517f08c379a00000000000000000000000000000000000000000000000000000000081526004016113359061428d565b60405180910390fd5b8094505050505090565b600a6020528060005260406000206000915054906101000a900473ffffffffffffffffffffffffffffffffffffffff1681565b6000600260009054906101000a900473ffffffffffffffffffffffffffffffffffffffff1673ffffffffffffffffffffffffffffffffffffffff163373ffffffffffffffffffffffffffffffffffffffff161461140d576040517f08c379a0000000000000000000000000000000000000000000000000000000008152600401611404906141db565b60405180910390fd5b6000600260009054906101000a900473ffffffffffffffffffffffffffffffffffffffff1673ffffffffffffffffffffffffffffffffffffffff16600f546040516114579061422c565b60006040518083038185875af1925050503d8060008114611494576040519150601f19603f3d011682016040523d82523d6000602084013e611499565b606091505b50509050806114dd576040517f08c379a00000000000000000000000000000000000000000000000000000000081526004016114d49061428d565b60405180910390fd5b8091505090565b600e5481565b60096020528060005260406000206000915090508060000160009054906101000a900460ff16908060010154908060020154908060040154905084565b6000600960008473ffffffffffffffffffffffffffffffffffffffff1673ffffffffffffffffffffffffffffffffffffffff168152602001908152602001600020600501600083815260200190815260200160002054905092915050565b600b602052816000526040600020602052806000526040600020600091509150505481565b600160009054906101000a900473ffffffffffffffffffffffffffffffffffffffff1681565b60008054906101000a900473ffffffffffffffffffffffffffffffffffffffff1673ffffffffffffffffffffffffffffffffffffffff163373ffffffffffffffffffffffffffffffffffffffff161461165e576040517f08c379a000000000000000000000000000000000000000000000000000000000815260040161165590614623565b60405180910390fd5b60008054906101000a900473ffffffffffffffffffffffffffffffffffffffff1673ffffffffffffffffffffffffffffffffffffffff163373ffffffffffffffffffffffffffffffffffffffff16146116ec576040517f08c379a00000000000000000000000000000000000000000000000000000000081526004016116e3906141db565b60405180910390fd5b6005811115611730576040517f08c379a00000000000000000000000000000000000000000000000000000000081526004016117279061468f565b60405180910390fd5b6003811161179d5781600360018361174891906146af565b600481106117595761175861454e565b5b0160006101000a81548173ffffffffffffffffffffffffffffffffffffffff021916908373ffffffffffffffffffffffffffffffffffffffff16021790555061182f565b60048114156117ec5781600260006101000a81548173ffffffffffffffffffffffffffffffffffffffff021916908373ffffffffffffffffffffffffffffffffffffffff16021790555061182e565b81600160006101000a81548173ffffffffffffffffffffffffffffffffffffffff021916908373ffffffffffffffffffffffffffffffffffffffff1602179055505b5b5050565b6000806000905060008060019050600080899050600288141561187d5761185d8a8a848787611dc2565b80965081955082985050505060018a61187691906144f8565b9050611994565b6014881015801561189a5750600060148961189891906146e3565b145b156118db57600a60006001815260200190815260200160002060009054906101000a900473ffffffffffffffffffffffffffffffffffffffff169550611993565b600488101580156118f8575060006004896118f691906146e3565b145b1561191957611909878a8c85612534565b8096508197505050899050611992565b600a6000600960008c73ffffffffffffffffffffffffffffffffffffffff1673ffffffffffffffffffffffffffffffffffffffff16815260200190815260200160002060020154815260200190815260200160002060009054906101000a900473ffffffffffffffffffffffffffffffffffffffff1695505b5b5b82806119ed5750600960008773ffffffffffffffffffffffffffffffffffffffff1673ffffffffffffffffffffffffffffffffffffffff16815260200190815260200160002060000160009054906101000a900460ff16155b80611a575750600a60006001815260200190815260200160002060009054906101000a900473ffffffffffffffffffffffffffffffffffffffff1673ffffffffffffffffffffffffffffffffffffffff168673ffffffffffffffffffffffffffffffffffffffff16145b15611db657611a6986828a8888612674565b80995081985050508615611ad657828015611a82575083155b8015611a8e5750600288145b15611a97578099505b828015611aa2575083155b8015611aae5750600488145b8015611abb575060018110155b15611ac4578099505b611ad18a878a6001611833565b611db5565b600960008773ffffffffffffffffffffffffffffffffffffffff1673ffffffffffffffffffffffffffffffffffffffff16815260200190815260200160002060000160009054906101000a900460ff16611b6257600a60006001815260200190815260200160002060009054906101000a900473ffffffffffffffffffffffffffffffffffffffff1695505b6001600960008873ffffffffffffffffffffffffffffffffffffffff1673ffffffffffffffffffffffffffffffffffffffff168152602001908152602001600020600501600083815260200190815260200160002054611bc291906144f8565b600960008873ffffffffffffffffffffffffffffffffffffffff1673ffffffffffffffffffffffffffffffffffffffff16815260200190815260200160002060050160008381526020019081526020016000208190555060008673ffffffffffffffffffffffffffffffffffffffff166008600084815260200190815260200160002054604051611c529061422c565b60006040518083038185875af1925050503d8060008114611c8f576040519150601f19603f3d011682016040523d82523d6000602084013e611c94565b606091505b5050905080611cd8576040517f08c379a0000000000000000000000000000000000000000000000000000000008152600401611ccf9061428d565b60405180910390fd5b8015611d46573373ffffffffffffffffffffffffffffffffffffffff168773ffffffffffffffffffffffffffffffffffffffff167fce7dc747411ac40191c5335943fcc79d8c2d8c01ca5ae83d9fed160409fa61208442604051611d3d929190614714565b60405180910390a35b80611db3573373ffffffffffffffffffffffffffffffffffffffff168773ffffffffffffffffffffffffffffffffffffffff167f7df0f6bac5c770af7783500bb7f1c0d073adb11316004ba6f9f6c704af1a1aea8442604051611daa929190614714565b60405180910390a35b505b5b50505050505050505050565b600080600080600189611dd591906144f8565b905060008060028311611e5f57600a6000600960008d73ffffffffffffffffffffffffffffffffffffffff1673ffffffffffffffffffffffffffffffffffffffff16815260200190815260200160002060020154815260200190815260200160002060009054906101000a900473ffffffffffffffffffffffffffffffffffffffff169050611e63565b8990505b611e6e818c8b612b16565b8092508193505050600960008373ffffffffffffffffffffffffffffffffffffffff1673ffffffffffffffffffffffffffffffffffffffff16815260200190815260200160002060000160009054906101000a900460ff161580611fdb5750600073ffffffffffffffffffffffffffffffffffffffff16600c600085815260200190815260200160002060008473ffffffffffffffffffffffffffffffffffffffff1673ffffffffffffffffffffffffffffffffffffffff16815260200190815260200160002060009054906101000a900473ffffffffffffffffffffffffffffffffffffffff1673ffffffffffffffffffffffffffffffffffffffff16148015611fda575060001515600d600085815260200190815260200160002060008473ffffffffffffffffffffffffffffffffffffffff1673ffffffffffffffffffffffffffffffffffffffff16815260200190815260200160002060009054906101000a900460ff161515145b5b1561227957600960008373ffffffffffffffffffffffffffffffffffffffff1673ffffffffffffffffffffffffffffffffffffffff16815260200190815260200160002060000160009054906101000a900460ff1661206c57600a60006001815260200190815260200160002060009054906101000a900473ffffffffffffffffffffffffffffffffffffffff1691505b600a60006001815260200190815260200160002060009054906101000a900473ffffffffffffffffffffffffffffffffffffffff1673ffffffffffffffffffffffffffffffffffffffff168273ffffffffffffffffffffffffffffffffffffffff161461218f576001600960008473ffffffffffffffffffffffffffffffffffffffff1673ffffffffffffffffffffffffffffffffffffffff16815260200190815260200160002060050160008581526020019081526020016000205461213391906144f8565b600960008473ffffffffffffffffffffffffffffffffffffffff1673ffffffffffffffffffffffffffffffffffffffff168152602001908152602001600020600501600085815260200190815260200160002081905550600096505b80600c600085815260200190815260200160002060008473ffffffffffffffffffffffffffffffffffffffff1673ffffffffffffffffffffffffffffffffffffffff16815260200190815260200160002060006101000a81548173ffffffffffffffffffffffffffffffffffffffff021916908373ffffffffffffffffffffffffffffffffffffffff1602179055506001600b600085815260200190815260200160002060008473ffffffffffffffffffffffffffffffffffffffff1673ffffffffffffffffffffffffffffffffffffffff168152602001908152602001600020819055506124b4565b6000600c600085815260200190815260200160002060008473ffffffffffffffffffffffffffffffffffffffff1673ffffffffffffffffffffffffffffffffffffffff16815260200190815260200160002060009054906101000a900473ffffffffffffffffffffffffffffffffffffffff1690506122f9838284613216565b1561230757600198506124b2565b6000600c600086815260200190815260200160002060008573ffffffffffffffffffffffffffffffffffffffff1673ffffffffffffffffffffffffffffffffffffffff16815260200190815260200160002060006101000a81548173ffffffffffffffffffffffffffffffffffffffff021916908373ffffffffffffffffffffffffffffffffffffffff1602179055506001600d600086815260200190815260200160002060008573ffffffffffffffffffffffffffffffffffffffff1673ffffffffffffffffffffffffffffffffffffffff16815260200190815260200160002060006101000a81548160ff0219169083151502179055506001600b600086815260200190815260200160002060008573ffffffffffffffffffffffffffffffffffffffff1673ffffffffffffffffffffffffffffffffffffffff1681526020019081526020016000205461245d91906144f8565b600b600086815260200190815260200160002060008573ffffffffffffffffffffffffffffffffffffffff1673ffffffffffffffffffffffffffffffffffffffff168152602001908152602001600020819055505b505b600960008273ffffffffffffffffffffffffffffffffffffffff1673ffffffffffffffffffffffffffffffffffffffff168152602001908152602001600020600601839080600181540180825580915050600190039060005260206000200160009091909190915055818789955095509550505050955095509592505050565b600080600060019050600080886125c257600a6000600960008b73ffffffffffffffffffffffffffffffffffffffff1673ffffffffffffffffffffffffffffffffffffffff16815260200190815260200160002060020154815260200190815260200160002060009054906101000a900473ffffffffffffffffffffffffffffffffffffffff1691506125c6565b8791505b6125d18288886135e5565b5080915050600960008273ffffffffffffffffffffffffffffffffffffffff1673ffffffffffffffffffffffffffffffffffffffff16815260200190815260200160002060000160009054906101000a900460ff1661266257600a60006001815260200190815260200160002060009054906101000a900473ffffffffffffffffffffffffffffffffffffffff1690505b80839450945050505094509492505050565b60008060008086905060006001600960008c73ffffffffffffffffffffffffffffffffffffffff1673ffffffffffffffffffffffffffffffffffffffff16815260200190815260200160002060050160008b8152602001908152602001600020546126df91906144f8565b90506002600b60008b815260200190815260200160002060008c73ffffffffffffffffffffffffffffffffffffffff1673ffffffffffffffffffffffffffffffffffffffff1681526020019081526020016000205414156127435760019250612b03565b600481101580156127605750600060048261275e91906146e3565b145b80156127af57506000600960008c73ffffffffffffffffffffffffffffffffffffffff1673ffffffffffffffffffffffffffffffffffffffff1681526020019081526020016000206002015414155b80156127bb5750600189145b156127e2576003881480156127d05750600481145b156127d9578091505b60019250612b02565b600481101580156127ff575060006004826127fd91906146e3565b145b801561280b5750600288145b8015612815575085155b80156128215750600189115b156128a557600a60006001815260200190815260200160002060009054906101000a900473ffffffffffffffffffffffffffffffffffffffff1673ffffffffffffffffffffffffffffffffffffffff168a73ffffffffffffffffffffffffffffffffffffffff16141561289757600092506128a0565b60049150600192505b612b01565b6002811480156128f857506000600960008c73ffffffffffffffffffffffffffffffffffffffff1673ffffffffffffffffffffffffffffffffffffffff1681526020019081526020016000206002015414155b8015612902575086155b801561290c575085155b15612a1b57600960008b73ffffffffffffffffffffffffffffffffffffffff1673ffffffffffffffffffffffffffffffffffffffff16815260200190815260200160002060000160009054906101000a900460ff1661299d57600a60006001815260200190815260200160002060009054906101000a900473ffffffffffffffffffffffffffffffffffffffff1699505b600a60006001815260200190815260200160002060009054906101000a900473ffffffffffffffffffffffffffffffffffffffff1673ffffffffffffffffffffffffffffffffffffffff168a73ffffffffffffffffffffffffffffffffffffffff161415612a0e5760009250612a16565b600192508091505b612b00565b600181148015612a6d57506000600960008c73ffffffffffffffffffffffffffffffffffffffff1673ffffffffffffffffffffffffffffffffffffffff16815260200190815260200160002060020154145b15612aff57600960008b73ffffffffffffffffffffffffffffffffffffffff1673ffffffffffffffffffffffffffffffffffffffff16815260200190815260200160002060000160009054906101000a900460ff16612afe57600a60006001815260200190815260200160002060009054906101000a900473ffffffffffffffffffffffffffffffffffffffff1699505b5b5b5b5b5b8282945094505050509550959350505050565b60008060008086905060005b600981121561314e576001600960008a73ffffffffffffffffffffffffffffffffffffffff1673ffffffffffffffffffffffffffffffffffffffff168152602001908152602001600020600201541480612bdb5750600a60006001815260200190815260200160002060009054906101000a900473ffffffffffffffffffffffffffffffffffffffff1673ffffffffffffffffffffffffffffffffffffffff168373ffffffffffffffffffffffffffffffffffffffff16145b15612be55761314e565b60006001600960008573ffffffffffffffffffffffffffffffffffffffff1673ffffffffffffffffffffffffffffffffffffffff16815260200190815260200160002060060180549050612c3991906146af565b9050600960008473ffffffffffffffffffffffffffffffffffffffff1673ffffffffffffffffffffffffffffffffffffffff1681526020019081526020016000206006018181548110612c8f57612c8e61454e565b5b906000526020600020015496506000600a6000600960008773ffffffffffffffffffffffffffffffffffffffff1673ffffffffffffffffffffffffffffffffffffffff16815260200190815260200160002060020154815260200190815260200160002060009054906101000a900473ffffffffffffffffffffffffffffffffffffffff1690506000600a6000600960008573ffffffffffffffffffffffffffffffffffffffff1673ffffffffffffffffffffffffffffffffffffffff16815260200190815260200160002060020154815260200190815260200160002060009054906101000a900473ffffffffffffffffffffffffffffffffffffffff1690506000600190505b8a811015612e9757600a60006001815260200190815260200160002060009054906101000a900473ffffffffffffffffffffffffffffffffffffffff1673ffffffffffffffffffffffffffffffffffffffff168273ffffffffffffffffffffffffffffffffffffffff161415612e0c57612e97565b600a6000600960008573ffffffffffffffffffffffffffffffffffffffff1673ffffffffffffffffffffffffffffffffffffffff16815260200190815260200160002060020154815260200190815260200160002060009054906101000a900473ffffffffffffffffffffffffffffffffffffffff1691508080612e8f906144af565b915050612d97565b5060018a612ea591906144f8565b89101561312d57600960008273ffffffffffffffffffffffffffffffffffffffff1673ffffffffffffffffffffffffffffffffffffffff16815260200190815260200160002060000160009054906101000a900460ff161580612f4a57506000600960008473ffffffffffffffffffffffffffffffffffffffff1673ffffffffffffffffffffffffffffffffffffffff16815260200190815260200160002060020154145b80612f9757506001600960008473ffffffffffffffffffffffffffffffffffffffff1673ffffffffffffffffffffffffffffffffffffffff16815260200190815260200160002060020154145b156131225760096000600a6000600960008773ffffffffffffffffffffffffffffffffffffffff1673ffffffffffffffffffffffffffffffffffffffff16815260200190815260200160002060020154815260200190815260200160002060009054906101000a900473ffffffffffffffffffffffffffffffffffffffff1673ffffffffffffffffffffffffffffffffffffffff1673ffffffffffffffffffffffffffffffffffffffff16815260200190815260200160002060000160009054906101000a900460ff166130a157600a60006001815260200190815260200160002060009054906101000a900473ffffffffffffffffffffffffffffffffffffffff16955061311a565b600a6000600960008573ffffffffffffffffffffffffffffffffffffffff1673ffffffffffffffffffffffffffffffffffffffff16815260200190815260200160002060020154815260200190815260200160002060009054906101000a900473ffffffffffffffffffffffffffffffffffffffff1695505b50505061314e565b809450809550613138565b84955050505061314e565b505050808061314690614747565b915050612b22565b506001600960008973ffffffffffffffffffffffffffffffffffffffff1673ffffffffffffffffffffffffffffffffffffffff1681526020019081526020016000206005016000888152602001908152602001600020546131af91906144f8565b600960008973ffffffffffffffffffffffffffffffffffffffff1673ffffffffffffffffffffffffffffffffffffffff1681526020019081526020016000206005016000888152602001908152602001600020819055508187935093505050935093915050565b6000806000905060006132288661064d565b9050600085905060008590506000600a6000600960008673ffffffffffffffffffffffffffffffffffffffff1673ffffffffffffffffffffffffffffffffffffffff16815260200190815260200160002060020154815260200190815260200160002060009054906101000a900473ffffffffffffffffffffffffffffffffffffffff16905060005b600c8112156133e7576000805b865181101561334e578681815181106132da576132d961454e565b5b602002602001015173ffffffffffffffffffffffffffffffffffffffff168473ffffffffffffffffffffffffffffffffffffffff16141561333b578681815181106133285761332761454e565b5b602002602001015195506001915061334e565b8080613346906144af565b9150506132be565b50801561335b57506133e7565b600a6000600960008673ffffffffffffffffffffffffffffffffffffffff1673ffffffffffffffffffffffffffffffffffffffff16815260200190815260200160002060020154815260200190815260200160002060009054906101000a900473ffffffffffffffffffffffffffffffffffffffff1692505080806133df90614747565b9150506132b1565b506000600a6000600960008673ffffffffffffffffffffffffffffffffffffffff1673ffffffffffffffffffffffffffffffffffffffff16815260200190815260200160002060020154815260200190815260200160002060009054906101000a900473ffffffffffffffffffffffffffffffffffffffff16905060005b600c81121561359b576000805b87518110156135025787818151811061348e5761348d61454e565b5b602002602001015173ffffffffffffffffffffffffffffffffffffffff168473ffffffffffffffffffffffffffffffffffffffff1614156134ef578781815181106134dc576134db61454e565b5b6020026020010151955060019150613502565b80806134fa906144af565b915050613472565b50801561350f575061359b565b600a6000600960008673ffffffffffffffffffffffffffffffffffffffff1673ffffffffffffffffffffffffffffffffffffffff16815260200190815260200160002060020154815260200190815260200160002060009054906101000a900473ffffffffffffffffffffffffffffffffffffffff16925050808061359390614747565b915050613465565b508273ffffffffffffffffffffffffffffffffffffffff168473ffffffffffffffffffffffffffffffffffffffff1614156135d557600195505b8596505050505050509392505050565b600080600080869050600081905060005b6009811215613b88576001600960008b73ffffffffffffffffffffffffffffffffffffffff1673ffffffffffffffffffffffffffffffffffffffff1681526020019081526020016000206002015414806136af5750600a60006001815260200190815260200160002060009054906101000a900473ffffffffffffffffffffffffffffffffffffffff1673ffffffffffffffffffffffffffffffffffffffff168473ffffffffffffffffffffffffffffffffffffffff16145b156136b957613b88565b60005b888110156137bc57600a60006001815260200190815260200160002060009054906101000a900473ffffffffffffffffffffffffffffffffffffffff1673ffffffffffffffffffffffffffffffffffffffff168473ffffffffffffffffffffffffffffffffffffffff161415613731576137bc565b600a6000600960008673ffffffffffffffffffffffffffffffffffffffff1673ffffffffffffffffffffffffffffffffffffffff16815260200190815260200160002060020154815260200190815260200160002060009054906101000a900473ffffffffffffffffffffffffffffffffffffffff16925080806137b4906144af565b9150506136bc565b50600a60006001815260200190815260200160002060009054906101000a900473ffffffffffffffffffffffffffffffffffffffff1673ffffffffffffffffffffffffffffffffffffffff168273ffffffffffffffffffffffffffffffffffffffff16141561382d57819350613b88565b60006001600960008573ffffffffffffffffffffffffffffffffffffffff1673ffffffffffffffffffffffffffffffffffffffff1681526020019081526020016000206006018054905061388191906146af565b9050600960008473ffffffffffffffffffffffffffffffffffffffff1673ffffffffffffffffffffffffffffffffffffffff16815260200190815260200160002060060181815481106138d7576138d661454e565b5b9060005260206000200154975088881015613b6b57600960008473ffffffffffffffffffffffffffffffffffffffff1673ffffffffffffffffffffffffffffffffffffffff16815260200190815260200160002060000160009054906101000a900460ff16158061398a57506000600960008573ffffffffffffffffffffffffffffffffffffffff1673ffffffffffffffffffffffffffffffffffffffff16815260200190815260200160002060020154145b806139d757506001600960008573ffffffffffffffffffffffffffffffffffffffff1673ffffffffffffffffffffffffffffffffffffffff16815260200190815260200160002060020154145b15613b605760096000600a6000600960008873ffffffffffffffffffffffffffffffffffffffff1673ffffffffffffffffffffffffffffffffffffffff16815260200190815260200160002060020154815260200190815260200160002060009054906101000a900473ffffffffffffffffffffffffffffffffffffffff1673ffffffffffffffffffffffffffffffffffffffff1673ffffffffffffffffffffffffffffffffffffffff16815260200190815260200160002060000160009054906101000a900460ff16613ae157600a60006001815260200190815260200160002060009054906101000a900473ffffffffffffffffffffffffffffffffffffffff169450613b5a565b600a6000600960008673ffffffffffffffffffffffffffffffffffffffff1673ffffffffffffffffffffffffffffffffffffffff16815260200190815260200160002060020154815260200190815260200160002060009054906101000a900473ffffffffffffffffffffffffffffffffffffffff1694505b50613b88565b829350829450613b74565b82945050613b88565b508080613b8090614747565b9150506135f6565b506001600960008a73ffffffffffffffffffffffffffffffffffffffff1673ffffffffffffffffffffffffffffffffffffffff168152602001908152602001600020600501600089815260200190815260200160002054613be991906144f8565b600960008a73ffffffffffffffffffffffffffffffffffffffff1673ffffffffffffffffffffffffffffffffffffffff168152602001908152602001600020600501600089815260200190815260200160002081905550828894509450505050935093915050565b828054828255906000526020600020908101928215613cca579160200282015b82811115613cc95782518260006101000a81548173ffffffffffffffffffffffffffffffffffffffff021916908373ffffffffffffffffffffffffffffffffffffffff16021790555091602001919060010190613c71565b5b509050613cd79190613d28565b5090565b828054828255906000526020600020908101928215613d17579160200282015b82811115613d16578251825591602001919060010190613cfb565b5b509050613d249190613d28565b5090565b5b80821115613d41576000816000905550600101613d29565b5090565b600080fd5b6000819050919050565b613d5d81613d4a565b8114613d6857600080fd5b50565b600081359050613d7a81613d54565b92915050565b600060208284031215613d9657613d95613d45565b5b6000613da484828501613d6b565b91505092915050565b600073ffffffffffffffffffffffffffffffffffffffff82169050919050565b6000613dd882613dad565b9050919050565b613de881613dcd565b82525050565b6000602082019050613e036000830184613ddf565b92915050565b613e1281613dcd565b8114613e1d57600080fd5b50565b600081359050613e2f81613e09565b92915050565b60008060408385031215613e4c57613e4b613d45565b5b6000613e5a85828601613d6b565b9250506020613e6b85828601613e20565b9150509250929050565b60008115159050919050565b613e8a81613e75565b82525050565b6000602082019050613ea56000830184613e81565b92915050565b600060208284031215613ec157613ec0613d45565b5b6000613ecf84828501613e20565b91505092915050565b600081519050919050565b600082825260208201905092915050565b6000819050602082019050919050565b613f0d81613dcd565b82525050565b6000613f1f8383613f04565b60208301905092915050565b6000602082019050919050565b6000613f4382613ed8565b613f4d8185613ee3565b9350613f5883613ef4565b8060005b83811015613f89578151613f708882613f13565b9750613f7b83613f2b565b925050600181019050613f5c565b5085935050505092915050565b60006020820190508181036000830152613fb08184613f38565b905092915050565b600060ff82169050919050565b613fce81613fb8565b82525050565b6000602082019050613fe96000830184613fc5565b92915050565b600081519050919050565b600082825260208201905092915050565b6000819050602082019050919050565b61402481613d4a565b82525050565b6000614036838361401b565b60208301905092915050565b6000602082019050919050565b600061405a82613fef565b6140648185613ffa565b935061406f8361400b565b8060005b838110156140a0578151614087888261402a565b975061409283614042565b925050600181019050614073565b5085935050505092915050565b600060208201905081810360008301526140c7818461404f565b905092915050565b6140d881613d4a565b82525050565b60006020820190506140f360008301846140cf565b92915050565b600060808201905061410e6000830187613e81565b61411b60208301866140cf565b61412860408301856140cf565b61413560608301846140cf565b95945050505050565b6000806040838503121561415557614154613d45565b5b600061416385828601613e20565b925050602061417485828601613d6b565b9150509250929050565b600082825260208201905092915050565b7f496e76616c69642063616c6c6572000000000000000000000000000000000000600082015250565b60006141c5600e8361417e565b91506141d08261418f565b602082019050919050565b600060208201905081810360008301526141f4816141b8565b9050919050565b600081905092915050565b50565b60006142166000836141fb565b915061422182614206565b600082019050919050565b600061423782614209565b9150819050919050565b7f5472616e73616374696f6e206661696c65642100000000000000000000000000600082015250565b600061427760138361417e565b915061428282614241565b602082019050919050565b600060208201905081810360008301526142a68161426a565b9050919050565b7f4e487b7100000000000000000000000000000000000000000000000000000000600052601260045260246000fd5b7f4e487b7100000000000000000000000000000000000000000000000000000000600052601160045260246000fd5b600061431682613d4a565b915061432183613d4a565b925082614331576143306142ad565b5b828204905092915050565b7f5573657220657869737400000000000000000000000000000000000000000000600082015250565b6000614372600a8361417e565b915061437d8261433c565b602082019050919050565b600060208201905081810360008301526143a181614365565b9050919050565b7f496e636f72726563742072656665727265722049640000000000000000000000600082015250565b60006143de60158361417e565b91506143e9826143a8565b602082019050919050565b6000602082019050818103600083015261440d816143d1565b9050919050565b7f496e636f72726563742056616c75650000000000000000000000000000000000600082015250565b600061444a600f8361417e565b915061445582614414565b602082019050919050565b600060208201905081810360008301526144798161443d565b9050919050565b7f4e487b7100000000000000000000000000000000000000000000000000000000600052604160045260246000fd5b60006144ba82613d4a565b91507fffffffffffffffffffffffffffffffffffffffffffffffffffffffffffffffff8214156144ed576144ec6142dc565b5b600182019050919050565b600061450382613d4a565b915061450e83613d4a565b9250827fffffffffffffffffffffffffffffffffffffffffffffffffffffffffffffffff03821115614543576145426142dc565b5b828201905092915050565b7f4e487b7100000000000000000000000000000000000000000000000000000000600052603260045260246000fd5b600061458882613d4a565b915061459383613d4a565b9250817fffffffffffffffffffffffffffffffffffffffffffffffffffffffffffffffff04831182151516156145cc576145cb6142dc565b5b828202905092915050565b7f43616c6c6572206973206e6f742041646d696e2e000000000000000000000000600082015250565b600061460d60148361417e565b9150614618826145d7565b602082019050919050565b6000602082019050818103600083015261463c81614600565b9050919050565b7f496e76616c696420496e64657800000000000000000000000000000000000000600082015250565b6000614679600d8361417e565b915061468482614643565b602082019050919050565b600060208201905081810360008301526146a88161466c565b9050919050565b60006146ba82613d4a565b91506146c583613d4a565b9250828210156146d8576146d76142dc565b5b828203905092915050565b60006146ee82613d4a565b91506146f983613d4a565b925082614709576147086142ad565b5b828206905092915050565b600060408201905061472960008301856140cf565b61473660208301846140cf565b9392505050565b6000819050919050565b60006147528261473d565b91507f7fffffffffffffffffffffffffffffffffffffffffffffffffffffffffffffff821415614785576147846142dc565b5b60018201905091905056fea264697066735822122045bc88e79c8e45edc18f28bfde606615b427e28a2a5b7b4e9fd4db166695c3a164736f6c634300080b0033",
					"opcodes": "PUSH1 0x80 PUSH1 0x40 MSTORE PUSH1 0x40 MLOAD DUP1 PUSH1 0x60 ADD PUSH1 0x40 MSTORE DUP1 PUSH1 0x5 PUSH1 0xFF AND DUP2 MSTORE PUSH1 0x20 ADD PUSH1 0x3 PUSH1 0xFF AND DUP2 MSTORE PUSH1 0x20 ADD PUSH1 0x1 PUSH1 0xFF AND DUP2 MSTORE POP PUSH1 0x7 SWAP1 PUSH1 0x3 PUSH3 0x3D SWAP3 SWAP2 SWAP1 PUSH3 0x684 JUMP JUMPDEST POP PUSH1 0x0 PUSH1 0xE SSTORE PUSH1 0x0 PUSH1 0xF SSTORE PUSH1 0x0 PUSH1 0x10 SSTORE PUSH1 0x0 PUSH1 0x11 SSTORE PUSH9 0x2B5E3AF16B1880000 PUSH1 0x12 SSTORE PUSH1 0x64 PUSH1 0xA PUSH1 0x12 SLOAD PUSH3 0x72 SWAP2 SWAP1 PUSH3 0x8E0 JUMP JUMPDEST PUSH3 0x7E SWAP2 SWAP1 PUSH3 0x970 JUMP JUMPDEST PUSH1 0x13 SSTORE PUSH1 0x64 PUSH1 0x9 PUSH1 0x12 SLOAD PUSH3 0x94 SWAP2 SWAP1 PUSH3 0x8E0 JUMP JUMPDEST PUSH3 0xA0 SWAP2 SWAP1 PUSH3 0x970 JUMP JUMPDEST PUSH1 0x14 SSTORE PUSH1 0x64 PUSH1 0x1 PUSH1 0x12 SLOAD PUSH3 0xB6 SWAP2 SWAP1 PUSH3 0x8E0 JUMP JUMPDEST PUSH3 0xC2 SWAP2 SWAP1 PUSH3 0x970 JUMP JUMPDEST PUSH1 0x15 SSTORE CALLVALUE DUP1 ISZERO PUSH3 0xD2 JUMPI PUSH1 0x0 DUP1 REVERT JUMPDEST POP PUSH1 0x40 MLOAD PUSH3 0x52ED CODESIZE SUB DUP1 PUSH3 0x52ED DUP4 CODECOPY DUP2 DUP2 ADD PUSH1 0x40 MSTORE DUP2 ADD SWAP1 PUSH3 0xF8 SWAP2 SWAP1 PUSH3 0xA12 JUMP JUMPDEST CALLER PUSH1 0x0 DUP1 PUSH2 0x100 EXP DUP2 SLOAD DUP2 PUSH20 0xFFFFFFFFFFFFFFFFFFFFFFFFFFFFFFFFFFFFFFFF MUL NOT AND SWAP1 DUP4 PUSH20 0xFFFFFFFFFFFFFFFFFFFFFFFFFFFFFFFFFFFFFFFF AND MUL OR SWAP1 SSTORE POP DUP1 PUSH1 0x1 PUSH1 0x0 PUSH2 0x100 EXP DUP2 SLOAD DUP2 PUSH20 0xFFFFFFFFFFFFFFFFFFFFFFFFFFFFFFFFFFFFFFFF MUL NOT AND SWAP1 DUP4 PUSH20 0xFFFFFFFFFFFFFFFFFFFFFFFFFFFFFFFFFFFFFFFF AND MUL OR SWAP1 SSTORE POP DUP2 PUSH1 0x2 PUSH1 0x0 PUSH2 0x100 EXP DUP2 SLOAD DUP2 PUSH20 0xFFFFFFFFFFFFFFFFFFFFFFFFFFFFFFFFFFFFFFFF MUL NOT AND SWAP1 DUP4 PUSH20 0xFFFFFFFFFFFFFFFFFFFFFFFFFFFFFFFFFFFFFFFF AND MUL OR SWAP1 SSTORE POP PUSH1 0x40 MLOAD DUP1 PUSH1 0x60 ADD PUSH1 0x40 MSTORE DUP1 DUP7 PUSH20 0xFFFFFFFFFFFFFFFFFFFFFFFFFFFFFFFFFFFFFFFF AND PUSH20 0xFFFFFFFFFFFFFFFFFFFFFFFFFFFFFFFFFFFFFFFF AND DUP2 MSTORE PUSH1 0x20 ADD DUP6 PUSH20 0xFFFFFFFFFFFFFFFFFFFFFFFFFFFFFFFFFFFFFFFF AND PUSH20 0xFFFFFFFFFFFFFFFFFFFFFFFFFFFFFFFFFFFFFFFF AND DUP2 MSTORE PUSH1 0x20 ADD DUP5 PUSH20 0xFFFFFFFFFFFFFFFFFFFFFFFFFFFFFFFFFFFFFFFF AND PUSH20 0xFFFFFFFFFFFFFFFFFFFFFFFFFFFFFFFFFFFFFFFF AND DUP2 MSTORE POP PUSH1 0x3 SWAP1 PUSH1 0x3 PUSH3 0x26B SWAP3 SWAP2 SWAP1 PUSH3 0x725 JUMP JUMPDEST POP PUSH1 0x64 PUSH1 0x50 PUSH1 0x12 SLOAD PUSH3 0x27F SWAP2 SWAP1 PUSH3 0x8E0 JUMP JUMPDEST PUSH3 0x28B SWAP2 SWAP1 PUSH3 0x970 JUMP JUMPDEST PUSH1 0x8 PUSH1 0x0 PUSH1 0x1 DUP2 MSTORE PUSH1 0x20 ADD SWAP1 DUP2 MSTORE PUSH1 0x20 ADD PUSH1 0x0 KECCAK256 DUP2 SWAP1 SSTORE POP PUSH1 0x2 PUSH1 0x8 PUSH1 0x0 PUSH1 0x1 DUP2 MSTORE PUSH1 0x20 ADD SWAP1 DUP2 MSTORE PUSH1 0x20 ADD PUSH1 0x0 KECCAK256 SLOAD PUSH3 0x2C6 SWAP2 SWAP1 PUSH3 0x8E0 JUMP JUMPDEST PUSH1 0x8 PUSH1 0x0 PUSH1 0x2 DUP2 MSTORE PUSH1 0x20 ADD SWAP1 DUP2 MSTORE PUSH1 0x20 ADD PUSH1 0x0 KECCAK256 DUP2 SWAP1 SSTORE POP PUSH1 0x2 PUSH1 0x8 PUSH1 0x0 PUSH1 0x2 DUP2 MSTORE PUSH1 0x20 ADD SWAP1 DUP2 MSTORE PUSH1 0x20 ADD PUSH1 0x0 KECCAK256 SLOAD PUSH3 0x301 SWAP2 SWAP1 PUSH3 0x8E0 JUMP JUMPDEST PUSH1 0x8 PUSH1 0x0 PUSH1 0x3 DUP2 MSTORE PUSH1 0x20 ADD SWAP1 DUP2 MSTORE PUSH1 0x20 ADD PUSH1 0x0 KECCAK256 DUP2 SWAP1 SSTORE POP PUSH1 0x2 PUSH1 0x8 PUSH1 0x0 PUSH1 0x3 DUP2 MSTORE PUSH1 0x20 ADD SWAP1 DUP2 MSTORE PUSH1 0x20 ADD PUSH1 0x0 KECCAK256 SLOAD PUSH3 0x33C SWAP2 SWAP1 PUSH3 0x8E0 JUMP JUMPDEST PUSH1 0x8 PUSH1 0x0 PUSH1 0x4 DUP2 MSTORE PUSH1 0x20 ADD SWAP1 DUP2 MSTORE PUSH1 0x20 ADD PUSH1 0x0 KECCAK256 DUP2 SWAP1 SSTORE POP PUSH1 0x2 PUSH1 0x8 PUSH1 0x0 PUSH1 0x4 DUP2 MSTORE PUSH1 0x20 ADD SWAP1 DUP2 MSTORE PUSH1 0x20 ADD PUSH1 0x0 KECCAK256 SLOAD PUSH3 0x377 SWAP2 SWAP1 PUSH3 0x8E0 JUMP JUMPDEST PUSH1 0x8 PUSH1 0x0 PUSH1 0x5 DUP2 MSTORE PUSH1 0x20 ADD SWAP1 DUP2 MSTORE PUSH1 0x20 ADD PUSH1 0x0 KECCAK256 DUP2 SWAP1 SSTORE POP PUSH1 0x2 PUSH1 0x8 PUSH1 0x0 PUSH1 0x5 DUP2 MSTORE PUSH1 0x20 ADD SWAP1 DUP2 MSTORE PUSH1 0x20 ADD PUSH1 0x0 KECCAK256 SLOAD PUSH3 0x3B2 SWAP2 SWAP1 PUSH3 0x8E0 JUMP JUMPDEST PUSH1 0x8 PUSH1 0x0 PUSH1 0x6 DUP2 MSTORE PUSH1 0x20 ADD SWAP1 DUP2 MSTORE PUSH1 0x20 ADD PUSH1 0x0 KECCAK256 DUP2 SWAP1 SSTORE POP PUSH1 0x2 PUSH1 0x8 PUSH1 0x0 PUSH1 0x6 DUP2 MSTORE PUSH1 0x20 ADD SWAP1 DUP2 MSTORE PUSH1 0x20 ADD PUSH1 0x0 KECCAK256 SLOAD PUSH3 0x3ED SWAP2 SWAP1 PUSH3 0x8E0 JUMP JUMPDEST PUSH1 0x8 PUSH1 0x0 PUSH1 0x7 DUP2 MSTORE PUSH1 0x20 ADD SWAP1 DUP2 MSTORE PUSH1 0x20 ADD PUSH1 0x0 KECCAK256 DUP2 SWAP1 SSTORE POP PUSH1 0x2 PUSH1 0x8 PUSH1 0x0 PUSH1 0x7 DUP2 MSTORE PUSH1 0x20 ADD SWAP1 DUP2 MSTORE PUSH1 0x20 ADD PUSH1 0x0 KECCAK256 SLOAD PUSH3 0x428 SWAP2 SWAP1 PUSH3 0x8E0 JUMP JUMPDEST PUSH1 0x8 PUSH1 0x0 PUSH1 0x8 DUP2 MSTORE PUSH1 0x20 ADD SWAP1 DUP2 MSTORE PUSH1 0x20 ADD PUSH1 0x0 KECCAK256 DUP2 SWAP1 SSTORE POP PUSH1 0x2 PUSH1 0x8 PUSH1 0x0 PUSH1 0x8 DUP2 MSTORE PUSH1 0x20 ADD SWAP1 DUP2 MSTORE PUSH1 0x20 ADD PUSH1 0x0 KECCAK256 SLOAD PUSH3 0x463 SWAP2 SWAP1 PUSH3 0x8E0 JUMP JUMPDEST PUSH1 0x8 PUSH1 0x0 PUSH1 0x9 DUP2 MSTORE PUSH1 0x20 ADD SWAP1 DUP2 MSTORE PUSH1 0x20 ADD PUSH1 0x0 KECCAK256 DUP2 SWAP1 SSTORE POP PUSH1 0x0 PUSH1 0x9 PUSH1 0x0 DUP1 PUSH1 0x0 SWAP1 SLOAD SWAP1 PUSH2 0x100 EXP SWAP1 DIV PUSH20 0xFFFFFFFFFFFFFFFFFFFFFFFFFFFFFFFFFFFFFFFF AND PUSH20 0xFFFFFFFFFFFFFFFFFFFFFFFFFFFFFFFFFFFFFFFF AND PUSH20 0xFFFFFFFFFFFFFFFFFFFFFFFFFFFFFFFFFFFFFFFF AND DUP2 MSTORE PUSH1 0x20 ADD SWAP1 DUP2 MSTORE PUSH1 0x20 ADD PUSH1 0x0 KECCAK256 SWAP1 POP PUSH1 0x1 DUP2 PUSH1 0x0 ADD PUSH1 0x0 PUSH2 0x100 EXP DUP2 SLOAD DUP2 PUSH1 0xFF MUL NOT AND SWAP1 DUP4 ISZERO ISZERO MUL OR SWAP1 SSTORE POP PUSH1 0xE SLOAD DUP2 PUSH1 0x1 ADD DUP2 SWAP1 SSTORE POP PUSH1 0x0 DUP2 PUSH1 0x2 ADD DUP2 SWAP1 SSTORE POP PUSH1 0x0 PUSH8 0xFFFFFFFFFFFFFFFF DUP2 GT ISZERO PUSH3 0x52F JUMPI PUSH3 0x52E PUSH3 0xA9A JUMP JUMPDEST JUMPDEST PUSH1 0x40 MLOAD SWAP1 DUP1 DUP3 MSTORE DUP1 PUSH1 0x20 MUL PUSH1 0x20 ADD DUP3 ADD PUSH1 0x40 MSTORE DUP1 ISZERO PUSH3 0x55E JUMPI DUP2 PUSH1 0x20 ADD PUSH1 0x20 DUP3 MUL DUP1 CALLDATASIZE DUP4 CALLDATACOPY DUP1 DUP3 ADD SWAP2 POP POP SWAP1 POP JUMPDEST POP DUP2 PUSH1 0x3 ADD SWAP1 DUP1 MLOAD SWAP1 PUSH1 0x20 ADD SWAP1 PUSH3 0x578 SWAP3 SWAP2 SWAP1 PUSH3 0x7A7 JUMP JUMPDEST POP TIMESTAMP DUP2 PUSH1 0x4 ADD DUP2 SWAP1 SSTORE POP PUSH1 0x0 PUSH8 0xFFFFFFFFFFFFFFFF DUP2 GT ISZERO PUSH3 0x5A0 JUMPI PUSH3 0x59F PUSH3 0xA9A JUMP JUMPDEST JUMPDEST PUSH1 0x40 MLOAD SWAP1 DUP1 DUP3 MSTORE DUP1 PUSH1 0x20 MUL PUSH1 0x20 ADD DUP3 ADD PUSH1 0x40 MSTORE DUP1 ISZERO PUSH3 0x5CF JUMPI DUP2 PUSH1 0x20 ADD PUSH1 0x20 DUP3 MUL DUP1 CALLDATASIZE DUP4 CALLDATACOPY DUP1 DUP3 ADD SWAP2 POP POP SWAP1 POP JUMPDEST POP DUP2 PUSH1 0x6 ADD SWAP1 DUP1 MLOAD SWAP1 PUSH1 0x20 ADD SWAP1 PUSH3 0x5E9 SWAP3 SWAP2 SWAP1 PUSH3 0x836 JUMP JUMPDEST POP PUSH1 0xE PUSH1 0x0 DUP2 SLOAD DUP1 SWAP3 SWAP2 SWAP1 PUSH3 0x5FF SWAP1 PUSH3 0xAC9 JUMP JUMPDEST SWAP2 SWAP1 POP SSTORE POP PUSH1 0x0 DUP1 SLOAD SWAP1 PUSH2 0x100 EXP SWAP1 DIV PUSH20 0xFFFFFFFFFFFFFFFFFFFFFFFFFFFFFFFFFFFFFFFF AND PUSH1 0xA PUSH1 0x0 PUSH1 0xE SLOAD DUP2 MSTORE PUSH1 0x20 ADD SWAP1 DUP2 MSTORE PUSH1 0x20 ADD PUSH1 0x0 KECCAK256 PUSH1 0x0 PUSH2 0x100 EXP DUP2 SLOAD DUP2 PUSH20 0xFFFFFFFFFFFFFFFFFFFFFFFFFFFFFFFFFFFFFFFF MUL NOT AND SWAP1 DUP4 PUSH20 0xFFFFFFFFFFFFFFFFFFFFFFFFFFFFFFFFFFFFFFFF AND MUL OR SWAP1 SSTORE POP POP POP POP POP POP POP PUSH3 0xB17 JUMP JUMPDEST DUP3 PUSH1 0x4 PUSH1 0x1F ADD PUSH1 0x20 SWAP1 DIV DUP2 ADD SWAP3 DUP3 ISZERO PUSH3 0x712 JUMPI SWAP2 PUSH1 0x20 MUL DUP3 ADD PUSH1 0x0 JUMPDEST DUP4 DUP3 GT ISZERO PUSH3 0x6E1 JUMPI DUP4 MLOAD DUP4 DUP3 PUSH2 0x100 EXP DUP2 SLOAD DUP2 PUSH1 0xFF MUL NOT AND SWAP1 DUP4 PUSH1 0xFF AND MUL OR SWAP1 SSTORE POP SWAP3 PUSH1 0x20 ADD SWAP3 PUSH1 0x1 ADD PUSH1 0x20 DUP2 PUSH1 0x0 ADD DIV SWAP3 DUP4 ADD SWAP3 PUSH1 0x1 SUB MUL PUSH3 0x6A1 JUMP JUMPDEST DUP1 ISZERO PUSH3 0x710 JUMPI DUP3 DUP2 PUSH2 0x100 EXP DUP2 SLOAD SWAP1 PUSH1 0xFF MUL NOT AND SWAP1 SSTORE PUSH1 0x1 ADD PUSH1 0x20 DUP2 PUSH1 0x0 ADD DIV SWAP3 DUP4 ADD SWAP3 PUSH1 0x1 SUB MUL PUSH3 0x6E1 JUMP JUMPDEST POP JUMPDEST POP SWAP1 POP PUSH3 0x721 SWAP2 SWAP1 PUSH3 0x888 JUMP JUMPDEST POP SWAP1 JUMP JUMPDEST DUP3 PUSH1 0x4 DUP2 ADD SWAP3 DUP3 ISZERO PUSH3 0x794 JUMPI SWAP2 PUSH1 0x20 MUL DUP3 ADD JUMPDEST DUP3 DUP2 GT ISZERO PUSH3 0x793 JUMPI DUP3 MLOAD DUP3 PUSH1 0x0 PUSH2 0x100 EXP DUP2 SLOAD DUP2 PUSH20 0xFFFFFFFFFFFFFFFFFFFFFFFFFFFFFFFFFFFFFFFF MUL NOT AND SWAP1 DUP4 PUSH20 0xFFFFFFFFFFFFFFFFFFFFFFFFFFFFFFFFFFFFFFFF AND MUL OR SWAP1 SSTORE POP SWAP2 PUSH1 0x20 ADD SWAP2 SWAP1 PUSH1 0x1 ADD SWAP1 PUSH3 0x739 JUMP JUMPDEST JUMPDEST POP SWAP1 POP PUSH3 0x7A3 SWAP2 SWAP1 PUSH3 0x888 JUMP JUMPDEST POP SWAP1 JUMP JUMPDEST DUP3 DUP1 SLOAD DUP3 DUP3 SSTORE SWAP1 PUSH1 0x0 MSTORE PUSH1 0x20 PUSH1 0x0 KECCAK256 SWAP1 DUP2 ADD SWAP3 DUP3 ISZERO PUSH3 0x823 JUMPI SWAP2 PUSH1 0x20 MUL DUP3 ADD JUMPDEST DUP3 DUP2 GT ISZERO PUSH3 0x822 JUMPI DUP3 MLOAD DUP3 PUSH1 0x0 PUSH2 0x100 EXP DUP2 SLOAD DUP2 PUSH20 0xFFFFFFFFFFFFFFFFFFFFFFFFFFFFFFFFFFFFFFFF MUL NOT AND SWAP1 DUP4 PUSH20 0xFFFFFFFFFFFFFFFFFFFFFFFFFFFFFFFFFFFFFFFF AND MUL OR SWAP1 SSTORE POP SWAP2 PUSH1 0x20 ADD SWAP2 SWAP1 PUSH1 0x1 ADD SWAP1 PUSH3 0x7C8 JUMP JUMPDEST JUMPDEST POP SWAP1 POP PUSH3 0x832 SWAP2 SWAP1 PUSH3 0x888 JUMP JUMPDEST POP SWAP1 JUMP JUMPDEST DUP3 DUP1 SLOAD DUP3 DUP3 SSTORE SWAP1 PUSH1 0x0 MSTORE PUSH1 0x20 PUSH1 0x0 KECCAK256 SWAP1 DUP2 ADD SWAP3 DUP3 ISZERO PUSH3 0x875 JUMPI SWAP2 PUSH1 0x20 MUL DUP3 ADD JUMPDEST DUP3 DUP2 GT ISZERO PUSH3 0x874 JUMPI DUP3 MLOAD DUP3 SSTORE SWAP2 PUSH1 0x20 ADD SWAP2 SWAP1 PUSH1 0x1 ADD SWAP1 PUSH3 0x857 JUMP JUMPDEST JUMPDEST POP SWAP1 POP PUSH3 0x884 SWAP2 SWAP1 PUSH3 0x888 JUMP JUMPDEST POP SWAP1 JUMP JUMPDEST JUMPDEST DUP1 DUP3 GT ISZERO PUSH3 0x8A3 JUMPI PUSH1 0x0 DUP2 PUSH1 0x0 SWAP1 SSTORE POP PUSH1 0x1 ADD PUSH3 0x889 JUMP JUMPDEST POP SWAP1 JUMP JUMPDEST PUSH1 0x0 DUP2 SWAP1 POP SWAP2 SWAP1 POP JUMP JUMPDEST PUSH32 0x4E487B7100000000000000000000000000000000000000000000000000000000 PUSH1 0x0 MSTORE PUSH1 0x11 PUSH1 0x4 MSTORE PUSH1 0x24 PUSH1 0x0 REVERT JUMPDEST PUSH1 0x0 PUSH3 0x8ED DUP3 PUSH3 0x8A7 JUMP JUMPDEST SWAP2 POP PUSH3 0x8FA DUP4 PUSH3 0x8A7 JUMP JUMPDEST SWAP3 POP DUP2 PUSH32 0xFFFFFFFFFFFFFFFFFFFFFFFFFFFFFFFFFFFFFFFFFFFFFFFFFFFFFFFFFFFFFFFF DIV DUP4 GT DUP3 ISZERO ISZERO AND ISZERO PUSH3 0x936 JUMPI PUSH3 0x935 PUSH3 0x8B1 JUMP JUMPDEST JUMPDEST DUP3 DUP3 MUL SWAP1 POP SWAP3 SWAP2 POP POP JUMP JUMPDEST PUSH32 0x4E487B7100000000000000000000000000000000000000000000000000000000 PUSH1 0x0 MSTORE PUSH1 0x12 PUSH1 0x4 MSTORE PUSH1 0x24 PUSH1 0x0 REVERT JUMPDEST PUSH1 0x0 PUSH3 0x97D DUP3 PUSH3 0x8A7 JUMP JUMPDEST SWAP2 POP PUSH3 0x98A DUP4 PUSH3 0x8A7 JUMP JUMPDEST SWAP3 POP DUP3 PUSH3 0x99D JUMPI PUSH3 0x99C PUSH3 0x941 JUMP JUMPDEST JUMPDEST DUP3 DUP3 DIV SWAP1 POP SWAP3 SWAP2 POP POP JUMP JUMPDEST PUSH1 0x0 DUP1 REVERT JUMPDEST PUSH1 0x0 PUSH20 0xFFFFFFFFFFFFFFFFFFFFFFFFFFFFFFFFFFFFFFFF DUP3 AND SWAP1 POP SWAP2 SWAP1 POP JUMP JUMPDEST PUSH1 0x0 PUSH3 0x9DA DUP3 PUSH3 0x9AD JUMP JUMPDEST SWAP1 POP SWAP2 SWAP1 POP JUMP JUMPDEST PUSH3 0x9EC DUP2 PUSH3 0x9CD JUMP JUMPDEST DUP2 EQ PUSH3 0x9F8 JUMPI PUSH1 0x0 DUP1 REVERT JUMPDEST POP JUMP JUMPDEST PUSH1 0x0 DUP2 MLOAD SWAP1 POP PUSH3 0xA0C DUP2 PUSH3 0x9E1 JUMP JUMPDEST SWAP3 SWAP2 POP POP JUMP JUMPDEST PUSH1 0x0 DUP1 PUSH1 0x0 DUP1 PUSH1 0x0 PUSH1 0xA0 DUP7 DUP9 SUB SLT ISZERO PUSH3 0xA31 JUMPI PUSH3 0xA30 PUSH3 0x9A8 JUMP JUMPDEST JUMPDEST PUSH1 0x0 PUSH3 0xA41 DUP9 DUP3 DUP10 ADD PUSH3 0x9FB JUMP JUMPDEST SWAP6 POP POP PUSH1 0x20 PUSH3 0xA54 DUP9 DUP3 DUP10 ADD PUSH3 0x9FB JUMP JUMPDEST SWAP5 POP POP PUSH1 0x40 PUSH3 0xA67 DUP9 DUP3 DUP10 ADD PUSH3 0x9FB JUMP JUMPDEST SWAP4 POP POP PUSH1 0x60 PUSH3 0xA7A DUP9 DUP3 DUP10 ADD PUSH3 0x9FB JUMP JUMPDEST SWAP3 POP POP PUSH1 0x80 PUSH3 0xA8D DUP9 DUP3 DUP10 ADD PUSH3 0x9FB JUMP JUMPDEST SWAP2 POP POP SWAP3 SWAP6 POP SWAP3 SWAP6 SWAP1 SWAP4 POP JUMP JUMPDEST PUSH32 0x4E487B7100000000000000000000000000000000000000000000000000000000 PUSH1 0x0 MSTORE PUSH1 0x41 PUSH1 0x4 MSTORE PUSH1 0x24 PUSH1 0x0 REVERT JUMPDEST PUSH1 0x0 PUSH3 0xAD6 DUP3 PUSH3 0x8A7 JUMP JUMPDEST SWAP2 POP PUSH32 0xFFFFFFFFFFFFFFFFFFFFFFFFFFFFFFFFFFFFFFFFFFFFFFFFFFFFFFFFFFFFFFFF DUP3 EQ ISZERO PUSH3 0xB0C JUMPI PUSH3 0xB0B PUSH3 0x8B1 JUMP JUMPDEST JUMPDEST PUSH1 0x1 DUP3 ADD SWAP1 POP SWAP2 SWAP1 POP JUMP JUMPDEST PUSH2 0x47C6 DUP1 PUSH3 0xB27 PUSH1 0x0 CODECOPY PUSH1 0x0 RETURN INVALID PUSH1 0x80 PUSH1 0x40 MSTORE PUSH1 0x4 CALLDATASIZE LT PUSH2 0x12A JUMPI PUSH1 0x0 CALLDATALOAD PUSH1 0xE0 SHR DUP1 PUSH4 0x8853B53E GT PUSH2 0xAB JUMPI DUP1 PUSH4 0xA4BB170D GT PUSH2 0x6F JUMPI DUP1 PUSH4 0xA4BB170D EQ PUSH2 0x449 JUMPI DUP1 PUSH4 0xA87430BA EQ PUSH2 0x474 JUMPI DUP1 PUSH4 0xAA24C5C5 EQ PUSH2 0x4B4 JUMPI DUP1 PUSH4 0xBBF57068 EQ PUSH2 0x4F1 JUMPI DUP1 PUSH4 0xC15DEC85 EQ PUSH2 0x52E JUMPI DUP1 PUSH4 0xF7BBFCCD EQ PUSH2 0x559 JUMPI PUSH2 0x12A JUMP JUMPDEST DUP1 PUSH4 0x8853B53E EQ PUSH2 0x35B JUMPI DUP1 PUSH4 0x992C85D2 EQ PUSH2 0x38B JUMPI DUP1 PUSH4 0x99CBD74F EQ PUSH2 0x3B6 JUMPI DUP1 PUSH4 0x9F4216E8 EQ PUSH2 0x3E1 JUMPI DUP1 PUSH4 0xA457C050 EQ PUSH2 0x41E JUMPI PUSH2 0x12A JUMP JUMPDEST DUP1 PUSH4 0x5E8A7069 GT PUSH2 0xF2 JUMPI DUP1 PUSH4 0x5E8A7069 EQ PUSH2 0x24E JUMPI DUP1 PUSH4 0x6043DDAD EQ PUSH2 0x279 JUMPI DUP1 PUSH4 0x6158FA00 EQ PUSH2 0x2B6 JUMPI DUP1 PUSH4 0x6F9FB98A EQ PUSH2 0x2F3 JUMPI DUP1 PUSH4 0x79378E30 EQ PUSH2 0x31E JUMPI PUSH2 0x12A JUMP JUMPDEST DUP1 PUSH4 0x10E4077A EQ PUSH2 0x12F JUMPI DUP1 PUSH4 0x36B19CD7 EQ PUSH2 0x16C JUMPI DUP1 PUSH4 0x43F6753C EQ PUSH2 0x197 JUMPI DUP1 PUSH4 0x4D948BEA EQ PUSH2 0x1D4 JUMPI DUP1 PUSH4 0x575CEA6B EQ PUSH2 0x211 JUMPI JUMPDEST PUSH1 0x0 DUP1 REVERT JUMPDEST CALLVALUE DUP1 ISZERO PUSH2 0x13B JUMPI PUSH1 0x0 DUP1 REVERT JUMPDEST POP PUSH2 0x156 PUSH1 0x4 DUP1 CALLDATASIZE SUB DUP2 ADD SWAP1 PUSH2 0x151 SWAP2 SWAP1 PUSH2 0x3D80 JUMP JUMPDEST PUSH2 0x582 JUMP JUMPDEST PUSH1 0x40 MLOAD PUSH2 0x163 SWAP2 SWAP1 PUSH2 0x3DEE JUMP JUMPDEST PUSH1 0x40 MLOAD DUP1 SWAP2 SUB SWAP1 RETURN JUMPDEST CALLVALUE DUP1 ISZERO PUSH2 0x178 JUMPI PUSH1 0x0 DUP1 REVERT JUMPDEST POP PUSH2 0x181 PUSH2 0x5B8 JUMP JUMPDEST PUSH1 0x40 MLOAD PUSH2 0x18E SWAP2 SWAP1 PUSH2 0x3DEE JUMP JUMPDEST PUSH1 0x40 MLOAD DUP1 SWAP2 SUB SWAP1 RETURN JUMPDEST CALLVALUE DUP1 ISZERO PUSH2 0x1A3 JUMPI PUSH1 0x0 DUP1 REVERT JUMPDEST POP PUSH2 0x1BE PUSH1 0x4 DUP1 CALLDATASIZE SUB DUP2 ADD SWAP1 PUSH2 0x1B9 SWAP2 SWAP1 PUSH2 0x3E35 JUMP JUMPDEST PUSH2 0x5DC JUMP JUMPDEST PUSH1 0x40 MLOAD PUSH2 0x1CB SWAP2 SWAP1 PUSH2 0x3DEE JUMP JUMPDEST PUSH1 0x40 MLOAD DUP1 SWAP2 SUB SWAP1 RETURN JUMPDEST CALLVALUE DUP1 ISZERO PUSH2 0x1E0 JUMPI PUSH1 0x0 DUP1 REVERT JUMPDEST POP PUSH2 0x1FB PUSH1 0x4 DUP1 CALLDATASIZE SUB DUP2 ADD SWAP1 PUSH2 0x1F6 SWAP2 SWAP1 PUSH2 0x3E35 JUMP JUMPDEST PUSH2 0x61E JUMP JUMPDEST PUSH1 0x40 MLOAD PUSH2 0x208 SWAP2 SWAP1 PUSH2 0x3E90 JUMP JUMPDEST PUSH1 0x40 MLOAD DUP1 SWAP2 SUB SWAP1 RETURN JUMPDEST CALLVALUE DUP1 ISZERO PUSH2 0x21D JUMPI PUSH1 0x0 DUP1 REVERT JUMPDEST POP PUSH2 0x238 PUSH1 0x4 DUP1 CALLDATASIZE SUB DUP2 ADD SWAP1 PUSH2 0x233 SWAP2 SWAP1 PUSH2 0x3EAB JUMP JUMPDEST PUSH2 0x64D JUMP JUMPDEST PUSH1 0x40 MLOAD PUSH2 0x245 SWAP2 SWAP1 PUSH2 0x3F96 JUMP JUMPDEST PUSH1 0x40 MLOAD DUP1 SWAP2 SUB SWAP1 RETURN JUMPDEST CALLVALUE DUP1 ISZERO PUSH2 0x25A JUMPI PUSH1 0x0 DUP1 REVERT JUMPDEST POP PUSH2 0x263 PUSH2 0x71D JUMP JUMPDEST PUSH1 0x40 MLOAD PUSH2 0x270 SWAP2 SWAP1 PUSH2 0x3E90 JUMP JUMPDEST PUSH1 0x40 MLOAD DUP1 SWAP2 SUB SWAP1 RETURN JUMPDEST CALLVALUE DUP1 ISZERO PUSH2 0x285 JUMPI PUSH1 0x0 DUP1 REVERT JUMPDEST POP PUSH2 0x2A0 PUSH1 0x4 DUP1 CALLDATASIZE SUB DUP2 ADD SWAP1 PUSH2 0x29B SWAP2 SWAP1 PUSH2 0x3D80 JUMP JUMPDEST PUSH2 0x886 JUMP JUMPDEST PUSH1 0x40 MLOAD PUSH2 0x2AD SWAP2 SWAP1 PUSH2 0x3FD4 JUMP JUMPDEST PUSH1 0x40 MLOAD DUP1 SWAP2 SUB SWAP1 RETURN JUMPDEST CALLVALUE DUP1 ISZERO PUSH2 0x2C2 JUMPI PUSH1 0x0 DUP1 REVERT JUMPDEST POP PUSH2 0x2DD PUSH1 0x4 DUP1 CALLDATASIZE SUB DUP2 ADD SWAP1 PUSH2 0x2D8 SWAP2 SWAP1 PUSH2 0x3EAB JUMP JUMPDEST PUSH2 0x8B0 JUMP JUMPDEST PUSH1 0x40 MLOAD PUSH2 0x2EA SWAP2 SWAP1 PUSH2 0x40AD JUMP JUMPDEST PUSH1 0x40 MLOAD DUP1 SWAP2 SUB SWAP1 RETURN JUMPDEST CALLVALUE DUP1 ISZERO PUSH2 0x2FF JUMPI PUSH1 0x0 DUP1 REVERT JUMPDEST POP PUSH2 0x308 PUSH2 0x94A JUMP JUMPDEST PUSH1 0x40 MLOAD PUSH2 0x315 SWAP2 SWAP1 PUSH2 0x40DE JUMP JUMPDEST PUSH1 0x40 MLOAD DUP1 SWAP2 SUB SWAP1 RETURN JUMPDEST CALLVALUE DUP1 ISZERO PUSH2 0x32A JUMPI PUSH1 0x0 DUP1 REVERT JUMPDEST POP PUSH2 0x345 PUSH1 0x4 DUP1 CALLDATASIZE SUB DUP2 ADD SWAP1 PUSH2 0x340 SWAP2 SWAP1 PUSH2 0x3D80 JUMP JUMPDEST PUSH2 0x960 JUMP JUMPDEST PUSH1 0x40 MLOAD PUSH2 0x352 SWAP2 SWAP1 PUSH2 0x40DE JUMP JUMPDEST PUSH1 0x40 MLOAD DUP1 SWAP2 SUB SWAP1 RETURN JUMPDEST PUSH2 0x375 PUSH1 0x4 DUP1 CALLDATASIZE SUB DUP2 ADD SWAP1 PUSH2 0x370 SWAP2 SWAP1 PUSH2 0x3D80 JUMP JUMPDEST PUSH2 0x978 JUMP JUMPDEST PUSH1 0x40 MLOAD PUSH2 0x382 SWAP2 SWAP1 PUSH2 0x3E90 JUMP JUMPDEST PUSH1 0x40 MLOAD DUP1 SWAP2 SUB SWAP1 RETURN JUMPDEST CALLVALUE DUP1 ISZERO PUSH2 0x397 JUMPI PUSH1 0x0 DUP1 REVERT JUMPDEST POP PUSH2 0x3A0 PUSH2 0x113E JUMP JUMPDEST PUSH1 0x40 MLOAD PUSH2 0x3AD SWAP2 SWAP1 PUSH2 0x3DEE JUMP JUMPDEST PUSH1 0x40 MLOAD DUP1 SWAP2 SUB SWAP1 RETURN JUMPDEST CALLVALUE DUP1 ISZERO PUSH2 0x3C2 JUMPI PUSH1 0x0 DUP1 REVERT JUMPDEST POP PUSH2 0x3CB PUSH2 0x1164 JUMP JUMPDEST PUSH1 0x40 MLOAD PUSH2 0x3D8 SWAP2 SWAP1 PUSH2 0x3E90 JUMP JUMPDEST PUSH1 0x40 MLOAD DUP1 SWAP2 SUB SWAP1 RETURN JUMPDEST CALLVALUE DUP1 ISZERO PUSH2 0x3ED JUMPI PUSH1 0x0 DUP1 REVERT JUMPDEST POP PUSH2 0x408 PUSH1 0x4 DUP1 CALLDATASIZE SUB DUP2 ADD SWAP1 PUSH2 0x403 SWAP2 SWAP1 PUSH2 0x3D80 JUMP JUMPDEST PUSH2 0x1348 JUMP JUMPDEST PUSH1 0x40 MLOAD PUSH2 0x415 SWAP2 SWAP1 PUSH2 0x3DEE JUMP JUMPDEST PUSH1 0x40 MLOAD DUP1 SWAP2 SUB SWAP1 RETURN JUMPDEST CALLVALUE DUP1 ISZERO PUSH2 0x42A JUMPI PUSH1 0x0 DUP1 REVERT JUMPDEST POP PUSH2 0x433 PUSH2 0x137B JUMP JUMPDEST PUSH1 0x40 MLOAD PUSH2 0x440 SWAP2 SWAP1 PUSH2 0x3E90 JUMP JUMPDEST PUSH1 0x40 MLOAD DUP1 SWAP2 SUB SWAP1 RETURN JUMPDEST CALLVALUE DUP1 ISZERO PUSH2 0x455 JUMPI PUSH1 0x0 DUP1 REVERT JUMPDEST POP PUSH2 0x45E PUSH2 0x14E4 JUMP JUMPDEST PUSH1 0x40 MLOAD PUSH2 0x46B SWAP2 SWAP1 PUSH2 0x40DE JUMP JUMPDEST PUSH1 0x40 MLOAD DUP1 SWAP2 SUB SWAP1 RETURN JUMPDEST CALLVALUE DUP1 ISZERO PUSH2 0x480 JUMPI PUSH1 0x0 DUP1 REVERT JUMPDEST POP PUSH2 0x49B PUSH1 0x4 DUP1 CALLDATASIZE SUB DUP2 ADD SWAP1 PUSH2 0x496 SWAP2 SWAP1 PUSH2 0x3EAB JUMP JUMPDEST PUSH2 0x14EA JUMP JUMPDEST PUSH1 0x40 MLOAD PUSH2 0x4AB SWAP5 SWAP4 SWAP3 SWAP2 SWAP1 PUSH2 0x40F9 JUMP JUMPDEST PUSH1 0x40 MLOAD DUP1 SWAP2 SUB SWAP1 RETURN JUMPDEST CALLVALUE DUP1 ISZERO PUSH2 0x4C0 JUMPI PUSH1 0x0 DUP1 REVERT JUMPDEST POP PUSH2 0x4DB PUSH1 0x4 DUP1 CALLDATASIZE SUB DUP2 ADD SWAP1 PUSH2 0x4D6 SWAP2 SWAP1 PUSH2 0x413E JUMP JUMPDEST PUSH2 0x1527 JUMP JUMPDEST PUSH1 0x40 MLOAD PUSH2 0x4E8 SWAP2 SWAP1 PUSH2 0x40DE JUMP JUMPDEST PUSH1 0x40 MLOAD DUP1 SWAP2 SUB SWAP1 RETURN JUMPDEST CALLVALUE DUP1 ISZERO PUSH2 0x4FD JUMPI PUSH1 0x0 DUP1 REVERT JUMPDEST POP PUSH2 0x518 PUSH1 0x4 DUP1 CALLDATASIZE SUB DUP2 ADD SWAP1 PUSH2 0x513 SWAP2 SWAP1 PUSH2 0x3E35 JUMP JUMPDEST PUSH2 0x1585 JUMP JUMPDEST PUSH1 0x40 MLOAD PUSH2 0x525 SWAP2 SWAP1 PUSH2 0x40DE JUMP JUMPDEST PUSH1 0x40 MLOAD DUP1 SWAP2 SUB SWAP1 RETURN JUMPDEST CALLVALUE DUP1 ISZERO PUSH2 0x53A JUMPI PUSH1 0x0 DUP1 REVERT JUMPDEST POP PUSH2 0x543 PUSH2 0x15AA JUMP JUMPDEST PUSH1 0x40 MLOAD PUSH2 0x550 SWAP2 SWAP1 PUSH2 0x3DEE JUMP JUMPDEST PUSH1 0x40 MLOAD DUP1 SWAP2 SUB SWAP1 RETURN JUMPDEST CALLVALUE DUP1 ISZERO PUSH2 0x565 JUMPI PUSH1 0x0 DUP1 REVERT JUMPDEST POP PUSH2 0x580 PUSH1 0x4 DUP1 CALLDATASIZE SUB DUP2 ADD SWAP1 PUSH2 0x57B SWAP2 SWAP1 PUSH2 0x413E JUMP JUMPDEST PUSH2 0x15D0 JUMP JUMPDEST STOP JUMPDEST PUSH1 0x3 DUP2 PUSH1 0x4 DUP2 LT PUSH2 0x592 JUMPI PUSH1 0x0 DUP1 REVERT JUMPDEST ADD PUSH1 0x0 SWAP2 POP SLOAD SWAP1 PUSH2 0x100 EXP SWAP1 DIV PUSH20 0xFFFFFFFFFFFFFFFFFFFFFFFFFFFFFFFFFFFFFFFF AND DUP2 JUMP JUMPDEST PUSH1 0x0 DUP1 SLOAD SWAP1 PUSH2 0x100 EXP SWAP1 DIV PUSH20 0xFFFFFFFFFFFFFFFFFFFFFFFFFFFFFFFFFFFFFFFF AND DUP2 JUMP JUMPDEST PUSH1 0xC PUSH1 0x20 MSTORE DUP2 PUSH1 0x0 MSTORE PUSH1 0x40 PUSH1 0x0 KECCAK256 PUSH1 0x20 MSTORE DUP1 PUSH1 0x0 MSTORE PUSH1 0x40 PUSH1 0x0 KECCAK256 PUSH1 0x0 SWAP2 POP SWAP2 POP SWAP1 SLOAD SWAP1 PUSH2 0x100 EXP SWAP1 DIV PUSH20 0xFFFFFFFFFFFFFFFFFFFFFFFFFFFFFFFFFFFFFFFF AND DUP2 JUMP JUMPDEST PUSH1 0xD PUSH1 0x20 MSTORE DUP2 PUSH1 0x0 MSTORE PUSH1 0x40 PUSH1 0x0 KECCAK256 PUSH1 0x20 MSTORE DUP1 PUSH1 0x0 MSTORE PUSH1 0x40 PUSH1 0x0 KECCAK256 PUSH1 0x0 SWAP2 POP SWAP2 POP SWAP1 SLOAD SWAP1 PUSH2 0x100 EXP SWAP1 DIV PUSH1 0xFF AND DUP2 JUMP JUMPDEST PUSH1 0x60 PUSH1 0x9 PUSH1 0x0 DUP4 PUSH20 0xFFFFFFFFFFFFFFFFFFFFFFFFFFFFFFFFFFFFFFFF AND PUSH20 0xFFFFFFFFFFFFFFFFFFFFFFFFFFFFFFFFFFFFFFFF AND DUP2 MSTORE PUSH1 0x20 ADD SWAP1 DUP2 MSTORE PUSH1 0x20 ADD PUSH1 0x0 KECCAK256 PUSH1 0x3 ADD DUP1 SLOAD DUP1 PUSH1 0x20 MUL PUSH1 0x20 ADD PUSH1 0x40 MLOAD SWAP1 DUP2 ADD PUSH1 0x40 MSTORE DUP1 SWAP3 SWAP2 SWAP1 DUP2 DUP2 MSTORE PUSH1 0x20 ADD DUP3 DUP1 SLOAD DUP1 ISZERO PUSH2 0x711 JUMPI PUSH1 0x20 MUL DUP3 ADD SWAP2 SWAP1 PUSH1 0x0 MSTORE PUSH1 0x20 PUSH1 0x0 KECCAK256 SWAP1 JUMPDEST DUP2 PUSH1 0x0 SWAP1 SLOAD SWAP1 PUSH2 0x100 EXP SWAP1 DIV PUSH20 0xFFFFFFFFFFFFFFFFFFFFFFFFFFFFFFFFFFFFFFFF AND PUSH20 0xFFFFFFFFFFFFFFFFFFFFFFFFFFFFFFFFFFFFFFFF AND DUP2 MSTORE PUSH1 0x20 ADD SWAP1 PUSH1 0x1 ADD SWAP1 DUP1 DUP4 GT PUSH2 0x6C7 JUMPI JUMPDEST POP POP POP POP POP SWAP1 POP SWAP2 SWAP1 POP JUMP JUMPDEST PUSH1 0x0 PUSH1 0x1 PUSH1 0x0 SWAP1 SLOAD SWAP1 PUSH2 0x100 EXP SWAP1 DIV PUSH20 0xFFFFFFFFFFFFFFFFFFFFFFFFFFFFFFFFFFFFFFFF AND PUSH20 0xFFFFFFFFFFFFFFFFFFFFFFFFFFFFFFFFFFFFFFFF AND CALLER PUSH20 0xFFFFFFFFFFFFFFFFFFFFFFFFFFFFFFFFFFFFFFFF AND EQ PUSH2 0x7AF JUMPI PUSH1 0x40 MLOAD PUSH32 0x8C379A000000000000000000000000000000000000000000000000000000000 DUP2 MSTORE PUSH1 0x4 ADD PUSH2 0x7A6 SWAP1 PUSH2 0x41DB JUMP JUMPDEST PUSH1 0x40 MLOAD DUP1 SWAP2 SUB SWAP1 REVERT JUMPDEST PUSH1 0x0 PUSH1 0x1 PUSH1 0x0 SWAP1 SLOAD SWAP1 PUSH2 0x100 EXP SWAP1 DIV PUSH20 0xFFFFFFFFFFFFFFFFFFFFFFFFFFFFFFFFFFFFFFFF AND PUSH20 0xFFFFFFFFFFFFFFFFFFFFFFFFFFFFFFFFFFFFFFFF AND PUSH1 0x11 SLOAD PUSH1 0x40 MLOAD PUSH2 0x7F9 SWAP1 PUSH2 0x422C JUMP JUMPDEST PUSH1 0x0 PUSH1 0x40 MLOAD DUP1 DUP4 SUB DUP2 DUP6 DUP8 GAS CALL SWAP3 POP POP POP RETURNDATASIZE DUP1 PUSH1 0x0 DUP2 EQ PUSH2 0x836 JUMPI PUSH1 0x40 MLOAD SWAP2 POP PUSH1 0x1F NOT PUSH1 0x3F RETURNDATASIZE ADD AND DUP3 ADD PUSH1 0x40 MSTORE RETURNDATASIZE DUP3 MSTORE RETURNDATASIZE PUSH1 0x0 PUSH1 0x20 DUP5 ADD RETURNDATACOPY PUSH2 0x83B JUMP JUMPDEST PUSH1 0x60 SWAP2 POP JUMPDEST POP POP SWAP1 POP DUP1 PUSH2 0x87F JUMPI PUSH1 0x40 MLOAD PUSH32 0x8C379A000000000000000000000000000000000000000000000000000000000 DUP2 MSTORE PUSH1 0x4 ADD PUSH2 0x876 SWAP1 PUSH2 0x428D JUMP JUMPDEST PUSH1 0x40 MLOAD DUP1 SWAP2 SUB SWAP1 REVERT JUMPDEST DUP1 SWAP2 POP POP SWAP1 JUMP JUMPDEST PUSH1 0x7 DUP2 PUSH1 0x4 DUP2 LT PUSH2 0x896 JUMPI PUSH1 0x0 DUP1 REVERT JUMPDEST PUSH1 0x20 SWAP2 DUP3 DUP3 DIV ADD SWAP2 SWAP1 MOD SWAP2 POP SLOAD SWAP1 PUSH2 0x100 EXP SWAP1 DIV PUSH1 0xFF AND DUP2 JUMP JUMPDEST PUSH1 0x60 PUSH1 0x9 PUSH1 0x0 DUP4 PUSH20 0xFFFFFFFFFFFFFFFFFFFFFFFFFFFFFFFFFFFFFFFF AND PUSH20 0xFFFFFFFFFFFFFFFFFFFFFFFFFFFFFFFFFFFFFFFF AND DUP2 MSTORE PUSH1 0x20 ADD SWAP1 DUP2 MSTORE PUSH1 0x20 ADD PUSH1 0x0 KECCAK256 PUSH1 0x6 ADD DUP1 SLOAD DUP1 PUSH1 0x20 MUL PUSH1 0x20 ADD PUSH1 0x40 MLOAD SWAP1 DUP2 ADD PUSH1 0x40 MSTORE DUP1 SWAP3 SWAP2 SWAP1 DUP2 DUP2 MSTORE PUSH1 0x20 ADD DUP3 DUP1 SLOAD DUP1 ISZERO PUSH2 0x93E JUMPI PUSH1 0x20 MUL DUP3 ADD SWAP2 SWAP1 PUSH1 0x0 MSTORE PUSH1 0x20 PUSH1 0x0 KECCAK256 SWAP1 JUMPDEST DUP2 SLOAD DUP2 MSTORE PUSH1 0x20 ADD SWAP1 PUSH1 0x1 ADD SWAP1 DUP1 DUP4 GT PUSH2 0x92A JUMPI JUMPDEST POP POP POP POP POP SWAP1 POP SWAP2 SWAP1 POP JUMP JUMPDEST PUSH1 0x0 PUSH3 0xF4240 SELFBALANCE PUSH2 0x95B SWAP2 SWAP1 PUSH2 0x430B JUMP JUMPDEST SWAP1 POP SWAP1 JUMP JUMPDEST PUSH1 0x8 PUSH1 0x20 MSTORE DUP1 PUSH1 0x0 MSTORE PUSH1 0x40 PUSH1 0x0 KECCAK256 PUSH1 0x0 SWAP2 POP SWAP1 POP SLOAD DUP2 JUMP JUMPDEST PUSH1 0x0 PUSH1 0x9 PUSH1 0x0 CALLER PUSH20 0xFFFFFFFFFFFFFFFFFFFFFFFFFFFFFFFFFFFFFFFF AND PUSH20 0xFFFFFFFFFFFFFFFFFFFFFFFFFFFFFFFFFFFFFFFF AND DUP2 MSTORE PUSH1 0x20 ADD SWAP1 DUP2 MSTORE PUSH1 0x20 ADD PUSH1 0x0 KECCAK256 PUSH1 0x0 ADD PUSH1 0x0 SWAP1 SLOAD SWAP1 PUSH2 0x100 EXP SWAP1 DIV PUSH1 0xFF AND ISZERO PUSH2 0xA0A JUMPI PUSH1 0x40 MLOAD PUSH32 0x8C379A000000000000000000000000000000000000000000000000000000000 DUP2 MSTORE PUSH1 0x4 ADD PUSH2 0xA01 SWAP1 PUSH2 0x4388 JUMP JUMPDEST PUSH1 0x40 MLOAD DUP1 SWAP2 SUB SWAP1 REVERT JUMPDEST PUSH1 0x0 DUP3 GT DUP1 ISZERO PUSH2 0xA1C JUMPI POP PUSH1 0xE SLOAD DUP3 GT ISZERO JUMPDEST PUSH2 0xA5B JUMPI PUSH1 0x40 MLOAD PUSH32 0x8C379A000000000000000000000000000000000000000000000000000000000 DUP2 MSTORE PUSH1 0x4 ADD PUSH2 0xA52 SWAP1 PUSH2 0x43F4 JUMP JUMPDEST PUSH1 0x40 MLOAD DUP1 SWAP2 SUB SWAP1 REVERT JUMPDEST PUSH1 0x12 SLOAD CALLVALUE EQ PUSH2 0xA9F JUMPI PUSH1 0x40 MLOAD PUSH32 0x8C379A000000000000000000000000000000000000000000000000000000000 DUP2 MSTORE PUSH1 0x4 ADD PUSH2 0xA96 SWAP1 PUSH2 0x4460 JUMP JUMPDEST PUSH1 0x40 MLOAD DUP1 SWAP2 SUB SWAP1 REVERT JUMPDEST PUSH1 0x0 PUSH1 0x9 PUSH1 0x0 CALLER PUSH20 0xFFFFFFFFFFFFFFFFFFFFFFFFFFFFFFFFFFFFFFFF AND PUSH20 0xFFFFFFFFFFFFFFFFFFFFFFFFFFFFFFFFFFFFFFFF AND DUP2 MSTORE PUSH1 0x20 ADD SWAP1 DUP2 MSTORE PUSH1 0x20 ADD PUSH1 0x0 KECCAK256 SWAP1 POP PUSH1 0x1 DUP2 PUSH1 0x0 ADD PUSH1 0x0 PUSH2 0x100 EXP DUP2 SLOAD DUP2 PUSH1 0xFF MUL NOT AND SWAP1 DUP4 ISZERO ISZERO MUL OR SWAP1 SSTORE POP PUSH1 0xE SLOAD DUP2 PUSH1 0x1 ADD DUP2 SWAP1 SSTORE POP DUP3 DUP2 PUSH1 0x2 ADD DUP2 SWAP1 SSTORE POP PUSH1 0x0 PUSH8 0xFFFFFFFFFFFFFFFF DUP2 GT ISZERO PUSH2 0xB2E JUMPI PUSH2 0xB2D PUSH2 0x4480 JUMP JUMPDEST JUMPDEST PUSH1 0x40 MLOAD SWAP1 DUP1 DUP3 MSTORE DUP1 PUSH1 0x20 MUL PUSH1 0x20 ADD DUP3 ADD PUSH1 0x40 MSTORE DUP1 ISZERO PUSH2 0xB5C JUMPI DUP2 PUSH1 0x20 ADD PUSH1 0x20 DUP3 MUL DUP1 CALLDATASIZE DUP4 CALLDATACOPY DUP1 DUP3 ADD SWAP2 POP POP SWAP1 POP JUMPDEST POP DUP2 PUSH1 0x3 ADD SWAP1 DUP1 MLOAD SWAP1 PUSH1 0x20 ADD SWAP1 PUSH2 0xB74 SWAP3 SWAP2 SWAP1 PUSH2 0x3C51 JUMP JUMPDEST POP TIMESTAMP DUP2 PUSH1 0x4 ADD DUP2 SWAP1 SSTORE POP PUSH1 0x0 PUSH8 0xFFFFFFFFFFFFFFFF DUP2 GT ISZERO PUSH2 0xB99 JUMPI PUSH2 0xB98 PUSH2 0x4480 JUMP JUMPDEST JUMPDEST PUSH1 0x40 MLOAD SWAP1 DUP1 DUP3 MSTORE DUP1 PUSH1 0x20 MUL PUSH1 0x20 ADD DUP3 ADD PUSH1 0x40 MSTORE DUP1 ISZERO PUSH2 0xBC7 JUMPI DUP2 PUSH1 0x20 ADD PUSH1 0x20 DUP3 MUL DUP1 CALLDATASIZE DUP4 CALLDATACOPY DUP1 DUP3 ADD SWAP2 POP POP SWAP1 POP JUMPDEST POP DUP2 PUSH1 0x6 ADD SWAP1 DUP1 MLOAD SWAP1 PUSH1 0x20 ADD SWAP1 PUSH2 0xBDF SWAP3 SWAP2 SWAP1 PUSH2 0x3CDB JUMP JUMPDEST POP PUSH1 0xE PUSH1 0x0 DUP2 SLOAD DUP1 SWAP3 SWAP2 SWAP1 PUSH2 0xBF3 SWAP1 PUSH2 0x44AF JUMP JUMPDEST SWAP2 SWAP1 POP SSTORE POP CALLER PUSH1 0xA PUSH1 0x0 PUSH1 0xE SLOAD DUP2 MSTORE PUSH1 0x20 ADD SWAP1 DUP2 MSTORE PUSH1 0x20 ADD PUSH1 0x0 KECCAK256 PUSH1 0x0 PUSH2 0x100 EXP DUP2 SLOAD DUP2 PUSH20 0xFFFFFFFFFFFFFFFFFFFFFFFFFFFFFFFFFFFFFFFF MUL NOT AND SWAP1 DUP4 PUSH20 0xFFFFFFFFFFFFFFFFFFFFFFFFFFFFFFFFFFFFFFFF AND MUL OR SWAP1 SSTORE POP PUSH1 0x9 PUSH1 0x0 PUSH1 0xA PUSH1 0x0 DUP7 DUP2 MSTORE PUSH1 0x20 ADD SWAP1 DUP2 MSTORE PUSH1 0x20 ADD PUSH1 0x0 KECCAK256 PUSH1 0x0 SWAP1 SLOAD SWAP1 PUSH2 0x100 EXP SWAP1 DIV PUSH20 0xFFFFFFFFFFFFFFFFFFFFFFFFFFFFFFFFFFFFFFFF AND PUSH20 0xFFFFFFFFFFFFFFFFFFFFFFFFFFFFFFFFFFFFFFFF AND PUSH20 0xFFFFFFFFFFFFFFFFFFFFFFFFFFFFFFFFFFFFFFFF AND DUP2 MSTORE PUSH1 0x20 ADD SWAP1 DUP2 MSTORE PUSH1 0x20 ADD PUSH1 0x0 KECCAK256 PUSH1 0x3 ADD CALLER SWAP1 DUP1 PUSH1 0x1 DUP2 SLOAD ADD DUP1 DUP3 SSTORE DUP1 SWAP2 POP POP PUSH1 0x1 SWAP1 SUB SWAP1 PUSH1 0x0 MSTORE PUSH1 0x20 PUSH1 0x0 KECCAK256 ADD PUSH1 0x0 SWAP1 SWAP2 SWAP1 SWAP2 SWAP1 SWAP2 PUSH2 0x100 EXP DUP2 SLOAD DUP2 PUSH20 0xFFFFFFFFFFFFFFFFFFFFFFFFFFFFFFFFFFFFFFFF MUL NOT AND SWAP1 DUP4 PUSH20 0xFFFFFFFFFFFFFFFFFFFFFFFFFFFFFFFFFFFFFFFF AND MUL OR SWAP1 SSTORE POP PUSH1 0x8 PUSH1 0x0 PUSH1 0x1 DUP2 MSTORE PUSH1 0x20 ADD SWAP1 DUP2 MSTORE PUSH1 0x20 ADD PUSH1 0x0 KECCAK256 SLOAD PUSH1 0x11 PUSH1 0x0 DUP3 DUP3 SLOAD PUSH2 0xD48 SWAP2 SWAP1 PUSH2 0x44F8 JUMP JUMPDEST SWAP3 POP POP DUP2 SWAP1 SSTORE POP PUSH1 0x14 SLOAD PUSH1 0x10 PUSH1 0x0 DUP3 DUP3 SLOAD PUSH2 0xD63 SWAP2 SWAP1 PUSH2 0x44F8 JUMP JUMPDEST SWAP3 POP POP DUP2 SWAP1 SSTORE POP PUSH1 0x15 SLOAD PUSH1 0xF PUSH1 0x0 DUP3 DUP3 SLOAD PUSH2 0xD7E SWAP2 SWAP1 PUSH2 0x44F8 JUMP JUMPDEST SWAP3 POP POP DUP2 SWAP1 SSTORE POP PUSH1 0x0 PUSH1 0x9 PUSH1 0x0 PUSH1 0xA PUSH1 0x0 DUP8 DUP2 MSTORE PUSH1 0x20 ADD SWAP1 DUP2 MSTORE PUSH1 0x20 ADD PUSH1 0x0 KECCAK256 PUSH1 0x0 SWAP1 SLOAD SWAP1 PUSH2 0x100 EXP SWAP1 DIV PUSH20 0xFFFFFFFFFFFFFFFFFFFFFFFFFFFFFFFFFFFFFFFF AND PUSH20 0xFFFFFFFFFFFFFFFFFFFFFFFFFFFFFFFFFFFFFFFF AND PUSH20 0xFFFFFFFFFFFFFFFFFFFFFFFFFFFFFFFFFFFFFFFF AND DUP2 MSTORE PUSH1 0x20 ADD SWAP1 DUP2 MSTORE PUSH1 0x20 ADD PUSH1 0x0 KECCAK256 PUSH1 0x3 ADD DUP1 SLOAD SWAP1 POP SWAP1 POP PUSH1 0x1 DUP2 EQ ISZERO DUP1 PUSH2 0xE12 JUMPI POP PUSH1 0x1 DUP5 EQ JUMPDEST ISZERO PUSH2 0xE2A JUMPI PUSH2 0xE25 PUSH1 0x1 CALLER DUP4 PUSH1 0x0 PUSH2 0x1833 JUMP JUMPDEST PUSH2 0xFBA JUMP JUMPDEST PUSH1 0x9 PUSH1 0x0 PUSH1 0xA PUSH1 0x0 DUP8 DUP2 MSTORE PUSH1 0x20 ADD SWAP1 DUP2 MSTORE PUSH1 0x20 ADD PUSH1 0x0 KECCAK256 PUSH1 0x0 SWAP1 SLOAD SWAP1 PUSH2 0x100 EXP SWAP1 DIV PUSH20 0xFFFFFFFFFFFFFFFFFFFFFFFFFFFFFFFFFFFFFFFF AND PUSH20 0xFFFFFFFFFFFFFFFFFFFFFFFFFFFFFFFFFFFFFFFF AND PUSH20 0xFFFFFFFFFFFFFFFFFFFFFFFFFFFFFFFFFFFFFFFF AND DUP2 MSTORE PUSH1 0x20 ADD SWAP1 DUP2 MSTORE PUSH1 0x20 ADD PUSH1 0x0 KECCAK256 PUSH1 0x6 ADD PUSH1 0x1 SWAP1 DUP1 PUSH1 0x1 DUP2 SLOAD ADD DUP1 DUP3 SSTORE DUP1 SWAP2 POP POP PUSH1 0x1 SWAP1 SUB SWAP1 PUSH1 0x0 MSTORE PUSH1 0x20 PUSH1 0x0 KECCAK256 ADD PUSH1 0x0 SWAP1 SWAP2 SWAP1 SWAP2 SWAP1 SWAP2 POP SSTORE PUSH1 0x0 PUSH1 0xA PUSH1 0x0 DUP7 DUP2 MSTORE PUSH1 0x20 ADD SWAP1 DUP2 MSTORE PUSH1 0x20 ADD PUSH1 0x0 KECCAK256 PUSH1 0x0 SWAP1 SLOAD SWAP1 PUSH2 0x100 EXP SWAP1 DIV PUSH20 0xFFFFFFFFFFFFFFFFFFFFFFFFFFFFFFFFFFFFFFFF AND SWAP1 POP PUSH1 0x1 PUSH1 0x9 PUSH1 0x0 DUP4 PUSH20 0xFFFFFFFFFFFFFFFFFFFFFFFFFFFFFFFFFFFFFFFF AND PUSH20 0xFFFFFFFFFFFFFFFFFFFFFFFFFFFFFFFFFFFFFFFF AND DUP2 MSTORE PUSH1 0x20 ADD SWAP1 DUP2 MSTORE PUSH1 0x20 ADD PUSH1 0x0 KECCAK256 PUSH1 0x5 ADD PUSH1 0x0 PUSH1 0x1 DUP2 MSTORE PUSH1 0x20 ADD SWAP1 DUP2 MSTORE PUSH1 0x20 ADD PUSH1 0x0 KECCAK256 SLOAD PUSH2 0xF60 SWAP2 SWAP1 PUSH2 0x44F8 JUMP JUMPDEST PUSH1 0x9 PUSH1 0x0 DUP4 PUSH20 0xFFFFFFFFFFFFFFFFFFFFFFFFFFFFFFFFFFFFFFFF AND PUSH20 0xFFFFFFFFFFFFFFFFFFFFFFFFFFFFFFFFFFFFFFFF AND DUP2 MSTORE PUSH1 0x20 ADD SWAP1 DUP2 MSTORE PUSH1 0x20 ADD PUSH1 0x0 KECCAK256 PUSH1 0x5 ADD PUSH1 0x0 PUSH1 0x1 DUP2 MSTORE PUSH1 0x20 ADD SWAP1 DUP2 MSTORE PUSH1 0x20 ADD PUSH1 0x0 KECCAK256 DUP2 SWAP1 SSTORE POP POP JUMPDEST PUSH1 0x0 PUSH1 0xA PUSH1 0x0 DUP7 DUP2 MSTORE PUSH1 0x20 ADD SWAP1 DUP2 MSTORE PUSH1 0x20 ADD PUSH1 0x0 KECCAK256 PUSH1 0x0 SWAP1 SLOAD SWAP1 PUSH2 0x100 EXP SWAP1 DIV PUSH20 0xFFFFFFFFFFFFFFFFFFFFFFFFFFFFFFFFFFFFFFFF AND PUSH20 0xFFFFFFFFFFFFFFFFFFFFFFFFFFFFFFFFFFFFFFFF AND PUSH1 0x13 SLOAD PUSH1 0x40 MLOAD PUSH2 0x1015 SWAP1 PUSH2 0x422C JUMP JUMPDEST PUSH1 0x0 PUSH1 0x40 MLOAD DUP1 DUP4 SUB DUP2 DUP6 DUP8 GAS CALL SWAP3 POP POP POP RETURNDATASIZE DUP1 PUSH1 0x0 DUP2 EQ PUSH2 0x1052 JUMPI PUSH1 0x40 MLOAD SWAP2 POP PUSH1 0x1F NOT PUSH1 0x3F RETURNDATASIZE ADD AND DUP3 ADD PUSH1 0x40 MSTORE RETURNDATASIZE DUP3 MSTORE RETURNDATASIZE PUSH1 0x0 PUSH1 0x20 DUP5 ADD RETURNDATACOPY PUSH2 0x1057 JUMP JUMPDEST PUSH1 0x60 SWAP2 POP JUMPDEST POP POP SWAP1 POP DUP1 PUSH2 0x109B JUMPI PUSH1 0x40 MLOAD PUSH32 0x8C379A000000000000000000000000000000000000000000000000000000000 DUP2 MSTORE PUSH1 0x4 ADD PUSH2 0x1092 SWAP1 PUSH2 0x428D JUMP JUMPDEST PUSH1 0x40 MLOAD DUP1 SWAP2 SUB SWAP1 REVERT JUMPDEST PUSH1 0xA PUSH1 0x0 DUP7 DUP2 MSTORE PUSH1 0x20 ADD SWAP1 DUP2 MSTORE PUSH1 0x20 ADD PUSH1 0x0 KECCAK256 PUSH1 0x0 SWAP1 SLOAD SWAP1 PUSH2 0x100 EXP SWAP1 DIV PUSH20 0xFFFFFFFFFFFFFFFFFFFFFFFFFFFFFFFFFFFFFFFF AND PUSH20 0xFFFFFFFFFFFFFFFFFFFFFFFFFFFFFFFFFFFFFFFF AND CALLER PUSH20 0xFFFFFFFFFFFFFFFFFFFFFFFFFFFFFFFFFFFFFFFF AND PUSH32 0x788C06D2405AE89DD3F0528D38BE7691289474D72176408BC2C2406DC5E342F1 TIMESTAMP PUSH1 0x40 MLOAD PUSH2 0x112B SWAP2 SWAP1 PUSH2 0x40DE JUMP JUMPDEST PUSH1 0x40 MLOAD DUP1 SWAP2 SUB SWAP1 LOG3 DUP1 SWAP4 POP POP POP POP SWAP2 SWAP1 POP JUMP JUMPDEST PUSH1 0x2 PUSH1 0x0 SWAP1 SLOAD SWAP1 PUSH2 0x100 EXP SWAP1 DIV PUSH20 0xFFFFFFFFFFFFFFFFFFFFFFFFFFFFFFFFFFFFFFFF AND DUP2 JUMP JUMPDEST PUSH1 0x0 DUP1 PUSH1 0x0 SWAP1 POP PUSH1 0x0 DUP1 JUMPDEST PUSH1 0x4 DUP2 LT ISZERO PUSH2 0x1200 JUMPI CALLER PUSH20 0xFFFFFFFFFFFFFFFFFFFFFFFFFFFFFFFFFFFFFFFF AND PUSH1 0x3 DUP3 PUSH1 0x4 DUP2 LT PUSH2 0x11A3 JUMPI PUSH2 0x11A2 PUSH2 0x454E JUMP JUMPDEST JUMPDEST ADD PUSH1 0x0 SWAP1 SLOAD SWAP1 PUSH2 0x100 EXP SWAP1 DIV PUSH20 0xFFFFFFFFFFFFFFFFFFFFFFFFFFFFFFFFFFFFFFFF AND PUSH20 0xFFFFFFFFFFFFFFFFFFFFFFFFFFFFFFFFFFFFFFFF AND EQ ISZERO PUSH2 0x11ED JUMPI PUSH1 0x1 SWAP3 POP DUP1 SWAP2 POP PUSH2 0x1200 JUMP JUMPDEST DUP1 DUP1 PUSH2 0x11F8 SWAP1 PUSH2 0x44AF JUMP JUMPDEST SWAP2 POP POP PUSH2 0x116F JUMP JUMPDEST POP PUSH1 0x1 ISZERO ISZERO DUP3 ISZERO ISZERO EQ PUSH2 0x1248 JUMPI PUSH1 0x40 MLOAD PUSH32 0x8C379A000000000000000000000000000000000000000000000000000000000 DUP2 MSTORE PUSH1 0x4 ADD PUSH2 0x123F SWAP1 PUSH2 0x41DB JUMP JUMPDEST PUSH1 0x40 MLOAD DUP1 SWAP2 SUB SWAP1 REVERT JUMPDEST PUSH1 0x0 PUSH1 0x64 PUSH1 0x7 DUP4 PUSH1 0x4 DUP2 LT PUSH2 0x1260 JUMPI PUSH2 0x125F PUSH2 0x454E JUMP JUMPDEST JUMPDEST PUSH1 0x20 SWAP2 DUP3 DUP3 DIV ADD SWAP2 SWAP1 MOD SWAP1 SLOAD SWAP1 PUSH2 0x100 EXP SWAP1 DIV PUSH1 0xFF AND PUSH1 0xFF AND PUSH1 0x10 SLOAD PUSH2 0x1286 SWAP2 SWAP1 PUSH2 0x457D JUMP JUMPDEST PUSH2 0x1290 SWAP2 SWAP1 PUSH2 0x430B JUMP JUMPDEST SWAP1 POP PUSH1 0x0 CALLER PUSH20 0xFFFFFFFFFFFFFFFFFFFFFFFFFFFFFFFFFFFFFFFF AND DUP3 PUSH1 0x40 MLOAD PUSH2 0x12B8 SWAP1 PUSH2 0x422C JUMP JUMPDEST PUSH1 0x0 PUSH1 0x40 MLOAD DUP1 DUP4 SUB DUP2 DUP6 DUP8 GAS CALL SWAP3 POP POP POP RETURNDATASIZE DUP1 PUSH1 0x0 DUP2 EQ PUSH2 0x12F5 JUMPI PUSH1 0x40 MLOAD SWAP2 POP PUSH1 0x1F NOT PUSH1 0x3F RETURNDATASIZE ADD AND DUP3 ADD PUSH1 0x40 MSTORE RETURNDATASIZE DUP3 MSTORE RETURNDATASIZE PUSH1 0x0 PUSH1 0x20 DUP5 ADD RETURNDATACOPY PUSH2 0x12FA JUMP JUMPDEST PUSH1 0x60 SWAP2 POP JUMPDEST POP POP SWAP1 POP DUP1 PUSH2 0x133E JUMPI PUSH1 0x40 MLOAD PUSH32 0x8C379A000000000000000000000000000000000000000000000000000000000 DUP2 MSTORE PUSH1 0x4 ADD PUSH2 0x1335 SWAP1 PUSH2 0x428D JUMP JUMPDEST PUSH1 0x40 MLOAD DUP1 SWAP2 SUB SWAP1 REVERT JUMPDEST DUP1 SWAP5 POP POP POP POP POP SWAP1 JUMP JUMPDEST PUSH1 0xA PUSH1 0x20 MSTORE DUP1 PUSH1 0x0 MSTORE PUSH1 0x40 PUSH1 0x0 KECCAK256 PUSH1 0x0 SWAP2 POP SLOAD SWAP1 PUSH2 0x100 EXP SWAP1 DIV PUSH20 0xFFFFFFFFFFFFFFFFFFFFFFFFFFFFFFFFFFFFFFFF AND DUP2 JUMP JUMPDEST PUSH1 0x0 PUSH1 0x2 PUSH1 0x0 SWAP1 SLOAD SWAP1 PUSH2 0x100 EXP SWAP1 DIV PUSH20 0xFFFFFFFFFFFFFFFFFFFFFFFFFFFFFFFFFFFFFFFF AND PUSH20 0xFFFFFFFFFFFFFFFFFFFFFFFFFFFFFFFFFFFFFFFF AND CALLER PUSH20 0xFFFFFFFFFFFFFFFFFFFFFFFFFFFFFFFFFFFFFFFF AND EQ PUSH2 0x140D JUMPI PUSH1 0x40 MLOAD PUSH32 0x8C379A000000000000000000000000000000000000000000000000000000000 DUP2 MSTORE PUSH1 0x4 ADD PUSH2 0x1404 SWAP1 PUSH2 0x41DB JUMP JUMPDEST PUSH1 0x40 MLOAD DUP1 SWAP2 SUB SWAP1 REVERT JUMPDEST PUSH1 0x0 PUSH1 0x2 PUSH1 0x0 SWAP1 SLOAD SWAP1 PUSH2 0x100 EXP SWAP1 DIV PUSH20 0xFFFFFFFFFFFFFFFFFFFFFFFFFFFFFFFFFFFFFFFF AND PUSH20 0xFFFFFFFFFFFFFFFFFFFFFFFFFFFFFFFFFFFFFFFF AND PUSH1 0xF SLOAD PUSH1 0x40 MLOAD PUSH2 0x1457 SWAP1 PUSH2 0x422C JUMP JUMPDEST PUSH1 0x0 PUSH1 0x40 MLOAD DUP1 DUP4 SUB DUP2 DUP6 DUP8 GAS CALL SWAP3 POP POP POP RETURNDATASIZE DUP1 PUSH1 0x0 DUP2 EQ PUSH2 0x1494 JUMPI PUSH1 0x40 MLOAD SWAP2 POP PUSH1 0x1F NOT PUSH1 0x3F RETURNDATASIZE ADD AND DUP3 ADD PUSH1 0x40 MSTORE RETURNDATASIZE DUP3 MSTORE RETURNDATASIZE PUSH1 0x0 PUSH1 0x20 DUP5 ADD RETURNDATACOPY PUSH2 0x1499 JUMP JUMPDEST PUSH1 0x60 SWAP2 POP JUMPDEST POP POP SWAP1 POP DUP1 PUSH2 0x14DD JUMPI PUSH1 0x40 MLOAD PUSH32 0x8C379A000000000000000000000000000000000000000000000000000000000 DUP2 MSTORE PUSH1 0x4 ADD PUSH2 0x14D4 SWAP1 PUSH2 0x428D JUMP JUMPDEST PUSH1 0x40 MLOAD DUP1 SWAP2 SUB SWAP1 REVERT JUMPDEST DUP1 SWAP2 POP POP SWAP1 JUMP JUMPDEST PUSH1 0xE SLOAD DUP2 JUMP JUMPDEST PUSH1 0x9 PUSH1 0x20 MSTORE DUP1 PUSH1 0x0 MSTORE PUSH1 0x40 PUSH1 0x0 KECCAK256 PUSH1 0x0 SWAP2 POP SWAP1 POP DUP1 PUSH1 0x0 ADD PUSH1 0x0 SWAP1 SLOAD SWAP1 PUSH2 0x100 EXP SWAP1 DIV PUSH1 0xFF AND SWAP1 DUP1 PUSH1 0x1 ADD SLOAD SWAP1 DUP1 PUSH1 0x2 ADD SLOAD SWAP1 DUP1 PUSH1 0x4 ADD SLOAD SWAP1 POP DUP5 JUMP JUMPDEST PUSH1 0x0 PUSH1 0x9 PUSH1 0x0 DUP5 PUSH20 0xFFFFFFFFFFFFFFFFFFFFFFFFFFFFFFFFFFFFFFFF AND PUSH20 0xFFFFFFFFFFFFFFFFFFFFFFFFFFFFFFFFFFFFFFFF AND DUP2 MSTORE PUSH1 0x20 ADD SWAP1 DUP2 MSTORE PUSH1 0x20 ADD PUSH1 0x0 KECCAK256 PUSH1 0x5 ADD PUSH1 0x0 DUP4 DUP2 MSTORE PUSH1 0x20 ADD SWAP1 DUP2 MSTORE PUSH1 0x20 ADD PUSH1 0x0 KECCAK256 SLOAD SWAP1 POP SWAP3 SWAP2 POP POP JUMP JUMPDEST PUSH1 0xB PUSH1 0x20 MSTORE DUP2 PUSH1 0x0 MSTORE PUSH1 0x40 PUSH1 0x0 KECCAK256 PUSH1 0x20 MSTORE DUP1 PUSH1 0x0 MSTORE PUSH1 0x40 PUSH1 0x0 KECCAK256 PUSH1 0x0 SWAP2 POP SWAP2 POP POP SLOAD DUP2 JUMP JUMPDEST PUSH1 0x1 PUSH1 0x0 SWAP1 SLOAD SWAP1 PUSH2 0x100 EXP SWAP1 DIV PUSH20 0xFFFFFFFFFFFFFFFFFFFFFFFFFFFFFFFFFFFFFFFF AND DUP2 JUMP JUMPDEST PUSH1 0x0 DUP1 SLOAD SWAP1 PUSH2 0x100 EXP SWAP1 DIV PUSH20 0xFFFFFFFFFFFFFFFFFFFFFFFFFFFFFFFFFFFFFFFF AND PUSH20 0xFFFFFFFFFFFFFFFFFFFFFFFFFFFFFFFFFFFFFFFF AND CALLER PUSH20 0xFFFFFFFFFFFFFFFFFFFFFFFFFFFFFFFFFFFFFFFF AND EQ PUSH2 0x165E JUMPI PUSH1 0x40 MLOAD PUSH32 0x8C379A000000000000000000000000000000000000000000000000000000000 DUP2 MSTORE PUSH1 0x4 ADD PUSH2 0x1655 SWAP1 PUSH2 0x4623 JUMP JUMPDEST PUSH1 0x40 MLOAD DUP1 SWAP2 SUB SWAP1 REVERT JUMPDEST PUSH1 0x0 DUP1 SLOAD SWAP1 PUSH2 0x100 EXP SWAP1 DIV PUSH20 0xFFFFFFFFFFFFFFFFFFFFFFFFFFFFFFFFFFFFFFFF AND PUSH20 0xFFFFFFFFFFFFFFFFFFFFFFFFFFFFFFFFFFFFFFFF AND CALLER PUSH20 0xFFFFFFFFFFFFFFFFFFFFFFFFFFFFFFFFFFFFFFFF AND EQ PUSH2 0x16EC JUMPI PUSH1 0x40 MLOAD PUSH32 0x8C379A000000000000000000000000000000000000000000000000000000000 DUP2 MSTORE PUSH1 0x4 ADD PUSH2 0x16E3 SWAP1 PUSH2 0x41DB JUMP JUMPDEST PUSH1 0x40 MLOAD DUP1 SWAP2 SUB SWAP1 REVERT JUMPDEST PUSH1 0x5 DUP2 GT ISZERO PUSH2 0x1730 JUMPI PUSH1 0x40 MLOAD PUSH32 0x8C379A000000000000000000000000000000000000000000000000000000000 DUP2 MSTORE PUSH1 0x4 ADD PUSH2 0x1727 SWAP1 PUSH2 0x468F JUMP JUMPDEST PUSH1 0x40 MLOAD DUP1 SWAP2 SUB SWAP1 REVERT JUMPDEST PUSH1 0x3 DUP2 GT PUSH2 0x179D JUMPI DUP2 PUSH1 0x3 PUSH1 0x1 DUP4 PUSH2 0x1748 SWAP2 SWAP1 PUSH2 0x46AF JUMP JUMPDEST PUSH1 0x4 DUP2 LT PUSH2 0x1759 JUMPI PUSH2 0x1758 PUSH2 0x454E JUMP JUMPDEST JUMPDEST ADD PUSH1 0x0 PUSH2 0x100 EXP DUP2 SLOAD DUP2 PUSH20 0xFFFFFFFFFFFFFFFFFFFFFFFFFFFFFFFFFFFFFFFF MUL NOT AND SWAP1 DUP4 PUSH20 0xFFFFFFFFFFFFFFFFFFFFFFFFFFFFFFFFFFFFFFFF AND MUL OR SWAP1 SSTORE POP PUSH2 0x182F JUMP JUMPDEST PUSH1 0x4 DUP2 EQ ISZERO PUSH2 0x17EC JUMPI DUP2 PUSH1 0x2 PUSH1 0x0 PUSH2 0x100 EXP DUP2 SLOAD DUP2 PUSH20 0xFFFFFFFFFFFFFFFFFFFFFFFFFFFFFFFFFFFFFFFF MUL NOT AND SWAP1 DUP4 PUSH20 0xFFFFFFFFFFFFFFFFFFFFFFFFFFFFFFFFFFFFFFFF AND MUL OR SWAP1 SSTORE POP PUSH2 0x182E JUMP JUMPDEST DUP2 PUSH1 0x1 PUSH1 0x0 PUSH2 0x100 EXP DUP2 SLOAD DUP2 PUSH20 0xFFFFFFFFFFFFFFFFFFFFFFFFFFFFFFFFFFFFFFFF MUL NOT AND SWAP1 DUP4 PUSH20 0xFFFFFFFFFFFFFFFFFFFFFFFFFFFFFFFFFFFFFFFF AND MUL OR SWAP1 SSTORE POP JUMPDEST JUMPDEST POP POP JUMP JUMPDEST PUSH1 0x0 DUP1 PUSH1 0x0 SWAP1 POP PUSH1 0x0 DUP1 PUSH1 0x1 SWAP1 POP PUSH1 0x0 DUP1 DUP10 SWAP1 POP PUSH1 0x2 DUP9 EQ ISZERO PUSH2 0x187D JUMPI PUSH2 0x185D DUP11 DUP11 DUP5 DUP8 DUP8 PUSH2 0x1DC2 JUMP JUMPDEST DUP1 SWAP7 POP DUP2 SWAP6 POP DUP3 SWAP9 POP POP POP POP PUSH1 0x1 DUP11 PUSH2 0x1876 SWAP2 SWAP1 PUSH2 0x44F8 JUMP JUMPDEST SWAP1 POP PUSH2 0x1994 JUMP JUMPDEST PUSH1 0x14 DUP9 LT ISZERO DUP1 ISZERO PUSH2 0x189A JUMPI POP PUSH1 0x0 PUSH1 0x14 DUP10 PUSH2 0x1898 SWAP2 SWAP1 PUSH2 0x46E3 JUMP JUMPDEST EQ JUMPDEST ISZERO PUSH2 0x18DB JUMPI PUSH1 0xA PUSH1 0x0 PUSH1 0x1 DUP2 MSTORE PUSH1 0x20 ADD SWAP1 DUP2 MSTORE PUSH1 0x20 ADD PUSH1 0x0 KECCAK256 PUSH1 0x0 SWAP1 SLOAD SWAP1 PUSH2 0x100 EXP SWAP1 DIV PUSH20 0xFFFFFFFFFFFFFFFFFFFFFFFFFFFFFFFFFFFFFFFF AND SWAP6 POP PUSH2 0x1993 JUMP JUMPDEST PUSH1 0x4 DUP9 LT ISZERO DUP1 ISZERO PUSH2 0x18F8 JUMPI POP PUSH1 0x0 PUSH1 0x4 DUP10 PUSH2 0x18F6 SWAP2 SWAP1 PUSH2 0x46E3 JUMP JUMPDEST EQ JUMPDEST ISZERO PUSH2 0x1919 JUMPI PUSH2 0x1909 DUP8 DUP11 DUP13 DUP6 PUSH2 0x2534 JUMP JUMPDEST DUP1 SWAP7 POP DUP2 SWAP8 POP POP POP DUP10 SWAP1 POP PUSH2 0x1992 JUMP JUMPDEST PUSH1 0xA PUSH1 0x0 PUSH1 0x9 PUSH1 0x0 DUP13 PUSH20 0xFFFFFFFFFFFFFFFFFFFFFFFFFFFFFFFFFFFFFFFF AND PUSH20 0xFFFFFFFFFFFFFFFFFFFFFFFFFFFFFFFFFFFFFFFF AND DUP2 MSTORE PUSH1 0x20 ADD SWAP1 DUP2 MSTORE PUSH1 0x20 ADD PUSH1 0x0 KECCAK256 PUSH1 0x2 ADD SLOAD DUP2 MSTORE PUSH1 0x20 ADD SWAP1 DUP2 MSTORE PUSH1 0x20 ADD PUSH1 0x0 KECCAK256 PUSH1 0x0 SWAP1 SLOAD SWAP1 PUSH2 0x100 EXP SWAP1 DIV PUSH20 0xFFFFFFFFFFFFFFFFFFFFFFFFFFFFFFFFFFFFFFFF AND SWAP6 POP JUMPDEST JUMPDEST JUMPDEST DUP3 DUP1 PUSH2 0x19ED JUMPI POP PUSH1 0x9 PUSH1 0x0 DUP8 PUSH20 0xFFFFFFFFFFFFFFFFFFFFFFFFFFFFFFFFFFFFFFFF AND PUSH20 0xFFFFFFFFFFFFFFFFFFFFFFFFFFFFFFFFFFFFFFFF AND DUP2 MSTORE PUSH1 0x20 ADD SWAP1 DUP2 MSTORE PUSH1 0x20 ADD PUSH1 0x0 KECCAK256 PUSH1 0x0 ADD PUSH1 0x0 SWAP1 SLOAD SWAP1 PUSH2 0x100 EXP SWAP1 DIV PUSH1 0xFF AND ISZERO JUMPDEST DUP1 PUSH2 0x1A57 JUMPI POP PUSH1 0xA PUSH1 0x0 PUSH1 0x1 DUP2 MSTORE PUSH1 0x20 ADD SWAP1 DUP2 MSTORE PUSH1 0x20 ADD PUSH1 0x0 KECCAK256 PUSH1 0x0 SWAP1 SLOAD SWAP1 PUSH2 0x100 EXP SWAP1 DIV PUSH20 0xFFFFFFFFFFFFFFFFFFFFFFFFFFFFFFFFFFFFFFFF AND PUSH20 0xFFFFFFFFFFFFFFFFFFFFFFFFFFFFFFFFFFFFFFFF AND DUP7 PUSH20 0xFFFFFFFFFFFFFFFFFFFFFFFFFFFFFFFFFFFFFFFF AND EQ JUMPDEST ISZERO PUSH2 0x1DB6 JUMPI PUSH2 0x1A69 DUP7 DUP3 DUP11 DUP9 DUP9 PUSH2 0x2674 JUMP JUMPDEST DUP1 SWAP10 POP DUP2 SWAP9 POP POP POP DUP7 ISZERO PUSH2 0x1AD6 JUMPI DUP3 DUP1 ISZERO PUSH2 0x1A82 JUMPI POP DUP4 ISZERO JUMPDEST DUP1 ISZERO PUSH2 0x1A8E JUMPI POP PUSH1 0x2 DUP9 EQ JUMPDEST ISZERO PUSH2 0x1A97 JUMPI DUP1 SWAP10 POP JUMPDEST DUP3 DUP1 ISZERO PUSH2 0x1AA2 JUMPI POP DUP4 ISZERO JUMPDEST DUP1 ISZERO PUSH2 0x1AAE JUMPI POP PUSH1 0x4 DUP9 EQ JUMPDEST DUP1 ISZERO PUSH2 0x1ABB JUMPI POP PUSH1 0x1 DUP2 LT ISZERO JUMPDEST ISZERO PUSH2 0x1AC4 JUMPI DUP1 SWAP10 POP JUMPDEST PUSH2 0x1AD1 DUP11 DUP8 DUP11 PUSH1 0x1 PUSH2 0x1833 JUMP JUMPDEST PUSH2 0x1DB5 JUMP JUMPDEST PUSH1 0x9 PUSH1 0x0 DUP8 PUSH20 0xFFFFFFFFFFFFFFFFFFFFFFFFFFFFFFFFFFFFFFFF AND PUSH20 0xFFFFFFFFFFFFFFFFFFFFFFFFFFFFFFFFFFFFFFFF AND DUP2 MSTORE PUSH1 0x20 ADD SWAP1 DUP2 MSTORE PUSH1 0x20 ADD PUSH1 0x0 KECCAK256 PUSH1 0x0 ADD PUSH1 0x0 SWAP1 SLOAD SWAP1 PUSH2 0x100 EXP SWAP1 DIV PUSH1 0xFF AND PUSH2 0x1B62 JUMPI PUSH1 0xA PUSH1 0x0 PUSH1 0x1 DUP2 MSTORE PUSH1 0x20 ADD SWAP1 DUP2 MSTORE PUSH1 0x20 ADD PUSH1 0x0 KECCAK256 PUSH1 0x0 SWAP1 SLOAD SWAP1 PUSH2 0x100 EXP SWAP1 DIV PUSH20 0xFFFFFFFFFFFFFFFFFFFFFFFFFFFFFFFFFFFFFFFF AND SWAP6 POP JUMPDEST PUSH1 0x1 PUSH1 0x9 PUSH1 0x0 DUP9 PUSH20 0xFFFFFFFFFFFFFFFFFFFFFFFFFFFFFFFFFFFFFFFF AND PUSH20 0xFFFFFFFFFFFFFFFFFFFFFFFFFFFFFFFFFFFFFFFF AND DUP2 MSTORE PUSH1 0x20 ADD SWAP1 DUP2 MSTORE PUSH1 0x20 ADD PUSH1 0x0 KECCAK256 PUSH1 0x5 ADD PUSH1 0x0 DUP4 DUP2 MSTORE PUSH1 0x20 ADD SWAP1 DUP2 MSTORE PUSH1 0x20 ADD PUSH1 0x0 KECCAK256 SLOAD PUSH2 0x1BC2 SWAP2 SWAP1 PUSH2 0x44F8 JUMP JUMPDEST PUSH1 0x9 PUSH1 0x0 DUP9 PUSH20 0xFFFFFFFFFFFFFFFFFFFFFFFFFFFFFFFFFFFFFFFF AND PUSH20 0xFFFFFFFFFFFFFFFFFFFFFFFFFFFFFFFFFFFFFFFF AND DUP2 MSTORE PUSH1 0x20 ADD SWAP1 DUP2 MSTORE PUSH1 0x20 ADD PUSH1 0x0 KECCAK256 PUSH1 0x5 ADD PUSH1 0x0 DUP4 DUP2 MSTORE PUSH1 0x20 ADD SWAP1 DUP2 MSTORE PUSH1 0x20 ADD PUSH1 0x0 KECCAK256 DUP2 SWAP1 SSTORE POP PUSH1 0x0 DUP7 PUSH20 0xFFFFFFFFFFFFFFFFFFFFFFFFFFFFFFFFFFFFFFFF AND PUSH1 0x8 PUSH1 0x0 DUP5 DUP2 MSTORE PUSH1 0x20 ADD SWAP1 DUP2 MSTORE PUSH1 0x20 ADD PUSH1 0x0 KECCAK256 SLOAD PUSH1 0x40 MLOAD PUSH2 0x1C52 SWAP1 PUSH2 0x422C JUMP JUMPDEST PUSH1 0x0 PUSH1 0x40 MLOAD DUP1 DUP4 SUB DUP2 DUP6 DUP8 GAS CALL SWAP3 POP POP POP RETURNDATASIZE DUP1 PUSH1 0x0 DUP2 EQ PUSH2 0x1C8F JUMPI PUSH1 0x40 MLOAD SWAP2 POP PUSH1 0x1F NOT PUSH1 0x3F RETURNDATASIZE ADD AND DUP3 ADD PUSH1 0x40 MSTORE RETURNDATASIZE DUP3 MSTORE RETURNDATASIZE PUSH1 0x0 PUSH1 0x20 DUP5 ADD RETURNDATACOPY PUSH2 0x1C94 JUMP JUMPDEST PUSH1 0x60 SWAP2 POP JUMPDEST POP POP SWAP1 POP DUP1 PUSH2 0x1CD8 JUMPI PUSH1 0x40 MLOAD PUSH32 0x8C379A000000000000000000000000000000000000000000000000000000000 DUP2 MSTORE PUSH1 0x4 ADD PUSH2 0x1CCF SWAP1 PUSH2 0x428D JUMP JUMPDEST PUSH1 0x40 MLOAD DUP1 SWAP2 SUB SWAP1 REVERT JUMPDEST DUP1 ISZERO PUSH2 0x1D46 JUMPI CALLER PUSH20 0xFFFFFFFFFFFFFFFFFFFFFFFFFFFFFFFFFFFFFFFF AND DUP8 PUSH20 0xFFFFFFFFFFFFFFFFFFFFFFFFFFFFFFFFFFFFFFFF AND PUSH32 0xCE7DC747411AC40191C5335943FCC79D8C2D8C01CA5AE83D9FED160409FA6120 DUP5 TIMESTAMP PUSH1 0x40 MLOAD PUSH2 0x1D3D SWAP3 SWAP2 SWAP1 PUSH2 0x4714 JUMP JUMPDEST PUSH1 0x40 MLOAD DUP1 SWAP2 SUB SWAP1 LOG3 JUMPDEST DUP1 PUSH2 0x1DB3 JUMPI CALLER PUSH20 0xFFFFFFFFFFFFFFFFFFFFFFFFFFFFFFFFFFFFFFFF AND DUP8 PUSH20 0xFFFFFFFFFFFFFFFFFFFFFFFFFFFFFFFFFFFFFFFF AND PUSH32 0x7DF0F6BAC5C770AF7783500BB7F1C0D073ADB11316004BA6F9F6C704AF1A1AEA DUP5 TIMESTAMP PUSH1 0x40 MLOAD PUSH2 0x1DAA SWAP3 SWAP2 SWAP1 PUSH2 0x4714 JUMP JUMPDEST PUSH1 0x40 MLOAD DUP1 SWAP2 SUB SWAP1 LOG3 JUMPDEST POP JUMPDEST JUMPDEST POP POP POP POP POP POP POP POP POP POP JUMP JUMPDEST PUSH1 0x0 DUP1 PUSH1 0x0 DUP1 PUSH1 0x1 DUP10 PUSH2 0x1DD5 SWAP2 SWAP1 PUSH2 0x44F8 JUMP JUMPDEST SWAP1 POP PUSH1 0x0 DUP1 PUSH1 0x2 DUP4 GT PUSH2 0x1E5F JUMPI PUSH1 0xA PUSH1 0x0 PUSH1 0x9 PUSH1 0x0 DUP14 PUSH20 0xFFFFFFFFFFFFFFFFFFFFFFFFFFFFFFFFFFFFFFFF AND PUSH20 0xFFFFFFFFFFFFFFFFFFFFFFFFFFFFFFFFFFFFFFFF AND DUP2 MSTORE PUSH1 0x20 ADD SWAP1 DUP2 MSTORE PUSH1 0x20 ADD PUSH1 0x0 KECCAK256 PUSH1 0x2 ADD SLOAD DUP2 MSTORE PUSH1 0x20 ADD SWAP1 DUP2 MSTORE PUSH1 0x20 ADD PUSH1 0x0 KECCAK256 PUSH1 0x0 SWAP1 SLOAD SWAP1 PUSH2 0x100 EXP SWAP1 DIV PUSH20 0xFFFFFFFFFFFFFFFFFFFFFFFFFFFFFFFFFFFFFFFF AND SWAP1 POP PUSH2 0x1E63 JUMP JUMPDEST DUP10 SWAP1 POP JUMPDEST PUSH2 0x1E6E DUP2 DUP13 DUP12 PUSH2 0x2B16 JUMP JUMPDEST DUP1 SWAP3 POP DUP2 SWAP4 POP POP POP PUSH1 0x9 PUSH1 0x0 DUP4 PUSH20 0xFFFFFFFFFFFFFFFFFFFFFFFFFFFFFFFFFFFFFFFF AND PUSH20 0xFFFFFFFFFFFFFFFFFFFFFFFFFFFFFFFFFFFFFFFF AND DUP2 MSTORE PUSH1 0x20 ADD SWAP1 DUP2 MSTORE PUSH1 0x20 ADD PUSH1 0x0 KECCAK256 PUSH1 0x0 ADD PUSH1 0x0 SWAP1 SLOAD SWAP1 PUSH2 0x100 EXP SWAP1 DIV PUSH1 0xFF AND ISZERO DUP1 PUSH2 0x1FDB JUMPI POP PUSH1 0x0 PUSH20 0xFFFFFFFFFFFFFFFFFFFFFFFFFFFFFFFFFFFFFFFF AND PUSH1 0xC PUSH1 0x0 DUP6 DUP2 MSTORE PUSH1 0x20 ADD SWAP1 DUP2 MSTORE PUSH1 0x20 ADD PUSH1 0x0 KECCAK256 PUSH1 0x0 DUP5 PUSH20 0xFFFFFFFFFFFFFFFFFFFFFFFFFFFFFFFFFFFFFFFF AND PUSH20 0xFFFFFFFFFFFFFFFFFFFFFFFFFFFFFFFFFFFFFFFF AND DUP2 MSTORE PUSH1 0x20 ADD SWAP1 DUP2 MSTORE PUSH1 0x20 ADD PUSH1 0x0 KECCAK256 PUSH1 0x0 SWAP1 SLOAD SWAP1 PUSH2 0x100 EXP SWAP1 DIV PUSH20 0xFFFFFFFFFFFFFFFFFFFFFFFFFFFFFFFFFFFFFFFF AND PUSH20 0xFFFFFFFFFFFFFFFFFFFFFFFFFFFFFFFFFFFFFFFF AND EQ DUP1 ISZERO PUSH2 0x1FDA JUMPI POP PUSH1 0x0 ISZERO ISZERO PUSH1 0xD PUSH1 0x0 DUP6 DUP2 MSTORE PUSH1 0x20 ADD SWAP1 DUP2 MSTORE PUSH1 0x20 ADD PUSH1 0x0 KECCAK256 PUSH1 0x0 DUP5 PUSH20 0xFFFFFFFFFFFFFFFFFFFFFFFFFFFFFFFFFFFFFFFF AND PUSH20 0xFFFFFFFFFFFFFFFFFFFFFFFFFFFFFFFFFFFFFFFF AND DUP2 MSTORE PUSH1 0x20 ADD SWAP1 DUP2 MSTORE PUSH1 0x20 ADD PUSH1 0x0 KECCAK256 PUSH1 0x0 SWAP1 SLOAD SWAP1 PUSH2 0x100 EXP SWAP1 DIV PUSH1 0xFF AND ISZERO ISZERO EQ JUMPDEST JUMPDEST ISZERO PUSH2 0x2279 JUMPI PUSH1 0x9 PUSH1 0x0 DUP4 PUSH20 0xFFFFFFFFFFFFFFFFFFFFFFFFFFFFFFFFFFFFFFFF AND PUSH20 0xFFFFFFFFFFFFFFFFFFFFFFFFFFFFFFFFFFFFFFFF AND DUP2 MSTORE PUSH1 0x20 ADD SWAP1 DUP2 MSTORE PUSH1 0x20 ADD PUSH1 0x0 KECCAK256 PUSH1 0x0 ADD PUSH1 0x0 SWAP1 SLOAD SWAP1 PUSH2 0x100 EXP SWAP1 DIV PUSH1 0xFF AND PUSH2 0x206C JUMPI PUSH1 0xA PUSH1 0x0 PUSH1 0x1 DUP2 MSTORE PUSH1 0x20 ADD SWAP1 DUP2 MSTORE PUSH1 0x20 ADD PUSH1 0x0 KECCAK256 PUSH1 0x0 SWAP1 SLOAD SWAP1 PUSH2 0x100 EXP SWAP1 DIV PUSH20 0xFFFFFFFFFFFFFFFFFFFFFFFFFFFFFFFFFFFFFFFF AND SWAP2 POP JUMPDEST PUSH1 0xA PUSH1 0x0 PUSH1 0x1 DUP2 MSTORE PUSH1 0x20 ADD SWAP1 DUP2 MSTORE PUSH1 0x20 ADD PUSH1 0x0 KECCAK256 PUSH1 0x0 SWAP1 SLOAD SWAP1 PUSH2 0x100 EXP SWAP1 DIV PUSH20 0xFFFFFFFFFFFFFFFFFFFFFFFFFFFFFFFFFFFFFFFF AND PUSH20 0xFFFFFFFFFFFFFFFFFFFFFFFFFFFFFFFFFFFFFFFF AND DUP3 PUSH20 0xFFFFFFFFFFFFFFFFFFFFFFFFFFFFFFFFFFFFFFFF AND EQ PUSH2 0x218F JUMPI PUSH1 0x1 PUSH1 0x9 PUSH1 0x0 DUP5 PUSH20 0xFFFFFFFFFFFFFFFFFFFFFFFFFFFFFFFFFFFFFFFF AND PUSH20 0xFFFFFFFFFFFFFFFFFFFFFFFFFFFFFFFFFFFFFFFF AND DUP2 MSTORE PUSH1 0x20 ADD SWAP1 DUP2 MSTORE PUSH1 0x20 ADD PUSH1 0x0 KECCAK256 PUSH1 0x5 ADD PUSH1 0x0 DUP6 DUP2 MSTORE PUSH1 0x20 ADD SWAP1 DUP2 MSTORE PUSH1 0x20 ADD PUSH1 0x0 KECCAK256 SLOAD PUSH2 0x2133 SWAP2 SWAP1 PUSH2 0x44F8 JUMP JUMPDEST PUSH1 0x9 PUSH1 0x0 DUP5 PUSH20 0xFFFFFFFFFFFFFFFFFFFFFFFFFFFFFFFFFFFFFFFF AND PUSH20 0xFFFFFFFFFFFFFFFFFFFFFFFFFFFFFFFFFFFFFFFF AND DUP2 MSTORE PUSH1 0x20 ADD SWAP1 DUP2 MSTORE PUSH1 0x20 ADD PUSH1 0x0 KECCAK256 PUSH1 0x5 ADD PUSH1 0x0 DUP6 DUP2 MSTORE PUSH1 0x20 ADD SWAP1 DUP2 MSTORE PUSH1 0x20 ADD PUSH1 0x0 KECCAK256 DUP2 SWAP1 SSTORE POP PUSH1 0x0 SWAP7 POP JUMPDEST DUP1 PUSH1 0xC PUSH1 0x0 DUP6 DUP2 MSTORE PUSH1 0x20 ADD SWAP1 DUP2 MSTORE PUSH1 0x20 ADD PUSH1 0x0 KECCAK256 PUSH1 0x0 DUP5 PUSH20 0xFFFFFFFFFFFFFFFFFFFFFFFFFFFFFFFFFFFFFFFF AND PUSH20 0xFFFFFFFFFFFFFFFFFFFFFFFFFFFFFFFFFFFFFFFF AND DUP2 MSTORE PUSH1 0x20 ADD SWAP1 DUP2 MSTORE PUSH1 0x20 ADD PUSH1 0x0 KECCAK256 PUSH1 0x0 PUSH2 0x100 EXP DUP2 SLOAD DUP2 PUSH20 0xFFFFFFFFFFFFFFFFFFFFFFFFFFFFFFFFFFFFFFFF MUL NOT AND SWAP1 DUP4 PUSH20 0xFFFFFFFFFFFFFFFFFFFFFFFFFFFFFFFFFFFFFFFF AND MUL OR SWAP1 SSTORE POP PUSH1 0x1 PUSH1 0xB PUSH1 0x0 DUP6 DUP2 MSTORE PUSH1 0x20 ADD SWAP1 DUP2 MSTORE PUSH1 0x20 ADD PUSH1 0x0 KECCAK256 PUSH1 0x0 DUP5 PUSH20 0xFFFFFFFFFFFFFFFFFFFFFFFFFFFFFFFFFFFFFFFF AND PUSH20 0xFFFFFFFFFFFFFFFFFFFFFFFFFFFFFFFFFFFFFFFF AND DUP2 MSTORE PUSH1 0x20 ADD SWAP1 DUP2 MSTORE PUSH1 0x20 ADD PUSH1 0x0 KECCAK256 DUP2 SWAP1 SSTORE POP PUSH2 0x24B4 JUMP JUMPDEST PUSH1 0x0 PUSH1 0xC PUSH1 0x0 DUP6 DUP2 MSTORE PUSH1 0x20 ADD SWAP1 DUP2 MSTORE PUSH1 0x20 ADD PUSH1 0x0 KECCAK256 PUSH1 0x0 DUP5 PUSH20 0xFFFFFFFFFFFFFFFFFFFFFFFFFFFFFFFFFFFFFFFF AND PUSH20 0xFFFFFFFFFFFFFFFFFFFFFFFFFFFFFFFFFFFFFFFF AND DUP2 MSTORE PUSH1 0x20 ADD SWAP1 DUP2 MSTORE PUSH1 0x20 ADD PUSH1 0x0 KECCAK256 PUSH1 0x0 SWAP1 SLOAD SWAP1 PUSH2 0x100 EXP SWAP1 DIV PUSH20 0xFFFFFFFFFFFFFFFFFFFFFFFFFFFFFFFFFFFFFFFF AND SWAP1 POP PUSH2 0x22F9 DUP4 DUP3 DUP5 PUSH2 0x3216 JUMP JUMPDEST ISZERO PUSH2 0x2307 JUMPI PUSH1 0x1 SWAP9 POP PUSH2 0x24B2 JUMP JUMPDEST PUSH1 0x0 PUSH1 0xC PUSH1 0x0 DUP7 DUP2 MSTORE PUSH1 0x20 ADD SWAP1 DUP2 MSTORE PUSH1 0x20 ADD PUSH1 0x0 KECCAK256 PUSH1 0x0 DUP6 PUSH20 0xFFFFFFFFFFFFFFFFFFFFFFFFFFFFFFFFFFFFFFFF AND PUSH20 0xFFFFFFFFFFFFFFFFFFFFFFFFFFFFFFFFFFFFFFFF AND DUP2 MSTORE PUSH1 0x20 ADD SWAP1 DUP2 MSTORE PUSH1 0x20 ADD PUSH1 0x0 KECCAK256 PUSH1 0x0 PUSH2 0x100 EXP DUP2 SLOAD DUP2 PUSH20 0xFFFFFFFFFFFFFFFFFFFFFFFFFFFFFFFFFFFFFFFF MUL NOT AND SWAP1 DUP4 PUSH20 0xFFFFFFFFFFFFFFFFFFFFFFFFFFFFFFFFFFFFFFFF AND MUL OR SWAP1 SSTORE POP PUSH1 0x1 PUSH1 0xD PUSH1 0x0 DUP7 DUP2 MSTORE PUSH1 0x20 ADD SWAP1 DUP2 MSTORE PUSH1 0x20 ADD PUSH1 0x0 KECCAK256 PUSH1 0x0 DUP6 PUSH20 0xFFFFFFFFFFFFFFFFFFFFFFFFFFFFFFFFFFFFFFFF AND PUSH20 0xFFFFFFFFFFFFFFFFFFFFFFFFFFFFFFFFFFFFFFFF AND DUP2 MSTORE PUSH1 0x20 ADD SWAP1 DUP2 MSTORE PUSH1 0x20 ADD PUSH1 0x0 KECCAK256 PUSH1 0x0 PUSH2 0x100 EXP DUP2 SLOAD DUP2 PUSH1 0xFF MUL NOT AND SWAP1 DUP4 ISZERO ISZERO MUL OR SWAP1 SSTORE POP PUSH1 0x1 PUSH1 0xB PUSH1 0x0 DUP7 DUP2 MSTORE PUSH1 0x20 ADD SWAP1 DUP2 MSTORE PUSH1 0x20 ADD PUSH1 0x0 KECCAK256 PUSH1 0x0 DUP6 PUSH20 0xFFFFFFFFFFFFFFFFFFFFFFFFFFFFFFFFFFFFFFFF AND PUSH20 0xFFFFFFFFFFFFFFFFFFFFFFFFFFFFFFFFFFFFFFFF AND DUP2 MSTORE PUSH1 0x20 ADD SWAP1 DUP2 MSTORE PUSH1 0x20 ADD PUSH1 0x0 KECCAK256 SLOAD PUSH2 0x245D SWAP2 SWAP1 PUSH2 0x44F8 JUMP JUMPDEST PUSH1 0xB PUSH1 0x0 DUP7 DUP2 MSTORE PUSH1 0x20 ADD SWAP1 DUP2 MSTORE PUSH1 0x20 ADD PUSH1 0x0 KECCAK256 PUSH1 0x0 DUP6 PUSH20 0xFFFFFFFFFFFFFFFFFFFFFFFFFFFFFFFFFFFFFFFF AND PUSH20 0xFFFFFFFFFFFFFFFFFFFFFFFFFFFFFFFFFFFFFFFF AND DUP2 MSTORE PUSH1 0x20 ADD SWAP1 DUP2 MSTORE PUSH1 0x20 ADD PUSH1 0x0 KECCAK256 DUP2 SWAP1 SSTORE POP JUMPDEST POP JUMPDEST PUSH1 0x9 PUSH1 0x0 DUP3 PUSH20 0xFFFFFFFFFFFFFFFFFFFFFFFFFFFFFFFFFFFFFFFF AND PUSH20 0xFFFFFFFFFFFFFFFFFFFFFFFFFFFFFFFFFFFFFFFF AND DUP2 MSTORE PUSH1 0x20 ADD SWAP1 DUP2 MSTORE PUSH1 0x20 ADD PUSH1 0x0 KECCAK256 PUSH1 0x6 ADD DUP4 SWAP1 DUP1 PUSH1 0x1 DUP2 SLOAD ADD DUP1 DUP3 SSTORE DUP1 SWAP2 POP POP PUSH1 0x1 SWAP1 SUB SWAP1 PUSH1 0x0 MSTORE PUSH1 0x20 PUSH1 0x0 KECCAK256 ADD PUSH1 0x0 SWAP1 SWAP2 SWAP1 SWAP2 SWAP1 SWAP2 POP SSTORE DUP2 DUP8 DUP10 SWAP6 POP SWAP6 POP SWAP6 POP POP POP POP SWAP6 POP SWAP6 POP SWAP6 SWAP3 POP POP POP JUMP JUMPDEST PUSH1 0x0 DUP1 PUSH1 0x0 PUSH1 0x1 SWAP1 POP PUSH1 0x0 DUP1 DUP9 PUSH2 0x25C2 JUMPI PUSH1 0xA PUSH1 0x0 PUSH1 0x9 PUSH1 0x0 DUP12 PUSH20 0xFFFFFFFFFFFFFFFFFFFFFFFFFFFFFFFFFFFFFFFF AND PUSH20 0xFFFFFFFFFFFFFFFFFFFFFFFFFFFFFFFFFFFFFFFF AND DUP2 MSTORE PUSH1 0x20 ADD SWAP1 DUP2 MSTORE PUSH1 0x20 ADD PUSH1 0x0 KECCAK256 PUSH1 0x2 ADD SLOAD DUP2 MSTORE PUSH1 0x20 ADD SWAP1 DUP2 MSTORE PUSH1 0x20 ADD PUSH1 0x0 KECCAK256 PUSH1 0x0 SWAP1 SLOAD SWAP1 PUSH2 0x100 EXP SWAP1 DIV PUSH20 0xFFFFFFFFFFFFFFFFFFFFFFFFFFFFFFFFFFFFFFFF AND SWAP2 POP PUSH2 0x25C6 JUMP JUMPDEST DUP8 SWAP2 POP JUMPDEST PUSH2 0x25D1 DUP3 DUP9 DUP9 PUSH2 0x35E5 JUMP JUMPDEST POP DUP1 SWAP2 POP POP PUSH1 0x9 PUSH1 0x0 DUP3 PUSH20 0xFFFFFFFFFFFFFFFFFFFFFFFFFFFFFFFFFFFFFFFF AND PUSH20 0xFFFFFFFFFFFFFFFFFFFFFFFFFFFFFFFFFFFFFFFF AND DUP2 MSTORE PUSH1 0x20 ADD SWAP1 DUP2 MSTORE PUSH1 0x20 ADD PUSH1 0x0 KECCAK256 PUSH1 0x0 ADD PUSH1 0x0 SWAP1 SLOAD SWAP1 PUSH2 0x100 EXP SWAP1 DIV PUSH1 0xFF AND PUSH2 0x2662 JUMPI PUSH1 0xA PUSH1 0x0 PUSH1 0x1 DUP2 MSTORE PUSH1 0x20 ADD SWAP1 DUP2 MSTORE PUSH1 0x20 ADD PUSH1 0x0 KECCAK256 PUSH1 0x0 SWAP1 SLOAD SWAP1 PUSH2 0x100 EXP SWAP1 DIV PUSH20 0xFFFFFFFFFFFFFFFFFFFFFFFFFFFFFFFFFFFFFFFF AND SWAP1 POP JUMPDEST DUP1 DUP4 SWAP5 POP SWAP5 POP POP POP POP SWAP5 POP SWAP5 SWAP3 POP POP POP JUMP JUMPDEST PUSH1 0x0 DUP1 PUSH1 0x0 DUP1 DUP7 SWAP1 POP PUSH1 0x0 PUSH1 0x1 PUSH1 0x9 PUSH1 0x0 DUP13 PUSH20 0xFFFFFFFFFFFFFFFFFFFFFFFFFFFFFFFFFFFFFFFF AND PUSH20 0xFFFFFFFFFFFFFFFFFFFFFFFFFFFFFFFFFFFFFFFF AND DUP2 MSTORE PUSH1 0x20 ADD SWAP1 DUP2 MSTORE PUSH1 0x20 ADD PUSH1 0x0 KECCAK256 PUSH1 0x5 ADD PUSH1 0x0 DUP12 DUP2 MSTORE PUSH1 0x20 ADD SWAP1 DUP2 MSTORE PUSH1 0x20 ADD PUSH1 0x0 KECCAK256 SLOAD PUSH2 0x26DF SWAP2 SWAP1 PUSH2 0x44F8 JUMP JUMPDEST SWAP1 POP PUSH1 0x2 PUSH1 0xB PUSH1 0x0 DUP12 DUP2 MSTORE PUSH1 0x20 ADD SWAP1 DUP2 MSTORE PUSH1 0x20 ADD PUSH1 0x0 KECCAK256 PUSH1 0x0 DUP13 PUSH20 0xFFFFFFFFFFFFFFFFFFFFFFFFFFFFFFFFFFFFFFFF AND PUSH20 0xFFFFFFFFFFFFFFFFFFFFFFFFFFFFFFFFFFFFFFFF AND DUP2 MSTORE PUSH1 0x20 ADD SWAP1 DUP2 MSTORE PUSH1 0x20 ADD PUSH1 0x0 KECCAK256 SLOAD EQ ISZERO PUSH2 0x2743 JUMPI PUSH1 0x1 SWAP3 POP PUSH2 0x2B03 JUMP JUMPDEST PUSH1 0x4 DUP2 LT ISZERO DUP1 ISZERO PUSH2 0x2760 JUMPI POP PUSH1 0x0 PUSH1 0x4 DUP3 PUSH2 0x275E SWAP2 SWAP1 PUSH2 0x46E3 JUMP JUMPDEST EQ JUMPDEST DUP1 ISZERO PUSH2 0x27AF JUMPI POP PUSH1 0x0 PUSH1 0x9 PUSH1 0x0 DUP13 PUSH20 0xFFFFFFFFFFFFFFFFFFFFFFFFFFFFFFFFFFFFFFFF AND PUSH20 0xFFFFFFFFFFFFFFFFFFFFFFFFFFFFFFFFFFFFFFFF AND DUP2 MSTORE PUSH1 0x20 ADD SWAP1 DUP2 MSTORE PUSH1 0x20 ADD PUSH1 0x0 KECCAK256 PUSH1 0x2 ADD SLOAD EQ ISZERO JUMPDEST DUP1 ISZERO PUSH2 0x27BB JUMPI POP PUSH1 0x1 DUP10 EQ JUMPDEST ISZERO PUSH2 0x27E2 JUMPI PUSH1 0x3 DUP9 EQ DUP1 ISZERO PUSH2 0x27D0 JUMPI POP PUSH1 0x4 DUP2 EQ JUMPDEST ISZERO PUSH2 0x27D9 JUMPI DUP1 SWAP2 POP JUMPDEST PUSH1 0x1 SWAP3 POP PUSH2 0x2B02 JUMP JUMPDEST PUSH1 0x4 DUP2 LT ISZERO DUP1 ISZERO PUSH2 0x27FF JUMPI POP PUSH1 0x0 PUSH1 0x4 DUP3 PUSH2 0x27FD SWAP2 SWAP1 PUSH2 0x46E3 JUMP JUMPDEST EQ JUMPDEST DUP1 ISZERO PUSH2 0x280B JUMPI POP PUSH1 0x2 DUP9 EQ JUMPDEST DUP1 ISZERO PUSH2 0x2815 JUMPI POP DUP6 ISZERO JUMPDEST DUP1 ISZERO PUSH2 0x2821 JUMPI POP PUSH1 0x1 DUP10 GT JUMPDEST ISZERO PUSH2 0x28A5 JUMPI PUSH1 0xA PUSH1 0x0 PUSH1 0x1 DUP2 MSTORE PUSH1 0x20 ADD SWAP1 DUP2 MSTORE PUSH1 0x20 ADD PUSH1 0x0 KECCAK256 PUSH1 0x0 SWAP1 SLOAD SWAP1 PUSH2 0x100 EXP SWAP1 DIV PUSH20 0xFFFFFFFFFFFFFFFFFFFFFFFFFFFFFFFFFFFFFFFF AND PUSH20 0xFFFFFFFFFFFFFFFFFFFFFFFFFFFFFFFFFFFFFFFF AND DUP11 PUSH20 0xFFFFFFFFFFFFFFFFFFFFFFFFFFFFFFFFFFFFFFFF AND EQ ISZERO PUSH2 0x2897 JUMPI PUSH1 0x0 SWAP3 POP PUSH2 0x28A0 JUMP JUMPDEST PUSH1 0x4 SWAP2 POP PUSH1 0x1 SWAP3 POP JUMPDEST PUSH2 0x2B01 JUMP JUMPDEST PUSH1 0x2 DUP2 EQ DUP1 ISZERO PUSH2 0x28F8 JUMPI POP PUSH1 0x0 PUSH1 0x9 PUSH1 0x0 DUP13 PUSH20 0xFFFFFFFFFFFFFFFFFFFFFFFFFFFFFFFFFFFFFFFF AND PUSH20 0xFFFFFFFFFFFFFFFFFFFFFFFFFFFFFFFFFFFFFFFF AND DUP2 MSTORE PUSH1 0x20 ADD SWAP1 DUP2 MSTORE PUSH1 0x20 ADD PUSH1 0x0 KECCAK256 PUSH1 0x2 ADD SLOAD EQ ISZERO JUMPDEST DUP1 ISZERO PUSH2 0x2902 JUMPI POP DUP7 ISZERO JUMPDEST DUP1 ISZERO PUSH2 0x290C JUMPI POP DUP6 ISZERO JUMPDEST ISZERO PUSH2 0x2A1B JUMPI PUSH1 0x9 PUSH1 0x0 DUP12 PUSH20 0xFFFFFFFFFFFFFFFFFFFFFFFFFFFFFFFFFFFFFFFF AND PUSH20 0xFFFFFFFFFFFFFFFFFFFFFFFFFFFFFFFFFFFFFFFF AND DUP2 MSTORE PUSH1 0x20 ADD SWAP1 DUP2 MSTORE PUSH1 0x20 ADD PUSH1 0x0 KECCAK256 PUSH1 0x0 ADD PUSH1 0x0 SWAP1 SLOAD SWAP1 PUSH2 0x100 EXP SWAP1 DIV PUSH1 0xFF AND PUSH2 0x299D JUMPI PUSH1 0xA PUSH1 0x0 PUSH1 0x1 DUP2 MSTORE PUSH1 0x20 ADD SWAP1 DUP2 MSTORE PUSH1 0x20 ADD PUSH1 0x0 KECCAK256 PUSH1 0x0 SWAP1 SLOAD SWAP1 PUSH2 0x100 EXP SWAP1 DIV PUSH20 0xFFFFFFFFFFFFFFFFFFFFFFFFFFFFFFFFFFFFFFFF AND SWAP10 POP JUMPDEST PUSH1 0xA PUSH1 0x0 PUSH1 0x1 DUP2 MSTORE PUSH1 0x20 ADD SWAP1 DUP2 MSTORE PUSH1 0x20 ADD PUSH1 0x0 KECCAK256 PUSH1 0x0 SWAP1 SLOAD SWAP1 PUSH2 0x100 EXP SWAP1 DIV PUSH20 0xFFFFFFFFFFFFFFFFFFFFFFFFFFFFFFFFFFFFFFFF AND PUSH20 0xFFFFFFFFFFFFFFFFFFFFFFFFFFFFFFFFFFFFFFFF AND DUP11 PUSH20 0xFFFFFFFFFFFFFFFFFFFFFFFFFFFFFFFFFFFFFFFF AND EQ ISZERO PUSH2 0x2A0E JUMPI PUSH1 0x0 SWAP3 POP PUSH2 0x2A16 JUMP JUMPDEST PUSH1 0x1 SWAP3 POP DUP1 SWAP2 POP JUMPDEST PUSH2 0x2B00 JUMP JUMPDEST PUSH1 0x1 DUP2 EQ DUP1 ISZERO PUSH2 0x2A6D JUMPI POP PUSH1 0x0 PUSH1 0x9 PUSH1 0x0 DUP13 PUSH20 0xFFFFFFFFFFFFFFFFFFFFFFFFFFFFFFFFFFFFFFFF AND PUSH20 0xFFFFFFFFFFFFFFFFFFFFFFFFFFFFFFFFFFFFFFFF AND DUP2 MSTORE PUSH1 0x20 ADD SWAP1 DUP2 MSTORE PUSH1 0x20 ADD PUSH1 0x0 KECCAK256 PUSH1 0x2 ADD SLOAD EQ JUMPDEST ISZERO PUSH2 0x2AFF JUMPI PUSH1 0x9 PUSH1 0x0 DUP12 PUSH20 0xFFFFFFFFFFFFFFFFFFFFFFFFFFFFFFFFFFFFFFFF AND PUSH20 0xFFFFFFFFFFFFFFFFFFFFFFFFFFFFFFFFFFFFFFFF AND DUP2 MSTORE PUSH1 0x20 ADD SWAP1 DUP2 MSTORE PUSH1 0x20 ADD PUSH1 0x0 KECCAK256 PUSH1 0x0 ADD PUSH1 0x0 SWAP1 SLOAD SWAP1 PUSH2 0x100 EXP SWAP1 DIV PUSH1 0xFF AND PUSH2 0x2AFE JUMPI PUSH1 0xA PUSH1 0x0 PUSH1 0x1 DUP2 MSTORE PUSH1 0x20 ADD SWAP1 DUP2 MSTORE PUSH1 0x20 ADD PUSH1 0x0 KECCAK256 PUSH1 0x0 SWAP1 SLOAD SWAP1 PUSH2 0x100 EXP SWAP1 DIV PUSH20 0xFFFFFFFFFFFFFFFFFFFFFFFFFFFFFFFFFFFFFFFF AND SWAP10 POP JUMPDEST JUMPDEST JUMPDEST JUMPDEST JUMPDEST JUMPDEST DUP3 DUP3 SWAP5 POP SWAP5 POP POP POP POP SWAP6 POP SWAP6 SWAP4 POP POP POP POP JUMP JUMPDEST PUSH1 0x0 DUP1 PUSH1 0x0 DUP1 DUP7 SWAP1 POP PUSH1 0x0 JUMPDEST PUSH1 0x9 DUP2 SLT ISZERO PUSH2 0x314E JUMPI PUSH1 0x1 PUSH1 0x9 PUSH1 0x0 DUP11 PUSH20 0xFFFFFFFFFFFFFFFFFFFFFFFFFFFFFFFFFFFFFFFF AND PUSH20 0xFFFFFFFFFFFFFFFFFFFFFFFFFFFFFFFFFFFFFFFF AND DUP2 MSTORE PUSH1 0x20 ADD SWAP1 DUP2 MSTORE PUSH1 0x20 ADD PUSH1 0x0 KECCAK256 PUSH1 0x2 ADD SLOAD EQ DUP1 PUSH2 0x2BDB JUMPI POP PUSH1 0xA PUSH1 0x0 PUSH1 0x1 DUP2 MSTORE PUSH1 0x20 ADD SWAP1 DUP2 MSTORE PUSH1 0x20 ADD PUSH1 0x0 KECCAK256 PUSH1 0x0 SWAP1 SLOAD SWAP1 PUSH2 0x100 EXP SWAP1 DIV PUSH20 0xFFFFFFFFFFFFFFFFFFFFFFFFFFFFFFFFFFFFFFFF AND PUSH20 0xFFFFFFFFFFFFFFFFFFFFFFFFFFFFFFFFFFFFFFFF AND DUP4 PUSH20 0xFFFFFFFFFFFFFFFFFFFFFFFFFFFFFFFFFFFFFFFF AND EQ JUMPDEST ISZERO PUSH2 0x2BE5 JUMPI PUSH2 0x314E JUMP JUMPDEST PUSH1 0x0 PUSH1 0x1 PUSH1 0x9 PUSH1 0x0 DUP6 PUSH20 0xFFFFFFFFFFFFFFFFFFFFFFFFFFFFFFFFFFFFFFFF AND PUSH20 0xFFFFFFFFFFFFFFFFFFFFFFFFFFFFFFFFFFFFFFFF AND DUP2 MSTORE PUSH1 0x20 ADD SWAP1 DUP2 MSTORE PUSH1 0x20 ADD PUSH1 0x0 KECCAK256 PUSH1 0x6 ADD DUP1 SLOAD SWAP1 POP PUSH2 0x2C39 SWAP2 SWAP1 PUSH2 0x46AF JUMP JUMPDEST SWAP1 POP PUSH1 0x9 PUSH1 0x0 DUP5 PUSH20 0xFFFFFFFFFFFFFFFFFFFFFFFFFFFFFFFFFFFFFFFF AND PUSH20 0xFFFFFFFFFFFFFFFFFFFFFFFFFFFFFFFFFFFFFFFF AND DUP2 MSTORE PUSH1 0x20 ADD SWAP1 DUP2 MSTORE PUSH1 0x20 ADD PUSH1 0x0 KECCAK256 PUSH1 0x6 ADD DUP2 DUP2 SLOAD DUP2 LT PUSH2 0x2C8F JUMPI PUSH2 0x2C8E PUSH2 0x454E JUMP JUMPDEST JUMPDEST SWAP1 PUSH1 0x0 MSTORE PUSH1 0x20 PUSH1 0x0 KECCAK256 ADD SLOAD SWAP7 POP PUSH1 0x0 PUSH1 0xA PUSH1 0x0 PUSH1 0x9 PUSH1 0x0 DUP8 PUSH20 0xFFFFFFFFFFFFFFFFFFFFFFFFFFFFFFFFFFFFFFFF AND PUSH20 0xFFFFFFFFFFFFFFFFFFFFFFFFFFFFFFFFFFFFFFFF AND DUP2 MSTORE PUSH1 0x20 ADD SWAP1 DUP2 MSTORE PUSH1 0x20 ADD PUSH1 0x0 KECCAK256 PUSH1 0x2 ADD SLOAD DUP2 MSTORE PUSH1 0x20 ADD SWAP1 DUP2 MSTORE PUSH1 0x20 ADD PUSH1 0x0 KECCAK256 PUSH1 0x0 SWAP1 SLOAD SWAP1 PUSH2 0x100 EXP SWAP1 DIV PUSH20 0xFFFFFFFFFFFFFFFFFFFFFFFFFFFFFFFFFFFFFFFF AND SWAP1 POP PUSH1 0x0 PUSH1 0xA PUSH1 0x0 PUSH1 0x9 PUSH1 0x0 DUP6 PUSH20 0xFFFFFFFFFFFFFFFFFFFFFFFFFFFFFFFFFFFFFFFF AND PUSH20 0xFFFFFFFFFFFFFFFFFFFFFFFFFFFFFFFFFFFFFFFF AND DUP2 MSTORE PUSH1 0x20 ADD SWAP1 DUP2 MSTORE PUSH1 0x20 ADD PUSH1 0x0 KECCAK256 PUSH1 0x2 ADD SLOAD DUP2 MSTORE PUSH1 0x20 ADD SWAP1 DUP2 MSTORE PUSH1 0x20 ADD PUSH1 0x0 KECCAK256 PUSH1 0x0 SWAP1 SLOAD SWAP1 PUSH2 0x100 EXP SWAP1 DIV PUSH20 0xFFFFFFFFFFFFFFFFFFFFFFFFFFFFFFFFFFFFFFFF AND SWAP1 POP PUSH1 0x0 PUSH1 0x1 SWAP1 POP JUMPDEST DUP11 DUP2 LT ISZERO PUSH2 0x2E97 JUMPI PUSH1 0xA PUSH1 0x0 PUSH1 0x1 DUP2 MSTORE PUSH1 0x20 ADD SWAP1 DUP2 MSTORE PUSH1 0x20 ADD PUSH1 0x0 KECCAK256 PUSH1 0x0 SWAP1 SLOAD SWAP1 PUSH2 0x100 EXP SWAP1 DIV PUSH20 0xFFFFFFFFFFFFFFFFFFFFFFFFFFFFFFFFFFFFFFFF AND PUSH20 0xFFFFFFFFFFFFFFFFFFFFFFFFFFFFFFFFFFFFFFFF AND DUP3 PUSH20 0xFFFFFFFFFFFFFFFFFFFFFFFFFFFFFFFFFFFFFFFF AND EQ ISZERO PUSH2 0x2E0C JUMPI PUSH2 0x2E97 JUMP JUMPDEST PUSH1 0xA PUSH1 0x0 PUSH1 0x9 PUSH1 0x0 DUP6 PUSH20 0xFFFFFFFFFFFFFFFFFFFFFFFFFFFFFFFFFFFFFFFF AND PUSH20 0xFFFFFFFFFFFFFFFFFFFFFFFFFFFFFFFFFFFFFFFF AND DUP2 MSTORE PUSH1 0x20 ADD SWAP1 DUP2 MSTORE PUSH1 0x20 ADD PUSH1 0x0 KECCAK256 PUSH1 0x2 ADD SLOAD DUP2 MSTORE PUSH1 0x20 ADD SWAP1 DUP2 MSTORE PUSH1 0x20 ADD PUSH1 0x0 KECCAK256 PUSH1 0x0 SWAP1 SLOAD SWAP1 PUSH2 0x100 EXP SWAP1 DIV PUSH20 0xFFFFFFFFFFFFFFFFFFFFFFFFFFFFFFFFFFFFFFFF AND SWAP2 POP DUP1 DUP1 PUSH2 0x2E8F SWAP1 PUSH2 0x44AF JUMP JUMPDEST SWAP2 POP POP PUSH2 0x2D97 JUMP JUMPDEST POP PUSH1 0x1 DUP11 PUSH2 0x2EA5 SWAP2 SWAP1 PUSH2 0x44F8 JUMP JUMPDEST DUP10 LT ISZERO PUSH2 0x312D JUMPI PUSH1 0x9 PUSH1 0x0 DUP3 PUSH20 0xFFFFFFFFFFFFFFFFFFFFFFFFFFFFFFFFFFFFFFFF AND PUSH20 0xFFFFFFFFFFFFFFFFFFFFFFFFFFFFFFFFFFFFFFFF AND DUP2 MSTORE PUSH1 0x20 ADD SWAP1 DUP2 MSTORE PUSH1 0x20 ADD PUSH1 0x0 KECCAK256 PUSH1 0x0 ADD PUSH1 0x0 SWAP1 SLOAD SWAP1 PUSH2 0x100 EXP SWAP1 DIV PUSH1 0xFF AND ISZERO DUP1 PUSH2 0x2F4A JUMPI POP PUSH1 0x0 PUSH1 0x9 PUSH1 0x0 DUP5 PUSH20 0xFFFFFFFFFFFFFFFFFFFFFFFFFFFFFFFFFFFFFFFF AND PUSH20 0xFFFFFFFFFFFFFFFFFFFFFFFFFFFFFFFFFFFFFFFF AND DUP2 MSTORE PUSH1 0x20 ADD SWAP1 DUP2 MSTORE PUSH1 0x20 ADD PUSH1 0x0 KECCAK256 PUSH1 0x2 ADD SLOAD EQ JUMPDEST DUP1 PUSH2 0x2F97 JUMPI POP PUSH1 0x1 PUSH1 0x9 PUSH1 0x0 DUP5 PUSH20 0xFFFFFFFFFFFFFFFFFFFFFFFFFFFFFFFFFFFFFFFF AND PUSH20 0xFFFFFFFFFFFFFFFFFFFFFFFFFFFFFFFFFFFFFFFF AND DUP2 MSTORE PUSH1 0x20 ADD SWAP1 DUP2 MSTORE PUSH1 0x20 ADD PUSH1 0x0 KECCAK256 PUSH1 0x2 ADD SLOAD EQ JUMPDEST ISZERO PUSH2 0x3122 JUMPI PUSH1 0x9 PUSH1 0x0 PUSH1 0xA PUSH1 0x0 PUSH1 0x9 PUSH1 0x0 DUP8 PUSH20 0xFFFFFFFFFFFFFFFFFFFFFFFFFFFFFFFFFFFFFFFF AND PUSH20 0xFFFFFFFFFFFFFFFFFFFFFFFFFFFFFFFFFFFFFFFF AND DUP2 MSTORE PUSH1 0x20 ADD SWAP1 DUP2 MSTORE PUSH1 0x20 ADD PUSH1 0x0 KECCAK256 PUSH1 0x2 ADD SLOAD DUP2 MSTORE PUSH1 0x20 ADD SWAP1 DUP2 MSTORE PUSH1 0x20 ADD PUSH1 0x0 KECCAK256 PUSH1 0x0 SWAP1 SLOAD SWAP1 PUSH2 0x100 EXP SWAP1 DIV PUSH20 0xFFFFFFFFFFFFFFFFFFFFFFFFFFFFFFFFFFFFFFFF AND PUSH20 0xFFFFFFFFFFFFFFFFFFFFFFFFFFFFFFFFFFFFFFFF AND PUSH20 0xFFFFFFFFFFFFFFFFFFFFFFFFFFFFFFFFFFFFFFFF AND DUP2 MSTORE PUSH1 0x20 ADD SWAP1 DUP2 MSTORE PUSH1 0x20 ADD PUSH1 0x0 KECCAK256 PUSH1 0x0 ADD PUSH1 0x0 SWAP1 SLOAD SWAP1 PUSH2 0x100 EXP SWAP1 DIV PUSH1 0xFF AND PUSH2 0x30A1 JUMPI PUSH1 0xA PUSH1 0x0 PUSH1 0x1 DUP2 MSTORE PUSH1 0x20 ADD SWAP1 DUP2 MSTORE PUSH1 0x20 ADD PUSH1 0x0 KECCAK256 PUSH1 0x0 SWAP1 SLOAD SWAP1 PUSH2 0x100 EXP SWAP1 DIV PUSH20 0xFFFFFFFFFFFFFFFFFFFFFFFFFFFFFFFFFFFFFFFF AND SWAP6 POP PUSH2 0x311A JUMP JUMPDEST PUSH1 0xA PUSH1 0x0 PUSH1 0x9 PUSH1 0x0 DUP6 PUSH20 0xFFFFFFFFFFFFFFFFFFFFFFFFFFFFFFFFFFFFFFFF AND PUSH20 0xFFFFFFFFFFFFFFFFFFFFFFFFFFFFFFFFFFFFFFFF AND DUP2 MSTORE PUSH1 0x20 ADD SWAP1 DUP2 MSTORE PUSH1 0x20 ADD PUSH1 0x0 KECCAK256 PUSH1 0x2 ADD SLOAD DUP2 MSTORE PUSH1 0x20 ADD SWAP1 DUP2 MSTORE PUSH1 0x20 ADD PUSH1 0x0 KECCAK256 PUSH1 0x0 SWAP1 SLOAD SWAP1 PUSH2 0x100 EXP SWAP1 DIV PUSH20 0xFFFFFFFFFFFFFFFFFFFFFFFFFFFFFFFFFFFFFFFF AND SWAP6 POP JUMPDEST POP POP POP PUSH2 0x314E JUMP JUMPDEST DUP1 SWAP5 POP DUP1 SWAP6 POP PUSH2 0x3138 JUMP JUMPDEST DUP5 SWAP6 POP POP POP POP PUSH2 0x314E JUMP JUMPDEST POP POP POP DUP1 DUP1 PUSH2 0x3146 SWAP1 PUSH2 0x4747 JUMP JUMPDEST SWAP2 POP POP PUSH2 0x2B22 JUMP JUMPDEST POP PUSH1 0x1 PUSH1 0x9 PUSH1 0x0 DUP10 PUSH20 0xFFFFFFFFFFFFFFFFFFFFFFFFFFFFFFFFFFFFFFFF AND PUSH20 0xFFFFFFFFFFFFFFFFFFFFFFFFFFFFFFFFFFFFFFFF AND DUP2 MSTORE PUSH1 0x20 ADD SWAP1 DUP2 MSTORE PUSH1 0x20 ADD PUSH1 0x0 KECCAK256 PUSH1 0x5 ADD PUSH1 0x0 DUP9 DUP2 MSTORE PUSH1 0x20 ADD SWAP1 DUP2 MSTORE PUSH1 0x20 ADD PUSH1 0x0 KECCAK256 SLOAD PUSH2 0x31AF SWAP2 SWAP1 PUSH2 0x44F8 JUMP JUMPDEST PUSH1 0x9 PUSH1 0x0 DUP10 PUSH20 0xFFFFFFFFFFFFFFFFFFFFFFFFFFFFFFFFFFFFFFFF AND PUSH20 0xFFFFFFFFFFFFFFFFFFFFFFFFFFFFFFFFFFFFFFFF AND DUP2 MSTORE PUSH1 0x20 ADD SWAP1 DUP2 MSTORE PUSH1 0x20 ADD PUSH1 0x0 KECCAK256 PUSH1 0x5 ADD PUSH1 0x0 DUP9 DUP2 MSTORE PUSH1 0x20 ADD SWAP1 DUP2 MSTORE PUSH1 0x20 ADD PUSH1 0x0 KECCAK256 DUP2 SWAP1 SSTORE POP DUP2 DUP8 SWAP4 POP SWAP4 POP POP POP SWAP4 POP SWAP4 SWAP2 POP POP JUMP JUMPDEST PUSH1 0x0 DUP1 PUSH1 0x0 SWAP1 POP PUSH1 0x0 PUSH2 0x3228 DUP7 PUSH2 0x64D JUMP JUMPDEST SWAP1 POP PUSH1 0x0 DUP6 SWAP1 POP PUSH1 0x0 DUP6 SWAP1 POP PUSH1 0x0 PUSH1 0xA PUSH1 0x0 PUSH1 0x9 PUSH1 0x0 DUP7 PUSH20 0xFFFFFFFFFFFFFFFFFFFFFFFFFFFFFFFFFFFFFFFF AND PUSH20 0xFFFFFFFFFFFFFFFFFFFFFFFFFFFFFFFFFFFFFFFF AND DUP2 MSTORE PUSH1 0x20 ADD SWAP1 DUP2 MSTORE PUSH1 0x20 ADD PUSH1 0x0 KECCAK256 PUSH1 0x2 ADD SLOAD DUP2 MSTORE PUSH1 0x20 ADD SWAP1 DUP2 MSTORE PUSH1 0x20 ADD PUSH1 0x0 KECCAK256 PUSH1 0x0 SWAP1 SLOAD SWAP1 PUSH2 0x100 EXP SWAP1 DIV PUSH20 0xFFFFFFFFFFFFFFFFFFFFFFFFFFFFFFFFFFFFFFFF AND SWAP1 POP PUSH1 0x0 JUMPDEST PUSH1 0xC DUP2 SLT ISZERO PUSH2 0x33E7 JUMPI PUSH1 0x0 DUP1 JUMPDEST DUP7 MLOAD DUP2 LT ISZERO PUSH2 0x334E JUMPI DUP7 DUP2 DUP2 MLOAD DUP2 LT PUSH2 0x32DA JUMPI PUSH2 0x32D9 PUSH2 0x454E JUMP JUMPDEST JUMPDEST PUSH1 0x20 MUL PUSH1 0x20 ADD ADD MLOAD PUSH20 0xFFFFFFFFFFFFFFFFFFFFFFFFFFFFFFFFFFFFFFFF AND DUP5 PUSH20 0xFFFFFFFFFFFFFFFFFFFFFFFFFFFFFFFFFFFFFFFF AND EQ ISZERO PUSH2 0x333B JUMPI DUP7 DUP2 DUP2 MLOAD DUP2 LT PUSH2 0x3328 JUMPI PUSH2 0x3327 PUSH2 0x454E JUMP JUMPDEST JUMPDEST PUSH1 0x20 MUL PUSH1 0x20 ADD ADD MLOAD SWAP6 POP PUSH1 0x1 SWAP2 POP PUSH2 0x334E JUMP JUMPDEST DUP1 DUP1 PUSH2 0x3346 SWAP1 PUSH2 0x44AF JUMP JUMPDEST SWAP2 POP POP PUSH2 0x32BE JUMP JUMPDEST POP DUP1 ISZERO PUSH2 0x335B JUMPI POP PUSH2 0x33E7 JUMP JUMPDEST PUSH1 0xA PUSH1 0x0 PUSH1 0x9 PUSH1 0x0 DUP7 PUSH20 0xFFFFFFFFFFFFFFFFFFFFFFFFFFFFFFFFFFFFFFFF AND PUSH20 0xFFFFFFFFFFFFFFFFFFFFFFFFFFFFFFFFFFFFFFFF AND DUP2 MSTORE PUSH1 0x20 ADD SWAP1 DUP2 MSTORE PUSH1 0x20 ADD PUSH1 0x0 KECCAK256 PUSH1 0x2 ADD SLOAD DUP2 MSTORE PUSH1 0x20 ADD SWAP1 DUP2 MSTORE PUSH1 0x20 ADD PUSH1 0x0 KECCAK256 PUSH1 0x0 SWAP1 SLOAD SWAP1 PUSH2 0x100 EXP SWAP1 DIV PUSH20 0xFFFFFFFFFFFFFFFFFFFFFFFFFFFFFFFFFFFFFFFF AND SWAP3 POP POP DUP1 DUP1 PUSH2 0x33DF SWAP1 PUSH2 0x4747 JUMP JUMPDEST SWAP2 POP POP PUSH2 0x32B1 JUMP JUMPDEST POP PUSH1 0x0 PUSH1 0xA PUSH1 0x0 PUSH1 0x9 PUSH1 0x0 DUP7 PUSH20 0xFFFFFFFFFFFFFFFFFFFFFFFFFFFFFFFFFFFFFFFF AND PUSH20 0xFFFFFFFFFFFFFFFFFFFFFFFFFFFFFFFFFFFFFFFF AND DUP2 MSTORE PUSH1 0x20 ADD SWAP1 DUP2 MSTORE PUSH1 0x20 ADD PUSH1 0x0 KECCAK256 PUSH1 0x2 ADD SLOAD DUP2 MSTORE PUSH1 0x20 ADD SWAP1 DUP2 MSTORE PUSH1 0x20 ADD PUSH1 0x0 KECCAK256 PUSH1 0x0 SWAP1 SLOAD SWAP1 PUSH2 0x100 EXP SWAP1 DIV PUSH20 0xFFFFFFFFFFFFFFFFFFFFFFFFFFFFFFFFFFFFFFFF AND SWAP1 POP PUSH1 0x0 JUMPDEST PUSH1 0xC DUP2 SLT ISZERO PUSH2 0x359B JUMPI PUSH1 0x0 DUP1 JUMPDEST DUP8 MLOAD DUP2 LT ISZERO PUSH2 0x3502 JUMPI DUP8 DUP2 DUP2 MLOAD DUP2 LT PUSH2 0x348E JUMPI PUSH2 0x348D PUSH2 0x454E JUMP JUMPDEST JUMPDEST PUSH1 0x20 MUL PUSH1 0x20 ADD ADD MLOAD PUSH20 0xFFFFFFFFFFFFFFFFFFFFFFFFFFFFFFFFFFFFFFFF AND DUP5 PUSH20 0xFFFFFFFFFFFFFFFFFFFFFFFFFFFFFFFFFFFFFFFF AND EQ ISZERO PUSH2 0x34EF JUMPI DUP8 DUP2 DUP2 MLOAD DUP2 LT PUSH2 0x34DC JUMPI PUSH2 0x34DB PUSH2 0x454E JUMP JUMPDEST JUMPDEST PUSH1 0x20 MUL PUSH1 0x20 ADD ADD MLOAD SWAP6 POP PUSH1 0x1 SWAP2 POP PUSH2 0x3502 JUMP JUMPDEST DUP1 DUP1 PUSH2 0x34FA SWAP1 PUSH2 0x44AF JUMP JUMPDEST SWAP2 POP POP PUSH2 0x3472 JUMP JUMPDEST POP DUP1 ISZERO PUSH2 0x350F JUMPI POP PUSH2 0x359B JUMP JUMPDEST PUSH1 0xA PUSH1 0x0 PUSH1 0x9 PUSH1 0x0 DUP7 PUSH20 0xFFFFFFFFFFFFFFFFFFFFFFFFFFFFFFFFFFFFFFFF AND PUSH20 0xFFFFFFFFFFFFFFFFFFFFFFFFFFFFFFFFFFFFFFFF AND DUP2 MSTORE PUSH1 0x20 ADD SWAP1 DUP2 MSTORE PUSH1 0x20 ADD PUSH1 0x0 KECCAK256 PUSH1 0x2 ADD SLOAD DUP2 MSTORE PUSH1 0x20 ADD SWAP1 DUP2 MSTORE PUSH1 0x20 ADD PUSH1 0x0 KECCAK256 PUSH1 0x0 SWAP1 SLOAD SWAP1 PUSH2 0x100 EXP SWAP1 DIV PUSH20 0xFFFFFFFFFFFFFFFFFFFFFFFFFFFFFFFFFFFFFFFF AND SWAP3 POP POP DUP1 DUP1 PUSH2 0x3593 SWAP1 PUSH2 0x4747 JUMP JUMPDEST SWAP2 POP POP PUSH2 0x3465 JUMP JUMPDEST POP DUP3 PUSH20 0xFFFFFFFFFFFFFFFFFFFFFFFFFFFFFFFFFFFFFFFF AND DUP5 PUSH20 0xFFFFFFFFFFFFFFFFFFFFFFFFFFFFFFFFFFFFFFFF AND EQ ISZERO PUSH2 0x35D5 JUMPI PUSH1 0x1 SWAP6 POP JUMPDEST DUP6 SWAP7 POP POP POP POP POP POP POP SWAP4 SWAP3 POP POP POP JUMP JUMPDEST PUSH1 0x0 DUP1 PUSH1 0x0 DUP1 DUP7 SWAP1 POP PUSH1 0x0 DUP2 SWAP1 POP PUSH1 0x0 JUMPDEST PUSH1 0x9 DUP2 SLT ISZERO PUSH2 0x3B88 JUMPI PUSH1 0x1 PUSH1 0x9 PUSH1 0x0 DUP12 PUSH20 0xFFFFFFFFFFFFFFFFFFFFFFFFFFFFFFFFFFFFFFFF AND PUSH20 0xFFFFFFFFFFFFFFFFFFFFFFFFFFFFFFFFFFFFFFFF AND DUP2 MSTORE PUSH1 0x20 ADD SWAP1 DUP2 MSTORE PUSH1 0x20 ADD PUSH1 0x0 KECCAK256 PUSH1 0x2 ADD SLOAD EQ DUP1 PUSH2 0x36AF JUMPI POP PUSH1 0xA PUSH1 0x0 PUSH1 0x1 DUP2 MSTORE PUSH1 0x20 ADD SWAP1 DUP2 MSTORE PUSH1 0x20 ADD PUSH1 0x0 KECCAK256 PUSH1 0x0 SWAP1 SLOAD SWAP1 PUSH2 0x100 EXP SWAP1 DIV PUSH20 0xFFFFFFFFFFFFFFFFFFFFFFFFFFFFFFFFFFFFFFFF AND PUSH20 0xFFFFFFFFFFFFFFFFFFFFFFFFFFFFFFFFFFFFFFFF AND DUP5 PUSH20 0xFFFFFFFFFFFFFFFFFFFFFFFFFFFFFFFFFFFFFFFF AND EQ JUMPDEST ISZERO PUSH2 0x36B9 JUMPI PUSH2 0x3B88 JUMP JUMPDEST PUSH1 0x0 JUMPDEST DUP9 DUP2 LT ISZERO PUSH2 0x37BC JUMPI PUSH1 0xA PUSH1 0x0 PUSH1 0x1 DUP2 MSTORE PUSH1 0x20 ADD SWAP1 DUP2 MSTORE PUSH1 0x20 ADD PUSH1 0x0 KECCAK256 PUSH1 0x0 SWAP1 SLOAD SWAP1 PUSH2 0x100 EXP SWAP1 DIV PUSH20 0xFFFFFFFFFFFFFFFFFFFFFFFFFFFFFFFFFFFFFFFF AND PUSH20 0xFFFFFFFFFFFFFFFFFFFFFFFFFFFFFFFFFFFFFFFF AND DUP5 PUSH20 0xFFFFFFFFFFFFFFFFFFFFFFFFFFFFFFFFFFFFFFFF AND EQ ISZERO PUSH2 0x3731 JUMPI PUSH2 0x37BC JUMP JUMPDEST PUSH1 0xA PUSH1 0x0 PUSH1 0x9 PUSH1 0x0 DUP7 PUSH20 0xFFFFFFFFFFFFFFFFFFFFFFFFFFFFFFFFFFFFFFFF AND PUSH20 0xFFFFFFFFFFFFFFFFFFFFFFFFFFFFFFFFFFFFFFFF AND DUP2 MSTORE PUSH1 0x20 ADD SWAP1 DUP2 MSTORE PUSH1 0x20 ADD PUSH1 0x0 KECCAK256 PUSH1 0x2 ADD SLOAD DUP2 MSTORE PUSH1 0x20 ADD SWAP1 DUP2 MSTORE PUSH1 0x20 ADD PUSH1 0x0 KECCAK256 PUSH1 0x0 SWAP1 SLOAD SWAP1 PUSH2 0x100 EXP SWAP1 DIV PUSH20 0xFFFFFFFFFFFFFFFFFFFFFFFFFFFFFFFFFFFFFFFF AND SWAP3 POP DUP1 DUP1 PUSH2 0x37B4 SWAP1 PUSH2 0x44AF JUMP JUMPDEST SWAP2 POP POP PUSH2 0x36BC JUMP JUMPDEST POP PUSH1 0xA PUSH1 0x0 PUSH1 0x1 DUP2 MSTORE PUSH1 0x20 ADD SWAP1 DUP2 MSTORE PUSH1 0x20 ADD PUSH1 0x0 KECCAK256 PUSH1 0x0 SWAP1 SLOAD SWAP1 PUSH2 0x100 EXP SWAP1 DIV PUSH20 0xFFFFFFFFFFFFFFFFFFFFFFFFFFFFFFFFFFFFFFFF AND PUSH20 0xFFFFFFFFFFFFFFFFFFFFFFFFFFFFFFFFFFFFFFFF AND DUP3 PUSH20 0xFFFFFFFFFFFFFFFFFFFFFFFFFFFFFFFFFFFFFFFF AND EQ ISZERO PUSH2 0x382D JUMPI DUP2 SWAP4 POP PUSH2 0x3B88 JUMP JUMPDEST PUSH1 0x0 PUSH1 0x1 PUSH1 0x9 PUSH1 0x0 DUP6 PUSH20 0xFFFFFFFFFFFFFFFFFFFFFFFFFFFFFFFFFFFFFFFF AND PUSH20 0xFFFFFFFFFFFFFFFFFFFFFFFFFFFFFFFFFFFFFFFF AND DUP2 MSTORE PUSH1 0x20 ADD SWAP1 DUP2 MSTORE PUSH1 0x20 ADD PUSH1 0x0 KECCAK256 PUSH1 0x6 ADD DUP1 SLOAD SWAP1 POP PUSH2 0x3881 SWAP2 SWAP1 PUSH2 0x46AF JUMP JUMPDEST SWAP1 POP PUSH1 0x9 PUSH1 0x0 DUP5 PUSH20 0xFFFFFFFFFFFFFFFFFFFFFFFFFFFFFFFFFFFFFFFF AND PUSH20 0xFFFFFFFFFFFFFFFFFFFFFFFFFFFFFFFFFFFFFFFF AND DUP2 MSTORE PUSH1 0x20 ADD SWAP1 DUP2 MSTORE PUSH1 0x20 ADD PUSH1 0x0 KECCAK256 PUSH1 0x6 ADD DUP2 DUP2 SLOAD DUP2 LT PUSH2 0x38D7 JUMPI PUSH2 0x38D6 PUSH2 0x454E JUMP JUMPDEST JUMPDEST SWAP1 PUSH1 0x0 MSTORE PUSH1 0x20 PUSH1 0x0 KECCAK256 ADD SLOAD SWAP8 POP DUP9 DUP9 LT ISZERO PUSH2 0x3B6B JUMPI PUSH1 0x9 PUSH1 0x0 DUP5 PUSH20 0xFFFFFFFFFFFFFFFFFFFFFFFFFFFFFFFFFFFFFFFF AND PUSH20 0xFFFFFFFFFFFFFFFFFFFFFFFFFFFFFFFFFFFFFFFF AND DUP2 MSTORE PUSH1 0x20 ADD SWAP1 DUP2 MSTORE PUSH1 0x20 ADD PUSH1 0x0 KECCAK256 PUSH1 0x0 ADD PUSH1 0x0 SWAP1 SLOAD SWAP1 PUSH2 0x100 EXP SWAP1 DIV PUSH1 0xFF AND ISZERO DUP1 PUSH2 0x398A JUMPI POP PUSH1 0x0 PUSH1 0x9 PUSH1 0x0 DUP6 PUSH20 0xFFFFFFFFFFFFFFFFFFFFFFFFFFFFFFFFFFFFFFFF AND PUSH20 0xFFFFFFFFFFFFFFFFFFFFFFFFFFFFFFFFFFFFFFFF AND DUP2 MSTORE PUSH1 0x20 ADD SWAP1 DUP2 MSTORE PUSH1 0x20 ADD PUSH1 0x0 KECCAK256 PUSH1 0x2 ADD SLOAD EQ JUMPDEST DUP1 PUSH2 0x39D7 JUMPI POP PUSH1 0x1 PUSH1 0x9 PUSH1 0x0 DUP6 PUSH20 0xFFFFFFFFFFFFFFFFFFFFFFFFFFFFFFFFFFFFFFFF AND PUSH20 0xFFFFFFFFFFFFFFFFFFFFFFFFFFFFFFFFFFFFFFFF AND DUP2 MSTORE PUSH1 0x20 ADD SWAP1 DUP2 MSTORE PUSH1 0x20 ADD PUSH1 0x0 KECCAK256 PUSH1 0x2 ADD SLOAD EQ JUMPDEST ISZERO PUSH2 0x3B60 JUMPI PUSH1 0x9 PUSH1 0x0 PUSH1 0xA PUSH1 0x0 PUSH1 0x9 PUSH1 0x0 DUP9 PUSH20 0xFFFFFFFFFFFFFFFFFFFFFFFFFFFFFFFFFFFFFFFF AND PUSH20 0xFFFFFFFFFFFFFFFFFFFFFFFFFFFFFFFFFFFFFFFF AND DUP2 MSTORE PUSH1 0x20 ADD SWAP1 DUP2 MSTORE PUSH1 0x20 ADD PUSH1 0x0 KECCAK256 PUSH1 0x2 ADD SLOAD DUP2 MSTORE PUSH1 0x20 ADD SWAP1 DUP2 MSTORE PUSH1 0x20 ADD PUSH1 0x0 KECCAK256 PUSH1 0x0 SWAP1 SLOAD SWAP1 PUSH2 0x100 EXP SWAP1 DIV PUSH20 0xFFFFFFFFFFFFFFFFFFFFFFFFFFFFFFFFFFFFFFFF AND PUSH20 0xFFFFFFFFFFFFFFFFFFFFFFFFFFFFFFFFFFFFFFFF AND PUSH20 0xFFFFFFFFFFFFFFFFFFFFFFFFFFFFFFFFFFFFFFFF AND DUP2 MSTORE PUSH1 0x20 ADD SWAP1 DUP2 MSTORE PUSH1 0x20 ADD PUSH1 0x0 KECCAK256 PUSH1 0x0 ADD PUSH1 0x0 SWAP1 SLOAD SWAP1 PUSH2 0x100 EXP SWAP1 DIV PUSH1 0xFF AND PUSH2 0x3AE1 JUMPI PUSH1 0xA PUSH1 0x0 PUSH1 0x1 DUP2 MSTORE PUSH1 0x20 ADD SWAP1 DUP2 MSTORE PUSH1 0x20 ADD PUSH1 0x0 KECCAK256 PUSH1 0x0 SWAP1 SLOAD SWAP1 PUSH2 0x100 EXP SWAP1 DIV PUSH20 0xFFFFFFFFFFFFFFFFFFFFFFFFFFFFFFFFFFFFFFFF AND SWAP5 POP PUSH2 0x3B5A JUMP JUMPDEST PUSH1 0xA PUSH1 0x0 PUSH1 0x9 PUSH1 0x0 DUP7 PUSH20 0xFFFFFFFFFFFFFFFFFFFFFFFFFFFFFFFFFFFFFFFF AND PUSH20 0xFFFFFFFFFFFFFFFFFFFFFFFFFFFFFFFFFFFFFFFF AND DUP2 MSTORE PUSH1 0x20 ADD SWAP1 DUP2 MSTORE PUSH1 0x20 ADD PUSH1 0x0 KECCAK256 PUSH1 0x2 ADD SLOAD DUP2 MSTORE PUSH1 0x20 ADD SWAP1 DUP2 MSTORE PUSH1 0x20 ADD PUSH1 0x0 KECCAK256 PUSH1 0x0 SWAP1 SLOAD SWAP1 PUSH2 0x100 EXP SWAP1 DIV PUSH20 0xFFFFFFFFFFFFFFFFFFFFFFFFFFFFFFFFFFFFFFFF AND SWAP5 POP JUMPDEST POP PUSH2 0x3B88 JUMP JUMPDEST DUP3 SWAP4 POP DUP3 SWAP5 POP PUSH2 0x3B74 JUMP JUMPDEST DUP3 SWAP5 POP POP PUSH2 0x3B88 JUMP JUMPDEST POP DUP1 DUP1 PUSH2 0x3B80 SWAP1 PUSH2 0x4747 JUMP JUMPDEST SWAP2 POP POP PUSH2 0x35F6 JUMP JUMPDEST POP PUSH1 0x1 PUSH1 0x9 PUSH1 0x0 DUP11 PUSH20 0xFFFFFFFFFFFFFFFFFFFFFFFFFFFFFFFFFFFFFFFF AND PUSH20 0xFFFFFFFFFFFFFFFFFFFFFFFFFFFFFFFFFFFFFFFF AND DUP2 MSTORE PUSH1 0x20 ADD SWAP1 DUP2 MSTORE PUSH1 0x20 ADD PUSH1 0x0 KECCAK256 PUSH1 0x5 ADD PUSH1 0x0 DUP10 DUP2 MSTORE PUSH1 0x20 ADD SWAP1 DUP2 MSTORE PUSH1 0x20 ADD PUSH1 0x0 KECCAK256 SLOAD PUSH2 0x3BE9 SWAP2 SWAP1 PUSH2 0x44F8 JUMP JUMPDEST PUSH1 0x9 PUSH1 0x0 DUP11 PUSH20 0xFFFFFFFFFFFFFFFFFFFFFFFFFFFFFFFFFFFFFFFF AND PUSH20 0xFFFFFFFFFFFFFFFFFFFFFFFFFFFFFFFFFFFFFFFF AND DUP2 MSTORE PUSH1 0x20 ADD SWAP1 DUP2 MSTORE PUSH1 0x20 ADD PUSH1 0x0 KECCAK256 PUSH1 0x5 ADD PUSH1 0x0 DUP10 DUP2 MSTORE PUSH1 0x20 ADD SWAP1 DUP2 MSTORE PUSH1 0x20 ADD PUSH1 0x0 KECCAK256 DUP2 SWAP1 SSTORE POP DUP3 DUP9 SWAP5 POP SWAP5 POP POP POP POP SWAP4 POP SWAP4 SWAP2 POP POP JUMP JUMPDEST DUP3 DUP1 SLOAD DUP3 DUP3 SSTORE SWAP1 PUSH1 0x0 MSTORE PUSH1 0x20 PUSH1 0x0 KECCAK256 SWAP1 DUP2 ADD SWAP3 DUP3 ISZERO PUSH2 0x3CCA JUMPI SWAP2 PUSH1 0x20 MUL DUP3 ADD JUMPDEST DUP3 DUP2 GT ISZERO PUSH2 0x3CC9 JUMPI DUP3 MLOAD DUP3 PUSH1 0x0 PUSH2 0x100 EXP DUP2 SLOAD DUP2 PUSH20 0xFFFFFFFFFFFFFFFFFFFFFFFFFFFFFFFFFFFFFFFF MUL NOT AND SWAP1 DUP4 PUSH20 0xFFFFFFFFFFFFFFFFFFFFFFFFFFFFFFFFFFFFFFFF AND MUL OR SWAP1 SSTORE POP SWAP2 PUSH1 0x20 ADD SWAP2 SWAP1 PUSH1 0x1 ADD SWAP1 PUSH2 0x3C71 JUMP JUMPDEST JUMPDEST POP SWAP1 POP PUSH2 0x3CD7 SWAP2 SWAP1 PUSH2 0x3D28 JUMP JUMPDEST POP SWAP1 JUMP JUMPDEST DUP3 DUP1 SLOAD DUP3 DUP3 SSTORE SWAP1 PUSH1 0x0 MSTORE PUSH1 0x20 PUSH1 0x0 KECCAK256 SWAP1 DUP2 ADD SWAP3 DUP3 ISZERO PUSH2 0x3D17 JUMPI SWAP2 PUSH1 0x20 MUL DUP3 ADD JUMPDEST DUP3 DUP2 GT ISZERO PUSH2 0x3D16 JUMPI DUP3 MLOAD DUP3 SSTORE SWAP2 PUSH1 0x20 ADD SWAP2 SWAP1 PUSH1 0x1 ADD SWAP1 PUSH2 0x3CFB JUMP JUMPDEST JUMPDEST POP SWAP1 POP PUSH2 0x3D24 SWAP2 SWAP1 PUSH2 0x3D28 JUMP JUMPDEST POP SWAP1 JUMP JUMPDEST JUMPDEST DUP1 DUP3 GT ISZERO PUSH2 0x3D41 JUMPI PUSH1 0x0 DUP2 PUSH1 0x0 SWAP1 SSTORE POP PUSH1 0x1 ADD PUSH2 0x3D29 JUMP JUMPDEST POP SWAP1 JUMP JUMPDEST PUSH1 0x0 DUP1 REVERT JUMPDEST PUSH1 0x0 DUP2 SWAP1 POP SWAP2 SWAP1 POP JUMP JUMPDEST PUSH2 0x3D5D DUP2 PUSH2 0x3D4A JUMP JUMPDEST DUP2 EQ PUSH2 0x3D68 JUMPI PUSH1 0x0 DUP1 REVERT JUMPDEST POP JUMP JUMPDEST PUSH1 0x0 DUP2 CALLDATALOAD SWAP1 POP PUSH2 0x3D7A DUP2 PUSH2 0x3D54 JUMP JUMPDEST SWAP3 SWAP2 POP POP JUMP JUMPDEST PUSH1 0x0 PUSH1 0x20 DUP3 DUP5 SUB SLT ISZERO PUSH2 0x3D96 JUMPI PUSH2 0x3D95 PUSH2 0x3D45 JUMP JUMPDEST JUMPDEST PUSH1 0x0 PUSH2 0x3DA4 DUP5 DUP3 DUP6 ADD PUSH2 0x3D6B JUMP JUMPDEST SWAP2 POP POP SWAP3 SWAP2 POP POP JUMP JUMPDEST PUSH1 0x0 PUSH20 0xFFFFFFFFFFFFFFFFFFFFFFFFFFFFFFFFFFFFFFFF DUP3 AND SWAP1 POP SWAP2 SWAP1 POP JUMP JUMPDEST PUSH1 0x0 PUSH2 0x3DD8 DUP3 PUSH2 0x3DAD JUMP JUMPDEST SWAP1 POP SWAP2 SWAP1 POP JUMP JUMPDEST PUSH2 0x3DE8 DUP2 PUSH2 0x3DCD JUMP JUMPDEST DUP3 MSTORE POP POP JUMP JUMPDEST PUSH1 0x0 PUSH1 0x20 DUP3 ADD SWAP1 POP PUSH2 0x3E03 PUSH1 0x0 DUP4 ADD DUP5 PUSH2 0x3DDF JUMP JUMPDEST SWAP3 SWAP2 POP POP JUMP JUMPDEST PUSH2 0x3E12 DUP2 PUSH2 0x3DCD JUMP JUMPDEST DUP2 EQ PUSH2 0x3E1D JUMPI PUSH1 0x0 DUP1 REVERT JUMPDEST POP JUMP JUMPDEST PUSH1 0x0 DUP2 CALLDATALOAD SWAP1 POP PUSH2 0x3E2F DUP2 PUSH2 0x3E09 JUMP JUMPDEST SWAP3 SWAP2 POP POP JUMP JUMPDEST PUSH1 0x0 DUP1 PUSH1 0x40 DUP4 DUP6 SUB SLT ISZERO PUSH2 0x3E4C JUMPI PUSH2 0x3E4B PUSH2 0x3D45 JUMP JUMPDEST JUMPDEST PUSH1 0x0 PUSH2 0x3E5A DUP6 DUP3 DUP7 ADD PUSH2 0x3D6B JUMP JUMPDEST SWAP3 POP POP PUSH1 0x20 PUSH2 0x3E6B DUP6 DUP3 DUP7 ADD PUSH2 0x3E20 JUMP JUMPDEST SWAP2 POP POP SWAP3 POP SWAP3 SWAP1 POP JUMP JUMPDEST PUSH1 0x0 DUP2 ISZERO ISZERO SWAP1 POP SWAP2 SWAP1 POP JUMP JUMPDEST PUSH2 0x3E8A DUP2 PUSH2 0x3E75 JUMP JUMPDEST DUP3 MSTORE POP POP JUMP JUMPDEST PUSH1 0x0 PUSH1 0x20 DUP3 ADD SWAP1 POP PUSH2 0x3EA5 PUSH1 0x0 DUP4 ADD DUP5 PUSH2 0x3E81 JUMP JUMPDEST SWAP3 SWAP2 POP POP JUMP JUMPDEST PUSH1 0x0 PUSH1 0x20 DUP3 DUP5 SUB SLT ISZERO PUSH2 0x3EC1 JUMPI PUSH2 0x3EC0 PUSH2 0x3D45 JUMP JUMPDEST JUMPDEST PUSH1 0x0 PUSH2 0x3ECF DUP5 DUP3 DUP6 ADD PUSH2 0x3E20 JUMP JUMPDEST SWAP2 POP POP SWAP3 SWAP2 POP POP JUMP JUMPDEST PUSH1 0x0 DUP2 MLOAD SWAP1 POP SWAP2 SWAP1 POP JUMP JUMPDEST PUSH1 0x0 DUP3 DUP3 MSTORE PUSH1 0x20 DUP3 ADD SWAP1 POP SWAP3 SWAP2 POP POP JUMP JUMPDEST PUSH1 0x0 DUP2 SWAP1 POP PUSH1 0x20 DUP3 ADD SWAP1 POP SWAP2 SWAP1 POP JUMP JUMPDEST PUSH2 0x3F0D DUP2 PUSH2 0x3DCD JUMP JUMPDEST DUP3 MSTORE POP POP JUMP JUMPDEST PUSH1 0x0 PUSH2 0x3F1F DUP4 DUP4 PUSH2 0x3F04 JUMP JUMPDEST PUSH1 0x20 DUP4 ADD SWAP1 POP SWAP3 SWAP2 POP POP JUMP JUMPDEST PUSH1 0x0 PUSH1 0x20 DUP3 ADD SWAP1 POP SWAP2 SWAP1 POP JUMP JUMPDEST PUSH1 0x0 PUSH2 0x3F43 DUP3 PUSH2 0x3ED8 JUMP JUMPDEST PUSH2 0x3F4D DUP2 DUP6 PUSH2 0x3EE3 JUMP JUMPDEST SWAP4 POP PUSH2 0x3F58 DUP4 PUSH2 0x3EF4 JUMP JUMPDEST DUP1 PUSH1 0x0 JUMPDEST DUP4 DUP2 LT ISZERO PUSH2 0x3F89 JUMPI DUP2 MLOAD PUSH2 0x3F70 DUP9 DUP3 PUSH2 0x3F13 JUMP JUMPDEST SWAP8 POP PUSH2 0x3F7B DUP4 PUSH2 0x3F2B JUMP JUMPDEST SWAP3 POP POP PUSH1 0x1 DUP2 ADD SWAP1 POP PUSH2 0x3F5C JUMP JUMPDEST POP DUP6 SWAP4 POP POP POP POP SWAP3 SWAP2 POP POP JUMP JUMPDEST PUSH1 0x0 PUSH1 0x20 DUP3 ADD SWAP1 POP DUP2 DUP2 SUB PUSH1 0x0 DUP4 ADD MSTORE PUSH2 0x3FB0 DUP2 DUP5 PUSH2 0x3F38 JUMP JUMPDEST SWAP1 POP SWAP3 SWAP2 POP POP JUMP JUMPDEST PUSH1 0x0 PUSH1 0xFF DUP3 AND SWAP1 POP SWAP2 SWAP1 POP JUMP JUMPDEST PUSH2 0x3FCE DUP2 PUSH2 0x3FB8 JUMP JUMPDEST DUP3 MSTORE POP POP JUMP JUMPDEST PUSH1 0x0 PUSH1 0x20 DUP3 ADD SWAP1 POP PUSH2 0x3FE9 PUSH1 0x0 DUP4 ADD DUP5 PUSH2 0x3FC5 JUMP JUMPDEST SWAP3 SWAP2 POP POP JUMP JUMPDEST PUSH1 0x0 DUP2 MLOAD SWAP1 POP SWAP2 SWAP1 POP JUMP JUMPDEST PUSH1 0x0 DUP3 DUP3 MSTORE PUSH1 0x20 DUP3 ADD SWAP1 POP SWAP3 SWAP2 POP POP JUMP JUMPDEST PUSH1 0x0 DUP2 SWAP1 POP PUSH1 0x20 DUP3 ADD SWAP1 POP SWAP2 SWAP1 POP JUMP JUMPDEST PUSH2 0x4024 DUP2 PUSH2 0x3D4A JUMP JUMPDEST DUP3 MSTORE POP POP JUMP JUMPDEST PUSH1 0x0 PUSH2 0x4036 DUP4 DUP4 PUSH2 0x401B JUMP JUMPDEST PUSH1 0x20 DUP4 ADD SWAP1 POP SWAP3 SWAP2 POP POP JUMP JUMPDEST PUSH1 0x0 PUSH1 0x20 DUP3 ADD SWAP1 POP SWAP2 SWAP1 POP JUMP JUMPDEST PUSH1 0x0 PUSH2 0x405A DUP3 PUSH2 0x3FEF JUMP JUMPDEST PUSH2 0x4064 DUP2 DUP6 PUSH2 0x3FFA JUMP JUMPDEST SWAP4 POP PUSH2 0x406F DUP4 PUSH2 0x400B JUMP JUMPDEST DUP1 PUSH1 0x0 JUMPDEST DUP4 DUP2 LT ISZERO PUSH2 0x40A0 JUMPI DUP2 MLOAD PUSH2 0x4087 DUP9 DUP3 PUSH2 0x402A JUMP JUMPDEST SWAP8 POP PUSH2 0x4092 DUP4 PUSH2 0x4042 JUMP JUMPDEST SWAP3 POP POP PUSH1 0x1 DUP2 ADD SWAP1 POP PUSH2 0x4073 JUMP JUMPDEST POP DUP6 SWAP4 POP POP POP POP SWAP3 SWAP2 POP POP JUMP JUMPDEST PUSH1 0x0 PUSH1 0x20 DUP3 ADD SWAP1 POP DUP2 DUP2 SUB PUSH1 0x0 DUP4 ADD MSTORE PUSH2 0x40C7 DUP2 DUP5 PUSH2 0x404F JUMP JUMPDEST SWAP1 POP SWAP3 SWAP2 POP POP JUMP JUMPDEST PUSH2 0x40D8 DUP2 PUSH2 0x3D4A JUMP JUMPDEST DUP3 MSTORE POP POP JUMP JUMPDEST PUSH1 0x0 PUSH1 0x20 DUP3 ADD SWAP1 POP PUSH2 0x40F3 PUSH1 0x0 DUP4 ADD DUP5 PUSH2 0x40CF JUMP JUMPDEST SWAP3 SWAP2 POP POP JUMP JUMPDEST PUSH1 0x0 PUSH1 0x80 DUP3 ADD SWAP1 POP PUSH2 0x410E PUSH1 0x0 DUP4 ADD DUP8 PUSH2 0x3E81 JUMP JUMPDEST PUSH2 0x411B PUSH1 0x20 DUP4 ADD DUP7 PUSH2 0x40CF JUMP JUMPDEST PUSH2 0x4128 PUSH1 0x40 DUP4 ADD DUP6 PUSH2 0x40CF JUMP JUMPDEST PUSH2 0x4135 PUSH1 0x60 DUP4 ADD DUP5 PUSH2 0x40CF JUMP JUMPDEST SWAP6 SWAP5 POP POP POP POP POP JUMP JUMPDEST PUSH1 0x0 DUP1 PUSH1 0x40 DUP4 DUP6 SUB SLT ISZERO PUSH2 0x4155 JUMPI PUSH2 0x4154 PUSH2 0x3D45 JUMP JUMPDEST JUMPDEST PUSH1 0x0 PUSH2 0x4163 DUP6 DUP3 DUP7 ADD PUSH2 0x3E20 JUMP JUMPDEST SWAP3 POP POP PUSH1 0x20 PUSH2 0x4174 DUP6 DUP3 DUP7 ADD PUSH2 0x3D6B JUMP JUMPDEST SWAP2 POP POP SWAP3 POP SWAP3 SWAP1 POP JUMP JUMPDEST PUSH1 0x0 DUP3 DUP3 MSTORE PUSH1 0x20 DUP3 ADD SWAP1 POP SWAP3 SWAP2 POP POP JUMP JUMPDEST PUSH32 0x496E76616C69642063616C6C6572000000000000000000000000000000000000 PUSH1 0x0 DUP3 ADD MSTORE POP JUMP JUMPDEST PUSH1 0x0 PUSH2 0x41C5 PUSH1 0xE DUP4 PUSH2 0x417E JUMP JUMPDEST SWAP2 POP PUSH2 0x41D0 DUP3 PUSH2 0x418F JUMP JUMPDEST PUSH1 0x20 DUP3 ADD SWAP1 POP SWAP2 SWAP1 POP JUMP JUMPDEST PUSH1 0x0 PUSH1 0x20 DUP3 ADD SWAP1 POP DUP2 DUP2 SUB PUSH1 0x0 DUP4 ADD MSTORE PUSH2 0x41F4 DUP2 PUSH2 0x41B8 JUMP JUMPDEST SWAP1 POP SWAP2 SWAP1 POP JUMP JUMPDEST PUSH1 0x0 DUP2 SWAP1 POP SWAP3 SWAP2 POP POP JUMP JUMPDEST POP JUMP JUMPDEST PUSH1 0x0 PUSH2 0x4216 PUSH1 0x0 DUP4 PUSH2 0x41FB JUMP JUMPDEST SWAP2 POP PUSH2 0x4221 DUP3 PUSH2 0x4206 JUMP JUMPDEST PUSH1 0x0 DUP3 ADD SWAP1 POP SWAP2 SWAP1 POP JUMP JUMPDEST PUSH1 0x0 PUSH2 0x4237 DUP3 PUSH2 0x4209 JUMP JUMPDEST SWAP2 POP DUP2 SWAP1 POP SWAP2 SWAP1 POP JUMP JUMPDEST PUSH32 0x5472616E73616374696F6E206661696C65642100000000000000000000000000 PUSH1 0x0 DUP3 ADD MSTORE POP JUMP JUMPDEST PUSH1 0x0 PUSH2 0x4277 PUSH1 0x13 DUP4 PUSH2 0x417E JUMP JUMPDEST SWAP2 POP PUSH2 0x4282 DUP3 PUSH2 0x4241 JUMP JUMPDEST PUSH1 0x20 DUP3 ADD SWAP1 POP SWAP2 SWAP1 POP JUMP JUMPDEST PUSH1 0x0 PUSH1 0x20 DUP3 ADD SWAP1 POP DUP2 DUP2 SUB PUSH1 0x0 DUP4 ADD MSTORE PUSH2 0x42A6 DUP2 PUSH2 0x426A JUMP JUMPDEST SWAP1 POP SWAP2 SWAP1 POP JUMP JUMPDEST PUSH32 0x4E487B7100000000000000000000000000000000000000000000000000000000 PUSH1 0x0 MSTORE PUSH1 0x12 PUSH1 0x4 MSTORE PUSH1 0x24 PUSH1 0x0 REVERT JUMPDEST PUSH32 0x4E487B7100000000000000000000000000000000000000000000000000000000 PUSH1 0x0 MSTORE PUSH1 0x11 PUSH1 0x4 MSTORE PUSH1 0x24 PUSH1 0x0 REVERT JUMPDEST PUSH1 0x0 PUSH2 0x4316 DUP3 PUSH2 0x3D4A JUMP JUMPDEST SWAP2 POP PUSH2 0x4321 DUP4 PUSH2 0x3D4A JUMP JUMPDEST SWAP3 POP DUP3 PUSH2 0x4331 JUMPI PUSH2 0x4330 PUSH2 0x42AD JUMP JUMPDEST JUMPDEST DUP3 DUP3 DIV SWAP1 POP SWAP3 SWAP2 POP POP JUMP JUMPDEST PUSH32 0x5573657220657869737400000000000000000000000000000000000000000000 PUSH1 0x0 DUP3 ADD MSTORE POP JUMP JUMPDEST PUSH1 0x0 PUSH2 0x4372 PUSH1 0xA DUP4 PUSH2 0x417E JUMP JUMPDEST SWAP2 POP PUSH2 0x437D DUP3 PUSH2 0x433C JUMP JUMPDEST PUSH1 0x20 DUP3 ADD SWAP1 POP SWAP2 SWAP1 POP JUMP JUMPDEST PUSH1 0x0 PUSH1 0x20 DUP3 ADD SWAP1 POP DUP2 DUP2 SUB PUSH1 0x0 DUP4 ADD MSTORE PUSH2 0x43A1 DUP2 PUSH2 0x4365 JUMP JUMPDEST SWAP1 POP SWAP2 SWAP1 POP JUMP JUMPDEST PUSH32 0x496E636F72726563742072656665727265722049640000000000000000000000 PUSH1 0x0 DUP3 ADD MSTORE POP JUMP JUMPDEST PUSH1 0x0 PUSH2 0x43DE PUSH1 0x15 DUP4 PUSH2 0x417E JUMP JUMPDEST SWAP2 POP PUSH2 0x43E9 DUP3 PUSH2 0x43A8 JUMP JUMPDEST PUSH1 0x20 DUP3 ADD SWAP1 POP SWAP2 SWAP1 POP JUMP JUMPDEST PUSH1 0x0 PUSH1 0x20 DUP3 ADD SWAP1 POP DUP2 DUP2 SUB PUSH1 0x0 DUP4 ADD MSTORE PUSH2 0x440D DUP2 PUSH2 0x43D1 JUMP JUMPDEST SWAP1 POP SWAP2 SWAP1 POP JUMP JUMPDEST PUSH32 0x496E636F72726563742056616C75650000000000000000000000000000000000 PUSH1 0x0 DUP3 ADD MSTORE POP JUMP JUMPDEST PUSH1 0x0 PUSH2 0x444A PUSH1 0xF DUP4 PUSH2 0x417E JUMP JUMPDEST SWAP2 POP PUSH2 0x4455 DUP3 PUSH2 0x4414 JUMP JUMPDEST PUSH1 0x20 DUP3 ADD SWAP1 POP SWAP2 SWAP1 POP JUMP JUMPDEST PUSH1 0x0 PUSH1 0x20 DUP3 ADD SWAP1 POP DUP2 DUP2 SUB PUSH1 0x0 DUP4 ADD MSTORE PUSH2 0x4479 DUP2 PUSH2 0x443D JUMP JUMPDEST SWAP1 POP SWAP2 SWAP1 POP JUMP JUMPDEST PUSH32 0x4E487B7100000000000000000000000000000000000000000000000000000000 PUSH1 0x0 MSTORE PUSH1 0x41 PUSH1 0x4 MSTORE PUSH1 0x24 PUSH1 0x0 REVERT JUMPDEST PUSH1 0x0 PUSH2 0x44BA DUP3 PUSH2 0x3D4A JUMP JUMPDEST SWAP2 POP PUSH32 0xFFFFFFFFFFFFFFFFFFFFFFFFFFFFFFFFFFFFFFFFFFFFFFFFFFFFFFFFFFFFFFFF DUP3 EQ ISZERO PUSH2 0x44ED JUMPI PUSH2 0x44EC PUSH2 0x42DC JUMP JUMPDEST JUMPDEST PUSH1 0x1 DUP3 ADD SWAP1 POP SWAP2 SWAP1 POP JUMP JUMPDEST PUSH1 0x0 PUSH2 0x4503 DUP3 PUSH2 0x3D4A JUMP JUMPDEST SWAP2 POP PUSH2 0x450E DUP4 PUSH2 0x3D4A JUMP JUMPDEST SWAP3 POP DUP3 PUSH32 0xFFFFFFFFFFFFFFFFFFFFFFFFFFFFFFFFFFFFFFFFFFFFFFFFFFFFFFFFFFFFFFFF SUB DUP3 GT ISZERO PUSH2 0x4543 JUMPI PUSH2 0x4542 PUSH2 0x42DC JUMP JUMPDEST JUMPDEST DUP3 DUP3 ADD SWAP1 POP SWAP3 SWAP2 POP POP JUMP JUMPDEST PUSH32 0x4E487B7100000000000000000000000000000000000000000000000000000000 PUSH1 0x0 MSTORE PUSH1 0x32 PUSH1 0x4 MSTORE PUSH1 0x24 PUSH1 0x0 REVERT JUMPDEST PUSH1 0x0 PUSH2 0x4588 DUP3 PUSH2 0x3D4A JUMP JUMPDEST SWAP2 POP PUSH2 0x4593 DUP4 PUSH2 0x3D4A JUMP JUMPDEST SWAP3 POP DUP2 PUSH32 0xFFFFFFFFFFFFFFFFFFFFFFFFFFFFFFFFFFFFFFFFFFFFFFFFFFFFFFFFFFFFFFFF DIV DUP4 GT DUP3 ISZERO ISZERO AND ISZERO PUSH2 0x45CC JUMPI PUSH2 0x45CB PUSH2 0x42DC JUMP JUMPDEST JUMPDEST DUP3 DUP3 MUL SWAP1 POP SWAP3 SWAP2 POP POP JUMP JUMPDEST PUSH32 0x43616C6C6572206973206E6F742041646D696E2E000000000000000000000000 PUSH1 0x0 DUP3 ADD MSTORE POP JUMP JUMPDEST PUSH1 0x0 PUSH2 0x460D PUSH1 0x14 DUP4 PUSH2 0x417E JUMP JUMPDEST SWAP2 POP PUSH2 0x4618 DUP3 PUSH2 0x45D7 JUMP JUMPDEST PUSH1 0x20 DUP3 ADD SWAP1 POP SWAP2 SWAP1 POP JUMP JUMPDEST PUSH1 0x0 PUSH1 0x20 DUP3 ADD SWAP1 POP DUP2 DUP2 SUB PUSH1 0x0 DUP4 ADD MSTORE PUSH2 0x463C DUP2 PUSH2 0x4600 JUMP JUMPDEST SWAP1 POP SWAP2 SWAP1 POP JUMP JUMPDEST PUSH32 0x496E76616C696420496E64657800000000000000000000000000000000000000 PUSH1 0x0 DUP3 ADD MSTORE POP JUMP JUMPDEST PUSH1 0x0 PUSH2 0x4679 PUSH1 0xD DUP4 PUSH2 0x417E JUMP JUMPDEST SWAP2 POP PUSH2 0x4684 DUP3 PUSH2 0x4643 JUMP JUMPDEST PUSH1 0x20 DUP3 ADD SWAP1 POP SWAP2 SWAP1 POP JUMP JUMPDEST PUSH1 0x0 PUSH1 0x20 DUP3 ADD SWAP1 POP DUP2 DUP2 SUB PUSH1 0x0 DUP4 ADD MSTORE PUSH2 0x46A8 DUP2 PUSH2 0x466C JUMP JUMPDEST SWAP1 POP SWAP2 SWAP1 POP JUMP JUMPDEST PUSH1 0x0 PUSH2 0x46BA DUP3 PUSH2 0x3D4A JUMP JUMPDEST SWAP2 POP PUSH2 0x46C5 DUP4 PUSH2 0x3D4A JUMP JUMPDEST SWAP3 POP DUP3 DUP3 LT ISZERO PUSH2 0x46D8 JUMPI PUSH2 0x46D7 PUSH2 0x42DC JUMP JUMPDEST JUMPDEST DUP3 DUP3 SUB SWAP1 POP SWAP3 SWAP2 POP POP JUMP JUMPDEST PUSH1 0x0 PUSH2 0x46EE DUP3 PUSH2 0x3D4A JUMP JUMPDEST SWAP2 POP PUSH2 0x46F9 DUP4 PUSH2 0x3D4A JUMP JUMPDEST SWAP3 POP DUP3 PUSH2 0x4709 JUMPI PUSH2 0x4708 PUSH2 0x42AD JUMP JUMPDEST JUMPDEST DUP3 DUP3 MOD SWAP1 POP SWAP3 SWAP2 POP POP JUMP JUMPDEST PUSH1 0x0 PUSH1 0x40 DUP3 ADD SWAP1 POP PUSH2 0x4729 PUSH1 0x0 DUP4 ADD DUP6 PUSH2 0x40CF JUMP JUMPDEST PUSH2 0x4736 PUSH1 0x20 DUP4 ADD DUP5 PUSH2 0x40CF JUMP JUMPDEST SWAP4 SWAP3 POP POP POP JUMP JUMPDEST PUSH1 0x0 DUP2 SWAP1 POP SWAP2 SWAP1 POP JUMP JUMPDEST PUSH1 0x0 PUSH2 0x4752 DUP3 PUSH2 0x473D JUMP JUMPDEST SWAP2 POP PUSH32 0x7FFFFFFFFFFFFFFFFFFFFFFFFFFFFFFFFFFFFFFFFFFFFFFFFFFFFFFFFFFFFFFF DUP3 EQ ISZERO PUSH2 0x4785 JUMPI PUSH2 0x4784 PUSH2 0x42DC JUMP JUMPDEST JUMPDEST PUSH1 0x1 DUP3 ADD SWAP1 POP SWAP2 SWAP1 POP JUMP INVALID LOG2 PUSH5 0x6970667358 0x22 SLT KECCAK256 GASLIMIT 0xBC DUP9 0xE7 SWAP13 DUP15 GASLIMIT 0xED 0xC1 DUP16 0x28 0xBF 0xDE PUSH1 0x66 ISZERO 0xB4 0x27 0xE2 DUP11 0x2A JUMPDEST PUSH28 0x4E9FD4DB166695C3A164736F6C634300080B00330000000000000000 "
				},
				"gasEstimates": {
					"creation": {
						"codeDepositCost": "3674800",
						"executionCost": "infinite",
						"totalCost": "infinite"
					},
					"external": {
						"LEVEL_PRICE(uint256)": "infinite",
						"adminWallet()": "2557",
						"currUserID()": "2451",
						"getContractBalance()": "infinite",
						"getUserIncomeCount(address,uint256)": "infinite",
						"getUserLevelEligibility(address)": "infinite",
						"getUserReferrals(address)": "infinite",
						"isLevelUpgradedForAddress(uint256,address)": "3177",
						"levelCounter(uint256,address)": "infinite",
						"levelUpgradePayments(uint256,address)": "infinite",
						"promotionPercantage(uint256)": "4432",
						"promotionWallets(uint256)": "2829",
						"regUser(uint256)": "infinite",
						"splPromoWallet()": "2559",
						"transferURS()": "infinite",
						"updatePromotionWallet(address,uint256)": "infinite",
						"ursWallet()": "2624",
						"userList(uint256)": "2928",
						"users(address)": "infinite",
						"withdrawPromotion()": "infinite",
						"withdrawSplPromotion()": "infinite"
					},
					"internal": {
						"checkLoopRequired(address,uint256,uint256,bool,bool)": "infinite",
						"findEligiblePayer(address,uint256,uint256)": "infinite",
						"findRenewalPayer(address,uint256,uint256)": "infinite",
						"isLevelUpgradeFromSameLeg(address,address,address)": "infinite",
						"levelRenewal(bool,address,uint256,uint256)": "infinite",
						"levelUpgrade(uint256,address,uint256,bool,bool)": "infinite",
						"payment(uint256,address,uint256,bool)": "infinite"
					}
				},
				"methodIdentifiers": {
					"LEVEL_PRICE(uint256)": "79378e30",
					"adminWallet()": "36b19cd7",
					"currUserID()": "a4bb170d",
					"getContractBalance()": "6f9fb98a",
					"getUserIncomeCount(address,uint256)": "aa24c5c5",
					"getUserLevelEligibility(address)": "6158fa00",
					"getUserReferrals(address)": "575cea6b",
					"isLevelUpgradedForAddress(uint256,address)": "4d948bea",
					"levelCounter(uint256,address)": "bbf57068",
					"levelUpgradePayments(uint256,address)": "43f6753c",
					"promotionPercantage(uint256)": "6043ddad",
					"promotionWallets(uint256)": "10e4077a",
					"regUser(uint256)": "8853b53e",
					"splPromoWallet()": "992c85d2",
					"transferURS()": "5e8a7069",
					"updatePromotionWallet(address,uint256)": "f7bbfccd",
					"ursWallet()": "c15dec85",
					"userList(uint256)": "9f4216e8",
					"users(address)": "a87430ba",
					"withdrawPromotion()": "99cbd74f",
					"withdrawSplPromotion()": "a457c050"
				}
			},
			"storageLayout": {
				"storage": [
					{
						"astId": 4,
						"contract": "tronbox/contracts/SmartGenie.sol:SmartGenie",
						"label": "adminWallet",
						"offset": 0,
						"slot": "0",
						"type": "t_address"
					},
					{
						"astId": 6,
						"contract": "tronbox/contracts/SmartGenie.sol:SmartGenie",
						"label": "ursWallet",
						"offset": 0,
						"slot": "1",
						"type": "t_address"
					},
					{
						"astId": 8,
						"contract": "tronbox/contracts/SmartGenie.sol:SmartGenie",
						"label": "splPromoWallet",
						"offset": 0,
						"slot": "2",
						"type": "t_address"
					},
					{
						"astId": 31,
						"contract": "tronbox/contracts/SmartGenie.sol:SmartGenie",
						"label": "promotionWallets",
						"offset": 0,
						"slot": "3",
						"type": "t_array(t_address)4_storage"
					},
					{
						"astId": 39,
						"contract": "tronbox/contracts/SmartGenie.sol:SmartGenie",
						"label": "promotionPercantage",
						"offset": 0,
						"slot": "7",
						"type": "t_array(t_uint8)4_storage"
					},
					{
						"astId": 43,
						"contract": "tronbox/contracts/SmartGenie.sol:SmartGenie",
						"label": "LEVEL_PRICE",
						"offset": 0,
						"slot": "8",
						"type": "t_mapping(t_uint256,t_uint256)"
					},
					{
						"astId": 48,
						"contract": "tronbox/contracts/SmartGenie.sol:SmartGenie",
						"label": "users",
						"offset": 0,
						"slot": "9",
						"type": "t_mapping(t_address,t_struct(UserStruct)27_storage)"
					},
					{
						"astId": 52,
						"contract": "tronbox/contracts/SmartGenie.sol:SmartGenie",
						"label": "userList",
						"offset": 0,
						"slot": "10",
						"type": "t_mapping(t_uint256,t_address)"
					},
					{
						"astId": 58,
						"contract": "tronbox/contracts/SmartGenie.sol:SmartGenie",
						"label": "levelCounter",
						"offset": 0,
						"slot": "11",
						"type": "t_mapping(t_uint256,t_mapping(t_address,t_uint256))"
					},
					{
						"astId": 64,
						"contract": "tronbox/contracts/SmartGenie.sol:SmartGenie",
						"label": "levelUpgradePayments",
						"offset": 0,
						"slot": "12",
						"type": "t_mapping(t_uint256,t_mapping(t_address,t_address))"
					},
					{
						"astId": 70,
						"contract": "tronbox/contracts/SmartGenie.sol:SmartGenie",
						"label": "isLevelUpgradedForAddress",
						"offset": 0,
						"slot": "13",
						"type": "t_mapping(t_uint256,t_mapping(t_address,t_bool))"
					},
					{
						"astId": 73,
						"contract": "tronbox/contracts/SmartGenie.sol:SmartGenie",
						"label": "currUserID",
						"offset": 0,
						"slot": "14",
						"type": "t_uint256"
					},
					{
						"astId": 76,
						"contract": "tronbox/contracts/SmartGenie.sol:SmartGenie",
						"label": "splPromAmt",
						"offset": 0,
						"slot": "15",
						"type": "t_uint256"
					},
					{
						"astId": 79,
						"contract": "tronbox/contracts/SmartGenie.sol:SmartGenie",
						"label": "promAmt",
						"offset": 0,
						"slot": "16",
						"type": "t_uint256"
					},
					{
						"astId": 82,
						"contract": "tronbox/contracts/SmartGenie.sol:SmartGenie",
						"label": "ursAmt",
						"offset": 0,
						"slot": "17",
						"type": "t_uint256"
					},
					{
						"astId": 85,
						"contract": "tronbox/contracts/SmartGenie.sol:SmartGenie",
						"label": "regFee",
						"offset": 0,
						"slot": "18",
						"type": "t_uint256"
					},
					{
						"astId": 93,
						"contract": "tronbox/contracts/SmartGenie.sol:SmartGenie",
						"label": "regShare",
						"offset": 0,
						"slot": "19",
						"type": "t_uint256"
					},
					{
						"astId": 101,
						"contract": "tronbox/contracts/SmartGenie.sol:SmartGenie",
						"label": "promotionShare",
						"offset": 0,
						"slot": "20",
						"type": "t_uint256"
					},
					{
						"astId": 109,
						"contract": "tronbox/contracts/SmartGenie.sol:SmartGenie",
						"label": "splPromoShare",
						"offset": 0,
						"slot": "21",
						"type": "t_uint256"
					}
				],
				"types": {
					"t_address": {
						"encoding": "inplace",
						"label": "address",
						"numberOfBytes": "20"
					},
					"t_array(t_address)4_storage": {
						"base": "t_address",
						"encoding": "inplace",
						"label": "address[4]",
						"numberOfBytes": "128"
					},
					"t_array(t_address)dyn_storage": {
						"base": "t_address",
						"encoding": "dynamic_array",
						"label": "address[]",
						"numberOfBytes": "32"
					},
					"t_array(t_uint256)dyn_storage": {
						"base": "t_uint256",
						"encoding": "dynamic_array",
						"label": "uint256[]",
						"numberOfBytes": "32"
					},
					"t_array(t_uint8)4_storage": {
						"base": "t_uint8",
						"encoding": "inplace",
						"label": "uint8[4]",
						"numberOfBytes": "32"
					},
					"t_bool": {
						"encoding": "inplace",
						"label": "bool",
						"numberOfBytes": "1"
					},
					"t_mapping(t_address,t_address)": {
						"encoding": "mapping",
						"key": "t_address",
						"label": "mapping(address => address)",
						"numberOfBytes": "32",
						"value": "t_address"
					},
					"t_mapping(t_address,t_bool)": {
						"encoding": "mapping",
						"key": "t_address",
						"label": "mapping(address => bool)",
						"numberOfBytes": "32",
						"value": "t_bool"
					},
					"t_mapping(t_address,t_struct(UserStruct)27_storage)": {
						"encoding": "mapping",
						"key": "t_address",
						"label": "mapping(address => struct SmartGenie.UserStruct)",
						"numberOfBytes": "32",
						"value": "t_struct(UserStruct)27_storage"
					},
					"t_mapping(t_address,t_uint256)": {
						"encoding": "mapping",
						"key": "t_address",
						"label": "mapping(address => uint256)",
						"numberOfBytes": "32",
						"value": "t_uint256"
					},
					"t_mapping(t_uint256,t_address)": {
						"encoding": "mapping",
						"key": "t_uint256",
						"label": "mapping(uint256 => address)",
						"numberOfBytes": "32",
						"value": "t_address"
					},
					"t_mapping(t_uint256,t_mapping(t_address,t_address))": {
						"encoding": "mapping",
						"key": "t_uint256",
						"label": "mapping(uint256 => mapping(address => address))",
						"numberOfBytes": "32",
						"value": "t_mapping(t_address,t_address)"
					},
					"t_mapping(t_uint256,t_mapping(t_address,t_bool))": {
						"encoding": "mapping",
						"key": "t_uint256",
						"label": "mapping(uint256 => mapping(address => bool))",
						"numberOfBytes": "32",
						"value": "t_mapping(t_address,t_bool)"
					},
					"t_mapping(t_uint256,t_mapping(t_address,t_uint256))": {
						"encoding": "mapping",
						"key": "t_uint256",
						"label": "mapping(uint256 => mapping(address => uint256))",
						"numberOfBytes": "32",
						"value": "t_mapping(t_address,t_uint256)"
					},
					"t_mapping(t_uint256,t_uint256)": {
						"encoding": "mapping",
						"key": "t_uint256",
						"label": "mapping(uint256 => uint256)",
						"numberOfBytes": "32",
						"value": "t_uint256"
					},
					"t_struct(UserStruct)27_storage": {
						"encoding": "inplace",
						"label": "struct SmartGenie.UserStruct",
						"members": [
							{
								"astId": 10,
								"contract": "tronbox/contracts/SmartGenie.sol:SmartGenie",
								"label": "isExist",
								"offset": 0,
								"slot": "0",
								"type": "t_bool"
							},
							{
								"astId": 12,
								"contract": "tronbox/contracts/SmartGenie.sol:SmartGenie",
								"label": "id",
								"offset": 0,
								"slot": "1",
								"type": "t_uint256"
							},
							{
								"astId": 14,
								"contract": "tronbox/contracts/SmartGenie.sol:SmartGenie",
								"label": "referrerID",
								"offset": 0,
								"slot": "2",
								"type": "t_uint256"
							},
							{
								"astId": 17,
								"contract": "tronbox/contracts/SmartGenie.sol:SmartGenie",
								"label": "referral",
								"offset": 0,
								"slot": "3",
								"type": "t_array(t_address)dyn_storage"
							},
							{
								"astId": 19,
								"contract": "tronbox/contracts/SmartGenie.sol:SmartGenie",
								"label": "joined",
								"offset": 0,
								"slot": "4",
								"type": "t_uint256"
							},
							{
								"astId": 23,
								"contract": "tronbox/contracts/SmartGenie.sol:SmartGenie",
								"label": "incomeCount",
								"offset": 0,
								"slot": "5",
								"type": "t_mapping(t_uint256,t_uint256)"
							},
							{
								"astId": 26,
								"contract": "tronbox/contracts/SmartGenie.sol:SmartGenie",
								"label": "levelEligibility",
								"offset": 0,
								"slot": "6",
								"type": "t_array(t_uint256)dyn_storage"
							}
						],
						"numberOfBytes": "224"
					},
					"t_uint256": {
						"encoding": "inplace",
						"label": "uint256",
						"numberOfBytes": "32"
					},
					"t_uint8": {
						"encoding": "inplace",
						"label": "uint8",
						"numberOfBytes": "1"
					}
				}
			},
			"userdoc": {
				"kind": "user",
				"methods": {},
				"version": 1
			}
		}
	}
}