{
	"tronbox/contracts/SmartGenie.sol": {
		"SmartGenie": {
			"abi": [
				{
					"inputs": [
						{
							"internalType": "address",
							"name": "_prWallet1",
							"type": "address"
						},
						{
							"internalType": "address",
							"name": "_prWallet2",
							"type": "address"
						},
						{
							"internalType": "address",
							"name": "_prWallet3",
							"type": "address"
						},
						{
							"internalType": "address",
							"name": "_prWallet4",
							"type": "address"
						},
						{
							"internalType": "address",
							"name": "_sprWallet",
							"type": "address"
						},
						{
							"internalType": "address",
							"name": "_rewardWallet",
							"type": "address"
						},
						{
							"internalType": "address",
							"name": "_ursWallet",
							"type": "address"
						}
					],
					"stateMutability": "nonpayable",
					"type": "constructor"
				},
				{
					"anonymous": false,
					"inputs": [
						{
							"indexed": true,
							"internalType": "address",
							"name": "_user",
							"type": "address"
						},
						{
							"indexed": true,
							"internalType": "address",
							"name": "_referral",
							"type": "address"
						},
						{
							"indexed": false,
							"internalType": "uint256",
							"name": "_level",
							"type": "uint256"
						},
						{
							"indexed": false,
							"internalType": "uint256",
							"name": "_time",
							"type": "uint256"
						}
					],
					"name": "getMoneyForLevelEvent",
					"type": "event"
				},
				{
					"anonymous": false,
					"inputs": [
						{
							"indexed": true,
							"internalType": "address",
							"name": "_user",
							"type": "address"
						},
						{
							"indexed": true,
							"internalType": "address",
							"name": "_referral",
							"type": "address"
						},
						{
							"indexed": false,
							"internalType": "uint256",
							"name": "_level",
							"type": "uint256"
						},
						{
							"indexed": false,
							"internalType": "uint256",
							"name": "_time",
							"type": "uint256"
						}
					],
					"name": "lostMoneyForLevelEvent",
					"type": "event"
				},
				{
					"anonymous": false,
					"inputs": [
						{
							"indexed": true,
							"internalType": "address",
							"name": "_user",
							"type": "address"
						},
						{
							"indexed": true,
							"internalType": "address",
							"name": "_referrer",
							"type": "address"
						},
						{
							"indexed": false,
							"internalType": "uint256",
							"name": "_time",
							"type": "uint256"
						}
					],
					"name": "regLevelEvent",
					"type": "event"
				},
				{
					"inputs": [
						{
							"internalType": "uint256",
							"name": "",
							"type": "uint256"
						}
					],
					"name": "LEVEL_PRICE",
					"outputs": [
						{
							"internalType": "uint256",
							"name": "",
							"type": "uint256"
						}
					],
					"stateMutability": "view",
					"type": "function"
				},
				{
					"inputs": [],
					"name": "adminWallet",
					"outputs": [
						{
							"internalType": "address",
							"name": "",
							"type": "address"
						}
					],
					"stateMutability": "view",
					"type": "function"
				},
				{
					"inputs": [],
					"name": "currUserID",
					"outputs": [
						{
							"internalType": "uint256",
							"name": "",
							"type": "uint256"
						}
					],
					"stateMutability": "view",
					"type": "function"
				},
				{
					"inputs": [],
					"name": "getContractBalance",
					"outputs": [
						{
							"internalType": "uint256",
							"name": "",
							"type": "uint256"
						}
					],
					"stateMutability": "view",
					"type": "function"
				},
				{
					"inputs": [
						{
							"internalType": "address",
							"name": "_user",
							"type": "address"
						},
						{
							"internalType": "uint256",
							"name": "_level",
							"type": "uint256"
						}
					],
					"name": "getUserIncomeCount",
					"outputs": [
						{
							"internalType": "uint256",
							"name": "",
							"type": "uint256"
						}
					],
					"stateMutability": "view",
					"type": "function"
				},
				{
					"inputs": [
						{
							"internalType": "address",
							"name": "_user",
							"type": "address"
						}
					],
					"name": "getUserLevelEligibility",
					"outputs": [
						{
							"internalType": "uint256[]",
							"name": "",
							"type": "uint256[]"
						}
					],
					"stateMutability": "view",
					"type": "function"
				},
				{
					"inputs": [
						{
							"internalType": "address",
							"name": "_user",
							"type": "address"
						}
					],
					"name": "getUserReferrals",
					"outputs": [
						{
							"internalType": "address[]",
							"name": "",
							"type": "address[]"
						}
					],
					"stateMutability": "view",
					"type": "function"
				},
				{
					"inputs": [
						{
							"internalType": "uint256",
							"name": "",
							"type": "uint256"
						},
						{
							"internalType": "address",
							"name": "",
							"type": "address"
						}
					],
					"name": "isLevelUpgradedForAddress",
					"outputs": [
						{
							"internalType": "bool",
							"name": "",
							"type": "bool"
						}
					],
					"stateMutability": "view",
					"type": "function"
				},
				{
					"inputs": [
						{
							"internalType": "uint256",
							"name": "",
							"type": "uint256"
						},
						{
							"internalType": "address",
							"name": "",
							"type": "address"
						}
					],
					"name": "levelCounter",
					"outputs": [
						{
							"internalType": "uint256",
							"name": "",
							"type": "uint256"
						}
					],
					"stateMutability": "view",
					"type": "function"
				},
				{
					"inputs": [
						{
							"internalType": "uint256",
							"name": "",
							"type": "uint256"
						},
						{
							"internalType": "address",
							"name": "",
							"type": "address"
						}
					],
					"name": "levelUpgradePayments",
					"outputs": [
						{
							"internalType": "address",
							"name": "",
							"type": "address"
						}
					],
					"stateMutability": "view",
					"type": "function"
				},
				{
					"inputs": [
						{
							"internalType": "uint256",
							"name": "",
							"type": "uint256"
						}
					],
					"name": "promotionPercantage",
					"outputs": [
						{
							"internalType": "uint8",
							"name": "",
							"type": "uint8"
						}
					],
					"stateMutability": "view",
					"type": "function"
				},
				{
					"inputs": [
						{
							"internalType": "uint256",
							"name": "",
							"type": "uint256"
						}
					],
					"name": "promotionWallets",
					"outputs": [
						{
							"internalType": "address",
							"name": "",
							"type": "address"
						}
					],
					"stateMutability": "view",
					"type": "function"
				},
				{
					"inputs": [
						{
							"internalType": "uint256",
							"name": "_referrerID",
							"type": "uint256"
						}
					],
					"name": "regUser",
					"outputs": [
						{
							"internalType": "bool",
							"name": "",
							"type": "bool"
						}
					],
					"stateMutability": "payable",
					"type": "function"
				},
				{
					"inputs": [],
					"name": "rewardWallet",
					"outputs": [
						{
							"internalType": "address",
							"name": "",
							"type": "address"
						}
					],
					"stateMutability": "view",
					"type": "function"
				},
				{
					"inputs": [],
					"name": "splPromoWallet",
					"outputs": [
						{
							"internalType": "address",
							"name": "",
							"type": "address"
						}
					],
					"stateMutability": "view",
					"type": "function"
				},
				{
					"inputs": [],
					"name": "transferURS",
					"outputs": [
						{
							"internalType": "bool",
							"name": "",
							"type": "bool"
						}
					],
					"stateMutability": "nonpayable",
					"type": "function"
				},
				{
					"inputs": [
						{
							"internalType": "address",
							"name": "walletAddr",
							"type": "address"
						},
						{
							"internalType": "uint256",
							"name": "index",
							"type": "uint256"
						}
					],
					"name": "updatePromotionWallet",
					"outputs": [],
					"stateMutability": "nonpayable",
					"type": "function"
				},
				{
					"inputs": [],
					"name": "ursWallet",
					"outputs": [
						{
							"internalType": "address",
							"name": "",
							"type": "address"
						}
					],
					"stateMutability": "view",
					"type": "function"
				},
				{
					"inputs": [
						{
							"internalType": "uint256",
							"name": "",
							"type": "uint256"
						}
					],
					"name": "userList",
					"outputs": [
						{
							"internalType": "address",
							"name": "",
							"type": "address"
						}
					],
					"stateMutability": "view",
					"type": "function"
				},
				{
					"inputs": [
						{
							"internalType": "address",
							"name": "",
							"type": "address"
						}
					],
					"name": "users",
					"outputs": [
						{
							"internalType": "bool",
							"name": "isExist",
							"type": "bool"
						},
						{
							"internalType": "uint256",
							"name": "id",
							"type": "uint256"
						},
						{
							"internalType": "uint256",
							"name": "referrerID",
							"type": "uint256"
						},
						{
							"internalType": "uint256",
							"name": "joined",
							"type": "uint256"
						}
					],
					"stateMutability": "view",
					"type": "function"
				},
				{
					"inputs": [],
					"name": "withdrawPromotion",
					"outputs": [
						{
							"internalType": "bool",
							"name": "",
							"type": "bool"
						}
					],
					"stateMutability": "nonpayable",
					"type": "function"
				},
				{
					"inputs": [],
					"name": "withdrawSplPromotion",
					"outputs": [
						{
							"internalType": "bool",
							"name": "",
							"type": "bool"
						}
					],
					"stateMutability": "nonpayable",
					"type": "function"
				}
			],
			"devdoc": {
				"custom:dev-run-script": "./tronbox/test/TestSG.js",
				"kind": "dev",
				"methods": {},
				"version": 1
			},
			"evm": {
				"assembly": "    /* \"tronbox/contracts/SmartGenie.sol\":124:27501  contract SmartGenie {... */\n  mstore(0x40, 0x80)\n    /* \"tronbox/contracts/SmartGenie.sol\":1023:1070  uint8[4] public promotionPercantage = [2,1,1,1] */\n  mload(0x40)\n  dup1\n  0x80\n  add\n  0x40\n  mstore\n  dup1\n    /* \"tronbox/contracts/SmartGenie.sol\":1062:1063  2 */\n  0x02\n    /* \"tronbox/contracts/SmartGenie.sol\":1023:1070  uint8[4] public promotionPercantage = [2,1,1,1] */\n  0xff\n  and\n  dup2\n  mstore\n  0x20\n  add\n    /* \"tronbox/contracts/SmartGenie.sol\":1064:1065  1 */\n  0x01\n    /* \"tronbox/contracts/SmartGenie.sol\":1023:1070  uint8[4] public promotionPercantage = [2,1,1,1] */\n  0xff\n  and\n  dup2\n  mstore\n  0x20\n  add\n    /* \"tronbox/contracts/SmartGenie.sol\":1066:1067  1 */\n  0x01\n    /* \"tronbox/contracts/SmartGenie.sol\":1023:1070  uint8[4] public promotionPercantage = [2,1,1,1] */\n  0xff\n  and\n  dup2\n  mstore\n  0x20\n  add\n    /* \"tronbox/contracts/SmartGenie.sol\":1068:1069  1 */\n  0x01\n    /* \"tronbox/contracts/SmartGenie.sol\":1023:1070  uint8[4] public promotionPercantage = [2,1,1,1] */\n  0xff\n  and\n  dup2\n  mstore\n  pop\n  0x08\n  swap1\n  0x04\n  tag_1\n  swap3\n  swap2\n  swap1\n  tag_2\n  jump\t// in\ntag_1:\n  pop\n    /* \"tronbox/contracts/SmartGenie.sol\":1489:1490  0 */\n  0x00\n    /* \"tronbox/contracts/SmartGenie.sol\":1464:1490  uint public currUserID = 0 */\n  0x0f\n  sstore\n    /* \"tronbox/contracts/SmartGenie.sol\":1517:1518  0 */\n  0x00\n    /* \"tronbox/contracts/SmartGenie.sol\":1496:1518  uint256 splPromAmt = 0 */\n  0x10\n  sstore\n    /* \"tronbox/contracts/SmartGenie.sol\":1542:1543  0 */\n  0x00\n    /* \"tronbox/contracts/SmartGenie.sol\":1524:1543  uint256 promAmt = 0 */\n  0x11\n  sstore\n    /* \"tronbox/contracts/SmartGenie.sol\":1566:1567  0 */\n  0x00\n    /* \"tronbox/contracts/SmartGenie.sol\":1549:1567  uint256 ursAmt = 0 */\n  0x12\n  sstore\n    /* \"tronbox/contracts/SmartGenie.sol\":1590:1598  50 ether */\n  0x02b5e3af16b1880000\n    /* \"tronbox/contracts/SmartGenie.sol\":1573:1598  uint256 regFee = 50 ether */\n  0x13\n  sstore\n    /* \"tronbox/contracts/SmartGenie.sol\":1635:1638  100 */\n  0x64\n    /* \"tronbox/contracts/SmartGenie.sol\":1631:1633  10 */\n  0x0a\n    /* \"tronbox/contracts/SmartGenie.sol\":1624:1630  regFee */\n  sload(0x13)\n    /* \"tronbox/contracts/SmartGenie.sol\":1624:1633  regFee*10 */\n  tag_3\n  swap2\n  swap1\n  tag_4\n  jump\t// in\ntag_3:\n    /* \"tronbox/contracts/SmartGenie.sol\":1623:1638  (regFee*10)/100 */\n  tag_5\n  swap2\n  swap1\n  tag_6\n  jump\t// in\ntag_5:\n    /* \"tronbox/contracts/SmartGenie.sol\":1604:1638  uint256 regShare = (regFee*10)/100 */\n  0x14\n  sstore\n    /* \"tronbox/contracts/SmartGenie.sol\":1698:1701  100 */\n  0x64\n    /* \"tronbox/contracts/SmartGenie.sol\":1695:1696  9 */\n  0x09\n    /* \"tronbox/contracts/SmartGenie.sol\":1688:1694  regFee */\n  sload(0x13)\n    /* \"tronbox/contracts/SmartGenie.sol\":1688:1696  regFee*9 */\n  tag_7\n  swap2\n  swap1\n  tag_4\n  jump\t// in\ntag_7:\n    /* \"tronbox/contracts/SmartGenie.sol\":1687:1701  (regFee*9)/100 */\n  tag_8\n  swap2\n  swap1\n  tag_6\n  jump\t// in\ntag_8:\n    /* \"tronbox/contracts/SmartGenie.sol\":1662:1701  uint256 promotionShare = (regFee*9)/100 */\n  0x15\n  sstore\n    /* \"tronbox/contracts/SmartGenie.sol\":1759:1762  100 */\n  0x64\n    /* \"tronbox/contracts/SmartGenie.sol\":1756:1757  1 */\n  0x01\n    /* \"tronbox/contracts/SmartGenie.sol\":1749:1755  regFee */\n  sload(0x13)\n    /* \"tronbox/contracts/SmartGenie.sol\":1749:1757  regFee*1 */\n  tag_9\n  swap2\n  swap1\n  tag_4\n  jump\t// in\ntag_9:\n    /* \"tronbox/contracts/SmartGenie.sol\":1748:1762  (regFee*1)/100 */\n  tag_10\n  swap2\n  swap1\n  tag_6\n  jump\t// in\ntag_10:\n    /* \"tronbox/contracts/SmartGenie.sol\":1724:1762  uint256 splPromoShare = (regFee*1)/100 */\n  0x16\n  sstore\n    /* \"tronbox/contracts/SmartGenie.sol\":2214:3559  constructor(address _prWallet1, address _prWallet2, ... */\n  callvalue\n  dup1\n  iszero\n  tag_11\n  jumpi\n  0x00\n  dup1\n  revert\ntag_11:\n  pop\n  mload(0x40)\n  sub(codesize, bytecodeSize)\n  dup1\n  bytecodeSize\n  dup4\n  codecopy\n  dup2\n  dup2\n  add\n  0x40\n  mstore\n  dup2\n  add\n  swap1\n  tag_12\n  swap2\n  swap1\n  tag_13\n  jump\t// in\ntag_12:\n    /* \"tronbox/contracts/SmartGenie.sol\":2481:2491  msg.sender */\n  caller\n    /* \"tronbox/contracts/SmartGenie.sol\":2467:2478  adminWallet */\n  0x00\n  dup1\n    /* \"tronbox/contracts/SmartGenie.sol\":2467:2491  adminWallet = msg.sender */\n  0x0100\n  exp\n  dup2\n  sload\n  dup2\n  0xffffffffffffffffffffffffffffffffffffffff\n  mul\n  not\n  and\n  swap1\n  dup4\n  0xffffffffffffffffffffffffffffffffffffffff\n  and\n  mul\n  or\n  swap1\n  sstore\n  pop\n    /* \"tronbox/contracts/SmartGenie.sol\":2513:2523  _ursWallet */\n  dup1\n    /* \"tronbox/contracts/SmartGenie.sol\":2501:2510  ursWallet */\n  0x01\n  0x00\n    /* \"tronbox/contracts/SmartGenie.sol\":2501:2523  ursWallet = _ursWallet */\n  0x0100\n  exp\n  dup2\n  sload\n  dup2\n  0xffffffffffffffffffffffffffffffffffffffff\n  mul\n  not\n  and\n  swap1\n  dup4\n  0xffffffffffffffffffffffffffffffffffffffff\n  and\n  mul\n  or\n  swap1\n  sstore\n  pop\n    /* \"tronbox/contracts/SmartGenie.sol\":2550:2560  _sprWallet */\n  dup3\n    /* \"tronbox/contracts/SmartGenie.sol\":2533:2547  splPromoWallet */\n  0x02\n  0x00\n    /* \"tronbox/contracts/SmartGenie.sol\":2533:2560  splPromoWallet = _sprWallet */\n  0x0100\n  exp\n  dup2\n  sload\n  dup2\n  0xffffffffffffffffffffffffffffffffffffffff\n  mul\n  not\n  and\n  swap1\n  dup4\n  0xffffffffffffffffffffffffffffffffffffffff\n  and\n  mul\n  or\n  swap1\n  sstore\n  pop\n    /* \"tronbox/contracts/SmartGenie.sol\":2585:2598  _rewardWallet */\n  dup2\n    /* \"tronbox/contracts/SmartGenie.sol\":2570:2582  rewardWallet */\n  0x03\n  0x00\n    /* \"tronbox/contracts/SmartGenie.sol\":2570:2598  rewardWallet = _rewardWallet */\n  0x0100\n  exp\n  dup2\n  sload\n  dup2\n  0xffffffffffffffffffffffffffffffffffffffff\n  mul\n  not\n  and\n  swap1\n  dup4\n  0xffffffffffffffffffffffffffffffffffffffff\n  and\n  mul\n  or\n  swap1\n  sstore\n  pop\n    /* \"tronbox/contracts/SmartGenie.sol\":2608:2675  promotionWallets = [_prWallet1, _prWallet2, _prWallet3, _prWallet4] */\n  mload(0x40)\n  dup1\n  0x80\n  add\n  0x40\n  mstore\n  dup1\n    /* \"tronbox/contracts/SmartGenie.sol\":2628:2638  _prWallet1 */\n  dup9\n    /* \"tronbox/contracts/SmartGenie.sol\":2608:2675  promotionWallets = [_prWallet1, _prWallet2, _prWallet3, _prWallet4] */\n  0xffffffffffffffffffffffffffffffffffffffff\n  and\n  0xffffffffffffffffffffffffffffffffffffffff\n  and\n  dup2\n  mstore\n  0x20\n  add\n    /* \"tronbox/contracts/SmartGenie.sol\":2640:2650  _prWallet2 */\n  dup8\n    /* \"tronbox/contracts/SmartGenie.sol\":2608:2675  promotionWallets = [_prWallet1, _prWallet2, _prWallet3, _prWallet4] */\n  0xffffffffffffffffffffffffffffffffffffffff\n  and\n  0xffffffffffffffffffffffffffffffffffffffff\n  and\n  dup2\n  mstore\n  0x20\n  add\n    /* \"tronbox/contracts/SmartGenie.sol\":2652:2662  _prWallet3 */\n  dup7\n    /* \"tronbox/contracts/SmartGenie.sol\":2608:2675  promotionWallets = [_prWallet1, _prWallet2, _prWallet3, _prWallet4] */\n  0xffffffffffffffffffffffffffffffffffffffff\n  and\n  0xffffffffffffffffffffffffffffffffffffffff\n  and\n  dup2\n  mstore\n  0x20\n  add\n    /* \"tronbox/contracts/SmartGenie.sol\":2664:2674  _prWallet4 */\n  dup6\n    /* \"tronbox/contracts/SmartGenie.sol\":2608:2675  promotionWallets = [_prWallet1, _prWallet2, _prWallet3, _prWallet4] */\n  0xffffffffffffffffffffffffffffffffffffffff\n  and\n  0xffffffffffffffffffffffffffffffffffffffff\n  and\n  dup2\n  mstore\n  pop\n    /* \"tronbox/contracts/SmartGenie.sol\":2608:2624  promotionWallets */\n  0x04\n    /* \"tronbox/contracts/SmartGenie.sol\":2608:2675  promotionWallets = [_prWallet1, _prWallet2, _prWallet3, _prWallet4] */\n  swap1\n  0x04\n  tag_16\n  swap3\n  swap2\n  swap1\n  tag_17\n  jump\t// in\ntag_16:\n  pop\n    /* \"tronbox/contracts/SmartGenie.sol\":2774:2777  100 */\n  0x64\n    /* \"tronbox/contracts/SmartGenie.sol\":2770:2772  80 */\n  0x50\n    /* \"tronbox/contracts/SmartGenie.sol\":2763:2769  regFee */\n  sload(0x13)\n    /* \"tronbox/contracts/SmartGenie.sol\":2763:2772  regFee*80 */\n  tag_18\n  swap2\n  swap1\n  tag_4\n  jump\t// in\ntag_18:\n    /* \"tronbox/contracts/SmartGenie.sol\":2762:2777  (regFee*80)/100 */\n  tag_19\n  swap2\n  swap1\n  tag_6\n  jump\t// in\ntag_19:\n    /* \"tronbox/contracts/SmartGenie.sol\":2745:2756  LEVEL_PRICE */\n  0x09\n    /* \"tronbox/contracts/SmartGenie.sol\":2745:2759  LEVEL_PRICE[1] */\n  0x00\n    /* \"tronbox/contracts/SmartGenie.sol\":2757:2758  1 */\n  0x01\n    /* \"tronbox/contracts/SmartGenie.sol\":2745:2759  LEVEL_PRICE[1] */\n  dup2\n  mstore\n  0x20\n  add\n  swap1\n  dup2\n  mstore\n  0x20\n  add\n  0x00\n  keccak256\n    /* \"tronbox/contracts/SmartGenie.sol\":2745:2777  LEVEL_PRICE[1] = (regFee*80)/100 */\n  dup2\n  swap1\n  sstore\n  pop\n    /* \"tronbox/contracts/SmartGenie.sol\":2819:2820  2 */\n  0x02\n    /* \"tronbox/contracts/SmartGenie.sol\":2804:2815  LEVEL_PRICE */\n  0x09\n    /* \"tronbox/contracts/SmartGenie.sol\":2804:2818  LEVEL_PRICE[1] */\n  0x00\n    /* \"tronbox/contracts/SmartGenie.sol\":2816:2817  1 */\n  0x01\n    /* \"tronbox/contracts/SmartGenie.sol\":2804:2818  LEVEL_PRICE[1] */\n  dup2\n  mstore\n  0x20\n  add\n  swap1\n  dup2\n  mstore\n  0x20\n  add\n  0x00\n  keccak256\n  sload\n    /* \"tronbox/contracts/SmartGenie.sol\":2804:2820  LEVEL_PRICE[1]*2 */\n  tag_20\n  swap2\n  swap1\n  tag_4\n  jump\t// in\ntag_20:\n    /* \"tronbox/contracts/SmartGenie.sol\":2787:2798  LEVEL_PRICE */\n  0x09\n    /* \"tronbox/contracts/SmartGenie.sol\":2787:2801  LEVEL_PRICE[2] */\n  0x00\n    /* \"tronbox/contracts/SmartGenie.sol\":2799:2800  2 */\n  0x02\n    /* \"tronbox/contracts/SmartGenie.sol\":2787:2801  LEVEL_PRICE[2] */\n  dup2\n  mstore\n  0x20\n  add\n  swap1\n  dup2\n  mstore\n  0x20\n  add\n  0x00\n  keccak256\n    /* \"tronbox/contracts/SmartGenie.sol\":2787:2820  LEVEL_PRICE[2] = LEVEL_PRICE[1]*2 */\n  dup2\n  swap1\n  sstore\n  pop\n    /* \"tronbox/contracts/SmartGenie.sol\":2862:2863  2 */\n  0x02\n    /* \"tronbox/contracts/SmartGenie.sol\":2847:2858  LEVEL_PRICE */\n  0x09\n    /* \"tronbox/contracts/SmartGenie.sol\":2847:2861  LEVEL_PRICE[2] */\n  0x00\n    /* \"tronbox/contracts/SmartGenie.sol\":2859:2860  2 */\n  0x02\n    /* \"tronbox/contracts/SmartGenie.sol\":2847:2861  LEVEL_PRICE[2] */\n  dup2\n  mstore\n  0x20\n  add\n  swap1\n  dup2\n  mstore\n  0x20\n  add\n  0x00\n  keccak256\n  sload\n    /* \"tronbox/contracts/SmartGenie.sol\":2847:2863  LEVEL_PRICE[2]*2 */\n  tag_21\n  swap2\n  swap1\n  tag_4\n  jump\t// in\ntag_21:\n    /* \"tronbox/contracts/SmartGenie.sol\":2830:2841  LEVEL_PRICE */\n  0x09\n    /* \"tronbox/contracts/SmartGenie.sol\":2830:2844  LEVEL_PRICE[3] */\n  0x00\n    /* \"tronbox/contracts/SmartGenie.sol\":2842:2843  3 */\n  0x03\n    /* \"tronbox/contracts/SmartGenie.sol\":2830:2844  LEVEL_PRICE[3] */\n  dup2\n  mstore\n  0x20\n  add\n  swap1\n  dup2\n  mstore\n  0x20\n  add\n  0x00\n  keccak256\n    /* \"tronbox/contracts/SmartGenie.sol\":2830:2863  LEVEL_PRICE[3] = LEVEL_PRICE[2]*2 */\n  dup2\n  swap1\n  sstore\n  pop\n    /* \"tronbox/contracts/SmartGenie.sol\":2905:2906  2 */\n  0x02\n    /* \"tronbox/contracts/SmartGenie.sol\":2890:2901  LEVEL_PRICE */\n  0x09\n    /* \"tronbox/contracts/SmartGenie.sol\":2890:2904  LEVEL_PRICE[3] */\n  0x00\n    /* \"tronbox/contracts/SmartGenie.sol\":2902:2903  3 */\n  0x03\n    /* \"tronbox/contracts/SmartGenie.sol\":2890:2904  LEVEL_PRICE[3] */\n  dup2\n  mstore\n  0x20\n  add\n  swap1\n  dup2\n  mstore\n  0x20\n  add\n  0x00\n  keccak256\n  sload\n    /* \"tronbox/contracts/SmartGenie.sol\":2890:2906  LEVEL_PRICE[3]*2 */\n  tag_22\n  swap2\n  swap1\n  tag_4\n  jump\t// in\ntag_22:\n    /* \"tronbox/contracts/SmartGenie.sol\":2873:2884  LEVEL_PRICE */\n  0x09\n    /* \"tronbox/contracts/SmartGenie.sol\":2873:2887  LEVEL_PRICE[4] */\n  0x00\n    /* \"tronbox/contracts/SmartGenie.sol\":2885:2886  4 */\n  0x04\n    /* \"tronbox/contracts/SmartGenie.sol\":2873:2887  LEVEL_PRICE[4] */\n  dup2\n  mstore\n  0x20\n  add\n  swap1\n  dup2\n  mstore\n  0x20\n  add\n  0x00\n  keccak256\n    /* \"tronbox/contracts/SmartGenie.sol\":2873:2906  LEVEL_PRICE[4] = LEVEL_PRICE[3]*2 */\n  dup2\n  swap1\n  sstore\n  pop\n    /* \"tronbox/contracts/SmartGenie.sol\":2948:2949  2 */\n  0x02\n    /* \"tronbox/contracts/SmartGenie.sol\":2933:2944  LEVEL_PRICE */\n  0x09\n    /* \"tronbox/contracts/SmartGenie.sol\":2933:2947  LEVEL_PRICE[4] */\n  0x00\n    /* \"tronbox/contracts/SmartGenie.sol\":2945:2946  4 */\n  0x04\n    /* \"tronbox/contracts/SmartGenie.sol\":2933:2947  LEVEL_PRICE[4] */\n  dup2\n  mstore\n  0x20\n  add\n  swap1\n  dup2\n  mstore\n  0x20\n  add\n  0x00\n  keccak256\n  sload\n    /* \"tronbox/contracts/SmartGenie.sol\":2933:2949  LEVEL_PRICE[4]*2 */\n  tag_23\n  swap2\n  swap1\n  tag_4\n  jump\t// in\ntag_23:\n    /* \"tronbox/contracts/SmartGenie.sol\":2916:2927  LEVEL_PRICE */\n  0x09\n    /* \"tronbox/contracts/SmartGenie.sol\":2916:2930  LEVEL_PRICE[5] */\n  0x00\n    /* \"tronbox/contracts/SmartGenie.sol\":2928:2929  5 */\n  0x05\n    /* \"tronbox/contracts/SmartGenie.sol\":2916:2930  LEVEL_PRICE[5] */\n  dup2\n  mstore\n  0x20\n  add\n  swap1\n  dup2\n  mstore\n  0x20\n  add\n  0x00\n  keccak256\n    /* \"tronbox/contracts/SmartGenie.sol\":2916:2949  LEVEL_PRICE[5] = LEVEL_PRICE[4]*2 */\n  dup2\n  swap1\n  sstore\n  pop\n    /* \"tronbox/contracts/SmartGenie.sol\":2991:2992  2 */\n  0x02\n    /* \"tronbox/contracts/SmartGenie.sol\":2976:2987  LEVEL_PRICE */\n  0x09\n    /* \"tronbox/contracts/SmartGenie.sol\":2976:2990  LEVEL_PRICE[5] */\n  0x00\n    /* \"tronbox/contracts/SmartGenie.sol\":2988:2989  5 */\n  0x05\n    /* \"tronbox/contracts/SmartGenie.sol\":2976:2990  LEVEL_PRICE[5] */\n  dup2\n  mstore\n  0x20\n  add\n  swap1\n  dup2\n  mstore\n  0x20\n  add\n  0x00\n  keccak256\n  sload\n    /* \"tronbox/contracts/SmartGenie.sol\":2976:2992  LEVEL_PRICE[5]*2 */\n  tag_24\n  swap2\n  swap1\n  tag_4\n  jump\t// in\ntag_24:\n    /* \"tronbox/contracts/SmartGenie.sol\":2959:2970  LEVEL_PRICE */\n  0x09\n    /* \"tronbox/contracts/SmartGenie.sol\":2959:2973  LEVEL_PRICE[6] */\n  0x00\n    /* \"tronbox/contracts/SmartGenie.sol\":2971:2972  6 */\n  0x06\n    /* \"tronbox/contracts/SmartGenie.sol\":2959:2973  LEVEL_PRICE[6] */\n  dup2\n  mstore\n  0x20\n  add\n  swap1\n  dup2\n  mstore\n  0x20\n  add\n  0x00\n  keccak256\n    /* \"tronbox/contracts/SmartGenie.sol\":2959:2992  LEVEL_PRICE[6] = LEVEL_PRICE[5]*2 */\n  dup2\n  swap1\n  sstore\n  pop\n    /* \"tronbox/contracts/SmartGenie.sol\":3034:3035  2 */\n  0x02\n    /* \"tronbox/contracts/SmartGenie.sol\":3019:3030  LEVEL_PRICE */\n  0x09\n    /* \"tronbox/contracts/SmartGenie.sol\":3019:3033  LEVEL_PRICE[6] */\n  0x00\n    /* \"tronbox/contracts/SmartGenie.sol\":3031:3032  6 */\n  0x06\n    /* \"tronbox/contracts/SmartGenie.sol\":3019:3033  LEVEL_PRICE[6] */\n  dup2\n  mstore\n  0x20\n  add\n  swap1\n  dup2\n  mstore\n  0x20\n  add\n  0x00\n  keccak256\n  sload\n    /* \"tronbox/contracts/SmartGenie.sol\":3019:3035  LEVEL_PRICE[6]*2 */\n  tag_25\n  swap2\n  swap1\n  tag_4\n  jump\t// in\ntag_25:\n    /* \"tronbox/contracts/SmartGenie.sol\":3002:3013  LEVEL_PRICE */\n  0x09\n    /* \"tronbox/contracts/SmartGenie.sol\":3002:3016  LEVEL_PRICE[7] */\n  0x00\n    /* \"tronbox/contracts/SmartGenie.sol\":3014:3015  7 */\n  0x07\n    /* \"tronbox/contracts/SmartGenie.sol\":3002:3016  LEVEL_PRICE[7] */\n  dup2\n  mstore\n  0x20\n  add\n  swap1\n  dup2\n  mstore\n  0x20\n  add\n  0x00\n  keccak256\n    /* \"tronbox/contracts/SmartGenie.sol\":3002:3035  LEVEL_PRICE[7] = LEVEL_PRICE[6]*2 */\n  dup2\n  swap1\n  sstore\n  pop\n    /* \"tronbox/contracts/SmartGenie.sol\":3077:3078  2 */\n  0x02\n    /* \"tronbox/contracts/SmartGenie.sol\":3062:3073  LEVEL_PRICE */\n  0x09\n    /* \"tronbox/contracts/SmartGenie.sol\":3062:3076  LEVEL_PRICE[7] */\n  0x00\n    /* \"tronbox/contracts/SmartGenie.sol\":3074:3075  7 */\n  0x07\n    /* \"tronbox/contracts/SmartGenie.sol\":3062:3076  LEVEL_PRICE[7] */\n  dup2\n  mstore\n  0x20\n  add\n  swap1\n  dup2\n  mstore\n  0x20\n  add\n  0x00\n  keccak256\n  sload\n    /* \"tronbox/contracts/SmartGenie.sol\":3062:3078  LEVEL_PRICE[7]*2 */\n  tag_26\n  swap2\n  swap1\n  tag_4\n  jump\t// in\ntag_26:\n    /* \"tronbox/contracts/SmartGenie.sol\":3045:3056  LEVEL_PRICE */\n  0x09\n    /* \"tronbox/contracts/SmartGenie.sol\":3045:3059  LEVEL_PRICE[8] */\n  0x00\n    /* \"tronbox/contracts/SmartGenie.sol\":3057:3058  8 */\n  0x08\n    /* \"tronbox/contracts/SmartGenie.sol\":3045:3059  LEVEL_PRICE[8] */\n  dup2\n  mstore\n  0x20\n  add\n  swap1\n  dup2\n  mstore\n  0x20\n  add\n  0x00\n  keccak256\n    /* \"tronbox/contracts/SmartGenie.sol\":3045:3078  LEVEL_PRICE[8] = LEVEL_PRICE[7]*2 */\n  dup2\n  swap1\n  sstore\n  pop\n    /* \"tronbox/contracts/SmartGenie.sol\":3120:3121  2 */\n  0x02\n    /* \"tronbox/contracts/SmartGenie.sol\":3105:3116  LEVEL_PRICE */\n  0x09\n    /* \"tronbox/contracts/SmartGenie.sol\":3105:3119  LEVEL_PRICE[8] */\n  0x00\n    /* \"tronbox/contracts/SmartGenie.sol\":3117:3118  8 */\n  0x08\n    /* \"tronbox/contracts/SmartGenie.sol\":3105:3119  LEVEL_PRICE[8] */\n  dup2\n  mstore\n  0x20\n  add\n  swap1\n  dup2\n  mstore\n  0x20\n  add\n  0x00\n  keccak256\n  sload\n    /* \"tronbox/contracts/SmartGenie.sol\":3105:3121  LEVEL_PRICE[8]*2 */\n  tag_27\n  swap2\n  swap1\n  tag_4\n  jump\t// in\ntag_27:\n    /* \"tronbox/contracts/SmartGenie.sol\":3088:3099  LEVEL_PRICE */\n  0x09\n    /* \"tronbox/contracts/SmartGenie.sol\":3088:3102  LEVEL_PRICE[9] */\n  0x00\n    /* \"tronbox/contracts/SmartGenie.sol\":3100:3101  9 */\n  0x09\n    /* \"tronbox/contracts/SmartGenie.sol\":3088:3102  LEVEL_PRICE[9] */\n  dup2\n  mstore\n  0x20\n  add\n  swap1\n  dup2\n  mstore\n  0x20\n  add\n  0x00\n  keccak256\n    /* \"tronbox/contracts/SmartGenie.sol\":3088:3121  LEVEL_PRICE[9] = LEVEL_PRICE[8]*2 */\n  dup2\n  swap1\n  sstore\n  pop\n    /* \"tronbox/contracts/SmartGenie.sol\":3182:3211  UserStruct storage userStruct */\n  0x00\n    /* \"tronbox/contracts/SmartGenie.sol\":3214:3219  users */\n  0x0a\n    /* \"tronbox/contracts/SmartGenie.sol\":3214:3232  users[adminWallet] */\n  0x00\n    /* \"tronbox/contracts/SmartGenie.sol\":3220:3231  adminWallet */\n  dup1\n  0x00\n  swap1\n  sload\n  swap1\n  0x0100\n  exp\n  swap1\n  div\n  0xffffffffffffffffffffffffffffffffffffffff\n  and\n    /* \"tronbox/contracts/SmartGenie.sol\":3214:3232  users[adminWallet] */\n  0xffffffffffffffffffffffffffffffffffffffff\n  and\n  0xffffffffffffffffffffffffffffffffffffffff\n  and\n  dup2\n  mstore\n  0x20\n  add\n  swap1\n  dup2\n  mstore\n  0x20\n  add\n  0x00\n  keccak256\n    /* \"tronbox/contracts/SmartGenie.sol\":3182:3232  UserStruct storage userStruct = users[adminWallet] */\n  swap1\n  pop\n    /* \"tronbox/contracts/SmartGenie.sol\":3263:3267  true */\n  0x01\n    /* \"tronbox/contracts/SmartGenie.sol\":3242:3252  userStruct */\n  dup2\n    /* \"tronbox/contracts/SmartGenie.sol\":3242:3260  userStruct.isExist */\n  0x00\n  add\n  0x00\n    /* \"tronbox/contracts/SmartGenie.sol\":3242:3267  userStruct.isExist = true */\n  0x0100\n  exp\n  dup2\n  sload\n  dup2\n  0xff\n  mul\n  not\n  and\n  swap1\n  dup4\n  iszero\n  iszero\n  mul\n  or\n  swap1\n  sstore\n  pop\n    /* \"tronbox/contracts/SmartGenie.sol\":3293:3303  currUserID */\n  sload(0x0f)\n    /* \"tronbox/contracts/SmartGenie.sol\":3277:3287  userStruct */\n  dup2\n    /* \"tronbox/contracts/SmartGenie.sol\":3277:3290  userStruct.id */\n  0x01\n  add\n    /* \"tronbox/contracts/SmartGenie.sol\":3277:3303  userStruct.id = currUserID */\n  dup2\n  swap1\n  sstore\n  pop\n    /* \"tronbox/contracts/SmartGenie.sol\":3337:3338  0 */\n  0x00\n    /* \"tronbox/contracts/SmartGenie.sol\":3313:3323  userStruct */\n  dup2\n    /* \"tronbox/contracts/SmartGenie.sol\":3313:3334  userStruct.referrerID */\n  0x02\n  add\n    /* \"tronbox/contracts/SmartGenie.sol\":3313:3338  userStruct.referrerID = 0 */\n  dup2\n  swap1\n  sstore\n  pop\n    /* \"tronbox/contracts/SmartGenie.sol\":3384:3385  0 */\n  0x00\n    /* \"tronbox/contracts/SmartGenie.sol\":3370:3386  new address[](0) */\n  0xffffffffffffffff\n  dup2\n  gt\n  iszero\n  tag_28\n  jumpi\n  tag_29\n  tag_30\n  jump\t// in\ntag_29:\ntag_28:\n  mload(0x40)\n  swap1\n  dup1\n  dup3\n  mstore\n  dup1\n  0x20\n  mul\n  0x20\n  add\n  dup3\n  add\n  0x40\n  mstore\n  dup1\n  iszero\n  tag_31\n  jumpi\n  dup2\n  0x20\n  add\n  0x20\n  dup3\n  mul\n  dup1\n  calldatasize\n  dup4\n  calldatacopy\n  dup1\n  dup3\n  add\n  swap2\n  pop\n  pop\n  swap1\n  pop\ntag_31:\n  pop\n    /* \"tronbox/contracts/SmartGenie.sol\":3348:3358  userStruct */\n  dup2\n    /* \"tronbox/contracts/SmartGenie.sol\":3348:3367  userStruct.referral */\n  0x03\n  add\n    /* \"tronbox/contracts/SmartGenie.sol\":3348:3386  userStruct.referral = new address[](0) */\n  swap1\n  dup1\n  mload\n  swap1\n  0x20\n  add\n  swap1\n  tag_32\n  swap3\n  swap2\n  swap1\n  tag_33\n  jump\t// in\ntag_32:\n  pop\n    /* \"tronbox/contracts/SmartGenie.sol\":3416:3431  block.timestamp */\n  timestamp\n    /* \"tronbox/contracts/SmartGenie.sol\":3396:3406  userStruct */\n  dup2\n    /* \"tronbox/contracts/SmartGenie.sol\":3396:3413  userStruct.joined */\n  0x04\n  add\n    /* \"tronbox/contracts/SmartGenie.sol\":3396:3431  userStruct.joined = block.timestamp */\n  dup2\n  swap1\n  sstore\n  pop\n    /* \"tronbox/contracts/SmartGenie.sol\":3482:3483  0 */\n  0x00\n    /* \"tronbox/contracts/SmartGenie.sol\":3471:3484  new uint[](0) */\n  0xffffffffffffffff\n  dup2\n  gt\n  iszero\n  tag_34\n  jumpi\n  tag_35\n  tag_30\n  jump\t// in\ntag_35:\ntag_34:\n  mload(0x40)\n  swap1\n  dup1\n  dup3\n  mstore\n  dup1\n  0x20\n  mul\n  0x20\n  add\n  dup3\n  add\n  0x40\n  mstore\n  dup1\n  iszero\n  tag_36\n  jumpi\n  dup2\n  0x20\n  add\n  0x20\n  dup3\n  mul\n  dup1\n  calldatasize\n  dup4\n  calldatacopy\n  dup1\n  dup3\n  add\n  swap2\n  pop\n  pop\n  swap1\n  pop\ntag_36:\n  pop\n    /* \"tronbox/contracts/SmartGenie.sol\":3441:3451  userStruct */\n  dup2\n    /* \"tronbox/contracts/SmartGenie.sol\":3441:3468  userStruct.levelEligibility */\n  0x06\n  add\n    /* \"tronbox/contracts/SmartGenie.sol\":3441:3484  userStruct.levelEligibility = new uint[](0) */\n  swap1\n  dup1\n  mload\n  swap1\n  0x20\n  add\n  swap1\n  tag_37\n  swap3\n  swap2\n  swap1\n  tag_38\n  jump\t// in\ntag_37:\n  pop\n    /* \"tronbox/contracts/SmartGenie.sol\":3496:3506  currUserID */\n  0x0f\n  0x00\n    /* \"tronbox/contracts/SmartGenie.sol\":3496:3508  currUserID++ */\n  dup2\n  sload\n  dup1\n  swap3\n  swap2\n  swap1\n  tag_39\n  swap1\n  tag_40\n  jump\t// in\ntag_39:\n  swap2\n  swap1\n  pop\n  sstore\n  pop\n    /* \"tronbox/contracts/SmartGenie.sol\":3541:3552  adminWallet */\n  0x00\n  dup1\n  sload\n  swap1\n  0x0100\n  exp\n  swap1\n  div\n  0xffffffffffffffffffffffffffffffffffffffff\n  and\n    /* \"tronbox/contracts/SmartGenie.sol\":3518:3526  userList */\n  0x0b\n    /* \"tronbox/contracts/SmartGenie.sol\":3518:3538  userList[currUserID] */\n  0x00\n    /* \"tronbox/contracts/SmartGenie.sol\":3527:3537  currUserID */\n  sload(0x0f)\n    /* \"tronbox/contracts/SmartGenie.sol\":3518:3538  userList[currUserID] */\n  dup2\n  mstore\n  0x20\n  add\n  swap1\n  dup2\n  mstore\n  0x20\n  add\n  0x00\n  keccak256\n  0x00\n    /* \"tronbox/contracts/SmartGenie.sol\":3518:3552  userList[currUserID] = adminWallet */\n  0x0100\n  exp\n  dup2\n  sload\n  dup2\n  0xffffffffffffffffffffffffffffffffffffffff\n  mul\n  not\n  and\n  swap1\n  dup4\n  0xffffffffffffffffffffffffffffffffffffffff\n  and\n  mul\n  or\n  swap1\n  sstore\n  pop\n    /* \"tronbox/contracts/SmartGenie.sol\":2402:3559  {... */\n  pop\n    /* \"tronbox/contracts/SmartGenie.sol\":2214:3559  constructor(address _prWallet1, address _prWallet2, ... */\n  pop\n  pop\n  pop\n  pop\n  pop\n  pop\n  pop\n    /* \"tronbox/contracts/SmartGenie.sol\":124:27501  contract SmartGenie {... */\n  jump(tag_41)\ntag_2:\n  dup3\n  add(0x1f, 0x04)\n  0x20\n  swap1\n  div\n  dup2\n  add\n  swap3\n  dup3\n  iszero\n  tag_42\n  jumpi\n  swap2\n  0x20\n  mul\n  dup3\n  add\n  0x00\ntag_43:\n  dup4\n  dup3\n  gt\n  iszero\n  tag_44\n  jumpi\n  dup4\n  mload\n  dup4\n  dup3\n  0x0100\n  exp\n  dup2\n  sload\n  dup2\n  0xff\n  mul\n  not\n  and\n  swap1\n  dup4\n  0xff\n  and\n  mul\n  or\n  swap1\n  sstore\n  pop\n  swap3\n  0x20\n  add\n  swap3\n  0x01\n  add\n  0x20\n  dup2\n  0x00\n  add\n  div\n  swap3\n  dup4\n  add\n  swap3\n  0x01\n  sub\n  mul\n  jump(tag_43)\ntag_44:\n  dup1\n  iszero\n  tag_45\n  jumpi\n  dup3\n  dup2\n  0x0100\n  exp\n  dup2\n  sload\n  swap1\n  0xff\n  mul\n  not\n  and\n  swap1\n  sstore\n  0x01\n  add\n  0x20\n  dup2\n  0x00\n  add\n  div\n  swap3\n  dup4\n  add\n  swap3\n  0x01\n  sub\n  mul\n  jump(tag_44)\ntag_45:\n  pop\ntag_42:\n  pop\n  swap1\n  pop\n  tag_46\n  swap2\n  swap1\n  tag_47\n  jump\t// in\ntag_46:\n  pop\n  swap1\n  jump\t// out\ntag_17:\n  dup3\n  0x04\n  dup2\n  add\n  swap3\n  dup3\n  iszero\n  tag_48\n  jumpi\n  swap2\n  0x20\n  mul\n  dup3\n  add\ntag_49:\n  dup3\n  dup2\n  gt\n  iszero\n  tag_50\n  jumpi\n  dup3\n  mload\n  dup3\n  exp(0x0100, 0x00)\n  dup2\n  sload\n  dup2\n  0xffffffffffffffffffffffffffffffffffffffff\n  mul\n  not\n  and\n  swap1\n  dup4\n  0xffffffffffffffffffffffffffffffffffffffff\n  and\n  mul\n  or\n  swap1\n  sstore\n  pop\n  swap2\n  0x20\n  add\n  swap2\n  swap1\n  0x01\n  add\n  swap1\n  jump(tag_49)\ntag_50:\ntag_48:\n  pop\n  swap1\n  pop\n  tag_51\n  swap2\n  swap1\n  tag_47\n  jump\t// in\ntag_51:\n  pop\n  swap1\n  jump\t// out\ntag_33:\n  dup3\n  dup1\n  sload\n  dup3\n  dup3\n  sstore\n  swap1\n  0x00\n  mstore\n  keccak256(0x00, 0x20)\n  swap1\n  dup2\n  add\n  swap3\n  dup3\n  iszero\n  tag_52\n  jumpi\n  swap2\n  0x20\n  mul\n  dup3\n  add\ntag_53:\n  dup3\n  dup2\n  gt\n  iszero\n  tag_54\n  jumpi\n  dup3\n  mload\n  dup3\n  exp(0x0100, 0x00)\n  dup2\n  sload\n  dup2\n  0xffffffffffffffffffffffffffffffffffffffff\n  mul\n  not\n  and\n  swap1\n  dup4\n  0xffffffffffffffffffffffffffffffffffffffff\n  and\n  mul\n  or\n  swap1\n  sstore\n  pop\n  swap2\n  0x20\n  add\n  swap2\n  swap1\n  0x01\n  add\n  swap1\n  jump(tag_53)\ntag_54:\ntag_52:\n  pop\n  swap1\n  pop\n  tag_55\n  swap2\n  swap1\n  tag_47\n  jump\t// in\ntag_55:\n  pop\n  swap1\n  jump\t// out\ntag_38:\n  dup3\n  dup1\n  sload\n  dup3\n  dup3\n  sstore\n  swap1\n  0x00\n  mstore\n  keccak256(0x00, 0x20)\n  swap1\n  dup2\n  add\n  swap3\n  dup3\n  iszero\n  tag_56\n  jumpi\n  swap2\n  0x20\n  mul\n  dup3\n  add\ntag_57:\n  dup3\n  dup2\n  gt\n  iszero\n  tag_58\n  jumpi\n  dup3\n  mload\n  dup3\n  sstore\n  swap2\n  0x20\n  add\n  swap2\n  swap1\n  0x01\n  add\n  swap1\n  jump(tag_57)\ntag_58:\ntag_56:\n  pop\n  swap1\n  pop\n  tag_59\n  swap2\n  swap1\n  tag_47\n  jump\t// in\ntag_59:\n  pop\n  swap1\n  jump\t// out\ntag_47:\ntag_60:\n  dup1\n  dup3\n  gt\n  iszero\n  tag_61\n  jumpi\n  0x00\n  dup2\n  0x00\n  swap1\n  sstore\n  pop\n  0x01\n  add\n  jump(tag_60)\ntag_61:\n  pop\n  swap1\n  jump\t// out\n    /* \"#utility.yul\":7:84   */\ntag_62:\n    /* \"#utility.yul\":44:51   */\n  0x00\n    /* \"#utility.yul\":73:78   */\n  dup2\n    /* \"#utility.yul\":62:78   */\n  swap1\n  pop\n    /* \"#utility.yul\":7:84   */\n  swap2\n  swap1\n  pop\n  jump\t// out\n    /* \"#utility.yul\":90:270   */\ntag_63:\n    /* \"#utility.yul\":138:215   */\n  0x4e487b7100000000000000000000000000000000000000000000000000000000\n    /* \"#utility.yul\":135:136   */\n  0x00\n    /* \"#utility.yul\":128:216   */\n  mstore\n    /* \"#utility.yul\":235:239   */\n  0x11\n    /* \"#utility.yul\":232:233   */\n  0x04\n    /* \"#utility.yul\":225:240   */\n  mstore\n    /* \"#utility.yul\":259:263   */\n  0x24\n    /* \"#utility.yul\":256:257   */\n  0x00\n    /* \"#utility.yul\":249:264   */\n  revert\n    /* \"#utility.yul\":276:624   */\ntag_4:\n    /* \"#utility.yul\":316:323   */\n  0x00\n    /* \"#utility.yul\":339:359   */\n  tag_76\n    /* \"#utility.yul\":357:358   */\n  dup3\n    /* \"#utility.yul\":339:359   */\n  tag_62\n  jump\t// in\ntag_76:\n    /* \"#utility.yul\":334:359   */\n  swap2\n  pop\n    /* \"#utility.yul\":373:393   */\n  tag_77\n    /* \"#utility.yul\":391:392   */\n  dup4\n    /* \"#utility.yul\":373:393   */\n  tag_62\n  jump\t// in\ntag_77:\n    /* \"#utility.yul\":368:393   */\n  swap3\n  pop\n    /* \"#utility.yul\":561:562   */\n  dup2\n    /* \"#utility.yul\":493:559   */\n  0xffffffffffffffffffffffffffffffffffffffffffffffffffffffffffffffff\n    /* \"#utility.yul\":489:563   */\n  div\n    /* \"#utility.yul\":486:487   */\n  dup4\n    /* \"#utility.yul\":483:564   */\n  gt\n    /* \"#utility.yul\":478:479   */\n  dup3\n    /* \"#utility.yul\":471:480   */\n  iszero\n    /* \"#utility.yul\":464:481   */\n  iszero\n    /* \"#utility.yul\":460:565   */\n  and\n    /* \"#utility.yul\":457:588   */\n  iszero\n  tag_78\n  jumpi\n    /* \"#utility.yul\":568:586   */\n  tag_79\n  tag_63\n  jump\t// in\ntag_79:\n    /* \"#utility.yul\":457:588   */\ntag_78:\n    /* \"#utility.yul\":616:617   */\n  dup3\n    /* \"#utility.yul\":613:614   */\n  dup3\n    /* \"#utility.yul\":609:618   */\n  mul\n    /* \"#utility.yul\":598:618   */\n  swap1\n  pop\n    /* \"#utility.yul\":276:624   */\n  swap3\n  swap2\n  pop\n  pop\n  jump\t// out\n    /* \"#utility.yul\":630:810   */\ntag_64:\n    /* \"#utility.yul\":678:755   */\n  0x4e487b7100000000000000000000000000000000000000000000000000000000\n    /* \"#utility.yul\":675:676   */\n  0x00\n    /* \"#utility.yul\":668:756   */\n  mstore\n    /* \"#utility.yul\":775:779   */\n  0x12\n    /* \"#utility.yul\":772:773   */\n  0x04\n    /* \"#utility.yul\":765:780   */\n  mstore\n    /* \"#utility.yul\":799:803   */\n  0x24\n    /* \"#utility.yul\":796:797   */\n  0x00\n    /* \"#utility.yul\":789:804   */\n  revert\n    /* \"#utility.yul\":816:1001   */\ntag_6:\n    /* \"#utility.yul\":856:857   */\n  0x00\n    /* \"#utility.yul\":873:893   */\n  tag_82\n    /* \"#utility.yul\":891:892   */\n  dup3\n    /* \"#utility.yul\":873:893   */\n  tag_62\n  jump\t// in\ntag_82:\n    /* \"#utility.yul\":868:893   */\n  swap2\n  pop\n    /* \"#utility.yul\":907:927   */\n  tag_83\n    /* \"#utility.yul\":925:926   */\n  dup4\n    /* \"#utility.yul\":907:927   */\n  tag_62\n  jump\t// in\ntag_83:\n    /* \"#utility.yul\":902:927   */\n  swap3\n  pop\n    /* \"#utility.yul\":946:947   */\n  dup3\n    /* \"#utility.yul\":936:971   */\n  tag_84\n  jumpi\n    /* \"#utility.yul\":951:969   */\n  tag_85\n  tag_64\n  jump\t// in\ntag_85:\n    /* \"#utility.yul\":936:971   */\ntag_84:\n    /* \"#utility.yul\":993:994   */\n  dup3\n    /* \"#utility.yul\":990:991   */\n  dup3\n    /* \"#utility.yul\":986:995   */\n  div\n    /* \"#utility.yul\":981:995   */\n  swap1\n  pop\n    /* \"#utility.yul\":816:1001   */\n  swap3\n  swap2\n  pop\n  pop\n  jump\t// out\n    /* \"#utility.yul\":1088:1205   */\ntag_66:\n    /* \"#utility.yul\":1197:1198   */\n  0x00\n    /* \"#utility.yul\":1194:1195   */\n  dup1\n    /* \"#utility.yul\":1187:1199   */\n  revert\n    /* \"#utility.yul\":1334:1460   */\ntag_68:\n    /* \"#utility.yul\":1371:1378   */\n  0x00\n    /* \"#utility.yul\":1411:1453   */\n  0xffffffffffffffffffffffffffffffffffffffff\n    /* \"#utility.yul\":1404:1409   */\n  dup3\n    /* \"#utility.yul\":1400:1454   */\n  and\n    /* \"#utility.yul\":1389:1454   */\n  swap1\n  pop\n    /* \"#utility.yul\":1334:1460   */\n  swap2\n  swap1\n  pop\n  jump\t// out\n    /* \"#utility.yul\":1466:1562   */\ntag_69:\n    /* \"#utility.yul\":1503:1510   */\n  0x00\n    /* \"#utility.yul\":1532:1556   */\n  tag_91\n    /* \"#utility.yul\":1550:1555   */\n  dup3\n    /* \"#utility.yul\":1532:1556   */\n  tag_68\n  jump\t// in\ntag_91:\n    /* \"#utility.yul\":1521:1556   */\n  swap1\n  pop\n    /* \"#utility.yul\":1466:1562   */\n  swap2\n  swap1\n  pop\n  jump\t// out\n    /* \"#utility.yul\":1568:1690   */\ntag_70:\n    /* \"#utility.yul\":1641:1665   */\n  tag_93\n    /* \"#utility.yul\":1659:1664   */\n  dup2\n    /* \"#utility.yul\":1641:1665   */\n  tag_69\n  jump\t// in\ntag_93:\n    /* \"#utility.yul\":1634:1639   */\n  dup2\n    /* \"#utility.yul\":1631:1666   */\n  eq\n    /* \"#utility.yul\":1621:1684   */\n  tag_94\n  jumpi\n    /* \"#utility.yul\":1680:1681   */\n  0x00\n    /* \"#utility.yul\":1677:1678   */\n  dup1\n    /* \"#utility.yul\":1670:1682   */\n  revert\n    /* \"#utility.yul\":1621:1684   */\ntag_94:\n    /* \"#utility.yul\":1568:1690   */\n  pop\n  jump\t// out\n    /* \"#utility.yul\":1696:1839   */\ntag_71:\n    /* \"#utility.yul\":1753:1758   */\n  0x00\n    /* \"#utility.yul\":1784:1790   */\n  dup2\n    /* \"#utility.yul\":1778:1791   */\n  mload\n    /* \"#utility.yul\":1769:1791   */\n  swap1\n  pop\n    /* \"#utility.yul\":1800:1833   */\n  tag_96\n    /* \"#utility.yul\":1827:1832   */\n  dup2\n    /* \"#utility.yul\":1800:1833   */\n  tag_70\n  jump\t// in\ntag_96:\n    /* \"#utility.yul\":1696:1839   */\n  swap3\n  swap2\n  pop\n  pop\n  jump\t// out\n    /* \"#utility.yul\":1845:3136   */\ntag_13:\n    /* \"#utility.yul\":1969:1975   */\n  0x00\n    /* \"#utility.yul\":1977:1983   */\n  dup1\n    /* \"#utility.yul\":1985:1991   */\n  0x00\n    /* \"#utility.yul\":1993:1999   */\n  dup1\n    /* \"#utility.yul\":2001:2007   */\n  0x00\n    /* \"#utility.yul\":2009:2015   */\n  dup1\n    /* \"#utility.yul\":2017:2023   */\n  0x00\n    /* \"#utility.yul\":2066:2069   */\n  0xe0\n    /* \"#utility.yul\":2054:2063   */\n  dup9\n    /* \"#utility.yul\":2045:2052   */\n  dup11\n    /* \"#utility.yul\":2041:2064   */\n  sub\n    /* \"#utility.yul\":2037:2070   */\n  slt\n    /* \"#utility.yul\":2034:2154   */\n  iszero\n  tag_98\n  jumpi\n    /* \"#utility.yul\":2073:2152   */\n  tag_99\n  tag_66\n  jump\t// in\ntag_99:\n    /* \"#utility.yul\":2034:2154   */\ntag_98:\n    /* \"#utility.yul\":2193:2194   */\n  0x00\n    /* \"#utility.yul\":2218:2282   */\n  tag_100\n    /* \"#utility.yul\":2274:2281   */\n  dup11\n    /* \"#utility.yul\":2265:2271   */\n  dup3\n    /* \"#utility.yul\":2254:2263   */\n  dup12\n    /* \"#utility.yul\":2250:2272   */\n  add\n    /* \"#utility.yul\":2218:2282   */\n  tag_71\n  jump\t// in\ntag_100:\n    /* \"#utility.yul\":2208:2282   */\n  swap8\n  pop\n    /* \"#utility.yul\":2164:2292   */\n  pop\n    /* \"#utility.yul\":2331:2333   */\n  0x20\n    /* \"#utility.yul\":2357:2421   */\n  tag_101\n    /* \"#utility.yul\":2413:2420   */\n  dup11\n    /* \"#utility.yul\":2404:2410   */\n  dup3\n    /* \"#utility.yul\":2393:2402   */\n  dup12\n    /* \"#utility.yul\":2389:2411   */\n  add\n    /* \"#utility.yul\":2357:2421   */\n  tag_71\n  jump\t// in\ntag_101:\n    /* \"#utility.yul\":2347:2421   */\n  swap7\n  pop\n    /* \"#utility.yul\":2302:2431   */\n  pop\n    /* \"#utility.yul\":2470:2472   */\n  0x40\n    /* \"#utility.yul\":2496:2560   */\n  tag_102\n    /* \"#utility.yul\":2552:2559   */\n  dup11\n    /* \"#utility.yul\":2543:2549   */\n  dup3\n    /* \"#utility.yul\":2532:2541   */\n  dup12\n    /* \"#utility.yul\":2528:2550   */\n  add\n    /* \"#utility.yul\":2496:2560   */\n  tag_71\n  jump\t// in\ntag_102:\n    /* \"#utility.yul\":2486:2560   */\n  swap6\n  pop\n    /* \"#utility.yul\":2441:2570   */\n  pop\n    /* \"#utility.yul\":2609:2611   */\n  0x60\n    /* \"#utility.yul\":2635:2699   */\n  tag_103\n    /* \"#utility.yul\":2691:2698   */\n  dup11\n    /* \"#utility.yul\":2682:2688   */\n  dup3\n    /* \"#utility.yul\":2671:2680   */\n  dup12\n    /* \"#utility.yul\":2667:2689   */\n  add\n    /* \"#utility.yul\":2635:2699   */\n  tag_71\n  jump\t// in\ntag_103:\n    /* \"#utility.yul\":2625:2699   */\n  swap5\n  pop\n    /* \"#utility.yul\":2580:2709   */\n  pop\n    /* \"#utility.yul\":2748:2751   */\n  0x80\n    /* \"#utility.yul\":2775:2839   */\n  tag_104\n    /* \"#utility.yul\":2831:2838   */\n  dup11\n    /* \"#utility.yul\":2822:2828   */\n  dup3\n    /* \"#utility.yul\":2811:2820   */\n  dup12\n    /* \"#utility.yul\":2807:2829   */\n  add\n    /* \"#utility.yul\":2775:2839   */\n  tag_71\n  jump\t// in\ntag_104:\n    /* \"#utility.yul\":2765:2839   */\n  swap4\n  pop\n    /* \"#utility.yul\":2719:2849   */\n  pop\n    /* \"#utility.yul\":2888:2891   */\n  0xa0\n    /* \"#utility.yul\":2915:2979   */\n  tag_105\n    /* \"#utility.yul\":2971:2978   */\n  dup11\n    /* \"#utility.yul\":2962:2968   */\n  dup3\n    /* \"#utility.yul\":2951:2960   */\n  dup12\n    /* \"#utility.yul\":2947:2969   */\n  add\n    /* \"#utility.yul\":2915:2979   */\n  tag_71\n  jump\t// in\ntag_105:\n    /* \"#utility.yul\":2905:2979   */\n  swap3\n  pop\n    /* \"#utility.yul\":2859:2989   */\n  pop\n    /* \"#utility.yul\":3028:3031   */\n  0xc0\n    /* \"#utility.yul\":3055:3119   */\n  tag_106\n    /* \"#utility.yul\":3111:3118   */\n  dup11\n    /* \"#utility.yul\":3102:3108   */\n  dup3\n    /* \"#utility.yul\":3091:3100   */\n  dup12\n    /* \"#utility.yul\":3087:3109   */\n  add\n    /* \"#utility.yul\":3055:3119   */\n  tag_71\n  jump\t// in\ntag_106:\n    /* \"#utility.yul\":3045:3119   */\n  swap2\n  pop\n    /* \"#utility.yul\":2999:3129   */\n  pop\n    /* \"#utility.yul\":1845:3136   */\n  swap3\n  swap6\n  swap9\n  swap2\n  swap5\n  swap8\n  pop\n  swap3\n  swap6\n  pop\n  jump\t// out\n    /* \"#utility.yul\":3142:3322   */\ntag_30:\n    /* \"#utility.yul\":3190:3267   */\n  0x4e487b7100000000000000000000000000000000000000000000000000000000\n    /* \"#utility.yul\":3187:3188   */\n  0x00\n    /* \"#utility.yul\":3180:3268   */\n  mstore\n    /* \"#utility.yul\":3287:3291   */\n  0x41\n    /* \"#utility.yul\":3284:3285   */\n  0x04\n    /* \"#utility.yul\":3277:3292   */\n  mstore\n    /* \"#utility.yul\":3311:3315   */\n  0x24\n    /* \"#utility.yul\":3308:3309   */\n  0x00\n    /* \"#utility.yul\":3301:3316   */\n  revert\n    /* \"#utility.yul\":3328:3561   */\ntag_40:\n    /* \"#utility.yul\":3367:3370   */\n  0x00\n    /* \"#utility.yul\":3390:3414   */\n  tag_109\n    /* \"#utility.yul\":3408:3413   */\n  dup3\n    /* \"#utility.yul\":3390:3414   */\n  tag_62\n  jump\t// in\ntag_109:\n    /* \"#utility.yul\":3381:3414   */\n  swap2\n  pop\n    /* \"#utility.yul\":3436:3502   */\n  0xffffffffffffffffffffffffffffffffffffffffffffffffffffffffffffffff\n    /* \"#utility.yul\":3429:3434   */\n  dup3\n    /* \"#utility.yul\":3426:3503   */\n  eq\n    /* \"#utility.yul\":3423:3526   */\n  iszero\n  tag_110\n  jumpi\n    /* \"#utility.yul\":3506:3524   */\n  tag_111\n  tag_63\n  jump\t// in\ntag_111:\n    /* \"#utility.yul\":3423:3526   */\ntag_110:\n    /* \"#utility.yul\":3553:3554   */\n  0x01\n    /* \"#utility.yul\":3546:3551   */\n  dup3\n    /* \"#utility.yul\":3542:3555   */\n  add\n    /* \"#utility.yul\":3535:3555   */\n  swap1\n  pop\n    /* \"#utility.yul\":3328:3561   */\n  swap2\n  swap1\n  pop\n  jump\t// out\n    /* \"tronbox/contracts/SmartGenie.sol\":124:27501  contract SmartGenie {... */\ntag_41:\n  dataSize(sub_0)\n  dup1\n  dataOffset(sub_0)\n  0x00\n  codecopy\n  0x00\n  return\nstop\n\nsub_0: assembly {\n        /* \"tronbox/contracts/SmartGenie.sol\":124:27501  contract SmartGenie {... */\n      mstore(0x40, 0x80)\n      jumpi(tag_1, lt(calldatasize, 0x04))\n      shr(0xe0, calldataload(0x00))\n      dup1\n      0x992c85d2\n      gt\n      tag_24\n      jumpi\n      dup1\n      0xa87430ba\n      gt\n      tag_25\n      jumpi\n      dup1\n      0xa87430ba\n      eq\n      tag_18\n      jumpi\n      dup1\n      0xaa24c5c5\n      eq\n      tag_19\n      jumpi\n      dup1\n      0xbbf57068\n      eq\n      tag_20\n      jumpi\n      dup1\n      0xc15dec85\n      eq\n      tag_21\n      jumpi\n      dup1\n      0xf7bbfccd\n      eq\n      tag_22\n      jumpi\n      dup1\n      0xfb75b2c7\n      eq\n      tag_23\n      jumpi\n      jump(tag_1)\n    tag_25:\n      dup1\n      0x992c85d2\n      eq\n      tag_13\n      jumpi\n      dup1\n      0x99cbd74f\n      eq\n      tag_14\n      jumpi\n      dup1\n      0x9f4216e8\n      eq\n      tag_15\n      jumpi\n      dup1\n      0xa457c050\n      eq\n      tag_16\n      jumpi\n      dup1\n      0xa4bb170d\n      eq\n      tag_17\n      jumpi\n      jump(tag_1)\n    tag_24:\n      dup1\n      0x5e8a7069\n      gt\n      tag_26\n      jumpi\n      dup1\n      0x5e8a7069\n      eq\n      tag_7\n      jumpi\n      dup1\n      0x6043ddad\n      eq\n      tag_8\n      jumpi\n      dup1\n      0x6158fa00\n      eq\n      tag_9\n      jumpi\n      dup1\n      0x6f9fb98a\n      eq\n      tag_10\n      jumpi\n      dup1\n      0x79378e30\n      eq\n      tag_11\n      jumpi\n      dup1\n      0x8853b53e\n      eq\n      tag_12\n      jumpi\n      jump(tag_1)\n    tag_26:\n      dup1\n      0x10e4077a\n      eq\n      tag_2\n      jumpi\n      dup1\n      0x36b19cd7\n      eq\n      tag_3\n      jumpi\n      dup1\n      0x43f6753c\n      eq\n      tag_4\n      jumpi\n      dup1\n      0x4d948bea\n      eq\n      tag_5\n      jumpi\n      dup1\n      0x575cea6b\n      eq\n      tag_6\n      jumpi\n    tag_1:\n      0x00\n      dup1\n      revert\n        /* \"tronbox/contracts/SmartGenie.sol\":983:1017  address[4] public promotionWallets */\n    tag_2:\n      callvalue\n      dup1\n      iszero\n      tag_27\n      jumpi\n      0x00\n      dup1\n      revert\n    tag_27:\n      pop\n      tag_28\n      0x04\n      dup1\n      calldatasize\n      sub\n      dup2\n      add\n      swap1\n      tag_29\n      swap2\n      swap1\n      tag_30\n      jump\t// in\n    tag_29:\n      tag_31\n      jump\t// in\n    tag_28:\n      mload(0x40)\n      tag_32\n      swap2\n      swap1\n      tag_33\n      jump\t// in\n    tag_32:\n      mload(0x40)\n      dup1\n      swap2\n      sub\n      swap1\n      return\n        /* \"tronbox/contracts/SmartGenie.sol\":632:658  address public adminWallet */\n    tag_3:\n      callvalue\n      dup1\n      iszero\n      tag_34\n      jumpi\n      0x00\n      dup1\n      revert\n    tag_34:\n      pop\n      tag_35\n      tag_36\n      jump\t// in\n    tag_35:\n      mload(0x40)\n      tag_37\n      swap2\n      swap1\n      tag_33\n      jump\t// in\n    tag_37:\n      mload(0x40)\n      dup1\n      swap2\n      sub\n      swap1\n      return\n        /* \"tronbox/contracts/SmartGenie.sol\":1295:1370  mapping(uint256 => mapping(address => address)) public levelUpgradePayments */\n    tag_4:\n      callvalue\n      dup1\n      iszero\n      tag_38\n      jumpi\n      0x00\n      dup1\n      revert\n    tag_38:\n      pop\n      tag_39\n      0x04\n      dup1\n      calldatasize\n      sub\n      dup2\n      add\n      swap1\n      tag_40\n      swap2\n      swap1\n      tag_41\n      jump\t// in\n    tag_40:\n      tag_42\n      jump\t// in\n    tag_39:\n      mload(0x40)\n      tag_43\n      swap2\n      swap1\n      tag_33\n      jump\t// in\n    tag_43:\n      mload(0x40)\n      dup1\n      swap2\n      sub\n      swap1\n      return\n        /* \"tronbox/contracts/SmartGenie.sol\":1376:1453  mapping(uint256 => mapping(address => bool)) public isLevelUpgradedForAddress */\n    tag_5:\n      callvalue\n      dup1\n      iszero\n      tag_44\n      jumpi\n      0x00\n      dup1\n      revert\n    tag_44:\n      pop\n      tag_45\n      0x04\n      dup1\n      calldatasize\n      sub\n      dup2\n      add\n      swap1\n      tag_46\n      swap2\n      swap1\n      tag_41\n      jump\t// in\n    tag_46:\n      tag_47\n      jump\t// in\n    tag_45:\n      mload(0x40)\n      tag_48\n      swap2\n      swap1\n      tag_49\n      jump\t// in\n    tag_48:\n      mload(0x40)\n      dup1\n      swap2\n      sub\n      swap1\n      return\n        /* \"tronbox/contracts/SmartGenie.sol\":27169:27293  function getUserReferrals(address _user) public view returns(address[] memory) {... */\n    tag_6:\n      callvalue\n      dup1\n      iszero\n      tag_50\n      jumpi\n      0x00\n      dup1\n      revert\n    tag_50:\n      pop\n      tag_51\n      0x04\n      dup1\n      calldatasize\n      sub\n      dup2\n      add\n      swap1\n      tag_52\n      swap2\n      swap1\n      tag_53\n      jump\t// in\n    tag_52:\n      tag_54\n      jump\t// in\n    tag_51:\n      mload(0x40)\n      tag_55\n      swap2\n      swap1\n      tag_56\n      jump\t// in\n    tag_55:\n      mload(0x40)\n      dup1\n      swap2\n      sub\n      swap1\n      return\n        /* \"tronbox/contracts/SmartGenie.sol\":25895:26275  function transferURS() public returns (bool) {... */\n    tag_7:\n      callvalue\n      dup1\n      iszero\n      tag_57\n      jumpi\n      0x00\n      dup1\n      revert\n    tag_57:\n      pop\n      tag_58\n      tag_59\n      jump\t// in\n    tag_58:\n      mload(0x40)\n      tag_60\n      swap2\n      swap1\n      tag_49\n      jump\t// in\n    tag_60:\n      mload(0x40)\n      dup1\n      swap2\n      sub\n      swap1\n      return\n        /* \"tronbox/contracts/SmartGenie.sol\":1023:1070  uint8[4] public promotionPercantage = [2,1,1,1] */\n    tag_8:\n      callvalue\n      dup1\n      iszero\n      tag_61\n      jumpi\n      0x00\n      dup1\n      revert\n    tag_61:\n      pop\n      tag_62\n      0x04\n      dup1\n      calldatasize\n      sub\n      dup2\n      add\n      swap1\n      tag_63\n      swap2\n      swap1\n      tag_30\n      jump\t// in\n    tag_63:\n      tag_64\n      jump\t// in\n    tag_62:\n      mload(0x40)\n      tag_65\n      swap2\n      swap1\n      tag_66\n      jump\t// in\n    tag_65:\n      mload(0x40)\n      dup1\n      swap2\n      sub\n      swap1\n      return\n        /* \"tronbox/contracts/SmartGenie.sol\":26993:27132  function getUserLevelEligibility(address _user) public view returns(uint256[] memory) {... */\n    tag_9:\n      callvalue\n      dup1\n      iszero\n      tag_67\n      jumpi\n      0x00\n      dup1\n      revert\n    tag_67:\n      pop\n      tag_68\n      0x04\n      dup1\n      calldatasize\n      sub\n      dup2\n      add\n      swap1\n      tag_69\n      swap2\n      swap1\n      tag_53\n      jump\t// in\n    tag_69:\n      tag_70\n      jump\t// in\n    tag_68:\n      mload(0x40)\n      tag_71\n      swap2\n      swap1\n      tag_72\n      jump\t// in\n    tag_71:\n      mload(0x40)\n      dup1\n      swap2\n      sub\n      swap1\n      return\n        /* \"tronbox/contracts/SmartGenie.sol\":26828:26940  function getContractBalance() public view returns(uint256) {... */\n    tag_10:\n      callvalue\n      dup1\n      iszero\n      tag_73\n      jumpi\n      0x00\n      dup1\n      revert\n    tag_73:\n      pop\n      tag_74\n      tag_75\n      jump\t// in\n    tag_74:\n      mload(0x40)\n      tag_76\n      swap2\n      swap1\n      tag_77\n      jump\t// in\n    tag_76:\n      mload(0x40)\n      dup1\n      swap2\n      sub\n      swap1\n      return\n        /* \"tronbox/contracts/SmartGenie.sol\":1081:1121  mapping(uint => uint) public LEVEL_PRICE */\n    tag_11:\n      callvalue\n      dup1\n      iszero\n      tag_78\n      jumpi\n      0x00\n      dup1\n      revert\n    tag_78:\n      pop\n      tag_79\n      0x04\n      dup1\n      calldatasize\n      sub\n      dup2\n      add\n      swap1\n      tag_80\n      swap2\n      swap1\n      tag_30\n      jump\t// in\n    tag_80:\n      tag_81\n      jump\t// in\n    tag_79:\n      mload(0x40)\n      tag_82\n      swap2\n      swap1\n      tag_77\n      jump\t// in\n    tag_82:\n      mload(0x40)\n      dup1\n      swap2\n      sub\n      swap1\n      return\n        /* \"tronbox/contracts/SmartGenie.sol\":3619:5948  function regUser(uint _referrerID) public payable returns (bool) {... */\n    tag_12:\n      tag_83\n      0x04\n      dup1\n      calldatasize\n      sub\n      dup2\n      add\n      swap1\n      tag_84\n      swap2\n      swap1\n      tag_30\n      jump\t// in\n    tag_84:\n      tag_85\n      jump\t// in\n    tag_83:\n      mload(0x40)\n      tag_86\n      swap2\n      swap1\n      tag_49\n      jump\t// in\n    tag_86:\n      mload(0x40)\n      dup1\n      swap2\n      sub\n      swap1\n      return\n        /* \"tronbox/contracts/SmartGenie.sol\":694:723  address public splPromoWallet */\n    tag_13:\n      callvalue\n      dup1\n      iszero\n      tag_87\n      jumpi\n      0x00\n      dup1\n      revert\n    tag_87:\n      pop\n      tag_88\n      tag_89\n      jump\t// in\n    tag_88:\n      mload(0x40)\n      tag_90\n      swap2\n      swap1\n      tag_33\n      jump\t// in\n    tag_90:\n      mload(0x40)\n      dup1\n      swap2\n      sub\n      swap1\n      return\n        /* \"tronbox/contracts/SmartGenie.sol\":24612:25396  function withdrawPromotion() public returns (bool) {... */\n    tag_14:\n      callvalue\n      dup1\n      iszero\n      tag_91\n      jumpi\n      0x00\n      dup1\n      revert\n    tag_91:\n      pop\n      tag_92\n      tag_93\n      jump\t// in\n    tag_92:\n      mload(0x40)\n      tag_94\n      swap2\n      swap1\n      tag_49\n      jump\t// in\n    tag_94:\n      mload(0x40)\n      dup1\n      swap2\n      sub\n      swap1\n      return\n        /* \"tronbox/contracts/SmartGenie.sol\":1176:1216  mapping(uint => address) public userList */\n    tag_15:\n      callvalue\n      dup1\n      iszero\n      tag_95\n      jumpi\n      0x00\n      dup1\n      revert\n    tag_95:\n      pop\n      tag_96\n      0x04\n      dup1\n      calldatasize\n      sub\n      dup2\n      add\n      swap1\n      tag_97\n      swap2\n      swap1\n      tag_30\n      jump\t// in\n    tag_97:\n      tag_98\n      jump\t// in\n    tag_96:\n      mload(0x40)\n      tag_99\n      swap2\n      swap1\n      tag_33\n      jump\t// in\n    tag_99:\n      mload(0x40)\n      dup1\n      swap2\n      sub\n      swap1\n      return\n        /* \"tronbox/contracts/SmartGenie.sol\":25446:25858  function withdrawSplPromotion() public returns (bool) {... */\n    tag_16:\n      callvalue\n      dup1\n      iszero\n      tag_100\n      jumpi\n      0x00\n      dup1\n      revert\n    tag_100:\n      pop\n      tag_101\n      tag_102\n      jump\t// in\n    tag_101:\n      mload(0x40)\n      tag_103\n      swap2\n      swap1\n      tag_49\n      jump\t// in\n    tag_103:\n      mload(0x40)\n      dup1\n      swap2\n      sub\n      swap1\n      return\n        /* \"tronbox/contracts/SmartGenie.sol\":1464:1490  uint public currUserID = 0 */\n    tag_17:\n      callvalue\n      dup1\n      iszero\n      tag_104\n      jumpi\n      0x00\n      dup1\n      revert\n    tag_104:\n      pop\n      tag_105\n      tag_106\n      jump\t// in\n    tag_105:\n      mload(0x40)\n      tag_107\n      swap2\n      swap1\n      tag_77\n      jump\t// in\n    tag_107:\n      mload(0x40)\n      dup1\n      swap2\n      sub\n      swap1\n      return\n        /* \"tronbox/contracts/SmartGenie.sol\":1127:1170  mapping(address => UserStruct) public users */\n    tag_18:\n      callvalue\n      dup1\n      iszero\n      tag_108\n      jumpi\n      0x00\n      dup1\n      revert\n    tag_108:\n      pop\n      tag_109\n      0x04\n      dup1\n      calldatasize\n      sub\n      dup2\n      add\n      swap1\n      tag_110\n      swap2\n      swap1\n      tag_53\n      jump\t// in\n    tag_110:\n      tag_111\n      jump\t// in\n    tag_109:\n      mload(0x40)\n      tag_112\n      swap5\n      swap4\n      swap3\n      swap2\n      swap1\n      tag_113\n      jump\t// in\n    tag_112:\n      mload(0x40)\n      dup1\n      swap2\n      sub\n      swap1\n      return\n        /* \"tronbox/contracts/SmartGenie.sol\":27349:27493  function getUserIncomeCount(address _user, uint256 _level) public view returns(uint256) {... */\n    tag_19:\n      callvalue\n      dup1\n      iszero\n      tag_114\n      jumpi\n      0x00\n      dup1\n      revert\n    tag_114:\n      pop\n      tag_115\n      0x04\n      dup1\n      calldatasize\n      sub\n      dup2\n      add\n      swap1\n      tag_116\n      swap2\n      swap1\n      tag_117\n      jump\t// in\n    tag_116:\n      tag_118\n      jump\t// in\n    tag_115:\n      mload(0x40)\n      tag_119\n      swap2\n      swap1\n      tag_77\n      jump\t// in\n    tag_119:\n      mload(0x40)\n      dup1\n      swap2\n      sub\n      swap1\n      return\n        /* \"tronbox/contracts/SmartGenie.sol\":1222:1289  mapping(uint256 => mapping(address => uint256)) public levelCounter */\n    tag_20:\n      callvalue\n      dup1\n      iszero\n      tag_120\n      jumpi\n      0x00\n      dup1\n      revert\n    tag_120:\n      pop\n      tag_121\n      0x04\n      dup1\n      calldatasize\n      sub\n      dup2\n      add\n      swap1\n      tag_122\n      swap2\n      swap1\n      tag_41\n      jump\t// in\n    tag_122:\n      tag_123\n      jump\t// in\n    tag_121:\n      mload(0x40)\n      tag_124\n      swap2\n      swap1\n      tag_77\n      jump\t// in\n    tag_124:\n      mload(0x40)\n      dup1\n      swap2\n      sub\n      swap1\n      return\n        /* \"tronbox/contracts/SmartGenie.sol\":664:688  address public ursWallet */\n    tag_21:\n      callvalue\n      dup1\n      iszero\n      tag_125\n      jumpi\n      0x00\n      dup1\n      revert\n    tag_125:\n      pop\n      tag_126\n      tag_127\n      jump\t// in\n    tag_126:\n      mload(0x40)\n      tag_128\n      swap2\n      swap1\n      tag_33\n      jump\t// in\n    tag_128:\n      mload(0x40)\n      dup1\n      swap2\n      sub\n      swap1\n      return\n        /* \"tronbox/contracts/SmartGenie.sol\":26361:26785  function updatePromotionWallet(address walletAddr, uint index) onlyAdmin public {... */\n    tag_22:\n      callvalue\n      dup1\n      iszero\n      tag_129\n      jumpi\n      0x00\n      dup1\n      revert\n    tag_129:\n      pop\n      tag_130\n      0x04\n      dup1\n      calldatasize\n      sub\n      dup2\n      add\n      swap1\n      tag_131\n      swap2\n      swap1\n      tag_117\n      jump\t// in\n    tag_131:\n      tag_132\n      jump\t// in\n    tag_130:\n      stop\n        /* \"tronbox/contracts/SmartGenie.sol\":729:756  address public rewardWallet */\n    tag_23:\n      callvalue\n      dup1\n      iszero\n      tag_133\n      jumpi\n      0x00\n      dup1\n      revert\n    tag_133:\n      pop\n      tag_134\n      tag_135\n      jump\t// in\n    tag_134:\n      mload(0x40)\n      tag_136\n      swap2\n      swap1\n      tag_33\n      jump\t// in\n    tag_136:\n      mload(0x40)\n      dup1\n      swap2\n      sub\n      swap1\n      return\n        /* \"tronbox/contracts/SmartGenie.sol\":983:1017  address[4] public promotionWallets */\n    tag_31:\n      0x04\n      dup2\n      0x04\n      dup2\n      lt\n      tag_137\n      jumpi\n      0x00\n      dup1\n      revert\n    tag_137:\n      add\n      0x00\n      swap2\n      pop\n      sload\n      swap1\n      0x0100\n      exp\n      swap1\n      div\n      0xffffffffffffffffffffffffffffffffffffffff\n      and\n      dup2\n      jump\t// out\n        /* \"tronbox/contracts/SmartGenie.sol\":632:658  address public adminWallet */\n    tag_36:\n      0x00\n      dup1\n      sload\n      swap1\n      0x0100\n      exp\n      swap1\n      div\n      0xffffffffffffffffffffffffffffffffffffffff\n      and\n      dup2\n      jump\t// out\n        /* \"tronbox/contracts/SmartGenie.sol\":1295:1370  mapping(uint256 => mapping(address => address)) public levelUpgradePayments */\n    tag_42:\n      mstore(0x20, 0x0d)\n      dup2\n      0x00\n      mstore\n      mstore(0x20, keccak256(0x00, 0x40))\n      dup1\n      0x00\n      mstore\n      keccak256(0x00, 0x40)\n      0x00\n      swap2\n      pop\n      swap2\n      pop\n      swap1\n      sload\n      swap1\n      0x0100\n      exp\n      swap1\n      div\n      0xffffffffffffffffffffffffffffffffffffffff\n      and\n      dup2\n      jump\t// out\n        /* \"tronbox/contracts/SmartGenie.sol\":1376:1453  mapping(uint256 => mapping(address => bool)) public isLevelUpgradedForAddress */\n    tag_47:\n      mstore(0x20, 0x0e)\n      dup2\n      0x00\n      mstore\n      mstore(0x20, keccak256(0x00, 0x40))\n      dup1\n      0x00\n      mstore\n      keccak256(0x00, 0x40)\n      0x00\n      swap2\n      pop\n      swap2\n      pop\n      swap1\n      sload\n      swap1\n      0x0100\n      exp\n      swap1\n      div\n      0xff\n      and\n      dup2\n      jump\t// out\n        /* \"tronbox/contracts/SmartGenie.sol\":27169:27293  function getUserReferrals(address _user) public view returns(address[] memory) {... */\n    tag_54:\n        /* \"tronbox/contracts/SmartGenie.sol\":27230:27246  address[] memory */\n      0x60\n        /* \"tronbox/contracts/SmartGenie.sol\":27265:27270  users */\n      0x0a\n        /* \"tronbox/contracts/SmartGenie.sol\":27265:27277  users[_user] */\n      0x00\n        /* \"tronbox/contracts/SmartGenie.sol\":27271:27276  _user */\n      dup4\n        /* \"tronbox/contracts/SmartGenie.sol\":27265:27277  users[_user] */\n      0xffffffffffffffffffffffffffffffffffffffff\n      and\n      0xffffffffffffffffffffffffffffffffffffffff\n      and\n      dup2\n      mstore\n      0x20\n      add\n      swap1\n      dup2\n      mstore\n      0x20\n      add\n      0x00\n      keccak256\n        /* \"tronbox/contracts/SmartGenie.sol\":27265:27286  users[_user].referral */\n      0x03\n      add\n        /* \"tronbox/contracts/SmartGenie.sol\":27258:27286  return users[_user].referral */\n      dup1\n      sload\n      dup1\n      0x20\n      mul\n      0x20\n      add\n      mload(0x40)\n      swap1\n      dup2\n      add\n      0x40\n      mstore\n      dup1\n      swap3\n      swap2\n      swap1\n      dup2\n      dup2\n      mstore\n      0x20\n      add\n      dup3\n      dup1\n      sload\n      dup1\n      iszero\n      tag_140\n      jumpi\n      0x20\n      mul\n      dup3\n      add\n      swap2\n      swap1\n      0x00\n      mstore\n      keccak256(0x00, 0x20)\n      swap1\n    tag_141:\n      dup2\n      0x00\n      swap1\n      sload\n      swap1\n      0x0100\n      exp\n      swap1\n      div\n      0xffffffffffffffffffffffffffffffffffffffff\n      and\n      0xffffffffffffffffffffffffffffffffffffffff\n      and\n      dup2\n      mstore\n      0x20\n      add\n      swap1\n      0x01\n      add\n      swap1\n      dup1\n      dup4\n      gt\n      tag_141\n      jumpi\n    tag_140:\n      pop\n      pop\n      pop\n      pop\n      pop\n      swap1\n      pop\n        /* \"tronbox/contracts/SmartGenie.sol\":27169:27293  function getUserReferrals(address _user) public view returns(address[] memory) {... */\n      swap2\n      swap1\n      pop\n      jump\t// out\n        /* \"tronbox/contracts/SmartGenie.sol\":25895:26275  function transferURS() public returns (bool) {... */\n    tag_59:\n        /* \"tronbox/contracts/SmartGenie.sol\":25934:25938  bool */\n      0x00\n        /* \"tronbox/contracts/SmartGenie.sol\":25972:25981  ursWallet */\n      0x01\n      0x00\n      swap1\n      sload\n      swap1\n      0x0100\n      exp\n      swap1\n      div\n      0xffffffffffffffffffffffffffffffffffffffff\n      and\n        /* \"tronbox/contracts/SmartGenie.sol\":25958:25981  msg.sender == ursWallet */\n      0xffffffffffffffffffffffffffffffffffffffff\n      and\n        /* \"tronbox/contracts/SmartGenie.sol\":25958:25968  msg.sender */\n      caller\n        /* \"tronbox/contracts/SmartGenie.sol\":25958:25981  msg.sender == ursWallet */\n      0xffffffffffffffffffffffffffffffffffffffff\n      and\n      eq\n        /* \"tronbox/contracts/SmartGenie.sol\":25950:26000  require(msg.sender == ursWallet, \"Invalid caller\") */\n      tag_143\n      jumpi\n      mload(0x40)\n      0x08c379a000000000000000000000000000000000000000000000000000000000\n      dup2\n      mstore\n      0x04\n      add\n      tag_144\n      swap1\n      tag_145\n      jump\t// in\n    tag_144:\n      mload(0x40)\n      dup1\n      swap2\n      sub\n      swap1\n      revert\n    tag_143:\n        /* \"tronbox/contracts/SmartGenie.sol\":26125:26137  bool success */\n      0x00\n        /* \"tronbox/contracts/SmartGenie.sol\":26159:26168  ursWallet */\n      0x01\n      0x00\n      swap1\n      sload\n      swap1\n      0x0100\n      exp\n      swap1\n      div\n      0xffffffffffffffffffffffffffffffffffffffff\n      and\n        /* \"tronbox/contracts/SmartGenie.sol\":26142:26176  (address(uint160(ursWallet))).call */\n      0xffffffffffffffffffffffffffffffffffffffff\n      and\n        /* \"tronbox/contracts/SmartGenie.sol\":26184:26190  ursAmt */\n      sload(0x12)\n        /* \"tronbox/contracts/SmartGenie.sol\":26142:26195  (address(uint160(ursWallet))).call{value: ursAmt}(\"\") */\n      mload(0x40)\n      tag_146\n      swap1\n      tag_147\n      jump\t// in\n    tag_146:\n      0x00\n      mload(0x40)\n      dup1\n      dup4\n      sub\n      dup2\n      dup6\n      dup8\n      gas\n      call\n      swap3\n      pop\n      pop\n      pop\n      returndatasize\n      dup1\n      0x00\n      dup2\n      eq\n      tag_150\n      jumpi\n      mload(0x40)\n      swap2\n      pop\n      and(add(returndatasize, 0x3f), not(0x1f))\n      dup3\n      add\n      0x40\n      mstore\n      returndatasize\n      dup3\n      mstore\n      returndatasize\n      0x00\n      0x20\n      dup5\n      add\n      returndatacopy\n      jump(tag_149)\n    tag_150:\n      0x60\n      swap2\n      pop\n    tag_149:\n      pop\n        /* \"tronbox/contracts/SmartGenie.sol\":26124:26195  (bool success,) = (address(uint160(ursWallet))).call{value: ursAmt}(\"\") */\n      pop\n      swap1\n      pop\n        /* \"tronbox/contracts/SmartGenie.sol\":26213:26220  success */\n      dup1\n        /* \"tronbox/contracts/SmartGenie.sol\":26205:26244  require(success, 'Transaction failed!') */\n      tag_151\n      jumpi\n      mload(0x40)\n      0x08c379a000000000000000000000000000000000000000000000000000000000\n      dup2\n      mstore\n      0x04\n      add\n      tag_152\n      swap1\n      tag_153\n      jump\t// in\n    tag_152:\n      mload(0x40)\n      dup1\n      swap2\n      sub\n      swap1\n      revert\n    tag_151:\n        /* \"tronbox/contracts/SmartGenie.sol\":26261:26268  success */\n      dup1\n        /* \"tronbox/contracts/SmartGenie.sol\":26254:26268  return success */\n      swap2\n      pop\n      pop\n        /* \"tronbox/contracts/SmartGenie.sol\":25895:26275  function transferURS() public returns (bool) {... */\n      swap1\n      jump\t// out\n        /* \"tronbox/contracts/SmartGenie.sol\":1023:1070  uint8[4] public promotionPercantage = [2,1,1,1] */\n    tag_64:\n      0x08\n      dup2\n      0x04\n      dup2\n      lt\n      tag_154\n      jumpi\n      0x00\n      dup1\n      revert\n    tag_154:\n      0x20\n      swap2\n      dup3\n      dup3\n      div\n      add\n      swap2\n      swap1\n      mod\n      swap2\n      pop\n      sload\n      swap1\n      0x0100\n      exp\n      swap1\n      div\n      0xff\n      and\n      dup2\n      jump\t// out\n        /* \"tronbox/contracts/SmartGenie.sol\":26993:27132  function getUserLevelEligibility(address _user) public view returns(uint256[] memory) {... */\n    tag_70:\n        /* \"tronbox/contracts/SmartGenie.sol\":27061:27077  uint256[] memory */\n      0x60\n        /* \"tronbox/contracts/SmartGenie.sol\":27096:27101  users */\n      0x0a\n        /* \"tronbox/contracts/SmartGenie.sol\":27096:27108  users[_user] */\n      0x00\n        /* \"tronbox/contracts/SmartGenie.sol\":27102:27107  _user */\n      dup4\n        /* \"tronbox/contracts/SmartGenie.sol\":27096:27108  users[_user] */\n      0xffffffffffffffffffffffffffffffffffffffff\n      and\n      0xffffffffffffffffffffffffffffffffffffffff\n      and\n      dup2\n      mstore\n      0x20\n      add\n      swap1\n      dup2\n      mstore\n      0x20\n      add\n      0x00\n      keccak256\n        /* \"tronbox/contracts/SmartGenie.sol\":27096:27125  users[_user].levelEligibility */\n      0x06\n      add\n        /* \"tronbox/contracts/SmartGenie.sol\":27089:27125  return users[_user].levelEligibility */\n      dup1\n      sload\n      dup1\n      0x20\n      mul\n      0x20\n      add\n      mload(0x40)\n      swap1\n      dup2\n      add\n      0x40\n      mstore\n      dup1\n      swap3\n      swap2\n      swap1\n      dup2\n      dup2\n      mstore\n      0x20\n      add\n      dup3\n      dup1\n      sload\n      dup1\n      iszero\n      tag_157\n      jumpi\n      0x20\n      mul\n      dup3\n      add\n      swap2\n      swap1\n      0x00\n      mstore\n      keccak256(0x00, 0x20)\n      swap1\n    tag_158:\n      dup2\n      sload\n      dup2\n      mstore\n      0x20\n      add\n      swap1\n      0x01\n      add\n      swap1\n      dup1\n      dup4\n      gt\n      tag_158\n      jumpi\n    tag_157:\n      pop\n      pop\n      pop\n      pop\n      pop\n      swap1\n      pop\n        /* \"tronbox/contracts/SmartGenie.sol\":26993:27132  function getUserLevelEligibility(address _user) public view returns(uint256[] memory) {... */\n      swap2\n      swap1\n      pop\n      jump\t// out\n        /* \"tronbox/contracts/SmartGenie.sol\":26828:26940  function getContractBalance() public view returns(uint256) {... */\n    tag_75:\n        /* \"tronbox/contracts/SmartGenie.sol\":26878:26885  uint256 */\n      0x00\n        /* \"tronbox/contracts/SmartGenie.sol\":26926:26933  1000000 */\n      0x0f4240\n        /* \"tronbox/contracts/SmartGenie.sol\":26904:26925  address(this).balance */\n      selfbalance\n        /* \"tronbox/contracts/SmartGenie.sol\":26904:26933  address(this).balance/1000000 */\n      tag_160\n      swap2\n      swap1\n      tag_161\n      jump\t// in\n    tag_160:\n        /* \"tronbox/contracts/SmartGenie.sol\":26897:26933  return address(this).balance/1000000 */\n      swap1\n      pop\n        /* \"tronbox/contracts/SmartGenie.sol\":26828:26940  function getContractBalance() public view returns(uint256) {... */\n      swap1\n      jump\t// out\n        /* \"tronbox/contracts/SmartGenie.sol\":1081:1121  mapping(uint => uint) public LEVEL_PRICE */\n    tag_81:\n      mstore(0x20, 0x09)\n      dup1\n      0x00\n      mstore\n      keccak256(0x00, 0x40)\n      0x00\n      swap2\n      pop\n      swap1\n      pop\n      sload\n      dup2\n      jump\t// out\n        /* \"tronbox/contracts/SmartGenie.sol\":3619:5948  function regUser(uint _referrerID) public payable returns (bool) {... */\n    tag_85:\n        /* \"tronbox/contracts/SmartGenie.sol\":3678:3682  bool */\n      0x00\n        /* \"tronbox/contracts/SmartGenie.sol\":3780:3785  users */\n      0x0a\n        /* \"tronbox/contracts/SmartGenie.sol\":3780:3797  users[msg.sender] */\n      0x00\n        /* \"tronbox/contracts/SmartGenie.sol\":3786:3796  msg.sender */\n      caller\n        /* \"tronbox/contracts/SmartGenie.sol\":3780:3797  users[msg.sender] */\n      0xffffffffffffffffffffffffffffffffffffffff\n      and\n      0xffffffffffffffffffffffffffffffffffffffff\n      and\n      dup2\n      mstore\n      0x20\n      add\n      swap1\n      dup2\n      mstore\n      0x20\n      add\n      0x00\n      keccak256\n        /* \"tronbox/contracts/SmartGenie.sol\":3780:3805  users[msg.sender].isExist */\n      0x00\n      add\n      0x00\n      swap1\n      sload\n      swap1\n      0x0100\n      exp\n      swap1\n      div\n      0xff\n      and\n        /* \"tronbox/contracts/SmartGenie.sol\":3779:3805  !users[msg.sender].isExist */\n      iszero\n        /* \"tronbox/contracts/SmartGenie.sol\":3771:3820  require(!users[msg.sender].isExist, 'User exist') */\n      tag_163\n      jumpi\n      mload(0x40)\n      0x08c379a000000000000000000000000000000000000000000000000000000000\n      dup2\n      mstore\n      0x04\n      add\n      tag_164\n      swap1\n      tag_165\n      jump\t// in\n    tag_164:\n      mload(0x40)\n      dup1\n      swap2\n      sub\n      swap1\n      revert\n    tag_163:\n        /* \"tronbox/contracts/SmartGenie.sol\":3914:3915  0 */\n      0x00\n        /* \"tronbox/contracts/SmartGenie.sol\":3900:3911  _referrerID */\n      dup3\n        /* \"tronbox/contracts/SmartGenie.sol\":3900:3915  _referrerID > 0 */\n      gt\n        /* \"tronbox/contracts/SmartGenie.sol\":3900:3944  _referrerID > 0 && _referrerID <= currUserID */\n      dup1\n      iszero\n      tag_166\n      jumpi\n      pop\n        /* \"tronbox/contracts/SmartGenie.sol\":3934:3944  currUserID */\n      sload(0x0f)\n        /* \"tronbox/contracts/SmartGenie.sol\":3919:3930  _referrerID */\n      dup3\n        /* \"tronbox/contracts/SmartGenie.sol\":3919:3944  _referrerID <= currUserID */\n      gt\n      iszero\n        /* \"tronbox/contracts/SmartGenie.sol\":3900:3944  _referrerID > 0 && _referrerID <= currUserID */\n    tag_166:\n        /* \"tronbox/contracts/SmartGenie.sol\":3892:3970  require(_referrerID > 0 && _referrerID <= currUserID, 'Incorrect referrer Id') */\n      tag_167\n      jumpi\n      mload(0x40)\n      0x08c379a000000000000000000000000000000000000000000000000000000000\n      dup2\n      mstore\n      0x04\n      add\n      tag_168\n      swap1\n      tag_169\n      jump\t// in\n    tag_168:\n      mload(0x40)\n      dup1\n      swap2\n      sub\n      swap1\n      revert\n    tag_167:\n        /* \"tronbox/contracts/SmartGenie.sol\":4075:4081  regFee */\n      sload(0x13)\n        /* \"tronbox/contracts/SmartGenie.sol\":4062:4071  msg.value */\n      callvalue\n        /* \"tronbox/contracts/SmartGenie.sol\":4062:4081  msg.value == regFee */\n      eq\n        /* \"tronbox/contracts/SmartGenie.sol\":4054:4101  require(msg.value == regFee, 'Incorrect Value') */\n      tag_170\n      jumpi\n      mload(0x40)\n      0x08c379a000000000000000000000000000000000000000000000000000000000\n      dup2\n      mstore\n      0x04\n      add\n      tag_171\n      swap1\n      tag_172\n      jump\t// in\n    tag_171:\n      mload(0x40)\n      dup1\n      swap2\n      sub\n      swap1\n      revert\n    tag_170:\n        /* \"tronbox/contracts/SmartGenie.sol\":4177:4206  UserStruct storage userStruct */\n      0x00\n        /* \"tronbox/contracts/SmartGenie.sol\":4209:4214  users */\n      0x0a\n        /* \"tronbox/contracts/SmartGenie.sol\":4209:4226  users[msg.sender] */\n      0x00\n        /* \"tronbox/contracts/SmartGenie.sol\":4215:4225  msg.sender */\n      caller\n        /* \"tronbox/contracts/SmartGenie.sol\":4209:4226  users[msg.sender] */\n      0xffffffffffffffffffffffffffffffffffffffff\n      and\n      0xffffffffffffffffffffffffffffffffffffffff\n      and\n      dup2\n      mstore\n      0x20\n      add\n      swap1\n      dup2\n      mstore\n      0x20\n      add\n      0x00\n      keccak256\n        /* \"tronbox/contracts/SmartGenie.sol\":4177:4226  UserStruct storage userStruct = users[msg.sender] */\n      swap1\n      pop\n        /* \"tronbox/contracts/SmartGenie.sol\":4257:4261  true */\n      0x01\n        /* \"tronbox/contracts/SmartGenie.sol\":4236:4246  userStruct */\n      dup2\n        /* \"tronbox/contracts/SmartGenie.sol\":4236:4254  userStruct.isExist */\n      0x00\n      add\n      0x00\n        /* \"tronbox/contracts/SmartGenie.sol\":4236:4261  userStruct.isExist = true */\n      0x0100\n      exp\n      dup2\n      sload\n      dup2\n      0xff\n      mul\n      not\n      and\n      swap1\n      dup4\n      iszero\n      iszero\n      mul\n      or\n      swap1\n      sstore\n      pop\n        /* \"tronbox/contracts/SmartGenie.sol\":4287:4297  currUserID */\n      sload(0x0f)\n        /* \"tronbox/contracts/SmartGenie.sol\":4271:4281  userStruct */\n      dup2\n        /* \"tronbox/contracts/SmartGenie.sol\":4271:4284  userStruct.id */\n      0x01\n      add\n        /* \"tronbox/contracts/SmartGenie.sol\":4271:4297  userStruct.id = currUserID */\n      dup2\n      swap1\n      sstore\n      pop\n        /* \"tronbox/contracts/SmartGenie.sol\":4331:4342  _referrerID */\n      dup3\n        /* \"tronbox/contracts/SmartGenie.sol\":4307:4317  userStruct */\n      dup2\n        /* \"tronbox/contracts/SmartGenie.sol\":4307:4328  userStruct.referrerID */\n      0x02\n      add\n        /* \"tronbox/contracts/SmartGenie.sol\":4307:4342  userStruct.referrerID = _referrerID */\n      dup2\n      swap1\n      sstore\n      pop\n        /* \"tronbox/contracts/SmartGenie.sol\":4388:4389  0 */\n      0x00\n        /* \"tronbox/contracts/SmartGenie.sol\":4374:4390  new address[](0) */\n      0xffffffffffffffff\n      dup2\n      gt\n      iszero\n      tag_173\n      jumpi\n      tag_174\n      tag_175\n      jump\t// in\n    tag_174:\n    tag_173:\n      mload(0x40)\n      swap1\n      dup1\n      dup3\n      mstore\n      dup1\n      0x20\n      mul\n      0x20\n      add\n      dup3\n      add\n      0x40\n      mstore\n      dup1\n      iszero\n      tag_176\n      jumpi\n      dup2\n      0x20\n      add\n      0x20\n      dup3\n      mul\n      dup1\n      calldatasize\n      dup4\n      calldatacopy\n      dup1\n      dup3\n      add\n      swap2\n      pop\n      pop\n      swap1\n      pop\n    tag_176:\n      pop\n        /* \"tronbox/contracts/SmartGenie.sol\":4352:4362  userStruct */\n      dup2\n        /* \"tronbox/contracts/SmartGenie.sol\":4352:4371  userStruct.referral */\n      0x03\n      add\n        /* \"tronbox/contracts/SmartGenie.sol\":4352:4390  userStruct.referral = new address[](0) */\n      swap1\n      dup1\n      mload\n      swap1\n      0x20\n      add\n      swap1\n      tag_177\n      swap3\n      swap2\n      swap1\n      tag_178\n      jump\t// in\n    tag_177:\n      pop\n        /* \"tronbox/contracts/SmartGenie.sol\":4420:4435  block.timestamp */\n      timestamp\n        /* \"tronbox/contracts/SmartGenie.sol\":4400:4410  userStruct */\n      dup2\n        /* \"tronbox/contracts/SmartGenie.sol\":4400:4417  userStruct.joined */\n      0x04\n      add\n        /* \"tronbox/contracts/SmartGenie.sol\":4400:4435  userStruct.joined = block.timestamp */\n      dup2\n      swap1\n      sstore\n      pop\n        /* \"tronbox/contracts/SmartGenie.sol\":4486:4487  0 */\n      0x00\n        /* \"tronbox/contracts/SmartGenie.sol\":4475:4488  new uint[](0) */\n      0xffffffffffffffff\n      dup2\n      gt\n      iszero\n      tag_179\n      jumpi\n      tag_180\n      tag_175\n      jump\t// in\n    tag_180:\n    tag_179:\n      mload(0x40)\n      swap1\n      dup1\n      dup3\n      mstore\n      dup1\n      0x20\n      mul\n      0x20\n      add\n      dup3\n      add\n      0x40\n      mstore\n      dup1\n      iszero\n      tag_181\n      jumpi\n      dup2\n      0x20\n      add\n      0x20\n      dup3\n      mul\n      dup1\n      calldatasize\n      dup4\n      calldatacopy\n      dup1\n      dup3\n      add\n      swap2\n      pop\n      pop\n      swap1\n      pop\n    tag_181:\n      pop\n        /* \"tronbox/contracts/SmartGenie.sol\":4445:4455  userStruct */\n      dup2\n        /* \"tronbox/contracts/SmartGenie.sol\":4445:4472  userStruct.levelEligibility */\n      0x06\n      add\n        /* \"tronbox/contracts/SmartGenie.sol\":4445:4488  userStruct.levelEligibility = new uint[](0) */\n      swap1\n      dup1\n      mload\n      swap1\n      0x20\n      add\n      swap1\n      tag_182\n      swap3\n      swap2\n      swap1\n      tag_183\n      jump\t// in\n    tag_182:\n      pop\n        /* \"tronbox/contracts/SmartGenie.sol\":4499:4509  currUserID */\n      0x0f\n      0x00\n        /* \"tronbox/contracts/SmartGenie.sol\":4499:4511  currUserID++ */\n      dup2\n      sload\n      dup1\n      swap3\n      swap2\n      swap1\n      tag_184\n      swap1\n      tag_185\n      jump\t// in\n    tag_184:\n      swap2\n      swap1\n      pop\n      sstore\n      pop\n        /* \"tronbox/contracts/SmartGenie.sol\":4598:4608  msg.sender */\n      caller\n        /* \"tronbox/contracts/SmartGenie.sol\":4575:4583  userList */\n      0x0b\n        /* \"tronbox/contracts/SmartGenie.sol\":4575:4595  userList[currUserID] */\n      0x00\n        /* \"tronbox/contracts/SmartGenie.sol\":4584:4594  currUserID */\n      sload(0x0f)\n        /* \"tronbox/contracts/SmartGenie.sol\":4575:4595  userList[currUserID] */\n      dup2\n      mstore\n      0x20\n      add\n      swap1\n      dup2\n      mstore\n      0x20\n      add\n      0x00\n      keccak256\n      0x00\n        /* \"tronbox/contracts/SmartGenie.sol\":4575:4608  userList[currUserID] = msg.sender */\n      0x0100\n      exp\n      dup2\n      sload\n      dup2\n      0xffffffffffffffffffffffffffffffffffffffff\n      mul\n      not\n      and\n      swap1\n      dup4\n      0xffffffffffffffffffffffffffffffffffffffff\n      and\n      mul\n      or\n      swap1\n      sstore\n      pop\n        /* \"tronbox/contracts/SmartGenie.sol\":4683:4688  users */\n      0x0a\n        /* \"tronbox/contracts/SmartGenie.sol\":4683:4711  users[userList[_referrerID]] */\n      0x00\n        /* \"tronbox/contracts/SmartGenie.sol\":4689:4697  userList */\n      0x0b\n        /* \"tronbox/contracts/SmartGenie.sol\":4689:4710  userList[_referrerID] */\n      0x00\n        /* \"tronbox/contracts/SmartGenie.sol\":4698:4709  _referrerID */\n      dup7\n        /* \"tronbox/contracts/SmartGenie.sol\":4689:4710  userList[_referrerID] */\n      dup2\n      mstore\n      0x20\n      add\n      swap1\n      dup2\n      mstore\n      0x20\n      add\n      0x00\n      keccak256\n      0x00\n      swap1\n      sload\n      swap1\n      0x0100\n      exp\n      swap1\n      div\n      0xffffffffffffffffffffffffffffffffffffffff\n      and\n        /* \"tronbox/contracts/SmartGenie.sol\":4683:4711  users[userList[_referrerID]] */\n      0xffffffffffffffffffffffffffffffffffffffff\n      and\n      0xffffffffffffffffffffffffffffffffffffffff\n      and\n      dup2\n      mstore\n      0x20\n      add\n      swap1\n      dup2\n      mstore\n      0x20\n      add\n      0x00\n      keccak256\n        /* \"tronbox/contracts/SmartGenie.sol\":4683:4720  users[userList[_referrerID]].referral */\n      0x03\n      add\n        /* \"tronbox/contracts/SmartGenie.sol\":4726:4736  msg.sender */\n      caller\n        /* \"tronbox/contracts/SmartGenie.sol\":4683:4737  users[userList[_referrerID]].referral.push(msg.sender) */\n      swap1\n      dup1\n      0x01\n      dup2\n      sload\n      add\n      dup1\n      dup3\n      sstore\n      dup1\n      swap2\n      pop\n      pop\n      0x01\n      swap1\n      sub\n      swap1\n      0x00\n      mstore\n      keccak256(0x00, 0x20)\n      add\n      0x00\n      swap1\n      swap2\n      swap1\n      swap2\n      swap1\n      swap2\n      0x0100\n      exp\n      dup2\n      sload\n      dup2\n      0xffffffffffffffffffffffffffffffffffffffff\n      mul\n      not\n      and\n      swap1\n      dup4\n      0xffffffffffffffffffffffffffffffffffffffff\n      and\n      mul\n      or\n      swap1\n      sstore\n      pop\n        /* \"tronbox/contracts/SmartGenie.sol\":4806:4817  LEVEL_PRICE */\n      0x09\n        /* \"tronbox/contracts/SmartGenie.sol\":4806:4820  LEVEL_PRICE[1] */\n      0x00\n        /* \"tronbox/contracts/SmartGenie.sol\":4818:4819  1 */\n      0x01\n        /* \"tronbox/contracts/SmartGenie.sol\":4806:4820  LEVEL_PRICE[1] */\n      dup2\n      mstore\n      0x20\n      add\n      swap1\n      dup2\n      mstore\n      0x20\n      add\n      0x00\n      keccak256\n      sload\n        /* \"tronbox/contracts/SmartGenie.sol\":4796:4802  ursAmt */\n      0x12\n      0x00\n        /* \"tronbox/contracts/SmartGenie.sol\":4796:4820  ursAmt += LEVEL_PRICE[1] */\n      dup3\n      dup3\n      sload\n      tag_187\n      swap2\n      swap1\n      tag_188\n      jump\t// in\n    tag_187:\n      swap3\n      pop\n      pop\n      dup2\n      swap1\n      sstore\n      pop\n        /* \"tronbox/contracts/SmartGenie.sol\":4841:4855  promotionShare */\n      sload(0x15)\n        /* \"tronbox/contracts/SmartGenie.sol\":4830:4837  promAmt */\n      0x11\n      0x00\n        /* \"tronbox/contracts/SmartGenie.sol\":4830:4855  promAmt += promotionShare */\n      dup3\n      dup3\n      sload\n      tag_189\n      swap2\n      swap1\n      tag_188\n      jump\t// in\n    tag_189:\n      swap3\n      pop\n      pop\n      dup2\n      swap1\n      sstore\n      pop\n        /* \"tronbox/contracts/SmartGenie.sol\":4879:4892  splPromoShare */\n      sload(0x16)\n        /* \"tronbox/contracts/SmartGenie.sol\":4865:4875  splPromAmt */\n      0x10\n      0x00\n        /* \"tronbox/contracts/SmartGenie.sol\":4865:4892  splPromAmt += splPromoShare */\n      dup3\n      dup3\n      sload\n      tag_190\n      swap2\n      swap1\n      tag_188\n      jump\t// in\n    tag_190:\n      swap3\n      pop\n      pop\n      dup2\n      swap1\n      sstore\n      pop\n        /* \"tronbox/contracts/SmartGenie.sol\":5011:5038  uint referrerReferralLength */\n      0x00\n        /* \"tronbox/contracts/SmartGenie.sol\":5041:5046  users */\n      0x0a\n        /* \"tronbox/contracts/SmartGenie.sol\":5041:5069  users[userList[_referrerID]] */\n      0x00\n        /* \"tronbox/contracts/SmartGenie.sol\":5047:5055  userList */\n      0x0b\n        /* \"tronbox/contracts/SmartGenie.sol\":5047:5068  userList[_referrerID] */\n      0x00\n        /* \"tronbox/contracts/SmartGenie.sol\":5056:5067  _referrerID */\n      dup8\n        /* \"tronbox/contracts/SmartGenie.sol\":5047:5068  userList[_referrerID] */\n      dup2\n      mstore\n      0x20\n      add\n      swap1\n      dup2\n      mstore\n      0x20\n      add\n      0x00\n      keccak256\n      0x00\n      swap1\n      sload\n      swap1\n      0x0100\n      exp\n      swap1\n      div\n      0xffffffffffffffffffffffffffffffffffffffff\n      and\n        /* \"tronbox/contracts/SmartGenie.sol\":5041:5069  users[userList[_referrerID]] */\n      0xffffffffffffffffffffffffffffffffffffffff\n      and\n      0xffffffffffffffffffffffffffffffffffffffff\n      and\n      dup2\n      mstore\n      0x20\n      add\n      swap1\n      dup2\n      mstore\n      0x20\n      add\n      0x00\n      keccak256\n        /* \"tronbox/contracts/SmartGenie.sol\":5041:5078  users[userList[_referrerID]].referral */\n      0x03\n      add\n        /* \"tronbox/contracts/SmartGenie.sol\":5041:5085  users[userList[_referrerID]].referral.length */\n      dup1\n      sload\n      swap1\n      pop\n        /* \"tronbox/contracts/SmartGenie.sol\":5011:5085  uint referrerReferralLength = users[userList[_referrerID]].referral.length */\n      swap1\n      pop\n        /* \"tronbox/contracts/SmartGenie.sol\":5124:5125  1 */\n      0x01\n        /* \"tronbox/contracts/SmartGenie.sol\":5098:5120  referrerReferralLength */\n      dup2\n        /* \"tronbox/contracts/SmartGenie.sol\":5098:5125  referrerReferralLength != 1 */\n      eq\n      iszero\n        /* \"tronbox/contracts/SmartGenie.sol\":5098:5145  referrerReferralLength != 1 || _referrerID == 1 */\n      dup1\n      tag_191\n      jumpi\n      pop\n        /* \"tronbox/contracts/SmartGenie.sol\":5144:5145  1 */\n      0x01\n        /* \"tronbox/contracts/SmartGenie.sol\":5129:5140  _referrerID */\n      dup5\n        /* \"tronbox/contracts/SmartGenie.sol\":5129:5145  _referrerID == 1 */\n      eq\n        /* \"tronbox/contracts/SmartGenie.sol\":5098:5145  referrerReferralLength != 1 || _referrerID == 1 */\n    tag_191:\n        /* \"tronbox/contracts/SmartGenie.sol\":5095:5490  if(referrerReferralLength != 1 || _referrerID == 1) {... */\n      iszero\n      tag_192\n      jumpi\n        /* \"tronbox/contracts/SmartGenie.sol\":5198:5258  payment(1, msg.sender, referrerReferralLength, false, false) */\n      tag_193\n        /* \"tronbox/contracts/SmartGenie.sol\":5206:5207  1 */\n      0x01\n        /* \"tronbox/contracts/SmartGenie.sol\":5209:5219  msg.sender */\n      caller\n        /* \"tronbox/contracts/SmartGenie.sol\":5221:5243  referrerReferralLength */\n      dup4\n        /* \"tronbox/contracts/SmartGenie.sol\":5245:5250  false */\n      0x00\n        /* \"tronbox/contracts/SmartGenie.sol\":5252:5257  false */\n      dup1\n        /* \"tronbox/contracts/SmartGenie.sol\":5198:5205  payment */\n      tag_194\n        /* \"tronbox/contracts/SmartGenie.sol\":5198:5258  payment(1, msg.sender, referrerReferralLength, false, false) */\n      jump\t// in\n    tag_193:\n        /* \"tronbox/contracts/SmartGenie.sol\":5095:5490  if(referrerReferralLength != 1 || _referrerID == 1) {... */\n      jump(tag_195)\n    tag_192:\n        /* \"tronbox/contracts/SmartGenie.sol\":5289:5294  users */\n      0x0a\n        /* \"tronbox/contracts/SmartGenie.sol\":5289:5317  users[userList[_referrerID]] */\n      0x00\n        /* \"tronbox/contracts/SmartGenie.sol\":5295:5303  userList */\n      0x0b\n        /* \"tronbox/contracts/SmartGenie.sol\":5295:5316  userList[_referrerID] */\n      0x00\n        /* \"tronbox/contracts/SmartGenie.sol\":5304:5315  _referrerID */\n      dup8\n        /* \"tronbox/contracts/SmartGenie.sol\":5295:5316  userList[_referrerID] */\n      dup2\n      mstore\n      0x20\n      add\n      swap1\n      dup2\n      mstore\n      0x20\n      add\n      0x00\n      keccak256\n      0x00\n      swap1\n      sload\n      swap1\n      0x0100\n      exp\n      swap1\n      div\n      0xffffffffffffffffffffffffffffffffffffffff\n      and\n        /* \"tronbox/contracts/SmartGenie.sol\":5289:5317  users[userList[_referrerID]] */\n      0xffffffffffffffffffffffffffffffffffffffff\n      and\n      0xffffffffffffffffffffffffffffffffffffffff\n      and\n      dup2\n      mstore\n      0x20\n      add\n      swap1\n      dup2\n      mstore\n      0x20\n      add\n      0x00\n      keccak256\n        /* \"tronbox/contracts/SmartGenie.sol\":5289:5334  users[userList[_referrerID]].levelEligibility */\n      0x06\n      add\n        /* \"tronbox/contracts/SmartGenie.sol\":5340:5341  1 */\n      0x01\n        /* \"tronbox/contracts/SmartGenie.sol\":5289:5342  users[userList[_referrerID]].levelEligibility.push(1) */\n      swap1\n      dup1\n      0x01\n      dup2\n      sload\n      add\n      dup1\n      dup3\n      sstore\n      dup1\n      swap2\n      pop\n      pop\n      0x01\n      swap1\n      sub\n      swap1\n      0x00\n      mstore\n      keccak256(0x00, 0x20)\n      add\n      0x00\n      swap1\n      swap2\n      swap1\n      swap2\n      swap1\n      swap2\n      pop\n      sstore\n        /* \"tronbox/contracts/SmartGenie.sol\":5356:5372  address referrer */\n      0x00\n        /* \"tronbox/contracts/SmartGenie.sol\":5375:5383  userList */\n      0x0b\n        /* \"tronbox/contracts/SmartGenie.sol\":5375:5396  userList[_referrerID] */\n      0x00\n        /* \"tronbox/contracts/SmartGenie.sol\":5384:5395  _referrerID */\n      dup7\n        /* \"tronbox/contracts/SmartGenie.sol\":5375:5396  userList[_referrerID] */\n      dup2\n      mstore\n      0x20\n      add\n      swap1\n      dup2\n      mstore\n      0x20\n      add\n      0x00\n      keccak256\n      0x00\n      swap1\n      sload\n      swap1\n      0x0100\n      exp\n      swap1\n      div\n      0xffffffffffffffffffffffffffffffffffffffff\n      and\n        /* \"tronbox/contracts/SmartGenie.sol\":5356:5396  address referrer = userList[_referrerID] */\n      swap1\n      pop\n        /* \"tronbox/contracts/SmartGenie.sol\":5478:5479  1 */\n      0x01\n        /* \"tronbox/contracts/SmartGenie.sol\":5447:5452  users */\n      0x0a\n        /* \"tronbox/contracts/SmartGenie.sol\":5447:5462  users[referrer] */\n      0x00\n        /* \"tronbox/contracts/SmartGenie.sol\":5453:5461  referrer */\n      dup4\n        /* \"tronbox/contracts/SmartGenie.sol\":5447:5462  users[referrer] */\n      0xffffffffffffffffffffffffffffffffffffffff\n      and\n      0xffffffffffffffffffffffffffffffffffffffff\n      and\n      dup2\n      mstore\n      0x20\n      add\n      swap1\n      dup2\n      mstore\n      0x20\n      add\n      0x00\n      keccak256\n        /* \"tronbox/contracts/SmartGenie.sol\":5447:5474  users[referrer].incomeCount */\n      0x05\n      add\n        /* \"tronbox/contracts/SmartGenie.sol\":5447:5477  users[referrer].incomeCount[1] */\n      0x00\n        /* \"tronbox/contracts/SmartGenie.sol\":5475:5476  1 */\n      0x01\n        /* \"tronbox/contracts/SmartGenie.sol\":5447:5477  users[referrer].incomeCount[1] */\n      dup2\n      mstore\n      0x20\n      add\n      swap1\n      dup2\n      mstore\n      0x20\n      add\n      0x00\n      keccak256\n      sload\n        /* \"tronbox/contracts/SmartGenie.sol\":5447:5479  users[referrer].incomeCount[1]+1 */\n      tag_197\n      swap2\n      swap1\n      tag_188\n      jump\t// in\n    tag_197:\n        /* \"tronbox/contracts/SmartGenie.sol\":5414:5419  users */\n      0x0a\n        /* \"tronbox/contracts/SmartGenie.sol\":5414:5429  users[referrer] */\n      0x00\n        /* \"tronbox/contracts/SmartGenie.sol\":5420:5428  referrer */\n      dup4\n        /* \"tronbox/contracts/SmartGenie.sol\":5414:5429  users[referrer] */\n      0xffffffffffffffffffffffffffffffffffffffff\n      and\n      0xffffffffffffffffffffffffffffffffffffffff\n      and\n      dup2\n      mstore\n      0x20\n      add\n      swap1\n      dup2\n      mstore\n      0x20\n      add\n      0x00\n      keccak256\n        /* \"tronbox/contracts/SmartGenie.sol\":5414:5441  users[referrer].incomeCount */\n      0x05\n      add\n        /* \"tronbox/contracts/SmartGenie.sol\":5414:5444  users[referrer].incomeCount[1] */\n      0x00\n        /* \"tronbox/contracts/SmartGenie.sol\":5442:5443  1 */\n      0x01\n        /* \"tronbox/contracts/SmartGenie.sol\":5414:5444  users[referrer].incomeCount[1] */\n      dup2\n      mstore\n      0x20\n      add\n      swap1\n      dup2\n      mstore\n      0x20\n      add\n      0x00\n      keccak256\n        /* \"tronbox/contracts/SmartGenie.sol\":5414:5479  users[referrer].incomeCount[1] = users[referrer].incomeCount[1]+1 */\n      dup2\n      swap1\n      sstore\n      pop\n        /* \"tronbox/contracts/SmartGenie.sol\":5275:5490  {... */\n      pop\n        /* \"tronbox/contracts/SmartGenie.sol\":5095:5490  if(referrerReferralLength != 1 || _referrerID == 1) {... */\n    tag_195:\n        /* \"tronbox/contracts/SmartGenie.sol\":5672:5684  bool success */\n      0x00\n        /* \"tronbox/contracts/SmartGenie.sol\":5690:5698  userList */\n      0x0b\n        /* \"tronbox/contracts/SmartGenie.sol\":5690:5711  userList[_referrerID] */\n      0x00\n        /* \"tronbox/contracts/SmartGenie.sol\":5699:5710  _referrerID */\n      dup7\n        /* \"tronbox/contracts/SmartGenie.sol\":5690:5711  userList[_referrerID] */\n      dup2\n      mstore\n      0x20\n      add\n      swap1\n      dup2\n      mstore\n      0x20\n      add\n      0x00\n      keccak256\n      0x00\n      swap1\n      sload\n      swap1\n      0x0100\n      exp\n      swap1\n      div\n      0xffffffffffffffffffffffffffffffffffffffff\n      and\n        /* \"tronbox/contracts/SmartGenie.sol\":5689:5717  (userList[_referrerID]).call */\n      0xffffffffffffffffffffffffffffffffffffffff\n      and\n        /* \"tronbox/contracts/SmartGenie.sol\":5725:5733  regShare */\n      sload(0x14)\n        /* \"tronbox/contracts/SmartGenie.sol\":5689:5738  (userList[_referrerID]).call{value: regShare}(\"\") */\n      mload(0x40)\n      tag_198\n      swap1\n      tag_147\n      jump\t// in\n    tag_198:\n      0x00\n      mload(0x40)\n      dup1\n      dup4\n      sub\n      dup2\n      dup6\n      dup8\n      gas\n      call\n      swap3\n      pop\n      pop\n      pop\n      returndatasize\n      dup1\n      0x00\n      dup2\n      eq\n      tag_201\n      jumpi\n      mload(0x40)\n      swap2\n      pop\n      and(add(returndatasize, 0x3f), not(0x1f))\n      dup3\n      add\n      0x40\n      mstore\n      returndatasize\n      dup3\n      mstore\n      returndatasize\n      0x00\n      0x20\n      dup5\n      add\n      returndatacopy\n      jump(tag_200)\n    tag_201:\n      0x60\n      swap2\n      pop\n    tag_200:\n      pop\n        /* \"tronbox/contracts/SmartGenie.sol\":5671:5738  (bool success,) = (userList[_referrerID]).call{value: regShare}(\"\") */\n      pop\n      swap1\n      pop\n        /* \"tronbox/contracts/SmartGenie.sol\":5756:5763  success */\n      dup1\n        /* \"tronbox/contracts/SmartGenie.sol\":5748:5787  require(success, 'Transaction failed!') */\n      tag_202\n      jumpi\n      mload(0x40)\n      0x08c379a000000000000000000000000000000000000000000000000000000000\n      dup2\n      mstore\n      0x04\n      add\n      tag_203\n      swap1\n      tag_153\n      jump\t// in\n    tag_203:\n      mload(0x40)\n      dup1\n      swap2\n      sub\n      swap1\n      revert\n    tag_202:\n        /* \"tronbox/contracts/SmartGenie.sol\":5869:5877  userList */\n      0x0b\n        /* \"tronbox/contracts/SmartGenie.sol\":5869:5890  userList[_referrerID] */\n      0x00\n        /* \"tronbox/contracts/SmartGenie.sol\":5878:5889  _referrerID */\n      dup7\n        /* \"tronbox/contracts/SmartGenie.sol\":5869:5890  userList[_referrerID] */\n      dup2\n      mstore\n      0x20\n      add\n      swap1\n      dup2\n      mstore\n      0x20\n      add\n      0x00\n      keccak256\n      0x00\n      swap1\n      sload\n      swap1\n      0x0100\n      exp\n      swap1\n      div\n      0xffffffffffffffffffffffffffffffffffffffff\n      and\n        /* \"tronbox/contracts/SmartGenie.sol\":5843:5908  regLevelEvent(msg.sender, userList[_referrerID], block.timestamp) */\n      0xffffffffffffffffffffffffffffffffffffffff\n      and\n        /* \"tronbox/contracts/SmartGenie.sol\":5857:5867  msg.sender */\n      caller\n        /* \"tronbox/contracts/SmartGenie.sol\":5843:5908  regLevelEvent(msg.sender, userList[_referrerID], block.timestamp) */\n      0xffffffffffffffffffffffffffffffffffffffff\n      and\n      0x788c06d2405ae89dd3f0528d38be7691289474d72176408bc2c2406dc5e342f1\n        /* \"tronbox/contracts/SmartGenie.sol\":5892:5907  block.timestamp */\n      timestamp\n        /* \"tronbox/contracts/SmartGenie.sol\":5843:5908  regLevelEvent(msg.sender, userList[_referrerID], block.timestamp) */\n      mload(0x40)\n      tag_204\n      swap2\n      swap1\n      tag_77\n      jump\t// in\n    tag_204:\n      mload(0x40)\n      dup1\n      swap2\n      sub\n      swap1\n      log3\n        /* \"tronbox/contracts/SmartGenie.sol\":5925:5932  success */\n      dup1\n        /* \"tronbox/contracts/SmartGenie.sol\":5918:5932  return success */\n      swap4\n      pop\n      pop\n      pop\n      pop\n        /* \"tronbox/contracts/SmartGenie.sol\":3619:5948  function regUser(uint _referrerID) public payable returns (bool) {... */\n      swap2\n      swap1\n      pop\n      jump\t// out\n        /* \"tronbox/contracts/SmartGenie.sol\":694:723  address public splPromoWallet */\n    tag_89:\n      0x02\n      0x00\n      swap1\n      sload\n      swap1\n      0x0100\n      exp\n      swap1\n      div\n      0xffffffffffffffffffffffffffffffffffffffff\n      and\n      dup2\n      jump\t// out\n        /* \"tronbox/contracts/SmartGenie.sol\":24612:25396  function withdrawPromotion() public returns (bool) {... */\n    tag_93:\n        /* \"tronbox/contracts/SmartGenie.sol\":24657:24661  bool */\n      0x00\n        /* \"tronbox/contracts/SmartGenie.sol\":24673:24689  bool checkCaller */\n      dup1\n        /* \"tronbox/contracts/SmartGenie.sol\":24692:24697  false */\n      0x00\n        /* \"tronbox/contracts/SmartGenie.sol\":24673:24697  bool checkCaller = false */\n      swap1\n      pop\n        /* \"tronbox/contracts/SmartGenie.sol\":24707:24723  uint callerIndex */\n      0x00\n        /* \"tronbox/contracts/SmartGenie.sol\":24742:24748  uint i */\n      dup1\n        /* \"tronbox/contracts/SmartGenie.sol\":24737:24958  for (uint i = 0; i < promotionWallets.length; i++) {... */\n    tag_206:\n        /* \"tronbox/contracts/SmartGenie.sol\":24758:24781  promotionWallets.length */\n      0x04\n        /* \"tronbox/contracts/SmartGenie.sol\":24754:24755  i */\n      dup2\n        /* \"tronbox/contracts/SmartGenie.sol\":24754:24781  i < promotionWallets.length */\n      lt\n        /* \"tronbox/contracts/SmartGenie.sol\":24737:24958  for (uint i = 0; i < promotionWallets.length; i++) {... */\n      iszero\n      tag_207\n      jumpi\n        /* \"tronbox/contracts/SmartGenie.sol\":24829:24839  msg.sender */\n      caller\n        /* \"tronbox/contracts/SmartGenie.sol\":24806:24839  promotionWallets[i] == msg.sender */\n      0xffffffffffffffffffffffffffffffffffffffff\n      and\n        /* \"tronbox/contracts/SmartGenie.sol\":24806:24822  promotionWallets */\n      0x04\n        /* \"tronbox/contracts/SmartGenie.sol\":24823:24824  i */\n      dup3\n        /* \"tronbox/contracts/SmartGenie.sol\":24806:24825  promotionWallets[i] */\n      0x04\n      dup2\n      lt\n      tag_209\n      jumpi\n      tag_210\n      tag_211\n      jump\t// in\n    tag_210:\n    tag_209:\n      add\n      0x00\n      swap1\n      sload\n      swap1\n      0x0100\n      exp\n      swap1\n      div\n      0xffffffffffffffffffffffffffffffffffffffff\n      and\n        /* \"tronbox/contracts/SmartGenie.sol\":24806:24839  promotionWallets[i] == msg.sender */\n      0xffffffffffffffffffffffffffffffffffffffff\n      and\n      eq\n        /* \"tronbox/contracts/SmartGenie.sol\":24802:24948  if (promotionWallets[i] == msg.sender) {... */\n      iszero\n      tag_213\n      jumpi\n        /* \"tronbox/contracts/SmartGenie.sol\":24873:24877  true */\n      0x01\n        /* \"tronbox/contracts/SmartGenie.sol\":24859:24877  checkCaller = true */\n      swap3\n      pop\n        /* \"tronbox/contracts/SmartGenie.sol\":24909:24910  i */\n      dup1\n        /* \"tronbox/contracts/SmartGenie.sol\":24895:24910  callerIndex = i */\n      swap2\n      pop\n        /* \"tronbox/contracts/SmartGenie.sol\":24928:24933  break */\n      jump(tag_207)\n        /* \"tronbox/contracts/SmartGenie.sol\":24802:24948  if (promotionWallets[i] == msg.sender) {... */\n    tag_213:\n        /* \"tronbox/contracts/SmartGenie.sol\":24783:24786  i++ */\n      dup1\n      dup1\n      tag_214\n      swap1\n      tag_185\n      jump\t// in\n    tag_214:\n      swap2\n      pop\n      pop\n        /* \"tronbox/contracts/SmartGenie.sol\":24737:24958  for (uint i = 0; i < promotionWallets.length; i++) {... */\n      jump(tag_206)\n    tag_207:\n      pop\n        /* \"tronbox/contracts/SmartGenie.sol\":24991:24995  true */\n      0x01\n        /* \"tronbox/contracts/SmartGenie.sol\":24976:24995  checkCaller == true */\n      iszero\n      iszero\n        /* \"tronbox/contracts/SmartGenie.sol\":24976:24987  checkCaller */\n      dup3\n        /* \"tronbox/contracts/SmartGenie.sol\":24976:24995  checkCaller == true */\n      iszero\n      iszero\n      eq\n        /* \"tronbox/contracts/SmartGenie.sol\":24968:25014  require(checkCaller == true, \"Invalid caller\") */\n      tag_215\n      jumpi\n      mload(0x40)\n      0x08c379a000000000000000000000000000000000000000000000000000000000\n      dup2\n      mstore\n      0x04\n      add\n      tag_216\n      swap1\n      tag_145\n      jump\t// in\n    tag_216:\n      mload(0x40)\n      dup1\n      swap2\n      sub\n      swap1\n      revert\n    tag_215:\n        /* \"tronbox/contracts/SmartGenie.sol\":25024:25046  uint maxEligibleAmount */\n      0x00\n        /* \"tronbox/contracts/SmartGenie.sol\":25094:25097  100 */\n      0x64\n        /* \"tronbox/contracts/SmartGenie.sol\":25060:25079  promotionPercantage */\n      0x08\n        /* \"tronbox/contracts/SmartGenie.sol\":25080:25091  callerIndex */\n      dup4\n        /* \"tronbox/contracts/SmartGenie.sol\":25060:25092  promotionPercantage[callerIndex] */\n      0x04\n      dup2\n      lt\n      tag_217\n      jumpi\n      tag_218\n      tag_211\n      jump\t// in\n    tag_218:\n    tag_217:\n      0x20\n      swap2\n      dup3\n      dup3\n      div\n      add\n      swap2\n      swap1\n      mod\n      swap1\n      sload\n      swap1\n      0x0100\n      exp\n      swap1\n      div\n      0xff\n      and\n        /* \"tronbox/contracts/SmartGenie.sol\":25050:25092  promAmt * promotionPercantage[callerIndex] */\n      0xff\n      and\n        /* \"tronbox/contracts/SmartGenie.sol\":25050:25057  promAmt */\n      sload(0x11)\n        /* \"tronbox/contracts/SmartGenie.sol\":25050:25092  promAmt * promotionPercantage[callerIndex] */\n      tag_220\n      swap2\n      swap1\n      tag_221\n      jump\t// in\n    tag_220:\n        /* \"tronbox/contracts/SmartGenie.sol\":25049:25097  (promAmt * promotionPercantage[callerIndex])/100 */\n      tag_222\n      swap2\n      swap1\n      tag_161\n      jump\t// in\n    tag_222:\n        /* \"tronbox/contracts/SmartGenie.sol\":25024:25097  uint maxEligibleAmount = (promAmt * promotionPercantage[callerIndex])/100 */\n      swap1\n      pop\n        /* \"tronbox/contracts/SmartGenie.sol\":25234:25246  bool success */\n      0x00\n        /* \"tronbox/contracts/SmartGenie.sol\":25268:25278  msg.sender */\n      caller\n        /* \"tronbox/contracts/SmartGenie.sol\":25251:25286  (address(uint160(msg.sender))).call */\n      0xffffffffffffffffffffffffffffffffffffffff\n      and\n        /* \"tronbox/contracts/SmartGenie.sol\":25294:25311  maxEligibleAmount */\n      dup3\n        /* \"tronbox/contracts/SmartGenie.sol\":25251:25316  (address(uint160(msg.sender))).call{value: maxEligibleAmount}(\"\") */\n      mload(0x40)\n      tag_223\n      swap1\n      tag_147\n      jump\t// in\n    tag_223:\n      0x00\n      mload(0x40)\n      dup1\n      dup4\n      sub\n      dup2\n      dup6\n      dup8\n      gas\n      call\n      swap3\n      pop\n      pop\n      pop\n      returndatasize\n      dup1\n      0x00\n      dup2\n      eq\n      tag_226\n      jumpi\n      mload(0x40)\n      swap2\n      pop\n      and(add(returndatasize, 0x3f), not(0x1f))\n      dup3\n      add\n      0x40\n      mstore\n      returndatasize\n      dup3\n      mstore\n      returndatasize\n      0x00\n      0x20\n      dup5\n      add\n      returndatacopy\n      jump(tag_225)\n    tag_226:\n      0x60\n      swap2\n      pop\n    tag_225:\n      pop\n        /* \"tronbox/contracts/SmartGenie.sol\":25233:25316  (bool success,) = (address(uint160(msg.sender))).call{value: maxEligibleAmount}(\"\") */\n      pop\n      swap1\n      pop\n        /* \"tronbox/contracts/SmartGenie.sol\":25334:25341  success */\n      dup1\n        /* \"tronbox/contracts/SmartGenie.sol\":25326:25365  require(success, 'Transaction failed!') */\n      tag_227\n      jumpi\n      mload(0x40)\n      0x08c379a000000000000000000000000000000000000000000000000000000000\n      dup2\n      mstore\n      0x04\n      add\n      tag_228\n      swap1\n      tag_153\n      jump\t// in\n    tag_228:\n      mload(0x40)\n      dup1\n      swap2\n      sub\n      swap1\n      revert\n    tag_227:\n        /* \"tronbox/contracts/SmartGenie.sol\":25382:25389  success */\n      dup1\n        /* \"tronbox/contracts/SmartGenie.sol\":25375:25389  return success */\n      swap5\n      pop\n      pop\n      pop\n      pop\n      pop\n        /* \"tronbox/contracts/SmartGenie.sol\":24612:25396  function withdrawPromotion() public returns (bool) {... */\n      swap1\n      jump\t// out\n        /* \"tronbox/contracts/SmartGenie.sol\":1176:1216  mapping(uint => address) public userList */\n    tag_98:\n      mstore(0x20, 0x0b)\n      dup1\n      0x00\n      mstore\n      keccak256(0x00, 0x40)\n      0x00\n      swap2\n      pop\n      sload\n      swap1\n      0x0100\n      exp\n      swap1\n      div\n      0xffffffffffffffffffffffffffffffffffffffff\n      and\n      dup2\n      jump\t// out\n        /* \"tronbox/contracts/SmartGenie.sol\":25446:25858  function withdrawSplPromotion() public returns (bool) {... */\n    tag_102:\n        /* \"tronbox/contracts/SmartGenie.sol\":25494:25498  bool */\n      0x00\n        /* \"tronbox/contracts/SmartGenie.sol\":25532:25546  splPromoWallet */\n      0x02\n      0x00\n      swap1\n      sload\n      swap1\n      0x0100\n      exp\n      swap1\n      div\n      0xffffffffffffffffffffffffffffffffffffffff\n      and\n        /* \"tronbox/contracts/SmartGenie.sol\":25518:25546  msg.sender == splPromoWallet */\n      0xffffffffffffffffffffffffffffffffffffffff\n      and\n        /* \"tronbox/contracts/SmartGenie.sol\":25518:25528  msg.sender */\n      caller\n        /* \"tronbox/contracts/SmartGenie.sol\":25518:25546  msg.sender == splPromoWallet */\n      0xffffffffffffffffffffffffffffffffffffffff\n      and\n      eq\n        /* \"tronbox/contracts/SmartGenie.sol\":25510:25565  require(msg.sender == splPromoWallet, \"Invalid caller\") */\n      tag_230\n      jumpi\n      mload(0x40)\n      0x08c379a000000000000000000000000000000000000000000000000000000000\n      dup2\n      mstore\n      0x04\n      add\n      tag_231\n      swap1\n      tag_145\n      jump\t// in\n    tag_231:\n      mload(0x40)\n      dup1\n      swap2\n      sub\n      swap1\n      revert\n    tag_230:\n        /* \"tronbox/contracts/SmartGenie.sol\":25699:25711  bool success */\n      0x00\n        /* \"tronbox/contracts/SmartGenie.sol\":25733:25747  splPromoWallet */\n      0x02\n      0x00\n      swap1\n      sload\n      swap1\n      0x0100\n      exp\n      swap1\n      div\n      0xffffffffffffffffffffffffffffffffffffffff\n      and\n        /* \"tronbox/contracts/SmartGenie.sol\":25716:25755  (address(uint160(splPromoWallet))).call */\n      0xffffffffffffffffffffffffffffffffffffffff\n      and\n        /* \"tronbox/contracts/SmartGenie.sol\":25763:25773  splPromAmt */\n      sload(0x10)\n        /* \"tronbox/contracts/SmartGenie.sol\":25716:25778  (address(uint160(splPromoWallet))).call{value: splPromAmt}(\"\") */\n      mload(0x40)\n      tag_232\n      swap1\n      tag_147\n      jump\t// in\n    tag_232:\n      0x00\n      mload(0x40)\n      dup1\n      dup4\n      sub\n      dup2\n      dup6\n      dup8\n      gas\n      call\n      swap3\n      pop\n      pop\n      pop\n      returndatasize\n      dup1\n      0x00\n      dup2\n      eq\n      tag_235\n      jumpi\n      mload(0x40)\n      swap2\n      pop\n      and(add(returndatasize, 0x3f), not(0x1f))\n      dup3\n      add\n      0x40\n      mstore\n      returndatasize\n      dup3\n      mstore\n      returndatasize\n      0x00\n      0x20\n      dup5\n      add\n      returndatacopy\n      jump(tag_234)\n    tag_235:\n      0x60\n      swap2\n      pop\n    tag_234:\n      pop\n        /* \"tronbox/contracts/SmartGenie.sol\":25698:25778  (bool success,) = (address(uint160(splPromoWallet))).call{value: splPromAmt}(\"\") */\n      pop\n      swap1\n      pop\n        /* \"tronbox/contracts/SmartGenie.sol\":25796:25803  success */\n      dup1\n        /* \"tronbox/contracts/SmartGenie.sol\":25788:25827  require(success, 'Transaction failed!') */\n      tag_236\n      jumpi\n      mload(0x40)\n      0x08c379a000000000000000000000000000000000000000000000000000000000\n      dup2\n      mstore\n      0x04\n      add\n      tag_237\n      swap1\n      tag_153\n      jump\t// in\n    tag_237:\n      mload(0x40)\n      dup1\n      swap2\n      sub\n      swap1\n      revert\n    tag_236:\n        /* \"tronbox/contracts/SmartGenie.sol\":25844:25851  success */\n      dup1\n        /* \"tronbox/contracts/SmartGenie.sol\":25837:25851  return success */\n      swap2\n      pop\n      pop\n        /* \"tronbox/contracts/SmartGenie.sol\":25446:25858  function withdrawSplPromotion() public returns (bool) {... */\n      swap1\n      jump\t// out\n        /* \"tronbox/contracts/SmartGenie.sol\":1464:1490  uint public currUserID = 0 */\n    tag_106:\n      sload(0x0f)\n      dup2\n      jump\t// out\n        /* \"tronbox/contracts/SmartGenie.sol\":1127:1170  mapping(address => UserStruct) public users */\n    tag_111:\n      mstore(0x20, 0x0a)\n      dup1\n      0x00\n      mstore\n      keccak256(0x00, 0x40)\n      0x00\n      swap2\n      pop\n      swap1\n      pop\n      dup1\n      0x00\n      add\n      0x00\n      swap1\n      sload\n      swap1\n      0x0100\n      exp\n      swap1\n      div\n      0xff\n      and\n      swap1\n      dup1\n      0x01\n      add\n      sload\n      swap1\n      dup1\n      0x02\n      add\n      sload\n      swap1\n      dup1\n      0x04\n      add\n      sload\n      swap1\n      pop\n      dup5\n      jump\t// out\n        /* \"tronbox/contracts/SmartGenie.sol\":27349:27493  function getUserIncomeCount(address _user, uint256 _level) public view returns(uint256) {... */\n    tag_118:\n        /* \"tronbox/contracts/SmartGenie.sol\":27428:27435  uint256 */\n      0x00\n        /* \"tronbox/contracts/SmartGenie.sol\":27454:27459  users */\n      0x0a\n        /* \"tronbox/contracts/SmartGenie.sol\":27454:27466  users[_user] */\n      0x00\n        /* \"tronbox/contracts/SmartGenie.sol\":27460:27465  _user */\n      dup5\n        /* \"tronbox/contracts/SmartGenie.sol\":27454:27466  users[_user] */\n      0xffffffffffffffffffffffffffffffffffffffff\n      and\n      0xffffffffffffffffffffffffffffffffffffffff\n      and\n      dup2\n      mstore\n      0x20\n      add\n      swap1\n      dup2\n      mstore\n      0x20\n      add\n      0x00\n      keccak256\n        /* \"tronbox/contracts/SmartGenie.sol\":27454:27478  users[_user].incomeCount */\n      0x05\n      add\n        /* \"tronbox/contracts/SmartGenie.sol\":27454:27486  users[_user].incomeCount[_level] */\n      0x00\n        /* \"tronbox/contracts/SmartGenie.sol\":27479:27485  _level */\n      dup4\n        /* \"tronbox/contracts/SmartGenie.sol\":27454:27486  users[_user].incomeCount[_level] */\n      dup2\n      mstore\n      0x20\n      add\n      swap1\n      dup2\n      mstore\n      0x20\n      add\n      0x00\n      keccak256\n      sload\n        /* \"tronbox/contracts/SmartGenie.sol\":27447:27486  return users[_user].incomeCount[_level] */\n      swap1\n      pop\n        /* \"tronbox/contracts/SmartGenie.sol\":27349:27493  function getUserIncomeCount(address _user, uint256 _level) public view returns(uint256) {... */\n      swap3\n      swap2\n      pop\n      pop\n      jump\t// out\n        /* \"tronbox/contracts/SmartGenie.sol\":1222:1289  mapping(uint256 => mapping(address => uint256)) public levelCounter */\n    tag_123:\n      mstore(0x20, 0x0c)\n      dup2\n      0x00\n      mstore\n      mstore(0x20, keccak256(0x00, 0x40))\n      dup1\n      0x00\n      mstore\n      keccak256(0x00, 0x40)\n      0x00\n      swap2\n      pop\n      swap2\n      pop\n      pop\n      sload\n      dup2\n      jump\t// out\n        /* \"tronbox/contracts/SmartGenie.sol\":664:688  address public ursWallet */\n    tag_127:\n      0x01\n      0x00\n      swap1\n      sload\n      swap1\n      0x0100\n      exp\n      swap1\n      div\n      0xffffffffffffffffffffffffffffffffffffffff\n      and\n      dup2\n      jump\t// out\n        /* \"tronbox/contracts/SmartGenie.sol\":26361:26785  function updatePromotionWallet(address walletAddr, uint index) onlyAdmin public {... */\n    tag_132:\n        /* \"tronbox/contracts/SmartGenie.sol\":2150:2161  adminWallet */\n      0x00\n      dup1\n      sload\n      swap1\n      0x0100\n      exp\n      swap1\n      div\n      0xffffffffffffffffffffffffffffffffffffffff\n      and\n        /* \"tronbox/contracts/SmartGenie.sol\":2136:2161  msg.sender == adminWallet */\n      0xffffffffffffffffffffffffffffffffffffffff\n      and\n        /* \"tronbox/contracts/SmartGenie.sol\":2136:2146  msg.sender */\n      caller\n        /* \"tronbox/contracts/SmartGenie.sol\":2136:2161  msg.sender == adminWallet */\n      0xffffffffffffffffffffffffffffffffffffffff\n      and\n      eq\n        /* \"tronbox/contracts/SmartGenie.sol\":2128:2186  require(msg.sender == adminWallet, \"Caller is not Admin.\") */\n      tag_240\n      jumpi\n      mload(0x40)\n      0x08c379a000000000000000000000000000000000000000000000000000000000\n      dup2\n      mstore\n      0x04\n      add\n      tag_241\n      swap1\n      tag_242\n      jump\t// in\n    tag_241:\n      mload(0x40)\n      dup1\n      swap2\n      sub\n      swap1\n      revert\n    tag_240:\n        /* \"tronbox/contracts/SmartGenie.sol\":26473:26484  adminWallet */\n      0x00\n      dup1\n      sload\n      swap1\n      0x0100\n      exp\n      swap1\n      div\n      0xffffffffffffffffffffffffffffffffffffffff\n      and\n        /* \"tronbox/contracts/SmartGenie.sol\":26459:26484  msg.sender == adminWallet */\n      0xffffffffffffffffffffffffffffffffffffffff\n      and\n        /* \"tronbox/contracts/SmartGenie.sol\":26459:26469  msg.sender */\n      caller\n        /* \"tronbox/contracts/SmartGenie.sol\":26459:26484  msg.sender == adminWallet */\n      0xffffffffffffffffffffffffffffffffffffffff\n      and\n      eq\n        /* \"tronbox/contracts/SmartGenie.sol\":26451:26503  require(msg.sender == adminWallet, \"Invalid caller\") */\n      tag_244\n      jumpi\n      mload(0x40)\n      0x08c379a000000000000000000000000000000000000000000000000000000000\n      dup2\n      mstore\n      0x04\n      add\n      tag_245\n      swap1\n      tag_145\n      jump\t// in\n    tag_245:\n      mload(0x40)\n      dup1\n      swap2\n      sub\n      swap1\n      revert\n    tag_244:\n        /* \"tronbox/contracts/SmartGenie.sol\":26530:26531  5 */\n      0x05\n        /* \"tronbox/contracts/SmartGenie.sol\":26521:26526  index */\n      dup2\n        /* \"tronbox/contracts/SmartGenie.sol\":26521:26531  index <= 5 */\n      gt\n      iszero\n        /* \"tronbox/contracts/SmartGenie.sol\":26513:26549  require(index <= 5, \"Invalid Index\") */\n      tag_246\n      jumpi\n      mload(0x40)\n      0x08c379a000000000000000000000000000000000000000000000000000000000\n      dup2\n      mstore\n      0x04\n      add\n      tag_247\n      swap1\n      tag_248\n      jump\t// in\n    tag_247:\n      mload(0x40)\n      dup1\n      swap2\n      sub\n      swap1\n      revert\n    tag_246:\n        /* \"tronbox/contracts/SmartGenie.sol\":26570:26571  3 */\n      0x03\n        /* \"tronbox/contracts/SmartGenie.sol\":26562:26567  index */\n      dup2\n        /* \"tronbox/contracts/SmartGenie.sol\":26562:26571  index <=3 */\n      gt\n        /* \"tronbox/contracts/SmartGenie.sol\":26559:26779  if(index <=3 ) {... */\n      tag_249\n      jumpi\n        /* \"tronbox/contracts/SmartGenie.sol\":26616:26626  walletAddr */\n      dup2\n        /* \"tronbox/contracts/SmartGenie.sol\":26588:26604  promotionWallets */\n      0x04\n        /* \"tronbox/contracts/SmartGenie.sol\":26611:26612  1 */\n      0x01\n        /* \"tronbox/contracts/SmartGenie.sol\":26605:26610  index */\n      dup4\n        /* \"tronbox/contracts/SmartGenie.sol\":26605:26612  index-1 */\n      tag_250\n      swap2\n      swap1\n      tag_251\n      jump\t// in\n    tag_250:\n        /* \"tronbox/contracts/SmartGenie.sol\":26588:26613  promotionWallets[index-1] */\n      0x04\n      dup2\n      lt\n      tag_252\n      jumpi\n      tag_253\n      tag_211\n      jump\t// in\n    tag_253:\n    tag_252:\n      add\n      0x00\n        /* \"tronbox/contracts/SmartGenie.sol\":26588:26626  promotionWallets[index-1] = walletAddr */\n      0x0100\n      exp\n      dup2\n      sload\n      dup2\n      0xffffffffffffffffffffffffffffffffffffffff\n      mul\n      not\n      and\n      swap1\n      dup4\n      0xffffffffffffffffffffffffffffffffffffffff\n      and\n      mul\n      or\n      swap1\n      sstore\n      pop\n        /* \"tronbox/contracts/SmartGenie.sol\":26559:26779  if(index <=3 ) {... */\n      jump(tag_255)\n    tag_249:\n        /* \"tronbox/contracts/SmartGenie.sol\":26656:26657  4 */\n      0x04\n        /* \"tronbox/contracts/SmartGenie.sol\":26647:26652  index */\n      dup2\n        /* \"tronbox/contracts/SmartGenie.sol\":26647:26657  index == 4 */\n      eq\n        /* \"tronbox/contracts/SmartGenie.sol\":26643:26779  if (index == 4) {... */\n      iszero\n      tag_256\n      jumpi\n        /* \"tronbox/contracts/SmartGenie.sol\":26690:26700  walletAddr */\n      dup2\n        /* \"tronbox/contracts/SmartGenie.sol\":26673:26687  splPromoWallet */\n      0x02\n      0x00\n        /* \"tronbox/contracts/SmartGenie.sol\":26673:26700  splPromoWallet = walletAddr */\n      0x0100\n      exp\n      dup2\n      sload\n      dup2\n      0xffffffffffffffffffffffffffffffffffffffff\n      mul\n      not\n      and\n      swap1\n      dup4\n      0xffffffffffffffffffffffffffffffffffffffff\n      and\n      mul\n      or\n      swap1\n      sstore\n      pop\n        /* \"tronbox/contracts/SmartGenie.sol\":26643:26779  if (index == 4) {... */\n      jump(tag_257)\n    tag_256:\n        /* \"tronbox/contracts/SmartGenie.sol\":26743:26753  walletAddr */\n      dup2\n        /* \"tronbox/contracts/SmartGenie.sol\":26731:26740  ursWallet */\n      0x01\n      0x00\n        /* \"tronbox/contracts/SmartGenie.sol\":26731:26753  ursWallet = walletAddr */\n      0x0100\n      exp\n      dup2\n      sload\n      dup2\n      0xffffffffffffffffffffffffffffffffffffffff\n      mul\n      not\n      and\n      swap1\n      dup4\n      0xffffffffffffffffffffffffffffffffffffffff\n      and\n      mul\n      or\n      swap1\n      sstore\n      pop\n        /* \"tronbox/contracts/SmartGenie.sol\":26643:26779  if (index == 4) {... */\n    tag_257:\n        /* \"tronbox/contracts/SmartGenie.sol\":26559:26779  if(index <=3 ) {... */\n    tag_255:\n        /* \"tronbox/contracts/SmartGenie.sol\":26361:26785  function updatePromotionWallet(address walletAddr, uint index) onlyAdmin public {... */\n      pop\n      pop\n      jump\t// out\n        /* \"tronbox/contracts/SmartGenie.sol\":729:756  address public rewardWallet */\n    tag_135:\n      0x03\n      0x00\n      swap1\n      sload\n      swap1\n      0x0100\n      exp\n      swap1\n      div\n      0xffffffffffffffffffffffffffffffffffffffff\n      and\n      dup2\n      jump\t// out\n        /* \"tronbox/contracts/SmartGenie.sol\":5995:9110  function payment(uint _regLevel, address _user, uint256 length, bool loop, bool isCheckingUpgradeFromRenewal) internal { //4... */\n    tag_194:\n        /* \"tronbox/contracts/SmartGenie.sol\":6128:6141  address payer */\n      0x00\n        /* \"tronbox/contracts/SmartGenie.sol\":6151:6165  bool isRenewal */\n      dup1\n        /* \"tronbox/contracts/SmartGenie.sol\":6168:6173  false */\n      0x00\n        /* \"tronbox/contracts/SmartGenie.sol\":6151:6173  bool isRenewal = false */\n      swap1\n      pop\n        /* \"tronbox/contracts/SmartGenie.sol\":6183:6197  bool isSameLeg */\n      0x00\n        /* \"tronbox/contracts/SmartGenie.sol\":6215:6229  bool isPayNeed */\n      dup1\n        /* \"tronbox/contracts/SmartGenie.sol\":6232:6236  true */\n      0x01\n        /* \"tronbox/contracts/SmartGenie.sol\":6215:6236  bool isPayNeed = true */\n      swap1\n      pop\n        /* \"tronbox/contracts/SmartGenie.sol\":6246:6270  uint256 levelEligibility */\n      0x00\n        /* \"tronbox/contracts/SmartGenie.sol\":6281:6297  uint256 payLevel */\n      dup1\n        /* \"tronbox/contracts/SmartGenie.sol\":6300:6309  _regLevel */\n      dup11\n        /* \"tronbox/contracts/SmartGenie.sol\":6281:6309  uint256 payLevel = _regLevel */\n      swap1\n      pop\n        /* \"tronbox/contracts/SmartGenie.sol\":6622:6623  1 */\n      0x01\n        /* \"tronbox/contracts/SmartGenie.sol\":6612:6618  length */\n      dup10\n        /* \"tronbox/contracts/SmartGenie.sol\":6612:6623  length == 1 */\n      eq\n        /* \"tronbox/contracts/SmartGenie.sol\":6612:6663  length == 1 && isCheckingUpgradeFromRenewal == true */\n      dup1\n      iszero\n      tag_259\n      jumpi\n      pop\n        /* \"tronbox/contracts/SmartGenie.sol\":6659:6663  true */\n      0x01\n        /* \"tronbox/contracts/SmartGenie.sol\":6627:6663  isCheckingUpgradeFromRenewal == true */\n      iszero\n      iszero\n        /* \"tronbox/contracts/SmartGenie.sol\":6627:6655  isCheckingUpgradeFromRenewal */\n      dup8\n        /* \"tronbox/contracts/SmartGenie.sol\":6627:6663  isCheckingUpgradeFromRenewal == true */\n      iszero\n      iszero\n      eq\n        /* \"tronbox/contracts/SmartGenie.sol\":6612:6663  length == 1 && isCheckingUpgradeFromRenewal == true */\n    tag_259:\n        /* \"tronbox/contracts/SmartGenie.sol\":6611:6679  (length == 1 && isCheckingUpgradeFromRenewal == true) || length == 2 */\n      dup1\n      tag_260\n      jumpi\n      pop\n        /* \"tronbox/contracts/SmartGenie.sol\":6678:6679  2 */\n      0x02\n        /* \"tronbox/contracts/SmartGenie.sol\":6668:6674  length */\n      dup10\n        /* \"tronbox/contracts/SmartGenie.sol\":6668:6679  length == 2 */\n      eq\n        /* \"tronbox/contracts/SmartGenie.sol\":6611:6679  (length == 1 && isCheckingUpgradeFromRenewal == true) || length == 2 */\n    tag_260:\n        /* \"tronbox/contracts/SmartGenie.sol\":6607:7401  if ((length == 1 && isCheckingUpgradeFromRenewal == true) || length == 2) {... */\n      iszero\n      tag_261\n      jumpi\n        /* \"tronbox/contracts/SmartGenie.sol\":6725:6796  levelUpgrade (_regLevel, _user, levelEligibility, isSameLeg, isPayNeed) */\n      tag_262\n        /* \"tronbox/contracts/SmartGenie.sol\":6739:6748  _regLevel */\n      dup12\n        /* \"tronbox/contracts/SmartGenie.sol\":6750:6755  _user */\n      dup12\n        /* \"tronbox/contracts/SmartGenie.sol\":6757:6773  levelEligibility */\n      dup5\n        /* \"tronbox/contracts/SmartGenie.sol\":6775:6784  isSameLeg */\n      dup8\n        /* \"tronbox/contracts/SmartGenie.sol\":6786:6795  isPayNeed */\n      dup8\n        /* \"tronbox/contracts/SmartGenie.sol\":6725:6737  levelUpgrade */\n      tag_263\n        /* \"tronbox/contracts/SmartGenie.sol\":6725:6796  levelUpgrade (_regLevel, _user, levelEligibility, isSameLeg, isPayNeed) */\n      jump\t// in\n    tag_262:\n        /* \"tronbox/contracts/SmartGenie.sol\":6693:6796  (payer, isPayNeed, isSameLeg) = levelUpgrade (_regLevel, _user, levelEligibility, isSameLeg, isPayNeed) */\n      dup1\n      swap7\n      pop\n      dup2\n      swap6\n      pop\n      dup3\n      swap9\n      pop\n      pop\n      pop\n      pop\n        /* \"tronbox/contracts/SmartGenie.sol\":6829:6830  1 */\n      0x01\n        /* \"tronbox/contracts/SmartGenie.sol\":6819:6828  _regLevel */\n      dup12\n        /* \"tronbox/contracts/SmartGenie.sol\":6819:6830  _regLevel+1 */\n      tag_264\n      swap2\n      swap1\n      tag_188\n      jump\t// in\n    tag_264:\n        /* \"tronbox/contracts/SmartGenie.sol\":6808:6830  payLevel = _regLevel+1 */\n      swap1\n      pop\n        /* \"tronbox/contracts/SmartGenie.sol\":6607:7401  if ((length == 1 && isCheckingUpgradeFromRenewal == true) || length == 2) {... */\n      jump(tag_265)\n    tag_261:\n        /* \"tronbox/contracts/SmartGenie.sol\":6896:6898  20 */\n      0x14\n        /* \"tronbox/contracts/SmartGenie.sol\":6886:6892  length */\n      dup10\n        /* \"tronbox/contracts/SmartGenie.sol\":6886:6898  length >= 20 */\n      lt\n      iszero\n        /* \"tronbox/contracts/SmartGenie.sol\":6886:6918  length >= 20 && length % 20 == 0 */\n      dup1\n      iszero\n      tag_266\n      jumpi\n      pop\n        /* \"tronbox/contracts/SmartGenie.sol\":6917:6918  0 */\n      0x00\n        /* \"tronbox/contracts/SmartGenie.sol\":6911:6913  20 */\n      0x14\n        /* \"tronbox/contracts/SmartGenie.sol\":6902:6908  length */\n      dup11\n        /* \"tronbox/contracts/SmartGenie.sol\":6902:6913  length % 20 */\n      tag_267\n      swap2\n      swap1\n      tag_268\n      jump\t// in\n    tag_267:\n        /* \"tronbox/contracts/SmartGenie.sol\":6902:6918  length % 20 == 0 */\n      eq\n        /* \"tronbox/contracts/SmartGenie.sol\":6886:6918  length >= 20 && length % 20 == 0 */\n    tag_266:\n        /* \"tronbox/contracts/SmartGenie.sol\":6882:7401  if (length >= 20 && length % 20 == 0) { ... */\n      iszero\n      tag_269\n      jumpi\n        /* \"tronbox/contracts/SmartGenie.sol\":6942:6954  rewardWallet */\n      0x03\n      0x00\n      swap1\n      sload\n      swap1\n      0x0100\n      exp\n      swap1\n      div\n      0xffffffffffffffffffffffffffffffffffffffff\n      and\n        /* \"tronbox/contracts/SmartGenie.sol\":6934:6954  payer = rewardWallet */\n      swap6\n      pop\n        /* \"tronbox/contracts/SmartGenie.sol\":6882:7401  if (length >= 20 && length % 20 == 0) { ... */\n      jump(tag_270)\n    tag_269:\n        /* \"tronbox/contracts/SmartGenie.sol\":7019:7020  4 */\n      0x04\n        /* \"tronbox/contracts/SmartGenie.sol\":7009:7015  length */\n      dup10\n        /* \"tronbox/contracts/SmartGenie.sol\":7009:7020  length >= 4 */\n      lt\n      iszero\n        /* \"tronbox/contracts/SmartGenie.sol\":7009:7039  length >= 4 && length % 4 == 0 */\n      dup1\n      iszero\n      tag_271\n      jumpi\n      pop\n        /* \"tronbox/contracts/SmartGenie.sol\":7038:7039  0 */\n      0x00\n        /* \"tronbox/contracts/SmartGenie.sol\":7033:7034  4 */\n      0x04\n        /* \"tronbox/contracts/SmartGenie.sol\":7024:7030  length */\n      dup11\n        /* \"tronbox/contracts/SmartGenie.sol\":7024:7034  length % 4 */\n      tag_272\n      swap2\n      swap1\n      tag_268\n      jump\t// in\n    tag_272:\n        /* \"tronbox/contracts/SmartGenie.sol\":7024:7039  length % 4 == 0 */\n      eq\n        /* \"tronbox/contracts/SmartGenie.sol\":7009:7039  length >= 4 && length % 4 == 0 */\n    tag_271:\n        /* \"tronbox/contracts/SmartGenie.sol\":7005:7401  if (length >= 4 && length % 4 == 0) { ... */\n      iszero\n      tag_273\n      jumpi\n        /* \"tronbox/contracts/SmartGenie.sol\":7196:7250  levelRenewal(loop, _user, _regLevel, levelEligibility) */\n      tag_274\n        /* \"tronbox/contracts/SmartGenie.sol\":7209:7213  loop */\n      dup9\n        /* \"tronbox/contracts/SmartGenie.sol\":7215:7220  _user */\n      dup12\n        /* \"tronbox/contracts/SmartGenie.sol\":7222:7231  _regLevel */\n      dup14\n        /* \"tronbox/contracts/SmartGenie.sol\":7233:7249  levelEligibility */\n      dup6\n        /* \"tronbox/contracts/SmartGenie.sol\":7196:7208  levelRenewal */\n      tag_275\n        /* \"tronbox/contracts/SmartGenie.sol\":7196:7250  levelRenewal(loop, _user, _regLevel, levelEligibility) */\n      jump\t// in\n    tag_274:\n        /* \"tronbox/contracts/SmartGenie.sol\":7175:7250  (payer, isRenewal) = levelRenewal(loop, _user, _regLevel, levelEligibility) */\n      dup1\n      swap7\n      pop\n      dup2\n      swap8\n      pop\n      pop\n      pop\n        /* \"tronbox/contracts/SmartGenie.sol\":7274:7283  _regLevel */\n      dup11\n        /* \"tronbox/contracts/SmartGenie.sol\":7263:7283  payLevel = _regLevel */\n      swap1\n      pop\n        /* \"tronbox/contracts/SmartGenie.sol\":7005:7401  if (length >= 4 && length % 4 == 0) { ... */\n      jump(tag_276)\n    tag_273:\n        /* \"tronbox/contracts/SmartGenie.sol\":7357:7365  userList */\n      0x0b\n        /* \"tronbox/contracts/SmartGenie.sol\":7357:7390  userList[users[_user].referrerID] */\n      0x00\n        /* \"tronbox/contracts/SmartGenie.sol\":7366:7371  users */\n      0x0a\n        /* \"tronbox/contracts/SmartGenie.sol\":7366:7378  users[_user] */\n      0x00\n        /* \"tronbox/contracts/SmartGenie.sol\":7372:7377  _user */\n      dup14\n        /* \"tronbox/contracts/SmartGenie.sol\":7366:7378  users[_user] */\n      0xffffffffffffffffffffffffffffffffffffffff\n      and\n      0xffffffffffffffffffffffffffffffffffffffff\n      and\n      dup2\n      mstore\n      0x20\n      add\n      swap1\n      dup2\n      mstore\n      0x20\n      add\n      0x00\n      keccak256\n        /* \"tronbox/contracts/SmartGenie.sol\":7366:7389  users[_user].referrerID */\n      0x02\n      add\n      sload\n        /* \"tronbox/contracts/SmartGenie.sol\":7357:7390  userList[users[_user].referrerID] */\n      dup2\n      mstore\n      0x20\n      add\n      swap1\n      dup2\n      mstore\n      0x20\n      add\n      0x00\n      keccak256\n      0x00\n      swap1\n      sload\n      swap1\n      0x0100\n      exp\n      swap1\n      div\n      0xffffffffffffffffffffffffffffffffffffffff\n      and\n        /* \"tronbox/contracts/SmartGenie.sol\":7349:7390  payer = userList[users[_user].referrerID] */\n      swap6\n      pop\n        /* \"tronbox/contracts/SmartGenie.sol\":7005:7401  if (length >= 4 && length % 4 == 0) { ... */\n    tag_276:\n        /* \"tronbox/contracts/SmartGenie.sol\":6882:7401  if (length >= 20 && length % 20 == 0) { ... */\n    tag_270:\n        /* \"tronbox/contracts/SmartGenie.sol\":6607:7401  if ((length == 1 && isCheckingUpgradeFromRenewal == true) || length == 2) {... */\n    tag_265:\n        /* \"tronbox/contracts/SmartGenie.sol\":7512:7521  isPayNeed */\n      dup3\n        /* \"tronbox/contracts/SmartGenie.sol\":7512:7545  isPayNeed || payer == userList[1] */\n      dup1\n      tag_277\n      jumpi\n      pop\n        /* \"tronbox/contracts/SmartGenie.sol\":7534:7542  userList */\n      0x0b\n        /* \"tronbox/contracts/SmartGenie.sol\":7534:7545  userList[1] */\n      0x00\n        /* \"tronbox/contracts/SmartGenie.sol\":7543:7544  1 */\n      0x01\n        /* \"tronbox/contracts/SmartGenie.sol\":7534:7545  userList[1] */\n      dup2\n      mstore\n      0x20\n      add\n      swap1\n      dup2\n      mstore\n      0x20\n      add\n      0x00\n      keccak256\n      0x00\n      swap1\n      sload\n      swap1\n      0x0100\n      exp\n      swap1\n      div\n      0xffffffffffffffffffffffffffffffffffffffff\n      and\n        /* \"tronbox/contracts/SmartGenie.sol\":7525:7545  payer == userList[1] */\n      0xffffffffffffffffffffffffffffffffffffffff\n      and\n        /* \"tronbox/contracts/SmartGenie.sol\":7525:7530  payer */\n      dup7\n        /* \"tronbox/contracts/SmartGenie.sol\":7525:7545  payer == userList[1] */\n      0xffffffffffffffffffffffffffffffffffffffff\n      and\n      eq\n        /* \"tronbox/contracts/SmartGenie.sol\":7512:7545  isPayNeed || payer == userList[1] */\n    tag_277:\n        /* \"tronbox/contracts/SmartGenie.sol\":7507:9104  if ((isPayNeed || payer == userList[1])) {... */\n      iszero\n      tag_278\n      jumpi\n        /* \"tronbox/contracts/SmartGenie.sol\":7579:7643  checkLoopRequired(payer, payLevel, length, isRenewal, isSameLeg) */\n      tag_279\n        /* \"tronbox/contracts/SmartGenie.sol\":7597:7602  payer */\n      dup7\n        /* \"tronbox/contracts/SmartGenie.sol\":7604:7612  payLevel */\n      dup3\n        /* \"tronbox/contracts/SmartGenie.sol\":7614:7620  length */\n      dup12\n        /* \"tronbox/contracts/SmartGenie.sol\":7622:7631  isRenewal */\n      dup9\n        /* \"tronbox/contracts/SmartGenie.sol\":7633:7642  isSameLeg */\n      dup9\n        /* \"tronbox/contracts/SmartGenie.sol\":7579:7596  checkLoopRequired */\n      tag_280\n        /* \"tronbox/contracts/SmartGenie.sol\":7579:7643  checkLoopRequired(payer, payLevel, length, isRenewal, isSameLeg) */\n      jump\t// in\n    tag_279:\n        /* \"tronbox/contracts/SmartGenie.sol\":7562:7643  (loop, length) = checkLoopRequired(payer, payLevel, length, isRenewal, isSameLeg) */\n      dup1\n      swap11\n      pop\n      dup2\n      swap10\n      pop\n      pop\n      pop\n        /* \"tronbox/contracts/SmartGenie.sol\":7661:7665  loop */\n      dup8\n        /* \"tronbox/contracts/SmartGenie.sol\":7658:9094  if(loop) {  ... */\n      iszero\n      tag_281\n      jumpi\n        /* \"tronbox/contracts/SmartGenie.sol\":7770:7779  isPayNeed */\n      dup3\n        /* \"tronbox/contracts/SmartGenie.sol\":7770:7793  isPayNeed && !isSameLeg */\n      dup1\n      iszero\n      tag_282\n      jumpi\n      pop\n        /* \"tronbox/contracts/SmartGenie.sol\":7784:7793  isSameLeg */\n      dup4\n        /* \"tronbox/contracts/SmartGenie.sol\":7783:7793  !isSameLeg */\n      iszero\n        /* \"tronbox/contracts/SmartGenie.sol\":7770:7793  isPayNeed && !isSameLeg */\n    tag_282:\n        /* \"tronbox/contracts/SmartGenie.sol\":7770:7806  isPayNeed && !isSameLeg && length==2 */\n      dup1\n      iszero\n      tag_283\n      jumpi\n      pop\n        /* \"tronbox/contracts/SmartGenie.sol\":7805:7806  2 */\n      0x02\n        /* \"tronbox/contracts/SmartGenie.sol\":7797:7803  length */\n      dup10\n        /* \"tronbox/contracts/SmartGenie.sol\":7797:7806  length==2 */\n      eq\n        /* \"tronbox/contracts/SmartGenie.sol\":7770:7806  isPayNeed && !isSameLeg && length==2 */\n    tag_283:\n        /* \"tronbox/contracts/SmartGenie.sol\":7767:7869  if(isPayNeed && !isSameLeg && length==2) {... */\n      iszero\n      tag_284\n      jumpi\n        /* \"tronbox/contracts/SmartGenie.sol\":7842:7850  payLevel */\n      dup1\n        /* \"tronbox/contracts/SmartGenie.sol\":7830:7850  _regLevel = payLevel */\n      swap11\n      pop\n        /* \"tronbox/contracts/SmartGenie.sol\":7767:7869  if(isPayNeed && !isSameLeg && length==2) {... */\n    tag_284:\n        /* \"tronbox/contracts/SmartGenie.sol\":7946:7955  isPayNeed */\n      dup3\n        /* \"tronbox/contracts/SmartGenie.sol\":7946:7969  isPayNeed && !isSameLeg */\n      dup1\n      iszero\n      tag_285\n      jumpi\n      pop\n        /* \"tronbox/contracts/SmartGenie.sol\":7960:7969  isSameLeg */\n      dup4\n        /* \"tronbox/contracts/SmartGenie.sol\":7959:7969  !isSameLeg */\n      iszero\n        /* \"tronbox/contracts/SmartGenie.sol\":7946:7969  isPayNeed && !isSameLeg */\n    tag_285:\n        /* \"tronbox/contracts/SmartGenie.sol\":7946:7984  isPayNeed && !isSameLeg && length == 4 */\n      dup1\n      iszero\n      tag_286\n      jumpi\n      pop\n        /* \"tronbox/contracts/SmartGenie.sol\":7983:7984  4 */\n      0x04\n        /* \"tronbox/contracts/SmartGenie.sol\":7973:7979  length */\n      dup10\n        /* \"tronbox/contracts/SmartGenie.sol\":7973:7984  length == 4 */\n      eq\n        /* \"tronbox/contracts/SmartGenie.sol\":7946:7984  isPayNeed && !isSameLeg && length == 4 */\n    tag_286:\n        /* \"tronbox/contracts/SmartGenie.sol\":7946:7999  isPayNeed && !isSameLeg && length == 4 && payLevel>=1 */\n      dup1\n      iszero\n      tag_287\n      jumpi\n      pop\n        /* \"tronbox/contracts/SmartGenie.sol\":7998:7999  1 */\n      0x01\n        /* \"tronbox/contracts/SmartGenie.sol\":7988:7996  payLevel */\n      dup2\n        /* \"tronbox/contracts/SmartGenie.sol\":7988:7999  payLevel>=1 */\n      lt\n      iszero\n        /* \"tronbox/contracts/SmartGenie.sol\":7946:7999  isPayNeed && !isSameLeg && length == 4 && payLevel>=1 */\n    tag_287:\n        /* \"tronbox/contracts/SmartGenie.sol\":7943:8186  if(isPayNeed && !isSameLeg && length == 4 && payLevel>=1) {... */\n      iszero\n      tag_288\n      jumpi\n        /* \"tronbox/contracts/SmartGenie.sol\":8035:8043  payLevel */\n      dup1\n        /* \"tronbox/contracts/SmartGenie.sol\":8023:8043  _regLevel = payLevel */\n      swap11\n      pop\n        /* \"tronbox/contracts/SmartGenie.sol\":8109:8110  1 */\n      0x01\n        /* \"tronbox/contracts/SmartGenie.sol\":8074:8079  users */\n      0x0a\n        /* \"tronbox/contracts/SmartGenie.sol\":8074:8086  users[payer] */\n      0x00\n        /* \"tronbox/contracts/SmartGenie.sol\":8080:8085  payer */\n      dup9\n        /* \"tronbox/contracts/SmartGenie.sol\":8074:8086  users[payer] */\n      0xffffffffffffffffffffffffffffffffffffffff\n      and\n      0xffffffffffffffffffffffffffffffffffffffff\n      and\n      dup2\n      mstore\n      0x20\n      add\n      swap1\n      dup2\n      mstore\n      0x20\n      add\n      0x00\n      keccak256\n        /* \"tronbox/contracts/SmartGenie.sol\":8074:8098  users[payer].incomeCount */\n      0x05\n      add\n        /* \"tronbox/contracts/SmartGenie.sol\":8074:8108  users[payer].incomeCount[payLevel] */\n      0x00\n        /* \"tronbox/contracts/SmartGenie.sol\":8099:8107  payLevel */\n      dup4\n        /* \"tronbox/contracts/SmartGenie.sol\":8074:8108  users[payer].incomeCount[payLevel] */\n      dup2\n      mstore\n      0x20\n      add\n      swap1\n      dup2\n      mstore\n      0x20\n      add\n      0x00\n      keccak256\n      sload\n        /* \"tronbox/contracts/SmartGenie.sol\":8074:8110  users[payer].incomeCount[payLevel]+1 */\n      tag_289\n      swap2\n      swap1\n      tag_188\n      jump\t// in\n    tag_289:\n        /* \"tronbox/contracts/SmartGenie.sol\":8065:8110  length = users[payer].incomeCount[payLevel]+1 */\n      swap9\n      pop\n        /* \"tronbox/contracts/SmartGenie.sol\":8163:8167  true */\n      0x01\n        /* \"tronbox/contracts/SmartGenie.sol\":8132:8167  isCheckingUpgradeFromRenewal = true */\n      swap7\n      pop\n        /* \"tronbox/contracts/SmartGenie.sol\":7943:8186  if(isPayNeed && !isSameLeg && length == 4 && payLevel>=1) {... */\n    tag_288:\n        /* \"tronbox/contracts/SmartGenie.sol\":8218:8287  payment(_regLevel, payer, length, true, isCheckingUpgradeFromRenewal) */\n      tag_290\n        /* \"tronbox/contracts/SmartGenie.sol\":8226:8235  _regLevel */\n      dup12\n        /* \"tronbox/contracts/SmartGenie.sol\":8237:8242  payer */\n      dup8\n        /* \"tronbox/contracts/SmartGenie.sol\":8244:8250  length */\n      dup12\n        /* \"tronbox/contracts/SmartGenie.sol\":8252:8256  true */\n      0x01\n        /* \"tronbox/contracts/SmartGenie.sol\":8258:8286  isCheckingUpgradeFromRenewal */\n      dup12\n        /* \"tronbox/contracts/SmartGenie.sol\":8218:8225  payment */\n      tag_194\n        /* \"tronbox/contracts/SmartGenie.sol\":8218:8287  payment(_regLevel, payer, length, true, isCheckingUpgradeFromRenewal) */\n      jump\t// in\n    tag_290:\n        /* \"tronbox/contracts/SmartGenie.sol\":7658:9094  if(loop) {  ... */\n      jump(tag_291)\n    tag_281:\n        /* \"tronbox/contracts/SmartGenie.sol\":8366:8371  users */\n      0x0a\n        /* \"tronbox/contracts/SmartGenie.sol\":8366:8378  users[payer] */\n      0x00\n        /* \"tronbox/contracts/SmartGenie.sol\":8372:8377  payer */\n      dup8\n        /* \"tronbox/contracts/SmartGenie.sol\":8366:8378  users[payer] */\n      0xffffffffffffffffffffffffffffffffffffffff\n      and\n      0xffffffffffffffffffffffffffffffffffffffff\n      and\n      dup2\n      mstore\n      0x20\n      add\n      swap1\n      dup2\n      mstore\n      0x20\n      add\n      0x00\n      keccak256\n        /* \"tronbox/contracts/SmartGenie.sol\":8366:8386  users[payer].isExist */\n      0x00\n      add\n      0x00\n      swap1\n      sload\n      swap1\n      0x0100\n      exp\n      swap1\n      div\n      0xff\n      and\n        /* \"tronbox/contracts/SmartGenie.sol\":8362:8407  if(!users[payer].isExist) payer = userList[1] */\n      tag_292\n      jumpi\n        /* \"tronbox/contracts/SmartGenie.sol\":8396:8404  userList */\n      0x0b\n        /* \"tronbox/contracts/SmartGenie.sol\":8396:8407  userList[1] */\n      0x00\n        /* \"tronbox/contracts/SmartGenie.sol\":8405:8406  1 */\n      0x01\n        /* \"tronbox/contracts/SmartGenie.sol\":8396:8407  userList[1] */\n      dup2\n      mstore\n      0x20\n      add\n      swap1\n      dup2\n      mstore\n      0x20\n      add\n      0x00\n      keccak256\n      0x00\n      swap1\n      sload\n      swap1\n      0x0100\n      exp\n      swap1\n      div\n      0xffffffffffffffffffffffffffffffffffffffff\n      and\n        /* \"tronbox/contracts/SmartGenie.sol\":8388:8407  payer = userList[1] */\n      swap6\n      pop\n        /* \"tronbox/contracts/SmartGenie.sol\":8362:8407  if(!users[payer].isExist) payer = userList[1] */\n    tag_292:\n        /* \"tronbox/contracts/SmartGenie.sol\":8513:8514  1 */\n      0x01\n        /* \"tronbox/contracts/SmartGenie.sol\":8478:8483  users */\n      0x0a\n        /* \"tronbox/contracts/SmartGenie.sol\":8478:8490  users[payer] */\n      0x00\n        /* \"tronbox/contracts/SmartGenie.sol\":8484:8489  payer */\n      dup9\n        /* \"tronbox/contracts/SmartGenie.sol\":8478:8490  users[payer] */\n      0xffffffffffffffffffffffffffffffffffffffff\n      and\n      0xffffffffffffffffffffffffffffffffffffffff\n      and\n      dup2\n      mstore\n      0x20\n      add\n      swap1\n      dup2\n      mstore\n      0x20\n      add\n      0x00\n      keccak256\n        /* \"tronbox/contracts/SmartGenie.sol\":8478:8502  users[payer].incomeCount */\n      0x05\n      add\n        /* \"tronbox/contracts/SmartGenie.sol\":8478:8512  users[payer].incomeCount[payLevel] */\n      0x00\n        /* \"tronbox/contracts/SmartGenie.sol\":8503:8511  payLevel */\n      dup4\n        /* \"tronbox/contracts/SmartGenie.sol\":8478:8512  users[payer].incomeCount[payLevel] */\n      dup2\n      mstore\n      0x20\n      add\n      swap1\n      dup2\n      mstore\n      0x20\n      add\n      0x00\n      keccak256\n      sload\n        /* \"tronbox/contracts/SmartGenie.sol\":8478:8514  users[payer].incomeCount[payLevel]+1 */\n      tag_293\n      swap2\n      swap1\n      tag_188\n      jump\t// in\n    tag_293:\n        /* \"tronbox/contracts/SmartGenie.sol\":8442:8447  users */\n      0x0a\n        /* \"tronbox/contracts/SmartGenie.sol\":8442:8454  users[payer] */\n      0x00\n        /* \"tronbox/contracts/SmartGenie.sol\":8448:8453  payer */\n      dup9\n        /* \"tronbox/contracts/SmartGenie.sol\":8442:8454  users[payer] */\n      0xffffffffffffffffffffffffffffffffffffffff\n      and\n      0xffffffffffffffffffffffffffffffffffffffff\n      and\n      dup2\n      mstore\n      0x20\n      add\n      swap1\n      dup2\n      mstore\n      0x20\n      add\n      0x00\n      keccak256\n        /* \"tronbox/contracts/SmartGenie.sol\":8442:8466  users[payer].incomeCount */\n      0x05\n      add\n        /* \"tronbox/contracts/SmartGenie.sol\":8442:8476  users[payer].incomeCount[payLevel] */\n      0x00\n        /* \"tronbox/contracts/SmartGenie.sol\":8467:8475  payLevel */\n      dup4\n        /* \"tronbox/contracts/SmartGenie.sol\":8442:8476  users[payer].incomeCount[payLevel] */\n      dup2\n      mstore\n      0x20\n      add\n      swap1\n      dup2\n      mstore\n      0x20\n      add\n      0x00\n      keccak256\n        /* \"tronbox/contracts/SmartGenie.sol\":8442:8514  users[payer].incomeCount[payLevel]= users[payer].incomeCount[payLevel]+1 */\n      dup2\n      swap1\n      sstore\n      pop\n        /* \"tronbox/contracts/SmartGenie.sol\":8653:8665  bool success */\n      0x00\n        /* \"tronbox/contracts/SmartGenie.sol\":8687:8692  payer */\n      dup7\n        /* \"tronbox/contracts/SmartGenie.sol\":8670:8700  (address(uint160(payer))).call */\n      0xffffffffffffffffffffffffffffffffffffffff\n      and\n        /* \"tronbox/contracts/SmartGenie.sol\":8708:8719  LEVEL_PRICE */\n      0x09\n        /* \"tronbox/contracts/SmartGenie.sol\":8708:8729  LEVEL_PRICE[payLevel] */\n      0x00\n        /* \"tronbox/contracts/SmartGenie.sol\":8720:8728  payLevel */\n      dup5\n        /* \"tronbox/contracts/SmartGenie.sol\":8708:8729  LEVEL_PRICE[payLevel] */\n      dup2\n      mstore\n      0x20\n      add\n      swap1\n      dup2\n      mstore\n      0x20\n      add\n      0x00\n      keccak256\n      sload\n        /* \"tronbox/contracts/SmartGenie.sol\":8670:8734  (address(uint160(payer))).call{value: LEVEL_PRICE[payLevel]}(\"\") */\n      mload(0x40)\n      tag_294\n      swap1\n      tag_147\n      jump\t// in\n    tag_294:\n      0x00\n      mload(0x40)\n      dup1\n      dup4\n      sub\n      dup2\n      dup6\n      dup8\n      gas\n      call\n      swap3\n      pop\n      pop\n      pop\n      returndatasize\n      dup1\n      0x00\n      dup2\n      eq\n      tag_297\n      jumpi\n      mload(0x40)\n      swap2\n      pop\n      and(add(returndatasize, 0x3f), not(0x1f))\n      dup3\n      add\n      0x40\n      mstore\n      returndatasize\n      dup3\n      mstore\n      returndatasize\n      0x00\n      0x20\n      dup5\n      add\n      returndatacopy\n      jump(tag_296)\n    tag_297:\n      0x60\n      swap2\n      pop\n    tag_296:\n      pop\n        /* \"tronbox/contracts/SmartGenie.sol\":8652:8734  (bool success,) = (address(uint160(payer))).call{value: LEVEL_PRICE[payLevel]}(\"\") */\n      pop\n      swap1\n      pop\n        /* \"tronbox/contracts/SmartGenie.sol\":8760:8767  success */\n      dup1\n        /* \"tronbox/contracts/SmartGenie.sol\":8752:8791  require(success, 'Transaction failed!') */\n      tag_298\n      jumpi\n      mload(0x40)\n      0x08c379a000000000000000000000000000000000000000000000000000000000\n      dup2\n      mstore\n      0x04\n      add\n      tag_299\n      swap1\n      tag_153\n      jump\t// in\n    tag_299:\n      mload(0x40)\n      dup1\n      swap2\n      sub\n      swap1\n      revert\n    tag_298:\n        /* \"tronbox/contracts/SmartGenie.sol\":8814:8821  success */\n      dup1\n        /* \"tronbox/contracts/SmartGenie.sol\":8810:8936  if (success) {... */\n      iszero\n      tag_300\n      jumpi\n        /* \"tronbox/contracts/SmartGenie.sol\":8879:8889  msg.sender */\n      caller\n        /* \"tronbox/contracts/SmartGenie.sol\":8850:8917  getMoneyForLevelEvent(payer, msg.sender, payLevel, block.timestamp) */\n      0xffffffffffffffffffffffffffffffffffffffff\n      and\n        /* \"tronbox/contracts/SmartGenie.sol\":8872:8877  payer */\n      dup8\n        /* \"tronbox/contracts/SmartGenie.sol\":8850:8917  getMoneyForLevelEvent(payer, msg.sender, payLevel, block.timestamp) */\n      0xffffffffffffffffffffffffffffffffffffffff\n      and\n      0xce7dc747411ac40191c5335943fcc79d8c2d8c01ca5ae83d9fed160409fa6120\n        /* \"tronbox/contracts/SmartGenie.sol\":8891:8899  payLevel */\n      dup5\n        /* \"tronbox/contracts/SmartGenie.sol\":8901:8916  block.timestamp */\n      timestamp\n        /* \"tronbox/contracts/SmartGenie.sol\":8850:8917  getMoneyForLevelEvent(payer, msg.sender, payLevel, block.timestamp) */\n      mload(0x40)\n      tag_301\n      swap3\n      swap2\n      swap1\n      tag_302\n      jump\t// in\n    tag_301:\n      mload(0x40)\n      dup1\n      swap2\n      sub\n      swap1\n      log3\n        /* \"tronbox/contracts/SmartGenie.sol\":8810:8936  if (success) {... */\n    tag_300:\n        /* \"tronbox/contracts/SmartGenie.sol\":8957:8964  success */\n      dup1\n        /* \"tronbox/contracts/SmartGenie.sol\":8953:9080  if(!success) {... */\n      tag_303\n      jumpi\n        /* \"tronbox/contracts/SmartGenie.sol\":9023:9033  msg.sender */\n      caller\n        /* \"tronbox/contracts/SmartGenie.sol\":8993:9061  lostMoneyForLevelEvent(payer, msg.sender, payLevel, block.timestamp) */\n      0xffffffffffffffffffffffffffffffffffffffff\n      and\n        /* \"tronbox/contracts/SmartGenie.sol\":9016:9021  payer */\n      dup8\n        /* \"tronbox/contracts/SmartGenie.sol\":8993:9061  lostMoneyForLevelEvent(payer, msg.sender, payLevel, block.timestamp) */\n      0xffffffffffffffffffffffffffffffffffffffff\n      and\n      0x7df0f6bac5c770af7783500bb7f1c0d073adb11316004ba6f9f6c704af1a1aea\n        /* \"tronbox/contracts/SmartGenie.sol\":9035:9043  payLevel */\n      dup5\n        /* \"tronbox/contracts/SmartGenie.sol\":9045:9060  block.timestamp */\n      timestamp\n        /* \"tronbox/contracts/SmartGenie.sol\":8993:9061  lostMoneyForLevelEvent(payer, msg.sender, payLevel, block.timestamp) */\n      mload(0x40)\n      tag_304\n      swap3\n      swap2\n      swap1\n      tag_302\n      jump\t// in\n    tag_304:\n      mload(0x40)\n      dup1\n      swap2\n      sub\n      swap1\n      log3\n        /* \"tronbox/contracts/SmartGenie.sol\":8953:9080  if(!success) {... */\n    tag_303:\n        /* \"tronbox/contracts/SmartGenie.sol\":8309:9094  {... */\n      pop\n        /* \"tronbox/contracts/SmartGenie.sol\":7658:9094  if(loop) {  ... */\n    tag_291:\n        /* \"tronbox/contracts/SmartGenie.sol\":7507:9104  if ((isPayNeed || payer == userList[1])) {... */\n    tag_278:\n        /* \"tronbox/contracts/SmartGenie.sol\":6114:9110  { //4... */\n      pop\n      pop\n      pop\n      pop\n      pop\n      pop\n        /* \"tronbox/contracts/SmartGenie.sol\":5995:9110  function payment(uint _regLevel, address _user, uint256 length, bool loop, bool isCheckingUpgradeFromRenewal) internal { //4... */\n      pop\n      pop\n      pop\n      pop\n      pop\n      jump\t// out\n        /* \"tronbox/contracts/SmartGenie.sol\":9819:11911  function levelUpgrade(uint256 _regLevel, address _user, uint256 _levelEligibility, bool isSameLeg, bool isPayNeed ) ... */\n    tag_263:\n        /* \"tronbox/contracts/SmartGenie.sol\":9967:9974  address */\n      0x00\n        /* \"tronbox/contracts/SmartGenie.sol\":9976:9980  bool */\n      dup1\n        /* \"tronbox/contracts/SmartGenie.sol\":9982:9986  bool */\n      0x00\n        /* \"tronbox/contracts/SmartGenie.sol\":10002:10017  uint256 upLevel */\n      dup1\n        /* \"tronbox/contracts/SmartGenie.sol\":10030:10031  1 */\n      0x01\n        /* \"tronbox/contracts/SmartGenie.sol\":10020:10029  _regLevel */\n      dup10\n        /* \"tronbox/contracts/SmartGenie.sol\":10020:10031  _regLevel+1 */\n      tag_306\n      swap2\n      swap1\n      tag_188\n      jump\t// in\n    tag_306:\n        /* \"tronbox/contracts/SmartGenie.sol\":10002:10031  uint256 upLevel = _regLevel+1 */\n      swap1\n      pop\n        /* \"tronbox/contracts/SmartGenie.sol\":10045:10058  address payer */\n      0x00\n        /* \"tronbox/contracts/SmartGenie.sol\":10060:10076  address referrer */\n      dup1\n        /* \"tronbox/contracts/SmartGenie.sol\":10137:10138  2 */\n      0x02\n        /* \"tronbox/contracts/SmartGenie.sol\":10126:10133  upLevel */\n      dup4\n        /* \"tronbox/contracts/SmartGenie.sol\":10126:10138  upLevel <= 2 */\n      gt\n        /* \"tronbox/contracts/SmartGenie.sol\":10123:10242  if(upLevel <= 2) {... */\n      tag_307\n      jumpi\n        /* \"tronbox/contracts/SmartGenie.sol\":10166:10174  userList */\n      0x0b\n        /* \"tronbox/contracts/SmartGenie.sol\":10166:10199  userList[users[_user].referrerID] */\n      0x00\n        /* \"tronbox/contracts/SmartGenie.sol\":10175:10180  users */\n      0x0a\n        /* \"tronbox/contracts/SmartGenie.sol\":10175:10187  users[_user] */\n      0x00\n        /* \"tronbox/contracts/SmartGenie.sol\":10181:10186  _user */\n      dup14\n        /* \"tronbox/contracts/SmartGenie.sol\":10175:10187  users[_user] */\n      0xffffffffffffffffffffffffffffffffffffffff\n      and\n      0xffffffffffffffffffffffffffffffffffffffff\n      and\n      dup2\n      mstore\n      0x20\n      add\n      swap1\n      dup2\n      mstore\n      0x20\n      add\n      0x00\n      keccak256\n        /* \"tronbox/contracts/SmartGenie.sol\":10175:10198  users[_user].referrerID */\n      0x02\n      add\n      sload\n        /* \"tronbox/contracts/SmartGenie.sol\":10166:10199  userList[users[_user].referrerID] */\n      dup2\n      mstore\n      0x20\n      add\n      swap1\n      dup2\n      mstore\n      0x20\n      add\n      0x00\n      keccak256\n      0x00\n      swap1\n      sload\n      swap1\n      0x0100\n      exp\n      swap1\n      div\n      0xffffffffffffffffffffffffffffffffffffffff\n      and\n        /* \"tronbox/contracts/SmartGenie.sol\":10155:10199  referrer = userList[users[_user].referrerID] */\n      swap1\n      pop\n        /* \"tronbox/contracts/SmartGenie.sol\":10123:10242  if(upLevel <= 2) {... */\n      jump(tag_308)\n    tag_307:\n        /* \"tronbox/contracts/SmartGenie.sol\":10235:10240  _user */\n      dup10\n        /* \"tronbox/contracts/SmartGenie.sol\":10224:10240  referrer = _user */\n      swap1\n      pop\n        /* \"tronbox/contracts/SmartGenie.sol\":10123:10242  if(upLevel <= 2) {... */\n    tag_308:\n        /* \"tronbox/contracts/SmartGenie.sol\":10275:10332  findEligiblePayer(referrer, _regLevel, _levelEligibility) */\n      tag_309\n        /* \"tronbox/contracts/SmartGenie.sol\":10293:10301  referrer */\n      dup2\n        /* \"tronbox/contracts/SmartGenie.sol\":10303:10312  _regLevel */\n      dup13\n        /* \"tronbox/contracts/SmartGenie.sol\":10314:10331  _levelEligibility */\n      dup12\n        /* \"tronbox/contracts/SmartGenie.sol\":10275:10292  findEligiblePayer */\n      tag_310\n        /* \"tronbox/contracts/SmartGenie.sol\":10275:10332  findEligiblePayer(referrer, _regLevel, _levelEligibility) */\n      jump\t// in\n    tag_309:\n        /* \"tronbox/contracts/SmartGenie.sol\":10255:10332  (payer, referrer) = findEligiblePayer(referrer, _regLevel, _levelEligibility) */\n      dup1\n      swap3\n      pop\n      dup2\n      swap4\n      pop\n      pop\n      pop\n        /* \"tronbox/contracts/SmartGenie.sol\":10375:10380  users */\n      0x0a\n        /* \"tronbox/contracts/SmartGenie.sol\":10375:10387  users[payer] */\n      0x00\n        /* \"tronbox/contracts/SmartGenie.sol\":10381:10386  payer */\n      dup4\n        /* \"tronbox/contracts/SmartGenie.sol\":10375:10387  users[payer] */\n      0xffffffffffffffffffffffffffffffffffffffff\n      and\n      0xffffffffffffffffffffffffffffffffffffffff\n      and\n      dup2\n      mstore\n      0x20\n      add\n      swap1\n      dup2\n      mstore\n      0x20\n      add\n      0x00\n      keccak256\n        /* \"tronbox/contracts/SmartGenie.sol\":10375:10395  users[payer].isExist */\n      0x00\n      add\n      0x00\n      swap1\n      sload\n      swap1\n      0x0100\n      exp\n      swap1\n      div\n      0xff\n      and\n        /* \"tronbox/contracts/SmartGenie.sol\":10374:10395  !users[payer].isExist */\n      iszero\n        /* \"tronbox/contracts/SmartGenie.sol\":10374:10544  !users[payer].isExist || ... */\n      dup1\n      tag_311\n      jumpi\n      pop\n        /* \"tronbox/contracts/SmartGenie.sol\":10465:10466  0 */\n      0x00\n        /* \"tronbox/contracts/SmartGenie.sol\":10417:10467  levelUpgradePayments[upLevel][payer] == address(0) */\n      0xffffffffffffffffffffffffffffffffffffffff\n      and\n        /* \"tronbox/contracts/SmartGenie.sol\":10417:10437  levelUpgradePayments */\n      0x0d\n        /* \"tronbox/contracts/SmartGenie.sol\":10417:10446  levelUpgradePayments[upLevel] */\n      0x00\n        /* \"tronbox/contracts/SmartGenie.sol\":10438:10445  upLevel */\n      dup6\n        /* \"tronbox/contracts/SmartGenie.sol\":10417:10446  levelUpgradePayments[upLevel] */\n      dup2\n      mstore\n      0x20\n      add\n      swap1\n      dup2\n      mstore\n      0x20\n      add\n      0x00\n      keccak256\n        /* \"tronbox/contracts/SmartGenie.sol\":10417:10453  levelUpgradePayments[upLevel][payer] */\n      0x00\n        /* \"tronbox/contracts/SmartGenie.sol\":10447:10452  payer */\n      dup5\n        /* \"tronbox/contracts/SmartGenie.sol\":10417:10453  levelUpgradePayments[upLevel][payer] */\n      0xffffffffffffffffffffffffffffffffffffffff\n      and\n      0xffffffffffffffffffffffffffffffffffffffff\n      and\n      dup2\n      mstore\n      0x20\n      add\n      swap1\n      dup2\n      mstore\n      0x20\n      add\n      0x00\n      keccak256\n      0x00\n      swap1\n      sload\n      swap1\n      0x0100\n      exp\n      swap1\n      div\n      0xffffffffffffffffffffffffffffffffffffffff\n      and\n        /* \"tronbox/contracts/SmartGenie.sol\":10417:10467  levelUpgradePayments[upLevel][payer] == address(0) */\n      0xffffffffffffffffffffffffffffffffffffffff\n      and\n      eq\n        /* \"tronbox/contracts/SmartGenie.sol\":10417:10543  levelUpgradePayments[upLevel][payer] == address(0) && ... */\n      dup1\n      iszero\n      tag_312\n      jumpi\n      pop\n        /* \"tronbox/contracts/SmartGenie.sol\":10538:10543  false */\n      0x00\n        /* \"tronbox/contracts/SmartGenie.sol\":10492:10543  isLevelUpgradedForAddress[upLevel][payer] ==  false */\n      iszero\n      iszero\n        /* \"tronbox/contracts/SmartGenie.sol\":10492:10517  isLevelUpgradedForAddress */\n      0x0e\n        /* \"tronbox/contracts/SmartGenie.sol\":10492:10526  isLevelUpgradedForAddress[upLevel] */\n      0x00\n        /* \"tronbox/contracts/SmartGenie.sol\":10518:10525  upLevel */\n      dup6\n        /* \"tronbox/contracts/SmartGenie.sol\":10492:10526  isLevelUpgradedForAddress[upLevel] */\n      dup2\n      mstore\n      0x20\n      add\n      swap1\n      dup2\n      mstore\n      0x20\n      add\n      0x00\n      keccak256\n        /* \"tronbox/contracts/SmartGenie.sol\":10492:10533  isLevelUpgradedForAddress[upLevel][payer] */\n      0x00\n        /* \"tronbox/contracts/SmartGenie.sol\":10527:10532  payer */\n      dup5\n        /* \"tronbox/contracts/SmartGenie.sol\":10492:10533  isLevelUpgradedForAddress[upLevel][payer] */\n      0xffffffffffffffffffffffffffffffffffffffff\n      and\n      0xffffffffffffffffffffffffffffffffffffffff\n      and\n      dup2\n      mstore\n      0x20\n      add\n      swap1\n      dup2\n      mstore\n      0x20\n      add\n      0x00\n      keccak256\n      0x00\n      swap1\n      sload\n      swap1\n      0x0100\n      exp\n      swap1\n      div\n      0xff\n      and\n        /* \"tronbox/contracts/SmartGenie.sol\":10492:10543  isLevelUpgradedForAddress[upLevel][payer] ==  false */\n      iszero\n      iszero\n      eq\n        /* \"tronbox/contracts/SmartGenie.sol\":10417:10543  levelUpgradePayments[upLevel][payer] == address(0) && ... */\n    tag_312:\n        /* \"tronbox/contracts/SmartGenie.sol\":10374:10544  !users[payer].isExist || ... */\n    tag_311:\n        /* \"tronbox/contracts/SmartGenie.sol\":10371:11791  if(!users[payer].isExist || ... */\n      iszero\n      tag_313\n      jumpi\n        /* \"tronbox/contracts/SmartGenie.sol\":10568:10573  users */\n      0x0a\n        /* \"tronbox/contracts/SmartGenie.sol\":10568:10580  users[payer] */\n      0x00\n        /* \"tronbox/contracts/SmartGenie.sol\":10574:10579  payer */\n      dup4\n        /* \"tronbox/contracts/SmartGenie.sol\":10568:10580  users[payer] */\n      0xffffffffffffffffffffffffffffffffffffffff\n      and\n      0xffffffffffffffffffffffffffffffffffffffff\n      and\n      dup2\n      mstore\n      0x20\n      add\n      swap1\n      dup2\n      mstore\n      0x20\n      add\n      0x00\n      keccak256\n        /* \"tronbox/contracts/SmartGenie.sol\":10568:10588  users[payer].isExist */\n      0x00\n      add\n      0x00\n      swap1\n      sload\n      swap1\n      0x0100\n      exp\n      swap1\n      div\n      0xff\n      and\n        /* \"tronbox/contracts/SmartGenie.sol\":10564:10609  if(!users[payer].isExist) payer = userList[1] */\n      tag_314\n      jumpi\n        /* \"tronbox/contracts/SmartGenie.sol\":10598:10606  userList */\n      0x0b\n        /* \"tronbox/contracts/SmartGenie.sol\":10598:10609  userList[1] */\n      0x00\n        /* \"tronbox/contracts/SmartGenie.sol\":10607:10608  1 */\n      0x01\n        /* \"tronbox/contracts/SmartGenie.sol\":10598:10609  userList[1] */\n      dup2\n      mstore\n      0x20\n      add\n      swap1\n      dup2\n      mstore\n      0x20\n      add\n      0x00\n      keccak256\n      0x00\n      swap1\n      sload\n      swap1\n      0x0100\n      exp\n      swap1\n      div\n      0xffffffffffffffffffffffffffffffffffffffff\n      and\n        /* \"tronbox/contracts/SmartGenie.sol\":10590:10609  payer = userList[1] */\n      swap2\n      pop\n        /* \"tronbox/contracts/SmartGenie.sol\":10564:10609  if(!users[payer].isExist) payer = userList[1] */\n    tag_314:\n        /* \"tronbox/contracts/SmartGenie.sol\":10772:10780  userList */\n      0x0b\n        /* \"tronbox/contracts/SmartGenie.sol\":10772:10783  userList[1] */\n      0x00\n        /* \"tronbox/contracts/SmartGenie.sol\":10781:10782  1 */\n      0x01\n        /* \"tronbox/contracts/SmartGenie.sol\":10772:10783  userList[1] */\n      dup2\n      mstore\n      0x20\n      add\n      swap1\n      dup2\n      mstore\n      0x20\n      add\n      0x00\n      keccak256\n      0x00\n      swap1\n      sload\n      swap1\n      0x0100\n      exp\n      swap1\n      div\n      0xffffffffffffffffffffffffffffffffffffffff\n      and\n        /* \"tronbox/contracts/SmartGenie.sol\":10763:10783  payer != userList[1] */\n      0xffffffffffffffffffffffffffffffffffffffff\n      and\n        /* \"tronbox/contracts/SmartGenie.sol\":10763:10768  payer */\n      dup3\n        /* \"tronbox/contracts/SmartGenie.sol\":10763:10783  payer != userList[1] */\n      0xffffffffffffffffffffffffffffffffffffffff\n      and\n      eq\n        /* \"tronbox/contracts/SmartGenie.sol\":10760:10936  if(payer != userList[1]) {... */\n      tag_315\n      jumpi\n        /* \"tronbox/contracts/SmartGenie.sol\":10877:10878  1 */\n      0x01\n        /* \"tronbox/contracts/SmartGenie.sol\":10843:10848  users */\n      0x0a\n        /* \"tronbox/contracts/SmartGenie.sol\":10843:10855  users[payer] */\n      0x00\n        /* \"tronbox/contracts/SmartGenie.sol\":10849:10854  payer */\n      dup5\n        /* \"tronbox/contracts/SmartGenie.sol\":10843:10855  users[payer] */\n      0xffffffffffffffffffffffffffffffffffffffff\n      and\n      0xffffffffffffffffffffffffffffffffffffffff\n      and\n      dup2\n      mstore\n      0x20\n      add\n      swap1\n      dup2\n      mstore\n      0x20\n      add\n      0x00\n      keccak256\n        /* \"tronbox/contracts/SmartGenie.sol\":10843:10867  users[payer].incomeCount */\n      0x05\n      add\n        /* \"tronbox/contracts/SmartGenie.sol\":10843:10876  users[payer].incomeCount[upLevel] */\n      0x00\n        /* \"tronbox/contracts/SmartGenie.sol\":10868:10875  upLevel */\n      dup6\n        /* \"tronbox/contracts/SmartGenie.sol\":10843:10876  users[payer].incomeCount[upLevel] */\n      dup2\n      mstore\n      0x20\n      add\n      swap1\n      dup2\n      mstore\n      0x20\n      add\n      0x00\n      keccak256\n      sload\n        /* \"tronbox/contracts/SmartGenie.sol\":10843:10878  users[payer].incomeCount[upLevel]+1 */\n      tag_316\n      swap2\n      swap1\n      tag_188\n      jump\t// in\n    tag_316:\n        /* \"tronbox/contracts/SmartGenie.sol\":10807:10812  users */\n      0x0a\n        /* \"tronbox/contracts/SmartGenie.sol\":10807:10819  users[payer] */\n      0x00\n        /* \"tronbox/contracts/SmartGenie.sol\":10813:10818  payer */\n      dup5\n        /* \"tronbox/contracts/SmartGenie.sol\":10807:10819  users[payer] */\n      0xffffffffffffffffffffffffffffffffffffffff\n      and\n      0xffffffffffffffffffffffffffffffffffffffff\n      and\n      dup2\n      mstore\n      0x20\n      add\n      swap1\n      dup2\n      mstore\n      0x20\n      add\n      0x00\n      keccak256\n        /* \"tronbox/contracts/SmartGenie.sol\":10807:10831  users[payer].incomeCount */\n      0x05\n      add\n        /* \"tronbox/contracts/SmartGenie.sol\":10807:10840  users[payer].incomeCount[upLevel] */\n      0x00\n        /* \"tronbox/contracts/SmartGenie.sol\":10832:10839  upLevel */\n      dup6\n        /* \"tronbox/contracts/SmartGenie.sol\":10807:10840  users[payer].incomeCount[upLevel] */\n      dup2\n      mstore\n      0x20\n      add\n      swap1\n      dup2\n      mstore\n      0x20\n      add\n      0x00\n      keccak256\n        /* \"tronbox/contracts/SmartGenie.sol\":10807:10878  users[payer].incomeCount[upLevel] = users[payer].incomeCount[upLevel]+1 */\n      dup2\n      swap1\n      sstore\n      pop\n        /* \"tronbox/contracts/SmartGenie.sol\":10912:10917  false */\n      0x00\n        /* \"tronbox/contracts/SmartGenie.sol\":10900:10917  isPayNeed = false */\n      swap7\n      pop\n        /* \"tronbox/contracts/SmartGenie.sol\":10760:10936  if(payer != userList[1]) {... */\n    tag_315:\n        /* \"tronbox/contracts/SmartGenie.sol\":11072:11080  referrer */\n      dup1\n        /* \"tronbox/contracts/SmartGenie.sol\":11033:11053  levelUpgradePayments */\n      0x0d\n        /* \"tronbox/contracts/SmartGenie.sol\":11033:11062  levelUpgradePayments[upLevel] */\n      0x00\n        /* \"tronbox/contracts/SmartGenie.sol\":11054:11061  upLevel */\n      dup6\n        /* \"tronbox/contracts/SmartGenie.sol\":11033:11062  levelUpgradePayments[upLevel] */\n      dup2\n      mstore\n      0x20\n      add\n      swap1\n      dup2\n      mstore\n      0x20\n      add\n      0x00\n      keccak256\n        /* \"tronbox/contracts/SmartGenie.sol\":11033:11069  levelUpgradePayments[upLevel][payer] */\n      0x00\n        /* \"tronbox/contracts/SmartGenie.sol\":11063:11068  payer */\n      dup5\n        /* \"tronbox/contracts/SmartGenie.sol\":11033:11069  levelUpgradePayments[upLevel][payer] */\n      0xffffffffffffffffffffffffffffffffffffffff\n      and\n      0xffffffffffffffffffffffffffffffffffffffff\n      and\n      dup2\n      mstore\n      0x20\n      add\n      swap1\n      dup2\n      mstore\n      0x20\n      add\n      0x00\n      keccak256\n      0x00\n        /* \"tronbox/contracts/SmartGenie.sol\":11033:11080  levelUpgradePayments[upLevel][payer] = referrer */\n      0x0100\n      exp\n      dup2\n      sload\n      dup2\n      0xffffffffffffffffffffffffffffffffffffffff\n      mul\n      not\n      and\n      swap1\n      dup4\n      0xffffffffffffffffffffffffffffffffffffffff\n      and\n      mul\n      or\n      swap1\n      sstore\n      pop\n        /* \"tronbox/contracts/SmartGenie.sol\":11209:11210  1 */\n      0x01\n        /* \"tronbox/contracts/SmartGenie.sol\":11178:11190  levelCounter */\n      0x0c\n        /* \"tronbox/contracts/SmartGenie.sol\":11178:11199  levelCounter[upLevel] */\n      0x00\n        /* \"tronbox/contracts/SmartGenie.sol\":11191:11198  upLevel */\n      dup6\n        /* \"tronbox/contracts/SmartGenie.sol\":11178:11199  levelCounter[upLevel] */\n      dup2\n      mstore\n      0x20\n      add\n      swap1\n      dup2\n      mstore\n      0x20\n      add\n      0x00\n      keccak256\n        /* \"tronbox/contracts/SmartGenie.sol\":11178:11206  levelCounter[upLevel][payer] */\n      0x00\n        /* \"tronbox/contracts/SmartGenie.sol\":11200:11205  payer */\n      dup5\n        /* \"tronbox/contracts/SmartGenie.sol\":11178:11206  levelCounter[upLevel][payer] */\n      0xffffffffffffffffffffffffffffffffffffffff\n      and\n      0xffffffffffffffffffffffffffffffffffffffff\n      and\n      dup2\n      mstore\n      0x20\n      add\n      swap1\n      dup2\n      mstore\n      0x20\n      add\n      0x00\n      keccak256\n        /* \"tronbox/contracts/SmartGenie.sol\":11178:11210  levelCounter[upLevel][payer] = 1 */\n      dup2\n      swap1\n      sstore\n      pop\n        /* \"tronbox/contracts/SmartGenie.sol\":10371:11791  if(!users[payer].isExist || ... */\n      jump(tag_317)\n    tag_313:\n        /* \"tronbox/contracts/SmartGenie.sol\":11249:11273  address existingReferrer */\n      0x00\n        /* \"tronbox/contracts/SmartGenie.sol\":11276:11296  levelUpgradePayments */\n      0x0d\n        /* \"tronbox/contracts/SmartGenie.sol\":11276:11305  levelUpgradePayments[upLevel] */\n      0x00\n        /* \"tronbox/contracts/SmartGenie.sol\":11297:11304  upLevel */\n      dup6\n        /* \"tronbox/contracts/SmartGenie.sol\":11276:11305  levelUpgradePayments[upLevel] */\n      dup2\n      mstore\n      0x20\n      add\n      swap1\n      dup2\n      mstore\n      0x20\n      add\n      0x00\n      keccak256\n        /* \"tronbox/contracts/SmartGenie.sol\":11276:11312  levelUpgradePayments[upLevel][payer] */\n      0x00\n        /* \"tronbox/contracts/SmartGenie.sol\":11306:11311  payer */\n      dup5\n        /* \"tronbox/contracts/SmartGenie.sol\":11276:11312  levelUpgradePayments[upLevel][payer] */\n      0xffffffffffffffffffffffffffffffffffffffff\n      and\n      0xffffffffffffffffffffffffffffffffffffffff\n      and\n      dup2\n      mstore\n      0x20\n      add\n      swap1\n      dup2\n      mstore\n      0x20\n      add\n      0x00\n      keccak256\n      0x00\n      swap1\n      sload\n      swap1\n      0x0100\n      exp\n      swap1\n      div\n      0xffffffffffffffffffffffffffffffffffffffff\n      and\n        /* \"tronbox/contracts/SmartGenie.sol\":11249:11312  address existingReferrer = levelUpgradePayments[upLevel][payer] */\n      swap1\n      pop\n        /* \"tronbox/contracts/SmartGenie.sol\":11334:11394  isLevelUpgradeFromSameLeg(payer, existingReferrer, referrer) */\n      tag_318\n        /* \"tronbox/contracts/SmartGenie.sol\":11360:11365  payer */\n      dup4\n        /* \"tronbox/contracts/SmartGenie.sol\":11367:11383  existingReferrer */\n      dup3\n        /* \"tronbox/contracts/SmartGenie.sol\":11385:11393  referrer */\n      dup5\n        /* \"tronbox/contracts/SmartGenie.sol\":11334:11359  isLevelUpgradeFromSameLeg */\n      tag_319\n        /* \"tronbox/contracts/SmartGenie.sol\":11334:11394  isLevelUpgradeFromSameLeg(payer, existingReferrer, referrer) */\n      jump\t// in\n    tag_318:\n        /* \"tronbox/contracts/SmartGenie.sol\":11330:11777  if (isLevelUpgradeFromSameLeg(payer, existingReferrer, referrer)) {... */\n      iszero\n      tag_320\n      jumpi\n        /* \"tronbox/contracts/SmartGenie.sol\":11430:11434  true */\n      0x01\n        /* \"tronbox/contracts/SmartGenie.sol\":11418:11434  isSameLeg = true */\n      swap9\n      pop\n        /* \"tronbox/contracts/SmartGenie.sol\":11330:11777  if (isLevelUpgradeFromSameLeg(payer, existingReferrer, referrer)) {... */\n      jump(tag_321)\n    tag_320:\n        /* \"tronbox/contracts/SmartGenie.sol\":11601:11602  0 */\n      0x00\n        /* \"tronbox/contracts/SmartGenie.sol\":11554:11574  levelUpgradePayments */\n      0x0d\n        /* \"tronbox/contracts/SmartGenie.sol\":11554:11583  levelUpgradePayments[upLevel] */\n      0x00\n        /* \"tronbox/contracts/SmartGenie.sol\":11575:11582  upLevel */\n      dup7\n        /* \"tronbox/contracts/SmartGenie.sol\":11554:11583  levelUpgradePayments[upLevel] */\n      dup2\n      mstore\n      0x20\n      add\n      swap1\n      dup2\n      mstore\n      0x20\n      add\n      0x00\n      keccak256\n        /* \"tronbox/contracts/SmartGenie.sol\":11554:11590  levelUpgradePayments[upLevel][payer] */\n      0x00\n        /* \"tronbox/contracts/SmartGenie.sol\":11584:11589  payer */\n      dup6\n        /* \"tronbox/contracts/SmartGenie.sol\":11554:11590  levelUpgradePayments[upLevel][payer] */\n      0xffffffffffffffffffffffffffffffffffffffff\n      and\n      0xffffffffffffffffffffffffffffffffffffffff\n      and\n      dup2\n      mstore\n      0x20\n      add\n      swap1\n      dup2\n      mstore\n      0x20\n      add\n      0x00\n      keccak256\n      0x00\n        /* \"tronbox/contracts/SmartGenie.sol\":11554:11603  levelUpgradePayments[upLevel][payer] = address(0) */\n      0x0100\n      exp\n      dup2\n      sload\n      dup2\n      0xffffffffffffffffffffffffffffffffffffffff\n      mul\n      not\n      and\n      swap1\n      dup4\n      0xffffffffffffffffffffffffffffffffffffffff\n      and\n      mul\n      or\n      swap1\n      sstore\n      pop\n        /* \"tronbox/contracts/SmartGenie.sol\":11669:11673  true */\n      0x01\n        /* \"tronbox/contracts/SmartGenie.sol\":11625:11650  isLevelUpgradedForAddress */\n      0x0e\n        /* \"tronbox/contracts/SmartGenie.sol\":11625:11659  isLevelUpgradedForAddress[upLevel] */\n      0x00\n        /* \"tronbox/contracts/SmartGenie.sol\":11651:11658  upLevel */\n      dup7\n        /* \"tronbox/contracts/SmartGenie.sol\":11625:11659  isLevelUpgradedForAddress[upLevel] */\n      dup2\n      mstore\n      0x20\n      add\n      swap1\n      dup2\n      mstore\n      0x20\n      add\n      0x00\n      keccak256\n        /* \"tronbox/contracts/SmartGenie.sol\":11625:11666  isLevelUpgradedForAddress[upLevel][payer] */\n      0x00\n        /* \"tronbox/contracts/SmartGenie.sol\":11660:11665  payer */\n      dup6\n        /* \"tronbox/contracts/SmartGenie.sol\":11625:11666  isLevelUpgradedForAddress[upLevel][payer] */\n      0xffffffffffffffffffffffffffffffffffffffff\n      and\n      0xffffffffffffffffffffffffffffffffffffffff\n      and\n      dup2\n      mstore\n      0x20\n      add\n      swap1\n      dup2\n      mstore\n      0x20\n      add\n      0x00\n      keccak256\n      0x00\n        /* \"tronbox/contracts/SmartGenie.sol\":11625:11673  isLevelUpgradedForAddress[upLevel][payer] = true */\n      0x0100\n      exp\n      dup2\n      sload\n      dup2\n      0xff\n      mul\n      not\n      and\n      swap1\n      dup4\n      iszero\n      iszero\n      mul\n      or\n      swap1\n      sstore\n      pop\n        /* \"tronbox/contracts/SmartGenie.sol\":11757:11758  1 */\n      0x01\n        /* \"tronbox/contracts/SmartGenie.sol\":11726:11738  levelCounter */\n      0x0c\n        /* \"tronbox/contracts/SmartGenie.sol\":11726:11747  levelCounter[upLevel] */\n      0x00\n        /* \"tronbox/contracts/SmartGenie.sol\":11739:11746  upLevel */\n      dup7\n        /* \"tronbox/contracts/SmartGenie.sol\":11726:11747  levelCounter[upLevel] */\n      dup2\n      mstore\n      0x20\n      add\n      swap1\n      dup2\n      mstore\n      0x20\n      add\n      0x00\n      keccak256\n        /* \"tronbox/contracts/SmartGenie.sol\":11726:11754  levelCounter[upLevel][payer] */\n      0x00\n        /* \"tronbox/contracts/SmartGenie.sol\":11748:11753  payer */\n      dup6\n        /* \"tronbox/contracts/SmartGenie.sol\":11726:11754  levelCounter[upLevel][payer] */\n      0xffffffffffffffffffffffffffffffffffffffff\n      and\n      0xffffffffffffffffffffffffffffffffffffffff\n      and\n      dup2\n      mstore\n      0x20\n      add\n      swap1\n      dup2\n      mstore\n      0x20\n      add\n      0x00\n      keccak256\n      sload\n        /* \"tronbox/contracts/SmartGenie.sol\":11726:11758  levelCounter[upLevel][payer] + 1 */\n      tag_322\n      swap2\n      swap1\n      tag_188\n      jump\t// in\n    tag_322:\n        /* \"tronbox/contracts/SmartGenie.sol\":11695:11707  levelCounter */\n      0x0c\n        /* \"tronbox/contracts/SmartGenie.sol\":11695:11716  levelCounter[upLevel] */\n      0x00\n        /* \"tronbox/contracts/SmartGenie.sol\":11708:11715  upLevel */\n      dup7\n        /* \"tronbox/contracts/SmartGenie.sol\":11695:11716  levelCounter[upLevel] */\n      dup2\n      mstore\n      0x20\n      add\n      swap1\n      dup2\n      mstore\n      0x20\n      add\n      0x00\n      keccak256\n        /* \"tronbox/contracts/SmartGenie.sol\":11695:11723  levelCounter[upLevel][payer] */\n      0x00\n        /* \"tronbox/contracts/SmartGenie.sol\":11717:11722  payer */\n      dup6\n        /* \"tronbox/contracts/SmartGenie.sol\":11695:11723  levelCounter[upLevel][payer] */\n      0xffffffffffffffffffffffffffffffffffffffff\n      and\n      0xffffffffffffffffffffffffffffffffffffffff\n      and\n      dup2\n      mstore\n      0x20\n      add\n      swap1\n      dup2\n      mstore\n      0x20\n      add\n      0x00\n      keccak256\n        /* \"tronbox/contracts/SmartGenie.sol\":11695:11758  levelCounter[upLevel][payer] = levelCounter[upLevel][payer] + 1 */\n      dup2\n      swap1\n      sstore\n      pop\n        /* \"tronbox/contracts/SmartGenie.sol\":11330:11777  if (isLevelUpgradeFromSameLeg(payer, existingReferrer, referrer)) {... */\n    tag_321:\n        /* \"tronbox/contracts/SmartGenie.sol\":11231:11791  {... */\n      pop\n        /* \"tronbox/contracts/SmartGenie.sol\":10371:11791  if(!users[payer].isExist || ... */\n    tag_317:\n        /* \"tronbox/contracts/SmartGenie.sol\":11811:11816  users */\n      0x0a\n        /* \"tronbox/contracts/SmartGenie.sol\":11811:11826  users[referrer] */\n      0x00\n        /* \"tronbox/contracts/SmartGenie.sol\":11817:11825  referrer */\n      dup3\n        /* \"tronbox/contracts/SmartGenie.sol\":11811:11826  users[referrer] */\n      0xffffffffffffffffffffffffffffffffffffffff\n      and\n      0xffffffffffffffffffffffffffffffffffffffff\n      and\n      dup2\n      mstore\n      0x20\n      add\n      swap1\n      dup2\n      mstore\n      0x20\n      add\n      0x00\n      keccak256\n        /* \"tronbox/contracts/SmartGenie.sol\":11811:11843  users[referrer].levelEligibility */\n      0x06\n      add\n        /* \"tronbox/contracts/SmartGenie.sol\":11849:11856  upLevel */\n      dup4\n        /* \"tronbox/contracts/SmartGenie.sol\":11811:11857  users[referrer].levelEligibility.push(upLevel) */\n      swap1\n      dup1\n      0x01\n      dup2\n      sload\n      add\n      dup1\n      dup3\n      sstore\n      dup1\n      swap2\n      pop\n      pop\n      0x01\n      swap1\n      sub\n      swap1\n      0x00\n      mstore\n      keccak256(0x00, 0x20)\n      add\n      0x00\n      swap1\n      swap2\n      swap1\n      swap2\n      swap1\n      swap2\n      pop\n      sstore\n        /* \"tronbox/contracts/SmartGenie.sol\":11876:11881  payer */\n      dup2\n        /* \"tronbox/contracts/SmartGenie.sol\":11883:11892  isPayNeed */\n      dup8\n        /* \"tronbox/contracts/SmartGenie.sol\":11894:11903  isSameLeg */\n      dup10\n        /* \"tronbox/contracts/SmartGenie.sol\":11868:11904  return (payer, isPayNeed, isSameLeg) */\n      swap6\n      pop\n      swap6\n      pop\n      swap6\n      pop\n      pop\n      pop\n      pop\n        /* \"tronbox/contracts/SmartGenie.sol\":9819:11911  function levelUpgrade(uint256 _regLevel, address _user, uint256 _levelEligibility, bool isSameLeg, bool isPayNeed ) ... */\n      swap6\n      pop\n      swap6\n      pop\n      swap6\n      swap3\n      pop\n      pop\n      pop\n      jump\t// out\n        /* \"tronbox/contracts/SmartGenie.sol\":19732:20391  function levelRenewal(bool _loop, address _user, uint256 _regLevel, uint256 _levelEligibility)internal returns(address, bool) {... */\n    tag_275:\n        /* \"tronbox/contracts/SmartGenie.sol\":19843:19850  address */\n      0x00\n        /* \"tronbox/contracts/SmartGenie.sol\":19852:19856  bool */\n      dup1\n        /* \"tronbox/contracts/SmartGenie.sol\":19868:19883  bool _isRenewal */\n      0x00\n        /* \"tronbox/contracts/SmartGenie.sol\":19886:19890  true */\n      0x01\n        /* \"tronbox/contracts/SmartGenie.sol\":19868:19890  bool _isRenewal = true */\n      swap1\n      pop\n        /* \"tronbox/contracts/SmartGenie.sol\":19900:19916  address referrer */\n      0x00\n        /* \"tronbox/contracts/SmartGenie.sol\":19918:19931  address payer */\n      dup1\n        /* \"tronbox/contracts/SmartGenie.sol\":19946:19951  _loop */\n      dup9\n        /* \"tronbox/contracts/SmartGenie.sol\":19942:20051  if(!_loop) {... */\n      tag_325\n      jumpi\n        /* \"tronbox/contracts/SmartGenie.sol\":19979:19987  userList */\n      0x0b\n        /* \"tronbox/contracts/SmartGenie.sol\":19979:20012  userList[users[_user].referrerID] */\n      0x00\n        /* \"tronbox/contracts/SmartGenie.sol\":19988:19993  users */\n      0x0a\n        /* \"tronbox/contracts/SmartGenie.sol\":19988:20000  users[_user] */\n      0x00\n        /* \"tronbox/contracts/SmartGenie.sol\":19994:19999  _user */\n      dup12\n        /* \"tronbox/contracts/SmartGenie.sol\":19988:20000  users[_user] */\n      0xffffffffffffffffffffffffffffffffffffffff\n      and\n      0xffffffffffffffffffffffffffffffffffffffff\n      and\n      dup2\n      mstore\n      0x20\n      add\n      swap1\n      dup2\n      mstore\n      0x20\n      add\n      0x00\n      keccak256\n        /* \"tronbox/contracts/SmartGenie.sol\":19988:20011  users[_user].referrerID */\n      0x02\n      add\n      sload\n        /* \"tronbox/contracts/SmartGenie.sol\":19979:20012  userList[users[_user].referrerID] */\n      dup2\n      mstore\n      0x20\n      add\n      swap1\n      dup2\n      mstore\n      0x20\n      add\n      0x00\n      keccak256\n      0x00\n      swap1\n      sload\n      swap1\n      0x0100\n      exp\n      swap1\n      div\n      0xffffffffffffffffffffffffffffffffffffffff\n      and\n        /* \"tronbox/contracts/SmartGenie.sol\":19968:20012  referrer = userList[users[_user].referrerID] */\n      swap2\n      pop\n        /* \"tronbox/contracts/SmartGenie.sol\":19942:20051  if(!_loop) {... */\n      jump(tag_326)\n    tag_325:\n        /* \"tronbox/contracts/SmartGenie.sol\":20043:20048  _user */\n      dup8\n        /* \"tronbox/contracts/SmartGenie.sol\":20032:20048  referrer = _user */\n      swap2\n      pop\n        /* \"tronbox/contracts/SmartGenie.sol\":19942:20051  if(!_loop) {... */\n    tag_326:\n        /* \"tronbox/contracts/SmartGenie.sol\":20149:20150  1 */\n      0x01\n        /* \"tronbox/contracts/SmartGenie.sol\":20110:20115  users */\n      0x0a\n        /* \"tronbox/contracts/SmartGenie.sol\":20110:20125  users[referrer] */\n      0x00\n        /* \"tronbox/contracts/SmartGenie.sol\":20116:20124  referrer */\n      dup5\n        /* \"tronbox/contracts/SmartGenie.sol\":20110:20125  users[referrer] */\n      0xffffffffffffffffffffffffffffffffffffffff\n      and\n      0xffffffffffffffffffffffffffffffffffffffff\n      and\n      dup2\n      mstore\n      0x20\n      add\n      swap1\n      dup2\n      mstore\n      0x20\n      add\n      0x00\n      keccak256\n        /* \"tronbox/contracts/SmartGenie.sol\":20110:20137  users[referrer].incomeCount */\n      0x05\n      add\n        /* \"tronbox/contracts/SmartGenie.sol\":20110:20148  users[referrer].incomeCount[_regLevel] */\n      0x00\n        /* \"tronbox/contracts/SmartGenie.sol\":20138:20147  _regLevel */\n      dup10\n        /* \"tronbox/contracts/SmartGenie.sol\":20110:20148  users[referrer].incomeCount[_regLevel] */\n      dup2\n      mstore\n      0x20\n      add\n      swap1\n      dup2\n      mstore\n      0x20\n      add\n      0x00\n      keccak256\n      sload\n        /* \"tronbox/contracts/SmartGenie.sol\":20110:20150  users[referrer].incomeCount[_regLevel]+1 */\n      tag_327\n      swap2\n      swap1\n      tag_188\n      jump\t// in\n    tag_327:\n        /* \"tronbox/contracts/SmartGenie.sol\":20069:20074  users */\n      0x0a\n        /* \"tronbox/contracts/SmartGenie.sol\":20069:20084  users[referrer] */\n      0x00\n        /* \"tronbox/contracts/SmartGenie.sol\":20075:20083  referrer */\n      dup5\n        /* \"tronbox/contracts/SmartGenie.sol\":20069:20084  users[referrer] */\n      0xffffffffffffffffffffffffffffffffffffffff\n      and\n      0xffffffffffffffffffffffffffffffffffffffff\n      and\n      dup2\n      mstore\n      0x20\n      add\n      swap1\n      dup2\n      mstore\n      0x20\n      add\n      0x00\n      keccak256\n        /* \"tronbox/contracts/SmartGenie.sol\":20069:20096  users[referrer].incomeCount */\n      0x05\n      add\n        /* \"tronbox/contracts/SmartGenie.sol\":20069:20107  users[referrer].incomeCount[_regLevel] */\n      0x00\n        /* \"tronbox/contracts/SmartGenie.sol\":20097:20106  _regLevel */\n      dup10\n        /* \"tronbox/contracts/SmartGenie.sol\":20069:20107  users[referrer].incomeCount[_regLevel] */\n      dup2\n      mstore\n      0x20\n      add\n      swap1\n      dup2\n      mstore\n      0x20\n      add\n      0x00\n      keccak256\n        /* \"tronbox/contracts/SmartGenie.sol\":20069:20150  users[referrer].incomeCount[_regLevel] = users[referrer].incomeCount[_regLevel]+1 */\n      dup2\n      swap1\n      sstore\n      pop\n        /* \"tronbox/contracts/SmartGenie.sol\":20228:20284  findRenewalPayer(referrer, _regLevel, _levelEligibility) */\n      tag_328\n        /* \"tronbox/contracts/SmartGenie.sol\":20245:20253  referrer */\n      dup3\n        /* \"tronbox/contracts/SmartGenie.sol\":20255:20264  _regLevel */\n      dup9\n        /* \"tronbox/contracts/SmartGenie.sol\":20266:20283  _levelEligibility */\n      dup9\n        /* \"tronbox/contracts/SmartGenie.sol\":20228:20244  findRenewalPayer */\n      tag_329\n        /* \"tronbox/contracts/SmartGenie.sol\":20228:20284  findRenewalPayer(referrer, _regLevel, _levelEligibility) */\n      jump\t// in\n    tag_328:\n        /* \"tronbox/contracts/SmartGenie.sol\":20217:20284  (payer,) = findRenewalPayer(referrer, _regLevel, _levelEligibility) */\n      pop\n      dup1\n      swap2\n      pop\n      pop\n        /* \"tronbox/contracts/SmartGenie.sol\":20298:20303  users */\n      0x0a\n        /* \"tronbox/contracts/SmartGenie.sol\":20298:20310  users[payer] */\n      0x00\n        /* \"tronbox/contracts/SmartGenie.sol\":20304:20309  payer */\n      dup3\n        /* \"tronbox/contracts/SmartGenie.sol\":20298:20310  users[payer] */\n      0xffffffffffffffffffffffffffffffffffffffff\n      and\n      0xffffffffffffffffffffffffffffffffffffffff\n      and\n      dup2\n      mstore\n      0x20\n      add\n      swap1\n      dup2\n      mstore\n      0x20\n      add\n      0x00\n      keccak256\n        /* \"tronbox/contracts/SmartGenie.sol\":20298:20318  users[payer].isExist */\n      0x00\n      add\n      0x00\n      swap1\n      sload\n      swap1\n      0x0100\n      exp\n      swap1\n      div\n      0xff\n      and\n        /* \"tronbox/contracts/SmartGenie.sol\":20294:20339  if(!users[payer].isExist) payer = userList[1] */\n      tag_330\n      jumpi\n        /* \"tronbox/contracts/SmartGenie.sol\":20328:20336  userList */\n      0x0b\n        /* \"tronbox/contracts/SmartGenie.sol\":20328:20339  userList[1] */\n      0x00\n        /* \"tronbox/contracts/SmartGenie.sol\":20337:20338  1 */\n      0x01\n        /* \"tronbox/contracts/SmartGenie.sol\":20328:20339  userList[1] */\n      dup2\n      mstore\n      0x20\n      add\n      swap1\n      dup2\n      mstore\n      0x20\n      add\n      0x00\n      keccak256\n      0x00\n      swap1\n      sload\n      swap1\n      0x0100\n      exp\n      swap1\n      div\n      0xffffffffffffffffffffffffffffffffffffffff\n      and\n        /* \"tronbox/contracts/SmartGenie.sol\":20320:20339  payer = userList[1] */\n      swap1\n      pop\n        /* \"tronbox/contracts/SmartGenie.sol\":20294:20339  if(!users[payer].isExist) payer = userList[1] */\n    tag_330:\n        /* \"tronbox/contracts/SmartGenie.sol\":20366:20371  payer */\n      dup1\n        /* \"tronbox/contracts/SmartGenie.sol\":20373:20383  _isRenewal */\n      dup4\n        /* \"tronbox/contracts/SmartGenie.sol\":20358:20384  return (payer, _isRenewal) */\n      swap5\n      pop\n      swap5\n      pop\n      pop\n      pop\n      pop\n        /* \"tronbox/contracts/SmartGenie.sol\":19732:20391  function levelRenewal(bool _loop, address _user, uint256 _regLevel, uint256 _levelEligibility)internal returns(address, bool) {... */\n      swap5\n      pop\n      swap5\n      swap3\n      pop\n      pop\n      pop\n      jump\t// out\n        /* \"tronbox/contracts/SmartGenie.sol\":20401:23012  function checkLoopRequired(address _payer, uint256 _regLevel, uint256 _length, bool isRenewal, bool isSameLeg) ... */\n    tag_280:\n        /* \"tronbox/contracts/SmartGenie.sol\":20548:20552  bool */\n      0x00\n        /* \"tronbox/contracts/SmartGenie.sol\":20554:20561  uint256 */\n      dup1\n        /* \"tronbox/contracts/SmartGenie.sol\":20573:20582  bool loop */\n      0x00\n        /* \"tronbox/contracts/SmartGenie.sol\":20600:20614  uint256 length */\n      dup1\n        /* \"tronbox/contracts/SmartGenie.sol\":20617:20624  _length */\n      dup7\n        /* \"tronbox/contracts/SmartGenie.sol\":20600:20624  uint256 length = _length */\n      swap1\n      pop\n        /* \"tronbox/contracts/SmartGenie.sol\":20735:20759  uint256 tempPaymentCount */\n      0x00\n        /* \"tronbox/contracts/SmartGenie.sol\":20799:20800  1 */\n      0x01\n        /* \"tronbox/contracts/SmartGenie.sol\":20762:20767  users */\n      0x0a\n        /* \"tronbox/contracts/SmartGenie.sol\":20762:20775  users[_payer] */\n      0x00\n        /* \"tronbox/contracts/SmartGenie.sol\":20768:20774  _payer */\n      dup13\n        /* \"tronbox/contracts/SmartGenie.sol\":20762:20775  users[_payer] */\n      0xffffffffffffffffffffffffffffffffffffffff\n      and\n      0xffffffffffffffffffffffffffffffffffffffff\n      and\n      dup2\n      mstore\n      0x20\n      add\n      swap1\n      dup2\n      mstore\n      0x20\n      add\n      0x00\n      keccak256\n        /* \"tronbox/contracts/SmartGenie.sol\":20762:20787  users[_payer].incomeCount */\n      0x05\n      add\n        /* \"tronbox/contracts/SmartGenie.sol\":20762:20798  users[_payer].incomeCount[_regLevel] */\n      0x00\n        /* \"tronbox/contracts/SmartGenie.sol\":20788:20797  _regLevel */\n      dup12\n        /* \"tronbox/contracts/SmartGenie.sol\":20762:20798  users[_payer].incomeCount[_regLevel] */\n      dup2\n      mstore\n      0x20\n      add\n      swap1\n      dup2\n      mstore\n      0x20\n      add\n      0x00\n      keccak256\n      sload\n        /* \"tronbox/contracts/SmartGenie.sol\":20762:20800  users[_payer].incomeCount[_regLevel]+1 */\n      tag_332\n      swap2\n      swap1\n      tag_188\n      jump\t// in\n    tag_332:\n        /* \"tronbox/contracts/SmartGenie.sol\":20735:20800  uint256 tempPaymentCount = users[_payer].incomeCount[_regLevel]+1 */\n      swap1\n      pop\n        /* \"tronbox/contracts/SmartGenie.sol\":20894:20895  2 */\n      0x02\n        /* \"tronbox/contracts/SmartGenie.sol\":20859:20871  levelCounter */\n      0x0c\n        /* \"tronbox/contracts/SmartGenie.sol\":20859:20882  levelCounter[_regLevel] */\n      0x00\n        /* \"tronbox/contracts/SmartGenie.sol\":20872:20881  _regLevel */\n      dup12\n        /* \"tronbox/contracts/SmartGenie.sol\":20859:20882  levelCounter[_regLevel] */\n      dup2\n      mstore\n      0x20\n      add\n      swap1\n      dup2\n      mstore\n      0x20\n      add\n      0x00\n      keccak256\n        /* \"tronbox/contracts/SmartGenie.sol\":20859:20890  levelCounter[_regLevel][_payer] */\n      0x00\n        /* \"tronbox/contracts/SmartGenie.sol\":20883:20889  _payer */\n      dup13\n        /* \"tronbox/contracts/SmartGenie.sol\":20859:20890  levelCounter[_regLevel][_payer] */\n      0xffffffffffffffffffffffffffffffffffffffff\n      and\n      0xffffffffffffffffffffffffffffffffffffffff\n      and\n      dup2\n      mstore\n      0x20\n      add\n      swap1\n      dup2\n      mstore\n      0x20\n      add\n      0x00\n      keccak256\n      sload\n        /* \"tronbox/contracts/SmartGenie.sol\":20859:20895  levelCounter[_regLevel][_payer] == 2 */\n      eq\n        /* \"tronbox/contracts/SmartGenie.sol\":20856:22967  if(levelCounter[_regLevel][_payer] == 2) {... */\n      iszero\n      tag_333\n      jumpi\n        /* \"tronbox/contracts/SmartGenie.sol\":20918:20922  true */\n      0x01\n        /* \"tronbox/contracts/SmartGenie.sol\":20911:20922  loop = true */\n      swap3\n      pop\n        /* \"tronbox/contracts/SmartGenie.sol\":20856:22967  if(levelCounter[_regLevel][_payer] == 2) {... */\n      jump(tag_334)\n    tag_333:\n        /* \"tronbox/contracts/SmartGenie.sol\":21131:21132  4 */\n      0x04\n        /* \"tronbox/contracts/SmartGenie.sol\":21111:21127  tempPaymentCount */\n      dup2\n        /* \"tronbox/contracts/SmartGenie.sol\":21111:21132  tempPaymentCount >= 4 */\n      lt\n      iszero\n        /* \"tronbox/contracts/SmartGenie.sol\":21111:21171  tempPaymentCount >= 4 &&... */\n      dup1\n      iszero\n      tag_335\n      jumpi\n      pop\n        /* \"tronbox/contracts/SmartGenie.sol\":21170:21171  0 */\n      0x00\n        /* \"tronbox/contracts/SmartGenie.sol\":21165:21166  4 */\n      0x04\n        /* \"tronbox/contracts/SmartGenie.sol\":21146:21162  tempPaymentCount */\n      dup3\n        /* \"tronbox/contracts/SmartGenie.sol\":21146:21166  tempPaymentCount % 4 */\n      tag_336\n      swap2\n      swap1\n      tag_268\n      jump\t// in\n    tag_336:\n        /* \"tronbox/contracts/SmartGenie.sol\":21146:21171  tempPaymentCount % 4 == 0 */\n      eq\n        /* \"tronbox/contracts/SmartGenie.sol\":21111:21171  tempPaymentCount >= 4 &&... */\n    tag_335:\n        /* \"tronbox/contracts/SmartGenie.sol\":21111:21213  tempPaymentCount >= 4 &&... */\n      dup1\n      iszero\n      tag_337\n      jumpi\n      pop\n        /* \"tronbox/contracts/SmartGenie.sol\":21212:21213  0 */\n      0x00\n        /* \"tronbox/contracts/SmartGenie.sol\":21186:21191  users */\n      0x0a\n        /* \"tronbox/contracts/SmartGenie.sol\":21186:21199  users[_payer] */\n      0x00\n        /* \"tronbox/contracts/SmartGenie.sol\":21192:21198  _payer */\n      dup13\n        /* \"tronbox/contracts/SmartGenie.sol\":21186:21199  users[_payer] */\n      0xffffffffffffffffffffffffffffffffffffffff\n      and\n      0xffffffffffffffffffffffffffffffffffffffff\n      and\n      dup2\n      mstore\n      0x20\n      add\n      swap1\n      dup2\n      mstore\n      0x20\n      add\n      0x00\n      keccak256\n        /* \"tronbox/contracts/SmartGenie.sol\":21186:21210  users[_payer].referrerID */\n      0x02\n      add\n      sload\n        /* \"tronbox/contracts/SmartGenie.sol\":21186:21213  users[_payer].referrerID!=0 */\n      eq\n      iszero\n        /* \"tronbox/contracts/SmartGenie.sol\":21111:21213  tempPaymentCount >= 4 &&... */\n    tag_337:\n        /* \"tronbox/contracts/SmartGenie.sol\":21111:21231  tempPaymentCount >= 4 &&... */\n      dup1\n      iszero\n      tag_338\n      jumpi\n      pop\n        /* \"tronbox/contracts/SmartGenie.sol\":21230:21231  1 */\n      0x01\n        /* \"tronbox/contracts/SmartGenie.sol\":21217:21226  _regLevel */\n      dup10\n        /* \"tronbox/contracts/SmartGenie.sol\":21217:21231  _regLevel == 1 */\n      eq\n        /* \"tronbox/contracts/SmartGenie.sol\":21111:21231  tempPaymentCount >= 4 &&... */\n    tag_338:\n        /* \"tronbox/contracts/SmartGenie.sol\":21108:22967  if(tempPaymentCount >= 4 &&... */\n      iszero\n      tag_339\n      jumpi\n        /* \"tronbox/contracts/SmartGenie.sol\":21268:21269  3 */\n      0x03\n        /* \"tronbox/contracts/SmartGenie.sol\":21257:21264  _length */\n      dup9\n        /* \"tronbox/contracts/SmartGenie.sol\":21257:21269  _length == 3 */\n      eq\n        /* \"tronbox/contracts/SmartGenie.sol\":21257:21293  _length == 3 && tempPaymentCount ==4 */\n      dup1\n      iszero\n      tag_340\n      jumpi\n      pop\n        /* \"tronbox/contracts/SmartGenie.sol\":21292:21293  4 */\n      0x04\n        /* \"tronbox/contracts/SmartGenie.sol\":21273:21289  tempPaymentCount */\n      dup2\n        /* \"tronbox/contracts/SmartGenie.sol\":21273:21293  tempPaymentCount ==4 */\n      eq\n        /* \"tronbox/contracts/SmartGenie.sol\":21257:21293  _length == 3 && tempPaymentCount ==4 */\n    tag_340:\n        /* \"tronbox/contracts/SmartGenie.sol\":21254:21351  if(_length == 3 && tempPaymentCount ==4) {... */\n      iszero\n      tag_341\n      jumpi\n        /* \"tronbox/contracts/SmartGenie.sol\":21322:21338  tempPaymentCount */\n      dup1\n        /* \"tronbox/contracts/SmartGenie.sol\":21313:21338  length = tempPaymentCount */\n      swap2\n      pop\n        /* \"tronbox/contracts/SmartGenie.sol\":21254:21351  if(_length == 3 && tempPaymentCount ==4) {... */\n    tag_341:\n        /* \"tronbox/contracts/SmartGenie.sol\":21371:21375  true */\n      0x01\n        /* \"tronbox/contracts/SmartGenie.sol\":21364:21375  loop = true */\n      swap3\n      pop\n        /* \"tronbox/contracts/SmartGenie.sol\":21108:22967  if(tempPaymentCount >= 4 &&... */\n      jump(tag_342)\n    tag_339:\n        /* \"tronbox/contracts/SmartGenie.sol\":21572:21573  4 */\n      0x04\n        /* \"tronbox/contracts/SmartGenie.sol\":21552:21568  tempPaymentCount */\n      dup2\n        /* \"tronbox/contracts/SmartGenie.sol\":21552:21573  tempPaymentCount >= 4 */\n      lt\n      iszero\n        /* \"tronbox/contracts/SmartGenie.sol\":21552:21614  tempPaymentCount >= 4 &&... */\n      dup1\n      iszero\n      tag_343\n      jumpi\n      pop\n        /* \"tronbox/contracts/SmartGenie.sol\":21613:21614  0 */\n      0x00\n        /* \"tronbox/contracts/SmartGenie.sol\":21608:21609  4 */\n      0x04\n        /* \"tronbox/contracts/SmartGenie.sol\":21589:21605  tempPaymentCount */\n      dup3\n        /* \"tronbox/contracts/SmartGenie.sol\":21589:21609  tempPaymentCount % 4 */\n      tag_344\n      swap2\n      swap1\n      tag_268\n      jump\t// in\n    tag_344:\n        /* \"tronbox/contracts/SmartGenie.sol\":21589:21614  tempPaymentCount % 4 == 0 */\n      eq\n        /* \"tronbox/contracts/SmartGenie.sol\":21552:21614  tempPaymentCount >= 4 &&... */\n    tag_343:\n        /* \"tronbox/contracts/SmartGenie.sol\":21552:21643  tempPaymentCount >= 4 &&... */\n      dup1\n      iszero\n      tag_345\n      jumpi\n      pop\n        /* \"tronbox/contracts/SmartGenie.sol\":21642:21643  2 */\n      0x02\n        /* \"tronbox/contracts/SmartGenie.sol\":21631:21638  _length */\n      dup9\n        /* \"tronbox/contracts/SmartGenie.sol\":21631:21643  _length == 2 */\n      eq\n        /* \"tronbox/contracts/SmartGenie.sol\":21552:21643  tempPaymentCount >= 4 &&... */\n    tag_345:\n        /* \"tronbox/contracts/SmartGenie.sol\":21552:21657  tempPaymentCount >= 4 &&... */\n      dup1\n      iszero\n      tag_346\n      jumpi\n      pop\n        /* \"tronbox/contracts/SmartGenie.sol\":21648:21657  isSameLeg */\n      dup6\n        /* \"tronbox/contracts/SmartGenie.sol\":21647:21657  !isSameLeg */\n      iszero\n        /* \"tronbox/contracts/SmartGenie.sol\":21552:21657  tempPaymentCount >= 4 &&... */\n    tag_346:\n        /* \"tronbox/contracts/SmartGenie.sol\":21552:21686  tempPaymentCount >= 4 &&... */\n      dup1\n      iszero\n      tag_347\n      jumpi\n      pop\n        /* \"tronbox/contracts/SmartGenie.sol\":21685:21686  1 */\n      0x01\n        /* \"tronbox/contracts/SmartGenie.sol\":21673:21682  _regLevel */\n      dup10\n        /* \"tronbox/contracts/SmartGenie.sol\":21673:21686  _regLevel > 1 */\n      gt\n        /* \"tronbox/contracts/SmartGenie.sol\":21552:21686  tempPaymentCount >= 4 &&... */\n    tag_347:\n        /* \"tronbox/contracts/SmartGenie.sol\":21548:22967  if (tempPaymentCount >= 4 &&... */\n      iszero\n      tag_348\n      jumpi\n        /* \"tronbox/contracts/SmartGenie.sol\":21804:21812  userList */\n      0x0b\n        /* \"tronbox/contracts/SmartGenie.sol\":21804:21815  userList[1] */\n      0x00\n        /* \"tronbox/contracts/SmartGenie.sol\":21813:21814  1 */\n      0x01\n        /* \"tronbox/contracts/SmartGenie.sol\":21804:21815  userList[1] */\n      dup2\n      mstore\n      0x20\n      add\n      swap1\n      dup2\n      mstore\n      0x20\n      add\n      0x00\n      keccak256\n      0x00\n      swap1\n      sload\n      swap1\n      0x0100\n      exp\n      swap1\n      div\n      0xffffffffffffffffffffffffffffffffffffffff\n      and\n        /* \"tronbox/contracts/SmartGenie.sol\":21794:21815  _payer == userList[1] */\n      0xffffffffffffffffffffffffffffffffffffffff\n      and\n        /* \"tronbox/contracts/SmartGenie.sol\":21794:21800  _payer */\n      dup11\n        /* \"tronbox/contracts/SmartGenie.sol\":21794:21815  _payer == userList[1] */\n      0xffffffffffffffffffffffffffffffffffffffff\n      and\n      eq\n        /* \"tronbox/contracts/SmartGenie.sol\":21791:21940  if(_payer == userList[1]) {... */\n      iszero\n      tag_349\n      jumpi\n        /* \"tronbox/contracts/SmartGenie.sol\":21842:21847  false */\n      0x00\n        /* \"tronbox/contracts/SmartGenie.sol\":21835:21847  loop = false */\n      swap3\n      pop\n        /* \"tronbox/contracts/SmartGenie.sol\":21791:21940  if(_payer == userList[1]) {... */\n      jump(tag_350)\n    tag_349:\n        /* \"tronbox/contracts/SmartGenie.sol\":21895:21896  4 */\n      0x04\n        /* \"tronbox/contracts/SmartGenie.sol\":21886:21896  length = 4 */\n      swap2\n      pop\n        /* \"tronbox/contracts/SmartGenie.sol\":21921:21925  true */\n      0x01\n        /* \"tronbox/contracts/SmartGenie.sol\":21914:21925  loop = true */\n      swap3\n      pop\n        /* \"tronbox/contracts/SmartGenie.sol\":21791:21940  if(_payer == userList[1]) {... */\n    tag_350:\n        /* \"tronbox/contracts/SmartGenie.sol\":21548:22967  if (tempPaymentCount >= 4 &&... */\n      jump(tag_351)\n    tag_348:\n        /* \"tronbox/contracts/SmartGenie.sol\":22037:22038  2 */\n      0x02\n        /* \"tronbox/contracts/SmartGenie.sol\":22017:22033  tempPaymentCount */\n      dup2\n        /* \"tronbox/contracts/SmartGenie.sol\":22017:22038  tempPaymentCount == 2 */\n      eq\n        /* \"tronbox/contracts/SmartGenie.sol\":22017:22079  tempPaymentCount == 2 &&... */\n      dup1\n      iszero\n      tag_352\n      jumpi\n      pop\n        /* \"tronbox/contracts/SmartGenie.sol\":22078:22079  0 */\n      0x00\n        /* \"tronbox/contracts/SmartGenie.sol\":22052:22057  users */\n      0x0a\n        /* \"tronbox/contracts/SmartGenie.sol\":22052:22065  users[_payer] */\n      0x00\n        /* \"tronbox/contracts/SmartGenie.sol\":22058:22064  _payer */\n      dup13\n        /* \"tronbox/contracts/SmartGenie.sol\":22052:22065  users[_payer] */\n      0xffffffffffffffffffffffffffffffffffffffff\n      and\n      0xffffffffffffffffffffffffffffffffffffffff\n      and\n      dup2\n      mstore\n      0x20\n      add\n      swap1\n      dup2\n      mstore\n      0x20\n      add\n      0x00\n      keccak256\n        /* \"tronbox/contracts/SmartGenie.sol\":22052:22076  users[_payer].referrerID */\n      0x02\n      add\n      sload\n        /* \"tronbox/contracts/SmartGenie.sol\":22052:22079  users[_payer].referrerID!=0 */\n      eq\n      iszero\n        /* \"tronbox/contracts/SmartGenie.sol\":22017:22079  tempPaymentCount == 2 &&... */\n    tag_352:\n        /* \"tronbox/contracts/SmartGenie.sol\":22017:22093  tempPaymentCount == 2 &&... */\n      dup1\n      iszero\n      tag_353\n      jumpi\n      pop\n        /* \"tronbox/contracts/SmartGenie.sol\":22084:22093  isRenewal */\n      dup7\n        /* \"tronbox/contracts/SmartGenie.sol\":22083:22093  !isRenewal */\n      iszero\n        /* \"tronbox/contracts/SmartGenie.sol\":22017:22093  tempPaymentCount == 2 &&... */\n    tag_353:\n        /* \"tronbox/contracts/SmartGenie.sol\":22017:22107  tempPaymentCount == 2 &&... */\n      dup1\n      iszero\n      tag_354\n      jumpi\n      pop\n        /* \"tronbox/contracts/SmartGenie.sol\":22098:22107  isSameLeg */\n      dup6\n        /* \"tronbox/contracts/SmartGenie.sol\":22097:22107  !isSameLeg */\n      iszero\n        /* \"tronbox/contracts/SmartGenie.sol\":22017:22107  tempPaymentCount == 2 &&... */\n    tag_354:\n        /* \"tronbox/contracts/SmartGenie.sol\":22014:22967  if(tempPaymentCount == 2 &&... */\n      iszero\n      tag_355\n      jumpi\n        /* \"tronbox/contracts/SmartGenie.sol\":22126:22131  users */\n      0x0a\n        /* \"tronbox/contracts/SmartGenie.sol\":22126:22139  users[_payer] */\n      0x00\n        /* \"tronbox/contracts/SmartGenie.sol\":22132:22138  _payer */\n      dup12\n        /* \"tronbox/contracts/SmartGenie.sol\":22126:22139  users[_payer] */\n      0xffffffffffffffffffffffffffffffffffffffff\n      and\n      0xffffffffffffffffffffffffffffffffffffffff\n      and\n      dup2\n      mstore\n      0x20\n      add\n      swap1\n      dup2\n      mstore\n      0x20\n      add\n      0x00\n      keccak256\n        /* \"tronbox/contracts/SmartGenie.sol\":22126:22147  users[_payer].isExist */\n      0x00\n      add\n      0x00\n      swap1\n      sload\n      swap1\n      0x0100\n      exp\n      swap1\n      div\n      0xff\n      and\n        /* \"tronbox/contracts/SmartGenie.sol\":22122:22169  if(!users[_payer].isExist) _payer = userList[1] */\n      tag_356\n      jumpi\n        /* \"tronbox/contracts/SmartGenie.sol\":22158:22166  userList */\n      0x0b\n        /* \"tronbox/contracts/SmartGenie.sol\":22158:22169  userList[1] */\n      0x00\n        /* \"tronbox/contracts/SmartGenie.sol\":22167:22168  1 */\n      0x01\n        /* \"tronbox/contracts/SmartGenie.sol\":22158:22169  userList[1] */\n      dup2\n      mstore\n      0x20\n      add\n      swap1\n      dup2\n      mstore\n      0x20\n      add\n      0x00\n      keccak256\n      0x00\n      swap1\n      sload\n      swap1\n      0x0100\n      exp\n      swap1\n      div\n      0xffffffffffffffffffffffffffffffffffffffff\n      and\n        /* \"tronbox/contracts/SmartGenie.sol\":22149:22169  _payer = userList[1] */\n      swap10\n      pop\n        /* \"tronbox/contracts/SmartGenie.sol\":22122:22169  if(!users[_payer].isExist) _payer = userList[1] */\n    tag_356:\n        /* \"tronbox/contracts/SmartGenie.sol\":22196:22204  userList */\n      0x0b\n        /* \"tronbox/contracts/SmartGenie.sol\":22196:22207  userList[1] */\n      0x00\n        /* \"tronbox/contracts/SmartGenie.sol\":22205:22206  1 */\n      0x01\n        /* \"tronbox/contracts/SmartGenie.sol\":22196:22207  userList[1] */\n      dup2\n      mstore\n      0x20\n      add\n      swap1\n      dup2\n      mstore\n      0x20\n      add\n      0x00\n      keccak256\n      0x00\n      swap1\n      sload\n      swap1\n      0x0100\n      exp\n      swap1\n      div\n      0xffffffffffffffffffffffffffffffffffffffff\n      and\n        /* \"tronbox/contracts/SmartGenie.sol\":22186:22207  _payer == userList[1] */\n      0xffffffffffffffffffffffffffffffffffffffff\n      and\n        /* \"tronbox/contracts/SmartGenie.sol\":22186:22192  _payer */\n      dup11\n        /* \"tronbox/contracts/SmartGenie.sol\":22186:22207  _payer == userList[1] */\n      0xffffffffffffffffffffffffffffffffffffffff\n      and\n      eq\n        /* \"tronbox/contracts/SmartGenie.sol\":22183:22347  if(_payer == userList[1]) {... */\n      iszero\n      tag_357\n      jumpi\n        /* \"tronbox/contracts/SmartGenie.sol\":22234:22239  false */\n      0x00\n        /* \"tronbox/contracts/SmartGenie.sol\":22227:22239  loop = false */\n      swap3\n      pop\n        /* \"tronbox/contracts/SmartGenie.sol\":22183:22347  if(_payer == userList[1]) {... */\n      jump(tag_358)\n    tag_357:\n        /* \"tronbox/contracts/SmartGenie.sol\":22285:22289  true */\n      0x01\n        /* \"tronbox/contracts/SmartGenie.sol\":22278:22289  loop = true */\n      swap3\n      pop\n        /* \"tronbox/contracts/SmartGenie.sol\":22316:22332  tempPaymentCount */\n      dup1\n        /* \"tronbox/contracts/SmartGenie.sol\":22307:22332  length = tempPaymentCount */\n      swap2\n      pop\n        /* \"tronbox/contracts/SmartGenie.sol\":22183:22347  if(_payer == userList[1]) {... */\n    tag_358:\n        /* \"tronbox/contracts/SmartGenie.sol\":22014:22967  if(tempPaymentCount == 2 &&... */\n      jump(tag_359)\n    tag_355:\n        /* \"tronbox/contracts/SmartGenie.sol\":22527:22528  1 */\n      0x01\n        /* \"tronbox/contracts/SmartGenie.sol\":22507:22523  tempPaymentCount */\n      dup2\n        /* \"tronbox/contracts/SmartGenie.sol\":22507:22528  tempPaymentCount == 1 */\n      eq\n        /* \"tronbox/contracts/SmartGenie.sol\":22507:22569  tempPaymentCount == 1 &&... */\n      dup1\n      iszero\n      tag_360\n      jumpi\n      pop\n        /* \"tronbox/contracts/SmartGenie.sol\":22568:22569  0 */\n      0x00\n        /* \"tronbox/contracts/SmartGenie.sol\":22542:22547  users */\n      0x0a\n        /* \"tronbox/contracts/SmartGenie.sol\":22542:22555  users[_payer] */\n      0x00\n        /* \"tronbox/contracts/SmartGenie.sol\":22548:22554  _payer */\n      dup13\n        /* \"tronbox/contracts/SmartGenie.sol\":22542:22555  users[_payer] */\n      0xffffffffffffffffffffffffffffffffffffffff\n      and\n      0xffffffffffffffffffffffffffffffffffffffff\n      and\n      dup2\n      mstore\n      0x20\n      add\n      swap1\n      dup2\n      mstore\n      0x20\n      add\n      0x00\n      keccak256\n        /* \"tronbox/contracts/SmartGenie.sol\":22542:22566  users[_payer].referrerID */\n      0x02\n      add\n      sload\n        /* \"tronbox/contracts/SmartGenie.sol\":22542:22569  users[_payer].referrerID==0 */\n      eq\n        /* \"tronbox/contracts/SmartGenie.sol\":22507:22569  tempPaymentCount == 1 &&... */\n    tag_360:\n        /* \"tronbox/contracts/SmartGenie.sol\":22504:22967  if(tempPaymentCount == 1 &&... */\n      iszero\n      tag_361\n      jumpi\n        /* \"tronbox/contracts/SmartGenie.sol\":22588:22593  users */\n      0x0a\n        /* \"tronbox/contracts/SmartGenie.sol\":22588:22601  users[_payer] */\n      0x00\n        /* \"tronbox/contracts/SmartGenie.sol\":22594:22600  _payer */\n      dup12\n        /* \"tronbox/contracts/SmartGenie.sol\":22588:22601  users[_payer] */\n      0xffffffffffffffffffffffffffffffffffffffff\n      and\n      0xffffffffffffffffffffffffffffffffffffffff\n      and\n      dup2\n      mstore\n      0x20\n      add\n      swap1\n      dup2\n      mstore\n      0x20\n      add\n      0x00\n      keccak256\n        /* \"tronbox/contracts/SmartGenie.sol\":22588:22609  users[_payer].isExist */\n      0x00\n      add\n      0x00\n      swap1\n      sload\n      swap1\n      0x0100\n      exp\n      swap1\n      div\n      0xff\n      and\n        /* \"tronbox/contracts/SmartGenie.sol\":22584:22631  if(!users[_payer].isExist) _payer = userList[1] */\n      tag_362\n      jumpi\n        /* \"tronbox/contracts/SmartGenie.sol\":22620:22628  userList */\n      0x0b\n        /* \"tronbox/contracts/SmartGenie.sol\":22620:22631  userList[1] */\n      0x00\n        /* \"tronbox/contracts/SmartGenie.sol\":22629:22630  1 */\n      0x01\n        /* \"tronbox/contracts/SmartGenie.sol\":22620:22631  userList[1] */\n      dup2\n      mstore\n      0x20\n      add\n      swap1\n      dup2\n      mstore\n      0x20\n      add\n      0x00\n      keccak256\n      0x00\n      swap1\n      sload\n      swap1\n      0x0100\n      exp\n      swap1\n      div\n      0xffffffffffffffffffffffffffffffffffffffff\n      and\n        /* \"tronbox/contracts/SmartGenie.sol\":22611:22631  _payer = userList[1] */\n      swap10\n      pop\n        /* \"tronbox/contracts/SmartGenie.sol\":22584:22631  if(!users[_payer].isExist) _payer = userList[1] */\n    tag_362:\n        /* \"tronbox/contracts/SmartGenie.sol\":22504:22967  if(tempPaymentCount == 1 &&... */\n      jump(tag_363)\n    tag_361:\n        /* \"tronbox/contracts/SmartGenie.sol\":22767:22768  1 */\n      0x01\n        /* \"tronbox/contracts/SmartGenie.sol\":22747:22763  tempPaymentCount */\n      dup2\n        /* \"tronbox/contracts/SmartGenie.sol\":22747:22768  tempPaymentCount == 1 */\n      eq\n        /* \"tronbox/contracts/SmartGenie.sol\":22747:22809  tempPaymentCount == 1 &&... */\n      dup1\n      iszero\n      tag_364\n      jumpi\n      pop\n        /* \"tronbox/contracts/SmartGenie.sol\":22808:22809  0 */\n      0x00\n        /* \"tronbox/contracts/SmartGenie.sol\":22782:22787  users */\n      0x0a\n        /* \"tronbox/contracts/SmartGenie.sol\":22782:22795  users[_payer] */\n      0x00\n        /* \"tronbox/contracts/SmartGenie.sol\":22788:22794  _payer */\n      dup13\n        /* \"tronbox/contracts/SmartGenie.sol\":22782:22795  users[_payer] */\n      0xffffffffffffffffffffffffffffffffffffffff\n      and\n      0xffffffffffffffffffffffffffffffffffffffff\n      and\n      dup2\n      mstore\n      0x20\n      add\n      swap1\n      dup2\n      mstore\n      0x20\n      add\n      0x00\n      keccak256\n        /* \"tronbox/contracts/SmartGenie.sol\":22782:22806  users[_payer].referrerID */\n      0x02\n      add\n      sload\n        /* \"tronbox/contracts/SmartGenie.sol\":22782:22809  users[_payer].referrerID!=0 */\n      eq\n      iszero\n        /* \"tronbox/contracts/SmartGenie.sol\":22747:22809  tempPaymentCount == 1 &&... */\n    tag_364:\n        /* \"tronbox/contracts/SmartGenie.sol\":22747:22822  tempPaymentCount == 1 &&... */\n      dup1\n      iszero\n      tag_365\n      jumpi\n      pop\n        /* \"tronbox/contracts/SmartGenie.sol\":22813:22822  isRenewal */\n      dup7\n        /* \"tronbox/contracts/SmartGenie.sol\":22747:22822  tempPaymentCount == 1 &&... */\n    tag_365:\n        /* \"tronbox/contracts/SmartGenie.sol\":22744:22967  if(tempPaymentCount == 1 &&... */\n      iszero\n      tag_366\n      jumpi\n        /* \"tronbox/contracts/SmartGenie.sol\":22841:22846  users */\n      0x0a\n        /* \"tronbox/contracts/SmartGenie.sol\":22841:22854  users[_payer] */\n      0x00\n        /* \"tronbox/contracts/SmartGenie.sol\":22847:22853  _payer */\n      dup12\n        /* \"tronbox/contracts/SmartGenie.sol\":22841:22854  users[_payer] */\n      0xffffffffffffffffffffffffffffffffffffffff\n      and\n      0xffffffffffffffffffffffffffffffffffffffff\n      and\n      dup2\n      mstore\n      0x20\n      add\n      swap1\n      dup2\n      mstore\n      0x20\n      add\n      0x00\n      keccak256\n        /* \"tronbox/contracts/SmartGenie.sol\":22841:22862  users[_payer].isExist */\n      0x00\n      add\n      0x00\n      swap1\n      sload\n      swap1\n      0x0100\n      exp\n      swap1\n      div\n      0xff\n      and\n        /* \"tronbox/contracts/SmartGenie.sol\":22837:22884  if(!users[_payer].isExist) _payer = userList[1] */\n      tag_367\n      jumpi\n        /* \"tronbox/contracts/SmartGenie.sol\":22873:22881  userList */\n      0x0b\n        /* \"tronbox/contracts/SmartGenie.sol\":22873:22884  userList[1] */\n      0x00\n        /* \"tronbox/contracts/SmartGenie.sol\":22882:22883  1 */\n      0x01\n        /* \"tronbox/contracts/SmartGenie.sol\":22873:22884  userList[1] */\n      dup2\n      mstore\n      0x20\n      add\n      swap1\n      dup2\n      mstore\n      0x20\n      add\n      0x00\n      keccak256\n      0x00\n      swap1\n      sload\n      swap1\n      0x0100\n      exp\n      swap1\n      div\n      0xffffffffffffffffffffffffffffffffffffffff\n      and\n        /* \"tronbox/contracts/SmartGenie.sol\":22864:22884  _payer = userList[1] */\n      swap10\n      pop\n        /* \"tronbox/contracts/SmartGenie.sol\":22837:22884  if(!users[_payer].isExist) _payer = userList[1] */\n    tag_367:\n        /* \"tronbox/contracts/SmartGenie.sol\":22909:22913  true */\n      0x01\n        /* \"tronbox/contracts/SmartGenie.sol\":22902:22913  loop = true */\n      swap3\n      pop\n        /* \"tronbox/contracts/SmartGenie.sol\":22940:22956  tempPaymentCount */\n      dup1\n        /* \"tronbox/contracts/SmartGenie.sol\":22931:22956  length = tempPaymentCount */\n      swap2\n      pop\n        /* \"tronbox/contracts/SmartGenie.sol\":22744:22967  if(tempPaymentCount == 1 &&... */\n    tag_366:\n        /* \"tronbox/contracts/SmartGenie.sol\":22504:22967  if(tempPaymentCount == 1 &&... */\n    tag_363:\n        /* \"tronbox/contracts/SmartGenie.sol\":22014:22967  if(tempPaymentCount == 2 &&... */\n    tag_359:\n        /* \"tronbox/contracts/SmartGenie.sol\":21548:22967  if (tempPaymentCount >= 4 &&... */\n    tag_351:\n        /* \"tronbox/contracts/SmartGenie.sol\":21108:22967  if(tempPaymentCount >= 4 &&... */\n    tag_342:\n        /* \"tronbox/contracts/SmartGenie.sol\":20856:22967  if(levelCounter[_regLevel][_payer] == 2) {... */\n    tag_334:\n        /* \"tronbox/contracts/SmartGenie.sol\":22992:22996  loop */\n      dup3\n        /* \"tronbox/contracts/SmartGenie.sol\":22998:23004  length */\n      dup3\n        /* \"tronbox/contracts/SmartGenie.sol\":22984:23005  return (loop, length) */\n      swap5\n      pop\n      swap5\n      pop\n      pop\n      pop\n      pop\n        /* \"tronbox/contracts/SmartGenie.sol\":20401:23012  function checkLoopRequired(address _payer, uint256 _regLevel, uint256 _length, bool isRenewal, bool isSameLeg) ... */\n      swap6\n      pop\n      swap6\n      swap4\n      pop\n      pop\n      pop\n      pop\n      jump\t// out\n        /* \"tronbox/contracts/SmartGenie.sol\":11925:16981  function findEligiblePayer(address _referrer, uint256 _regLevel, uint256 _levelEligibility) internal returns (address, address){... */\n    tag_310:\n        /* \"tronbox/contracts/SmartGenie.sol\":12035:12042  address */\n      0x00\n        /* \"tronbox/contracts/SmartGenie.sol\":12044:12051  address */\n      dup1\n        /* \"tronbox/contracts/SmartGenie.sol\":12065:12087  address _eligiblePayer */\n      0x00\n        /* \"tronbox/contracts/SmartGenie.sol\":12101:12122  address _tempreferrer */\n      dup1\n        /* \"tronbox/contracts/SmartGenie.sol\":12125:12134  _referrer */\n      dup7\n        /* \"tronbox/contracts/SmartGenie.sol\":12101:12134  address _tempreferrer = _referrer */\n      swap1\n      pop\n        /* \"tronbox/contracts/SmartGenie.sol\":12230:12235  int i */\n      0x00\n        /* \"tronbox/contracts/SmartGenie.sol\":12226:16829  for(int i=0; i<9; i++) { ... */\n    tag_369:\n        /* \"tronbox/contracts/SmartGenie.sol\":12241:12242  9 */\n      0x09\n        /* \"tronbox/contracts/SmartGenie.sol\":12239:12240  i */\n      dup2\n        /* \"tronbox/contracts/SmartGenie.sol\":12239:12242  i<9 */\n      slt\n        /* \"tronbox/contracts/SmartGenie.sol\":12226:16829  for(int i=0; i<9; i++) { ... */\n      iszero\n      tag_370\n      jumpi\n        /* \"tronbox/contracts/SmartGenie.sol\":12446:12447  1 */\n      0x01\n        /* \"tronbox/contracts/SmartGenie.sol\":12415:12420  users */\n      0x0a\n        /* \"tronbox/contracts/SmartGenie.sol\":12415:12431  users[_referrer] */\n      0x00\n        /* \"tronbox/contracts/SmartGenie.sol\":12421:12430  _referrer */\n      dup11\n        /* \"tronbox/contracts/SmartGenie.sol\":12415:12431  users[_referrer] */\n      0xffffffffffffffffffffffffffffffffffffffff\n      and\n      0xffffffffffffffffffffffffffffffffffffffff\n      and\n      dup2\n      mstore\n      0x20\n      add\n      swap1\n      dup2\n      mstore\n      0x20\n      add\n      0x00\n      keccak256\n        /* \"tronbox/contracts/SmartGenie.sol\":12415:12442  users[_referrer].referrerID */\n      0x02\n      add\n      sload\n        /* \"tronbox/contracts/SmartGenie.sol\":12415:12447  users[_referrer].referrerID == 1 */\n      eq\n        /* \"tronbox/contracts/SmartGenie.sol\":12415:12480  users[_referrer].referrerID == 1 || _eligiblePayer == userList[1] */\n      dup1\n      tag_372\n      jumpi\n      pop\n        /* \"tronbox/contracts/SmartGenie.sol\":12469:12477  userList */\n      0x0b\n        /* \"tronbox/contracts/SmartGenie.sol\":12469:12480  userList[1] */\n      0x00\n        /* \"tronbox/contracts/SmartGenie.sol\":12478:12479  1 */\n      0x01\n        /* \"tronbox/contracts/SmartGenie.sol\":12469:12480  userList[1] */\n      dup2\n      mstore\n      0x20\n      add\n      swap1\n      dup2\n      mstore\n      0x20\n      add\n      0x00\n      keccak256\n      0x00\n      swap1\n      sload\n      swap1\n      0x0100\n      exp\n      swap1\n      div\n      0xffffffffffffffffffffffffffffffffffffffff\n      and\n        /* \"tronbox/contracts/SmartGenie.sol\":12451:12480  _eligiblePayer == userList[1] */\n      0xffffffffffffffffffffffffffffffffffffffff\n      and\n        /* \"tronbox/contracts/SmartGenie.sol\":12451:12465  _eligiblePayer */\n      dup4\n        /* \"tronbox/contracts/SmartGenie.sol\":12451:12480  _eligiblePayer == userList[1] */\n      0xffffffffffffffffffffffffffffffffffffffff\n      and\n      eq\n        /* \"tronbox/contracts/SmartGenie.sol\":12415:12480  users[_referrer].referrerID == 1 || _eligiblePayer == userList[1] */\n    tag_372:\n        /* \"tronbox/contracts/SmartGenie.sol\":12415:12512  users[_referrer].referrerID == 1 || _eligiblePayer == userList[1] || _tempreferrer == userList[1] */\n      dup1\n      tag_373\n      jumpi\n      pop\n        /* \"tronbox/contracts/SmartGenie.sol\":12501:12509  userList */\n      0x0b\n        /* \"tronbox/contracts/SmartGenie.sol\":12501:12512  userList[1] */\n      0x00\n        /* \"tronbox/contracts/SmartGenie.sol\":12510:12511  1 */\n      0x01\n        /* \"tronbox/contracts/SmartGenie.sol\":12501:12512  userList[1] */\n      dup2\n      mstore\n      0x20\n      add\n      swap1\n      dup2\n      mstore\n      0x20\n      add\n      0x00\n      keccak256\n      0x00\n      swap1\n      sload\n      swap1\n      0x0100\n      exp\n      swap1\n      div\n      0xffffffffffffffffffffffffffffffffffffffff\n      and\n        /* \"tronbox/contracts/SmartGenie.sol\":12484:12512  _tempreferrer == userList[1] */\n      0xffffffffffffffffffffffffffffffffffffffff\n      and\n        /* \"tronbox/contracts/SmartGenie.sol\":12484:12497  _tempreferrer */\n      dup3\n        /* \"tronbox/contracts/SmartGenie.sol\":12484:12512  _tempreferrer == userList[1] */\n      0xffffffffffffffffffffffffffffffffffffffff\n      and\n      eq\n        /* \"tronbox/contracts/SmartGenie.sol\":12415:12512  users[_referrer].referrerID == 1 || _eligiblePayer == userList[1] || _tempreferrer == userList[1] */\n    tag_373:\n        /* \"tronbox/contracts/SmartGenie.sol\":12412:16811  if(users[_referrer].referrerID == 1 || _eligiblePayer == userList[1] || _tempreferrer == userList[1]) {... */\n      iszero\n      tag_374\n      jumpi\n        /* \"tronbox/contracts/SmartGenie.sol\":12540:12545  break */\n      jump(tag_370)\n        /* \"tronbox/contracts/SmartGenie.sol\":12412:16811  if(users[_referrer].referrerID == 1 || _eligiblePayer == userList[1] || _tempreferrer == userList[1]) {... */\n    tag_374:\n        /* \"tronbox/contracts/SmartGenie.sol\":12600:12616  uint256 _lelevel */\n      0x00\n        /* \"tronbox/contracts/SmartGenie.sol\":12664:12665  1 */\n      0x01\n        /* \"tronbox/contracts/SmartGenie.sol\":12619:12624  users */\n      0x0a\n        /* \"tronbox/contracts/SmartGenie.sol\":12619:12639  users[_tempreferrer] */\n      0x00\n        /* \"tronbox/contracts/SmartGenie.sol\":12625:12638  _tempreferrer */\n      dup6\n        /* \"tronbox/contracts/SmartGenie.sol\":12619:12639  users[_tempreferrer] */\n      0xffffffffffffffffffffffffffffffffffffffff\n      and\n      0xffffffffffffffffffffffffffffffffffffffff\n      and\n      dup2\n      mstore\n      0x20\n      add\n      swap1\n      dup2\n      mstore\n      0x20\n      add\n      0x00\n      keccak256\n        /* \"tronbox/contracts/SmartGenie.sol\":12619:12656  users[_tempreferrer].levelEligibility */\n      0x06\n      add\n        /* \"tronbox/contracts/SmartGenie.sol\":12619:12663  users[_tempreferrer].levelEligibility.length */\n      dup1\n      sload\n      swap1\n      pop\n        /* \"tronbox/contracts/SmartGenie.sol\":12619:12665  users[_tempreferrer].levelEligibility.length-1 */\n      tag_376\n      swap2\n      swap1\n      tag_251\n      jump\t// in\n    tag_376:\n        /* \"tronbox/contracts/SmartGenie.sol\":12600:12665  uint256 _lelevel = users[_tempreferrer].levelEligibility.length-1 */\n      swap1\n      pop\n        /* \"tronbox/contracts/SmartGenie.sol\":12711:12716  users */\n      0x0a\n        /* \"tronbox/contracts/SmartGenie.sol\":12711:12731  users[_tempreferrer] */\n      0x00\n        /* \"tronbox/contracts/SmartGenie.sol\":12717:12730  _tempreferrer */\n      dup5\n        /* \"tronbox/contracts/SmartGenie.sol\":12711:12731  users[_tempreferrer] */\n      0xffffffffffffffffffffffffffffffffffffffff\n      and\n      0xffffffffffffffffffffffffffffffffffffffff\n      and\n      dup2\n      mstore\n      0x20\n      add\n      swap1\n      dup2\n      mstore\n      0x20\n      add\n      0x00\n      keccak256\n        /* \"tronbox/contracts/SmartGenie.sol\":12711:12748  users[_tempreferrer].levelEligibility */\n      0x06\n      add\n        /* \"tronbox/contracts/SmartGenie.sol\":12749:12757  _lelevel */\n      dup2\n        /* \"tronbox/contracts/SmartGenie.sol\":12711:12758  users[_tempreferrer].levelEligibility[_lelevel] */\n      dup2\n      sload\n      dup2\n      lt\n      tag_377\n      jumpi\n      tag_378\n      tag_211\n      jump\t// in\n    tag_378:\n    tag_377:\n      swap1\n      0x00\n      mstore\n      keccak256(0x00, 0x20)\n      add\n      sload\n        /* \"tronbox/contracts/SmartGenie.sol\":12691:12758  _levelEligibility = users[_tempreferrer].levelEligibility[_lelevel] */\n      swap7\n      pop\n        /* \"tronbox/contracts/SmartGenie.sol\":12810:12824  address payer1 */\n      0x00\n        /* \"tronbox/contracts/SmartGenie.sol\":12827:12835  userList */\n      0x0b\n        /* \"tronbox/contracts/SmartGenie.sol\":12827:12868  userList[users[_tempreferrer].referrerID] */\n      0x00\n        /* \"tronbox/contracts/SmartGenie.sol\":12836:12841  users */\n      0x0a\n        /* \"tronbox/contracts/SmartGenie.sol\":12836:12856  users[_tempreferrer] */\n      0x00\n        /* \"tronbox/contracts/SmartGenie.sol\":12842:12855  _tempreferrer */\n      dup8\n        /* \"tronbox/contracts/SmartGenie.sol\":12836:12856  users[_tempreferrer] */\n      0xffffffffffffffffffffffffffffffffffffffff\n      and\n      0xffffffffffffffffffffffffffffffffffffffff\n      and\n      dup2\n      mstore\n      0x20\n      add\n      swap1\n      dup2\n      mstore\n      0x20\n      add\n      0x00\n      keccak256\n        /* \"tronbox/contracts/SmartGenie.sol\":12836:12867  users[_tempreferrer].referrerID */\n      0x02\n      add\n      sload\n        /* \"tronbox/contracts/SmartGenie.sol\":12827:12868  userList[users[_tempreferrer].referrerID] */\n      dup2\n      mstore\n      0x20\n      add\n      swap1\n      dup2\n      mstore\n      0x20\n      add\n      0x00\n      keccak256\n      0x00\n      swap1\n      sload\n      swap1\n      0x0100\n      exp\n      swap1\n      div\n      0xffffffffffffffffffffffffffffffffffffffff\n      and\n        /* \"tronbox/contracts/SmartGenie.sol\":12810:12868  address payer1 = userList[users[_tempreferrer].referrerID] */\n      swap1\n      pop\n        /* \"tronbox/contracts/SmartGenie.sol\":12898:12917  address secReferrer */\n      0x00\n        /* \"tronbox/contracts/SmartGenie.sol\":12920:12928  userList */\n      0x0b\n        /* \"tronbox/contracts/SmartGenie.sol\":12920:12954  userList[users[payer1].referrerID] */\n      0x00\n        /* \"tronbox/contracts/SmartGenie.sol\":12929:12934  users */\n      0x0a\n        /* \"tronbox/contracts/SmartGenie.sol\":12929:12942  users[payer1] */\n      0x00\n        /* \"tronbox/contracts/SmartGenie.sol\":12935:12941  payer1 */\n      dup6\n        /* \"tronbox/contracts/SmartGenie.sol\":12929:12942  users[payer1] */\n      0xffffffffffffffffffffffffffffffffffffffff\n      and\n      0xffffffffffffffffffffffffffffffffffffffff\n      and\n      dup2\n      mstore\n      0x20\n      add\n      swap1\n      dup2\n      mstore\n      0x20\n      add\n      0x00\n      keccak256\n        /* \"tronbox/contracts/SmartGenie.sol\":12929:12953  users[payer1].referrerID */\n      0x02\n      add\n      sload\n        /* \"tronbox/contracts/SmartGenie.sol\":12920:12954  userList[users[payer1].referrerID] */\n      dup2\n      mstore\n      0x20\n      add\n      swap1\n      dup2\n      mstore\n      0x20\n      add\n      0x00\n      keccak256\n      0x00\n      swap1\n      sload\n      swap1\n      0x0100\n      exp\n      swap1\n      div\n      0xffffffffffffffffffffffffffffffffffffffff\n      and\n        /* \"tronbox/contracts/SmartGenie.sol\":12898:12954  address secReferrer = userList[users[payer1].referrerID] */\n      swap1\n      pop\n        /* \"tronbox/contracts/SmartGenie.sol\":12990:12996  uint j */\n      0x00\n        /* \"tronbox/contracts/SmartGenie.sol\":12997:12998  1 */\n      0x01\n        /* \"tronbox/contracts/SmartGenie.sol\":12990:12998  uint j=1 */\n      swap1\n      pop\n        /* \"tronbox/contracts/SmartGenie.sol\":12985:13260  for (uint j=1; j< _regLevel; j++) {... */\n    tag_380:\n        /* \"tronbox/contracts/SmartGenie.sol\":13003:13012  _regLevel */\n      dup11\n        /* \"tronbox/contracts/SmartGenie.sol\":13000:13001  j */\n      dup2\n        /* \"tronbox/contracts/SmartGenie.sol\":13000:13012  j< _regLevel */\n      lt\n        /* \"tronbox/contracts/SmartGenie.sol\":12985:13260  for (uint j=1; j< _regLevel; j++) {... */\n      iszero\n      tag_381\n      jumpi\n        /* \"tronbox/contracts/SmartGenie.sol\":13067:13075  userList */\n      0x0b\n        /* \"tronbox/contracts/SmartGenie.sol\":13067:13078  userList[1] */\n      0x00\n        /* \"tronbox/contracts/SmartGenie.sol\":13076:13077  1 */\n      0x01\n        /* \"tronbox/contracts/SmartGenie.sol\":13067:13078  userList[1] */\n      dup2\n      mstore\n      0x20\n      add\n      swap1\n      dup2\n      mstore\n      0x20\n      add\n      0x00\n      keccak256\n      0x00\n      swap1\n      sload\n      swap1\n      0x0100\n      exp\n      swap1\n      div\n      0xffffffffffffffffffffffffffffffffffffffff\n      and\n        /* \"tronbox/contracts/SmartGenie.sol\":13052:13078  secReferrer == userList[1] */\n      0xffffffffffffffffffffffffffffffffffffffff\n      and\n        /* \"tronbox/contracts/SmartGenie.sol\":13052:13063  secReferrer */\n      dup3\n        /* \"tronbox/contracts/SmartGenie.sol\":13052:13078  secReferrer == userList[1] */\n      0xffffffffffffffffffffffffffffffffffffffff\n      and\n      eq\n        /* \"tronbox/contracts/SmartGenie.sol\":13049:13150  if(secReferrer == userList[1]) {... */\n      iszero\n      tag_383\n      jumpi\n        /* \"tronbox/contracts/SmartGenie.sol\":13114:13119  break */\n      jump(tag_381)\n        /* \"tronbox/contracts/SmartGenie.sol\":13049:13150  if(secReferrer == userList[1]) {... */\n    tag_383:\n        /* \"tronbox/contracts/SmartGenie.sol\":13193:13201  userList */\n      0x0b\n        /* \"tronbox/contracts/SmartGenie.sol\":13193:13232  userList[users[secReferrer].referrerID] */\n      0x00\n        /* \"tronbox/contracts/SmartGenie.sol\":13202:13207  users */\n      0x0a\n        /* \"tronbox/contracts/SmartGenie.sol\":13202:13220  users[secReferrer] */\n      0x00\n        /* \"tronbox/contracts/SmartGenie.sol\":13208:13219  secReferrer */\n      dup6\n        /* \"tronbox/contracts/SmartGenie.sol\":13202:13220  users[secReferrer] */\n      0xffffffffffffffffffffffffffffffffffffffff\n      and\n      0xffffffffffffffffffffffffffffffffffffffff\n      and\n      dup2\n      mstore\n      0x20\n      add\n      swap1\n      dup2\n      mstore\n      0x20\n      add\n      0x00\n      keccak256\n        /* \"tronbox/contracts/SmartGenie.sol\":13202:13231  users[secReferrer].referrerID */\n      0x02\n      add\n      sload\n        /* \"tronbox/contracts/SmartGenie.sol\":13193:13232  userList[users[secReferrer].referrerID] */\n      dup2\n      mstore\n      0x20\n      add\n      swap1\n      dup2\n      mstore\n      0x20\n      add\n      0x00\n      keccak256\n      0x00\n      swap1\n      sload\n      swap1\n      0x0100\n      exp\n      swap1\n      div\n      0xffffffffffffffffffffffffffffffffffffffff\n      and\n        /* \"tronbox/contracts/SmartGenie.sol\":13179:13232  secReferrer = userList[users[secReferrer].referrerID] */\n      swap2\n      pop\n        /* \"tronbox/contracts/SmartGenie.sol\":13014:13017  j++ */\n      dup1\n      dup1\n      tag_384\n      swap1\n      tag_185\n      jump\t// in\n    tag_384:\n      swap2\n      pop\n      pop\n        /* \"tronbox/contracts/SmartGenie.sol\":12985:13260  for (uint j=1; j< _regLevel; j++) {... */\n      jump(tag_380)\n    tag_381:\n      pop\n        /* \"tronbox/contracts/SmartGenie.sol\":15868:15869  1 */\n      0x01\n        /* \"tronbox/contracts/SmartGenie.sol\":15858:15867  _regLevel */\n      dup11\n        /* \"tronbox/contracts/SmartGenie.sol\":15858:15869  _regLevel+1 */\n      tag_385\n      swap2\n      swap1\n      tag_188\n      jump\t// in\n    tag_385:\n        /* \"tronbox/contracts/SmartGenie.sol\":15838:15855  _levelEligibility */\n      dup10\n        /* \"tronbox/contracts/SmartGenie.sol\":15838:15869  _levelEligibility < _regLevel+1 */\n      lt\n        /* \"tronbox/contracts/SmartGenie.sol\":15835:16789  if(_levelEligibility < _regLevel+1) { ... */\n      iszero\n      tag_386\n      jumpi\n        /* \"tronbox/contracts/SmartGenie.sol\":15902:15907  users */\n      0x0a\n        /* \"tronbox/contracts/SmartGenie.sol\":15902:15920  users[secReferrer] */\n      0x00\n        /* \"tronbox/contracts/SmartGenie.sol\":15908:15919  secReferrer */\n      dup3\n        /* \"tronbox/contracts/SmartGenie.sol\":15902:15920  users[secReferrer] */\n      0xffffffffffffffffffffffffffffffffffffffff\n      and\n      0xffffffffffffffffffffffffffffffffffffffff\n      and\n      dup2\n      mstore\n      0x20\n      add\n      swap1\n      dup2\n      mstore\n      0x20\n      add\n      0x00\n      keccak256\n        /* \"tronbox/contracts/SmartGenie.sol\":15902:15928  users[secReferrer].isExist */\n      0x00\n      add\n      0x00\n      swap1\n      sload\n      swap1\n      0x0100\n      exp\n      swap1\n      div\n      0xff\n      and\n        /* \"tronbox/contracts/SmartGenie.sol\":15901:15928  !users[secReferrer].isExist */\n      iszero\n        /* \"tronbox/contracts/SmartGenie.sol\":15901:15961  !users[secReferrer].isExist || users[payer1].referrerID == 0 */\n      dup1\n      tag_387\n      jumpi\n      pop\n        /* \"tronbox/contracts/SmartGenie.sol\":15960:15961  0 */\n      0x00\n        /* \"tronbox/contracts/SmartGenie.sol\":15932:15937  users */\n      0x0a\n        /* \"tronbox/contracts/SmartGenie.sol\":15932:15945  users[payer1] */\n      0x00\n        /* \"tronbox/contracts/SmartGenie.sol\":15938:15944  payer1 */\n      dup5\n        /* \"tronbox/contracts/SmartGenie.sol\":15932:15945  users[payer1] */\n      0xffffffffffffffffffffffffffffffffffffffff\n      and\n      0xffffffffffffffffffffffffffffffffffffffff\n      and\n      dup2\n      mstore\n      0x20\n      add\n      swap1\n      dup2\n      mstore\n      0x20\n      add\n      0x00\n      keccak256\n        /* \"tronbox/contracts/SmartGenie.sol\":15932:15956  users[payer1].referrerID */\n      0x02\n      add\n      sload\n        /* \"tronbox/contracts/SmartGenie.sol\":15932:15961  users[payer1].referrerID == 0 */\n      eq\n        /* \"tronbox/contracts/SmartGenie.sol\":15901:15961  !users[secReferrer].isExist || users[payer1].referrerID == 0 */\n    tag_387:\n        /* \"tronbox/contracts/SmartGenie.sol\":15901:16023  !users[secReferrer].isExist || users[payer1].referrerID == 0 || ... */\n      dup1\n      tag_388\n      jumpi\n      pop\n        /* \"tronbox/contracts/SmartGenie.sol\":16022:16023  1 */\n      0x01\n        /* \"tronbox/contracts/SmartGenie.sol\":15994:15999  users */\n      0x0a\n        /* \"tronbox/contracts/SmartGenie.sol\":15994:16007  users[payer1] */\n      0x00\n        /* \"tronbox/contracts/SmartGenie.sol\":16000:16006  payer1 */\n      dup5\n        /* \"tronbox/contracts/SmartGenie.sol\":15994:16007  users[payer1] */\n      0xffffffffffffffffffffffffffffffffffffffff\n      and\n      0xffffffffffffffffffffffffffffffffffffffff\n      and\n      dup2\n      mstore\n      0x20\n      add\n      swap1\n      dup2\n      mstore\n      0x20\n      add\n      0x00\n      keccak256\n        /* \"tronbox/contracts/SmartGenie.sol\":15994:16018  users[payer1].referrerID */\n      0x02\n      add\n      sload\n        /* \"tronbox/contracts/SmartGenie.sol\":15994:16023  users[payer1].referrerID == 1 */\n      eq\n        /* \"tronbox/contracts/SmartGenie.sol\":15901:16023  !users[secReferrer].isExist || users[payer1].referrerID == 0 || ... */\n    tag_388:\n        /* \"tronbox/contracts/SmartGenie.sol\":15898:16511  if(!users[secReferrer].isExist || users[payer1].referrerID == 0 || ... */\n      iszero\n      tag_389\n      jumpi\n        /* \"tronbox/contracts/SmartGenie.sol\":16186:16191  users */\n      0x0a\n        /* \"tronbox/contracts/SmartGenie.sol\":16186:16227  users[userList[users[payer1].referrerID]] */\n      0x00\n        /* \"tronbox/contracts/SmartGenie.sol\":16192:16200  userList */\n      0x0b\n        /* \"tronbox/contracts/SmartGenie.sol\":16192:16226  userList[users[payer1].referrerID] */\n      0x00\n        /* \"tronbox/contracts/SmartGenie.sol\":16201:16206  users */\n      0x0a\n        /* \"tronbox/contracts/SmartGenie.sol\":16201:16214  users[payer1] */\n      0x00\n        /* \"tronbox/contracts/SmartGenie.sol\":16207:16213  payer1 */\n      dup8\n        /* \"tronbox/contracts/SmartGenie.sol\":16201:16214  users[payer1] */\n      0xffffffffffffffffffffffffffffffffffffffff\n      and\n      0xffffffffffffffffffffffffffffffffffffffff\n      and\n      dup2\n      mstore\n      0x20\n      add\n      swap1\n      dup2\n      mstore\n      0x20\n      add\n      0x00\n      keccak256\n        /* \"tronbox/contracts/SmartGenie.sol\":16201:16225  users[payer1].referrerID */\n      0x02\n      add\n      sload\n        /* \"tronbox/contracts/SmartGenie.sol\":16192:16226  userList[users[payer1].referrerID] */\n      dup2\n      mstore\n      0x20\n      add\n      swap1\n      dup2\n      mstore\n      0x20\n      add\n      0x00\n      keccak256\n      0x00\n      swap1\n      sload\n      swap1\n      0x0100\n      exp\n      swap1\n      div\n      0xffffffffffffffffffffffffffffffffffffffff\n      and\n        /* \"tronbox/contracts/SmartGenie.sol\":16186:16227  users[userList[users[payer1].referrerID]] */\n      0xffffffffffffffffffffffffffffffffffffffff\n      and\n      0xffffffffffffffffffffffffffffffffffffffff\n      and\n      dup2\n      mstore\n      0x20\n      add\n      swap1\n      dup2\n      mstore\n      0x20\n      add\n      0x00\n      keccak256\n        /* \"tronbox/contracts/SmartGenie.sol\":16186:16235  users[userList[users[payer1].referrerID]].isExist */\n      0x00\n      add\n      0x00\n      swap1\n      sload\n      swap1\n      0x0100\n      exp\n      swap1\n      div\n      0xff\n      and\n        /* \"tronbox/contracts/SmartGenie.sol\":16182:16450  if(!users[userList[users[payer1].referrerID]].isExist) { ... */\n      tag_390\n      jumpi\n        /* \"tronbox/contracts/SmartGenie.sol\":16289:16297  userList */\n      0x0b\n        /* \"tronbox/contracts/SmartGenie.sol\":16289:16300  userList[1] */\n      0x00\n        /* \"tronbox/contracts/SmartGenie.sol\":16298:16299  1 */\n      0x01\n        /* \"tronbox/contracts/SmartGenie.sol\":16289:16300  userList[1] */\n      dup2\n      mstore\n      0x20\n      add\n      swap1\n      dup2\n      mstore\n      0x20\n      add\n      0x00\n      keccak256\n      0x00\n      swap1\n      sload\n      swap1\n      0x0100\n      exp\n      swap1\n      div\n      0xffffffffffffffffffffffffffffffffffffffff\n      and\n        /* \"tronbox/contracts/SmartGenie.sol\":16272:16300  _eligiblePayer = userList[1] */\n      swap6\n      pop\n        /* \"tronbox/contracts/SmartGenie.sol\":16182:16450  if(!users[userList[users[payer1].referrerID]].isExist) { ... */\n      jump(tag_391)\n    tag_390:\n        /* \"tronbox/contracts/SmartGenie.sol\":16385:16393  userList */\n      0x0b\n        /* \"tronbox/contracts/SmartGenie.sol\":16385:16419  userList[users[payer1].referrerID] */\n      0x00\n        /* \"tronbox/contracts/SmartGenie.sol\":16394:16399  users */\n      0x0a\n        /* \"tronbox/contracts/SmartGenie.sol\":16394:16407  users[payer1] */\n      0x00\n        /* \"tronbox/contracts/SmartGenie.sol\":16400:16406  payer1 */\n      dup6\n        /* \"tronbox/contracts/SmartGenie.sol\":16394:16407  users[payer1] */\n      0xffffffffffffffffffffffffffffffffffffffff\n      and\n      0xffffffffffffffffffffffffffffffffffffffff\n      and\n      dup2\n      mstore\n      0x20\n      add\n      swap1\n      dup2\n      mstore\n      0x20\n      add\n      0x00\n      keccak256\n        /* \"tronbox/contracts/SmartGenie.sol\":16394:16418  users[payer1].referrerID */\n      0x02\n      add\n      sload\n        /* \"tronbox/contracts/SmartGenie.sol\":16385:16419  userList[users[payer1].referrerID] */\n      dup2\n      mstore\n      0x20\n      add\n      swap1\n      dup2\n      mstore\n      0x20\n      add\n      0x00\n      keccak256\n      0x00\n      swap1\n      sload\n      swap1\n      0x0100\n      exp\n      swap1\n      div\n      0xffffffffffffffffffffffffffffffffffffffff\n      and\n        /* \"tronbox/contracts/SmartGenie.sol\":16368:16419  _eligiblePayer = userList[users[payer1].referrerID] */\n      swap6\n      pop\n        /* \"tronbox/contracts/SmartGenie.sol\":16182:16450  if(!users[userList[users[payer1].referrerID]].isExist) { ... */\n    tag_391:\n        /* \"tronbox/contracts/SmartGenie.sol\":16479:16484  break */\n      pop\n      pop\n      pop\n      jump(tag_370)\n        /* \"tronbox/contracts/SmartGenie.sol\":15898:16511  if(!users[secReferrer].isExist || users[payer1].referrerID == 0 || ... */\n    tag_389:\n        /* \"tronbox/contracts/SmartGenie.sol\":16553:16564  secReferrer */\n      dup1\n        /* \"tronbox/contracts/SmartGenie.sol\":16537:16564  _tempreferrer = secReferrer */\n      swap5\n      pop\n        /* \"tronbox/contracts/SmartGenie.sol\":16608:16619  secReferrer */\n      dup1\n        /* \"tronbox/contracts/SmartGenie.sol\":16591:16619  _eligiblePayer = secReferrer */\n      swap6\n      pop\n        /* \"tronbox/contracts/SmartGenie.sol\":15835:16789  if(_levelEligibility < _regLevel+1) { ... */\n      jump(tag_392)\n    tag_386:\n        /* \"tronbox/contracts/SmartGenie.sol\":16719:16732  _tempreferrer */\n      dup5\n        /* \"tronbox/contracts/SmartGenie.sol\":16702:16732  _eligiblePayer = _tempreferrer */\n      swap6\n      pop\n        /* \"tronbox/contracts/SmartGenie.sol\":16760:16765  break */\n      pop\n      pop\n      pop\n      jump(tag_370)\n        /* \"tronbox/contracts/SmartGenie.sol\":15835:16789  if(_levelEligibility < _regLevel+1) { ... */\n    tag_392:\n        /* \"tronbox/contracts/SmartGenie.sol\":12574:16811  {... */\n      pop\n      pop\n      pop\n        /* \"tronbox/contracts/SmartGenie.sol\":12244:12247  i++ */\n      dup1\n      dup1\n      tag_393\n      swap1\n      tag_394\n      jump\t// in\n    tag_393:\n      swap2\n      pop\n      pop\n        /* \"tronbox/contracts/SmartGenie.sol\":12226:16829  for(int i=0; i<9; i++) { ... */\n      jump(tag_369)\n    tag_370:\n      pop\n        /* \"tronbox/contracts/SmartGenie.sol\":16924:16925  1 */\n      0x01\n        /* \"tronbox/contracts/SmartGenie.sol\":16884:16889  users */\n      0x0a\n        /* \"tronbox/contracts/SmartGenie.sol\":16884:16900  users[_referrer] */\n      0x00\n        /* \"tronbox/contracts/SmartGenie.sol\":16890:16899  _referrer */\n      dup10\n        /* \"tronbox/contracts/SmartGenie.sol\":16884:16900  users[_referrer] */\n      0xffffffffffffffffffffffffffffffffffffffff\n      and\n      0xffffffffffffffffffffffffffffffffffffffff\n      and\n      dup2\n      mstore\n      0x20\n      add\n      swap1\n      dup2\n      mstore\n      0x20\n      add\n      0x00\n      keccak256\n        /* \"tronbox/contracts/SmartGenie.sol\":16884:16912  users[_referrer].incomeCount */\n      0x05\n      add\n        /* \"tronbox/contracts/SmartGenie.sol\":16884:16923  users[_referrer].incomeCount[_regLevel] */\n      0x00\n        /* \"tronbox/contracts/SmartGenie.sol\":16913:16922  _regLevel */\n      dup9\n        /* \"tronbox/contracts/SmartGenie.sol\":16884:16923  users[_referrer].incomeCount[_regLevel] */\n      dup2\n      mstore\n      0x20\n      add\n      swap1\n      dup2\n      mstore\n      0x20\n      add\n      0x00\n      keccak256\n      sload\n        /* \"tronbox/contracts/SmartGenie.sol\":16884:16925  users[_referrer].incomeCount[_regLevel]+1 */\n      tag_395\n      swap2\n      swap1\n      tag_188\n      jump\t// in\n    tag_395:\n        /* \"tronbox/contracts/SmartGenie.sol\":16842:16847  users */\n      0x0a\n        /* \"tronbox/contracts/SmartGenie.sol\":16842:16858  users[_referrer] */\n      0x00\n        /* \"tronbox/contracts/SmartGenie.sol\":16848:16857  _referrer */\n      dup10\n        /* \"tronbox/contracts/SmartGenie.sol\":16842:16858  users[_referrer] */\n      0xffffffffffffffffffffffffffffffffffffffff\n      and\n      0xffffffffffffffffffffffffffffffffffffffff\n      and\n      dup2\n      mstore\n      0x20\n      add\n      swap1\n      dup2\n      mstore\n      0x20\n      add\n      0x00\n      keccak256\n        /* \"tronbox/contracts/SmartGenie.sol\":16842:16870  users[_referrer].incomeCount */\n      0x05\n      add\n        /* \"tronbox/contracts/SmartGenie.sol\":16842:16881  users[_referrer].incomeCount[_regLevel] */\n      0x00\n        /* \"tronbox/contracts/SmartGenie.sol\":16871:16880  _regLevel */\n      dup9\n        /* \"tronbox/contracts/SmartGenie.sol\":16842:16881  users[_referrer].incomeCount[_regLevel] */\n      dup2\n      mstore\n      0x20\n      add\n      swap1\n      dup2\n      mstore\n      0x20\n      add\n      0x00\n      keccak256\n        /* \"tronbox/contracts/SmartGenie.sol\":16842:16925  users[_referrer].incomeCount[_regLevel] = users[_referrer].incomeCount[_regLevel]+1 */\n      dup2\n      swap1\n      sstore\n      pop\n        /* \"tronbox/contracts/SmartGenie.sol\":16948:16962  _eligiblePayer */\n      dup2\n        /* \"tronbox/contracts/SmartGenie.sol\":16964:16973  _referrer */\n      dup8\n        /* \"tronbox/contracts/SmartGenie.sol\":16940:16974  return (_eligiblePayer, _referrer) */\n      swap4\n      pop\n      swap4\n      pop\n      pop\n      pop\n        /* \"tronbox/contracts/SmartGenie.sol\":11925:16981  function findEligiblePayer(address _referrer, uint256 _regLevel, uint256 _levelEligibility) internal returns (address, address){... */\n      swap4\n      pop\n      swap4\n      swap2\n      pop\n      pop\n      jump\t// out\n        /* \"tronbox/contracts/SmartGenie.sol\":23022:24565  function isLevelUpgradeFromSameLeg(address _payer, address _existingReferrer, address _newReferrer) ... */\n    tag_319:\n        /* \"tronbox/contracts/SmartGenie.sol\":23157:23161  bool */\n      0x00\n        /* \"tronbox/contracts/SmartGenie.sol\":23172:23186  bool isSameLeg */\n      dup1\n        /* \"tronbox/contracts/SmartGenie.sol\":23189:23194  false */\n      0x00\n        /* \"tronbox/contracts/SmartGenie.sol\":23172:23194  bool isSameLeg = false */\n      swap1\n      pop\n        /* \"tronbox/contracts/SmartGenie.sol\":23213:23244  address[] memory payerReferrals */\n      0x00\n        /* \"tronbox/contracts/SmartGenie.sol\":23247:23271  getUserReferrals(_payer) */\n      tag_397\n        /* \"tronbox/contracts/SmartGenie.sol\":23264:23270  _payer */\n      dup7\n        /* \"tronbox/contracts/SmartGenie.sol\":23247:23263  getUserReferrals */\n      tag_54\n        /* \"tronbox/contracts/SmartGenie.sol\":23247:23271  getUserReferrals(_payer) */\n      jump\t// in\n    tag_397:\n        /* \"tronbox/contracts/SmartGenie.sol\":23213:23271  address[] memory payerReferrals = getUserReferrals(_payer) */\n      swap1\n      pop\n        /* \"tronbox/contracts/SmartGenie.sol\":23281:23297  address firstLeg */\n      0x00\n        /* \"tronbox/contracts/SmartGenie.sol\":23300:23317  _existingReferrer */\n      dup6\n        /* \"tronbox/contracts/SmartGenie.sol\":23281:23317  address firstLeg = _existingReferrer */\n      swap1\n      pop\n        /* \"tronbox/contracts/SmartGenie.sol\":23328:23345  address secondLeg */\n      0x00\n        /* \"tronbox/contracts/SmartGenie.sol\":23348:23360  _newReferrer */\n      dup6\n        /* \"tronbox/contracts/SmartGenie.sol\":23328:23360  address secondLeg = _newReferrer */\n      swap1\n      pop\n        /* \"tronbox/contracts/SmartGenie.sol\":23379:23400  address tempReferrer1 */\n      0x00\n        /* \"tronbox/contracts/SmartGenie.sol\":23403:23411  userList */\n      0x0b\n        /* \"tronbox/contracts/SmartGenie.sol\":23403:23439  userList[users[firstLeg].referrerID] */\n      0x00\n        /* \"tronbox/contracts/SmartGenie.sol\":23412:23417  users */\n      0x0a\n        /* \"tronbox/contracts/SmartGenie.sol\":23412:23427  users[firstLeg] */\n      0x00\n        /* \"tronbox/contracts/SmartGenie.sol\":23418:23426  firstLeg */\n      dup7\n        /* \"tronbox/contracts/SmartGenie.sol\":23412:23427  users[firstLeg] */\n      0xffffffffffffffffffffffffffffffffffffffff\n      and\n      0xffffffffffffffffffffffffffffffffffffffff\n      and\n      dup2\n      mstore\n      0x20\n      add\n      swap1\n      dup2\n      mstore\n      0x20\n      add\n      0x00\n      keccak256\n        /* \"tronbox/contracts/SmartGenie.sol\":23412:23438  users[firstLeg].referrerID */\n      0x02\n      add\n      sload\n        /* \"tronbox/contracts/SmartGenie.sol\":23403:23439  userList[users[firstLeg].referrerID] */\n      dup2\n      mstore\n      0x20\n      add\n      swap1\n      dup2\n      mstore\n      0x20\n      add\n      0x00\n      keccak256\n      0x00\n      swap1\n      sload\n      swap1\n      0x0100\n      exp\n      swap1\n      div\n      0xffffffffffffffffffffffffffffffffffffffff\n      and\n        /* \"tronbox/contracts/SmartGenie.sol\":23379:23439  address tempReferrer1 = userList[users[firstLeg].referrerID] */\n      swap1\n      pop\n        /* \"tronbox/contracts/SmartGenie.sol\":23454:23459  int i */\n      0x00\n        /* \"tronbox/contracts/SmartGenie.sol\":23450:23910  for(int i=0; i<12; i++) { ... */\n    tag_398:\n        /* \"tronbox/contracts/SmartGenie.sol\":23465:23467  12 */\n      0x0c\n        /* \"tronbox/contracts/SmartGenie.sol\":23463:23464  i */\n      dup2\n        /* \"tronbox/contracts/SmartGenie.sol\":23463:23467  i<12 */\n      slt\n        /* \"tronbox/contracts/SmartGenie.sol\":23450:23910  for(int i=0; i<12; i++) { ... */\n      iszero\n      tag_399\n      jumpi\n        /* \"tronbox/contracts/SmartGenie.sol\":23489:23507  bool foundReferrer */\n      0x00\n        /* \"tronbox/contracts/SmartGenie.sol\":23539:23545  uint j */\n      dup1\n        /* \"tronbox/contracts/SmartGenie.sol\":23534:23788  for (uint j=0; j<payerReferrals.length; j++) {... */\n    tag_401:\n        /* \"tronbox/contracts/SmartGenie.sol\":23551:23565  payerReferrals */\n      dup7\n        /* \"tronbox/contracts/SmartGenie.sol\":23551:23572  payerReferrals.length */\n      mload\n        /* \"tronbox/contracts/SmartGenie.sol\":23549:23550  j */\n      dup2\n        /* \"tronbox/contracts/SmartGenie.sol\":23549:23572  j<payerReferrals.length */\n      lt\n        /* \"tronbox/contracts/SmartGenie.sol\":23534:23788  for (uint j=0; j<payerReferrals.length; j++) {... */\n      iszero\n      tag_402\n      jumpi\n        /* \"tronbox/contracts/SmartGenie.sol\":23617:23631  payerReferrals */\n      dup7\n        /* \"tronbox/contracts/SmartGenie.sol\":23632:23633  j */\n      dup2\n        /* \"tronbox/contracts/SmartGenie.sol\":23617:23634  payerReferrals[j] */\n      dup2\n      mload\n      dup2\n      lt\n      tag_404\n      jumpi\n      tag_405\n      tag_211\n      jump\t// in\n    tag_405:\n    tag_404:\n      0x20\n      mul\n      0x20\n      add\n      add\n      mload\n        /* \"tronbox/contracts/SmartGenie.sol\":23600:23634  tempReferrer1 == payerReferrals[j] */\n      0xffffffffffffffffffffffffffffffffffffffff\n      and\n        /* \"tronbox/contracts/SmartGenie.sol\":23600:23613  tempReferrer1 */\n      dup5\n        /* \"tronbox/contracts/SmartGenie.sol\":23600:23634  tempReferrer1 == payerReferrals[j] */\n      0xffffffffffffffffffffffffffffffffffffffff\n      and\n      eq\n        /* \"tronbox/contracts/SmartGenie.sol\":23597:23774  if(tempReferrer1 == payerReferrals[j]) {... */\n      iszero\n      tag_406\n      jumpi\n        /* \"tronbox/contracts/SmartGenie.sol\":23669:23683  payerReferrals */\n      dup7\n        /* \"tronbox/contracts/SmartGenie.sol\":23684:23685  j */\n      dup2\n        /* \"tronbox/contracts/SmartGenie.sol\":23669:23686  payerReferrals[j] */\n      dup2\n      mload\n      dup2\n      lt\n      tag_407\n      jumpi\n      tag_408\n      tag_211\n      jump\t// in\n    tag_408:\n    tag_407:\n      0x20\n      mul\n      0x20\n      add\n      add\n      mload\n        /* \"tronbox/contracts/SmartGenie.sol\":23658:23686  firstLeg = payerReferrals[j] */\n      swap6\n      pop\n        /* \"tronbox/contracts/SmartGenie.sol\":23724:23728  true */\n      0x01\n        /* \"tronbox/contracts/SmartGenie.sol\":23708:23728  foundReferrer = true */\n      swap2\n      pop\n        /* \"tronbox/contracts/SmartGenie.sol\":23750:23755  break */\n      jump(tag_402)\n        /* \"tronbox/contracts/SmartGenie.sol\":23597:23774  if(tempReferrer1 == payerReferrals[j]) {... */\n    tag_406:\n        /* \"tronbox/contracts/SmartGenie.sol\":23574:23577  j++ */\n      dup1\n      dup1\n      tag_409\n      swap1\n      tag_185\n      jump\t// in\n    tag_409:\n      swap2\n      pop\n      pop\n        /* \"tronbox/contracts/SmartGenie.sol\":23534:23788  for (uint j=0; j<payerReferrals.length; j++) {... */\n      jump(tag_401)\n    tag_402:\n      pop\n        /* \"tronbox/contracts/SmartGenie.sol\":23804:23817  foundReferrer */\n      dup1\n        /* \"tronbox/contracts/SmartGenie.sol\":23801:23828  if(foundReferrer) { break;} */\n      iszero\n      tag_410\n      jumpi\n        /* \"tronbox/contracts/SmartGenie.sol\":23821:23826  break */\n      pop\n      jump(tag_399)\n        /* \"tronbox/contracts/SmartGenie.sol\":23801:23828  if(foundReferrer) { break;} */\n    tag_410:\n        /* \"tronbox/contracts/SmartGenie.sol\":23858:23866  userList */\n      0x0b\n        /* \"tronbox/contracts/SmartGenie.sol\":23858:23899  userList[users[tempReferrer1].referrerID] */\n      0x00\n        /* \"tronbox/contracts/SmartGenie.sol\":23867:23872  users */\n      0x0a\n        /* \"tronbox/contracts/SmartGenie.sol\":23867:23887  users[tempReferrer1] */\n      0x00\n        /* \"tronbox/contracts/SmartGenie.sol\":23873:23886  tempReferrer1 */\n      dup7\n        /* \"tronbox/contracts/SmartGenie.sol\":23867:23887  users[tempReferrer1] */\n      0xffffffffffffffffffffffffffffffffffffffff\n      and\n      0xffffffffffffffffffffffffffffffffffffffff\n      and\n      dup2\n      mstore\n      0x20\n      add\n      swap1\n      dup2\n      mstore\n      0x20\n      add\n      0x00\n      keccak256\n        /* \"tronbox/contracts/SmartGenie.sol\":23867:23898  users[tempReferrer1].referrerID */\n      0x02\n      add\n      sload\n        /* \"tronbox/contracts/SmartGenie.sol\":23858:23899  userList[users[tempReferrer1].referrerID] */\n      dup2\n      mstore\n      0x20\n      add\n      swap1\n      dup2\n      mstore\n      0x20\n      add\n      0x00\n      keccak256\n      0x00\n      swap1\n      sload\n      swap1\n      0x0100\n      exp\n      swap1\n      div\n      0xffffffffffffffffffffffffffffffffffffffff\n      and\n        /* \"tronbox/contracts/SmartGenie.sol\":23841:23899  tempReferrer1 =  userList[users[tempReferrer1].referrerID] */\n      swap3\n      pop\n        /* \"tronbox/contracts/SmartGenie.sol\":23474:23910  { ... */\n      pop\n        /* \"tronbox/contracts/SmartGenie.sol\":23469:23472  i++ */\n      dup1\n      dup1\n      tag_411\n      swap1\n      tag_394\n      jump\t// in\n    tag_411:\n      swap2\n      pop\n      pop\n        /* \"tronbox/contracts/SmartGenie.sol\":23450:23910  for(int i=0; i<12; i++) { ... */\n      jump(tag_398)\n    tag_399:\n      pop\n        /* \"tronbox/contracts/SmartGenie.sol\":23928:23949  address tempReferrer2 */\n      0x00\n        /* \"tronbox/contracts/SmartGenie.sol\":23952:23960  userList */\n      0x0b\n        /* \"tronbox/contracts/SmartGenie.sol\":23952:23989  userList[users[secondLeg].referrerID] */\n      0x00\n        /* \"tronbox/contracts/SmartGenie.sol\":23961:23966  users */\n      0x0a\n        /* \"tronbox/contracts/SmartGenie.sol\":23961:23977  users[secondLeg] */\n      0x00\n        /* \"tronbox/contracts/SmartGenie.sol\":23967:23976  secondLeg */\n      dup7\n        /* \"tronbox/contracts/SmartGenie.sol\":23961:23977  users[secondLeg] */\n      0xffffffffffffffffffffffffffffffffffffffff\n      and\n      0xffffffffffffffffffffffffffffffffffffffff\n      and\n      dup2\n      mstore\n      0x20\n      add\n      swap1\n      dup2\n      mstore\n      0x20\n      add\n      0x00\n      keccak256\n        /* \"tronbox/contracts/SmartGenie.sol\":23961:23988  users[secondLeg].referrerID */\n      0x02\n      add\n      sload\n        /* \"tronbox/contracts/SmartGenie.sol\":23952:23989  userList[users[secondLeg].referrerID] */\n      dup2\n      mstore\n      0x20\n      add\n      swap1\n      dup2\n      mstore\n      0x20\n      add\n      0x00\n      keccak256\n      0x00\n      swap1\n      sload\n      swap1\n      0x0100\n      exp\n      swap1\n      div\n      0xffffffffffffffffffffffffffffffffffffffff\n      and\n        /* \"tronbox/contracts/SmartGenie.sol\":23928:23989  address tempReferrer2 = userList[users[secondLeg].referrerID] */\n      swap1\n      pop\n        /* \"tronbox/contracts/SmartGenie.sol\":24004:24009  int i */\n      0x00\n        /* \"tronbox/contracts/SmartGenie.sol\":24000:24462  for(int i=0; i<12; i++) { ... */\n    tag_412:\n        /* \"tronbox/contracts/SmartGenie.sol\":24015:24017  12 */\n      0x0c\n        /* \"tronbox/contracts/SmartGenie.sol\":24013:24014  i */\n      dup2\n        /* \"tronbox/contracts/SmartGenie.sol\":24013:24017  i<12 */\n      slt\n        /* \"tronbox/contracts/SmartGenie.sol\":24000:24462  for(int i=0; i<12; i++) { ... */\n      iszero\n      tag_413\n      jumpi\n        /* \"tronbox/contracts/SmartGenie.sol\":24039:24057  bool foundReferrer */\n      0x00\n        /* \"tronbox/contracts/SmartGenie.sol\":24089:24095  uint j */\n      dup1\n        /* \"tronbox/contracts/SmartGenie.sol\":24084:24339  for (uint j=0; j<payerReferrals.length; j++) {... */\n    tag_415:\n        /* \"tronbox/contracts/SmartGenie.sol\":24101:24115  payerReferrals */\n      dup8\n        /* \"tronbox/contracts/SmartGenie.sol\":24101:24122  payerReferrals.length */\n      mload\n        /* \"tronbox/contracts/SmartGenie.sol\":24099:24100  j */\n      dup2\n        /* \"tronbox/contracts/SmartGenie.sol\":24099:24122  j<payerReferrals.length */\n      lt\n        /* \"tronbox/contracts/SmartGenie.sol\":24084:24339  for (uint j=0; j<payerReferrals.length; j++) {... */\n      iszero\n      tag_416\n      jumpi\n        /* \"tronbox/contracts/SmartGenie.sol\":24167:24181  payerReferrals */\n      dup8\n        /* \"tronbox/contracts/SmartGenie.sol\":24182:24183  j */\n      dup2\n        /* \"tronbox/contracts/SmartGenie.sol\":24167:24184  payerReferrals[j] */\n      dup2\n      mload\n      dup2\n      lt\n      tag_418\n      jumpi\n      tag_419\n      tag_211\n      jump\t// in\n    tag_419:\n    tag_418:\n      0x20\n      mul\n      0x20\n      add\n      add\n      mload\n        /* \"tronbox/contracts/SmartGenie.sol\":24150:24184  tempReferrer2 == payerReferrals[j] */\n      0xffffffffffffffffffffffffffffffffffffffff\n      and\n        /* \"tronbox/contracts/SmartGenie.sol\":24150:24163  tempReferrer2 */\n      dup5\n        /* \"tronbox/contracts/SmartGenie.sol\":24150:24184  tempReferrer2 == payerReferrals[j] */\n      0xffffffffffffffffffffffffffffffffffffffff\n      and\n      eq\n        /* \"tronbox/contracts/SmartGenie.sol\":24147:24325  if(tempReferrer2 == payerReferrals[j]) {... */\n      iszero\n      tag_420\n      jumpi\n        /* \"tronbox/contracts/SmartGenie.sol\":24220:24234  payerReferrals */\n      dup8\n        /* \"tronbox/contracts/SmartGenie.sol\":24235:24236  j */\n      dup2\n        /* \"tronbox/contracts/SmartGenie.sol\":24220:24237  payerReferrals[j] */\n      dup2\n      mload\n      dup2\n      lt\n      tag_421\n      jumpi\n      tag_422\n      tag_211\n      jump\t// in\n    tag_422:\n    tag_421:\n      0x20\n      mul\n      0x20\n      add\n      add\n      mload\n        /* \"tronbox/contracts/SmartGenie.sol\":24208:24237  secondLeg = payerReferrals[j] */\n      swap6\n      pop\n        /* \"tronbox/contracts/SmartGenie.sol\":24275:24279  true */\n      0x01\n        /* \"tronbox/contracts/SmartGenie.sol\":24259:24279  foundReferrer = true */\n      swap2\n      pop\n        /* \"tronbox/contracts/SmartGenie.sol\":24301:24306  break */\n      jump(tag_416)\n        /* \"tronbox/contracts/SmartGenie.sol\":24147:24325  if(tempReferrer2 == payerReferrals[j]) {... */\n    tag_420:\n        /* \"tronbox/contracts/SmartGenie.sol\":24124:24127  j++ */\n      dup1\n      dup1\n      tag_423\n      swap1\n      tag_185\n      jump\t// in\n    tag_423:\n      swap2\n      pop\n      pop\n        /* \"tronbox/contracts/SmartGenie.sol\":24084:24339  for (uint j=0; j<payerReferrals.length; j++) {... */\n      jump(tag_415)\n    tag_416:\n      pop\n        /* \"tronbox/contracts/SmartGenie.sol\":24355:24368  foundReferrer */\n      dup1\n        /* \"tronbox/contracts/SmartGenie.sol\":24352:24379  if(foundReferrer) { break;} */\n      iszero\n      tag_424\n      jumpi\n        /* \"tronbox/contracts/SmartGenie.sol\":24372:24377  break */\n      pop\n      jump(tag_413)\n        /* \"tronbox/contracts/SmartGenie.sol\":24352:24379  if(foundReferrer) { break;} */\n    tag_424:\n        /* \"tronbox/contracts/SmartGenie.sol\":24409:24417  userList */\n      0x0b\n        /* \"tronbox/contracts/SmartGenie.sol\":24409:24450  userList[users[tempReferrer2].referrerID] */\n      0x00\n        /* \"tronbox/contracts/SmartGenie.sol\":24418:24423  users */\n      0x0a\n        /* \"tronbox/contracts/SmartGenie.sol\":24418:24438  users[tempReferrer2] */\n      0x00\n        /* \"tronbox/contracts/SmartGenie.sol\":24424:24437  tempReferrer2 */\n      dup7\n        /* \"tronbox/contracts/SmartGenie.sol\":24418:24438  users[tempReferrer2] */\n      0xffffffffffffffffffffffffffffffffffffffff\n      and\n      0xffffffffffffffffffffffffffffffffffffffff\n      and\n      dup2\n      mstore\n      0x20\n      add\n      swap1\n      dup2\n      mstore\n      0x20\n      add\n      0x00\n      keccak256\n        /* \"tronbox/contracts/SmartGenie.sol\":24418:24449  users[tempReferrer2].referrerID */\n      0x02\n      add\n      sload\n        /* \"tronbox/contracts/SmartGenie.sol\":24409:24450  userList[users[tempReferrer2].referrerID] */\n      dup2\n      mstore\n      0x20\n      add\n      swap1\n      dup2\n      mstore\n      0x20\n      add\n      0x00\n      keccak256\n      0x00\n      swap1\n      sload\n      swap1\n      0x0100\n      exp\n      swap1\n      div\n      0xffffffffffffffffffffffffffffffffffffffff\n      and\n        /* \"tronbox/contracts/SmartGenie.sol\":24393:24450  tempReferrer2 = userList[users[tempReferrer2].referrerID] */\n      swap3\n      pop\n        /* \"tronbox/contracts/SmartGenie.sol\":24024:24462  { ... */\n      pop\n        /* \"tronbox/contracts/SmartGenie.sol\":24019:24022  i++ */\n      dup1\n      dup1\n      tag_425\n      swap1\n      tag_394\n      jump\t// in\n    tag_425:\n      swap2\n      pop\n      pop\n        /* \"tronbox/contracts/SmartGenie.sol\":24000:24462  for(int i=0; i<12; i++) { ... */\n      jump(tag_412)\n    tag_413:\n      pop\n        /* \"tronbox/contracts/SmartGenie.sol\":24495:24504  secondLeg */\n      dup3\n        /* \"tronbox/contracts/SmartGenie.sol\":24483:24504  firstLeg == secondLeg */\n      0xffffffffffffffffffffffffffffffffffffffff\n      and\n        /* \"tronbox/contracts/SmartGenie.sol\":24483:24491  firstLeg */\n      dup5\n        /* \"tronbox/contracts/SmartGenie.sol\":24483:24504  firstLeg == secondLeg */\n      0xffffffffffffffffffffffffffffffffffffffff\n      and\n      eq\n        /* \"tronbox/contracts/SmartGenie.sol\":24480:24525  if(firstLeg == secondLeg) {isSameLeg = true;} */\n      iszero\n      tag_426\n      jumpi\n        /* \"tronbox/contracts/SmartGenie.sol\":24519:24523  true */\n      0x01\n        /* \"tronbox/contracts/SmartGenie.sol\":24507:24523  isSameLeg = true */\n      swap6\n      pop\n        /* \"tronbox/contracts/SmartGenie.sol\":24480:24525  if(firstLeg == secondLeg) {isSameLeg = true;} */\n    tag_426:\n        /* \"tronbox/contracts/SmartGenie.sol\":24543:24552  isSameLeg */\n      dup6\n        /* \"tronbox/contracts/SmartGenie.sol\":24535:24552  return  isSameLeg */\n      swap7\n      pop\n      pop\n      pop\n      pop\n      pop\n      pop\n      pop\n        /* \"tronbox/contracts/SmartGenie.sol\":23022:24565  function isLevelUpgradeFromSameLeg(address _payer, address _existingReferrer, address _newReferrer) ... */\n      swap4\n      swap3\n      pop\n      pop\n      pop\n      jump\t// out\n        /* \"tronbox/contracts/SmartGenie.sol\":16987:19722  function findRenewalPayer(address _referrer, uint256 _regLevel, uint256 _levelEligibility) internal returns (address, address){... */\n    tag_329:\n        /* \"tronbox/contracts/SmartGenie.sol\":17096:17103  address */\n      0x00\n        /* \"tronbox/contracts/SmartGenie.sol\":17105:17112  address */\n      dup1\n        /* \"tronbox/contracts/SmartGenie.sol\":17126:17148  address _eligiblePayer */\n      0x00\n        /* \"tronbox/contracts/SmartGenie.sol\":17162:17183  address _tempreferrer */\n      dup1\n        /* \"tronbox/contracts/SmartGenie.sol\":17186:17195  _referrer */\n      dup7\n        /* \"tronbox/contracts/SmartGenie.sol\":17162:17195  address _tempreferrer = _referrer */\n      swap1\n      pop\n        /* \"tronbox/contracts/SmartGenie.sol\":17210:17229  address secReferrer */\n      0x00\n        /* \"tronbox/contracts/SmartGenie.sol\":17232:17245  _tempreferrer */\n      dup2\n        /* \"tronbox/contracts/SmartGenie.sol\":17210:17245  address secReferrer = _tempreferrer */\n      swap1\n      pop\n        /* \"tronbox/contracts/SmartGenie.sol\":17306:17311  int i */\n      0x00\n        /* \"tronbox/contracts/SmartGenie.sol\":17302:19570  for(int i=0; i<9; i++) { ... */\n    tag_428:\n        /* \"tronbox/contracts/SmartGenie.sol\":17317:17318  9 */\n      0x09\n        /* \"tronbox/contracts/SmartGenie.sol\":17315:17316  i */\n      dup2\n        /* \"tronbox/contracts/SmartGenie.sol\":17315:17318  i<9 */\n      slt\n        /* \"tronbox/contracts/SmartGenie.sol\":17302:19570  for(int i=0; i<9; i++) { ... */\n      iszero\n      tag_429\n      jumpi\n        /* \"tronbox/contracts/SmartGenie.sol\":17522:17523  1 */\n      0x01\n        /* \"tronbox/contracts/SmartGenie.sol\":17491:17496  users */\n      0x0a\n        /* \"tronbox/contracts/SmartGenie.sol\":17491:17507  users[_referrer] */\n      0x00\n        /* \"tronbox/contracts/SmartGenie.sol\":17497:17506  _referrer */\n      dup12\n        /* \"tronbox/contracts/SmartGenie.sol\":17491:17507  users[_referrer] */\n      0xffffffffffffffffffffffffffffffffffffffff\n      and\n      0xffffffffffffffffffffffffffffffffffffffff\n      and\n      dup2\n      mstore\n      0x20\n      add\n      swap1\n      dup2\n      mstore\n      0x20\n      add\n      0x00\n      keccak256\n        /* \"tronbox/contracts/SmartGenie.sol\":17491:17518  users[_referrer].referrerID */\n      0x02\n      add\n      sload\n        /* \"tronbox/contracts/SmartGenie.sol\":17491:17523  users[_referrer].referrerID == 1 */\n      eq\n        /* \"tronbox/contracts/SmartGenie.sol\":17491:17556  users[_referrer].referrerID == 1 || _eligiblePayer == userList[1] */\n      dup1\n      tag_431\n      jumpi\n      pop\n        /* \"tronbox/contracts/SmartGenie.sol\":17545:17553  userList */\n      0x0b\n        /* \"tronbox/contracts/SmartGenie.sol\":17545:17556  userList[1] */\n      0x00\n        /* \"tronbox/contracts/SmartGenie.sol\":17554:17555  1 */\n      0x01\n        /* \"tronbox/contracts/SmartGenie.sol\":17545:17556  userList[1] */\n      dup2\n      mstore\n      0x20\n      add\n      swap1\n      dup2\n      mstore\n      0x20\n      add\n      0x00\n      keccak256\n      0x00\n      swap1\n      sload\n      swap1\n      0x0100\n      exp\n      swap1\n      div\n      0xffffffffffffffffffffffffffffffffffffffff\n      and\n        /* \"tronbox/contracts/SmartGenie.sol\":17527:17556  _eligiblePayer == userList[1] */\n      0xffffffffffffffffffffffffffffffffffffffff\n      and\n        /* \"tronbox/contracts/SmartGenie.sol\":17527:17541  _eligiblePayer */\n      dup5\n        /* \"tronbox/contracts/SmartGenie.sol\":17527:17556  _eligiblePayer == userList[1] */\n      0xffffffffffffffffffffffffffffffffffffffff\n      and\n      eq\n        /* \"tronbox/contracts/SmartGenie.sol\":17491:17556  users[_referrer].referrerID == 1 || _eligiblePayer == userList[1] */\n    tag_431:\n        /* \"tronbox/contracts/SmartGenie.sol\":17488:19552  if(users[_referrer].referrerID == 1 || _eligiblePayer == userList[1]) {... */\n      iszero\n      tag_432\n      jumpi\n        /* \"tronbox/contracts/SmartGenie.sol\":17584:17589  break */\n      jump(tag_429)\n        /* \"tronbox/contracts/SmartGenie.sol\":17488:19552  if(users[_referrer].referrerID == 1 || _eligiblePayer == userList[1]) {... */\n    tag_432:\n        /* \"tronbox/contracts/SmartGenie.sol\":17649:17655  uint j */\n      0x00\n        /* \"tronbox/contracts/SmartGenie.sol\":17644:17921  for (uint j=0; j< _regLevel; j++) {... */\n    tag_434:\n        /* \"tronbox/contracts/SmartGenie.sol\":17662:17671  _regLevel */\n      dup9\n        /* \"tronbox/contracts/SmartGenie.sol\":17659:17660  j */\n      dup2\n        /* \"tronbox/contracts/SmartGenie.sol\":17659:17671  j< _regLevel */\n      lt\n        /* \"tronbox/contracts/SmartGenie.sol\":17644:17921  for (uint j=0; j< _regLevel; j++) {... */\n      iszero\n      tag_435\n      jumpi\n        /* \"tronbox/contracts/SmartGenie.sol\":17728:17736  userList */\n      0x0b\n        /* \"tronbox/contracts/SmartGenie.sol\":17728:17739  userList[1] */\n      0x00\n        /* \"tronbox/contracts/SmartGenie.sol\":17737:17738  1 */\n      0x01\n        /* \"tronbox/contracts/SmartGenie.sol\":17728:17739  userList[1] */\n      dup2\n      mstore\n      0x20\n      add\n      swap1\n      dup2\n      mstore\n      0x20\n      add\n      0x00\n      keccak256\n      0x00\n      swap1\n      sload\n      swap1\n      0x0100\n      exp\n      swap1\n      div\n      0xffffffffffffffffffffffffffffffffffffffff\n      and\n        /* \"tronbox/contracts/SmartGenie.sol\":17711:17739  _tempreferrer == userList[1] */\n      0xffffffffffffffffffffffffffffffffffffffff\n      and\n        /* \"tronbox/contracts/SmartGenie.sol\":17711:17724  _tempreferrer */\n      dup5\n        /* \"tronbox/contracts/SmartGenie.sol\":17711:17739  _tempreferrer == userList[1] */\n      0xffffffffffffffffffffffffffffffffffffffff\n      and\n      eq\n        /* \"tronbox/contracts/SmartGenie.sol\":17708:17811  if(_tempreferrer == userList[1]) {... */\n      iszero\n      tag_437\n      jumpi\n        /* \"tronbox/contracts/SmartGenie.sol\":17775:17780  break */\n      jump(tag_435)\n        /* \"tronbox/contracts/SmartGenie.sol\":17708:17811  if(_tempreferrer == userList[1]) {... */\n    tag_437:\n        /* \"tronbox/contracts/SmartGenie.sol\":17854:17862  userList */\n      0x0b\n        /* \"tronbox/contracts/SmartGenie.sol\":17854:17893  userList[users[secReferrer].referrerID] */\n      0x00\n        /* \"tronbox/contracts/SmartGenie.sol\":17863:17868  users */\n      0x0a\n        /* \"tronbox/contracts/SmartGenie.sol\":17863:17881  users[secReferrer] */\n      0x00\n        /* \"tronbox/contracts/SmartGenie.sol\":17869:17880  secReferrer */\n      dup7\n        /* \"tronbox/contracts/SmartGenie.sol\":17863:17881  users[secReferrer] */\n      0xffffffffffffffffffffffffffffffffffffffff\n      and\n      0xffffffffffffffffffffffffffffffffffffffff\n      and\n      dup2\n      mstore\n      0x20\n      add\n      swap1\n      dup2\n      mstore\n      0x20\n      add\n      0x00\n      keccak256\n        /* \"tronbox/contracts/SmartGenie.sol\":17863:17892  users[secReferrer].referrerID */\n      0x02\n      add\n      sload\n        /* \"tronbox/contracts/SmartGenie.sol\":17854:17893  userList[users[secReferrer].referrerID] */\n      dup2\n      mstore\n      0x20\n      add\n      swap1\n      dup2\n      mstore\n      0x20\n      add\n      0x00\n      keccak256\n      0x00\n      swap1\n      sload\n      swap1\n      0x0100\n      exp\n      swap1\n      div\n      0xffffffffffffffffffffffffffffffffffffffff\n      and\n        /* \"tronbox/contracts/SmartGenie.sol\":17840:17893  secReferrer = userList[users[secReferrer].referrerID] */\n      swap3\n      pop\n        /* \"tronbox/contracts/SmartGenie.sol\":17673:17676  j++ */\n      dup1\n      dup1\n      tag_438\n      swap1\n      tag_185\n      jump\t// in\n    tag_438:\n      swap2\n      pop\n      pop\n        /* \"tronbox/contracts/SmartGenie.sol\":17644:17921  for (uint j=0; j< _regLevel; j++) {... */\n      jump(tag_434)\n    tag_435:\n      pop\n        /* \"tronbox/contracts/SmartGenie.sol\":17965:17973  userList */\n      0x0b\n        /* \"tronbox/contracts/SmartGenie.sol\":17965:17976  userList[1] */\n      0x00\n        /* \"tronbox/contracts/SmartGenie.sol\":17974:17975  1 */\n      0x01\n        /* \"tronbox/contracts/SmartGenie.sol\":17965:17976  userList[1] */\n      dup2\n      mstore\n      0x20\n      add\n      swap1\n      dup2\n      mstore\n      0x20\n      add\n      0x00\n      keccak256\n      0x00\n      swap1\n      sload\n      swap1\n      0x0100\n      exp\n      swap1\n      div\n      0xffffffffffffffffffffffffffffffffffffffff\n      and\n        /* \"tronbox/contracts/SmartGenie.sol\":17950:17976  secReferrer == userList[1] */\n      0xffffffffffffffffffffffffffffffffffffffff\n      and\n        /* \"tronbox/contracts/SmartGenie.sol\":17950:17961  secReferrer */\n      dup3\n        /* \"tronbox/contracts/SmartGenie.sol\":17950:17976  secReferrer == userList[1] */\n      0xffffffffffffffffffffffffffffffffffffffff\n      and\n      eq\n        /* \"tronbox/contracts/SmartGenie.sol\":17946:19505  if( secReferrer == userList[1]) {... */\n      iszero\n      tag_439\n      jumpi\n        /* \"tronbox/contracts/SmartGenie.sol\":18025:18036  secReferrer */\n      dup2\n        /* \"tronbox/contracts/SmartGenie.sol\":18008:18036  _eligiblePayer = secReferrer */\n      swap4\n      pop\n        /* \"tronbox/contracts/SmartGenie.sol\":18066:18071  break */\n      jump(tag_429)\n        /* \"tronbox/contracts/SmartGenie.sol\":17946:19505  if( secReferrer == userList[1]) {... */\n    tag_439:\n        /* \"tronbox/contracts/SmartGenie.sol\":18134:18150  uint256 _lelevel */\n      0x00\n        /* \"tronbox/contracts/SmartGenie.sol\":18196:18197  1 */\n      0x01\n        /* \"tronbox/contracts/SmartGenie.sol\":18153:18158  users */\n      0x0a\n        /* \"tronbox/contracts/SmartGenie.sol\":18153:18171  users[secReferrer] */\n      0x00\n        /* \"tronbox/contracts/SmartGenie.sol\":18159:18170  secReferrer */\n      dup6\n        /* \"tronbox/contracts/SmartGenie.sol\":18153:18171  users[secReferrer] */\n      0xffffffffffffffffffffffffffffffffffffffff\n      and\n      0xffffffffffffffffffffffffffffffffffffffff\n      and\n      dup2\n      mstore\n      0x20\n      add\n      swap1\n      dup2\n      mstore\n      0x20\n      add\n      0x00\n      keccak256\n        /* \"tronbox/contracts/SmartGenie.sol\":18153:18188  users[secReferrer].levelEligibility */\n      0x06\n      add\n        /* \"tronbox/contracts/SmartGenie.sol\":18153:18195  users[secReferrer].levelEligibility.length */\n      dup1\n      sload\n      swap1\n      pop\n        /* \"tronbox/contracts/SmartGenie.sol\":18153:18197  users[secReferrer].levelEligibility.length-1 */\n      tag_441\n      swap2\n      swap1\n      tag_251\n      jump\t// in\n    tag_441:\n        /* \"tronbox/contracts/SmartGenie.sol\":18134:18197  uint256 _lelevel = users[secReferrer].levelEligibility.length-1 */\n      swap1\n      pop\n        /* \"tronbox/contracts/SmartGenie.sol\":18247:18252  users */\n      0x0a\n        /* \"tronbox/contracts/SmartGenie.sol\":18247:18265  users[secReferrer] */\n      0x00\n        /* \"tronbox/contracts/SmartGenie.sol\":18253:18264  secReferrer */\n      dup5\n        /* \"tronbox/contracts/SmartGenie.sol\":18247:18265  users[secReferrer] */\n      0xffffffffffffffffffffffffffffffffffffffff\n      and\n      0xffffffffffffffffffffffffffffffffffffffff\n      and\n      dup2\n      mstore\n      0x20\n      add\n      swap1\n      dup2\n      mstore\n      0x20\n      add\n      0x00\n      keccak256\n        /* \"tronbox/contracts/SmartGenie.sol\":18247:18282  users[secReferrer].levelEligibility */\n      0x06\n      add\n        /* \"tronbox/contracts/SmartGenie.sol\":18283:18291  _lelevel */\n      dup2\n        /* \"tronbox/contracts/SmartGenie.sol\":18247:18292  users[secReferrer].levelEligibility[_lelevel] */\n      dup2\n      sload\n      dup2\n      lt\n      tag_442\n      jumpi\n      tag_443\n      tag_211\n      jump\t// in\n    tag_443:\n    tag_442:\n      swap1\n      0x00\n      mstore\n      keccak256(0x00, 0x20)\n      add\n      sload\n        /* \"tronbox/contracts/SmartGenie.sol\":18227:18292  _levelEligibility = users[secReferrer].levelEligibility[_lelevel] */\n      swap8\n      pop\n        /* \"tronbox/contracts/SmartGenie.sol\":18384:18393  _regLevel */\n      dup9\n        /* \"tronbox/contracts/SmartGenie.sol\":18364:18381  _levelEligibility */\n      dup9\n        /* \"tronbox/contracts/SmartGenie.sol\":18364:18393  _levelEligibility < _regLevel */\n      lt\n        /* \"tronbox/contracts/SmartGenie.sol\":18361:19471  if(_levelEligibility < _regLevel) { ... */\n      iszero\n      tag_445\n      jumpi\n        /* \"tronbox/contracts/SmartGenie.sol\":18434:18439  users */\n      0x0a\n        /* \"tronbox/contracts/SmartGenie.sol\":18434:18452  users[secReferrer] */\n      0x00\n        /* \"tronbox/contracts/SmartGenie.sol\":18440:18451  secReferrer */\n      dup5\n        /* \"tronbox/contracts/SmartGenie.sol\":18434:18452  users[secReferrer] */\n      0xffffffffffffffffffffffffffffffffffffffff\n      and\n      0xffffffffffffffffffffffffffffffffffffffff\n      and\n      dup2\n      mstore\n      0x20\n      add\n      swap1\n      dup2\n      mstore\n      0x20\n      add\n      0x00\n      keccak256\n        /* \"tronbox/contracts/SmartGenie.sol\":18434:18460  users[secReferrer].isExist */\n      0x00\n      add\n      0x00\n      swap1\n      sload\n      swap1\n      0x0100\n      exp\n      swap1\n      div\n      0xff\n      and\n        /* \"tronbox/contracts/SmartGenie.sol\":18433:18460  !users[secReferrer].isExist */\n      iszero\n        /* \"tronbox/contracts/SmartGenie.sol\":18433:18498  !users[secReferrer].isExist || users[secReferrer].referrerID == 0 */\n      dup1\n      tag_446\n      jumpi\n      pop\n        /* \"tronbox/contracts/SmartGenie.sol\":18497:18498  0 */\n      0x00\n        /* \"tronbox/contracts/SmartGenie.sol\":18464:18469  users */\n      0x0a\n        /* \"tronbox/contracts/SmartGenie.sol\":18464:18482  users[secReferrer] */\n      0x00\n        /* \"tronbox/contracts/SmartGenie.sol\":18470:18481  secReferrer */\n      dup6\n        /* \"tronbox/contracts/SmartGenie.sol\":18464:18482  users[secReferrer] */\n      0xffffffffffffffffffffffffffffffffffffffff\n      and\n      0xffffffffffffffffffffffffffffffffffffffff\n      and\n      dup2\n      mstore\n      0x20\n      add\n      swap1\n      dup2\n      mstore\n      0x20\n      add\n      0x00\n      keccak256\n        /* \"tronbox/contracts/SmartGenie.sol\":18464:18493  users[secReferrer].referrerID */\n      0x02\n      add\n      sload\n        /* \"tronbox/contracts/SmartGenie.sol\":18464:18498  users[secReferrer].referrerID == 0 */\n      eq\n        /* \"tronbox/contracts/SmartGenie.sol\":18433:18498  !users[secReferrer].isExist || users[secReferrer].referrerID == 0 */\n    tag_446:\n        /* \"tronbox/contracts/SmartGenie.sol\":18433:18573  !users[secReferrer].isExist || users[secReferrer].referrerID == 0 || ... */\n      dup1\n      tag_447\n      jumpi\n      pop\n        /* \"tronbox/contracts/SmartGenie.sol\":18572:18573  1 */\n      0x01\n        /* \"tronbox/contracts/SmartGenie.sol\":18539:18544  users */\n      0x0a\n        /* \"tronbox/contracts/SmartGenie.sol\":18539:18557  users[secReferrer] */\n      0x00\n        /* \"tronbox/contracts/SmartGenie.sol\":18545:18556  secReferrer */\n      dup6\n        /* \"tronbox/contracts/SmartGenie.sol\":18539:18557  users[secReferrer] */\n      0xffffffffffffffffffffffffffffffffffffffff\n      and\n      0xffffffffffffffffffffffffffffffffffffffff\n      and\n      dup2\n      mstore\n      0x20\n      add\n      swap1\n      dup2\n      mstore\n      0x20\n      add\n      0x00\n      keccak256\n        /* \"tronbox/contracts/SmartGenie.sol\":18539:18568  users[secReferrer].referrerID */\n      0x02\n      add\n      sload\n        /* \"tronbox/contracts/SmartGenie.sol\":18539:18573  users[secReferrer].referrerID == 1 */\n      eq\n        /* \"tronbox/contracts/SmartGenie.sol\":18433:18573  !users[secReferrer].isExist || users[secReferrer].referrerID == 0 || ... */\n    tag_447:\n        /* \"tronbox/contracts/SmartGenie.sol\":18430:19143  if(!users[secReferrer].isExist || users[secReferrer].referrerID == 0 || ... */\n      iszero\n      tag_448\n      jumpi\n        /* \"tronbox/contracts/SmartGenie.sol\":18760:18765  users */\n      0x0a\n        /* \"tronbox/contracts/SmartGenie.sol\":18760:18806  users[userList[users[secReferrer].referrerID]] */\n      0x00\n        /* \"tronbox/contracts/SmartGenie.sol\":18766:18774  userList */\n      0x0b\n        /* \"tronbox/contracts/SmartGenie.sol\":18766:18805  userList[users[secReferrer].referrerID] */\n      0x00\n        /* \"tronbox/contracts/SmartGenie.sol\":18775:18780  users */\n      0x0a\n        /* \"tronbox/contracts/SmartGenie.sol\":18775:18793  users[secReferrer] */\n      0x00\n        /* \"tronbox/contracts/SmartGenie.sol\":18781:18792  secReferrer */\n      dup9\n        /* \"tronbox/contracts/SmartGenie.sol\":18775:18793  users[secReferrer] */\n      0xffffffffffffffffffffffffffffffffffffffff\n      and\n      0xffffffffffffffffffffffffffffffffffffffff\n      and\n      dup2\n      mstore\n      0x20\n      add\n      swap1\n      dup2\n      mstore\n      0x20\n      add\n      0x00\n      keccak256\n        /* \"tronbox/contracts/SmartGenie.sol\":18775:18804  users[secReferrer].referrerID */\n      0x02\n      add\n      sload\n        /* \"tronbox/contracts/SmartGenie.sol\":18766:18805  userList[users[secReferrer].referrerID] */\n      dup2\n      mstore\n      0x20\n      add\n      swap1\n      dup2\n      mstore\n      0x20\n      add\n      0x00\n      keccak256\n      0x00\n      swap1\n      sload\n      swap1\n      0x0100\n      exp\n      swap1\n      div\n      0xffffffffffffffffffffffffffffffffffffffff\n      and\n        /* \"tronbox/contracts/SmartGenie.sol\":18760:18806  users[userList[users[secReferrer].referrerID]] */\n      0xffffffffffffffffffffffffffffffffffffffff\n      and\n      0xffffffffffffffffffffffffffffffffffffffff\n      and\n      dup2\n      mstore\n      0x20\n      add\n      swap1\n      dup2\n      mstore\n      0x20\n      add\n      0x00\n      keccak256\n        /* \"tronbox/contracts/SmartGenie.sol\":18760:18814  users[userList[users[secReferrer].referrerID]].isExist */\n      0x00\n      add\n      0x00\n      swap1\n      sload\n      swap1\n      0x0100\n      exp\n      swap1\n      div\n      0xff\n      and\n        /* \"tronbox/contracts/SmartGenie.sol\":18756:19066  if(!users[userList[users[secReferrer].referrerID]].isExist) { ... */\n      tag_449\n      jumpi\n        /* \"tronbox/contracts/SmartGenie.sol\":18876:18884  userList */\n      0x0b\n        /* \"tronbox/contracts/SmartGenie.sol\":18876:18887  userList[1] */\n      0x00\n        /* \"tronbox/contracts/SmartGenie.sol\":18885:18886  1 */\n      0x01\n        /* \"tronbox/contracts/SmartGenie.sol\":18876:18887  userList[1] */\n      dup2\n      mstore\n      0x20\n      add\n      swap1\n      dup2\n      mstore\n      0x20\n      add\n      0x00\n      keccak256\n      0x00\n      swap1\n      sload\n      swap1\n      0x0100\n      exp\n      swap1\n      div\n      0xffffffffffffffffffffffffffffffffffffffff\n      and\n        /* \"tronbox/contracts/SmartGenie.sol\":18859:18887  _eligiblePayer = userList[1] */\n      swap5\n      pop\n        /* \"tronbox/contracts/SmartGenie.sol\":18756:19066  if(!users[userList[users[secReferrer].referrerID]].isExist) { ... */\n      jump(tag_450)\n    tag_449:\n        /* \"tronbox/contracts/SmartGenie.sol\":18988:18996  userList */\n      0x0b\n        /* \"tronbox/contracts/SmartGenie.sol\":18988:19027  userList[users[secReferrer].referrerID] */\n      0x00\n        /* \"tronbox/contracts/SmartGenie.sol\":18997:19002  users */\n      0x0a\n        /* \"tronbox/contracts/SmartGenie.sol\":18997:19015  users[secReferrer] */\n      0x00\n        /* \"tronbox/contracts/SmartGenie.sol\":19003:19014  secReferrer */\n      dup7\n        /* \"tronbox/contracts/SmartGenie.sol\":18997:19015  users[secReferrer] */\n      0xffffffffffffffffffffffffffffffffffffffff\n      and\n      0xffffffffffffffffffffffffffffffffffffffff\n      and\n      dup2\n      mstore\n      0x20\n      add\n      swap1\n      dup2\n      mstore\n      0x20\n      add\n      0x00\n      keccak256\n        /* \"tronbox/contracts/SmartGenie.sol\":18997:19026  users[secReferrer].referrerID */\n      0x02\n      add\n      sload\n        /* \"tronbox/contracts/SmartGenie.sol\":18988:19027  userList[users[secReferrer].referrerID] */\n      dup2\n      mstore\n      0x20\n      add\n      swap1\n      dup2\n      mstore\n      0x20\n      add\n      0x00\n      keccak256\n      0x00\n      swap1\n      sload\n      swap1\n      0x0100\n      exp\n      swap1\n      div\n      0xffffffffffffffffffffffffffffffffffffffff\n      and\n        /* \"tronbox/contracts/SmartGenie.sol\":18971:19027  _eligiblePayer = userList[users[secReferrer].referrerID] */\n      swap5\n      pop\n        /* \"tronbox/contracts/SmartGenie.sol\":18756:19066  if(!users[userList[users[secReferrer].referrerID]].isExist) { ... */\n    tag_450:\n        /* \"tronbox/contracts/SmartGenie.sol\":19103:19108  break */\n      pop\n      jump(tag_429)\n        /* \"tronbox/contracts/SmartGenie.sol\":18430:19143  if(!users[secReferrer].isExist || users[secReferrer].referrerID == 0 || ... */\n    tag_448:\n        /* \"tronbox/contracts/SmartGenie.sol\":19193:19204  secReferrer */\n      dup3\n        /* \"tronbox/contracts/SmartGenie.sol\":19177:19204  _tempreferrer = secReferrer */\n      swap4\n      pop\n        /* \"tronbox/contracts/SmartGenie.sol\":19256:19267  secReferrer */\n      dup3\n        /* \"tronbox/contracts/SmartGenie.sol\":19239:19267  _eligiblePayer = secReferrer */\n      swap5\n      pop\n        /* \"tronbox/contracts/SmartGenie.sol\":18361:19471  if(_levelEligibility < _regLevel) { ... */\n      jump(tag_451)\n    tag_445:\n        /* \"tronbox/contracts/SmartGenie.sol\":19389:19400  secReferrer */\n      dup3\n        /* \"tronbox/contracts/SmartGenie.sol\":19372:19400  _eligiblePayer = secReferrer */\n      swap5\n      pop\n        /* \"tronbox/contracts/SmartGenie.sol\":19435:19440  break */\n      pop\n      jump(tag_429)\n        /* \"tronbox/contracts/SmartGenie.sol\":18361:19471  if(_levelEligibility < _regLevel) { ... */\n    tag_451:\n        /* \"tronbox/contracts/SmartGenie.sol\":18104:19505  {... */\n      pop\n        /* \"tronbox/contracts/SmartGenie.sol\":17320:17323  i++ */\n      dup1\n      dup1\n      tag_452\n      swap1\n      tag_394\n      jump\t// in\n    tag_452:\n      swap2\n      pop\n      pop\n        /* \"tronbox/contracts/SmartGenie.sol\":17302:19570  for(int i=0; i<9; i++) { ... */\n      jump(tag_428)\n    tag_429:\n      pop\n        /* \"tronbox/contracts/SmartGenie.sol\":19665:19666  1 */\n      0x01\n        /* \"tronbox/contracts/SmartGenie.sol\":19625:19630  users */\n      0x0a\n        /* \"tronbox/contracts/SmartGenie.sol\":19625:19641  users[_referrer] */\n      0x00\n        /* \"tronbox/contracts/SmartGenie.sol\":19631:19640  _referrer */\n      dup11\n        /* \"tronbox/contracts/SmartGenie.sol\":19625:19641  users[_referrer] */\n      0xffffffffffffffffffffffffffffffffffffffff\n      and\n      0xffffffffffffffffffffffffffffffffffffffff\n      and\n      dup2\n      mstore\n      0x20\n      add\n      swap1\n      dup2\n      mstore\n      0x20\n      add\n      0x00\n      keccak256\n        /* \"tronbox/contracts/SmartGenie.sol\":19625:19653  users[_referrer].incomeCount */\n      0x05\n      add\n        /* \"tronbox/contracts/SmartGenie.sol\":19625:19664  users[_referrer].incomeCount[_regLevel] */\n      0x00\n        /* \"tronbox/contracts/SmartGenie.sol\":19654:19663  _regLevel */\n      dup10\n        /* \"tronbox/contracts/SmartGenie.sol\":19625:19664  users[_referrer].incomeCount[_regLevel] */\n      dup2\n      mstore\n      0x20\n      add\n      swap1\n      dup2\n      mstore\n      0x20\n      add\n      0x00\n      keccak256\n      sload\n        /* \"tronbox/contracts/SmartGenie.sol\":19625:19666  users[_referrer].incomeCount[_regLevel]+1 */\n      tag_453\n      swap2\n      swap1\n      tag_188\n      jump\t// in\n    tag_453:\n        /* \"tronbox/contracts/SmartGenie.sol\":19583:19588  users */\n      0x0a\n        /* \"tronbox/contracts/SmartGenie.sol\":19583:19599  users[_referrer] */\n      0x00\n        /* \"tronbox/contracts/SmartGenie.sol\":19589:19598  _referrer */\n      dup11\n        /* \"tronbox/contracts/SmartGenie.sol\":19583:19599  users[_referrer] */\n      0xffffffffffffffffffffffffffffffffffffffff\n      and\n      0xffffffffffffffffffffffffffffffffffffffff\n      and\n      dup2\n      mstore\n      0x20\n      add\n      swap1\n      dup2\n      mstore\n      0x20\n      add\n      0x00\n      keccak256\n        /* \"tronbox/contracts/SmartGenie.sol\":19583:19611  users[_referrer].incomeCount */\n      0x05\n      add\n        /* \"tronbox/contracts/SmartGenie.sol\":19583:19622  users[_referrer].incomeCount[_regLevel] */\n      0x00\n        /* \"tronbox/contracts/SmartGenie.sol\":19612:19621  _regLevel */\n      dup10\n        /* \"tronbox/contracts/SmartGenie.sol\":19583:19622  users[_referrer].incomeCount[_regLevel] */\n      dup2\n      mstore\n      0x20\n      add\n      swap1\n      dup2\n      mstore\n      0x20\n      add\n      0x00\n      keccak256\n        /* \"tronbox/contracts/SmartGenie.sol\":19583:19666  users[_referrer].incomeCount[_regLevel] = users[_referrer].incomeCount[_regLevel]+1 */\n      dup2\n      swap1\n      sstore\n      pop\n        /* \"tronbox/contracts/SmartGenie.sol\":19689:19703  _eligiblePayer */\n      dup3\n        /* \"tronbox/contracts/SmartGenie.sol\":19705:19714  _referrer */\n      dup9\n        /* \"tronbox/contracts/SmartGenie.sol\":19681:19715  return (_eligiblePayer, _referrer) */\n      swap5\n      pop\n      swap5\n      pop\n      pop\n      pop\n      pop\n        /* \"tronbox/contracts/SmartGenie.sol\":16987:19722  function findRenewalPayer(address _referrer, uint256 _regLevel, uint256 _levelEligibility) internal returns (address, address){... */\n      swap4\n      pop\n      swap4\n      swap2\n      pop\n      pop\n      jump\t// out\n    tag_178:\n      dup3\n      dup1\n      sload\n      dup3\n      dup3\n      sstore\n      swap1\n      0x00\n      mstore\n      keccak256(0x00, 0x20)\n      swap1\n      dup2\n      add\n      swap3\n      dup3\n      iszero\n      tag_454\n      jumpi\n      swap2\n      0x20\n      mul\n      dup3\n      add\n    tag_455:\n      dup3\n      dup2\n      gt\n      iszero\n      tag_456\n      jumpi\n      dup3\n      mload\n      dup3\n      exp(0x0100, 0x00)\n      dup2\n      sload\n      dup2\n      0xffffffffffffffffffffffffffffffffffffffff\n      mul\n      not\n      and\n      swap1\n      dup4\n      0xffffffffffffffffffffffffffffffffffffffff\n      and\n      mul\n      or\n      swap1\n      sstore\n      pop\n      swap2\n      0x20\n      add\n      swap2\n      swap1\n      0x01\n      add\n      swap1\n      jump(tag_455)\n    tag_456:\n    tag_454:\n      pop\n      swap1\n      pop\n      tag_457\n      swap2\n      swap1\n      tag_458\n      jump\t// in\n    tag_457:\n      pop\n      swap1\n      jump\t// out\n    tag_183:\n      dup3\n      dup1\n      sload\n      dup3\n      dup3\n      sstore\n      swap1\n      0x00\n      mstore\n      keccak256(0x00, 0x20)\n      swap1\n      dup2\n      add\n      swap3\n      dup3\n      iszero\n      tag_459\n      jumpi\n      swap2\n      0x20\n      mul\n      dup3\n      add\n    tag_460:\n      dup3\n      dup2\n      gt\n      iszero\n      tag_461\n      jumpi\n      dup3\n      mload\n      dup3\n      sstore\n      swap2\n      0x20\n      add\n      swap2\n      swap1\n      0x01\n      add\n      swap1\n      jump(tag_460)\n    tag_461:\n    tag_459:\n      pop\n      swap1\n      pop\n      tag_462\n      swap2\n      swap1\n      tag_458\n      jump\t// in\n    tag_462:\n      pop\n      swap1\n      jump\t// out\n    tag_458:\n    tag_463:\n      dup1\n      dup3\n      gt\n      iszero\n      tag_464\n      jumpi\n      0x00\n      dup2\n      0x00\n      swap1\n      sstore\n      pop\n      0x01\n      add\n      jump(tag_463)\n    tag_464:\n      pop\n      swap1\n      jump\t// out\n        /* \"#utility.yul\":88:205   */\n    tag_466:\n        /* \"#utility.yul\":197:198   */\n      0x00\n        /* \"#utility.yul\":194:195   */\n      dup1\n        /* \"#utility.yul\":187:199   */\n      revert\n        /* \"#utility.yul\":334:411   */\n    tag_468:\n        /* \"#utility.yul\":371:378   */\n      0x00\n        /* \"#utility.yul\":400:405   */\n      dup2\n        /* \"#utility.yul\":389:405   */\n      swap1\n      pop\n        /* \"#utility.yul\":334:411   */\n      swap2\n      swap1\n      pop\n      jump\t// out\n        /* \"#utility.yul\":417:539   */\n    tag_469:\n        /* \"#utility.yul\":490:514   */\n      tag_522\n        /* \"#utility.yul\":508:513   */\n      dup2\n        /* \"#utility.yul\":490:514   */\n      tag_468\n      jump\t// in\n    tag_522:\n        /* \"#utility.yul\":483:488   */\n      dup2\n        /* \"#utility.yul\":480:515   */\n      eq\n        /* \"#utility.yul\":470:533   */\n      tag_523\n      jumpi\n        /* \"#utility.yul\":529:530   */\n      0x00\n        /* \"#utility.yul\":526:527   */\n      dup1\n        /* \"#utility.yul\":519:531   */\n      revert\n        /* \"#utility.yul\":470:533   */\n    tag_523:\n        /* \"#utility.yul\":417:539   */\n      pop\n      jump\t// out\n        /* \"#utility.yul\":545:684   */\n    tag_470:\n        /* \"#utility.yul\":591:596   */\n      0x00\n        /* \"#utility.yul\":629:635   */\n      dup2\n        /* \"#utility.yul\":616:636   */\n      calldataload\n        /* \"#utility.yul\":607:636   */\n      swap1\n      pop\n        /* \"#utility.yul\":645:678   */\n      tag_525\n        /* \"#utility.yul\":672:677   */\n      dup2\n        /* \"#utility.yul\":645:678   */\n      tag_469\n      jump\t// in\n    tag_525:\n        /* \"#utility.yul\":545:684   */\n      swap3\n      swap2\n      pop\n      pop\n      jump\t// out\n        /* \"#utility.yul\":690:1019   */\n    tag_30:\n        /* \"#utility.yul\":749:755   */\n      0x00\n        /* \"#utility.yul\":798:800   */\n      0x20\n        /* \"#utility.yul\":786:795   */\n      dup3\n        /* \"#utility.yul\":777:784   */\n      dup5\n        /* \"#utility.yul\":773:796   */\n      sub\n        /* \"#utility.yul\":769:801   */\n      slt\n        /* \"#utility.yul\":766:885   */\n      iszero\n      tag_527\n      jumpi\n        /* \"#utility.yul\":804:883   */\n      tag_528\n      tag_466\n      jump\t// in\n    tag_528:\n        /* \"#utility.yul\":766:885   */\n    tag_527:\n        /* \"#utility.yul\":924:925   */\n      0x00\n        /* \"#utility.yul\":949:1002   */\n      tag_529\n        /* \"#utility.yul\":994:1001   */\n      dup5\n        /* \"#utility.yul\":985:991   */\n      dup3\n        /* \"#utility.yul\":974:983   */\n      dup6\n        /* \"#utility.yul\":970:992   */\n      add\n        /* \"#utility.yul\":949:1002   */\n      tag_470\n      jump\t// in\n    tag_529:\n        /* \"#utility.yul\":939:1002   */\n      swap2\n      pop\n        /* \"#utility.yul\":895:1012   */\n      pop\n        /* \"#utility.yul\":690:1019   */\n      swap3\n      swap2\n      pop\n      pop\n      jump\t// out\n        /* \"#utility.yul\":1025:1151   */\n    tag_471:\n        /* \"#utility.yul\":1062:1069   */\n      0x00\n        /* \"#utility.yul\":1102:1144   */\n      0xffffffffffffffffffffffffffffffffffffffff\n        /* \"#utility.yul\":1095:1100   */\n      dup3\n        /* \"#utility.yul\":1091:1145   */\n      and\n        /* \"#utility.yul\":1080:1145   */\n      swap1\n      pop\n        /* \"#utility.yul\":1025:1151   */\n      swap2\n      swap1\n      pop\n      jump\t// out\n        /* \"#utility.yul\":1157:1253   */\n    tag_472:\n        /* \"#utility.yul\":1194:1201   */\n      0x00\n        /* \"#utility.yul\":1223:1247   */\n      tag_532\n        /* \"#utility.yul\":1241:1246   */\n      dup3\n        /* \"#utility.yul\":1223:1247   */\n      tag_471\n      jump\t// in\n    tag_532:\n        /* \"#utility.yul\":1212:1247   */\n      swap1\n      pop\n        /* \"#utility.yul\":1157:1253   */\n      swap2\n      swap1\n      pop\n      jump\t// out\n        /* \"#utility.yul\":1259:1377   */\n    tag_473:\n        /* \"#utility.yul\":1346:1370   */\n      tag_534\n        /* \"#utility.yul\":1364:1369   */\n      dup2\n        /* \"#utility.yul\":1346:1370   */\n      tag_472\n      jump\t// in\n    tag_534:\n        /* \"#utility.yul\":1341:1344   */\n      dup3\n        /* \"#utility.yul\":1334:1371   */\n      mstore\n        /* \"#utility.yul\":1259:1377   */\n      pop\n      pop\n      jump\t// out\n        /* \"#utility.yul\":1383:1605   */\n    tag_33:\n        /* \"#utility.yul\":1476:1480   */\n      0x00\n        /* \"#utility.yul\":1514:1516   */\n      0x20\n        /* \"#utility.yul\":1503:1512   */\n      dup3\n        /* \"#utility.yul\":1499:1517   */\n      add\n        /* \"#utility.yul\":1491:1517   */\n      swap1\n      pop\n        /* \"#utility.yul\":1527:1598   */\n      tag_536\n        /* \"#utility.yul\":1595:1596   */\n      0x00\n        /* \"#utility.yul\":1584:1593   */\n      dup4\n        /* \"#utility.yul\":1580:1597   */\n      add\n        /* \"#utility.yul\":1571:1577   */\n      dup5\n        /* \"#utility.yul\":1527:1598   */\n      tag_473\n      jump\t// in\n    tag_536:\n        /* \"#utility.yul\":1383:1605   */\n      swap3\n      swap2\n      pop\n      pop\n      jump\t// out\n        /* \"#utility.yul\":1611:1733   */\n    tag_474:\n        /* \"#utility.yul\":1684:1708   */\n      tag_538\n        /* \"#utility.yul\":1702:1707   */\n      dup2\n        /* \"#utility.yul\":1684:1708   */\n      tag_472\n      jump\t// in\n    tag_538:\n        /* \"#utility.yul\":1677:1682   */\n      dup2\n        /* \"#utility.yul\":1674:1709   */\n      eq\n        /* \"#utility.yul\":1664:1727   */\n      tag_539\n      jumpi\n        /* \"#utility.yul\":1723:1724   */\n      0x00\n        /* \"#utility.yul\":1720:1721   */\n      dup1\n        /* \"#utility.yul\":1713:1725   */\n      revert\n        /* \"#utility.yul\":1664:1727   */\n    tag_539:\n        /* \"#utility.yul\":1611:1733   */\n      pop\n      jump\t// out\n        /* \"#utility.yul\":1739:1878   */\n    tag_475:\n        /* \"#utility.yul\":1785:1790   */\n      0x00\n        /* \"#utility.yul\":1823:1829   */\n      dup2\n        /* \"#utility.yul\":1810:1830   */\n      calldataload\n        /* \"#utility.yul\":1801:1830   */\n      swap1\n      pop\n        /* \"#utility.yul\":1839:1872   */\n      tag_541\n        /* \"#utility.yul\":1866:1871   */\n      dup2\n        /* \"#utility.yul\":1839:1872   */\n      tag_474\n      jump\t// in\n    tag_541:\n        /* \"#utility.yul\":1739:1878   */\n      swap3\n      swap2\n      pop\n      pop\n      jump\t// out\n        /* \"#utility.yul\":1884:2358   */\n    tag_41:\n        /* \"#utility.yul\":1952:1958   */\n      0x00\n        /* \"#utility.yul\":1960:1966   */\n      dup1\n        /* \"#utility.yul\":2009:2011   */\n      0x40\n        /* \"#utility.yul\":1997:2006   */\n      dup4\n        /* \"#utility.yul\":1988:1995   */\n      dup6\n        /* \"#utility.yul\":1984:2007   */\n      sub\n        /* \"#utility.yul\":1980:2012   */\n      slt\n        /* \"#utility.yul\":1977:2096   */\n      iszero\n      tag_543\n      jumpi\n        /* \"#utility.yul\":2015:2094   */\n      tag_544\n      tag_466\n      jump\t// in\n    tag_544:\n        /* \"#utility.yul\":1977:2096   */\n    tag_543:\n        /* \"#utility.yul\":2135:2136   */\n      0x00\n        /* \"#utility.yul\":2160:2213   */\n      tag_545\n        /* \"#utility.yul\":2205:2212   */\n      dup6\n        /* \"#utility.yul\":2196:2202   */\n      dup3\n        /* \"#utility.yul\":2185:2194   */\n      dup7\n        /* \"#utility.yul\":2181:2203   */\n      add\n        /* \"#utility.yul\":2160:2213   */\n      tag_470\n      jump\t// in\n    tag_545:\n        /* \"#utility.yul\":2150:2213   */\n      swap3\n      pop\n        /* \"#utility.yul\":2106:2223   */\n      pop\n        /* \"#utility.yul\":2262:2264   */\n      0x20\n        /* \"#utility.yul\":2288:2341   */\n      tag_546\n        /* \"#utility.yul\":2333:2340   */\n      dup6\n        /* \"#utility.yul\":2324:2330   */\n      dup3\n        /* \"#utility.yul\":2313:2322   */\n      dup7\n        /* \"#utility.yul\":2309:2331   */\n      add\n        /* \"#utility.yul\":2288:2341   */\n      tag_475\n      jump\t// in\n    tag_546:\n        /* \"#utility.yul\":2278:2341   */\n      swap2\n      pop\n        /* \"#utility.yul\":2233:2351   */\n      pop\n        /* \"#utility.yul\":1884:2358   */\n      swap3\n      pop\n      swap3\n      swap1\n      pop\n      jump\t// out\n        /* \"#utility.yul\":2364:2454   */\n    tag_476:\n        /* \"#utility.yul\":2398:2405   */\n      0x00\n        /* \"#utility.yul\":2441:2446   */\n      dup2\n        /* \"#utility.yul\":2434:2447   */\n      iszero\n        /* \"#utility.yul\":2427:2448   */\n      iszero\n        /* \"#utility.yul\":2416:2448   */\n      swap1\n      pop\n        /* \"#utility.yul\":2364:2454   */\n      swap2\n      swap1\n      pop\n      jump\t// out\n        /* \"#utility.yul\":2460:2569   */\n    tag_477:\n        /* \"#utility.yul\":2541:2562   */\n      tag_549\n        /* \"#utility.yul\":2556:2561   */\n      dup2\n        /* \"#utility.yul\":2541:2562   */\n      tag_476\n      jump\t// in\n    tag_549:\n        /* \"#utility.yul\":2536:2539   */\n      dup3\n        /* \"#utility.yul\":2529:2563   */\n      mstore\n        /* \"#utility.yul\":2460:2569   */\n      pop\n      pop\n      jump\t// out\n        /* \"#utility.yul\":2575:2785   */\n    tag_49:\n        /* \"#utility.yul\":2662:2666   */\n      0x00\n        /* \"#utility.yul\":2700:2702   */\n      0x20\n        /* \"#utility.yul\":2689:2698   */\n      dup3\n        /* \"#utility.yul\":2685:2703   */\n      add\n        /* \"#utility.yul\":2677:2703   */\n      swap1\n      pop\n        /* \"#utility.yul\":2713:2778   */\n      tag_551\n        /* \"#utility.yul\":2775:2776   */\n      0x00\n        /* \"#utility.yul\":2764:2773   */\n      dup4\n        /* \"#utility.yul\":2760:2777   */\n      add\n        /* \"#utility.yul\":2751:2757   */\n      dup5\n        /* \"#utility.yul\":2713:2778   */\n      tag_477\n      jump\t// in\n    tag_551:\n        /* \"#utility.yul\":2575:2785   */\n      swap3\n      swap2\n      pop\n      pop\n      jump\t// out\n        /* \"#utility.yul\":2791:3120   */\n    tag_53:\n        /* \"#utility.yul\":2850:2856   */\n      0x00\n        /* \"#utility.yul\":2899:2901   */\n      0x20\n        /* \"#utility.yul\":2887:2896   */\n      dup3\n        /* \"#utility.yul\":2878:2885   */\n      dup5\n        /* \"#utility.yul\":2874:2897   */\n      sub\n        /* \"#utility.yul\":2870:2902   */\n      slt\n        /* \"#utility.yul\":2867:2986   */\n      iszero\n      tag_553\n      jumpi\n        /* \"#utility.yul\":2905:2984   */\n      tag_554\n      tag_466\n      jump\t// in\n    tag_554:\n        /* \"#utility.yul\":2867:2986   */\n    tag_553:\n        /* \"#utility.yul\":3025:3026   */\n      0x00\n        /* \"#utility.yul\":3050:3103   */\n      tag_555\n        /* \"#utility.yul\":3095:3102   */\n      dup5\n        /* \"#utility.yul\":3086:3092   */\n      dup3\n        /* \"#utility.yul\":3075:3084   */\n      dup6\n        /* \"#utility.yul\":3071:3093   */\n      add\n        /* \"#utility.yul\":3050:3103   */\n      tag_475\n      jump\t// in\n    tag_555:\n        /* \"#utility.yul\":3040:3103   */\n      swap2\n      pop\n        /* \"#utility.yul\":2996:3113   */\n      pop\n        /* \"#utility.yul\":2791:3120   */\n      swap3\n      swap2\n      pop\n      pop\n      jump\t// out\n        /* \"#utility.yul\":3126:3240   */\n    tag_478:\n        /* \"#utility.yul\":3193:3199   */\n      0x00\n        /* \"#utility.yul\":3227:3232   */\n      dup2\n        /* \"#utility.yul\":3221:3233   */\n      mload\n        /* \"#utility.yul\":3211:3233   */\n      swap1\n      pop\n        /* \"#utility.yul\":3126:3240   */\n      swap2\n      swap1\n      pop\n      jump\t// out\n        /* \"#utility.yul\":3246:3430   */\n    tag_479:\n        /* \"#utility.yul\":3345:3356   */\n      0x00\n        /* \"#utility.yul\":3379:3385   */\n      dup3\n        /* \"#utility.yul\":3374:3377   */\n      dup3\n        /* \"#utility.yul\":3367:3386   */\n      mstore\n        /* \"#utility.yul\":3419:3423   */\n      0x20\n        /* \"#utility.yul\":3414:3417   */\n      dup3\n        /* \"#utility.yul\":3410:3424   */\n      add\n        /* \"#utility.yul\":3395:3424   */\n      swap1\n      pop\n        /* \"#utility.yul\":3246:3430   */\n      swap3\n      swap2\n      pop\n      pop\n      jump\t// out\n        /* \"#utility.yul\":3436:3568   */\n    tag_480:\n        /* \"#utility.yul\":3503:3507   */\n      0x00\n        /* \"#utility.yul\":3526:3529   */\n      dup2\n        /* \"#utility.yul\":3518:3529   */\n      swap1\n      pop\n        /* \"#utility.yul\":3556:3560   */\n      0x20\n        /* \"#utility.yul\":3551:3554   */\n      dup3\n        /* \"#utility.yul\":3547:3561   */\n      add\n        /* \"#utility.yul\":3539:3561   */\n      swap1\n      pop\n        /* \"#utility.yul\":3436:3568   */\n      swap2\n      swap1\n      pop\n      jump\t// out\n        /* \"#utility.yul\":3574:3682   */\n    tag_481:\n        /* \"#utility.yul\":3651:3675   */\n      tag_560\n        /* \"#utility.yul\":3669:3674   */\n      dup2\n        /* \"#utility.yul\":3651:3675   */\n      tag_472\n      jump\t// in\n    tag_560:\n        /* \"#utility.yul\":3646:3649   */\n      dup3\n        /* \"#utility.yul\":3639:3676   */\n      mstore\n        /* \"#utility.yul\":3574:3682   */\n      pop\n      pop\n      jump\t// out\n        /* \"#utility.yul\":3688:3867   */\n    tag_482:\n        /* \"#utility.yul\":3757:3767   */\n      0x00\n        /* \"#utility.yul\":3778:3824   */\n      tag_562\n        /* \"#utility.yul\":3820:3823   */\n      dup4\n        /* \"#utility.yul\":3812:3818   */\n      dup4\n        /* \"#utility.yul\":3778:3824   */\n      tag_481\n      jump\t// in\n    tag_562:\n        /* \"#utility.yul\":3856:3860   */\n      0x20\n        /* \"#utility.yul\":3851:3854   */\n      dup4\n        /* \"#utility.yul\":3847:3861   */\n      add\n        /* \"#utility.yul\":3833:3861   */\n      swap1\n      pop\n        /* \"#utility.yul\":3688:3867   */\n      swap3\n      swap2\n      pop\n      pop\n      jump\t// out\n        /* \"#utility.yul\":3873:3986   */\n    tag_483:\n        /* \"#utility.yul\":3943:3947   */\n      0x00\n        /* \"#utility.yul\":3975:3979   */\n      0x20\n        /* \"#utility.yul\":3970:3973   */\n      dup3\n        /* \"#utility.yul\":3966:3980   */\n      add\n        /* \"#utility.yul\":3958:3980   */\n      swap1\n      pop\n        /* \"#utility.yul\":3873:3986   */\n      swap2\n      swap1\n      pop\n      jump\t// out\n        /* \"#utility.yul\":4022:4754   */\n    tag_484:\n        /* \"#utility.yul\":4141:4144   */\n      0x00\n        /* \"#utility.yul\":4170:4224   */\n      tag_565\n        /* \"#utility.yul\":4218:4223   */\n      dup3\n        /* \"#utility.yul\":4170:4224   */\n      tag_478\n      jump\t// in\n    tag_565:\n        /* \"#utility.yul\":4240:4326   */\n      tag_566\n        /* \"#utility.yul\":4319:4325   */\n      dup2\n        /* \"#utility.yul\":4314:4317   */\n      dup6\n        /* \"#utility.yul\":4240:4326   */\n      tag_479\n      jump\t// in\n    tag_566:\n        /* \"#utility.yul\":4233:4326   */\n      swap4\n      pop\n        /* \"#utility.yul\":4350:4406   */\n      tag_567\n        /* \"#utility.yul\":4400:4405   */\n      dup4\n        /* \"#utility.yul\":4350:4406   */\n      tag_480\n      jump\t// in\n    tag_567:\n        /* \"#utility.yul\":4429:4436   */\n      dup1\n        /* \"#utility.yul\":4460:4461   */\n      0x00\n        /* \"#utility.yul\":4445:4729   */\n    tag_568:\n        /* \"#utility.yul\":4470:4476   */\n      dup4\n        /* \"#utility.yul\":4467:4468   */\n      dup2\n        /* \"#utility.yul\":4464:4477   */\n      lt\n        /* \"#utility.yul\":4445:4729   */\n      iszero\n      tag_570\n      jumpi\n        /* \"#utility.yul\":4546:4552   */\n      dup2\n        /* \"#utility.yul\":4540:4553   */\n      mload\n        /* \"#utility.yul\":4573:4636   */\n      tag_571\n        /* \"#utility.yul\":4632:4635   */\n      dup9\n        /* \"#utility.yul\":4617:4630   */\n      dup3\n        /* \"#utility.yul\":4573:4636   */\n      tag_482\n      jump\t// in\n    tag_571:\n        /* \"#utility.yul\":4566:4636   */\n      swap8\n      pop\n        /* \"#utility.yul\":4659:4719   */\n      tag_572\n        /* \"#utility.yul\":4712:4718   */\n      dup4\n        /* \"#utility.yul\":4659:4719   */\n      tag_483\n      jump\t// in\n    tag_572:\n        /* \"#utility.yul\":4649:4719   */\n      swap3\n      pop\n        /* \"#utility.yul\":4505:4729   */\n      pop\n        /* \"#utility.yul\":4492:4493   */\n      0x01\n        /* \"#utility.yul\":4489:4490   */\n      dup2\n        /* \"#utility.yul\":4485:4494   */\n      add\n        /* \"#utility.yul\":4480:4494   */\n      swap1\n      pop\n        /* \"#utility.yul\":4445:4729   */\n      jump(tag_568)\n    tag_570:\n        /* \"#utility.yul\":4449:4463   */\n      pop\n        /* \"#utility.yul\":4745:4748   */\n      dup6\n        /* \"#utility.yul\":4738:4748   */\n      swap4\n      pop\n        /* \"#utility.yul\":4146:4754   */\n      pop\n      pop\n      pop\n        /* \"#utility.yul\":4022:4754   */\n      swap3\n      swap2\n      pop\n      pop\n      jump\t// out\n        /* \"#utility.yul\":4760:5133   */\n    tag_56:\n        /* \"#utility.yul\":4903:4907   */\n      0x00\n        /* \"#utility.yul\":4941:4943   */\n      0x20\n        /* \"#utility.yul\":4930:4939   */\n      dup3\n        /* \"#utility.yul\":4926:4944   */\n      add\n        /* \"#utility.yul\":4918:4944   */\n      swap1\n      pop\n        /* \"#utility.yul\":4990:4999   */\n      dup2\n        /* \"#utility.yul\":4984:4988   */\n      dup2\n        /* \"#utility.yul\":4980:5000   */\n      sub\n        /* \"#utility.yul\":4976:4977   */\n      0x00\n        /* \"#utility.yul\":4965:4974   */\n      dup4\n        /* \"#utility.yul\":4961:4978   */\n      add\n        /* \"#utility.yul\":4954:5001   */\n      mstore\n        /* \"#utility.yul\":5018:5126   */\n      tag_574\n        /* \"#utility.yul\":5121:5125   */\n      dup2\n        /* \"#utility.yul\":5112:5118   */\n      dup5\n        /* \"#utility.yul\":5018:5126   */\n      tag_484\n      jump\t// in\n    tag_574:\n        /* \"#utility.yul\":5010:5126   */\n      swap1\n      pop\n        /* \"#utility.yul\":4760:5133   */\n      swap3\n      swap2\n      pop\n      pop\n      jump\t// out\n        /* \"#utility.yul\":5139:5225   */\n    tag_485:\n        /* \"#utility.yul\":5174:5181   */\n      0x00\n        /* \"#utility.yul\":5214:5218   */\n      0xff\n        /* \"#utility.yul\":5207:5212   */\n      dup3\n        /* \"#utility.yul\":5203:5219   */\n      and\n        /* \"#utility.yul\":5192:5219   */\n      swap1\n      pop\n        /* \"#utility.yul\":5139:5225   */\n      swap2\n      swap1\n      pop\n      jump\t// out\n        /* \"#utility.yul\":5231:5343   */\n    tag_486:\n        /* \"#utility.yul\":5314:5336   */\n      tag_577\n        /* \"#utility.yul\":5330:5335   */\n      dup2\n        /* \"#utility.yul\":5314:5336   */\n      tag_485\n      jump\t// in\n    tag_577:\n        /* \"#utility.yul\":5309:5312   */\n      dup3\n        /* \"#utility.yul\":5302:5337   */\n      mstore\n        /* \"#utility.yul\":5231:5343   */\n      pop\n      pop\n      jump\t// out\n        /* \"#utility.yul\":5349:5563   */\n    tag_66:\n        /* \"#utility.yul\":5438:5442   */\n      0x00\n        /* \"#utility.yul\":5476:5478   */\n      0x20\n        /* \"#utility.yul\":5465:5474   */\n      dup3\n        /* \"#utility.yul\":5461:5479   */\n      add\n        /* \"#utility.yul\":5453:5479   */\n      swap1\n      pop\n        /* \"#utility.yul\":5489:5556   */\n      tag_579\n        /* \"#utility.yul\":5553:5554   */\n      0x00\n        /* \"#utility.yul\":5542:5551   */\n      dup4\n        /* \"#utility.yul\":5538:5555   */\n      add\n        /* \"#utility.yul\":5529:5535   */\n      dup5\n        /* \"#utility.yul\":5489:5556   */\n      tag_486\n      jump\t// in\n    tag_579:\n        /* \"#utility.yul\":5349:5563   */\n      swap3\n      swap2\n      pop\n      pop\n      jump\t// out\n        /* \"#utility.yul\":5569:5683   */\n    tag_487:\n        /* \"#utility.yul\":5636:5642   */\n      0x00\n        /* \"#utility.yul\":5670:5675   */\n      dup2\n        /* \"#utility.yul\":5664:5676   */\n      mload\n        /* \"#utility.yul\":5654:5676   */\n      swap1\n      pop\n        /* \"#utility.yul\":5569:5683   */\n      swap2\n      swap1\n      pop\n      jump\t// out\n        /* \"#utility.yul\":5689:5873   */\n    tag_488:\n        /* \"#utility.yul\":5788:5799   */\n      0x00\n        /* \"#utility.yul\":5822:5828   */\n      dup3\n        /* \"#utility.yul\":5817:5820   */\n      dup3\n        /* \"#utility.yul\":5810:5829   */\n      mstore\n        /* \"#utility.yul\":5862:5866   */\n      0x20\n        /* \"#utility.yul\":5857:5860   */\n      dup3\n        /* \"#utility.yul\":5853:5867   */\n      add\n        /* \"#utility.yul\":5838:5867   */\n      swap1\n      pop\n        /* \"#utility.yul\":5689:5873   */\n      swap3\n      swap2\n      pop\n      pop\n      jump\t// out\n        /* \"#utility.yul\":5879:6011   */\n    tag_489:\n        /* \"#utility.yul\":5946:5950   */\n      0x00\n        /* \"#utility.yul\":5969:5972   */\n      dup2\n        /* \"#utility.yul\":5961:5972   */\n      swap1\n      pop\n        /* \"#utility.yul\":5999:6003   */\n      0x20\n        /* \"#utility.yul\":5994:5997   */\n      dup3\n        /* \"#utility.yul\":5990:6004   */\n      add\n        /* \"#utility.yul\":5982:6004   */\n      swap1\n      pop\n        /* \"#utility.yul\":5879:6011   */\n      swap2\n      swap1\n      pop\n      jump\t// out\n        /* \"#utility.yul\":6017:6125   */\n    tag_490:\n        /* \"#utility.yul\":6094:6118   */\n      tag_584\n        /* \"#utility.yul\":6112:6117   */\n      dup2\n        /* \"#utility.yul\":6094:6118   */\n      tag_468\n      jump\t// in\n    tag_584:\n        /* \"#utility.yul\":6089:6092   */\n      dup3\n        /* \"#utility.yul\":6082:6119   */\n      mstore\n        /* \"#utility.yul\":6017:6125   */\n      pop\n      pop\n      jump\t// out\n        /* \"#utility.yul\":6131:6310   */\n    tag_491:\n        /* \"#utility.yul\":6200:6210   */\n      0x00\n        /* \"#utility.yul\":6221:6267   */\n      tag_586\n        /* \"#utility.yul\":6263:6266   */\n      dup4\n        /* \"#utility.yul\":6255:6261   */\n      dup4\n        /* \"#utility.yul\":6221:6267   */\n      tag_490\n      jump\t// in\n    tag_586:\n        /* \"#utility.yul\":6299:6303   */\n      0x20\n        /* \"#utility.yul\":6294:6297   */\n      dup4\n        /* \"#utility.yul\":6290:6304   */\n      add\n        /* \"#utility.yul\":6276:6304   */\n      swap1\n      pop\n        /* \"#utility.yul\":6131:6310   */\n      swap3\n      swap2\n      pop\n      pop\n      jump\t// out\n        /* \"#utility.yul\":6316:6429   */\n    tag_492:\n        /* \"#utility.yul\":6386:6390   */\n      0x00\n        /* \"#utility.yul\":6418:6422   */\n      0x20\n        /* \"#utility.yul\":6413:6416   */\n      dup3\n        /* \"#utility.yul\":6409:6423   */\n      add\n        /* \"#utility.yul\":6401:6423   */\n      swap1\n      pop\n        /* \"#utility.yul\":6316:6429   */\n      swap2\n      swap1\n      pop\n      jump\t// out\n        /* \"#utility.yul\":6465:7197   */\n    tag_493:\n        /* \"#utility.yul\":6584:6587   */\n      0x00\n        /* \"#utility.yul\":6613:6667   */\n      tag_589\n        /* \"#utility.yul\":6661:6666   */\n      dup3\n        /* \"#utility.yul\":6613:6667   */\n      tag_487\n      jump\t// in\n    tag_589:\n        /* \"#utility.yul\":6683:6769   */\n      tag_590\n        /* \"#utility.yul\":6762:6768   */\n      dup2\n        /* \"#utility.yul\":6757:6760   */\n      dup6\n        /* \"#utility.yul\":6683:6769   */\n      tag_488\n      jump\t// in\n    tag_590:\n        /* \"#utility.yul\":6676:6769   */\n      swap4\n      pop\n        /* \"#utility.yul\":6793:6849   */\n      tag_591\n        /* \"#utility.yul\":6843:6848   */\n      dup4\n        /* \"#utility.yul\":6793:6849   */\n      tag_489\n      jump\t// in\n    tag_591:\n        /* \"#utility.yul\":6872:6879   */\n      dup1\n        /* \"#utility.yul\":6903:6904   */\n      0x00\n        /* \"#utility.yul\":6888:7172   */\n    tag_592:\n        /* \"#utility.yul\":6913:6919   */\n      dup4\n        /* \"#utility.yul\":6910:6911   */\n      dup2\n        /* \"#utility.yul\":6907:6920   */\n      lt\n        /* \"#utility.yul\":6888:7172   */\n      iszero\n      tag_594\n      jumpi\n        /* \"#utility.yul\":6989:6995   */\n      dup2\n        /* \"#utility.yul\":6983:6996   */\n      mload\n        /* \"#utility.yul\":7016:7079   */\n      tag_595\n        /* \"#utility.yul\":7075:7078   */\n      dup9\n        /* \"#utility.yul\":7060:7073   */\n      dup3\n        /* \"#utility.yul\":7016:7079   */\n      tag_491\n      jump\t// in\n    tag_595:\n        /* \"#utility.yul\":7009:7079   */\n      swap8\n      pop\n        /* \"#utility.yul\":7102:7162   */\n      tag_596\n        /* \"#utility.yul\":7155:7161   */\n      dup4\n        /* \"#utility.yul\":7102:7162   */\n      tag_492\n      jump\t// in\n    tag_596:\n        /* \"#utility.yul\":7092:7162   */\n      swap3\n      pop\n        /* \"#utility.yul\":6948:7172   */\n      pop\n        /* \"#utility.yul\":6935:6936   */\n      0x01\n        /* \"#utility.yul\":6932:6933   */\n      dup2\n        /* \"#utility.yul\":6928:6937   */\n      add\n        /* \"#utility.yul\":6923:6937   */\n      swap1\n      pop\n        /* \"#utility.yul\":6888:7172   */\n      jump(tag_592)\n    tag_594:\n        /* \"#utility.yul\":6892:6906   */\n      pop\n        /* \"#utility.yul\":7188:7191   */\n      dup6\n        /* \"#utility.yul\":7181:7191   */\n      swap4\n      pop\n        /* \"#utility.yul\":6589:7197   */\n      pop\n      pop\n      pop\n        /* \"#utility.yul\":6465:7197   */\n      swap3\n      swap2\n      pop\n      pop\n      jump\t// out\n        /* \"#utility.yul\":7203:7576   */\n    tag_72:\n        /* \"#utility.yul\":7346:7350   */\n      0x00\n        /* \"#utility.yul\":7384:7386   */\n      0x20\n        /* \"#utility.yul\":7373:7382   */\n      dup3\n        /* \"#utility.yul\":7369:7387   */\n      add\n        /* \"#utility.yul\":7361:7387   */\n      swap1\n      pop\n        /* \"#utility.yul\":7433:7442   */\n      dup2\n        /* \"#utility.yul\":7427:7431   */\n      dup2\n        /* \"#utility.yul\":7423:7443   */\n      sub\n        /* \"#utility.yul\":7419:7420   */\n      0x00\n        /* \"#utility.yul\":7408:7417   */\n      dup4\n        /* \"#utility.yul\":7404:7421   */\n      add\n        /* \"#utility.yul\":7397:7444   */\n      mstore\n        /* \"#utility.yul\":7461:7569   */\n      tag_598\n        /* \"#utility.yul\":7564:7568   */\n      dup2\n        /* \"#utility.yul\":7555:7561   */\n      dup5\n        /* \"#utility.yul\":7461:7569   */\n      tag_493\n      jump\t// in\n    tag_598:\n        /* \"#utility.yul\":7453:7569   */\n      swap1\n      pop\n        /* \"#utility.yul\":7203:7576   */\n      swap3\n      swap2\n      pop\n      pop\n      jump\t// out\n        /* \"#utility.yul\":7582:7700   */\n    tag_494:\n        /* \"#utility.yul\":7669:7693   */\n      tag_600\n        /* \"#utility.yul\":7687:7692   */\n      dup2\n        /* \"#utility.yul\":7669:7693   */\n      tag_468\n      jump\t// in\n    tag_600:\n        /* \"#utility.yul\":7664:7667   */\n      dup3\n        /* \"#utility.yul\":7657:7694   */\n      mstore\n        /* \"#utility.yul\":7582:7700   */\n      pop\n      pop\n      jump\t// out\n        /* \"#utility.yul\":7706:7928   */\n    tag_77:\n        /* \"#utility.yul\":7799:7803   */\n      0x00\n        /* \"#utility.yul\":7837:7839   */\n      0x20\n        /* \"#utility.yul\":7826:7835   */\n      dup3\n        /* \"#utility.yul\":7822:7840   */\n      add\n        /* \"#utility.yul\":7814:7840   */\n      swap1\n      pop\n        /* \"#utility.yul\":7850:7921   */\n      tag_602\n        /* \"#utility.yul\":7918:7919   */\n      0x00\n        /* \"#utility.yul\":7907:7916   */\n      dup4\n        /* \"#utility.yul\":7903:7920   */\n      add\n        /* \"#utility.yul\":7894:7900   */\n      dup5\n        /* \"#utility.yul\":7850:7921   */\n      tag_494\n      jump\t// in\n    tag_602:\n        /* \"#utility.yul\":7706:7928   */\n      swap3\n      swap2\n      pop\n      pop\n      jump\t// out\n        /* \"#utility.yul\":7934:8475   */\n    tag_113:\n        /* \"#utility.yul\":8105:8109   */\n      0x00\n        /* \"#utility.yul\":8143:8146   */\n      0x80\n        /* \"#utility.yul\":8132:8141   */\n      dup3\n        /* \"#utility.yul\":8128:8147   */\n      add\n        /* \"#utility.yul\":8120:8147   */\n      swap1\n      pop\n        /* \"#utility.yul\":8157:8222   */\n      tag_604\n        /* \"#utility.yul\":8219:8220   */\n      0x00\n        /* \"#utility.yul\":8208:8217   */\n      dup4\n        /* \"#utility.yul\":8204:8221   */\n      add\n        /* \"#utility.yul\":8195:8201   */\n      dup8\n        /* \"#utility.yul\":8157:8222   */\n      tag_477\n      jump\t// in\n    tag_604:\n        /* \"#utility.yul\":8232:8304   */\n      tag_605\n        /* \"#utility.yul\":8300:8302   */\n      0x20\n        /* \"#utility.yul\":8289:8298   */\n      dup4\n        /* \"#utility.yul\":8285:8303   */\n      add\n        /* \"#utility.yul\":8276:8282   */\n      dup7\n        /* \"#utility.yul\":8232:8304   */\n      tag_494\n      jump\t// in\n    tag_605:\n        /* \"#utility.yul\":8314:8386   */\n      tag_606\n        /* \"#utility.yul\":8382:8384   */\n      0x40\n        /* \"#utility.yul\":8371:8380   */\n      dup4\n        /* \"#utility.yul\":8367:8385   */\n      add\n        /* \"#utility.yul\":8358:8364   */\n      dup6\n        /* \"#utility.yul\":8314:8386   */\n      tag_494\n      jump\t// in\n    tag_606:\n        /* \"#utility.yul\":8396:8468   */\n      tag_607\n        /* \"#utility.yul\":8464:8466   */\n      0x60\n        /* \"#utility.yul\":8453:8462   */\n      dup4\n        /* \"#utility.yul\":8449:8467   */\n      add\n        /* \"#utility.yul\":8440:8446   */\n      dup5\n        /* \"#utility.yul\":8396:8468   */\n      tag_494\n      jump\t// in\n    tag_607:\n        /* \"#utility.yul\":7934:8475   */\n      swap6\n      swap5\n      pop\n      pop\n      pop\n      pop\n      pop\n      jump\t// out\n        /* \"#utility.yul\":8481:8955   */\n    tag_117:\n        /* \"#utility.yul\":8549:8555   */\n      0x00\n        /* \"#utility.yul\":8557:8563   */\n      dup1\n        /* \"#utility.yul\":8606:8608   */\n      0x40\n        /* \"#utility.yul\":8594:8603   */\n      dup4\n        /* \"#utility.yul\":8585:8592   */\n      dup6\n        /* \"#utility.yul\":8581:8604   */\n      sub\n        /* \"#utility.yul\":8577:8609   */\n      slt\n        /* \"#utility.yul\":8574:8693   */\n      iszero\n      tag_609\n      jumpi\n        /* \"#utility.yul\":8612:8691   */\n      tag_610\n      tag_466\n      jump\t// in\n    tag_610:\n        /* \"#utility.yul\":8574:8693   */\n    tag_609:\n        /* \"#utility.yul\":8732:8733   */\n      0x00\n        /* \"#utility.yul\":8757:8810   */\n      tag_611\n        /* \"#utility.yul\":8802:8809   */\n      dup6\n        /* \"#utility.yul\":8793:8799   */\n      dup3\n        /* \"#utility.yul\":8782:8791   */\n      dup7\n        /* \"#utility.yul\":8778:8800   */\n      add\n        /* \"#utility.yul\":8757:8810   */\n      tag_475\n      jump\t// in\n    tag_611:\n        /* \"#utility.yul\":8747:8810   */\n      swap3\n      pop\n        /* \"#utility.yul\":8703:8820   */\n      pop\n        /* \"#utility.yul\":8859:8861   */\n      0x20\n        /* \"#utility.yul\":8885:8938   */\n      tag_612\n        /* \"#utility.yul\":8930:8937   */\n      dup6\n        /* \"#utility.yul\":8921:8927   */\n      dup3\n        /* \"#utility.yul\":8910:8919   */\n      dup7\n        /* \"#utility.yul\":8906:8928   */\n      add\n        /* \"#utility.yul\":8885:8938   */\n      tag_470\n      jump\t// in\n    tag_612:\n        /* \"#utility.yul\":8875:8938   */\n      swap2\n      pop\n        /* \"#utility.yul\":8830:8948   */\n      pop\n        /* \"#utility.yul\":8481:8955   */\n      swap3\n      pop\n      swap3\n      swap1\n      pop\n      jump\t// out\n        /* \"#utility.yul\":8961:9130   */\n    tag_495:\n        /* \"#utility.yul\":9045:9056   */\n      0x00\n        /* \"#utility.yul\":9079:9085   */\n      dup3\n        /* \"#utility.yul\":9074:9077   */\n      dup3\n        /* \"#utility.yul\":9067:9086   */\n      mstore\n        /* \"#utility.yul\":9119:9123   */\n      0x20\n        /* \"#utility.yul\":9114:9117   */\n      dup3\n        /* \"#utility.yul\":9110:9124   */\n      add\n        /* \"#utility.yul\":9095:9124   */\n      swap1\n      pop\n        /* \"#utility.yul\":8961:9130   */\n      swap3\n      swap2\n      pop\n      pop\n      jump\t// out\n        /* \"#utility.yul\":9136:9300   */\n    tag_496:\n        /* \"#utility.yul\":9276:9292   */\n      0x496e76616c69642063616c6c6572000000000000000000000000000000000000\n        /* \"#utility.yul\":9272:9273   */\n      0x00\n        /* \"#utility.yul\":9264:9270   */\n      dup3\n        /* \"#utility.yul\":9260:9274   */\n      add\n        /* \"#utility.yul\":9253:9293   */\n      mstore\n        /* \"#utility.yul\":9136:9300   */\n      pop\n      jump\t// out\n        /* \"#utility.yul\":9306:9672   */\n    tag_497:\n        /* \"#utility.yul\":9448:9451   */\n      0x00\n        /* \"#utility.yul\":9469:9536   */\n      tag_616\n        /* \"#utility.yul\":9533:9535   */\n      0x0e\n        /* \"#utility.yul\":9528:9531   */\n      dup4\n        /* \"#utility.yul\":9469:9536   */\n      tag_495\n      jump\t// in\n    tag_616:\n        /* \"#utility.yul\":9462:9536   */\n      swap2\n      pop\n        /* \"#utility.yul\":9545:9638   */\n      tag_617\n        /* \"#utility.yul\":9634:9637   */\n      dup3\n        /* \"#utility.yul\":9545:9638   */\n      tag_496\n      jump\t// in\n    tag_617:\n        /* \"#utility.yul\":9663:9665   */\n      0x20\n        /* \"#utility.yul\":9658:9661   */\n      dup3\n        /* \"#utility.yul\":9654:9666   */\n      add\n        /* \"#utility.yul\":9647:9666   */\n      swap1\n      pop\n        /* \"#utility.yul\":9306:9672   */\n      swap2\n      swap1\n      pop\n      jump\t// out\n        /* \"#utility.yul\":9678:10097   */\n    tag_145:\n        /* \"#utility.yul\":9844:9848   */\n      0x00\n        /* \"#utility.yul\":9882:9884   */\n      0x20\n        /* \"#utility.yul\":9871:9880   */\n      dup3\n        /* \"#utility.yul\":9867:9885   */\n      add\n        /* \"#utility.yul\":9859:9885   */\n      swap1\n      pop\n        /* \"#utility.yul\":9931:9940   */\n      dup2\n        /* \"#utility.yul\":9925:9929   */\n      dup2\n        /* \"#utility.yul\":9921:9941   */\n      sub\n        /* \"#utility.yul\":9917:9918   */\n      0x00\n        /* \"#utility.yul\":9906:9915   */\n      dup4\n        /* \"#utility.yul\":9902:9919   */\n      add\n        /* \"#utility.yul\":9895:9942   */\n      mstore\n        /* \"#utility.yul\":9959:10090   */\n      tag_619\n        /* \"#utility.yul\":10085:10089   */\n      dup2\n        /* \"#utility.yul\":9959:10090   */\n      tag_497\n      jump\t// in\n    tag_619:\n        /* \"#utility.yul\":9951:10090   */\n      swap1\n      pop\n        /* \"#utility.yul\":9678:10097   */\n      swap2\n      swap1\n      pop\n      jump\t// out\n        /* \"#utility.yul\":10103:10250   */\n    tag_498:\n        /* \"#utility.yul\":10204:10215   */\n      0x00\n        /* \"#utility.yul\":10241:10244   */\n      dup2\n        /* \"#utility.yul\":10226:10244   */\n      swap1\n      pop\n        /* \"#utility.yul\":10103:10250   */\n      swap3\n      swap2\n      pop\n      pop\n      jump\t// out\n        /* \"#utility.yul\":10256:10370   */\n    tag_499:\n      pop\n      jump\t// out\n        /* \"#utility.yul\":10376:10774   */\n    tag_500:\n        /* \"#utility.yul\":10535:10538   */\n      0x00\n        /* \"#utility.yul\":10556:10639   */\n      tag_623\n        /* \"#utility.yul\":10637:10638   */\n      0x00\n        /* \"#utility.yul\":10632:10635   */\n      dup4\n        /* \"#utility.yul\":10556:10639   */\n      tag_498\n      jump\t// in\n    tag_623:\n        /* \"#utility.yul\":10549:10639   */\n      swap2\n      pop\n        /* \"#utility.yul\":10648:10741   */\n      tag_624\n        /* \"#utility.yul\":10737:10740   */\n      dup3\n        /* \"#utility.yul\":10648:10741   */\n      tag_499\n      jump\t// in\n    tag_624:\n        /* \"#utility.yul\":10766:10767   */\n      0x00\n        /* \"#utility.yul\":10761:10764   */\n      dup3\n        /* \"#utility.yul\":10757:10768   */\n      add\n        /* \"#utility.yul\":10750:10768   */\n      swap1\n      pop\n        /* \"#utility.yul\":10376:10774   */\n      swap2\n      swap1\n      pop\n      jump\t// out\n        /* \"#utility.yul\":10780:11159   */\n    tag_147:\n        /* \"#utility.yul\":10964:10967   */\n      0x00\n        /* \"#utility.yul\":10986:11133   */\n      tag_626\n        /* \"#utility.yul\":11129:11132   */\n      dup3\n        /* \"#utility.yul\":10986:11133   */\n      tag_500\n      jump\t// in\n    tag_626:\n        /* \"#utility.yul\":10979:11133   */\n      swap2\n      pop\n        /* \"#utility.yul\":11150:11153   */\n      dup2\n        /* \"#utility.yul\":11143:11153   */\n      swap1\n      pop\n        /* \"#utility.yul\":10780:11159   */\n      swap2\n      swap1\n      pop\n      jump\t// out\n        /* \"#utility.yul\":11165:11334   */\n    tag_501:\n        /* \"#utility.yul\":11305:11326   */\n      0x5472616e73616374696f6e206661696c65642100000000000000000000000000\n        /* \"#utility.yul\":11301:11302   */\n      0x00\n        /* \"#utility.yul\":11293:11299   */\n      dup3\n        /* \"#utility.yul\":11289:11303   */\n      add\n        /* \"#utility.yul\":11282:11327   */\n      mstore\n        /* \"#utility.yul\":11165:11334   */\n      pop\n      jump\t// out\n        /* \"#utility.yul\":11340:11706   */\n    tag_502:\n        /* \"#utility.yul\":11482:11485   */\n      0x00\n        /* \"#utility.yul\":11503:11570   */\n      tag_629\n        /* \"#utility.yul\":11567:11569   */\n      0x13\n        /* \"#utility.yul\":11562:11565   */\n      dup4\n        /* \"#utility.yul\":11503:11570   */\n      tag_495\n      jump\t// in\n    tag_629:\n        /* \"#utility.yul\":11496:11570   */\n      swap2\n      pop\n        /* \"#utility.yul\":11579:11672   */\n      tag_630\n        /* \"#utility.yul\":11668:11671   */\n      dup3\n        /* \"#utility.yul\":11579:11672   */\n      tag_501\n      jump\t// in\n    tag_630:\n        /* \"#utility.yul\":11697:11699   */\n      0x20\n        /* \"#utility.yul\":11692:11695   */\n      dup3\n        /* \"#utility.yul\":11688:11700   */\n      add\n        /* \"#utility.yul\":11681:11700   */\n      swap1\n      pop\n        /* \"#utility.yul\":11340:11706   */\n      swap2\n      swap1\n      pop\n      jump\t// out\n        /* \"#utility.yul\":11712:12131   */\n    tag_153:\n        /* \"#utility.yul\":11878:11882   */\n      0x00\n        /* \"#utility.yul\":11916:11918   */\n      0x20\n        /* \"#utility.yul\":11905:11914   */\n      dup3\n        /* \"#utility.yul\":11901:11919   */\n      add\n        /* \"#utility.yul\":11893:11919   */\n      swap1\n      pop\n        /* \"#utility.yul\":11965:11974   */\n      dup2\n        /* \"#utility.yul\":11959:11963   */\n      dup2\n        /* \"#utility.yul\":11955:11975   */\n      sub\n        /* \"#utility.yul\":11951:11952   */\n      0x00\n        /* \"#utility.yul\":11940:11949   */\n      dup4\n        /* \"#utility.yul\":11936:11953   */\n      add\n        /* \"#utility.yul\":11929:11976   */\n      mstore\n        /* \"#utility.yul\":11993:12124   */\n      tag_632\n        /* \"#utility.yul\":12119:12123   */\n      dup2\n        /* \"#utility.yul\":11993:12124   */\n      tag_502\n      jump\t// in\n    tag_632:\n        /* \"#utility.yul\":11985:12124   */\n      swap1\n      pop\n        /* \"#utility.yul\":11712:12131   */\n      swap2\n      swap1\n      pop\n      jump\t// out\n        /* \"#utility.yul\":12137:12317   */\n    tag_503:\n        /* \"#utility.yul\":12185:12262   */\n      0x4e487b7100000000000000000000000000000000000000000000000000000000\n        /* \"#utility.yul\":12182:12183   */\n      0x00\n        /* \"#utility.yul\":12175:12263   */\n      mstore\n        /* \"#utility.yul\":12282:12286   */\n      0x12\n        /* \"#utility.yul\":12279:12280   */\n      0x04\n        /* \"#utility.yul\":12272:12287   */\n      mstore\n        /* \"#utility.yul\":12306:12310   */\n      0x24\n        /* \"#utility.yul\":12303:12304   */\n      0x00\n        /* \"#utility.yul\":12296:12311   */\n      revert\n        /* \"#utility.yul\":12323:12503   */\n    tag_504:\n        /* \"#utility.yul\":12371:12448   */\n      0x4e487b7100000000000000000000000000000000000000000000000000000000\n        /* \"#utility.yul\":12368:12369   */\n      0x00\n        /* \"#utility.yul\":12361:12449   */\n      mstore\n        /* \"#utility.yul\":12468:12472   */\n      0x11\n        /* \"#utility.yul\":12465:12466   */\n      0x04\n        /* \"#utility.yul\":12458:12473   */\n      mstore\n        /* \"#utility.yul\":12492:12496   */\n      0x24\n        /* \"#utility.yul\":12489:12490   */\n      0x00\n        /* \"#utility.yul\":12482:12497   */\n      revert\n        /* \"#utility.yul\":12509:12694   */\n    tag_161:\n        /* \"#utility.yul\":12549:12550   */\n      0x00\n        /* \"#utility.yul\":12566:12586   */\n      tag_636\n        /* \"#utility.yul\":12584:12585   */\n      dup3\n        /* \"#utility.yul\":12566:12586   */\n      tag_468\n      jump\t// in\n    tag_636:\n        /* \"#utility.yul\":12561:12586   */\n      swap2\n      pop\n        /* \"#utility.yul\":12600:12620   */\n      tag_637\n        /* \"#utility.yul\":12618:12619   */\n      dup4\n        /* \"#utility.yul\":12600:12620   */\n      tag_468\n      jump\t// in\n    tag_637:\n        /* \"#utility.yul\":12595:12620   */\n      swap3\n      pop\n        /* \"#utility.yul\":12639:12640   */\n      dup3\n        /* \"#utility.yul\":12629:12664   */\n      tag_638\n      jumpi\n        /* \"#utility.yul\":12644:12662   */\n      tag_639\n      tag_503\n      jump\t// in\n    tag_639:\n        /* \"#utility.yul\":12629:12664   */\n    tag_638:\n        /* \"#utility.yul\":12686:12687   */\n      dup3\n        /* \"#utility.yul\":12683:12684   */\n      dup3\n        /* \"#utility.yul\":12679:12688   */\n      div\n        /* \"#utility.yul\":12674:12688   */\n      swap1\n      pop\n        /* \"#utility.yul\":12509:12694   */\n      swap3\n      swap2\n      pop\n      pop\n      jump\t// out\n        /* \"#utility.yul\":12700:12860   */\n    tag_505:\n        /* \"#utility.yul\":12840:12852   */\n      0x5573657220657869737400000000000000000000000000000000000000000000\n        /* \"#utility.yul\":12836:12837   */\n      0x00\n        /* \"#utility.yul\":12828:12834   */\n      dup3\n        /* \"#utility.yul\":12824:12838   */\n      add\n        /* \"#utility.yul\":12817:12853   */\n      mstore\n        /* \"#utility.yul\":12700:12860   */\n      pop\n      jump\t// out\n        /* \"#utility.yul\":12866:13232   */\n    tag_506:\n        /* \"#utility.yul\":13008:13011   */\n      0x00\n        /* \"#utility.yul\":13029:13096   */\n      tag_642\n        /* \"#utility.yul\":13093:13095   */\n      0x0a\n        /* \"#utility.yul\":13088:13091   */\n      dup4\n        /* \"#utility.yul\":13029:13096   */\n      tag_495\n      jump\t// in\n    tag_642:\n        /* \"#utility.yul\":13022:13096   */\n      swap2\n      pop\n        /* \"#utility.yul\":13105:13198   */\n      tag_643\n        /* \"#utility.yul\":13194:13197   */\n      dup3\n        /* \"#utility.yul\":13105:13198   */\n      tag_505\n      jump\t// in\n    tag_643:\n        /* \"#utility.yul\":13223:13225   */\n      0x20\n        /* \"#utility.yul\":13218:13221   */\n      dup3\n        /* \"#utility.yul\":13214:13226   */\n      add\n        /* \"#utility.yul\":13207:13226   */\n      swap1\n      pop\n        /* \"#utility.yul\":12866:13232   */\n      swap2\n      swap1\n      pop\n      jump\t// out\n        /* \"#utility.yul\":13238:13657   */\n    tag_165:\n        /* \"#utility.yul\":13404:13408   */\n      0x00\n        /* \"#utility.yul\":13442:13444   */\n      0x20\n        /* \"#utility.yul\":13431:13440   */\n      dup3\n        /* \"#utility.yul\":13427:13445   */\n      add\n        /* \"#utility.yul\":13419:13445   */\n      swap1\n      pop\n        /* \"#utility.yul\":13491:13500   */\n      dup2\n        /* \"#utility.yul\":13485:13489   */\n      dup2\n        /* \"#utility.yul\":13481:13501   */\n      sub\n        /* \"#utility.yul\":13477:13478   */\n      0x00\n        /* \"#utility.yul\":13466:13475   */\n      dup4\n        /* \"#utility.yul\":13462:13479   */\n      add\n        /* \"#utility.yul\":13455:13502   */\n      mstore\n        /* \"#utility.yul\":13519:13650   */\n      tag_645\n        /* \"#utility.yul\":13645:13649   */\n      dup2\n        /* \"#utility.yul\":13519:13650   */\n      tag_506\n      jump\t// in\n    tag_645:\n        /* \"#utility.yul\":13511:13650   */\n      swap1\n      pop\n        /* \"#utility.yul\":13238:13657   */\n      swap2\n      swap1\n      pop\n      jump\t// out\n        /* \"#utility.yul\":13663:13834   */\n    tag_507:\n        /* \"#utility.yul\":13803:13826   */\n      0x496e636f72726563742072656665727265722049640000000000000000000000\n        /* \"#utility.yul\":13799:13800   */\n      0x00\n        /* \"#utility.yul\":13791:13797   */\n      dup3\n        /* \"#utility.yul\":13787:13801   */\n      add\n        /* \"#utility.yul\":13780:13827   */\n      mstore\n        /* \"#utility.yul\":13663:13834   */\n      pop\n      jump\t// out\n        /* \"#utility.yul\":13840:14206   */\n    tag_508:\n        /* \"#utility.yul\":13982:13985   */\n      0x00\n        /* \"#utility.yul\":14003:14070   */\n      tag_648\n        /* \"#utility.yul\":14067:14069   */\n      0x15\n        /* \"#utility.yul\":14062:14065   */\n      dup4\n        /* \"#utility.yul\":14003:14070   */\n      tag_495\n      jump\t// in\n    tag_648:\n        /* \"#utility.yul\":13996:14070   */\n      swap2\n      pop\n        /* \"#utility.yul\":14079:14172   */\n      tag_649\n        /* \"#utility.yul\":14168:14171   */\n      dup3\n        /* \"#utility.yul\":14079:14172   */\n      tag_507\n      jump\t// in\n    tag_649:\n        /* \"#utility.yul\":14197:14199   */\n      0x20\n        /* \"#utility.yul\":14192:14195   */\n      dup3\n        /* \"#utility.yul\":14188:14200   */\n      add\n        /* \"#utility.yul\":14181:14200   */\n      swap1\n      pop\n        /* \"#utility.yul\":13840:14206   */\n      swap2\n      swap1\n      pop\n      jump\t// out\n        /* \"#utility.yul\":14212:14631   */\n    tag_169:\n        /* \"#utility.yul\":14378:14382   */\n      0x00\n        /* \"#utility.yul\":14416:14418   */\n      0x20\n        /* \"#utility.yul\":14405:14414   */\n      dup3\n        /* \"#utility.yul\":14401:14419   */\n      add\n        /* \"#utility.yul\":14393:14419   */\n      swap1\n      pop\n        /* \"#utility.yul\":14465:14474   */\n      dup2\n        /* \"#utility.yul\":14459:14463   */\n      dup2\n        /* \"#utility.yul\":14455:14475   */\n      sub\n        /* \"#utility.yul\":14451:14452   */\n      0x00\n        /* \"#utility.yul\":14440:14449   */\n      dup4\n        /* \"#utility.yul\":14436:14453   */\n      add\n        /* \"#utility.yul\":14429:14476   */\n      mstore\n        /* \"#utility.yul\":14493:14624   */\n      tag_651\n        /* \"#utility.yul\":14619:14623   */\n      dup2\n        /* \"#utility.yul\":14493:14624   */\n      tag_508\n      jump\t// in\n    tag_651:\n        /* \"#utility.yul\":14485:14624   */\n      swap1\n      pop\n        /* \"#utility.yul\":14212:14631   */\n      swap2\n      swap1\n      pop\n      jump\t// out\n        /* \"#utility.yul\":14637:14802   */\n    tag_509:\n        /* \"#utility.yul\":14777:14794   */\n      0x496e636f72726563742056616c75650000000000000000000000000000000000\n        /* \"#utility.yul\":14773:14774   */\n      0x00\n        /* \"#utility.yul\":14765:14771   */\n      dup3\n        /* \"#utility.yul\":14761:14775   */\n      add\n        /* \"#utility.yul\":14754:14795   */\n      mstore\n        /* \"#utility.yul\":14637:14802   */\n      pop\n      jump\t// out\n        /* \"#utility.yul\":14808:15174   */\n    tag_510:\n        /* \"#utility.yul\":14950:14953   */\n      0x00\n        /* \"#utility.yul\":14971:15038   */\n      tag_654\n        /* \"#utility.yul\":15035:15037   */\n      0x0f\n        /* \"#utility.yul\":15030:15033   */\n      dup4\n        /* \"#utility.yul\":14971:15038   */\n      tag_495\n      jump\t// in\n    tag_654:\n        /* \"#utility.yul\":14964:15038   */\n      swap2\n      pop\n        /* \"#utility.yul\":15047:15140   */\n      tag_655\n        /* \"#utility.yul\":15136:15139   */\n      dup3\n        /* \"#utility.yul\":15047:15140   */\n      tag_509\n      jump\t// in\n    tag_655:\n        /* \"#utility.yul\":15165:15167   */\n      0x20\n        /* \"#utility.yul\":15160:15163   */\n      dup3\n        /* \"#utility.yul\":15156:15168   */\n      add\n        /* \"#utility.yul\":15149:15168   */\n      swap1\n      pop\n        /* \"#utility.yul\":14808:15174   */\n      swap2\n      swap1\n      pop\n      jump\t// out\n        /* \"#utility.yul\":15180:15599   */\n    tag_172:\n        /* \"#utility.yul\":15346:15350   */\n      0x00\n        /* \"#utility.yul\":15384:15386   */\n      0x20\n        /* \"#utility.yul\":15373:15382   */\n      dup3\n        /* \"#utility.yul\":15369:15387   */\n      add\n        /* \"#utility.yul\":15361:15387   */\n      swap1\n      pop\n        /* \"#utility.yul\":15433:15442   */\n      dup2\n        /* \"#utility.yul\":15427:15431   */\n      dup2\n        /* \"#utility.yul\":15423:15443   */\n      sub\n        /* \"#utility.yul\":15419:15420   */\n      0x00\n        /* \"#utility.yul\":15408:15417   */\n      dup4\n        /* \"#utility.yul\":15404:15421   */\n      add\n        /* \"#utility.yul\":15397:15444   */\n      mstore\n        /* \"#utility.yul\":15461:15592   */\n      tag_657\n        /* \"#utility.yul\":15587:15591   */\n      dup2\n        /* \"#utility.yul\":15461:15592   */\n      tag_510\n      jump\t// in\n    tag_657:\n        /* \"#utility.yul\":15453:15592   */\n      swap1\n      pop\n        /* \"#utility.yul\":15180:15599   */\n      swap2\n      swap1\n      pop\n      jump\t// out\n        /* \"#utility.yul\":15605:15785   */\n    tag_175:\n        /* \"#utility.yul\":15653:15730   */\n      0x4e487b7100000000000000000000000000000000000000000000000000000000\n        /* \"#utility.yul\":15650:15651   */\n      0x00\n        /* \"#utility.yul\":15643:15731   */\n      mstore\n        /* \"#utility.yul\":15750:15754   */\n      0x41\n        /* \"#utility.yul\":15747:15748   */\n      0x04\n        /* \"#utility.yul\":15740:15755   */\n      mstore\n        /* \"#utility.yul\":15774:15778   */\n      0x24\n        /* \"#utility.yul\":15771:15772   */\n      0x00\n        /* \"#utility.yul\":15764:15779   */\n      revert\n        /* \"#utility.yul\":15791:16024   */\n    tag_185:\n        /* \"#utility.yul\":15830:15833   */\n      0x00\n        /* \"#utility.yul\":15853:15877   */\n      tag_660\n        /* \"#utility.yul\":15871:15876   */\n      dup3\n        /* \"#utility.yul\":15853:15877   */\n      tag_468\n      jump\t// in\n    tag_660:\n        /* \"#utility.yul\":15844:15877   */\n      swap2\n      pop\n        /* \"#utility.yul\":15899:15965   */\n      0xffffffffffffffffffffffffffffffffffffffffffffffffffffffffffffffff\n        /* \"#utility.yul\":15892:15897   */\n      dup3\n        /* \"#utility.yul\":15889:15966   */\n      eq\n        /* \"#utility.yul\":15886:15989   */\n      iszero\n      tag_661\n      jumpi\n        /* \"#utility.yul\":15969:15987   */\n      tag_662\n      tag_504\n      jump\t// in\n    tag_662:\n        /* \"#utility.yul\":15886:15989   */\n    tag_661:\n        /* \"#utility.yul\":16016:16017   */\n      0x01\n        /* \"#utility.yul\":16009:16014   */\n      dup3\n        /* \"#utility.yul\":16005:16018   */\n      add\n        /* \"#utility.yul\":15998:16018   */\n      swap1\n      pop\n        /* \"#utility.yul\":15791:16024   */\n      swap2\n      swap1\n      pop\n      jump\t// out\n        /* \"#utility.yul\":16030:16335   */\n    tag_188:\n        /* \"#utility.yul\":16070:16073   */\n      0x00\n        /* \"#utility.yul\":16089:16109   */\n      tag_664\n        /* \"#utility.yul\":16107:16108   */\n      dup3\n        /* \"#utility.yul\":16089:16109   */\n      tag_468\n      jump\t// in\n    tag_664:\n        /* \"#utility.yul\":16084:16109   */\n      swap2\n      pop\n        /* \"#utility.yul\":16123:16143   */\n      tag_665\n        /* \"#utility.yul\":16141:16142   */\n      dup4\n        /* \"#utility.yul\":16123:16143   */\n      tag_468\n      jump\t// in\n    tag_665:\n        /* \"#utility.yul\":16118:16143   */\n      swap3\n      pop\n        /* \"#utility.yul\":16277:16278   */\n      dup3\n        /* \"#utility.yul\":16209:16275   */\n      0xffffffffffffffffffffffffffffffffffffffffffffffffffffffffffffffff\n        /* \"#utility.yul\":16205:16279   */\n      sub\n        /* \"#utility.yul\":16202:16203   */\n      dup3\n        /* \"#utility.yul\":16199:16280   */\n      gt\n        /* \"#utility.yul\":16196:16303   */\n      iszero\n      tag_666\n      jumpi\n        /* \"#utility.yul\":16283:16301   */\n      tag_667\n      tag_504\n      jump\t// in\n    tag_667:\n        /* \"#utility.yul\":16196:16303   */\n    tag_666:\n        /* \"#utility.yul\":16327:16328   */\n      dup3\n        /* \"#utility.yul\":16324:16325   */\n      dup3\n        /* \"#utility.yul\":16320:16329   */\n      add\n        /* \"#utility.yul\":16313:16329   */\n      swap1\n      pop\n        /* \"#utility.yul\":16030:16335   */\n      swap3\n      swap2\n      pop\n      pop\n      jump\t// out\n        /* \"#utility.yul\":16341:16521   */\n    tag_211:\n        /* \"#utility.yul\":16389:16466   */\n      0x4e487b7100000000000000000000000000000000000000000000000000000000\n        /* \"#utility.yul\":16386:16387   */\n      0x00\n        /* \"#utility.yul\":16379:16467   */\n      mstore\n        /* \"#utility.yul\":16486:16490   */\n      0x32\n        /* \"#utility.yul\":16483:16484   */\n      0x04\n        /* \"#utility.yul\":16476:16491   */\n      mstore\n        /* \"#utility.yul\":16510:16514   */\n      0x24\n        /* \"#utility.yul\":16507:16508   */\n      0x00\n        /* \"#utility.yul\":16500:16515   */\n      revert\n        /* \"#utility.yul\":16527:16875   */\n    tag_221:\n        /* \"#utility.yul\":16567:16574   */\n      0x00\n        /* \"#utility.yul\":16590:16610   */\n      tag_670\n        /* \"#utility.yul\":16608:16609   */\n      dup3\n        /* \"#utility.yul\":16590:16610   */\n      tag_468\n      jump\t// in\n    tag_670:\n        /* \"#utility.yul\":16585:16610   */\n      swap2\n      pop\n        /* \"#utility.yul\":16624:16644   */\n      tag_671\n        /* \"#utility.yul\":16642:16643   */\n      dup4\n        /* \"#utility.yul\":16624:16644   */\n      tag_468\n      jump\t// in\n    tag_671:\n        /* \"#utility.yul\":16619:16644   */\n      swap3\n      pop\n        /* \"#utility.yul\":16812:16813   */\n      dup2\n        /* \"#utility.yul\":16744:16810   */\n      0xffffffffffffffffffffffffffffffffffffffffffffffffffffffffffffffff\n        /* \"#utility.yul\":16740:16814   */\n      div\n        /* \"#utility.yul\":16737:16738   */\n      dup4\n        /* \"#utility.yul\":16734:16815   */\n      gt\n        /* \"#utility.yul\":16729:16730   */\n      dup3\n        /* \"#utility.yul\":16722:16731   */\n      iszero\n        /* \"#utility.yul\":16715:16732   */\n      iszero\n        /* \"#utility.yul\":16711:16816   */\n      and\n        /* \"#utility.yul\":16708:16839   */\n      iszero\n      tag_672\n      jumpi\n        /* \"#utility.yul\":16819:16837   */\n      tag_673\n      tag_504\n      jump\t// in\n    tag_673:\n        /* \"#utility.yul\":16708:16839   */\n    tag_672:\n        /* \"#utility.yul\":16867:16868   */\n      dup3\n        /* \"#utility.yul\":16864:16865   */\n      dup3\n        /* \"#utility.yul\":16860:16869   */\n      mul\n        /* \"#utility.yul\":16849:16869   */\n      swap1\n      pop\n        /* \"#utility.yul\":16527:16875   */\n      swap3\n      swap2\n      pop\n      pop\n      jump\t// out\n        /* \"#utility.yul\":16881:17051   */\n    tag_511:\n        /* \"#utility.yul\":17021:17043   */\n      0x43616c6c6572206973206e6f742041646d696e2e000000000000000000000000\n        /* \"#utility.yul\":17017:17018   */\n      0x00\n        /* \"#utility.yul\":17009:17015   */\n      dup3\n        /* \"#utility.yul\":17005:17019   */\n      add\n        /* \"#utility.yul\":16998:17044   */\n      mstore\n        /* \"#utility.yul\":16881:17051   */\n      pop\n      jump\t// out\n        /* \"#utility.yul\":17057:17423   */\n    tag_512:\n        /* \"#utility.yul\":17199:17202   */\n      0x00\n        /* \"#utility.yul\":17220:17287   */\n      tag_676\n        /* \"#utility.yul\":17284:17286   */\n      0x14\n        /* \"#utility.yul\":17279:17282   */\n      dup4\n        /* \"#utility.yul\":17220:17287   */\n      tag_495\n      jump\t// in\n    tag_676:\n        /* \"#utility.yul\":17213:17287   */\n      swap2\n      pop\n        /* \"#utility.yul\":17296:17389   */\n      tag_677\n        /* \"#utility.yul\":17385:17388   */\n      dup3\n        /* \"#utility.yul\":17296:17389   */\n      tag_511\n      jump\t// in\n    tag_677:\n        /* \"#utility.yul\":17414:17416   */\n      0x20\n        /* \"#utility.yul\":17409:17412   */\n      dup3\n        /* \"#utility.yul\":17405:17417   */\n      add\n        /* \"#utility.yul\":17398:17417   */\n      swap1\n      pop\n        /* \"#utility.yul\":17057:17423   */\n      swap2\n      swap1\n      pop\n      jump\t// out\n        /* \"#utility.yul\":17429:17848   */\n    tag_242:\n        /* \"#utility.yul\":17595:17599   */\n      0x00\n        /* \"#utility.yul\":17633:17635   */\n      0x20\n        /* \"#utility.yul\":17622:17631   */\n      dup3\n        /* \"#utility.yul\":17618:17636   */\n      add\n        /* \"#utility.yul\":17610:17636   */\n      swap1\n      pop\n        /* \"#utility.yul\":17682:17691   */\n      dup2\n        /* \"#utility.yul\":17676:17680   */\n      dup2\n        /* \"#utility.yul\":17672:17692   */\n      sub\n        /* \"#utility.yul\":17668:17669   */\n      0x00\n        /* \"#utility.yul\":17657:17666   */\n      dup4\n        /* \"#utility.yul\":17653:17670   */\n      add\n        /* \"#utility.yul\":17646:17693   */\n      mstore\n        /* \"#utility.yul\":17710:17841   */\n      tag_679\n        /* \"#utility.yul\":17836:17840   */\n      dup2\n        /* \"#utility.yul\":17710:17841   */\n      tag_512\n      jump\t// in\n    tag_679:\n        /* \"#utility.yul\":17702:17841   */\n      swap1\n      pop\n        /* \"#utility.yul\":17429:17848   */\n      swap2\n      swap1\n      pop\n      jump\t// out\n        /* \"#utility.yul\":17854:18017   */\n    tag_513:\n        /* \"#utility.yul\":17994:18009   */\n      0x496e76616c696420496e64657800000000000000000000000000000000000000\n        /* \"#utility.yul\":17990:17991   */\n      0x00\n        /* \"#utility.yul\":17982:17988   */\n      dup3\n        /* \"#utility.yul\":17978:17992   */\n      add\n        /* \"#utility.yul\":17971:18010   */\n      mstore\n        /* \"#utility.yul\":17854:18017   */\n      pop\n      jump\t// out\n        /* \"#utility.yul\":18023:18389   */\n    tag_514:\n        /* \"#utility.yul\":18165:18168   */\n      0x00\n        /* \"#utility.yul\":18186:18253   */\n      tag_682\n        /* \"#utility.yul\":18250:18252   */\n      0x0d\n        /* \"#utility.yul\":18245:18248   */\n      dup4\n        /* \"#utility.yul\":18186:18253   */\n      tag_495\n      jump\t// in\n    tag_682:\n        /* \"#utility.yul\":18179:18253   */\n      swap2\n      pop\n        /* \"#utility.yul\":18262:18355   */\n      tag_683\n        /* \"#utility.yul\":18351:18354   */\n      dup3\n        /* \"#utility.yul\":18262:18355   */\n      tag_513\n      jump\t// in\n    tag_683:\n        /* \"#utility.yul\":18380:18382   */\n      0x20\n        /* \"#utility.yul\":18375:18378   */\n      dup3\n        /* \"#utility.yul\":18371:18383   */\n      add\n        /* \"#utility.yul\":18364:18383   */\n      swap1\n      pop\n        /* \"#utility.yul\":18023:18389   */\n      swap2\n      swap1\n      pop\n      jump\t// out\n        /* \"#utility.yul\":18395:18814   */\n    tag_248:\n        /* \"#utility.yul\":18561:18565   */\n      0x00\n        /* \"#utility.yul\":18599:18601   */\n      0x20\n        /* \"#utility.yul\":18588:18597   */\n      dup3\n        /* \"#utility.yul\":18584:18602   */\n      add\n        /* \"#utility.yul\":18576:18602   */\n      swap1\n      pop\n        /* \"#utility.yul\":18648:18657   */\n      dup2\n        /* \"#utility.yul\":18642:18646   */\n      dup2\n        /* \"#utility.yul\":18638:18658   */\n      sub\n        /* \"#utility.yul\":18634:18635   */\n      0x00\n        /* \"#utility.yul\":18623:18632   */\n      dup4\n        /* \"#utility.yul\":18619:18636   */\n      add\n        /* \"#utility.yul\":18612:18659   */\n      mstore\n        /* \"#utility.yul\":18676:18807   */\n      tag_685\n        /* \"#utility.yul\":18802:18806   */\n      dup2\n        /* \"#utility.yul\":18676:18807   */\n      tag_514\n      jump\t// in\n    tag_685:\n        /* \"#utility.yul\":18668:18807   */\n      swap1\n      pop\n        /* \"#utility.yul\":18395:18814   */\n      swap2\n      swap1\n      pop\n      jump\t// out\n        /* \"#utility.yul\":18820:19011   */\n    tag_251:\n        /* \"#utility.yul\":18860:18864   */\n      0x00\n        /* \"#utility.yul\":18880:18900   */\n      tag_687\n        /* \"#utility.yul\":18898:18899   */\n      dup3\n        /* \"#utility.yul\":18880:18900   */\n      tag_468\n      jump\t// in\n    tag_687:\n        /* \"#utility.yul\":18875:18900   */\n      swap2\n      pop\n        /* \"#utility.yul\":18914:18934   */\n      tag_688\n        /* \"#utility.yul\":18932:18933   */\n      dup4\n        /* \"#utility.yul\":18914:18934   */\n      tag_468\n      jump\t// in\n    tag_688:\n        /* \"#utility.yul\":18909:18934   */\n      swap3\n      pop\n        /* \"#utility.yul\":18953:18954   */\n      dup3\n        /* \"#utility.yul\":18950:18951   */\n      dup3\n        /* \"#utility.yul\":18947:18955   */\n      lt\n        /* \"#utility.yul\":18944:18978   */\n      iszero\n      tag_689\n      jumpi\n        /* \"#utility.yul\":18958:18976   */\n      tag_690\n      tag_504\n      jump\t// in\n    tag_690:\n        /* \"#utility.yul\":18944:18978   */\n    tag_689:\n        /* \"#utility.yul\":19003:19004   */\n      dup3\n        /* \"#utility.yul\":19000:19001   */\n      dup3\n        /* \"#utility.yul\":18996:19005   */\n      sub\n        /* \"#utility.yul\":18988:19005   */\n      swap1\n      pop\n        /* \"#utility.yul\":18820:19011   */\n      swap3\n      swap2\n      pop\n      pop\n      jump\t// out\n        /* \"#utility.yul\":19017:19193   */\n    tag_268:\n        /* \"#utility.yul\":19049:19050   */\n      0x00\n        /* \"#utility.yul\":19066:19086   */\n      tag_692\n        /* \"#utility.yul\":19084:19085   */\n      dup3\n        /* \"#utility.yul\":19066:19086   */\n      tag_468\n      jump\t// in\n    tag_692:\n        /* \"#utility.yul\":19061:19086   */\n      swap2\n      pop\n        /* \"#utility.yul\":19100:19120   */\n      tag_693\n        /* \"#utility.yul\":19118:19119   */\n      dup4\n        /* \"#utility.yul\":19100:19120   */\n      tag_468\n      jump\t// in\n    tag_693:\n        /* \"#utility.yul\":19095:19120   */\n      swap3\n      pop\n        /* \"#utility.yul\":19139:19140   */\n      dup3\n        /* \"#utility.yul\":19129:19164   */\n      tag_694\n      jumpi\n        /* \"#utility.yul\":19144:19162   */\n      tag_695\n      tag_503\n      jump\t// in\n    tag_695:\n        /* \"#utility.yul\":19129:19164   */\n    tag_694:\n        /* \"#utility.yul\":19185:19186   */\n      dup3\n        /* \"#utility.yul\":19182:19183   */\n      dup3\n        /* \"#utility.yul\":19178:19187   */\n      mod\n        /* \"#utility.yul\":19173:19187   */\n      swap1\n      pop\n        /* \"#utility.yul\":19017:19193   */\n      swap3\n      swap2\n      pop\n      pop\n      jump\t// out\n        /* \"#utility.yul\":19199:19531   */\n    tag_302:\n        /* \"#utility.yul\":19320:19324   */\n      0x00\n        /* \"#utility.yul\":19358:19360   */\n      0x40\n        /* \"#utility.yul\":19347:19356   */\n      dup3\n        /* \"#utility.yul\":19343:19361   */\n      add\n        /* \"#utility.yul\":19335:19361   */\n      swap1\n      pop\n        /* \"#utility.yul\":19371:19442   */\n      tag_697\n        /* \"#utility.yul\":19439:19440   */\n      0x00\n        /* \"#utility.yul\":19428:19437   */\n      dup4\n        /* \"#utility.yul\":19424:19441   */\n      add\n        /* \"#utility.yul\":19415:19421   */\n      dup6\n        /* \"#utility.yul\":19371:19442   */\n      tag_494\n      jump\t// in\n    tag_697:\n        /* \"#utility.yul\":19452:19524   */\n      tag_698\n        /* \"#utility.yul\":19520:19522   */\n      0x20\n        /* \"#utility.yul\":19509:19518   */\n      dup4\n        /* \"#utility.yul\":19505:19523   */\n      add\n        /* \"#utility.yul\":19496:19502   */\n      dup5\n        /* \"#utility.yul\":19452:19524   */\n      tag_494\n      jump\t// in\n    tag_698:\n        /* \"#utility.yul\":19199:19531   */\n      swap4\n      swap3\n      pop\n      pop\n      pop\n      jump\t// out\n        /* \"#utility.yul\":19537:19613   */\n    tag_515:\n        /* \"#utility.yul\":19573:19580   */\n      0x00\n        /* \"#utility.yul\":19602:19607   */\n      dup2\n        /* \"#utility.yul\":19591:19607   */\n      swap1\n      pop\n        /* \"#utility.yul\":19537:19613   */\n      swap2\n      swap1\n      pop\n      jump\t// out\n        /* \"#utility.yul\":19619:19850   */\n    tag_394:\n        /* \"#utility.yul\":19657:19660   */\n      0x00\n        /* \"#utility.yul\":19680:19703   */\n      tag_701\n        /* \"#utility.yul\":19697:19702   */\n      dup3\n        /* \"#utility.yul\":19680:19703   */\n      tag_515\n      jump\t// in\n    tag_701:\n        /* \"#utility.yul\":19671:19703   */\n      swap2\n      pop\n        /* \"#utility.yul\":19725:19791   */\n      0x7fffffffffffffffffffffffffffffffffffffffffffffffffffffffffffffff\n        /* \"#utility.yul\":19718:19723   */\n      dup3\n        /* \"#utility.yul\":19715:19792   */\n      eq\n        /* \"#utility.yul\":19712:19815   */\n      iszero\n      tag_702\n      jumpi\n        /* \"#utility.yul\":19795:19813   */\n      tag_703\n      tag_504\n      jump\t// in\n    tag_703:\n        /* \"#utility.yul\":19712:19815   */\n    tag_702:\n        /* \"#utility.yul\":19842:19843   */\n      0x01\n        /* \"#utility.yul\":19835:19840   */\n      dup3\n        /* \"#utility.yul\":19831:19844   */\n      add\n        /* \"#utility.yul\":19824:19844   */\n      swap1\n      pop\n        /* \"#utility.yul\":19619:19850   */\n      swap2\n      swap1\n      pop\n      jump\t// out\n\n    auxdata: 0xa26469706673582212204eb04ce287ad262fc43fc38d5d7b2fab43a887bc1c0ccce8c4d61fedb2c8613f64736f6c634300080b0033\n}\n",
				"bytecode": {
					"linkReferences": {},
					"object": "60806040526040518060800160405280600260ff168152602001600160ff168152602001600160ff168152602001600160ff1681525060089060046200004792919062000703565b506000600f556000601055600060115560006012556802b5e3af16b18800006013556064600a6013546200007c91906200095f565b620000889190620009ef565b601455606460096013546200009e91906200095f565b620000aa9190620009ef565b60155560646001601354620000c091906200095f565b620000cc9190620009ef565b601655348015620000dc57600080fd5b506040516200562838038062005628833981810160405281019062000102919062000a91565b336000806101000a81548173ffffffffffffffffffffffffffffffffffffffff021916908373ffffffffffffffffffffffffffffffffffffffff16021790555080600160006101000a81548173ffffffffffffffffffffffffffffffffffffffff021916908373ffffffffffffffffffffffffffffffffffffffff16021790555082600260006101000a81548173ffffffffffffffffffffffffffffffffffffffff021916908373ffffffffffffffffffffffffffffffffffffffff16021790555081600360006101000a81548173ffffffffffffffffffffffffffffffffffffffff021916908373ffffffffffffffffffffffffffffffffffffffff16021790555060405180608001604052808873ffffffffffffffffffffffffffffffffffffffff1673ffffffffffffffffffffffffffffffffffffffff1681526020018773ffffffffffffffffffffffffffffffffffffffff1673ffffffffffffffffffffffffffffffffffffffff1681526020018673ffffffffffffffffffffffffffffffffffffffff1673ffffffffffffffffffffffffffffffffffffffff1681526020018573ffffffffffffffffffffffffffffffffffffffff1673ffffffffffffffffffffffffffffffffffffffff168152506004906004620002e8929190620007a4565b5060646050601354620002fc91906200095f565b620003089190620009ef565b60096000600181526020019081526020016000208190555060026009600060018152602001908152602001600020546200034391906200095f565b60096000600281526020019081526020016000208190555060026009600060028152602001908152602001600020546200037e91906200095f565b6009600060038152602001908152602001600020819055506002600960006003815260200190815260200160002054620003b991906200095f565b6009600060048152602001908152602001600020819055506002600960006004815260200190815260200160002054620003f491906200095f565b60096000600581526020019081526020016000208190555060026009600060058152602001908152602001600020546200042f91906200095f565b60096000600681526020019081526020016000208190555060026009600060068152602001908152602001600020546200046a91906200095f565b6009600060078152602001908152602001600020819055506002600960006007815260200190815260200160002054620004a591906200095f565b6009600060088152602001908152602001600020819055506002600960006008815260200190815260200160002054620004e091906200095f565b6009600060098152602001908152602001600020819055506000600a60008060009054906101000a900473ffffffffffffffffffffffffffffffffffffffff1673ffffffffffffffffffffffffffffffffffffffff1673ffffffffffffffffffffffffffffffffffffffff168152602001908152602001600020905060018160000160006101000a81548160ff021916908315150217905550600f54816001018190555060008160020181905550600067ffffffffffffffff811115620005ac57620005ab62000b44565b5b604051908082528060200260200182016040528015620005db5781602001602082028036833780820191505090505b50816003019080519060200190620005f592919062000826565b50428160040181905550600067ffffffffffffffff8111156200061d576200061c62000b44565b5b6040519080825280602002602001820160405280156200064c5781602001602082028036833780820191505090505b5081600601908051906020019062000666929190620008b5565b50600f60008154809291906200067c9062000b73565b919050555060008054906101000a900473ffffffffffffffffffffffffffffffffffffffff16600b6000600f54815260200190815260200160002060006101000a81548173ffffffffffffffffffffffffffffffffffffffff021916908373ffffffffffffffffffffffffffffffffffffffff160217905550505050505050505062000bc1565b826004601f01602090048101928215620007915791602002820160005b838211156200076057835183826101000a81548160ff021916908360ff160217905550926020019260010160208160000104928301926001030262000720565b80156200078f5782816101000a81549060ff021916905560010160208160000104928301926001030262000760565b505b509050620007a0919062000907565b5090565b826004810192821562000813579160200282015b82811115620008125782518260006101000a81548173ffffffffffffffffffffffffffffffffffffffff021916908373ffffffffffffffffffffffffffffffffffffffff16021790555091602001919060010190620007b8565b5b50905062000822919062000907565b5090565b828054828255906000526020600020908101928215620008a2579160200282015b82811115620008a15782518260006101000a81548173ffffffffffffffffffffffffffffffffffffffff021916908373ffffffffffffffffffffffffffffffffffffffff1602179055509160200191906001019062000847565b5b509050620008b1919062000907565b5090565b828054828255906000526020600020908101928215620008f4579160200282015b82811115620008f3578251825591602001919060010190620008d6565b5b50905062000903919062000907565b5090565b5b808211156200092257600081600090555060010162000908565b5090565b6000819050919050565b7f4e487b7100000000000000000000000000000000000000000000000000000000600052601160045260246000fd5b60006200096c8262000926565b9150620009798362000926565b9250817fffffffffffffffffffffffffffffffffffffffffffffffffffffffffffffffff0483118215151615620009b557620009b462000930565b5b828202905092915050565b7f4e487b7100000000000000000000000000000000000000000000000000000000600052601260045260246000fd5b6000620009fc8262000926565b915062000a098362000926565b92508262000a1c5762000a1b620009c0565b5b828204905092915050565b600080fd5b600073ffffffffffffffffffffffffffffffffffffffff82169050919050565b600062000a598262000a2c565b9050919050565b62000a6b8162000a4c565b811462000a7757600080fd5b50565b60008151905062000a8b8162000a60565b92915050565b600080600080600080600060e0888a03121562000ab35762000ab262000a27565b5b600062000ac38a828b0162000a7a565b975050602062000ad68a828b0162000a7a565b965050604062000ae98a828b0162000a7a565b955050606062000afc8a828b0162000a7a565b945050608062000b0f8a828b0162000a7a565b93505060a062000b228a828b0162000a7a565b92505060c062000b358a828b0162000a7a565b91505092959891949750929550565b7f4e487b7100000000000000000000000000000000000000000000000000000000600052604160045260246000fd5b600062000b808262000926565b91507fffffffffffffffffffffffffffffffffffffffffffffffffffffffffffffffff82141562000bb65762000bb562000930565b5b600182019050919050565b614a578062000bd16000396000f3fe6080604052600436106101355760003560e01c8063992c85d2116100ab578063a87430ba1161006f578063a87430ba1461047f578063aa24c5c5146104bf578063bbf57068146104fc578063c15dec8514610539578063f7bbfccd14610564578063fb75b2c71461058d57610135565b8063992c85d21461039657806399cbd74f146103c15780639f4216e8146103ec578063a457c05014610429578063a4bb170d1461045457610135565b80635e8a7069116100fd5780635e8a7069146102595780636043ddad146102845780636158fa00146102c15780636f9fb98a146102fe57806379378e30146103295780638853b53e1461036657610135565b806310e4077a1461013a57806336b19cd71461017757806343f6753c146101a25780634d948bea146101df578063575cea6b1461021c575b600080fd5b34801561014657600080fd5b50610161600480360381019061015c9190614011565b6105b8565b60405161016e919061407f565b60405180910390f35b34801561018357600080fd5b5061018c6105ee565b604051610199919061407f565b60405180910390f35b3480156101ae57600080fd5b506101c960048036038101906101c491906140c6565b610612565b6040516101d6919061407f565b60405180910390f35b3480156101eb57600080fd5b50610206600480360381019061020191906140c6565b610654565b6040516102139190614121565b60405180910390f35b34801561022857600080fd5b50610243600480360381019061023e919061413c565b610683565b6040516102509190614227565b60405180910390f35b34801561026557600080fd5b5061026e610753565b60405161027b9190614121565b60405180910390f35b34801561029057600080fd5b506102ab60048036038101906102a69190614011565b6108bc565b6040516102b89190614265565b60405180910390f35b3480156102cd57600080fd5b506102e860048036038101906102e3919061413c565b6108e6565b6040516102f5919061433e565b60405180910390f35b34801561030a57600080fd5b50610313610980565b604051610320919061436f565b60405180910390f35b34801561033557600080fd5b50610350600480360381019061034b9190614011565b610996565b60405161035d919061436f565b60405180910390f35b610380600480360381019061037b9190614011565b6109ae565b60405161038d9190614121565b60405180910390f35b3480156103a257600080fd5b506103ab611175565b6040516103b8919061407f565b60405180910390f35b3480156103cd57600080fd5b506103d661119b565b6040516103e39190614121565b60405180910390f35b3480156103f857600080fd5b50610413600480360381019061040e9190614011565b61137f565b604051610420919061407f565b60405180910390f35b34801561043557600080fd5b5061043e6113b2565b60405161044b9190614121565b60405180910390f35b34801561046057600080fd5b5061046961151b565b604051610476919061436f565b60405180910390f35b34801561048b57600080fd5b506104a660048036038101906104a1919061413c565b611521565b6040516104b6949392919061438a565b60405180910390f35b3480156104cb57600080fd5b506104e660048036038101906104e191906143cf565b61155e565b6040516104f3919061436f565b60405180910390f35b34801561050857600080fd5b50610523600480360381019061051e91906140c6565b6115bc565b604051610530919061436f565b60405180910390f35b34801561054557600080fd5b5061054e6115e1565b60405161055b919061407f565b60405180910390f35b34801561057057600080fd5b5061058b600480360381019061058691906143cf565b611607565b005b34801561059957600080fd5b506105a261186a565b6040516105af919061407f565b60405180910390f35b600481600481106105c857600080fd5b016000915054906101000a900473ffffffffffffffffffffffffffffffffffffffff1681565b60008054906101000a900473ffffffffffffffffffffffffffffffffffffffff1681565b600d6020528160005260406000206020528060005260406000206000915091509054906101000a900473ffffffffffffffffffffffffffffffffffffffff1681565b600e6020528160005260406000206020528060005260406000206000915091509054906101000a900460ff1681565b6060600a60008373ffffffffffffffffffffffffffffffffffffffff1673ffffffffffffffffffffffffffffffffffffffff16815260200190815260200160002060030180548060200260200160405190810160405280929190818152602001828054801561074757602002820191906000526020600020905b8160009054906101000a900473ffffffffffffffffffffffffffffffffffffffff1673ffffffffffffffffffffffffffffffffffffffff16815260200190600101908083116106fd575b50505050509050919050565b6000600160009054906101000a900473ffffffffffffffffffffffffffffffffffffffff1673ffffffffffffffffffffffffffffffffffffffff163373ffffffffffffffffffffffffffffffffffffffff16146107e5576040517f08c379a00000000000000000000000000000000000000000000000000000000081526004016107dc9061446c565b60405180910390fd5b6000600160009054906101000a900473ffffffffffffffffffffffffffffffffffffffff1673ffffffffffffffffffffffffffffffffffffffff1660125460405161082f906144bd565b60006040518083038185875af1925050503d806000811461086c576040519150601f19603f3d011682016040523d82523d6000602084013e610871565b606091505b50509050806108b5576040517f08c379a00000000000000000000000000000000000000000000000000000000081526004016108ac9061451e565b60405180910390fd5b8091505090565b600881600481106108cc57600080fd5b60209182820401919006915054906101000a900460ff1681565b6060600a60008373ffffffffffffffffffffffffffffffffffffffff1673ffffffffffffffffffffffffffffffffffffffff16815260200190815260200160002060060180548060200260200160405190810160405280929190818152602001828054801561097457602002820191906000526020600020905b815481526020019060010190808311610960575b50505050509050919050565b6000620f424047610991919061459c565b905090565b60096020528060005260406000206000915090505481565b6000600a60003373ffffffffffffffffffffffffffffffffffffffff1673ffffffffffffffffffffffffffffffffffffffff16815260200190815260200160002060000160009054906101000a900460ff1615610a40576040517f08c379a0000000000000000000000000000000000000000000000000000000008152600401610a3790614619565b60405180910390fd5b600082118015610a525750600f548211155b610a91576040517f08c379a0000000000000000000000000000000000000000000000000000000008152600401610a8890614685565b60405180910390fd5b6013543414610ad5576040517f08c379a0000000000000000000000000000000000000000000000000000000008152600401610acc906146f1565b60405180910390fd5b6000600a60003373ffffffffffffffffffffffffffffffffffffffff1673ffffffffffffffffffffffffffffffffffffffff168152602001908152602001600020905060018160000160006101000a81548160ff021916908315150217905550600f548160010181905550828160020181905550600067ffffffffffffffff811115610b6457610b63614711565b5b604051908082528060200260200182016040528015610b925781602001602082028036833780820191505090505b50816003019080519060200190610baa929190613ee2565b50428160040181905550600067ffffffffffffffff811115610bcf57610bce614711565b5b604051908082528060200260200182016040528015610bfd5781602001602082028036833780820191505090505b50816006019080519060200190610c15929190613f6c565b50600f6000815480929190610c2990614740565b919050555033600b6000600f54815260200190815260200160002060006101000a81548173ffffffffffffffffffffffffffffffffffffffff021916908373ffffffffffffffffffffffffffffffffffffffff160217905550600a6000600b600086815260200190815260200160002060009054906101000a900473ffffffffffffffffffffffffffffffffffffffff1673ffffffffffffffffffffffffffffffffffffffff1673ffffffffffffffffffffffffffffffffffffffff168152602001908152602001600020600301339080600181540180825580915050600190039060005260206000200160009091909190916101000a81548173ffffffffffffffffffffffffffffffffffffffff021916908373ffffffffffffffffffffffffffffffffffffffff16021790555060096000600181526020019081526020016000205460126000828254610d7e9190614789565b9250508190555060155460116000828254610d999190614789565b9250508190555060165460106000828254610db49190614789565b925050819055506000600a6000600b600087815260200190815260200160002060009054906101000a900473ffffffffffffffffffffffffffffffffffffffff1673ffffffffffffffffffffffffffffffffffffffff1673ffffffffffffffffffffffffffffffffffffffff168152602001908152602001600020600301805490509050600181141580610e485750600184145b15610e6157610e5c60013383600080611890565b610ff1565b600a6000600b600087815260200190815260200160002060009054906101000a900473ffffffffffffffffffffffffffffffffffffffff1673ffffffffffffffffffffffffffffffffffffffff1673ffffffffffffffffffffffffffffffffffffffff168152602001908152602001600020600601600190806001815401808255809150506001900390600052602060002001600090919091909150556000600b600086815260200190815260200160002060009054906101000a900473ffffffffffffffffffffffffffffffffffffffff1690506001600a60008373ffffffffffffffffffffffffffffffffffffffff1673ffffffffffffffffffffffffffffffffffffffff16815260200190815260200160002060050160006001815260200190815260200160002054610f979190614789565b600a60008373ffffffffffffffffffffffffffffffffffffffff1673ffffffffffffffffffffffffffffffffffffffff16815260200190815260200160002060050160006001815260200190815260200160002081905550505b6000600b600086815260200190815260200160002060009054906101000a900473ffffffffffffffffffffffffffffffffffffffff1673ffffffffffffffffffffffffffffffffffffffff1660145460405161104c906144bd565b60006040518083038185875af1925050503d8060008114611089576040519150601f19603f3d011682016040523d82523d6000602084013e61108e565b606091505b50509050806110d2576040517f08c379a00000000000000000000000000000000000000000000000000000000081526004016110c99061451e565b60405180910390fd5b600b600086815260200190815260200160002060009054906101000a900473ffffffffffffffffffffffffffffffffffffffff1673ffffffffffffffffffffffffffffffffffffffff163373ffffffffffffffffffffffffffffffffffffffff167f788c06d2405ae89dd3f0528d38be7691289474d72176408bc2c2406dc5e342f142604051611162919061436f565b60405180910390a3809350505050919050565b600260009054906101000a900473ffffffffffffffffffffffffffffffffffffffff1681565b600080600090506000805b6004811015611237573373ffffffffffffffffffffffffffffffffffffffff16600482600481106111da576111d96147df565b5b0160009054906101000a900473ffffffffffffffffffffffffffffffffffffffff1673ffffffffffffffffffffffffffffffffffffffff1614156112245760019250809150611237565b808061122f90614740565b9150506111a6565b50600115158215151461127f576040517f08c379a00000000000000000000000000000000000000000000000000000000081526004016112769061446c565b60405180910390fd5b6000606460088360048110611297576112966147df565b5b602091828204019190069054906101000a900460ff1660ff166011546112bd919061480e565b6112c7919061459c565b905060003373ffffffffffffffffffffffffffffffffffffffff16826040516112ef906144bd565b60006040518083038185875af1925050503d806000811461132c576040519150601f19603f3d011682016040523d82523d6000602084013e611331565b606091505b5050905080611375576040517f08c379a000000000000000000000000000000000000000000000000000000000815260040161136c9061451e565b60405180910390fd5b8094505050505090565b600b6020528060005260406000206000915054906101000a900473ffffffffffffffffffffffffffffffffffffffff1681565b6000600260009054906101000a900473ffffffffffffffffffffffffffffffffffffffff1673ffffffffffffffffffffffffffffffffffffffff163373ffffffffffffffffffffffffffffffffffffffff1614611444576040517f08c379a000000000000000000000000000000000000000000000000000000000815260040161143b9061446c565b60405180910390fd5b6000600260009054906101000a900473ffffffffffffffffffffffffffffffffffffffff1673ffffffffffffffffffffffffffffffffffffffff1660105460405161148e906144bd565b60006040518083038185875af1925050503d80600081146114cb576040519150601f19603f3d011682016040523d82523d6000602084013e6114d0565b606091505b5050905080611514576040517f08c379a000000000000000000000000000000000000000000000000000000000815260040161150b9061451e565b60405180910390fd5b8091505090565b600f5481565b600a6020528060005260406000206000915090508060000160009054906101000a900460ff16908060010154908060020154908060040154905084565b6000600a60008473ffffffffffffffffffffffffffffffffffffffff1673ffffffffffffffffffffffffffffffffffffffff168152602001908152602001600020600501600083815260200190815260200160002054905092915050565b600c602052816000526040600020602052806000526040600020600091509150505481565b600160009054906101000a900473ffffffffffffffffffffffffffffffffffffffff1681565b60008054906101000a900473ffffffffffffffffffffffffffffffffffffffff1673ffffffffffffffffffffffffffffffffffffffff163373ffffffffffffffffffffffffffffffffffffffff1614611695576040517f08c379a000000000000000000000000000000000000000000000000000000000815260040161168c906148b4565b60405180910390fd5b60008054906101000a900473ffffffffffffffffffffffffffffffffffffffff1673ffffffffffffffffffffffffffffffffffffffff163373ffffffffffffffffffffffffffffffffffffffff1614611723576040517f08c379a000000000000000000000000000000000000000000000000000000000815260040161171a9061446c565b60405180910390fd5b6005811115611767576040517f08c379a000000000000000000000000000000000000000000000000000000000815260040161175e90614920565b60405180910390fd5b600381116117d45781600460018361177f9190614940565b600481106117905761178f6147df565b5b0160006101000a81548173ffffffffffffffffffffffffffffffffffffffff021916908373ffffffffffffffffffffffffffffffffffffffff160217905550611866565b60048114156118235781600260006101000a81548173ffffffffffffffffffffffffffffffffffffffff021916908373ffffffffffffffffffffffffffffffffffffffff160217905550611865565b81600160006101000a81548173ffffffffffffffffffffffffffffffffffffffff021916908373ffffffffffffffffffffffffffffffffffffffff1602179055505b5b5050565b600360009054906101000a900473ffffffffffffffffffffffffffffffffffffffff1681565b60008060009050600080600190506000808a90506001891480156118b8575060011515871515145b806118c35750600289145b156118f5576118d58b8b848787611e38565b80965081955082985050505060018b6118ee9190614789565b90506119fa565b601489101580156119125750600060148a6119109190614974565b145b1561194157600360009054906101000a900473ffffffffffffffffffffffffffffffffffffffff1695506119f9565b6004891015801561195e5750600060048a61195c9190614974565b145b1561197f5761196f888b8d856125aa565b80965081975050508a90506119f8565b600b6000600a60008d73ffffffffffffffffffffffffffffffffffffffff1673ffffffffffffffffffffffffffffffffffffffff16815260200190815260200160002060020154815260200190815260200160002060009054906101000a900473ffffffffffffffffffffffffffffffffffffffff1695505b5b5b8280611a655750600b60006001815260200190815260200160002060009054906101000a900473ffffffffffffffffffffffffffffffffffffffff1673ffffffffffffffffffffffffffffffffffffffff168673ffffffffffffffffffffffffffffffffffffffff16145b15611e2b57611a7786828b88886127a1565b809a5081995050508715611b4b57828015611a90575083155b8015611a9c5750600289145b15611aa557809a505b828015611ab0575083155b8015611abc5750600489145b8015611ac9575060018110155b15611b3857809a506001600a60008873ffffffffffffffffffffffffffffffffffffffff1673ffffffffffffffffffffffffffffffffffffffff168152602001908152602001600020600501600083815260200190815260200160002054611b319190614789565b9850600196505b611b468b878b60018b611890565b611e2a565b600a60008773ffffffffffffffffffffffffffffffffffffffff1673ffffffffffffffffffffffffffffffffffffffff16815260200190815260200160002060000160009054906101000a900460ff16611bd757600b60006001815260200190815260200160002060009054906101000a900473ffffffffffffffffffffffffffffffffffffffff1695505b6001600a60008873ffffffffffffffffffffffffffffffffffffffff1673ffffffffffffffffffffffffffffffffffffffff168152602001908152602001600020600501600083815260200190815260200160002054611c379190614789565b600a60008873ffffffffffffffffffffffffffffffffffffffff1673ffffffffffffffffffffffffffffffffffffffff16815260200190815260200160002060050160008381526020019081526020016000208190555060008673ffffffffffffffffffffffffffffffffffffffff166009600084815260200190815260200160002054604051611cc7906144bd565b60006040518083038185875af1925050503d8060008114611d04576040519150601f19603f3d011682016040523d82523d6000602084013e611d09565b606091505b5050905080611d4d576040517f08c379a0000000000000000000000000000000000000000000000000000000008152600401611d449061451e565b60405180910390fd5b8015611dbb573373ffffffffffffffffffffffffffffffffffffffff168773ffffffffffffffffffffffffffffffffffffffff167fce7dc747411ac40191c5335943fcc79d8c2d8c01ca5ae83d9fed160409fa61208442604051611db29291906149a5565b60405180910390a35b80611e28573373ffffffffffffffffffffffffffffffffffffffff168773ffffffffffffffffffffffffffffffffffffffff167f7df0f6bac5c770af7783500bb7f1c0d073adb11316004ba6f9f6c704af1a1aea8442604051611e1f9291906149a5565b60405180910390a35b505b5b5050505050505050505050565b600080600080600189611e4b9190614789565b905060008060028311611ed557600b6000600a60008d73ffffffffffffffffffffffffffffffffffffffff1673ffffffffffffffffffffffffffffffffffffffff16815260200190815260200160002060020154815260200190815260200160002060009054906101000a900473ffffffffffffffffffffffffffffffffffffffff169050611ed9565b8990505b611ee4818c8b612d3d565b8092508193505050600a60008373ffffffffffffffffffffffffffffffffffffffff1673ffffffffffffffffffffffffffffffffffffffff16815260200190815260200160002060000160009054906101000a900460ff1615806120515750600073ffffffffffffffffffffffffffffffffffffffff16600d600085815260200190815260200160002060008473ffffffffffffffffffffffffffffffffffffffff1673ffffffffffffffffffffffffffffffffffffffff16815260200190815260200160002060009054906101000a900473ffffffffffffffffffffffffffffffffffffffff1673ffffffffffffffffffffffffffffffffffffffff16148015612050575060001515600e600085815260200190815260200160002060008473ffffffffffffffffffffffffffffffffffffffff1673ffffffffffffffffffffffffffffffffffffffff16815260200190815260200160002060009054906101000a900460ff161515145b5b156122ef57600a60008373ffffffffffffffffffffffffffffffffffffffff1673ffffffffffffffffffffffffffffffffffffffff16815260200190815260200160002060000160009054906101000a900460ff166120e257600b60006001815260200190815260200160002060009054906101000a900473ffffffffffffffffffffffffffffffffffffffff1691505b600b60006001815260200190815260200160002060009054906101000a900473ffffffffffffffffffffffffffffffffffffffff1673ffffffffffffffffffffffffffffffffffffffff168273ffffffffffffffffffffffffffffffffffffffff1614612205576001600a60008473ffffffffffffffffffffffffffffffffffffffff1673ffffffffffffffffffffffffffffffffffffffff1681526020019081526020016000206005016000858152602001908152602001600020546121a99190614789565b600a60008473ffffffffffffffffffffffffffffffffffffffff1673ffffffffffffffffffffffffffffffffffffffff168152602001908152602001600020600501600085815260200190815260200160002081905550600096505b80600d600085815260200190815260200160002060008473ffffffffffffffffffffffffffffffffffffffff1673ffffffffffffffffffffffffffffffffffffffff16815260200190815260200160002060006101000a81548173ffffffffffffffffffffffffffffffffffffffff021916908373ffffffffffffffffffffffffffffffffffffffff1602179055506001600c600085815260200190815260200160002060008473ffffffffffffffffffffffffffffffffffffffff1673ffffffffffffffffffffffffffffffffffffffff1681526020019081526020016000208190555061252a565b6000600d600085815260200190815260200160002060008473ffffffffffffffffffffffffffffffffffffffff1673ffffffffffffffffffffffffffffffffffffffff16815260200190815260200160002060009054906101000a900473ffffffffffffffffffffffffffffffffffffffff16905061236f8382846134a7565b1561237d5760019850612528565b6000600d600086815260200190815260200160002060008573ffffffffffffffffffffffffffffffffffffffff1673ffffffffffffffffffffffffffffffffffffffff16815260200190815260200160002060006101000a81548173ffffffffffffffffffffffffffffffffffffffff021916908373ffffffffffffffffffffffffffffffffffffffff1602179055506001600e600086815260200190815260200160002060008573ffffffffffffffffffffffffffffffffffffffff1673ffffffffffffffffffffffffffffffffffffffff16815260200190815260200160002060006101000a81548160ff0219169083151502179055506001600c600086815260200190815260200160002060008573ffffffffffffffffffffffffffffffffffffffff1673ffffffffffffffffffffffffffffffffffffffff168152602001908152602001600020546124d39190614789565b600c600086815260200190815260200160002060008573ffffffffffffffffffffffffffffffffffffffff1673ffffffffffffffffffffffffffffffffffffffff168152602001908152602001600020819055505b505b600a60008273ffffffffffffffffffffffffffffffffffffffff1673ffffffffffffffffffffffffffffffffffffffff168152602001908152602001600020600601839080600181540180825580915050600190039060005260206000200160009091909190915055818789955095509550505050955095509592505050565b6000806000600190506000808861263857600b6000600a60008b73ffffffffffffffffffffffffffffffffffffffff1673ffffffffffffffffffffffffffffffffffffffff16815260200190815260200160002060020154815260200190815260200160002060009054906101000a900473ffffffffffffffffffffffffffffffffffffffff16915061263c565b8791505b6001600a60008473ffffffffffffffffffffffffffffffffffffffff1673ffffffffffffffffffffffffffffffffffffffff16815260200190815260200160002060050160008981526020019081526020016000205461269c9190614789565b600a60008473ffffffffffffffffffffffffffffffffffffffff1673ffffffffffffffffffffffffffffffffffffffff1681526020019081526020016000206005016000898152602001908152602001600020819055506126fe828888613876565b5080915050600a60008273ffffffffffffffffffffffffffffffffffffffff1673ffffffffffffffffffffffffffffffffffffffff16815260200190815260200160002060000160009054906101000a900460ff1661278f57600b60006001815260200190815260200160002060009054906101000a900473ffffffffffffffffffffffffffffffffffffffff1690505b80839450945050505094509492505050565b60008060008086905060006001600a60008c73ffffffffffffffffffffffffffffffffffffffff1673ffffffffffffffffffffffffffffffffffffffff16815260200190815260200160002060050160008b81526020019081526020016000205461280c9190614789565b90506002600c60008b815260200190815260200160002060008c73ffffffffffffffffffffffffffffffffffffffff1673ffffffffffffffffffffffffffffffffffffffff1681526020019081526020016000205414156128705760019250612d2a565b6004811015801561288d5750600060048261288b9190614974565b145b80156128dc57506000600a60008c73ffffffffffffffffffffffffffffffffffffffff1673ffffffffffffffffffffffffffffffffffffffff1681526020019081526020016000206002015414155b80156128e85750600189145b1561290f576003881480156128fd5750600481145b15612906578091505b60019250612d29565b6004811015801561292c5750600060048261292a9190614974565b145b80156129385750600288145b8015612942575085155b801561294e5750600189115b156129d257600b60006001815260200190815260200160002060009054906101000a900473ffffffffffffffffffffffffffffffffffffffff1673ffffffffffffffffffffffffffffffffffffffff168a73ffffffffffffffffffffffffffffffffffffffff1614156129c457600092506129cd565b60049150600192505b612d28565b600281148015612a2557506000600a60008c73ffffffffffffffffffffffffffffffffffffffff1673ffffffffffffffffffffffffffffffffffffffff1681526020019081526020016000206002015414155b8015612a2f575086155b8015612a39575085155b15612b4857600a60008b73ffffffffffffffffffffffffffffffffffffffff1673ffffffffffffffffffffffffffffffffffffffff16815260200190815260200160002060000160009054906101000a900460ff16612aca57600b60006001815260200190815260200160002060009054906101000a900473ffffffffffffffffffffffffffffffffffffffff1699505b600b60006001815260200190815260200160002060009054906101000a900473ffffffffffffffffffffffffffffffffffffffff1673ffffffffffffffffffffffffffffffffffffffff168a73ffffffffffffffffffffffffffffffffffffffff161415612b3b5760009250612b43565b600192508091505b612d27565b600181148015612b9a57506000600a60008c73ffffffffffffffffffffffffffffffffffffffff1673ffffffffffffffffffffffffffffffffffffffff16815260200190815260200160002060020154145b15612c3057600a60008b73ffffffffffffffffffffffffffffffffffffffff1673ffffffffffffffffffffffffffffffffffffffff16815260200190815260200160002060000160009054906101000a900460ff16612c2b57600b60006001815260200190815260200160002060009054906101000a900473ffffffffffffffffffffffffffffffffffffffff1699505b612d26565b600181148015612c8357506000600a60008c73ffffffffffffffffffffffffffffffffffffffff1673ffffffffffffffffffffffffffffffffffffffff1681526020019081526020016000206002015414155b8015612c8c5750865b15612d2557600a60008b73ffffffffffffffffffffffffffffffffffffffff1673ffffffffffffffffffffffffffffffffffffffff16815260200190815260200160002060000160009054906101000a900460ff16612d1d57600b60006001815260200190815260200160002060009054906101000a900473ffffffffffffffffffffffffffffffffffffffff1699505b600192508091505b5b5b5b5b5b8282945094505050509550959350505050565b60008060008086905060005b60098112156133df576001600a60008a73ffffffffffffffffffffffffffffffffffffffff1673ffffffffffffffffffffffffffffffffffffffff168152602001908152602001600020600201541480612e025750600b60006001815260200190815260200160002060009054906101000a900473ffffffffffffffffffffffffffffffffffffffff1673ffffffffffffffffffffffffffffffffffffffff168373ffffffffffffffffffffffffffffffffffffffff16145b80612e6c5750600b60006001815260200190815260200160002060009054906101000a900473ffffffffffffffffffffffffffffffffffffffff1673ffffffffffffffffffffffffffffffffffffffff168273ffffffffffffffffffffffffffffffffffffffff16145b15612e76576133df565b60006001600a60008573ffffffffffffffffffffffffffffffffffffffff1673ffffffffffffffffffffffffffffffffffffffff16815260200190815260200160002060060180549050612eca9190614940565b9050600a60008473ffffffffffffffffffffffffffffffffffffffff1673ffffffffffffffffffffffffffffffffffffffff1681526020019081526020016000206006018181548110612f2057612f1f6147df565b5b906000526020600020015496506000600b6000600a60008773ffffffffffffffffffffffffffffffffffffffff1673ffffffffffffffffffffffffffffffffffffffff16815260200190815260200160002060020154815260200190815260200160002060009054906101000a900473ffffffffffffffffffffffffffffffffffffffff1690506000600b6000600a60008573ffffffffffffffffffffffffffffffffffffffff1673ffffffffffffffffffffffffffffffffffffffff16815260200190815260200160002060020154815260200190815260200160002060009054906101000a900473ffffffffffffffffffffffffffffffffffffffff1690506000600190505b8a81101561312857600b60006001815260200190815260200160002060009054906101000a900473ffffffffffffffffffffffffffffffffffffffff1673ffffffffffffffffffffffffffffffffffffffff168273ffffffffffffffffffffffffffffffffffffffff16141561309d57613128565b600b6000600a60008573ffffffffffffffffffffffffffffffffffffffff1673ffffffffffffffffffffffffffffffffffffffff16815260200190815260200160002060020154815260200190815260200160002060009054906101000a900473ffffffffffffffffffffffffffffffffffffffff169150808061312090614740565b915050613028565b5060018a6131369190614789565b8910156133be57600a60008273ffffffffffffffffffffffffffffffffffffffff1673ffffffffffffffffffffffffffffffffffffffff16815260200190815260200160002060000160009054906101000a900460ff1615806131db57506000600a60008473ffffffffffffffffffffffffffffffffffffffff1673ffffffffffffffffffffffffffffffffffffffff16815260200190815260200160002060020154145b8061322857506001600a60008473ffffffffffffffffffffffffffffffffffffffff1673ffffffffffffffffffffffffffffffffffffffff16815260200190815260200160002060020154145b156133b357600a6000600b6000600a60008773ffffffffffffffffffffffffffffffffffffffff1673ffffffffffffffffffffffffffffffffffffffff16815260200190815260200160002060020154815260200190815260200160002060009054906101000a900473ffffffffffffffffffffffffffffffffffffffff1673ffffffffffffffffffffffffffffffffffffffff1673ffffffffffffffffffffffffffffffffffffffff16815260200190815260200160002060000160009054906101000a900460ff1661333257600b60006001815260200190815260200160002060009054906101000a900473ffffffffffffffffffffffffffffffffffffffff1695506133ab565b600b6000600a60008573ffffffffffffffffffffffffffffffffffffffff1673ffffffffffffffffffffffffffffffffffffffff16815260200190815260200160002060020154815260200190815260200160002060009054906101000a900473ffffffffffffffffffffffffffffffffffffffff1695505b5050506133df565b8094508095506133c9565b8495505050506133df565b50505080806133d7906149d8565b915050612d49565b506001600a60008973ffffffffffffffffffffffffffffffffffffffff1673ffffffffffffffffffffffffffffffffffffffff1681526020019081526020016000206005016000888152602001908152602001600020546134409190614789565b600a60008973ffffffffffffffffffffffffffffffffffffffff1673ffffffffffffffffffffffffffffffffffffffff1681526020019081526020016000206005016000888152602001908152602001600020819055508187935093505050935093915050565b6000806000905060006134b986610683565b9050600085905060008590506000600b6000600a60008673ffffffffffffffffffffffffffffffffffffffff1673ffffffffffffffffffffffffffffffffffffffff16815260200190815260200160002060020154815260200190815260200160002060009054906101000a900473ffffffffffffffffffffffffffffffffffffffff16905060005b600c811215613678576000805b86518110156135df5786818151811061356b5761356a6147df565b5b602002602001015173ffffffffffffffffffffffffffffffffffffffff168473ffffffffffffffffffffffffffffffffffffffff1614156135cc578681815181106135b9576135b86147df565b5b60200260200101519550600191506135df565b80806135d790614740565b91505061354f565b5080156135ec5750613678565b600b6000600a60008673ffffffffffffffffffffffffffffffffffffffff1673ffffffffffffffffffffffffffffffffffffffff16815260200190815260200160002060020154815260200190815260200160002060009054906101000a900473ffffffffffffffffffffffffffffffffffffffff169250508080613670906149d8565b915050613542565b506000600b6000600a60008673ffffffffffffffffffffffffffffffffffffffff1673ffffffffffffffffffffffffffffffffffffffff16815260200190815260200160002060020154815260200190815260200160002060009054906101000a900473ffffffffffffffffffffffffffffffffffffffff16905060005b600c81121561382c576000805b87518110156137935787818151811061371f5761371e6147df565b5b602002602001015173ffffffffffffffffffffffffffffffffffffffff168473ffffffffffffffffffffffffffffffffffffffff1614156137805787818151811061376d5761376c6147df565b5b6020026020010151955060019150613793565b808061378b90614740565b915050613703565b5080156137a0575061382c565b600b6000600a60008673ffffffffffffffffffffffffffffffffffffffff1673ffffffffffffffffffffffffffffffffffffffff16815260200190815260200160002060020154815260200190815260200160002060009054906101000a900473ffffffffffffffffffffffffffffffffffffffff169250508080613824906149d8565b9150506136f6565b508273ffffffffffffffffffffffffffffffffffffffff168473ffffffffffffffffffffffffffffffffffffffff16141561386657600195505b8596505050505050509392505050565b600080600080869050600081905060005b6009811215613e19576001600a60008b73ffffffffffffffffffffffffffffffffffffffff1673ffffffffffffffffffffffffffffffffffffffff1681526020019081526020016000206002015414806139405750600b60006001815260200190815260200160002060009054906101000a900473ffffffffffffffffffffffffffffffffffffffff1673ffffffffffffffffffffffffffffffffffffffff168473ffffffffffffffffffffffffffffffffffffffff16145b1561394a57613e19565b60005b88811015613a4d57600b60006001815260200190815260200160002060009054906101000a900473ffffffffffffffffffffffffffffffffffffffff1673ffffffffffffffffffffffffffffffffffffffff168473ffffffffffffffffffffffffffffffffffffffff1614156139c257613a4d565b600b6000600a60008673ffffffffffffffffffffffffffffffffffffffff1673ffffffffffffffffffffffffffffffffffffffff16815260200190815260200160002060020154815260200190815260200160002060009054906101000a900473ffffffffffffffffffffffffffffffffffffffff1692508080613a4590614740565b91505061394d565b50600b60006001815260200190815260200160002060009054906101000a900473ffffffffffffffffffffffffffffffffffffffff1673ffffffffffffffffffffffffffffffffffffffff168273ffffffffffffffffffffffffffffffffffffffff161415613abe57819350613e19565b60006001600a60008573ffffffffffffffffffffffffffffffffffffffff1673ffffffffffffffffffffffffffffffffffffffff16815260200190815260200160002060060180549050613b129190614940565b9050600a60008473ffffffffffffffffffffffffffffffffffffffff1673ffffffffffffffffffffffffffffffffffffffff1681526020019081526020016000206006018181548110613b6857613b676147df565b5b9060005260206000200154975088881015613dfc57600a60008473ffffffffffffffffffffffffffffffffffffffff1673ffffffffffffffffffffffffffffffffffffffff16815260200190815260200160002060000160009054906101000a900460ff161580613c1b57506000600a60008573ffffffffffffffffffffffffffffffffffffffff1673ffffffffffffffffffffffffffffffffffffffff16815260200190815260200160002060020154145b80613c6857506001600a60008573ffffffffffffffffffffffffffffffffffffffff1673ffffffffffffffffffffffffffffffffffffffff16815260200190815260200160002060020154145b15613df157600a6000600b6000600a60008873ffffffffffffffffffffffffffffffffffffffff1673ffffffffffffffffffffffffffffffffffffffff16815260200190815260200160002060020154815260200190815260200160002060009054906101000a900473ffffffffffffffffffffffffffffffffffffffff1673ffffffffffffffffffffffffffffffffffffffff1673ffffffffffffffffffffffffffffffffffffffff16815260200190815260200160002060000160009054906101000a900460ff16613d7257600b60006001815260200190815260200160002060009054906101000a900473ffffffffffffffffffffffffffffffffffffffff169450613deb565b600b6000600a60008673ffffffffffffffffffffffffffffffffffffffff1673ffffffffffffffffffffffffffffffffffffffff16815260200190815260200160002060020154815260200190815260200160002060009054906101000a900473ffffffffffffffffffffffffffffffffffffffff1694505b50613e19565b829350829450613e05565b82945050613e19565b508080613e11906149d8565b915050613887565b506001600a60008a73ffffffffffffffffffffffffffffffffffffffff1673ffffffffffffffffffffffffffffffffffffffff168152602001908152602001600020600501600089815260200190815260200160002054613e7a9190614789565b600a60008a73ffffffffffffffffffffffffffffffffffffffff1673ffffffffffffffffffffffffffffffffffffffff168152602001908152602001600020600501600089815260200190815260200160002081905550828894509450505050935093915050565b828054828255906000526020600020908101928215613f5b579160200282015b82811115613f5a5782518260006101000a81548173ffffffffffffffffffffffffffffffffffffffff021916908373ffffffffffffffffffffffffffffffffffffffff16021790555091602001919060010190613f02565b5b509050613f689190613fb9565b5090565b828054828255906000526020600020908101928215613fa8579160200282015b82811115613fa7578251825591602001919060010190613f8c565b5b509050613fb59190613fb9565b5090565b5b80821115613fd2576000816000905550600101613fba565b5090565b600080fd5b6000819050919050565b613fee81613fdb565b8114613ff957600080fd5b50565b60008135905061400b81613fe5565b92915050565b60006020828403121561402757614026613fd6565b5b600061403584828501613ffc565b91505092915050565b600073ffffffffffffffffffffffffffffffffffffffff82169050919050565b60006140698261403e565b9050919050565b6140798161405e565b82525050565b60006020820190506140946000830184614070565b92915050565b6140a38161405e565b81146140ae57600080fd5b50565b6000813590506140c08161409a565b92915050565b600080604083850312156140dd576140dc613fd6565b5b60006140eb85828601613ffc565b92505060206140fc858286016140b1565b9150509250929050565b60008115159050919050565b61411b81614106565b82525050565b60006020820190506141366000830184614112565b92915050565b60006020828403121561415257614151613fd6565b5b6000614160848285016140b1565b91505092915050565b600081519050919050565b600082825260208201905092915050565b6000819050602082019050919050565b61419e8161405e565b82525050565b60006141b08383614195565b60208301905092915050565b6000602082019050919050565b60006141d482614169565b6141de8185614174565b93506141e983614185565b8060005b8381101561421a57815161420188826141a4565b975061420c836141bc565b9250506001810190506141ed565b5085935050505092915050565b6000602082019050818103600083015261424181846141c9565b905092915050565b600060ff82169050919050565b61425f81614249565b82525050565b600060208201905061427a6000830184614256565b92915050565b600081519050919050565b600082825260208201905092915050565b6000819050602082019050919050565b6142b581613fdb565b82525050565b60006142c783836142ac565b60208301905092915050565b6000602082019050919050565b60006142eb82614280565b6142f5818561428b565b93506143008361429c565b8060005b8381101561433157815161431888826142bb565b9750614323836142d3565b925050600181019050614304565b5085935050505092915050565b6000602082019050818103600083015261435881846142e0565b905092915050565b61436981613fdb565b82525050565b60006020820190506143846000830184614360565b92915050565b600060808201905061439f6000830187614112565b6143ac6020830186614360565b6143b96040830185614360565b6143c66060830184614360565b95945050505050565b600080604083850312156143e6576143e5613fd6565b5b60006143f4858286016140b1565b925050602061440585828601613ffc565b9150509250929050565b600082825260208201905092915050565b7f496e76616c69642063616c6c6572000000000000000000000000000000000000600082015250565b6000614456600e8361440f565b915061446182614420565b602082019050919050565b6000602082019050818103600083015261448581614449565b9050919050565b600081905092915050565b50565b60006144a760008361448c565b91506144b282614497565b600082019050919050565b60006144c88261449a565b9150819050919050565b7f5472616e73616374696f6e206661696c65642100000000000000000000000000600082015250565b600061450860138361440f565b9150614513826144d2565b602082019050919050565b60006020820190508181036000830152614537816144fb565b9050919050565b7f4e487b7100000000000000000000000000000000000000000000000000000000600052601260045260246000fd5b7f4e487b7100000000000000000000000000000000000000000000000000000000600052601160045260246000fd5b60006145a782613fdb565b91506145b283613fdb565b9250826145c2576145c161453e565b5b828204905092915050565b7f5573657220657869737400000000000000000000000000000000000000000000600082015250565b6000614603600a8361440f565b915061460e826145cd565b602082019050919050565b60006020820190508181036000830152614632816145f6565b9050919050565b7f496e636f72726563742072656665727265722049640000000000000000000000600082015250565b600061466f60158361440f565b915061467a82614639565b602082019050919050565b6000602082019050818103600083015261469e81614662565b9050919050565b7f496e636f72726563742056616c75650000000000000000000000000000000000600082015250565b60006146db600f8361440f565b91506146e6826146a5565b602082019050919050565b6000602082019050818103600083015261470a816146ce565b9050919050565b7f4e487b7100000000000000000000000000000000000000000000000000000000600052604160045260246000fd5b600061474b82613fdb565b91507fffffffffffffffffffffffffffffffffffffffffffffffffffffffffffffffff82141561477e5761477d61456d565b5b600182019050919050565b600061479482613fdb565b915061479f83613fdb565b9250827fffffffffffffffffffffffffffffffffffffffffffffffffffffffffffffffff038211156147d4576147d361456d565b5b828201905092915050565b7f4e487b7100000000000000000000000000000000000000000000000000000000600052603260045260246000fd5b600061481982613fdb565b915061482483613fdb565b9250817fffffffffffffffffffffffffffffffffffffffffffffffffffffffffffffffff048311821515161561485d5761485c61456d565b5b828202905092915050565b7f43616c6c6572206973206e6f742041646d696e2e000000000000000000000000600082015250565b600061489e60148361440f565b91506148a982614868565b602082019050919050565b600060208201905081810360008301526148cd81614891565b9050919050565b7f496e76616c696420496e64657800000000000000000000000000000000000000600082015250565b600061490a600d8361440f565b9150614915826148d4565b602082019050919050565b60006020820190508181036000830152614939816148fd565b9050919050565b600061494b82613fdb565b915061495683613fdb565b9250828210156149695761496861456d565b5b828203905092915050565b600061497f82613fdb565b915061498a83613fdb565b92508261499a5761499961453e565b5b828206905092915050565b60006040820190506149ba6000830185614360565b6149c76020830184614360565b9392505050565b6000819050919050565b60006149e3826149ce565b91507f7fffffffffffffffffffffffffffffffffffffffffffffffffffffffffffffff821415614a1657614a1561456d565b5b60018201905091905056fea26469706673582212204eb04ce287ad262fc43fc38d5d7b2fab43a887bc1c0ccce8c4d61fedb2c8613f64736f6c634300080b0033",
					"opcodes": "PUSH1 0x80 PUSH1 0x40 MSTORE PUSH1 0x40 MLOAD DUP1 PUSH1 0x80 ADD PUSH1 0x40 MSTORE DUP1 PUSH1 0x2 PUSH1 0xFF AND DUP2 MSTORE PUSH1 0x20 ADD PUSH1 0x1 PUSH1 0xFF AND DUP2 MSTORE PUSH1 0x20 ADD PUSH1 0x1 PUSH1 0xFF AND DUP2 MSTORE PUSH1 0x20 ADD PUSH1 0x1 PUSH1 0xFF AND DUP2 MSTORE POP PUSH1 0x8 SWAP1 PUSH1 0x4 PUSH3 0x47 SWAP3 SWAP2 SWAP1 PUSH3 0x703 JUMP JUMPDEST POP PUSH1 0x0 PUSH1 0xF SSTORE PUSH1 0x0 PUSH1 0x10 SSTORE PUSH1 0x0 PUSH1 0x11 SSTORE PUSH1 0x0 PUSH1 0x12 SSTORE PUSH9 0x2B5E3AF16B1880000 PUSH1 0x13 SSTORE PUSH1 0x64 PUSH1 0xA PUSH1 0x13 SLOAD PUSH3 0x7C SWAP2 SWAP1 PUSH3 0x95F JUMP JUMPDEST PUSH3 0x88 SWAP2 SWAP1 PUSH3 0x9EF JUMP JUMPDEST PUSH1 0x14 SSTORE PUSH1 0x64 PUSH1 0x9 PUSH1 0x13 SLOAD PUSH3 0x9E SWAP2 SWAP1 PUSH3 0x95F JUMP JUMPDEST PUSH3 0xAA SWAP2 SWAP1 PUSH3 0x9EF JUMP JUMPDEST PUSH1 0x15 SSTORE PUSH1 0x64 PUSH1 0x1 PUSH1 0x13 SLOAD PUSH3 0xC0 SWAP2 SWAP1 PUSH3 0x95F JUMP JUMPDEST PUSH3 0xCC SWAP2 SWAP1 PUSH3 0x9EF JUMP JUMPDEST PUSH1 0x16 SSTORE CALLVALUE DUP1 ISZERO PUSH3 0xDC JUMPI PUSH1 0x0 DUP1 REVERT JUMPDEST POP PUSH1 0x40 MLOAD PUSH3 0x5628 CODESIZE SUB DUP1 PUSH3 0x5628 DUP4 CODECOPY DUP2 DUP2 ADD PUSH1 0x40 MSTORE DUP2 ADD SWAP1 PUSH3 0x102 SWAP2 SWAP1 PUSH3 0xA91 JUMP JUMPDEST CALLER PUSH1 0x0 DUP1 PUSH2 0x100 EXP DUP2 SLOAD DUP2 PUSH20 0xFFFFFFFFFFFFFFFFFFFFFFFFFFFFFFFFFFFFFFFF MUL NOT AND SWAP1 DUP4 PUSH20 0xFFFFFFFFFFFFFFFFFFFFFFFFFFFFFFFFFFFFFFFF AND MUL OR SWAP1 SSTORE POP DUP1 PUSH1 0x1 PUSH1 0x0 PUSH2 0x100 EXP DUP2 SLOAD DUP2 PUSH20 0xFFFFFFFFFFFFFFFFFFFFFFFFFFFFFFFFFFFFFFFF MUL NOT AND SWAP1 DUP4 PUSH20 0xFFFFFFFFFFFFFFFFFFFFFFFFFFFFFFFFFFFFFFFF AND MUL OR SWAP1 SSTORE POP DUP3 PUSH1 0x2 PUSH1 0x0 PUSH2 0x100 EXP DUP2 SLOAD DUP2 PUSH20 0xFFFFFFFFFFFFFFFFFFFFFFFFFFFFFFFFFFFFFFFF MUL NOT AND SWAP1 DUP4 PUSH20 0xFFFFFFFFFFFFFFFFFFFFFFFFFFFFFFFFFFFFFFFF AND MUL OR SWAP1 SSTORE POP DUP2 PUSH1 0x3 PUSH1 0x0 PUSH2 0x100 EXP DUP2 SLOAD DUP2 PUSH20 0xFFFFFFFFFFFFFFFFFFFFFFFFFFFFFFFFFFFFFFFF MUL NOT AND SWAP1 DUP4 PUSH20 0xFFFFFFFFFFFFFFFFFFFFFFFFFFFFFFFFFFFFFFFF AND MUL OR SWAP1 SSTORE POP PUSH1 0x40 MLOAD DUP1 PUSH1 0x80 ADD PUSH1 0x40 MSTORE DUP1 DUP9 PUSH20 0xFFFFFFFFFFFFFFFFFFFFFFFFFFFFFFFFFFFFFFFF AND PUSH20 0xFFFFFFFFFFFFFFFFFFFFFFFFFFFFFFFFFFFFFFFF AND DUP2 MSTORE PUSH1 0x20 ADD DUP8 PUSH20 0xFFFFFFFFFFFFFFFFFFFFFFFFFFFFFFFFFFFFFFFF AND PUSH20 0xFFFFFFFFFFFFFFFFFFFFFFFFFFFFFFFFFFFFFFFF AND DUP2 MSTORE PUSH1 0x20 ADD DUP7 PUSH20 0xFFFFFFFFFFFFFFFFFFFFFFFFFFFFFFFFFFFFFFFF AND PUSH20 0xFFFFFFFFFFFFFFFFFFFFFFFFFFFFFFFFFFFFFFFF AND DUP2 MSTORE PUSH1 0x20 ADD DUP6 PUSH20 0xFFFFFFFFFFFFFFFFFFFFFFFFFFFFFFFFFFFFFFFF AND PUSH20 0xFFFFFFFFFFFFFFFFFFFFFFFFFFFFFFFFFFFFFFFF AND DUP2 MSTORE POP PUSH1 0x4 SWAP1 PUSH1 0x4 PUSH3 0x2E8 SWAP3 SWAP2 SWAP1 PUSH3 0x7A4 JUMP JUMPDEST POP PUSH1 0x64 PUSH1 0x50 PUSH1 0x13 SLOAD PUSH3 0x2FC SWAP2 SWAP1 PUSH3 0x95F JUMP JUMPDEST PUSH3 0x308 SWAP2 SWAP1 PUSH3 0x9EF JUMP JUMPDEST PUSH1 0x9 PUSH1 0x0 PUSH1 0x1 DUP2 MSTORE PUSH1 0x20 ADD SWAP1 DUP2 MSTORE PUSH1 0x20 ADD PUSH1 0x0 KECCAK256 DUP2 SWAP1 SSTORE POP PUSH1 0x2 PUSH1 0x9 PUSH1 0x0 PUSH1 0x1 DUP2 MSTORE PUSH1 0x20 ADD SWAP1 DUP2 MSTORE PUSH1 0x20 ADD PUSH1 0x0 KECCAK256 SLOAD PUSH3 0x343 SWAP2 SWAP1 PUSH3 0x95F JUMP JUMPDEST PUSH1 0x9 PUSH1 0x0 PUSH1 0x2 DUP2 MSTORE PUSH1 0x20 ADD SWAP1 DUP2 MSTORE PUSH1 0x20 ADD PUSH1 0x0 KECCAK256 DUP2 SWAP1 SSTORE POP PUSH1 0x2 PUSH1 0x9 PUSH1 0x0 PUSH1 0x2 DUP2 MSTORE PUSH1 0x20 ADD SWAP1 DUP2 MSTORE PUSH1 0x20 ADD PUSH1 0x0 KECCAK256 SLOAD PUSH3 0x37E SWAP2 SWAP1 PUSH3 0x95F JUMP JUMPDEST PUSH1 0x9 PUSH1 0x0 PUSH1 0x3 DUP2 MSTORE PUSH1 0x20 ADD SWAP1 DUP2 MSTORE PUSH1 0x20 ADD PUSH1 0x0 KECCAK256 DUP2 SWAP1 SSTORE POP PUSH1 0x2 PUSH1 0x9 PUSH1 0x0 PUSH1 0x3 DUP2 MSTORE PUSH1 0x20 ADD SWAP1 DUP2 MSTORE PUSH1 0x20 ADD PUSH1 0x0 KECCAK256 SLOAD PUSH3 0x3B9 SWAP2 SWAP1 PUSH3 0x95F JUMP JUMPDEST PUSH1 0x9 PUSH1 0x0 PUSH1 0x4 DUP2 MSTORE PUSH1 0x20 ADD SWAP1 DUP2 MSTORE PUSH1 0x20 ADD PUSH1 0x0 KECCAK256 DUP2 SWAP1 SSTORE POP PUSH1 0x2 PUSH1 0x9 PUSH1 0x0 PUSH1 0x4 DUP2 MSTORE PUSH1 0x20 ADD SWAP1 DUP2 MSTORE PUSH1 0x20 ADD PUSH1 0x0 KECCAK256 SLOAD PUSH3 0x3F4 SWAP2 SWAP1 PUSH3 0x95F JUMP JUMPDEST PUSH1 0x9 PUSH1 0x0 PUSH1 0x5 DUP2 MSTORE PUSH1 0x20 ADD SWAP1 DUP2 MSTORE PUSH1 0x20 ADD PUSH1 0x0 KECCAK256 DUP2 SWAP1 SSTORE POP PUSH1 0x2 PUSH1 0x9 PUSH1 0x0 PUSH1 0x5 DUP2 MSTORE PUSH1 0x20 ADD SWAP1 DUP2 MSTORE PUSH1 0x20 ADD PUSH1 0x0 KECCAK256 SLOAD PUSH3 0x42F SWAP2 SWAP1 PUSH3 0x95F JUMP JUMPDEST PUSH1 0x9 PUSH1 0x0 PUSH1 0x6 DUP2 MSTORE PUSH1 0x20 ADD SWAP1 DUP2 MSTORE PUSH1 0x20 ADD PUSH1 0x0 KECCAK256 DUP2 SWAP1 SSTORE POP PUSH1 0x2 PUSH1 0x9 PUSH1 0x0 PUSH1 0x6 DUP2 MSTORE PUSH1 0x20 ADD SWAP1 DUP2 MSTORE PUSH1 0x20 ADD PUSH1 0x0 KECCAK256 SLOAD PUSH3 0x46A SWAP2 SWAP1 PUSH3 0x95F JUMP JUMPDEST PUSH1 0x9 PUSH1 0x0 PUSH1 0x7 DUP2 MSTORE PUSH1 0x20 ADD SWAP1 DUP2 MSTORE PUSH1 0x20 ADD PUSH1 0x0 KECCAK256 DUP2 SWAP1 SSTORE POP PUSH1 0x2 PUSH1 0x9 PUSH1 0x0 PUSH1 0x7 DUP2 MSTORE PUSH1 0x20 ADD SWAP1 DUP2 MSTORE PUSH1 0x20 ADD PUSH1 0x0 KECCAK256 SLOAD PUSH3 0x4A5 SWAP2 SWAP1 PUSH3 0x95F JUMP JUMPDEST PUSH1 0x9 PUSH1 0x0 PUSH1 0x8 DUP2 MSTORE PUSH1 0x20 ADD SWAP1 DUP2 MSTORE PUSH1 0x20 ADD PUSH1 0x0 KECCAK256 DUP2 SWAP1 SSTORE POP PUSH1 0x2 PUSH1 0x9 PUSH1 0x0 PUSH1 0x8 DUP2 MSTORE PUSH1 0x20 ADD SWAP1 DUP2 MSTORE PUSH1 0x20 ADD PUSH1 0x0 KECCAK256 SLOAD PUSH3 0x4E0 SWAP2 SWAP1 PUSH3 0x95F JUMP JUMPDEST PUSH1 0x9 PUSH1 0x0 PUSH1 0x9 DUP2 MSTORE PUSH1 0x20 ADD SWAP1 DUP2 MSTORE PUSH1 0x20 ADD PUSH1 0x0 KECCAK256 DUP2 SWAP1 SSTORE POP PUSH1 0x0 PUSH1 0xA PUSH1 0x0 DUP1 PUSH1 0x0 SWAP1 SLOAD SWAP1 PUSH2 0x100 EXP SWAP1 DIV PUSH20 0xFFFFFFFFFFFFFFFFFFFFFFFFFFFFFFFFFFFFFFFF AND PUSH20 0xFFFFFFFFFFFFFFFFFFFFFFFFFFFFFFFFFFFFFFFF AND PUSH20 0xFFFFFFFFFFFFFFFFFFFFFFFFFFFFFFFFFFFFFFFF AND DUP2 MSTORE PUSH1 0x20 ADD SWAP1 DUP2 MSTORE PUSH1 0x20 ADD PUSH1 0x0 KECCAK256 SWAP1 POP PUSH1 0x1 DUP2 PUSH1 0x0 ADD PUSH1 0x0 PUSH2 0x100 EXP DUP2 SLOAD DUP2 PUSH1 0xFF MUL NOT AND SWAP1 DUP4 ISZERO ISZERO MUL OR SWAP1 SSTORE POP PUSH1 0xF SLOAD DUP2 PUSH1 0x1 ADD DUP2 SWAP1 SSTORE POP PUSH1 0x0 DUP2 PUSH1 0x2 ADD DUP2 SWAP1 SSTORE POP PUSH1 0x0 PUSH8 0xFFFFFFFFFFFFFFFF DUP2 GT ISZERO PUSH3 0x5AC JUMPI PUSH3 0x5AB PUSH3 0xB44 JUMP JUMPDEST JUMPDEST PUSH1 0x40 MLOAD SWAP1 DUP1 DUP3 MSTORE DUP1 PUSH1 0x20 MUL PUSH1 0x20 ADD DUP3 ADD PUSH1 0x40 MSTORE DUP1 ISZERO PUSH3 0x5DB JUMPI DUP2 PUSH1 0x20 ADD PUSH1 0x20 DUP3 MUL DUP1 CALLDATASIZE DUP4 CALLDATACOPY DUP1 DUP3 ADD SWAP2 POP POP SWAP1 POP JUMPDEST POP DUP2 PUSH1 0x3 ADD SWAP1 DUP1 MLOAD SWAP1 PUSH1 0x20 ADD SWAP1 PUSH3 0x5F5 SWAP3 SWAP2 SWAP1 PUSH3 0x826 JUMP JUMPDEST POP TIMESTAMP DUP2 PUSH1 0x4 ADD DUP2 SWAP1 SSTORE POP PUSH1 0x0 PUSH8 0xFFFFFFFFFFFFFFFF DUP2 GT ISZERO PUSH3 0x61D JUMPI PUSH3 0x61C PUSH3 0xB44 JUMP JUMPDEST JUMPDEST PUSH1 0x40 MLOAD SWAP1 DUP1 DUP3 MSTORE DUP1 PUSH1 0x20 MUL PUSH1 0x20 ADD DUP3 ADD PUSH1 0x40 MSTORE DUP1 ISZERO PUSH3 0x64C JUMPI DUP2 PUSH1 0x20 ADD PUSH1 0x20 DUP3 MUL DUP1 CALLDATASIZE DUP4 CALLDATACOPY DUP1 DUP3 ADD SWAP2 POP POP SWAP1 POP JUMPDEST POP DUP2 PUSH1 0x6 ADD SWAP1 DUP1 MLOAD SWAP1 PUSH1 0x20 ADD SWAP1 PUSH3 0x666 SWAP3 SWAP2 SWAP1 PUSH3 0x8B5 JUMP JUMPDEST POP PUSH1 0xF PUSH1 0x0 DUP2 SLOAD DUP1 SWAP3 SWAP2 SWAP1 PUSH3 0x67C SWAP1 PUSH3 0xB73 JUMP JUMPDEST SWAP2 SWAP1 POP SSTORE POP PUSH1 0x0 DUP1 SLOAD SWAP1 PUSH2 0x100 EXP SWAP1 DIV PUSH20 0xFFFFFFFFFFFFFFFFFFFFFFFFFFFFFFFFFFFFFFFF AND PUSH1 0xB PUSH1 0x0 PUSH1 0xF SLOAD DUP2 MSTORE PUSH1 0x20 ADD SWAP1 DUP2 MSTORE PUSH1 0x20 ADD PUSH1 0x0 KECCAK256 PUSH1 0x0 PUSH2 0x100 EXP DUP2 SLOAD DUP2 PUSH20 0xFFFFFFFFFFFFFFFFFFFFFFFFFFFFFFFFFFFFFFFF MUL NOT AND SWAP1 DUP4 PUSH20 0xFFFFFFFFFFFFFFFFFFFFFFFFFFFFFFFFFFFFFFFF AND MUL OR SWAP1 SSTORE POP POP POP POP POP POP POP POP POP PUSH3 0xBC1 JUMP JUMPDEST DUP3 PUSH1 0x4 PUSH1 0x1F ADD PUSH1 0x20 SWAP1 DIV DUP2 ADD SWAP3 DUP3 ISZERO PUSH3 0x791 JUMPI SWAP2 PUSH1 0x20 MUL DUP3 ADD PUSH1 0x0 JUMPDEST DUP4 DUP3 GT ISZERO PUSH3 0x760 JUMPI DUP4 MLOAD DUP4 DUP3 PUSH2 0x100 EXP DUP2 SLOAD DUP2 PUSH1 0xFF MUL NOT AND SWAP1 DUP4 PUSH1 0xFF AND MUL OR SWAP1 SSTORE POP SWAP3 PUSH1 0x20 ADD SWAP3 PUSH1 0x1 ADD PUSH1 0x20 DUP2 PUSH1 0x0 ADD DIV SWAP3 DUP4 ADD SWAP3 PUSH1 0x1 SUB MUL PUSH3 0x720 JUMP JUMPDEST DUP1 ISZERO PUSH3 0x78F JUMPI DUP3 DUP2 PUSH2 0x100 EXP DUP2 SLOAD SWAP1 PUSH1 0xFF MUL NOT AND SWAP1 SSTORE PUSH1 0x1 ADD PUSH1 0x20 DUP2 PUSH1 0x0 ADD DIV SWAP3 DUP4 ADD SWAP3 PUSH1 0x1 SUB MUL PUSH3 0x760 JUMP JUMPDEST POP JUMPDEST POP SWAP1 POP PUSH3 0x7A0 SWAP2 SWAP1 PUSH3 0x907 JUMP JUMPDEST POP SWAP1 JUMP JUMPDEST DUP3 PUSH1 0x4 DUP2 ADD SWAP3 DUP3 ISZERO PUSH3 0x813 JUMPI SWAP2 PUSH1 0x20 MUL DUP3 ADD JUMPDEST DUP3 DUP2 GT ISZERO PUSH3 0x812 JUMPI DUP3 MLOAD DUP3 PUSH1 0x0 PUSH2 0x100 EXP DUP2 SLOAD DUP2 PUSH20 0xFFFFFFFFFFFFFFFFFFFFFFFFFFFFFFFFFFFFFFFF MUL NOT AND SWAP1 DUP4 PUSH20 0xFFFFFFFFFFFFFFFFFFFFFFFFFFFFFFFFFFFFFFFF AND MUL OR SWAP1 SSTORE POP SWAP2 PUSH1 0x20 ADD SWAP2 SWAP1 PUSH1 0x1 ADD SWAP1 PUSH3 0x7B8 JUMP JUMPDEST JUMPDEST POP SWAP1 POP PUSH3 0x822 SWAP2 SWAP1 PUSH3 0x907 JUMP JUMPDEST POP SWAP1 JUMP JUMPDEST DUP3 DUP1 SLOAD DUP3 DUP3 SSTORE SWAP1 PUSH1 0x0 MSTORE PUSH1 0x20 PUSH1 0x0 KECCAK256 SWAP1 DUP2 ADD SWAP3 DUP3 ISZERO PUSH3 0x8A2 JUMPI SWAP2 PUSH1 0x20 MUL DUP3 ADD JUMPDEST DUP3 DUP2 GT ISZERO PUSH3 0x8A1 JUMPI DUP3 MLOAD DUP3 PUSH1 0x0 PUSH2 0x100 EXP DUP2 SLOAD DUP2 PUSH20 0xFFFFFFFFFFFFFFFFFFFFFFFFFFFFFFFFFFFFFFFF MUL NOT AND SWAP1 DUP4 PUSH20 0xFFFFFFFFFFFFFFFFFFFFFFFFFFFFFFFFFFFFFFFF AND MUL OR SWAP1 SSTORE POP SWAP2 PUSH1 0x20 ADD SWAP2 SWAP1 PUSH1 0x1 ADD SWAP1 PUSH3 0x847 JUMP JUMPDEST JUMPDEST POP SWAP1 POP PUSH3 0x8B1 SWAP2 SWAP1 PUSH3 0x907 JUMP JUMPDEST POP SWAP1 JUMP JUMPDEST DUP3 DUP1 SLOAD DUP3 DUP3 SSTORE SWAP1 PUSH1 0x0 MSTORE PUSH1 0x20 PUSH1 0x0 KECCAK256 SWAP1 DUP2 ADD SWAP3 DUP3 ISZERO PUSH3 0x8F4 JUMPI SWAP2 PUSH1 0x20 MUL DUP3 ADD JUMPDEST DUP3 DUP2 GT ISZERO PUSH3 0x8F3 JUMPI DUP3 MLOAD DUP3 SSTORE SWAP2 PUSH1 0x20 ADD SWAP2 SWAP1 PUSH1 0x1 ADD SWAP1 PUSH3 0x8D6 JUMP JUMPDEST JUMPDEST POP SWAP1 POP PUSH3 0x903 SWAP2 SWAP1 PUSH3 0x907 JUMP JUMPDEST POP SWAP1 JUMP JUMPDEST JUMPDEST DUP1 DUP3 GT ISZERO PUSH3 0x922 JUMPI PUSH1 0x0 DUP2 PUSH1 0x0 SWAP1 SSTORE POP PUSH1 0x1 ADD PUSH3 0x908 JUMP JUMPDEST POP SWAP1 JUMP JUMPDEST PUSH1 0x0 DUP2 SWAP1 POP SWAP2 SWAP1 POP JUMP JUMPDEST PUSH32 0x4E487B7100000000000000000000000000000000000000000000000000000000 PUSH1 0x0 MSTORE PUSH1 0x11 PUSH1 0x4 MSTORE PUSH1 0x24 PUSH1 0x0 REVERT JUMPDEST PUSH1 0x0 PUSH3 0x96C DUP3 PUSH3 0x926 JUMP JUMPDEST SWAP2 POP PUSH3 0x979 DUP4 PUSH3 0x926 JUMP JUMPDEST SWAP3 POP DUP2 PUSH32 0xFFFFFFFFFFFFFFFFFFFFFFFFFFFFFFFFFFFFFFFFFFFFFFFFFFFFFFFFFFFFFFFF DIV DUP4 GT DUP3 ISZERO ISZERO AND ISZERO PUSH3 0x9B5 JUMPI PUSH3 0x9B4 PUSH3 0x930 JUMP JUMPDEST JUMPDEST DUP3 DUP3 MUL SWAP1 POP SWAP3 SWAP2 POP POP JUMP JUMPDEST PUSH32 0x4E487B7100000000000000000000000000000000000000000000000000000000 PUSH1 0x0 MSTORE PUSH1 0x12 PUSH1 0x4 MSTORE PUSH1 0x24 PUSH1 0x0 REVERT JUMPDEST PUSH1 0x0 PUSH3 0x9FC DUP3 PUSH3 0x926 JUMP JUMPDEST SWAP2 POP PUSH3 0xA09 DUP4 PUSH3 0x926 JUMP JUMPDEST SWAP3 POP DUP3 PUSH3 0xA1C JUMPI PUSH3 0xA1B PUSH3 0x9C0 JUMP JUMPDEST JUMPDEST DUP3 DUP3 DIV SWAP1 POP SWAP3 SWAP2 POP POP JUMP JUMPDEST PUSH1 0x0 DUP1 REVERT JUMPDEST PUSH1 0x0 PUSH20 0xFFFFFFFFFFFFFFFFFFFFFFFFFFFFFFFFFFFFFFFF DUP3 AND SWAP1 POP SWAP2 SWAP1 POP JUMP JUMPDEST PUSH1 0x0 PUSH3 0xA59 DUP3 PUSH3 0xA2C JUMP JUMPDEST SWAP1 POP SWAP2 SWAP1 POP JUMP JUMPDEST PUSH3 0xA6B DUP2 PUSH3 0xA4C JUMP JUMPDEST DUP2 EQ PUSH3 0xA77 JUMPI PUSH1 0x0 DUP1 REVERT JUMPDEST POP JUMP JUMPDEST PUSH1 0x0 DUP2 MLOAD SWAP1 POP PUSH3 0xA8B DUP2 PUSH3 0xA60 JUMP JUMPDEST SWAP3 SWAP2 POP POP JUMP JUMPDEST PUSH1 0x0 DUP1 PUSH1 0x0 DUP1 PUSH1 0x0 DUP1 PUSH1 0x0 PUSH1 0xE0 DUP9 DUP11 SUB SLT ISZERO PUSH3 0xAB3 JUMPI PUSH3 0xAB2 PUSH3 0xA27 JUMP JUMPDEST JUMPDEST PUSH1 0x0 PUSH3 0xAC3 DUP11 DUP3 DUP12 ADD PUSH3 0xA7A JUMP JUMPDEST SWAP8 POP POP PUSH1 0x20 PUSH3 0xAD6 DUP11 DUP3 DUP12 ADD PUSH3 0xA7A JUMP JUMPDEST SWAP7 POP POP PUSH1 0x40 PUSH3 0xAE9 DUP11 DUP3 DUP12 ADD PUSH3 0xA7A JUMP JUMPDEST SWAP6 POP POP PUSH1 0x60 PUSH3 0xAFC DUP11 DUP3 DUP12 ADD PUSH3 0xA7A JUMP JUMPDEST SWAP5 POP POP PUSH1 0x80 PUSH3 0xB0F DUP11 DUP3 DUP12 ADD PUSH3 0xA7A JUMP JUMPDEST SWAP4 POP POP PUSH1 0xA0 PUSH3 0xB22 DUP11 DUP3 DUP12 ADD PUSH3 0xA7A JUMP JUMPDEST SWAP3 POP POP PUSH1 0xC0 PUSH3 0xB35 DUP11 DUP3 DUP12 ADD PUSH3 0xA7A JUMP JUMPDEST SWAP2 POP POP SWAP3 SWAP6 SWAP9 SWAP2 SWAP5 SWAP8 POP SWAP3 SWAP6 POP JUMP JUMPDEST PUSH32 0x4E487B7100000000000000000000000000000000000000000000000000000000 PUSH1 0x0 MSTORE PUSH1 0x41 PUSH1 0x4 MSTORE PUSH1 0x24 PUSH1 0x0 REVERT JUMPDEST PUSH1 0x0 PUSH3 0xB80 DUP3 PUSH3 0x926 JUMP JUMPDEST SWAP2 POP PUSH32 0xFFFFFFFFFFFFFFFFFFFFFFFFFFFFFFFFFFFFFFFFFFFFFFFFFFFFFFFFFFFFFFFF DUP3 EQ ISZERO PUSH3 0xBB6 JUMPI PUSH3 0xBB5 PUSH3 0x930 JUMP JUMPDEST JUMPDEST PUSH1 0x1 DUP3 ADD SWAP1 POP SWAP2 SWAP1 POP JUMP JUMPDEST PUSH2 0x4A57 DUP1 PUSH3 0xBD1 PUSH1 0x0 CODECOPY PUSH1 0x0 RETURN INVALID PUSH1 0x80 PUSH1 0x40 MSTORE PUSH1 0x4 CALLDATASIZE LT PUSH2 0x135 JUMPI PUSH1 0x0 CALLDATALOAD PUSH1 0xE0 SHR DUP1 PUSH4 0x992C85D2 GT PUSH2 0xAB JUMPI DUP1 PUSH4 0xA87430BA GT PUSH2 0x6F JUMPI DUP1 PUSH4 0xA87430BA EQ PUSH2 0x47F JUMPI DUP1 PUSH4 0xAA24C5C5 EQ PUSH2 0x4BF JUMPI DUP1 PUSH4 0xBBF57068 EQ PUSH2 0x4FC JUMPI DUP1 PUSH4 0xC15DEC85 EQ PUSH2 0x539 JUMPI DUP1 PUSH4 0xF7BBFCCD EQ PUSH2 0x564 JUMPI DUP1 PUSH4 0xFB75B2C7 EQ PUSH2 0x58D JUMPI PUSH2 0x135 JUMP JUMPDEST DUP1 PUSH4 0x992C85D2 EQ PUSH2 0x396 JUMPI DUP1 PUSH4 0x99CBD74F EQ PUSH2 0x3C1 JUMPI DUP1 PUSH4 0x9F4216E8 EQ PUSH2 0x3EC JUMPI DUP1 PUSH4 0xA457C050 EQ PUSH2 0x429 JUMPI DUP1 PUSH4 0xA4BB170D EQ PUSH2 0x454 JUMPI PUSH2 0x135 JUMP JUMPDEST DUP1 PUSH4 0x5E8A7069 GT PUSH2 0xFD JUMPI DUP1 PUSH4 0x5E8A7069 EQ PUSH2 0x259 JUMPI DUP1 PUSH4 0x6043DDAD EQ PUSH2 0x284 JUMPI DUP1 PUSH4 0x6158FA00 EQ PUSH2 0x2C1 JUMPI DUP1 PUSH4 0x6F9FB98A EQ PUSH2 0x2FE JUMPI DUP1 PUSH4 0x79378E30 EQ PUSH2 0x329 JUMPI DUP1 PUSH4 0x8853B53E EQ PUSH2 0x366 JUMPI PUSH2 0x135 JUMP JUMPDEST DUP1 PUSH4 0x10E4077A EQ PUSH2 0x13A JUMPI DUP1 PUSH4 0x36B19CD7 EQ PUSH2 0x177 JUMPI DUP1 PUSH4 0x43F6753C EQ PUSH2 0x1A2 JUMPI DUP1 PUSH4 0x4D948BEA EQ PUSH2 0x1DF JUMPI DUP1 PUSH4 0x575CEA6B EQ PUSH2 0x21C JUMPI JUMPDEST PUSH1 0x0 DUP1 REVERT JUMPDEST CALLVALUE DUP1 ISZERO PUSH2 0x146 JUMPI PUSH1 0x0 DUP1 REVERT JUMPDEST POP PUSH2 0x161 PUSH1 0x4 DUP1 CALLDATASIZE SUB DUP2 ADD SWAP1 PUSH2 0x15C SWAP2 SWAP1 PUSH2 0x4011 JUMP JUMPDEST PUSH2 0x5B8 JUMP JUMPDEST PUSH1 0x40 MLOAD PUSH2 0x16E SWAP2 SWAP1 PUSH2 0x407F JUMP JUMPDEST PUSH1 0x40 MLOAD DUP1 SWAP2 SUB SWAP1 RETURN JUMPDEST CALLVALUE DUP1 ISZERO PUSH2 0x183 JUMPI PUSH1 0x0 DUP1 REVERT JUMPDEST POP PUSH2 0x18C PUSH2 0x5EE JUMP JUMPDEST PUSH1 0x40 MLOAD PUSH2 0x199 SWAP2 SWAP1 PUSH2 0x407F JUMP JUMPDEST PUSH1 0x40 MLOAD DUP1 SWAP2 SUB SWAP1 RETURN JUMPDEST CALLVALUE DUP1 ISZERO PUSH2 0x1AE JUMPI PUSH1 0x0 DUP1 REVERT JUMPDEST POP PUSH2 0x1C9 PUSH1 0x4 DUP1 CALLDATASIZE SUB DUP2 ADD SWAP1 PUSH2 0x1C4 SWAP2 SWAP1 PUSH2 0x40C6 JUMP JUMPDEST PUSH2 0x612 JUMP JUMPDEST PUSH1 0x40 MLOAD PUSH2 0x1D6 SWAP2 SWAP1 PUSH2 0x407F JUMP JUMPDEST PUSH1 0x40 MLOAD DUP1 SWAP2 SUB SWAP1 RETURN JUMPDEST CALLVALUE DUP1 ISZERO PUSH2 0x1EB JUMPI PUSH1 0x0 DUP1 REVERT JUMPDEST POP PUSH2 0x206 PUSH1 0x4 DUP1 CALLDATASIZE SUB DUP2 ADD SWAP1 PUSH2 0x201 SWAP2 SWAP1 PUSH2 0x40C6 JUMP JUMPDEST PUSH2 0x654 JUMP JUMPDEST PUSH1 0x40 MLOAD PUSH2 0x213 SWAP2 SWAP1 PUSH2 0x4121 JUMP JUMPDEST PUSH1 0x40 MLOAD DUP1 SWAP2 SUB SWAP1 RETURN JUMPDEST CALLVALUE DUP1 ISZERO PUSH2 0x228 JUMPI PUSH1 0x0 DUP1 REVERT JUMPDEST POP PUSH2 0x243 PUSH1 0x4 DUP1 CALLDATASIZE SUB DUP2 ADD SWAP1 PUSH2 0x23E SWAP2 SWAP1 PUSH2 0x413C JUMP JUMPDEST PUSH2 0x683 JUMP JUMPDEST PUSH1 0x40 MLOAD PUSH2 0x250 SWAP2 SWAP1 PUSH2 0x4227 JUMP JUMPDEST PUSH1 0x40 MLOAD DUP1 SWAP2 SUB SWAP1 RETURN JUMPDEST CALLVALUE DUP1 ISZERO PUSH2 0x265 JUMPI PUSH1 0x0 DUP1 REVERT JUMPDEST POP PUSH2 0x26E PUSH2 0x753 JUMP JUMPDEST PUSH1 0x40 MLOAD PUSH2 0x27B SWAP2 SWAP1 PUSH2 0x4121 JUMP JUMPDEST PUSH1 0x40 MLOAD DUP1 SWAP2 SUB SWAP1 RETURN JUMPDEST CALLVALUE DUP1 ISZERO PUSH2 0x290 JUMPI PUSH1 0x0 DUP1 REVERT JUMPDEST POP PUSH2 0x2AB PUSH1 0x4 DUP1 CALLDATASIZE SUB DUP2 ADD SWAP1 PUSH2 0x2A6 SWAP2 SWAP1 PUSH2 0x4011 JUMP JUMPDEST PUSH2 0x8BC JUMP JUMPDEST PUSH1 0x40 MLOAD PUSH2 0x2B8 SWAP2 SWAP1 PUSH2 0x4265 JUMP JUMPDEST PUSH1 0x40 MLOAD DUP1 SWAP2 SUB SWAP1 RETURN JUMPDEST CALLVALUE DUP1 ISZERO PUSH2 0x2CD JUMPI PUSH1 0x0 DUP1 REVERT JUMPDEST POP PUSH2 0x2E8 PUSH1 0x4 DUP1 CALLDATASIZE SUB DUP2 ADD SWAP1 PUSH2 0x2E3 SWAP2 SWAP1 PUSH2 0x413C JUMP JUMPDEST PUSH2 0x8E6 JUMP JUMPDEST PUSH1 0x40 MLOAD PUSH2 0x2F5 SWAP2 SWAP1 PUSH2 0x433E JUMP JUMPDEST PUSH1 0x40 MLOAD DUP1 SWAP2 SUB SWAP1 RETURN JUMPDEST CALLVALUE DUP1 ISZERO PUSH2 0x30A JUMPI PUSH1 0x0 DUP1 REVERT JUMPDEST POP PUSH2 0x313 PUSH2 0x980 JUMP JUMPDEST PUSH1 0x40 MLOAD PUSH2 0x320 SWAP2 SWAP1 PUSH2 0x436F JUMP JUMPDEST PUSH1 0x40 MLOAD DUP1 SWAP2 SUB SWAP1 RETURN JUMPDEST CALLVALUE DUP1 ISZERO PUSH2 0x335 JUMPI PUSH1 0x0 DUP1 REVERT JUMPDEST POP PUSH2 0x350 PUSH1 0x4 DUP1 CALLDATASIZE SUB DUP2 ADD SWAP1 PUSH2 0x34B SWAP2 SWAP1 PUSH2 0x4011 JUMP JUMPDEST PUSH2 0x996 JUMP JUMPDEST PUSH1 0x40 MLOAD PUSH2 0x35D SWAP2 SWAP1 PUSH2 0x436F JUMP JUMPDEST PUSH1 0x40 MLOAD DUP1 SWAP2 SUB SWAP1 RETURN JUMPDEST PUSH2 0x380 PUSH1 0x4 DUP1 CALLDATASIZE SUB DUP2 ADD SWAP1 PUSH2 0x37B SWAP2 SWAP1 PUSH2 0x4011 JUMP JUMPDEST PUSH2 0x9AE JUMP JUMPDEST PUSH1 0x40 MLOAD PUSH2 0x38D SWAP2 SWAP1 PUSH2 0x4121 JUMP JUMPDEST PUSH1 0x40 MLOAD DUP1 SWAP2 SUB SWAP1 RETURN JUMPDEST CALLVALUE DUP1 ISZERO PUSH2 0x3A2 JUMPI PUSH1 0x0 DUP1 REVERT JUMPDEST POP PUSH2 0x3AB PUSH2 0x1175 JUMP JUMPDEST PUSH1 0x40 MLOAD PUSH2 0x3B8 SWAP2 SWAP1 PUSH2 0x407F JUMP JUMPDEST PUSH1 0x40 MLOAD DUP1 SWAP2 SUB SWAP1 RETURN JUMPDEST CALLVALUE DUP1 ISZERO PUSH2 0x3CD JUMPI PUSH1 0x0 DUP1 REVERT JUMPDEST POP PUSH2 0x3D6 PUSH2 0x119B JUMP JUMPDEST PUSH1 0x40 MLOAD PUSH2 0x3E3 SWAP2 SWAP1 PUSH2 0x4121 JUMP JUMPDEST PUSH1 0x40 MLOAD DUP1 SWAP2 SUB SWAP1 RETURN JUMPDEST CALLVALUE DUP1 ISZERO PUSH2 0x3F8 JUMPI PUSH1 0x0 DUP1 REVERT JUMPDEST POP PUSH2 0x413 PUSH1 0x4 DUP1 CALLDATASIZE SUB DUP2 ADD SWAP1 PUSH2 0x40E SWAP2 SWAP1 PUSH2 0x4011 JUMP JUMPDEST PUSH2 0x137F JUMP JUMPDEST PUSH1 0x40 MLOAD PUSH2 0x420 SWAP2 SWAP1 PUSH2 0x407F JUMP JUMPDEST PUSH1 0x40 MLOAD DUP1 SWAP2 SUB SWAP1 RETURN JUMPDEST CALLVALUE DUP1 ISZERO PUSH2 0x435 JUMPI PUSH1 0x0 DUP1 REVERT JUMPDEST POP PUSH2 0x43E PUSH2 0x13B2 JUMP JUMPDEST PUSH1 0x40 MLOAD PUSH2 0x44B SWAP2 SWAP1 PUSH2 0x4121 JUMP JUMPDEST PUSH1 0x40 MLOAD DUP1 SWAP2 SUB SWAP1 RETURN JUMPDEST CALLVALUE DUP1 ISZERO PUSH2 0x460 JUMPI PUSH1 0x0 DUP1 REVERT JUMPDEST POP PUSH2 0x469 PUSH2 0x151B JUMP JUMPDEST PUSH1 0x40 MLOAD PUSH2 0x476 SWAP2 SWAP1 PUSH2 0x436F JUMP JUMPDEST PUSH1 0x40 MLOAD DUP1 SWAP2 SUB SWAP1 RETURN JUMPDEST CALLVALUE DUP1 ISZERO PUSH2 0x48B JUMPI PUSH1 0x0 DUP1 REVERT JUMPDEST POP PUSH2 0x4A6 PUSH1 0x4 DUP1 CALLDATASIZE SUB DUP2 ADD SWAP1 PUSH2 0x4A1 SWAP2 SWAP1 PUSH2 0x413C JUMP JUMPDEST PUSH2 0x1521 JUMP JUMPDEST PUSH1 0x40 MLOAD PUSH2 0x4B6 SWAP5 SWAP4 SWAP3 SWAP2 SWAP1 PUSH2 0x438A JUMP JUMPDEST PUSH1 0x40 MLOAD DUP1 SWAP2 SUB SWAP1 RETURN JUMPDEST CALLVALUE DUP1 ISZERO PUSH2 0x4CB JUMPI PUSH1 0x0 DUP1 REVERT JUMPDEST POP PUSH2 0x4E6 PUSH1 0x4 DUP1 CALLDATASIZE SUB DUP2 ADD SWAP1 PUSH2 0x4E1 SWAP2 SWAP1 PUSH2 0x43CF JUMP JUMPDEST PUSH2 0x155E JUMP JUMPDEST PUSH1 0x40 MLOAD PUSH2 0x4F3 SWAP2 SWAP1 PUSH2 0x436F JUMP JUMPDEST PUSH1 0x40 MLOAD DUP1 SWAP2 SUB SWAP1 RETURN JUMPDEST CALLVALUE DUP1 ISZERO PUSH2 0x508 JUMPI PUSH1 0x0 DUP1 REVERT JUMPDEST POP PUSH2 0x523 PUSH1 0x4 DUP1 CALLDATASIZE SUB DUP2 ADD SWAP1 PUSH2 0x51E SWAP2 SWAP1 PUSH2 0x40C6 JUMP JUMPDEST PUSH2 0x15BC JUMP JUMPDEST PUSH1 0x40 MLOAD PUSH2 0x530 SWAP2 SWAP1 PUSH2 0x436F JUMP JUMPDEST PUSH1 0x40 MLOAD DUP1 SWAP2 SUB SWAP1 RETURN JUMPDEST CALLVALUE DUP1 ISZERO PUSH2 0x545 JUMPI PUSH1 0x0 DUP1 REVERT JUMPDEST POP PUSH2 0x54E PUSH2 0x15E1 JUMP JUMPDEST PUSH1 0x40 MLOAD PUSH2 0x55B SWAP2 SWAP1 PUSH2 0x407F JUMP JUMPDEST PUSH1 0x40 MLOAD DUP1 SWAP2 SUB SWAP1 RETURN JUMPDEST CALLVALUE DUP1 ISZERO PUSH2 0x570 JUMPI PUSH1 0x0 DUP1 REVERT JUMPDEST POP PUSH2 0x58B PUSH1 0x4 DUP1 CALLDATASIZE SUB DUP2 ADD SWAP1 PUSH2 0x586 SWAP2 SWAP1 PUSH2 0x43CF JUMP JUMPDEST PUSH2 0x1607 JUMP JUMPDEST STOP JUMPDEST CALLVALUE DUP1 ISZERO PUSH2 0x599 JUMPI PUSH1 0x0 DUP1 REVERT JUMPDEST POP PUSH2 0x5A2 PUSH2 0x186A JUMP JUMPDEST PUSH1 0x40 MLOAD PUSH2 0x5AF SWAP2 SWAP1 PUSH2 0x407F JUMP JUMPDEST PUSH1 0x40 MLOAD DUP1 SWAP2 SUB SWAP1 RETURN JUMPDEST PUSH1 0x4 DUP2 PUSH1 0x4 DUP2 LT PUSH2 0x5C8 JUMPI PUSH1 0x0 DUP1 REVERT JUMPDEST ADD PUSH1 0x0 SWAP2 POP SLOAD SWAP1 PUSH2 0x100 EXP SWAP1 DIV PUSH20 0xFFFFFFFFFFFFFFFFFFFFFFFFFFFFFFFFFFFFFFFF AND DUP2 JUMP JUMPDEST PUSH1 0x0 DUP1 SLOAD SWAP1 PUSH2 0x100 EXP SWAP1 DIV PUSH20 0xFFFFFFFFFFFFFFFFFFFFFFFFFFFFFFFFFFFFFFFF AND DUP2 JUMP JUMPDEST PUSH1 0xD PUSH1 0x20 MSTORE DUP2 PUSH1 0x0 MSTORE PUSH1 0x40 PUSH1 0x0 KECCAK256 PUSH1 0x20 MSTORE DUP1 PUSH1 0x0 MSTORE PUSH1 0x40 PUSH1 0x0 KECCAK256 PUSH1 0x0 SWAP2 POP SWAP2 POP SWAP1 SLOAD SWAP1 PUSH2 0x100 EXP SWAP1 DIV PUSH20 0xFFFFFFFFFFFFFFFFFFFFFFFFFFFFFFFFFFFFFFFF AND DUP2 JUMP JUMPDEST PUSH1 0xE PUSH1 0x20 MSTORE DUP2 PUSH1 0x0 MSTORE PUSH1 0x40 PUSH1 0x0 KECCAK256 PUSH1 0x20 MSTORE DUP1 PUSH1 0x0 MSTORE PUSH1 0x40 PUSH1 0x0 KECCAK256 PUSH1 0x0 SWAP2 POP SWAP2 POP SWAP1 SLOAD SWAP1 PUSH2 0x100 EXP SWAP1 DIV PUSH1 0xFF AND DUP2 JUMP JUMPDEST PUSH1 0x60 PUSH1 0xA PUSH1 0x0 DUP4 PUSH20 0xFFFFFFFFFFFFFFFFFFFFFFFFFFFFFFFFFFFFFFFF AND PUSH20 0xFFFFFFFFFFFFFFFFFFFFFFFFFFFFFFFFFFFFFFFF AND DUP2 MSTORE PUSH1 0x20 ADD SWAP1 DUP2 MSTORE PUSH1 0x20 ADD PUSH1 0x0 KECCAK256 PUSH1 0x3 ADD DUP1 SLOAD DUP1 PUSH1 0x20 MUL PUSH1 0x20 ADD PUSH1 0x40 MLOAD SWAP1 DUP2 ADD PUSH1 0x40 MSTORE DUP1 SWAP3 SWAP2 SWAP1 DUP2 DUP2 MSTORE PUSH1 0x20 ADD DUP3 DUP1 SLOAD DUP1 ISZERO PUSH2 0x747 JUMPI PUSH1 0x20 MUL DUP3 ADD SWAP2 SWAP1 PUSH1 0x0 MSTORE PUSH1 0x20 PUSH1 0x0 KECCAK256 SWAP1 JUMPDEST DUP2 PUSH1 0x0 SWAP1 SLOAD SWAP1 PUSH2 0x100 EXP SWAP1 DIV PUSH20 0xFFFFFFFFFFFFFFFFFFFFFFFFFFFFFFFFFFFFFFFF AND PUSH20 0xFFFFFFFFFFFFFFFFFFFFFFFFFFFFFFFFFFFFFFFF AND DUP2 MSTORE PUSH1 0x20 ADD SWAP1 PUSH1 0x1 ADD SWAP1 DUP1 DUP4 GT PUSH2 0x6FD JUMPI JUMPDEST POP POP POP POP POP SWAP1 POP SWAP2 SWAP1 POP JUMP JUMPDEST PUSH1 0x0 PUSH1 0x1 PUSH1 0x0 SWAP1 SLOAD SWAP1 PUSH2 0x100 EXP SWAP1 DIV PUSH20 0xFFFFFFFFFFFFFFFFFFFFFFFFFFFFFFFFFFFFFFFF AND PUSH20 0xFFFFFFFFFFFFFFFFFFFFFFFFFFFFFFFFFFFFFFFF AND CALLER PUSH20 0xFFFFFFFFFFFFFFFFFFFFFFFFFFFFFFFFFFFFFFFF AND EQ PUSH2 0x7E5 JUMPI PUSH1 0x40 MLOAD PUSH32 0x8C379A000000000000000000000000000000000000000000000000000000000 DUP2 MSTORE PUSH1 0x4 ADD PUSH2 0x7DC SWAP1 PUSH2 0x446C JUMP JUMPDEST PUSH1 0x40 MLOAD DUP1 SWAP2 SUB SWAP1 REVERT JUMPDEST PUSH1 0x0 PUSH1 0x1 PUSH1 0x0 SWAP1 SLOAD SWAP1 PUSH2 0x100 EXP SWAP1 DIV PUSH20 0xFFFFFFFFFFFFFFFFFFFFFFFFFFFFFFFFFFFFFFFF AND PUSH20 0xFFFFFFFFFFFFFFFFFFFFFFFFFFFFFFFFFFFFFFFF AND PUSH1 0x12 SLOAD PUSH1 0x40 MLOAD PUSH2 0x82F SWAP1 PUSH2 0x44BD JUMP JUMPDEST PUSH1 0x0 PUSH1 0x40 MLOAD DUP1 DUP4 SUB DUP2 DUP6 DUP8 GAS CALL SWAP3 POP POP POP RETURNDATASIZE DUP1 PUSH1 0x0 DUP2 EQ PUSH2 0x86C JUMPI PUSH1 0x40 MLOAD SWAP2 POP PUSH1 0x1F NOT PUSH1 0x3F RETURNDATASIZE ADD AND DUP3 ADD PUSH1 0x40 MSTORE RETURNDATASIZE DUP3 MSTORE RETURNDATASIZE PUSH1 0x0 PUSH1 0x20 DUP5 ADD RETURNDATACOPY PUSH2 0x871 JUMP JUMPDEST PUSH1 0x60 SWAP2 POP JUMPDEST POP POP SWAP1 POP DUP1 PUSH2 0x8B5 JUMPI PUSH1 0x40 MLOAD PUSH32 0x8C379A000000000000000000000000000000000000000000000000000000000 DUP2 MSTORE PUSH1 0x4 ADD PUSH2 0x8AC SWAP1 PUSH2 0x451E JUMP JUMPDEST PUSH1 0x40 MLOAD DUP1 SWAP2 SUB SWAP1 REVERT JUMPDEST DUP1 SWAP2 POP POP SWAP1 JUMP JUMPDEST PUSH1 0x8 DUP2 PUSH1 0x4 DUP2 LT PUSH2 0x8CC JUMPI PUSH1 0x0 DUP1 REVERT JUMPDEST PUSH1 0x20 SWAP2 DUP3 DUP3 DIV ADD SWAP2 SWAP1 MOD SWAP2 POP SLOAD SWAP1 PUSH2 0x100 EXP SWAP1 DIV PUSH1 0xFF AND DUP2 JUMP JUMPDEST PUSH1 0x60 PUSH1 0xA PUSH1 0x0 DUP4 PUSH20 0xFFFFFFFFFFFFFFFFFFFFFFFFFFFFFFFFFFFFFFFF AND PUSH20 0xFFFFFFFFFFFFFFFFFFFFFFFFFFFFFFFFFFFFFFFF AND DUP2 MSTORE PUSH1 0x20 ADD SWAP1 DUP2 MSTORE PUSH1 0x20 ADD PUSH1 0x0 KECCAK256 PUSH1 0x6 ADD DUP1 SLOAD DUP1 PUSH1 0x20 MUL PUSH1 0x20 ADD PUSH1 0x40 MLOAD SWAP1 DUP2 ADD PUSH1 0x40 MSTORE DUP1 SWAP3 SWAP2 SWAP1 DUP2 DUP2 MSTORE PUSH1 0x20 ADD DUP3 DUP1 SLOAD DUP1 ISZERO PUSH2 0x974 JUMPI PUSH1 0x20 MUL DUP3 ADD SWAP2 SWAP1 PUSH1 0x0 MSTORE PUSH1 0x20 PUSH1 0x0 KECCAK256 SWAP1 JUMPDEST DUP2 SLOAD DUP2 MSTORE PUSH1 0x20 ADD SWAP1 PUSH1 0x1 ADD SWAP1 DUP1 DUP4 GT PUSH2 0x960 JUMPI JUMPDEST POP POP POP POP POP SWAP1 POP SWAP2 SWAP1 POP JUMP JUMPDEST PUSH1 0x0 PUSH3 0xF4240 SELFBALANCE PUSH2 0x991 SWAP2 SWAP1 PUSH2 0x459C JUMP JUMPDEST SWAP1 POP SWAP1 JUMP JUMPDEST PUSH1 0x9 PUSH1 0x20 MSTORE DUP1 PUSH1 0x0 MSTORE PUSH1 0x40 PUSH1 0x0 KECCAK256 PUSH1 0x0 SWAP2 POP SWAP1 POP SLOAD DUP2 JUMP JUMPDEST PUSH1 0x0 PUSH1 0xA PUSH1 0x0 CALLER PUSH20 0xFFFFFFFFFFFFFFFFFFFFFFFFFFFFFFFFFFFFFFFF AND PUSH20 0xFFFFFFFFFFFFFFFFFFFFFFFFFFFFFFFFFFFFFFFF AND DUP2 MSTORE PUSH1 0x20 ADD SWAP1 DUP2 MSTORE PUSH1 0x20 ADD PUSH1 0x0 KECCAK256 PUSH1 0x0 ADD PUSH1 0x0 SWAP1 SLOAD SWAP1 PUSH2 0x100 EXP SWAP1 DIV PUSH1 0xFF AND ISZERO PUSH2 0xA40 JUMPI PUSH1 0x40 MLOAD PUSH32 0x8C379A000000000000000000000000000000000000000000000000000000000 DUP2 MSTORE PUSH1 0x4 ADD PUSH2 0xA37 SWAP1 PUSH2 0x4619 JUMP JUMPDEST PUSH1 0x40 MLOAD DUP1 SWAP2 SUB SWAP1 REVERT JUMPDEST PUSH1 0x0 DUP3 GT DUP1 ISZERO PUSH2 0xA52 JUMPI POP PUSH1 0xF SLOAD DUP3 GT ISZERO JUMPDEST PUSH2 0xA91 JUMPI PUSH1 0x40 MLOAD PUSH32 0x8C379A000000000000000000000000000000000000000000000000000000000 DUP2 MSTORE PUSH1 0x4 ADD PUSH2 0xA88 SWAP1 PUSH2 0x4685 JUMP JUMPDEST PUSH1 0x40 MLOAD DUP1 SWAP2 SUB SWAP1 REVERT JUMPDEST PUSH1 0x13 SLOAD CALLVALUE EQ PUSH2 0xAD5 JUMPI PUSH1 0x40 MLOAD PUSH32 0x8C379A000000000000000000000000000000000000000000000000000000000 DUP2 MSTORE PUSH1 0x4 ADD PUSH2 0xACC SWAP1 PUSH2 0x46F1 JUMP JUMPDEST PUSH1 0x40 MLOAD DUP1 SWAP2 SUB SWAP1 REVERT JUMPDEST PUSH1 0x0 PUSH1 0xA PUSH1 0x0 CALLER PUSH20 0xFFFFFFFFFFFFFFFFFFFFFFFFFFFFFFFFFFFFFFFF AND PUSH20 0xFFFFFFFFFFFFFFFFFFFFFFFFFFFFFFFFFFFFFFFF AND DUP2 MSTORE PUSH1 0x20 ADD SWAP1 DUP2 MSTORE PUSH1 0x20 ADD PUSH1 0x0 KECCAK256 SWAP1 POP PUSH1 0x1 DUP2 PUSH1 0x0 ADD PUSH1 0x0 PUSH2 0x100 EXP DUP2 SLOAD DUP2 PUSH1 0xFF MUL NOT AND SWAP1 DUP4 ISZERO ISZERO MUL OR SWAP1 SSTORE POP PUSH1 0xF SLOAD DUP2 PUSH1 0x1 ADD DUP2 SWAP1 SSTORE POP DUP3 DUP2 PUSH1 0x2 ADD DUP2 SWAP1 SSTORE POP PUSH1 0x0 PUSH8 0xFFFFFFFFFFFFFFFF DUP2 GT ISZERO PUSH2 0xB64 JUMPI PUSH2 0xB63 PUSH2 0x4711 JUMP JUMPDEST JUMPDEST PUSH1 0x40 MLOAD SWAP1 DUP1 DUP3 MSTORE DUP1 PUSH1 0x20 MUL PUSH1 0x20 ADD DUP3 ADD PUSH1 0x40 MSTORE DUP1 ISZERO PUSH2 0xB92 JUMPI DUP2 PUSH1 0x20 ADD PUSH1 0x20 DUP3 MUL DUP1 CALLDATASIZE DUP4 CALLDATACOPY DUP1 DUP3 ADD SWAP2 POP POP SWAP1 POP JUMPDEST POP DUP2 PUSH1 0x3 ADD SWAP1 DUP1 MLOAD SWAP1 PUSH1 0x20 ADD SWAP1 PUSH2 0xBAA SWAP3 SWAP2 SWAP1 PUSH2 0x3EE2 JUMP JUMPDEST POP TIMESTAMP DUP2 PUSH1 0x4 ADD DUP2 SWAP1 SSTORE POP PUSH1 0x0 PUSH8 0xFFFFFFFFFFFFFFFF DUP2 GT ISZERO PUSH2 0xBCF JUMPI PUSH2 0xBCE PUSH2 0x4711 JUMP JUMPDEST JUMPDEST PUSH1 0x40 MLOAD SWAP1 DUP1 DUP3 MSTORE DUP1 PUSH1 0x20 MUL PUSH1 0x20 ADD DUP3 ADD PUSH1 0x40 MSTORE DUP1 ISZERO PUSH2 0xBFD JUMPI DUP2 PUSH1 0x20 ADD PUSH1 0x20 DUP3 MUL DUP1 CALLDATASIZE DUP4 CALLDATACOPY DUP1 DUP3 ADD SWAP2 POP POP SWAP1 POP JUMPDEST POP DUP2 PUSH1 0x6 ADD SWAP1 DUP1 MLOAD SWAP1 PUSH1 0x20 ADD SWAP1 PUSH2 0xC15 SWAP3 SWAP2 SWAP1 PUSH2 0x3F6C JUMP JUMPDEST POP PUSH1 0xF PUSH1 0x0 DUP2 SLOAD DUP1 SWAP3 SWAP2 SWAP1 PUSH2 0xC29 SWAP1 PUSH2 0x4740 JUMP JUMPDEST SWAP2 SWAP1 POP SSTORE POP CALLER PUSH1 0xB PUSH1 0x0 PUSH1 0xF SLOAD DUP2 MSTORE PUSH1 0x20 ADD SWAP1 DUP2 MSTORE PUSH1 0x20 ADD PUSH1 0x0 KECCAK256 PUSH1 0x0 PUSH2 0x100 EXP DUP2 SLOAD DUP2 PUSH20 0xFFFFFFFFFFFFFFFFFFFFFFFFFFFFFFFFFFFFFFFF MUL NOT AND SWAP1 DUP4 PUSH20 0xFFFFFFFFFFFFFFFFFFFFFFFFFFFFFFFFFFFFFFFF AND MUL OR SWAP1 SSTORE POP PUSH1 0xA PUSH1 0x0 PUSH1 0xB PUSH1 0x0 DUP7 DUP2 MSTORE PUSH1 0x20 ADD SWAP1 DUP2 MSTORE PUSH1 0x20 ADD PUSH1 0x0 KECCAK256 PUSH1 0x0 SWAP1 SLOAD SWAP1 PUSH2 0x100 EXP SWAP1 DIV PUSH20 0xFFFFFFFFFFFFFFFFFFFFFFFFFFFFFFFFFFFFFFFF AND PUSH20 0xFFFFFFFFFFFFFFFFFFFFFFFFFFFFFFFFFFFFFFFF AND PUSH20 0xFFFFFFFFFFFFFFFFFFFFFFFFFFFFFFFFFFFFFFFF AND DUP2 MSTORE PUSH1 0x20 ADD SWAP1 DUP2 MSTORE PUSH1 0x20 ADD PUSH1 0x0 KECCAK256 PUSH1 0x3 ADD CALLER SWAP1 DUP1 PUSH1 0x1 DUP2 SLOAD ADD DUP1 DUP3 SSTORE DUP1 SWAP2 POP POP PUSH1 0x1 SWAP1 SUB SWAP1 PUSH1 0x0 MSTORE PUSH1 0x20 PUSH1 0x0 KECCAK256 ADD PUSH1 0x0 SWAP1 SWAP2 SWAP1 SWAP2 SWAP1 SWAP2 PUSH2 0x100 EXP DUP2 SLOAD DUP2 PUSH20 0xFFFFFFFFFFFFFFFFFFFFFFFFFFFFFFFFFFFFFFFF MUL NOT AND SWAP1 DUP4 PUSH20 0xFFFFFFFFFFFFFFFFFFFFFFFFFFFFFFFFFFFFFFFF AND MUL OR SWAP1 SSTORE POP PUSH1 0x9 PUSH1 0x0 PUSH1 0x1 DUP2 MSTORE PUSH1 0x20 ADD SWAP1 DUP2 MSTORE PUSH1 0x20 ADD PUSH1 0x0 KECCAK256 SLOAD PUSH1 0x12 PUSH1 0x0 DUP3 DUP3 SLOAD PUSH2 0xD7E SWAP2 SWAP1 PUSH2 0x4789 JUMP JUMPDEST SWAP3 POP POP DUP2 SWAP1 SSTORE POP PUSH1 0x15 SLOAD PUSH1 0x11 PUSH1 0x0 DUP3 DUP3 SLOAD PUSH2 0xD99 SWAP2 SWAP1 PUSH2 0x4789 JUMP JUMPDEST SWAP3 POP POP DUP2 SWAP1 SSTORE POP PUSH1 0x16 SLOAD PUSH1 0x10 PUSH1 0x0 DUP3 DUP3 SLOAD PUSH2 0xDB4 SWAP2 SWAP1 PUSH2 0x4789 JUMP JUMPDEST SWAP3 POP POP DUP2 SWAP1 SSTORE POP PUSH1 0x0 PUSH1 0xA PUSH1 0x0 PUSH1 0xB PUSH1 0x0 DUP8 DUP2 MSTORE PUSH1 0x20 ADD SWAP1 DUP2 MSTORE PUSH1 0x20 ADD PUSH1 0x0 KECCAK256 PUSH1 0x0 SWAP1 SLOAD SWAP1 PUSH2 0x100 EXP SWAP1 DIV PUSH20 0xFFFFFFFFFFFFFFFFFFFFFFFFFFFFFFFFFFFFFFFF AND PUSH20 0xFFFFFFFFFFFFFFFFFFFFFFFFFFFFFFFFFFFFFFFF AND PUSH20 0xFFFFFFFFFFFFFFFFFFFFFFFFFFFFFFFFFFFFFFFF AND DUP2 MSTORE PUSH1 0x20 ADD SWAP1 DUP2 MSTORE PUSH1 0x20 ADD PUSH1 0x0 KECCAK256 PUSH1 0x3 ADD DUP1 SLOAD SWAP1 POP SWAP1 POP PUSH1 0x1 DUP2 EQ ISZERO DUP1 PUSH2 0xE48 JUMPI POP PUSH1 0x1 DUP5 EQ JUMPDEST ISZERO PUSH2 0xE61 JUMPI PUSH2 0xE5C PUSH1 0x1 CALLER DUP4 PUSH1 0x0 DUP1 PUSH2 0x1890 JUMP JUMPDEST PUSH2 0xFF1 JUMP JUMPDEST PUSH1 0xA PUSH1 0x0 PUSH1 0xB PUSH1 0x0 DUP8 DUP2 MSTORE PUSH1 0x20 ADD SWAP1 DUP2 MSTORE PUSH1 0x20 ADD PUSH1 0x0 KECCAK256 PUSH1 0x0 SWAP1 SLOAD SWAP1 PUSH2 0x100 EXP SWAP1 DIV PUSH20 0xFFFFFFFFFFFFFFFFFFFFFFFFFFFFFFFFFFFFFFFF AND PUSH20 0xFFFFFFFFFFFFFFFFFFFFFFFFFFFFFFFFFFFFFFFF AND PUSH20 0xFFFFFFFFFFFFFFFFFFFFFFFFFFFFFFFFFFFFFFFF AND DUP2 MSTORE PUSH1 0x20 ADD SWAP1 DUP2 MSTORE PUSH1 0x20 ADD PUSH1 0x0 KECCAK256 PUSH1 0x6 ADD PUSH1 0x1 SWAP1 DUP1 PUSH1 0x1 DUP2 SLOAD ADD DUP1 DUP3 SSTORE DUP1 SWAP2 POP POP PUSH1 0x1 SWAP1 SUB SWAP1 PUSH1 0x0 MSTORE PUSH1 0x20 PUSH1 0x0 KECCAK256 ADD PUSH1 0x0 SWAP1 SWAP2 SWAP1 SWAP2 SWAP1 SWAP2 POP SSTORE PUSH1 0x0 PUSH1 0xB PUSH1 0x0 DUP7 DUP2 MSTORE PUSH1 0x20 ADD SWAP1 DUP2 MSTORE PUSH1 0x20 ADD PUSH1 0x0 KECCAK256 PUSH1 0x0 SWAP1 SLOAD SWAP1 PUSH2 0x100 EXP SWAP1 DIV PUSH20 0xFFFFFFFFFFFFFFFFFFFFFFFFFFFFFFFFFFFFFFFF AND SWAP1 POP PUSH1 0x1 PUSH1 0xA PUSH1 0x0 DUP4 PUSH20 0xFFFFFFFFFFFFFFFFFFFFFFFFFFFFFFFFFFFFFFFF AND PUSH20 0xFFFFFFFFFFFFFFFFFFFFFFFFFFFFFFFFFFFFFFFF AND DUP2 MSTORE PUSH1 0x20 ADD SWAP1 DUP2 MSTORE PUSH1 0x20 ADD PUSH1 0x0 KECCAK256 PUSH1 0x5 ADD PUSH1 0x0 PUSH1 0x1 DUP2 MSTORE PUSH1 0x20 ADD SWAP1 DUP2 MSTORE PUSH1 0x20 ADD PUSH1 0x0 KECCAK256 SLOAD PUSH2 0xF97 SWAP2 SWAP1 PUSH2 0x4789 JUMP JUMPDEST PUSH1 0xA PUSH1 0x0 DUP4 PUSH20 0xFFFFFFFFFFFFFFFFFFFFFFFFFFFFFFFFFFFFFFFF AND PUSH20 0xFFFFFFFFFFFFFFFFFFFFFFFFFFFFFFFFFFFFFFFF AND DUP2 MSTORE PUSH1 0x20 ADD SWAP1 DUP2 MSTORE PUSH1 0x20 ADD PUSH1 0x0 KECCAK256 PUSH1 0x5 ADD PUSH1 0x0 PUSH1 0x1 DUP2 MSTORE PUSH1 0x20 ADD SWAP1 DUP2 MSTORE PUSH1 0x20 ADD PUSH1 0x0 KECCAK256 DUP2 SWAP1 SSTORE POP POP JUMPDEST PUSH1 0x0 PUSH1 0xB PUSH1 0x0 DUP7 DUP2 MSTORE PUSH1 0x20 ADD SWAP1 DUP2 MSTORE PUSH1 0x20 ADD PUSH1 0x0 KECCAK256 PUSH1 0x0 SWAP1 SLOAD SWAP1 PUSH2 0x100 EXP SWAP1 DIV PUSH20 0xFFFFFFFFFFFFFFFFFFFFFFFFFFFFFFFFFFFFFFFF AND PUSH20 0xFFFFFFFFFFFFFFFFFFFFFFFFFFFFFFFFFFFFFFFF AND PUSH1 0x14 SLOAD PUSH1 0x40 MLOAD PUSH2 0x104C SWAP1 PUSH2 0x44BD JUMP JUMPDEST PUSH1 0x0 PUSH1 0x40 MLOAD DUP1 DUP4 SUB DUP2 DUP6 DUP8 GAS CALL SWAP3 POP POP POP RETURNDATASIZE DUP1 PUSH1 0x0 DUP2 EQ PUSH2 0x1089 JUMPI PUSH1 0x40 MLOAD SWAP2 POP PUSH1 0x1F NOT PUSH1 0x3F RETURNDATASIZE ADD AND DUP3 ADD PUSH1 0x40 MSTORE RETURNDATASIZE DUP3 MSTORE RETURNDATASIZE PUSH1 0x0 PUSH1 0x20 DUP5 ADD RETURNDATACOPY PUSH2 0x108E JUMP JUMPDEST PUSH1 0x60 SWAP2 POP JUMPDEST POP POP SWAP1 POP DUP1 PUSH2 0x10D2 JUMPI PUSH1 0x40 MLOAD PUSH32 0x8C379A000000000000000000000000000000000000000000000000000000000 DUP2 MSTORE PUSH1 0x4 ADD PUSH2 0x10C9 SWAP1 PUSH2 0x451E JUMP JUMPDEST PUSH1 0x40 MLOAD DUP1 SWAP2 SUB SWAP1 REVERT JUMPDEST PUSH1 0xB PUSH1 0x0 DUP7 DUP2 MSTORE PUSH1 0x20 ADD SWAP1 DUP2 MSTORE PUSH1 0x20 ADD PUSH1 0x0 KECCAK256 PUSH1 0x0 SWAP1 SLOAD SWAP1 PUSH2 0x100 EXP SWAP1 DIV PUSH20 0xFFFFFFFFFFFFFFFFFFFFFFFFFFFFFFFFFFFFFFFF AND PUSH20 0xFFFFFFFFFFFFFFFFFFFFFFFFFFFFFFFFFFFFFFFF AND CALLER PUSH20 0xFFFFFFFFFFFFFFFFFFFFFFFFFFFFFFFFFFFFFFFF AND PUSH32 0x788C06D2405AE89DD3F0528D38BE7691289474D72176408BC2C2406DC5E342F1 TIMESTAMP PUSH1 0x40 MLOAD PUSH2 0x1162 SWAP2 SWAP1 PUSH2 0x436F JUMP JUMPDEST PUSH1 0x40 MLOAD DUP1 SWAP2 SUB SWAP1 LOG3 DUP1 SWAP4 POP POP POP POP SWAP2 SWAP1 POP JUMP JUMPDEST PUSH1 0x2 PUSH1 0x0 SWAP1 SLOAD SWAP1 PUSH2 0x100 EXP SWAP1 DIV PUSH20 0xFFFFFFFFFFFFFFFFFFFFFFFFFFFFFFFFFFFFFFFF AND DUP2 JUMP JUMPDEST PUSH1 0x0 DUP1 PUSH1 0x0 SWAP1 POP PUSH1 0x0 DUP1 JUMPDEST PUSH1 0x4 DUP2 LT ISZERO PUSH2 0x1237 JUMPI CALLER PUSH20 0xFFFFFFFFFFFFFFFFFFFFFFFFFFFFFFFFFFFFFFFF AND PUSH1 0x4 DUP3 PUSH1 0x4 DUP2 LT PUSH2 0x11DA JUMPI PUSH2 0x11D9 PUSH2 0x47DF JUMP JUMPDEST JUMPDEST ADD PUSH1 0x0 SWAP1 SLOAD SWAP1 PUSH2 0x100 EXP SWAP1 DIV PUSH20 0xFFFFFFFFFFFFFFFFFFFFFFFFFFFFFFFFFFFFFFFF AND PUSH20 0xFFFFFFFFFFFFFFFFFFFFFFFFFFFFFFFFFFFFFFFF AND EQ ISZERO PUSH2 0x1224 JUMPI PUSH1 0x1 SWAP3 POP DUP1 SWAP2 POP PUSH2 0x1237 JUMP JUMPDEST DUP1 DUP1 PUSH2 0x122F SWAP1 PUSH2 0x4740 JUMP JUMPDEST SWAP2 POP POP PUSH2 0x11A6 JUMP JUMPDEST POP PUSH1 0x1 ISZERO ISZERO DUP3 ISZERO ISZERO EQ PUSH2 0x127F JUMPI PUSH1 0x40 MLOAD PUSH32 0x8C379A000000000000000000000000000000000000000000000000000000000 DUP2 MSTORE PUSH1 0x4 ADD PUSH2 0x1276 SWAP1 PUSH2 0x446C JUMP JUMPDEST PUSH1 0x40 MLOAD DUP1 SWAP2 SUB SWAP1 REVERT JUMPDEST PUSH1 0x0 PUSH1 0x64 PUSH1 0x8 DUP4 PUSH1 0x4 DUP2 LT PUSH2 0x1297 JUMPI PUSH2 0x1296 PUSH2 0x47DF JUMP JUMPDEST JUMPDEST PUSH1 0x20 SWAP2 DUP3 DUP3 DIV ADD SWAP2 SWAP1 MOD SWAP1 SLOAD SWAP1 PUSH2 0x100 EXP SWAP1 DIV PUSH1 0xFF AND PUSH1 0xFF AND PUSH1 0x11 SLOAD PUSH2 0x12BD SWAP2 SWAP1 PUSH2 0x480E JUMP JUMPDEST PUSH2 0x12C7 SWAP2 SWAP1 PUSH2 0x459C JUMP JUMPDEST SWAP1 POP PUSH1 0x0 CALLER PUSH20 0xFFFFFFFFFFFFFFFFFFFFFFFFFFFFFFFFFFFFFFFF AND DUP3 PUSH1 0x40 MLOAD PUSH2 0x12EF SWAP1 PUSH2 0x44BD JUMP JUMPDEST PUSH1 0x0 PUSH1 0x40 MLOAD DUP1 DUP4 SUB DUP2 DUP6 DUP8 GAS CALL SWAP3 POP POP POP RETURNDATASIZE DUP1 PUSH1 0x0 DUP2 EQ PUSH2 0x132C JUMPI PUSH1 0x40 MLOAD SWAP2 POP PUSH1 0x1F NOT PUSH1 0x3F RETURNDATASIZE ADD AND DUP3 ADD PUSH1 0x40 MSTORE RETURNDATASIZE DUP3 MSTORE RETURNDATASIZE PUSH1 0x0 PUSH1 0x20 DUP5 ADD RETURNDATACOPY PUSH2 0x1331 JUMP JUMPDEST PUSH1 0x60 SWAP2 POP JUMPDEST POP POP SWAP1 POP DUP1 PUSH2 0x1375 JUMPI PUSH1 0x40 MLOAD PUSH32 0x8C379A000000000000000000000000000000000000000000000000000000000 DUP2 MSTORE PUSH1 0x4 ADD PUSH2 0x136C SWAP1 PUSH2 0x451E JUMP JUMPDEST PUSH1 0x40 MLOAD DUP1 SWAP2 SUB SWAP1 REVERT JUMPDEST DUP1 SWAP5 POP POP POP POP POP SWAP1 JUMP JUMPDEST PUSH1 0xB PUSH1 0x20 MSTORE DUP1 PUSH1 0x0 MSTORE PUSH1 0x40 PUSH1 0x0 KECCAK256 PUSH1 0x0 SWAP2 POP SLOAD SWAP1 PUSH2 0x100 EXP SWAP1 DIV PUSH20 0xFFFFFFFFFFFFFFFFFFFFFFFFFFFFFFFFFFFFFFFF AND DUP2 JUMP JUMPDEST PUSH1 0x0 PUSH1 0x2 PUSH1 0x0 SWAP1 SLOAD SWAP1 PUSH2 0x100 EXP SWAP1 DIV PUSH20 0xFFFFFFFFFFFFFFFFFFFFFFFFFFFFFFFFFFFFFFFF AND PUSH20 0xFFFFFFFFFFFFFFFFFFFFFFFFFFFFFFFFFFFFFFFF AND CALLER PUSH20 0xFFFFFFFFFFFFFFFFFFFFFFFFFFFFFFFFFFFFFFFF AND EQ PUSH2 0x1444 JUMPI PUSH1 0x40 MLOAD PUSH32 0x8C379A000000000000000000000000000000000000000000000000000000000 DUP2 MSTORE PUSH1 0x4 ADD PUSH2 0x143B SWAP1 PUSH2 0x446C JUMP JUMPDEST PUSH1 0x40 MLOAD DUP1 SWAP2 SUB SWAP1 REVERT JUMPDEST PUSH1 0x0 PUSH1 0x2 PUSH1 0x0 SWAP1 SLOAD SWAP1 PUSH2 0x100 EXP SWAP1 DIV PUSH20 0xFFFFFFFFFFFFFFFFFFFFFFFFFFFFFFFFFFFFFFFF AND PUSH20 0xFFFFFFFFFFFFFFFFFFFFFFFFFFFFFFFFFFFFFFFF AND PUSH1 0x10 SLOAD PUSH1 0x40 MLOAD PUSH2 0x148E SWAP1 PUSH2 0x44BD JUMP JUMPDEST PUSH1 0x0 PUSH1 0x40 MLOAD DUP1 DUP4 SUB DUP2 DUP6 DUP8 GAS CALL SWAP3 POP POP POP RETURNDATASIZE DUP1 PUSH1 0x0 DUP2 EQ PUSH2 0x14CB JUMPI PUSH1 0x40 MLOAD SWAP2 POP PUSH1 0x1F NOT PUSH1 0x3F RETURNDATASIZE ADD AND DUP3 ADD PUSH1 0x40 MSTORE RETURNDATASIZE DUP3 MSTORE RETURNDATASIZE PUSH1 0x0 PUSH1 0x20 DUP5 ADD RETURNDATACOPY PUSH2 0x14D0 JUMP JUMPDEST PUSH1 0x60 SWAP2 POP JUMPDEST POP POP SWAP1 POP DUP1 PUSH2 0x1514 JUMPI PUSH1 0x40 MLOAD PUSH32 0x8C379A000000000000000000000000000000000000000000000000000000000 DUP2 MSTORE PUSH1 0x4 ADD PUSH2 0x150B SWAP1 PUSH2 0x451E JUMP JUMPDEST PUSH1 0x40 MLOAD DUP1 SWAP2 SUB SWAP1 REVERT JUMPDEST DUP1 SWAP2 POP POP SWAP1 JUMP JUMPDEST PUSH1 0xF SLOAD DUP2 JUMP JUMPDEST PUSH1 0xA PUSH1 0x20 MSTORE DUP1 PUSH1 0x0 MSTORE PUSH1 0x40 PUSH1 0x0 KECCAK256 PUSH1 0x0 SWAP2 POP SWAP1 POP DUP1 PUSH1 0x0 ADD PUSH1 0x0 SWAP1 SLOAD SWAP1 PUSH2 0x100 EXP SWAP1 DIV PUSH1 0xFF AND SWAP1 DUP1 PUSH1 0x1 ADD SLOAD SWAP1 DUP1 PUSH1 0x2 ADD SLOAD SWAP1 DUP1 PUSH1 0x4 ADD SLOAD SWAP1 POP DUP5 JUMP JUMPDEST PUSH1 0x0 PUSH1 0xA PUSH1 0x0 DUP5 PUSH20 0xFFFFFFFFFFFFFFFFFFFFFFFFFFFFFFFFFFFFFFFF AND PUSH20 0xFFFFFFFFFFFFFFFFFFFFFFFFFFFFFFFFFFFFFFFF AND DUP2 MSTORE PUSH1 0x20 ADD SWAP1 DUP2 MSTORE PUSH1 0x20 ADD PUSH1 0x0 KECCAK256 PUSH1 0x5 ADD PUSH1 0x0 DUP4 DUP2 MSTORE PUSH1 0x20 ADD SWAP1 DUP2 MSTORE PUSH1 0x20 ADD PUSH1 0x0 KECCAK256 SLOAD SWAP1 POP SWAP3 SWAP2 POP POP JUMP JUMPDEST PUSH1 0xC PUSH1 0x20 MSTORE DUP2 PUSH1 0x0 MSTORE PUSH1 0x40 PUSH1 0x0 KECCAK256 PUSH1 0x20 MSTORE DUP1 PUSH1 0x0 MSTORE PUSH1 0x40 PUSH1 0x0 KECCAK256 PUSH1 0x0 SWAP2 POP SWAP2 POP POP SLOAD DUP2 JUMP JUMPDEST PUSH1 0x1 PUSH1 0x0 SWAP1 SLOAD SWAP1 PUSH2 0x100 EXP SWAP1 DIV PUSH20 0xFFFFFFFFFFFFFFFFFFFFFFFFFFFFFFFFFFFFFFFF AND DUP2 JUMP JUMPDEST PUSH1 0x0 DUP1 SLOAD SWAP1 PUSH2 0x100 EXP SWAP1 DIV PUSH20 0xFFFFFFFFFFFFFFFFFFFFFFFFFFFFFFFFFFFFFFFF AND PUSH20 0xFFFFFFFFFFFFFFFFFFFFFFFFFFFFFFFFFFFFFFFF AND CALLER PUSH20 0xFFFFFFFFFFFFFFFFFFFFFFFFFFFFFFFFFFFFFFFF AND EQ PUSH2 0x1695 JUMPI PUSH1 0x40 MLOAD PUSH32 0x8C379A000000000000000000000000000000000000000000000000000000000 DUP2 MSTORE PUSH1 0x4 ADD PUSH2 0x168C SWAP1 PUSH2 0x48B4 JUMP JUMPDEST PUSH1 0x40 MLOAD DUP1 SWAP2 SUB SWAP1 REVERT JUMPDEST PUSH1 0x0 DUP1 SLOAD SWAP1 PUSH2 0x100 EXP SWAP1 DIV PUSH20 0xFFFFFFFFFFFFFFFFFFFFFFFFFFFFFFFFFFFFFFFF AND PUSH20 0xFFFFFFFFFFFFFFFFFFFFFFFFFFFFFFFFFFFFFFFF AND CALLER PUSH20 0xFFFFFFFFFFFFFFFFFFFFFFFFFFFFFFFFFFFFFFFF AND EQ PUSH2 0x1723 JUMPI PUSH1 0x40 MLOAD PUSH32 0x8C379A000000000000000000000000000000000000000000000000000000000 DUP2 MSTORE PUSH1 0x4 ADD PUSH2 0x171A SWAP1 PUSH2 0x446C JUMP JUMPDEST PUSH1 0x40 MLOAD DUP1 SWAP2 SUB SWAP1 REVERT JUMPDEST PUSH1 0x5 DUP2 GT ISZERO PUSH2 0x1767 JUMPI PUSH1 0x40 MLOAD PUSH32 0x8C379A000000000000000000000000000000000000000000000000000000000 DUP2 MSTORE PUSH1 0x4 ADD PUSH2 0x175E SWAP1 PUSH2 0x4920 JUMP JUMPDEST PUSH1 0x40 MLOAD DUP1 SWAP2 SUB SWAP1 REVERT JUMPDEST PUSH1 0x3 DUP2 GT PUSH2 0x17D4 JUMPI DUP2 PUSH1 0x4 PUSH1 0x1 DUP4 PUSH2 0x177F SWAP2 SWAP1 PUSH2 0x4940 JUMP JUMPDEST PUSH1 0x4 DUP2 LT PUSH2 0x1790 JUMPI PUSH2 0x178F PUSH2 0x47DF JUMP JUMPDEST JUMPDEST ADD PUSH1 0x0 PUSH2 0x100 EXP DUP2 SLOAD DUP2 PUSH20 0xFFFFFFFFFFFFFFFFFFFFFFFFFFFFFFFFFFFFFFFF MUL NOT AND SWAP1 DUP4 PUSH20 0xFFFFFFFFFFFFFFFFFFFFFFFFFFFFFFFFFFFFFFFF AND MUL OR SWAP1 SSTORE POP PUSH2 0x1866 JUMP JUMPDEST PUSH1 0x4 DUP2 EQ ISZERO PUSH2 0x1823 JUMPI DUP2 PUSH1 0x2 PUSH1 0x0 PUSH2 0x100 EXP DUP2 SLOAD DUP2 PUSH20 0xFFFFFFFFFFFFFFFFFFFFFFFFFFFFFFFFFFFFFFFF MUL NOT AND SWAP1 DUP4 PUSH20 0xFFFFFFFFFFFFFFFFFFFFFFFFFFFFFFFFFFFFFFFF AND MUL OR SWAP1 SSTORE POP PUSH2 0x1865 JUMP JUMPDEST DUP2 PUSH1 0x1 PUSH1 0x0 PUSH2 0x100 EXP DUP2 SLOAD DUP2 PUSH20 0xFFFFFFFFFFFFFFFFFFFFFFFFFFFFFFFFFFFFFFFF MUL NOT AND SWAP1 DUP4 PUSH20 0xFFFFFFFFFFFFFFFFFFFFFFFFFFFFFFFFFFFFFFFF AND MUL OR SWAP1 SSTORE POP JUMPDEST JUMPDEST POP POP JUMP JUMPDEST PUSH1 0x3 PUSH1 0x0 SWAP1 SLOAD SWAP1 PUSH2 0x100 EXP SWAP1 DIV PUSH20 0xFFFFFFFFFFFFFFFFFFFFFFFFFFFFFFFFFFFFFFFF AND DUP2 JUMP JUMPDEST PUSH1 0x0 DUP1 PUSH1 0x0 SWAP1 POP PUSH1 0x0 DUP1 PUSH1 0x1 SWAP1 POP PUSH1 0x0 DUP1 DUP11 SWAP1 POP PUSH1 0x1 DUP10 EQ DUP1 ISZERO PUSH2 0x18B8 JUMPI POP PUSH1 0x1 ISZERO ISZERO DUP8 ISZERO ISZERO EQ JUMPDEST DUP1 PUSH2 0x18C3 JUMPI POP PUSH1 0x2 DUP10 EQ JUMPDEST ISZERO PUSH2 0x18F5 JUMPI PUSH2 0x18D5 DUP12 DUP12 DUP5 DUP8 DUP8 PUSH2 0x1E38 JUMP JUMPDEST DUP1 SWAP7 POP DUP2 SWAP6 POP DUP3 SWAP9 POP POP POP POP PUSH1 0x1 DUP12 PUSH2 0x18EE SWAP2 SWAP1 PUSH2 0x4789 JUMP JUMPDEST SWAP1 POP PUSH2 0x19FA JUMP JUMPDEST PUSH1 0x14 DUP10 LT ISZERO DUP1 ISZERO PUSH2 0x1912 JUMPI POP PUSH1 0x0 PUSH1 0x14 DUP11 PUSH2 0x1910 SWAP2 SWAP1 PUSH2 0x4974 JUMP JUMPDEST EQ JUMPDEST ISZERO PUSH2 0x1941 JUMPI PUSH1 0x3 PUSH1 0x0 SWAP1 SLOAD SWAP1 PUSH2 0x100 EXP SWAP1 DIV PUSH20 0xFFFFFFFFFFFFFFFFFFFFFFFFFFFFFFFFFFFFFFFF AND SWAP6 POP PUSH2 0x19F9 JUMP JUMPDEST PUSH1 0x4 DUP10 LT ISZERO DUP1 ISZERO PUSH2 0x195E JUMPI POP PUSH1 0x0 PUSH1 0x4 DUP11 PUSH2 0x195C SWAP2 SWAP1 PUSH2 0x4974 JUMP JUMPDEST EQ JUMPDEST ISZERO PUSH2 0x197F JUMPI PUSH2 0x196F DUP9 DUP12 DUP14 DUP6 PUSH2 0x25AA JUMP JUMPDEST DUP1 SWAP7 POP DUP2 SWAP8 POP POP POP DUP11 SWAP1 POP PUSH2 0x19F8 JUMP JUMPDEST PUSH1 0xB PUSH1 0x0 PUSH1 0xA PUSH1 0x0 DUP14 PUSH20 0xFFFFFFFFFFFFFFFFFFFFFFFFFFFFFFFFFFFFFFFF AND PUSH20 0xFFFFFFFFFFFFFFFFFFFFFFFFFFFFFFFFFFFFFFFF AND DUP2 MSTORE PUSH1 0x20 ADD SWAP1 DUP2 MSTORE PUSH1 0x20 ADD PUSH1 0x0 KECCAK256 PUSH1 0x2 ADD SLOAD DUP2 MSTORE PUSH1 0x20 ADD SWAP1 DUP2 MSTORE PUSH1 0x20 ADD PUSH1 0x0 KECCAK256 PUSH1 0x0 SWAP1 SLOAD SWAP1 PUSH2 0x100 EXP SWAP1 DIV PUSH20 0xFFFFFFFFFFFFFFFFFFFFFFFFFFFFFFFFFFFFFFFF AND SWAP6 POP JUMPDEST JUMPDEST JUMPDEST DUP3 DUP1 PUSH2 0x1A65 JUMPI POP PUSH1 0xB PUSH1 0x0 PUSH1 0x1 DUP2 MSTORE PUSH1 0x20 ADD SWAP1 DUP2 MSTORE PUSH1 0x20 ADD PUSH1 0x0 KECCAK256 PUSH1 0x0 SWAP1 SLOAD SWAP1 PUSH2 0x100 EXP SWAP1 DIV PUSH20 0xFFFFFFFFFFFFFFFFFFFFFFFFFFFFFFFFFFFFFFFF AND PUSH20 0xFFFFFFFFFFFFFFFFFFFFFFFFFFFFFFFFFFFFFFFF AND DUP7 PUSH20 0xFFFFFFFFFFFFFFFFFFFFFFFFFFFFFFFFFFFFFFFF AND EQ JUMPDEST ISZERO PUSH2 0x1E2B JUMPI PUSH2 0x1A77 DUP7 DUP3 DUP12 DUP9 DUP9 PUSH2 0x27A1 JUMP JUMPDEST DUP1 SWAP11 POP DUP2 SWAP10 POP POP POP DUP8 ISZERO PUSH2 0x1B4B JUMPI DUP3 DUP1 ISZERO PUSH2 0x1A90 JUMPI POP DUP4 ISZERO JUMPDEST DUP1 ISZERO PUSH2 0x1A9C JUMPI POP PUSH1 0x2 DUP10 EQ JUMPDEST ISZERO PUSH2 0x1AA5 JUMPI DUP1 SWAP11 POP JUMPDEST DUP3 DUP1 ISZERO PUSH2 0x1AB0 JUMPI POP DUP4 ISZERO JUMPDEST DUP1 ISZERO PUSH2 0x1ABC JUMPI POP PUSH1 0x4 DUP10 EQ JUMPDEST DUP1 ISZERO PUSH2 0x1AC9 JUMPI POP PUSH1 0x1 DUP2 LT ISZERO JUMPDEST ISZERO PUSH2 0x1B38 JUMPI DUP1 SWAP11 POP PUSH1 0x1 PUSH1 0xA PUSH1 0x0 DUP9 PUSH20 0xFFFFFFFFFFFFFFFFFFFFFFFFFFFFFFFFFFFFFFFF AND PUSH20 0xFFFFFFFFFFFFFFFFFFFFFFFFFFFFFFFFFFFFFFFF AND DUP2 MSTORE PUSH1 0x20 ADD SWAP1 DUP2 MSTORE PUSH1 0x20 ADD PUSH1 0x0 KECCAK256 PUSH1 0x5 ADD PUSH1 0x0 DUP4 DUP2 MSTORE PUSH1 0x20 ADD SWAP1 DUP2 MSTORE PUSH1 0x20 ADD PUSH1 0x0 KECCAK256 SLOAD PUSH2 0x1B31 SWAP2 SWAP1 PUSH2 0x4789 JUMP JUMPDEST SWAP9 POP PUSH1 0x1 SWAP7 POP JUMPDEST PUSH2 0x1B46 DUP12 DUP8 DUP12 PUSH1 0x1 DUP12 PUSH2 0x1890 JUMP JUMPDEST PUSH2 0x1E2A JUMP JUMPDEST PUSH1 0xA PUSH1 0x0 DUP8 PUSH20 0xFFFFFFFFFFFFFFFFFFFFFFFFFFFFFFFFFFFFFFFF AND PUSH20 0xFFFFFFFFFFFFFFFFFFFFFFFFFFFFFFFFFFFFFFFF AND DUP2 MSTORE PUSH1 0x20 ADD SWAP1 DUP2 MSTORE PUSH1 0x20 ADD PUSH1 0x0 KECCAK256 PUSH1 0x0 ADD PUSH1 0x0 SWAP1 SLOAD SWAP1 PUSH2 0x100 EXP SWAP1 DIV PUSH1 0xFF AND PUSH2 0x1BD7 JUMPI PUSH1 0xB PUSH1 0x0 PUSH1 0x1 DUP2 MSTORE PUSH1 0x20 ADD SWAP1 DUP2 MSTORE PUSH1 0x20 ADD PUSH1 0x0 KECCAK256 PUSH1 0x0 SWAP1 SLOAD SWAP1 PUSH2 0x100 EXP SWAP1 DIV PUSH20 0xFFFFFFFFFFFFFFFFFFFFFFFFFFFFFFFFFFFFFFFF AND SWAP6 POP JUMPDEST PUSH1 0x1 PUSH1 0xA PUSH1 0x0 DUP9 PUSH20 0xFFFFFFFFFFFFFFFFFFFFFFFFFFFFFFFFFFFFFFFF AND PUSH20 0xFFFFFFFFFFFFFFFFFFFFFFFFFFFFFFFFFFFFFFFF AND DUP2 MSTORE PUSH1 0x20 ADD SWAP1 DUP2 MSTORE PUSH1 0x20 ADD PUSH1 0x0 KECCAK256 PUSH1 0x5 ADD PUSH1 0x0 DUP4 DUP2 MSTORE PUSH1 0x20 ADD SWAP1 DUP2 MSTORE PUSH1 0x20 ADD PUSH1 0x0 KECCAK256 SLOAD PUSH2 0x1C37 SWAP2 SWAP1 PUSH2 0x4789 JUMP JUMPDEST PUSH1 0xA PUSH1 0x0 DUP9 PUSH20 0xFFFFFFFFFFFFFFFFFFFFFFFFFFFFFFFFFFFFFFFF AND PUSH20 0xFFFFFFFFFFFFFFFFFFFFFFFFFFFFFFFFFFFFFFFF AND DUP2 MSTORE PUSH1 0x20 ADD SWAP1 DUP2 MSTORE PUSH1 0x20 ADD PUSH1 0x0 KECCAK256 PUSH1 0x5 ADD PUSH1 0x0 DUP4 DUP2 MSTORE PUSH1 0x20 ADD SWAP1 DUP2 MSTORE PUSH1 0x20 ADD PUSH1 0x0 KECCAK256 DUP2 SWAP1 SSTORE POP PUSH1 0x0 DUP7 PUSH20 0xFFFFFFFFFFFFFFFFFFFFFFFFFFFFFFFFFFFFFFFF AND PUSH1 0x9 PUSH1 0x0 DUP5 DUP2 MSTORE PUSH1 0x20 ADD SWAP1 DUP2 MSTORE PUSH1 0x20 ADD PUSH1 0x0 KECCAK256 SLOAD PUSH1 0x40 MLOAD PUSH2 0x1CC7 SWAP1 PUSH2 0x44BD JUMP JUMPDEST PUSH1 0x0 PUSH1 0x40 MLOAD DUP1 DUP4 SUB DUP2 DUP6 DUP8 GAS CALL SWAP3 POP POP POP RETURNDATASIZE DUP1 PUSH1 0x0 DUP2 EQ PUSH2 0x1D04 JUMPI PUSH1 0x40 MLOAD SWAP2 POP PUSH1 0x1F NOT PUSH1 0x3F RETURNDATASIZE ADD AND DUP3 ADD PUSH1 0x40 MSTORE RETURNDATASIZE DUP3 MSTORE RETURNDATASIZE PUSH1 0x0 PUSH1 0x20 DUP5 ADD RETURNDATACOPY PUSH2 0x1D09 JUMP JUMPDEST PUSH1 0x60 SWAP2 POP JUMPDEST POP POP SWAP1 POP DUP1 PUSH2 0x1D4D JUMPI PUSH1 0x40 MLOAD PUSH32 0x8C379A000000000000000000000000000000000000000000000000000000000 DUP2 MSTORE PUSH1 0x4 ADD PUSH2 0x1D44 SWAP1 PUSH2 0x451E JUMP JUMPDEST PUSH1 0x40 MLOAD DUP1 SWAP2 SUB SWAP1 REVERT JUMPDEST DUP1 ISZERO PUSH2 0x1DBB JUMPI CALLER PUSH20 0xFFFFFFFFFFFFFFFFFFFFFFFFFFFFFFFFFFFFFFFF AND DUP8 PUSH20 0xFFFFFFFFFFFFFFFFFFFFFFFFFFFFFFFFFFFFFFFF AND PUSH32 0xCE7DC747411AC40191C5335943FCC79D8C2D8C01CA5AE83D9FED160409FA6120 DUP5 TIMESTAMP PUSH1 0x40 MLOAD PUSH2 0x1DB2 SWAP3 SWAP2 SWAP1 PUSH2 0x49A5 JUMP JUMPDEST PUSH1 0x40 MLOAD DUP1 SWAP2 SUB SWAP1 LOG3 JUMPDEST DUP1 PUSH2 0x1E28 JUMPI CALLER PUSH20 0xFFFFFFFFFFFFFFFFFFFFFFFFFFFFFFFFFFFFFFFF AND DUP8 PUSH20 0xFFFFFFFFFFFFFFFFFFFFFFFFFFFFFFFFFFFFFFFF AND PUSH32 0x7DF0F6BAC5C770AF7783500BB7F1C0D073ADB11316004BA6F9F6C704AF1A1AEA DUP5 TIMESTAMP PUSH1 0x40 MLOAD PUSH2 0x1E1F SWAP3 SWAP2 SWAP1 PUSH2 0x49A5 JUMP JUMPDEST PUSH1 0x40 MLOAD DUP1 SWAP2 SUB SWAP1 LOG3 JUMPDEST POP JUMPDEST JUMPDEST POP POP POP POP POP POP POP POP POP POP POP JUMP JUMPDEST PUSH1 0x0 DUP1 PUSH1 0x0 DUP1 PUSH1 0x1 DUP10 PUSH2 0x1E4B SWAP2 SWAP1 PUSH2 0x4789 JUMP JUMPDEST SWAP1 POP PUSH1 0x0 DUP1 PUSH1 0x2 DUP4 GT PUSH2 0x1ED5 JUMPI PUSH1 0xB PUSH1 0x0 PUSH1 0xA PUSH1 0x0 DUP14 PUSH20 0xFFFFFFFFFFFFFFFFFFFFFFFFFFFFFFFFFFFFFFFF AND PUSH20 0xFFFFFFFFFFFFFFFFFFFFFFFFFFFFFFFFFFFFFFFF AND DUP2 MSTORE PUSH1 0x20 ADD SWAP1 DUP2 MSTORE PUSH1 0x20 ADD PUSH1 0x0 KECCAK256 PUSH1 0x2 ADD SLOAD DUP2 MSTORE PUSH1 0x20 ADD SWAP1 DUP2 MSTORE PUSH1 0x20 ADD PUSH1 0x0 KECCAK256 PUSH1 0x0 SWAP1 SLOAD SWAP1 PUSH2 0x100 EXP SWAP1 DIV PUSH20 0xFFFFFFFFFFFFFFFFFFFFFFFFFFFFFFFFFFFFFFFF AND SWAP1 POP PUSH2 0x1ED9 JUMP JUMPDEST DUP10 SWAP1 POP JUMPDEST PUSH2 0x1EE4 DUP2 DUP13 DUP12 PUSH2 0x2D3D JUMP JUMPDEST DUP1 SWAP3 POP DUP2 SWAP4 POP POP POP PUSH1 0xA PUSH1 0x0 DUP4 PUSH20 0xFFFFFFFFFFFFFFFFFFFFFFFFFFFFFFFFFFFFFFFF AND PUSH20 0xFFFFFFFFFFFFFFFFFFFFFFFFFFFFFFFFFFFFFFFF AND DUP2 MSTORE PUSH1 0x20 ADD SWAP1 DUP2 MSTORE PUSH1 0x20 ADD PUSH1 0x0 KECCAK256 PUSH1 0x0 ADD PUSH1 0x0 SWAP1 SLOAD SWAP1 PUSH2 0x100 EXP SWAP1 DIV PUSH1 0xFF AND ISZERO DUP1 PUSH2 0x2051 JUMPI POP PUSH1 0x0 PUSH20 0xFFFFFFFFFFFFFFFFFFFFFFFFFFFFFFFFFFFFFFFF AND PUSH1 0xD PUSH1 0x0 DUP6 DUP2 MSTORE PUSH1 0x20 ADD SWAP1 DUP2 MSTORE PUSH1 0x20 ADD PUSH1 0x0 KECCAK256 PUSH1 0x0 DUP5 PUSH20 0xFFFFFFFFFFFFFFFFFFFFFFFFFFFFFFFFFFFFFFFF AND PUSH20 0xFFFFFFFFFFFFFFFFFFFFFFFFFFFFFFFFFFFFFFFF AND DUP2 MSTORE PUSH1 0x20 ADD SWAP1 DUP2 MSTORE PUSH1 0x20 ADD PUSH1 0x0 KECCAK256 PUSH1 0x0 SWAP1 SLOAD SWAP1 PUSH2 0x100 EXP SWAP1 DIV PUSH20 0xFFFFFFFFFFFFFFFFFFFFFFFFFFFFFFFFFFFFFFFF AND PUSH20 0xFFFFFFFFFFFFFFFFFFFFFFFFFFFFFFFFFFFFFFFF AND EQ DUP1 ISZERO PUSH2 0x2050 JUMPI POP PUSH1 0x0 ISZERO ISZERO PUSH1 0xE PUSH1 0x0 DUP6 DUP2 MSTORE PUSH1 0x20 ADD SWAP1 DUP2 MSTORE PUSH1 0x20 ADD PUSH1 0x0 KECCAK256 PUSH1 0x0 DUP5 PUSH20 0xFFFFFFFFFFFFFFFFFFFFFFFFFFFFFFFFFFFFFFFF AND PUSH20 0xFFFFFFFFFFFFFFFFFFFFFFFFFFFFFFFFFFFFFFFF AND DUP2 MSTORE PUSH1 0x20 ADD SWAP1 DUP2 MSTORE PUSH1 0x20 ADD PUSH1 0x0 KECCAK256 PUSH1 0x0 SWAP1 SLOAD SWAP1 PUSH2 0x100 EXP SWAP1 DIV PUSH1 0xFF AND ISZERO ISZERO EQ JUMPDEST JUMPDEST ISZERO PUSH2 0x22EF JUMPI PUSH1 0xA PUSH1 0x0 DUP4 PUSH20 0xFFFFFFFFFFFFFFFFFFFFFFFFFFFFFFFFFFFFFFFF AND PUSH20 0xFFFFFFFFFFFFFFFFFFFFFFFFFFFFFFFFFFFFFFFF AND DUP2 MSTORE PUSH1 0x20 ADD SWAP1 DUP2 MSTORE PUSH1 0x20 ADD PUSH1 0x0 KECCAK256 PUSH1 0x0 ADD PUSH1 0x0 SWAP1 SLOAD SWAP1 PUSH2 0x100 EXP SWAP1 DIV PUSH1 0xFF AND PUSH2 0x20E2 JUMPI PUSH1 0xB PUSH1 0x0 PUSH1 0x1 DUP2 MSTORE PUSH1 0x20 ADD SWAP1 DUP2 MSTORE PUSH1 0x20 ADD PUSH1 0x0 KECCAK256 PUSH1 0x0 SWAP1 SLOAD SWAP1 PUSH2 0x100 EXP SWAP1 DIV PUSH20 0xFFFFFFFFFFFFFFFFFFFFFFFFFFFFFFFFFFFFFFFF AND SWAP2 POP JUMPDEST PUSH1 0xB PUSH1 0x0 PUSH1 0x1 DUP2 MSTORE PUSH1 0x20 ADD SWAP1 DUP2 MSTORE PUSH1 0x20 ADD PUSH1 0x0 KECCAK256 PUSH1 0x0 SWAP1 SLOAD SWAP1 PUSH2 0x100 EXP SWAP1 DIV PUSH20 0xFFFFFFFFFFFFFFFFFFFFFFFFFFFFFFFFFFFFFFFF AND PUSH20 0xFFFFFFFFFFFFFFFFFFFFFFFFFFFFFFFFFFFFFFFF AND DUP3 PUSH20 0xFFFFFFFFFFFFFFFFFFFFFFFFFFFFFFFFFFFFFFFF AND EQ PUSH2 0x2205 JUMPI PUSH1 0x1 PUSH1 0xA PUSH1 0x0 DUP5 PUSH20 0xFFFFFFFFFFFFFFFFFFFFFFFFFFFFFFFFFFFFFFFF AND PUSH20 0xFFFFFFFFFFFFFFFFFFFFFFFFFFFFFFFFFFFFFFFF AND DUP2 MSTORE PUSH1 0x20 ADD SWAP1 DUP2 MSTORE PUSH1 0x20 ADD PUSH1 0x0 KECCAK256 PUSH1 0x5 ADD PUSH1 0x0 DUP6 DUP2 MSTORE PUSH1 0x20 ADD SWAP1 DUP2 MSTORE PUSH1 0x20 ADD PUSH1 0x0 KECCAK256 SLOAD PUSH2 0x21A9 SWAP2 SWAP1 PUSH2 0x4789 JUMP JUMPDEST PUSH1 0xA PUSH1 0x0 DUP5 PUSH20 0xFFFFFFFFFFFFFFFFFFFFFFFFFFFFFFFFFFFFFFFF AND PUSH20 0xFFFFFFFFFFFFFFFFFFFFFFFFFFFFFFFFFFFFFFFF AND DUP2 MSTORE PUSH1 0x20 ADD SWAP1 DUP2 MSTORE PUSH1 0x20 ADD PUSH1 0x0 KECCAK256 PUSH1 0x5 ADD PUSH1 0x0 DUP6 DUP2 MSTORE PUSH1 0x20 ADD SWAP1 DUP2 MSTORE PUSH1 0x20 ADD PUSH1 0x0 KECCAK256 DUP2 SWAP1 SSTORE POP PUSH1 0x0 SWAP7 POP JUMPDEST DUP1 PUSH1 0xD PUSH1 0x0 DUP6 DUP2 MSTORE PUSH1 0x20 ADD SWAP1 DUP2 MSTORE PUSH1 0x20 ADD PUSH1 0x0 KECCAK256 PUSH1 0x0 DUP5 PUSH20 0xFFFFFFFFFFFFFFFFFFFFFFFFFFFFFFFFFFFFFFFF AND PUSH20 0xFFFFFFFFFFFFFFFFFFFFFFFFFFFFFFFFFFFFFFFF AND DUP2 MSTORE PUSH1 0x20 ADD SWAP1 DUP2 MSTORE PUSH1 0x20 ADD PUSH1 0x0 KECCAK256 PUSH1 0x0 PUSH2 0x100 EXP DUP2 SLOAD DUP2 PUSH20 0xFFFFFFFFFFFFFFFFFFFFFFFFFFFFFFFFFFFFFFFF MUL NOT AND SWAP1 DUP4 PUSH20 0xFFFFFFFFFFFFFFFFFFFFFFFFFFFFFFFFFFFFFFFF AND MUL OR SWAP1 SSTORE POP PUSH1 0x1 PUSH1 0xC PUSH1 0x0 DUP6 DUP2 MSTORE PUSH1 0x20 ADD SWAP1 DUP2 MSTORE PUSH1 0x20 ADD PUSH1 0x0 KECCAK256 PUSH1 0x0 DUP5 PUSH20 0xFFFFFFFFFFFFFFFFFFFFFFFFFFFFFFFFFFFFFFFF AND PUSH20 0xFFFFFFFFFFFFFFFFFFFFFFFFFFFFFFFFFFFFFFFF AND DUP2 MSTORE PUSH1 0x20 ADD SWAP1 DUP2 MSTORE PUSH1 0x20 ADD PUSH1 0x0 KECCAK256 DUP2 SWAP1 SSTORE POP PUSH2 0x252A JUMP JUMPDEST PUSH1 0x0 PUSH1 0xD PUSH1 0x0 DUP6 DUP2 MSTORE PUSH1 0x20 ADD SWAP1 DUP2 MSTORE PUSH1 0x20 ADD PUSH1 0x0 KECCAK256 PUSH1 0x0 DUP5 PUSH20 0xFFFFFFFFFFFFFFFFFFFFFFFFFFFFFFFFFFFFFFFF AND PUSH20 0xFFFFFFFFFFFFFFFFFFFFFFFFFFFFFFFFFFFFFFFF AND DUP2 MSTORE PUSH1 0x20 ADD SWAP1 DUP2 MSTORE PUSH1 0x20 ADD PUSH1 0x0 KECCAK256 PUSH1 0x0 SWAP1 SLOAD SWAP1 PUSH2 0x100 EXP SWAP1 DIV PUSH20 0xFFFFFFFFFFFFFFFFFFFFFFFFFFFFFFFFFFFFFFFF AND SWAP1 POP PUSH2 0x236F DUP4 DUP3 DUP5 PUSH2 0x34A7 JUMP JUMPDEST ISZERO PUSH2 0x237D JUMPI PUSH1 0x1 SWAP9 POP PUSH2 0x2528 JUMP JUMPDEST PUSH1 0x0 PUSH1 0xD PUSH1 0x0 DUP7 DUP2 MSTORE PUSH1 0x20 ADD SWAP1 DUP2 MSTORE PUSH1 0x20 ADD PUSH1 0x0 KECCAK256 PUSH1 0x0 DUP6 PUSH20 0xFFFFFFFFFFFFFFFFFFFFFFFFFFFFFFFFFFFFFFFF AND PUSH20 0xFFFFFFFFFFFFFFFFFFFFFFFFFFFFFFFFFFFFFFFF AND DUP2 MSTORE PUSH1 0x20 ADD SWAP1 DUP2 MSTORE PUSH1 0x20 ADD PUSH1 0x0 KECCAK256 PUSH1 0x0 PUSH2 0x100 EXP DUP2 SLOAD DUP2 PUSH20 0xFFFFFFFFFFFFFFFFFFFFFFFFFFFFFFFFFFFFFFFF MUL NOT AND SWAP1 DUP4 PUSH20 0xFFFFFFFFFFFFFFFFFFFFFFFFFFFFFFFFFFFFFFFF AND MUL OR SWAP1 SSTORE POP PUSH1 0x1 PUSH1 0xE PUSH1 0x0 DUP7 DUP2 MSTORE PUSH1 0x20 ADD SWAP1 DUP2 MSTORE PUSH1 0x20 ADD PUSH1 0x0 KECCAK256 PUSH1 0x0 DUP6 PUSH20 0xFFFFFFFFFFFFFFFFFFFFFFFFFFFFFFFFFFFFFFFF AND PUSH20 0xFFFFFFFFFFFFFFFFFFFFFFFFFFFFFFFFFFFFFFFF AND DUP2 MSTORE PUSH1 0x20 ADD SWAP1 DUP2 MSTORE PUSH1 0x20 ADD PUSH1 0x0 KECCAK256 PUSH1 0x0 PUSH2 0x100 EXP DUP2 SLOAD DUP2 PUSH1 0xFF MUL NOT AND SWAP1 DUP4 ISZERO ISZERO MUL OR SWAP1 SSTORE POP PUSH1 0x1 PUSH1 0xC PUSH1 0x0 DUP7 DUP2 MSTORE PUSH1 0x20 ADD SWAP1 DUP2 MSTORE PUSH1 0x20 ADD PUSH1 0x0 KECCAK256 PUSH1 0x0 DUP6 PUSH20 0xFFFFFFFFFFFFFFFFFFFFFFFFFFFFFFFFFFFFFFFF AND PUSH20 0xFFFFFFFFFFFFFFFFFFFFFFFFFFFFFFFFFFFFFFFF AND DUP2 MSTORE PUSH1 0x20 ADD SWAP1 DUP2 MSTORE PUSH1 0x20 ADD PUSH1 0x0 KECCAK256 SLOAD PUSH2 0x24D3 SWAP2 SWAP1 PUSH2 0x4789 JUMP JUMPDEST PUSH1 0xC PUSH1 0x0 DUP7 DUP2 MSTORE PUSH1 0x20 ADD SWAP1 DUP2 MSTORE PUSH1 0x20 ADD PUSH1 0x0 KECCAK256 PUSH1 0x0 DUP6 PUSH20 0xFFFFFFFFFFFFFFFFFFFFFFFFFFFFFFFFFFFFFFFF AND PUSH20 0xFFFFFFFFFFFFFFFFFFFFFFFFFFFFFFFFFFFFFFFF AND DUP2 MSTORE PUSH1 0x20 ADD SWAP1 DUP2 MSTORE PUSH1 0x20 ADD PUSH1 0x0 KECCAK256 DUP2 SWAP1 SSTORE POP JUMPDEST POP JUMPDEST PUSH1 0xA PUSH1 0x0 DUP3 PUSH20 0xFFFFFFFFFFFFFFFFFFFFFFFFFFFFFFFFFFFFFFFF AND PUSH20 0xFFFFFFFFFFFFFFFFFFFFFFFFFFFFFFFFFFFFFFFF AND DUP2 MSTORE PUSH1 0x20 ADD SWAP1 DUP2 MSTORE PUSH1 0x20 ADD PUSH1 0x0 KECCAK256 PUSH1 0x6 ADD DUP4 SWAP1 DUP1 PUSH1 0x1 DUP2 SLOAD ADD DUP1 DUP3 SSTORE DUP1 SWAP2 POP POP PUSH1 0x1 SWAP1 SUB SWAP1 PUSH1 0x0 MSTORE PUSH1 0x20 PUSH1 0x0 KECCAK256 ADD PUSH1 0x0 SWAP1 SWAP2 SWAP1 SWAP2 SWAP1 SWAP2 POP SSTORE DUP2 DUP8 DUP10 SWAP6 POP SWAP6 POP SWAP6 POP POP POP POP SWAP6 POP SWAP6 POP SWAP6 SWAP3 POP POP POP JUMP JUMPDEST PUSH1 0x0 DUP1 PUSH1 0x0 PUSH1 0x1 SWAP1 POP PUSH1 0x0 DUP1 DUP9 PUSH2 0x2638 JUMPI PUSH1 0xB PUSH1 0x0 PUSH1 0xA PUSH1 0x0 DUP12 PUSH20 0xFFFFFFFFFFFFFFFFFFFFFFFFFFFFFFFFFFFFFFFF AND PUSH20 0xFFFFFFFFFFFFFFFFFFFFFFFFFFFFFFFFFFFFFFFF AND DUP2 MSTORE PUSH1 0x20 ADD SWAP1 DUP2 MSTORE PUSH1 0x20 ADD PUSH1 0x0 KECCAK256 PUSH1 0x2 ADD SLOAD DUP2 MSTORE PUSH1 0x20 ADD SWAP1 DUP2 MSTORE PUSH1 0x20 ADD PUSH1 0x0 KECCAK256 PUSH1 0x0 SWAP1 SLOAD SWAP1 PUSH2 0x100 EXP SWAP1 DIV PUSH20 0xFFFFFFFFFFFFFFFFFFFFFFFFFFFFFFFFFFFFFFFF AND SWAP2 POP PUSH2 0x263C JUMP JUMPDEST DUP8 SWAP2 POP JUMPDEST PUSH1 0x1 PUSH1 0xA PUSH1 0x0 DUP5 PUSH20 0xFFFFFFFFFFFFFFFFFFFFFFFFFFFFFFFFFFFFFFFF AND PUSH20 0xFFFFFFFFFFFFFFFFFFFFFFFFFFFFFFFFFFFFFFFF AND DUP2 MSTORE PUSH1 0x20 ADD SWAP1 DUP2 MSTORE PUSH1 0x20 ADD PUSH1 0x0 KECCAK256 PUSH1 0x5 ADD PUSH1 0x0 DUP10 DUP2 MSTORE PUSH1 0x20 ADD SWAP1 DUP2 MSTORE PUSH1 0x20 ADD PUSH1 0x0 KECCAK256 SLOAD PUSH2 0x269C SWAP2 SWAP1 PUSH2 0x4789 JUMP JUMPDEST PUSH1 0xA PUSH1 0x0 DUP5 PUSH20 0xFFFFFFFFFFFFFFFFFFFFFFFFFFFFFFFFFFFFFFFF AND PUSH20 0xFFFFFFFFFFFFFFFFFFFFFFFFFFFFFFFFFFFFFFFF AND DUP2 MSTORE PUSH1 0x20 ADD SWAP1 DUP2 MSTORE PUSH1 0x20 ADD PUSH1 0x0 KECCAK256 PUSH1 0x5 ADD PUSH1 0x0 DUP10 DUP2 MSTORE PUSH1 0x20 ADD SWAP1 DUP2 MSTORE PUSH1 0x20 ADD PUSH1 0x0 KECCAK256 DUP2 SWAP1 SSTORE POP PUSH2 0x26FE DUP3 DUP9 DUP9 PUSH2 0x3876 JUMP JUMPDEST POP DUP1 SWAP2 POP POP PUSH1 0xA PUSH1 0x0 DUP3 PUSH20 0xFFFFFFFFFFFFFFFFFFFFFFFFFFFFFFFFFFFFFFFF AND PUSH20 0xFFFFFFFFFFFFFFFFFFFFFFFFFFFFFFFFFFFFFFFF AND DUP2 MSTORE PUSH1 0x20 ADD SWAP1 DUP2 MSTORE PUSH1 0x20 ADD PUSH1 0x0 KECCAK256 PUSH1 0x0 ADD PUSH1 0x0 SWAP1 SLOAD SWAP1 PUSH2 0x100 EXP SWAP1 DIV PUSH1 0xFF AND PUSH2 0x278F JUMPI PUSH1 0xB PUSH1 0x0 PUSH1 0x1 DUP2 MSTORE PUSH1 0x20 ADD SWAP1 DUP2 MSTORE PUSH1 0x20 ADD PUSH1 0x0 KECCAK256 PUSH1 0x0 SWAP1 SLOAD SWAP1 PUSH2 0x100 EXP SWAP1 DIV PUSH20 0xFFFFFFFFFFFFFFFFFFFFFFFFFFFFFFFFFFFFFFFF AND SWAP1 POP JUMPDEST DUP1 DUP4 SWAP5 POP SWAP5 POP POP POP POP SWAP5 POP SWAP5 SWAP3 POP POP POP JUMP JUMPDEST PUSH1 0x0 DUP1 PUSH1 0x0 DUP1 DUP7 SWAP1 POP PUSH1 0x0 PUSH1 0x1 PUSH1 0xA PUSH1 0x0 DUP13 PUSH20 0xFFFFFFFFFFFFFFFFFFFFFFFFFFFFFFFFFFFFFFFF AND PUSH20 0xFFFFFFFFFFFFFFFFFFFFFFFFFFFFFFFFFFFFFFFF AND DUP2 MSTORE PUSH1 0x20 ADD SWAP1 DUP2 MSTORE PUSH1 0x20 ADD PUSH1 0x0 KECCAK256 PUSH1 0x5 ADD PUSH1 0x0 DUP12 DUP2 MSTORE PUSH1 0x20 ADD SWAP1 DUP2 MSTORE PUSH1 0x20 ADD PUSH1 0x0 KECCAK256 SLOAD PUSH2 0x280C SWAP2 SWAP1 PUSH2 0x4789 JUMP JUMPDEST SWAP1 POP PUSH1 0x2 PUSH1 0xC PUSH1 0x0 DUP12 DUP2 MSTORE PUSH1 0x20 ADD SWAP1 DUP2 MSTORE PUSH1 0x20 ADD PUSH1 0x0 KECCAK256 PUSH1 0x0 DUP13 PUSH20 0xFFFFFFFFFFFFFFFFFFFFFFFFFFFFFFFFFFFFFFFF AND PUSH20 0xFFFFFFFFFFFFFFFFFFFFFFFFFFFFFFFFFFFFFFFF AND DUP2 MSTORE PUSH1 0x20 ADD SWAP1 DUP2 MSTORE PUSH1 0x20 ADD PUSH1 0x0 KECCAK256 SLOAD EQ ISZERO PUSH2 0x2870 JUMPI PUSH1 0x1 SWAP3 POP PUSH2 0x2D2A JUMP JUMPDEST PUSH1 0x4 DUP2 LT ISZERO DUP1 ISZERO PUSH2 0x288D JUMPI POP PUSH1 0x0 PUSH1 0x4 DUP3 PUSH2 0x288B SWAP2 SWAP1 PUSH2 0x4974 JUMP JUMPDEST EQ JUMPDEST DUP1 ISZERO PUSH2 0x28DC JUMPI POP PUSH1 0x0 PUSH1 0xA PUSH1 0x0 DUP13 PUSH20 0xFFFFFFFFFFFFFFFFFFFFFFFFFFFFFFFFFFFFFFFF AND PUSH20 0xFFFFFFFFFFFFFFFFFFFFFFFFFFFFFFFFFFFFFFFF AND DUP2 MSTORE PUSH1 0x20 ADD SWAP1 DUP2 MSTORE PUSH1 0x20 ADD PUSH1 0x0 KECCAK256 PUSH1 0x2 ADD SLOAD EQ ISZERO JUMPDEST DUP1 ISZERO PUSH2 0x28E8 JUMPI POP PUSH1 0x1 DUP10 EQ JUMPDEST ISZERO PUSH2 0x290F JUMPI PUSH1 0x3 DUP9 EQ DUP1 ISZERO PUSH2 0x28FD JUMPI POP PUSH1 0x4 DUP2 EQ JUMPDEST ISZERO PUSH2 0x2906 JUMPI DUP1 SWAP2 POP JUMPDEST PUSH1 0x1 SWAP3 POP PUSH2 0x2D29 JUMP JUMPDEST PUSH1 0x4 DUP2 LT ISZERO DUP1 ISZERO PUSH2 0x292C JUMPI POP PUSH1 0x0 PUSH1 0x4 DUP3 PUSH2 0x292A SWAP2 SWAP1 PUSH2 0x4974 JUMP JUMPDEST EQ JUMPDEST DUP1 ISZERO PUSH2 0x2938 JUMPI POP PUSH1 0x2 DUP9 EQ JUMPDEST DUP1 ISZERO PUSH2 0x2942 JUMPI POP DUP6 ISZERO JUMPDEST DUP1 ISZERO PUSH2 0x294E JUMPI POP PUSH1 0x1 DUP10 GT JUMPDEST ISZERO PUSH2 0x29D2 JUMPI PUSH1 0xB PUSH1 0x0 PUSH1 0x1 DUP2 MSTORE PUSH1 0x20 ADD SWAP1 DUP2 MSTORE PUSH1 0x20 ADD PUSH1 0x0 KECCAK256 PUSH1 0x0 SWAP1 SLOAD SWAP1 PUSH2 0x100 EXP SWAP1 DIV PUSH20 0xFFFFFFFFFFFFFFFFFFFFFFFFFFFFFFFFFFFFFFFF AND PUSH20 0xFFFFFFFFFFFFFFFFFFFFFFFFFFFFFFFFFFFFFFFF AND DUP11 PUSH20 0xFFFFFFFFFFFFFFFFFFFFFFFFFFFFFFFFFFFFFFFF AND EQ ISZERO PUSH2 0x29C4 JUMPI PUSH1 0x0 SWAP3 POP PUSH2 0x29CD JUMP JUMPDEST PUSH1 0x4 SWAP2 POP PUSH1 0x1 SWAP3 POP JUMPDEST PUSH2 0x2D28 JUMP JUMPDEST PUSH1 0x2 DUP2 EQ DUP1 ISZERO PUSH2 0x2A25 JUMPI POP PUSH1 0x0 PUSH1 0xA PUSH1 0x0 DUP13 PUSH20 0xFFFFFFFFFFFFFFFFFFFFFFFFFFFFFFFFFFFFFFFF AND PUSH20 0xFFFFFFFFFFFFFFFFFFFFFFFFFFFFFFFFFFFFFFFF AND DUP2 MSTORE PUSH1 0x20 ADD SWAP1 DUP2 MSTORE PUSH1 0x20 ADD PUSH1 0x0 KECCAK256 PUSH1 0x2 ADD SLOAD EQ ISZERO JUMPDEST DUP1 ISZERO PUSH2 0x2A2F JUMPI POP DUP7 ISZERO JUMPDEST DUP1 ISZERO PUSH2 0x2A39 JUMPI POP DUP6 ISZERO JUMPDEST ISZERO PUSH2 0x2B48 JUMPI PUSH1 0xA PUSH1 0x0 DUP12 PUSH20 0xFFFFFFFFFFFFFFFFFFFFFFFFFFFFFFFFFFFFFFFF AND PUSH20 0xFFFFFFFFFFFFFFFFFFFFFFFFFFFFFFFFFFFFFFFF AND DUP2 MSTORE PUSH1 0x20 ADD SWAP1 DUP2 MSTORE PUSH1 0x20 ADD PUSH1 0x0 KECCAK256 PUSH1 0x0 ADD PUSH1 0x0 SWAP1 SLOAD SWAP1 PUSH2 0x100 EXP SWAP1 DIV PUSH1 0xFF AND PUSH2 0x2ACA JUMPI PUSH1 0xB PUSH1 0x0 PUSH1 0x1 DUP2 MSTORE PUSH1 0x20 ADD SWAP1 DUP2 MSTORE PUSH1 0x20 ADD PUSH1 0x0 KECCAK256 PUSH1 0x0 SWAP1 SLOAD SWAP1 PUSH2 0x100 EXP SWAP1 DIV PUSH20 0xFFFFFFFFFFFFFFFFFFFFFFFFFFFFFFFFFFFFFFFF AND SWAP10 POP JUMPDEST PUSH1 0xB PUSH1 0x0 PUSH1 0x1 DUP2 MSTORE PUSH1 0x20 ADD SWAP1 DUP2 MSTORE PUSH1 0x20 ADD PUSH1 0x0 KECCAK256 PUSH1 0x0 SWAP1 SLOAD SWAP1 PUSH2 0x100 EXP SWAP1 DIV PUSH20 0xFFFFFFFFFFFFFFFFFFFFFFFFFFFFFFFFFFFFFFFF AND PUSH20 0xFFFFFFFFFFFFFFFFFFFFFFFFFFFFFFFFFFFFFFFF AND DUP11 PUSH20 0xFFFFFFFFFFFFFFFFFFFFFFFFFFFFFFFFFFFFFFFF AND EQ ISZERO PUSH2 0x2B3B JUMPI PUSH1 0x0 SWAP3 POP PUSH2 0x2B43 JUMP JUMPDEST PUSH1 0x1 SWAP3 POP DUP1 SWAP2 POP JUMPDEST PUSH2 0x2D27 JUMP JUMPDEST PUSH1 0x1 DUP2 EQ DUP1 ISZERO PUSH2 0x2B9A JUMPI POP PUSH1 0x0 PUSH1 0xA PUSH1 0x0 DUP13 PUSH20 0xFFFFFFFFFFFFFFFFFFFFFFFFFFFFFFFFFFFFFFFF AND PUSH20 0xFFFFFFFFFFFFFFFFFFFFFFFFFFFFFFFFFFFFFFFF AND DUP2 MSTORE PUSH1 0x20 ADD SWAP1 DUP2 MSTORE PUSH1 0x20 ADD PUSH1 0x0 KECCAK256 PUSH1 0x2 ADD SLOAD EQ JUMPDEST ISZERO PUSH2 0x2C30 JUMPI PUSH1 0xA PUSH1 0x0 DUP12 PUSH20 0xFFFFFFFFFFFFFFFFFFFFFFFFFFFFFFFFFFFFFFFF AND PUSH20 0xFFFFFFFFFFFFFFFFFFFFFFFFFFFFFFFFFFFFFFFF AND DUP2 MSTORE PUSH1 0x20 ADD SWAP1 DUP2 MSTORE PUSH1 0x20 ADD PUSH1 0x0 KECCAK256 PUSH1 0x0 ADD PUSH1 0x0 SWAP1 SLOAD SWAP1 PUSH2 0x100 EXP SWAP1 DIV PUSH1 0xFF AND PUSH2 0x2C2B JUMPI PUSH1 0xB PUSH1 0x0 PUSH1 0x1 DUP2 MSTORE PUSH1 0x20 ADD SWAP1 DUP2 MSTORE PUSH1 0x20 ADD PUSH1 0x0 KECCAK256 PUSH1 0x0 SWAP1 SLOAD SWAP1 PUSH2 0x100 EXP SWAP1 DIV PUSH20 0xFFFFFFFFFFFFFFFFFFFFFFFFFFFFFFFFFFFFFFFF AND SWAP10 POP JUMPDEST PUSH2 0x2D26 JUMP JUMPDEST PUSH1 0x1 DUP2 EQ DUP1 ISZERO PUSH2 0x2C83 JUMPI POP PUSH1 0x0 PUSH1 0xA PUSH1 0x0 DUP13 PUSH20 0xFFFFFFFFFFFFFFFFFFFFFFFFFFFFFFFFFFFFFFFF AND PUSH20 0xFFFFFFFFFFFFFFFFFFFFFFFFFFFFFFFFFFFFFFFF AND DUP2 MSTORE PUSH1 0x20 ADD SWAP1 DUP2 MSTORE PUSH1 0x20 ADD PUSH1 0x0 KECCAK256 PUSH1 0x2 ADD SLOAD EQ ISZERO JUMPDEST DUP1 ISZERO PUSH2 0x2C8C JUMPI POP DUP7 JUMPDEST ISZERO PUSH2 0x2D25 JUMPI PUSH1 0xA PUSH1 0x0 DUP12 PUSH20 0xFFFFFFFFFFFFFFFFFFFFFFFFFFFFFFFFFFFFFFFF AND PUSH20 0xFFFFFFFFFFFFFFFFFFFFFFFFFFFFFFFFFFFFFFFF AND DUP2 MSTORE PUSH1 0x20 ADD SWAP1 DUP2 MSTORE PUSH1 0x20 ADD PUSH1 0x0 KECCAK256 PUSH1 0x0 ADD PUSH1 0x0 SWAP1 SLOAD SWAP1 PUSH2 0x100 EXP SWAP1 DIV PUSH1 0xFF AND PUSH2 0x2D1D JUMPI PUSH1 0xB PUSH1 0x0 PUSH1 0x1 DUP2 MSTORE PUSH1 0x20 ADD SWAP1 DUP2 MSTORE PUSH1 0x20 ADD PUSH1 0x0 KECCAK256 PUSH1 0x0 SWAP1 SLOAD SWAP1 PUSH2 0x100 EXP SWAP1 DIV PUSH20 0xFFFFFFFFFFFFFFFFFFFFFFFFFFFFFFFFFFFFFFFF AND SWAP10 POP JUMPDEST PUSH1 0x1 SWAP3 POP DUP1 SWAP2 POP JUMPDEST JUMPDEST JUMPDEST JUMPDEST JUMPDEST JUMPDEST DUP3 DUP3 SWAP5 POP SWAP5 POP POP POP POP SWAP6 POP SWAP6 SWAP4 POP POP POP POP JUMP JUMPDEST PUSH1 0x0 DUP1 PUSH1 0x0 DUP1 DUP7 SWAP1 POP PUSH1 0x0 JUMPDEST PUSH1 0x9 DUP2 SLT ISZERO PUSH2 0x33DF JUMPI PUSH1 0x1 PUSH1 0xA PUSH1 0x0 DUP11 PUSH20 0xFFFFFFFFFFFFFFFFFFFFFFFFFFFFFFFFFFFFFFFF AND PUSH20 0xFFFFFFFFFFFFFFFFFFFFFFFFFFFFFFFFFFFFFFFF AND DUP2 MSTORE PUSH1 0x20 ADD SWAP1 DUP2 MSTORE PUSH1 0x20 ADD PUSH1 0x0 KECCAK256 PUSH1 0x2 ADD SLOAD EQ DUP1 PUSH2 0x2E02 JUMPI POP PUSH1 0xB PUSH1 0x0 PUSH1 0x1 DUP2 MSTORE PUSH1 0x20 ADD SWAP1 DUP2 MSTORE PUSH1 0x20 ADD PUSH1 0x0 KECCAK256 PUSH1 0x0 SWAP1 SLOAD SWAP1 PUSH2 0x100 EXP SWAP1 DIV PUSH20 0xFFFFFFFFFFFFFFFFFFFFFFFFFFFFFFFFFFFFFFFF AND PUSH20 0xFFFFFFFFFFFFFFFFFFFFFFFFFFFFFFFFFFFFFFFF AND DUP4 PUSH20 0xFFFFFFFFFFFFFFFFFFFFFFFFFFFFFFFFFFFFFFFF AND EQ JUMPDEST DUP1 PUSH2 0x2E6C JUMPI POP PUSH1 0xB PUSH1 0x0 PUSH1 0x1 DUP2 MSTORE PUSH1 0x20 ADD SWAP1 DUP2 MSTORE PUSH1 0x20 ADD PUSH1 0x0 KECCAK256 PUSH1 0x0 SWAP1 SLOAD SWAP1 PUSH2 0x100 EXP SWAP1 DIV PUSH20 0xFFFFFFFFFFFFFFFFFFFFFFFFFFFFFFFFFFFFFFFF AND PUSH20 0xFFFFFFFFFFFFFFFFFFFFFFFFFFFFFFFFFFFFFFFF AND DUP3 PUSH20 0xFFFFFFFFFFFFFFFFFFFFFFFFFFFFFFFFFFFFFFFF AND EQ JUMPDEST ISZERO PUSH2 0x2E76 JUMPI PUSH2 0x33DF JUMP JUMPDEST PUSH1 0x0 PUSH1 0x1 PUSH1 0xA PUSH1 0x0 DUP6 PUSH20 0xFFFFFFFFFFFFFFFFFFFFFFFFFFFFFFFFFFFFFFFF AND PUSH20 0xFFFFFFFFFFFFFFFFFFFFFFFFFFFFFFFFFFFFFFFF AND DUP2 MSTORE PUSH1 0x20 ADD SWAP1 DUP2 MSTORE PUSH1 0x20 ADD PUSH1 0x0 KECCAK256 PUSH1 0x6 ADD DUP1 SLOAD SWAP1 POP PUSH2 0x2ECA SWAP2 SWAP1 PUSH2 0x4940 JUMP JUMPDEST SWAP1 POP PUSH1 0xA PUSH1 0x0 DUP5 PUSH20 0xFFFFFFFFFFFFFFFFFFFFFFFFFFFFFFFFFFFFFFFF AND PUSH20 0xFFFFFFFFFFFFFFFFFFFFFFFFFFFFFFFFFFFFFFFF AND DUP2 MSTORE PUSH1 0x20 ADD SWAP1 DUP2 MSTORE PUSH1 0x20 ADD PUSH1 0x0 KECCAK256 PUSH1 0x6 ADD DUP2 DUP2 SLOAD DUP2 LT PUSH2 0x2F20 JUMPI PUSH2 0x2F1F PUSH2 0x47DF JUMP JUMPDEST JUMPDEST SWAP1 PUSH1 0x0 MSTORE PUSH1 0x20 PUSH1 0x0 KECCAK256 ADD SLOAD SWAP7 POP PUSH1 0x0 PUSH1 0xB PUSH1 0x0 PUSH1 0xA PUSH1 0x0 DUP8 PUSH20 0xFFFFFFFFFFFFFFFFFFFFFFFFFFFFFFFFFFFFFFFF AND PUSH20 0xFFFFFFFFFFFFFFFFFFFFFFFFFFFFFFFFFFFFFFFF AND DUP2 MSTORE PUSH1 0x20 ADD SWAP1 DUP2 MSTORE PUSH1 0x20 ADD PUSH1 0x0 KECCAK256 PUSH1 0x2 ADD SLOAD DUP2 MSTORE PUSH1 0x20 ADD SWAP1 DUP2 MSTORE PUSH1 0x20 ADD PUSH1 0x0 KECCAK256 PUSH1 0x0 SWAP1 SLOAD SWAP1 PUSH2 0x100 EXP SWAP1 DIV PUSH20 0xFFFFFFFFFFFFFFFFFFFFFFFFFFFFFFFFFFFFFFFF AND SWAP1 POP PUSH1 0x0 PUSH1 0xB PUSH1 0x0 PUSH1 0xA PUSH1 0x0 DUP6 PUSH20 0xFFFFFFFFFFFFFFFFFFFFFFFFFFFFFFFFFFFFFFFF AND PUSH20 0xFFFFFFFFFFFFFFFFFFFFFFFFFFFFFFFFFFFFFFFF AND DUP2 MSTORE PUSH1 0x20 ADD SWAP1 DUP2 MSTORE PUSH1 0x20 ADD PUSH1 0x0 KECCAK256 PUSH1 0x2 ADD SLOAD DUP2 MSTORE PUSH1 0x20 ADD SWAP1 DUP2 MSTORE PUSH1 0x20 ADD PUSH1 0x0 KECCAK256 PUSH1 0x0 SWAP1 SLOAD SWAP1 PUSH2 0x100 EXP SWAP1 DIV PUSH20 0xFFFFFFFFFFFFFFFFFFFFFFFFFFFFFFFFFFFFFFFF AND SWAP1 POP PUSH1 0x0 PUSH1 0x1 SWAP1 POP JUMPDEST DUP11 DUP2 LT ISZERO PUSH2 0x3128 JUMPI PUSH1 0xB PUSH1 0x0 PUSH1 0x1 DUP2 MSTORE PUSH1 0x20 ADD SWAP1 DUP2 MSTORE PUSH1 0x20 ADD PUSH1 0x0 KECCAK256 PUSH1 0x0 SWAP1 SLOAD SWAP1 PUSH2 0x100 EXP SWAP1 DIV PUSH20 0xFFFFFFFFFFFFFFFFFFFFFFFFFFFFFFFFFFFFFFFF AND PUSH20 0xFFFFFFFFFFFFFFFFFFFFFFFFFFFFFFFFFFFFFFFF AND DUP3 PUSH20 0xFFFFFFFFFFFFFFFFFFFFFFFFFFFFFFFFFFFFFFFF AND EQ ISZERO PUSH2 0x309D JUMPI PUSH2 0x3128 JUMP JUMPDEST PUSH1 0xB PUSH1 0x0 PUSH1 0xA PUSH1 0x0 DUP6 PUSH20 0xFFFFFFFFFFFFFFFFFFFFFFFFFFFFFFFFFFFFFFFF AND PUSH20 0xFFFFFFFFFFFFFFFFFFFFFFFFFFFFFFFFFFFFFFFF AND DUP2 MSTORE PUSH1 0x20 ADD SWAP1 DUP2 MSTORE PUSH1 0x20 ADD PUSH1 0x0 KECCAK256 PUSH1 0x2 ADD SLOAD DUP2 MSTORE PUSH1 0x20 ADD SWAP1 DUP2 MSTORE PUSH1 0x20 ADD PUSH1 0x0 KECCAK256 PUSH1 0x0 SWAP1 SLOAD SWAP1 PUSH2 0x100 EXP SWAP1 DIV PUSH20 0xFFFFFFFFFFFFFFFFFFFFFFFFFFFFFFFFFFFFFFFF AND SWAP2 POP DUP1 DUP1 PUSH2 0x3120 SWAP1 PUSH2 0x4740 JUMP JUMPDEST SWAP2 POP POP PUSH2 0x3028 JUMP JUMPDEST POP PUSH1 0x1 DUP11 PUSH2 0x3136 SWAP2 SWAP1 PUSH2 0x4789 JUMP JUMPDEST DUP10 LT ISZERO PUSH2 0x33BE JUMPI PUSH1 0xA PUSH1 0x0 DUP3 PUSH20 0xFFFFFFFFFFFFFFFFFFFFFFFFFFFFFFFFFFFFFFFF AND PUSH20 0xFFFFFFFFFFFFFFFFFFFFFFFFFFFFFFFFFFFFFFFF AND DUP2 MSTORE PUSH1 0x20 ADD SWAP1 DUP2 MSTORE PUSH1 0x20 ADD PUSH1 0x0 KECCAK256 PUSH1 0x0 ADD PUSH1 0x0 SWAP1 SLOAD SWAP1 PUSH2 0x100 EXP SWAP1 DIV PUSH1 0xFF AND ISZERO DUP1 PUSH2 0x31DB JUMPI POP PUSH1 0x0 PUSH1 0xA PUSH1 0x0 DUP5 PUSH20 0xFFFFFFFFFFFFFFFFFFFFFFFFFFFFFFFFFFFFFFFF AND PUSH20 0xFFFFFFFFFFFFFFFFFFFFFFFFFFFFFFFFFFFFFFFF AND DUP2 MSTORE PUSH1 0x20 ADD SWAP1 DUP2 MSTORE PUSH1 0x20 ADD PUSH1 0x0 KECCAK256 PUSH1 0x2 ADD SLOAD EQ JUMPDEST DUP1 PUSH2 0x3228 JUMPI POP PUSH1 0x1 PUSH1 0xA PUSH1 0x0 DUP5 PUSH20 0xFFFFFFFFFFFFFFFFFFFFFFFFFFFFFFFFFFFFFFFF AND PUSH20 0xFFFFFFFFFFFFFFFFFFFFFFFFFFFFFFFFFFFFFFFF AND DUP2 MSTORE PUSH1 0x20 ADD SWAP1 DUP2 MSTORE PUSH1 0x20 ADD PUSH1 0x0 KECCAK256 PUSH1 0x2 ADD SLOAD EQ JUMPDEST ISZERO PUSH2 0x33B3 JUMPI PUSH1 0xA PUSH1 0x0 PUSH1 0xB PUSH1 0x0 PUSH1 0xA PUSH1 0x0 DUP8 PUSH20 0xFFFFFFFFFFFFFFFFFFFFFFFFFFFFFFFFFFFFFFFF AND PUSH20 0xFFFFFFFFFFFFFFFFFFFFFFFFFFFFFFFFFFFFFFFF AND DUP2 MSTORE PUSH1 0x20 ADD SWAP1 DUP2 MSTORE PUSH1 0x20 ADD PUSH1 0x0 KECCAK256 PUSH1 0x2 ADD SLOAD DUP2 MSTORE PUSH1 0x20 ADD SWAP1 DUP2 MSTORE PUSH1 0x20 ADD PUSH1 0x0 KECCAK256 PUSH1 0x0 SWAP1 SLOAD SWAP1 PUSH2 0x100 EXP SWAP1 DIV PUSH20 0xFFFFFFFFFFFFFFFFFFFFFFFFFFFFFFFFFFFFFFFF AND PUSH20 0xFFFFFFFFFFFFFFFFFFFFFFFFFFFFFFFFFFFFFFFF AND PUSH20 0xFFFFFFFFFFFFFFFFFFFFFFFFFFFFFFFFFFFFFFFF AND DUP2 MSTORE PUSH1 0x20 ADD SWAP1 DUP2 MSTORE PUSH1 0x20 ADD PUSH1 0x0 KECCAK256 PUSH1 0x0 ADD PUSH1 0x0 SWAP1 SLOAD SWAP1 PUSH2 0x100 EXP SWAP1 DIV PUSH1 0xFF AND PUSH2 0x3332 JUMPI PUSH1 0xB PUSH1 0x0 PUSH1 0x1 DUP2 MSTORE PUSH1 0x20 ADD SWAP1 DUP2 MSTORE PUSH1 0x20 ADD PUSH1 0x0 KECCAK256 PUSH1 0x0 SWAP1 SLOAD SWAP1 PUSH2 0x100 EXP SWAP1 DIV PUSH20 0xFFFFFFFFFFFFFFFFFFFFFFFFFFFFFFFFFFFFFFFF AND SWAP6 POP PUSH2 0x33AB JUMP JUMPDEST PUSH1 0xB PUSH1 0x0 PUSH1 0xA PUSH1 0x0 DUP6 PUSH20 0xFFFFFFFFFFFFFFFFFFFFFFFFFFFFFFFFFFFFFFFF AND PUSH20 0xFFFFFFFFFFFFFFFFFFFFFFFFFFFFFFFFFFFFFFFF AND DUP2 MSTORE PUSH1 0x20 ADD SWAP1 DUP2 MSTORE PUSH1 0x20 ADD PUSH1 0x0 KECCAK256 PUSH1 0x2 ADD SLOAD DUP2 MSTORE PUSH1 0x20 ADD SWAP1 DUP2 MSTORE PUSH1 0x20 ADD PUSH1 0x0 KECCAK256 PUSH1 0x0 SWAP1 SLOAD SWAP1 PUSH2 0x100 EXP SWAP1 DIV PUSH20 0xFFFFFFFFFFFFFFFFFFFFFFFFFFFFFFFFFFFFFFFF AND SWAP6 POP JUMPDEST POP POP POP PUSH2 0x33DF JUMP JUMPDEST DUP1 SWAP5 POP DUP1 SWAP6 POP PUSH2 0x33C9 JUMP JUMPDEST DUP5 SWAP6 POP POP POP POP PUSH2 0x33DF JUMP JUMPDEST POP POP POP DUP1 DUP1 PUSH2 0x33D7 SWAP1 PUSH2 0x49D8 JUMP JUMPDEST SWAP2 POP POP PUSH2 0x2D49 JUMP JUMPDEST POP PUSH1 0x1 PUSH1 0xA PUSH1 0x0 DUP10 PUSH20 0xFFFFFFFFFFFFFFFFFFFFFFFFFFFFFFFFFFFFFFFF AND PUSH20 0xFFFFFFFFFFFFFFFFFFFFFFFFFFFFFFFFFFFFFFFF AND DUP2 MSTORE PUSH1 0x20 ADD SWAP1 DUP2 MSTORE PUSH1 0x20 ADD PUSH1 0x0 KECCAK256 PUSH1 0x5 ADD PUSH1 0x0 DUP9 DUP2 MSTORE PUSH1 0x20 ADD SWAP1 DUP2 MSTORE PUSH1 0x20 ADD PUSH1 0x0 KECCAK256 SLOAD PUSH2 0x3440 SWAP2 SWAP1 PUSH2 0x4789 JUMP JUMPDEST PUSH1 0xA PUSH1 0x0 DUP10 PUSH20 0xFFFFFFFFFFFFFFFFFFFFFFFFFFFFFFFFFFFFFFFF AND PUSH20 0xFFFFFFFFFFFFFFFFFFFFFFFFFFFFFFFFFFFFFFFF AND DUP2 MSTORE PUSH1 0x20 ADD SWAP1 DUP2 MSTORE PUSH1 0x20 ADD PUSH1 0x0 KECCAK256 PUSH1 0x5 ADD PUSH1 0x0 DUP9 DUP2 MSTORE PUSH1 0x20 ADD SWAP1 DUP2 MSTORE PUSH1 0x20 ADD PUSH1 0x0 KECCAK256 DUP2 SWAP1 SSTORE POP DUP2 DUP8 SWAP4 POP SWAP4 POP POP POP SWAP4 POP SWAP4 SWAP2 POP POP JUMP JUMPDEST PUSH1 0x0 DUP1 PUSH1 0x0 SWAP1 POP PUSH1 0x0 PUSH2 0x34B9 DUP7 PUSH2 0x683 JUMP JUMPDEST SWAP1 POP PUSH1 0x0 DUP6 SWAP1 POP PUSH1 0x0 DUP6 SWAP1 POP PUSH1 0x0 PUSH1 0xB PUSH1 0x0 PUSH1 0xA PUSH1 0x0 DUP7 PUSH20 0xFFFFFFFFFFFFFFFFFFFFFFFFFFFFFFFFFFFFFFFF AND PUSH20 0xFFFFFFFFFFFFFFFFFFFFFFFFFFFFFFFFFFFFFFFF AND DUP2 MSTORE PUSH1 0x20 ADD SWAP1 DUP2 MSTORE PUSH1 0x20 ADD PUSH1 0x0 KECCAK256 PUSH1 0x2 ADD SLOAD DUP2 MSTORE PUSH1 0x20 ADD SWAP1 DUP2 MSTORE PUSH1 0x20 ADD PUSH1 0x0 KECCAK256 PUSH1 0x0 SWAP1 SLOAD SWAP1 PUSH2 0x100 EXP SWAP1 DIV PUSH20 0xFFFFFFFFFFFFFFFFFFFFFFFFFFFFFFFFFFFFFFFF AND SWAP1 POP PUSH1 0x0 JUMPDEST PUSH1 0xC DUP2 SLT ISZERO PUSH2 0x3678 JUMPI PUSH1 0x0 DUP1 JUMPDEST DUP7 MLOAD DUP2 LT ISZERO PUSH2 0x35DF JUMPI DUP7 DUP2 DUP2 MLOAD DUP2 LT PUSH2 0x356B JUMPI PUSH2 0x356A PUSH2 0x47DF JUMP JUMPDEST JUMPDEST PUSH1 0x20 MUL PUSH1 0x20 ADD ADD MLOAD PUSH20 0xFFFFFFFFFFFFFFFFFFFFFFFFFFFFFFFFFFFFFFFF AND DUP5 PUSH20 0xFFFFFFFFFFFFFFFFFFFFFFFFFFFFFFFFFFFFFFFF AND EQ ISZERO PUSH2 0x35CC JUMPI DUP7 DUP2 DUP2 MLOAD DUP2 LT PUSH2 0x35B9 JUMPI PUSH2 0x35B8 PUSH2 0x47DF JUMP JUMPDEST JUMPDEST PUSH1 0x20 MUL PUSH1 0x20 ADD ADD MLOAD SWAP6 POP PUSH1 0x1 SWAP2 POP PUSH2 0x35DF JUMP JUMPDEST DUP1 DUP1 PUSH2 0x35D7 SWAP1 PUSH2 0x4740 JUMP JUMPDEST SWAP2 POP POP PUSH2 0x354F JUMP JUMPDEST POP DUP1 ISZERO PUSH2 0x35EC JUMPI POP PUSH2 0x3678 JUMP JUMPDEST PUSH1 0xB PUSH1 0x0 PUSH1 0xA PUSH1 0x0 DUP7 PUSH20 0xFFFFFFFFFFFFFFFFFFFFFFFFFFFFFFFFFFFFFFFF AND PUSH20 0xFFFFFFFFFFFFFFFFFFFFFFFFFFFFFFFFFFFFFFFF AND DUP2 MSTORE PUSH1 0x20 ADD SWAP1 DUP2 MSTORE PUSH1 0x20 ADD PUSH1 0x0 KECCAK256 PUSH1 0x2 ADD SLOAD DUP2 MSTORE PUSH1 0x20 ADD SWAP1 DUP2 MSTORE PUSH1 0x20 ADD PUSH1 0x0 KECCAK256 PUSH1 0x0 SWAP1 SLOAD SWAP1 PUSH2 0x100 EXP SWAP1 DIV PUSH20 0xFFFFFFFFFFFFFFFFFFFFFFFFFFFFFFFFFFFFFFFF AND SWAP3 POP POP DUP1 DUP1 PUSH2 0x3670 SWAP1 PUSH2 0x49D8 JUMP JUMPDEST SWAP2 POP POP PUSH2 0x3542 JUMP JUMPDEST POP PUSH1 0x0 PUSH1 0xB PUSH1 0x0 PUSH1 0xA PUSH1 0x0 DUP7 PUSH20 0xFFFFFFFFFFFFFFFFFFFFFFFFFFFFFFFFFFFFFFFF AND PUSH20 0xFFFFFFFFFFFFFFFFFFFFFFFFFFFFFFFFFFFFFFFF AND DUP2 MSTORE PUSH1 0x20 ADD SWAP1 DUP2 MSTORE PUSH1 0x20 ADD PUSH1 0x0 KECCAK256 PUSH1 0x2 ADD SLOAD DUP2 MSTORE PUSH1 0x20 ADD SWAP1 DUP2 MSTORE PUSH1 0x20 ADD PUSH1 0x0 KECCAK256 PUSH1 0x0 SWAP1 SLOAD SWAP1 PUSH2 0x100 EXP SWAP1 DIV PUSH20 0xFFFFFFFFFFFFFFFFFFFFFFFFFFFFFFFFFFFFFFFF AND SWAP1 POP PUSH1 0x0 JUMPDEST PUSH1 0xC DUP2 SLT ISZERO PUSH2 0x382C JUMPI PUSH1 0x0 DUP1 JUMPDEST DUP8 MLOAD DUP2 LT ISZERO PUSH2 0x3793 JUMPI DUP8 DUP2 DUP2 MLOAD DUP2 LT PUSH2 0x371F JUMPI PUSH2 0x371E PUSH2 0x47DF JUMP JUMPDEST JUMPDEST PUSH1 0x20 MUL PUSH1 0x20 ADD ADD MLOAD PUSH20 0xFFFFFFFFFFFFFFFFFFFFFFFFFFFFFFFFFFFFFFFF AND DUP5 PUSH20 0xFFFFFFFFFFFFFFFFFFFFFFFFFFFFFFFFFFFFFFFF AND EQ ISZERO PUSH2 0x3780 JUMPI DUP8 DUP2 DUP2 MLOAD DUP2 LT PUSH2 0x376D JUMPI PUSH2 0x376C PUSH2 0x47DF JUMP JUMPDEST JUMPDEST PUSH1 0x20 MUL PUSH1 0x20 ADD ADD MLOAD SWAP6 POP PUSH1 0x1 SWAP2 POP PUSH2 0x3793 JUMP JUMPDEST DUP1 DUP1 PUSH2 0x378B SWAP1 PUSH2 0x4740 JUMP JUMPDEST SWAP2 POP POP PUSH2 0x3703 JUMP JUMPDEST POP DUP1 ISZERO PUSH2 0x37A0 JUMPI POP PUSH2 0x382C JUMP JUMPDEST PUSH1 0xB PUSH1 0x0 PUSH1 0xA PUSH1 0x0 DUP7 PUSH20 0xFFFFFFFFFFFFFFFFFFFFFFFFFFFFFFFFFFFFFFFF AND PUSH20 0xFFFFFFFFFFFFFFFFFFFFFFFFFFFFFFFFFFFFFFFF AND DUP2 MSTORE PUSH1 0x20 ADD SWAP1 DUP2 MSTORE PUSH1 0x20 ADD PUSH1 0x0 KECCAK256 PUSH1 0x2 ADD SLOAD DUP2 MSTORE PUSH1 0x20 ADD SWAP1 DUP2 MSTORE PUSH1 0x20 ADD PUSH1 0x0 KECCAK256 PUSH1 0x0 SWAP1 SLOAD SWAP1 PUSH2 0x100 EXP SWAP1 DIV PUSH20 0xFFFFFFFFFFFFFFFFFFFFFFFFFFFFFFFFFFFFFFFF AND SWAP3 POP POP DUP1 DUP1 PUSH2 0x3824 SWAP1 PUSH2 0x49D8 JUMP JUMPDEST SWAP2 POP POP PUSH2 0x36F6 JUMP JUMPDEST POP DUP3 PUSH20 0xFFFFFFFFFFFFFFFFFFFFFFFFFFFFFFFFFFFFFFFF AND DUP5 PUSH20 0xFFFFFFFFFFFFFFFFFFFFFFFFFFFFFFFFFFFFFFFF AND EQ ISZERO PUSH2 0x3866 JUMPI PUSH1 0x1 SWAP6 POP JUMPDEST DUP6 SWAP7 POP POP POP POP POP POP POP SWAP4 SWAP3 POP POP POP JUMP JUMPDEST PUSH1 0x0 DUP1 PUSH1 0x0 DUP1 DUP7 SWAP1 POP PUSH1 0x0 DUP2 SWAP1 POP PUSH1 0x0 JUMPDEST PUSH1 0x9 DUP2 SLT ISZERO PUSH2 0x3E19 JUMPI PUSH1 0x1 PUSH1 0xA PUSH1 0x0 DUP12 PUSH20 0xFFFFFFFFFFFFFFFFFFFFFFFFFFFFFFFFFFFFFFFF AND PUSH20 0xFFFFFFFFFFFFFFFFFFFFFFFFFFFFFFFFFFFFFFFF AND DUP2 MSTORE PUSH1 0x20 ADD SWAP1 DUP2 MSTORE PUSH1 0x20 ADD PUSH1 0x0 KECCAK256 PUSH1 0x2 ADD SLOAD EQ DUP1 PUSH2 0x3940 JUMPI POP PUSH1 0xB PUSH1 0x0 PUSH1 0x1 DUP2 MSTORE PUSH1 0x20 ADD SWAP1 DUP2 MSTORE PUSH1 0x20 ADD PUSH1 0x0 KECCAK256 PUSH1 0x0 SWAP1 SLOAD SWAP1 PUSH2 0x100 EXP SWAP1 DIV PUSH20 0xFFFFFFFFFFFFFFFFFFFFFFFFFFFFFFFFFFFFFFFF AND PUSH20 0xFFFFFFFFFFFFFFFFFFFFFFFFFFFFFFFFFFFFFFFF AND DUP5 PUSH20 0xFFFFFFFFFFFFFFFFFFFFFFFFFFFFFFFFFFFFFFFF AND EQ JUMPDEST ISZERO PUSH2 0x394A JUMPI PUSH2 0x3E19 JUMP JUMPDEST PUSH1 0x0 JUMPDEST DUP9 DUP2 LT ISZERO PUSH2 0x3A4D JUMPI PUSH1 0xB PUSH1 0x0 PUSH1 0x1 DUP2 MSTORE PUSH1 0x20 ADD SWAP1 DUP2 MSTORE PUSH1 0x20 ADD PUSH1 0x0 KECCAK256 PUSH1 0x0 SWAP1 SLOAD SWAP1 PUSH2 0x100 EXP SWAP1 DIV PUSH20 0xFFFFFFFFFFFFFFFFFFFFFFFFFFFFFFFFFFFFFFFF AND PUSH20 0xFFFFFFFFFFFFFFFFFFFFFFFFFFFFFFFFFFFFFFFF AND DUP5 PUSH20 0xFFFFFFFFFFFFFFFFFFFFFFFFFFFFFFFFFFFFFFFF AND EQ ISZERO PUSH2 0x39C2 JUMPI PUSH2 0x3A4D JUMP JUMPDEST PUSH1 0xB PUSH1 0x0 PUSH1 0xA PUSH1 0x0 DUP7 PUSH20 0xFFFFFFFFFFFFFFFFFFFFFFFFFFFFFFFFFFFFFFFF AND PUSH20 0xFFFFFFFFFFFFFFFFFFFFFFFFFFFFFFFFFFFFFFFF AND DUP2 MSTORE PUSH1 0x20 ADD SWAP1 DUP2 MSTORE PUSH1 0x20 ADD PUSH1 0x0 KECCAK256 PUSH1 0x2 ADD SLOAD DUP2 MSTORE PUSH1 0x20 ADD SWAP1 DUP2 MSTORE PUSH1 0x20 ADD PUSH1 0x0 KECCAK256 PUSH1 0x0 SWAP1 SLOAD SWAP1 PUSH2 0x100 EXP SWAP1 DIV PUSH20 0xFFFFFFFFFFFFFFFFFFFFFFFFFFFFFFFFFFFFFFFF AND SWAP3 POP DUP1 DUP1 PUSH2 0x3A45 SWAP1 PUSH2 0x4740 JUMP JUMPDEST SWAP2 POP POP PUSH2 0x394D JUMP JUMPDEST POP PUSH1 0xB PUSH1 0x0 PUSH1 0x1 DUP2 MSTORE PUSH1 0x20 ADD SWAP1 DUP2 MSTORE PUSH1 0x20 ADD PUSH1 0x0 KECCAK256 PUSH1 0x0 SWAP1 SLOAD SWAP1 PUSH2 0x100 EXP SWAP1 DIV PUSH20 0xFFFFFFFFFFFFFFFFFFFFFFFFFFFFFFFFFFFFFFFF AND PUSH20 0xFFFFFFFFFFFFFFFFFFFFFFFFFFFFFFFFFFFFFFFF AND DUP3 PUSH20 0xFFFFFFFFFFFFFFFFFFFFFFFFFFFFFFFFFFFFFFFF AND EQ ISZERO PUSH2 0x3ABE JUMPI DUP2 SWAP4 POP PUSH2 0x3E19 JUMP JUMPDEST PUSH1 0x0 PUSH1 0x1 PUSH1 0xA PUSH1 0x0 DUP6 PUSH20 0xFFFFFFFFFFFFFFFFFFFFFFFFFFFFFFFFFFFFFFFF AND PUSH20 0xFFFFFFFFFFFFFFFFFFFFFFFFFFFFFFFFFFFFFFFF AND DUP2 MSTORE PUSH1 0x20 ADD SWAP1 DUP2 MSTORE PUSH1 0x20 ADD PUSH1 0x0 KECCAK256 PUSH1 0x6 ADD DUP1 SLOAD SWAP1 POP PUSH2 0x3B12 SWAP2 SWAP1 PUSH2 0x4940 JUMP JUMPDEST SWAP1 POP PUSH1 0xA PUSH1 0x0 DUP5 PUSH20 0xFFFFFFFFFFFFFFFFFFFFFFFFFFFFFFFFFFFFFFFF AND PUSH20 0xFFFFFFFFFFFFFFFFFFFFFFFFFFFFFFFFFFFFFFFF AND DUP2 MSTORE PUSH1 0x20 ADD SWAP1 DUP2 MSTORE PUSH1 0x20 ADD PUSH1 0x0 KECCAK256 PUSH1 0x6 ADD DUP2 DUP2 SLOAD DUP2 LT PUSH2 0x3B68 JUMPI PUSH2 0x3B67 PUSH2 0x47DF JUMP JUMPDEST JUMPDEST SWAP1 PUSH1 0x0 MSTORE PUSH1 0x20 PUSH1 0x0 KECCAK256 ADD SLOAD SWAP8 POP DUP9 DUP9 LT ISZERO PUSH2 0x3DFC JUMPI PUSH1 0xA PUSH1 0x0 DUP5 PUSH20 0xFFFFFFFFFFFFFFFFFFFFFFFFFFFFFFFFFFFFFFFF AND PUSH20 0xFFFFFFFFFFFFFFFFFFFFFFFFFFFFFFFFFFFFFFFF AND DUP2 MSTORE PUSH1 0x20 ADD SWAP1 DUP2 MSTORE PUSH1 0x20 ADD PUSH1 0x0 KECCAK256 PUSH1 0x0 ADD PUSH1 0x0 SWAP1 SLOAD SWAP1 PUSH2 0x100 EXP SWAP1 DIV PUSH1 0xFF AND ISZERO DUP1 PUSH2 0x3C1B JUMPI POP PUSH1 0x0 PUSH1 0xA PUSH1 0x0 DUP6 PUSH20 0xFFFFFFFFFFFFFFFFFFFFFFFFFFFFFFFFFFFFFFFF AND PUSH20 0xFFFFFFFFFFFFFFFFFFFFFFFFFFFFFFFFFFFFFFFF AND DUP2 MSTORE PUSH1 0x20 ADD SWAP1 DUP2 MSTORE PUSH1 0x20 ADD PUSH1 0x0 KECCAK256 PUSH1 0x2 ADD SLOAD EQ JUMPDEST DUP1 PUSH2 0x3C68 JUMPI POP PUSH1 0x1 PUSH1 0xA PUSH1 0x0 DUP6 PUSH20 0xFFFFFFFFFFFFFFFFFFFFFFFFFFFFFFFFFFFFFFFF AND PUSH20 0xFFFFFFFFFFFFFFFFFFFFFFFFFFFFFFFFFFFFFFFF AND DUP2 MSTORE PUSH1 0x20 ADD SWAP1 DUP2 MSTORE PUSH1 0x20 ADD PUSH1 0x0 KECCAK256 PUSH1 0x2 ADD SLOAD EQ JUMPDEST ISZERO PUSH2 0x3DF1 JUMPI PUSH1 0xA PUSH1 0x0 PUSH1 0xB PUSH1 0x0 PUSH1 0xA PUSH1 0x0 DUP9 PUSH20 0xFFFFFFFFFFFFFFFFFFFFFFFFFFFFFFFFFFFFFFFF AND PUSH20 0xFFFFFFFFFFFFFFFFFFFFFFFFFFFFFFFFFFFFFFFF AND DUP2 MSTORE PUSH1 0x20 ADD SWAP1 DUP2 MSTORE PUSH1 0x20 ADD PUSH1 0x0 KECCAK256 PUSH1 0x2 ADD SLOAD DUP2 MSTORE PUSH1 0x20 ADD SWAP1 DUP2 MSTORE PUSH1 0x20 ADD PUSH1 0x0 KECCAK256 PUSH1 0x0 SWAP1 SLOAD SWAP1 PUSH2 0x100 EXP SWAP1 DIV PUSH20 0xFFFFFFFFFFFFFFFFFFFFFFFFFFFFFFFFFFFFFFFF AND PUSH20 0xFFFFFFFFFFFFFFFFFFFFFFFFFFFFFFFFFFFFFFFF AND PUSH20 0xFFFFFFFFFFFFFFFFFFFFFFFFFFFFFFFFFFFFFFFF AND DUP2 MSTORE PUSH1 0x20 ADD SWAP1 DUP2 MSTORE PUSH1 0x20 ADD PUSH1 0x0 KECCAK256 PUSH1 0x0 ADD PUSH1 0x0 SWAP1 SLOAD SWAP1 PUSH2 0x100 EXP SWAP1 DIV PUSH1 0xFF AND PUSH2 0x3D72 JUMPI PUSH1 0xB PUSH1 0x0 PUSH1 0x1 DUP2 MSTORE PUSH1 0x20 ADD SWAP1 DUP2 MSTORE PUSH1 0x20 ADD PUSH1 0x0 KECCAK256 PUSH1 0x0 SWAP1 SLOAD SWAP1 PUSH2 0x100 EXP SWAP1 DIV PUSH20 0xFFFFFFFFFFFFFFFFFFFFFFFFFFFFFFFFFFFFFFFF AND SWAP5 POP PUSH2 0x3DEB JUMP JUMPDEST PUSH1 0xB PUSH1 0x0 PUSH1 0xA PUSH1 0x0 DUP7 PUSH20 0xFFFFFFFFFFFFFFFFFFFFFFFFFFFFFFFFFFFFFFFF AND PUSH20 0xFFFFFFFFFFFFFFFFFFFFFFFFFFFFFFFFFFFFFFFF AND DUP2 MSTORE PUSH1 0x20 ADD SWAP1 DUP2 MSTORE PUSH1 0x20 ADD PUSH1 0x0 KECCAK256 PUSH1 0x2 ADD SLOAD DUP2 MSTORE PUSH1 0x20 ADD SWAP1 DUP2 MSTORE PUSH1 0x20 ADD PUSH1 0x0 KECCAK256 PUSH1 0x0 SWAP1 SLOAD SWAP1 PUSH2 0x100 EXP SWAP1 DIV PUSH20 0xFFFFFFFFFFFFFFFFFFFFFFFFFFFFFFFFFFFFFFFF AND SWAP5 POP JUMPDEST POP PUSH2 0x3E19 JUMP JUMPDEST DUP3 SWAP4 POP DUP3 SWAP5 POP PUSH2 0x3E05 JUMP JUMPDEST DUP3 SWAP5 POP POP PUSH2 0x3E19 JUMP JUMPDEST POP DUP1 DUP1 PUSH2 0x3E11 SWAP1 PUSH2 0x49D8 JUMP JUMPDEST SWAP2 POP POP PUSH2 0x3887 JUMP JUMPDEST POP PUSH1 0x1 PUSH1 0xA PUSH1 0x0 DUP11 PUSH20 0xFFFFFFFFFFFFFFFFFFFFFFFFFFFFFFFFFFFFFFFF AND PUSH20 0xFFFFFFFFFFFFFFFFFFFFFFFFFFFFFFFFFFFFFFFF AND DUP2 MSTORE PUSH1 0x20 ADD SWAP1 DUP2 MSTORE PUSH1 0x20 ADD PUSH1 0x0 KECCAK256 PUSH1 0x5 ADD PUSH1 0x0 DUP10 DUP2 MSTORE PUSH1 0x20 ADD SWAP1 DUP2 MSTORE PUSH1 0x20 ADD PUSH1 0x0 KECCAK256 SLOAD PUSH2 0x3E7A SWAP2 SWAP1 PUSH2 0x4789 JUMP JUMPDEST PUSH1 0xA PUSH1 0x0 DUP11 PUSH20 0xFFFFFFFFFFFFFFFFFFFFFFFFFFFFFFFFFFFFFFFF AND PUSH20 0xFFFFFFFFFFFFFFFFFFFFFFFFFFFFFFFFFFFFFFFF AND DUP2 MSTORE PUSH1 0x20 ADD SWAP1 DUP2 MSTORE PUSH1 0x20 ADD PUSH1 0x0 KECCAK256 PUSH1 0x5 ADD PUSH1 0x0 DUP10 DUP2 MSTORE PUSH1 0x20 ADD SWAP1 DUP2 MSTORE PUSH1 0x20 ADD PUSH1 0x0 KECCAK256 DUP2 SWAP1 SSTORE POP DUP3 DUP9 SWAP5 POP SWAP5 POP POP POP POP SWAP4 POP SWAP4 SWAP2 POP POP JUMP JUMPDEST DUP3 DUP1 SLOAD DUP3 DUP3 SSTORE SWAP1 PUSH1 0x0 MSTORE PUSH1 0x20 PUSH1 0x0 KECCAK256 SWAP1 DUP2 ADD SWAP3 DUP3 ISZERO PUSH2 0x3F5B JUMPI SWAP2 PUSH1 0x20 MUL DUP3 ADD JUMPDEST DUP3 DUP2 GT ISZERO PUSH2 0x3F5A JUMPI DUP3 MLOAD DUP3 PUSH1 0x0 PUSH2 0x100 EXP DUP2 SLOAD DUP2 PUSH20 0xFFFFFFFFFFFFFFFFFFFFFFFFFFFFFFFFFFFFFFFF MUL NOT AND SWAP1 DUP4 PUSH20 0xFFFFFFFFFFFFFFFFFFFFFFFFFFFFFFFFFFFFFFFF AND MUL OR SWAP1 SSTORE POP SWAP2 PUSH1 0x20 ADD SWAP2 SWAP1 PUSH1 0x1 ADD SWAP1 PUSH2 0x3F02 JUMP JUMPDEST JUMPDEST POP SWAP1 POP PUSH2 0x3F68 SWAP2 SWAP1 PUSH2 0x3FB9 JUMP JUMPDEST POP SWAP1 JUMP JUMPDEST DUP3 DUP1 SLOAD DUP3 DUP3 SSTORE SWAP1 PUSH1 0x0 MSTORE PUSH1 0x20 PUSH1 0x0 KECCAK256 SWAP1 DUP2 ADD SWAP3 DUP3 ISZERO PUSH2 0x3FA8 JUMPI SWAP2 PUSH1 0x20 MUL DUP3 ADD JUMPDEST DUP3 DUP2 GT ISZERO PUSH2 0x3FA7 JUMPI DUP3 MLOAD DUP3 SSTORE SWAP2 PUSH1 0x20 ADD SWAP2 SWAP1 PUSH1 0x1 ADD SWAP1 PUSH2 0x3F8C JUMP JUMPDEST JUMPDEST POP SWAP1 POP PUSH2 0x3FB5 SWAP2 SWAP1 PUSH2 0x3FB9 JUMP JUMPDEST POP SWAP1 JUMP JUMPDEST JUMPDEST DUP1 DUP3 GT ISZERO PUSH2 0x3FD2 JUMPI PUSH1 0x0 DUP2 PUSH1 0x0 SWAP1 SSTORE POP PUSH1 0x1 ADD PUSH2 0x3FBA JUMP JUMPDEST POP SWAP1 JUMP JUMPDEST PUSH1 0x0 DUP1 REVERT JUMPDEST PUSH1 0x0 DUP2 SWAP1 POP SWAP2 SWAP1 POP JUMP JUMPDEST PUSH2 0x3FEE DUP2 PUSH2 0x3FDB JUMP JUMPDEST DUP2 EQ PUSH2 0x3FF9 JUMPI PUSH1 0x0 DUP1 REVERT JUMPDEST POP JUMP JUMPDEST PUSH1 0x0 DUP2 CALLDATALOAD SWAP1 POP PUSH2 0x400B DUP2 PUSH2 0x3FE5 JUMP JUMPDEST SWAP3 SWAP2 POP POP JUMP JUMPDEST PUSH1 0x0 PUSH1 0x20 DUP3 DUP5 SUB SLT ISZERO PUSH2 0x4027 JUMPI PUSH2 0x4026 PUSH2 0x3FD6 JUMP JUMPDEST JUMPDEST PUSH1 0x0 PUSH2 0x4035 DUP5 DUP3 DUP6 ADD PUSH2 0x3FFC JUMP JUMPDEST SWAP2 POP POP SWAP3 SWAP2 POP POP JUMP JUMPDEST PUSH1 0x0 PUSH20 0xFFFFFFFFFFFFFFFFFFFFFFFFFFFFFFFFFFFFFFFF DUP3 AND SWAP1 POP SWAP2 SWAP1 POP JUMP JUMPDEST PUSH1 0x0 PUSH2 0x4069 DUP3 PUSH2 0x403E JUMP JUMPDEST SWAP1 POP SWAP2 SWAP1 POP JUMP JUMPDEST PUSH2 0x4079 DUP2 PUSH2 0x405E JUMP JUMPDEST DUP3 MSTORE POP POP JUMP JUMPDEST PUSH1 0x0 PUSH1 0x20 DUP3 ADD SWAP1 POP PUSH2 0x4094 PUSH1 0x0 DUP4 ADD DUP5 PUSH2 0x4070 JUMP JUMPDEST SWAP3 SWAP2 POP POP JUMP JUMPDEST PUSH2 0x40A3 DUP2 PUSH2 0x405E JUMP JUMPDEST DUP2 EQ PUSH2 0x40AE JUMPI PUSH1 0x0 DUP1 REVERT JUMPDEST POP JUMP JUMPDEST PUSH1 0x0 DUP2 CALLDATALOAD SWAP1 POP PUSH2 0x40C0 DUP2 PUSH2 0x409A JUMP JUMPDEST SWAP3 SWAP2 POP POP JUMP JUMPDEST PUSH1 0x0 DUP1 PUSH1 0x40 DUP4 DUP6 SUB SLT ISZERO PUSH2 0x40DD JUMPI PUSH2 0x40DC PUSH2 0x3FD6 JUMP JUMPDEST JUMPDEST PUSH1 0x0 PUSH2 0x40EB DUP6 DUP3 DUP7 ADD PUSH2 0x3FFC JUMP JUMPDEST SWAP3 POP POP PUSH1 0x20 PUSH2 0x40FC DUP6 DUP3 DUP7 ADD PUSH2 0x40B1 JUMP JUMPDEST SWAP2 POP POP SWAP3 POP SWAP3 SWAP1 POP JUMP JUMPDEST PUSH1 0x0 DUP2 ISZERO ISZERO SWAP1 POP SWAP2 SWAP1 POP JUMP JUMPDEST PUSH2 0x411B DUP2 PUSH2 0x4106 JUMP JUMPDEST DUP3 MSTORE POP POP JUMP JUMPDEST PUSH1 0x0 PUSH1 0x20 DUP3 ADD SWAP1 POP PUSH2 0x4136 PUSH1 0x0 DUP4 ADD DUP5 PUSH2 0x4112 JUMP JUMPDEST SWAP3 SWAP2 POP POP JUMP JUMPDEST PUSH1 0x0 PUSH1 0x20 DUP3 DUP5 SUB SLT ISZERO PUSH2 0x4152 JUMPI PUSH2 0x4151 PUSH2 0x3FD6 JUMP JUMPDEST JUMPDEST PUSH1 0x0 PUSH2 0x4160 DUP5 DUP3 DUP6 ADD PUSH2 0x40B1 JUMP JUMPDEST SWAP2 POP POP SWAP3 SWAP2 POP POP JUMP JUMPDEST PUSH1 0x0 DUP2 MLOAD SWAP1 POP SWAP2 SWAP1 POP JUMP JUMPDEST PUSH1 0x0 DUP3 DUP3 MSTORE PUSH1 0x20 DUP3 ADD SWAP1 POP SWAP3 SWAP2 POP POP JUMP JUMPDEST PUSH1 0x0 DUP2 SWAP1 POP PUSH1 0x20 DUP3 ADD SWAP1 POP SWAP2 SWAP1 POP JUMP JUMPDEST PUSH2 0x419E DUP2 PUSH2 0x405E JUMP JUMPDEST DUP3 MSTORE POP POP JUMP JUMPDEST PUSH1 0x0 PUSH2 0x41B0 DUP4 DUP4 PUSH2 0x4195 JUMP JUMPDEST PUSH1 0x20 DUP4 ADD SWAP1 POP SWAP3 SWAP2 POP POP JUMP JUMPDEST PUSH1 0x0 PUSH1 0x20 DUP3 ADD SWAP1 POP SWAP2 SWAP1 POP JUMP JUMPDEST PUSH1 0x0 PUSH2 0x41D4 DUP3 PUSH2 0x4169 JUMP JUMPDEST PUSH2 0x41DE DUP2 DUP6 PUSH2 0x4174 JUMP JUMPDEST SWAP4 POP PUSH2 0x41E9 DUP4 PUSH2 0x4185 JUMP JUMPDEST DUP1 PUSH1 0x0 JUMPDEST DUP4 DUP2 LT ISZERO PUSH2 0x421A JUMPI DUP2 MLOAD PUSH2 0x4201 DUP9 DUP3 PUSH2 0x41A4 JUMP JUMPDEST SWAP8 POP PUSH2 0x420C DUP4 PUSH2 0x41BC JUMP JUMPDEST SWAP3 POP POP PUSH1 0x1 DUP2 ADD SWAP1 POP PUSH2 0x41ED JUMP JUMPDEST POP DUP6 SWAP4 POP POP POP POP SWAP3 SWAP2 POP POP JUMP JUMPDEST PUSH1 0x0 PUSH1 0x20 DUP3 ADD SWAP1 POP DUP2 DUP2 SUB PUSH1 0x0 DUP4 ADD MSTORE PUSH2 0x4241 DUP2 DUP5 PUSH2 0x41C9 JUMP JUMPDEST SWAP1 POP SWAP3 SWAP2 POP POP JUMP JUMPDEST PUSH1 0x0 PUSH1 0xFF DUP3 AND SWAP1 POP SWAP2 SWAP1 POP JUMP JUMPDEST PUSH2 0x425F DUP2 PUSH2 0x4249 JUMP JUMPDEST DUP3 MSTORE POP POP JUMP JUMPDEST PUSH1 0x0 PUSH1 0x20 DUP3 ADD SWAP1 POP PUSH2 0x427A PUSH1 0x0 DUP4 ADD DUP5 PUSH2 0x4256 JUMP JUMPDEST SWAP3 SWAP2 POP POP JUMP JUMPDEST PUSH1 0x0 DUP2 MLOAD SWAP1 POP SWAP2 SWAP1 POP JUMP JUMPDEST PUSH1 0x0 DUP3 DUP3 MSTORE PUSH1 0x20 DUP3 ADD SWAP1 POP SWAP3 SWAP2 POP POP JUMP JUMPDEST PUSH1 0x0 DUP2 SWAP1 POP PUSH1 0x20 DUP3 ADD SWAP1 POP SWAP2 SWAP1 POP JUMP JUMPDEST PUSH2 0x42B5 DUP2 PUSH2 0x3FDB JUMP JUMPDEST DUP3 MSTORE POP POP JUMP JUMPDEST PUSH1 0x0 PUSH2 0x42C7 DUP4 DUP4 PUSH2 0x42AC JUMP JUMPDEST PUSH1 0x20 DUP4 ADD SWAP1 POP SWAP3 SWAP2 POP POP JUMP JUMPDEST PUSH1 0x0 PUSH1 0x20 DUP3 ADD SWAP1 POP SWAP2 SWAP1 POP JUMP JUMPDEST PUSH1 0x0 PUSH2 0x42EB DUP3 PUSH2 0x4280 JUMP JUMPDEST PUSH2 0x42F5 DUP2 DUP6 PUSH2 0x428B JUMP JUMPDEST SWAP4 POP PUSH2 0x4300 DUP4 PUSH2 0x429C JUMP JUMPDEST DUP1 PUSH1 0x0 JUMPDEST DUP4 DUP2 LT ISZERO PUSH2 0x4331 JUMPI DUP2 MLOAD PUSH2 0x4318 DUP9 DUP3 PUSH2 0x42BB JUMP JUMPDEST SWAP8 POP PUSH2 0x4323 DUP4 PUSH2 0x42D3 JUMP JUMPDEST SWAP3 POP POP PUSH1 0x1 DUP2 ADD SWAP1 POP PUSH2 0x4304 JUMP JUMPDEST POP DUP6 SWAP4 POP POP POP POP SWAP3 SWAP2 POP POP JUMP JUMPDEST PUSH1 0x0 PUSH1 0x20 DUP3 ADD SWAP1 POP DUP2 DUP2 SUB PUSH1 0x0 DUP4 ADD MSTORE PUSH2 0x4358 DUP2 DUP5 PUSH2 0x42E0 JUMP JUMPDEST SWAP1 POP SWAP3 SWAP2 POP POP JUMP JUMPDEST PUSH2 0x4369 DUP2 PUSH2 0x3FDB JUMP JUMPDEST DUP3 MSTORE POP POP JUMP JUMPDEST PUSH1 0x0 PUSH1 0x20 DUP3 ADD SWAP1 POP PUSH2 0x4384 PUSH1 0x0 DUP4 ADD DUP5 PUSH2 0x4360 JUMP JUMPDEST SWAP3 SWAP2 POP POP JUMP JUMPDEST PUSH1 0x0 PUSH1 0x80 DUP3 ADD SWAP1 POP PUSH2 0x439F PUSH1 0x0 DUP4 ADD DUP8 PUSH2 0x4112 JUMP JUMPDEST PUSH2 0x43AC PUSH1 0x20 DUP4 ADD DUP7 PUSH2 0x4360 JUMP JUMPDEST PUSH2 0x43B9 PUSH1 0x40 DUP4 ADD DUP6 PUSH2 0x4360 JUMP JUMPDEST PUSH2 0x43C6 PUSH1 0x60 DUP4 ADD DUP5 PUSH2 0x4360 JUMP JUMPDEST SWAP6 SWAP5 POP POP POP POP POP JUMP JUMPDEST PUSH1 0x0 DUP1 PUSH1 0x40 DUP4 DUP6 SUB SLT ISZERO PUSH2 0x43E6 JUMPI PUSH2 0x43E5 PUSH2 0x3FD6 JUMP JUMPDEST JUMPDEST PUSH1 0x0 PUSH2 0x43F4 DUP6 DUP3 DUP7 ADD PUSH2 0x40B1 JUMP JUMPDEST SWAP3 POP POP PUSH1 0x20 PUSH2 0x4405 DUP6 DUP3 DUP7 ADD PUSH2 0x3FFC JUMP JUMPDEST SWAP2 POP POP SWAP3 POP SWAP3 SWAP1 POP JUMP JUMPDEST PUSH1 0x0 DUP3 DUP3 MSTORE PUSH1 0x20 DUP3 ADD SWAP1 POP SWAP3 SWAP2 POP POP JUMP JUMPDEST PUSH32 0x496E76616C69642063616C6C6572000000000000000000000000000000000000 PUSH1 0x0 DUP3 ADD MSTORE POP JUMP JUMPDEST PUSH1 0x0 PUSH2 0x4456 PUSH1 0xE DUP4 PUSH2 0x440F JUMP JUMPDEST SWAP2 POP PUSH2 0x4461 DUP3 PUSH2 0x4420 JUMP JUMPDEST PUSH1 0x20 DUP3 ADD SWAP1 POP SWAP2 SWAP1 POP JUMP JUMPDEST PUSH1 0x0 PUSH1 0x20 DUP3 ADD SWAP1 POP DUP2 DUP2 SUB PUSH1 0x0 DUP4 ADD MSTORE PUSH2 0x4485 DUP2 PUSH2 0x4449 JUMP JUMPDEST SWAP1 POP SWAP2 SWAP1 POP JUMP JUMPDEST PUSH1 0x0 DUP2 SWAP1 POP SWAP3 SWAP2 POP POP JUMP JUMPDEST POP JUMP JUMPDEST PUSH1 0x0 PUSH2 0x44A7 PUSH1 0x0 DUP4 PUSH2 0x448C JUMP JUMPDEST SWAP2 POP PUSH2 0x44B2 DUP3 PUSH2 0x4497 JUMP JUMPDEST PUSH1 0x0 DUP3 ADD SWAP1 POP SWAP2 SWAP1 POP JUMP JUMPDEST PUSH1 0x0 PUSH2 0x44C8 DUP3 PUSH2 0x449A JUMP JUMPDEST SWAP2 POP DUP2 SWAP1 POP SWAP2 SWAP1 POP JUMP JUMPDEST PUSH32 0x5472616E73616374696F6E206661696C65642100000000000000000000000000 PUSH1 0x0 DUP3 ADD MSTORE POP JUMP JUMPDEST PUSH1 0x0 PUSH2 0x4508 PUSH1 0x13 DUP4 PUSH2 0x440F JUMP JUMPDEST SWAP2 POP PUSH2 0x4513 DUP3 PUSH2 0x44D2 JUMP JUMPDEST PUSH1 0x20 DUP3 ADD SWAP1 POP SWAP2 SWAP1 POP JUMP JUMPDEST PUSH1 0x0 PUSH1 0x20 DUP3 ADD SWAP1 POP DUP2 DUP2 SUB PUSH1 0x0 DUP4 ADD MSTORE PUSH2 0x4537 DUP2 PUSH2 0x44FB JUMP JUMPDEST SWAP1 POP SWAP2 SWAP1 POP JUMP JUMPDEST PUSH32 0x4E487B7100000000000000000000000000000000000000000000000000000000 PUSH1 0x0 MSTORE PUSH1 0x12 PUSH1 0x4 MSTORE PUSH1 0x24 PUSH1 0x0 REVERT JUMPDEST PUSH32 0x4E487B7100000000000000000000000000000000000000000000000000000000 PUSH1 0x0 MSTORE PUSH1 0x11 PUSH1 0x4 MSTORE PUSH1 0x24 PUSH1 0x0 REVERT JUMPDEST PUSH1 0x0 PUSH2 0x45A7 DUP3 PUSH2 0x3FDB JUMP JUMPDEST SWAP2 POP PUSH2 0x45B2 DUP4 PUSH2 0x3FDB JUMP JUMPDEST SWAP3 POP DUP3 PUSH2 0x45C2 JUMPI PUSH2 0x45C1 PUSH2 0x453E JUMP JUMPDEST JUMPDEST DUP3 DUP3 DIV SWAP1 POP SWAP3 SWAP2 POP POP JUMP JUMPDEST PUSH32 0x5573657220657869737400000000000000000000000000000000000000000000 PUSH1 0x0 DUP3 ADD MSTORE POP JUMP JUMPDEST PUSH1 0x0 PUSH2 0x4603 PUSH1 0xA DUP4 PUSH2 0x440F JUMP JUMPDEST SWAP2 POP PUSH2 0x460E DUP3 PUSH2 0x45CD JUMP JUMPDEST PUSH1 0x20 DUP3 ADD SWAP1 POP SWAP2 SWAP1 POP JUMP JUMPDEST PUSH1 0x0 PUSH1 0x20 DUP3 ADD SWAP1 POP DUP2 DUP2 SUB PUSH1 0x0 DUP4 ADD MSTORE PUSH2 0x4632 DUP2 PUSH2 0x45F6 JUMP JUMPDEST SWAP1 POP SWAP2 SWAP1 POP JUMP JUMPDEST PUSH32 0x496E636F72726563742072656665727265722049640000000000000000000000 PUSH1 0x0 DUP3 ADD MSTORE POP JUMP JUMPDEST PUSH1 0x0 PUSH2 0x466F PUSH1 0x15 DUP4 PUSH2 0x440F JUMP JUMPDEST SWAP2 POP PUSH2 0x467A DUP3 PUSH2 0x4639 JUMP JUMPDEST PUSH1 0x20 DUP3 ADD SWAP1 POP SWAP2 SWAP1 POP JUMP JUMPDEST PUSH1 0x0 PUSH1 0x20 DUP3 ADD SWAP1 POP DUP2 DUP2 SUB PUSH1 0x0 DUP4 ADD MSTORE PUSH2 0x469E DUP2 PUSH2 0x4662 JUMP JUMPDEST SWAP1 POP SWAP2 SWAP1 POP JUMP JUMPDEST PUSH32 0x496E636F72726563742056616C75650000000000000000000000000000000000 PUSH1 0x0 DUP3 ADD MSTORE POP JUMP JUMPDEST PUSH1 0x0 PUSH2 0x46DB PUSH1 0xF DUP4 PUSH2 0x440F JUMP JUMPDEST SWAP2 POP PUSH2 0x46E6 DUP3 PUSH2 0x46A5 JUMP JUMPDEST PUSH1 0x20 DUP3 ADD SWAP1 POP SWAP2 SWAP1 POP JUMP JUMPDEST PUSH1 0x0 PUSH1 0x20 DUP3 ADD SWAP1 POP DUP2 DUP2 SUB PUSH1 0x0 DUP4 ADD MSTORE PUSH2 0x470A DUP2 PUSH2 0x46CE JUMP JUMPDEST SWAP1 POP SWAP2 SWAP1 POP JUMP JUMPDEST PUSH32 0x4E487B7100000000000000000000000000000000000000000000000000000000 PUSH1 0x0 MSTORE PUSH1 0x41 PUSH1 0x4 MSTORE PUSH1 0x24 PUSH1 0x0 REVERT JUMPDEST PUSH1 0x0 PUSH2 0x474B DUP3 PUSH2 0x3FDB JUMP JUMPDEST SWAP2 POP PUSH32 0xFFFFFFFFFFFFFFFFFFFFFFFFFFFFFFFFFFFFFFFFFFFFFFFFFFFFFFFFFFFFFFFF DUP3 EQ ISZERO PUSH2 0x477E JUMPI PUSH2 0x477D PUSH2 0x456D JUMP JUMPDEST JUMPDEST PUSH1 0x1 DUP3 ADD SWAP1 POP SWAP2 SWAP1 POP JUMP JUMPDEST PUSH1 0x0 PUSH2 0x4794 DUP3 PUSH2 0x3FDB JUMP JUMPDEST SWAP2 POP PUSH2 0x479F DUP4 PUSH2 0x3FDB JUMP JUMPDEST SWAP3 POP DUP3 PUSH32 0xFFFFFFFFFFFFFFFFFFFFFFFFFFFFFFFFFFFFFFFFFFFFFFFFFFFFFFFFFFFFFFFF SUB DUP3 GT ISZERO PUSH2 0x47D4 JUMPI PUSH2 0x47D3 PUSH2 0x456D JUMP JUMPDEST JUMPDEST DUP3 DUP3 ADD SWAP1 POP SWAP3 SWAP2 POP POP JUMP JUMPDEST PUSH32 0x4E487B7100000000000000000000000000000000000000000000000000000000 PUSH1 0x0 MSTORE PUSH1 0x32 PUSH1 0x4 MSTORE PUSH1 0x24 PUSH1 0x0 REVERT JUMPDEST PUSH1 0x0 PUSH2 0x4819 DUP3 PUSH2 0x3FDB JUMP JUMPDEST SWAP2 POP PUSH2 0x4824 DUP4 PUSH2 0x3FDB JUMP JUMPDEST SWAP3 POP DUP2 PUSH32 0xFFFFFFFFFFFFFFFFFFFFFFFFFFFFFFFFFFFFFFFFFFFFFFFFFFFFFFFFFFFFFFFF DIV DUP4 GT DUP3 ISZERO ISZERO AND ISZERO PUSH2 0x485D JUMPI PUSH2 0x485C PUSH2 0x456D JUMP JUMPDEST JUMPDEST DUP3 DUP3 MUL SWAP1 POP SWAP3 SWAP2 POP POP JUMP JUMPDEST PUSH32 0x43616C6C6572206973206E6F742041646D696E2E000000000000000000000000 PUSH1 0x0 DUP3 ADD MSTORE POP JUMP JUMPDEST PUSH1 0x0 PUSH2 0x489E PUSH1 0x14 DUP4 PUSH2 0x440F JUMP JUMPDEST SWAP2 POP PUSH2 0x48A9 DUP3 PUSH2 0x4868 JUMP JUMPDEST PUSH1 0x20 DUP3 ADD SWAP1 POP SWAP2 SWAP1 POP JUMP JUMPDEST PUSH1 0x0 PUSH1 0x20 DUP3 ADD SWAP1 POP DUP2 DUP2 SUB PUSH1 0x0 DUP4 ADD MSTORE PUSH2 0x48CD DUP2 PUSH2 0x4891 JUMP JUMPDEST SWAP1 POP SWAP2 SWAP1 POP JUMP JUMPDEST PUSH32 0x496E76616C696420496E64657800000000000000000000000000000000000000 PUSH1 0x0 DUP3 ADD MSTORE POP JUMP JUMPDEST PUSH1 0x0 PUSH2 0x490A PUSH1 0xD DUP4 PUSH2 0x440F JUMP JUMPDEST SWAP2 POP PUSH2 0x4915 DUP3 PUSH2 0x48D4 JUMP JUMPDEST PUSH1 0x20 DUP3 ADD SWAP1 POP SWAP2 SWAP1 POP JUMP JUMPDEST PUSH1 0x0 PUSH1 0x20 DUP3 ADD SWAP1 POP DUP2 DUP2 SUB PUSH1 0x0 DUP4 ADD MSTORE PUSH2 0x4939 DUP2 PUSH2 0x48FD JUMP JUMPDEST SWAP1 POP SWAP2 SWAP1 POP JUMP JUMPDEST PUSH1 0x0 PUSH2 0x494B DUP3 PUSH2 0x3FDB JUMP JUMPDEST SWAP2 POP PUSH2 0x4956 DUP4 PUSH2 0x3FDB JUMP JUMPDEST SWAP3 POP DUP3 DUP3 LT ISZERO PUSH2 0x4969 JUMPI PUSH2 0x4968 PUSH2 0x456D JUMP JUMPDEST JUMPDEST DUP3 DUP3 SUB SWAP1 POP SWAP3 SWAP2 POP POP JUMP JUMPDEST PUSH1 0x0 PUSH2 0x497F DUP3 PUSH2 0x3FDB JUMP JUMPDEST SWAP2 POP PUSH2 0x498A DUP4 PUSH2 0x3FDB JUMP JUMPDEST SWAP3 POP DUP3 PUSH2 0x499A JUMPI PUSH2 0x4999 PUSH2 0x453E JUMP JUMPDEST JUMPDEST DUP3 DUP3 MOD SWAP1 POP SWAP3 SWAP2 POP POP JUMP JUMPDEST PUSH1 0x0 PUSH1 0x40 DUP3 ADD SWAP1 POP PUSH2 0x49BA PUSH1 0x0 DUP4 ADD DUP6 PUSH2 0x4360 JUMP JUMPDEST PUSH2 0x49C7 PUSH1 0x20 DUP4 ADD DUP5 PUSH2 0x4360 JUMP JUMPDEST SWAP4 SWAP3 POP POP POP JUMP JUMPDEST PUSH1 0x0 DUP2 SWAP1 POP SWAP2 SWAP1 POP JUMP JUMPDEST PUSH1 0x0 PUSH2 0x49E3 DUP3 PUSH2 0x49CE JUMP JUMPDEST SWAP2 POP PUSH32 0x7FFFFFFFFFFFFFFFFFFFFFFFFFFFFFFFFFFFFFFFFFFFFFFFFFFFFFFFFFFFFFFF DUP3 EQ ISZERO PUSH2 0x4A16 JUMPI PUSH2 0x4A15 PUSH2 0x456D JUMP JUMPDEST JUMPDEST PUSH1 0x1 DUP3 ADD SWAP1 POP SWAP2 SWAP1 POP JUMP INVALID LOG2 PUSH5 0x6970667358 0x22 SLT KECCAK256 0x4E 0xB0 0x4C 0xE2 DUP8 0xAD 0x26 0x2F 0xC4 EXTCODEHASH 0xC3 DUP14 0x5D PUSH28 0x2FAB43A887BC1C0CCCE8C4D61FEDB2C8613F64736F6C634300080B00 CALLER "
				},
				"gasEstimates": {
					"creation": {
						"codeDepositCost": "3806200",
						"executionCost": "infinite",
						"totalCost": "infinite"
					},
					"external": {
						"LEVEL_PRICE(uint256)": "infinite",
						"adminWallet()": "2557",
						"currUserID()": "2540",
						"getContractBalance()": "infinite",
						"getUserIncomeCount(address,uint256)": "infinite",
						"getUserLevelEligibility(address)": "infinite",
						"getUserReferrals(address)": "infinite",
						"isLevelUpgradedForAddress(uint256,address)": "3177",
						"levelCounter(uint256,address)": "infinite",
						"levelUpgradePayments(uint256,address)": "infinite",
						"promotionPercantage(uint256)": "4432",
						"promotionWallets(uint256)": "2829",
						"regUser(uint256)": "infinite",
						"rewardWallet()": "2646",
						"splPromoWallet()": "2537",
						"transferURS()": "infinite",
						"updatePromotionWallet(address,uint256)": "infinite",
						"ursWallet()": "2602",
						"userList(uint256)": "2906",
						"users(address)": "infinite",
						"withdrawPromotion()": "infinite",
						"withdrawSplPromotion()": "infinite"
					},
					"internal": {
						"checkLoopRequired(address,uint256,uint256,bool,bool)": "infinite",
						"findEligiblePayer(address,uint256,uint256)": "infinite",
						"findRenewalPayer(address,uint256,uint256)": "infinite",
						"isLevelUpgradeFromSameLeg(address,address,address)": "infinite",
						"levelRenewal(bool,address,uint256,uint256)": "infinite",
						"levelUpgrade(uint256,address,uint256,bool,bool)": "infinite",
						"payment(uint256,address,uint256,bool,bool)": "infinite"
					}
				},
				"methodIdentifiers": {
					"LEVEL_PRICE(uint256)": "79378e30",
					"adminWallet()": "36b19cd7",
					"currUserID()": "a4bb170d",
					"getContractBalance()": "6f9fb98a",
					"getUserIncomeCount(address,uint256)": "aa24c5c5",
					"getUserLevelEligibility(address)": "6158fa00",
					"getUserReferrals(address)": "575cea6b",
					"isLevelUpgradedForAddress(uint256,address)": "4d948bea",
					"levelCounter(uint256,address)": "bbf57068",
					"levelUpgradePayments(uint256,address)": "43f6753c",
					"promotionPercantage(uint256)": "6043ddad",
					"promotionWallets(uint256)": "10e4077a",
					"regUser(uint256)": "8853b53e",
					"rewardWallet()": "fb75b2c7",
					"splPromoWallet()": "992c85d2",
					"transferURS()": "5e8a7069",
					"updatePromotionWallet(address,uint256)": "f7bbfccd",
					"ursWallet()": "c15dec85",
					"userList(uint256)": "9f4216e8",
					"users(address)": "a87430ba",
					"withdrawPromotion()": "99cbd74f",
					"withdrawSplPromotion()": "a457c050"
				}
			},
			"storageLayout": {
				"storage": [
					{
						"astId": 4,
						"contract": "tronbox/contracts/SmartGenie.sol:SmartGenie",
						"label": "adminWallet",
						"offset": 0,
						"slot": "0",
						"type": "t_address"
					},
					{
						"astId": 6,
						"contract": "tronbox/contracts/SmartGenie.sol:SmartGenie",
						"label": "ursWallet",
						"offset": 0,
						"slot": "1",
						"type": "t_address"
					},
					{
						"astId": 8,
						"contract": "tronbox/contracts/SmartGenie.sol:SmartGenie",
						"label": "splPromoWallet",
						"offset": 0,
						"slot": "2",
						"type": "t_address"
					},
					{
						"astId": 10,
						"contract": "tronbox/contracts/SmartGenie.sol:SmartGenie",
						"label": "rewardWallet",
						"offset": 0,
						"slot": "3",
						"type": "t_address"
					},
					{
						"astId": 33,
						"contract": "tronbox/contracts/SmartGenie.sol:SmartGenie",
						"label": "promotionWallets",
						"offset": 0,
						"slot": "4",
						"type": "t_array(t_address)4_storage"
					},
					{
						"astId": 42,
						"contract": "tronbox/contracts/SmartGenie.sol:SmartGenie",
						"label": "promotionPercantage",
						"offset": 0,
						"slot": "8",
						"type": "t_array(t_uint8)4_storage"
					},
					{
						"astId": 46,
						"contract": "tronbox/contracts/SmartGenie.sol:SmartGenie",
						"label": "LEVEL_PRICE",
						"offset": 0,
						"slot": "9",
						"type": "t_mapping(t_uint256,t_uint256)"
					},
					{
						"astId": 51,
						"contract": "tronbox/contracts/SmartGenie.sol:SmartGenie",
						"label": "users",
						"offset": 0,
						"slot": "10",
						"type": "t_mapping(t_address,t_struct(UserStruct)29_storage)"
					},
					{
						"astId": 55,
						"contract": "tronbox/contracts/SmartGenie.sol:SmartGenie",
						"label": "userList",
						"offset": 0,
						"slot": "11",
						"type": "t_mapping(t_uint256,t_address)"
					},
					{
						"astId": 61,
						"contract": "tronbox/contracts/SmartGenie.sol:SmartGenie",
						"label": "levelCounter",
						"offset": 0,
						"slot": "12",
						"type": "t_mapping(t_uint256,t_mapping(t_address,t_uint256))"
					},
					{
						"astId": 67,
						"contract": "tronbox/contracts/SmartGenie.sol:SmartGenie",
						"label": "levelUpgradePayments",
						"offset": 0,
						"slot": "13",
						"type": "t_mapping(t_uint256,t_mapping(t_address,t_address))"
					},
					{
						"astId": 73,
						"contract": "tronbox/contracts/SmartGenie.sol:SmartGenie",
						"label": "isLevelUpgradedForAddress",
						"offset": 0,
						"slot": "14",
						"type": "t_mapping(t_uint256,t_mapping(t_address,t_bool))"
					},
					{
						"astId": 76,
						"contract": "tronbox/contracts/SmartGenie.sol:SmartGenie",
						"label": "currUserID",
						"offset": 0,
						"slot": "15",
						"type": "t_uint256"
					},
					{
						"astId": 79,
						"contract": "tronbox/contracts/SmartGenie.sol:SmartGenie",
						"label": "splPromAmt",
						"offset": 0,
						"slot": "16",
						"type": "t_uint256"
					},
					{
						"astId": 82,
						"contract": "tronbox/contracts/SmartGenie.sol:SmartGenie",
						"label": "promAmt",
						"offset": 0,
						"slot": "17",
						"type": "t_uint256"
					},
					{
						"astId": 85,
						"contract": "tronbox/contracts/SmartGenie.sol:SmartGenie",
						"label": "ursAmt",
						"offset": 0,
						"slot": "18",
						"type": "t_uint256"
					},
					{
						"astId": 88,
						"contract": "tronbox/contracts/SmartGenie.sol:SmartGenie",
						"label": "regFee",
						"offset": 0,
						"slot": "19",
						"type": "t_uint256"
					},
					{
						"astId": 96,
						"contract": "tronbox/contracts/SmartGenie.sol:SmartGenie",
						"label": "regShare",
						"offset": 0,
						"slot": "20",
						"type": "t_uint256"
					},
					{
						"astId": 104,
						"contract": "tronbox/contracts/SmartGenie.sol:SmartGenie",
						"label": "promotionShare",
						"offset": 0,
						"slot": "21",
						"type": "t_uint256"
					},
					{
						"astId": 112,
						"contract": "tronbox/contracts/SmartGenie.sol:SmartGenie",
						"label": "splPromoShare",
						"offset": 0,
						"slot": "22",
						"type": "t_uint256"
					}
				],
				"types": {
					"t_address": {
						"encoding": "inplace",
						"label": "address",
						"numberOfBytes": "20"
					},
					"t_array(t_address)4_storage": {
						"base": "t_address",
						"encoding": "inplace",
						"label": "address[4]",
						"numberOfBytes": "128"
					},
					"t_array(t_address)dyn_storage": {
						"base": "t_address",
						"encoding": "dynamic_array",
						"label": "address[]",
						"numberOfBytes": "32"
					},
					"t_array(t_uint256)dyn_storage": {
						"base": "t_uint256",
						"encoding": "dynamic_array",
						"label": "uint256[]",
						"numberOfBytes": "32"
					},
					"t_array(t_uint8)4_storage": {
						"base": "t_uint8",
						"encoding": "inplace",
						"label": "uint8[4]",
						"numberOfBytes": "32"
					},
					"t_bool": {
						"encoding": "inplace",
						"label": "bool",
						"numberOfBytes": "1"
					},
					"t_mapping(t_address,t_address)": {
						"encoding": "mapping",
						"key": "t_address",
						"label": "mapping(address => address)",
						"numberOfBytes": "32",
						"value": "t_address"
					},
					"t_mapping(t_address,t_bool)": {
						"encoding": "mapping",
						"key": "t_address",
						"label": "mapping(address => bool)",
						"numberOfBytes": "32",
						"value": "t_bool"
					},
					"t_mapping(t_address,t_struct(UserStruct)29_storage)": {
						"encoding": "mapping",
						"key": "t_address",
						"label": "mapping(address => struct SmartGenie.UserStruct)",
						"numberOfBytes": "32",
						"value": "t_struct(UserStruct)29_storage"
					},
					"t_mapping(t_address,t_uint256)": {
						"encoding": "mapping",
						"key": "t_address",
						"label": "mapping(address => uint256)",
						"numberOfBytes": "32",
						"value": "t_uint256"
					},
					"t_mapping(t_uint256,t_address)": {
						"encoding": "mapping",
						"key": "t_uint256",
						"label": "mapping(uint256 => address)",
						"numberOfBytes": "32",
						"value": "t_address"
					},
					"t_mapping(t_uint256,t_mapping(t_address,t_address))": {
						"encoding": "mapping",
						"key": "t_uint256",
						"label": "mapping(uint256 => mapping(address => address))",
						"numberOfBytes": "32",
						"value": "t_mapping(t_address,t_address)"
					},
					"t_mapping(t_uint256,t_mapping(t_address,t_bool))": {
						"encoding": "mapping",
						"key": "t_uint256",
						"label": "mapping(uint256 => mapping(address => bool))",
						"numberOfBytes": "32",
						"value": "t_mapping(t_address,t_bool)"
					},
					"t_mapping(t_uint256,t_mapping(t_address,t_uint256))": {
						"encoding": "mapping",
						"key": "t_uint256",
						"label": "mapping(uint256 => mapping(address => uint256))",
						"numberOfBytes": "32",
						"value": "t_mapping(t_address,t_uint256)"
					},
					"t_mapping(t_uint256,t_uint256)": {
						"encoding": "mapping",
						"key": "t_uint256",
						"label": "mapping(uint256 => uint256)",
						"numberOfBytes": "32",
						"value": "t_uint256"
					},
					"t_struct(UserStruct)29_storage": {
						"encoding": "inplace",
						"label": "struct SmartGenie.UserStruct",
						"members": [
							{
								"astId": 12,
								"contract": "tronbox/contracts/SmartGenie.sol:SmartGenie",
								"label": "isExist",
								"offset": 0,
								"slot": "0",
								"type": "t_bool"
							},
							{
								"astId": 14,
								"contract": "tronbox/contracts/SmartGenie.sol:SmartGenie",
								"label": "id",
								"offset": 0,
								"slot": "1",
								"type": "t_uint256"
							},
							{
								"astId": 16,
								"contract": "tronbox/contracts/SmartGenie.sol:SmartGenie",
								"label": "referrerID",
								"offset": 0,
								"slot": "2",
								"type": "t_uint256"
							},
							{
								"astId": 19,
								"contract": "tronbox/contracts/SmartGenie.sol:SmartGenie",
								"label": "referral",
								"offset": 0,
								"slot": "3",
								"type": "t_array(t_address)dyn_storage"
							},
							{
								"astId": 21,
								"contract": "tronbox/contracts/SmartGenie.sol:SmartGenie",
								"label": "joined",
								"offset": 0,
								"slot": "4",
								"type": "t_uint256"
							},
							{
								"astId": 25,
								"contract": "tronbox/contracts/SmartGenie.sol:SmartGenie",
								"label": "incomeCount",
								"offset": 0,
								"slot": "5",
								"type": "t_mapping(t_uint256,t_uint256)"
							},
							{
								"astId": 28,
								"contract": "tronbox/contracts/SmartGenie.sol:SmartGenie",
								"label": "levelEligibility",
								"offset": 0,
								"slot": "6",
								"type": "t_array(t_uint256)dyn_storage"
							}
						],
						"numberOfBytes": "224"
					},
					"t_uint256": {
						"encoding": "inplace",
						"label": "uint256",
						"numberOfBytes": "32"
					},
					"t_uint8": {
						"encoding": "inplace",
						"label": "uint8",
						"numberOfBytes": "1"
					}
				}
			},
			"userdoc": {
				"kind": "user",
				"methods": {},
				"version": 1
			}
		}
	}
}