{
	"tronbox/contracts/SmartGenie.sol": {
		"SmartGenie": {
			"abi": [
				{
					"inputs": [
						{
							"internalType": "address",
							"name": "_prWallet1",
							"type": "address"
						},
						{
							"internalType": "address",
							"name": "_prWallet2",
							"type": "address"
						},
						{
							"internalType": "address",
							"name": "_prWallet3",
							"type": "address"
						},
						{
							"internalType": "address",
							"name": "_prWallet4",
							"type": "address"
						},
						{
							"internalType": "address",
							"name": "_sprWallet",
							"type": "address"
						},
						{
							"internalType": "address",
							"name": "_rewardWallet",
							"type": "address"
						},
						{
							"internalType": "address",
							"name": "_ursWallet",
							"type": "address"
						}
					],
					"stateMutability": "nonpayable",
					"type": "constructor"
				},
				{
					"anonymous": false,
					"inputs": [
						{
							"indexed": true,
							"internalType": "address",
							"name": "_user",
							"type": "address"
						},
						{
							"indexed": true,
							"internalType": "address",
							"name": "_referral",
							"type": "address"
						},
						{
							"indexed": false,
							"internalType": "uint256",
							"name": "_level",
							"type": "uint256"
						},
						{
							"indexed": false,
							"internalType": "uint256",
							"name": "_time",
							"type": "uint256"
						}
					],
					"name": "getMoneyForLevelEvent",
					"type": "event"
				},
				{
					"anonymous": false,
					"inputs": [
						{
							"indexed": true,
							"internalType": "address",
							"name": "_user",
							"type": "address"
						},
						{
							"indexed": true,
							"internalType": "address",
							"name": "_referral",
							"type": "address"
						},
						{
							"indexed": false,
							"internalType": "uint256",
							"name": "_level",
							"type": "uint256"
						},
						{
							"indexed": false,
							"internalType": "uint256",
							"name": "_time",
							"type": "uint256"
						}
					],
					"name": "lostMoneyForLevelEvent",
					"type": "event"
				},
				{
					"anonymous": false,
					"inputs": [
						{
							"indexed": true,
							"internalType": "address",
							"name": "_user",
							"type": "address"
						},
						{
							"indexed": true,
							"internalType": "address",
							"name": "_referrer",
							"type": "address"
						},
						{
							"indexed": false,
							"internalType": "uint256",
							"name": "_time",
							"type": "uint256"
						}
					],
					"name": "regLevelEvent",
					"type": "event"
				},
				{
					"inputs": [
						{
							"internalType": "uint256",
							"name": "",
							"type": "uint256"
						}
					],
					"name": "LEVEL_PRICE",
					"outputs": [
						{
							"internalType": "uint256",
							"name": "",
							"type": "uint256"
						}
					],
					"stateMutability": "view",
					"type": "function"
				},
				{
					"inputs": [],
					"name": "adminWallet",
					"outputs": [
						{
							"internalType": "address",
							"name": "",
							"type": "address"
						}
					],
					"stateMutability": "view",
					"type": "function"
				},
				{
					"inputs": [],
					"name": "currUserID",
					"outputs": [
						{
							"internalType": "uint256",
							"name": "",
							"type": "uint256"
						}
					],
					"stateMutability": "view",
					"type": "function"
				},
				{
					"inputs": [],
					"name": "getContractBalance",
					"outputs": [
						{
							"internalType": "uint256",
							"name": "",
							"type": "uint256"
						}
					],
					"stateMutability": "view",
					"type": "function"
				},
				{
					"inputs": [
						{
							"internalType": "address",
							"name": "_user",
							"type": "address"
						},
						{
							"internalType": "uint256",
							"name": "_level",
							"type": "uint256"
						}
					],
					"name": "getUserIncomeCount",
					"outputs": [
						{
							"internalType": "uint256",
							"name": "",
							"type": "uint256"
						}
					],
					"stateMutability": "view",
					"type": "function"
				},
				{
					"inputs": [
						{
							"internalType": "address",
							"name": "_user",
							"type": "address"
						}
					],
					"name": "getUserLevelEligibility",
					"outputs": [
						{
							"internalType": "uint256[]",
							"name": "",
							"type": "uint256[]"
						}
					],
					"stateMutability": "view",
					"type": "function"
				},
				{
					"inputs": [
						{
							"internalType": "address",
							"name": "_user",
							"type": "address"
						}
					],
					"name": "getUserReferrals",
					"outputs": [
						{
							"internalType": "address[]",
							"name": "",
							"type": "address[]"
						}
					],
					"stateMutability": "view",
					"type": "function"
				},
				{
					"inputs": [
						{
							"internalType": "uint256",
							"name": "",
							"type": "uint256"
						},
						{
							"internalType": "address",
							"name": "",
							"type": "address"
						}
					],
					"name": "isLevelUpgradedForAddress",
					"outputs": [
						{
							"internalType": "bool",
							"name": "",
							"type": "bool"
						}
					],
					"stateMutability": "view",
					"type": "function"
				},
				{
					"inputs": [
						{
							"internalType": "uint256",
							"name": "",
							"type": "uint256"
						},
						{
							"internalType": "address",
							"name": "",
							"type": "address"
						}
					],
					"name": "levelCounter",
					"outputs": [
						{
							"internalType": "uint256",
							"name": "",
							"type": "uint256"
						}
					],
					"stateMutability": "view",
					"type": "function"
				},
				{
					"inputs": [
						{
							"internalType": "uint256",
							"name": "",
							"type": "uint256"
						},
						{
							"internalType": "address",
							"name": "",
							"type": "address"
						}
					],
					"name": "levelUpgradePayments",
					"outputs": [
						{
							"internalType": "address",
							"name": "",
							"type": "address"
						}
					],
					"stateMutability": "view",
					"type": "function"
				},
				{
					"inputs": [
						{
							"internalType": "uint256",
							"name": "",
							"type": "uint256"
						}
					],
					"name": "promotionPercantage",
					"outputs": [
						{
							"internalType": "uint8",
							"name": "",
							"type": "uint8"
						}
					],
					"stateMutability": "view",
					"type": "function"
				},
				{
					"inputs": [
						{
							"internalType": "uint256",
							"name": "",
							"type": "uint256"
						}
					],
					"name": "promotionWallets",
					"outputs": [
						{
							"internalType": "address",
							"name": "",
							"type": "address"
						}
					],
					"stateMutability": "view",
					"type": "function"
				},
				{
					"inputs": [
						{
							"internalType": "uint256",
							"name": "_referrerID",
							"type": "uint256"
						}
					],
					"name": "regUser",
					"outputs": [
						{
							"internalType": "bool",
							"name": "",
							"type": "bool"
						}
					],
					"stateMutability": "payable",
					"type": "function"
				},
				{
					"inputs": [],
					"name": "rewardWallet",
					"outputs": [
						{
							"internalType": "address",
							"name": "",
							"type": "address"
						}
					],
					"stateMutability": "view",
					"type": "function"
				},
				{
					"inputs": [],
					"name": "splPromoWallet",
					"outputs": [
						{
							"internalType": "address",
							"name": "",
							"type": "address"
						}
					],
					"stateMutability": "view",
					"type": "function"
				},
				{
					"inputs": [],
					"name": "transferURS",
					"outputs": [
						{
							"internalType": "bool",
							"name": "",
							"type": "bool"
						}
					],
					"stateMutability": "nonpayable",
					"type": "function"
				},
				{
					"inputs": [
						{
							"internalType": "address",
							"name": "walletAddr",
							"type": "address"
						},
						{
							"internalType": "uint256",
							"name": "index",
							"type": "uint256"
						}
					],
					"name": "updatePromotionWallet",
					"outputs": [],
					"stateMutability": "nonpayable",
					"type": "function"
				},
				{
					"inputs": [],
					"name": "ursWallet",
					"outputs": [
						{
							"internalType": "address",
							"name": "",
							"type": "address"
						}
					],
					"stateMutability": "view",
					"type": "function"
				},
				{
					"inputs": [
						{
							"internalType": "uint256",
							"name": "",
							"type": "uint256"
						}
					],
					"name": "userList",
					"outputs": [
						{
							"internalType": "address",
							"name": "",
							"type": "address"
						}
					],
					"stateMutability": "view",
					"type": "function"
				},
				{
					"inputs": [
						{
							"internalType": "address",
							"name": "",
							"type": "address"
						}
					],
					"name": "users",
					"outputs": [
						{
							"internalType": "bool",
							"name": "isExist",
							"type": "bool"
						},
						{
							"internalType": "uint256",
							"name": "id",
							"type": "uint256"
						},
						{
							"internalType": "uint256",
							"name": "referrerID",
							"type": "uint256"
						},
						{
							"internalType": "uint256",
							"name": "joined",
							"type": "uint256"
						}
					],
					"stateMutability": "view",
					"type": "function"
				},
				{
					"inputs": [],
					"name": "withdrawPromotion",
					"outputs": [
						{
							"internalType": "bool",
							"name": "",
							"type": "bool"
						}
					],
					"stateMutability": "nonpayable",
					"type": "function"
				},
				{
					"inputs": [],
					"name": "withdrawSplPromotion",
					"outputs": [
						{
							"internalType": "bool",
							"name": "",
							"type": "bool"
						}
					],
					"stateMutability": "nonpayable",
					"type": "function"
				}
			],
			"devdoc": {
				"custom:dev-run-script": "./tronbox/test/TestSG.js",
				"kind": "dev",
				"methods": {},
				"version": 1
			},
			"evm": {
				"assembly": "    /* \"tronbox/contracts/SmartGenie.sol\":124:23608  contract SmartGenie {... */\n  mstore(0x40, 0x80)\n    /* \"tronbox/contracts/SmartGenie.sol\":1023:1070  uint8[4] public promotionPercantage = [2,1,1,1] */\n  mload(0x40)\n  dup1\n  0x80\n  add\n  0x40\n  mstore\n  dup1\n    /* \"tronbox/contracts/SmartGenie.sol\":1062:1063  2 */\n  0x02\n    /* \"tronbox/contracts/SmartGenie.sol\":1023:1070  uint8[4] public promotionPercantage = [2,1,1,1] */\n  0xff\n  and\n  dup2\n  mstore\n  0x20\n  add\n    /* \"tronbox/contracts/SmartGenie.sol\":1064:1065  1 */\n  0x01\n    /* \"tronbox/contracts/SmartGenie.sol\":1023:1070  uint8[4] public promotionPercantage = [2,1,1,1] */\n  0xff\n  and\n  dup2\n  mstore\n  0x20\n  add\n    /* \"tronbox/contracts/SmartGenie.sol\":1066:1067  1 */\n  0x01\n    /* \"tronbox/contracts/SmartGenie.sol\":1023:1070  uint8[4] public promotionPercantage = [2,1,1,1] */\n  0xff\n  and\n  dup2\n  mstore\n  0x20\n  add\n    /* \"tronbox/contracts/SmartGenie.sol\":1068:1069  1 */\n  0x01\n    /* \"tronbox/contracts/SmartGenie.sol\":1023:1070  uint8[4] public promotionPercantage = [2,1,1,1] */\n  0xff\n  and\n  dup2\n  mstore\n  pop\n  0x08\n  swap1\n  0x04\n  tag_1\n  swap3\n  swap2\n  swap1\n  tag_2\n  jump\t// in\ntag_1:\n  pop\n    /* \"tronbox/contracts/SmartGenie.sol\":1489:1490  0 */\n  0x00\n    /* \"tronbox/contracts/SmartGenie.sol\":1464:1490  uint public currUserID = 0 */\n  0x0f\n  sstore\n    /* \"tronbox/contracts/SmartGenie.sol\":1517:1518  0 */\n  0x00\n    /* \"tronbox/contracts/SmartGenie.sol\":1496:1518  uint256 splPromAmt = 0 */\n  0x10\n  sstore\n    /* \"tronbox/contracts/SmartGenie.sol\":1542:1543  0 */\n  0x00\n    /* \"tronbox/contracts/SmartGenie.sol\":1524:1543  uint256 promAmt = 0 */\n  0x11\n  sstore\n    /* \"tronbox/contracts/SmartGenie.sol\":1566:1567  0 */\n  0x00\n    /* \"tronbox/contracts/SmartGenie.sol\":1549:1567  uint256 ursAmt = 0 */\n  0x12\n  sstore\n    /* \"tronbox/contracts/SmartGenie.sol\":1590:1598  50 ether */\n  0x02b5e3af16b1880000\n    /* \"tronbox/contracts/SmartGenie.sol\":1573:1598  uint256 regFee = 50 ether */\n  0x13\n  sstore\n    /* \"tronbox/contracts/SmartGenie.sol\":1635:1638  100 */\n  0x64\n    /* \"tronbox/contracts/SmartGenie.sol\":1631:1633  10 */\n  0x0a\n    /* \"tronbox/contracts/SmartGenie.sol\":1624:1630  regFee */\n  sload(0x13)\n    /* \"tronbox/contracts/SmartGenie.sol\":1624:1633  regFee*10 */\n  tag_3\n  swap2\n  swap1\n  tag_4\n  jump\t// in\ntag_3:\n    /* \"tronbox/contracts/SmartGenie.sol\":1623:1638  (regFee*10)/100 */\n  tag_5\n  swap2\n  swap1\n  tag_6\n  jump\t// in\ntag_5:\n    /* \"tronbox/contracts/SmartGenie.sol\":1604:1638  uint256 regShare = (regFee*10)/100 */\n  0x14\n  sstore\n    /* \"tronbox/contracts/SmartGenie.sol\":1698:1701  100 */\n  0x64\n    /* \"tronbox/contracts/SmartGenie.sol\":1695:1696  9 */\n  0x09\n    /* \"tronbox/contracts/SmartGenie.sol\":1688:1694  regFee */\n  sload(0x13)\n    /* \"tronbox/contracts/SmartGenie.sol\":1688:1696  regFee*9 */\n  tag_7\n  swap2\n  swap1\n  tag_4\n  jump\t// in\ntag_7:\n    /* \"tronbox/contracts/SmartGenie.sol\":1687:1701  (regFee*9)/100 */\n  tag_8\n  swap2\n  swap1\n  tag_6\n  jump\t// in\ntag_8:\n    /* \"tronbox/contracts/SmartGenie.sol\":1662:1701  uint256 promotionShare = (regFee*9)/100 */\n  0x15\n  sstore\n    /* \"tronbox/contracts/SmartGenie.sol\":1759:1762  100 */\n  0x64\n    /* \"tronbox/contracts/SmartGenie.sol\":1756:1757  1 */\n  0x01\n    /* \"tronbox/contracts/SmartGenie.sol\":1749:1755  regFee */\n  sload(0x13)\n    /* \"tronbox/contracts/SmartGenie.sol\":1749:1757  regFee*1 */\n  tag_9\n  swap2\n  swap1\n  tag_4\n  jump\t// in\ntag_9:\n    /* \"tronbox/contracts/SmartGenie.sol\":1748:1762  (regFee*1)/100 */\n  tag_10\n  swap2\n  swap1\n  tag_6\n  jump\t// in\ntag_10:\n    /* \"tronbox/contracts/SmartGenie.sol\":1724:1762  uint256 splPromoShare = (regFee*1)/100 */\n  0x16\n  sstore\n    /* \"tronbox/contracts/SmartGenie.sol\":2214:3559  constructor(address _prWallet1, address _prWallet2, ... */\n  callvalue\n  dup1\n  iszero\n  tag_11\n  jumpi\n  0x00\n  dup1\n  revert\ntag_11:\n  pop\n  mload(0x40)\n  sub(codesize, bytecodeSize)\n  dup1\n  bytecodeSize\n  dup4\n  codecopy\n  dup2\n  dup2\n  add\n  0x40\n  mstore\n  dup2\n  add\n  swap1\n  tag_12\n  swap2\n  swap1\n  tag_13\n  jump\t// in\ntag_12:\n    /* \"tronbox/contracts/SmartGenie.sol\":2481:2491  msg.sender */\n  caller\n    /* \"tronbox/contracts/SmartGenie.sol\":2467:2478  adminWallet */\n  0x00\n  dup1\n    /* \"tronbox/contracts/SmartGenie.sol\":2467:2491  adminWallet = msg.sender */\n  0x0100\n  exp\n  dup2\n  sload\n  dup2\n  0xffffffffffffffffffffffffffffffffffffffff\n  mul\n  not\n  and\n  swap1\n  dup4\n  0xffffffffffffffffffffffffffffffffffffffff\n  and\n  mul\n  or\n  swap1\n  sstore\n  pop\n    /* \"tronbox/contracts/SmartGenie.sol\":2513:2523  _ursWallet */\n  dup1\n    /* \"tronbox/contracts/SmartGenie.sol\":2501:2510  ursWallet */\n  0x01\n  0x00\n    /* \"tronbox/contracts/SmartGenie.sol\":2501:2523  ursWallet = _ursWallet */\n  0x0100\n  exp\n  dup2\n  sload\n  dup2\n  0xffffffffffffffffffffffffffffffffffffffff\n  mul\n  not\n  and\n  swap1\n  dup4\n  0xffffffffffffffffffffffffffffffffffffffff\n  and\n  mul\n  or\n  swap1\n  sstore\n  pop\n    /* \"tronbox/contracts/SmartGenie.sol\":2550:2560  _sprWallet */\n  dup3\n    /* \"tronbox/contracts/SmartGenie.sol\":2533:2547  splPromoWallet */\n  0x02\n  0x00\n    /* \"tronbox/contracts/SmartGenie.sol\":2533:2560  splPromoWallet = _sprWallet */\n  0x0100\n  exp\n  dup2\n  sload\n  dup2\n  0xffffffffffffffffffffffffffffffffffffffff\n  mul\n  not\n  and\n  swap1\n  dup4\n  0xffffffffffffffffffffffffffffffffffffffff\n  and\n  mul\n  or\n  swap1\n  sstore\n  pop\n    /* \"tronbox/contracts/SmartGenie.sol\":2585:2598  _rewardWallet */\n  dup2\n    /* \"tronbox/contracts/SmartGenie.sol\":2570:2582  rewardWallet */\n  0x03\n  0x00\n    /* \"tronbox/contracts/SmartGenie.sol\":2570:2598  rewardWallet = _rewardWallet */\n  0x0100\n  exp\n  dup2\n  sload\n  dup2\n  0xffffffffffffffffffffffffffffffffffffffff\n  mul\n  not\n  and\n  swap1\n  dup4\n  0xffffffffffffffffffffffffffffffffffffffff\n  and\n  mul\n  or\n  swap1\n  sstore\n  pop\n    /* \"tronbox/contracts/SmartGenie.sol\":2608:2675  promotionWallets = [_prWallet1, _prWallet2, _prWallet3, _prWallet4] */\n  mload(0x40)\n  dup1\n  0x80\n  add\n  0x40\n  mstore\n  dup1\n    /* \"tronbox/contracts/SmartGenie.sol\":2628:2638  _prWallet1 */\n  dup9\n    /* \"tronbox/contracts/SmartGenie.sol\":2608:2675  promotionWallets = [_prWallet1, _prWallet2, _prWallet3, _prWallet4] */\n  0xffffffffffffffffffffffffffffffffffffffff\n  and\n  0xffffffffffffffffffffffffffffffffffffffff\n  and\n  dup2\n  mstore\n  0x20\n  add\n    /* \"tronbox/contracts/SmartGenie.sol\":2640:2650  _prWallet2 */\n  dup8\n    /* \"tronbox/contracts/SmartGenie.sol\":2608:2675  promotionWallets = [_prWallet1, _prWallet2, _prWallet3, _prWallet4] */\n  0xffffffffffffffffffffffffffffffffffffffff\n  and\n  0xffffffffffffffffffffffffffffffffffffffff\n  and\n  dup2\n  mstore\n  0x20\n  add\n    /* \"tronbox/contracts/SmartGenie.sol\":2652:2662  _prWallet3 */\n  dup7\n    /* \"tronbox/contracts/SmartGenie.sol\":2608:2675  promotionWallets = [_prWallet1, _prWallet2, _prWallet3, _prWallet4] */\n  0xffffffffffffffffffffffffffffffffffffffff\n  and\n  0xffffffffffffffffffffffffffffffffffffffff\n  and\n  dup2\n  mstore\n  0x20\n  add\n    /* \"tronbox/contracts/SmartGenie.sol\":2664:2674  _prWallet4 */\n  dup6\n    /* \"tronbox/contracts/SmartGenie.sol\":2608:2675  promotionWallets = [_prWallet1, _prWallet2, _prWallet3, _prWallet4] */\n  0xffffffffffffffffffffffffffffffffffffffff\n  and\n  0xffffffffffffffffffffffffffffffffffffffff\n  and\n  dup2\n  mstore\n  pop\n    /* \"tronbox/contracts/SmartGenie.sol\":2608:2624  promotionWallets */\n  0x04\n    /* \"tronbox/contracts/SmartGenie.sol\":2608:2675  promotionWallets = [_prWallet1, _prWallet2, _prWallet3, _prWallet4] */\n  swap1\n  0x04\n  tag_16\n  swap3\n  swap2\n  swap1\n  tag_17\n  jump\t// in\ntag_16:\n  pop\n    /* \"tronbox/contracts/SmartGenie.sol\":2774:2777  100 */\n  0x64\n    /* \"tronbox/contracts/SmartGenie.sol\":2770:2772  80 */\n  0x50\n    /* \"tronbox/contracts/SmartGenie.sol\":2763:2769  regFee */\n  sload(0x13)\n    /* \"tronbox/contracts/SmartGenie.sol\":2763:2772  regFee*80 */\n  tag_18\n  swap2\n  swap1\n  tag_4\n  jump\t// in\ntag_18:\n    /* \"tronbox/contracts/SmartGenie.sol\":2762:2777  (regFee*80)/100 */\n  tag_19\n  swap2\n  swap1\n  tag_6\n  jump\t// in\ntag_19:\n    /* \"tronbox/contracts/SmartGenie.sol\":2745:2756  LEVEL_PRICE */\n  0x09\n    /* \"tronbox/contracts/SmartGenie.sol\":2745:2759  LEVEL_PRICE[1] */\n  0x00\n    /* \"tronbox/contracts/SmartGenie.sol\":2757:2758  1 */\n  0x01\n    /* \"tronbox/contracts/SmartGenie.sol\":2745:2759  LEVEL_PRICE[1] */\n  dup2\n  mstore\n  0x20\n  add\n  swap1\n  dup2\n  mstore\n  0x20\n  add\n  0x00\n  keccak256\n    /* \"tronbox/contracts/SmartGenie.sol\":2745:2777  LEVEL_PRICE[1] = (regFee*80)/100 */\n  dup2\n  swap1\n  sstore\n  pop\n    /* \"tronbox/contracts/SmartGenie.sol\":2819:2820  2 */\n  0x02\n    /* \"tronbox/contracts/SmartGenie.sol\":2804:2815  LEVEL_PRICE */\n  0x09\n    /* \"tronbox/contracts/SmartGenie.sol\":2804:2818  LEVEL_PRICE[1] */\n  0x00\n    /* \"tronbox/contracts/SmartGenie.sol\":2816:2817  1 */\n  0x01\n    /* \"tronbox/contracts/SmartGenie.sol\":2804:2818  LEVEL_PRICE[1] */\n  dup2\n  mstore\n  0x20\n  add\n  swap1\n  dup2\n  mstore\n  0x20\n  add\n  0x00\n  keccak256\n  sload\n    /* \"tronbox/contracts/SmartGenie.sol\":2804:2820  LEVEL_PRICE[1]*2 */\n  tag_20\n  swap2\n  swap1\n  tag_4\n  jump\t// in\ntag_20:\n    /* \"tronbox/contracts/SmartGenie.sol\":2787:2798  LEVEL_PRICE */\n  0x09\n    /* \"tronbox/contracts/SmartGenie.sol\":2787:2801  LEVEL_PRICE[2] */\n  0x00\n    /* \"tronbox/contracts/SmartGenie.sol\":2799:2800  2 */\n  0x02\n    /* \"tronbox/contracts/SmartGenie.sol\":2787:2801  LEVEL_PRICE[2] */\n  dup2\n  mstore\n  0x20\n  add\n  swap1\n  dup2\n  mstore\n  0x20\n  add\n  0x00\n  keccak256\n    /* \"tronbox/contracts/SmartGenie.sol\":2787:2820  LEVEL_PRICE[2] = LEVEL_PRICE[1]*2 */\n  dup2\n  swap1\n  sstore\n  pop\n    /* \"tronbox/contracts/SmartGenie.sol\":2862:2863  2 */\n  0x02\n    /* \"tronbox/contracts/SmartGenie.sol\":2847:2858  LEVEL_PRICE */\n  0x09\n    /* \"tronbox/contracts/SmartGenie.sol\":2847:2861  LEVEL_PRICE[2] */\n  0x00\n    /* \"tronbox/contracts/SmartGenie.sol\":2859:2860  2 */\n  0x02\n    /* \"tronbox/contracts/SmartGenie.sol\":2847:2861  LEVEL_PRICE[2] */\n  dup2\n  mstore\n  0x20\n  add\n  swap1\n  dup2\n  mstore\n  0x20\n  add\n  0x00\n  keccak256\n  sload\n    /* \"tronbox/contracts/SmartGenie.sol\":2847:2863  LEVEL_PRICE[2]*2 */\n  tag_21\n  swap2\n  swap1\n  tag_4\n  jump\t// in\ntag_21:\n    /* \"tronbox/contracts/SmartGenie.sol\":2830:2841  LEVEL_PRICE */\n  0x09\n    /* \"tronbox/contracts/SmartGenie.sol\":2830:2844  LEVEL_PRICE[3] */\n  0x00\n    /* \"tronbox/contracts/SmartGenie.sol\":2842:2843  3 */\n  0x03\n    /* \"tronbox/contracts/SmartGenie.sol\":2830:2844  LEVEL_PRICE[3] */\n  dup2\n  mstore\n  0x20\n  add\n  swap1\n  dup2\n  mstore\n  0x20\n  add\n  0x00\n  keccak256\n    /* \"tronbox/contracts/SmartGenie.sol\":2830:2863  LEVEL_PRICE[3] = LEVEL_PRICE[2]*2 */\n  dup2\n  swap1\n  sstore\n  pop\n    /* \"tronbox/contracts/SmartGenie.sol\":2905:2906  2 */\n  0x02\n    /* \"tronbox/contracts/SmartGenie.sol\":2890:2901  LEVEL_PRICE */\n  0x09\n    /* \"tronbox/contracts/SmartGenie.sol\":2890:2904  LEVEL_PRICE[3] */\n  0x00\n    /* \"tronbox/contracts/SmartGenie.sol\":2902:2903  3 */\n  0x03\n    /* \"tronbox/contracts/SmartGenie.sol\":2890:2904  LEVEL_PRICE[3] */\n  dup2\n  mstore\n  0x20\n  add\n  swap1\n  dup2\n  mstore\n  0x20\n  add\n  0x00\n  keccak256\n  sload\n    /* \"tronbox/contracts/SmartGenie.sol\":2890:2906  LEVEL_PRICE[3]*2 */\n  tag_22\n  swap2\n  swap1\n  tag_4\n  jump\t// in\ntag_22:\n    /* \"tronbox/contracts/SmartGenie.sol\":2873:2884  LEVEL_PRICE */\n  0x09\n    /* \"tronbox/contracts/SmartGenie.sol\":2873:2887  LEVEL_PRICE[4] */\n  0x00\n    /* \"tronbox/contracts/SmartGenie.sol\":2885:2886  4 */\n  0x04\n    /* \"tronbox/contracts/SmartGenie.sol\":2873:2887  LEVEL_PRICE[4] */\n  dup2\n  mstore\n  0x20\n  add\n  swap1\n  dup2\n  mstore\n  0x20\n  add\n  0x00\n  keccak256\n    /* \"tronbox/contracts/SmartGenie.sol\":2873:2906  LEVEL_PRICE[4] = LEVEL_PRICE[3]*2 */\n  dup2\n  swap1\n  sstore\n  pop\n    /* \"tronbox/contracts/SmartGenie.sol\":2948:2949  2 */\n  0x02\n    /* \"tronbox/contracts/SmartGenie.sol\":2933:2944  LEVEL_PRICE */\n  0x09\n    /* \"tronbox/contracts/SmartGenie.sol\":2933:2947  LEVEL_PRICE[4] */\n  0x00\n    /* \"tronbox/contracts/SmartGenie.sol\":2945:2946  4 */\n  0x04\n    /* \"tronbox/contracts/SmartGenie.sol\":2933:2947  LEVEL_PRICE[4] */\n  dup2\n  mstore\n  0x20\n  add\n  swap1\n  dup2\n  mstore\n  0x20\n  add\n  0x00\n  keccak256\n  sload\n    /* \"tronbox/contracts/SmartGenie.sol\":2933:2949  LEVEL_PRICE[4]*2 */\n  tag_23\n  swap2\n  swap1\n  tag_4\n  jump\t// in\ntag_23:\n    /* \"tronbox/contracts/SmartGenie.sol\":2916:2927  LEVEL_PRICE */\n  0x09\n    /* \"tronbox/contracts/SmartGenie.sol\":2916:2930  LEVEL_PRICE[5] */\n  0x00\n    /* \"tronbox/contracts/SmartGenie.sol\":2928:2929  5 */\n  0x05\n    /* \"tronbox/contracts/SmartGenie.sol\":2916:2930  LEVEL_PRICE[5] */\n  dup2\n  mstore\n  0x20\n  add\n  swap1\n  dup2\n  mstore\n  0x20\n  add\n  0x00\n  keccak256\n    /* \"tronbox/contracts/SmartGenie.sol\":2916:2949  LEVEL_PRICE[5] = LEVEL_PRICE[4]*2 */\n  dup2\n  swap1\n  sstore\n  pop\n    /* \"tronbox/contracts/SmartGenie.sol\":2991:2992  2 */\n  0x02\n    /* \"tronbox/contracts/SmartGenie.sol\":2976:2987  LEVEL_PRICE */\n  0x09\n    /* \"tronbox/contracts/SmartGenie.sol\":2976:2990  LEVEL_PRICE[5] */\n  0x00\n    /* \"tronbox/contracts/SmartGenie.sol\":2988:2989  5 */\n  0x05\n    /* \"tronbox/contracts/SmartGenie.sol\":2976:2990  LEVEL_PRICE[5] */\n  dup2\n  mstore\n  0x20\n  add\n  swap1\n  dup2\n  mstore\n  0x20\n  add\n  0x00\n  keccak256\n  sload\n    /* \"tronbox/contracts/SmartGenie.sol\":2976:2992  LEVEL_PRICE[5]*2 */\n  tag_24\n  swap2\n  swap1\n  tag_4\n  jump\t// in\ntag_24:\n    /* \"tronbox/contracts/SmartGenie.sol\":2959:2970  LEVEL_PRICE */\n  0x09\n    /* \"tronbox/contracts/SmartGenie.sol\":2959:2973  LEVEL_PRICE[6] */\n  0x00\n    /* \"tronbox/contracts/SmartGenie.sol\":2971:2972  6 */\n  0x06\n    /* \"tronbox/contracts/SmartGenie.sol\":2959:2973  LEVEL_PRICE[6] */\n  dup2\n  mstore\n  0x20\n  add\n  swap1\n  dup2\n  mstore\n  0x20\n  add\n  0x00\n  keccak256\n    /* \"tronbox/contracts/SmartGenie.sol\":2959:2992  LEVEL_PRICE[6] = LEVEL_PRICE[5]*2 */\n  dup2\n  swap1\n  sstore\n  pop\n    /* \"tronbox/contracts/SmartGenie.sol\":3034:3035  2 */\n  0x02\n    /* \"tronbox/contracts/SmartGenie.sol\":3019:3030  LEVEL_PRICE */\n  0x09\n    /* \"tronbox/contracts/SmartGenie.sol\":3019:3033  LEVEL_PRICE[6] */\n  0x00\n    /* \"tronbox/contracts/SmartGenie.sol\":3031:3032  6 */\n  0x06\n    /* \"tronbox/contracts/SmartGenie.sol\":3019:3033  LEVEL_PRICE[6] */\n  dup2\n  mstore\n  0x20\n  add\n  swap1\n  dup2\n  mstore\n  0x20\n  add\n  0x00\n  keccak256\n  sload\n    /* \"tronbox/contracts/SmartGenie.sol\":3019:3035  LEVEL_PRICE[6]*2 */\n  tag_25\n  swap2\n  swap1\n  tag_4\n  jump\t// in\ntag_25:\n    /* \"tronbox/contracts/SmartGenie.sol\":3002:3013  LEVEL_PRICE */\n  0x09\n    /* \"tronbox/contracts/SmartGenie.sol\":3002:3016  LEVEL_PRICE[7] */\n  0x00\n    /* \"tronbox/contracts/SmartGenie.sol\":3014:3015  7 */\n  0x07\n    /* \"tronbox/contracts/SmartGenie.sol\":3002:3016  LEVEL_PRICE[7] */\n  dup2\n  mstore\n  0x20\n  add\n  swap1\n  dup2\n  mstore\n  0x20\n  add\n  0x00\n  keccak256\n    /* \"tronbox/contracts/SmartGenie.sol\":3002:3035  LEVEL_PRICE[7] = LEVEL_PRICE[6]*2 */\n  dup2\n  swap1\n  sstore\n  pop\n    /* \"tronbox/contracts/SmartGenie.sol\":3077:3078  2 */\n  0x02\n    /* \"tronbox/contracts/SmartGenie.sol\":3062:3073  LEVEL_PRICE */\n  0x09\n    /* \"tronbox/contracts/SmartGenie.sol\":3062:3076  LEVEL_PRICE[7] */\n  0x00\n    /* \"tronbox/contracts/SmartGenie.sol\":3074:3075  7 */\n  0x07\n    /* \"tronbox/contracts/SmartGenie.sol\":3062:3076  LEVEL_PRICE[7] */\n  dup2\n  mstore\n  0x20\n  add\n  swap1\n  dup2\n  mstore\n  0x20\n  add\n  0x00\n  keccak256\n  sload\n    /* \"tronbox/contracts/SmartGenie.sol\":3062:3078  LEVEL_PRICE[7]*2 */\n  tag_26\n  swap2\n  swap1\n  tag_4\n  jump\t// in\ntag_26:\n    /* \"tronbox/contracts/SmartGenie.sol\":3045:3056  LEVEL_PRICE */\n  0x09\n    /* \"tronbox/contracts/SmartGenie.sol\":3045:3059  LEVEL_PRICE[8] */\n  0x00\n    /* \"tronbox/contracts/SmartGenie.sol\":3057:3058  8 */\n  0x08\n    /* \"tronbox/contracts/SmartGenie.sol\":3045:3059  LEVEL_PRICE[8] */\n  dup2\n  mstore\n  0x20\n  add\n  swap1\n  dup2\n  mstore\n  0x20\n  add\n  0x00\n  keccak256\n    /* \"tronbox/contracts/SmartGenie.sol\":3045:3078  LEVEL_PRICE[8] = LEVEL_PRICE[7]*2 */\n  dup2\n  swap1\n  sstore\n  pop\n    /* \"tronbox/contracts/SmartGenie.sol\":3120:3121  2 */\n  0x02\n    /* \"tronbox/contracts/SmartGenie.sol\":3105:3116  LEVEL_PRICE */\n  0x09\n    /* \"tronbox/contracts/SmartGenie.sol\":3105:3119  LEVEL_PRICE[8] */\n  0x00\n    /* \"tronbox/contracts/SmartGenie.sol\":3117:3118  8 */\n  0x08\n    /* \"tronbox/contracts/SmartGenie.sol\":3105:3119  LEVEL_PRICE[8] */\n  dup2\n  mstore\n  0x20\n  add\n  swap1\n  dup2\n  mstore\n  0x20\n  add\n  0x00\n  keccak256\n  sload\n    /* \"tronbox/contracts/SmartGenie.sol\":3105:3121  LEVEL_PRICE[8]*2 */\n  tag_27\n  swap2\n  swap1\n  tag_4\n  jump\t// in\ntag_27:\n    /* \"tronbox/contracts/SmartGenie.sol\":3088:3099  LEVEL_PRICE */\n  0x09\n    /* \"tronbox/contracts/SmartGenie.sol\":3088:3102  LEVEL_PRICE[9] */\n  0x00\n    /* \"tronbox/contracts/SmartGenie.sol\":3100:3101  9 */\n  0x09\n    /* \"tronbox/contracts/SmartGenie.sol\":3088:3102  LEVEL_PRICE[9] */\n  dup2\n  mstore\n  0x20\n  add\n  swap1\n  dup2\n  mstore\n  0x20\n  add\n  0x00\n  keccak256\n    /* \"tronbox/contracts/SmartGenie.sol\":3088:3121  LEVEL_PRICE[9] = LEVEL_PRICE[8]*2 */\n  dup2\n  swap1\n  sstore\n  pop\n    /* \"tronbox/contracts/SmartGenie.sol\":3182:3211  UserStruct storage userStruct */\n  0x00\n    /* \"tronbox/contracts/SmartGenie.sol\":3214:3219  users */\n  0x0a\n    /* \"tronbox/contracts/SmartGenie.sol\":3214:3232  users[adminWallet] */\n  0x00\n    /* \"tronbox/contracts/SmartGenie.sol\":3220:3231  adminWallet */\n  dup1\n  0x00\n  swap1\n  sload\n  swap1\n  0x0100\n  exp\n  swap1\n  div\n  0xffffffffffffffffffffffffffffffffffffffff\n  and\n    /* \"tronbox/contracts/SmartGenie.sol\":3214:3232  users[adminWallet] */\n  0xffffffffffffffffffffffffffffffffffffffff\n  and\n  0xffffffffffffffffffffffffffffffffffffffff\n  and\n  dup2\n  mstore\n  0x20\n  add\n  swap1\n  dup2\n  mstore\n  0x20\n  add\n  0x00\n  keccak256\n    /* \"tronbox/contracts/SmartGenie.sol\":3182:3232  UserStruct storage userStruct = users[adminWallet] */\n  swap1\n  pop\n    /* \"tronbox/contracts/SmartGenie.sol\":3263:3267  true */\n  0x01\n    /* \"tronbox/contracts/SmartGenie.sol\":3242:3252  userStruct */\n  dup2\n    /* \"tronbox/contracts/SmartGenie.sol\":3242:3260  userStruct.isExist */\n  0x00\n  add\n  0x00\n    /* \"tronbox/contracts/SmartGenie.sol\":3242:3267  userStruct.isExist = true */\n  0x0100\n  exp\n  dup2\n  sload\n  dup2\n  0xff\n  mul\n  not\n  and\n  swap1\n  dup4\n  iszero\n  iszero\n  mul\n  or\n  swap1\n  sstore\n  pop\n    /* \"tronbox/contracts/SmartGenie.sol\":3293:3303  currUserID */\n  sload(0x0f)\n    /* \"tronbox/contracts/SmartGenie.sol\":3277:3287  userStruct */\n  dup2\n    /* \"tronbox/contracts/SmartGenie.sol\":3277:3290  userStruct.id */\n  0x01\n  add\n    /* \"tronbox/contracts/SmartGenie.sol\":3277:3303  userStruct.id = currUserID */\n  dup2\n  swap1\n  sstore\n  pop\n    /* \"tronbox/contracts/SmartGenie.sol\":3337:3338  0 */\n  0x00\n    /* \"tronbox/contracts/SmartGenie.sol\":3313:3323  userStruct */\n  dup2\n    /* \"tronbox/contracts/SmartGenie.sol\":3313:3334  userStruct.referrerID */\n  0x02\n  add\n    /* \"tronbox/contracts/SmartGenie.sol\":3313:3338  userStruct.referrerID = 0 */\n  dup2\n  swap1\n  sstore\n  pop\n    /* \"tronbox/contracts/SmartGenie.sol\":3384:3385  0 */\n  0x00\n    /* \"tronbox/contracts/SmartGenie.sol\":3370:3386  new address[](0) */\n  0xffffffffffffffff\n  dup2\n  gt\n  iszero\n  tag_28\n  jumpi\n  tag_29\n  tag_30\n  jump\t// in\ntag_29:\ntag_28:\n  mload(0x40)\n  swap1\n  dup1\n  dup3\n  mstore\n  dup1\n  0x20\n  mul\n  0x20\n  add\n  dup3\n  add\n  0x40\n  mstore\n  dup1\n  iszero\n  tag_31\n  jumpi\n  dup2\n  0x20\n  add\n  0x20\n  dup3\n  mul\n  dup1\n  calldatasize\n  dup4\n  calldatacopy\n  dup1\n  dup3\n  add\n  swap2\n  pop\n  pop\n  swap1\n  pop\ntag_31:\n  pop\n    /* \"tronbox/contracts/SmartGenie.sol\":3348:3358  userStruct */\n  dup2\n    /* \"tronbox/contracts/SmartGenie.sol\":3348:3367  userStruct.referral */\n  0x03\n  add\n    /* \"tronbox/contracts/SmartGenie.sol\":3348:3386  userStruct.referral = new address[](0) */\n  swap1\n  dup1\n  mload\n  swap1\n  0x20\n  add\n  swap1\n  tag_32\n  swap3\n  swap2\n  swap1\n  tag_33\n  jump\t// in\ntag_32:\n  pop\n    /* \"tronbox/contracts/SmartGenie.sol\":3416:3431  block.timestamp */\n  timestamp\n    /* \"tronbox/contracts/SmartGenie.sol\":3396:3406  userStruct */\n  dup2\n    /* \"tronbox/contracts/SmartGenie.sol\":3396:3413  userStruct.joined */\n  0x04\n  add\n    /* \"tronbox/contracts/SmartGenie.sol\":3396:3431  userStruct.joined = block.timestamp */\n  dup2\n  swap1\n  sstore\n  pop\n    /* \"tronbox/contracts/SmartGenie.sol\":3482:3483  0 */\n  0x00\n    /* \"tronbox/contracts/SmartGenie.sol\":3471:3484  new uint[](0) */\n  0xffffffffffffffff\n  dup2\n  gt\n  iszero\n  tag_34\n  jumpi\n  tag_35\n  tag_30\n  jump\t// in\ntag_35:\ntag_34:\n  mload(0x40)\n  swap1\n  dup1\n  dup3\n  mstore\n  dup1\n  0x20\n  mul\n  0x20\n  add\n  dup3\n  add\n  0x40\n  mstore\n  dup1\n  iszero\n  tag_36\n  jumpi\n  dup2\n  0x20\n  add\n  0x20\n  dup3\n  mul\n  dup1\n  calldatasize\n  dup4\n  calldatacopy\n  dup1\n  dup3\n  add\n  swap2\n  pop\n  pop\n  swap1\n  pop\ntag_36:\n  pop\n    /* \"tronbox/contracts/SmartGenie.sol\":3441:3451  userStruct */\n  dup2\n    /* \"tronbox/contracts/SmartGenie.sol\":3441:3468  userStruct.levelEligibility */\n  0x06\n  add\n    /* \"tronbox/contracts/SmartGenie.sol\":3441:3484  userStruct.levelEligibility = new uint[](0) */\n  swap1\n  dup1\n  mload\n  swap1\n  0x20\n  add\n  swap1\n  tag_37\n  swap3\n  swap2\n  swap1\n  tag_38\n  jump\t// in\ntag_37:\n  pop\n    /* \"tronbox/contracts/SmartGenie.sol\":3496:3506  currUserID */\n  0x0f\n  0x00\n    /* \"tronbox/contracts/SmartGenie.sol\":3496:3508  currUserID++ */\n  dup2\n  sload\n  dup1\n  swap3\n  swap2\n  swap1\n  tag_39\n  swap1\n  tag_40\n  jump\t// in\ntag_39:\n  swap2\n  swap1\n  pop\n  sstore\n  pop\n    /* \"tronbox/contracts/SmartGenie.sol\":3541:3552  adminWallet */\n  0x00\n  dup1\n  sload\n  swap1\n  0x0100\n  exp\n  swap1\n  div\n  0xffffffffffffffffffffffffffffffffffffffff\n  and\n    /* \"tronbox/contracts/SmartGenie.sol\":3518:3526  userList */\n  0x0b\n    /* \"tronbox/contracts/SmartGenie.sol\":3518:3538  userList[currUserID] */\n  0x00\n    /* \"tronbox/contracts/SmartGenie.sol\":3527:3537  currUserID */\n  sload(0x0f)\n    /* \"tronbox/contracts/SmartGenie.sol\":3518:3538  userList[currUserID] */\n  dup2\n  mstore\n  0x20\n  add\n  swap1\n  dup2\n  mstore\n  0x20\n  add\n  0x00\n  keccak256\n  0x00\n    /* \"tronbox/contracts/SmartGenie.sol\":3518:3552  userList[currUserID] = adminWallet */\n  0x0100\n  exp\n  dup2\n  sload\n  dup2\n  0xffffffffffffffffffffffffffffffffffffffff\n  mul\n  not\n  and\n  swap1\n  dup4\n  0xffffffffffffffffffffffffffffffffffffffff\n  and\n  mul\n  or\n  swap1\n  sstore\n  pop\n    /* \"tronbox/contracts/SmartGenie.sol\":2402:3559  {... */\n  pop\n    /* \"tronbox/contracts/SmartGenie.sol\":2214:3559  constructor(address _prWallet1, address _prWallet2, ... */\n  pop\n  pop\n  pop\n  pop\n  pop\n  pop\n  pop\n    /* \"tronbox/contracts/SmartGenie.sol\":124:23608  contract SmartGenie {... */\n  jump(tag_41)\ntag_2:\n  dup3\n  add(0x1f, 0x04)\n  0x20\n  swap1\n  div\n  dup2\n  add\n  swap3\n  dup3\n  iszero\n  tag_42\n  jumpi\n  swap2\n  0x20\n  mul\n  dup3\n  add\n  0x00\ntag_43:\n  dup4\n  dup3\n  gt\n  iszero\n  tag_44\n  jumpi\n  dup4\n  mload\n  dup4\n  dup3\n  0x0100\n  exp\n  dup2\n  sload\n  dup2\n  0xff\n  mul\n  not\n  and\n  swap1\n  dup4\n  0xff\n  and\n  mul\n  or\n  swap1\n  sstore\n  pop\n  swap3\n  0x20\n  add\n  swap3\n  0x01\n  add\n  0x20\n  dup2\n  0x00\n  add\n  div\n  swap3\n  dup4\n  add\n  swap3\n  0x01\n  sub\n  mul\n  jump(tag_43)\ntag_44:\n  dup1\n  iszero\n  tag_45\n  jumpi\n  dup3\n  dup2\n  0x0100\n  exp\n  dup2\n  sload\n  swap1\n  0xff\n  mul\n  not\n  and\n  swap1\n  sstore\n  0x01\n  add\n  0x20\n  dup2\n  0x00\n  add\n  div\n  swap3\n  dup4\n  add\n  swap3\n  0x01\n  sub\n  mul\n  jump(tag_44)\ntag_45:\n  pop\ntag_42:\n  pop\n  swap1\n  pop\n  tag_46\n  swap2\n  swap1\n  tag_47\n  jump\t// in\ntag_46:\n  pop\n  swap1\n  jump\t// out\ntag_17:\n  dup3\n  0x04\n  dup2\n  add\n  swap3\n  dup3\n  iszero\n  tag_48\n  jumpi\n  swap2\n  0x20\n  mul\n  dup3\n  add\ntag_49:\n  dup3\n  dup2\n  gt\n  iszero\n  tag_50\n  jumpi\n  dup3\n  mload\n  dup3\n  exp(0x0100, 0x00)\n  dup2\n  sload\n  dup2\n  0xffffffffffffffffffffffffffffffffffffffff\n  mul\n  not\n  and\n  swap1\n  dup4\n  0xffffffffffffffffffffffffffffffffffffffff\n  and\n  mul\n  or\n  swap1\n  sstore\n  pop\n  swap2\n  0x20\n  add\n  swap2\n  swap1\n  0x01\n  add\n  swap1\n  jump(tag_49)\ntag_50:\ntag_48:\n  pop\n  swap1\n  pop\n  tag_51\n  swap2\n  swap1\n  tag_47\n  jump\t// in\ntag_51:\n  pop\n  swap1\n  jump\t// out\ntag_33:\n  dup3\n  dup1\n  sload\n  dup3\n  dup3\n  sstore\n  swap1\n  0x00\n  mstore\n  keccak256(0x00, 0x20)\n  swap1\n  dup2\n  add\n  swap3\n  dup3\n  iszero\n  tag_52\n  jumpi\n  swap2\n  0x20\n  mul\n  dup3\n  add\ntag_53:\n  dup3\n  dup2\n  gt\n  iszero\n  tag_54\n  jumpi\n  dup3\n  mload\n  dup3\n  exp(0x0100, 0x00)\n  dup2\n  sload\n  dup2\n  0xffffffffffffffffffffffffffffffffffffffff\n  mul\n  not\n  and\n  swap1\n  dup4\n  0xffffffffffffffffffffffffffffffffffffffff\n  and\n  mul\n  or\n  swap1\n  sstore\n  pop\n  swap2\n  0x20\n  add\n  swap2\n  swap1\n  0x01\n  add\n  swap1\n  jump(tag_53)\ntag_54:\ntag_52:\n  pop\n  swap1\n  pop\n  tag_55\n  swap2\n  swap1\n  tag_47\n  jump\t// in\ntag_55:\n  pop\n  swap1\n  jump\t// out\ntag_38:\n  dup3\n  dup1\n  sload\n  dup3\n  dup3\n  sstore\n  swap1\n  0x00\n  mstore\n  keccak256(0x00, 0x20)\n  swap1\n  dup2\n  add\n  swap3\n  dup3\n  iszero\n  tag_56\n  jumpi\n  swap2\n  0x20\n  mul\n  dup3\n  add\ntag_57:\n  dup3\n  dup2\n  gt\n  iszero\n  tag_58\n  jumpi\n  dup3\n  mload\n  dup3\n  sstore\n  swap2\n  0x20\n  add\n  swap2\n  swap1\n  0x01\n  add\n  swap1\n  jump(tag_57)\ntag_58:\ntag_56:\n  pop\n  swap1\n  pop\n  tag_59\n  swap2\n  swap1\n  tag_47\n  jump\t// in\ntag_59:\n  pop\n  swap1\n  jump\t// out\ntag_47:\ntag_60:\n  dup1\n  dup3\n  gt\n  iszero\n  tag_61\n  jumpi\n  0x00\n  dup2\n  0x00\n  swap1\n  sstore\n  pop\n  0x01\n  add\n  jump(tag_60)\ntag_61:\n  pop\n  swap1\n  jump\t// out\n    /* \"#utility.yul\":7:84   */\ntag_62:\n    /* \"#utility.yul\":44:51   */\n  0x00\n    /* \"#utility.yul\":73:78   */\n  dup2\n    /* \"#utility.yul\":62:78   */\n  swap1\n  pop\n    /* \"#utility.yul\":7:84   */\n  swap2\n  swap1\n  pop\n  jump\t// out\n    /* \"#utility.yul\":90:270   */\ntag_63:\n    /* \"#utility.yul\":138:215   */\n  0x4e487b7100000000000000000000000000000000000000000000000000000000\n    /* \"#utility.yul\":135:136   */\n  0x00\n    /* \"#utility.yul\":128:216   */\n  mstore\n    /* \"#utility.yul\":235:239   */\n  0x11\n    /* \"#utility.yul\":232:233   */\n  0x04\n    /* \"#utility.yul\":225:240   */\n  mstore\n    /* \"#utility.yul\":259:263   */\n  0x24\n    /* \"#utility.yul\":256:257   */\n  0x00\n    /* \"#utility.yul\":249:264   */\n  revert\n    /* \"#utility.yul\":276:624   */\ntag_4:\n    /* \"#utility.yul\":316:323   */\n  0x00\n    /* \"#utility.yul\":339:359   */\n  tag_76\n    /* \"#utility.yul\":357:358   */\n  dup3\n    /* \"#utility.yul\":339:359   */\n  tag_62\n  jump\t// in\ntag_76:\n    /* \"#utility.yul\":334:359   */\n  swap2\n  pop\n    /* \"#utility.yul\":373:393   */\n  tag_77\n    /* \"#utility.yul\":391:392   */\n  dup4\n    /* \"#utility.yul\":373:393   */\n  tag_62\n  jump\t// in\ntag_77:\n    /* \"#utility.yul\":368:393   */\n  swap3\n  pop\n    /* \"#utility.yul\":561:562   */\n  dup2\n    /* \"#utility.yul\":493:559   */\n  0xffffffffffffffffffffffffffffffffffffffffffffffffffffffffffffffff\n    /* \"#utility.yul\":489:563   */\n  div\n    /* \"#utility.yul\":486:487   */\n  dup4\n    /* \"#utility.yul\":483:564   */\n  gt\n    /* \"#utility.yul\":478:479   */\n  dup3\n    /* \"#utility.yul\":471:480   */\n  iszero\n    /* \"#utility.yul\":464:481   */\n  iszero\n    /* \"#utility.yul\":460:565   */\n  and\n    /* \"#utility.yul\":457:588   */\n  iszero\n  tag_78\n  jumpi\n    /* \"#utility.yul\":568:586   */\n  tag_79\n  tag_63\n  jump\t// in\ntag_79:\n    /* \"#utility.yul\":457:588   */\ntag_78:\n    /* \"#utility.yul\":616:617   */\n  dup3\n    /* \"#utility.yul\":613:614   */\n  dup3\n    /* \"#utility.yul\":609:618   */\n  mul\n    /* \"#utility.yul\":598:618   */\n  swap1\n  pop\n    /* \"#utility.yul\":276:624   */\n  swap3\n  swap2\n  pop\n  pop\n  jump\t// out\n    /* \"#utility.yul\":630:810   */\ntag_64:\n    /* \"#utility.yul\":678:755   */\n  0x4e487b7100000000000000000000000000000000000000000000000000000000\n    /* \"#utility.yul\":675:676   */\n  0x00\n    /* \"#utility.yul\":668:756   */\n  mstore\n    /* \"#utility.yul\":775:779   */\n  0x12\n    /* \"#utility.yul\":772:773   */\n  0x04\n    /* \"#utility.yul\":765:780   */\n  mstore\n    /* \"#utility.yul\":799:803   */\n  0x24\n    /* \"#utility.yul\":796:797   */\n  0x00\n    /* \"#utility.yul\":789:804   */\n  revert\n    /* \"#utility.yul\":816:1001   */\ntag_6:\n    /* \"#utility.yul\":856:857   */\n  0x00\n    /* \"#utility.yul\":873:893   */\n  tag_82\n    /* \"#utility.yul\":891:892   */\n  dup3\n    /* \"#utility.yul\":873:893   */\n  tag_62\n  jump\t// in\ntag_82:\n    /* \"#utility.yul\":868:893   */\n  swap2\n  pop\n    /* \"#utility.yul\":907:927   */\n  tag_83\n    /* \"#utility.yul\":925:926   */\n  dup4\n    /* \"#utility.yul\":907:927   */\n  tag_62\n  jump\t// in\ntag_83:\n    /* \"#utility.yul\":902:927   */\n  swap3\n  pop\n    /* \"#utility.yul\":946:947   */\n  dup3\n    /* \"#utility.yul\":936:971   */\n  tag_84\n  jumpi\n    /* \"#utility.yul\":951:969   */\n  tag_85\n  tag_64\n  jump\t// in\ntag_85:\n    /* \"#utility.yul\":936:971   */\ntag_84:\n    /* \"#utility.yul\":993:994   */\n  dup3\n    /* \"#utility.yul\":990:991   */\n  dup3\n    /* \"#utility.yul\":986:995   */\n  div\n    /* \"#utility.yul\":981:995   */\n  swap1\n  pop\n    /* \"#utility.yul\":816:1001   */\n  swap3\n  swap2\n  pop\n  pop\n  jump\t// out\n    /* \"#utility.yul\":1088:1205   */\ntag_66:\n    /* \"#utility.yul\":1197:1198   */\n  0x00\n    /* \"#utility.yul\":1194:1195   */\n  dup1\n    /* \"#utility.yul\":1187:1199   */\n  revert\n    /* \"#utility.yul\":1334:1460   */\ntag_68:\n    /* \"#utility.yul\":1371:1378   */\n  0x00\n    /* \"#utility.yul\":1411:1453   */\n  0xffffffffffffffffffffffffffffffffffffffff\n    /* \"#utility.yul\":1404:1409   */\n  dup3\n    /* \"#utility.yul\":1400:1454   */\n  and\n    /* \"#utility.yul\":1389:1454   */\n  swap1\n  pop\n    /* \"#utility.yul\":1334:1460   */\n  swap2\n  swap1\n  pop\n  jump\t// out\n    /* \"#utility.yul\":1466:1562   */\ntag_69:\n    /* \"#utility.yul\":1503:1510   */\n  0x00\n    /* \"#utility.yul\":1532:1556   */\n  tag_91\n    /* \"#utility.yul\":1550:1555   */\n  dup3\n    /* \"#utility.yul\":1532:1556   */\n  tag_68\n  jump\t// in\ntag_91:\n    /* \"#utility.yul\":1521:1556   */\n  swap1\n  pop\n    /* \"#utility.yul\":1466:1562   */\n  swap2\n  swap1\n  pop\n  jump\t// out\n    /* \"#utility.yul\":1568:1690   */\ntag_70:\n    /* \"#utility.yul\":1641:1665   */\n  tag_93\n    /* \"#utility.yul\":1659:1664   */\n  dup2\n    /* \"#utility.yul\":1641:1665   */\n  tag_69\n  jump\t// in\ntag_93:\n    /* \"#utility.yul\":1634:1639   */\n  dup2\n    /* \"#utility.yul\":1631:1666   */\n  eq\n    /* \"#utility.yul\":1621:1684   */\n  tag_94\n  jumpi\n    /* \"#utility.yul\":1680:1681   */\n  0x00\n    /* \"#utility.yul\":1677:1678   */\n  dup1\n    /* \"#utility.yul\":1670:1682   */\n  revert\n    /* \"#utility.yul\":1621:1684   */\ntag_94:\n    /* \"#utility.yul\":1568:1690   */\n  pop\n  jump\t// out\n    /* \"#utility.yul\":1696:1839   */\ntag_71:\n    /* \"#utility.yul\":1753:1758   */\n  0x00\n    /* \"#utility.yul\":1784:1790   */\n  dup2\n    /* \"#utility.yul\":1778:1791   */\n  mload\n    /* \"#utility.yul\":1769:1791   */\n  swap1\n  pop\n    /* \"#utility.yul\":1800:1833   */\n  tag_96\n    /* \"#utility.yul\":1827:1832   */\n  dup2\n    /* \"#utility.yul\":1800:1833   */\n  tag_70\n  jump\t// in\ntag_96:\n    /* \"#utility.yul\":1696:1839   */\n  swap3\n  swap2\n  pop\n  pop\n  jump\t// out\n    /* \"#utility.yul\":1845:3136   */\ntag_13:\n    /* \"#utility.yul\":1969:1975   */\n  0x00\n    /* \"#utility.yul\":1977:1983   */\n  dup1\n    /* \"#utility.yul\":1985:1991   */\n  0x00\n    /* \"#utility.yul\":1993:1999   */\n  dup1\n    /* \"#utility.yul\":2001:2007   */\n  0x00\n    /* \"#utility.yul\":2009:2015   */\n  dup1\n    /* \"#utility.yul\":2017:2023   */\n  0x00\n    /* \"#utility.yul\":2066:2069   */\n  0xe0\n    /* \"#utility.yul\":2054:2063   */\n  dup9\n    /* \"#utility.yul\":2045:2052   */\n  dup11\n    /* \"#utility.yul\":2041:2064   */\n  sub\n    /* \"#utility.yul\":2037:2070   */\n  slt\n    /* \"#utility.yul\":2034:2154   */\n  iszero\n  tag_98\n  jumpi\n    /* \"#utility.yul\":2073:2152   */\n  tag_99\n  tag_66\n  jump\t// in\ntag_99:\n    /* \"#utility.yul\":2034:2154   */\ntag_98:\n    /* \"#utility.yul\":2193:2194   */\n  0x00\n    /* \"#utility.yul\":2218:2282   */\n  tag_100\n    /* \"#utility.yul\":2274:2281   */\n  dup11\n    /* \"#utility.yul\":2265:2271   */\n  dup3\n    /* \"#utility.yul\":2254:2263   */\n  dup12\n    /* \"#utility.yul\":2250:2272   */\n  add\n    /* \"#utility.yul\":2218:2282   */\n  tag_71\n  jump\t// in\ntag_100:\n    /* \"#utility.yul\":2208:2282   */\n  swap8\n  pop\n    /* \"#utility.yul\":2164:2292   */\n  pop\n    /* \"#utility.yul\":2331:2333   */\n  0x20\n    /* \"#utility.yul\":2357:2421   */\n  tag_101\n    /* \"#utility.yul\":2413:2420   */\n  dup11\n    /* \"#utility.yul\":2404:2410   */\n  dup3\n    /* \"#utility.yul\":2393:2402   */\n  dup12\n    /* \"#utility.yul\":2389:2411   */\n  add\n    /* \"#utility.yul\":2357:2421   */\n  tag_71\n  jump\t// in\ntag_101:\n    /* \"#utility.yul\":2347:2421   */\n  swap7\n  pop\n    /* \"#utility.yul\":2302:2431   */\n  pop\n    /* \"#utility.yul\":2470:2472   */\n  0x40\n    /* \"#utility.yul\":2496:2560   */\n  tag_102\n    /* \"#utility.yul\":2552:2559   */\n  dup11\n    /* \"#utility.yul\":2543:2549   */\n  dup3\n    /* \"#utility.yul\":2532:2541   */\n  dup12\n    /* \"#utility.yul\":2528:2550   */\n  add\n    /* \"#utility.yul\":2496:2560   */\n  tag_71\n  jump\t// in\ntag_102:\n    /* \"#utility.yul\":2486:2560   */\n  swap6\n  pop\n    /* \"#utility.yul\":2441:2570   */\n  pop\n    /* \"#utility.yul\":2609:2611   */\n  0x60\n    /* \"#utility.yul\":2635:2699   */\n  tag_103\n    /* \"#utility.yul\":2691:2698   */\n  dup11\n    /* \"#utility.yul\":2682:2688   */\n  dup3\n    /* \"#utility.yul\":2671:2680   */\n  dup12\n    /* \"#utility.yul\":2667:2689   */\n  add\n    /* \"#utility.yul\":2635:2699   */\n  tag_71\n  jump\t// in\ntag_103:\n    /* \"#utility.yul\":2625:2699   */\n  swap5\n  pop\n    /* \"#utility.yul\":2580:2709   */\n  pop\n    /* \"#utility.yul\":2748:2751   */\n  0x80\n    /* \"#utility.yul\":2775:2839   */\n  tag_104\n    /* \"#utility.yul\":2831:2838   */\n  dup11\n    /* \"#utility.yul\":2822:2828   */\n  dup3\n    /* \"#utility.yul\":2811:2820   */\n  dup12\n    /* \"#utility.yul\":2807:2829   */\n  add\n    /* \"#utility.yul\":2775:2839   */\n  tag_71\n  jump\t// in\ntag_104:\n    /* \"#utility.yul\":2765:2839   */\n  swap4\n  pop\n    /* \"#utility.yul\":2719:2849   */\n  pop\n    /* \"#utility.yul\":2888:2891   */\n  0xa0\n    /* \"#utility.yul\":2915:2979   */\n  tag_105\n    /* \"#utility.yul\":2971:2978   */\n  dup11\n    /* \"#utility.yul\":2962:2968   */\n  dup3\n    /* \"#utility.yul\":2951:2960   */\n  dup12\n    /* \"#utility.yul\":2947:2969   */\n  add\n    /* \"#utility.yul\":2915:2979   */\n  tag_71\n  jump\t// in\ntag_105:\n    /* \"#utility.yul\":2905:2979   */\n  swap3\n  pop\n    /* \"#utility.yul\":2859:2989   */\n  pop\n    /* \"#utility.yul\":3028:3031   */\n  0xc0\n    /* \"#utility.yul\":3055:3119   */\n  tag_106\n    /* \"#utility.yul\":3111:3118   */\n  dup11\n    /* \"#utility.yul\":3102:3108   */\n  dup3\n    /* \"#utility.yul\":3091:3100   */\n  dup12\n    /* \"#utility.yul\":3087:3109   */\n  add\n    /* \"#utility.yul\":3055:3119   */\n  tag_71\n  jump\t// in\ntag_106:\n    /* \"#utility.yul\":3045:3119   */\n  swap2\n  pop\n    /* \"#utility.yul\":2999:3129   */\n  pop\n    /* \"#utility.yul\":1845:3136   */\n  swap3\n  swap6\n  swap9\n  swap2\n  swap5\n  swap8\n  pop\n  swap3\n  swap6\n  pop\n  jump\t// out\n    /* \"#utility.yul\":3142:3322   */\ntag_30:\n    /* \"#utility.yul\":3190:3267   */\n  0x4e487b7100000000000000000000000000000000000000000000000000000000\n    /* \"#utility.yul\":3187:3188   */\n  0x00\n    /* \"#utility.yul\":3180:3268   */\n  mstore\n    /* \"#utility.yul\":3287:3291   */\n  0x41\n    /* \"#utility.yul\":3284:3285   */\n  0x04\n    /* \"#utility.yul\":3277:3292   */\n  mstore\n    /* \"#utility.yul\":3311:3315   */\n  0x24\n    /* \"#utility.yul\":3308:3309   */\n  0x00\n    /* \"#utility.yul\":3301:3316   */\n  revert\n    /* \"#utility.yul\":3328:3561   */\ntag_40:\n    /* \"#utility.yul\":3367:3370   */\n  0x00\n    /* \"#utility.yul\":3390:3414   */\n  tag_109\n    /* \"#utility.yul\":3408:3413   */\n  dup3\n    /* \"#utility.yul\":3390:3414   */\n  tag_62\n  jump\t// in\ntag_109:\n    /* \"#utility.yul\":3381:3414   */\n  swap2\n  pop\n    /* \"#utility.yul\":3436:3502   */\n  0xffffffffffffffffffffffffffffffffffffffffffffffffffffffffffffffff\n    /* \"#utility.yul\":3429:3434   */\n  dup3\n    /* \"#utility.yul\":3426:3503   */\n  eq\n    /* \"#utility.yul\":3423:3526   */\n  iszero\n  tag_110\n  jumpi\n    /* \"#utility.yul\":3506:3524   */\n  tag_111\n  tag_63\n  jump\t// in\ntag_111:\n    /* \"#utility.yul\":3423:3526   */\ntag_110:\n    /* \"#utility.yul\":3553:3554   */\n  0x01\n    /* \"#utility.yul\":3546:3551   */\n  dup3\n    /* \"#utility.yul\":3542:3555   */\n  add\n    /* \"#utility.yul\":3535:3555   */\n  swap1\n  pop\n    /* \"#utility.yul\":3328:3561   */\n  swap2\n  swap1\n  pop\n  jump\t// out\n    /* \"tronbox/contracts/SmartGenie.sol\":124:23608  contract SmartGenie {... */\ntag_41:\n  dataSize(sub_0)\n  dup1\n  dataOffset(sub_0)\n  0x00\n  codecopy\n  0x00\n  return\nstop\n\nsub_0: assembly {\n        /* \"tronbox/contracts/SmartGenie.sol\":124:23608  contract SmartGenie {... */\n      mstore(0x40, 0x80)\n      jumpi(tag_1, lt(calldatasize, 0x04))\n      shr(0xe0, calldataload(0x00))\n      dup1\n      0x992c85d2\n      gt\n      tag_24\n      jumpi\n      dup1\n      0xa87430ba\n      gt\n      tag_25\n      jumpi\n      dup1\n      0xa87430ba\n      eq\n      tag_18\n      jumpi\n      dup1\n      0xaa24c5c5\n      eq\n      tag_19\n      jumpi\n      dup1\n      0xbbf57068\n      eq\n      tag_20\n      jumpi\n      dup1\n      0xc15dec85\n      eq\n      tag_21\n      jumpi\n      dup1\n      0xf7bbfccd\n      eq\n      tag_22\n      jumpi\n      dup1\n      0xfb75b2c7\n      eq\n      tag_23\n      jumpi\n      jump(tag_1)\n    tag_25:\n      dup1\n      0x992c85d2\n      eq\n      tag_13\n      jumpi\n      dup1\n      0x99cbd74f\n      eq\n      tag_14\n      jumpi\n      dup1\n      0x9f4216e8\n      eq\n      tag_15\n      jumpi\n      dup1\n      0xa457c050\n      eq\n      tag_16\n      jumpi\n      dup1\n      0xa4bb170d\n      eq\n      tag_17\n      jumpi\n      jump(tag_1)\n    tag_24:\n      dup1\n      0x5e8a7069\n      gt\n      tag_26\n      jumpi\n      dup1\n      0x5e8a7069\n      eq\n      tag_7\n      jumpi\n      dup1\n      0x6043ddad\n      eq\n      tag_8\n      jumpi\n      dup1\n      0x6158fa00\n      eq\n      tag_9\n      jumpi\n      dup1\n      0x6f9fb98a\n      eq\n      tag_10\n      jumpi\n      dup1\n      0x79378e30\n      eq\n      tag_11\n      jumpi\n      dup1\n      0x8853b53e\n      eq\n      tag_12\n      jumpi\n      jump(tag_1)\n    tag_26:\n      dup1\n      0x10e4077a\n      eq\n      tag_2\n      jumpi\n      dup1\n      0x36b19cd7\n      eq\n      tag_3\n      jumpi\n      dup1\n      0x43f6753c\n      eq\n      tag_4\n      jumpi\n      dup1\n      0x4d948bea\n      eq\n      tag_5\n      jumpi\n      dup1\n      0x575cea6b\n      eq\n      tag_6\n      jumpi\n    tag_1:\n      0x00\n      dup1\n      revert\n        /* \"tronbox/contracts/SmartGenie.sol\":983:1017  address[4] public promotionWallets */\n    tag_2:\n      callvalue\n      dup1\n      iszero\n      tag_27\n      jumpi\n      0x00\n      dup1\n      revert\n    tag_27:\n      pop\n      tag_28\n      0x04\n      dup1\n      calldatasize\n      sub\n      dup2\n      add\n      swap1\n      tag_29\n      swap2\n      swap1\n      tag_30\n      jump\t// in\n    tag_29:\n      tag_31\n      jump\t// in\n    tag_28:\n      mload(0x40)\n      tag_32\n      swap2\n      swap1\n      tag_33\n      jump\t// in\n    tag_32:\n      mload(0x40)\n      dup1\n      swap2\n      sub\n      swap1\n      return\n        /* \"tronbox/contracts/SmartGenie.sol\":632:658  address public adminWallet */\n    tag_3:\n      callvalue\n      dup1\n      iszero\n      tag_34\n      jumpi\n      0x00\n      dup1\n      revert\n    tag_34:\n      pop\n      tag_35\n      tag_36\n      jump\t// in\n    tag_35:\n      mload(0x40)\n      tag_37\n      swap2\n      swap1\n      tag_33\n      jump\t// in\n    tag_37:\n      mload(0x40)\n      dup1\n      swap2\n      sub\n      swap1\n      return\n        /* \"tronbox/contracts/SmartGenie.sol\":1295:1370  mapping(uint256 => mapping(address => address)) public levelUpgradePayments */\n    tag_4:\n      callvalue\n      dup1\n      iszero\n      tag_38\n      jumpi\n      0x00\n      dup1\n      revert\n    tag_38:\n      pop\n      tag_39\n      0x04\n      dup1\n      calldatasize\n      sub\n      dup2\n      add\n      swap1\n      tag_40\n      swap2\n      swap1\n      tag_41\n      jump\t// in\n    tag_40:\n      tag_42\n      jump\t// in\n    tag_39:\n      mload(0x40)\n      tag_43\n      swap2\n      swap1\n      tag_33\n      jump\t// in\n    tag_43:\n      mload(0x40)\n      dup1\n      swap2\n      sub\n      swap1\n      return\n        /* \"tronbox/contracts/SmartGenie.sol\":1376:1453  mapping(uint256 => mapping(address => bool)) public isLevelUpgradedForAddress */\n    tag_5:\n      callvalue\n      dup1\n      iszero\n      tag_44\n      jumpi\n      0x00\n      dup1\n      revert\n    tag_44:\n      pop\n      tag_45\n      0x04\n      dup1\n      calldatasize\n      sub\n      dup2\n      add\n      swap1\n      tag_46\n      swap2\n      swap1\n      tag_41\n      jump\t// in\n    tag_46:\n      tag_47\n      jump\t// in\n    tag_45:\n      mload(0x40)\n      tag_48\n      swap2\n      swap1\n      tag_49\n      jump\t// in\n    tag_48:\n      mload(0x40)\n      dup1\n      swap2\n      sub\n      swap1\n      return\n        /* \"tronbox/contracts/SmartGenie.sol\":23276:23400  function getUserReferrals(address _user) public view returns(address[] memory) {... */\n    tag_6:\n      callvalue\n      dup1\n      iszero\n      tag_50\n      jumpi\n      0x00\n      dup1\n      revert\n    tag_50:\n      pop\n      tag_51\n      0x04\n      dup1\n      calldatasize\n      sub\n      dup2\n      add\n      swap1\n      tag_52\n      swap2\n      swap1\n      tag_53\n      jump\t// in\n    tag_52:\n      tag_54\n      jump\t// in\n    tag_51:\n      mload(0x40)\n      tag_55\n      swap2\n      swap1\n      tag_56\n      jump\t// in\n    tag_55:\n      mload(0x40)\n      dup1\n      swap2\n      sub\n      swap1\n      return\n        /* \"tronbox/contracts/SmartGenie.sol\":22002:22382  function transferURS() public returns (bool) {... */\n    tag_7:\n      callvalue\n      dup1\n      iszero\n      tag_57\n      jumpi\n      0x00\n      dup1\n      revert\n    tag_57:\n      pop\n      tag_58\n      tag_59\n      jump\t// in\n    tag_58:\n      mload(0x40)\n      tag_60\n      swap2\n      swap1\n      tag_49\n      jump\t// in\n    tag_60:\n      mload(0x40)\n      dup1\n      swap2\n      sub\n      swap1\n      return\n        /* \"tronbox/contracts/SmartGenie.sol\":1023:1070  uint8[4] public promotionPercantage = [2,1,1,1] */\n    tag_8:\n      callvalue\n      dup1\n      iszero\n      tag_61\n      jumpi\n      0x00\n      dup1\n      revert\n    tag_61:\n      pop\n      tag_62\n      0x04\n      dup1\n      calldatasize\n      sub\n      dup2\n      add\n      swap1\n      tag_63\n      swap2\n      swap1\n      tag_30\n      jump\t// in\n    tag_63:\n      tag_64\n      jump\t// in\n    tag_62:\n      mload(0x40)\n      tag_65\n      swap2\n      swap1\n      tag_66\n      jump\t// in\n    tag_65:\n      mload(0x40)\n      dup1\n      swap2\n      sub\n      swap1\n      return\n        /* \"tronbox/contracts/SmartGenie.sol\":23100:23239  function getUserLevelEligibility(address _user) public view returns(uint256[] memory) {... */\n    tag_9:\n      callvalue\n      dup1\n      iszero\n      tag_67\n      jumpi\n      0x00\n      dup1\n      revert\n    tag_67:\n      pop\n      tag_68\n      0x04\n      dup1\n      calldatasize\n      sub\n      dup2\n      add\n      swap1\n      tag_69\n      swap2\n      swap1\n      tag_53\n      jump\t// in\n    tag_69:\n      tag_70\n      jump\t// in\n    tag_68:\n      mload(0x40)\n      tag_71\n      swap2\n      swap1\n      tag_72\n      jump\t// in\n    tag_71:\n      mload(0x40)\n      dup1\n      swap2\n      sub\n      swap1\n      return\n        /* \"tronbox/contracts/SmartGenie.sol\":22935:23047  function getContractBalance() public view returns(uint256) {... */\n    tag_10:\n      callvalue\n      dup1\n      iszero\n      tag_73\n      jumpi\n      0x00\n      dup1\n      revert\n    tag_73:\n      pop\n      tag_74\n      tag_75\n      jump\t// in\n    tag_74:\n      mload(0x40)\n      tag_76\n      swap2\n      swap1\n      tag_77\n      jump\t// in\n    tag_76:\n      mload(0x40)\n      dup1\n      swap2\n      sub\n      swap1\n      return\n        /* \"tronbox/contracts/SmartGenie.sol\":1081:1121  mapping(uint => uint) public LEVEL_PRICE */\n    tag_11:\n      callvalue\n      dup1\n      iszero\n      tag_78\n      jumpi\n      0x00\n      dup1\n      revert\n    tag_78:\n      pop\n      tag_79\n      0x04\n      dup1\n      calldatasize\n      sub\n      dup2\n      add\n      swap1\n      tag_80\n      swap2\n      swap1\n      tag_30\n      jump\t// in\n    tag_80:\n      tag_81\n      jump\t// in\n    tag_79:\n      mload(0x40)\n      tag_82\n      swap2\n      swap1\n      tag_77\n      jump\t// in\n    tag_82:\n      mload(0x40)\n      dup1\n      swap2\n      sub\n      swap1\n      return\n        /* \"tronbox/contracts/SmartGenie.sol\":3619:5941  function regUser(uint _referrerID) public payable returns (bool) {... */\n    tag_12:\n      tag_83\n      0x04\n      dup1\n      calldatasize\n      sub\n      dup2\n      add\n      swap1\n      tag_84\n      swap2\n      swap1\n      tag_30\n      jump\t// in\n    tag_84:\n      tag_85\n      jump\t// in\n    tag_83:\n      mload(0x40)\n      tag_86\n      swap2\n      swap1\n      tag_49\n      jump\t// in\n    tag_86:\n      mload(0x40)\n      dup1\n      swap2\n      sub\n      swap1\n      return\n        /* \"tronbox/contracts/SmartGenie.sol\":694:723  address public splPromoWallet */\n    tag_13:\n      callvalue\n      dup1\n      iszero\n      tag_87\n      jumpi\n      0x00\n      dup1\n      revert\n    tag_87:\n      pop\n      tag_88\n      tag_89\n      jump\t// in\n    tag_88:\n      mload(0x40)\n      tag_90\n      swap2\n      swap1\n      tag_33\n      jump\t// in\n    tag_90:\n      mload(0x40)\n      dup1\n      swap2\n      sub\n      swap1\n      return\n        /* \"tronbox/contracts/SmartGenie.sol\":20719:21503  function withdrawPromotion() public returns (bool) {... */\n    tag_14:\n      callvalue\n      dup1\n      iszero\n      tag_91\n      jumpi\n      0x00\n      dup1\n      revert\n    tag_91:\n      pop\n      tag_92\n      tag_93\n      jump\t// in\n    tag_92:\n      mload(0x40)\n      tag_94\n      swap2\n      swap1\n      tag_49\n      jump\t// in\n    tag_94:\n      mload(0x40)\n      dup1\n      swap2\n      sub\n      swap1\n      return\n        /* \"tronbox/contracts/SmartGenie.sol\":1176:1216  mapping(uint => address) public userList */\n    tag_15:\n      callvalue\n      dup1\n      iszero\n      tag_95\n      jumpi\n      0x00\n      dup1\n      revert\n    tag_95:\n      pop\n      tag_96\n      0x04\n      dup1\n      calldatasize\n      sub\n      dup2\n      add\n      swap1\n      tag_97\n      swap2\n      swap1\n      tag_30\n      jump\t// in\n    tag_97:\n      tag_98\n      jump\t// in\n    tag_96:\n      mload(0x40)\n      tag_99\n      swap2\n      swap1\n      tag_33\n      jump\t// in\n    tag_99:\n      mload(0x40)\n      dup1\n      swap2\n      sub\n      swap1\n      return\n        /* \"tronbox/contracts/SmartGenie.sol\":21553:21965  function withdrawSplPromotion() public returns (bool) {... */\n    tag_16:\n      callvalue\n      dup1\n      iszero\n      tag_100\n      jumpi\n      0x00\n      dup1\n      revert\n    tag_100:\n      pop\n      tag_101\n      tag_102\n      jump\t// in\n    tag_101:\n      mload(0x40)\n      tag_103\n      swap2\n      swap1\n      tag_49\n      jump\t// in\n    tag_103:\n      mload(0x40)\n      dup1\n      swap2\n      sub\n      swap1\n      return\n        /* \"tronbox/contracts/SmartGenie.sol\":1464:1490  uint public currUserID = 0 */\n    tag_17:\n      callvalue\n      dup1\n      iszero\n      tag_104\n      jumpi\n      0x00\n      dup1\n      revert\n    tag_104:\n      pop\n      tag_105\n      tag_106\n      jump\t// in\n    tag_105:\n      mload(0x40)\n      tag_107\n      swap2\n      swap1\n      tag_77\n      jump\t// in\n    tag_107:\n      mload(0x40)\n      dup1\n      swap2\n      sub\n      swap1\n      return\n        /* \"tronbox/contracts/SmartGenie.sol\":1127:1170  mapping(address => UserStruct) public users */\n    tag_18:\n      callvalue\n      dup1\n      iszero\n      tag_108\n      jumpi\n      0x00\n      dup1\n      revert\n    tag_108:\n      pop\n      tag_109\n      0x04\n      dup1\n      calldatasize\n      sub\n      dup2\n      add\n      swap1\n      tag_110\n      swap2\n      swap1\n      tag_53\n      jump\t// in\n    tag_110:\n      tag_111\n      jump\t// in\n    tag_109:\n      mload(0x40)\n      tag_112\n      swap5\n      swap4\n      swap3\n      swap2\n      swap1\n      tag_113\n      jump\t// in\n    tag_112:\n      mload(0x40)\n      dup1\n      swap2\n      sub\n      swap1\n      return\n        /* \"tronbox/contracts/SmartGenie.sol\":23456:23600  function getUserIncomeCount(address _user, uint256 _level) public view returns(uint256) {... */\n    tag_19:\n      callvalue\n      dup1\n      iszero\n      tag_114\n      jumpi\n      0x00\n      dup1\n      revert\n    tag_114:\n      pop\n      tag_115\n      0x04\n      dup1\n      calldatasize\n      sub\n      dup2\n      add\n      swap1\n      tag_116\n      swap2\n      swap1\n      tag_117\n      jump\t// in\n    tag_116:\n      tag_118\n      jump\t// in\n    tag_115:\n      mload(0x40)\n      tag_119\n      swap2\n      swap1\n      tag_77\n      jump\t// in\n    tag_119:\n      mload(0x40)\n      dup1\n      swap2\n      sub\n      swap1\n      return\n        /* \"tronbox/contracts/SmartGenie.sol\":1222:1289  mapping(uint256 => mapping(address => uint256)) public levelCounter */\n    tag_20:\n      callvalue\n      dup1\n      iszero\n      tag_120\n      jumpi\n      0x00\n      dup1\n      revert\n    tag_120:\n      pop\n      tag_121\n      0x04\n      dup1\n      calldatasize\n      sub\n      dup2\n      add\n      swap1\n      tag_122\n      swap2\n      swap1\n      tag_41\n      jump\t// in\n    tag_122:\n      tag_123\n      jump\t// in\n    tag_121:\n      mload(0x40)\n      tag_124\n      swap2\n      swap1\n      tag_77\n      jump\t// in\n    tag_124:\n      mload(0x40)\n      dup1\n      swap2\n      sub\n      swap1\n      return\n        /* \"tronbox/contracts/SmartGenie.sol\":664:688  address public ursWallet */\n    tag_21:\n      callvalue\n      dup1\n      iszero\n      tag_125\n      jumpi\n      0x00\n      dup1\n      revert\n    tag_125:\n      pop\n      tag_126\n      tag_127\n      jump\t// in\n    tag_126:\n      mload(0x40)\n      tag_128\n      swap2\n      swap1\n      tag_33\n      jump\t// in\n    tag_128:\n      mload(0x40)\n      dup1\n      swap2\n      sub\n      swap1\n      return\n        /* \"tronbox/contracts/SmartGenie.sol\":22468:22892  function updatePromotionWallet(address walletAddr, uint index) onlyAdmin public {... */\n    tag_22:\n      callvalue\n      dup1\n      iszero\n      tag_129\n      jumpi\n      0x00\n      dup1\n      revert\n    tag_129:\n      pop\n      tag_130\n      0x04\n      dup1\n      calldatasize\n      sub\n      dup2\n      add\n      swap1\n      tag_131\n      swap2\n      swap1\n      tag_117\n      jump\t// in\n    tag_131:\n      tag_132\n      jump\t// in\n    tag_130:\n      stop\n        /* \"tronbox/contracts/SmartGenie.sol\":729:756  address public rewardWallet */\n    tag_23:\n      callvalue\n      dup1\n      iszero\n      tag_133\n      jumpi\n      0x00\n      dup1\n      revert\n    tag_133:\n      pop\n      tag_134\n      tag_135\n      jump\t// in\n    tag_134:\n      mload(0x40)\n      tag_136\n      swap2\n      swap1\n      tag_33\n      jump\t// in\n    tag_136:\n      mload(0x40)\n      dup1\n      swap2\n      sub\n      swap1\n      return\n        /* \"tronbox/contracts/SmartGenie.sol\":983:1017  address[4] public promotionWallets */\n    tag_31:\n      0x04\n      dup2\n      0x04\n      dup2\n      lt\n      tag_137\n      jumpi\n      0x00\n      dup1\n      revert\n    tag_137:\n      add\n      0x00\n      swap2\n      pop\n      sload\n      swap1\n      0x0100\n      exp\n      swap1\n      div\n      0xffffffffffffffffffffffffffffffffffffffff\n      and\n      dup2\n      jump\t// out\n        /* \"tronbox/contracts/SmartGenie.sol\":632:658  address public adminWallet */\n    tag_36:\n      0x00\n      dup1\n      sload\n      swap1\n      0x0100\n      exp\n      swap1\n      div\n      0xffffffffffffffffffffffffffffffffffffffff\n      and\n      dup2\n      jump\t// out\n        /* \"tronbox/contracts/SmartGenie.sol\":1295:1370  mapping(uint256 => mapping(address => address)) public levelUpgradePayments */\n    tag_42:\n      mstore(0x20, 0x0d)\n      dup2\n      0x00\n      mstore\n      mstore(0x20, keccak256(0x00, 0x40))\n      dup1\n      0x00\n      mstore\n      keccak256(0x00, 0x40)\n      0x00\n      swap2\n      pop\n      swap2\n      pop\n      swap1\n      sload\n      swap1\n      0x0100\n      exp\n      swap1\n      div\n      0xffffffffffffffffffffffffffffffffffffffff\n      and\n      dup2\n      jump\t// out\n        /* \"tronbox/contracts/SmartGenie.sol\":1376:1453  mapping(uint256 => mapping(address => bool)) public isLevelUpgradedForAddress */\n    tag_47:\n      mstore(0x20, 0x0e)\n      dup2\n      0x00\n      mstore\n      mstore(0x20, keccak256(0x00, 0x40))\n      dup1\n      0x00\n      mstore\n      keccak256(0x00, 0x40)\n      0x00\n      swap2\n      pop\n      swap2\n      pop\n      swap1\n      sload\n      swap1\n      0x0100\n      exp\n      swap1\n      div\n      0xff\n      and\n      dup2\n      jump\t// out\n        /* \"tronbox/contracts/SmartGenie.sol\":23276:23400  function getUserReferrals(address _user) public view returns(address[] memory) {... */\n    tag_54:\n        /* \"tronbox/contracts/SmartGenie.sol\":23337:23353  address[] memory */\n      0x60\n        /* \"tronbox/contracts/SmartGenie.sol\":23372:23377  users */\n      0x0a\n        /* \"tronbox/contracts/SmartGenie.sol\":23372:23384  users[_user] */\n      0x00\n        /* \"tronbox/contracts/SmartGenie.sol\":23378:23383  _user */\n      dup4\n        /* \"tronbox/contracts/SmartGenie.sol\":23372:23384  users[_user] */\n      0xffffffffffffffffffffffffffffffffffffffff\n      and\n      0xffffffffffffffffffffffffffffffffffffffff\n      and\n      dup2\n      mstore\n      0x20\n      add\n      swap1\n      dup2\n      mstore\n      0x20\n      add\n      0x00\n      keccak256\n        /* \"tronbox/contracts/SmartGenie.sol\":23372:23393  users[_user].referral */\n      0x03\n      add\n        /* \"tronbox/contracts/SmartGenie.sol\":23365:23393  return users[_user].referral */\n      dup1\n      sload\n      dup1\n      0x20\n      mul\n      0x20\n      add\n      mload(0x40)\n      swap1\n      dup2\n      add\n      0x40\n      mstore\n      dup1\n      swap3\n      swap2\n      swap1\n      dup2\n      dup2\n      mstore\n      0x20\n      add\n      dup3\n      dup1\n      sload\n      dup1\n      iszero\n      tag_140\n      jumpi\n      0x20\n      mul\n      dup3\n      add\n      swap2\n      swap1\n      0x00\n      mstore\n      keccak256(0x00, 0x20)\n      swap1\n    tag_141:\n      dup2\n      0x00\n      swap1\n      sload\n      swap1\n      0x0100\n      exp\n      swap1\n      div\n      0xffffffffffffffffffffffffffffffffffffffff\n      and\n      0xffffffffffffffffffffffffffffffffffffffff\n      and\n      dup2\n      mstore\n      0x20\n      add\n      swap1\n      0x01\n      add\n      swap1\n      dup1\n      dup4\n      gt\n      tag_141\n      jumpi\n    tag_140:\n      pop\n      pop\n      pop\n      pop\n      pop\n      swap1\n      pop\n        /* \"tronbox/contracts/SmartGenie.sol\":23276:23400  function getUserReferrals(address _user) public view returns(address[] memory) {... */\n      swap2\n      swap1\n      pop\n      jump\t// out\n        /* \"tronbox/contracts/SmartGenie.sol\":22002:22382  function transferURS() public returns (bool) {... */\n    tag_59:\n        /* \"tronbox/contracts/SmartGenie.sol\":22041:22045  bool */\n      0x00\n        /* \"tronbox/contracts/SmartGenie.sol\":22079:22088  ursWallet */\n      0x01\n      0x00\n      swap1\n      sload\n      swap1\n      0x0100\n      exp\n      swap1\n      div\n      0xffffffffffffffffffffffffffffffffffffffff\n      and\n        /* \"tronbox/contracts/SmartGenie.sol\":22065:22088  msg.sender == ursWallet */\n      0xffffffffffffffffffffffffffffffffffffffff\n      and\n        /* \"tronbox/contracts/SmartGenie.sol\":22065:22075  msg.sender */\n      caller\n        /* \"tronbox/contracts/SmartGenie.sol\":22065:22088  msg.sender == ursWallet */\n      0xffffffffffffffffffffffffffffffffffffffff\n      and\n      eq\n        /* \"tronbox/contracts/SmartGenie.sol\":22057:22107  require(msg.sender == ursWallet, \"Invalid caller\") */\n      tag_143\n      jumpi\n      mload(0x40)\n      0x08c379a000000000000000000000000000000000000000000000000000000000\n      dup2\n      mstore\n      0x04\n      add\n      tag_144\n      swap1\n      tag_145\n      jump\t// in\n    tag_144:\n      mload(0x40)\n      dup1\n      swap2\n      sub\n      swap1\n      revert\n    tag_143:\n        /* \"tronbox/contracts/SmartGenie.sol\":22232:22244  bool success */\n      0x00\n        /* \"tronbox/contracts/SmartGenie.sol\":22266:22275  ursWallet */\n      0x01\n      0x00\n      swap1\n      sload\n      swap1\n      0x0100\n      exp\n      swap1\n      div\n      0xffffffffffffffffffffffffffffffffffffffff\n      and\n        /* \"tronbox/contracts/SmartGenie.sol\":22249:22283  (address(uint160(ursWallet))).call */\n      0xffffffffffffffffffffffffffffffffffffffff\n      and\n        /* \"tronbox/contracts/SmartGenie.sol\":22291:22297  ursAmt */\n      sload(0x12)\n        /* \"tronbox/contracts/SmartGenie.sol\":22249:22302  (address(uint160(ursWallet))).call{value: ursAmt}(\"\") */\n      mload(0x40)\n      tag_146\n      swap1\n      tag_147\n      jump\t// in\n    tag_146:\n      0x00\n      mload(0x40)\n      dup1\n      dup4\n      sub\n      dup2\n      dup6\n      dup8\n      gas\n      call\n      swap3\n      pop\n      pop\n      pop\n      returndatasize\n      dup1\n      0x00\n      dup2\n      eq\n      tag_150\n      jumpi\n      mload(0x40)\n      swap2\n      pop\n      and(add(returndatasize, 0x3f), not(0x1f))\n      dup3\n      add\n      0x40\n      mstore\n      returndatasize\n      dup3\n      mstore\n      returndatasize\n      0x00\n      0x20\n      dup5\n      add\n      returndatacopy\n      jump(tag_149)\n    tag_150:\n      0x60\n      swap2\n      pop\n    tag_149:\n      pop\n        /* \"tronbox/contracts/SmartGenie.sol\":22231:22302  (bool success,) = (address(uint160(ursWallet))).call{value: ursAmt}(\"\") */\n      pop\n      swap1\n      pop\n        /* \"tronbox/contracts/SmartGenie.sol\":22320:22327  success */\n      dup1\n        /* \"tronbox/contracts/SmartGenie.sol\":22312:22351  require(success, 'Transaction failed!') */\n      tag_151\n      jumpi\n      mload(0x40)\n      0x08c379a000000000000000000000000000000000000000000000000000000000\n      dup2\n      mstore\n      0x04\n      add\n      tag_152\n      swap1\n      tag_153\n      jump\t// in\n    tag_152:\n      mload(0x40)\n      dup1\n      swap2\n      sub\n      swap1\n      revert\n    tag_151:\n        /* \"tronbox/contracts/SmartGenie.sol\":22368:22375  success */\n      dup1\n        /* \"tronbox/contracts/SmartGenie.sol\":22361:22375  return success */\n      swap2\n      pop\n      pop\n        /* \"tronbox/contracts/SmartGenie.sol\":22002:22382  function transferURS() public returns (bool) {... */\n      swap1\n      jump\t// out\n        /* \"tronbox/contracts/SmartGenie.sol\":1023:1070  uint8[4] public promotionPercantage = [2,1,1,1] */\n    tag_64:\n      0x08\n      dup2\n      0x04\n      dup2\n      lt\n      tag_154\n      jumpi\n      0x00\n      dup1\n      revert\n    tag_154:\n      0x20\n      swap2\n      dup3\n      dup3\n      div\n      add\n      swap2\n      swap1\n      mod\n      swap2\n      pop\n      sload\n      swap1\n      0x0100\n      exp\n      swap1\n      div\n      0xff\n      and\n      dup2\n      jump\t// out\n        /* \"tronbox/contracts/SmartGenie.sol\":23100:23239  function getUserLevelEligibility(address _user) public view returns(uint256[] memory) {... */\n    tag_70:\n        /* \"tronbox/contracts/SmartGenie.sol\":23168:23184  uint256[] memory */\n      0x60\n        /* \"tronbox/contracts/SmartGenie.sol\":23203:23208  users */\n      0x0a\n        /* \"tronbox/contracts/SmartGenie.sol\":23203:23215  users[_user] */\n      0x00\n        /* \"tronbox/contracts/SmartGenie.sol\":23209:23214  _user */\n      dup4\n        /* \"tronbox/contracts/SmartGenie.sol\":23203:23215  users[_user] */\n      0xffffffffffffffffffffffffffffffffffffffff\n      and\n      0xffffffffffffffffffffffffffffffffffffffff\n      and\n      dup2\n      mstore\n      0x20\n      add\n      swap1\n      dup2\n      mstore\n      0x20\n      add\n      0x00\n      keccak256\n        /* \"tronbox/contracts/SmartGenie.sol\":23203:23232  users[_user].levelEligibility */\n      0x06\n      add\n        /* \"tronbox/contracts/SmartGenie.sol\":23196:23232  return users[_user].levelEligibility */\n      dup1\n      sload\n      dup1\n      0x20\n      mul\n      0x20\n      add\n      mload(0x40)\n      swap1\n      dup2\n      add\n      0x40\n      mstore\n      dup1\n      swap3\n      swap2\n      swap1\n      dup2\n      dup2\n      mstore\n      0x20\n      add\n      dup3\n      dup1\n      sload\n      dup1\n      iszero\n      tag_157\n      jumpi\n      0x20\n      mul\n      dup3\n      add\n      swap2\n      swap1\n      0x00\n      mstore\n      keccak256(0x00, 0x20)\n      swap1\n    tag_158:\n      dup2\n      sload\n      dup2\n      mstore\n      0x20\n      add\n      swap1\n      0x01\n      add\n      swap1\n      dup1\n      dup4\n      gt\n      tag_158\n      jumpi\n    tag_157:\n      pop\n      pop\n      pop\n      pop\n      pop\n      swap1\n      pop\n        /* \"tronbox/contracts/SmartGenie.sol\":23100:23239  function getUserLevelEligibility(address _user) public view returns(uint256[] memory) {... */\n      swap2\n      swap1\n      pop\n      jump\t// out\n        /* \"tronbox/contracts/SmartGenie.sol\":22935:23047  function getContractBalance() public view returns(uint256) {... */\n    tag_75:\n        /* \"tronbox/contracts/SmartGenie.sol\":22985:22992  uint256 */\n      0x00\n        /* \"tronbox/contracts/SmartGenie.sol\":23033:23040  1000000 */\n      0x0f4240\n        /* \"tronbox/contracts/SmartGenie.sol\":23011:23032  address(this).balance */\n      selfbalance\n        /* \"tronbox/contracts/SmartGenie.sol\":23011:23040  address(this).balance/1000000 */\n      tag_160\n      swap2\n      swap1\n      tag_161\n      jump\t// in\n    tag_160:\n        /* \"tronbox/contracts/SmartGenie.sol\":23004:23040  return address(this).balance/1000000 */\n      swap1\n      pop\n        /* \"tronbox/contracts/SmartGenie.sol\":22935:23047  function getContractBalance() public view returns(uint256) {... */\n      swap1\n      jump\t// out\n        /* \"tronbox/contracts/SmartGenie.sol\":1081:1121  mapping(uint => uint) public LEVEL_PRICE */\n    tag_81:\n      mstore(0x20, 0x09)\n      dup1\n      0x00\n      mstore\n      keccak256(0x00, 0x40)\n      0x00\n      swap2\n      pop\n      swap1\n      pop\n      sload\n      dup2\n      jump\t// out\n        /* \"tronbox/contracts/SmartGenie.sol\":3619:5941  function regUser(uint _referrerID) public payable returns (bool) {... */\n    tag_85:\n        /* \"tronbox/contracts/SmartGenie.sol\":3678:3682  bool */\n      0x00\n        /* \"tronbox/contracts/SmartGenie.sol\":3780:3785  users */\n      0x0a\n        /* \"tronbox/contracts/SmartGenie.sol\":3780:3797  users[msg.sender] */\n      0x00\n        /* \"tronbox/contracts/SmartGenie.sol\":3786:3796  msg.sender */\n      caller\n        /* \"tronbox/contracts/SmartGenie.sol\":3780:3797  users[msg.sender] */\n      0xffffffffffffffffffffffffffffffffffffffff\n      and\n      0xffffffffffffffffffffffffffffffffffffffff\n      and\n      dup2\n      mstore\n      0x20\n      add\n      swap1\n      dup2\n      mstore\n      0x20\n      add\n      0x00\n      keccak256\n        /* \"tronbox/contracts/SmartGenie.sol\":3780:3805  users[msg.sender].isExist */\n      0x00\n      add\n      0x00\n      swap1\n      sload\n      swap1\n      0x0100\n      exp\n      swap1\n      div\n      0xff\n      and\n        /* \"tronbox/contracts/SmartGenie.sol\":3779:3805  !users[msg.sender].isExist */\n      iszero\n        /* \"tronbox/contracts/SmartGenie.sol\":3771:3820  require(!users[msg.sender].isExist, 'User exist') */\n      tag_163\n      jumpi\n      mload(0x40)\n      0x08c379a000000000000000000000000000000000000000000000000000000000\n      dup2\n      mstore\n      0x04\n      add\n      tag_164\n      swap1\n      tag_165\n      jump\t// in\n    tag_164:\n      mload(0x40)\n      dup1\n      swap2\n      sub\n      swap1\n      revert\n    tag_163:\n        /* \"tronbox/contracts/SmartGenie.sol\":3914:3915  0 */\n      0x00\n        /* \"tronbox/contracts/SmartGenie.sol\":3900:3911  _referrerID */\n      dup3\n        /* \"tronbox/contracts/SmartGenie.sol\":3900:3915  _referrerID > 0 */\n      gt\n        /* \"tronbox/contracts/SmartGenie.sol\":3900:3944  _referrerID > 0 && _referrerID <= currUserID */\n      dup1\n      iszero\n      tag_166\n      jumpi\n      pop\n        /* \"tronbox/contracts/SmartGenie.sol\":3934:3944  currUserID */\n      sload(0x0f)\n        /* \"tronbox/contracts/SmartGenie.sol\":3919:3930  _referrerID */\n      dup3\n        /* \"tronbox/contracts/SmartGenie.sol\":3919:3944  _referrerID <= currUserID */\n      gt\n      iszero\n        /* \"tronbox/contracts/SmartGenie.sol\":3900:3944  _referrerID > 0 && _referrerID <= currUserID */\n    tag_166:\n        /* \"tronbox/contracts/SmartGenie.sol\":3892:3970  require(_referrerID > 0 && _referrerID <= currUserID, 'Incorrect referrer Id') */\n      tag_167\n      jumpi\n      mload(0x40)\n      0x08c379a000000000000000000000000000000000000000000000000000000000\n      dup2\n      mstore\n      0x04\n      add\n      tag_168\n      swap1\n      tag_169\n      jump\t// in\n    tag_168:\n      mload(0x40)\n      dup1\n      swap2\n      sub\n      swap1\n      revert\n    tag_167:\n        /* \"tronbox/contracts/SmartGenie.sol\":4075:4081  regFee */\n      sload(0x13)\n        /* \"tronbox/contracts/SmartGenie.sol\":4062:4071  msg.value */\n      callvalue\n        /* \"tronbox/contracts/SmartGenie.sol\":4062:4081  msg.value == regFee */\n      eq\n        /* \"tronbox/contracts/SmartGenie.sol\":4054:4101  require(msg.value == regFee, 'Incorrect Value') */\n      tag_170\n      jumpi\n      mload(0x40)\n      0x08c379a000000000000000000000000000000000000000000000000000000000\n      dup2\n      mstore\n      0x04\n      add\n      tag_171\n      swap1\n      tag_172\n      jump\t// in\n    tag_171:\n      mload(0x40)\n      dup1\n      swap2\n      sub\n      swap1\n      revert\n    tag_170:\n        /* \"tronbox/contracts/SmartGenie.sol\":4177:4206  UserStruct storage userStruct */\n      0x00\n        /* \"tronbox/contracts/SmartGenie.sol\":4209:4214  users */\n      0x0a\n        /* \"tronbox/contracts/SmartGenie.sol\":4209:4226  users[msg.sender] */\n      0x00\n        /* \"tronbox/contracts/SmartGenie.sol\":4215:4225  msg.sender */\n      caller\n        /* \"tronbox/contracts/SmartGenie.sol\":4209:4226  users[msg.sender] */\n      0xffffffffffffffffffffffffffffffffffffffff\n      and\n      0xffffffffffffffffffffffffffffffffffffffff\n      and\n      dup2\n      mstore\n      0x20\n      add\n      swap1\n      dup2\n      mstore\n      0x20\n      add\n      0x00\n      keccak256\n        /* \"tronbox/contracts/SmartGenie.sol\":4177:4226  UserStruct storage userStruct = users[msg.sender] */\n      swap1\n      pop\n        /* \"tronbox/contracts/SmartGenie.sol\":4257:4261  true */\n      0x01\n        /* \"tronbox/contracts/SmartGenie.sol\":4236:4246  userStruct */\n      dup2\n        /* \"tronbox/contracts/SmartGenie.sol\":4236:4254  userStruct.isExist */\n      0x00\n      add\n      0x00\n        /* \"tronbox/contracts/SmartGenie.sol\":4236:4261  userStruct.isExist = true */\n      0x0100\n      exp\n      dup2\n      sload\n      dup2\n      0xff\n      mul\n      not\n      and\n      swap1\n      dup4\n      iszero\n      iszero\n      mul\n      or\n      swap1\n      sstore\n      pop\n        /* \"tronbox/contracts/SmartGenie.sol\":4287:4297  currUserID */\n      sload(0x0f)\n        /* \"tronbox/contracts/SmartGenie.sol\":4271:4281  userStruct */\n      dup2\n        /* \"tronbox/contracts/SmartGenie.sol\":4271:4284  userStruct.id */\n      0x01\n      add\n        /* \"tronbox/contracts/SmartGenie.sol\":4271:4297  userStruct.id = currUserID */\n      dup2\n      swap1\n      sstore\n      pop\n        /* \"tronbox/contracts/SmartGenie.sol\":4331:4342  _referrerID */\n      dup3\n        /* \"tronbox/contracts/SmartGenie.sol\":4307:4317  userStruct */\n      dup2\n        /* \"tronbox/contracts/SmartGenie.sol\":4307:4328  userStruct.referrerID */\n      0x02\n      add\n        /* \"tronbox/contracts/SmartGenie.sol\":4307:4342  userStruct.referrerID = _referrerID */\n      dup2\n      swap1\n      sstore\n      pop\n        /* \"tronbox/contracts/SmartGenie.sol\":4388:4389  0 */\n      0x00\n        /* \"tronbox/contracts/SmartGenie.sol\":4374:4390  new address[](0) */\n      0xffffffffffffffff\n      dup2\n      gt\n      iszero\n      tag_173\n      jumpi\n      tag_174\n      tag_175\n      jump\t// in\n    tag_174:\n    tag_173:\n      mload(0x40)\n      swap1\n      dup1\n      dup3\n      mstore\n      dup1\n      0x20\n      mul\n      0x20\n      add\n      dup3\n      add\n      0x40\n      mstore\n      dup1\n      iszero\n      tag_176\n      jumpi\n      dup2\n      0x20\n      add\n      0x20\n      dup3\n      mul\n      dup1\n      calldatasize\n      dup4\n      calldatacopy\n      dup1\n      dup3\n      add\n      swap2\n      pop\n      pop\n      swap1\n      pop\n    tag_176:\n      pop\n        /* \"tronbox/contracts/SmartGenie.sol\":4352:4362  userStruct */\n      dup2\n        /* \"tronbox/contracts/SmartGenie.sol\":4352:4371  userStruct.referral */\n      0x03\n      add\n        /* \"tronbox/contracts/SmartGenie.sol\":4352:4390  userStruct.referral = new address[](0) */\n      swap1\n      dup1\n      mload\n      swap1\n      0x20\n      add\n      swap1\n      tag_177\n      swap3\n      swap2\n      swap1\n      tag_178\n      jump\t// in\n    tag_177:\n      pop\n        /* \"tronbox/contracts/SmartGenie.sol\":4420:4435  block.timestamp */\n      timestamp\n        /* \"tronbox/contracts/SmartGenie.sol\":4400:4410  userStruct */\n      dup2\n        /* \"tronbox/contracts/SmartGenie.sol\":4400:4417  userStruct.joined */\n      0x04\n      add\n        /* \"tronbox/contracts/SmartGenie.sol\":4400:4435  userStruct.joined = block.timestamp */\n      dup2\n      swap1\n      sstore\n      pop\n        /* \"tronbox/contracts/SmartGenie.sol\":4486:4487  0 */\n      0x00\n        /* \"tronbox/contracts/SmartGenie.sol\":4475:4488  new uint[](0) */\n      0xffffffffffffffff\n      dup2\n      gt\n      iszero\n      tag_179\n      jumpi\n      tag_180\n      tag_175\n      jump\t// in\n    tag_180:\n    tag_179:\n      mload(0x40)\n      swap1\n      dup1\n      dup3\n      mstore\n      dup1\n      0x20\n      mul\n      0x20\n      add\n      dup3\n      add\n      0x40\n      mstore\n      dup1\n      iszero\n      tag_181\n      jumpi\n      dup2\n      0x20\n      add\n      0x20\n      dup3\n      mul\n      dup1\n      calldatasize\n      dup4\n      calldatacopy\n      dup1\n      dup3\n      add\n      swap2\n      pop\n      pop\n      swap1\n      pop\n    tag_181:\n      pop\n        /* \"tronbox/contracts/SmartGenie.sol\":4445:4455  userStruct */\n      dup2\n        /* \"tronbox/contracts/SmartGenie.sol\":4445:4472  userStruct.levelEligibility */\n      0x06\n      add\n        /* \"tronbox/contracts/SmartGenie.sol\":4445:4488  userStruct.levelEligibility = new uint[](0) */\n      swap1\n      dup1\n      mload\n      swap1\n      0x20\n      add\n      swap1\n      tag_182\n      swap3\n      swap2\n      swap1\n      tag_183\n      jump\t// in\n    tag_182:\n      pop\n        /* \"tronbox/contracts/SmartGenie.sol\":4499:4509  currUserID */\n      0x0f\n      0x00\n        /* \"tronbox/contracts/SmartGenie.sol\":4499:4511  currUserID++ */\n      dup2\n      sload\n      dup1\n      swap3\n      swap2\n      swap1\n      tag_184\n      swap1\n      tag_185\n      jump\t// in\n    tag_184:\n      swap2\n      swap1\n      pop\n      sstore\n      pop\n        /* \"tronbox/contracts/SmartGenie.sol\":4598:4608  msg.sender */\n      caller\n        /* \"tronbox/contracts/SmartGenie.sol\":4575:4583  userList */\n      0x0b\n        /* \"tronbox/contracts/SmartGenie.sol\":4575:4595  userList[currUserID] */\n      0x00\n        /* \"tronbox/contracts/SmartGenie.sol\":4584:4594  currUserID */\n      sload(0x0f)\n        /* \"tronbox/contracts/SmartGenie.sol\":4575:4595  userList[currUserID] */\n      dup2\n      mstore\n      0x20\n      add\n      swap1\n      dup2\n      mstore\n      0x20\n      add\n      0x00\n      keccak256\n      0x00\n        /* \"tronbox/contracts/SmartGenie.sol\":4575:4608  userList[currUserID] = msg.sender */\n      0x0100\n      exp\n      dup2\n      sload\n      dup2\n      0xffffffffffffffffffffffffffffffffffffffff\n      mul\n      not\n      and\n      swap1\n      dup4\n      0xffffffffffffffffffffffffffffffffffffffff\n      and\n      mul\n      or\n      swap1\n      sstore\n      pop\n        /* \"tronbox/contracts/SmartGenie.sol\":4683:4688  users */\n      0x0a\n        /* \"tronbox/contracts/SmartGenie.sol\":4683:4711  users[userList[_referrerID]] */\n      0x00\n        /* \"tronbox/contracts/SmartGenie.sol\":4689:4697  userList */\n      0x0b\n        /* \"tronbox/contracts/SmartGenie.sol\":4689:4710  userList[_referrerID] */\n      0x00\n        /* \"tronbox/contracts/SmartGenie.sol\":4698:4709  _referrerID */\n      dup7\n        /* \"tronbox/contracts/SmartGenie.sol\":4689:4710  userList[_referrerID] */\n      dup2\n      mstore\n      0x20\n      add\n      swap1\n      dup2\n      mstore\n      0x20\n      add\n      0x00\n      keccak256\n      0x00\n      swap1\n      sload\n      swap1\n      0x0100\n      exp\n      swap1\n      div\n      0xffffffffffffffffffffffffffffffffffffffff\n      and\n        /* \"tronbox/contracts/SmartGenie.sol\":4683:4711  users[userList[_referrerID]] */\n      0xffffffffffffffffffffffffffffffffffffffff\n      and\n      0xffffffffffffffffffffffffffffffffffffffff\n      and\n      dup2\n      mstore\n      0x20\n      add\n      swap1\n      dup2\n      mstore\n      0x20\n      add\n      0x00\n      keccak256\n        /* \"tronbox/contracts/SmartGenie.sol\":4683:4720  users[userList[_referrerID]].referral */\n      0x03\n      add\n        /* \"tronbox/contracts/SmartGenie.sol\":4726:4736  msg.sender */\n      caller\n        /* \"tronbox/contracts/SmartGenie.sol\":4683:4737  users[userList[_referrerID]].referral.push(msg.sender) */\n      swap1\n      dup1\n      0x01\n      dup2\n      sload\n      add\n      dup1\n      dup3\n      sstore\n      dup1\n      swap2\n      pop\n      pop\n      0x01\n      swap1\n      sub\n      swap1\n      0x00\n      mstore\n      keccak256(0x00, 0x20)\n      add\n      0x00\n      swap1\n      swap2\n      swap1\n      swap2\n      swap1\n      swap2\n      0x0100\n      exp\n      dup2\n      sload\n      dup2\n      0xffffffffffffffffffffffffffffffffffffffff\n      mul\n      not\n      and\n      swap1\n      dup4\n      0xffffffffffffffffffffffffffffffffffffffff\n      and\n      mul\n      or\n      swap1\n      sstore\n      pop\n        /* \"tronbox/contracts/SmartGenie.sol\":4806:4817  LEVEL_PRICE */\n      0x09\n        /* \"tronbox/contracts/SmartGenie.sol\":4806:4820  LEVEL_PRICE[1] */\n      0x00\n        /* \"tronbox/contracts/SmartGenie.sol\":4818:4819  1 */\n      0x01\n        /* \"tronbox/contracts/SmartGenie.sol\":4806:4820  LEVEL_PRICE[1] */\n      dup2\n      mstore\n      0x20\n      add\n      swap1\n      dup2\n      mstore\n      0x20\n      add\n      0x00\n      keccak256\n      sload\n        /* \"tronbox/contracts/SmartGenie.sol\":4796:4802  ursAmt */\n      0x12\n      0x00\n        /* \"tronbox/contracts/SmartGenie.sol\":4796:4820  ursAmt += LEVEL_PRICE[1] */\n      dup3\n      dup3\n      sload\n      tag_187\n      swap2\n      swap1\n      tag_188\n      jump\t// in\n    tag_187:\n      swap3\n      pop\n      pop\n      dup2\n      swap1\n      sstore\n      pop\n        /* \"tronbox/contracts/SmartGenie.sol\":4841:4855  promotionShare */\n      sload(0x15)\n        /* \"tronbox/contracts/SmartGenie.sol\":4830:4837  promAmt */\n      0x11\n      0x00\n        /* \"tronbox/contracts/SmartGenie.sol\":4830:4855  promAmt += promotionShare */\n      dup3\n      dup3\n      sload\n      tag_189\n      swap2\n      swap1\n      tag_188\n      jump\t// in\n    tag_189:\n      swap3\n      pop\n      pop\n      dup2\n      swap1\n      sstore\n      pop\n        /* \"tronbox/contracts/SmartGenie.sol\":4879:4892  splPromoShare */\n      sload(0x16)\n        /* \"tronbox/contracts/SmartGenie.sol\":4865:4875  splPromAmt */\n      0x10\n      0x00\n        /* \"tronbox/contracts/SmartGenie.sol\":4865:4892  splPromAmt += splPromoShare */\n      dup3\n      dup3\n      sload\n      tag_190\n      swap2\n      swap1\n      tag_188\n      jump\t// in\n    tag_190:\n      swap3\n      pop\n      pop\n      dup2\n      swap1\n      sstore\n      pop\n        /* \"tronbox/contracts/SmartGenie.sol\":5011:5038  uint referrerReferralLength */\n      0x00\n        /* \"tronbox/contracts/SmartGenie.sol\":5041:5046  users */\n      0x0a\n        /* \"tronbox/contracts/SmartGenie.sol\":5041:5069  users[userList[_referrerID]] */\n      0x00\n        /* \"tronbox/contracts/SmartGenie.sol\":5047:5055  userList */\n      0x0b\n        /* \"tronbox/contracts/SmartGenie.sol\":5047:5068  userList[_referrerID] */\n      0x00\n        /* \"tronbox/contracts/SmartGenie.sol\":5056:5067  _referrerID */\n      dup8\n        /* \"tronbox/contracts/SmartGenie.sol\":5047:5068  userList[_referrerID] */\n      dup2\n      mstore\n      0x20\n      add\n      swap1\n      dup2\n      mstore\n      0x20\n      add\n      0x00\n      keccak256\n      0x00\n      swap1\n      sload\n      swap1\n      0x0100\n      exp\n      swap1\n      div\n      0xffffffffffffffffffffffffffffffffffffffff\n      and\n        /* \"tronbox/contracts/SmartGenie.sol\":5041:5069  users[userList[_referrerID]] */\n      0xffffffffffffffffffffffffffffffffffffffff\n      and\n      0xffffffffffffffffffffffffffffffffffffffff\n      and\n      dup2\n      mstore\n      0x20\n      add\n      swap1\n      dup2\n      mstore\n      0x20\n      add\n      0x00\n      keccak256\n        /* \"tronbox/contracts/SmartGenie.sol\":5041:5078  users[userList[_referrerID]].referral */\n      0x03\n      add\n        /* \"tronbox/contracts/SmartGenie.sol\":5041:5085  users[userList[_referrerID]].referral.length */\n      dup1\n      sload\n      swap1\n      pop\n        /* \"tronbox/contracts/SmartGenie.sol\":5011:5085  uint referrerReferralLength = users[userList[_referrerID]].referral.length */\n      swap1\n      pop\n        /* \"tronbox/contracts/SmartGenie.sol\":5124:5125  1 */\n      0x01\n        /* \"tronbox/contracts/SmartGenie.sol\":5098:5120  referrerReferralLength */\n      dup2\n        /* \"tronbox/contracts/SmartGenie.sol\":5098:5125  referrerReferralLength != 1 */\n      eq\n      iszero\n        /* \"tronbox/contracts/SmartGenie.sol\":5098:5145  referrerReferralLength != 1 || _referrerID == 1 */\n      dup1\n      tag_191\n      jumpi\n      pop\n        /* \"tronbox/contracts/SmartGenie.sol\":5144:5145  1 */\n      0x01\n        /* \"tronbox/contracts/SmartGenie.sol\":5129:5140  _referrerID */\n      dup5\n        /* \"tronbox/contracts/SmartGenie.sol\":5129:5145  _referrerID == 1 */\n      eq\n        /* \"tronbox/contracts/SmartGenie.sol\":5098:5145  referrerReferralLength != 1 || _referrerID == 1 */\n    tag_191:\n        /* \"tronbox/contracts/SmartGenie.sol\":5095:5483  if(referrerReferralLength != 1 || _referrerID == 1) {... */\n      iszero\n      tag_192\n      jumpi\n        /* \"tronbox/contracts/SmartGenie.sol\":5198:5251  payment(1, msg.sender, referrerReferralLength, false) */\n      tag_193\n        /* \"tronbox/contracts/SmartGenie.sol\":5206:5207  1 */\n      0x01\n        /* \"tronbox/contracts/SmartGenie.sol\":5209:5219  msg.sender */\n      caller\n        /* \"tronbox/contracts/SmartGenie.sol\":5221:5243  referrerReferralLength */\n      dup4\n        /* \"tronbox/contracts/SmartGenie.sol\":5245:5250  false */\n      0x00\n        /* \"tronbox/contracts/SmartGenie.sol\":5198:5205  payment */\n      tag_194\n        /* \"tronbox/contracts/SmartGenie.sol\":5198:5251  payment(1, msg.sender, referrerReferralLength, false) */\n      jump\t// in\n    tag_193:\n        /* \"tronbox/contracts/SmartGenie.sol\":5095:5483  if(referrerReferralLength != 1 || _referrerID == 1) {... */\n      jump(tag_195)\n    tag_192:\n        /* \"tronbox/contracts/SmartGenie.sol\":5282:5287  users */\n      0x0a\n        /* \"tronbox/contracts/SmartGenie.sol\":5282:5310  users[userList[_referrerID]] */\n      0x00\n        /* \"tronbox/contracts/SmartGenie.sol\":5288:5296  userList */\n      0x0b\n        /* \"tronbox/contracts/SmartGenie.sol\":5288:5309  userList[_referrerID] */\n      0x00\n        /* \"tronbox/contracts/SmartGenie.sol\":5297:5308  _referrerID */\n      dup8\n        /* \"tronbox/contracts/SmartGenie.sol\":5288:5309  userList[_referrerID] */\n      dup2\n      mstore\n      0x20\n      add\n      swap1\n      dup2\n      mstore\n      0x20\n      add\n      0x00\n      keccak256\n      0x00\n      swap1\n      sload\n      swap1\n      0x0100\n      exp\n      swap1\n      div\n      0xffffffffffffffffffffffffffffffffffffffff\n      and\n        /* \"tronbox/contracts/SmartGenie.sol\":5282:5310  users[userList[_referrerID]] */\n      0xffffffffffffffffffffffffffffffffffffffff\n      and\n      0xffffffffffffffffffffffffffffffffffffffff\n      and\n      dup2\n      mstore\n      0x20\n      add\n      swap1\n      dup2\n      mstore\n      0x20\n      add\n      0x00\n      keccak256\n        /* \"tronbox/contracts/SmartGenie.sol\":5282:5327  users[userList[_referrerID]].levelEligibility */\n      0x06\n      add\n        /* \"tronbox/contracts/SmartGenie.sol\":5333:5334  1 */\n      0x01\n        /* \"tronbox/contracts/SmartGenie.sol\":5282:5335  users[userList[_referrerID]].levelEligibility.push(1) */\n      swap1\n      dup1\n      0x01\n      dup2\n      sload\n      add\n      dup1\n      dup3\n      sstore\n      dup1\n      swap2\n      pop\n      pop\n      0x01\n      swap1\n      sub\n      swap1\n      0x00\n      mstore\n      keccak256(0x00, 0x20)\n      add\n      0x00\n      swap1\n      swap2\n      swap1\n      swap2\n      swap1\n      swap2\n      pop\n      sstore\n        /* \"tronbox/contracts/SmartGenie.sol\":5349:5365  address referrer */\n      0x00\n        /* \"tronbox/contracts/SmartGenie.sol\":5368:5376  userList */\n      0x0b\n        /* \"tronbox/contracts/SmartGenie.sol\":5368:5389  userList[_referrerID] */\n      0x00\n        /* \"tronbox/contracts/SmartGenie.sol\":5377:5388  _referrerID */\n      dup7\n        /* \"tronbox/contracts/SmartGenie.sol\":5368:5389  userList[_referrerID] */\n      dup2\n      mstore\n      0x20\n      add\n      swap1\n      dup2\n      mstore\n      0x20\n      add\n      0x00\n      keccak256\n      0x00\n      swap1\n      sload\n      swap1\n      0x0100\n      exp\n      swap1\n      div\n      0xffffffffffffffffffffffffffffffffffffffff\n      and\n        /* \"tronbox/contracts/SmartGenie.sol\":5349:5389  address referrer = userList[_referrerID] */\n      swap1\n      pop\n        /* \"tronbox/contracts/SmartGenie.sol\":5471:5472  1 */\n      0x01\n        /* \"tronbox/contracts/SmartGenie.sol\":5440:5445  users */\n      0x0a\n        /* \"tronbox/contracts/SmartGenie.sol\":5440:5455  users[referrer] */\n      0x00\n        /* \"tronbox/contracts/SmartGenie.sol\":5446:5454  referrer */\n      dup4\n        /* \"tronbox/contracts/SmartGenie.sol\":5440:5455  users[referrer] */\n      0xffffffffffffffffffffffffffffffffffffffff\n      and\n      0xffffffffffffffffffffffffffffffffffffffff\n      and\n      dup2\n      mstore\n      0x20\n      add\n      swap1\n      dup2\n      mstore\n      0x20\n      add\n      0x00\n      keccak256\n        /* \"tronbox/contracts/SmartGenie.sol\":5440:5467  users[referrer].incomeCount */\n      0x05\n      add\n        /* \"tronbox/contracts/SmartGenie.sol\":5440:5470  users[referrer].incomeCount[1] */\n      0x00\n        /* \"tronbox/contracts/SmartGenie.sol\":5468:5469  1 */\n      0x01\n        /* \"tronbox/contracts/SmartGenie.sol\":5440:5470  users[referrer].incomeCount[1] */\n      dup2\n      mstore\n      0x20\n      add\n      swap1\n      dup2\n      mstore\n      0x20\n      add\n      0x00\n      keccak256\n      sload\n        /* \"tronbox/contracts/SmartGenie.sol\":5440:5472  users[referrer].incomeCount[1]+1 */\n      tag_197\n      swap2\n      swap1\n      tag_188\n      jump\t// in\n    tag_197:\n        /* \"tronbox/contracts/SmartGenie.sol\":5407:5412  users */\n      0x0a\n        /* \"tronbox/contracts/SmartGenie.sol\":5407:5422  users[referrer] */\n      0x00\n        /* \"tronbox/contracts/SmartGenie.sol\":5413:5421  referrer */\n      dup4\n        /* \"tronbox/contracts/SmartGenie.sol\":5407:5422  users[referrer] */\n      0xffffffffffffffffffffffffffffffffffffffff\n      and\n      0xffffffffffffffffffffffffffffffffffffffff\n      and\n      dup2\n      mstore\n      0x20\n      add\n      swap1\n      dup2\n      mstore\n      0x20\n      add\n      0x00\n      keccak256\n        /* \"tronbox/contracts/SmartGenie.sol\":5407:5434  users[referrer].incomeCount */\n      0x05\n      add\n        /* \"tronbox/contracts/SmartGenie.sol\":5407:5437  users[referrer].incomeCount[1] */\n      0x00\n        /* \"tronbox/contracts/SmartGenie.sol\":5435:5436  1 */\n      0x01\n        /* \"tronbox/contracts/SmartGenie.sol\":5407:5437  users[referrer].incomeCount[1] */\n      dup2\n      mstore\n      0x20\n      add\n      swap1\n      dup2\n      mstore\n      0x20\n      add\n      0x00\n      keccak256\n        /* \"tronbox/contracts/SmartGenie.sol\":5407:5472  users[referrer].incomeCount[1] = users[referrer].incomeCount[1]+1 */\n      dup2\n      swap1\n      sstore\n      pop\n        /* \"tronbox/contracts/SmartGenie.sol\":5268:5483  {... */\n      pop\n        /* \"tronbox/contracts/SmartGenie.sol\":5095:5483  if(referrerReferralLength != 1 || _referrerID == 1) {... */\n    tag_195:\n        /* \"tronbox/contracts/SmartGenie.sol\":5665:5677  bool success */\n      0x00\n        /* \"tronbox/contracts/SmartGenie.sol\":5683:5691  userList */\n      0x0b\n        /* \"tronbox/contracts/SmartGenie.sol\":5683:5704  userList[_referrerID] */\n      0x00\n        /* \"tronbox/contracts/SmartGenie.sol\":5692:5703  _referrerID */\n      dup7\n        /* \"tronbox/contracts/SmartGenie.sol\":5683:5704  userList[_referrerID] */\n      dup2\n      mstore\n      0x20\n      add\n      swap1\n      dup2\n      mstore\n      0x20\n      add\n      0x00\n      keccak256\n      0x00\n      swap1\n      sload\n      swap1\n      0x0100\n      exp\n      swap1\n      div\n      0xffffffffffffffffffffffffffffffffffffffff\n      and\n        /* \"tronbox/contracts/SmartGenie.sol\":5682:5710  (userList[_referrerID]).call */\n      0xffffffffffffffffffffffffffffffffffffffff\n      and\n        /* \"tronbox/contracts/SmartGenie.sol\":5718:5726  regShare */\n      sload(0x14)\n        /* \"tronbox/contracts/SmartGenie.sol\":5682:5731  (userList[_referrerID]).call{value: regShare}(\"\") */\n      mload(0x40)\n      tag_198\n      swap1\n      tag_147\n      jump\t// in\n    tag_198:\n      0x00\n      mload(0x40)\n      dup1\n      dup4\n      sub\n      dup2\n      dup6\n      dup8\n      gas\n      call\n      swap3\n      pop\n      pop\n      pop\n      returndatasize\n      dup1\n      0x00\n      dup2\n      eq\n      tag_201\n      jumpi\n      mload(0x40)\n      swap2\n      pop\n      and(add(returndatasize, 0x3f), not(0x1f))\n      dup3\n      add\n      0x40\n      mstore\n      returndatasize\n      dup3\n      mstore\n      returndatasize\n      0x00\n      0x20\n      dup5\n      add\n      returndatacopy\n      jump(tag_200)\n    tag_201:\n      0x60\n      swap2\n      pop\n    tag_200:\n      pop\n        /* \"tronbox/contracts/SmartGenie.sol\":5664:5731  (bool success,) = (userList[_referrerID]).call{value: regShare}(\"\") */\n      pop\n      swap1\n      pop\n        /* \"tronbox/contracts/SmartGenie.sol\":5749:5756  success */\n      dup1\n        /* \"tronbox/contracts/SmartGenie.sol\":5741:5780  require(success, 'Transaction failed!') */\n      tag_202\n      jumpi\n      mload(0x40)\n      0x08c379a000000000000000000000000000000000000000000000000000000000\n      dup2\n      mstore\n      0x04\n      add\n      tag_203\n      swap1\n      tag_153\n      jump\t// in\n    tag_203:\n      mload(0x40)\n      dup1\n      swap2\n      sub\n      swap1\n      revert\n    tag_202:\n        /* \"tronbox/contracts/SmartGenie.sol\":5862:5870  userList */\n      0x0b\n        /* \"tronbox/contracts/SmartGenie.sol\":5862:5883  userList[_referrerID] */\n      0x00\n        /* \"tronbox/contracts/SmartGenie.sol\":5871:5882  _referrerID */\n      dup7\n        /* \"tronbox/contracts/SmartGenie.sol\":5862:5883  userList[_referrerID] */\n      dup2\n      mstore\n      0x20\n      add\n      swap1\n      dup2\n      mstore\n      0x20\n      add\n      0x00\n      keccak256\n      0x00\n      swap1\n      sload\n      swap1\n      0x0100\n      exp\n      swap1\n      div\n      0xffffffffffffffffffffffffffffffffffffffff\n      and\n        /* \"tronbox/contracts/SmartGenie.sol\":5836:5901  regLevelEvent(msg.sender, userList[_referrerID], block.timestamp) */\n      0xffffffffffffffffffffffffffffffffffffffff\n      and\n        /* \"tronbox/contracts/SmartGenie.sol\":5850:5860  msg.sender */\n      caller\n        /* \"tronbox/contracts/SmartGenie.sol\":5836:5901  regLevelEvent(msg.sender, userList[_referrerID], block.timestamp) */\n      0xffffffffffffffffffffffffffffffffffffffff\n      and\n      0x788c06d2405ae89dd3f0528d38be7691289474d72176408bc2c2406dc5e342f1\n        /* \"tronbox/contracts/SmartGenie.sol\":5885:5900  block.timestamp */\n      timestamp\n        /* \"tronbox/contracts/SmartGenie.sol\":5836:5901  regLevelEvent(msg.sender, userList[_referrerID], block.timestamp) */\n      mload(0x40)\n      tag_204\n      swap2\n      swap1\n      tag_77\n      jump\t// in\n    tag_204:\n      mload(0x40)\n      dup1\n      swap2\n      sub\n      swap1\n      log3\n        /* \"tronbox/contracts/SmartGenie.sol\":5918:5925  success */\n      dup1\n        /* \"tronbox/contracts/SmartGenie.sol\":5911:5925  return success */\n      swap4\n      pop\n      pop\n      pop\n      pop\n        /* \"tronbox/contracts/SmartGenie.sol\":3619:5941  function regUser(uint _referrerID) public payable returns (bool) {... */\n      swap2\n      swap1\n      pop\n      jump\t// out\n        /* \"tronbox/contracts/SmartGenie.sol\":694:723  address public splPromoWallet */\n    tag_89:\n      0x02\n      0x00\n      swap1\n      sload\n      swap1\n      0x0100\n      exp\n      swap1\n      div\n      0xffffffffffffffffffffffffffffffffffffffff\n      and\n      dup2\n      jump\t// out\n        /* \"tronbox/contracts/SmartGenie.sol\":20719:21503  function withdrawPromotion() public returns (bool) {... */\n    tag_93:\n        /* \"tronbox/contracts/SmartGenie.sol\":20764:20768  bool */\n      0x00\n        /* \"tronbox/contracts/SmartGenie.sol\":20780:20796  bool checkCaller */\n      dup1\n        /* \"tronbox/contracts/SmartGenie.sol\":20799:20804  false */\n      0x00\n        /* \"tronbox/contracts/SmartGenie.sol\":20780:20804  bool checkCaller = false */\n      swap1\n      pop\n        /* \"tronbox/contracts/SmartGenie.sol\":20814:20830  uint callerIndex */\n      0x00\n        /* \"tronbox/contracts/SmartGenie.sol\":20849:20855  uint i */\n      dup1\n        /* \"tronbox/contracts/SmartGenie.sol\":20844:21065  for (uint i = 0; i < promotionWallets.length; i++) {... */\n    tag_206:\n        /* \"tronbox/contracts/SmartGenie.sol\":20865:20888  promotionWallets.length */\n      0x04\n        /* \"tronbox/contracts/SmartGenie.sol\":20861:20862  i */\n      dup2\n        /* \"tronbox/contracts/SmartGenie.sol\":20861:20888  i < promotionWallets.length */\n      lt\n        /* \"tronbox/contracts/SmartGenie.sol\":20844:21065  for (uint i = 0; i < promotionWallets.length; i++) {... */\n      iszero\n      tag_207\n      jumpi\n        /* \"tronbox/contracts/SmartGenie.sol\":20936:20946  msg.sender */\n      caller\n        /* \"tronbox/contracts/SmartGenie.sol\":20913:20946  promotionWallets[i] == msg.sender */\n      0xffffffffffffffffffffffffffffffffffffffff\n      and\n        /* \"tronbox/contracts/SmartGenie.sol\":20913:20929  promotionWallets */\n      0x04\n        /* \"tronbox/contracts/SmartGenie.sol\":20930:20931  i */\n      dup3\n        /* \"tronbox/contracts/SmartGenie.sol\":20913:20932  promotionWallets[i] */\n      0x04\n      dup2\n      lt\n      tag_209\n      jumpi\n      tag_210\n      tag_211\n      jump\t// in\n    tag_210:\n    tag_209:\n      add\n      0x00\n      swap1\n      sload\n      swap1\n      0x0100\n      exp\n      swap1\n      div\n      0xffffffffffffffffffffffffffffffffffffffff\n      and\n        /* \"tronbox/contracts/SmartGenie.sol\":20913:20946  promotionWallets[i] == msg.sender */\n      0xffffffffffffffffffffffffffffffffffffffff\n      and\n      eq\n        /* \"tronbox/contracts/SmartGenie.sol\":20909:21055  if (promotionWallets[i] == msg.sender) {... */\n      iszero\n      tag_213\n      jumpi\n        /* \"tronbox/contracts/SmartGenie.sol\":20980:20984  true */\n      0x01\n        /* \"tronbox/contracts/SmartGenie.sol\":20966:20984  checkCaller = true */\n      swap3\n      pop\n        /* \"tronbox/contracts/SmartGenie.sol\":21016:21017  i */\n      dup1\n        /* \"tronbox/contracts/SmartGenie.sol\":21002:21017  callerIndex = i */\n      swap2\n      pop\n        /* \"tronbox/contracts/SmartGenie.sol\":21035:21040  break */\n      jump(tag_207)\n        /* \"tronbox/contracts/SmartGenie.sol\":20909:21055  if (promotionWallets[i] == msg.sender) {... */\n    tag_213:\n        /* \"tronbox/contracts/SmartGenie.sol\":20890:20893  i++ */\n      dup1\n      dup1\n      tag_214\n      swap1\n      tag_185\n      jump\t// in\n    tag_214:\n      swap2\n      pop\n      pop\n        /* \"tronbox/contracts/SmartGenie.sol\":20844:21065  for (uint i = 0; i < promotionWallets.length; i++) {... */\n      jump(tag_206)\n    tag_207:\n      pop\n        /* \"tronbox/contracts/SmartGenie.sol\":21098:21102  true */\n      0x01\n        /* \"tronbox/contracts/SmartGenie.sol\":21083:21102  checkCaller == true */\n      iszero\n      iszero\n        /* \"tronbox/contracts/SmartGenie.sol\":21083:21094  checkCaller */\n      dup3\n        /* \"tronbox/contracts/SmartGenie.sol\":21083:21102  checkCaller == true */\n      iszero\n      iszero\n      eq\n        /* \"tronbox/contracts/SmartGenie.sol\":21075:21121  require(checkCaller == true, \"Invalid caller\") */\n      tag_215\n      jumpi\n      mload(0x40)\n      0x08c379a000000000000000000000000000000000000000000000000000000000\n      dup2\n      mstore\n      0x04\n      add\n      tag_216\n      swap1\n      tag_145\n      jump\t// in\n    tag_216:\n      mload(0x40)\n      dup1\n      swap2\n      sub\n      swap1\n      revert\n    tag_215:\n        /* \"tronbox/contracts/SmartGenie.sol\":21131:21153  uint maxEligibleAmount */\n      0x00\n        /* \"tronbox/contracts/SmartGenie.sol\":21201:21204  100 */\n      0x64\n        /* \"tronbox/contracts/SmartGenie.sol\":21167:21186  promotionPercantage */\n      0x08\n        /* \"tronbox/contracts/SmartGenie.sol\":21187:21198  callerIndex */\n      dup4\n        /* \"tronbox/contracts/SmartGenie.sol\":21167:21199  promotionPercantage[callerIndex] */\n      0x04\n      dup2\n      lt\n      tag_217\n      jumpi\n      tag_218\n      tag_211\n      jump\t// in\n    tag_218:\n    tag_217:\n      0x20\n      swap2\n      dup3\n      dup3\n      div\n      add\n      swap2\n      swap1\n      mod\n      swap1\n      sload\n      swap1\n      0x0100\n      exp\n      swap1\n      div\n      0xff\n      and\n        /* \"tronbox/contracts/SmartGenie.sol\":21157:21199  promAmt * promotionPercantage[callerIndex] */\n      0xff\n      and\n        /* \"tronbox/contracts/SmartGenie.sol\":21157:21164  promAmt */\n      sload(0x11)\n        /* \"tronbox/contracts/SmartGenie.sol\":21157:21199  promAmt * promotionPercantage[callerIndex] */\n      tag_220\n      swap2\n      swap1\n      tag_221\n      jump\t// in\n    tag_220:\n        /* \"tronbox/contracts/SmartGenie.sol\":21156:21204  (promAmt * promotionPercantage[callerIndex])/100 */\n      tag_222\n      swap2\n      swap1\n      tag_161\n      jump\t// in\n    tag_222:\n        /* \"tronbox/contracts/SmartGenie.sol\":21131:21204  uint maxEligibleAmount = (promAmt * promotionPercantage[callerIndex])/100 */\n      swap1\n      pop\n        /* \"tronbox/contracts/SmartGenie.sol\":21341:21353  bool success */\n      0x00\n        /* \"tronbox/contracts/SmartGenie.sol\":21375:21385  msg.sender */\n      caller\n        /* \"tronbox/contracts/SmartGenie.sol\":21358:21393  (address(uint160(msg.sender))).call */\n      0xffffffffffffffffffffffffffffffffffffffff\n      and\n        /* \"tronbox/contracts/SmartGenie.sol\":21401:21418  maxEligibleAmount */\n      dup3\n        /* \"tronbox/contracts/SmartGenie.sol\":21358:21423  (address(uint160(msg.sender))).call{value: maxEligibleAmount}(\"\") */\n      mload(0x40)\n      tag_223\n      swap1\n      tag_147\n      jump\t// in\n    tag_223:\n      0x00\n      mload(0x40)\n      dup1\n      dup4\n      sub\n      dup2\n      dup6\n      dup8\n      gas\n      call\n      swap3\n      pop\n      pop\n      pop\n      returndatasize\n      dup1\n      0x00\n      dup2\n      eq\n      tag_226\n      jumpi\n      mload(0x40)\n      swap2\n      pop\n      and(add(returndatasize, 0x3f), not(0x1f))\n      dup3\n      add\n      0x40\n      mstore\n      returndatasize\n      dup3\n      mstore\n      returndatasize\n      0x00\n      0x20\n      dup5\n      add\n      returndatacopy\n      jump(tag_225)\n    tag_226:\n      0x60\n      swap2\n      pop\n    tag_225:\n      pop\n        /* \"tronbox/contracts/SmartGenie.sol\":21340:21423  (bool success,) = (address(uint160(msg.sender))).call{value: maxEligibleAmount}(\"\") */\n      pop\n      swap1\n      pop\n        /* \"tronbox/contracts/SmartGenie.sol\":21441:21448  success */\n      dup1\n        /* \"tronbox/contracts/SmartGenie.sol\":21433:21472  require(success, 'Transaction failed!') */\n      tag_227\n      jumpi\n      mload(0x40)\n      0x08c379a000000000000000000000000000000000000000000000000000000000\n      dup2\n      mstore\n      0x04\n      add\n      tag_228\n      swap1\n      tag_153\n      jump\t// in\n    tag_228:\n      mload(0x40)\n      dup1\n      swap2\n      sub\n      swap1\n      revert\n    tag_227:\n        /* \"tronbox/contracts/SmartGenie.sol\":21489:21496  success */\n      dup1\n        /* \"tronbox/contracts/SmartGenie.sol\":21482:21496  return success */\n      swap5\n      pop\n      pop\n      pop\n      pop\n      pop\n        /* \"tronbox/contracts/SmartGenie.sol\":20719:21503  function withdrawPromotion() public returns (bool) {... */\n      swap1\n      jump\t// out\n        /* \"tronbox/contracts/SmartGenie.sol\":1176:1216  mapping(uint => address) public userList */\n    tag_98:\n      mstore(0x20, 0x0b)\n      dup1\n      0x00\n      mstore\n      keccak256(0x00, 0x40)\n      0x00\n      swap2\n      pop\n      sload\n      swap1\n      0x0100\n      exp\n      swap1\n      div\n      0xffffffffffffffffffffffffffffffffffffffff\n      and\n      dup2\n      jump\t// out\n        /* \"tronbox/contracts/SmartGenie.sol\":21553:21965  function withdrawSplPromotion() public returns (bool) {... */\n    tag_102:\n        /* \"tronbox/contracts/SmartGenie.sol\":21601:21605  bool */\n      0x00\n        /* \"tronbox/contracts/SmartGenie.sol\":21639:21653  splPromoWallet */\n      0x02\n      0x00\n      swap1\n      sload\n      swap1\n      0x0100\n      exp\n      swap1\n      div\n      0xffffffffffffffffffffffffffffffffffffffff\n      and\n        /* \"tronbox/contracts/SmartGenie.sol\":21625:21653  msg.sender == splPromoWallet */\n      0xffffffffffffffffffffffffffffffffffffffff\n      and\n        /* \"tronbox/contracts/SmartGenie.sol\":21625:21635  msg.sender */\n      caller\n        /* \"tronbox/contracts/SmartGenie.sol\":21625:21653  msg.sender == splPromoWallet */\n      0xffffffffffffffffffffffffffffffffffffffff\n      and\n      eq\n        /* \"tronbox/contracts/SmartGenie.sol\":21617:21672  require(msg.sender == splPromoWallet, \"Invalid caller\") */\n      tag_230\n      jumpi\n      mload(0x40)\n      0x08c379a000000000000000000000000000000000000000000000000000000000\n      dup2\n      mstore\n      0x04\n      add\n      tag_231\n      swap1\n      tag_145\n      jump\t// in\n    tag_231:\n      mload(0x40)\n      dup1\n      swap2\n      sub\n      swap1\n      revert\n    tag_230:\n        /* \"tronbox/contracts/SmartGenie.sol\":21806:21818  bool success */\n      0x00\n        /* \"tronbox/contracts/SmartGenie.sol\":21840:21854  splPromoWallet */\n      0x02\n      0x00\n      swap1\n      sload\n      swap1\n      0x0100\n      exp\n      swap1\n      div\n      0xffffffffffffffffffffffffffffffffffffffff\n      and\n        /* \"tronbox/contracts/SmartGenie.sol\":21823:21862  (address(uint160(splPromoWallet))).call */\n      0xffffffffffffffffffffffffffffffffffffffff\n      and\n        /* \"tronbox/contracts/SmartGenie.sol\":21870:21880  splPromAmt */\n      sload(0x10)\n        /* \"tronbox/contracts/SmartGenie.sol\":21823:21885  (address(uint160(splPromoWallet))).call{value: splPromAmt}(\"\") */\n      mload(0x40)\n      tag_232\n      swap1\n      tag_147\n      jump\t// in\n    tag_232:\n      0x00\n      mload(0x40)\n      dup1\n      dup4\n      sub\n      dup2\n      dup6\n      dup8\n      gas\n      call\n      swap3\n      pop\n      pop\n      pop\n      returndatasize\n      dup1\n      0x00\n      dup2\n      eq\n      tag_235\n      jumpi\n      mload(0x40)\n      swap2\n      pop\n      and(add(returndatasize, 0x3f), not(0x1f))\n      dup3\n      add\n      0x40\n      mstore\n      returndatasize\n      dup3\n      mstore\n      returndatasize\n      0x00\n      0x20\n      dup5\n      add\n      returndatacopy\n      jump(tag_234)\n    tag_235:\n      0x60\n      swap2\n      pop\n    tag_234:\n      pop\n        /* \"tronbox/contracts/SmartGenie.sol\":21805:21885  (bool success,) = (address(uint160(splPromoWallet))).call{value: splPromAmt}(\"\") */\n      pop\n      swap1\n      pop\n        /* \"tronbox/contracts/SmartGenie.sol\":21903:21910  success */\n      dup1\n        /* \"tronbox/contracts/SmartGenie.sol\":21895:21934  require(success, 'Transaction failed!') */\n      tag_236\n      jumpi\n      mload(0x40)\n      0x08c379a000000000000000000000000000000000000000000000000000000000\n      dup2\n      mstore\n      0x04\n      add\n      tag_237\n      swap1\n      tag_153\n      jump\t// in\n    tag_237:\n      mload(0x40)\n      dup1\n      swap2\n      sub\n      swap1\n      revert\n    tag_236:\n        /* \"tronbox/contracts/SmartGenie.sol\":21951:21958  success */\n      dup1\n        /* \"tronbox/contracts/SmartGenie.sol\":21944:21958  return success */\n      swap2\n      pop\n      pop\n        /* \"tronbox/contracts/SmartGenie.sol\":21553:21965  function withdrawSplPromotion() public returns (bool) {... */\n      swap1\n      jump\t// out\n        /* \"tronbox/contracts/SmartGenie.sol\":1464:1490  uint public currUserID = 0 */\n    tag_106:\n      sload(0x0f)\n      dup2\n      jump\t// out\n        /* \"tronbox/contracts/SmartGenie.sol\":1127:1170  mapping(address => UserStruct) public users */\n    tag_111:\n      mstore(0x20, 0x0a)\n      dup1\n      0x00\n      mstore\n      keccak256(0x00, 0x40)\n      0x00\n      swap2\n      pop\n      swap1\n      pop\n      dup1\n      0x00\n      add\n      0x00\n      swap1\n      sload\n      swap1\n      0x0100\n      exp\n      swap1\n      div\n      0xff\n      and\n      swap1\n      dup1\n      0x01\n      add\n      sload\n      swap1\n      dup1\n      0x02\n      add\n      sload\n      swap1\n      dup1\n      0x04\n      add\n      sload\n      swap1\n      pop\n      dup5\n      jump\t// out\n        /* \"tronbox/contracts/SmartGenie.sol\":23456:23600  function getUserIncomeCount(address _user, uint256 _level) public view returns(uint256) {... */\n    tag_118:\n        /* \"tronbox/contracts/SmartGenie.sol\":23535:23542  uint256 */\n      0x00\n        /* \"tronbox/contracts/SmartGenie.sol\":23561:23566  users */\n      0x0a\n        /* \"tronbox/contracts/SmartGenie.sol\":23561:23573  users[_user] */\n      0x00\n        /* \"tronbox/contracts/SmartGenie.sol\":23567:23572  _user */\n      dup5\n        /* \"tronbox/contracts/SmartGenie.sol\":23561:23573  users[_user] */\n      0xffffffffffffffffffffffffffffffffffffffff\n      and\n      0xffffffffffffffffffffffffffffffffffffffff\n      and\n      dup2\n      mstore\n      0x20\n      add\n      swap1\n      dup2\n      mstore\n      0x20\n      add\n      0x00\n      keccak256\n        /* \"tronbox/contracts/SmartGenie.sol\":23561:23585  users[_user].incomeCount */\n      0x05\n      add\n        /* \"tronbox/contracts/SmartGenie.sol\":23561:23593  users[_user].incomeCount[_level] */\n      0x00\n        /* \"tronbox/contracts/SmartGenie.sol\":23586:23592  _level */\n      dup4\n        /* \"tronbox/contracts/SmartGenie.sol\":23561:23593  users[_user].incomeCount[_level] */\n      dup2\n      mstore\n      0x20\n      add\n      swap1\n      dup2\n      mstore\n      0x20\n      add\n      0x00\n      keccak256\n      sload\n        /* \"tronbox/contracts/SmartGenie.sol\":23554:23593  return users[_user].incomeCount[_level] */\n      swap1\n      pop\n        /* \"tronbox/contracts/SmartGenie.sol\":23456:23600  function getUserIncomeCount(address _user, uint256 _level) public view returns(uint256) {... */\n      swap3\n      swap2\n      pop\n      pop\n      jump\t// out\n        /* \"tronbox/contracts/SmartGenie.sol\":1222:1289  mapping(uint256 => mapping(address => uint256)) public levelCounter */\n    tag_123:\n      mstore(0x20, 0x0c)\n      dup2\n      0x00\n      mstore\n      mstore(0x20, keccak256(0x00, 0x40))\n      dup1\n      0x00\n      mstore\n      keccak256(0x00, 0x40)\n      0x00\n      swap2\n      pop\n      swap2\n      pop\n      pop\n      sload\n      dup2\n      jump\t// out\n        /* \"tronbox/contracts/SmartGenie.sol\":664:688  address public ursWallet */\n    tag_127:\n      0x01\n      0x00\n      swap1\n      sload\n      swap1\n      0x0100\n      exp\n      swap1\n      div\n      0xffffffffffffffffffffffffffffffffffffffff\n      and\n      dup2\n      jump\t// out\n        /* \"tronbox/contracts/SmartGenie.sol\":22468:22892  function updatePromotionWallet(address walletAddr, uint index) onlyAdmin public {... */\n    tag_132:\n        /* \"tronbox/contracts/SmartGenie.sol\":2150:2161  adminWallet */\n      0x00\n      dup1\n      sload\n      swap1\n      0x0100\n      exp\n      swap1\n      div\n      0xffffffffffffffffffffffffffffffffffffffff\n      and\n        /* \"tronbox/contracts/SmartGenie.sol\":2136:2161  msg.sender == adminWallet */\n      0xffffffffffffffffffffffffffffffffffffffff\n      and\n        /* \"tronbox/contracts/SmartGenie.sol\":2136:2146  msg.sender */\n      caller\n        /* \"tronbox/contracts/SmartGenie.sol\":2136:2161  msg.sender == adminWallet */\n      0xffffffffffffffffffffffffffffffffffffffff\n      and\n      eq\n        /* \"tronbox/contracts/SmartGenie.sol\":2128:2186  require(msg.sender == adminWallet, \"Caller is not Admin.\") */\n      tag_240\n      jumpi\n      mload(0x40)\n      0x08c379a000000000000000000000000000000000000000000000000000000000\n      dup2\n      mstore\n      0x04\n      add\n      tag_241\n      swap1\n      tag_242\n      jump\t// in\n    tag_241:\n      mload(0x40)\n      dup1\n      swap2\n      sub\n      swap1\n      revert\n    tag_240:\n        /* \"tronbox/contracts/SmartGenie.sol\":22580:22591  adminWallet */\n      0x00\n      dup1\n      sload\n      swap1\n      0x0100\n      exp\n      swap1\n      div\n      0xffffffffffffffffffffffffffffffffffffffff\n      and\n        /* \"tronbox/contracts/SmartGenie.sol\":22566:22591  msg.sender == adminWallet */\n      0xffffffffffffffffffffffffffffffffffffffff\n      and\n        /* \"tronbox/contracts/SmartGenie.sol\":22566:22576  msg.sender */\n      caller\n        /* \"tronbox/contracts/SmartGenie.sol\":22566:22591  msg.sender == adminWallet */\n      0xffffffffffffffffffffffffffffffffffffffff\n      and\n      eq\n        /* \"tronbox/contracts/SmartGenie.sol\":22558:22610  require(msg.sender == adminWallet, \"Invalid caller\") */\n      tag_244\n      jumpi\n      mload(0x40)\n      0x08c379a000000000000000000000000000000000000000000000000000000000\n      dup2\n      mstore\n      0x04\n      add\n      tag_245\n      swap1\n      tag_145\n      jump\t// in\n    tag_245:\n      mload(0x40)\n      dup1\n      swap2\n      sub\n      swap1\n      revert\n    tag_244:\n        /* \"tronbox/contracts/SmartGenie.sol\":22637:22638  5 */\n      0x05\n        /* \"tronbox/contracts/SmartGenie.sol\":22628:22633  index */\n      dup2\n        /* \"tronbox/contracts/SmartGenie.sol\":22628:22638  index <= 5 */\n      gt\n      iszero\n        /* \"tronbox/contracts/SmartGenie.sol\":22620:22656  require(index <= 5, \"Invalid Index\") */\n      tag_246\n      jumpi\n      mload(0x40)\n      0x08c379a000000000000000000000000000000000000000000000000000000000\n      dup2\n      mstore\n      0x04\n      add\n      tag_247\n      swap1\n      tag_248\n      jump\t// in\n    tag_247:\n      mload(0x40)\n      dup1\n      swap2\n      sub\n      swap1\n      revert\n    tag_246:\n        /* \"tronbox/contracts/SmartGenie.sol\":22677:22678  3 */\n      0x03\n        /* \"tronbox/contracts/SmartGenie.sol\":22669:22674  index */\n      dup2\n        /* \"tronbox/contracts/SmartGenie.sol\":22669:22678  index <=3 */\n      gt\n        /* \"tronbox/contracts/SmartGenie.sol\":22666:22886  if(index <=3 ) {... */\n      tag_249\n      jumpi\n        /* \"tronbox/contracts/SmartGenie.sol\":22723:22733  walletAddr */\n      dup2\n        /* \"tronbox/contracts/SmartGenie.sol\":22695:22711  promotionWallets */\n      0x04\n        /* \"tronbox/contracts/SmartGenie.sol\":22718:22719  1 */\n      0x01\n        /* \"tronbox/contracts/SmartGenie.sol\":22712:22717  index */\n      dup4\n        /* \"tronbox/contracts/SmartGenie.sol\":22712:22719  index-1 */\n      tag_250\n      swap2\n      swap1\n      tag_251\n      jump\t// in\n    tag_250:\n        /* \"tronbox/contracts/SmartGenie.sol\":22695:22720  promotionWallets[index-1] */\n      0x04\n      dup2\n      lt\n      tag_252\n      jumpi\n      tag_253\n      tag_211\n      jump\t// in\n    tag_253:\n    tag_252:\n      add\n      0x00\n        /* \"tronbox/contracts/SmartGenie.sol\":22695:22733  promotionWallets[index-1] = walletAddr */\n      0x0100\n      exp\n      dup2\n      sload\n      dup2\n      0xffffffffffffffffffffffffffffffffffffffff\n      mul\n      not\n      and\n      swap1\n      dup4\n      0xffffffffffffffffffffffffffffffffffffffff\n      and\n      mul\n      or\n      swap1\n      sstore\n      pop\n        /* \"tronbox/contracts/SmartGenie.sol\":22666:22886  if(index <=3 ) {... */\n      jump(tag_255)\n    tag_249:\n        /* \"tronbox/contracts/SmartGenie.sol\":22763:22764  4 */\n      0x04\n        /* \"tronbox/contracts/SmartGenie.sol\":22754:22759  index */\n      dup2\n        /* \"tronbox/contracts/SmartGenie.sol\":22754:22764  index == 4 */\n      eq\n        /* \"tronbox/contracts/SmartGenie.sol\":22750:22886  if (index == 4) {... */\n      iszero\n      tag_256\n      jumpi\n        /* \"tronbox/contracts/SmartGenie.sol\":22797:22807  walletAddr */\n      dup2\n        /* \"tronbox/contracts/SmartGenie.sol\":22780:22794  splPromoWallet */\n      0x02\n      0x00\n        /* \"tronbox/contracts/SmartGenie.sol\":22780:22807  splPromoWallet = walletAddr */\n      0x0100\n      exp\n      dup2\n      sload\n      dup2\n      0xffffffffffffffffffffffffffffffffffffffff\n      mul\n      not\n      and\n      swap1\n      dup4\n      0xffffffffffffffffffffffffffffffffffffffff\n      and\n      mul\n      or\n      swap1\n      sstore\n      pop\n        /* \"tronbox/contracts/SmartGenie.sol\":22750:22886  if (index == 4) {... */\n      jump(tag_257)\n    tag_256:\n        /* \"tronbox/contracts/SmartGenie.sol\":22850:22860  walletAddr */\n      dup2\n        /* \"tronbox/contracts/SmartGenie.sol\":22838:22847  ursWallet */\n      0x01\n      0x00\n        /* \"tronbox/contracts/SmartGenie.sol\":22838:22860  ursWallet = walletAddr */\n      0x0100\n      exp\n      dup2\n      sload\n      dup2\n      0xffffffffffffffffffffffffffffffffffffffff\n      mul\n      not\n      and\n      swap1\n      dup4\n      0xffffffffffffffffffffffffffffffffffffffff\n      and\n      mul\n      or\n      swap1\n      sstore\n      pop\n        /* \"tronbox/contracts/SmartGenie.sol\":22750:22886  if (index == 4) {... */\n    tag_257:\n        /* \"tronbox/contracts/SmartGenie.sol\":22666:22886  if(index <=3 ) {... */\n    tag_255:\n        /* \"tronbox/contracts/SmartGenie.sol\":22468:22892  function updatePromotionWallet(address walletAddr, uint index) onlyAdmin public {... */\n      pop\n      pop\n      jump\t// out\n        /* \"tronbox/contracts/SmartGenie.sol\":729:756  address public rewardWallet */\n    tag_135:\n      0x03\n      0x00\n      swap1\n      sload\n      swap1\n      0x0100\n      exp\n      swap1\n      div\n      0xffffffffffffffffffffffffffffffffffffffff\n      and\n      dup2\n      jump\t// out\n        /* \"tronbox/contracts/SmartGenie.sol\":5988:8413  function payment(uint _reglevel, address _user, uint256 length, bool loop) internal { //4... */\n    tag_194:\n        /* \"tronbox/contracts/SmartGenie.sol\":6086:6099  address payer */\n      0x00\n        /* \"tronbox/contracts/SmartGenie.sol\":6109:6123  bool isRenewal */\n      dup1\n        /* \"tronbox/contracts/SmartGenie.sol\":6126:6131  false */\n      0x00\n        /* \"tronbox/contracts/SmartGenie.sol\":6109:6131  bool isRenewal = false */\n      swap1\n      pop\n        /* \"tronbox/contracts/SmartGenie.sol\":6141:6155  bool isSameLeg */\n      0x00\n        /* \"tronbox/contracts/SmartGenie.sol\":6173:6187  bool isPayNeed */\n      dup1\n        /* \"tronbox/contracts/SmartGenie.sol\":6190:6194  true */\n      0x01\n        /* \"tronbox/contracts/SmartGenie.sol\":6173:6194  bool isPayNeed = true */\n      swap1\n      pop\n        /* \"tronbox/contracts/SmartGenie.sol\":6204:6228  uint256 levelEligibility */\n      0x00\n        /* \"tronbox/contracts/SmartGenie.sol\":6239:6255  uint256 payLevel */\n      dup1\n        /* \"tronbox/contracts/SmartGenie.sol\":6258:6267  _reglevel */\n      dup10\n        /* \"tronbox/contracts/SmartGenie.sol\":6239:6267  uint256 payLevel = _reglevel */\n      swap1\n      pop\n        /* \"tronbox/contracts/SmartGenie.sol\":6325:6326  2 */\n      0x02\n        /* \"tronbox/contracts/SmartGenie.sol\":6315:6321  length */\n      dup9\n        /* \"tronbox/contracts/SmartGenie.sol\":6315:6326  length == 2 */\n      eq\n        /* \"tronbox/contracts/SmartGenie.sol\":6311:6877  if (length == 2) {... */\n      iszero\n      tag_259\n      jumpi\n        /* \"tronbox/contracts/SmartGenie.sol\":6372:6443  levelUpgrade (_reglevel, _user, levelEligibility, isSameLeg, isPayNeed) */\n      tag_260\n        /* \"tronbox/contracts/SmartGenie.sol\":6386:6395  _reglevel */\n      dup11\n        /* \"tronbox/contracts/SmartGenie.sol\":6397:6402  _user */\n      dup11\n        /* \"tronbox/contracts/SmartGenie.sol\":6404:6420  levelEligibility */\n      dup5\n        /* \"tronbox/contracts/SmartGenie.sol\":6422:6431  isSameLeg */\n      dup8\n        /* \"tronbox/contracts/SmartGenie.sol\":6433:6442  isPayNeed */\n      dup8\n        /* \"tronbox/contracts/SmartGenie.sol\":6372:6384  levelUpgrade */\n      tag_261\n        /* \"tronbox/contracts/SmartGenie.sol\":6372:6443  levelUpgrade (_reglevel, _user, levelEligibility, isSameLeg, isPayNeed) */\n      jump\t// in\n    tag_260:\n        /* \"tronbox/contracts/SmartGenie.sol\":6340:6443  (payer, isPayNeed, isSameLeg) = levelUpgrade (_reglevel, _user, levelEligibility, isSameLeg, isPayNeed) */\n      dup1\n      swap7\n      pop\n      dup2\n      swap6\n      pop\n      dup3\n      swap9\n      pop\n      pop\n      pop\n      pop\n        /* \"tronbox/contracts/SmartGenie.sol\":6476:6477  1 */\n      0x01\n        /* \"tronbox/contracts/SmartGenie.sol\":6466:6475  _reglevel */\n      dup11\n        /* \"tronbox/contracts/SmartGenie.sol\":6466:6477  _reglevel+1 */\n      tag_262\n      swap2\n      swap1\n      tag_188\n      jump\t// in\n    tag_262:\n        /* \"tronbox/contracts/SmartGenie.sol\":6455:6477  payLevel = _reglevel+1 */\n      swap1\n      pop\n        /* \"tronbox/contracts/SmartGenie.sol\":6311:6877  if (length == 2) {... */\n      jump(tag_263)\n    tag_259:\n        /* \"tronbox/contracts/SmartGenie.sol\":6543:6545  20 */\n      0x14\n        /* \"tronbox/contracts/SmartGenie.sol\":6533:6539  length */\n      dup9\n        /* \"tronbox/contracts/SmartGenie.sol\":6533:6545  length >= 20 */\n      lt\n      iszero\n        /* \"tronbox/contracts/SmartGenie.sol\":6533:6565  length >= 20 && length % 20 == 0 */\n      dup1\n      iszero\n      tag_264\n      jumpi\n      pop\n        /* \"tronbox/contracts/SmartGenie.sol\":6564:6565  0 */\n      0x00\n        /* \"tronbox/contracts/SmartGenie.sol\":6558:6560  20 */\n      0x14\n        /* \"tronbox/contracts/SmartGenie.sol\":6549:6555  length */\n      dup10\n        /* \"tronbox/contracts/SmartGenie.sol\":6549:6560  length % 20 */\n      tag_265\n      swap2\n      swap1\n      tag_266\n      jump\t// in\n    tag_265:\n        /* \"tronbox/contracts/SmartGenie.sol\":6549:6565  length % 20 == 0 */\n      eq\n        /* \"tronbox/contracts/SmartGenie.sol\":6533:6565  length >= 20 && length % 20 == 0 */\n    tag_264:\n        /* \"tronbox/contracts/SmartGenie.sol\":6529:6877  if (length >= 20 && length % 20 == 0) { ... */\n      iszero\n      tag_267\n      jumpi\n        /* \"tronbox/contracts/SmartGenie.sol\":6589:6601  rewardWallet */\n      0x03\n      0x00\n      swap1\n      sload\n      swap1\n      0x0100\n      exp\n      swap1\n      div\n      0xffffffffffffffffffffffffffffffffffffffff\n      and\n        /* \"tronbox/contracts/SmartGenie.sol\":6581:6601  payer = rewardWallet */\n      swap6\n      pop\n        /* \"tronbox/contracts/SmartGenie.sol\":6529:6877  if (length >= 20 && length % 20 == 0) { ... */\n      jump(tag_268)\n    tag_267:\n        /* \"tronbox/contracts/SmartGenie.sol\":6666:6667  4 */\n      0x04\n        /* \"tronbox/contracts/SmartGenie.sol\":6656:6662  length */\n      dup9\n        /* \"tronbox/contracts/SmartGenie.sol\":6656:6667  length >= 4 */\n      lt\n      iszero\n        /* \"tronbox/contracts/SmartGenie.sol\":6656:6686  length >= 4 && length % 4 == 0 */\n      dup1\n      iszero\n      tag_269\n      jumpi\n      pop\n        /* \"tronbox/contracts/SmartGenie.sol\":6685:6686  0 */\n      0x00\n        /* \"tronbox/contracts/SmartGenie.sol\":6680:6681  4 */\n      0x04\n        /* \"tronbox/contracts/SmartGenie.sol\":6671:6677  length */\n      dup10\n        /* \"tronbox/contracts/SmartGenie.sol\":6671:6681  length % 4 */\n      tag_270\n      swap2\n      swap1\n      tag_266\n      jump\t// in\n    tag_270:\n        /* \"tronbox/contracts/SmartGenie.sol\":6671:6686  length % 4 == 0 */\n      eq\n        /* \"tronbox/contracts/SmartGenie.sol\":6656:6686  length >= 4 && length % 4 == 0 */\n    tag_269:\n        /* \"tronbox/contracts/SmartGenie.sol\":6652:6877  if (length >= 4 && length % 4 == 0) { ... */\n      iszero\n      tag_271\n      jumpi\n        /* \"tronbox/contracts/SmartGenie.sol\":6723:6759  levelRenewal(loop, _user, _reglevel) */\n      tag_272\n        /* \"tronbox/contracts/SmartGenie.sol\":6736:6740  loop */\n      dup8\n        /* \"tronbox/contracts/SmartGenie.sol\":6742:6747  _user */\n      dup11\n        /* \"tronbox/contracts/SmartGenie.sol\":6749:6758  _reglevel */\n      dup13\n        /* \"tronbox/contracts/SmartGenie.sol\":6723:6735  levelRenewal */\n      tag_273\n        /* \"tronbox/contracts/SmartGenie.sol\":6723:6759  levelRenewal(loop, _user, _reglevel) */\n      jump\t// in\n    tag_272:\n        /* \"tronbox/contracts/SmartGenie.sol\":6702:6759  (payer, isRenewal) = levelRenewal(loop, _user, _reglevel) */\n      dup1\n      swap7\n      pop\n      dup2\n      swap8\n      pop\n      pop\n      pop\n        /* \"tronbox/contracts/SmartGenie.sol\":6652:6877  if (length >= 4 && length % 4 == 0) { ... */\n      jump(tag_274)\n    tag_271:\n        /* \"tronbox/contracts/SmartGenie.sol\":6833:6841  userList */\n      0x0b\n        /* \"tronbox/contracts/SmartGenie.sol\":6833:6866  userList[users[_user].referrerID] */\n      0x00\n        /* \"tronbox/contracts/SmartGenie.sol\":6842:6847  users */\n      0x0a\n        /* \"tronbox/contracts/SmartGenie.sol\":6842:6854  users[_user] */\n      0x00\n        /* \"tronbox/contracts/SmartGenie.sol\":6848:6853  _user */\n      dup13\n        /* \"tronbox/contracts/SmartGenie.sol\":6842:6854  users[_user] */\n      0xffffffffffffffffffffffffffffffffffffffff\n      and\n      0xffffffffffffffffffffffffffffffffffffffff\n      and\n      dup2\n      mstore\n      0x20\n      add\n      swap1\n      dup2\n      mstore\n      0x20\n      add\n      0x00\n      keccak256\n        /* \"tronbox/contracts/SmartGenie.sol\":6842:6865  users[_user].referrerID */\n      0x02\n      add\n      sload\n        /* \"tronbox/contracts/SmartGenie.sol\":6833:6866  userList[users[_user].referrerID] */\n      dup2\n      mstore\n      0x20\n      add\n      swap1\n      dup2\n      mstore\n      0x20\n      add\n      0x00\n      keccak256\n      0x00\n      swap1\n      sload\n      swap1\n      0x0100\n      exp\n      swap1\n      div\n      0xffffffffffffffffffffffffffffffffffffffff\n      and\n        /* \"tronbox/contracts/SmartGenie.sol\":6825:6866  payer = userList[users[_user].referrerID] */\n      swap6\n      pop\n        /* \"tronbox/contracts/SmartGenie.sol\":6652:6877  if (length >= 4 && length % 4 == 0) { ... */\n    tag_274:\n        /* \"tronbox/contracts/SmartGenie.sol\":6529:6877  if (length >= 20 && length % 20 == 0) { ... */\n    tag_268:\n        /* \"tronbox/contracts/SmartGenie.sol\":6311:6877  if (length == 2) {... */\n    tag_263:\n        /* \"tronbox/contracts/SmartGenie.sol\":6946:6955  isPayNeed */\n      dup3\n        /* \"tronbox/contracts/SmartGenie.sol\":6946:6980  isPayNeed || !users[payer].isExist */\n      dup1\n      tag_275\n      jumpi\n      pop\n        /* \"tronbox/contracts/SmartGenie.sol\":6960:6965  users */\n      0x0a\n        /* \"tronbox/contracts/SmartGenie.sol\":6960:6972  users[payer] */\n      0x00\n        /* \"tronbox/contracts/SmartGenie.sol\":6966:6971  payer */\n      dup8\n        /* \"tronbox/contracts/SmartGenie.sol\":6960:6972  users[payer] */\n      0xffffffffffffffffffffffffffffffffffffffff\n      and\n      0xffffffffffffffffffffffffffffffffffffffff\n      and\n      dup2\n      mstore\n      0x20\n      add\n      swap1\n      dup2\n      mstore\n      0x20\n      add\n      0x00\n      keccak256\n        /* \"tronbox/contracts/SmartGenie.sol\":6960:6980  users[payer].isExist */\n      0x00\n      add\n      0x00\n      swap1\n      sload\n      swap1\n      0x0100\n      exp\n      swap1\n      div\n      0xff\n      and\n        /* \"tronbox/contracts/SmartGenie.sol\":6959:6980  !users[payer].isExist */\n      iszero\n        /* \"tronbox/contracts/SmartGenie.sol\":6946:6980  isPayNeed || !users[payer].isExist */\n    tag_275:\n        /* \"tronbox/contracts/SmartGenie.sol\":6946:7004  isPayNeed || !users[payer].isExist || payer == userList[1] */\n      dup1\n      tag_276\n      jumpi\n      pop\n        /* \"tronbox/contracts/SmartGenie.sol\":6993:7001  userList */\n      0x0b\n        /* \"tronbox/contracts/SmartGenie.sol\":6993:7004  userList[1] */\n      0x00\n        /* \"tronbox/contracts/SmartGenie.sol\":7002:7003  1 */\n      0x01\n        /* \"tronbox/contracts/SmartGenie.sol\":6993:7004  userList[1] */\n      dup2\n      mstore\n      0x20\n      add\n      swap1\n      dup2\n      mstore\n      0x20\n      add\n      0x00\n      keccak256\n      0x00\n      swap1\n      sload\n      swap1\n      0x0100\n      exp\n      swap1\n      div\n      0xffffffffffffffffffffffffffffffffffffffff\n      and\n        /* \"tronbox/contracts/SmartGenie.sol\":6984:7004  payer == userList[1] */\n      0xffffffffffffffffffffffffffffffffffffffff\n      and\n        /* \"tronbox/contracts/SmartGenie.sol\":6984:6989  payer */\n      dup7\n        /* \"tronbox/contracts/SmartGenie.sol\":6984:7004  payer == userList[1] */\n      0xffffffffffffffffffffffffffffffffffffffff\n      and\n      eq\n        /* \"tronbox/contracts/SmartGenie.sol\":6946:7004  isPayNeed || !users[payer].isExist || payer == userList[1] */\n    tag_276:\n        /* \"tronbox/contracts/SmartGenie.sol\":6942:8407  if (isPayNeed || !users[payer].isExist || payer == userList[1]) {... */\n      iszero\n      tag_277\n      jumpi\n        /* \"tronbox/contracts/SmartGenie.sol\":7037:7101  checkLoopRequired(payer, payLevel, length, isRenewal, isSameLeg) */\n      tag_278\n        /* \"tronbox/contracts/SmartGenie.sol\":7055:7060  payer */\n      dup7\n        /* \"tronbox/contracts/SmartGenie.sol\":7062:7070  payLevel */\n      dup3\n        /* \"tronbox/contracts/SmartGenie.sol\":7072:7078  length */\n      dup11\n        /* \"tronbox/contracts/SmartGenie.sol\":7080:7089  isRenewal */\n      dup9\n        /* \"tronbox/contracts/SmartGenie.sol\":7091:7100  isSameLeg */\n      dup9\n        /* \"tronbox/contracts/SmartGenie.sol\":7037:7054  checkLoopRequired */\n      tag_279\n        /* \"tronbox/contracts/SmartGenie.sol\":7037:7101  checkLoopRequired(payer, payLevel, length, isRenewal, isSameLeg) */\n      jump\t// in\n    tag_278:\n        /* \"tronbox/contracts/SmartGenie.sol\":7020:7101  (loop, length) = checkLoopRequired(payer, payLevel, length, isRenewal, isSameLeg) */\n      dup1\n      swap10\n      pop\n      dup2\n      swap9\n      pop\n      pop\n      pop\n        /* \"tronbox/contracts/SmartGenie.sol\":7119:7123  loop */\n      dup7\n        /* \"tronbox/contracts/SmartGenie.sol\":7116:8397  if(loop) {  ... */\n      iszero\n      tag_280\n      jumpi\n        /* \"tronbox/contracts/SmartGenie.sol\":7228:7237  isPayNeed */\n      dup3\n        /* \"tronbox/contracts/SmartGenie.sol\":7228:7251  isPayNeed && !isSameLeg */\n      dup1\n      iszero\n      tag_281\n      jumpi\n      pop\n        /* \"tronbox/contracts/SmartGenie.sol\":7242:7251  isSameLeg */\n      dup4\n        /* \"tronbox/contracts/SmartGenie.sol\":7241:7251  !isSameLeg */\n      iszero\n        /* \"tronbox/contracts/SmartGenie.sol\":7228:7251  isPayNeed && !isSameLeg */\n    tag_281:\n        /* \"tronbox/contracts/SmartGenie.sol\":7228:7264  isPayNeed && !isSameLeg && length==2 */\n      dup1\n      iszero\n      tag_282\n      jumpi\n      pop\n        /* \"tronbox/contracts/SmartGenie.sol\":7263:7264  2 */\n      0x02\n        /* \"tronbox/contracts/SmartGenie.sol\":7255:7261  length */\n      dup9\n        /* \"tronbox/contracts/SmartGenie.sol\":7255:7264  length==2 */\n      eq\n        /* \"tronbox/contracts/SmartGenie.sol\":7228:7264  isPayNeed && !isSameLeg && length==2 */\n    tag_282:\n        /* \"tronbox/contracts/SmartGenie.sol\":7225:7327  if(isPayNeed && !isSameLeg && length==2) {... */\n      iszero\n      tag_283\n      jumpi\n        /* \"tronbox/contracts/SmartGenie.sol\":7300:7308  payLevel */\n      dup1\n        /* \"tronbox/contracts/SmartGenie.sol\":7288:7308  _reglevel = payLevel */\n      swap10\n      pop\n        /* \"tronbox/contracts/SmartGenie.sol\":7225:7327  if(isPayNeed && !isSameLeg && length==2) {... */\n    tag_283:\n        /* \"tronbox/contracts/SmartGenie.sol\":7404:7413  isPayNeed */\n      dup3\n        /* \"tronbox/contracts/SmartGenie.sol\":7404:7427  isPayNeed && !isSameLeg */\n      dup1\n      iszero\n      tag_284\n      jumpi\n      pop\n        /* \"tronbox/contracts/SmartGenie.sol\":7418:7427  isSameLeg */\n      dup4\n        /* \"tronbox/contracts/SmartGenie.sol\":7417:7427  !isSameLeg */\n      iszero\n        /* \"tronbox/contracts/SmartGenie.sol\":7404:7427  isPayNeed && !isSameLeg */\n    tag_284:\n        /* \"tronbox/contracts/SmartGenie.sol\":7404:7442  isPayNeed && !isSameLeg && length == 4 */\n      dup1\n      iszero\n      tag_285\n      jumpi\n      pop\n        /* \"tronbox/contracts/SmartGenie.sol\":7441:7442  4 */\n      0x04\n        /* \"tronbox/contracts/SmartGenie.sol\":7431:7437  length */\n      dup9\n        /* \"tronbox/contracts/SmartGenie.sol\":7431:7442  length == 4 */\n      eq\n        /* \"tronbox/contracts/SmartGenie.sol\":7404:7442  isPayNeed && !isSameLeg && length == 4 */\n    tag_285:\n        /* \"tronbox/contracts/SmartGenie.sol\":7404:7456  isPayNeed && !isSameLeg && length == 4 && payLevel>1 */\n      dup1\n      iszero\n      tag_286\n      jumpi\n      pop\n        /* \"tronbox/contracts/SmartGenie.sol\":7455:7456  1 */\n      0x01\n        /* \"tronbox/contracts/SmartGenie.sol\":7446:7454  payLevel */\n      dup2\n        /* \"tronbox/contracts/SmartGenie.sol\":7446:7456  payLevel>1 */\n      gt\n        /* \"tronbox/contracts/SmartGenie.sol\":7404:7456  isPayNeed && !isSameLeg && length == 4 && payLevel>1 */\n    tag_286:\n        /* \"tronbox/contracts/SmartGenie.sol\":7401:7519  if(isPayNeed && !isSameLeg && length == 4 && payLevel>1) {... */\n      iszero\n      tag_287\n      jumpi\n        /* \"tronbox/contracts/SmartGenie.sol\":7492:7500  payLevel */\n      dup1\n        /* \"tronbox/contracts/SmartGenie.sol\":7480:7500  _reglevel = payLevel */\n      swap10\n      pop\n        /* \"tronbox/contracts/SmartGenie.sol\":7401:7519  if(isPayNeed && !isSameLeg && length == 4 && payLevel>1) {... */\n    tag_287:\n        /* \"tronbox/contracts/SmartGenie.sol\":7551:7590  payment(_reglevel, payer, length, true) */\n      tag_288\n        /* \"tronbox/contracts/SmartGenie.sol\":7559:7568  _reglevel */\n      dup11\n        /* \"tronbox/contracts/SmartGenie.sol\":7570:7575  payer */\n      dup8\n        /* \"tronbox/contracts/SmartGenie.sol\":7577:7583  length */\n      dup11\n        /* \"tronbox/contracts/SmartGenie.sol\":7585:7589  true */\n      0x01\n        /* \"tronbox/contracts/SmartGenie.sol\":7551:7558  payment */\n      tag_194\n        /* \"tronbox/contracts/SmartGenie.sol\":7551:7590  payment(_reglevel, payer, length, true) */\n      jump\t// in\n    tag_288:\n        /* \"tronbox/contracts/SmartGenie.sol\":7116:8397  if(loop) {  ... */\n      jump(tag_289)\n    tag_280:\n        /* \"tronbox/contracts/SmartGenie.sol\":7669:7674  users */\n      0x0a\n        /* \"tronbox/contracts/SmartGenie.sol\":7669:7681  users[payer] */\n      0x00\n        /* \"tronbox/contracts/SmartGenie.sol\":7675:7680  payer */\n      dup8\n        /* \"tronbox/contracts/SmartGenie.sol\":7669:7681  users[payer] */\n      0xffffffffffffffffffffffffffffffffffffffff\n      and\n      0xffffffffffffffffffffffffffffffffffffffff\n      and\n      dup2\n      mstore\n      0x20\n      add\n      swap1\n      dup2\n      mstore\n      0x20\n      add\n      0x00\n      keccak256\n        /* \"tronbox/contracts/SmartGenie.sol\":7669:7689  users[payer].isExist */\n      0x00\n      add\n      0x00\n      swap1\n      sload\n      swap1\n      0x0100\n      exp\n      swap1\n      div\n      0xff\n      and\n        /* \"tronbox/contracts/SmartGenie.sol\":7665:7710  if(!users[payer].isExist) payer = userList[1] */\n      tag_290\n      jumpi\n        /* \"tronbox/contracts/SmartGenie.sol\":7699:7707  userList */\n      0x0b\n        /* \"tronbox/contracts/SmartGenie.sol\":7699:7710  userList[1] */\n      0x00\n        /* \"tronbox/contracts/SmartGenie.sol\":7708:7709  1 */\n      0x01\n        /* \"tronbox/contracts/SmartGenie.sol\":7699:7710  userList[1] */\n      dup2\n      mstore\n      0x20\n      add\n      swap1\n      dup2\n      mstore\n      0x20\n      add\n      0x00\n      keccak256\n      0x00\n      swap1\n      sload\n      swap1\n      0x0100\n      exp\n      swap1\n      div\n      0xffffffffffffffffffffffffffffffffffffffff\n      and\n        /* \"tronbox/contracts/SmartGenie.sol\":7691:7710  payer = userList[1] */\n      swap6\n      pop\n        /* \"tronbox/contracts/SmartGenie.sol\":7665:7710  if(!users[payer].isExist) payer = userList[1] */\n    tag_290:\n        /* \"tronbox/contracts/SmartGenie.sol\":7816:7817  1 */\n      0x01\n        /* \"tronbox/contracts/SmartGenie.sol\":7781:7786  users */\n      0x0a\n        /* \"tronbox/contracts/SmartGenie.sol\":7781:7793  users[payer] */\n      0x00\n        /* \"tronbox/contracts/SmartGenie.sol\":7787:7792  payer */\n      dup9\n        /* \"tronbox/contracts/SmartGenie.sol\":7781:7793  users[payer] */\n      0xffffffffffffffffffffffffffffffffffffffff\n      and\n      0xffffffffffffffffffffffffffffffffffffffff\n      and\n      dup2\n      mstore\n      0x20\n      add\n      swap1\n      dup2\n      mstore\n      0x20\n      add\n      0x00\n      keccak256\n        /* \"tronbox/contracts/SmartGenie.sol\":7781:7805  users[payer].incomeCount */\n      0x05\n      add\n        /* \"tronbox/contracts/SmartGenie.sol\":7781:7815  users[payer].incomeCount[payLevel] */\n      0x00\n        /* \"tronbox/contracts/SmartGenie.sol\":7806:7814  payLevel */\n      dup4\n        /* \"tronbox/contracts/SmartGenie.sol\":7781:7815  users[payer].incomeCount[payLevel] */\n      dup2\n      mstore\n      0x20\n      add\n      swap1\n      dup2\n      mstore\n      0x20\n      add\n      0x00\n      keccak256\n      sload\n        /* \"tronbox/contracts/SmartGenie.sol\":7781:7817  users[payer].incomeCount[payLevel]+1 */\n      tag_291\n      swap2\n      swap1\n      tag_188\n      jump\t// in\n    tag_291:\n        /* \"tronbox/contracts/SmartGenie.sol\":7745:7750  users */\n      0x0a\n        /* \"tronbox/contracts/SmartGenie.sol\":7745:7757  users[payer] */\n      0x00\n        /* \"tronbox/contracts/SmartGenie.sol\":7751:7756  payer */\n      dup9\n        /* \"tronbox/contracts/SmartGenie.sol\":7745:7757  users[payer] */\n      0xffffffffffffffffffffffffffffffffffffffff\n      and\n      0xffffffffffffffffffffffffffffffffffffffff\n      and\n      dup2\n      mstore\n      0x20\n      add\n      swap1\n      dup2\n      mstore\n      0x20\n      add\n      0x00\n      keccak256\n        /* \"tronbox/contracts/SmartGenie.sol\":7745:7769  users[payer].incomeCount */\n      0x05\n      add\n        /* \"tronbox/contracts/SmartGenie.sol\":7745:7779  users[payer].incomeCount[payLevel] */\n      0x00\n        /* \"tronbox/contracts/SmartGenie.sol\":7770:7778  payLevel */\n      dup4\n        /* \"tronbox/contracts/SmartGenie.sol\":7745:7779  users[payer].incomeCount[payLevel] */\n      dup2\n      mstore\n      0x20\n      add\n      swap1\n      dup2\n      mstore\n      0x20\n      add\n      0x00\n      keccak256\n        /* \"tronbox/contracts/SmartGenie.sol\":7745:7817  users[payer].incomeCount[payLevel]= users[payer].incomeCount[payLevel]+1 */\n      dup2\n      swap1\n      sstore\n      pop\n        /* \"tronbox/contracts/SmartGenie.sol\":7956:7968  bool success */\n      0x00\n        /* \"tronbox/contracts/SmartGenie.sol\":7990:7995  payer */\n      dup7\n        /* \"tronbox/contracts/SmartGenie.sol\":7973:8003  (address(uint160(payer))).call */\n      0xffffffffffffffffffffffffffffffffffffffff\n      and\n        /* \"tronbox/contracts/SmartGenie.sol\":8011:8022  LEVEL_PRICE */\n      0x09\n        /* \"tronbox/contracts/SmartGenie.sol\":8011:8032  LEVEL_PRICE[payLevel] */\n      0x00\n        /* \"tronbox/contracts/SmartGenie.sol\":8023:8031  payLevel */\n      dup5\n        /* \"tronbox/contracts/SmartGenie.sol\":8011:8032  LEVEL_PRICE[payLevel] */\n      dup2\n      mstore\n      0x20\n      add\n      swap1\n      dup2\n      mstore\n      0x20\n      add\n      0x00\n      keccak256\n      sload\n        /* \"tronbox/contracts/SmartGenie.sol\":7973:8037  (address(uint160(payer))).call{value: LEVEL_PRICE[payLevel]}(\"\") */\n      mload(0x40)\n      tag_292\n      swap1\n      tag_147\n      jump\t// in\n    tag_292:\n      0x00\n      mload(0x40)\n      dup1\n      dup4\n      sub\n      dup2\n      dup6\n      dup8\n      gas\n      call\n      swap3\n      pop\n      pop\n      pop\n      returndatasize\n      dup1\n      0x00\n      dup2\n      eq\n      tag_295\n      jumpi\n      mload(0x40)\n      swap2\n      pop\n      and(add(returndatasize, 0x3f), not(0x1f))\n      dup3\n      add\n      0x40\n      mstore\n      returndatasize\n      dup3\n      mstore\n      returndatasize\n      0x00\n      0x20\n      dup5\n      add\n      returndatacopy\n      jump(tag_294)\n    tag_295:\n      0x60\n      swap2\n      pop\n    tag_294:\n      pop\n        /* \"tronbox/contracts/SmartGenie.sol\":7955:8037  (bool success,) = (address(uint160(payer))).call{value: LEVEL_PRICE[payLevel]}(\"\") */\n      pop\n      swap1\n      pop\n        /* \"tronbox/contracts/SmartGenie.sol\":8063:8070  success */\n      dup1\n        /* \"tronbox/contracts/SmartGenie.sol\":8055:8094  require(success, 'Transaction failed!') */\n      tag_296\n      jumpi\n      mload(0x40)\n      0x08c379a000000000000000000000000000000000000000000000000000000000\n      dup2\n      mstore\n      0x04\n      add\n      tag_297\n      swap1\n      tag_153\n      jump\t// in\n    tag_297:\n      mload(0x40)\n      dup1\n      swap2\n      sub\n      swap1\n      revert\n    tag_296:\n        /* \"tronbox/contracts/SmartGenie.sol\":8117:8124  success */\n      dup1\n        /* \"tronbox/contracts/SmartGenie.sol\":8113:8239  if (success) {... */\n      iszero\n      tag_298\n      jumpi\n        /* \"tronbox/contracts/SmartGenie.sol\":8182:8192  msg.sender */\n      caller\n        /* \"tronbox/contracts/SmartGenie.sol\":8153:8220  getMoneyForLevelEvent(payer, msg.sender, payLevel, block.timestamp) */\n      0xffffffffffffffffffffffffffffffffffffffff\n      and\n        /* \"tronbox/contracts/SmartGenie.sol\":8175:8180  payer */\n      dup8\n        /* \"tronbox/contracts/SmartGenie.sol\":8153:8220  getMoneyForLevelEvent(payer, msg.sender, payLevel, block.timestamp) */\n      0xffffffffffffffffffffffffffffffffffffffff\n      and\n      0xce7dc747411ac40191c5335943fcc79d8c2d8c01ca5ae83d9fed160409fa6120\n        /* \"tronbox/contracts/SmartGenie.sol\":8194:8202  payLevel */\n      dup5\n        /* \"tronbox/contracts/SmartGenie.sol\":8204:8219  block.timestamp */\n      timestamp\n        /* \"tronbox/contracts/SmartGenie.sol\":8153:8220  getMoneyForLevelEvent(payer, msg.sender, payLevel, block.timestamp) */\n      mload(0x40)\n      tag_299\n      swap3\n      swap2\n      swap1\n      tag_300\n      jump\t// in\n    tag_299:\n      mload(0x40)\n      dup1\n      swap2\n      sub\n      swap1\n      log3\n        /* \"tronbox/contracts/SmartGenie.sol\":8113:8239  if (success) {... */\n    tag_298:\n        /* \"tronbox/contracts/SmartGenie.sol\":8260:8267  success */\n      dup1\n        /* \"tronbox/contracts/SmartGenie.sol\":8256:8383  if(!success) {... */\n      tag_301\n      jumpi\n        /* \"tronbox/contracts/SmartGenie.sol\":8326:8336  msg.sender */\n      caller\n        /* \"tronbox/contracts/SmartGenie.sol\":8296:8364  lostMoneyForLevelEvent(payer, msg.sender, payLevel, block.timestamp) */\n      0xffffffffffffffffffffffffffffffffffffffff\n      and\n        /* \"tronbox/contracts/SmartGenie.sol\":8319:8324  payer */\n      dup8\n        /* \"tronbox/contracts/SmartGenie.sol\":8296:8364  lostMoneyForLevelEvent(payer, msg.sender, payLevel, block.timestamp) */\n      0xffffffffffffffffffffffffffffffffffffffff\n      and\n      0x7df0f6bac5c770af7783500bb7f1c0d073adb11316004ba6f9f6c704af1a1aea\n        /* \"tronbox/contracts/SmartGenie.sol\":8338:8346  payLevel */\n      dup5\n        /* \"tronbox/contracts/SmartGenie.sol\":8348:8363  block.timestamp */\n      timestamp\n        /* \"tronbox/contracts/SmartGenie.sol\":8296:8364  lostMoneyForLevelEvent(payer, msg.sender, payLevel, block.timestamp) */\n      mload(0x40)\n      tag_302\n      swap3\n      swap2\n      swap1\n      tag_300\n      jump\t// in\n    tag_302:\n      mload(0x40)\n      dup1\n      swap2\n      sub\n      swap1\n      log3\n        /* \"tronbox/contracts/SmartGenie.sol\":8256:8383  if(!success) {... */\n    tag_301:\n        /* \"tronbox/contracts/SmartGenie.sol\":7612:8397  {... */\n      pop\n        /* \"tronbox/contracts/SmartGenie.sol\":7116:8397  if(loop) {  ... */\n    tag_289:\n        /* \"tronbox/contracts/SmartGenie.sol\":6942:8407  if (isPayNeed || !users[payer].isExist || payer == userList[1]) {... */\n    tag_277:\n        /* \"tronbox/contracts/SmartGenie.sol\":6072:8413  { //4... */\n      pop\n      pop\n      pop\n      pop\n      pop\n      pop\n        /* \"tronbox/contracts/SmartGenie.sol\":5988:8413  function payment(uint _reglevel, address _user, uint256 length, bool loop) internal { //4... */\n      pop\n      pop\n      pop\n      pop\n      jump\t// out\n        /* \"tronbox/contracts/SmartGenie.sol\":9122:11214  function levelUpgrade(uint256 _regLevel, address _user, uint256 _levelEligibility, bool isSameLeg, bool isPayNeed ) ... */\n    tag_261:\n        /* \"tronbox/contracts/SmartGenie.sol\":9270:9277  address */\n      0x00\n        /* \"tronbox/contracts/SmartGenie.sol\":9279:9283  bool */\n      dup1\n        /* \"tronbox/contracts/SmartGenie.sol\":9285:9289  bool */\n      0x00\n        /* \"tronbox/contracts/SmartGenie.sol\":9305:9320  uint256 upLevel */\n      dup1\n        /* \"tronbox/contracts/SmartGenie.sol\":9333:9334  1 */\n      0x01\n        /* \"tronbox/contracts/SmartGenie.sol\":9323:9332  _regLevel */\n      dup10\n        /* \"tronbox/contracts/SmartGenie.sol\":9323:9334  _regLevel+1 */\n      tag_304\n      swap2\n      swap1\n      tag_188\n      jump\t// in\n    tag_304:\n        /* \"tronbox/contracts/SmartGenie.sol\":9305:9334  uint256 upLevel = _regLevel+1 */\n      swap1\n      pop\n        /* \"tronbox/contracts/SmartGenie.sol\":9348:9361  address payer */\n      0x00\n        /* \"tronbox/contracts/SmartGenie.sol\":9363:9379  address referrer */\n      dup1\n        /* \"tronbox/contracts/SmartGenie.sol\":9440:9441  2 */\n      0x02\n        /* \"tronbox/contracts/SmartGenie.sol\":9429:9436  upLevel */\n      dup4\n        /* \"tronbox/contracts/SmartGenie.sol\":9429:9441  upLevel <= 2 */\n      gt\n        /* \"tronbox/contracts/SmartGenie.sol\":9426:9545  if(upLevel <= 2) {... */\n      tag_305\n      jumpi\n        /* \"tronbox/contracts/SmartGenie.sol\":9469:9477  userList */\n      0x0b\n        /* \"tronbox/contracts/SmartGenie.sol\":9469:9502  userList[users[_user].referrerID] */\n      0x00\n        /* \"tronbox/contracts/SmartGenie.sol\":9478:9483  users */\n      0x0a\n        /* \"tronbox/contracts/SmartGenie.sol\":9478:9490  users[_user] */\n      0x00\n        /* \"tronbox/contracts/SmartGenie.sol\":9484:9489  _user */\n      dup14\n        /* \"tronbox/contracts/SmartGenie.sol\":9478:9490  users[_user] */\n      0xffffffffffffffffffffffffffffffffffffffff\n      and\n      0xffffffffffffffffffffffffffffffffffffffff\n      and\n      dup2\n      mstore\n      0x20\n      add\n      swap1\n      dup2\n      mstore\n      0x20\n      add\n      0x00\n      keccak256\n        /* \"tronbox/contracts/SmartGenie.sol\":9478:9501  users[_user].referrerID */\n      0x02\n      add\n      sload\n        /* \"tronbox/contracts/SmartGenie.sol\":9469:9502  userList[users[_user].referrerID] */\n      dup2\n      mstore\n      0x20\n      add\n      swap1\n      dup2\n      mstore\n      0x20\n      add\n      0x00\n      keccak256\n      0x00\n      swap1\n      sload\n      swap1\n      0x0100\n      exp\n      swap1\n      div\n      0xffffffffffffffffffffffffffffffffffffffff\n      and\n        /* \"tronbox/contracts/SmartGenie.sol\":9458:9502  referrer = userList[users[_user].referrerID] */\n      swap1\n      pop\n        /* \"tronbox/contracts/SmartGenie.sol\":9426:9545  if(upLevel <= 2) {... */\n      jump(tag_306)\n    tag_305:\n        /* \"tronbox/contracts/SmartGenie.sol\":9538:9543  _user */\n      dup10\n        /* \"tronbox/contracts/SmartGenie.sol\":9527:9543  referrer = _user */\n      swap1\n      pop\n        /* \"tronbox/contracts/SmartGenie.sol\":9426:9545  if(upLevel <= 2) {... */\n    tag_306:\n        /* \"tronbox/contracts/SmartGenie.sol\":9578:9635  findEligiblePayer(referrer, _regLevel, _levelEligibility) */\n      tag_307\n        /* \"tronbox/contracts/SmartGenie.sol\":9596:9604  referrer */\n      dup2\n        /* \"tronbox/contracts/SmartGenie.sol\":9606:9615  _regLevel */\n      dup13\n        /* \"tronbox/contracts/SmartGenie.sol\":9617:9634  _levelEligibility */\n      dup12\n        /* \"tronbox/contracts/SmartGenie.sol\":9578:9595  findEligiblePayer */\n      tag_308\n        /* \"tronbox/contracts/SmartGenie.sol\":9578:9635  findEligiblePayer(referrer, _regLevel, _levelEligibility) */\n      jump\t// in\n    tag_307:\n        /* \"tronbox/contracts/SmartGenie.sol\":9558:9635  (payer, referrer) = findEligiblePayer(referrer, _regLevel, _levelEligibility) */\n      dup1\n      swap3\n      pop\n      dup2\n      swap4\n      pop\n      pop\n      pop\n        /* \"tronbox/contracts/SmartGenie.sol\":9678:9683  users */\n      0x0a\n        /* \"tronbox/contracts/SmartGenie.sol\":9678:9690  users[payer] */\n      0x00\n        /* \"tronbox/contracts/SmartGenie.sol\":9684:9689  payer */\n      dup4\n        /* \"tronbox/contracts/SmartGenie.sol\":9678:9690  users[payer] */\n      0xffffffffffffffffffffffffffffffffffffffff\n      and\n      0xffffffffffffffffffffffffffffffffffffffff\n      and\n      dup2\n      mstore\n      0x20\n      add\n      swap1\n      dup2\n      mstore\n      0x20\n      add\n      0x00\n      keccak256\n        /* \"tronbox/contracts/SmartGenie.sol\":9678:9698  users[payer].isExist */\n      0x00\n      add\n      0x00\n      swap1\n      sload\n      swap1\n      0x0100\n      exp\n      swap1\n      div\n      0xff\n      and\n        /* \"tronbox/contracts/SmartGenie.sol\":9677:9698  !users[payer].isExist */\n      iszero\n        /* \"tronbox/contracts/SmartGenie.sol\":9677:9847  !users[payer].isExist || ... */\n      dup1\n      tag_309\n      jumpi\n      pop\n        /* \"tronbox/contracts/SmartGenie.sol\":9768:9769  0 */\n      0x00\n        /* \"tronbox/contracts/SmartGenie.sol\":9720:9770  levelUpgradePayments[upLevel][payer] == address(0) */\n      0xffffffffffffffffffffffffffffffffffffffff\n      and\n        /* \"tronbox/contracts/SmartGenie.sol\":9720:9740  levelUpgradePayments */\n      0x0d\n        /* \"tronbox/contracts/SmartGenie.sol\":9720:9749  levelUpgradePayments[upLevel] */\n      0x00\n        /* \"tronbox/contracts/SmartGenie.sol\":9741:9748  upLevel */\n      dup6\n        /* \"tronbox/contracts/SmartGenie.sol\":9720:9749  levelUpgradePayments[upLevel] */\n      dup2\n      mstore\n      0x20\n      add\n      swap1\n      dup2\n      mstore\n      0x20\n      add\n      0x00\n      keccak256\n        /* \"tronbox/contracts/SmartGenie.sol\":9720:9756  levelUpgradePayments[upLevel][payer] */\n      0x00\n        /* \"tronbox/contracts/SmartGenie.sol\":9750:9755  payer */\n      dup5\n        /* \"tronbox/contracts/SmartGenie.sol\":9720:9756  levelUpgradePayments[upLevel][payer] */\n      0xffffffffffffffffffffffffffffffffffffffff\n      and\n      0xffffffffffffffffffffffffffffffffffffffff\n      and\n      dup2\n      mstore\n      0x20\n      add\n      swap1\n      dup2\n      mstore\n      0x20\n      add\n      0x00\n      keccak256\n      0x00\n      swap1\n      sload\n      swap1\n      0x0100\n      exp\n      swap1\n      div\n      0xffffffffffffffffffffffffffffffffffffffff\n      and\n        /* \"tronbox/contracts/SmartGenie.sol\":9720:9770  levelUpgradePayments[upLevel][payer] == address(0) */\n      0xffffffffffffffffffffffffffffffffffffffff\n      and\n      eq\n        /* \"tronbox/contracts/SmartGenie.sol\":9720:9846  levelUpgradePayments[upLevel][payer] == address(0) && ... */\n      dup1\n      iszero\n      tag_310\n      jumpi\n      pop\n        /* \"tronbox/contracts/SmartGenie.sol\":9841:9846  false */\n      0x00\n        /* \"tronbox/contracts/SmartGenie.sol\":9795:9846  isLevelUpgradedForAddress[upLevel][payer] ==  false */\n      iszero\n      iszero\n        /* \"tronbox/contracts/SmartGenie.sol\":9795:9820  isLevelUpgradedForAddress */\n      0x0e\n        /* \"tronbox/contracts/SmartGenie.sol\":9795:9829  isLevelUpgradedForAddress[upLevel] */\n      0x00\n        /* \"tronbox/contracts/SmartGenie.sol\":9821:9828  upLevel */\n      dup6\n        /* \"tronbox/contracts/SmartGenie.sol\":9795:9829  isLevelUpgradedForAddress[upLevel] */\n      dup2\n      mstore\n      0x20\n      add\n      swap1\n      dup2\n      mstore\n      0x20\n      add\n      0x00\n      keccak256\n        /* \"tronbox/contracts/SmartGenie.sol\":9795:9836  isLevelUpgradedForAddress[upLevel][payer] */\n      0x00\n        /* \"tronbox/contracts/SmartGenie.sol\":9830:9835  payer */\n      dup5\n        /* \"tronbox/contracts/SmartGenie.sol\":9795:9836  isLevelUpgradedForAddress[upLevel][payer] */\n      0xffffffffffffffffffffffffffffffffffffffff\n      and\n      0xffffffffffffffffffffffffffffffffffffffff\n      and\n      dup2\n      mstore\n      0x20\n      add\n      swap1\n      dup2\n      mstore\n      0x20\n      add\n      0x00\n      keccak256\n      0x00\n      swap1\n      sload\n      swap1\n      0x0100\n      exp\n      swap1\n      div\n      0xff\n      and\n        /* \"tronbox/contracts/SmartGenie.sol\":9795:9846  isLevelUpgradedForAddress[upLevel][payer] ==  false */\n      iszero\n      iszero\n      eq\n        /* \"tronbox/contracts/SmartGenie.sol\":9720:9846  levelUpgradePayments[upLevel][payer] == address(0) && ... */\n    tag_310:\n        /* \"tronbox/contracts/SmartGenie.sol\":9677:9847  !users[payer].isExist || ... */\n    tag_309:\n        /* \"tronbox/contracts/SmartGenie.sol\":9674:11094  if(!users[payer].isExist || ... */\n      iszero\n      tag_311\n      jumpi\n        /* \"tronbox/contracts/SmartGenie.sol\":9871:9876  users */\n      0x0a\n        /* \"tronbox/contracts/SmartGenie.sol\":9871:9883  users[payer] */\n      0x00\n        /* \"tronbox/contracts/SmartGenie.sol\":9877:9882  payer */\n      dup4\n        /* \"tronbox/contracts/SmartGenie.sol\":9871:9883  users[payer] */\n      0xffffffffffffffffffffffffffffffffffffffff\n      and\n      0xffffffffffffffffffffffffffffffffffffffff\n      and\n      dup2\n      mstore\n      0x20\n      add\n      swap1\n      dup2\n      mstore\n      0x20\n      add\n      0x00\n      keccak256\n        /* \"tronbox/contracts/SmartGenie.sol\":9871:9891  users[payer].isExist */\n      0x00\n      add\n      0x00\n      swap1\n      sload\n      swap1\n      0x0100\n      exp\n      swap1\n      div\n      0xff\n      and\n        /* \"tronbox/contracts/SmartGenie.sol\":9867:9912  if(!users[payer].isExist) payer = userList[1] */\n      tag_312\n      jumpi\n        /* \"tronbox/contracts/SmartGenie.sol\":9901:9909  userList */\n      0x0b\n        /* \"tronbox/contracts/SmartGenie.sol\":9901:9912  userList[1] */\n      0x00\n        /* \"tronbox/contracts/SmartGenie.sol\":9910:9911  1 */\n      0x01\n        /* \"tronbox/contracts/SmartGenie.sol\":9901:9912  userList[1] */\n      dup2\n      mstore\n      0x20\n      add\n      swap1\n      dup2\n      mstore\n      0x20\n      add\n      0x00\n      keccak256\n      0x00\n      swap1\n      sload\n      swap1\n      0x0100\n      exp\n      swap1\n      div\n      0xffffffffffffffffffffffffffffffffffffffff\n      and\n        /* \"tronbox/contracts/SmartGenie.sol\":9893:9912  payer = userList[1] */\n      swap2\n      pop\n        /* \"tronbox/contracts/SmartGenie.sol\":9867:9912  if(!users[payer].isExist) payer = userList[1] */\n    tag_312:\n        /* \"tronbox/contracts/SmartGenie.sol\":10075:10083  userList */\n      0x0b\n        /* \"tronbox/contracts/SmartGenie.sol\":10075:10086  userList[1] */\n      0x00\n        /* \"tronbox/contracts/SmartGenie.sol\":10084:10085  1 */\n      0x01\n        /* \"tronbox/contracts/SmartGenie.sol\":10075:10086  userList[1] */\n      dup2\n      mstore\n      0x20\n      add\n      swap1\n      dup2\n      mstore\n      0x20\n      add\n      0x00\n      keccak256\n      0x00\n      swap1\n      sload\n      swap1\n      0x0100\n      exp\n      swap1\n      div\n      0xffffffffffffffffffffffffffffffffffffffff\n      and\n        /* \"tronbox/contracts/SmartGenie.sol\":10066:10086  payer != userList[1] */\n      0xffffffffffffffffffffffffffffffffffffffff\n      and\n        /* \"tronbox/contracts/SmartGenie.sol\":10066:10071  payer */\n      dup3\n        /* \"tronbox/contracts/SmartGenie.sol\":10066:10086  payer != userList[1] */\n      0xffffffffffffffffffffffffffffffffffffffff\n      and\n      eq\n        /* \"tronbox/contracts/SmartGenie.sol\":10063:10239  if(payer != userList[1]) {... */\n      tag_313\n      jumpi\n        /* \"tronbox/contracts/SmartGenie.sol\":10180:10181  1 */\n      0x01\n        /* \"tronbox/contracts/SmartGenie.sol\":10146:10151  users */\n      0x0a\n        /* \"tronbox/contracts/SmartGenie.sol\":10146:10158  users[payer] */\n      0x00\n        /* \"tronbox/contracts/SmartGenie.sol\":10152:10157  payer */\n      dup5\n        /* \"tronbox/contracts/SmartGenie.sol\":10146:10158  users[payer] */\n      0xffffffffffffffffffffffffffffffffffffffff\n      and\n      0xffffffffffffffffffffffffffffffffffffffff\n      and\n      dup2\n      mstore\n      0x20\n      add\n      swap1\n      dup2\n      mstore\n      0x20\n      add\n      0x00\n      keccak256\n        /* \"tronbox/contracts/SmartGenie.sol\":10146:10170  users[payer].incomeCount */\n      0x05\n      add\n        /* \"tronbox/contracts/SmartGenie.sol\":10146:10179  users[payer].incomeCount[upLevel] */\n      0x00\n        /* \"tronbox/contracts/SmartGenie.sol\":10171:10178  upLevel */\n      dup6\n        /* \"tronbox/contracts/SmartGenie.sol\":10146:10179  users[payer].incomeCount[upLevel] */\n      dup2\n      mstore\n      0x20\n      add\n      swap1\n      dup2\n      mstore\n      0x20\n      add\n      0x00\n      keccak256\n      sload\n        /* \"tronbox/contracts/SmartGenie.sol\":10146:10181  users[payer].incomeCount[upLevel]+1 */\n      tag_314\n      swap2\n      swap1\n      tag_188\n      jump\t// in\n    tag_314:\n        /* \"tronbox/contracts/SmartGenie.sol\":10110:10115  users */\n      0x0a\n        /* \"tronbox/contracts/SmartGenie.sol\":10110:10122  users[payer] */\n      0x00\n        /* \"tronbox/contracts/SmartGenie.sol\":10116:10121  payer */\n      dup5\n        /* \"tronbox/contracts/SmartGenie.sol\":10110:10122  users[payer] */\n      0xffffffffffffffffffffffffffffffffffffffff\n      and\n      0xffffffffffffffffffffffffffffffffffffffff\n      and\n      dup2\n      mstore\n      0x20\n      add\n      swap1\n      dup2\n      mstore\n      0x20\n      add\n      0x00\n      keccak256\n        /* \"tronbox/contracts/SmartGenie.sol\":10110:10134  users[payer].incomeCount */\n      0x05\n      add\n        /* \"tronbox/contracts/SmartGenie.sol\":10110:10143  users[payer].incomeCount[upLevel] */\n      0x00\n        /* \"tronbox/contracts/SmartGenie.sol\":10135:10142  upLevel */\n      dup6\n        /* \"tronbox/contracts/SmartGenie.sol\":10110:10143  users[payer].incomeCount[upLevel] */\n      dup2\n      mstore\n      0x20\n      add\n      swap1\n      dup2\n      mstore\n      0x20\n      add\n      0x00\n      keccak256\n        /* \"tronbox/contracts/SmartGenie.sol\":10110:10181  users[payer].incomeCount[upLevel] = users[payer].incomeCount[upLevel]+1 */\n      dup2\n      swap1\n      sstore\n      pop\n        /* \"tronbox/contracts/SmartGenie.sol\":10215:10220  false */\n      0x00\n        /* \"tronbox/contracts/SmartGenie.sol\":10203:10220  isPayNeed = false */\n      swap7\n      pop\n        /* \"tronbox/contracts/SmartGenie.sol\":10063:10239  if(payer != userList[1]) {... */\n    tag_313:\n        /* \"tronbox/contracts/SmartGenie.sol\":10375:10383  referrer */\n      dup1\n        /* \"tronbox/contracts/SmartGenie.sol\":10336:10356  levelUpgradePayments */\n      0x0d\n        /* \"tronbox/contracts/SmartGenie.sol\":10336:10365  levelUpgradePayments[upLevel] */\n      0x00\n        /* \"tronbox/contracts/SmartGenie.sol\":10357:10364  upLevel */\n      dup6\n        /* \"tronbox/contracts/SmartGenie.sol\":10336:10365  levelUpgradePayments[upLevel] */\n      dup2\n      mstore\n      0x20\n      add\n      swap1\n      dup2\n      mstore\n      0x20\n      add\n      0x00\n      keccak256\n        /* \"tronbox/contracts/SmartGenie.sol\":10336:10372  levelUpgradePayments[upLevel][payer] */\n      0x00\n        /* \"tronbox/contracts/SmartGenie.sol\":10366:10371  payer */\n      dup5\n        /* \"tronbox/contracts/SmartGenie.sol\":10336:10372  levelUpgradePayments[upLevel][payer] */\n      0xffffffffffffffffffffffffffffffffffffffff\n      and\n      0xffffffffffffffffffffffffffffffffffffffff\n      and\n      dup2\n      mstore\n      0x20\n      add\n      swap1\n      dup2\n      mstore\n      0x20\n      add\n      0x00\n      keccak256\n      0x00\n        /* \"tronbox/contracts/SmartGenie.sol\":10336:10383  levelUpgradePayments[upLevel][payer] = referrer */\n      0x0100\n      exp\n      dup2\n      sload\n      dup2\n      0xffffffffffffffffffffffffffffffffffffffff\n      mul\n      not\n      and\n      swap1\n      dup4\n      0xffffffffffffffffffffffffffffffffffffffff\n      and\n      mul\n      or\n      swap1\n      sstore\n      pop\n        /* \"tronbox/contracts/SmartGenie.sol\":10512:10513  1 */\n      0x01\n        /* \"tronbox/contracts/SmartGenie.sol\":10481:10493  levelCounter */\n      0x0c\n        /* \"tronbox/contracts/SmartGenie.sol\":10481:10502  levelCounter[upLevel] */\n      0x00\n        /* \"tronbox/contracts/SmartGenie.sol\":10494:10501  upLevel */\n      dup6\n        /* \"tronbox/contracts/SmartGenie.sol\":10481:10502  levelCounter[upLevel] */\n      dup2\n      mstore\n      0x20\n      add\n      swap1\n      dup2\n      mstore\n      0x20\n      add\n      0x00\n      keccak256\n        /* \"tronbox/contracts/SmartGenie.sol\":10481:10509  levelCounter[upLevel][payer] */\n      0x00\n        /* \"tronbox/contracts/SmartGenie.sol\":10503:10508  payer */\n      dup5\n        /* \"tronbox/contracts/SmartGenie.sol\":10481:10509  levelCounter[upLevel][payer] */\n      0xffffffffffffffffffffffffffffffffffffffff\n      and\n      0xffffffffffffffffffffffffffffffffffffffff\n      and\n      dup2\n      mstore\n      0x20\n      add\n      swap1\n      dup2\n      mstore\n      0x20\n      add\n      0x00\n      keccak256\n        /* \"tronbox/contracts/SmartGenie.sol\":10481:10513  levelCounter[upLevel][payer] = 1 */\n      dup2\n      swap1\n      sstore\n      pop\n        /* \"tronbox/contracts/SmartGenie.sol\":9674:11094  if(!users[payer].isExist || ... */\n      jump(tag_315)\n    tag_311:\n        /* \"tronbox/contracts/SmartGenie.sol\":10552:10576  address existingReferrer */\n      0x00\n        /* \"tronbox/contracts/SmartGenie.sol\":10579:10599  levelUpgradePayments */\n      0x0d\n        /* \"tronbox/contracts/SmartGenie.sol\":10579:10608  levelUpgradePayments[upLevel] */\n      0x00\n        /* \"tronbox/contracts/SmartGenie.sol\":10600:10607  upLevel */\n      dup6\n        /* \"tronbox/contracts/SmartGenie.sol\":10579:10608  levelUpgradePayments[upLevel] */\n      dup2\n      mstore\n      0x20\n      add\n      swap1\n      dup2\n      mstore\n      0x20\n      add\n      0x00\n      keccak256\n        /* \"tronbox/contracts/SmartGenie.sol\":10579:10615  levelUpgradePayments[upLevel][payer] */\n      0x00\n        /* \"tronbox/contracts/SmartGenie.sol\":10609:10614  payer */\n      dup5\n        /* \"tronbox/contracts/SmartGenie.sol\":10579:10615  levelUpgradePayments[upLevel][payer] */\n      0xffffffffffffffffffffffffffffffffffffffff\n      and\n      0xffffffffffffffffffffffffffffffffffffffff\n      and\n      dup2\n      mstore\n      0x20\n      add\n      swap1\n      dup2\n      mstore\n      0x20\n      add\n      0x00\n      keccak256\n      0x00\n      swap1\n      sload\n      swap1\n      0x0100\n      exp\n      swap1\n      div\n      0xffffffffffffffffffffffffffffffffffffffff\n      and\n        /* \"tronbox/contracts/SmartGenie.sol\":10552:10615  address existingReferrer = levelUpgradePayments[upLevel][payer] */\n      swap1\n      pop\n        /* \"tronbox/contracts/SmartGenie.sol\":10637:10697  isLevelUpgradeFromSameLeg(payer, existingReferrer, referrer) */\n      tag_316\n        /* \"tronbox/contracts/SmartGenie.sol\":10663:10668  payer */\n      dup4\n        /* \"tronbox/contracts/SmartGenie.sol\":10670:10686  existingReferrer */\n      dup3\n        /* \"tronbox/contracts/SmartGenie.sol\":10688:10696  referrer */\n      dup5\n        /* \"tronbox/contracts/SmartGenie.sol\":10637:10662  isLevelUpgradeFromSameLeg */\n      tag_317\n        /* \"tronbox/contracts/SmartGenie.sol\":10637:10697  isLevelUpgradeFromSameLeg(payer, existingReferrer, referrer) */\n      jump\t// in\n    tag_316:\n        /* \"tronbox/contracts/SmartGenie.sol\":10633:11080  if (isLevelUpgradeFromSameLeg(payer, existingReferrer, referrer)) {... */\n      iszero\n      tag_318\n      jumpi\n        /* \"tronbox/contracts/SmartGenie.sol\":10733:10737  true */\n      0x01\n        /* \"tronbox/contracts/SmartGenie.sol\":10721:10737  isSameLeg = true */\n      swap9\n      pop\n        /* \"tronbox/contracts/SmartGenie.sol\":10633:11080  if (isLevelUpgradeFromSameLeg(payer, existingReferrer, referrer)) {... */\n      jump(tag_319)\n    tag_318:\n        /* \"tronbox/contracts/SmartGenie.sol\":10904:10905  0 */\n      0x00\n        /* \"tronbox/contracts/SmartGenie.sol\":10857:10877  levelUpgradePayments */\n      0x0d\n        /* \"tronbox/contracts/SmartGenie.sol\":10857:10886  levelUpgradePayments[upLevel] */\n      0x00\n        /* \"tronbox/contracts/SmartGenie.sol\":10878:10885  upLevel */\n      dup7\n        /* \"tronbox/contracts/SmartGenie.sol\":10857:10886  levelUpgradePayments[upLevel] */\n      dup2\n      mstore\n      0x20\n      add\n      swap1\n      dup2\n      mstore\n      0x20\n      add\n      0x00\n      keccak256\n        /* \"tronbox/contracts/SmartGenie.sol\":10857:10893  levelUpgradePayments[upLevel][payer] */\n      0x00\n        /* \"tronbox/contracts/SmartGenie.sol\":10887:10892  payer */\n      dup6\n        /* \"tronbox/contracts/SmartGenie.sol\":10857:10893  levelUpgradePayments[upLevel][payer] */\n      0xffffffffffffffffffffffffffffffffffffffff\n      and\n      0xffffffffffffffffffffffffffffffffffffffff\n      and\n      dup2\n      mstore\n      0x20\n      add\n      swap1\n      dup2\n      mstore\n      0x20\n      add\n      0x00\n      keccak256\n      0x00\n        /* \"tronbox/contracts/SmartGenie.sol\":10857:10906  levelUpgradePayments[upLevel][payer] = address(0) */\n      0x0100\n      exp\n      dup2\n      sload\n      dup2\n      0xffffffffffffffffffffffffffffffffffffffff\n      mul\n      not\n      and\n      swap1\n      dup4\n      0xffffffffffffffffffffffffffffffffffffffff\n      and\n      mul\n      or\n      swap1\n      sstore\n      pop\n        /* \"tronbox/contracts/SmartGenie.sol\":10972:10976  true */\n      0x01\n        /* \"tronbox/contracts/SmartGenie.sol\":10928:10953  isLevelUpgradedForAddress */\n      0x0e\n        /* \"tronbox/contracts/SmartGenie.sol\":10928:10962  isLevelUpgradedForAddress[upLevel] */\n      0x00\n        /* \"tronbox/contracts/SmartGenie.sol\":10954:10961  upLevel */\n      dup7\n        /* \"tronbox/contracts/SmartGenie.sol\":10928:10962  isLevelUpgradedForAddress[upLevel] */\n      dup2\n      mstore\n      0x20\n      add\n      swap1\n      dup2\n      mstore\n      0x20\n      add\n      0x00\n      keccak256\n        /* \"tronbox/contracts/SmartGenie.sol\":10928:10969  isLevelUpgradedForAddress[upLevel][payer] */\n      0x00\n        /* \"tronbox/contracts/SmartGenie.sol\":10963:10968  payer */\n      dup6\n        /* \"tronbox/contracts/SmartGenie.sol\":10928:10969  isLevelUpgradedForAddress[upLevel][payer] */\n      0xffffffffffffffffffffffffffffffffffffffff\n      and\n      0xffffffffffffffffffffffffffffffffffffffff\n      and\n      dup2\n      mstore\n      0x20\n      add\n      swap1\n      dup2\n      mstore\n      0x20\n      add\n      0x00\n      keccak256\n      0x00\n        /* \"tronbox/contracts/SmartGenie.sol\":10928:10976  isLevelUpgradedForAddress[upLevel][payer] = true */\n      0x0100\n      exp\n      dup2\n      sload\n      dup2\n      0xff\n      mul\n      not\n      and\n      swap1\n      dup4\n      iszero\n      iszero\n      mul\n      or\n      swap1\n      sstore\n      pop\n        /* \"tronbox/contracts/SmartGenie.sol\":11060:11061  1 */\n      0x01\n        /* \"tronbox/contracts/SmartGenie.sol\":11029:11041  levelCounter */\n      0x0c\n        /* \"tronbox/contracts/SmartGenie.sol\":11029:11050  levelCounter[upLevel] */\n      0x00\n        /* \"tronbox/contracts/SmartGenie.sol\":11042:11049  upLevel */\n      dup7\n        /* \"tronbox/contracts/SmartGenie.sol\":11029:11050  levelCounter[upLevel] */\n      dup2\n      mstore\n      0x20\n      add\n      swap1\n      dup2\n      mstore\n      0x20\n      add\n      0x00\n      keccak256\n        /* \"tronbox/contracts/SmartGenie.sol\":11029:11057  levelCounter[upLevel][payer] */\n      0x00\n        /* \"tronbox/contracts/SmartGenie.sol\":11051:11056  payer */\n      dup6\n        /* \"tronbox/contracts/SmartGenie.sol\":11029:11057  levelCounter[upLevel][payer] */\n      0xffffffffffffffffffffffffffffffffffffffff\n      and\n      0xffffffffffffffffffffffffffffffffffffffff\n      and\n      dup2\n      mstore\n      0x20\n      add\n      swap1\n      dup2\n      mstore\n      0x20\n      add\n      0x00\n      keccak256\n      sload\n        /* \"tronbox/contracts/SmartGenie.sol\":11029:11061  levelCounter[upLevel][payer] + 1 */\n      tag_320\n      swap2\n      swap1\n      tag_188\n      jump\t// in\n    tag_320:\n        /* \"tronbox/contracts/SmartGenie.sol\":10998:11010  levelCounter */\n      0x0c\n        /* \"tronbox/contracts/SmartGenie.sol\":10998:11019  levelCounter[upLevel] */\n      0x00\n        /* \"tronbox/contracts/SmartGenie.sol\":11011:11018  upLevel */\n      dup7\n        /* \"tronbox/contracts/SmartGenie.sol\":10998:11019  levelCounter[upLevel] */\n      dup2\n      mstore\n      0x20\n      add\n      swap1\n      dup2\n      mstore\n      0x20\n      add\n      0x00\n      keccak256\n        /* \"tronbox/contracts/SmartGenie.sol\":10998:11026  levelCounter[upLevel][payer] */\n      0x00\n        /* \"tronbox/contracts/SmartGenie.sol\":11020:11025  payer */\n      dup6\n        /* \"tronbox/contracts/SmartGenie.sol\":10998:11026  levelCounter[upLevel][payer] */\n      0xffffffffffffffffffffffffffffffffffffffff\n      and\n      0xffffffffffffffffffffffffffffffffffffffff\n      and\n      dup2\n      mstore\n      0x20\n      add\n      swap1\n      dup2\n      mstore\n      0x20\n      add\n      0x00\n      keccak256\n        /* \"tronbox/contracts/SmartGenie.sol\":10998:11061  levelCounter[upLevel][payer] = levelCounter[upLevel][payer] + 1 */\n      dup2\n      swap1\n      sstore\n      pop\n        /* \"tronbox/contracts/SmartGenie.sol\":10633:11080  if (isLevelUpgradeFromSameLeg(payer, existingReferrer, referrer)) {... */\n    tag_319:\n        /* \"tronbox/contracts/SmartGenie.sol\":10534:11094  {... */\n      pop\n        /* \"tronbox/contracts/SmartGenie.sol\":9674:11094  if(!users[payer].isExist || ... */\n    tag_315:\n        /* \"tronbox/contracts/SmartGenie.sol\":11114:11119  users */\n      0x0a\n        /* \"tronbox/contracts/SmartGenie.sol\":11114:11129  users[referrer] */\n      0x00\n        /* \"tronbox/contracts/SmartGenie.sol\":11120:11128  referrer */\n      dup3\n        /* \"tronbox/contracts/SmartGenie.sol\":11114:11129  users[referrer] */\n      0xffffffffffffffffffffffffffffffffffffffff\n      and\n      0xffffffffffffffffffffffffffffffffffffffff\n      and\n      dup2\n      mstore\n      0x20\n      add\n      swap1\n      dup2\n      mstore\n      0x20\n      add\n      0x00\n      keccak256\n        /* \"tronbox/contracts/SmartGenie.sol\":11114:11146  users[referrer].levelEligibility */\n      0x06\n      add\n        /* \"tronbox/contracts/SmartGenie.sol\":11152:11159  upLevel */\n      dup4\n        /* \"tronbox/contracts/SmartGenie.sol\":11114:11160  users[referrer].levelEligibility.push(upLevel) */\n      swap1\n      dup1\n      0x01\n      dup2\n      sload\n      add\n      dup1\n      dup3\n      sstore\n      dup1\n      swap2\n      pop\n      pop\n      0x01\n      swap1\n      sub\n      swap1\n      0x00\n      mstore\n      keccak256(0x00, 0x20)\n      add\n      0x00\n      swap1\n      swap2\n      swap1\n      swap2\n      swap1\n      swap2\n      pop\n      sstore\n        /* \"tronbox/contracts/SmartGenie.sol\":11179:11184  payer */\n      dup2\n        /* \"tronbox/contracts/SmartGenie.sol\":11186:11195  isPayNeed */\n      dup8\n        /* \"tronbox/contracts/SmartGenie.sol\":11197:11206  isSameLeg */\n      dup10\n        /* \"tronbox/contracts/SmartGenie.sol\":11171:11207  return (payer, isPayNeed, isSameLeg) */\n      swap6\n      pop\n      swap6\n      pop\n      swap6\n      pop\n      pop\n      pop\n      pop\n        /* \"tronbox/contracts/SmartGenie.sol\":9122:11214  function levelUpgrade(uint256 _regLevel, address _user, uint256 _levelEligibility, bool isSameLeg, bool isPayNeed ) ... */\n      swap6\n      pop\n      swap6\n      pop\n      swap6\n      swap3\n      pop\n      pop\n      pop\n      jump\t// out\n        /* \"tronbox/contracts/SmartGenie.sol\":16262:16816  function levelRenewal(bool _loop, address _user, uint256 _regLevel)internal returns(address, bool) {... */\n    tag_273:\n        /* \"tronbox/contracts/SmartGenie.sol\":16346:16353  address */\n      0x00\n        /* \"tronbox/contracts/SmartGenie.sol\":16355:16359  bool */\n      dup1\n        /* \"tronbox/contracts/SmartGenie.sol\":16371:16386  bool _isRenewal */\n      0x00\n        /* \"tronbox/contracts/SmartGenie.sol\":16389:16393  true */\n      0x01\n        /* \"tronbox/contracts/SmartGenie.sol\":16371:16393  bool _isRenewal = true */\n      swap1\n      pop\n        /* \"tronbox/contracts/SmartGenie.sol\":16403:16419  address referrer */\n      0x00\n        /* \"tronbox/contracts/SmartGenie.sol\":16421:16434  address payer */\n      dup1\n        /* \"tronbox/contracts/SmartGenie.sol\":16449:16454  _loop */\n      dup8\n        /* \"tronbox/contracts/SmartGenie.sol\":16445:16554  if(!_loop) {... */\n      tag_323\n      jumpi\n        /* \"tronbox/contracts/SmartGenie.sol\":16482:16490  userList */\n      0x0b\n        /* \"tronbox/contracts/SmartGenie.sol\":16482:16515  userList[users[_user].referrerID] */\n      0x00\n        /* \"tronbox/contracts/SmartGenie.sol\":16491:16496  users */\n      0x0a\n        /* \"tronbox/contracts/SmartGenie.sol\":16491:16503  users[_user] */\n      0x00\n        /* \"tronbox/contracts/SmartGenie.sol\":16497:16502  _user */\n      dup11\n        /* \"tronbox/contracts/SmartGenie.sol\":16491:16503  users[_user] */\n      0xffffffffffffffffffffffffffffffffffffffff\n      and\n      0xffffffffffffffffffffffffffffffffffffffff\n      and\n      dup2\n      mstore\n      0x20\n      add\n      swap1\n      dup2\n      mstore\n      0x20\n      add\n      0x00\n      keccak256\n        /* \"tronbox/contracts/SmartGenie.sol\":16491:16514  users[_user].referrerID */\n      0x02\n      add\n      sload\n        /* \"tronbox/contracts/SmartGenie.sol\":16482:16515  userList[users[_user].referrerID] */\n      dup2\n      mstore\n      0x20\n      add\n      swap1\n      dup2\n      mstore\n      0x20\n      add\n      0x00\n      keccak256\n      0x00\n      swap1\n      sload\n      swap1\n      0x0100\n      exp\n      swap1\n      div\n      0xffffffffffffffffffffffffffffffffffffffff\n      and\n        /* \"tronbox/contracts/SmartGenie.sol\":16471:16515  referrer = userList[users[_user].referrerID] */\n      swap2\n      pop\n        /* \"tronbox/contracts/SmartGenie.sol\":16445:16554  if(!_loop) {... */\n      jump(tag_324)\n    tag_323:\n        /* \"tronbox/contracts/SmartGenie.sol\":16546:16551  _user */\n      dup7\n        /* \"tronbox/contracts/SmartGenie.sol\":16535:16551  referrer = _user */\n      swap2\n      pop\n        /* \"tronbox/contracts/SmartGenie.sol\":16445:16554  if(!_loop) {... */\n    tag_324:\n        /* \"tronbox/contracts/SmartGenie.sol\":16652:16653  1 */\n      0x01\n        /* \"tronbox/contracts/SmartGenie.sol\":16613:16618  users */\n      0x0a\n        /* \"tronbox/contracts/SmartGenie.sol\":16613:16628  users[referrer] */\n      0x00\n        /* \"tronbox/contracts/SmartGenie.sol\":16619:16627  referrer */\n      dup5\n        /* \"tronbox/contracts/SmartGenie.sol\":16613:16628  users[referrer] */\n      0xffffffffffffffffffffffffffffffffffffffff\n      and\n      0xffffffffffffffffffffffffffffffffffffffff\n      and\n      dup2\n      mstore\n      0x20\n      add\n      swap1\n      dup2\n      mstore\n      0x20\n      add\n      0x00\n      keccak256\n        /* \"tronbox/contracts/SmartGenie.sol\":16613:16640  users[referrer].incomeCount */\n      0x05\n      add\n        /* \"tronbox/contracts/SmartGenie.sol\":16613:16651  users[referrer].incomeCount[_regLevel] */\n      0x00\n        /* \"tronbox/contracts/SmartGenie.sol\":16641:16650  _regLevel */\n      dup9\n        /* \"tronbox/contracts/SmartGenie.sol\":16613:16651  users[referrer].incomeCount[_regLevel] */\n      dup2\n      mstore\n      0x20\n      add\n      swap1\n      dup2\n      mstore\n      0x20\n      add\n      0x00\n      keccak256\n      sload\n        /* \"tronbox/contracts/SmartGenie.sol\":16613:16653  users[referrer].incomeCount[_regLevel]+1 */\n      tag_325\n      swap2\n      swap1\n      tag_188\n      jump\t// in\n    tag_325:\n        /* \"tronbox/contracts/SmartGenie.sol\":16572:16577  users */\n      0x0a\n        /* \"tronbox/contracts/SmartGenie.sol\":16572:16587  users[referrer] */\n      0x00\n        /* \"tronbox/contracts/SmartGenie.sol\":16578:16586  referrer */\n      dup5\n        /* \"tronbox/contracts/SmartGenie.sol\":16572:16587  users[referrer] */\n      0xffffffffffffffffffffffffffffffffffffffff\n      and\n      0xffffffffffffffffffffffffffffffffffffffff\n      and\n      dup2\n      mstore\n      0x20\n      add\n      swap1\n      dup2\n      mstore\n      0x20\n      add\n      0x00\n      keccak256\n        /* \"tronbox/contracts/SmartGenie.sol\":16572:16599  users[referrer].incomeCount */\n      0x05\n      add\n        /* \"tronbox/contracts/SmartGenie.sol\":16572:16610  users[referrer].incomeCount[_regLevel] */\n      0x00\n        /* \"tronbox/contracts/SmartGenie.sol\":16600:16609  _regLevel */\n      dup9\n        /* \"tronbox/contracts/SmartGenie.sol\":16572:16610  users[referrer].incomeCount[_regLevel] */\n      dup2\n      mstore\n      0x20\n      add\n      swap1\n      dup2\n      mstore\n      0x20\n      add\n      0x00\n      keccak256\n        /* \"tronbox/contracts/SmartGenie.sol\":16572:16653  users[referrer].incomeCount[_regLevel] = users[referrer].incomeCount[_regLevel]+1 */\n      dup2\n      swap1\n      sstore\n      pop\n        /* \"tronbox/contracts/SmartGenie.sol\":16672:16680  userList */\n      0x0b\n        /* \"tronbox/contracts/SmartGenie.sol\":16672:16708  userList[users[referrer].referrerID] */\n      0x00\n        /* \"tronbox/contracts/SmartGenie.sol\":16681:16686  users */\n      0x0a\n        /* \"tronbox/contracts/SmartGenie.sol\":16681:16696  users[referrer] */\n      0x00\n        /* \"tronbox/contracts/SmartGenie.sol\":16687:16695  referrer */\n      dup6\n        /* \"tronbox/contracts/SmartGenie.sol\":16681:16696  users[referrer] */\n      0xffffffffffffffffffffffffffffffffffffffff\n      and\n      0xffffffffffffffffffffffffffffffffffffffff\n      and\n      dup2\n      mstore\n      0x20\n      add\n      swap1\n      dup2\n      mstore\n      0x20\n      add\n      0x00\n      keccak256\n        /* \"tronbox/contracts/SmartGenie.sol\":16681:16707  users[referrer].referrerID */\n      0x02\n      add\n      sload\n        /* \"tronbox/contracts/SmartGenie.sol\":16672:16708  userList[users[referrer].referrerID] */\n      dup2\n      mstore\n      0x20\n      add\n      swap1\n      dup2\n      mstore\n      0x20\n      add\n      0x00\n      keccak256\n      0x00\n      swap1\n      sload\n      swap1\n      0x0100\n      exp\n      swap1\n      div\n      0xffffffffffffffffffffffffffffffffffffffff\n      and\n        /* \"tronbox/contracts/SmartGenie.sol\":16664:16708  payer = userList[users[referrer].referrerID] */\n      swap1\n      pop\n        /* \"tronbox/contracts/SmartGenie.sol\":16723:16728  users */\n      0x0a\n        /* \"tronbox/contracts/SmartGenie.sol\":16723:16735  users[payer] */\n      0x00\n        /* \"tronbox/contracts/SmartGenie.sol\":16729:16734  payer */\n      dup3\n        /* \"tronbox/contracts/SmartGenie.sol\":16723:16735  users[payer] */\n      0xffffffffffffffffffffffffffffffffffffffff\n      and\n      0xffffffffffffffffffffffffffffffffffffffff\n      and\n      dup2\n      mstore\n      0x20\n      add\n      swap1\n      dup2\n      mstore\n      0x20\n      add\n      0x00\n      keccak256\n        /* \"tronbox/contracts/SmartGenie.sol\":16723:16743  users[payer].isExist */\n      0x00\n      add\n      0x00\n      swap1\n      sload\n      swap1\n      0x0100\n      exp\n      swap1\n      div\n      0xff\n      and\n        /* \"tronbox/contracts/SmartGenie.sol\":16719:16764  if(!users[payer].isExist) payer = userList[1] */\n      tag_326\n      jumpi\n        /* \"tronbox/contracts/SmartGenie.sol\":16753:16761  userList */\n      0x0b\n        /* \"tronbox/contracts/SmartGenie.sol\":16753:16764  userList[1] */\n      0x00\n        /* \"tronbox/contracts/SmartGenie.sol\":16762:16763  1 */\n      0x01\n        /* \"tronbox/contracts/SmartGenie.sol\":16753:16764  userList[1] */\n      dup2\n      mstore\n      0x20\n      add\n      swap1\n      dup2\n      mstore\n      0x20\n      add\n      0x00\n      keccak256\n      0x00\n      swap1\n      sload\n      swap1\n      0x0100\n      exp\n      swap1\n      div\n      0xffffffffffffffffffffffffffffffffffffffff\n      and\n        /* \"tronbox/contracts/SmartGenie.sol\":16745:16764  payer = userList[1] */\n      swap1\n      pop\n        /* \"tronbox/contracts/SmartGenie.sol\":16719:16764  if(!users[payer].isExist) payer = userList[1] */\n    tag_326:\n        /* \"tronbox/contracts/SmartGenie.sol\":16791:16796  payer */\n      dup1\n        /* \"tronbox/contracts/SmartGenie.sol\":16798:16808  _isRenewal */\n      dup4\n        /* \"tronbox/contracts/SmartGenie.sol\":16783:16809  return (payer, _isRenewal) */\n      swap5\n      pop\n      swap5\n      pop\n      pop\n      pop\n      pop\n        /* \"tronbox/contracts/SmartGenie.sol\":16262:16816  function levelRenewal(bool _loop, address _user, uint256 _regLevel)internal returns(address, bool) {... */\n      swap4\n      pop\n      swap4\n      swap2\n      pop\n      pop\n      jump\t// out\n        /* \"tronbox/contracts/SmartGenie.sol\":16826:19119  function checkLoopRequired(address _payer, uint256 _regLevel, uint256 _length, bool isRenewal, bool isSameLeg) ... */\n    tag_279:\n        /* \"tronbox/contracts/SmartGenie.sol\":16973:16977  bool */\n      0x00\n        /* \"tronbox/contracts/SmartGenie.sol\":16979:16986  uint256 */\n      dup1\n        /* \"tronbox/contracts/SmartGenie.sol\":16998:17007  bool loop */\n      0x00\n        /* \"tronbox/contracts/SmartGenie.sol\":17025:17039  uint256 length */\n      dup1\n        /* \"tronbox/contracts/SmartGenie.sol\":17042:17049  _length */\n      dup7\n        /* \"tronbox/contracts/SmartGenie.sol\":17025:17049  uint256 length = _length */\n      swap1\n      pop\n        /* \"tronbox/contracts/SmartGenie.sol\":17160:17184  uint256 tempPaymentCount */\n      0x00\n        /* \"tronbox/contracts/SmartGenie.sol\":17224:17225  1 */\n      0x01\n        /* \"tronbox/contracts/SmartGenie.sol\":17187:17192  users */\n      0x0a\n        /* \"tronbox/contracts/SmartGenie.sol\":17187:17200  users[_payer] */\n      0x00\n        /* \"tronbox/contracts/SmartGenie.sol\":17193:17199  _payer */\n      dup13\n        /* \"tronbox/contracts/SmartGenie.sol\":17187:17200  users[_payer] */\n      0xffffffffffffffffffffffffffffffffffffffff\n      and\n      0xffffffffffffffffffffffffffffffffffffffff\n      and\n      dup2\n      mstore\n      0x20\n      add\n      swap1\n      dup2\n      mstore\n      0x20\n      add\n      0x00\n      keccak256\n        /* \"tronbox/contracts/SmartGenie.sol\":17187:17212  users[_payer].incomeCount */\n      0x05\n      add\n        /* \"tronbox/contracts/SmartGenie.sol\":17187:17223  users[_payer].incomeCount[_regLevel] */\n      0x00\n        /* \"tronbox/contracts/SmartGenie.sol\":17213:17222  _regLevel */\n      dup12\n        /* \"tronbox/contracts/SmartGenie.sol\":17187:17223  users[_payer].incomeCount[_regLevel] */\n      dup2\n      mstore\n      0x20\n      add\n      swap1\n      dup2\n      mstore\n      0x20\n      add\n      0x00\n      keccak256\n      sload\n        /* \"tronbox/contracts/SmartGenie.sol\":17187:17225  users[_payer].incomeCount[_regLevel]+1 */\n      tag_328\n      swap2\n      swap1\n      tag_188\n      jump\t// in\n    tag_328:\n        /* \"tronbox/contracts/SmartGenie.sol\":17160:17225  uint256 tempPaymentCount = users[_payer].incomeCount[_regLevel]+1 */\n      swap1\n      pop\n        /* \"tronbox/contracts/SmartGenie.sol\":17319:17320  2 */\n      0x02\n        /* \"tronbox/contracts/SmartGenie.sol\":17284:17296  levelCounter */\n      0x0c\n        /* \"tronbox/contracts/SmartGenie.sol\":17284:17307  levelCounter[_regLevel] */\n      0x00\n        /* \"tronbox/contracts/SmartGenie.sol\":17297:17306  _regLevel */\n      dup12\n        /* \"tronbox/contracts/SmartGenie.sol\":17284:17307  levelCounter[_regLevel] */\n      dup2\n      mstore\n      0x20\n      add\n      swap1\n      dup2\n      mstore\n      0x20\n      add\n      0x00\n      keccak256\n        /* \"tronbox/contracts/SmartGenie.sol\":17284:17315  levelCounter[_regLevel][_payer] */\n      0x00\n        /* \"tronbox/contracts/SmartGenie.sol\":17308:17314  _payer */\n      dup13\n        /* \"tronbox/contracts/SmartGenie.sol\":17284:17315  levelCounter[_regLevel][_payer] */\n      0xffffffffffffffffffffffffffffffffffffffff\n      and\n      0xffffffffffffffffffffffffffffffffffffffff\n      and\n      dup2\n      mstore\n      0x20\n      add\n      swap1\n      dup2\n      mstore\n      0x20\n      add\n      0x00\n      keccak256\n      sload\n        /* \"tronbox/contracts/SmartGenie.sol\":17284:17320  levelCounter[_regLevel][_payer] == 2 */\n      eq\n        /* \"tronbox/contracts/SmartGenie.sol\":17281:19075  if(levelCounter[_regLevel][_payer] == 2) {... */\n      iszero\n      tag_329\n      jumpi\n        /* \"tronbox/contracts/SmartGenie.sol\":17343:17347  true */\n      0x01\n        /* \"tronbox/contracts/SmartGenie.sol\":17336:17347  loop = true */\n      swap3\n      pop\n        /* \"tronbox/contracts/SmartGenie.sol\":17281:19075  if(levelCounter[_regLevel][_payer] == 2) {... */\n      jump(tag_330)\n    tag_329:\n        /* \"tronbox/contracts/SmartGenie.sol\":17556:17557  4 */\n      0x04\n        /* \"tronbox/contracts/SmartGenie.sol\":17536:17552  tempPaymentCount */\n      dup2\n        /* \"tronbox/contracts/SmartGenie.sol\":17536:17557  tempPaymentCount >= 4 */\n      lt\n      iszero\n        /* \"tronbox/contracts/SmartGenie.sol\":17536:17596  tempPaymentCount >= 4 &&... */\n      dup1\n      iszero\n      tag_331\n      jumpi\n      pop\n        /* \"tronbox/contracts/SmartGenie.sol\":17595:17596  0 */\n      0x00\n        /* \"tronbox/contracts/SmartGenie.sol\":17590:17591  4 */\n      0x04\n        /* \"tronbox/contracts/SmartGenie.sol\":17571:17587  tempPaymentCount */\n      dup3\n        /* \"tronbox/contracts/SmartGenie.sol\":17571:17591  tempPaymentCount % 4 */\n      tag_332\n      swap2\n      swap1\n      tag_266\n      jump\t// in\n    tag_332:\n        /* \"tronbox/contracts/SmartGenie.sol\":17571:17596  tempPaymentCount % 4 == 0 */\n      eq\n        /* \"tronbox/contracts/SmartGenie.sol\":17536:17596  tempPaymentCount >= 4 &&... */\n    tag_331:\n        /* \"tronbox/contracts/SmartGenie.sol\":17536:17638  tempPaymentCount >= 4 &&... */\n      dup1\n      iszero\n      tag_333\n      jumpi\n      pop\n        /* \"tronbox/contracts/SmartGenie.sol\":17637:17638  0 */\n      0x00\n        /* \"tronbox/contracts/SmartGenie.sol\":17611:17616  users */\n      0x0a\n        /* \"tronbox/contracts/SmartGenie.sol\":17611:17624  users[_payer] */\n      0x00\n        /* \"tronbox/contracts/SmartGenie.sol\":17617:17623  _payer */\n      dup13\n        /* \"tronbox/contracts/SmartGenie.sol\":17611:17624  users[_payer] */\n      0xffffffffffffffffffffffffffffffffffffffff\n      and\n      0xffffffffffffffffffffffffffffffffffffffff\n      and\n      dup2\n      mstore\n      0x20\n      add\n      swap1\n      dup2\n      mstore\n      0x20\n      add\n      0x00\n      keccak256\n        /* \"tronbox/contracts/SmartGenie.sol\":17611:17635  users[_payer].referrerID */\n      0x02\n      add\n      sload\n        /* \"tronbox/contracts/SmartGenie.sol\":17611:17638  users[_payer].referrerID!=0 */\n      eq\n      iszero\n        /* \"tronbox/contracts/SmartGenie.sol\":17536:17638  tempPaymentCount >= 4 &&... */\n    tag_333:\n        /* \"tronbox/contracts/SmartGenie.sol\":17536:17656  tempPaymentCount >= 4 &&... */\n      dup1\n      iszero\n      tag_334\n      jumpi\n      pop\n        /* \"tronbox/contracts/SmartGenie.sol\":17655:17656  1 */\n      0x01\n        /* \"tronbox/contracts/SmartGenie.sol\":17642:17651  _regLevel */\n      dup10\n        /* \"tronbox/contracts/SmartGenie.sol\":17642:17656  _regLevel == 1 */\n      eq\n        /* \"tronbox/contracts/SmartGenie.sol\":17536:17656  tempPaymentCount >= 4 &&... */\n    tag_334:\n        /* \"tronbox/contracts/SmartGenie.sol\":17533:19075  if(tempPaymentCount >= 4 &&... */\n      iszero\n      tag_335\n      jumpi\n        /* \"tronbox/contracts/SmartGenie.sol\":17693:17694  3 */\n      0x03\n        /* \"tronbox/contracts/SmartGenie.sol\":17682:17689  _length */\n      dup9\n        /* \"tronbox/contracts/SmartGenie.sol\":17682:17694  _length == 3 */\n      eq\n        /* \"tronbox/contracts/SmartGenie.sol\":17682:17718  _length == 3 && tempPaymentCount ==4 */\n      dup1\n      iszero\n      tag_336\n      jumpi\n      pop\n        /* \"tronbox/contracts/SmartGenie.sol\":17717:17718  4 */\n      0x04\n        /* \"tronbox/contracts/SmartGenie.sol\":17698:17714  tempPaymentCount */\n      dup2\n        /* \"tronbox/contracts/SmartGenie.sol\":17698:17718  tempPaymentCount ==4 */\n      eq\n        /* \"tronbox/contracts/SmartGenie.sol\":17682:17718  _length == 3 && tempPaymentCount ==4 */\n    tag_336:\n        /* \"tronbox/contracts/SmartGenie.sol\":17679:17776  if(_length == 3 && tempPaymentCount ==4) {... */\n      iszero\n      tag_337\n      jumpi\n        /* \"tronbox/contracts/SmartGenie.sol\":17747:17763  tempPaymentCount */\n      dup1\n        /* \"tronbox/contracts/SmartGenie.sol\":17738:17763  length = tempPaymentCount */\n      swap2\n      pop\n        /* \"tronbox/contracts/SmartGenie.sol\":17679:17776  if(_length == 3 && tempPaymentCount ==4) {... */\n    tag_337:\n        /* \"tronbox/contracts/SmartGenie.sol\":17796:17800  true */\n      0x01\n        /* \"tronbox/contracts/SmartGenie.sol\":17789:17800  loop = true */\n      swap3\n      pop\n        /* \"tronbox/contracts/SmartGenie.sol\":17533:19075  if(tempPaymentCount >= 4 &&... */\n      jump(tag_338)\n    tag_335:\n        /* \"tronbox/contracts/SmartGenie.sol\":17997:17998  4 */\n      0x04\n        /* \"tronbox/contracts/SmartGenie.sol\":17977:17993  tempPaymentCount */\n      dup2\n        /* \"tronbox/contracts/SmartGenie.sol\":17977:17998  tempPaymentCount >= 4 */\n      lt\n      iszero\n        /* \"tronbox/contracts/SmartGenie.sol\":17977:18039  tempPaymentCount >= 4 &&... */\n      dup1\n      iszero\n      tag_339\n      jumpi\n      pop\n        /* \"tronbox/contracts/SmartGenie.sol\":18038:18039  0 */\n      0x00\n        /* \"tronbox/contracts/SmartGenie.sol\":18033:18034  4 */\n      0x04\n        /* \"tronbox/contracts/SmartGenie.sol\":18014:18030  tempPaymentCount */\n      dup3\n        /* \"tronbox/contracts/SmartGenie.sol\":18014:18034  tempPaymentCount % 4 */\n      tag_340\n      swap2\n      swap1\n      tag_266\n      jump\t// in\n    tag_340:\n        /* \"tronbox/contracts/SmartGenie.sol\":18014:18039  tempPaymentCount % 4 == 0 */\n      eq\n        /* \"tronbox/contracts/SmartGenie.sol\":17977:18039  tempPaymentCount >= 4 &&... */\n    tag_339:\n        /* \"tronbox/contracts/SmartGenie.sol\":17977:18068  tempPaymentCount >= 4 &&... */\n      dup1\n      iszero\n      tag_341\n      jumpi\n      pop\n        /* \"tronbox/contracts/SmartGenie.sol\":18067:18068  2 */\n      0x02\n        /* \"tronbox/contracts/SmartGenie.sol\":18056:18063  _length */\n      dup9\n        /* \"tronbox/contracts/SmartGenie.sol\":18056:18068  _length == 2 */\n      eq\n        /* \"tronbox/contracts/SmartGenie.sol\":17977:18068  tempPaymentCount >= 4 &&... */\n    tag_341:\n        /* \"tronbox/contracts/SmartGenie.sol\":17977:18082  tempPaymentCount >= 4 &&... */\n      dup1\n      iszero\n      tag_342\n      jumpi\n      pop\n        /* \"tronbox/contracts/SmartGenie.sol\":18073:18082  isSameLeg */\n      dup6\n        /* \"tronbox/contracts/SmartGenie.sol\":18072:18082  !isSameLeg */\n      iszero\n        /* \"tronbox/contracts/SmartGenie.sol\":17977:18082  tempPaymentCount >= 4 &&... */\n    tag_342:\n        /* \"tronbox/contracts/SmartGenie.sol\":17977:18111  tempPaymentCount >= 4 &&... */\n      dup1\n      iszero\n      tag_343\n      jumpi\n      pop\n        /* \"tronbox/contracts/SmartGenie.sol\":18110:18111  1 */\n      0x01\n        /* \"tronbox/contracts/SmartGenie.sol\":18098:18107  _regLevel */\n      dup10\n        /* \"tronbox/contracts/SmartGenie.sol\":18098:18111  _regLevel > 1 */\n      gt\n        /* \"tronbox/contracts/SmartGenie.sol\":17977:18111  tempPaymentCount >= 4 &&... */\n    tag_343:\n        /* \"tronbox/contracts/SmartGenie.sol\":17973:19075  if (tempPaymentCount >= 4 &&... */\n      iszero\n      tag_344\n      jumpi\n        /* \"tronbox/contracts/SmartGenie.sol\":18229:18237  userList */\n      0x0b\n        /* \"tronbox/contracts/SmartGenie.sol\":18229:18240  userList[1] */\n      0x00\n        /* \"tronbox/contracts/SmartGenie.sol\":18238:18239  1 */\n      0x01\n        /* \"tronbox/contracts/SmartGenie.sol\":18229:18240  userList[1] */\n      dup2\n      mstore\n      0x20\n      add\n      swap1\n      dup2\n      mstore\n      0x20\n      add\n      0x00\n      keccak256\n      0x00\n      swap1\n      sload\n      swap1\n      0x0100\n      exp\n      swap1\n      div\n      0xffffffffffffffffffffffffffffffffffffffff\n      and\n        /* \"tronbox/contracts/SmartGenie.sol\":18219:18240  _payer == userList[1] */\n      0xffffffffffffffffffffffffffffffffffffffff\n      and\n        /* \"tronbox/contracts/SmartGenie.sol\":18219:18225  _payer */\n      dup11\n        /* \"tronbox/contracts/SmartGenie.sol\":18219:18240  _payer == userList[1] */\n      0xffffffffffffffffffffffffffffffffffffffff\n      and\n      eq\n        /* \"tronbox/contracts/SmartGenie.sol\":18216:18365  if(_payer == userList[1]) {... */\n      iszero\n      tag_345\n      jumpi\n        /* \"tronbox/contracts/SmartGenie.sol\":18267:18272  false */\n      0x00\n        /* \"tronbox/contracts/SmartGenie.sol\":18260:18272  loop = false */\n      swap3\n      pop\n        /* \"tronbox/contracts/SmartGenie.sol\":18216:18365  if(_payer == userList[1]) {... */\n      jump(tag_346)\n    tag_345:\n        /* \"tronbox/contracts/SmartGenie.sol\":18320:18321  4 */\n      0x04\n        /* \"tronbox/contracts/SmartGenie.sol\":18311:18321  length = 4 */\n      swap2\n      pop\n        /* \"tronbox/contracts/SmartGenie.sol\":18346:18350  true */\n      0x01\n        /* \"tronbox/contracts/SmartGenie.sol\":18339:18350  loop = true */\n      swap3\n      pop\n        /* \"tronbox/contracts/SmartGenie.sol\":18216:18365  if(_payer == userList[1]) {... */\n    tag_346:\n        /* \"tronbox/contracts/SmartGenie.sol\":17973:19075  if (tempPaymentCount >= 4 &&... */\n      jump(tag_347)\n    tag_344:\n        /* \"tronbox/contracts/SmartGenie.sol\":18470:18471  2 */\n      0x02\n        /* \"tronbox/contracts/SmartGenie.sol\":18450:18466  tempPaymentCount */\n      dup2\n        /* \"tronbox/contracts/SmartGenie.sol\":18450:18471  tempPaymentCount == 2 */\n      eq\n        /* \"tronbox/contracts/SmartGenie.sol\":18450:18512  tempPaymentCount == 2 &&... */\n      dup1\n      iszero\n      tag_348\n      jumpi\n      pop\n        /* \"tronbox/contracts/SmartGenie.sol\":18511:18512  0 */\n      0x00\n        /* \"tronbox/contracts/SmartGenie.sol\":18485:18490  users */\n      0x0a\n        /* \"tronbox/contracts/SmartGenie.sol\":18485:18498  users[_payer] */\n      0x00\n        /* \"tronbox/contracts/SmartGenie.sol\":18491:18497  _payer */\n      dup13\n        /* \"tronbox/contracts/SmartGenie.sol\":18485:18498  users[_payer] */\n      0xffffffffffffffffffffffffffffffffffffffff\n      and\n      0xffffffffffffffffffffffffffffffffffffffff\n      and\n      dup2\n      mstore\n      0x20\n      add\n      swap1\n      dup2\n      mstore\n      0x20\n      add\n      0x00\n      keccak256\n        /* \"tronbox/contracts/SmartGenie.sol\":18485:18509  users[_payer].referrerID */\n      0x02\n      add\n      sload\n        /* \"tronbox/contracts/SmartGenie.sol\":18485:18512  users[_payer].referrerID!=0 */\n      eq\n      iszero\n        /* \"tronbox/contracts/SmartGenie.sol\":18450:18512  tempPaymentCount == 2 &&... */\n    tag_348:\n        /* \"tronbox/contracts/SmartGenie.sol\":18450:18526  tempPaymentCount == 2 &&... */\n      dup1\n      iszero\n      tag_349\n      jumpi\n      pop\n        /* \"tronbox/contracts/SmartGenie.sol\":18517:18526  isRenewal */\n      dup7\n        /* \"tronbox/contracts/SmartGenie.sol\":18516:18526  !isRenewal */\n      iszero\n        /* \"tronbox/contracts/SmartGenie.sol\":18450:18526  tempPaymentCount == 2 &&... */\n    tag_349:\n        /* \"tronbox/contracts/SmartGenie.sol\":18450:18540  tempPaymentCount == 2 &&... */\n      dup1\n      iszero\n      tag_350\n      jumpi\n      pop\n        /* \"tronbox/contracts/SmartGenie.sol\":18531:18540  isSameLeg */\n      dup6\n        /* \"tronbox/contracts/SmartGenie.sol\":18530:18540  !isSameLeg */\n      iszero\n        /* \"tronbox/contracts/SmartGenie.sol\":18450:18540  tempPaymentCount == 2 &&... */\n    tag_350:\n        /* \"tronbox/contracts/SmartGenie.sol\":18447:19075  if(tempPaymentCount == 2 &&... */\n      iszero\n      tag_351\n      jumpi\n        /* \"tronbox/contracts/SmartGenie.sol\":18559:18564  users */\n      0x0a\n        /* \"tronbox/contracts/SmartGenie.sol\":18559:18572  users[_payer] */\n      0x00\n        /* \"tronbox/contracts/SmartGenie.sol\":18565:18571  _payer */\n      dup12\n        /* \"tronbox/contracts/SmartGenie.sol\":18559:18572  users[_payer] */\n      0xffffffffffffffffffffffffffffffffffffffff\n      and\n      0xffffffffffffffffffffffffffffffffffffffff\n      and\n      dup2\n      mstore\n      0x20\n      add\n      swap1\n      dup2\n      mstore\n      0x20\n      add\n      0x00\n      keccak256\n        /* \"tronbox/contracts/SmartGenie.sol\":18559:18580  users[_payer].isExist */\n      0x00\n      add\n      0x00\n      swap1\n      sload\n      swap1\n      0x0100\n      exp\n      swap1\n      div\n      0xff\n      and\n        /* \"tronbox/contracts/SmartGenie.sol\":18555:18602  if(!users[_payer].isExist) _payer = userList[1] */\n      tag_352\n      jumpi\n        /* \"tronbox/contracts/SmartGenie.sol\":18591:18599  userList */\n      0x0b\n        /* \"tronbox/contracts/SmartGenie.sol\":18591:18602  userList[1] */\n      0x00\n        /* \"tronbox/contracts/SmartGenie.sol\":18600:18601  1 */\n      0x01\n        /* \"tronbox/contracts/SmartGenie.sol\":18591:18602  userList[1] */\n      dup2\n      mstore\n      0x20\n      add\n      swap1\n      dup2\n      mstore\n      0x20\n      add\n      0x00\n      keccak256\n      0x00\n      swap1\n      sload\n      swap1\n      0x0100\n      exp\n      swap1\n      div\n      0xffffffffffffffffffffffffffffffffffffffff\n      and\n        /* \"tronbox/contracts/SmartGenie.sol\":18582:18602  _payer = userList[1] */\n      swap10\n      pop\n        /* \"tronbox/contracts/SmartGenie.sol\":18555:18602  if(!users[_payer].isExist) _payer = userList[1] */\n    tag_352:\n        /* \"tronbox/contracts/SmartGenie.sol\":18629:18637  userList */\n      0x0b\n        /* \"tronbox/contracts/SmartGenie.sol\":18629:18640  userList[1] */\n      0x00\n        /* \"tronbox/contracts/SmartGenie.sol\":18638:18639  1 */\n      0x01\n        /* \"tronbox/contracts/SmartGenie.sol\":18629:18640  userList[1] */\n      dup2\n      mstore\n      0x20\n      add\n      swap1\n      dup2\n      mstore\n      0x20\n      add\n      0x00\n      keccak256\n      0x00\n      swap1\n      sload\n      swap1\n      0x0100\n      exp\n      swap1\n      div\n      0xffffffffffffffffffffffffffffffffffffffff\n      and\n        /* \"tronbox/contracts/SmartGenie.sol\":18619:18640  _payer == userList[1] */\n      0xffffffffffffffffffffffffffffffffffffffff\n      and\n        /* \"tronbox/contracts/SmartGenie.sol\":18619:18625  _payer */\n      dup11\n        /* \"tronbox/contracts/SmartGenie.sol\":18619:18640  _payer == userList[1] */\n      0xffffffffffffffffffffffffffffffffffffffff\n      and\n      eq\n        /* \"tronbox/contracts/SmartGenie.sol\":18616:18780  if(_payer == userList[1]) {... */\n      iszero\n      tag_353\n      jumpi\n        /* \"tronbox/contracts/SmartGenie.sol\":18667:18672  false */\n      0x00\n        /* \"tronbox/contracts/SmartGenie.sol\":18660:18672  loop = false */\n      swap3\n      pop\n        /* \"tronbox/contracts/SmartGenie.sol\":18616:18780  if(_payer == userList[1]) {... */\n      jump(tag_354)\n    tag_353:\n        /* \"tronbox/contracts/SmartGenie.sol\":18718:18722  true */\n      0x01\n        /* \"tronbox/contracts/SmartGenie.sol\":18711:18722  loop = true */\n      swap3\n      pop\n        /* \"tronbox/contracts/SmartGenie.sol\":18749:18765  tempPaymentCount */\n      dup1\n        /* \"tronbox/contracts/SmartGenie.sol\":18740:18765  length = tempPaymentCount */\n      swap2\n      pop\n        /* \"tronbox/contracts/SmartGenie.sol\":18616:18780  if(_payer == userList[1]) {... */\n    tag_354:\n        /* \"tronbox/contracts/SmartGenie.sol\":18447:19075  if(tempPaymentCount == 2 &&... */\n      jump(tag_355)\n    tag_351:\n        /* \"tronbox/contracts/SmartGenie.sol\":18960:18961  1 */\n      0x01\n        /* \"tronbox/contracts/SmartGenie.sol\":18940:18956  tempPaymentCount */\n      dup2\n        /* \"tronbox/contracts/SmartGenie.sol\":18940:18961  tempPaymentCount == 1 */\n      eq\n        /* \"tronbox/contracts/SmartGenie.sol\":18940:19002  tempPaymentCount == 1 &&... */\n      dup1\n      iszero\n      tag_356\n      jumpi\n      pop\n        /* \"tronbox/contracts/SmartGenie.sol\":19001:19002  0 */\n      0x00\n        /* \"tronbox/contracts/SmartGenie.sol\":18975:18980  users */\n      0x0a\n        /* \"tronbox/contracts/SmartGenie.sol\":18975:18988  users[_payer] */\n      0x00\n        /* \"tronbox/contracts/SmartGenie.sol\":18981:18987  _payer */\n      dup13\n        /* \"tronbox/contracts/SmartGenie.sol\":18975:18988  users[_payer] */\n      0xffffffffffffffffffffffffffffffffffffffff\n      and\n      0xffffffffffffffffffffffffffffffffffffffff\n      and\n      dup2\n      mstore\n      0x20\n      add\n      swap1\n      dup2\n      mstore\n      0x20\n      add\n      0x00\n      keccak256\n        /* \"tronbox/contracts/SmartGenie.sol\":18975:18999  users[_payer].referrerID */\n      0x02\n      add\n      sload\n        /* \"tronbox/contracts/SmartGenie.sol\":18975:19002  users[_payer].referrerID==0 */\n      eq\n        /* \"tronbox/contracts/SmartGenie.sol\":18940:19002  tempPaymentCount == 1 &&... */\n    tag_356:\n        /* \"tronbox/contracts/SmartGenie.sol\":18937:19075  if(tempPaymentCount == 1 &&... */\n      iszero\n      tag_357\n      jumpi\n        /* \"tronbox/contracts/SmartGenie.sol\":19021:19026  users */\n      0x0a\n        /* \"tronbox/contracts/SmartGenie.sol\":19021:19034  users[_payer] */\n      0x00\n        /* \"tronbox/contracts/SmartGenie.sol\":19027:19033  _payer */\n      dup12\n        /* \"tronbox/contracts/SmartGenie.sol\":19021:19034  users[_payer] */\n      0xffffffffffffffffffffffffffffffffffffffff\n      and\n      0xffffffffffffffffffffffffffffffffffffffff\n      and\n      dup2\n      mstore\n      0x20\n      add\n      swap1\n      dup2\n      mstore\n      0x20\n      add\n      0x00\n      keccak256\n        /* \"tronbox/contracts/SmartGenie.sol\":19021:19042  users[_payer].isExist */\n      0x00\n      add\n      0x00\n      swap1\n      sload\n      swap1\n      0x0100\n      exp\n      swap1\n      div\n      0xff\n      and\n        /* \"tronbox/contracts/SmartGenie.sol\":19017:19064  if(!users[_payer].isExist) _payer = userList[1] */\n      tag_358\n      jumpi\n        /* \"tronbox/contracts/SmartGenie.sol\":19053:19061  userList */\n      0x0b\n        /* \"tronbox/contracts/SmartGenie.sol\":19053:19064  userList[1] */\n      0x00\n        /* \"tronbox/contracts/SmartGenie.sol\":19062:19063  1 */\n      0x01\n        /* \"tronbox/contracts/SmartGenie.sol\":19053:19064  userList[1] */\n      dup2\n      mstore\n      0x20\n      add\n      swap1\n      dup2\n      mstore\n      0x20\n      add\n      0x00\n      keccak256\n      0x00\n      swap1\n      sload\n      swap1\n      0x0100\n      exp\n      swap1\n      div\n      0xffffffffffffffffffffffffffffffffffffffff\n      and\n        /* \"tronbox/contracts/SmartGenie.sol\":19044:19064  _payer = userList[1] */\n      swap10\n      pop\n        /* \"tronbox/contracts/SmartGenie.sol\":19017:19064  if(!users[_payer].isExist) _payer = userList[1] */\n    tag_358:\n        /* \"tronbox/contracts/SmartGenie.sol\":18937:19075  if(tempPaymentCount == 1 &&... */\n    tag_357:\n        /* \"tronbox/contracts/SmartGenie.sol\":18447:19075  if(tempPaymentCount == 2 &&... */\n    tag_355:\n        /* \"tronbox/contracts/SmartGenie.sol\":17973:19075  if (tempPaymentCount >= 4 &&... */\n    tag_347:\n        /* \"tronbox/contracts/SmartGenie.sol\":17533:19075  if(tempPaymentCount >= 4 &&... */\n    tag_338:\n        /* \"tronbox/contracts/SmartGenie.sol\":17281:19075  if(levelCounter[_regLevel][_payer] == 2) {... */\n    tag_330:\n        /* \"tronbox/contracts/SmartGenie.sol\":19099:19103  loop */\n      dup3\n        /* \"tronbox/contracts/SmartGenie.sol\":19105:19111  length */\n      dup3\n        /* \"tronbox/contracts/SmartGenie.sol\":19091:19112  return (loop, length) */\n      swap5\n      pop\n      swap5\n      pop\n      pop\n      pop\n      pop\n        /* \"tronbox/contracts/SmartGenie.sol\":16826:19119  function checkLoopRequired(address _payer, uint256 _regLevel, uint256 _length, bool isRenewal, bool isSameLeg) ... */\n      swap6\n      pop\n      swap6\n      swap4\n      pop\n      pop\n      pop\n      pop\n      jump\t// out\n        /* \"tronbox/contracts/SmartGenie.sol\":11228:16252  function findEligiblePayer(address _referrer, uint256 _regLevel, uint256 _levelEligibility) internal returns (address, address){... */\n    tag_308:\n        /* \"tronbox/contracts/SmartGenie.sol\":11338:11345  address */\n      0x00\n        /* \"tronbox/contracts/SmartGenie.sol\":11347:11354  address */\n      dup1\n        /* \"tronbox/contracts/SmartGenie.sol\":11368:11390  address _eligiblePayer */\n      0x00\n        /* \"tronbox/contracts/SmartGenie.sol\":11404:11425  address _tempreferrer */\n      dup1\n        /* \"tronbox/contracts/SmartGenie.sol\":11428:11437  _referrer */\n      dup7\n        /* \"tronbox/contracts/SmartGenie.sol\":11404:11437  address _tempreferrer = _referrer */\n      swap1\n      pop\n        /* \"tronbox/contracts/SmartGenie.sol\":11533:11538  int i */\n      0x00\n        /* \"tronbox/contracts/SmartGenie.sol\":11529:16100  for(int i=0; i<9; i++) { ... */\n    tag_360:\n        /* \"tronbox/contracts/SmartGenie.sol\":11544:11545  9 */\n      0x09\n        /* \"tronbox/contracts/SmartGenie.sol\":11542:11543  i */\n      dup2\n        /* \"tronbox/contracts/SmartGenie.sol\":11542:11545  i<9 */\n      slt\n        /* \"tronbox/contracts/SmartGenie.sol\":11529:16100  for(int i=0; i<9; i++) { ... */\n      iszero\n      tag_361\n      jumpi\n        /* \"tronbox/contracts/SmartGenie.sol\":11749:11750  1 */\n      0x01\n        /* \"tronbox/contracts/SmartGenie.sol\":11718:11723  users */\n      0x0a\n        /* \"tronbox/contracts/SmartGenie.sol\":11718:11734  users[_referrer] */\n      0x00\n        /* \"tronbox/contracts/SmartGenie.sol\":11724:11733  _referrer */\n      dup11\n        /* \"tronbox/contracts/SmartGenie.sol\":11718:11734  users[_referrer] */\n      0xffffffffffffffffffffffffffffffffffffffff\n      and\n      0xffffffffffffffffffffffffffffffffffffffff\n      and\n      dup2\n      mstore\n      0x20\n      add\n      swap1\n      dup2\n      mstore\n      0x20\n      add\n      0x00\n      keccak256\n        /* \"tronbox/contracts/SmartGenie.sol\":11718:11745  users[_referrer].referrerID */\n      0x02\n      add\n      sload\n        /* \"tronbox/contracts/SmartGenie.sol\":11718:11750  users[_referrer].referrerID == 1 */\n      eq\n        /* \"tronbox/contracts/SmartGenie.sol\":11718:11783  users[_referrer].referrerID == 1 || _eligiblePayer == userList[1] */\n      dup1\n      tag_363\n      jumpi\n      pop\n        /* \"tronbox/contracts/SmartGenie.sol\":11772:11780  userList */\n      0x0b\n        /* \"tronbox/contracts/SmartGenie.sol\":11772:11783  userList[1] */\n      0x00\n        /* \"tronbox/contracts/SmartGenie.sol\":11781:11782  1 */\n      0x01\n        /* \"tronbox/contracts/SmartGenie.sol\":11772:11783  userList[1] */\n      dup2\n      mstore\n      0x20\n      add\n      swap1\n      dup2\n      mstore\n      0x20\n      add\n      0x00\n      keccak256\n      0x00\n      swap1\n      sload\n      swap1\n      0x0100\n      exp\n      swap1\n      div\n      0xffffffffffffffffffffffffffffffffffffffff\n      and\n        /* \"tronbox/contracts/SmartGenie.sol\":11754:11783  _eligiblePayer == userList[1] */\n      0xffffffffffffffffffffffffffffffffffffffff\n      and\n        /* \"tronbox/contracts/SmartGenie.sol\":11754:11768  _eligiblePayer */\n      dup4\n        /* \"tronbox/contracts/SmartGenie.sol\":11754:11783  _eligiblePayer == userList[1] */\n      0xffffffffffffffffffffffffffffffffffffffff\n      and\n      eq\n        /* \"tronbox/contracts/SmartGenie.sol\":11718:11783  users[_referrer].referrerID == 1 || _eligiblePayer == userList[1] */\n    tag_363:\n        /* \"tronbox/contracts/SmartGenie.sol\":11715:16082  if(users[_referrer].referrerID == 1 || _eligiblePayer == userList[1]) {... */\n      iszero\n      tag_364\n      jumpi\n        /* \"tronbox/contracts/SmartGenie.sol\":11811:11816  break */\n      jump(tag_361)\n        /* \"tronbox/contracts/SmartGenie.sol\":11715:16082  if(users[_referrer].referrerID == 1 || _eligiblePayer == userList[1]) {... */\n    tag_364:\n        /* \"tronbox/contracts/SmartGenie.sol\":11871:11887  uint256 _lelevel */\n      0x00\n        /* \"tronbox/contracts/SmartGenie.sol\":11935:11936  1 */\n      0x01\n        /* \"tronbox/contracts/SmartGenie.sol\":11890:11895  users */\n      0x0a\n        /* \"tronbox/contracts/SmartGenie.sol\":11890:11910  users[_tempreferrer] */\n      0x00\n        /* \"tronbox/contracts/SmartGenie.sol\":11896:11909  _tempreferrer */\n      dup6\n        /* \"tronbox/contracts/SmartGenie.sol\":11890:11910  users[_tempreferrer] */\n      0xffffffffffffffffffffffffffffffffffffffff\n      and\n      0xffffffffffffffffffffffffffffffffffffffff\n      and\n      dup2\n      mstore\n      0x20\n      add\n      swap1\n      dup2\n      mstore\n      0x20\n      add\n      0x00\n      keccak256\n        /* \"tronbox/contracts/SmartGenie.sol\":11890:11927  users[_tempreferrer].levelEligibility */\n      0x06\n      add\n        /* \"tronbox/contracts/SmartGenie.sol\":11890:11934  users[_tempreferrer].levelEligibility.length */\n      dup1\n      sload\n      swap1\n      pop\n        /* \"tronbox/contracts/SmartGenie.sol\":11890:11936  users[_tempreferrer].levelEligibility.length-1 */\n      tag_366\n      swap2\n      swap1\n      tag_251\n      jump\t// in\n    tag_366:\n        /* \"tronbox/contracts/SmartGenie.sol\":11871:11936  uint256 _lelevel = users[_tempreferrer].levelEligibility.length-1 */\n      swap1\n      pop\n        /* \"tronbox/contracts/SmartGenie.sol\":11982:11987  users */\n      0x0a\n        /* \"tronbox/contracts/SmartGenie.sol\":11982:12002  users[_tempreferrer] */\n      0x00\n        /* \"tronbox/contracts/SmartGenie.sol\":11988:12001  _tempreferrer */\n      dup5\n        /* \"tronbox/contracts/SmartGenie.sol\":11982:12002  users[_tempreferrer] */\n      0xffffffffffffffffffffffffffffffffffffffff\n      and\n      0xffffffffffffffffffffffffffffffffffffffff\n      and\n      dup2\n      mstore\n      0x20\n      add\n      swap1\n      dup2\n      mstore\n      0x20\n      add\n      0x00\n      keccak256\n        /* \"tronbox/contracts/SmartGenie.sol\":11982:12019  users[_tempreferrer].levelEligibility */\n      0x06\n      add\n        /* \"tronbox/contracts/SmartGenie.sol\":12020:12028  _lelevel */\n      dup2\n        /* \"tronbox/contracts/SmartGenie.sol\":11982:12029  users[_tempreferrer].levelEligibility[_lelevel] */\n      dup2\n      sload\n      dup2\n      lt\n      tag_367\n      jumpi\n      tag_368\n      tag_211\n      jump\t// in\n    tag_368:\n    tag_367:\n      swap1\n      0x00\n      mstore\n      keccak256(0x00, 0x20)\n      add\n      sload\n        /* \"tronbox/contracts/SmartGenie.sol\":11962:12029  _levelEligibility = users[_tempreferrer].levelEligibility[_lelevel] */\n      swap7\n      pop\n        /* \"tronbox/contracts/SmartGenie.sol\":12081:12095  address payer1 */\n      0x00\n        /* \"tronbox/contracts/SmartGenie.sol\":12098:12106  userList */\n      0x0b\n        /* \"tronbox/contracts/SmartGenie.sol\":12098:12139  userList[users[_tempreferrer].referrerID] */\n      0x00\n        /* \"tronbox/contracts/SmartGenie.sol\":12107:12112  users */\n      0x0a\n        /* \"tronbox/contracts/SmartGenie.sol\":12107:12127  users[_tempreferrer] */\n      0x00\n        /* \"tronbox/contracts/SmartGenie.sol\":12113:12126  _tempreferrer */\n      dup8\n        /* \"tronbox/contracts/SmartGenie.sol\":12107:12127  users[_tempreferrer] */\n      0xffffffffffffffffffffffffffffffffffffffff\n      and\n      0xffffffffffffffffffffffffffffffffffffffff\n      and\n      dup2\n      mstore\n      0x20\n      add\n      swap1\n      dup2\n      mstore\n      0x20\n      add\n      0x00\n      keccak256\n        /* \"tronbox/contracts/SmartGenie.sol\":12107:12138  users[_tempreferrer].referrerID */\n      0x02\n      add\n      sload\n        /* \"tronbox/contracts/SmartGenie.sol\":12098:12139  userList[users[_tempreferrer].referrerID] */\n      dup2\n      mstore\n      0x20\n      add\n      swap1\n      dup2\n      mstore\n      0x20\n      add\n      0x00\n      keccak256\n      0x00\n      swap1\n      sload\n      swap1\n      0x0100\n      exp\n      swap1\n      div\n      0xffffffffffffffffffffffffffffffffffffffff\n      and\n        /* \"tronbox/contracts/SmartGenie.sol\":12081:12139  address payer1 = userList[users[_tempreferrer].referrerID] */\n      swap1\n      pop\n        /* \"tronbox/contracts/SmartGenie.sol\":12169:12188  address secReferrer */\n      0x00\n        /* \"tronbox/contracts/SmartGenie.sol\":12191:12199  userList */\n      0x0b\n        /* \"tronbox/contracts/SmartGenie.sol\":12191:12225  userList[users[payer1].referrerID] */\n      0x00\n        /* \"tronbox/contracts/SmartGenie.sol\":12200:12205  users */\n      0x0a\n        /* \"tronbox/contracts/SmartGenie.sol\":12200:12213  users[payer1] */\n      0x00\n        /* \"tronbox/contracts/SmartGenie.sol\":12206:12212  payer1 */\n      dup6\n        /* \"tronbox/contracts/SmartGenie.sol\":12200:12213  users[payer1] */\n      0xffffffffffffffffffffffffffffffffffffffff\n      and\n      0xffffffffffffffffffffffffffffffffffffffff\n      and\n      dup2\n      mstore\n      0x20\n      add\n      swap1\n      dup2\n      mstore\n      0x20\n      add\n      0x00\n      keccak256\n        /* \"tronbox/contracts/SmartGenie.sol\":12200:12224  users[payer1].referrerID */\n      0x02\n      add\n      sload\n        /* \"tronbox/contracts/SmartGenie.sol\":12191:12225  userList[users[payer1].referrerID] */\n      dup2\n      mstore\n      0x20\n      add\n      swap1\n      dup2\n      mstore\n      0x20\n      add\n      0x00\n      keccak256\n      0x00\n      swap1\n      sload\n      swap1\n      0x0100\n      exp\n      swap1\n      div\n      0xffffffffffffffffffffffffffffffffffffffff\n      and\n        /* \"tronbox/contracts/SmartGenie.sol\":12169:12225  address secReferrer = userList[users[payer1].referrerID] */\n      swap1\n      pop\n        /* \"tronbox/contracts/SmartGenie.sol\":12261:12267  uint j */\n      0x00\n        /* \"tronbox/contracts/SmartGenie.sol\":12268:12269  1 */\n      0x01\n        /* \"tronbox/contracts/SmartGenie.sol\":12261:12269  uint j=1 */\n      swap1\n      pop\n        /* \"tronbox/contracts/SmartGenie.sol\":12256:12531  for (uint j=1; j< _regLevel; j++) {... */\n    tag_370:\n        /* \"tronbox/contracts/SmartGenie.sol\":12274:12283  _regLevel */\n      dup11\n        /* \"tronbox/contracts/SmartGenie.sol\":12271:12272  j */\n      dup2\n        /* \"tronbox/contracts/SmartGenie.sol\":12271:12283  j< _regLevel */\n      lt\n        /* \"tronbox/contracts/SmartGenie.sol\":12256:12531  for (uint j=1; j< _regLevel; j++) {... */\n      iszero\n      tag_371\n      jumpi\n        /* \"tronbox/contracts/SmartGenie.sol\":12338:12346  userList */\n      0x0b\n        /* \"tronbox/contracts/SmartGenie.sol\":12338:12349  userList[1] */\n      0x00\n        /* \"tronbox/contracts/SmartGenie.sol\":12347:12348  1 */\n      0x01\n        /* \"tronbox/contracts/SmartGenie.sol\":12338:12349  userList[1] */\n      dup2\n      mstore\n      0x20\n      add\n      swap1\n      dup2\n      mstore\n      0x20\n      add\n      0x00\n      keccak256\n      0x00\n      swap1\n      sload\n      swap1\n      0x0100\n      exp\n      swap1\n      div\n      0xffffffffffffffffffffffffffffffffffffffff\n      and\n        /* \"tronbox/contracts/SmartGenie.sol\":12323:12349  secReferrer == userList[1] */\n      0xffffffffffffffffffffffffffffffffffffffff\n      and\n        /* \"tronbox/contracts/SmartGenie.sol\":12323:12334  secReferrer */\n      dup3\n        /* \"tronbox/contracts/SmartGenie.sol\":12323:12349  secReferrer == userList[1] */\n      0xffffffffffffffffffffffffffffffffffffffff\n      and\n      eq\n        /* \"tronbox/contracts/SmartGenie.sol\":12320:12421  if(secReferrer == userList[1]) {... */\n      iszero\n      tag_373\n      jumpi\n        /* \"tronbox/contracts/SmartGenie.sol\":12385:12390  break */\n      jump(tag_371)\n        /* \"tronbox/contracts/SmartGenie.sol\":12320:12421  if(secReferrer == userList[1]) {... */\n    tag_373:\n        /* \"tronbox/contracts/SmartGenie.sol\":12464:12472  userList */\n      0x0b\n        /* \"tronbox/contracts/SmartGenie.sol\":12464:12503  userList[users[secReferrer].referrerID] */\n      0x00\n        /* \"tronbox/contracts/SmartGenie.sol\":12473:12478  users */\n      0x0a\n        /* \"tronbox/contracts/SmartGenie.sol\":12473:12491  users[secReferrer] */\n      0x00\n        /* \"tronbox/contracts/SmartGenie.sol\":12479:12490  secReferrer */\n      dup6\n        /* \"tronbox/contracts/SmartGenie.sol\":12473:12491  users[secReferrer] */\n      0xffffffffffffffffffffffffffffffffffffffff\n      and\n      0xffffffffffffffffffffffffffffffffffffffff\n      and\n      dup2\n      mstore\n      0x20\n      add\n      swap1\n      dup2\n      mstore\n      0x20\n      add\n      0x00\n      keccak256\n        /* \"tronbox/contracts/SmartGenie.sol\":12473:12502  users[secReferrer].referrerID */\n      0x02\n      add\n      sload\n        /* \"tronbox/contracts/SmartGenie.sol\":12464:12503  userList[users[secReferrer].referrerID] */\n      dup2\n      mstore\n      0x20\n      add\n      swap1\n      dup2\n      mstore\n      0x20\n      add\n      0x00\n      keccak256\n      0x00\n      swap1\n      sload\n      swap1\n      0x0100\n      exp\n      swap1\n      div\n      0xffffffffffffffffffffffffffffffffffffffff\n      and\n        /* \"tronbox/contracts/SmartGenie.sol\":12450:12503  secReferrer = userList[users[secReferrer].referrerID] */\n      swap2\n      pop\n        /* \"tronbox/contracts/SmartGenie.sol\":12285:12288  j++ */\n      dup1\n      dup1\n      tag_374\n      swap1\n      tag_185\n      jump\t// in\n    tag_374:\n      swap2\n      pop\n      pop\n        /* \"tronbox/contracts/SmartGenie.sol\":12256:12531  for (uint j=1; j< _regLevel; j++) {... */\n      jump(tag_370)\n    tag_371:\n      pop\n        /* \"tronbox/contracts/SmartGenie.sol\":15139:15140  1 */\n      0x01\n        /* \"tronbox/contracts/SmartGenie.sol\":15129:15138  _regLevel */\n      dup11\n        /* \"tronbox/contracts/SmartGenie.sol\":15129:15140  _regLevel+1 */\n      tag_375\n      swap2\n      swap1\n      tag_188\n      jump\t// in\n    tag_375:\n        /* \"tronbox/contracts/SmartGenie.sol\":15109:15126  _levelEligibility */\n      dup10\n        /* \"tronbox/contracts/SmartGenie.sol\":15109:15140  _levelEligibility < _regLevel+1 */\n      lt\n        /* \"tronbox/contracts/SmartGenie.sol\":15106:16060  if(_levelEligibility < _regLevel+1) { ... */\n      iszero\n      tag_376\n      jumpi\n        /* \"tronbox/contracts/SmartGenie.sol\":15173:15178  users */\n      0x0a\n        /* \"tronbox/contracts/SmartGenie.sol\":15173:15191  users[secReferrer] */\n      0x00\n        /* \"tronbox/contracts/SmartGenie.sol\":15179:15190  secReferrer */\n      dup3\n        /* \"tronbox/contracts/SmartGenie.sol\":15173:15191  users[secReferrer] */\n      0xffffffffffffffffffffffffffffffffffffffff\n      and\n      0xffffffffffffffffffffffffffffffffffffffff\n      and\n      dup2\n      mstore\n      0x20\n      add\n      swap1\n      dup2\n      mstore\n      0x20\n      add\n      0x00\n      keccak256\n        /* \"tronbox/contracts/SmartGenie.sol\":15173:15199  users[secReferrer].isExist */\n      0x00\n      add\n      0x00\n      swap1\n      sload\n      swap1\n      0x0100\n      exp\n      swap1\n      div\n      0xff\n      and\n        /* \"tronbox/contracts/SmartGenie.sol\":15172:15199  !users[secReferrer].isExist */\n      iszero\n        /* \"tronbox/contracts/SmartGenie.sol\":15172:15232  !users[secReferrer].isExist || users[payer1].referrerID == 0 */\n      dup1\n      tag_377\n      jumpi\n      pop\n        /* \"tronbox/contracts/SmartGenie.sol\":15231:15232  0 */\n      0x00\n        /* \"tronbox/contracts/SmartGenie.sol\":15203:15208  users */\n      0x0a\n        /* \"tronbox/contracts/SmartGenie.sol\":15203:15216  users[payer1] */\n      0x00\n        /* \"tronbox/contracts/SmartGenie.sol\":15209:15215  payer1 */\n      dup5\n        /* \"tronbox/contracts/SmartGenie.sol\":15203:15216  users[payer1] */\n      0xffffffffffffffffffffffffffffffffffffffff\n      and\n      0xffffffffffffffffffffffffffffffffffffffff\n      and\n      dup2\n      mstore\n      0x20\n      add\n      swap1\n      dup2\n      mstore\n      0x20\n      add\n      0x00\n      keccak256\n        /* \"tronbox/contracts/SmartGenie.sol\":15203:15227  users[payer1].referrerID */\n      0x02\n      add\n      sload\n        /* \"tronbox/contracts/SmartGenie.sol\":15203:15232  users[payer1].referrerID == 0 */\n      eq\n        /* \"tronbox/contracts/SmartGenie.sol\":15172:15232  !users[secReferrer].isExist || users[payer1].referrerID == 0 */\n    tag_377:\n        /* \"tronbox/contracts/SmartGenie.sol\":15172:15294  !users[secReferrer].isExist || users[payer1].referrerID == 0 || ... */\n      dup1\n      tag_378\n      jumpi\n      pop\n        /* \"tronbox/contracts/SmartGenie.sol\":15293:15294  1 */\n      0x01\n        /* \"tronbox/contracts/SmartGenie.sol\":15265:15270  users */\n      0x0a\n        /* \"tronbox/contracts/SmartGenie.sol\":15265:15278  users[payer1] */\n      0x00\n        /* \"tronbox/contracts/SmartGenie.sol\":15271:15277  payer1 */\n      dup5\n        /* \"tronbox/contracts/SmartGenie.sol\":15265:15278  users[payer1] */\n      0xffffffffffffffffffffffffffffffffffffffff\n      and\n      0xffffffffffffffffffffffffffffffffffffffff\n      and\n      dup2\n      mstore\n      0x20\n      add\n      swap1\n      dup2\n      mstore\n      0x20\n      add\n      0x00\n      keccak256\n        /* \"tronbox/contracts/SmartGenie.sol\":15265:15289  users[payer1].referrerID */\n      0x02\n      add\n      sload\n        /* \"tronbox/contracts/SmartGenie.sol\":15265:15294  users[payer1].referrerID == 1 */\n      eq\n        /* \"tronbox/contracts/SmartGenie.sol\":15172:15294  !users[secReferrer].isExist || users[payer1].referrerID == 0 || ... */\n    tag_378:\n        /* \"tronbox/contracts/SmartGenie.sol\":15169:15782  if(!users[secReferrer].isExist || users[payer1].referrerID == 0 || ... */\n      iszero\n      tag_379\n      jumpi\n        /* \"tronbox/contracts/SmartGenie.sol\":15457:15462  users */\n      0x0a\n        /* \"tronbox/contracts/SmartGenie.sol\":15457:15498  users[userList[users[payer1].referrerID]] */\n      0x00\n        /* \"tronbox/contracts/SmartGenie.sol\":15463:15471  userList */\n      0x0b\n        /* \"tronbox/contracts/SmartGenie.sol\":15463:15497  userList[users[payer1].referrerID] */\n      0x00\n        /* \"tronbox/contracts/SmartGenie.sol\":15472:15477  users */\n      0x0a\n        /* \"tronbox/contracts/SmartGenie.sol\":15472:15485  users[payer1] */\n      0x00\n        /* \"tronbox/contracts/SmartGenie.sol\":15478:15484  payer1 */\n      dup8\n        /* \"tronbox/contracts/SmartGenie.sol\":15472:15485  users[payer1] */\n      0xffffffffffffffffffffffffffffffffffffffff\n      and\n      0xffffffffffffffffffffffffffffffffffffffff\n      and\n      dup2\n      mstore\n      0x20\n      add\n      swap1\n      dup2\n      mstore\n      0x20\n      add\n      0x00\n      keccak256\n        /* \"tronbox/contracts/SmartGenie.sol\":15472:15496  users[payer1].referrerID */\n      0x02\n      add\n      sload\n        /* \"tronbox/contracts/SmartGenie.sol\":15463:15497  userList[users[payer1].referrerID] */\n      dup2\n      mstore\n      0x20\n      add\n      swap1\n      dup2\n      mstore\n      0x20\n      add\n      0x00\n      keccak256\n      0x00\n      swap1\n      sload\n      swap1\n      0x0100\n      exp\n      swap1\n      div\n      0xffffffffffffffffffffffffffffffffffffffff\n      and\n        /* \"tronbox/contracts/SmartGenie.sol\":15457:15498  users[userList[users[payer1].referrerID]] */\n      0xffffffffffffffffffffffffffffffffffffffff\n      and\n      0xffffffffffffffffffffffffffffffffffffffff\n      and\n      dup2\n      mstore\n      0x20\n      add\n      swap1\n      dup2\n      mstore\n      0x20\n      add\n      0x00\n      keccak256\n        /* \"tronbox/contracts/SmartGenie.sol\":15457:15506  users[userList[users[payer1].referrerID]].isExist */\n      0x00\n      add\n      0x00\n      swap1\n      sload\n      swap1\n      0x0100\n      exp\n      swap1\n      div\n      0xff\n      and\n        /* \"tronbox/contracts/SmartGenie.sol\":15453:15721  if(!users[userList[users[payer1].referrerID]].isExist) { ... */\n      tag_380\n      jumpi\n        /* \"tronbox/contracts/SmartGenie.sol\":15560:15568  userList */\n      0x0b\n        /* \"tronbox/contracts/SmartGenie.sol\":15560:15571  userList[1] */\n      0x00\n        /* \"tronbox/contracts/SmartGenie.sol\":15569:15570  1 */\n      0x01\n        /* \"tronbox/contracts/SmartGenie.sol\":15560:15571  userList[1] */\n      dup2\n      mstore\n      0x20\n      add\n      swap1\n      dup2\n      mstore\n      0x20\n      add\n      0x00\n      keccak256\n      0x00\n      swap1\n      sload\n      swap1\n      0x0100\n      exp\n      swap1\n      div\n      0xffffffffffffffffffffffffffffffffffffffff\n      and\n        /* \"tronbox/contracts/SmartGenie.sol\":15543:15571  _eligiblePayer = userList[1] */\n      swap6\n      pop\n        /* \"tronbox/contracts/SmartGenie.sol\":15453:15721  if(!users[userList[users[payer1].referrerID]].isExist) { ... */\n      jump(tag_381)\n    tag_380:\n        /* \"tronbox/contracts/SmartGenie.sol\":15656:15664  userList */\n      0x0b\n        /* \"tronbox/contracts/SmartGenie.sol\":15656:15690  userList[users[payer1].referrerID] */\n      0x00\n        /* \"tronbox/contracts/SmartGenie.sol\":15665:15670  users */\n      0x0a\n        /* \"tronbox/contracts/SmartGenie.sol\":15665:15678  users[payer1] */\n      0x00\n        /* \"tronbox/contracts/SmartGenie.sol\":15671:15677  payer1 */\n      dup6\n        /* \"tronbox/contracts/SmartGenie.sol\":15665:15678  users[payer1] */\n      0xffffffffffffffffffffffffffffffffffffffff\n      and\n      0xffffffffffffffffffffffffffffffffffffffff\n      and\n      dup2\n      mstore\n      0x20\n      add\n      swap1\n      dup2\n      mstore\n      0x20\n      add\n      0x00\n      keccak256\n        /* \"tronbox/contracts/SmartGenie.sol\":15665:15689  users[payer1].referrerID */\n      0x02\n      add\n      sload\n        /* \"tronbox/contracts/SmartGenie.sol\":15656:15690  userList[users[payer1].referrerID] */\n      dup2\n      mstore\n      0x20\n      add\n      swap1\n      dup2\n      mstore\n      0x20\n      add\n      0x00\n      keccak256\n      0x00\n      swap1\n      sload\n      swap1\n      0x0100\n      exp\n      swap1\n      div\n      0xffffffffffffffffffffffffffffffffffffffff\n      and\n        /* \"tronbox/contracts/SmartGenie.sol\":15639:15690  _eligiblePayer = userList[users[payer1].referrerID] */\n      swap6\n      pop\n        /* \"tronbox/contracts/SmartGenie.sol\":15453:15721  if(!users[userList[users[payer1].referrerID]].isExist) { ... */\n    tag_381:\n        /* \"tronbox/contracts/SmartGenie.sol\":15750:15755  break */\n      pop\n      pop\n      pop\n      jump(tag_361)\n        /* \"tronbox/contracts/SmartGenie.sol\":15169:15782  if(!users[secReferrer].isExist || users[payer1].referrerID == 0 || ... */\n    tag_379:\n        /* \"tronbox/contracts/SmartGenie.sol\":15824:15835  secReferrer */\n      dup1\n        /* \"tronbox/contracts/SmartGenie.sol\":15808:15835  _tempreferrer = secReferrer */\n      swap5\n      pop\n        /* \"tronbox/contracts/SmartGenie.sol\":15879:15890  secReferrer */\n      dup1\n        /* \"tronbox/contracts/SmartGenie.sol\":15862:15890  _eligiblePayer = secReferrer */\n      swap6\n      pop\n        /* \"tronbox/contracts/SmartGenie.sol\":15106:16060  if(_levelEligibility < _regLevel+1) { ... */\n      jump(tag_382)\n    tag_376:\n        /* \"tronbox/contracts/SmartGenie.sol\":15990:16003  _tempreferrer */\n      dup5\n        /* \"tronbox/contracts/SmartGenie.sol\":15973:16003  _eligiblePayer = _tempreferrer */\n      swap6\n      pop\n        /* \"tronbox/contracts/SmartGenie.sol\":16031:16036  break */\n      pop\n      pop\n      pop\n      jump(tag_361)\n        /* \"tronbox/contracts/SmartGenie.sol\":15106:16060  if(_levelEligibility < _regLevel+1) { ... */\n    tag_382:\n        /* \"tronbox/contracts/SmartGenie.sol\":11845:16082  {... */\n      pop\n      pop\n      pop\n        /* \"tronbox/contracts/SmartGenie.sol\":11547:11550  i++ */\n      dup1\n      dup1\n      tag_383\n      swap1\n      tag_384\n      jump\t// in\n    tag_383:\n      swap2\n      pop\n      pop\n        /* \"tronbox/contracts/SmartGenie.sol\":11529:16100  for(int i=0; i<9; i++) { ... */\n      jump(tag_360)\n    tag_361:\n      pop\n        /* \"tronbox/contracts/SmartGenie.sol\":16195:16196  1 */\n      0x01\n        /* \"tronbox/contracts/SmartGenie.sol\":16155:16160  users */\n      0x0a\n        /* \"tronbox/contracts/SmartGenie.sol\":16155:16171  users[_referrer] */\n      0x00\n        /* \"tronbox/contracts/SmartGenie.sol\":16161:16170  _referrer */\n      dup10\n        /* \"tronbox/contracts/SmartGenie.sol\":16155:16171  users[_referrer] */\n      0xffffffffffffffffffffffffffffffffffffffff\n      and\n      0xffffffffffffffffffffffffffffffffffffffff\n      and\n      dup2\n      mstore\n      0x20\n      add\n      swap1\n      dup2\n      mstore\n      0x20\n      add\n      0x00\n      keccak256\n        /* \"tronbox/contracts/SmartGenie.sol\":16155:16183  users[_referrer].incomeCount */\n      0x05\n      add\n        /* \"tronbox/contracts/SmartGenie.sol\":16155:16194  users[_referrer].incomeCount[_regLevel] */\n      0x00\n        /* \"tronbox/contracts/SmartGenie.sol\":16184:16193  _regLevel */\n      dup9\n        /* \"tronbox/contracts/SmartGenie.sol\":16155:16194  users[_referrer].incomeCount[_regLevel] */\n      dup2\n      mstore\n      0x20\n      add\n      swap1\n      dup2\n      mstore\n      0x20\n      add\n      0x00\n      keccak256\n      sload\n        /* \"tronbox/contracts/SmartGenie.sol\":16155:16196  users[_referrer].incomeCount[_regLevel]+1 */\n      tag_385\n      swap2\n      swap1\n      tag_188\n      jump\t// in\n    tag_385:\n        /* \"tronbox/contracts/SmartGenie.sol\":16113:16118  users */\n      0x0a\n        /* \"tronbox/contracts/SmartGenie.sol\":16113:16129  users[_referrer] */\n      0x00\n        /* \"tronbox/contracts/SmartGenie.sol\":16119:16128  _referrer */\n      dup10\n        /* \"tronbox/contracts/SmartGenie.sol\":16113:16129  users[_referrer] */\n      0xffffffffffffffffffffffffffffffffffffffff\n      and\n      0xffffffffffffffffffffffffffffffffffffffff\n      and\n      dup2\n      mstore\n      0x20\n      add\n      swap1\n      dup2\n      mstore\n      0x20\n      add\n      0x00\n      keccak256\n        /* \"tronbox/contracts/SmartGenie.sol\":16113:16141  users[_referrer].incomeCount */\n      0x05\n      add\n        /* \"tronbox/contracts/SmartGenie.sol\":16113:16152  users[_referrer].incomeCount[_regLevel] */\n      0x00\n        /* \"tronbox/contracts/SmartGenie.sol\":16142:16151  _regLevel */\n      dup9\n        /* \"tronbox/contracts/SmartGenie.sol\":16113:16152  users[_referrer].incomeCount[_regLevel] */\n      dup2\n      mstore\n      0x20\n      add\n      swap1\n      dup2\n      mstore\n      0x20\n      add\n      0x00\n      keccak256\n        /* \"tronbox/contracts/SmartGenie.sol\":16113:16196  users[_referrer].incomeCount[_regLevel] = users[_referrer].incomeCount[_regLevel]+1 */\n      dup2\n      swap1\n      sstore\n      pop\n        /* \"tronbox/contracts/SmartGenie.sol\":16219:16233  _eligiblePayer */\n      dup2\n        /* \"tronbox/contracts/SmartGenie.sol\":16235:16244  _referrer */\n      dup8\n        /* \"tronbox/contracts/SmartGenie.sol\":16211:16245  return (_eligiblePayer, _referrer) */\n      swap4\n      pop\n      swap4\n      pop\n      pop\n      pop\n        /* \"tronbox/contracts/SmartGenie.sol\":11228:16252  function findEligiblePayer(address _referrer, uint256 _regLevel, uint256 _levelEligibility) internal returns (address, address){... */\n      swap4\n      pop\n      swap4\n      swap2\n      pop\n      pop\n      jump\t// out\n        /* \"tronbox/contracts/SmartGenie.sol\":19129:20672  function isLevelUpgradeFromSameLeg(address _payer, address _existingReferrer, address _newReferrer) ... */\n    tag_317:\n        /* \"tronbox/contracts/SmartGenie.sol\":19264:19268  bool */\n      0x00\n        /* \"tronbox/contracts/SmartGenie.sol\":19279:19293  bool isSameLeg */\n      dup1\n        /* \"tronbox/contracts/SmartGenie.sol\":19296:19301  false */\n      0x00\n        /* \"tronbox/contracts/SmartGenie.sol\":19279:19301  bool isSameLeg = false */\n      swap1\n      pop\n        /* \"tronbox/contracts/SmartGenie.sol\":19320:19351  address[] memory payerReferrals */\n      0x00\n        /* \"tronbox/contracts/SmartGenie.sol\":19354:19378  getUserReferrals(_payer) */\n      tag_387\n        /* \"tronbox/contracts/SmartGenie.sol\":19371:19377  _payer */\n      dup7\n        /* \"tronbox/contracts/SmartGenie.sol\":19354:19370  getUserReferrals */\n      tag_54\n        /* \"tronbox/contracts/SmartGenie.sol\":19354:19378  getUserReferrals(_payer) */\n      jump\t// in\n    tag_387:\n        /* \"tronbox/contracts/SmartGenie.sol\":19320:19378  address[] memory payerReferrals = getUserReferrals(_payer) */\n      swap1\n      pop\n        /* \"tronbox/contracts/SmartGenie.sol\":19388:19404  address firstLeg */\n      0x00\n        /* \"tronbox/contracts/SmartGenie.sol\":19407:19424  _existingReferrer */\n      dup6\n        /* \"tronbox/contracts/SmartGenie.sol\":19388:19424  address firstLeg = _existingReferrer */\n      swap1\n      pop\n        /* \"tronbox/contracts/SmartGenie.sol\":19435:19452  address secondLeg */\n      0x00\n        /* \"tronbox/contracts/SmartGenie.sol\":19455:19467  _newReferrer */\n      dup6\n        /* \"tronbox/contracts/SmartGenie.sol\":19435:19467  address secondLeg = _newReferrer */\n      swap1\n      pop\n        /* \"tronbox/contracts/SmartGenie.sol\":19486:19507  address tempReferrer1 */\n      0x00\n        /* \"tronbox/contracts/SmartGenie.sol\":19510:19518  userList */\n      0x0b\n        /* \"tronbox/contracts/SmartGenie.sol\":19510:19546  userList[users[firstLeg].referrerID] */\n      0x00\n        /* \"tronbox/contracts/SmartGenie.sol\":19519:19524  users */\n      0x0a\n        /* \"tronbox/contracts/SmartGenie.sol\":19519:19534  users[firstLeg] */\n      0x00\n        /* \"tronbox/contracts/SmartGenie.sol\":19525:19533  firstLeg */\n      dup7\n        /* \"tronbox/contracts/SmartGenie.sol\":19519:19534  users[firstLeg] */\n      0xffffffffffffffffffffffffffffffffffffffff\n      and\n      0xffffffffffffffffffffffffffffffffffffffff\n      and\n      dup2\n      mstore\n      0x20\n      add\n      swap1\n      dup2\n      mstore\n      0x20\n      add\n      0x00\n      keccak256\n        /* \"tronbox/contracts/SmartGenie.sol\":19519:19545  users[firstLeg].referrerID */\n      0x02\n      add\n      sload\n        /* \"tronbox/contracts/SmartGenie.sol\":19510:19546  userList[users[firstLeg].referrerID] */\n      dup2\n      mstore\n      0x20\n      add\n      swap1\n      dup2\n      mstore\n      0x20\n      add\n      0x00\n      keccak256\n      0x00\n      swap1\n      sload\n      swap1\n      0x0100\n      exp\n      swap1\n      div\n      0xffffffffffffffffffffffffffffffffffffffff\n      and\n        /* \"tronbox/contracts/SmartGenie.sol\":19486:19546  address tempReferrer1 = userList[users[firstLeg].referrerID] */\n      swap1\n      pop\n        /* \"tronbox/contracts/SmartGenie.sol\":19561:19566  int i */\n      0x00\n        /* \"tronbox/contracts/SmartGenie.sol\":19557:20017  for(int i=0; i<12; i++) { ... */\n    tag_388:\n        /* \"tronbox/contracts/SmartGenie.sol\":19572:19574  12 */\n      0x0c\n        /* \"tronbox/contracts/SmartGenie.sol\":19570:19571  i */\n      dup2\n        /* \"tronbox/contracts/SmartGenie.sol\":19570:19574  i<12 */\n      slt\n        /* \"tronbox/contracts/SmartGenie.sol\":19557:20017  for(int i=0; i<12; i++) { ... */\n      iszero\n      tag_389\n      jumpi\n        /* \"tronbox/contracts/SmartGenie.sol\":19596:19614  bool foundReferrer */\n      0x00\n        /* \"tronbox/contracts/SmartGenie.sol\":19646:19652  uint j */\n      dup1\n        /* \"tronbox/contracts/SmartGenie.sol\":19641:19895  for (uint j=0; j<payerReferrals.length; j++) {... */\n    tag_391:\n        /* \"tronbox/contracts/SmartGenie.sol\":19658:19672  payerReferrals */\n      dup7\n        /* \"tronbox/contracts/SmartGenie.sol\":19658:19679  payerReferrals.length */\n      mload\n        /* \"tronbox/contracts/SmartGenie.sol\":19656:19657  j */\n      dup2\n        /* \"tronbox/contracts/SmartGenie.sol\":19656:19679  j<payerReferrals.length */\n      lt\n        /* \"tronbox/contracts/SmartGenie.sol\":19641:19895  for (uint j=0; j<payerReferrals.length; j++) {... */\n      iszero\n      tag_392\n      jumpi\n        /* \"tronbox/contracts/SmartGenie.sol\":19724:19738  payerReferrals */\n      dup7\n        /* \"tronbox/contracts/SmartGenie.sol\":19739:19740  j */\n      dup2\n        /* \"tronbox/contracts/SmartGenie.sol\":19724:19741  payerReferrals[j] */\n      dup2\n      mload\n      dup2\n      lt\n      tag_394\n      jumpi\n      tag_395\n      tag_211\n      jump\t// in\n    tag_395:\n    tag_394:\n      0x20\n      mul\n      0x20\n      add\n      add\n      mload\n        /* \"tronbox/contracts/SmartGenie.sol\":19707:19741  tempReferrer1 == payerReferrals[j] */\n      0xffffffffffffffffffffffffffffffffffffffff\n      and\n        /* \"tronbox/contracts/SmartGenie.sol\":19707:19720  tempReferrer1 */\n      dup5\n        /* \"tronbox/contracts/SmartGenie.sol\":19707:19741  tempReferrer1 == payerReferrals[j] */\n      0xffffffffffffffffffffffffffffffffffffffff\n      and\n      eq\n        /* \"tronbox/contracts/SmartGenie.sol\":19704:19881  if(tempReferrer1 == payerReferrals[j]) {... */\n      iszero\n      tag_396\n      jumpi\n        /* \"tronbox/contracts/SmartGenie.sol\":19776:19790  payerReferrals */\n      dup7\n        /* \"tronbox/contracts/SmartGenie.sol\":19791:19792  j */\n      dup2\n        /* \"tronbox/contracts/SmartGenie.sol\":19776:19793  payerReferrals[j] */\n      dup2\n      mload\n      dup2\n      lt\n      tag_397\n      jumpi\n      tag_398\n      tag_211\n      jump\t// in\n    tag_398:\n    tag_397:\n      0x20\n      mul\n      0x20\n      add\n      add\n      mload\n        /* \"tronbox/contracts/SmartGenie.sol\":19765:19793  firstLeg = payerReferrals[j] */\n      swap6\n      pop\n        /* \"tronbox/contracts/SmartGenie.sol\":19831:19835  true */\n      0x01\n        /* \"tronbox/contracts/SmartGenie.sol\":19815:19835  foundReferrer = true */\n      swap2\n      pop\n        /* \"tronbox/contracts/SmartGenie.sol\":19857:19862  break */\n      jump(tag_392)\n        /* \"tronbox/contracts/SmartGenie.sol\":19704:19881  if(tempReferrer1 == payerReferrals[j]) {... */\n    tag_396:\n        /* \"tronbox/contracts/SmartGenie.sol\":19681:19684  j++ */\n      dup1\n      dup1\n      tag_399\n      swap1\n      tag_185\n      jump\t// in\n    tag_399:\n      swap2\n      pop\n      pop\n        /* \"tronbox/contracts/SmartGenie.sol\":19641:19895  for (uint j=0; j<payerReferrals.length; j++) {... */\n      jump(tag_391)\n    tag_392:\n      pop\n        /* \"tronbox/contracts/SmartGenie.sol\":19911:19924  foundReferrer */\n      dup1\n        /* \"tronbox/contracts/SmartGenie.sol\":19908:19935  if(foundReferrer) { break;} */\n      iszero\n      tag_400\n      jumpi\n        /* \"tronbox/contracts/SmartGenie.sol\":19928:19933  break */\n      pop\n      jump(tag_389)\n        /* \"tronbox/contracts/SmartGenie.sol\":19908:19935  if(foundReferrer) { break;} */\n    tag_400:\n        /* \"tronbox/contracts/SmartGenie.sol\":19965:19973  userList */\n      0x0b\n        /* \"tronbox/contracts/SmartGenie.sol\":19965:20006  userList[users[tempReferrer1].referrerID] */\n      0x00\n        /* \"tronbox/contracts/SmartGenie.sol\":19974:19979  users */\n      0x0a\n        /* \"tronbox/contracts/SmartGenie.sol\":19974:19994  users[tempReferrer1] */\n      0x00\n        /* \"tronbox/contracts/SmartGenie.sol\":19980:19993  tempReferrer1 */\n      dup7\n        /* \"tronbox/contracts/SmartGenie.sol\":19974:19994  users[tempReferrer1] */\n      0xffffffffffffffffffffffffffffffffffffffff\n      and\n      0xffffffffffffffffffffffffffffffffffffffff\n      and\n      dup2\n      mstore\n      0x20\n      add\n      swap1\n      dup2\n      mstore\n      0x20\n      add\n      0x00\n      keccak256\n        /* \"tronbox/contracts/SmartGenie.sol\":19974:20005  users[tempReferrer1].referrerID */\n      0x02\n      add\n      sload\n        /* \"tronbox/contracts/SmartGenie.sol\":19965:20006  userList[users[tempReferrer1].referrerID] */\n      dup2\n      mstore\n      0x20\n      add\n      swap1\n      dup2\n      mstore\n      0x20\n      add\n      0x00\n      keccak256\n      0x00\n      swap1\n      sload\n      swap1\n      0x0100\n      exp\n      swap1\n      div\n      0xffffffffffffffffffffffffffffffffffffffff\n      and\n        /* \"tronbox/contracts/SmartGenie.sol\":19948:20006  tempReferrer1 =  userList[users[tempReferrer1].referrerID] */\n      swap3\n      pop\n        /* \"tronbox/contracts/SmartGenie.sol\":19581:20017  { ... */\n      pop\n        /* \"tronbox/contracts/SmartGenie.sol\":19576:19579  i++ */\n      dup1\n      dup1\n      tag_401\n      swap1\n      tag_384\n      jump\t// in\n    tag_401:\n      swap2\n      pop\n      pop\n        /* \"tronbox/contracts/SmartGenie.sol\":19557:20017  for(int i=0; i<12; i++) { ... */\n      jump(tag_388)\n    tag_389:\n      pop\n        /* \"tronbox/contracts/SmartGenie.sol\":20035:20056  address tempReferrer2 */\n      0x00\n        /* \"tronbox/contracts/SmartGenie.sol\":20059:20067  userList */\n      0x0b\n        /* \"tronbox/contracts/SmartGenie.sol\":20059:20096  userList[users[secondLeg].referrerID] */\n      0x00\n        /* \"tronbox/contracts/SmartGenie.sol\":20068:20073  users */\n      0x0a\n        /* \"tronbox/contracts/SmartGenie.sol\":20068:20084  users[secondLeg] */\n      0x00\n        /* \"tronbox/contracts/SmartGenie.sol\":20074:20083  secondLeg */\n      dup7\n        /* \"tronbox/contracts/SmartGenie.sol\":20068:20084  users[secondLeg] */\n      0xffffffffffffffffffffffffffffffffffffffff\n      and\n      0xffffffffffffffffffffffffffffffffffffffff\n      and\n      dup2\n      mstore\n      0x20\n      add\n      swap1\n      dup2\n      mstore\n      0x20\n      add\n      0x00\n      keccak256\n        /* \"tronbox/contracts/SmartGenie.sol\":20068:20095  users[secondLeg].referrerID */\n      0x02\n      add\n      sload\n        /* \"tronbox/contracts/SmartGenie.sol\":20059:20096  userList[users[secondLeg].referrerID] */\n      dup2\n      mstore\n      0x20\n      add\n      swap1\n      dup2\n      mstore\n      0x20\n      add\n      0x00\n      keccak256\n      0x00\n      swap1\n      sload\n      swap1\n      0x0100\n      exp\n      swap1\n      div\n      0xffffffffffffffffffffffffffffffffffffffff\n      and\n        /* \"tronbox/contracts/SmartGenie.sol\":20035:20096  address tempReferrer2 = userList[users[secondLeg].referrerID] */\n      swap1\n      pop\n        /* \"tronbox/contracts/SmartGenie.sol\":20111:20116  int i */\n      0x00\n        /* \"tronbox/contracts/SmartGenie.sol\":20107:20569  for(int i=0; i<12; i++) { ... */\n    tag_402:\n        /* \"tronbox/contracts/SmartGenie.sol\":20122:20124  12 */\n      0x0c\n        /* \"tronbox/contracts/SmartGenie.sol\":20120:20121  i */\n      dup2\n        /* \"tronbox/contracts/SmartGenie.sol\":20120:20124  i<12 */\n      slt\n        /* \"tronbox/contracts/SmartGenie.sol\":20107:20569  for(int i=0; i<12; i++) { ... */\n      iszero\n      tag_403\n      jumpi\n        /* \"tronbox/contracts/SmartGenie.sol\":20146:20164  bool foundReferrer */\n      0x00\n        /* \"tronbox/contracts/SmartGenie.sol\":20196:20202  uint j */\n      dup1\n        /* \"tronbox/contracts/SmartGenie.sol\":20191:20446  for (uint j=0; j<payerReferrals.length; j++) {... */\n    tag_405:\n        /* \"tronbox/contracts/SmartGenie.sol\":20208:20222  payerReferrals */\n      dup8\n        /* \"tronbox/contracts/SmartGenie.sol\":20208:20229  payerReferrals.length */\n      mload\n        /* \"tronbox/contracts/SmartGenie.sol\":20206:20207  j */\n      dup2\n        /* \"tronbox/contracts/SmartGenie.sol\":20206:20229  j<payerReferrals.length */\n      lt\n        /* \"tronbox/contracts/SmartGenie.sol\":20191:20446  for (uint j=0; j<payerReferrals.length; j++) {... */\n      iszero\n      tag_406\n      jumpi\n        /* \"tronbox/contracts/SmartGenie.sol\":20274:20288  payerReferrals */\n      dup8\n        /* \"tronbox/contracts/SmartGenie.sol\":20289:20290  j */\n      dup2\n        /* \"tronbox/contracts/SmartGenie.sol\":20274:20291  payerReferrals[j] */\n      dup2\n      mload\n      dup2\n      lt\n      tag_408\n      jumpi\n      tag_409\n      tag_211\n      jump\t// in\n    tag_409:\n    tag_408:\n      0x20\n      mul\n      0x20\n      add\n      add\n      mload\n        /* \"tronbox/contracts/SmartGenie.sol\":20257:20291  tempReferrer2 == payerReferrals[j] */\n      0xffffffffffffffffffffffffffffffffffffffff\n      and\n        /* \"tronbox/contracts/SmartGenie.sol\":20257:20270  tempReferrer2 */\n      dup5\n        /* \"tronbox/contracts/SmartGenie.sol\":20257:20291  tempReferrer2 == payerReferrals[j] */\n      0xffffffffffffffffffffffffffffffffffffffff\n      and\n      eq\n        /* \"tronbox/contracts/SmartGenie.sol\":20254:20432  if(tempReferrer2 == payerReferrals[j]) {... */\n      iszero\n      tag_410\n      jumpi\n        /* \"tronbox/contracts/SmartGenie.sol\":20327:20341  payerReferrals */\n      dup8\n        /* \"tronbox/contracts/SmartGenie.sol\":20342:20343  j */\n      dup2\n        /* \"tronbox/contracts/SmartGenie.sol\":20327:20344  payerReferrals[j] */\n      dup2\n      mload\n      dup2\n      lt\n      tag_411\n      jumpi\n      tag_412\n      tag_211\n      jump\t// in\n    tag_412:\n    tag_411:\n      0x20\n      mul\n      0x20\n      add\n      add\n      mload\n        /* \"tronbox/contracts/SmartGenie.sol\":20315:20344  secondLeg = payerReferrals[j] */\n      swap6\n      pop\n        /* \"tronbox/contracts/SmartGenie.sol\":20382:20386  true */\n      0x01\n        /* \"tronbox/contracts/SmartGenie.sol\":20366:20386  foundReferrer = true */\n      swap2\n      pop\n        /* \"tronbox/contracts/SmartGenie.sol\":20408:20413  break */\n      jump(tag_406)\n        /* \"tronbox/contracts/SmartGenie.sol\":20254:20432  if(tempReferrer2 == payerReferrals[j]) {... */\n    tag_410:\n        /* \"tronbox/contracts/SmartGenie.sol\":20231:20234  j++ */\n      dup1\n      dup1\n      tag_413\n      swap1\n      tag_185\n      jump\t// in\n    tag_413:\n      swap2\n      pop\n      pop\n        /* \"tronbox/contracts/SmartGenie.sol\":20191:20446  for (uint j=0; j<payerReferrals.length; j++) {... */\n      jump(tag_405)\n    tag_406:\n      pop\n        /* \"tronbox/contracts/SmartGenie.sol\":20462:20475  foundReferrer */\n      dup1\n        /* \"tronbox/contracts/SmartGenie.sol\":20459:20486  if(foundReferrer) { break;} */\n      iszero\n      tag_414\n      jumpi\n        /* \"tronbox/contracts/SmartGenie.sol\":20479:20484  break */\n      pop\n      jump(tag_403)\n        /* \"tronbox/contracts/SmartGenie.sol\":20459:20486  if(foundReferrer) { break;} */\n    tag_414:\n        /* \"tronbox/contracts/SmartGenie.sol\":20516:20524  userList */\n      0x0b\n        /* \"tronbox/contracts/SmartGenie.sol\":20516:20557  userList[users[tempReferrer2].referrerID] */\n      0x00\n        /* \"tronbox/contracts/SmartGenie.sol\":20525:20530  users */\n      0x0a\n        /* \"tronbox/contracts/SmartGenie.sol\":20525:20545  users[tempReferrer2] */\n      0x00\n        /* \"tronbox/contracts/SmartGenie.sol\":20531:20544  tempReferrer2 */\n      dup7\n        /* \"tronbox/contracts/SmartGenie.sol\":20525:20545  users[tempReferrer2] */\n      0xffffffffffffffffffffffffffffffffffffffff\n      and\n      0xffffffffffffffffffffffffffffffffffffffff\n      and\n      dup2\n      mstore\n      0x20\n      add\n      swap1\n      dup2\n      mstore\n      0x20\n      add\n      0x00\n      keccak256\n        /* \"tronbox/contracts/SmartGenie.sol\":20525:20556  users[tempReferrer2].referrerID */\n      0x02\n      add\n      sload\n        /* \"tronbox/contracts/SmartGenie.sol\":20516:20557  userList[users[tempReferrer2].referrerID] */\n      dup2\n      mstore\n      0x20\n      add\n      swap1\n      dup2\n      mstore\n      0x20\n      add\n      0x00\n      keccak256\n      0x00\n      swap1\n      sload\n      swap1\n      0x0100\n      exp\n      swap1\n      div\n      0xffffffffffffffffffffffffffffffffffffffff\n      and\n        /* \"tronbox/contracts/SmartGenie.sol\":20500:20557  tempReferrer2 = userList[users[tempReferrer2].referrerID] */\n      swap3\n      pop\n        /* \"tronbox/contracts/SmartGenie.sol\":20131:20569  { ... */\n      pop\n        /* \"tronbox/contracts/SmartGenie.sol\":20126:20129  i++ */\n      dup1\n      dup1\n      tag_415\n      swap1\n      tag_384\n      jump\t// in\n    tag_415:\n      swap2\n      pop\n      pop\n        /* \"tronbox/contracts/SmartGenie.sol\":20107:20569  for(int i=0; i<12; i++) { ... */\n      jump(tag_402)\n    tag_403:\n      pop\n        /* \"tronbox/contracts/SmartGenie.sol\":20602:20611  secondLeg */\n      dup3\n        /* \"tronbox/contracts/SmartGenie.sol\":20590:20611  firstLeg == secondLeg */\n      0xffffffffffffffffffffffffffffffffffffffff\n      and\n        /* \"tronbox/contracts/SmartGenie.sol\":20590:20598  firstLeg */\n      dup5\n        /* \"tronbox/contracts/SmartGenie.sol\":20590:20611  firstLeg == secondLeg */\n      0xffffffffffffffffffffffffffffffffffffffff\n      and\n      eq\n        /* \"tronbox/contracts/SmartGenie.sol\":20587:20632  if(firstLeg == secondLeg) {isSameLeg = true;} */\n      iszero\n      tag_416\n      jumpi\n        /* \"tronbox/contracts/SmartGenie.sol\":20626:20630  true */\n      0x01\n        /* \"tronbox/contracts/SmartGenie.sol\":20614:20630  isSameLeg = true */\n      swap6\n      pop\n        /* \"tronbox/contracts/SmartGenie.sol\":20587:20632  if(firstLeg == secondLeg) {isSameLeg = true;} */\n    tag_416:\n        /* \"tronbox/contracts/SmartGenie.sol\":20650:20659  isSameLeg */\n      dup6\n        /* \"tronbox/contracts/SmartGenie.sol\":20642:20659  return  isSameLeg */\n      swap7\n      pop\n      pop\n      pop\n      pop\n      pop\n      pop\n      pop\n        /* \"tronbox/contracts/SmartGenie.sol\":19129:20672  function isLevelUpgradeFromSameLeg(address _payer, address _existingReferrer, address _newReferrer) ... */\n      swap4\n      swap3\n      pop\n      pop\n      pop\n      jump\t// out\n    tag_178:\n      dup3\n      dup1\n      sload\n      dup3\n      dup3\n      sstore\n      swap1\n      0x00\n      mstore\n      keccak256(0x00, 0x20)\n      swap1\n      dup2\n      add\n      swap3\n      dup3\n      iszero\n      tag_417\n      jumpi\n      swap2\n      0x20\n      mul\n      dup3\n      add\n    tag_418:\n      dup3\n      dup2\n      gt\n      iszero\n      tag_419\n      jumpi\n      dup3\n      mload\n      dup3\n      exp(0x0100, 0x00)\n      dup2\n      sload\n      dup2\n      0xffffffffffffffffffffffffffffffffffffffff\n      mul\n      not\n      and\n      swap1\n      dup4\n      0xffffffffffffffffffffffffffffffffffffffff\n      and\n      mul\n      or\n      swap1\n      sstore\n      pop\n      swap2\n      0x20\n      add\n      swap2\n      swap1\n      0x01\n      add\n      swap1\n      jump(tag_418)\n    tag_419:\n    tag_417:\n      pop\n      swap1\n      pop\n      tag_420\n      swap2\n      swap1\n      tag_421\n      jump\t// in\n    tag_420:\n      pop\n      swap1\n      jump\t// out\n    tag_183:\n      dup3\n      dup1\n      sload\n      dup3\n      dup3\n      sstore\n      swap1\n      0x00\n      mstore\n      keccak256(0x00, 0x20)\n      swap1\n      dup2\n      add\n      swap3\n      dup3\n      iszero\n      tag_422\n      jumpi\n      swap2\n      0x20\n      mul\n      dup3\n      add\n    tag_423:\n      dup3\n      dup2\n      gt\n      iszero\n      tag_424\n      jumpi\n      dup3\n      mload\n      dup3\n      sstore\n      swap2\n      0x20\n      add\n      swap2\n      swap1\n      0x01\n      add\n      swap1\n      jump(tag_423)\n    tag_424:\n    tag_422:\n      pop\n      swap1\n      pop\n      tag_425\n      swap2\n      swap1\n      tag_421\n      jump\t// in\n    tag_425:\n      pop\n      swap1\n      jump\t// out\n    tag_421:\n    tag_426:\n      dup1\n      dup3\n      gt\n      iszero\n      tag_427\n      jumpi\n      0x00\n      dup2\n      0x00\n      swap1\n      sstore\n      pop\n      0x01\n      add\n      jump(tag_426)\n    tag_427:\n      pop\n      swap1\n      jump\t// out\n        /* \"#utility.yul\":88:205   */\n    tag_429:\n        /* \"#utility.yul\":197:198   */\n      0x00\n        /* \"#utility.yul\":194:195   */\n      dup1\n        /* \"#utility.yul\":187:199   */\n      revert\n        /* \"#utility.yul\":334:411   */\n    tag_431:\n        /* \"#utility.yul\":371:378   */\n      0x00\n        /* \"#utility.yul\":400:405   */\n      dup2\n        /* \"#utility.yul\":389:405   */\n      swap1\n      pop\n        /* \"#utility.yul\":334:411   */\n      swap2\n      swap1\n      pop\n      jump\t// out\n        /* \"#utility.yul\":417:539   */\n    tag_432:\n        /* \"#utility.yul\":490:514   */\n      tag_485\n        /* \"#utility.yul\":508:513   */\n      dup2\n        /* \"#utility.yul\":490:514   */\n      tag_431\n      jump\t// in\n    tag_485:\n        /* \"#utility.yul\":483:488   */\n      dup2\n        /* \"#utility.yul\":480:515   */\n      eq\n        /* \"#utility.yul\":470:533   */\n      tag_486\n      jumpi\n        /* \"#utility.yul\":529:530   */\n      0x00\n        /* \"#utility.yul\":526:527   */\n      dup1\n        /* \"#utility.yul\":519:531   */\n      revert\n        /* \"#utility.yul\":470:533   */\n    tag_486:\n        /* \"#utility.yul\":417:539   */\n      pop\n      jump\t// out\n        /* \"#utility.yul\":545:684   */\n    tag_433:\n        /* \"#utility.yul\":591:596   */\n      0x00\n        /* \"#utility.yul\":629:635   */\n      dup2\n        /* \"#utility.yul\":616:636   */\n      calldataload\n        /* \"#utility.yul\":607:636   */\n      swap1\n      pop\n        /* \"#utility.yul\":645:678   */\n      tag_488\n        /* \"#utility.yul\":672:677   */\n      dup2\n        /* \"#utility.yul\":645:678   */\n      tag_432\n      jump\t// in\n    tag_488:\n        /* \"#utility.yul\":545:684   */\n      swap3\n      swap2\n      pop\n      pop\n      jump\t// out\n        /* \"#utility.yul\":690:1019   */\n    tag_30:\n        /* \"#utility.yul\":749:755   */\n      0x00\n        /* \"#utility.yul\":798:800   */\n      0x20\n        /* \"#utility.yul\":786:795   */\n      dup3\n        /* \"#utility.yul\":777:784   */\n      dup5\n        /* \"#utility.yul\":773:796   */\n      sub\n        /* \"#utility.yul\":769:801   */\n      slt\n        /* \"#utility.yul\":766:885   */\n      iszero\n      tag_490\n      jumpi\n        /* \"#utility.yul\":804:883   */\n      tag_491\n      tag_429\n      jump\t// in\n    tag_491:\n        /* \"#utility.yul\":766:885   */\n    tag_490:\n        /* \"#utility.yul\":924:925   */\n      0x00\n        /* \"#utility.yul\":949:1002   */\n      tag_492\n        /* \"#utility.yul\":994:1001   */\n      dup5\n        /* \"#utility.yul\":985:991   */\n      dup3\n        /* \"#utility.yul\":974:983   */\n      dup6\n        /* \"#utility.yul\":970:992   */\n      add\n        /* \"#utility.yul\":949:1002   */\n      tag_433\n      jump\t// in\n    tag_492:\n        /* \"#utility.yul\":939:1002   */\n      swap2\n      pop\n        /* \"#utility.yul\":895:1012   */\n      pop\n        /* \"#utility.yul\":690:1019   */\n      swap3\n      swap2\n      pop\n      pop\n      jump\t// out\n        /* \"#utility.yul\":1025:1151   */\n    tag_434:\n        /* \"#utility.yul\":1062:1069   */\n      0x00\n        /* \"#utility.yul\":1102:1144   */\n      0xffffffffffffffffffffffffffffffffffffffff\n        /* \"#utility.yul\":1095:1100   */\n      dup3\n        /* \"#utility.yul\":1091:1145   */\n      and\n        /* \"#utility.yul\":1080:1145   */\n      swap1\n      pop\n        /* \"#utility.yul\":1025:1151   */\n      swap2\n      swap1\n      pop\n      jump\t// out\n        /* \"#utility.yul\":1157:1253   */\n    tag_435:\n        /* \"#utility.yul\":1194:1201   */\n      0x00\n        /* \"#utility.yul\":1223:1247   */\n      tag_495\n        /* \"#utility.yul\":1241:1246   */\n      dup3\n        /* \"#utility.yul\":1223:1247   */\n      tag_434\n      jump\t// in\n    tag_495:\n        /* \"#utility.yul\":1212:1247   */\n      swap1\n      pop\n        /* \"#utility.yul\":1157:1253   */\n      swap2\n      swap1\n      pop\n      jump\t// out\n        /* \"#utility.yul\":1259:1377   */\n    tag_436:\n        /* \"#utility.yul\":1346:1370   */\n      tag_497\n        /* \"#utility.yul\":1364:1369   */\n      dup2\n        /* \"#utility.yul\":1346:1370   */\n      tag_435\n      jump\t// in\n    tag_497:\n        /* \"#utility.yul\":1341:1344   */\n      dup3\n        /* \"#utility.yul\":1334:1371   */\n      mstore\n        /* \"#utility.yul\":1259:1377   */\n      pop\n      pop\n      jump\t// out\n        /* \"#utility.yul\":1383:1605   */\n    tag_33:\n        /* \"#utility.yul\":1476:1480   */\n      0x00\n        /* \"#utility.yul\":1514:1516   */\n      0x20\n        /* \"#utility.yul\":1503:1512   */\n      dup3\n        /* \"#utility.yul\":1499:1517   */\n      add\n        /* \"#utility.yul\":1491:1517   */\n      swap1\n      pop\n        /* \"#utility.yul\":1527:1598   */\n      tag_499\n        /* \"#utility.yul\":1595:1596   */\n      0x00\n        /* \"#utility.yul\":1584:1593   */\n      dup4\n        /* \"#utility.yul\":1580:1597   */\n      add\n        /* \"#utility.yul\":1571:1577   */\n      dup5\n        /* \"#utility.yul\":1527:1598   */\n      tag_436\n      jump\t// in\n    tag_499:\n        /* \"#utility.yul\":1383:1605   */\n      swap3\n      swap2\n      pop\n      pop\n      jump\t// out\n        /* \"#utility.yul\":1611:1733   */\n    tag_437:\n        /* \"#utility.yul\":1684:1708   */\n      tag_501\n        /* \"#utility.yul\":1702:1707   */\n      dup2\n        /* \"#utility.yul\":1684:1708   */\n      tag_435\n      jump\t// in\n    tag_501:\n        /* \"#utility.yul\":1677:1682   */\n      dup2\n        /* \"#utility.yul\":1674:1709   */\n      eq\n        /* \"#utility.yul\":1664:1727   */\n      tag_502\n      jumpi\n        /* \"#utility.yul\":1723:1724   */\n      0x00\n        /* \"#utility.yul\":1720:1721   */\n      dup1\n        /* \"#utility.yul\":1713:1725   */\n      revert\n        /* \"#utility.yul\":1664:1727   */\n    tag_502:\n        /* \"#utility.yul\":1611:1733   */\n      pop\n      jump\t// out\n        /* \"#utility.yul\":1739:1878   */\n    tag_438:\n        /* \"#utility.yul\":1785:1790   */\n      0x00\n        /* \"#utility.yul\":1823:1829   */\n      dup2\n        /* \"#utility.yul\":1810:1830   */\n      calldataload\n        /* \"#utility.yul\":1801:1830   */\n      swap1\n      pop\n        /* \"#utility.yul\":1839:1872   */\n      tag_504\n        /* \"#utility.yul\":1866:1871   */\n      dup2\n        /* \"#utility.yul\":1839:1872   */\n      tag_437\n      jump\t// in\n    tag_504:\n        /* \"#utility.yul\":1739:1878   */\n      swap3\n      swap2\n      pop\n      pop\n      jump\t// out\n        /* \"#utility.yul\":1884:2358   */\n    tag_41:\n        /* \"#utility.yul\":1952:1958   */\n      0x00\n        /* \"#utility.yul\":1960:1966   */\n      dup1\n        /* \"#utility.yul\":2009:2011   */\n      0x40\n        /* \"#utility.yul\":1997:2006   */\n      dup4\n        /* \"#utility.yul\":1988:1995   */\n      dup6\n        /* \"#utility.yul\":1984:2007   */\n      sub\n        /* \"#utility.yul\":1980:2012   */\n      slt\n        /* \"#utility.yul\":1977:2096   */\n      iszero\n      tag_506\n      jumpi\n        /* \"#utility.yul\":2015:2094   */\n      tag_507\n      tag_429\n      jump\t// in\n    tag_507:\n        /* \"#utility.yul\":1977:2096   */\n    tag_506:\n        /* \"#utility.yul\":2135:2136   */\n      0x00\n        /* \"#utility.yul\":2160:2213   */\n      tag_508\n        /* \"#utility.yul\":2205:2212   */\n      dup6\n        /* \"#utility.yul\":2196:2202   */\n      dup3\n        /* \"#utility.yul\":2185:2194   */\n      dup7\n        /* \"#utility.yul\":2181:2203   */\n      add\n        /* \"#utility.yul\":2160:2213   */\n      tag_433\n      jump\t// in\n    tag_508:\n        /* \"#utility.yul\":2150:2213   */\n      swap3\n      pop\n        /* \"#utility.yul\":2106:2223   */\n      pop\n        /* \"#utility.yul\":2262:2264   */\n      0x20\n        /* \"#utility.yul\":2288:2341   */\n      tag_509\n        /* \"#utility.yul\":2333:2340   */\n      dup6\n        /* \"#utility.yul\":2324:2330   */\n      dup3\n        /* \"#utility.yul\":2313:2322   */\n      dup7\n        /* \"#utility.yul\":2309:2331   */\n      add\n        /* \"#utility.yul\":2288:2341   */\n      tag_438\n      jump\t// in\n    tag_509:\n        /* \"#utility.yul\":2278:2341   */\n      swap2\n      pop\n        /* \"#utility.yul\":2233:2351   */\n      pop\n        /* \"#utility.yul\":1884:2358   */\n      swap3\n      pop\n      swap3\n      swap1\n      pop\n      jump\t// out\n        /* \"#utility.yul\":2364:2454   */\n    tag_439:\n        /* \"#utility.yul\":2398:2405   */\n      0x00\n        /* \"#utility.yul\":2441:2446   */\n      dup2\n        /* \"#utility.yul\":2434:2447   */\n      iszero\n        /* \"#utility.yul\":2427:2448   */\n      iszero\n        /* \"#utility.yul\":2416:2448   */\n      swap1\n      pop\n        /* \"#utility.yul\":2364:2454   */\n      swap2\n      swap1\n      pop\n      jump\t// out\n        /* \"#utility.yul\":2460:2569   */\n    tag_440:\n        /* \"#utility.yul\":2541:2562   */\n      tag_512\n        /* \"#utility.yul\":2556:2561   */\n      dup2\n        /* \"#utility.yul\":2541:2562   */\n      tag_439\n      jump\t// in\n    tag_512:\n        /* \"#utility.yul\":2536:2539   */\n      dup3\n        /* \"#utility.yul\":2529:2563   */\n      mstore\n        /* \"#utility.yul\":2460:2569   */\n      pop\n      pop\n      jump\t// out\n        /* \"#utility.yul\":2575:2785   */\n    tag_49:\n        /* \"#utility.yul\":2662:2666   */\n      0x00\n        /* \"#utility.yul\":2700:2702   */\n      0x20\n        /* \"#utility.yul\":2689:2698   */\n      dup3\n        /* \"#utility.yul\":2685:2703   */\n      add\n        /* \"#utility.yul\":2677:2703   */\n      swap1\n      pop\n        /* \"#utility.yul\":2713:2778   */\n      tag_514\n        /* \"#utility.yul\":2775:2776   */\n      0x00\n        /* \"#utility.yul\":2764:2773   */\n      dup4\n        /* \"#utility.yul\":2760:2777   */\n      add\n        /* \"#utility.yul\":2751:2757   */\n      dup5\n        /* \"#utility.yul\":2713:2778   */\n      tag_440\n      jump\t// in\n    tag_514:\n        /* \"#utility.yul\":2575:2785   */\n      swap3\n      swap2\n      pop\n      pop\n      jump\t// out\n        /* \"#utility.yul\":2791:3120   */\n    tag_53:\n        /* \"#utility.yul\":2850:2856   */\n      0x00\n        /* \"#utility.yul\":2899:2901   */\n      0x20\n        /* \"#utility.yul\":2887:2896   */\n      dup3\n        /* \"#utility.yul\":2878:2885   */\n      dup5\n        /* \"#utility.yul\":2874:2897   */\n      sub\n        /* \"#utility.yul\":2870:2902   */\n      slt\n        /* \"#utility.yul\":2867:2986   */\n      iszero\n      tag_516\n      jumpi\n        /* \"#utility.yul\":2905:2984   */\n      tag_517\n      tag_429\n      jump\t// in\n    tag_517:\n        /* \"#utility.yul\":2867:2986   */\n    tag_516:\n        /* \"#utility.yul\":3025:3026   */\n      0x00\n        /* \"#utility.yul\":3050:3103   */\n      tag_518\n        /* \"#utility.yul\":3095:3102   */\n      dup5\n        /* \"#utility.yul\":3086:3092   */\n      dup3\n        /* \"#utility.yul\":3075:3084   */\n      dup6\n        /* \"#utility.yul\":3071:3093   */\n      add\n        /* \"#utility.yul\":3050:3103   */\n      tag_438\n      jump\t// in\n    tag_518:\n        /* \"#utility.yul\":3040:3103   */\n      swap2\n      pop\n        /* \"#utility.yul\":2996:3113   */\n      pop\n        /* \"#utility.yul\":2791:3120   */\n      swap3\n      swap2\n      pop\n      pop\n      jump\t// out\n        /* \"#utility.yul\":3126:3240   */\n    tag_441:\n        /* \"#utility.yul\":3193:3199   */\n      0x00\n        /* \"#utility.yul\":3227:3232   */\n      dup2\n        /* \"#utility.yul\":3221:3233   */\n      mload\n        /* \"#utility.yul\":3211:3233   */\n      swap1\n      pop\n        /* \"#utility.yul\":3126:3240   */\n      swap2\n      swap1\n      pop\n      jump\t// out\n        /* \"#utility.yul\":3246:3430   */\n    tag_442:\n        /* \"#utility.yul\":3345:3356   */\n      0x00\n        /* \"#utility.yul\":3379:3385   */\n      dup3\n        /* \"#utility.yul\":3374:3377   */\n      dup3\n        /* \"#utility.yul\":3367:3386   */\n      mstore\n        /* \"#utility.yul\":3419:3423   */\n      0x20\n        /* \"#utility.yul\":3414:3417   */\n      dup3\n        /* \"#utility.yul\":3410:3424   */\n      add\n        /* \"#utility.yul\":3395:3424   */\n      swap1\n      pop\n        /* \"#utility.yul\":3246:3430   */\n      swap3\n      swap2\n      pop\n      pop\n      jump\t// out\n        /* \"#utility.yul\":3436:3568   */\n    tag_443:\n        /* \"#utility.yul\":3503:3507   */\n      0x00\n        /* \"#utility.yul\":3526:3529   */\n      dup2\n        /* \"#utility.yul\":3518:3529   */\n      swap1\n      pop\n        /* \"#utility.yul\":3556:3560   */\n      0x20\n        /* \"#utility.yul\":3551:3554   */\n      dup3\n        /* \"#utility.yul\":3547:3561   */\n      add\n        /* \"#utility.yul\":3539:3561   */\n      swap1\n      pop\n        /* \"#utility.yul\":3436:3568   */\n      swap2\n      swap1\n      pop\n      jump\t// out\n        /* \"#utility.yul\":3574:3682   */\n    tag_444:\n        /* \"#utility.yul\":3651:3675   */\n      tag_523\n        /* \"#utility.yul\":3669:3674   */\n      dup2\n        /* \"#utility.yul\":3651:3675   */\n      tag_435\n      jump\t// in\n    tag_523:\n        /* \"#utility.yul\":3646:3649   */\n      dup3\n        /* \"#utility.yul\":3639:3676   */\n      mstore\n        /* \"#utility.yul\":3574:3682   */\n      pop\n      pop\n      jump\t// out\n        /* \"#utility.yul\":3688:3867   */\n    tag_445:\n        /* \"#utility.yul\":3757:3767   */\n      0x00\n        /* \"#utility.yul\":3778:3824   */\n      tag_525\n        /* \"#utility.yul\":3820:3823   */\n      dup4\n        /* \"#utility.yul\":3812:3818   */\n      dup4\n        /* \"#utility.yul\":3778:3824   */\n      tag_444\n      jump\t// in\n    tag_525:\n        /* \"#utility.yul\":3856:3860   */\n      0x20\n        /* \"#utility.yul\":3851:3854   */\n      dup4\n        /* \"#utility.yul\":3847:3861   */\n      add\n        /* \"#utility.yul\":3833:3861   */\n      swap1\n      pop\n        /* \"#utility.yul\":3688:3867   */\n      swap3\n      swap2\n      pop\n      pop\n      jump\t// out\n        /* \"#utility.yul\":3873:3986   */\n    tag_446:\n        /* \"#utility.yul\":3943:3947   */\n      0x00\n        /* \"#utility.yul\":3975:3979   */\n      0x20\n        /* \"#utility.yul\":3970:3973   */\n      dup3\n        /* \"#utility.yul\":3966:3980   */\n      add\n        /* \"#utility.yul\":3958:3980   */\n      swap1\n      pop\n        /* \"#utility.yul\":3873:3986   */\n      swap2\n      swap1\n      pop\n      jump\t// out\n        /* \"#utility.yul\":4022:4754   */\n    tag_447:\n        /* \"#utility.yul\":4141:4144   */\n      0x00\n        /* \"#utility.yul\":4170:4224   */\n      tag_528\n        /* \"#utility.yul\":4218:4223   */\n      dup3\n        /* \"#utility.yul\":4170:4224   */\n      tag_441\n      jump\t// in\n    tag_528:\n        /* \"#utility.yul\":4240:4326   */\n      tag_529\n        /* \"#utility.yul\":4319:4325   */\n      dup2\n        /* \"#utility.yul\":4314:4317   */\n      dup6\n        /* \"#utility.yul\":4240:4326   */\n      tag_442\n      jump\t// in\n    tag_529:\n        /* \"#utility.yul\":4233:4326   */\n      swap4\n      pop\n        /* \"#utility.yul\":4350:4406   */\n      tag_530\n        /* \"#utility.yul\":4400:4405   */\n      dup4\n        /* \"#utility.yul\":4350:4406   */\n      tag_443\n      jump\t// in\n    tag_530:\n        /* \"#utility.yul\":4429:4436   */\n      dup1\n        /* \"#utility.yul\":4460:4461   */\n      0x00\n        /* \"#utility.yul\":4445:4729   */\n    tag_531:\n        /* \"#utility.yul\":4470:4476   */\n      dup4\n        /* \"#utility.yul\":4467:4468   */\n      dup2\n        /* \"#utility.yul\":4464:4477   */\n      lt\n        /* \"#utility.yul\":4445:4729   */\n      iszero\n      tag_533\n      jumpi\n        /* \"#utility.yul\":4546:4552   */\n      dup2\n        /* \"#utility.yul\":4540:4553   */\n      mload\n        /* \"#utility.yul\":4573:4636   */\n      tag_534\n        /* \"#utility.yul\":4632:4635   */\n      dup9\n        /* \"#utility.yul\":4617:4630   */\n      dup3\n        /* \"#utility.yul\":4573:4636   */\n      tag_445\n      jump\t// in\n    tag_534:\n        /* \"#utility.yul\":4566:4636   */\n      swap8\n      pop\n        /* \"#utility.yul\":4659:4719   */\n      tag_535\n        /* \"#utility.yul\":4712:4718   */\n      dup4\n        /* \"#utility.yul\":4659:4719   */\n      tag_446\n      jump\t// in\n    tag_535:\n        /* \"#utility.yul\":4649:4719   */\n      swap3\n      pop\n        /* \"#utility.yul\":4505:4729   */\n      pop\n        /* \"#utility.yul\":4492:4493   */\n      0x01\n        /* \"#utility.yul\":4489:4490   */\n      dup2\n        /* \"#utility.yul\":4485:4494   */\n      add\n        /* \"#utility.yul\":4480:4494   */\n      swap1\n      pop\n        /* \"#utility.yul\":4445:4729   */\n      jump(tag_531)\n    tag_533:\n        /* \"#utility.yul\":4449:4463   */\n      pop\n        /* \"#utility.yul\":4745:4748   */\n      dup6\n        /* \"#utility.yul\":4738:4748   */\n      swap4\n      pop\n        /* \"#utility.yul\":4146:4754   */\n      pop\n      pop\n      pop\n        /* \"#utility.yul\":4022:4754   */\n      swap3\n      swap2\n      pop\n      pop\n      jump\t// out\n        /* \"#utility.yul\":4760:5133   */\n    tag_56:\n        /* \"#utility.yul\":4903:4907   */\n      0x00\n        /* \"#utility.yul\":4941:4943   */\n      0x20\n        /* \"#utility.yul\":4930:4939   */\n      dup3\n        /* \"#utility.yul\":4926:4944   */\n      add\n        /* \"#utility.yul\":4918:4944   */\n      swap1\n      pop\n        /* \"#utility.yul\":4990:4999   */\n      dup2\n        /* \"#utility.yul\":4984:4988   */\n      dup2\n        /* \"#utility.yul\":4980:5000   */\n      sub\n        /* \"#utility.yul\":4976:4977   */\n      0x00\n        /* \"#utility.yul\":4965:4974   */\n      dup4\n        /* \"#utility.yul\":4961:4978   */\n      add\n        /* \"#utility.yul\":4954:5001   */\n      mstore\n        /* \"#utility.yul\":5018:5126   */\n      tag_537\n        /* \"#utility.yul\":5121:5125   */\n      dup2\n        /* \"#utility.yul\":5112:5118   */\n      dup5\n        /* \"#utility.yul\":5018:5126   */\n      tag_447\n      jump\t// in\n    tag_537:\n        /* \"#utility.yul\":5010:5126   */\n      swap1\n      pop\n        /* \"#utility.yul\":4760:5133   */\n      swap3\n      swap2\n      pop\n      pop\n      jump\t// out\n        /* \"#utility.yul\":5139:5225   */\n    tag_448:\n        /* \"#utility.yul\":5174:5181   */\n      0x00\n        /* \"#utility.yul\":5214:5218   */\n      0xff\n        /* \"#utility.yul\":5207:5212   */\n      dup3\n        /* \"#utility.yul\":5203:5219   */\n      and\n        /* \"#utility.yul\":5192:5219   */\n      swap1\n      pop\n        /* \"#utility.yul\":5139:5225   */\n      swap2\n      swap1\n      pop\n      jump\t// out\n        /* \"#utility.yul\":5231:5343   */\n    tag_449:\n        /* \"#utility.yul\":5314:5336   */\n      tag_540\n        /* \"#utility.yul\":5330:5335   */\n      dup2\n        /* \"#utility.yul\":5314:5336   */\n      tag_448\n      jump\t// in\n    tag_540:\n        /* \"#utility.yul\":5309:5312   */\n      dup3\n        /* \"#utility.yul\":5302:5337   */\n      mstore\n        /* \"#utility.yul\":5231:5343   */\n      pop\n      pop\n      jump\t// out\n        /* \"#utility.yul\":5349:5563   */\n    tag_66:\n        /* \"#utility.yul\":5438:5442   */\n      0x00\n        /* \"#utility.yul\":5476:5478   */\n      0x20\n        /* \"#utility.yul\":5465:5474   */\n      dup3\n        /* \"#utility.yul\":5461:5479   */\n      add\n        /* \"#utility.yul\":5453:5479   */\n      swap1\n      pop\n        /* \"#utility.yul\":5489:5556   */\n      tag_542\n        /* \"#utility.yul\":5553:5554   */\n      0x00\n        /* \"#utility.yul\":5542:5551   */\n      dup4\n        /* \"#utility.yul\":5538:5555   */\n      add\n        /* \"#utility.yul\":5529:5535   */\n      dup5\n        /* \"#utility.yul\":5489:5556   */\n      tag_449\n      jump\t// in\n    tag_542:\n        /* \"#utility.yul\":5349:5563   */\n      swap3\n      swap2\n      pop\n      pop\n      jump\t// out\n        /* \"#utility.yul\":5569:5683   */\n    tag_450:\n        /* \"#utility.yul\":5636:5642   */\n      0x00\n        /* \"#utility.yul\":5670:5675   */\n      dup2\n        /* \"#utility.yul\":5664:5676   */\n      mload\n        /* \"#utility.yul\":5654:5676   */\n      swap1\n      pop\n        /* \"#utility.yul\":5569:5683   */\n      swap2\n      swap1\n      pop\n      jump\t// out\n        /* \"#utility.yul\":5689:5873   */\n    tag_451:\n        /* \"#utility.yul\":5788:5799   */\n      0x00\n        /* \"#utility.yul\":5822:5828   */\n      dup3\n        /* \"#utility.yul\":5817:5820   */\n      dup3\n        /* \"#utility.yul\":5810:5829   */\n      mstore\n        /* \"#utility.yul\":5862:5866   */\n      0x20\n        /* \"#utility.yul\":5857:5860   */\n      dup3\n        /* \"#utility.yul\":5853:5867   */\n      add\n        /* \"#utility.yul\":5838:5867   */\n      swap1\n      pop\n        /* \"#utility.yul\":5689:5873   */\n      swap3\n      swap2\n      pop\n      pop\n      jump\t// out\n        /* \"#utility.yul\":5879:6011   */\n    tag_452:\n        /* \"#utility.yul\":5946:5950   */\n      0x00\n        /* \"#utility.yul\":5969:5972   */\n      dup2\n        /* \"#utility.yul\":5961:5972   */\n      swap1\n      pop\n        /* \"#utility.yul\":5999:6003   */\n      0x20\n        /* \"#utility.yul\":5994:5997   */\n      dup3\n        /* \"#utility.yul\":5990:6004   */\n      add\n        /* \"#utility.yul\":5982:6004   */\n      swap1\n      pop\n        /* \"#utility.yul\":5879:6011   */\n      swap2\n      swap1\n      pop\n      jump\t// out\n        /* \"#utility.yul\":6017:6125   */\n    tag_453:\n        /* \"#utility.yul\":6094:6118   */\n      tag_547\n        /* \"#utility.yul\":6112:6117   */\n      dup2\n        /* \"#utility.yul\":6094:6118   */\n      tag_431\n      jump\t// in\n    tag_547:\n        /* \"#utility.yul\":6089:6092   */\n      dup3\n        /* \"#utility.yul\":6082:6119   */\n      mstore\n        /* \"#utility.yul\":6017:6125   */\n      pop\n      pop\n      jump\t// out\n        /* \"#utility.yul\":6131:6310   */\n    tag_454:\n        /* \"#utility.yul\":6200:6210   */\n      0x00\n        /* \"#utility.yul\":6221:6267   */\n      tag_549\n        /* \"#utility.yul\":6263:6266   */\n      dup4\n        /* \"#utility.yul\":6255:6261   */\n      dup4\n        /* \"#utility.yul\":6221:6267   */\n      tag_453\n      jump\t// in\n    tag_549:\n        /* \"#utility.yul\":6299:6303   */\n      0x20\n        /* \"#utility.yul\":6294:6297   */\n      dup4\n        /* \"#utility.yul\":6290:6304   */\n      add\n        /* \"#utility.yul\":6276:6304   */\n      swap1\n      pop\n        /* \"#utility.yul\":6131:6310   */\n      swap3\n      swap2\n      pop\n      pop\n      jump\t// out\n        /* \"#utility.yul\":6316:6429   */\n    tag_455:\n        /* \"#utility.yul\":6386:6390   */\n      0x00\n        /* \"#utility.yul\":6418:6422   */\n      0x20\n        /* \"#utility.yul\":6413:6416   */\n      dup3\n        /* \"#utility.yul\":6409:6423   */\n      add\n        /* \"#utility.yul\":6401:6423   */\n      swap1\n      pop\n        /* \"#utility.yul\":6316:6429   */\n      swap2\n      swap1\n      pop\n      jump\t// out\n        /* \"#utility.yul\":6465:7197   */\n    tag_456:\n        /* \"#utility.yul\":6584:6587   */\n      0x00\n        /* \"#utility.yul\":6613:6667   */\n      tag_552\n        /* \"#utility.yul\":6661:6666   */\n      dup3\n        /* \"#utility.yul\":6613:6667   */\n      tag_450\n      jump\t// in\n    tag_552:\n        /* \"#utility.yul\":6683:6769   */\n      tag_553\n        /* \"#utility.yul\":6762:6768   */\n      dup2\n        /* \"#utility.yul\":6757:6760   */\n      dup6\n        /* \"#utility.yul\":6683:6769   */\n      tag_451\n      jump\t// in\n    tag_553:\n        /* \"#utility.yul\":6676:6769   */\n      swap4\n      pop\n        /* \"#utility.yul\":6793:6849   */\n      tag_554\n        /* \"#utility.yul\":6843:6848   */\n      dup4\n        /* \"#utility.yul\":6793:6849   */\n      tag_452\n      jump\t// in\n    tag_554:\n        /* \"#utility.yul\":6872:6879   */\n      dup1\n        /* \"#utility.yul\":6903:6904   */\n      0x00\n        /* \"#utility.yul\":6888:7172   */\n    tag_555:\n        /* \"#utility.yul\":6913:6919   */\n      dup4\n        /* \"#utility.yul\":6910:6911   */\n      dup2\n        /* \"#utility.yul\":6907:6920   */\n      lt\n        /* \"#utility.yul\":6888:7172   */\n      iszero\n      tag_557\n      jumpi\n        /* \"#utility.yul\":6989:6995   */\n      dup2\n        /* \"#utility.yul\":6983:6996   */\n      mload\n        /* \"#utility.yul\":7016:7079   */\n      tag_558\n        /* \"#utility.yul\":7075:7078   */\n      dup9\n        /* \"#utility.yul\":7060:7073   */\n      dup3\n        /* \"#utility.yul\":7016:7079   */\n      tag_454\n      jump\t// in\n    tag_558:\n        /* \"#utility.yul\":7009:7079   */\n      swap8\n      pop\n        /* \"#utility.yul\":7102:7162   */\n      tag_559\n        /* \"#utility.yul\":7155:7161   */\n      dup4\n        /* \"#utility.yul\":7102:7162   */\n      tag_455\n      jump\t// in\n    tag_559:\n        /* \"#utility.yul\":7092:7162   */\n      swap3\n      pop\n        /* \"#utility.yul\":6948:7172   */\n      pop\n        /* \"#utility.yul\":6935:6936   */\n      0x01\n        /* \"#utility.yul\":6932:6933   */\n      dup2\n        /* \"#utility.yul\":6928:6937   */\n      add\n        /* \"#utility.yul\":6923:6937   */\n      swap1\n      pop\n        /* \"#utility.yul\":6888:7172   */\n      jump(tag_555)\n    tag_557:\n        /* \"#utility.yul\":6892:6906   */\n      pop\n        /* \"#utility.yul\":7188:7191   */\n      dup6\n        /* \"#utility.yul\":7181:7191   */\n      swap4\n      pop\n        /* \"#utility.yul\":6589:7197   */\n      pop\n      pop\n      pop\n        /* \"#utility.yul\":6465:7197   */\n      swap3\n      swap2\n      pop\n      pop\n      jump\t// out\n        /* \"#utility.yul\":7203:7576   */\n    tag_72:\n        /* \"#utility.yul\":7346:7350   */\n      0x00\n        /* \"#utility.yul\":7384:7386   */\n      0x20\n        /* \"#utility.yul\":7373:7382   */\n      dup3\n        /* \"#utility.yul\":7369:7387   */\n      add\n        /* \"#utility.yul\":7361:7387   */\n      swap1\n      pop\n        /* \"#utility.yul\":7433:7442   */\n      dup2\n        /* \"#utility.yul\":7427:7431   */\n      dup2\n        /* \"#utility.yul\":7423:7443   */\n      sub\n        /* \"#utility.yul\":7419:7420   */\n      0x00\n        /* \"#utility.yul\":7408:7417   */\n      dup4\n        /* \"#utility.yul\":7404:7421   */\n      add\n        /* \"#utility.yul\":7397:7444   */\n      mstore\n        /* \"#utility.yul\":7461:7569   */\n      tag_561\n        /* \"#utility.yul\":7564:7568   */\n      dup2\n        /* \"#utility.yul\":7555:7561   */\n      dup5\n        /* \"#utility.yul\":7461:7569   */\n      tag_456\n      jump\t// in\n    tag_561:\n        /* \"#utility.yul\":7453:7569   */\n      swap1\n      pop\n        /* \"#utility.yul\":7203:7576   */\n      swap3\n      swap2\n      pop\n      pop\n      jump\t// out\n        /* \"#utility.yul\":7582:7700   */\n    tag_457:\n        /* \"#utility.yul\":7669:7693   */\n      tag_563\n        /* \"#utility.yul\":7687:7692   */\n      dup2\n        /* \"#utility.yul\":7669:7693   */\n      tag_431\n      jump\t// in\n    tag_563:\n        /* \"#utility.yul\":7664:7667   */\n      dup3\n        /* \"#utility.yul\":7657:7694   */\n      mstore\n        /* \"#utility.yul\":7582:7700   */\n      pop\n      pop\n      jump\t// out\n        /* \"#utility.yul\":7706:7928   */\n    tag_77:\n        /* \"#utility.yul\":7799:7803   */\n      0x00\n        /* \"#utility.yul\":7837:7839   */\n      0x20\n        /* \"#utility.yul\":7826:7835   */\n      dup3\n        /* \"#utility.yul\":7822:7840   */\n      add\n        /* \"#utility.yul\":7814:7840   */\n      swap1\n      pop\n        /* \"#utility.yul\":7850:7921   */\n      tag_565\n        /* \"#utility.yul\":7918:7919   */\n      0x00\n        /* \"#utility.yul\":7907:7916   */\n      dup4\n        /* \"#utility.yul\":7903:7920   */\n      add\n        /* \"#utility.yul\":7894:7900   */\n      dup5\n        /* \"#utility.yul\":7850:7921   */\n      tag_457\n      jump\t// in\n    tag_565:\n        /* \"#utility.yul\":7706:7928   */\n      swap3\n      swap2\n      pop\n      pop\n      jump\t// out\n        /* \"#utility.yul\":7934:8475   */\n    tag_113:\n        /* \"#utility.yul\":8105:8109   */\n      0x00\n        /* \"#utility.yul\":8143:8146   */\n      0x80\n        /* \"#utility.yul\":8132:8141   */\n      dup3\n        /* \"#utility.yul\":8128:8147   */\n      add\n        /* \"#utility.yul\":8120:8147   */\n      swap1\n      pop\n        /* \"#utility.yul\":8157:8222   */\n      tag_567\n        /* \"#utility.yul\":8219:8220   */\n      0x00\n        /* \"#utility.yul\":8208:8217   */\n      dup4\n        /* \"#utility.yul\":8204:8221   */\n      add\n        /* \"#utility.yul\":8195:8201   */\n      dup8\n        /* \"#utility.yul\":8157:8222   */\n      tag_440\n      jump\t// in\n    tag_567:\n        /* \"#utility.yul\":8232:8304   */\n      tag_568\n        /* \"#utility.yul\":8300:8302   */\n      0x20\n        /* \"#utility.yul\":8289:8298   */\n      dup4\n        /* \"#utility.yul\":8285:8303   */\n      add\n        /* \"#utility.yul\":8276:8282   */\n      dup7\n        /* \"#utility.yul\":8232:8304   */\n      tag_457\n      jump\t// in\n    tag_568:\n        /* \"#utility.yul\":8314:8386   */\n      tag_569\n        /* \"#utility.yul\":8382:8384   */\n      0x40\n        /* \"#utility.yul\":8371:8380   */\n      dup4\n        /* \"#utility.yul\":8367:8385   */\n      add\n        /* \"#utility.yul\":8358:8364   */\n      dup6\n        /* \"#utility.yul\":8314:8386   */\n      tag_457\n      jump\t// in\n    tag_569:\n        /* \"#utility.yul\":8396:8468   */\n      tag_570\n        /* \"#utility.yul\":8464:8466   */\n      0x60\n        /* \"#utility.yul\":8453:8462   */\n      dup4\n        /* \"#utility.yul\":8449:8467   */\n      add\n        /* \"#utility.yul\":8440:8446   */\n      dup5\n        /* \"#utility.yul\":8396:8468   */\n      tag_457\n      jump\t// in\n    tag_570:\n        /* \"#utility.yul\":7934:8475   */\n      swap6\n      swap5\n      pop\n      pop\n      pop\n      pop\n      pop\n      jump\t// out\n        /* \"#utility.yul\":8481:8955   */\n    tag_117:\n        /* \"#utility.yul\":8549:8555   */\n      0x00\n        /* \"#utility.yul\":8557:8563   */\n      dup1\n        /* \"#utility.yul\":8606:8608   */\n      0x40\n        /* \"#utility.yul\":8594:8603   */\n      dup4\n        /* \"#utility.yul\":8585:8592   */\n      dup6\n        /* \"#utility.yul\":8581:8604   */\n      sub\n        /* \"#utility.yul\":8577:8609   */\n      slt\n        /* \"#utility.yul\":8574:8693   */\n      iszero\n      tag_572\n      jumpi\n        /* \"#utility.yul\":8612:8691   */\n      tag_573\n      tag_429\n      jump\t// in\n    tag_573:\n        /* \"#utility.yul\":8574:8693   */\n    tag_572:\n        /* \"#utility.yul\":8732:8733   */\n      0x00\n        /* \"#utility.yul\":8757:8810   */\n      tag_574\n        /* \"#utility.yul\":8802:8809   */\n      dup6\n        /* \"#utility.yul\":8793:8799   */\n      dup3\n        /* \"#utility.yul\":8782:8791   */\n      dup7\n        /* \"#utility.yul\":8778:8800   */\n      add\n        /* \"#utility.yul\":8757:8810   */\n      tag_438\n      jump\t// in\n    tag_574:\n        /* \"#utility.yul\":8747:8810   */\n      swap3\n      pop\n        /* \"#utility.yul\":8703:8820   */\n      pop\n        /* \"#utility.yul\":8859:8861   */\n      0x20\n        /* \"#utility.yul\":8885:8938   */\n      tag_575\n        /* \"#utility.yul\":8930:8937   */\n      dup6\n        /* \"#utility.yul\":8921:8927   */\n      dup3\n        /* \"#utility.yul\":8910:8919   */\n      dup7\n        /* \"#utility.yul\":8906:8928   */\n      add\n        /* \"#utility.yul\":8885:8938   */\n      tag_433\n      jump\t// in\n    tag_575:\n        /* \"#utility.yul\":8875:8938   */\n      swap2\n      pop\n        /* \"#utility.yul\":8830:8948   */\n      pop\n        /* \"#utility.yul\":8481:8955   */\n      swap3\n      pop\n      swap3\n      swap1\n      pop\n      jump\t// out\n        /* \"#utility.yul\":8961:9130   */\n    tag_458:\n        /* \"#utility.yul\":9045:9056   */\n      0x00\n        /* \"#utility.yul\":9079:9085   */\n      dup3\n        /* \"#utility.yul\":9074:9077   */\n      dup3\n        /* \"#utility.yul\":9067:9086   */\n      mstore\n        /* \"#utility.yul\":9119:9123   */\n      0x20\n        /* \"#utility.yul\":9114:9117   */\n      dup3\n        /* \"#utility.yul\":9110:9124   */\n      add\n        /* \"#utility.yul\":9095:9124   */\n      swap1\n      pop\n        /* \"#utility.yul\":8961:9130   */\n      swap3\n      swap2\n      pop\n      pop\n      jump\t// out\n        /* \"#utility.yul\":9136:9300   */\n    tag_459:\n        /* \"#utility.yul\":9276:9292   */\n      0x496e76616c69642063616c6c6572000000000000000000000000000000000000\n        /* \"#utility.yul\":9272:9273   */\n      0x00\n        /* \"#utility.yul\":9264:9270   */\n      dup3\n        /* \"#utility.yul\":9260:9274   */\n      add\n        /* \"#utility.yul\":9253:9293   */\n      mstore\n        /* \"#utility.yul\":9136:9300   */\n      pop\n      jump\t// out\n        /* \"#utility.yul\":9306:9672   */\n    tag_460:\n        /* \"#utility.yul\":9448:9451   */\n      0x00\n        /* \"#utility.yul\":9469:9536   */\n      tag_579\n        /* \"#utility.yul\":9533:9535   */\n      0x0e\n        /* \"#utility.yul\":9528:9531   */\n      dup4\n        /* \"#utility.yul\":9469:9536   */\n      tag_458\n      jump\t// in\n    tag_579:\n        /* \"#utility.yul\":9462:9536   */\n      swap2\n      pop\n        /* \"#utility.yul\":9545:9638   */\n      tag_580\n        /* \"#utility.yul\":9634:9637   */\n      dup3\n        /* \"#utility.yul\":9545:9638   */\n      tag_459\n      jump\t// in\n    tag_580:\n        /* \"#utility.yul\":9663:9665   */\n      0x20\n        /* \"#utility.yul\":9658:9661   */\n      dup3\n        /* \"#utility.yul\":9654:9666   */\n      add\n        /* \"#utility.yul\":9647:9666   */\n      swap1\n      pop\n        /* \"#utility.yul\":9306:9672   */\n      swap2\n      swap1\n      pop\n      jump\t// out\n        /* \"#utility.yul\":9678:10097   */\n    tag_145:\n        /* \"#utility.yul\":9844:9848   */\n      0x00\n        /* \"#utility.yul\":9882:9884   */\n      0x20\n        /* \"#utility.yul\":9871:9880   */\n      dup3\n        /* \"#utility.yul\":9867:9885   */\n      add\n        /* \"#utility.yul\":9859:9885   */\n      swap1\n      pop\n        /* \"#utility.yul\":9931:9940   */\n      dup2\n        /* \"#utility.yul\":9925:9929   */\n      dup2\n        /* \"#utility.yul\":9921:9941   */\n      sub\n        /* \"#utility.yul\":9917:9918   */\n      0x00\n        /* \"#utility.yul\":9906:9915   */\n      dup4\n        /* \"#utility.yul\":9902:9919   */\n      add\n        /* \"#utility.yul\":9895:9942   */\n      mstore\n        /* \"#utility.yul\":9959:10090   */\n      tag_582\n        /* \"#utility.yul\":10085:10089   */\n      dup2\n        /* \"#utility.yul\":9959:10090   */\n      tag_460\n      jump\t// in\n    tag_582:\n        /* \"#utility.yul\":9951:10090   */\n      swap1\n      pop\n        /* \"#utility.yul\":9678:10097   */\n      swap2\n      swap1\n      pop\n      jump\t// out\n        /* \"#utility.yul\":10103:10250   */\n    tag_461:\n        /* \"#utility.yul\":10204:10215   */\n      0x00\n        /* \"#utility.yul\":10241:10244   */\n      dup2\n        /* \"#utility.yul\":10226:10244   */\n      swap1\n      pop\n        /* \"#utility.yul\":10103:10250   */\n      swap3\n      swap2\n      pop\n      pop\n      jump\t// out\n        /* \"#utility.yul\":10256:10370   */\n    tag_462:\n      pop\n      jump\t// out\n        /* \"#utility.yul\":10376:10774   */\n    tag_463:\n        /* \"#utility.yul\":10535:10538   */\n      0x00\n        /* \"#utility.yul\":10556:10639   */\n      tag_586\n        /* \"#utility.yul\":10637:10638   */\n      0x00\n        /* \"#utility.yul\":10632:10635   */\n      dup4\n        /* \"#utility.yul\":10556:10639   */\n      tag_461\n      jump\t// in\n    tag_586:\n        /* \"#utility.yul\":10549:10639   */\n      swap2\n      pop\n        /* \"#utility.yul\":10648:10741   */\n      tag_587\n        /* \"#utility.yul\":10737:10740   */\n      dup3\n        /* \"#utility.yul\":10648:10741   */\n      tag_462\n      jump\t// in\n    tag_587:\n        /* \"#utility.yul\":10766:10767   */\n      0x00\n        /* \"#utility.yul\":10761:10764   */\n      dup3\n        /* \"#utility.yul\":10757:10768   */\n      add\n        /* \"#utility.yul\":10750:10768   */\n      swap1\n      pop\n        /* \"#utility.yul\":10376:10774   */\n      swap2\n      swap1\n      pop\n      jump\t// out\n        /* \"#utility.yul\":10780:11159   */\n    tag_147:\n        /* \"#utility.yul\":10964:10967   */\n      0x00\n        /* \"#utility.yul\":10986:11133   */\n      tag_589\n        /* \"#utility.yul\":11129:11132   */\n      dup3\n        /* \"#utility.yul\":10986:11133   */\n      tag_463\n      jump\t// in\n    tag_589:\n        /* \"#utility.yul\":10979:11133   */\n      swap2\n      pop\n        /* \"#utility.yul\":11150:11153   */\n      dup2\n        /* \"#utility.yul\":11143:11153   */\n      swap1\n      pop\n        /* \"#utility.yul\":10780:11159   */\n      swap2\n      swap1\n      pop\n      jump\t// out\n        /* \"#utility.yul\":11165:11334   */\n    tag_464:\n        /* \"#utility.yul\":11305:11326   */\n      0x5472616e73616374696f6e206661696c65642100000000000000000000000000\n        /* \"#utility.yul\":11301:11302   */\n      0x00\n        /* \"#utility.yul\":11293:11299   */\n      dup3\n        /* \"#utility.yul\":11289:11303   */\n      add\n        /* \"#utility.yul\":11282:11327   */\n      mstore\n        /* \"#utility.yul\":11165:11334   */\n      pop\n      jump\t// out\n        /* \"#utility.yul\":11340:11706   */\n    tag_465:\n        /* \"#utility.yul\":11482:11485   */\n      0x00\n        /* \"#utility.yul\":11503:11570   */\n      tag_592\n        /* \"#utility.yul\":11567:11569   */\n      0x13\n        /* \"#utility.yul\":11562:11565   */\n      dup4\n        /* \"#utility.yul\":11503:11570   */\n      tag_458\n      jump\t// in\n    tag_592:\n        /* \"#utility.yul\":11496:11570   */\n      swap2\n      pop\n        /* \"#utility.yul\":11579:11672   */\n      tag_593\n        /* \"#utility.yul\":11668:11671   */\n      dup3\n        /* \"#utility.yul\":11579:11672   */\n      tag_464\n      jump\t// in\n    tag_593:\n        /* \"#utility.yul\":11697:11699   */\n      0x20\n        /* \"#utility.yul\":11692:11695   */\n      dup3\n        /* \"#utility.yul\":11688:11700   */\n      add\n        /* \"#utility.yul\":11681:11700   */\n      swap1\n      pop\n        /* \"#utility.yul\":11340:11706   */\n      swap2\n      swap1\n      pop\n      jump\t// out\n        /* \"#utility.yul\":11712:12131   */\n    tag_153:\n        /* \"#utility.yul\":11878:11882   */\n      0x00\n        /* \"#utility.yul\":11916:11918   */\n      0x20\n        /* \"#utility.yul\":11905:11914   */\n      dup3\n        /* \"#utility.yul\":11901:11919   */\n      add\n        /* \"#utility.yul\":11893:11919   */\n      swap1\n      pop\n        /* \"#utility.yul\":11965:11974   */\n      dup2\n        /* \"#utility.yul\":11959:11963   */\n      dup2\n        /* \"#utility.yul\":11955:11975   */\n      sub\n        /* \"#utility.yul\":11951:11952   */\n      0x00\n        /* \"#utility.yul\":11940:11949   */\n      dup4\n        /* \"#utility.yul\":11936:11953   */\n      add\n        /* \"#utility.yul\":11929:11976   */\n      mstore\n        /* \"#utility.yul\":11993:12124   */\n      tag_595\n        /* \"#utility.yul\":12119:12123   */\n      dup2\n        /* \"#utility.yul\":11993:12124   */\n      tag_465\n      jump\t// in\n    tag_595:\n        /* \"#utility.yul\":11985:12124   */\n      swap1\n      pop\n        /* \"#utility.yul\":11712:12131   */\n      swap2\n      swap1\n      pop\n      jump\t// out\n        /* \"#utility.yul\":12137:12317   */\n    tag_466:\n        /* \"#utility.yul\":12185:12262   */\n      0x4e487b7100000000000000000000000000000000000000000000000000000000\n        /* \"#utility.yul\":12182:12183   */\n      0x00\n        /* \"#utility.yul\":12175:12263   */\n      mstore\n        /* \"#utility.yul\":12282:12286   */\n      0x12\n        /* \"#utility.yul\":12279:12280   */\n      0x04\n        /* \"#utility.yul\":12272:12287   */\n      mstore\n        /* \"#utility.yul\":12306:12310   */\n      0x24\n        /* \"#utility.yul\":12303:12304   */\n      0x00\n        /* \"#utility.yul\":12296:12311   */\n      revert\n        /* \"#utility.yul\":12323:12503   */\n    tag_467:\n        /* \"#utility.yul\":12371:12448   */\n      0x4e487b7100000000000000000000000000000000000000000000000000000000\n        /* \"#utility.yul\":12368:12369   */\n      0x00\n        /* \"#utility.yul\":12361:12449   */\n      mstore\n        /* \"#utility.yul\":12468:12472   */\n      0x11\n        /* \"#utility.yul\":12465:12466   */\n      0x04\n        /* \"#utility.yul\":12458:12473   */\n      mstore\n        /* \"#utility.yul\":12492:12496   */\n      0x24\n        /* \"#utility.yul\":12489:12490   */\n      0x00\n        /* \"#utility.yul\":12482:12497   */\n      revert\n        /* \"#utility.yul\":12509:12694   */\n    tag_161:\n        /* \"#utility.yul\":12549:12550   */\n      0x00\n        /* \"#utility.yul\":12566:12586   */\n      tag_599\n        /* \"#utility.yul\":12584:12585   */\n      dup3\n        /* \"#utility.yul\":12566:12586   */\n      tag_431\n      jump\t// in\n    tag_599:\n        /* \"#utility.yul\":12561:12586   */\n      swap2\n      pop\n        /* \"#utility.yul\":12600:12620   */\n      tag_600\n        /* \"#utility.yul\":12618:12619   */\n      dup4\n        /* \"#utility.yul\":12600:12620   */\n      tag_431\n      jump\t// in\n    tag_600:\n        /* \"#utility.yul\":12595:12620   */\n      swap3\n      pop\n        /* \"#utility.yul\":12639:12640   */\n      dup3\n        /* \"#utility.yul\":12629:12664   */\n      tag_601\n      jumpi\n        /* \"#utility.yul\":12644:12662   */\n      tag_602\n      tag_466\n      jump\t// in\n    tag_602:\n        /* \"#utility.yul\":12629:12664   */\n    tag_601:\n        /* \"#utility.yul\":12686:12687   */\n      dup3\n        /* \"#utility.yul\":12683:12684   */\n      dup3\n        /* \"#utility.yul\":12679:12688   */\n      div\n        /* \"#utility.yul\":12674:12688   */\n      swap1\n      pop\n        /* \"#utility.yul\":12509:12694   */\n      swap3\n      swap2\n      pop\n      pop\n      jump\t// out\n        /* \"#utility.yul\":12700:12860   */\n    tag_468:\n        /* \"#utility.yul\":12840:12852   */\n      0x5573657220657869737400000000000000000000000000000000000000000000\n        /* \"#utility.yul\":12836:12837   */\n      0x00\n        /* \"#utility.yul\":12828:12834   */\n      dup3\n        /* \"#utility.yul\":12824:12838   */\n      add\n        /* \"#utility.yul\":12817:12853   */\n      mstore\n        /* \"#utility.yul\":12700:12860   */\n      pop\n      jump\t// out\n        /* \"#utility.yul\":12866:13232   */\n    tag_469:\n        /* \"#utility.yul\":13008:13011   */\n      0x00\n        /* \"#utility.yul\":13029:13096   */\n      tag_605\n        /* \"#utility.yul\":13093:13095   */\n      0x0a\n        /* \"#utility.yul\":13088:13091   */\n      dup4\n        /* \"#utility.yul\":13029:13096   */\n      tag_458\n      jump\t// in\n    tag_605:\n        /* \"#utility.yul\":13022:13096   */\n      swap2\n      pop\n        /* \"#utility.yul\":13105:13198   */\n      tag_606\n        /* \"#utility.yul\":13194:13197   */\n      dup3\n        /* \"#utility.yul\":13105:13198   */\n      tag_468\n      jump\t// in\n    tag_606:\n        /* \"#utility.yul\":13223:13225   */\n      0x20\n        /* \"#utility.yul\":13218:13221   */\n      dup3\n        /* \"#utility.yul\":13214:13226   */\n      add\n        /* \"#utility.yul\":13207:13226   */\n      swap1\n      pop\n        /* \"#utility.yul\":12866:13232   */\n      swap2\n      swap1\n      pop\n      jump\t// out\n        /* \"#utility.yul\":13238:13657   */\n    tag_165:\n        /* \"#utility.yul\":13404:13408   */\n      0x00\n        /* \"#utility.yul\":13442:13444   */\n      0x20\n        /* \"#utility.yul\":13431:13440   */\n      dup3\n        /* \"#utility.yul\":13427:13445   */\n      add\n        /* \"#utility.yul\":13419:13445   */\n      swap1\n      pop\n        /* \"#utility.yul\":13491:13500   */\n      dup2\n        /* \"#utility.yul\":13485:13489   */\n      dup2\n        /* \"#utility.yul\":13481:13501   */\n      sub\n        /* \"#utility.yul\":13477:13478   */\n      0x00\n        /* \"#utility.yul\":13466:13475   */\n      dup4\n        /* \"#utility.yul\":13462:13479   */\n      add\n        /* \"#utility.yul\":13455:13502   */\n      mstore\n        /* \"#utility.yul\":13519:13650   */\n      tag_608\n        /* \"#utility.yul\":13645:13649   */\n      dup2\n        /* \"#utility.yul\":13519:13650   */\n      tag_469\n      jump\t// in\n    tag_608:\n        /* \"#utility.yul\":13511:13650   */\n      swap1\n      pop\n        /* \"#utility.yul\":13238:13657   */\n      swap2\n      swap1\n      pop\n      jump\t// out\n        /* \"#utility.yul\":13663:13834   */\n    tag_470:\n        /* \"#utility.yul\":13803:13826   */\n      0x496e636f72726563742072656665727265722049640000000000000000000000\n        /* \"#utility.yul\":13799:13800   */\n      0x00\n        /* \"#utility.yul\":13791:13797   */\n      dup3\n        /* \"#utility.yul\":13787:13801   */\n      add\n        /* \"#utility.yul\":13780:13827   */\n      mstore\n        /* \"#utility.yul\":13663:13834   */\n      pop\n      jump\t// out\n        /* \"#utility.yul\":13840:14206   */\n    tag_471:\n        /* \"#utility.yul\":13982:13985   */\n      0x00\n        /* \"#utility.yul\":14003:14070   */\n      tag_611\n        /* \"#utility.yul\":14067:14069   */\n      0x15\n        /* \"#utility.yul\":14062:14065   */\n      dup4\n        /* \"#utility.yul\":14003:14070   */\n      tag_458\n      jump\t// in\n    tag_611:\n        /* \"#utility.yul\":13996:14070   */\n      swap2\n      pop\n        /* \"#utility.yul\":14079:14172   */\n      tag_612\n        /* \"#utility.yul\":14168:14171   */\n      dup3\n        /* \"#utility.yul\":14079:14172   */\n      tag_470\n      jump\t// in\n    tag_612:\n        /* \"#utility.yul\":14197:14199   */\n      0x20\n        /* \"#utility.yul\":14192:14195   */\n      dup3\n        /* \"#utility.yul\":14188:14200   */\n      add\n        /* \"#utility.yul\":14181:14200   */\n      swap1\n      pop\n        /* \"#utility.yul\":13840:14206   */\n      swap2\n      swap1\n      pop\n      jump\t// out\n        /* \"#utility.yul\":14212:14631   */\n    tag_169:\n        /* \"#utility.yul\":14378:14382   */\n      0x00\n        /* \"#utility.yul\":14416:14418   */\n      0x20\n        /* \"#utility.yul\":14405:14414   */\n      dup3\n        /* \"#utility.yul\":14401:14419   */\n      add\n        /* \"#utility.yul\":14393:14419   */\n      swap1\n      pop\n        /* \"#utility.yul\":14465:14474   */\n      dup2\n        /* \"#utility.yul\":14459:14463   */\n      dup2\n        /* \"#utility.yul\":14455:14475   */\n      sub\n        /* \"#utility.yul\":14451:14452   */\n      0x00\n        /* \"#utility.yul\":14440:14449   */\n      dup4\n        /* \"#utility.yul\":14436:14453   */\n      add\n        /* \"#utility.yul\":14429:14476   */\n      mstore\n        /* \"#utility.yul\":14493:14624   */\n      tag_614\n        /* \"#utility.yul\":14619:14623   */\n      dup2\n        /* \"#utility.yul\":14493:14624   */\n      tag_471\n      jump\t// in\n    tag_614:\n        /* \"#utility.yul\":14485:14624   */\n      swap1\n      pop\n        /* \"#utility.yul\":14212:14631   */\n      swap2\n      swap1\n      pop\n      jump\t// out\n        /* \"#utility.yul\":14637:14802   */\n    tag_472:\n        /* \"#utility.yul\":14777:14794   */\n      0x496e636f72726563742056616c75650000000000000000000000000000000000\n        /* \"#utility.yul\":14773:14774   */\n      0x00\n        /* \"#utility.yul\":14765:14771   */\n      dup3\n        /* \"#utility.yul\":14761:14775   */\n      add\n        /* \"#utility.yul\":14754:14795   */\n      mstore\n        /* \"#utility.yul\":14637:14802   */\n      pop\n      jump\t// out\n        /* \"#utility.yul\":14808:15174   */\n    tag_473:\n        /* \"#utility.yul\":14950:14953   */\n      0x00\n        /* \"#utility.yul\":14971:15038   */\n      tag_617\n        /* \"#utility.yul\":15035:15037   */\n      0x0f\n        /* \"#utility.yul\":15030:15033   */\n      dup4\n        /* \"#utility.yul\":14971:15038   */\n      tag_458\n      jump\t// in\n    tag_617:\n        /* \"#utility.yul\":14964:15038   */\n      swap2\n      pop\n        /* \"#utility.yul\":15047:15140   */\n      tag_618\n        /* \"#utility.yul\":15136:15139   */\n      dup3\n        /* \"#utility.yul\":15047:15140   */\n      tag_472\n      jump\t// in\n    tag_618:\n        /* \"#utility.yul\":15165:15167   */\n      0x20\n        /* \"#utility.yul\":15160:15163   */\n      dup3\n        /* \"#utility.yul\":15156:15168   */\n      add\n        /* \"#utility.yul\":15149:15168   */\n      swap1\n      pop\n        /* \"#utility.yul\":14808:15174   */\n      swap2\n      swap1\n      pop\n      jump\t// out\n        /* \"#utility.yul\":15180:15599   */\n    tag_172:\n        /* \"#utility.yul\":15346:15350   */\n      0x00\n        /* \"#utility.yul\":15384:15386   */\n      0x20\n        /* \"#utility.yul\":15373:15382   */\n      dup3\n        /* \"#utility.yul\":15369:15387   */\n      add\n        /* \"#utility.yul\":15361:15387   */\n      swap1\n      pop\n        /* \"#utility.yul\":15433:15442   */\n      dup2\n        /* \"#utility.yul\":15427:15431   */\n      dup2\n        /* \"#utility.yul\":15423:15443   */\n      sub\n        /* \"#utility.yul\":15419:15420   */\n      0x00\n        /* \"#utility.yul\":15408:15417   */\n      dup4\n        /* \"#utility.yul\":15404:15421   */\n      add\n        /* \"#utility.yul\":15397:15444   */\n      mstore\n        /* \"#utility.yul\":15461:15592   */\n      tag_620\n        /* \"#utility.yul\":15587:15591   */\n      dup2\n        /* \"#utility.yul\":15461:15592   */\n      tag_473\n      jump\t// in\n    tag_620:\n        /* \"#utility.yul\":15453:15592   */\n      swap1\n      pop\n        /* \"#utility.yul\":15180:15599   */\n      swap2\n      swap1\n      pop\n      jump\t// out\n        /* \"#utility.yul\":15605:15785   */\n    tag_175:\n        /* \"#utility.yul\":15653:15730   */\n      0x4e487b7100000000000000000000000000000000000000000000000000000000\n        /* \"#utility.yul\":15650:15651   */\n      0x00\n        /* \"#utility.yul\":15643:15731   */\n      mstore\n        /* \"#utility.yul\":15750:15754   */\n      0x41\n        /* \"#utility.yul\":15747:15748   */\n      0x04\n        /* \"#utility.yul\":15740:15755   */\n      mstore\n        /* \"#utility.yul\":15774:15778   */\n      0x24\n        /* \"#utility.yul\":15771:15772   */\n      0x00\n        /* \"#utility.yul\":15764:15779   */\n      revert\n        /* \"#utility.yul\":15791:16024   */\n    tag_185:\n        /* \"#utility.yul\":15830:15833   */\n      0x00\n        /* \"#utility.yul\":15853:15877   */\n      tag_623\n        /* \"#utility.yul\":15871:15876   */\n      dup3\n        /* \"#utility.yul\":15853:15877   */\n      tag_431\n      jump\t// in\n    tag_623:\n        /* \"#utility.yul\":15844:15877   */\n      swap2\n      pop\n        /* \"#utility.yul\":15899:15965   */\n      0xffffffffffffffffffffffffffffffffffffffffffffffffffffffffffffffff\n        /* \"#utility.yul\":15892:15897   */\n      dup3\n        /* \"#utility.yul\":15889:15966   */\n      eq\n        /* \"#utility.yul\":15886:15989   */\n      iszero\n      tag_624\n      jumpi\n        /* \"#utility.yul\":15969:15987   */\n      tag_625\n      tag_467\n      jump\t// in\n    tag_625:\n        /* \"#utility.yul\":15886:15989   */\n    tag_624:\n        /* \"#utility.yul\":16016:16017   */\n      0x01\n        /* \"#utility.yul\":16009:16014   */\n      dup3\n        /* \"#utility.yul\":16005:16018   */\n      add\n        /* \"#utility.yul\":15998:16018   */\n      swap1\n      pop\n        /* \"#utility.yul\":15791:16024   */\n      swap2\n      swap1\n      pop\n      jump\t// out\n        /* \"#utility.yul\":16030:16335   */\n    tag_188:\n        /* \"#utility.yul\":16070:16073   */\n      0x00\n        /* \"#utility.yul\":16089:16109   */\n      tag_627\n        /* \"#utility.yul\":16107:16108   */\n      dup3\n        /* \"#utility.yul\":16089:16109   */\n      tag_431\n      jump\t// in\n    tag_627:\n        /* \"#utility.yul\":16084:16109   */\n      swap2\n      pop\n        /* \"#utility.yul\":16123:16143   */\n      tag_628\n        /* \"#utility.yul\":16141:16142   */\n      dup4\n        /* \"#utility.yul\":16123:16143   */\n      tag_431\n      jump\t// in\n    tag_628:\n        /* \"#utility.yul\":16118:16143   */\n      swap3\n      pop\n        /* \"#utility.yul\":16277:16278   */\n      dup3\n        /* \"#utility.yul\":16209:16275   */\n      0xffffffffffffffffffffffffffffffffffffffffffffffffffffffffffffffff\n        /* \"#utility.yul\":16205:16279   */\n      sub\n        /* \"#utility.yul\":16202:16203   */\n      dup3\n        /* \"#utility.yul\":16199:16280   */\n      gt\n        /* \"#utility.yul\":16196:16303   */\n      iszero\n      tag_629\n      jumpi\n        /* \"#utility.yul\":16283:16301   */\n      tag_630\n      tag_467\n      jump\t// in\n    tag_630:\n        /* \"#utility.yul\":16196:16303   */\n    tag_629:\n        /* \"#utility.yul\":16327:16328   */\n      dup3\n        /* \"#utility.yul\":16324:16325   */\n      dup3\n        /* \"#utility.yul\":16320:16329   */\n      add\n        /* \"#utility.yul\":16313:16329   */\n      swap1\n      pop\n        /* \"#utility.yul\":16030:16335   */\n      swap3\n      swap2\n      pop\n      pop\n      jump\t// out\n        /* \"#utility.yul\":16341:16521   */\n    tag_211:\n        /* \"#utility.yul\":16389:16466   */\n      0x4e487b7100000000000000000000000000000000000000000000000000000000\n        /* \"#utility.yul\":16386:16387   */\n      0x00\n        /* \"#utility.yul\":16379:16467   */\n      mstore\n        /* \"#utility.yul\":16486:16490   */\n      0x32\n        /* \"#utility.yul\":16483:16484   */\n      0x04\n        /* \"#utility.yul\":16476:16491   */\n      mstore\n        /* \"#utility.yul\":16510:16514   */\n      0x24\n        /* \"#utility.yul\":16507:16508   */\n      0x00\n        /* \"#utility.yul\":16500:16515   */\n      revert\n        /* \"#utility.yul\":16527:16875   */\n    tag_221:\n        /* \"#utility.yul\":16567:16574   */\n      0x00\n        /* \"#utility.yul\":16590:16610   */\n      tag_633\n        /* \"#utility.yul\":16608:16609   */\n      dup3\n        /* \"#utility.yul\":16590:16610   */\n      tag_431\n      jump\t// in\n    tag_633:\n        /* \"#utility.yul\":16585:16610   */\n      swap2\n      pop\n        /* \"#utility.yul\":16624:16644   */\n      tag_634\n        /* \"#utility.yul\":16642:16643   */\n      dup4\n        /* \"#utility.yul\":16624:16644   */\n      tag_431\n      jump\t// in\n    tag_634:\n        /* \"#utility.yul\":16619:16644   */\n      swap3\n      pop\n        /* \"#utility.yul\":16812:16813   */\n      dup2\n        /* \"#utility.yul\":16744:16810   */\n      0xffffffffffffffffffffffffffffffffffffffffffffffffffffffffffffffff\n        /* \"#utility.yul\":16740:16814   */\n      div\n        /* \"#utility.yul\":16737:16738   */\n      dup4\n        /* \"#utility.yul\":16734:16815   */\n      gt\n        /* \"#utility.yul\":16729:16730   */\n      dup3\n        /* \"#utility.yul\":16722:16731   */\n      iszero\n        /* \"#utility.yul\":16715:16732   */\n      iszero\n        /* \"#utility.yul\":16711:16816   */\n      and\n        /* \"#utility.yul\":16708:16839   */\n      iszero\n      tag_635\n      jumpi\n        /* \"#utility.yul\":16819:16837   */\n      tag_636\n      tag_467\n      jump\t// in\n    tag_636:\n        /* \"#utility.yul\":16708:16839   */\n    tag_635:\n        /* \"#utility.yul\":16867:16868   */\n      dup3\n        /* \"#utility.yul\":16864:16865   */\n      dup3\n        /* \"#utility.yul\":16860:16869   */\n      mul\n        /* \"#utility.yul\":16849:16869   */\n      swap1\n      pop\n        /* \"#utility.yul\":16527:16875   */\n      swap3\n      swap2\n      pop\n      pop\n      jump\t// out\n        /* \"#utility.yul\":16881:17051   */\n    tag_474:\n        /* \"#utility.yul\":17021:17043   */\n      0x43616c6c6572206973206e6f742041646d696e2e000000000000000000000000\n        /* \"#utility.yul\":17017:17018   */\n      0x00\n        /* \"#utility.yul\":17009:17015   */\n      dup3\n        /* \"#utility.yul\":17005:17019   */\n      add\n        /* \"#utility.yul\":16998:17044   */\n      mstore\n        /* \"#utility.yul\":16881:17051   */\n      pop\n      jump\t// out\n        /* \"#utility.yul\":17057:17423   */\n    tag_475:\n        /* \"#utility.yul\":17199:17202   */\n      0x00\n        /* \"#utility.yul\":17220:17287   */\n      tag_639\n        /* \"#utility.yul\":17284:17286   */\n      0x14\n        /* \"#utility.yul\":17279:17282   */\n      dup4\n        /* \"#utility.yul\":17220:17287   */\n      tag_458\n      jump\t// in\n    tag_639:\n        /* \"#utility.yul\":17213:17287   */\n      swap2\n      pop\n        /* \"#utility.yul\":17296:17389   */\n      tag_640\n        /* \"#utility.yul\":17385:17388   */\n      dup3\n        /* \"#utility.yul\":17296:17389   */\n      tag_474\n      jump\t// in\n    tag_640:\n        /* \"#utility.yul\":17414:17416   */\n      0x20\n        /* \"#utility.yul\":17409:17412   */\n      dup3\n        /* \"#utility.yul\":17405:17417   */\n      add\n        /* \"#utility.yul\":17398:17417   */\n      swap1\n      pop\n        /* \"#utility.yul\":17057:17423   */\n      swap2\n      swap1\n      pop\n      jump\t// out\n        /* \"#utility.yul\":17429:17848   */\n    tag_242:\n        /* \"#utility.yul\":17595:17599   */\n      0x00\n        /* \"#utility.yul\":17633:17635   */\n      0x20\n        /* \"#utility.yul\":17622:17631   */\n      dup3\n        /* \"#utility.yul\":17618:17636   */\n      add\n        /* \"#utility.yul\":17610:17636   */\n      swap1\n      pop\n        /* \"#utility.yul\":17682:17691   */\n      dup2\n        /* \"#utility.yul\":17676:17680   */\n      dup2\n        /* \"#utility.yul\":17672:17692   */\n      sub\n        /* \"#utility.yul\":17668:17669   */\n      0x00\n        /* \"#utility.yul\":17657:17666   */\n      dup4\n        /* \"#utility.yul\":17653:17670   */\n      add\n        /* \"#utility.yul\":17646:17693   */\n      mstore\n        /* \"#utility.yul\":17710:17841   */\n      tag_642\n        /* \"#utility.yul\":17836:17840   */\n      dup2\n        /* \"#utility.yul\":17710:17841   */\n      tag_475\n      jump\t// in\n    tag_642:\n        /* \"#utility.yul\":17702:17841   */\n      swap1\n      pop\n        /* \"#utility.yul\":17429:17848   */\n      swap2\n      swap1\n      pop\n      jump\t// out\n        /* \"#utility.yul\":17854:18017   */\n    tag_476:\n        /* \"#utility.yul\":17994:18009   */\n      0x496e76616c696420496e64657800000000000000000000000000000000000000\n        /* \"#utility.yul\":17990:17991   */\n      0x00\n        /* \"#utility.yul\":17982:17988   */\n      dup3\n        /* \"#utility.yul\":17978:17992   */\n      add\n        /* \"#utility.yul\":17971:18010   */\n      mstore\n        /* \"#utility.yul\":17854:18017   */\n      pop\n      jump\t// out\n        /* \"#utility.yul\":18023:18389   */\n    tag_477:\n        /* \"#utility.yul\":18165:18168   */\n      0x00\n        /* \"#utility.yul\":18186:18253   */\n      tag_645\n        /* \"#utility.yul\":18250:18252   */\n      0x0d\n        /* \"#utility.yul\":18245:18248   */\n      dup4\n        /* \"#utility.yul\":18186:18253   */\n      tag_458\n      jump\t// in\n    tag_645:\n        /* \"#utility.yul\":18179:18253   */\n      swap2\n      pop\n        /* \"#utility.yul\":18262:18355   */\n      tag_646\n        /* \"#utility.yul\":18351:18354   */\n      dup3\n        /* \"#utility.yul\":18262:18355   */\n      tag_476\n      jump\t// in\n    tag_646:\n        /* \"#utility.yul\":18380:18382   */\n      0x20\n        /* \"#utility.yul\":18375:18378   */\n      dup3\n        /* \"#utility.yul\":18371:18383   */\n      add\n        /* \"#utility.yul\":18364:18383   */\n      swap1\n      pop\n        /* \"#utility.yul\":18023:18389   */\n      swap2\n      swap1\n      pop\n      jump\t// out\n        /* \"#utility.yul\":18395:18814   */\n    tag_248:\n        /* \"#utility.yul\":18561:18565   */\n      0x00\n        /* \"#utility.yul\":18599:18601   */\n      0x20\n        /* \"#utility.yul\":18588:18597   */\n      dup3\n        /* \"#utility.yul\":18584:18602   */\n      add\n        /* \"#utility.yul\":18576:18602   */\n      swap1\n      pop\n        /* \"#utility.yul\":18648:18657   */\n      dup2\n        /* \"#utility.yul\":18642:18646   */\n      dup2\n        /* \"#utility.yul\":18638:18658   */\n      sub\n        /* \"#utility.yul\":18634:18635   */\n      0x00\n        /* \"#utility.yul\":18623:18632   */\n      dup4\n        /* \"#utility.yul\":18619:18636   */\n      add\n        /* \"#utility.yul\":18612:18659   */\n      mstore\n        /* \"#utility.yul\":18676:18807   */\n      tag_648\n        /* \"#utility.yul\":18802:18806   */\n      dup2\n        /* \"#utility.yul\":18676:18807   */\n      tag_477\n      jump\t// in\n    tag_648:\n        /* \"#utility.yul\":18668:18807   */\n      swap1\n      pop\n        /* \"#utility.yul\":18395:18814   */\n      swap2\n      swap1\n      pop\n      jump\t// out\n        /* \"#utility.yul\":18820:19011   */\n    tag_251:\n        /* \"#utility.yul\":18860:18864   */\n      0x00\n        /* \"#utility.yul\":18880:18900   */\n      tag_650\n        /* \"#utility.yul\":18898:18899   */\n      dup3\n        /* \"#utility.yul\":18880:18900   */\n      tag_431\n      jump\t// in\n    tag_650:\n        /* \"#utility.yul\":18875:18900   */\n      swap2\n      pop\n        /* \"#utility.yul\":18914:18934   */\n      tag_651\n        /* \"#utility.yul\":18932:18933   */\n      dup4\n        /* \"#utility.yul\":18914:18934   */\n      tag_431\n      jump\t// in\n    tag_651:\n        /* \"#utility.yul\":18909:18934   */\n      swap3\n      pop\n        /* \"#utility.yul\":18953:18954   */\n      dup3\n        /* \"#utility.yul\":18950:18951   */\n      dup3\n        /* \"#utility.yul\":18947:18955   */\n      lt\n        /* \"#utility.yul\":18944:18978   */\n      iszero\n      tag_652\n      jumpi\n        /* \"#utility.yul\":18958:18976   */\n      tag_653\n      tag_467\n      jump\t// in\n    tag_653:\n        /* \"#utility.yul\":18944:18978   */\n    tag_652:\n        /* \"#utility.yul\":19003:19004   */\n      dup3\n        /* \"#utility.yul\":19000:19001   */\n      dup3\n        /* \"#utility.yul\":18996:19005   */\n      sub\n        /* \"#utility.yul\":18988:19005   */\n      swap1\n      pop\n        /* \"#utility.yul\":18820:19011   */\n      swap3\n      swap2\n      pop\n      pop\n      jump\t// out\n        /* \"#utility.yul\":19017:19193   */\n    tag_266:\n        /* \"#utility.yul\":19049:19050   */\n      0x00\n        /* \"#utility.yul\":19066:19086   */\n      tag_655\n        /* \"#utility.yul\":19084:19085   */\n      dup3\n        /* \"#utility.yul\":19066:19086   */\n      tag_431\n      jump\t// in\n    tag_655:\n        /* \"#utility.yul\":19061:19086   */\n      swap2\n      pop\n        /* \"#utility.yul\":19100:19120   */\n      tag_656\n        /* \"#utility.yul\":19118:19119   */\n      dup4\n        /* \"#utility.yul\":19100:19120   */\n      tag_431\n      jump\t// in\n    tag_656:\n        /* \"#utility.yul\":19095:19120   */\n      swap3\n      pop\n        /* \"#utility.yul\":19139:19140   */\n      dup3\n        /* \"#utility.yul\":19129:19164   */\n      tag_657\n      jumpi\n        /* \"#utility.yul\":19144:19162   */\n      tag_658\n      tag_466\n      jump\t// in\n    tag_658:\n        /* \"#utility.yul\":19129:19164   */\n    tag_657:\n        /* \"#utility.yul\":19185:19186   */\n      dup3\n        /* \"#utility.yul\":19182:19183   */\n      dup3\n        /* \"#utility.yul\":19178:19187   */\n      mod\n        /* \"#utility.yul\":19173:19187   */\n      swap1\n      pop\n        /* \"#utility.yul\":19017:19193   */\n      swap3\n      swap2\n      pop\n      pop\n      jump\t// out\n        /* \"#utility.yul\":19199:19531   */\n    tag_300:\n        /* \"#utility.yul\":19320:19324   */\n      0x00\n        /* \"#utility.yul\":19358:19360   */\n      0x40\n        /* \"#utility.yul\":19347:19356   */\n      dup3\n        /* \"#utility.yul\":19343:19361   */\n      add\n        /* \"#utility.yul\":19335:19361   */\n      swap1\n      pop\n        /* \"#utility.yul\":19371:19442   */\n      tag_660\n        /* \"#utility.yul\":19439:19440   */\n      0x00\n        /* \"#utility.yul\":19428:19437   */\n      dup4\n        /* \"#utility.yul\":19424:19441   */\n      add\n        /* \"#utility.yul\":19415:19421   */\n      dup6\n        /* \"#utility.yul\":19371:19442   */\n      tag_457\n      jump\t// in\n    tag_660:\n        /* \"#utility.yul\":19452:19524   */\n      tag_661\n        /* \"#utility.yul\":19520:19522   */\n      0x20\n        /* \"#utility.yul\":19509:19518   */\n      dup4\n        /* \"#utility.yul\":19505:19523   */\n      add\n        /* \"#utility.yul\":19496:19502   */\n      dup5\n        /* \"#utility.yul\":19452:19524   */\n      tag_457\n      jump\t// in\n    tag_661:\n        /* \"#utility.yul\":19199:19531   */\n      swap4\n      swap3\n      pop\n      pop\n      pop\n      jump\t// out\n        /* \"#utility.yul\":19537:19613   */\n    tag_478:\n        /* \"#utility.yul\":19573:19580   */\n      0x00\n        /* \"#utility.yul\":19602:19607   */\n      dup2\n        /* \"#utility.yul\":19591:19607   */\n      swap1\n      pop\n        /* \"#utility.yul\":19537:19613   */\n      swap2\n      swap1\n      pop\n      jump\t// out\n        /* \"#utility.yul\":19619:19850   */\n    tag_384:\n        /* \"#utility.yul\":19657:19660   */\n      0x00\n        /* \"#utility.yul\":19680:19703   */\n      tag_664\n        /* \"#utility.yul\":19697:19702   */\n      dup3\n        /* \"#utility.yul\":19680:19703   */\n      tag_478\n      jump\t// in\n    tag_664:\n        /* \"#utility.yul\":19671:19703   */\n      swap2\n      pop\n        /* \"#utility.yul\":19725:19791   */\n      0x7fffffffffffffffffffffffffffffffffffffffffffffffffffffffffffffff\n        /* \"#utility.yul\":19718:19723   */\n      dup3\n        /* \"#utility.yul\":19715:19792   */\n      eq\n        /* \"#utility.yul\":19712:19815   */\n      iszero\n      tag_665\n      jumpi\n        /* \"#utility.yul\":19795:19813   */\n      tag_666\n      tag_467\n      jump\t// in\n    tag_666:\n        /* \"#utility.yul\":19712:19815   */\n    tag_665:\n        /* \"#utility.yul\":19842:19843   */\n      0x01\n        /* \"#utility.yul\":19835:19840   */\n      dup3\n        /* \"#utility.yul\":19831:19844   */\n      add\n        /* \"#utility.yul\":19824:19844   */\n      swap1\n      pop\n        /* \"#utility.yul\":19619:19850   */\n      swap2\n      swap1\n      pop\n      jump\t// out\n\n    auxdata: 0xa26469706673582212202d4f42761c9c464d119a7d1be0436930f2ece4b0bbc01f20b7b2bc529ca31fe264736f6c634300080b0033\n}\n",
				"bytecode": {
					"linkReferences": {},
					"object": "60806040526040518060800160405280600260ff168152602001600160ff168152602001600160ff168152602001600160ff1681525060089060046200004792919062000703565b506000600f556000601055600060115560006012556802b5e3af16b18800006013556064600a6013546200007c91906200095f565b620000889190620009ef565b601455606460096013546200009e91906200095f565b620000aa9190620009ef565b60155560646001601354620000c091906200095f565b620000cc9190620009ef565b601655348015620000dc57600080fd5b5060405162004e8e38038062004e8e833981810160405281019062000102919062000a91565b336000806101000a81548173ffffffffffffffffffffffffffffffffffffffff021916908373ffffffffffffffffffffffffffffffffffffffff16021790555080600160006101000a81548173ffffffffffffffffffffffffffffffffffffffff021916908373ffffffffffffffffffffffffffffffffffffffff16021790555082600260006101000a81548173ffffffffffffffffffffffffffffffffffffffff021916908373ffffffffffffffffffffffffffffffffffffffff16021790555081600360006101000a81548173ffffffffffffffffffffffffffffffffffffffff021916908373ffffffffffffffffffffffffffffffffffffffff16021790555060405180608001604052808873ffffffffffffffffffffffffffffffffffffffff1673ffffffffffffffffffffffffffffffffffffffff1681526020018773ffffffffffffffffffffffffffffffffffffffff1673ffffffffffffffffffffffffffffffffffffffff1681526020018673ffffffffffffffffffffffffffffffffffffffff1673ffffffffffffffffffffffffffffffffffffffff1681526020018573ffffffffffffffffffffffffffffffffffffffff1673ffffffffffffffffffffffffffffffffffffffff168152506004906004620002e8929190620007a4565b5060646050601354620002fc91906200095f565b620003089190620009ef565b60096000600181526020019081526020016000208190555060026009600060018152602001908152602001600020546200034391906200095f565b60096000600281526020019081526020016000208190555060026009600060028152602001908152602001600020546200037e91906200095f565b6009600060038152602001908152602001600020819055506002600960006003815260200190815260200160002054620003b991906200095f565b6009600060048152602001908152602001600020819055506002600960006004815260200190815260200160002054620003f491906200095f565b60096000600581526020019081526020016000208190555060026009600060058152602001908152602001600020546200042f91906200095f565b60096000600681526020019081526020016000208190555060026009600060068152602001908152602001600020546200046a91906200095f565b6009600060078152602001908152602001600020819055506002600960006007815260200190815260200160002054620004a591906200095f565b6009600060088152602001908152602001600020819055506002600960006008815260200190815260200160002054620004e091906200095f565b6009600060098152602001908152602001600020819055506000600a60008060009054906101000a900473ffffffffffffffffffffffffffffffffffffffff1673ffffffffffffffffffffffffffffffffffffffff1673ffffffffffffffffffffffffffffffffffffffff168152602001908152602001600020905060018160000160006101000a81548160ff021916908315150217905550600f54816001018190555060008160020181905550600067ffffffffffffffff811115620005ac57620005ab62000b44565b5b604051908082528060200260200182016040528015620005db5781602001602082028036833780820191505090505b50816003019080519060200190620005f592919062000826565b50428160040181905550600067ffffffffffffffff8111156200061d576200061c62000b44565b5b6040519080825280602002602001820160405280156200064c5781602001602082028036833780820191505090505b5081600601908051906020019062000666929190620008b5565b50600f60008154809291906200067c9062000b73565b919050555060008054906101000a900473ffffffffffffffffffffffffffffffffffffffff16600b6000600f54815260200190815260200160002060006101000a81548173ffffffffffffffffffffffffffffffffffffffff021916908373ffffffffffffffffffffffffffffffffffffffff160217905550505050505050505062000bc1565b826004601f01602090048101928215620007915791602002820160005b838211156200076057835183826101000a81548160ff021916908360ff160217905550926020019260010160208160000104928301926001030262000720565b80156200078f5782816101000a81549060ff021916905560010160208160000104928301926001030262000760565b505b509050620007a0919062000907565b5090565b826004810192821562000813579160200282015b82811115620008125782518260006101000a81548173ffffffffffffffffffffffffffffffffffffffff021916908373ffffffffffffffffffffffffffffffffffffffff16021790555091602001919060010190620007b8565b5b50905062000822919062000907565b5090565b828054828255906000526020600020908101928215620008a2579160200282015b82811115620008a15782518260006101000a81548173ffffffffffffffffffffffffffffffffffffffff021916908373ffffffffffffffffffffffffffffffffffffffff1602179055509160200191906001019062000847565b5b509050620008b1919062000907565b5090565b828054828255906000526020600020908101928215620008f4579160200282015b82811115620008f3578251825591602001919060010190620008d6565b5b50905062000903919062000907565b5090565b5b808211156200092257600081600090555060010162000908565b5090565b6000819050919050565b7f4e487b7100000000000000000000000000000000000000000000000000000000600052601160045260246000fd5b60006200096c8262000926565b9150620009798362000926565b9250817fffffffffffffffffffffffffffffffffffffffffffffffffffffffffffffffff0483118215151615620009b557620009b462000930565b5b828202905092915050565b7f4e487b7100000000000000000000000000000000000000000000000000000000600052601260045260246000fd5b6000620009fc8262000926565b915062000a098362000926565b92508262000a1c5762000a1b620009c0565b5b828204905092915050565b600080fd5b600073ffffffffffffffffffffffffffffffffffffffff82169050919050565b600062000a598262000a2c565b9050919050565b62000a6b8162000a4c565b811462000a7757600080fd5b50565b60008151905062000a8b8162000a60565b92915050565b600080600080600080600060e0888a03121562000ab35762000ab262000a27565b5b600062000ac38a828b0162000a7a565b975050602062000ad68a828b0162000a7a565b965050604062000ae98a828b0162000a7a565b955050606062000afc8a828b0162000a7a565b945050608062000b0f8a828b0162000a7a565b93505060a062000b228a828b0162000a7a565b92505060c062000b358a828b0162000a7a565b91505092959891949750929550565b7f4e487b7100000000000000000000000000000000000000000000000000000000600052604160045260246000fd5b600062000b808262000926565b91507fffffffffffffffffffffffffffffffffffffffffffffffffffffffffffffffff82141562000bb65762000bb562000930565b5b600182019050919050565b6142bd8062000bd16000396000f3fe6080604052600436106101355760003560e01c8063992c85d2116100ab578063a87430ba1161006f578063a87430ba1461047f578063aa24c5c5146104bf578063bbf57068146104fc578063c15dec8514610539578063f7bbfccd14610564578063fb75b2c71461058d57610135565b8063992c85d21461039657806399cbd74f146103c15780639f4216e8146103ec578063a457c05014610429578063a4bb170d1461045457610135565b80635e8a7069116100fd5780635e8a7069146102595780636043ddad146102845780636158fa00146102c15780636f9fb98a146102fe57806379378e30146103295780638853b53e1461036657610135565b806310e4077a1461013a57806336b19cd71461017757806343f6753c146101a25780634d948bea146101df578063575cea6b1461021c575b600080fd5b34801561014657600080fd5b50610161600480360381019061015c9190613877565b6105b8565b60405161016e91906138e5565b60405180910390f35b34801561018357600080fd5b5061018c6105ee565b60405161019991906138e5565b60405180910390f35b3480156101ae57600080fd5b506101c960048036038101906101c4919061392c565b610612565b6040516101d691906138e5565b60405180910390f35b3480156101eb57600080fd5b506102066004803603810190610201919061392c565b610654565b6040516102139190613987565b60405180910390f35b34801561022857600080fd5b50610243600480360381019061023e91906139a2565b610683565b6040516102509190613a8d565b60405180910390f35b34801561026557600080fd5b5061026e610753565b60405161027b9190613987565b60405180910390f35b34801561029057600080fd5b506102ab60048036038101906102a69190613877565b6108bc565b6040516102b89190613acb565b60405180910390f35b3480156102cd57600080fd5b506102e860048036038101906102e391906139a2565b6108e6565b6040516102f59190613ba4565b60405180910390f35b34801561030a57600080fd5b50610313610980565b6040516103209190613bd5565b60405180910390f35b34801561033557600080fd5b50610350600480360381019061034b9190613877565b610996565b60405161035d9190613bd5565b60405180910390f35b610380600480360381019061037b9190613877565b6109ae565b60405161038d9190613987565b60405180910390f35b3480156103a257600080fd5b506103ab611174565b6040516103b891906138e5565b60405180910390f35b3480156103cd57600080fd5b506103d661119a565b6040516103e39190613987565b60405180910390f35b3480156103f857600080fd5b50610413600480360381019061040e9190613877565b61137e565b60405161042091906138e5565b60405180910390f35b34801561043557600080fd5b5061043e6113b1565b60405161044b9190613987565b60405180910390f35b34801561046057600080fd5b5061046961151a565b6040516104769190613bd5565b60405180910390f35b34801561048b57600080fd5b506104a660048036038101906104a191906139a2565b611520565b6040516104b69493929190613bf0565b60405180910390f35b3480156104cb57600080fd5b506104e660048036038101906104e19190613c35565b61155d565b6040516104f39190613bd5565b60405180910390f35b34801561050857600080fd5b50610523600480360381019061051e919061392c565b6115bb565b6040516105309190613bd5565b60405180910390f35b34801561054557600080fd5b5061054e6115e0565b60405161055b91906138e5565b60405180910390f35b34801561057057600080fd5b5061058b60048036038101906105869190613c35565b611606565b005b34801561059957600080fd5b506105a2611869565b6040516105af91906138e5565b60405180910390f35b600481600481106105c857600080fd5b016000915054906101000a900473ffffffffffffffffffffffffffffffffffffffff1681565b60008054906101000a900473ffffffffffffffffffffffffffffffffffffffff1681565b600d6020528160005260406000206020528060005260406000206000915091509054906101000a900473ffffffffffffffffffffffffffffffffffffffff1681565b600e6020528160005260406000206020528060005260406000206000915091509054906101000a900460ff1681565b6060600a60008373ffffffffffffffffffffffffffffffffffffffff1673ffffffffffffffffffffffffffffffffffffffff16815260200190815260200160002060030180548060200260200160405190810160405280929190818152602001828054801561074757602002820191906000526020600020905b8160009054906101000a900473ffffffffffffffffffffffffffffffffffffffff1673ffffffffffffffffffffffffffffffffffffffff16815260200190600101908083116106fd575b50505050509050919050565b6000600160009054906101000a900473ffffffffffffffffffffffffffffffffffffffff1673ffffffffffffffffffffffffffffffffffffffff163373ffffffffffffffffffffffffffffffffffffffff16146107e5576040517f08c379a00000000000000000000000000000000000000000000000000000000081526004016107dc90613cd2565b60405180910390fd5b6000600160009054906101000a900473ffffffffffffffffffffffffffffffffffffffff1673ffffffffffffffffffffffffffffffffffffffff1660125460405161082f90613d23565b60006040518083038185875af1925050503d806000811461086c576040519150601f19603f3d011682016040523d82523d6000602084013e610871565b606091505b50509050806108b5576040517f08c379a00000000000000000000000000000000000000000000000000000000081526004016108ac90613d84565b60405180910390fd5b8091505090565b600881600481106108cc57600080fd5b60209182820401919006915054906101000a900460ff1681565b6060600a60008373ffffffffffffffffffffffffffffffffffffffff1673ffffffffffffffffffffffffffffffffffffffff16815260200190815260200160002060060180548060200260200160405190810160405280929190818152602001828054801561097457602002820191906000526020600020905b815481526020019060010190808311610960575b50505050509050919050565b6000620f4240476109919190613e02565b905090565b60096020528060005260406000206000915090505481565b6000600a60003373ffffffffffffffffffffffffffffffffffffffff1673ffffffffffffffffffffffffffffffffffffffff16815260200190815260200160002060000160009054906101000a900460ff1615610a40576040517f08c379a0000000000000000000000000000000000000000000000000000000008152600401610a3790613e7f565b60405180910390fd5b600082118015610a525750600f548211155b610a91576040517f08c379a0000000000000000000000000000000000000000000000000000000008152600401610a8890613eeb565b60405180910390fd5b6013543414610ad5576040517f08c379a0000000000000000000000000000000000000000000000000000000008152600401610acc90613f57565b60405180910390fd5b6000600a60003373ffffffffffffffffffffffffffffffffffffffff1673ffffffffffffffffffffffffffffffffffffffff168152602001908152602001600020905060018160000160006101000a81548160ff021916908315150217905550600f548160010181905550828160020181905550600067ffffffffffffffff811115610b6457610b63613f77565b5b604051908082528060200260200182016040528015610b925781602001602082028036833780820191505090505b50816003019080519060200190610baa929190613748565b50428160040181905550600067ffffffffffffffff811115610bcf57610bce613f77565b5b604051908082528060200260200182016040528015610bfd5781602001602082028036833780820191505090505b50816006019080519060200190610c159291906137d2565b50600f6000815480929190610c2990613fa6565b919050555033600b6000600f54815260200190815260200160002060006101000a81548173ffffffffffffffffffffffffffffffffffffffff021916908373ffffffffffffffffffffffffffffffffffffffff160217905550600a6000600b600086815260200190815260200160002060009054906101000a900473ffffffffffffffffffffffffffffffffffffffff1673ffffffffffffffffffffffffffffffffffffffff1673ffffffffffffffffffffffffffffffffffffffff168152602001908152602001600020600301339080600181540180825580915050600190039060005260206000200160009091909190916101000a81548173ffffffffffffffffffffffffffffffffffffffff021916908373ffffffffffffffffffffffffffffffffffffffff16021790555060096000600181526020019081526020016000205460126000828254610d7e9190613fef565b9250508190555060155460116000828254610d999190613fef565b9250508190555060165460106000828254610db49190613fef565b925050819055506000600a6000600b600087815260200190815260200160002060009054906101000a900473ffffffffffffffffffffffffffffffffffffffff1673ffffffffffffffffffffffffffffffffffffffff1673ffffffffffffffffffffffffffffffffffffffff168152602001908152602001600020600301805490509050600181141580610e485750600184145b15610e6057610e5b60013383600061188f565b610ff0565b600a6000600b600087815260200190815260200160002060009054906101000a900473ffffffffffffffffffffffffffffffffffffffff1673ffffffffffffffffffffffffffffffffffffffff1673ffffffffffffffffffffffffffffffffffffffff168152602001908152602001600020600601600190806001815401808255809150506001900390600052602060002001600090919091909150556000600b600086815260200190815260200160002060009054906101000a900473ffffffffffffffffffffffffffffffffffffffff1690506001600a60008373ffffffffffffffffffffffffffffffffffffffff1673ffffffffffffffffffffffffffffffffffffffff16815260200190815260200160002060050160006001815260200190815260200160002054610f969190613fef565b600a60008373ffffffffffffffffffffffffffffffffffffffff1673ffffffffffffffffffffffffffffffffffffffff16815260200190815260200160002060050160006001815260200190815260200160002081905550505b6000600b600086815260200190815260200160002060009054906101000a900473ffffffffffffffffffffffffffffffffffffffff1673ffffffffffffffffffffffffffffffffffffffff1660145460405161104b90613d23565b60006040518083038185875af1925050503d8060008114611088576040519150601f19603f3d011682016040523d82523d6000602084013e61108d565b606091505b50509050806110d1576040517f08c379a00000000000000000000000000000000000000000000000000000000081526004016110c890613d84565b60405180910390fd5b600b600086815260200190815260200160002060009054906101000a900473ffffffffffffffffffffffffffffffffffffffff1673ffffffffffffffffffffffffffffffffffffffff163373ffffffffffffffffffffffffffffffffffffffff167f788c06d2405ae89dd3f0528d38be7691289474d72176408bc2c2406dc5e342f1426040516111619190613bd5565b60405180910390a3809350505050919050565b600260009054906101000a900473ffffffffffffffffffffffffffffffffffffffff1681565b600080600090506000805b6004811015611236573373ffffffffffffffffffffffffffffffffffffffff16600482600481106111d9576111d8614045565b5b0160009054906101000a900473ffffffffffffffffffffffffffffffffffffffff1673ffffffffffffffffffffffffffffffffffffffff1614156112235760019250809150611236565b808061122e90613fa6565b9150506111a5565b50600115158215151461127e576040517f08c379a000000000000000000000000000000000000000000000000000000000815260040161127590613cd2565b60405180910390fd5b600060646008836004811061129657611295614045565b5b602091828204019190069054906101000a900460ff1660ff166011546112bc9190614074565b6112c69190613e02565b905060003373ffffffffffffffffffffffffffffffffffffffff16826040516112ee90613d23565b60006040518083038185875af1925050503d806000811461132b576040519150601f19603f3d011682016040523d82523d6000602084013e611330565b606091505b5050905080611374576040517f08c379a000000000000000000000000000000000000000000000000000000000815260040161136b90613d84565b60405180910390fd5b8094505050505090565b600b6020528060005260406000206000915054906101000a900473ffffffffffffffffffffffffffffffffffffffff1681565b6000600260009054906101000a900473ffffffffffffffffffffffffffffffffffffffff1673ffffffffffffffffffffffffffffffffffffffff163373ffffffffffffffffffffffffffffffffffffffff1614611443576040517f08c379a000000000000000000000000000000000000000000000000000000000815260040161143a90613cd2565b60405180910390fd5b6000600260009054906101000a900473ffffffffffffffffffffffffffffffffffffffff1673ffffffffffffffffffffffffffffffffffffffff1660105460405161148d90613d23565b60006040518083038185875af1925050503d80600081146114ca576040519150601f19603f3d011682016040523d82523d6000602084013e6114cf565b606091505b5050905080611513576040517f08c379a000000000000000000000000000000000000000000000000000000000815260040161150a90613d84565b60405180910390fd5b8091505090565b600f5481565b600a6020528060005260406000206000915090508060000160009054906101000a900460ff16908060010154908060020154908060040154905084565b6000600a60008473ffffffffffffffffffffffffffffffffffffffff1673ffffffffffffffffffffffffffffffffffffffff168152602001908152602001600020600501600083815260200190815260200160002054905092915050565b600c602052816000526040600020602052806000526040600020600091509150505481565b600160009054906101000a900473ffffffffffffffffffffffffffffffffffffffff1681565b60008054906101000a900473ffffffffffffffffffffffffffffffffffffffff1673ffffffffffffffffffffffffffffffffffffffff163373ffffffffffffffffffffffffffffffffffffffff1614611694576040517f08c379a000000000000000000000000000000000000000000000000000000000815260040161168b9061411a565b60405180910390fd5b60008054906101000a900473ffffffffffffffffffffffffffffffffffffffff1673ffffffffffffffffffffffffffffffffffffffff163373ffffffffffffffffffffffffffffffffffffffff1614611722576040517f08c379a000000000000000000000000000000000000000000000000000000000815260040161171990613cd2565b60405180910390fd5b6005811115611766576040517f08c379a000000000000000000000000000000000000000000000000000000000815260040161175d90614186565b60405180910390fd5b600381116117d35781600460018361177e91906141a6565b6004811061178f5761178e614045565b5b0160006101000a81548173ffffffffffffffffffffffffffffffffffffffff021916908373ffffffffffffffffffffffffffffffffffffffff160217905550611865565b60048114156118225781600260006101000a81548173ffffffffffffffffffffffffffffffffffffffff021916908373ffffffffffffffffffffffffffffffffffffffff160217905550611864565b81600160006101000a81548173ffffffffffffffffffffffffffffffffffffffff021916908373ffffffffffffffffffffffffffffffffffffffff1602179055505b5b5050565b600360009054906101000a900473ffffffffffffffffffffffffffffffffffffffff1681565b600080600090506000806001905060008089905060028814156118d9576118b98a8a848787611e07565b80965081955082985050505060018a6118d29190613fef565b90506119da565b601488101580156118f6575060006014896118f491906141da565b145b1561192557600360009054906101000a900473ffffffffffffffffffffffffffffffffffffffff1695506119d9565b600488101580156119425750600060048961194091906141da565b145b1561195f57611952878a8c612579565b80965081975050506119d8565b600b6000600a60008c73ffffffffffffffffffffffffffffffffffffffff1673ffffffffffffffffffffffffffffffffffffffff16815260200190815260200160002060020154815260200190815260200160002060009054906101000a900473ffffffffffffffffffffffffffffffffffffffff1695505b5b5b8280611a335750600a60008773ffffffffffffffffffffffffffffffffffffffff1673ffffffffffffffffffffffffffffffffffffffff16815260200190815260200160002060000160009054906101000a900460ff16155b80611a9d5750600b60006001815260200190815260200160002060009054906101000a900473ffffffffffffffffffffffffffffffffffffffff1673ffffffffffffffffffffffffffffffffffffffff168673ffffffffffffffffffffffffffffffffffffffff16145b15611dfb57611aaf86828a88886127d7565b80995081985050508615611b1b57828015611ac8575083155b8015611ad45750600288145b15611add578099505b828015611ae8575083155b8015611af45750600488145b8015611b005750600181115b15611b09578099505b611b168a878a600161188f565b611dfa565b600a60008773ffffffffffffffffffffffffffffffffffffffff1673ffffffffffffffffffffffffffffffffffffffff16815260200190815260200160002060000160009054906101000a900460ff16611ba757600b60006001815260200190815260200160002060009054906101000a900473ffffffffffffffffffffffffffffffffffffffff1695505b6001600a60008873ffffffffffffffffffffffffffffffffffffffff1673ffffffffffffffffffffffffffffffffffffffff168152602001908152602001600020600501600083815260200190815260200160002054611c079190613fef565b600a60008873ffffffffffffffffffffffffffffffffffffffff1673ffffffffffffffffffffffffffffffffffffffff16815260200190815260200160002060050160008381526020019081526020016000208190555060008673ffffffffffffffffffffffffffffffffffffffff166009600084815260200190815260200160002054604051611c9790613d23565b60006040518083038185875af1925050503d8060008114611cd4576040519150601f19603f3d011682016040523d82523d6000602084013e611cd9565b606091505b5050905080611d1d576040517f08c379a0000000000000000000000000000000000000000000000000000000008152600401611d1490613d84565b60405180910390fd5b8015611d8b573373ffffffffffffffffffffffffffffffffffffffff168773ffffffffffffffffffffffffffffffffffffffff167fce7dc747411ac40191c5335943fcc79d8c2d8c01ca5ae83d9fed160409fa61208442604051611d8292919061420b565b60405180910390a35b80611df8573373ffffffffffffffffffffffffffffffffffffffff168773ffffffffffffffffffffffffffffffffffffffff167f7df0f6bac5c770af7783500bb7f1c0d073adb11316004ba6f9f6c704af1a1aea8442604051611def92919061420b565b60405180910390a35b505b5b50505050505050505050565b600080600080600189611e1a9190613fef565b905060008060028311611ea457600b6000600a60008d73ffffffffffffffffffffffffffffffffffffffff1673ffffffffffffffffffffffffffffffffffffffff16815260200190815260200160002060020154815260200190815260200160002060009054906101000a900473ffffffffffffffffffffffffffffffffffffffff169050611ea8565b8990505b611eb3818c8b612c79565b8092508193505050600a60008373ffffffffffffffffffffffffffffffffffffffff1673ffffffffffffffffffffffffffffffffffffffff16815260200190815260200160002060000160009054906101000a900460ff1615806120205750600073ffffffffffffffffffffffffffffffffffffffff16600d600085815260200190815260200160002060008473ffffffffffffffffffffffffffffffffffffffff1673ffffffffffffffffffffffffffffffffffffffff16815260200190815260200160002060009054906101000a900473ffffffffffffffffffffffffffffffffffffffff1673ffffffffffffffffffffffffffffffffffffffff1614801561201f575060001515600e600085815260200190815260200160002060008473ffffffffffffffffffffffffffffffffffffffff1673ffffffffffffffffffffffffffffffffffffffff16815260200190815260200160002060009054906101000a900460ff161515145b5b156122be57600a60008373ffffffffffffffffffffffffffffffffffffffff1673ffffffffffffffffffffffffffffffffffffffff16815260200190815260200160002060000160009054906101000a900460ff166120b157600b60006001815260200190815260200160002060009054906101000a900473ffffffffffffffffffffffffffffffffffffffff1691505b600b60006001815260200190815260200160002060009054906101000a900473ffffffffffffffffffffffffffffffffffffffff1673ffffffffffffffffffffffffffffffffffffffff168273ffffffffffffffffffffffffffffffffffffffff16146121d4576001600a60008473ffffffffffffffffffffffffffffffffffffffff1673ffffffffffffffffffffffffffffffffffffffff1681526020019081526020016000206005016000858152602001908152602001600020546121789190613fef565b600a60008473ffffffffffffffffffffffffffffffffffffffff1673ffffffffffffffffffffffffffffffffffffffff168152602001908152602001600020600501600085815260200190815260200160002081905550600096505b80600d600085815260200190815260200160002060008473ffffffffffffffffffffffffffffffffffffffff1673ffffffffffffffffffffffffffffffffffffffff16815260200190815260200160002060006101000a81548173ffffffffffffffffffffffffffffffffffffffff021916908373ffffffffffffffffffffffffffffffffffffffff1602179055506001600c600085815260200190815260200160002060008473ffffffffffffffffffffffffffffffffffffffff1673ffffffffffffffffffffffffffffffffffffffff168152602001908152602001600020819055506124f9565b6000600d600085815260200190815260200160002060008473ffffffffffffffffffffffffffffffffffffffff1673ffffffffffffffffffffffffffffffffffffffff16815260200190815260200160002060009054906101000a900473ffffffffffffffffffffffffffffffffffffffff16905061233e838284613379565b1561234c57600198506124f7565b6000600d600086815260200190815260200160002060008573ffffffffffffffffffffffffffffffffffffffff1673ffffffffffffffffffffffffffffffffffffffff16815260200190815260200160002060006101000a81548173ffffffffffffffffffffffffffffffffffffffff021916908373ffffffffffffffffffffffffffffffffffffffff1602179055506001600e600086815260200190815260200160002060008573ffffffffffffffffffffffffffffffffffffffff1673ffffffffffffffffffffffffffffffffffffffff16815260200190815260200160002060006101000a81548160ff0219169083151502179055506001600c600086815260200190815260200160002060008573ffffffffffffffffffffffffffffffffffffffff1673ffffffffffffffffffffffffffffffffffffffff168152602001908152602001600020546124a29190613fef565b600c600086815260200190815260200160002060008573ffffffffffffffffffffffffffffffffffffffff1673ffffffffffffffffffffffffffffffffffffffff168152602001908152602001600020819055505b505b600a60008273ffffffffffffffffffffffffffffffffffffffff1673ffffffffffffffffffffffffffffffffffffffff168152602001908152602001600020600601839080600181540180825580915050600190039060005260206000200160009091909190915055818789955095509550505050955095509592505050565b6000806000600190506000808761260757600b6000600a60008a73ffffffffffffffffffffffffffffffffffffffff1673ffffffffffffffffffffffffffffffffffffffff16815260200190815260200160002060020154815260200190815260200160002060009054906101000a900473ffffffffffffffffffffffffffffffffffffffff16915061260b565b8691505b6001600a60008473ffffffffffffffffffffffffffffffffffffffff1673ffffffffffffffffffffffffffffffffffffffff16815260200190815260200160002060050160008881526020019081526020016000205461266b9190613fef565b600a60008473ffffffffffffffffffffffffffffffffffffffff1673ffffffffffffffffffffffffffffffffffffffff168152602001908152602001600020600501600088815260200190815260200160002081905550600b6000600a60008573ffffffffffffffffffffffffffffffffffffffff1673ffffffffffffffffffffffffffffffffffffffff16815260200190815260200160002060020154815260200190815260200160002060009054906101000a900473ffffffffffffffffffffffffffffffffffffffff169050600a60008273ffffffffffffffffffffffffffffffffffffffff1673ffffffffffffffffffffffffffffffffffffffff16815260200190815260200160002060000160009054906101000a900460ff166127c657600b60006001815260200190815260200160002060009054906101000a900473ffffffffffffffffffffffffffffffffffffffff1690505b808394509450505050935093915050565b60008060008086905060006001600a60008c73ffffffffffffffffffffffffffffffffffffffff1673ffffffffffffffffffffffffffffffffffffffff16815260200190815260200160002060050160008b8152602001908152602001600020546128429190613fef565b90506002600c60008b815260200190815260200160002060008c73ffffffffffffffffffffffffffffffffffffffff1673ffffffffffffffffffffffffffffffffffffffff1681526020019081526020016000205414156128a65760019250612c66565b600481101580156128c3575060006004826128c191906141da565b145b801561291257506000600a60008c73ffffffffffffffffffffffffffffffffffffffff1673ffffffffffffffffffffffffffffffffffffffff1681526020019081526020016000206002015414155b801561291e5750600189145b15612945576003881480156129335750600481145b1561293c578091505b60019250612c65565b600481101580156129625750600060048261296091906141da565b145b801561296e5750600288145b8015612978575085155b80156129845750600189115b15612a0857600b60006001815260200190815260200160002060009054906101000a900473ffffffffffffffffffffffffffffffffffffffff1673ffffffffffffffffffffffffffffffffffffffff168a73ffffffffffffffffffffffffffffffffffffffff1614156129fa5760009250612a03565b60049150600192505b612c64565b600281148015612a5b57506000600a60008c73ffffffffffffffffffffffffffffffffffffffff1673ffffffffffffffffffffffffffffffffffffffff1681526020019081526020016000206002015414155b8015612a65575086155b8015612a6f575085155b15612b7e57600a60008b73ffffffffffffffffffffffffffffffffffffffff1673ffffffffffffffffffffffffffffffffffffffff16815260200190815260200160002060000160009054906101000a900460ff16612b0057600b60006001815260200190815260200160002060009054906101000a900473ffffffffffffffffffffffffffffffffffffffff1699505b600b60006001815260200190815260200160002060009054906101000a900473ffffffffffffffffffffffffffffffffffffffff1673ffffffffffffffffffffffffffffffffffffffff168a73ffffffffffffffffffffffffffffffffffffffff161415612b715760009250612b79565b600192508091505b612c63565b600181148015612bd057506000600a60008c73ffffffffffffffffffffffffffffffffffffffff1673ffffffffffffffffffffffffffffffffffffffff16815260200190815260200160002060020154145b15612c6257600a60008b73ffffffffffffffffffffffffffffffffffffffff1673ffffffffffffffffffffffffffffffffffffffff16815260200190815260200160002060000160009054906101000a900460ff16612c6157600b60006001815260200190815260200160002060009054906101000a900473ffffffffffffffffffffffffffffffffffffffff1699505b5b5b5b5b5b8282945094505050509550959350505050565b60008060008086905060005b60098112156132b1576001600a60008a73ffffffffffffffffffffffffffffffffffffffff1673ffffffffffffffffffffffffffffffffffffffff168152602001908152602001600020600201541480612d3e5750600b60006001815260200190815260200160002060009054906101000a900473ffffffffffffffffffffffffffffffffffffffff1673ffffffffffffffffffffffffffffffffffffffff168373ffffffffffffffffffffffffffffffffffffffff16145b15612d48576132b1565b60006001600a60008573ffffffffffffffffffffffffffffffffffffffff1673ffffffffffffffffffffffffffffffffffffffff16815260200190815260200160002060060180549050612d9c91906141a6565b9050600a60008473ffffffffffffffffffffffffffffffffffffffff1673ffffffffffffffffffffffffffffffffffffffff1681526020019081526020016000206006018181548110612df257612df1614045565b5b906000526020600020015496506000600b6000600a60008773ffffffffffffffffffffffffffffffffffffffff1673ffffffffffffffffffffffffffffffffffffffff16815260200190815260200160002060020154815260200190815260200160002060009054906101000a900473ffffffffffffffffffffffffffffffffffffffff1690506000600b6000600a60008573ffffffffffffffffffffffffffffffffffffffff1673ffffffffffffffffffffffffffffffffffffffff16815260200190815260200160002060020154815260200190815260200160002060009054906101000a900473ffffffffffffffffffffffffffffffffffffffff1690506000600190505b8a811015612ffa57600b60006001815260200190815260200160002060009054906101000a900473ffffffffffffffffffffffffffffffffffffffff1673ffffffffffffffffffffffffffffffffffffffff168273ffffffffffffffffffffffffffffffffffffffff161415612f6f57612ffa565b600b6000600a60008573ffffffffffffffffffffffffffffffffffffffff1673ffffffffffffffffffffffffffffffffffffffff16815260200190815260200160002060020154815260200190815260200160002060009054906101000a900473ffffffffffffffffffffffffffffffffffffffff1691508080612ff290613fa6565b915050612efa565b5060018a6130089190613fef565b89101561329057600a60008273ffffffffffffffffffffffffffffffffffffffff1673ffffffffffffffffffffffffffffffffffffffff16815260200190815260200160002060000160009054906101000a900460ff1615806130ad57506000600a60008473ffffffffffffffffffffffffffffffffffffffff1673ffffffffffffffffffffffffffffffffffffffff16815260200190815260200160002060020154145b806130fa57506001600a60008473ffffffffffffffffffffffffffffffffffffffff1673ffffffffffffffffffffffffffffffffffffffff16815260200190815260200160002060020154145b1561328557600a6000600b6000600a60008773ffffffffffffffffffffffffffffffffffffffff1673ffffffffffffffffffffffffffffffffffffffff16815260200190815260200160002060020154815260200190815260200160002060009054906101000a900473ffffffffffffffffffffffffffffffffffffffff1673ffffffffffffffffffffffffffffffffffffffff1673ffffffffffffffffffffffffffffffffffffffff16815260200190815260200160002060000160009054906101000a900460ff1661320457600b60006001815260200190815260200160002060009054906101000a900473ffffffffffffffffffffffffffffffffffffffff16955061327d565b600b6000600a60008573ffffffffffffffffffffffffffffffffffffffff1673ffffffffffffffffffffffffffffffffffffffff16815260200190815260200160002060020154815260200190815260200160002060009054906101000a900473ffffffffffffffffffffffffffffffffffffffff1695505b5050506132b1565b80945080955061329b565b8495505050506132b1565b50505080806132a99061423e565b915050612c85565b506001600a60008973ffffffffffffffffffffffffffffffffffffffff1673ffffffffffffffffffffffffffffffffffffffff1681526020019081526020016000206005016000888152602001908152602001600020546133129190613fef565b600a60008973ffffffffffffffffffffffffffffffffffffffff1673ffffffffffffffffffffffffffffffffffffffff1681526020019081526020016000206005016000888152602001908152602001600020819055508187935093505050935093915050565b60008060009050600061338b86610683565b9050600085905060008590506000600b6000600a60008673ffffffffffffffffffffffffffffffffffffffff1673ffffffffffffffffffffffffffffffffffffffff16815260200190815260200160002060020154815260200190815260200160002060009054906101000a900473ffffffffffffffffffffffffffffffffffffffff16905060005b600c81121561354a576000805b86518110156134b15786818151811061343d5761343c614045565b5b602002602001015173ffffffffffffffffffffffffffffffffffffffff168473ffffffffffffffffffffffffffffffffffffffff16141561349e5786818151811061348b5761348a614045565b5b60200260200101519550600191506134b1565b80806134a990613fa6565b915050613421565b5080156134be575061354a565b600b6000600a60008673ffffffffffffffffffffffffffffffffffffffff1673ffffffffffffffffffffffffffffffffffffffff16815260200190815260200160002060020154815260200190815260200160002060009054906101000a900473ffffffffffffffffffffffffffffffffffffffff1692505080806135429061423e565b915050613414565b506000600b6000600a60008673ffffffffffffffffffffffffffffffffffffffff1673ffffffffffffffffffffffffffffffffffffffff16815260200190815260200160002060020154815260200190815260200160002060009054906101000a900473ffffffffffffffffffffffffffffffffffffffff16905060005b600c8112156136fe576000805b8751811015613665578781815181106135f1576135f0614045565b5b602002602001015173ffffffffffffffffffffffffffffffffffffffff168473ffffffffffffffffffffffffffffffffffffffff1614156136525787818151811061363f5761363e614045565b5b6020026020010151955060019150613665565b808061365d90613fa6565b9150506135d5565b50801561367257506136fe565b600b6000600a60008673ffffffffffffffffffffffffffffffffffffffff1673ffffffffffffffffffffffffffffffffffffffff16815260200190815260200160002060020154815260200190815260200160002060009054906101000a900473ffffffffffffffffffffffffffffffffffffffff1692505080806136f69061423e565b9150506135c8565b508273ffffffffffffffffffffffffffffffffffffffff168473ffffffffffffffffffffffffffffffffffffffff16141561373857600195505b8596505050505050509392505050565b8280548282559060005260206000209081019282156137c1579160200282015b828111156137c05782518260006101000a81548173ffffffffffffffffffffffffffffffffffffffff021916908373ffffffffffffffffffffffffffffffffffffffff16021790555091602001919060010190613768565b5b5090506137ce919061381f565b5090565b82805482825590600052602060002090810192821561380e579160200282015b8281111561380d5782518255916020019190600101906137f2565b5b50905061381b919061381f565b5090565b5b80821115613838576000816000905550600101613820565b5090565b600080fd5b6000819050919050565b61385481613841565b811461385f57600080fd5b50565b6000813590506138718161384b565b92915050565b60006020828403121561388d5761388c61383c565b5b600061389b84828501613862565b91505092915050565b600073ffffffffffffffffffffffffffffffffffffffff82169050919050565b60006138cf826138a4565b9050919050565b6138df816138c4565b82525050565b60006020820190506138fa60008301846138d6565b92915050565b613909816138c4565b811461391457600080fd5b50565b60008135905061392681613900565b92915050565b600080604083850312156139435761394261383c565b5b600061395185828601613862565b925050602061396285828601613917565b9150509250929050565b60008115159050919050565b6139818161396c565b82525050565b600060208201905061399c6000830184613978565b92915050565b6000602082840312156139b8576139b761383c565b5b60006139c684828501613917565b91505092915050565b600081519050919050565b600082825260208201905092915050565b6000819050602082019050919050565b613a04816138c4565b82525050565b6000613a1683836139fb565b60208301905092915050565b6000602082019050919050565b6000613a3a826139cf565b613a4481856139da565b9350613a4f836139eb565b8060005b83811015613a80578151613a678882613a0a565b9750613a7283613a22565b925050600181019050613a53565b5085935050505092915050565b60006020820190508181036000830152613aa78184613a2f565b905092915050565b600060ff82169050919050565b613ac581613aaf565b82525050565b6000602082019050613ae06000830184613abc565b92915050565b600081519050919050565b600082825260208201905092915050565b6000819050602082019050919050565b613b1b81613841565b82525050565b6000613b2d8383613b12565b60208301905092915050565b6000602082019050919050565b6000613b5182613ae6565b613b5b8185613af1565b9350613b6683613b02565b8060005b83811015613b97578151613b7e8882613b21565b9750613b8983613b39565b925050600181019050613b6a565b5085935050505092915050565b60006020820190508181036000830152613bbe8184613b46565b905092915050565b613bcf81613841565b82525050565b6000602082019050613bea6000830184613bc6565b92915050565b6000608082019050613c056000830187613978565b613c126020830186613bc6565b613c1f6040830185613bc6565b613c2c6060830184613bc6565b95945050505050565b60008060408385031215613c4c57613c4b61383c565b5b6000613c5a85828601613917565b9250506020613c6b85828601613862565b9150509250929050565b600082825260208201905092915050565b7f496e76616c69642063616c6c6572000000000000000000000000000000000000600082015250565b6000613cbc600e83613c75565b9150613cc782613c86565b602082019050919050565b60006020820190508181036000830152613ceb81613caf565b9050919050565b600081905092915050565b50565b6000613d0d600083613cf2565b9150613d1882613cfd565b600082019050919050565b6000613d2e82613d00565b9150819050919050565b7f5472616e73616374696f6e206661696c65642100000000000000000000000000600082015250565b6000613d6e601383613c75565b9150613d7982613d38565b602082019050919050565b60006020820190508181036000830152613d9d81613d61565b9050919050565b7f4e487b7100000000000000000000000000000000000000000000000000000000600052601260045260246000fd5b7f4e487b7100000000000000000000000000000000000000000000000000000000600052601160045260246000fd5b6000613e0d82613841565b9150613e1883613841565b925082613e2857613e27613da4565b5b828204905092915050565b7f5573657220657869737400000000000000000000000000000000000000000000600082015250565b6000613e69600a83613c75565b9150613e7482613e33565b602082019050919050565b60006020820190508181036000830152613e9881613e5c565b9050919050565b7f496e636f72726563742072656665727265722049640000000000000000000000600082015250565b6000613ed5601583613c75565b9150613ee082613e9f565b602082019050919050565b60006020820190508181036000830152613f0481613ec8565b9050919050565b7f496e636f72726563742056616c75650000000000000000000000000000000000600082015250565b6000613f41600f83613c75565b9150613f4c82613f0b565b602082019050919050565b60006020820190508181036000830152613f7081613f34565b9050919050565b7f4e487b7100000000000000000000000000000000000000000000000000000000600052604160045260246000fd5b6000613fb182613841565b91507fffffffffffffffffffffffffffffffffffffffffffffffffffffffffffffffff821415613fe457613fe3613dd3565b5b600182019050919050565b6000613ffa82613841565b915061400583613841565b9250827fffffffffffffffffffffffffffffffffffffffffffffffffffffffffffffffff0382111561403a57614039613dd3565b5b828201905092915050565b7f4e487b7100000000000000000000000000000000000000000000000000000000600052603260045260246000fd5b600061407f82613841565b915061408a83613841565b9250817fffffffffffffffffffffffffffffffffffffffffffffffffffffffffffffffff04831182151516156140c3576140c2613dd3565b5b828202905092915050565b7f43616c6c6572206973206e6f742041646d696e2e000000000000000000000000600082015250565b6000614104601483613c75565b915061410f826140ce565b602082019050919050565b60006020820190508181036000830152614133816140f7565b9050919050565b7f496e76616c696420496e64657800000000000000000000000000000000000000600082015250565b6000614170600d83613c75565b915061417b8261413a565b602082019050919050565b6000602082019050818103600083015261419f81614163565b9050919050565b60006141b182613841565b91506141bc83613841565b9250828210156141cf576141ce613dd3565b5b828203905092915050565b60006141e582613841565b91506141f083613841565b925082614200576141ff613da4565b5b828206905092915050565b60006040820190506142206000830185613bc6565b61422d6020830184613bc6565b9392505050565b6000819050919050565b600061424982614234565b91507f7fffffffffffffffffffffffffffffffffffffffffffffffffffffffffffffff82141561427c5761427b613dd3565b5b60018201905091905056fea26469706673582212202d4f42761c9c464d119a7d1be0436930f2ece4b0bbc01f20b7b2bc529ca31fe264736f6c634300080b0033",
					"opcodes": "PUSH1 0x80 PUSH1 0x40 MSTORE PUSH1 0x40 MLOAD DUP1 PUSH1 0x80 ADD PUSH1 0x40 MSTORE DUP1 PUSH1 0x2 PUSH1 0xFF AND DUP2 MSTORE PUSH1 0x20 ADD PUSH1 0x1 PUSH1 0xFF AND DUP2 MSTORE PUSH1 0x20 ADD PUSH1 0x1 PUSH1 0xFF AND DUP2 MSTORE PUSH1 0x20 ADD PUSH1 0x1 PUSH1 0xFF AND DUP2 MSTORE POP PUSH1 0x8 SWAP1 PUSH1 0x4 PUSH3 0x47 SWAP3 SWAP2 SWAP1 PUSH3 0x703 JUMP JUMPDEST POP PUSH1 0x0 PUSH1 0xF SSTORE PUSH1 0x0 PUSH1 0x10 SSTORE PUSH1 0x0 PUSH1 0x11 SSTORE PUSH1 0x0 PUSH1 0x12 SSTORE PUSH9 0x2B5E3AF16B1880000 PUSH1 0x13 SSTORE PUSH1 0x64 PUSH1 0xA PUSH1 0x13 SLOAD PUSH3 0x7C SWAP2 SWAP1 PUSH3 0x95F JUMP JUMPDEST PUSH3 0x88 SWAP2 SWAP1 PUSH3 0x9EF JUMP JUMPDEST PUSH1 0x14 SSTORE PUSH1 0x64 PUSH1 0x9 PUSH1 0x13 SLOAD PUSH3 0x9E SWAP2 SWAP1 PUSH3 0x95F JUMP JUMPDEST PUSH3 0xAA SWAP2 SWAP1 PUSH3 0x9EF JUMP JUMPDEST PUSH1 0x15 SSTORE PUSH1 0x64 PUSH1 0x1 PUSH1 0x13 SLOAD PUSH3 0xC0 SWAP2 SWAP1 PUSH3 0x95F JUMP JUMPDEST PUSH3 0xCC SWAP2 SWAP1 PUSH3 0x9EF JUMP JUMPDEST PUSH1 0x16 SSTORE CALLVALUE DUP1 ISZERO PUSH3 0xDC JUMPI PUSH1 0x0 DUP1 REVERT JUMPDEST POP PUSH1 0x40 MLOAD PUSH3 0x4E8E CODESIZE SUB DUP1 PUSH3 0x4E8E DUP4 CODECOPY DUP2 DUP2 ADD PUSH1 0x40 MSTORE DUP2 ADD SWAP1 PUSH3 0x102 SWAP2 SWAP1 PUSH3 0xA91 JUMP JUMPDEST CALLER PUSH1 0x0 DUP1 PUSH2 0x100 EXP DUP2 SLOAD DUP2 PUSH20 0xFFFFFFFFFFFFFFFFFFFFFFFFFFFFFFFFFFFFFFFF MUL NOT AND SWAP1 DUP4 PUSH20 0xFFFFFFFFFFFFFFFFFFFFFFFFFFFFFFFFFFFFFFFF AND MUL OR SWAP1 SSTORE POP DUP1 PUSH1 0x1 PUSH1 0x0 PUSH2 0x100 EXP DUP2 SLOAD DUP2 PUSH20 0xFFFFFFFFFFFFFFFFFFFFFFFFFFFFFFFFFFFFFFFF MUL NOT AND SWAP1 DUP4 PUSH20 0xFFFFFFFFFFFFFFFFFFFFFFFFFFFFFFFFFFFFFFFF AND MUL OR SWAP1 SSTORE POP DUP3 PUSH1 0x2 PUSH1 0x0 PUSH2 0x100 EXP DUP2 SLOAD DUP2 PUSH20 0xFFFFFFFFFFFFFFFFFFFFFFFFFFFFFFFFFFFFFFFF MUL NOT AND SWAP1 DUP4 PUSH20 0xFFFFFFFFFFFFFFFFFFFFFFFFFFFFFFFFFFFFFFFF AND MUL OR SWAP1 SSTORE POP DUP2 PUSH1 0x3 PUSH1 0x0 PUSH2 0x100 EXP DUP2 SLOAD DUP2 PUSH20 0xFFFFFFFFFFFFFFFFFFFFFFFFFFFFFFFFFFFFFFFF MUL NOT AND SWAP1 DUP4 PUSH20 0xFFFFFFFFFFFFFFFFFFFFFFFFFFFFFFFFFFFFFFFF AND MUL OR SWAP1 SSTORE POP PUSH1 0x40 MLOAD DUP1 PUSH1 0x80 ADD PUSH1 0x40 MSTORE DUP1 DUP9 PUSH20 0xFFFFFFFFFFFFFFFFFFFFFFFFFFFFFFFFFFFFFFFF AND PUSH20 0xFFFFFFFFFFFFFFFFFFFFFFFFFFFFFFFFFFFFFFFF AND DUP2 MSTORE PUSH1 0x20 ADD DUP8 PUSH20 0xFFFFFFFFFFFFFFFFFFFFFFFFFFFFFFFFFFFFFFFF AND PUSH20 0xFFFFFFFFFFFFFFFFFFFFFFFFFFFFFFFFFFFFFFFF AND DUP2 MSTORE PUSH1 0x20 ADD DUP7 PUSH20 0xFFFFFFFFFFFFFFFFFFFFFFFFFFFFFFFFFFFFFFFF AND PUSH20 0xFFFFFFFFFFFFFFFFFFFFFFFFFFFFFFFFFFFFFFFF AND DUP2 MSTORE PUSH1 0x20 ADD DUP6 PUSH20 0xFFFFFFFFFFFFFFFFFFFFFFFFFFFFFFFFFFFFFFFF AND PUSH20 0xFFFFFFFFFFFFFFFFFFFFFFFFFFFFFFFFFFFFFFFF AND DUP2 MSTORE POP PUSH1 0x4 SWAP1 PUSH1 0x4 PUSH3 0x2E8 SWAP3 SWAP2 SWAP1 PUSH3 0x7A4 JUMP JUMPDEST POP PUSH1 0x64 PUSH1 0x50 PUSH1 0x13 SLOAD PUSH3 0x2FC SWAP2 SWAP1 PUSH3 0x95F JUMP JUMPDEST PUSH3 0x308 SWAP2 SWAP1 PUSH3 0x9EF JUMP JUMPDEST PUSH1 0x9 PUSH1 0x0 PUSH1 0x1 DUP2 MSTORE PUSH1 0x20 ADD SWAP1 DUP2 MSTORE PUSH1 0x20 ADD PUSH1 0x0 KECCAK256 DUP2 SWAP1 SSTORE POP PUSH1 0x2 PUSH1 0x9 PUSH1 0x0 PUSH1 0x1 DUP2 MSTORE PUSH1 0x20 ADD SWAP1 DUP2 MSTORE PUSH1 0x20 ADD PUSH1 0x0 KECCAK256 SLOAD PUSH3 0x343 SWAP2 SWAP1 PUSH3 0x95F JUMP JUMPDEST PUSH1 0x9 PUSH1 0x0 PUSH1 0x2 DUP2 MSTORE PUSH1 0x20 ADD SWAP1 DUP2 MSTORE PUSH1 0x20 ADD PUSH1 0x0 KECCAK256 DUP2 SWAP1 SSTORE POP PUSH1 0x2 PUSH1 0x9 PUSH1 0x0 PUSH1 0x2 DUP2 MSTORE PUSH1 0x20 ADD SWAP1 DUP2 MSTORE PUSH1 0x20 ADD PUSH1 0x0 KECCAK256 SLOAD PUSH3 0x37E SWAP2 SWAP1 PUSH3 0x95F JUMP JUMPDEST PUSH1 0x9 PUSH1 0x0 PUSH1 0x3 DUP2 MSTORE PUSH1 0x20 ADD SWAP1 DUP2 MSTORE PUSH1 0x20 ADD PUSH1 0x0 KECCAK256 DUP2 SWAP1 SSTORE POP PUSH1 0x2 PUSH1 0x9 PUSH1 0x0 PUSH1 0x3 DUP2 MSTORE PUSH1 0x20 ADD SWAP1 DUP2 MSTORE PUSH1 0x20 ADD PUSH1 0x0 KECCAK256 SLOAD PUSH3 0x3B9 SWAP2 SWAP1 PUSH3 0x95F JUMP JUMPDEST PUSH1 0x9 PUSH1 0x0 PUSH1 0x4 DUP2 MSTORE PUSH1 0x20 ADD SWAP1 DUP2 MSTORE PUSH1 0x20 ADD PUSH1 0x0 KECCAK256 DUP2 SWAP1 SSTORE POP PUSH1 0x2 PUSH1 0x9 PUSH1 0x0 PUSH1 0x4 DUP2 MSTORE PUSH1 0x20 ADD SWAP1 DUP2 MSTORE PUSH1 0x20 ADD PUSH1 0x0 KECCAK256 SLOAD PUSH3 0x3F4 SWAP2 SWAP1 PUSH3 0x95F JUMP JUMPDEST PUSH1 0x9 PUSH1 0x0 PUSH1 0x5 DUP2 MSTORE PUSH1 0x20 ADD SWAP1 DUP2 MSTORE PUSH1 0x20 ADD PUSH1 0x0 KECCAK256 DUP2 SWAP1 SSTORE POP PUSH1 0x2 PUSH1 0x9 PUSH1 0x0 PUSH1 0x5 DUP2 MSTORE PUSH1 0x20 ADD SWAP1 DUP2 MSTORE PUSH1 0x20 ADD PUSH1 0x0 KECCAK256 SLOAD PUSH3 0x42F SWAP2 SWAP1 PUSH3 0x95F JUMP JUMPDEST PUSH1 0x9 PUSH1 0x0 PUSH1 0x6 DUP2 MSTORE PUSH1 0x20 ADD SWAP1 DUP2 MSTORE PUSH1 0x20 ADD PUSH1 0x0 KECCAK256 DUP2 SWAP1 SSTORE POP PUSH1 0x2 PUSH1 0x9 PUSH1 0x0 PUSH1 0x6 DUP2 MSTORE PUSH1 0x20 ADD SWAP1 DUP2 MSTORE PUSH1 0x20 ADD PUSH1 0x0 KECCAK256 SLOAD PUSH3 0x46A SWAP2 SWAP1 PUSH3 0x95F JUMP JUMPDEST PUSH1 0x9 PUSH1 0x0 PUSH1 0x7 DUP2 MSTORE PUSH1 0x20 ADD SWAP1 DUP2 MSTORE PUSH1 0x20 ADD PUSH1 0x0 KECCAK256 DUP2 SWAP1 SSTORE POP PUSH1 0x2 PUSH1 0x9 PUSH1 0x0 PUSH1 0x7 DUP2 MSTORE PUSH1 0x20 ADD SWAP1 DUP2 MSTORE PUSH1 0x20 ADD PUSH1 0x0 KECCAK256 SLOAD PUSH3 0x4A5 SWAP2 SWAP1 PUSH3 0x95F JUMP JUMPDEST PUSH1 0x9 PUSH1 0x0 PUSH1 0x8 DUP2 MSTORE PUSH1 0x20 ADD SWAP1 DUP2 MSTORE PUSH1 0x20 ADD PUSH1 0x0 KECCAK256 DUP2 SWAP1 SSTORE POP PUSH1 0x2 PUSH1 0x9 PUSH1 0x0 PUSH1 0x8 DUP2 MSTORE PUSH1 0x20 ADD SWAP1 DUP2 MSTORE PUSH1 0x20 ADD PUSH1 0x0 KECCAK256 SLOAD PUSH3 0x4E0 SWAP2 SWAP1 PUSH3 0x95F JUMP JUMPDEST PUSH1 0x9 PUSH1 0x0 PUSH1 0x9 DUP2 MSTORE PUSH1 0x20 ADD SWAP1 DUP2 MSTORE PUSH1 0x20 ADD PUSH1 0x0 KECCAK256 DUP2 SWAP1 SSTORE POP PUSH1 0x0 PUSH1 0xA PUSH1 0x0 DUP1 PUSH1 0x0 SWAP1 SLOAD SWAP1 PUSH2 0x100 EXP SWAP1 DIV PUSH20 0xFFFFFFFFFFFFFFFFFFFFFFFFFFFFFFFFFFFFFFFF AND PUSH20 0xFFFFFFFFFFFFFFFFFFFFFFFFFFFFFFFFFFFFFFFF AND PUSH20 0xFFFFFFFFFFFFFFFFFFFFFFFFFFFFFFFFFFFFFFFF AND DUP2 MSTORE PUSH1 0x20 ADD SWAP1 DUP2 MSTORE PUSH1 0x20 ADD PUSH1 0x0 KECCAK256 SWAP1 POP PUSH1 0x1 DUP2 PUSH1 0x0 ADD PUSH1 0x0 PUSH2 0x100 EXP DUP2 SLOAD DUP2 PUSH1 0xFF MUL NOT AND SWAP1 DUP4 ISZERO ISZERO MUL OR SWAP1 SSTORE POP PUSH1 0xF SLOAD DUP2 PUSH1 0x1 ADD DUP2 SWAP1 SSTORE POP PUSH1 0x0 DUP2 PUSH1 0x2 ADD DUP2 SWAP1 SSTORE POP PUSH1 0x0 PUSH8 0xFFFFFFFFFFFFFFFF DUP2 GT ISZERO PUSH3 0x5AC JUMPI PUSH3 0x5AB PUSH3 0xB44 JUMP JUMPDEST JUMPDEST PUSH1 0x40 MLOAD SWAP1 DUP1 DUP3 MSTORE DUP1 PUSH1 0x20 MUL PUSH1 0x20 ADD DUP3 ADD PUSH1 0x40 MSTORE DUP1 ISZERO PUSH3 0x5DB JUMPI DUP2 PUSH1 0x20 ADD PUSH1 0x20 DUP3 MUL DUP1 CALLDATASIZE DUP4 CALLDATACOPY DUP1 DUP3 ADD SWAP2 POP POP SWAP1 POP JUMPDEST POP DUP2 PUSH1 0x3 ADD SWAP1 DUP1 MLOAD SWAP1 PUSH1 0x20 ADD SWAP1 PUSH3 0x5F5 SWAP3 SWAP2 SWAP1 PUSH3 0x826 JUMP JUMPDEST POP TIMESTAMP DUP2 PUSH1 0x4 ADD DUP2 SWAP1 SSTORE POP PUSH1 0x0 PUSH8 0xFFFFFFFFFFFFFFFF DUP2 GT ISZERO PUSH3 0x61D JUMPI PUSH3 0x61C PUSH3 0xB44 JUMP JUMPDEST JUMPDEST PUSH1 0x40 MLOAD SWAP1 DUP1 DUP3 MSTORE DUP1 PUSH1 0x20 MUL PUSH1 0x20 ADD DUP3 ADD PUSH1 0x40 MSTORE DUP1 ISZERO PUSH3 0x64C JUMPI DUP2 PUSH1 0x20 ADD PUSH1 0x20 DUP3 MUL DUP1 CALLDATASIZE DUP4 CALLDATACOPY DUP1 DUP3 ADD SWAP2 POP POP SWAP1 POP JUMPDEST POP DUP2 PUSH1 0x6 ADD SWAP1 DUP1 MLOAD SWAP1 PUSH1 0x20 ADD SWAP1 PUSH3 0x666 SWAP3 SWAP2 SWAP1 PUSH3 0x8B5 JUMP JUMPDEST POP PUSH1 0xF PUSH1 0x0 DUP2 SLOAD DUP1 SWAP3 SWAP2 SWAP1 PUSH3 0x67C SWAP1 PUSH3 0xB73 JUMP JUMPDEST SWAP2 SWAP1 POP SSTORE POP PUSH1 0x0 DUP1 SLOAD SWAP1 PUSH2 0x100 EXP SWAP1 DIV PUSH20 0xFFFFFFFFFFFFFFFFFFFFFFFFFFFFFFFFFFFFFFFF AND PUSH1 0xB PUSH1 0x0 PUSH1 0xF SLOAD DUP2 MSTORE PUSH1 0x20 ADD SWAP1 DUP2 MSTORE PUSH1 0x20 ADD PUSH1 0x0 KECCAK256 PUSH1 0x0 PUSH2 0x100 EXP DUP2 SLOAD DUP2 PUSH20 0xFFFFFFFFFFFFFFFFFFFFFFFFFFFFFFFFFFFFFFFF MUL NOT AND SWAP1 DUP4 PUSH20 0xFFFFFFFFFFFFFFFFFFFFFFFFFFFFFFFFFFFFFFFF AND MUL OR SWAP1 SSTORE POP POP POP POP POP POP POP POP POP PUSH3 0xBC1 JUMP JUMPDEST DUP3 PUSH1 0x4 PUSH1 0x1F ADD PUSH1 0x20 SWAP1 DIV DUP2 ADD SWAP3 DUP3 ISZERO PUSH3 0x791 JUMPI SWAP2 PUSH1 0x20 MUL DUP3 ADD PUSH1 0x0 JUMPDEST DUP4 DUP3 GT ISZERO PUSH3 0x760 JUMPI DUP4 MLOAD DUP4 DUP3 PUSH2 0x100 EXP DUP2 SLOAD DUP2 PUSH1 0xFF MUL NOT AND SWAP1 DUP4 PUSH1 0xFF AND MUL OR SWAP1 SSTORE POP SWAP3 PUSH1 0x20 ADD SWAP3 PUSH1 0x1 ADD PUSH1 0x20 DUP2 PUSH1 0x0 ADD DIV SWAP3 DUP4 ADD SWAP3 PUSH1 0x1 SUB MUL PUSH3 0x720 JUMP JUMPDEST DUP1 ISZERO PUSH3 0x78F JUMPI DUP3 DUP2 PUSH2 0x100 EXP DUP2 SLOAD SWAP1 PUSH1 0xFF MUL NOT AND SWAP1 SSTORE PUSH1 0x1 ADD PUSH1 0x20 DUP2 PUSH1 0x0 ADD DIV SWAP3 DUP4 ADD SWAP3 PUSH1 0x1 SUB MUL PUSH3 0x760 JUMP JUMPDEST POP JUMPDEST POP SWAP1 POP PUSH3 0x7A0 SWAP2 SWAP1 PUSH3 0x907 JUMP JUMPDEST POP SWAP1 JUMP JUMPDEST DUP3 PUSH1 0x4 DUP2 ADD SWAP3 DUP3 ISZERO PUSH3 0x813 JUMPI SWAP2 PUSH1 0x20 MUL DUP3 ADD JUMPDEST DUP3 DUP2 GT ISZERO PUSH3 0x812 JUMPI DUP3 MLOAD DUP3 PUSH1 0x0 PUSH2 0x100 EXP DUP2 SLOAD DUP2 PUSH20 0xFFFFFFFFFFFFFFFFFFFFFFFFFFFFFFFFFFFFFFFF MUL NOT AND SWAP1 DUP4 PUSH20 0xFFFFFFFFFFFFFFFFFFFFFFFFFFFFFFFFFFFFFFFF AND MUL OR SWAP1 SSTORE POP SWAP2 PUSH1 0x20 ADD SWAP2 SWAP1 PUSH1 0x1 ADD SWAP1 PUSH3 0x7B8 JUMP JUMPDEST JUMPDEST POP SWAP1 POP PUSH3 0x822 SWAP2 SWAP1 PUSH3 0x907 JUMP JUMPDEST POP SWAP1 JUMP JUMPDEST DUP3 DUP1 SLOAD DUP3 DUP3 SSTORE SWAP1 PUSH1 0x0 MSTORE PUSH1 0x20 PUSH1 0x0 KECCAK256 SWAP1 DUP2 ADD SWAP3 DUP3 ISZERO PUSH3 0x8A2 JUMPI SWAP2 PUSH1 0x20 MUL DUP3 ADD JUMPDEST DUP3 DUP2 GT ISZERO PUSH3 0x8A1 JUMPI DUP3 MLOAD DUP3 PUSH1 0x0 PUSH2 0x100 EXP DUP2 SLOAD DUP2 PUSH20 0xFFFFFFFFFFFFFFFFFFFFFFFFFFFFFFFFFFFFFFFF MUL NOT AND SWAP1 DUP4 PUSH20 0xFFFFFFFFFFFFFFFFFFFFFFFFFFFFFFFFFFFFFFFF AND MUL OR SWAP1 SSTORE POP SWAP2 PUSH1 0x20 ADD SWAP2 SWAP1 PUSH1 0x1 ADD SWAP1 PUSH3 0x847 JUMP JUMPDEST JUMPDEST POP SWAP1 POP PUSH3 0x8B1 SWAP2 SWAP1 PUSH3 0x907 JUMP JUMPDEST POP SWAP1 JUMP JUMPDEST DUP3 DUP1 SLOAD DUP3 DUP3 SSTORE SWAP1 PUSH1 0x0 MSTORE PUSH1 0x20 PUSH1 0x0 KECCAK256 SWAP1 DUP2 ADD SWAP3 DUP3 ISZERO PUSH3 0x8F4 JUMPI SWAP2 PUSH1 0x20 MUL DUP3 ADD JUMPDEST DUP3 DUP2 GT ISZERO PUSH3 0x8F3 JUMPI DUP3 MLOAD DUP3 SSTORE SWAP2 PUSH1 0x20 ADD SWAP2 SWAP1 PUSH1 0x1 ADD SWAP1 PUSH3 0x8D6 JUMP JUMPDEST JUMPDEST POP SWAP1 POP PUSH3 0x903 SWAP2 SWAP1 PUSH3 0x907 JUMP JUMPDEST POP SWAP1 JUMP JUMPDEST JUMPDEST DUP1 DUP3 GT ISZERO PUSH3 0x922 JUMPI PUSH1 0x0 DUP2 PUSH1 0x0 SWAP1 SSTORE POP PUSH1 0x1 ADD PUSH3 0x908 JUMP JUMPDEST POP SWAP1 JUMP JUMPDEST PUSH1 0x0 DUP2 SWAP1 POP SWAP2 SWAP1 POP JUMP JUMPDEST PUSH32 0x4E487B7100000000000000000000000000000000000000000000000000000000 PUSH1 0x0 MSTORE PUSH1 0x11 PUSH1 0x4 MSTORE PUSH1 0x24 PUSH1 0x0 REVERT JUMPDEST PUSH1 0x0 PUSH3 0x96C DUP3 PUSH3 0x926 JUMP JUMPDEST SWAP2 POP PUSH3 0x979 DUP4 PUSH3 0x926 JUMP JUMPDEST SWAP3 POP DUP2 PUSH32 0xFFFFFFFFFFFFFFFFFFFFFFFFFFFFFFFFFFFFFFFFFFFFFFFFFFFFFFFFFFFFFFFF DIV DUP4 GT DUP3 ISZERO ISZERO AND ISZERO PUSH3 0x9B5 JUMPI PUSH3 0x9B4 PUSH3 0x930 JUMP JUMPDEST JUMPDEST DUP3 DUP3 MUL SWAP1 POP SWAP3 SWAP2 POP POP JUMP JUMPDEST PUSH32 0x4E487B7100000000000000000000000000000000000000000000000000000000 PUSH1 0x0 MSTORE PUSH1 0x12 PUSH1 0x4 MSTORE PUSH1 0x24 PUSH1 0x0 REVERT JUMPDEST PUSH1 0x0 PUSH3 0x9FC DUP3 PUSH3 0x926 JUMP JUMPDEST SWAP2 POP PUSH3 0xA09 DUP4 PUSH3 0x926 JUMP JUMPDEST SWAP3 POP DUP3 PUSH3 0xA1C JUMPI PUSH3 0xA1B PUSH3 0x9C0 JUMP JUMPDEST JUMPDEST DUP3 DUP3 DIV SWAP1 POP SWAP3 SWAP2 POP POP JUMP JUMPDEST PUSH1 0x0 DUP1 REVERT JUMPDEST PUSH1 0x0 PUSH20 0xFFFFFFFFFFFFFFFFFFFFFFFFFFFFFFFFFFFFFFFF DUP3 AND SWAP1 POP SWAP2 SWAP1 POP JUMP JUMPDEST PUSH1 0x0 PUSH3 0xA59 DUP3 PUSH3 0xA2C JUMP JUMPDEST SWAP1 POP SWAP2 SWAP1 POP JUMP JUMPDEST PUSH3 0xA6B DUP2 PUSH3 0xA4C JUMP JUMPDEST DUP2 EQ PUSH3 0xA77 JUMPI PUSH1 0x0 DUP1 REVERT JUMPDEST POP JUMP JUMPDEST PUSH1 0x0 DUP2 MLOAD SWAP1 POP PUSH3 0xA8B DUP2 PUSH3 0xA60 JUMP JUMPDEST SWAP3 SWAP2 POP POP JUMP JUMPDEST PUSH1 0x0 DUP1 PUSH1 0x0 DUP1 PUSH1 0x0 DUP1 PUSH1 0x0 PUSH1 0xE0 DUP9 DUP11 SUB SLT ISZERO PUSH3 0xAB3 JUMPI PUSH3 0xAB2 PUSH3 0xA27 JUMP JUMPDEST JUMPDEST PUSH1 0x0 PUSH3 0xAC3 DUP11 DUP3 DUP12 ADD PUSH3 0xA7A JUMP JUMPDEST SWAP8 POP POP PUSH1 0x20 PUSH3 0xAD6 DUP11 DUP3 DUP12 ADD PUSH3 0xA7A JUMP JUMPDEST SWAP7 POP POP PUSH1 0x40 PUSH3 0xAE9 DUP11 DUP3 DUP12 ADD PUSH3 0xA7A JUMP JUMPDEST SWAP6 POP POP PUSH1 0x60 PUSH3 0xAFC DUP11 DUP3 DUP12 ADD PUSH3 0xA7A JUMP JUMPDEST SWAP5 POP POP PUSH1 0x80 PUSH3 0xB0F DUP11 DUP3 DUP12 ADD PUSH3 0xA7A JUMP JUMPDEST SWAP4 POP POP PUSH1 0xA0 PUSH3 0xB22 DUP11 DUP3 DUP12 ADD PUSH3 0xA7A JUMP JUMPDEST SWAP3 POP POP PUSH1 0xC0 PUSH3 0xB35 DUP11 DUP3 DUP12 ADD PUSH3 0xA7A JUMP JUMPDEST SWAP2 POP POP SWAP3 SWAP6 SWAP9 SWAP2 SWAP5 SWAP8 POP SWAP3 SWAP6 POP JUMP JUMPDEST PUSH32 0x4E487B7100000000000000000000000000000000000000000000000000000000 PUSH1 0x0 MSTORE PUSH1 0x41 PUSH1 0x4 MSTORE PUSH1 0x24 PUSH1 0x0 REVERT JUMPDEST PUSH1 0x0 PUSH3 0xB80 DUP3 PUSH3 0x926 JUMP JUMPDEST SWAP2 POP PUSH32 0xFFFFFFFFFFFFFFFFFFFFFFFFFFFFFFFFFFFFFFFFFFFFFFFFFFFFFFFFFFFFFFFF DUP3 EQ ISZERO PUSH3 0xBB6 JUMPI PUSH3 0xBB5 PUSH3 0x930 JUMP JUMPDEST JUMPDEST PUSH1 0x1 DUP3 ADD SWAP1 POP SWAP2 SWAP1 POP JUMP JUMPDEST PUSH2 0x42BD DUP1 PUSH3 0xBD1 PUSH1 0x0 CODECOPY PUSH1 0x0 RETURN INVALID PUSH1 0x80 PUSH1 0x40 MSTORE PUSH1 0x4 CALLDATASIZE LT PUSH2 0x135 JUMPI PUSH1 0x0 CALLDATALOAD PUSH1 0xE0 SHR DUP1 PUSH4 0x992C85D2 GT PUSH2 0xAB JUMPI DUP1 PUSH4 0xA87430BA GT PUSH2 0x6F JUMPI DUP1 PUSH4 0xA87430BA EQ PUSH2 0x47F JUMPI DUP1 PUSH4 0xAA24C5C5 EQ PUSH2 0x4BF JUMPI DUP1 PUSH4 0xBBF57068 EQ PUSH2 0x4FC JUMPI DUP1 PUSH4 0xC15DEC85 EQ PUSH2 0x539 JUMPI DUP1 PUSH4 0xF7BBFCCD EQ PUSH2 0x564 JUMPI DUP1 PUSH4 0xFB75B2C7 EQ PUSH2 0x58D JUMPI PUSH2 0x135 JUMP JUMPDEST DUP1 PUSH4 0x992C85D2 EQ PUSH2 0x396 JUMPI DUP1 PUSH4 0x99CBD74F EQ PUSH2 0x3C1 JUMPI DUP1 PUSH4 0x9F4216E8 EQ PUSH2 0x3EC JUMPI DUP1 PUSH4 0xA457C050 EQ PUSH2 0x429 JUMPI DUP1 PUSH4 0xA4BB170D EQ PUSH2 0x454 JUMPI PUSH2 0x135 JUMP JUMPDEST DUP1 PUSH4 0x5E8A7069 GT PUSH2 0xFD JUMPI DUP1 PUSH4 0x5E8A7069 EQ PUSH2 0x259 JUMPI DUP1 PUSH4 0x6043DDAD EQ PUSH2 0x284 JUMPI DUP1 PUSH4 0x6158FA00 EQ PUSH2 0x2C1 JUMPI DUP1 PUSH4 0x6F9FB98A EQ PUSH2 0x2FE JUMPI DUP1 PUSH4 0x79378E30 EQ PUSH2 0x329 JUMPI DUP1 PUSH4 0x8853B53E EQ PUSH2 0x366 JUMPI PUSH2 0x135 JUMP JUMPDEST DUP1 PUSH4 0x10E4077A EQ PUSH2 0x13A JUMPI DUP1 PUSH4 0x36B19CD7 EQ PUSH2 0x177 JUMPI DUP1 PUSH4 0x43F6753C EQ PUSH2 0x1A2 JUMPI DUP1 PUSH4 0x4D948BEA EQ PUSH2 0x1DF JUMPI DUP1 PUSH4 0x575CEA6B EQ PUSH2 0x21C JUMPI JUMPDEST PUSH1 0x0 DUP1 REVERT JUMPDEST CALLVALUE DUP1 ISZERO PUSH2 0x146 JUMPI PUSH1 0x0 DUP1 REVERT JUMPDEST POP PUSH2 0x161 PUSH1 0x4 DUP1 CALLDATASIZE SUB DUP2 ADD SWAP1 PUSH2 0x15C SWAP2 SWAP1 PUSH2 0x3877 JUMP JUMPDEST PUSH2 0x5B8 JUMP JUMPDEST PUSH1 0x40 MLOAD PUSH2 0x16E SWAP2 SWAP1 PUSH2 0x38E5 JUMP JUMPDEST PUSH1 0x40 MLOAD DUP1 SWAP2 SUB SWAP1 RETURN JUMPDEST CALLVALUE DUP1 ISZERO PUSH2 0x183 JUMPI PUSH1 0x0 DUP1 REVERT JUMPDEST POP PUSH2 0x18C PUSH2 0x5EE JUMP JUMPDEST PUSH1 0x40 MLOAD PUSH2 0x199 SWAP2 SWAP1 PUSH2 0x38E5 JUMP JUMPDEST PUSH1 0x40 MLOAD DUP1 SWAP2 SUB SWAP1 RETURN JUMPDEST CALLVALUE DUP1 ISZERO PUSH2 0x1AE JUMPI PUSH1 0x0 DUP1 REVERT JUMPDEST POP PUSH2 0x1C9 PUSH1 0x4 DUP1 CALLDATASIZE SUB DUP2 ADD SWAP1 PUSH2 0x1C4 SWAP2 SWAP1 PUSH2 0x392C JUMP JUMPDEST PUSH2 0x612 JUMP JUMPDEST PUSH1 0x40 MLOAD PUSH2 0x1D6 SWAP2 SWAP1 PUSH2 0x38E5 JUMP JUMPDEST PUSH1 0x40 MLOAD DUP1 SWAP2 SUB SWAP1 RETURN JUMPDEST CALLVALUE DUP1 ISZERO PUSH2 0x1EB JUMPI PUSH1 0x0 DUP1 REVERT JUMPDEST POP PUSH2 0x206 PUSH1 0x4 DUP1 CALLDATASIZE SUB DUP2 ADD SWAP1 PUSH2 0x201 SWAP2 SWAP1 PUSH2 0x392C JUMP JUMPDEST PUSH2 0x654 JUMP JUMPDEST PUSH1 0x40 MLOAD PUSH2 0x213 SWAP2 SWAP1 PUSH2 0x3987 JUMP JUMPDEST PUSH1 0x40 MLOAD DUP1 SWAP2 SUB SWAP1 RETURN JUMPDEST CALLVALUE DUP1 ISZERO PUSH2 0x228 JUMPI PUSH1 0x0 DUP1 REVERT JUMPDEST POP PUSH2 0x243 PUSH1 0x4 DUP1 CALLDATASIZE SUB DUP2 ADD SWAP1 PUSH2 0x23E SWAP2 SWAP1 PUSH2 0x39A2 JUMP JUMPDEST PUSH2 0x683 JUMP JUMPDEST PUSH1 0x40 MLOAD PUSH2 0x250 SWAP2 SWAP1 PUSH2 0x3A8D JUMP JUMPDEST PUSH1 0x40 MLOAD DUP1 SWAP2 SUB SWAP1 RETURN JUMPDEST CALLVALUE DUP1 ISZERO PUSH2 0x265 JUMPI PUSH1 0x0 DUP1 REVERT JUMPDEST POP PUSH2 0x26E PUSH2 0x753 JUMP JUMPDEST PUSH1 0x40 MLOAD PUSH2 0x27B SWAP2 SWAP1 PUSH2 0x3987 JUMP JUMPDEST PUSH1 0x40 MLOAD DUP1 SWAP2 SUB SWAP1 RETURN JUMPDEST CALLVALUE DUP1 ISZERO PUSH2 0x290 JUMPI PUSH1 0x0 DUP1 REVERT JUMPDEST POP PUSH2 0x2AB PUSH1 0x4 DUP1 CALLDATASIZE SUB DUP2 ADD SWAP1 PUSH2 0x2A6 SWAP2 SWAP1 PUSH2 0x3877 JUMP JUMPDEST PUSH2 0x8BC JUMP JUMPDEST PUSH1 0x40 MLOAD PUSH2 0x2B8 SWAP2 SWAP1 PUSH2 0x3ACB JUMP JUMPDEST PUSH1 0x40 MLOAD DUP1 SWAP2 SUB SWAP1 RETURN JUMPDEST CALLVALUE DUP1 ISZERO PUSH2 0x2CD JUMPI PUSH1 0x0 DUP1 REVERT JUMPDEST POP PUSH2 0x2E8 PUSH1 0x4 DUP1 CALLDATASIZE SUB DUP2 ADD SWAP1 PUSH2 0x2E3 SWAP2 SWAP1 PUSH2 0x39A2 JUMP JUMPDEST PUSH2 0x8E6 JUMP JUMPDEST PUSH1 0x40 MLOAD PUSH2 0x2F5 SWAP2 SWAP1 PUSH2 0x3BA4 JUMP JUMPDEST PUSH1 0x40 MLOAD DUP1 SWAP2 SUB SWAP1 RETURN JUMPDEST CALLVALUE DUP1 ISZERO PUSH2 0x30A JUMPI PUSH1 0x0 DUP1 REVERT JUMPDEST POP PUSH2 0x313 PUSH2 0x980 JUMP JUMPDEST PUSH1 0x40 MLOAD PUSH2 0x320 SWAP2 SWAP1 PUSH2 0x3BD5 JUMP JUMPDEST PUSH1 0x40 MLOAD DUP1 SWAP2 SUB SWAP1 RETURN JUMPDEST CALLVALUE DUP1 ISZERO PUSH2 0x335 JUMPI PUSH1 0x0 DUP1 REVERT JUMPDEST POP PUSH2 0x350 PUSH1 0x4 DUP1 CALLDATASIZE SUB DUP2 ADD SWAP1 PUSH2 0x34B SWAP2 SWAP1 PUSH2 0x3877 JUMP JUMPDEST PUSH2 0x996 JUMP JUMPDEST PUSH1 0x40 MLOAD PUSH2 0x35D SWAP2 SWAP1 PUSH2 0x3BD5 JUMP JUMPDEST PUSH1 0x40 MLOAD DUP1 SWAP2 SUB SWAP1 RETURN JUMPDEST PUSH2 0x380 PUSH1 0x4 DUP1 CALLDATASIZE SUB DUP2 ADD SWAP1 PUSH2 0x37B SWAP2 SWAP1 PUSH2 0x3877 JUMP JUMPDEST PUSH2 0x9AE JUMP JUMPDEST PUSH1 0x40 MLOAD PUSH2 0x38D SWAP2 SWAP1 PUSH2 0x3987 JUMP JUMPDEST PUSH1 0x40 MLOAD DUP1 SWAP2 SUB SWAP1 RETURN JUMPDEST CALLVALUE DUP1 ISZERO PUSH2 0x3A2 JUMPI PUSH1 0x0 DUP1 REVERT JUMPDEST POP PUSH2 0x3AB PUSH2 0x1174 JUMP JUMPDEST PUSH1 0x40 MLOAD PUSH2 0x3B8 SWAP2 SWAP1 PUSH2 0x38E5 JUMP JUMPDEST PUSH1 0x40 MLOAD DUP1 SWAP2 SUB SWAP1 RETURN JUMPDEST CALLVALUE DUP1 ISZERO PUSH2 0x3CD JUMPI PUSH1 0x0 DUP1 REVERT JUMPDEST POP PUSH2 0x3D6 PUSH2 0x119A JUMP JUMPDEST PUSH1 0x40 MLOAD PUSH2 0x3E3 SWAP2 SWAP1 PUSH2 0x3987 JUMP JUMPDEST PUSH1 0x40 MLOAD DUP1 SWAP2 SUB SWAP1 RETURN JUMPDEST CALLVALUE DUP1 ISZERO PUSH2 0x3F8 JUMPI PUSH1 0x0 DUP1 REVERT JUMPDEST POP PUSH2 0x413 PUSH1 0x4 DUP1 CALLDATASIZE SUB DUP2 ADD SWAP1 PUSH2 0x40E SWAP2 SWAP1 PUSH2 0x3877 JUMP JUMPDEST PUSH2 0x137E JUMP JUMPDEST PUSH1 0x40 MLOAD PUSH2 0x420 SWAP2 SWAP1 PUSH2 0x38E5 JUMP JUMPDEST PUSH1 0x40 MLOAD DUP1 SWAP2 SUB SWAP1 RETURN JUMPDEST CALLVALUE DUP1 ISZERO PUSH2 0x435 JUMPI PUSH1 0x0 DUP1 REVERT JUMPDEST POP PUSH2 0x43E PUSH2 0x13B1 JUMP JUMPDEST PUSH1 0x40 MLOAD PUSH2 0x44B SWAP2 SWAP1 PUSH2 0x3987 JUMP JUMPDEST PUSH1 0x40 MLOAD DUP1 SWAP2 SUB SWAP1 RETURN JUMPDEST CALLVALUE DUP1 ISZERO PUSH2 0x460 JUMPI PUSH1 0x0 DUP1 REVERT JUMPDEST POP PUSH2 0x469 PUSH2 0x151A JUMP JUMPDEST PUSH1 0x40 MLOAD PUSH2 0x476 SWAP2 SWAP1 PUSH2 0x3BD5 JUMP JUMPDEST PUSH1 0x40 MLOAD DUP1 SWAP2 SUB SWAP1 RETURN JUMPDEST CALLVALUE DUP1 ISZERO PUSH2 0x48B JUMPI PUSH1 0x0 DUP1 REVERT JUMPDEST POP PUSH2 0x4A6 PUSH1 0x4 DUP1 CALLDATASIZE SUB DUP2 ADD SWAP1 PUSH2 0x4A1 SWAP2 SWAP1 PUSH2 0x39A2 JUMP JUMPDEST PUSH2 0x1520 JUMP JUMPDEST PUSH1 0x40 MLOAD PUSH2 0x4B6 SWAP5 SWAP4 SWAP3 SWAP2 SWAP1 PUSH2 0x3BF0 JUMP JUMPDEST PUSH1 0x40 MLOAD DUP1 SWAP2 SUB SWAP1 RETURN JUMPDEST CALLVALUE DUP1 ISZERO PUSH2 0x4CB JUMPI PUSH1 0x0 DUP1 REVERT JUMPDEST POP PUSH2 0x4E6 PUSH1 0x4 DUP1 CALLDATASIZE SUB DUP2 ADD SWAP1 PUSH2 0x4E1 SWAP2 SWAP1 PUSH2 0x3C35 JUMP JUMPDEST PUSH2 0x155D JUMP JUMPDEST PUSH1 0x40 MLOAD PUSH2 0x4F3 SWAP2 SWAP1 PUSH2 0x3BD5 JUMP JUMPDEST PUSH1 0x40 MLOAD DUP1 SWAP2 SUB SWAP1 RETURN JUMPDEST CALLVALUE DUP1 ISZERO PUSH2 0x508 JUMPI PUSH1 0x0 DUP1 REVERT JUMPDEST POP PUSH2 0x523 PUSH1 0x4 DUP1 CALLDATASIZE SUB DUP2 ADD SWAP1 PUSH2 0x51E SWAP2 SWAP1 PUSH2 0x392C JUMP JUMPDEST PUSH2 0x15BB JUMP JUMPDEST PUSH1 0x40 MLOAD PUSH2 0x530 SWAP2 SWAP1 PUSH2 0x3BD5 JUMP JUMPDEST PUSH1 0x40 MLOAD DUP1 SWAP2 SUB SWAP1 RETURN JUMPDEST CALLVALUE DUP1 ISZERO PUSH2 0x545 JUMPI PUSH1 0x0 DUP1 REVERT JUMPDEST POP PUSH2 0x54E PUSH2 0x15E0 JUMP JUMPDEST PUSH1 0x40 MLOAD PUSH2 0x55B SWAP2 SWAP1 PUSH2 0x38E5 JUMP JUMPDEST PUSH1 0x40 MLOAD DUP1 SWAP2 SUB SWAP1 RETURN JUMPDEST CALLVALUE DUP1 ISZERO PUSH2 0x570 JUMPI PUSH1 0x0 DUP1 REVERT JUMPDEST POP PUSH2 0x58B PUSH1 0x4 DUP1 CALLDATASIZE SUB DUP2 ADD SWAP1 PUSH2 0x586 SWAP2 SWAP1 PUSH2 0x3C35 JUMP JUMPDEST PUSH2 0x1606 JUMP JUMPDEST STOP JUMPDEST CALLVALUE DUP1 ISZERO PUSH2 0x599 JUMPI PUSH1 0x0 DUP1 REVERT JUMPDEST POP PUSH2 0x5A2 PUSH2 0x1869 JUMP JUMPDEST PUSH1 0x40 MLOAD PUSH2 0x5AF SWAP2 SWAP1 PUSH2 0x38E5 JUMP JUMPDEST PUSH1 0x40 MLOAD DUP1 SWAP2 SUB SWAP1 RETURN JUMPDEST PUSH1 0x4 DUP2 PUSH1 0x4 DUP2 LT PUSH2 0x5C8 JUMPI PUSH1 0x0 DUP1 REVERT JUMPDEST ADD PUSH1 0x0 SWAP2 POP SLOAD SWAP1 PUSH2 0x100 EXP SWAP1 DIV PUSH20 0xFFFFFFFFFFFFFFFFFFFFFFFFFFFFFFFFFFFFFFFF AND DUP2 JUMP JUMPDEST PUSH1 0x0 DUP1 SLOAD SWAP1 PUSH2 0x100 EXP SWAP1 DIV PUSH20 0xFFFFFFFFFFFFFFFFFFFFFFFFFFFFFFFFFFFFFFFF AND DUP2 JUMP JUMPDEST PUSH1 0xD PUSH1 0x20 MSTORE DUP2 PUSH1 0x0 MSTORE PUSH1 0x40 PUSH1 0x0 KECCAK256 PUSH1 0x20 MSTORE DUP1 PUSH1 0x0 MSTORE PUSH1 0x40 PUSH1 0x0 KECCAK256 PUSH1 0x0 SWAP2 POP SWAP2 POP SWAP1 SLOAD SWAP1 PUSH2 0x100 EXP SWAP1 DIV PUSH20 0xFFFFFFFFFFFFFFFFFFFFFFFFFFFFFFFFFFFFFFFF AND DUP2 JUMP JUMPDEST PUSH1 0xE PUSH1 0x20 MSTORE DUP2 PUSH1 0x0 MSTORE PUSH1 0x40 PUSH1 0x0 KECCAK256 PUSH1 0x20 MSTORE DUP1 PUSH1 0x0 MSTORE PUSH1 0x40 PUSH1 0x0 KECCAK256 PUSH1 0x0 SWAP2 POP SWAP2 POP SWAP1 SLOAD SWAP1 PUSH2 0x100 EXP SWAP1 DIV PUSH1 0xFF AND DUP2 JUMP JUMPDEST PUSH1 0x60 PUSH1 0xA PUSH1 0x0 DUP4 PUSH20 0xFFFFFFFFFFFFFFFFFFFFFFFFFFFFFFFFFFFFFFFF AND PUSH20 0xFFFFFFFFFFFFFFFFFFFFFFFFFFFFFFFFFFFFFFFF AND DUP2 MSTORE PUSH1 0x20 ADD SWAP1 DUP2 MSTORE PUSH1 0x20 ADD PUSH1 0x0 KECCAK256 PUSH1 0x3 ADD DUP1 SLOAD DUP1 PUSH1 0x20 MUL PUSH1 0x20 ADD PUSH1 0x40 MLOAD SWAP1 DUP2 ADD PUSH1 0x40 MSTORE DUP1 SWAP3 SWAP2 SWAP1 DUP2 DUP2 MSTORE PUSH1 0x20 ADD DUP3 DUP1 SLOAD DUP1 ISZERO PUSH2 0x747 JUMPI PUSH1 0x20 MUL DUP3 ADD SWAP2 SWAP1 PUSH1 0x0 MSTORE PUSH1 0x20 PUSH1 0x0 KECCAK256 SWAP1 JUMPDEST DUP2 PUSH1 0x0 SWAP1 SLOAD SWAP1 PUSH2 0x100 EXP SWAP1 DIV PUSH20 0xFFFFFFFFFFFFFFFFFFFFFFFFFFFFFFFFFFFFFFFF AND PUSH20 0xFFFFFFFFFFFFFFFFFFFFFFFFFFFFFFFFFFFFFFFF AND DUP2 MSTORE PUSH1 0x20 ADD SWAP1 PUSH1 0x1 ADD SWAP1 DUP1 DUP4 GT PUSH2 0x6FD JUMPI JUMPDEST POP POP POP POP POP SWAP1 POP SWAP2 SWAP1 POP JUMP JUMPDEST PUSH1 0x0 PUSH1 0x1 PUSH1 0x0 SWAP1 SLOAD SWAP1 PUSH2 0x100 EXP SWAP1 DIV PUSH20 0xFFFFFFFFFFFFFFFFFFFFFFFFFFFFFFFFFFFFFFFF AND PUSH20 0xFFFFFFFFFFFFFFFFFFFFFFFFFFFFFFFFFFFFFFFF AND CALLER PUSH20 0xFFFFFFFFFFFFFFFFFFFFFFFFFFFFFFFFFFFFFFFF AND EQ PUSH2 0x7E5 JUMPI PUSH1 0x40 MLOAD PUSH32 0x8C379A000000000000000000000000000000000000000000000000000000000 DUP2 MSTORE PUSH1 0x4 ADD PUSH2 0x7DC SWAP1 PUSH2 0x3CD2 JUMP JUMPDEST PUSH1 0x40 MLOAD DUP1 SWAP2 SUB SWAP1 REVERT JUMPDEST PUSH1 0x0 PUSH1 0x1 PUSH1 0x0 SWAP1 SLOAD SWAP1 PUSH2 0x100 EXP SWAP1 DIV PUSH20 0xFFFFFFFFFFFFFFFFFFFFFFFFFFFFFFFFFFFFFFFF AND PUSH20 0xFFFFFFFFFFFFFFFFFFFFFFFFFFFFFFFFFFFFFFFF AND PUSH1 0x12 SLOAD PUSH1 0x40 MLOAD PUSH2 0x82F SWAP1 PUSH2 0x3D23 JUMP JUMPDEST PUSH1 0x0 PUSH1 0x40 MLOAD DUP1 DUP4 SUB DUP2 DUP6 DUP8 GAS CALL SWAP3 POP POP POP RETURNDATASIZE DUP1 PUSH1 0x0 DUP2 EQ PUSH2 0x86C JUMPI PUSH1 0x40 MLOAD SWAP2 POP PUSH1 0x1F NOT PUSH1 0x3F RETURNDATASIZE ADD AND DUP3 ADD PUSH1 0x40 MSTORE RETURNDATASIZE DUP3 MSTORE RETURNDATASIZE PUSH1 0x0 PUSH1 0x20 DUP5 ADD RETURNDATACOPY PUSH2 0x871 JUMP JUMPDEST PUSH1 0x60 SWAP2 POP JUMPDEST POP POP SWAP1 POP DUP1 PUSH2 0x8B5 JUMPI PUSH1 0x40 MLOAD PUSH32 0x8C379A000000000000000000000000000000000000000000000000000000000 DUP2 MSTORE PUSH1 0x4 ADD PUSH2 0x8AC SWAP1 PUSH2 0x3D84 JUMP JUMPDEST PUSH1 0x40 MLOAD DUP1 SWAP2 SUB SWAP1 REVERT JUMPDEST DUP1 SWAP2 POP POP SWAP1 JUMP JUMPDEST PUSH1 0x8 DUP2 PUSH1 0x4 DUP2 LT PUSH2 0x8CC JUMPI PUSH1 0x0 DUP1 REVERT JUMPDEST PUSH1 0x20 SWAP2 DUP3 DUP3 DIV ADD SWAP2 SWAP1 MOD SWAP2 POP SLOAD SWAP1 PUSH2 0x100 EXP SWAP1 DIV PUSH1 0xFF AND DUP2 JUMP JUMPDEST PUSH1 0x60 PUSH1 0xA PUSH1 0x0 DUP4 PUSH20 0xFFFFFFFFFFFFFFFFFFFFFFFFFFFFFFFFFFFFFFFF AND PUSH20 0xFFFFFFFFFFFFFFFFFFFFFFFFFFFFFFFFFFFFFFFF AND DUP2 MSTORE PUSH1 0x20 ADD SWAP1 DUP2 MSTORE PUSH1 0x20 ADD PUSH1 0x0 KECCAK256 PUSH1 0x6 ADD DUP1 SLOAD DUP1 PUSH1 0x20 MUL PUSH1 0x20 ADD PUSH1 0x40 MLOAD SWAP1 DUP2 ADD PUSH1 0x40 MSTORE DUP1 SWAP3 SWAP2 SWAP1 DUP2 DUP2 MSTORE PUSH1 0x20 ADD DUP3 DUP1 SLOAD DUP1 ISZERO PUSH2 0x974 JUMPI PUSH1 0x20 MUL DUP3 ADD SWAP2 SWAP1 PUSH1 0x0 MSTORE PUSH1 0x20 PUSH1 0x0 KECCAK256 SWAP1 JUMPDEST DUP2 SLOAD DUP2 MSTORE PUSH1 0x20 ADD SWAP1 PUSH1 0x1 ADD SWAP1 DUP1 DUP4 GT PUSH2 0x960 JUMPI JUMPDEST POP POP POP POP POP SWAP1 POP SWAP2 SWAP1 POP JUMP JUMPDEST PUSH1 0x0 PUSH3 0xF4240 SELFBALANCE PUSH2 0x991 SWAP2 SWAP1 PUSH2 0x3E02 JUMP JUMPDEST SWAP1 POP SWAP1 JUMP JUMPDEST PUSH1 0x9 PUSH1 0x20 MSTORE DUP1 PUSH1 0x0 MSTORE PUSH1 0x40 PUSH1 0x0 KECCAK256 PUSH1 0x0 SWAP2 POP SWAP1 POP SLOAD DUP2 JUMP JUMPDEST PUSH1 0x0 PUSH1 0xA PUSH1 0x0 CALLER PUSH20 0xFFFFFFFFFFFFFFFFFFFFFFFFFFFFFFFFFFFFFFFF AND PUSH20 0xFFFFFFFFFFFFFFFFFFFFFFFFFFFFFFFFFFFFFFFF AND DUP2 MSTORE PUSH1 0x20 ADD SWAP1 DUP2 MSTORE PUSH1 0x20 ADD PUSH1 0x0 KECCAK256 PUSH1 0x0 ADD PUSH1 0x0 SWAP1 SLOAD SWAP1 PUSH2 0x100 EXP SWAP1 DIV PUSH1 0xFF AND ISZERO PUSH2 0xA40 JUMPI PUSH1 0x40 MLOAD PUSH32 0x8C379A000000000000000000000000000000000000000000000000000000000 DUP2 MSTORE PUSH1 0x4 ADD PUSH2 0xA37 SWAP1 PUSH2 0x3E7F JUMP JUMPDEST PUSH1 0x40 MLOAD DUP1 SWAP2 SUB SWAP1 REVERT JUMPDEST PUSH1 0x0 DUP3 GT DUP1 ISZERO PUSH2 0xA52 JUMPI POP PUSH1 0xF SLOAD DUP3 GT ISZERO JUMPDEST PUSH2 0xA91 JUMPI PUSH1 0x40 MLOAD PUSH32 0x8C379A000000000000000000000000000000000000000000000000000000000 DUP2 MSTORE PUSH1 0x4 ADD PUSH2 0xA88 SWAP1 PUSH2 0x3EEB JUMP JUMPDEST PUSH1 0x40 MLOAD DUP1 SWAP2 SUB SWAP1 REVERT JUMPDEST PUSH1 0x13 SLOAD CALLVALUE EQ PUSH2 0xAD5 JUMPI PUSH1 0x40 MLOAD PUSH32 0x8C379A000000000000000000000000000000000000000000000000000000000 DUP2 MSTORE PUSH1 0x4 ADD PUSH2 0xACC SWAP1 PUSH2 0x3F57 JUMP JUMPDEST PUSH1 0x40 MLOAD DUP1 SWAP2 SUB SWAP1 REVERT JUMPDEST PUSH1 0x0 PUSH1 0xA PUSH1 0x0 CALLER PUSH20 0xFFFFFFFFFFFFFFFFFFFFFFFFFFFFFFFFFFFFFFFF AND PUSH20 0xFFFFFFFFFFFFFFFFFFFFFFFFFFFFFFFFFFFFFFFF AND DUP2 MSTORE PUSH1 0x20 ADD SWAP1 DUP2 MSTORE PUSH1 0x20 ADD PUSH1 0x0 KECCAK256 SWAP1 POP PUSH1 0x1 DUP2 PUSH1 0x0 ADD PUSH1 0x0 PUSH2 0x100 EXP DUP2 SLOAD DUP2 PUSH1 0xFF MUL NOT AND SWAP1 DUP4 ISZERO ISZERO MUL OR SWAP1 SSTORE POP PUSH1 0xF SLOAD DUP2 PUSH1 0x1 ADD DUP2 SWAP1 SSTORE POP DUP3 DUP2 PUSH1 0x2 ADD DUP2 SWAP1 SSTORE POP PUSH1 0x0 PUSH8 0xFFFFFFFFFFFFFFFF DUP2 GT ISZERO PUSH2 0xB64 JUMPI PUSH2 0xB63 PUSH2 0x3F77 JUMP JUMPDEST JUMPDEST PUSH1 0x40 MLOAD SWAP1 DUP1 DUP3 MSTORE DUP1 PUSH1 0x20 MUL PUSH1 0x20 ADD DUP3 ADD PUSH1 0x40 MSTORE DUP1 ISZERO PUSH2 0xB92 JUMPI DUP2 PUSH1 0x20 ADD PUSH1 0x20 DUP3 MUL DUP1 CALLDATASIZE DUP4 CALLDATACOPY DUP1 DUP3 ADD SWAP2 POP POP SWAP1 POP JUMPDEST POP DUP2 PUSH1 0x3 ADD SWAP1 DUP1 MLOAD SWAP1 PUSH1 0x20 ADD SWAP1 PUSH2 0xBAA SWAP3 SWAP2 SWAP1 PUSH2 0x3748 JUMP JUMPDEST POP TIMESTAMP DUP2 PUSH1 0x4 ADD DUP2 SWAP1 SSTORE POP PUSH1 0x0 PUSH8 0xFFFFFFFFFFFFFFFF DUP2 GT ISZERO PUSH2 0xBCF JUMPI PUSH2 0xBCE PUSH2 0x3F77 JUMP JUMPDEST JUMPDEST PUSH1 0x40 MLOAD SWAP1 DUP1 DUP3 MSTORE DUP1 PUSH1 0x20 MUL PUSH1 0x20 ADD DUP3 ADD PUSH1 0x40 MSTORE DUP1 ISZERO PUSH2 0xBFD JUMPI DUP2 PUSH1 0x20 ADD PUSH1 0x20 DUP3 MUL DUP1 CALLDATASIZE DUP4 CALLDATACOPY DUP1 DUP3 ADD SWAP2 POP POP SWAP1 POP JUMPDEST POP DUP2 PUSH1 0x6 ADD SWAP1 DUP1 MLOAD SWAP1 PUSH1 0x20 ADD SWAP1 PUSH2 0xC15 SWAP3 SWAP2 SWAP1 PUSH2 0x37D2 JUMP JUMPDEST POP PUSH1 0xF PUSH1 0x0 DUP2 SLOAD DUP1 SWAP3 SWAP2 SWAP1 PUSH2 0xC29 SWAP1 PUSH2 0x3FA6 JUMP JUMPDEST SWAP2 SWAP1 POP SSTORE POP CALLER PUSH1 0xB PUSH1 0x0 PUSH1 0xF SLOAD DUP2 MSTORE PUSH1 0x20 ADD SWAP1 DUP2 MSTORE PUSH1 0x20 ADD PUSH1 0x0 KECCAK256 PUSH1 0x0 PUSH2 0x100 EXP DUP2 SLOAD DUP2 PUSH20 0xFFFFFFFFFFFFFFFFFFFFFFFFFFFFFFFFFFFFFFFF MUL NOT AND SWAP1 DUP4 PUSH20 0xFFFFFFFFFFFFFFFFFFFFFFFFFFFFFFFFFFFFFFFF AND MUL OR SWAP1 SSTORE POP PUSH1 0xA PUSH1 0x0 PUSH1 0xB PUSH1 0x0 DUP7 DUP2 MSTORE PUSH1 0x20 ADD SWAP1 DUP2 MSTORE PUSH1 0x20 ADD PUSH1 0x0 KECCAK256 PUSH1 0x0 SWAP1 SLOAD SWAP1 PUSH2 0x100 EXP SWAP1 DIV PUSH20 0xFFFFFFFFFFFFFFFFFFFFFFFFFFFFFFFFFFFFFFFF AND PUSH20 0xFFFFFFFFFFFFFFFFFFFFFFFFFFFFFFFFFFFFFFFF AND PUSH20 0xFFFFFFFFFFFFFFFFFFFFFFFFFFFFFFFFFFFFFFFF AND DUP2 MSTORE PUSH1 0x20 ADD SWAP1 DUP2 MSTORE PUSH1 0x20 ADD PUSH1 0x0 KECCAK256 PUSH1 0x3 ADD CALLER SWAP1 DUP1 PUSH1 0x1 DUP2 SLOAD ADD DUP1 DUP3 SSTORE DUP1 SWAP2 POP POP PUSH1 0x1 SWAP1 SUB SWAP1 PUSH1 0x0 MSTORE PUSH1 0x20 PUSH1 0x0 KECCAK256 ADD PUSH1 0x0 SWAP1 SWAP2 SWAP1 SWAP2 SWAP1 SWAP2 PUSH2 0x100 EXP DUP2 SLOAD DUP2 PUSH20 0xFFFFFFFFFFFFFFFFFFFFFFFFFFFFFFFFFFFFFFFF MUL NOT AND SWAP1 DUP4 PUSH20 0xFFFFFFFFFFFFFFFFFFFFFFFFFFFFFFFFFFFFFFFF AND MUL OR SWAP1 SSTORE POP PUSH1 0x9 PUSH1 0x0 PUSH1 0x1 DUP2 MSTORE PUSH1 0x20 ADD SWAP1 DUP2 MSTORE PUSH1 0x20 ADD PUSH1 0x0 KECCAK256 SLOAD PUSH1 0x12 PUSH1 0x0 DUP3 DUP3 SLOAD PUSH2 0xD7E SWAP2 SWAP1 PUSH2 0x3FEF JUMP JUMPDEST SWAP3 POP POP DUP2 SWAP1 SSTORE POP PUSH1 0x15 SLOAD PUSH1 0x11 PUSH1 0x0 DUP3 DUP3 SLOAD PUSH2 0xD99 SWAP2 SWAP1 PUSH2 0x3FEF JUMP JUMPDEST SWAP3 POP POP DUP2 SWAP1 SSTORE POP PUSH1 0x16 SLOAD PUSH1 0x10 PUSH1 0x0 DUP3 DUP3 SLOAD PUSH2 0xDB4 SWAP2 SWAP1 PUSH2 0x3FEF JUMP JUMPDEST SWAP3 POP POP DUP2 SWAP1 SSTORE POP PUSH1 0x0 PUSH1 0xA PUSH1 0x0 PUSH1 0xB PUSH1 0x0 DUP8 DUP2 MSTORE PUSH1 0x20 ADD SWAP1 DUP2 MSTORE PUSH1 0x20 ADD PUSH1 0x0 KECCAK256 PUSH1 0x0 SWAP1 SLOAD SWAP1 PUSH2 0x100 EXP SWAP1 DIV PUSH20 0xFFFFFFFFFFFFFFFFFFFFFFFFFFFFFFFFFFFFFFFF AND PUSH20 0xFFFFFFFFFFFFFFFFFFFFFFFFFFFFFFFFFFFFFFFF AND PUSH20 0xFFFFFFFFFFFFFFFFFFFFFFFFFFFFFFFFFFFFFFFF AND DUP2 MSTORE PUSH1 0x20 ADD SWAP1 DUP2 MSTORE PUSH1 0x20 ADD PUSH1 0x0 KECCAK256 PUSH1 0x3 ADD DUP1 SLOAD SWAP1 POP SWAP1 POP PUSH1 0x1 DUP2 EQ ISZERO DUP1 PUSH2 0xE48 JUMPI POP PUSH1 0x1 DUP5 EQ JUMPDEST ISZERO PUSH2 0xE60 JUMPI PUSH2 0xE5B PUSH1 0x1 CALLER DUP4 PUSH1 0x0 PUSH2 0x188F JUMP JUMPDEST PUSH2 0xFF0 JUMP JUMPDEST PUSH1 0xA PUSH1 0x0 PUSH1 0xB PUSH1 0x0 DUP8 DUP2 MSTORE PUSH1 0x20 ADD SWAP1 DUP2 MSTORE PUSH1 0x20 ADD PUSH1 0x0 KECCAK256 PUSH1 0x0 SWAP1 SLOAD SWAP1 PUSH2 0x100 EXP SWAP1 DIV PUSH20 0xFFFFFFFFFFFFFFFFFFFFFFFFFFFFFFFFFFFFFFFF AND PUSH20 0xFFFFFFFFFFFFFFFFFFFFFFFFFFFFFFFFFFFFFFFF AND PUSH20 0xFFFFFFFFFFFFFFFFFFFFFFFFFFFFFFFFFFFFFFFF AND DUP2 MSTORE PUSH1 0x20 ADD SWAP1 DUP2 MSTORE PUSH1 0x20 ADD PUSH1 0x0 KECCAK256 PUSH1 0x6 ADD PUSH1 0x1 SWAP1 DUP1 PUSH1 0x1 DUP2 SLOAD ADD DUP1 DUP3 SSTORE DUP1 SWAP2 POP POP PUSH1 0x1 SWAP1 SUB SWAP1 PUSH1 0x0 MSTORE PUSH1 0x20 PUSH1 0x0 KECCAK256 ADD PUSH1 0x0 SWAP1 SWAP2 SWAP1 SWAP2 SWAP1 SWAP2 POP SSTORE PUSH1 0x0 PUSH1 0xB PUSH1 0x0 DUP7 DUP2 MSTORE PUSH1 0x20 ADD SWAP1 DUP2 MSTORE PUSH1 0x20 ADD PUSH1 0x0 KECCAK256 PUSH1 0x0 SWAP1 SLOAD SWAP1 PUSH2 0x100 EXP SWAP1 DIV PUSH20 0xFFFFFFFFFFFFFFFFFFFFFFFFFFFFFFFFFFFFFFFF AND SWAP1 POP PUSH1 0x1 PUSH1 0xA PUSH1 0x0 DUP4 PUSH20 0xFFFFFFFFFFFFFFFFFFFFFFFFFFFFFFFFFFFFFFFF AND PUSH20 0xFFFFFFFFFFFFFFFFFFFFFFFFFFFFFFFFFFFFFFFF AND DUP2 MSTORE PUSH1 0x20 ADD SWAP1 DUP2 MSTORE PUSH1 0x20 ADD PUSH1 0x0 KECCAK256 PUSH1 0x5 ADD PUSH1 0x0 PUSH1 0x1 DUP2 MSTORE PUSH1 0x20 ADD SWAP1 DUP2 MSTORE PUSH1 0x20 ADD PUSH1 0x0 KECCAK256 SLOAD PUSH2 0xF96 SWAP2 SWAP1 PUSH2 0x3FEF JUMP JUMPDEST PUSH1 0xA PUSH1 0x0 DUP4 PUSH20 0xFFFFFFFFFFFFFFFFFFFFFFFFFFFFFFFFFFFFFFFF AND PUSH20 0xFFFFFFFFFFFFFFFFFFFFFFFFFFFFFFFFFFFFFFFF AND DUP2 MSTORE PUSH1 0x20 ADD SWAP1 DUP2 MSTORE PUSH1 0x20 ADD PUSH1 0x0 KECCAK256 PUSH1 0x5 ADD PUSH1 0x0 PUSH1 0x1 DUP2 MSTORE PUSH1 0x20 ADD SWAP1 DUP2 MSTORE PUSH1 0x20 ADD PUSH1 0x0 KECCAK256 DUP2 SWAP1 SSTORE POP POP JUMPDEST PUSH1 0x0 PUSH1 0xB PUSH1 0x0 DUP7 DUP2 MSTORE PUSH1 0x20 ADD SWAP1 DUP2 MSTORE PUSH1 0x20 ADD PUSH1 0x0 KECCAK256 PUSH1 0x0 SWAP1 SLOAD SWAP1 PUSH2 0x100 EXP SWAP1 DIV PUSH20 0xFFFFFFFFFFFFFFFFFFFFFFFFFFFFFFFFFFFFFFFF AND PUSH20 0xFFFFFFFFFFFFFFFFFFFFFFFFFFFFFFFFFFFFFFFF AND PUSH1 0x14 SLOAD PUSH1 0x40 MLOAD PUSH2 0x104B SWAP1 PUSH2 0x3D23 JUMP JUMPDEST PUSH1 0x0 PUSH1 0x40 MLOAD DUP1 DUP4 SUB DUP2 DUP6 DUP8 GAS CALL SWAP3 POP POP POP RETURNDATASIZE DUP1 PUSH1 0x0 DUP2 EQ PUSH2 0x1088 JUMPI PUSH1 0x40 MLOAD SWAP2 POP PUSH1 0x1F NOT PUSH1 0x3F RETURNDATASIZE ADD AND DUP3 ADD PUSH1 0x40 MSTORE RETURNDATASIZE DUP3 MSTORE RETURNDATASIZE PUSH1 0x0 PUSH1 0x20 DUP5 ADD RETURNDATACOPY PUSH2 0x108D JUMP JUMPDEST PUSH1 0x60 SWAP2 POP JUMPDEST POP POP SWAP1 POP DUP1 PUSH2 0x10D1 JUMPI PUSH1 0x40 MLOAD PUSH32 0x8C379A000000000000000000000000000000000000000000000000000000000 DUP2 MSTORE PUSH1 0x4 ADD PUSH2 0x10C8 SWAP1 PUSH2 0x3D84 JUMP JUMPDEST PUSH1 0x40 MLOAD DUP1 SWAP2 SUB SWAP1 REVERT JUMPDEST PUSH1 0xB PUSH1 0x0 DUP7 DUP2 MSTORE PUSH1 0x20 ADD SWAP1 DUP2 MSTORE PUSH1 0x20 ADD PUSH1 0x0 KECCAK256 PUSH1 0x0 SWAP1 SLOAD SWAP1 PUSH2 0x100 EXP SWAP1 DIV PUSH20 0xFFFFFFFFFFFFFFFFFFFFFFFFFFFFFFFFFFFFFFFF AND PUSH20 0xFFFFFFFFFFFFFFFFFFFFFFFFFFFFFFFFFFFFFFFF AND CALLER PUSH20 0xFFFFFFFFFFFFFFFFFFFFFFFFFFFFFFFFFFFFFFFF AND PUSH32 0x788C06D2405AE89DD3F0528D38BE7691289474D72176408BC2C2406DC5E342F1 TIMESTAMP PUSH1 0x40 MLOAD PUSH2 0x1161 SWAP2 SWAP1 PUSH2 0x3BD5 JUMP JUMPDEST PUSH1 0x40 MLOAD DUP1 SWAP2 SUB SWAP1 LOG3 DUP1 SWAP4 POP POP POP POP SWAP2 SWAP1 POP JUMP JUMPDEST PUSH1 0x2 PUSH1 0x0 SWAP1 SLOAD SWAP1 PUSH2 0x100 EXP SWAP1 DIV PUSH20 0xFFFFFFFFFFFFFFFFFFFFFFFFFFFFFFFFFFFFFFFF AND DUP2 JUMP JUMPDEST PUSH1 0x0 DUP1 PUSH1 0x0 SWAP1 POP PUSH1 0x0 DUP1 JUMPDEST PUSH1 0x4 DUP2 LT ISZERO PUSH2 0x1236 JUMPI CALLER PUSH20 0xFFFFFFFFFFFFFFFFFFFFFFFFFFFFFFFFFFFFFFFF AND PUSH1 0x4 DUP3 PUSH1 0x4 DUP2 LT PUSH2 0x11D9 JUMPI PUSH2 0x11D8 PUSH2 0x4045 JUMP JUMPDEST JUMPDEST ADD PUSH1 0x0 SWAP1 SLOAD SWAP1 PUSH2 0x100 EXP SWAP1 DIV PUSH20 0xFFFFFFFFFFFFFFFFFFFFFFFFFFFFFFFFFFFFFFFF AND PUSH20 0xFFFFFFFFFFFFFFFFFFFFFFFFFFFFFFFFFFFFFFFF AND EQ ISZERO PUSH2 0x1223 JUMPI PUSH1 0x1 SWAP3 POP DUP1 SWAP2 POP PUSH2 0x1236 JUMP JUMPDEST DUP1 DUP1 PUSH2 0x122E SWAP1 PUSH2 0x3FA6 JUMP JUMPDEST SWAP2 POP POP PUSH2 0x11A5 JUMP JUMPDEST POP PUSH1 0x1 ISZERO ISZERO DUP3 ISZERO ISZERO EQ PUSH2 0x127E JUMPI PUSH1 0x40 MLOAD PUSH32 0x8C379A000000000000000000000000000000000000000000000000000000000 DUP2 MSTORE PUSH1 0x4 ADD PUSH2 0x1275 SWAP1 PUSH2 0x3CD2 JUMP JUMPDEST PUSH1 0x40 MLOAD DUP1 SWAP2 SUB SWAP1 REVERT JUMPDEST PUSH1 0x0 PUSH1 0x64 PUSH1 0x8 DUP4 PUSH1 0x4 DUP2 LT PUSH2 0x1296 JUMPI PUSH2 0x1295 PUSH2 0x4045 JUMP JUMPDEST JUMPDEST PUSH1 0x20 SWAP2 DUP3 DUP3 DIV ADD SWAP2 SWAP1 MOD SWAP1 SLOAD SWAP1 PUSH2 0x100 EXP SWAP1 DIV PUSH1 0xFF AND PUSH1 0xFF AND PUSH1 0x11 SLOAD PUSH2 0x12BC SWAP2 SWAP1 PUSH2 0x4074 JUMP JUMPDEST PUSH2 0x12C6 SWAP2 SWAP1 PUSH2 0x3E02 JUMP JUMPDEST SWAP1 POP PUSH1 0x0 CALLER PUSH20 0xFFFFFFFFFFFFFFFFFFFFFFFFFFFFFFFFFFFFFFFF AND DUP3 PUSH1 0x40 MLOAD PUSH2 0x12EE SWAP1 PUSH2 0x3D23 JUMP JUMPDEST PUSH1 0x0 PUSH1 0x40 MLOAD DUP1 DUP4 SUB DUP2 DUP6 DUP8 GAS CALL SWAP3 POP POP POP RETURNDATASIZE DUP1 PUSH1 0x0 DUP2 EQ PUSH2 0x132B JUMPI PUSH1 0x40 MLOAD SWAP2 POP PUSH1 0x1F NOT PUSH1 0x3F RETURNDATASIZE ADD AND DUP3 ADD PUSH1 0x40 MSTORE RETURNDATASIZE DUP3 MSTORE RETURNDATASIZE PUSH1 0x0 PUSH1 0x20 DUP5 ADD RETURNDATACOPY PUSH2 0x1330 JUMP JUMPDEST PUSH1 0x60 SWAP2 POP JUMPDEST POP POP SWAP1 POP DUP1 PUSH2 0x1374 JUMPI PUSH1 0x40 MLOAD PUSH32 0x8C379A000000000000000000000000000000000000000000000000000000000 DUP2 MSTORE PUSH1 0x4 ADD PUSH2 0x136B SWAP1 PUSH2 0x3D84 JUMP JUMPDEST PUSH1 0x40 MLOAD DUP1 SWAP2 SUB SWAP1 REVERT JUMPDEST DUP1 SWAP5 POP POP POP POP POP SWAP1 JUMP JUMPDEST PUSH1 0xB PUSH1 0x20 MSTORE DUP1 PUSH1 0x0 MSTORE PUSH1 0x40 PUSH1 0x0 KECCAK256 PUSH1 0x0 SWAP2 POP SLOAD SWAP1 PUSH2 0x100 EXP SWAP1 DIV PUSH20 0xFFFFFFFFFFFFFFFFFFFFFFFFFFFFFFFFFFFFFFFF AND DUP2 JUMP JUMPDEST PUSH1 0x0 PUSH1 0x2 PUSH1 0x0 SWAP1 SLOAD SWAP1 PUSH2 0x100 EXP SWAP1 DIV PUSH20 0xFFFFFFFFFFFFFFFFFFFFFFFFFFFFFFFFFFFFFFFF AND PUSH20 0xFFFFFFFFFFFFFFFFFFFFFFFFFFFFFFFFFFFFFFFF AND CALLER PUSH20 0xFFFFFFFFFFFFFFFFFFFFFFFFFFFFFFFFFFFFFFFF AND EQ PUSH2 0x1443 JUMPI PUSH1 0x40 MLOAD PUSH32 0x8C379A000000000000000000000000000000000000000000000000000000000 DUP2 MSTORE PUSH1 0x4 ADD PUSH2 0x143A SWAP1 PUSH2 0x3CD2 JUMP JUMPDEST PUSH1 0x40 MLOAD DUP1 SWAP2 SUB SWAP1 REVERT JUMPDEST PUSH1 0x0 PUSH1 0x2 PUSH1 0x0 SWAP1 SLOAD SWAP1 PUSH2 0x100 EXP SWAP1 DIV PUSH20 0xFFFFFFFFFFFFFFFFFFFFFFFFFFFFFFFFFFFFFFFF AND PUSH20 0xFFFFFFFFFFFFFFFFFFFFFFFFFFFFFFFFFFFFFFFF AND PUSH1 0x10 SLOAD PUSH1 0x40 MLOAD PUSH2 0x148D SWAP1 PUSH2 0x3D23 JUMP JUMPDEST PUSH1 0x0 PUSH1 0x40 MLOAD DUP1 DUP4 SUB DUP2 DUP6 DUP8 GAS CALL SWAP3 POP POP POP RETURNDATASIZE DUP1 PUSH1 0x0 DUP2 EQ PUSH2 0x14CA JUMPI PUSH1 0x40 MLOAD SWAP2 POP PUSH1 0x1F NOT PUSH1 0x3F RETURNDATASIZE ADD AND DUP3 ADD PUSH1 0x40 MSTORE RETURNDATASIZE DUP3 MSTORE RETURNDATASIZE PUSH1 0x0 PUSH1 0x20 DUP5 ADD RETURNDATACOPY PUSH2 0x14CF JUMP JUMPDEST PUSH1 0x60 SWAP2 POP JUMPDEST POP POP SWAP1 POP DUP1 PUSH2 0x1513 JUMPI PUSH1 0x40 MLOAD PUSH32 0x8C379A000000000000000000000000000000000000000000000000000000000 DUP2 MSTORE PUSH1 0x4 ADD PUSH2 0x150A SWAP1 PUSH2 0x3D84 JUMP JUMPDEST PUSH1 0x40 MLOAD DUP1 SWAP2 SUB SWAP1 REVERT JUMPDEST DUP1 SWAP2 POP POP SWAP1 JUMP JUMPDEST PUSH1 0xF SLOAD DUP2 JUMP JUMPDEST PUSH1 0xA PUSH1 0x20 MSTORE DUP1 PUSH1 0x0 MSTORE PUSH1 0x40 PUSH1 0x0 KECCAK256 PUSH1 0x0 SWAP2 POP SWAP1 POP DUP1 PUSH1 0x0 ADD PUSH1 0x0 SWAP1 SLOAD SWAP1 PUSH2 0x100 EXP SWAP1 DIV PUSH1 0xFF AND SWAP1 DUP1 PUSH1 0x1 ADD SLOAD SWAP1 DUP1 PUSH1 0x2 ADD SLOAD SWAP1 DUP1 PUSH1 0x4 ADD SLOAD SWAP1 POP DUP5 JUMP JUMPDEST PUSH1 0x0 PUSH1 0xA PUSH1 0x0 DUP5 PUSH20 0xFFFFFFFFFFFFFFFFFFFFFFFFFFFFFFFFFFFFFFFF AND PUSH20 0xFFFFFFFFFFFFFFFFFFFFFFFFFFFFFFFFFFFFFFFF AND DUP2 MSTORE PUSH1 0x20 ADD SWAP1 DUP2 MSTORE PUSH1 0x20 ADD PUSH1 0x0 KECCAK256 PUSH1 0x5 ADD PUSH1 0x0 DUP4 DUP2 MSTORE PUSH1 0x20 ADD SWAP1 DUP2 MSTORE PUSH1 0x20 ADD PUSH1 0x0 KECCAK256 SLOAD SWAP1 POP SWAP3 SWAP2 POP POP JUMP JUMPDEST PUSH1 0xC PUSH1 0x20 MSTORE DUP2 PUSH1 0x0 MSTORE PUSH1 0x40 PUSH1 0x0 KECCAK256 PUSH1 0x20 MSTORE DUP1 PUSH1 0x0 MSTORE PUSH1 0x40 PUSH1 0x0 KECCAK256 PUSH1 0x0 SWAP2 POP SWAP2 POP POP SLOAD DUP2 JUMP JUMPDEST PUSH1 0x1 PUSH1 0x0 SWAP1 SLOAD SWAP1 PUSH2 0x100 EXP SWAP1 DIV PUSH20 0xFFFFFFFFFFFFFFFFFFFFFFFFFFFFFFFFFFFFFFFF AND DUP2 JUMP JUMPDEST PUSH1 0x0 DUP1 SLOAD SWAP1 PUSH2 0x100 EXP SWAP1 DIV PUSH20 0xFFFFFFFFFFFFFFFFFFFFFFFFFFFFFFFFFFFFFFFF AND PUSH20 0xFFFFFFFFFFFFFFFFFFFFFFFFFFFFFFFFFFFFFFFF AND CALLER PUSH20 0xFFFFFFFFFFFFFFFFFFFFFFFFFFFFFFFFFFFFFFFF AND EQ PUSH2 0x1694 JUMPI PUSH1 0x40 MLOAD PUSH32 0x8C379A000000000000000000000000000000000000000000000000000000000 DUP2 MSTORE PUSH1 0x4 ADD PUSH2 0x168B SWAP1 PUSH2 0x411A JUMP JUMPDEST PUSH1 0x40 MLOAD DUP1 SWAP2 SUB SWAP1 REVERT JUMPDEST PUSH1 0x0 DUP1 SLOAD SWAP1 PUSH2 0x100 EXP SWAP1 DIV PUSH20 0xFFFFFFFFFFFFFFFFFFFFFFFFFFFFFFFFFFFFFFFF AND PUSH20 0xFFFFFFFFFFFFFFFFFFFFFFFFFFFFFFFFFFFFFFFF AND CALLER PUSH20 0xFFFFFFFFFFFFFFFFFFFFFFFFFFFFFFFFFFFFFFFF AND EQ PUSH2 0x1722 JUMPI PUSH1 0x40 MLOAD PUSH32 0x8C379A000000000000000000000000000000000000000000000000000000000 DUP2 MSTORE PUSH1 0x4 ADD PUSH2 0x1719 SWAP1 PUSH2 0x3CD2 JUMP JUMPDEST PUSH1 0x40 MLOAD DUP1 SWAP2 SUB SWAP1 REVERT JUMPDEST PUSH1 0x5 DUP2 GT ISZERO PUSH2 0x1766 JUMPI PUSH1 0x40 MLOAD PUSH32 0x8C379A000000000000000000000000000000000000000000000000000000000 DUP2 MSTORE PUSH1 0x4 ADD PUSH2 0x175D SWAP1 PUSH2 0x4186 JUMP JUMPDEST PUSH1 0x40 MLOAD DUP1 SWAP2 SUB SWAP1 REVERT JUMPDEST PUSH1 0x3 DUP2 GT PUSH2 0x17D3 JUMPI DUP2 PUSH1 0x4 PUSH1 0x1 DUP4 PUSH2 0x177E SWAP2 SWAP1 PUSH2 0x41A6 JUMP JUMPDEST PUSH1 0x4 DUP2 LT PUSH2 0x178F JUMPI PUSH2 0x178E PUSH2 0x4045 JUMP JUMPDEST JUMPDEST ADD PUSH1 0x0 PUSH2 0x100 EXP DUP2 SLOAD DUP2 PUSH20 0xFFFFFFFFFFFFFFFFFFFFFFFFFFFFFFFFFFFFFFFF MUL NOT AND SWAP1 DUP4 PUSH20 0xFFFFFFFFFFFFFFFFFFFFFFFFFFFFFFFFFFFFFFFF AND MUL OR SWAP1 SSTORE POP PUSH2 0x1865 JUMP JUMPDEST PUSH1 0x4 DUP2 EQ ISZERO PUSH2 0x1822 JUMPI DUP2 PUSH1 0x2 PUSH1 0x0 PUSH2 0x100 EXP DUP2 SLOAD DUP2 PUSH20 0xFFFFFFFFFFFFFFFFFFFFFFFFFFFFFFFFFFFFFFFF MUL NOT AND SWAP1 DUP4 PUSH20 0xFFFFFFFFFFFFFFFFFFFFFFFFFFFFFFFFFFFFFFFF AND MUL OR SWAP1 SSTORE POP PUSH2 0x1864 JUMP JUMPDEST DUP2 PUSH1 0x1 PUSH1 0x0 PUSH2 0x100 EXP DUP2 SLOAD DUP2 PUSH20 0xFFFFFFFFFFFFFFFFFFFFFFFFFFFFFFFFFFFFFFFF MUL NOT AND SWAP1 DUP4 PUSH20 0xFFFFFFFFFFFFFFFFFFFFFFFFFFFFFFFFFFFFFFFF AND MUL OR SWAP1 SSTORE POP JUMPDEST JUMPDEST POP POP JUMP JUMPDEST PUSH1 0x3 PUSH1 0x0 SWAP1 SLOAD SWAP1 PUSH2 0x100 EXP SWAP1 DIV PUSH20 0xFFFFFFFFFFFFFFFFFFFFFFFFFFFFFFFFFFFFFFFF AND DUP2 JUMP JUMPDEST PUSH1 0x0 DUP1 PUSH1 0x0 SWAP1 POP PUSH1 0x0 DUP1 PUSH1 0x1 SWAP1 POP PUSH1 0x0 DUP1 DUP10 SWAP1 POP PUSH1 0x2 DUP9 EQ ISZERO PUSH2 0x18D9 JUMPI PUSH2 0x18B9 DUP11 DUP11 DUP5 DUP8 DUP8 PUSH2 0x1E07 JUMP JUMPDEST DUP1 SWAP7 POP DUP2 SWAP6 POP DUP3 SWAP9 POP POP POP POP PUSH1 0x1 DUP11 PUSH2 0x18D2 SWAP2 SWAP1 PUSH2 0x3FEF JUMP JUMPDEST SWAP1 POP PUSH2 0x19DA JUMP JUMPDEST PUSH1 0x14 DUP9 LT ISZERO DUP1 ISZERO PUSH2 0x18F6 JUMPI POP PUSH1 0x0 PUSH1 0x14 DUP10 PUSH2 0x18F4 SWAP2 SWAP1 PUSH2 0x41DA JUMP JUMPDEST EQ JUMPDEST ISZERO PUSH2 0x1925 JUMPI PUSH1 0x3 PUSH1 0x0 SWAP1 SLOAD SWAP1 PUSH2 0x100 EXP SWAP1 DIV PUSH20 0xFFFFFFFFFFFFFFFFFFFFFFFFFFFFFFFFFFFFFFFF AND SWAP6 POP PUSH2 0x19D9 JUMP JUMPDEST PUSH1 0x4 DUP9 LT ISZERO DUP1 ISZERO PUSH2 0x1942 JUMPI POP PUSH1 0x0 PUSH1 0x4 DUP10 PUSH2 0x1940 SWAP2 SWAP1 PUSH2 0x41DA JUMP JUMPDEST EQ JUMPDEST ISZERO PUSH2 0x195F JUMPI PUSH2 0x1952 DUP8 DUP11 DUP13 PUSH2 0x2579 JUMP JUMPDEST DUP1 SWAP7 POP DUP2 SWAP8 POP POP POP PUSH2 0x19D8 JUMP JUMPDEST PUSH1 0xB PUSH1 0x0 PUSH1 0xA PUSH1 0x0 DUP13 PUSH20 0xFFFFFFFFFFFFFFFFFFFFFFFFFFFFFFFFFFFFFFFF AND PUSH20 0xFFFFFFFFFFFFFFFFFFFFFFFFFFFFFFFFFFFFFFFF AND DUP2 MSTORE PUSH1 0x20 ADD SWAP1 DUP2 MSTORE PUSH1 0x20 ADD PUSH1 0x0 KECCAK256 PUSH1 0x2 ADD SLOAD DUP2 MSTORE PUSH1 0x20 ADD SWAP1 DUP2 MSTORE PUSH1 0x20 ADD PUSH1 0x0 KECCAK256 PUSH1 0x0 SWAP1 SLOAD SWAP1 PUSH2 0x100 EXP SWAP1 DIV PUSH20 0xFFFFFFFFFFFFFFFFFFFFFFFFFFFFFFFFFFFFFFFF AND SWAP6 POP JUMPDEST JUMPDEST JUMPDEST DUP3 DUP1 PUSH2 0x1A33 JUMPI POP PUSH1 0xA PUSH1 0x0 DUP8 PUSH20 0xFFFFFFFFFFFFFFFFFFFFFFFFFFFFFFFFFFFFFFFF AND PUSH20 0xFFFFFFFFFFFFFFFFFFFFFFFFFFFFFFFFFFFFFFFF AND DUP2 MSTORE PUSH1 0x20 ADD SWAP1 DUP2 MSTORE PUSH1 0x20 ADD PUSH1 0x0 KECCAK256 PUSH1 0x0 ADD PUSH1 0x0 SWAP1 SLOAD SWAP1 PUSH2 0x100 EXP SWAP1 DIV PUSH1 0xFF AND ISZERO JUMPDEST DUP1 PUSH2 0x1A9D JUMPI POP PUSH1 0xB PUSH1 0x0 PUSH1 0x1 DUP2 MSTORE PUSH1 0x20 ADD SWAP1 DUP2 MSTORE PUSH1 0x20 ADD PUSH1 0x0 KECCAK256 PUSH1 0x0 SWAP1 SLOAD SWAP1 PUSH2 0x100 EXP SWAP1 DIV PUSH20 0xFFFFFFFFFFFFFFFFFFFFFFFFFFFFFFFFFFFFFFFF AND PUSH20 0xFFFFFFFFFFFFFFFFFFFFFFFFFFFFFFFFFFFFFFFF AND DUP7 PUSH20 0xFFFFFFFFFFFFFFFFFFFFFFFFFFFFFFFFFFFFFFFF AND EQ JUMPDEST ISZERO PUSH2 0x1DFB JUMPI PUSH2 0x1AAF DUP7 DUP3 DUP11 DUP9 DUP9 PUSH2 0x27D7 JUMP JUMPDEST DUP1 SWAP10 POP DUP2 SWAP9 POP POP POP DUP7 ISZERO PUSH2 0x1B1B JUMPI DUP3 DUP1 ISZERO PUSH2 0x1AC8 JUMPI POP DUP4 ISZERO JUMPDEST DUP1 ISZERO PUSH2 0x1AD4 JUMPI POP PUSH1 0x2 DUP9 EQ JUMPDEST ISZERO PUSH2 0x1ADD JUMPI DUP1 SWAP10 POP JUMPDEST DUP3 DUP1 ISZERO PUSH2 0x1AE8 JUMPI POP DUP4 ISZERO JUMPDEST DUP1 ISZERO PUSH2 0x1AF4 JUMPI POP PUSH1 0x4 DUP9 EQ JUMPDEST DUP1 ISZERO PUSH2 0x1B00 JUMPI POP PUSH1 0x1 DUP2 GT JUMPDEST ISZERO PUSH2 0x1B09 JUMPI DUP1 SWAP10 POP JUMPDEST PUSH2 0x1B16 DUP11 DUP8 DUP11 PUSH1 0x1 PUSH2 0x188F JUMP JUMPDEST PUSH2 0x1DFA JUMP JUMPDEST PUSH1 0xA PUSH1 0x0 DUP8 PUSH20 0xFFFFFFFFFFFFFFFFFFFFFFFFFFFFFFFFFFFFFFFF AND PUSH20 0xFFFFFFFFFFFFFFFFFFFFFFFFFFFFFFFFFFFFFFFF AND DUP2 MSTORE PUSH1 0x20 ADD SWAP1 DUP2 MSTORE PUSH1 0x20 ADD PUSH1 0x0 KECCAK256 PUSH1 0x0 ADD PUSH1 0x0 SWAP1 SLOAD SWAP1 PUSH2 0x100 EXP SWAP1 DIV PUSH1 0xFF AND PUSH2 0x1BA7 JUMPI PUSH1 0xB PUSH1 0x0 PUSH1 0x1 DUP2 MSTORE PUSH1 0x20 ADD SWAP1 DUP2 MSTORE PUSH1 0x20 ADD PUSH1 0x0 KECCAK256 PUSH1 0x0 SWAP1 SLOAD SWAP1 PUSH2 0x100 EXP SWAP1 DIV PUSH20 0xFFFFFFFFFFFFFFFFFFFFFFFFFFFFFFFFFFFFFFFF AND SWAP6 POP JUMPDEST PUSH1 0x1 PUSH1 0xA PUSH1 0x0 DUP9 PUSH20 0xFFFFFFFFFFFFFFFFFFFFFFFFFFFFFFFFFFFFFFFF AND PUSH20 0xFFFFFFFFFFFFFFFFFFFFFFFFFFFFFFFFFFFFFFFF AND DUP2 MSTORE PUSH1 0x20 ADD SWAP1 DUP2 MSTORE PUSH1 0x20 ADD PUSH1 0x0 KECCAK256 PUSH1 0x5 ADD PUSH1 0x0 DUP4 DUP2 MSTORE PUSH1 0x20 ADD SWAP1 DUP2 MSTORE PUSH1 0x20 ADD PUSH1 0x0 KECCAK256 SLOAD PUSH2 0x1C07 SWAP2 SWAP1 PUSH2 0x3FEF JUMP JUMPDEST PUSH1 0xA PUSH1 0x0 DUP9 PUSH20 0xFFFFFFFFFFFFFFFFFFFFFFFFFFFFFFFFFFFFFFFF AND PUSH20 0xFFFFFFFFFFFFFFFFFFFFFFFFFFFFFFFFFFFFFFFF AND DUP2 MSTORE PUSH1 0x20 ADD SWAP1 DUP2 MSTORE PUSH1 0x20 ADD PUSH1 0x0 KECCAK256 PUSH1 0x5 ADD PUSH1 0x0 DUP4 DUP2 MSTORE PUSH1 0x20 ADD SWAP1 DUP2 MSTORE PUSH1 0x20 ADD PUSH1 0x0 KECCAK256 DUP2 SWAP1 SSTORE POP PUSH1 0x0 DUP7 PUSH20 0xFFFFFFFFFFFFFFFFFFFFFFFFFFFFFFFFFFFFFFFF AND PUSH1 0x9 PUSH1 0x0 DUP5 DUP2 MSTORE PUSH1 0x20 ADD SWAP1 DUP2 MSTORE PUSH1 0x20 ADD PUSH1 0x0 KECCAK256 SLOAD PUSH1 0x40 MLOAD PUSH2 0x1C97 SWAP1 PUSH2 0x3D23 JUMP JUMPDEST PUSH1 0x0 PUSH1 0x40 MLOAD DUP1 DUP4 SUB DUP2 DUP6 DUP8 GAS CALL SWAP3 POP POP POP RETURNDATASIZE DUP1 PUSH1 0x0 DUP2 EQ PUSH2 0x1CD4 JUMPI PUSH1 0x40 MLOAD SWAP2 POP PUSH1 0x1F NOT PUSH1 0x3F RETURNDATASIZE ADD AND DUP3 ADD PUSH1 0x40 MSTORE RETURNDATASIZE DUP3 MSTORE RETURNDATASIZE PUSH1 0x0 PUSH1 0x20 DUP5 ADD RETURNDATACOPY PUSH2 0x1CD9 JUMP JUMPDEST PUSH1 0x60 SWAP2 POP JUMPDEST POP POP SWAP1 POP DUP1 PUSH2 0x1D1D JUMPI PUSH1 0x40 MLOAD PUSH32 0x8C379A000000000000000000000000000000000000000000000000000000000 DUP2 MSTORE PUSH1 0x4 ADD PUSH2 0x1D14 SWAP1 PUSH2 0x3D84 JUMP JUMPDEST PUSH1 0x40 MLOAD DUP1 SWAP2 SUB SWAP1 REVERT JUMPDEST DUP1 ISZERO PUSH2 0x1D8B JUMPI CALLER PUSH20 0xFFFFFFFFFFFFFFFFFFFFFFFFFFFFFFFFFFFFFFFF AND DUP8 PUSH20 0xFFFFFFFFFFFFFFFFFFFFFFFFFFFFFFFFFFFFFFFF AND PUSH32 0xCE7DC747411AC40191C5335943FCC79D8C2D8C01CA5AE83D9FED160409FA6120 DUP5 TIMESTAMP PUSH1 0x40 MLOAD PUSH2 0x1D82 SWAP3 SWAP2 SWAP1 PUSH2 0x420B JUMP JUMPDEST PUSH1 0x40 MLOAD DUP1 SWAP2 SUB SWAP1 LOG3 JUMPDEST DUP1 PUSH2 0x1DF8 JUMPI CALLER PUSH20 0xFFFFFFFFFFFFFFFFFFFFFFFFFFFFFFFFFFFFFFFF AND DUP8 PUSH20 0xFFFFFFFFFFFFFFFFFFFFFFFFFFFFFFFFFFFFFFFF AND PUSH32 0x7DF0F6BAC5C770AF7783500BB7F1C0D073ADB11316004BA6F9F6C704AF1A1AEA DUP5 TIMESTAMP PUSH1 0x40 MLOAD PUSH2 0x1DEF SWAP3 SWAP2 SWAP1 PUSH2 0x420B JUMP JUMPDEST PUSH1 0x40 MLOAD DUP1 SWAP2 SUB SWAP1 LOG3 JUMPDEST POP JUMPDEST JUMPDEST POP POP POP POP POP POP POP POP POP POP JUMP JUMPDEST PUSH1 0x0 DUP1 PUSH1 0x0 DUP1 PUSH1 0x1 DUP10 PUSH2 0x1E1A SWAP2 SWAP1 PUSH2 0x3FEF JUMP JUMPDEST SWAP1 POP PUSH1 0x0 DUP1 PUSH1 0x2 DUP4 GT PUSH2 0x1EA4 JUMPI PUSH1 0xB PUSH1 0x0 PUSH1 0xA PUSH1 0x0 DUP14 PUSH20 0xFFFFFFFFFFFFFFFFFFFFFFFFFFFFFFFFFFFFFFFF AND PUSH20 0xFFFFFFFFFFFFFFFFFFFFFFFFFFFFFFFFFFFFFFFF AND DUP2 MSTORE PUSH1 0x20 ADD SWAP1 DUP2 MSTORE PUSH1 0x20 ADD PUSH1 0x0 KECCAK256 PUSH1 0x2 ADD SLOAD DUP2 MSTORE PUSH1 0x20 ADD SWAP1 DUP2 MSTORE PUSH1 0x20 ADD PUSH1 0x0 KECCAK256 PUSH1 0x0 SWAP1 SLOAD SWAP1 PUSH2 0x100 EXP SWAP1 DIV PUSH20 0xFFFFFFFFFFFFFFFFFFFFFFFFFFFFFFFFFFFFFFFF AND SWAP1 POP PUSH2 0x1EA8 JUMP JUMPDEST DUP10 SWAP1 POP JUMPDEST PUSH2 0x1EB3 DUP2 DUP13 DUP12 PUSH2 0x2C79 JUMP JUMPDEST DUP1 SWAP3 POP DUP2 SWAP4 POP POP POP PUSH1 0xA PUSH1 0x0 DUP4 PUSH20 0xFFFFFFFFFFFFFFFFFFFFFFFFFFFFFFFFFFFFFFFF AND PUSH20 0xFFFFFFFFFFFFFFFFFFFFFFFFFFFFFFFFFFFFFFFF AND DUP2 MSTORE PUSH1 0x20 ADD SWAP1 DUP2 MSTORE PUSH1 0x20 ADD PUSH1 0x0 KECCAK256 PUSH1 0x0 ADD PUSH1 0x0 SWAP1 SLOAD SWAP1 PUSH2 0x100 EXP SWAP1 DIV PUSH1 0xFF AND ISZERO DUP1 PUSH2 0x2020 JUMPI POP PUSH1 0x0 PUSH20 0xFFFFFFFFFFFFFFFFFFFFFFFFFFFFFFFFFFFFFFFF AND PUSH1 0xD PUSH1 0x0 DUP6 DUP2 MSTORE PUSH1 0x20 ADD SWAP1 DUP2 MSTORE PUSH1 0x20 ADD PUSH1 0x0 KECCAK256 PUSH1 0x0 DUP5 PUSH20 0xFFFFFFFFFFFFFFFFFFFFFFFFFFFFFFFFFFFFFFFF AND PUSH20 0xFFFFFFFFFFFFFFFFFFFFFFFFFFFFFFFFFFFFFFFF AND DUP2 MSTORE PUSH1 0x20 ADD SWAP1 DUP2 MSTORE PUSH1 0x20 ADD PUSH1 0x0 KECCAK256 PUSH1 0x0 SWAP1 SLOAD SWAP1 PUSH2 0x100 EXP SWAP1 DIV PUSH20 0xFFFFFFFFFFFFFFFFFFFFFFFFFFFFFFFFFFFFFFFF AND PUSH20 0xFFFFFFFFFFFFFFFFFFFFFFFFFFFFFFFFFFFFFFFF AND EQ DUP1 ISZERO PUSH2 0x201F JUMPI POP PUSH1 0x0 ISZERO ISZERO PUSH1 0xE PUSH1 0x0 DUP6 DUP2 MSTORE PUSH1 0x20 ADD SWAP1 DUP2 MSTORE PUSH1 0x20 ADD PUSH1 0x0 KECCAK256 PUSH1 0x0 DUP5 PUSH20 0xFFFFFFFFFFFFFFFFFFFFFFFFFFFFFFFFFFFFFFFF AND PUSH20 0xFFFFFFFFFFFFFFFFFFFFFFFFFFFFFFFFFFFFFFFF AND DUP2 MSTORE PUSH1 0x20 ADD SWAP1 DUP2 MSTORE PUSH1 0x20 ADD PUSH1 0x0 KECCAK256 PUSH1 0x0 SWAP1 SLOAD SWAP1 PUSH2 0x100 EXP SWAP1 DIV PUSH1 0xFF AND ISZERO ISZERO EQ JUMPDEST JUMPDEST ISZERO PUSH2 0x22BE JUMPI PUSH1 0xA PUSH1 0x0 DUP4 PUSH20 0xFFFFFFFFFFFFFFFFFFFFFFFFFFFFFFFFFFFFFFFF AND PUSH20 0xFFFFFFFFFFFFFFFFFFFFFFFFFFFFFFFFFFFFFFFF AND DUP2 MSTORE PUSH1 0x20 ADD SWAP1 DUP2 MSTORE PUSH1 0x20 ADD PUSH1 0x0 KECCAK256 PUSH1 0x0 ADD PUSH1 0x0 SWAP1 SLOAD SWAP1 PUSH2 0x100 EXP SWAP1 DIV PUSH1 0xFF AND PUSH2 0x20B1 JUMPI PUSH1 0xB PUSH1 0x0 PUSH1 0x1 DUP2 MSTORE PUSH1 0x20 ADD SWAP1 DUP2 MSTORE PUSH1 0x20 ADD PUSH1 0x0 KECCAK256 PUSH1 0x0 SWAP1 SLOAD SWAP1 PUSH2 0x100 EXP SWAP1 DIV PUSH20 0xFFFFFFFFFFFFFFFFFFFFFFFFFFFFFFFFFFFFFFFF AND SWAP2 POP JUMPDEST PUSH1 0xB PUSH1 0x0 PUSH1 0x1 DUP2 MSTORE PUSH1 0x20 ADD SWAP1 DUP2 MSTORE PUSH1 0x20 ADD PUSH1 0x0 KECCAK256 PUSH1 0x0 SWAP1 SLOAD SWAP1 PUSH2 0x100 EXP SWAP1 DIV PUSH20 0xFFFFFFFFFFFFFFFFFFFFFFFFFFFFFFFFFFFFFFFF AND PUSH20 0xFFFFFFFFFFFFFFFFFFFFFFFFFFFFFFFFFFFFFFFF AND DUP3 PUSH20 0xFFFFFFFFFFFFFFFFFFFFFFFFFFFFFFFFFFFFFFFF AND EQ PUSH2 0x21D4 JUMPI PUSH1 0x1 PUSH1 0xA PUSH1 0x0 DUP5 PUSH20 0xFFFFFFFFFFFFFFFFFFFFFFFFFFFFFFFFFFFFFFFF AND PUSH20 0xFFFFFFFFFFFFFFFFFFFFFFFFFFFFFFFFFFFFFFFF AND DUP2 MSTORE PUSH1 0x20 ADD SWAP1 DUP2 MSTORE PUSH1 0x20 ADD PUSH1 0x0 KECCAK256 PUSH1 0x5 ADD PUSH1 0x0 DUP6 DUP2 MSTORE PUSH1 0x20 ADD SWAP1 DUP2 MSTORE PUSH1 0x20 ADD PUSH1 0x0 KECCAK256 SLOAD PUSH2 0x2178 SWAP2 SWAP1 PUSH2 0x3FEF JUMP JUMPDEST PUSH1 0xA PUSH1 0x0 DUP5 PUSH20 0xFFFFFFFFFFFFFFFFFFFFFFFFFFFFFFFFFFFFFFFF AND PUSH20 0xFFFFFFFFFFFFFFFFFFFFFFFFFFFFFFFFFFFFFFFF AND DUP2 MSTORE PUSH1 0x20 ADD SWAP1 DUP2 MSTORE PUSH1 0x20 ADD PUSH1 0x0 KECCAK256 PUSH1 0x5 ADD PUSH1 0x0 DUP6 DUP2 MSTORE PUSH1 0x20 ADD SWAP1 DUP2 MSTORE PUSH1 0x20 ADD PUSH1 0x0 KECCAK256 DUP2 SWAP1 SSTORE POP PUSH1 0x0 SWAP7 POP JUMPDEST DUP1 PUSH1 0xD PUSH1 0x0 DUP6 DUP2 MSTORE PUSH1 0x20 ADD SWAP1 DUP2 MSTORE PUSH1 0x20 ADD PUSH1 0x0 KECCAK256 PUSH1 0x0 DUP5 PUSH20 0xFFFFFFFFFFFFFFFFFFFFFFFFFFFFFFFFFFFFFFFF AND PUSH20 0xFFFFFFFFFFFFFFFFFFFFFFFFFFFFFFFFFFFFFFFF AND DUP2 MSTORE PUSH1 0x20 ADD SWAP1 DUP2 MSTORE PUSH1 0x20 ADD PUSH1 0x0 KECCAK256 PUSH1 0x0 PUSH2 0x100 EXP DUP2 SLOAD DUP2 PUSH20 0xFFFFFFFFFFFFFFFFFFFFFFFFFFFFFFFFFFFFFFFF MUL NOT AND SWAP1 DUP4 PUSH20 0xFFFFFFFFFFFFFFFFFFFFFFFFFFFFFFFFFFFFFFFF AND MUL OR SWAP1 SSTORE POP PUSH1 0x1 PUSH1 0xC PUSH1 0x0 DUP6 DUP2 MSTORE PUSH1 0x20 ADD SWAP1 DUP2 MSTORE PUSH1 0x20 ADD PUSH1 0x0 KECCAK256 PUSH1 0x0 DUP5 PUSH20 0xFFFFFFFFFFFFFFFFFFFFFFFFFFFFFFFFFFFFFFFF AND PUSH20 0xFFFFFFFFFFFFFFFFFFFFFFFFFFFFFFFFFFFFFFFF AND DUP2 MSTORE PUSH1 0x20 ADD SWAP1 DUP2 MSTORE PUSH1 0x20 ADD PUSH1 0x0 KECCAK256 DUP2 SWAP1 SSTORE POP PUSH2 0x24F9 JUMP JUMPDEST PUSH1 0x0 PUSH1 0xD PUSH1 0x0 DUP6 DUP2 MSTORE PUSH1 0x20 ADD SWAP1 DUP2 MSTORE PUSH1 0x20 ADD PUSH1 0x0 KECCAK256 PUSH1 0x0 DUP5 PUSH20 0xFFFFFFFFFFFFFFFFFFFFFFFFFFFFFFFFFFFFFFFF AND PUSH20 0xFFFFFFFFFFFFFFFFFFFFFFFFFFFFFFFFFFFFFFFF AND DUP2 MSTORE PUSH1 0x20 ADD SWAP1 DUP2 MSTORE PUSH1 0x20 ADD PUSH1 0x0 KECCAK256 PUSH1 0x0 SWAP1 SLOAD SWAP1 PUSH2 0x100 EXP SWAP1 DIV PUSH20 0xFFFFFFFFFFFFFFFFFFFFFFFFFFFFFFFFFFFFFFFF AND SWAP1 POP PUSH2 0x233E DUP4 DUP3 DUP5 PUSH2 0x3379 JUMP JUMPDEST ISZERO PUSH2 0x234C JUMPI PUSH1 0x1 SWAP9 POP PUSH2 0x24F7 JUMP JUMPDEST PUSH1 0x0 PUSH1 0xD PUSH1 0x0 DUP7 DUP2 MSTORE PUSH1 0x20 ADD SWAP1 DUP2 MSTORE PUSH1 0x20 ADD PUSH1 0x0 KECCAK256 PUSH1 0x0 DUP6 PUSH20 0xFFFFFFFFFFFFFFFFFFFFFFFFFFFFFFFFFFFFFFFF AND PUSH20 0xFFFFFFFFFFFFFFFFFFFFFFFFFFFFFFFFFFFFFFFF AND DUP2 MSTORE PUSH1 0x20 ADD SWAP1 DUP2 MSTORE PUSH1 0x20 ADD PUSH1 0x0 KECCAK256 PUSH1 0x0 PUSH2 0x100 EXP DUP2 SLOAD DUP2 PUSH20 0xFFFFFFFFFFFFFFFFFFFFFFFFFFFFFFFFFFFFFFFF MUL NOT AND SWAP1 DUP4 PUSH20 0xFFFFFFFFFFFFFFFFFFFFFFFFFFFFFFFFFFFFFFFF AND MUL OR SWAP1 SSTORE POP PUSH1 0x1 PUSH1 0xE PUSH1 0x0 DUP7 DUP2 MSTORE PUSH1 0x20 ADD SWAP1 DUP2 MSTORE PUSH1 0x20 ADD PUSH1 0x0 KECCAK256 PUSH1 0x0 DUP6 PUSH20 0xFFFFFFFFFFFFFFFFFFFFFFFFFFFFFFFFFFFFFFFF AND PUSH20 0xFFFFFFFFFFFFFFFFFFFFFFFFFFFFFFFFFFFFFFFF AND DUP2 MSTORE PUSH1 0x20 ADD SWAP1 DUP2 MSTORE PUSH1 0x20 ADD PUSH1 0x0 KECCAK256 PUSH1 0x0 PUSH2 0x100 EXP DUP2 SLOAD DUP2 PUSH1 0xFF MUL NOT AND SWAP1 DUP4 ISZERO ISZERO MUL OR SWAP1 SSTORE POP PUSH1 0x1 PUSH1 0xC PUSH1 0x0 DUP7 DUP2 MSTORE PUSH1 0x20 ADD SWAP1 DUP2 MSTORE PUSH1 0x20 ADD PUSH1 0x0 KECCAK256 PUSH1 0x0 DUP6 PUSH20 0xFFFFFFFFFFFFFFFFFFFFFFFFFFFFFFFFFFFFFFFF AND PUSH20 0xFFFFFFFFFFFFFFFFFFFFFFFFFFFFFFFFFFFFFFFF AND DUP2 MSTORE PUSH1 0x20 ADD SWAP1 DUP2 MSTORE PUSH1 0x20 ADD PUSH1 0x0 KECCAK256 SLOAD PUSH2 0x24A2 SWAP2 SWAP1 PUSH2 0x3FEF JUMP JUMPDEST PUSH1 0xC PUSH1 0x0 DUP7 DUP2 MSTORE PUSH1 0x20 ADD SWAP1 DUP2 MSTORE PUSH1 0x20 ADD PUSH1 0x0 KECCAK256 PUSH1 0x0 DUP6 PUSH20 0xFFFFFFFFFFFFFFFFFFFFFFFFFFFFFFFFFFFFFFFF AND PUSH20 0xFFFFFFFFFFFFFFFFFFFFFFFFFFFFFFFFFFFFFFFF AND DUP2 MSTORE PUSH1 0x20 ADD SWAP1 DUP2 MSTORE PUSH1 0x20 ADD PUSH1 0x0 KECCAK256 DUP2 SWAP1 SSTORE POP JUMPDEST POP JUMPDEST PUSH1 0xA PUSH1 0x0 DUP3 PUSH20 0xFFFFFFFFFFFFFFFFFFFFFFFFFFFFFFFFFFFFFFFF AND PUSH20 0xFFFFFFFFFFFFFFFFFFFFFFFFFFFFFFFFFFFFFFFF AND DUP2 MSTORE PUSH1 0x20 ADD SWAP1 DUP2 MSTORE PUSH1 0x20 ADD PUSH1 0x0 KECCAK256 PUSH1 0x6 ADD DUP4 SWAP1 DUP1 PUSH1 0x1 DUP2 SLOAD ADD DUP1 DUP3 SSTORE DUP1 SWAP2 POP POP PUSH1 0x1 SWAP1 SUB SWAP1 PUSH1 0x0 MSTORE PUSH1 0x20 PUSH1 0x0 KECCAK256 ADD PUSH1 0x0 SWAP1 SWAP2 SWAP1 SWAP2 SWAP1 SWAP2 POP SSTORE DUP2 DUP8 DUP10 SWAP6 POP SWAP6 POP SWAP6 POP POP POP POP SWAP6 POP SWAP6 POP SWAP6 SWAP3 POP POP POP JUMP JUMPDEST PUSH1 0x0 DUP1 PUSH1 0x0 PUSH1 0x1 SWAP1 POP PUSH1 0x0 DUP1 DUP8 PUSH2 0x2607 JUMPI PUSH1 0xB PUSH1 0x0 PUSH1 0xA PUSH1 0x0 DUP11 PUSH20 0xFFFFFFFFFFFFFFFFFFFFFFFFFFFFFFFFFFFFFFFF AND PUSH20 0xFFFFFFFFFFFFFFFFFFFFFFFFFFFFFFFFFFFFFFFF AND DUP2 MSTORE PUSH1 0x20 ADD SWAP1 DUP2 MSTORE PUSH1 0x20 ADD PUSH1 0x0 KECCAK256 PUSH1 0x2 ADD SLOAD DUP2 MSTORE PUSH1 0x20 ADD SWAP1 DUP2 MSTORE PUSH1 0x20 ADD PUSH1 0x0 KECCAK256 PUSH1 0x0 SWAP1 SLOAD SWAP1 PUSH2 0x100 EXP SWAP1 DIV PUSH20 0xFFFFFFFFFFFFFFFFFFFFFFFFFFFFFFFFFFFFFFFF AND SWAP2 POP PUSH2 0x260B JUMP JUMPDEST DUP7 SWAP2 POP JUMPDEST PUSH1 0x1 PUSH1 0xA PUSH1 0x0 DUP5 PUSH20 0xFFFFFFFFFFFFFFFFFFFFFFFFFFFFFFFFFFFFFFFF AND PUSH20 0xFFFFFFFFFFFFFFFFFFFFFFFFFFFFFFFFFFFFFFFF AND DUP2 MSTORE PUSH1 0x20 ADD SWAP1 DUP2 MSTORE PUSH1 0x20 ADD PUSH1 0x0 KECCAK256 PUSH1 0x5 ADD PUSH1 0x0 DUP9 DUP2 MSTORE PUSH1 0x20 ADD SWAP1 DUP2 MSTORE PUSH1 0x20 ADD PUSH1 0x0 KECCAK256 SLOAD PUSH2 0x266B SWAP2 SWAP1 PUSH2 0x3FEF JUMP JUMPDEST PUSH1 0xA PUSH1 0x0 DUP5 PUSH20 0xFFFFFFFFFFFFFFFFFFFFFFFFFFFFFFFFFFFFFFFF AND PUSH20 0xFFFFFFFFFFFFFFFFFFFFFFFFFFFFFFFFFFFFFFFF AND DUP2 MSTORE PUSH1 0x20 ADD SWAP1 DUP2 MSTORE PUSH1 0x20 ADD PUSH1 0x0 KECCAK256 PUSH1 0x5 ADD PUSH1 0x0 DUP9 DUP2 MSTORE PUSH1 0x20 ADD SWAP1 DUP2 MSTORE PUSH1 0x20 ADD PUSH1 0x0 KECCAK256 DUP2 SWAP1 SSTORE POP PUSH1 0xB PUSH1 0x0 PUSH1 0xA PUSH1 0x0 DUP6 PUSH20 0xFFFFFFFFFFFFFFFFFFFFFFFFFFFFFFFFFFFFFFFF AND PUSH20 0xFFFFFFFFFFFFFFFFFFFFFFFFFFFFFFFFFFFFFFFF AND DUP2 MSTORE PUSH1 0x20 ADD SWAP1 DUP2 MSTORE PUSH1 0x20 ADD PUSH1 0x0 KECCAK256 PUSH1 0x2 ADD SLOAD DUP2 MSTORE PUSH1 0x20 ADD SWAP1 DUP2 MSTORE PUSH1 0x20 ADD PUSH1 0x0 KECCAK256 PUSH1 0x0 SWAP1 SLOAD SWAP1 PUSH2 0x100 EXP SWAP1 DIV PUSH20 0xFFFFFFFFFFFFFFFFFFFFFFFFFFFFFFFFFFFFFFFF AND SWAP1 POP PUSH1 0xA PUSH1 0x0 DUP3 PUSH20 0xFFFFFFFFFFFFFFFFFFFFFFFFFFFFFFFFFFFFFFFF AND PUSH20 0xFFFFFFFFFFFFFFFFFFFFFFFFFFFFFFFFFFFFFFFF AND DUP2 MSTORE PUSH1 0x20 ADD SWAP1 DUP2 MSTORE PUSH1 0x20 ADD PUSH1 0x0 KECCAK256 PUSH1 0x0 ADD PUSH1 0x0 SWAP1 SLOAD SWAP1 PUSH2 0x100 EXP SWAP1 DIV PUSH1 0xFF AND PUSH2 0x27C6 JUMPI PUSH1 0xB PUSH1 0x0 PUSH1 0x1 DUP2 MSTORE PUSH1 0x20 ADD SWAP1 DUP2 MSTORE PUSH1 0x20 ADD PUSH1 0x0 KECCAK256 PUSH1 0x0 SWAP1 SLOAD SWAP1 PUSH2 0x100 EXP SWAP1 DIV PUSH20 0xFFFFFFFFFFFFFFFFFFFFFFFFFFFFFFFFFFFFFFFF AND SWAP1 POP JUMPDEST DUP1 DUP4 SWAP5 POP SWAP5 POP POP POP POP SWAP4 POP SWAP4 SWAP2 POP POP JUMP JUMPDEST PUSH1 0x0 DUP1 PUSH1 0x0 DUP1 DUP7 SWAP1 POP PUSH1 0x0 PUSH1 0x1 PUSH1 0xA PUSH1 0x0 DUP13 PUSH20 0xFFFFFFFFFFFFFFFFFFFFFFFFFFFFFFFFFFFFFFFF AND PUSH20 0xFFFFFFFFFFFFFFFFFFFFFFFFFFFFFFFFFFFFFFFF AND DUP2 MSTORE PUSH1 0x20 ADD SWAP1 DUP2 MSTORE PUSH1 0x20 ADD PUSH1 0x0 KECCAK256 PUSH1 0x5 ADD PUSH1 0x0 DUP12 DUP2 MSTORE PUSH1 0x20 ADD SWAP1 DUP2 MSTORE PUSH1 0x20 ADD PUSH1 0x0 KECCAK256 SLOAD PUSH2 0x2842 SWAP2 SWAP1 PUSH2 0x3FEF JUMP JUMPDEST SWAP1 POP PUSH1 0x2 PUSH1 0xC PUSH1 0x0 DUP12 DUP2 MSTORE PUSH1 0x20 ADD SWAP1 DUP2 MSTORE PUSH1 0x20 ADD PUSH1 0x0 KECCAK256 PUSH1 0x0 DUP13 PUSH20 0xFFFFFFFFFFFFFFFFFFFFFFFFFFFFFFFFFFFFFFFF AND PUSH20 0xFFFFFFFFFFFFFFFFFFFFFFFFFFFFFFFFFFFFFFFF AND DUP2 MSTORE PUSH1 0x20 ADD SWAP1 DUP2 MSTORE PUSH1 0x20 ADD PUSH1 0x0 KECCAK256 SLOAD EQ ISZERO PUSH2 0x28A6 JUMPI PUSH1 0x1 SWAP3 POP PUSH2 0x2C66 JUMP JUMPDEST PUSH1 0x4 DUP2 LT ISZERO DUP1 ISZERO PUSH2 0x28C3 JUMPI POP PUSH1 0x0 PUSH1 0x4 DUP3 PUSH2 0x28C1 SWAP2 SWAP1 PUSH2 0x41DA JUMP JUMPDEST EQ JUMPDEST DUP1 ISZERO PUSH2 0x2912 JUMPI POP PUSH1 0x0 PUSH1 0xA PUSH1 0x0 DUP13 PUSH20 0xFFFFFFFFFFFFFFFFFFFFFFFFFFFFFFFFFFFFFFFF AND PUSH20 0xFFFFFFFFFFFFFFFFFFFFFFFFFFFFFFFFFFFFFFFF AND DUP2 MSTORE PUSH1 0x20 ADD SWAP1 DUP2 MSTORE PUSH1 0x20 ADD PUSH1 0x0 KECCAK256 PUSH1 0x2 ADD SLOAD EQ ISZERO JUMPDEST DUP1 ISZERO PUSH2 0x291E JUMPI POP PUSH1 0x1 DUP10 EQ JUMPDEST ISZERO PUSH2 0x2945 JUMPI PUSH1 0x3 DUP9 EQ DUP1 ISZERO PUSH2 0x2933 JUMPI POP PUSH1 0x4 DUP2 EQ JUMPDEST ISZERO PUSH2 0x293C JUMPI DUP1 SWAP2 POP JUMPDEST PUSH1 0x1 SWAP3 POP PUSH2 0x2C65 JUMP JUMPDEST PUSH1 0x4 DUP2 LT ISZERO DUP1 ISZERO PUSH2 0x2962 JUMPI POP PUSH1 0x0 PUSH1 0x4 DUP3 PUSH2 0x2960 SWAP2 SWAP1 PUSH2 0x41DA JUMP JUMPDEST EQ JUMPDEST DUP1 ISZERO PUSH2 0x296E JUMPI POP PUSH1 0x2 DUP9 EQ JUMPDEST DUP1 ISZERO PUSH2 0x2978 JUMPI POP DUP6 ISZERO JUMPDEST DUP1 ISZERO PUSH2 0x2984 JUMPI POP PUSH1 0x1 DUP10 GT JUMPDEST ISZERO PUSH2 0x2A08 JUMPI PUSH1 0xB PUSH1 0x0 PUSH1 0x1 DUP2 MSTORE PUSH1 0x20 ADD SWAP1 DUP2 MSTORE PUSH1 0x20 ADD PUSH1 0x0 KECCAK256 PUSH1 0x0 SWAP1 SLOAD SWAP1 PUSH2 0x100 EXP SWAP1 DIV PUSH20 0xFFFFFFFFFFFFFFFFFFFFFFFFFFFFFFFFFFFFFFFF AND PUSH20 0xFFFFFFFFFFFFFFFFFFFFFFFFFFFFFFFFFFFFFFFF AND DUP11 PUSH20 0xFFFFFFFFFFFFFFFFFFFFFFFFFFFFFFFFFFFFFFFF AND EQ ISZERO PUSH2 0x29FA JUMPI PUSH1 0x0 SWAP3 POP PUSH2 0x2A03 JUMP JUMPDEST PUSH1 0x4 SWAP2 POP PUSH1 0x1 SWAP3 POP JUMPDEST PUSH2 0x2C64 JUMP JUMPDEST PUSH1 0x2 DUP2 EQ DUP1 ISZERO PUSH2 0x2A5B JUMPI POP PUSH1 0x0 PUSH1 0xA PUSH1 0x0 DUP13 PUSH20 0xFFFFFFFFFFFFFFFFFFFFFFFFFFFFFFFFFFFFFFFF AND PUSH20 0xFFFFFFFFFFFFFFFFFFFFFFFFFFFFFFFFFFFFFFFF AND DUP2 MSTORE PUSH1 0x20 ADD SWAP1 DUP2 MSTORE PUSH1 0x20 ADD PUSH1 0x0 KECCAK256 PUSH1 0x2 ADD SLOAD EQ ISZERO JUMPDEST DUP1 ISZERO PUSH2 0x2A65 JUMPI POP DUP7 ISZERO JUMPDEST DUP1 ISZERO PUSH2 0x2A6F JUMPI POP DUP6 ISZERO JUMPDEST ISZERO PUSH2 0x2B7E JUMPI PUSH1 0xA PUSH1 0x0 DUP12 PUSH20 0xFFFFFFFFFFFFFFFFFFFFFFFFFFFFFFFFFFFFFFFF AND PUSH20 0xFFFFFFFFFFFFFFFFFFFFFFFFFFFFFFFFFFFFFFFF AND DUP2 MSTORE PUSH1 0x20 ADD SWAP1 DUP2 MSTORE PUSH1 0x20 ADD PUSH1 0x0 KECCAK256 PUSH1 0x0 ADD PUSH1 0x0 SWAP1 SLOAD SWAP1 PUSH2 0x100 EXP SWAP1 DIV PUSH1 0xFF AND PUSH2 0x2B00 JUMPI PUSH1 0xB PUSH1 0x0 PUSH1 0x1 DUP2 MSTORE PUSH1 0x20 ADD SWAP1 DUP2 MSTORE PUSH1 0x20 ADD PUSH1 0x0 KECCAK256 PUSH1 0x0 SWAP1 SLOAD SWAP1 PUSH2 0x100 EXP SWAP1 DIV PUSH20 0xFFFFFFFFFFFFFFFFFFFFFFFFFFFFFFFFFFFFFFFF AND SWAP10 POP JUMPDEST PUSH1 0xB PUSH1 0x0 PUSH1 0x1 DUP2 MSTORE PUSH1 0x20 ADD SWAP1 DUP2 MSTORE PUSH1 0x20 ADD PUSH1 0x0 KECCAK256 PUSH1 0x0 SWAP1 SLOAD SWAP1 PUSH2 0x100 EXP SWAP1 DIV PUSH20 0xFFFFFFFFFFFFFFFFFFFFFFFFFFFFFFFFFFFFFFFF AND PUSH20 0xFFFFFFFFFFFFFFFFFFFFFFFFFFFFFFFFFFFFFFFF AND DUP11 PUSH20 0xFFFFFFFFFFFFFFFFFFFFFFFFFFFFFFFFFFFFFFFF AND EQ ISZERO PUSH2 0x2B71 JUMPI PUSH1 0x0 SWAP3 POP PUSH2 0x2B79 JUMP JUMPDEST PUSH1 0x1 SWAP3 POP DUP1 SWAP2 POP JUMPDEST PUSH2 0x2C63 JUMP JUMPDEST PUSH1 0x1 DUP2 EQ DUP1 ISZERO PUSH2 0x2BD0 JUMPI POP PUSH1 0x0 PUSH1 0xA PUSH1 0x0 DUP13 PUSH20 0xFFFFFFFFFFFFFFFFFFFFFFFFFFFFFFFFFFFFFFFF AND PUSH20 0xFFFFFFFFFFFFFFFFFFFFFFFFFFFFFFFFFFFFFFFF AND DUP2 MSTORE PUSH1 0x20 ADD SWAP1 DUP2 MSTORE PUSH1 0x20 ADD PUSH1 0x0 KECCAK256 PUSH1 0x2 ADD SLOAD EQ JUMPDEST ISZERO PUSH2 0x2C62 JUMPI PUSH1 0xA PUSH1 0x0 DUP12 PUSH20 0xFFFFFFFFFFFFFFFFFFFFFFFFFFFFFFFFFFFFFFFF AND PUSH20 0xFFFFFFFFFFFFFFFFFFFFFFFFFFFFFFFFFFFFFFFF AND DUP2 MSTORE PUSH1 0x20 ADD SWAP1 DUP2 MSTORE PUSH1 0x20 ADD PUSH1 0x0 KECCAK256 PUSH1 0x0 ADD PUSH1 0x0 SWAP1 SLOAD SWAP1 PUSH2 0x100 EXP SWAP1 DIV PUSH1 0xFF AND PUSH2 0x2C61 JUMPI PUSH1 0xB PUSH1 0x0 PUSH1 0x1 DUP2 MSTORE PUSH1 0x20 ADD SWAP1 DUP2 MSTORE PUSH1 0x20 ADD PUSH1 0x0 KECCAK256 PUSH1 0x0 SWAP1 SLOAD SWAP1 PUSH2 0x100 EXP SWAP1 DIV PUSH20 0xFFFFFFFFFFFFFFFFFFFFFFFFFFFFFFFFFFFFFFFF AND SWAP10 POP JUMPDEST JUMPDEST JUMPDEST JUMPDEST JUMPDEST JUMPDEST DUP3 DUP3 SWAP5 POP SWAP5 POP POP POP POP SWAP6 POP SWAP6 SWAP4 POP POP POP POP JUMP JUMPDEST PUSH1 0x0 DUP1 PUSH1 0x0 DUP1 DUP7 SWAP1 POP PUSH1 0x0 JUMPDEST PUSH1 0x9 DUP2 SLT ISZERO PUSH2 0x32B1 JUMPI PUSH1 0x1 PUSH1 0xA PUSH1 0x0 DUP11 PUSH20 0xFFFFFFFFFFFFFFFFFFFFFFFFFFFFFFFFFFFFFFFF AND PUSH20 0xFFFFFFFFFFFFFFFFFFFFFFFFFFFFFFFFFFFFFFFF AND DUP2 MSTORE PUSH1 0x20 ADD SWAP1 DUP2 MSTORE PUSH1 0x20 ADD PUSH1 0x0 KECCAK256 PUSH1 0x2 ADD SLOAD EQ DUP1 PUSH2 0x2D3E JUMPI POP PUSH1 0xB PUSH1 0x0 PUSH1 0x1 DUP2 MSTORE PUSH1 0x20 ADD SWAP1 DUP2 MSTORE PUSH1 0x20 ADD PUSH1 0x0 KECCAK256 PUSH1 0x0 SWAP1 SLOAD SWAP1 PUSH2 0x100 EXP SWAP1 DIV PUSH20 0xFFFFFFFFFFFFFFFFFFFFFFFFFFFFFFFFFFFFFFFF AND PUSH20 0xFFFFFFFFFFFFFFFFFFFFFFFFFFFFFFFFFFFFFFFF AND DUP4 PUSH20 0xFFFFFFFFFFFFFFFFFFFFFFFFFFFFFFFFFFFFFFFF AND EQ JUMPDEST ISZERO PUSH2 0x2D48 JUMPI PUSH2 0x32B1 JUMP JUMPDEST PUSH1 0x0 PUSH1 0x1 PUSH1 0xA PUSH1 0x0 DUP6 PUSH20 0xFFFFFFFFFFFFFFFFFFFFFFFFFFFFFFFFFFFFFFFF AND PUSH20 0xFFFFFFFFFFFFFFFFFFFFFFFFFFFFFFFFFFFFFFFF AND DUP2 MSTORE PUSH1 0x20 ADD SWAP1 DUP2 MSTORE PUSH1 0x20 ADD PUSH1 0x0 KECCAK256 PUSH1 0x6 ADD DUP1 SLOAD SWAP1 POP PUSH2 0x2D9C SWAP2 SWAP1 PUSH2 0x41A6 JUMP JUMPDEST SWAP1 POP PUSH1 0xA PUSH1 0x0 DUP5 PUSH20 0xFFFFFFFFFFFFFFFFFFFFFFFFFFFFFFFFFFFFFFFF AND PUSH20 0xFFFFFFFFFFFFFFFFFFFFFFFFFFFFFFFFFFFFFFFF AND DUP2 MSTORE PUSH1 0x20 ADD SWAP1 DUP2 MSTORE PUSH1 0x20 ADD PUSH1 0x0 KECCAK256 PUSH1 0x6 ADD DUP2 DUP2 SLOAD DUP2 LT PUSH2 0x2DF2 JUMPI PUSH2 0x2DF1 PUSH2 0x4045 JUMP JUMPDEST JUMPDEST SWAP1 PUSH1 0x0 MSTORE PUSH1 0x20 PUSH1 0x0 KECCAK256 ADD SLOAD SWAP7 POP PUSH1 0x0 PUSH1 0xB PUSH1 0x0 PUSH1 0xA PUSH1 0x0 DUP8 PUSH20 0xFFFFFFFFFFFFFFFFFFFFFFFFFFFFFFFFFFFFFFFF AND PUSH20 0xFFFFFFFFFFFFFFFFFFFFFFFFFFFFFFFFFFFFFFFF AND DUP2 MSTORE PUSH1 0x20 ADD SWAP1 DUP2 MSTORE PUSH1 0x20 ADD PUSH1 0x0 KECCAK256 PUSH1 0x2 ADD SLOAD DUP2 MSTORE PUSH1 0x20 ADD SWAP1 DUP2 MSTORE PUSH1 0x20 ADD PUSH1 0x0 KECCAK256 PUSH1 0x0 SWAP1 SLOAD SWAP1 PUSH2 0x100 EXP SWAP1 DIV PUSH20 0xFFFFFFFFFFFFFFFFFFFFFFFFFFFFFFFFFFFFFFFF AND SWAP1 POP PUSH1 0x0 PUSH1 0xB PUSH1 0x0 PUSH1 0xA PUSH1 0x0 DUP6 PUSH20 0xFFFFFFFFFFFFFFFFFFFFFFFFFFFFFFFFFFFFFFFF AND PUSH20 0xFFFFFFFFFFFFFFFFFFFFFFFFFFFFFFFFFFFFFFFF AND DUP2 MSTORE PUSH1 0x20 ADD SWAP1 DUP2 MSTORE PUSH1 0x20 ADD PUSH1 0x0 KECCAK256 PUSH1 0x2 ADD SLOAD DUP2 MSTORE PUSH1 0x20 ADD SWAP1 DUP2 MSTORE PUSH1 0x20 ADD PUSH1 0x0 KECCAK256 PUSH1 0x0 SWAP1 SLOAD SWAP1 PUSH2 0x100 EXP SWAP1 DIV PUSH20 0xFFFFFFFFFFFFFFFFFFFFFFFFFFFFFFFFFFFFFFFF AND SWAP1 POP PUSH1 0x0 PUSH1 0x1 SWAP1 POP JUMPDEST DUP11 DUP2 LT ISZERO PUSH2 0x2FFA JUMPI PUSH1 0xB PUSH1 0x0 PUSH1 0x1 DUP2 MSTORE PUSH1 0x20 ADD SWAP1 DUP2 MSTORE PUSH1 0x20 ADD PUSH1 0x0 KECCAK256 PUSH1 0x0 SWAP1 SLOAD SWAP1 PUSH2 0x100 EXP SWAP1 DIV PUSH20 0xFFFFFFFFFFFFFFFFFFFFFFFFFFFFFFFFFFFFFFFF AND PUSH20 0xFFFFFFFFFFFFFFFFFFFFFFFFFFFFFFFFFFFFFFFF AND DUP3 PUSH20 0xFFFFFFFFFFFFFFFFFFFFFFFFFFFFFFFFFFFFFFFF AND EQ ISZERO PUSH2 0x2F6F JUMPI PUSH2 0x2FFA JUMP JUMPDEST PUSH1 0xB PUSH1 0x0 PUSH1 0xA PUSH1 0x0 DUP6 PUSH20 0xFFFFFFFFFFFFFFFFFFFFFFFFFFFFFFFFFFFFFFFF AND PUSH20 0xFFFFFFFFFFFFFFFFFFFFFFFFFFFFFFFFFFFFFFFF AND DUP2 MSTORE PUSH1 0x20 ADD SWAP1 DUP2 MSTORE PUSH1 0x20 ADD PUSH1 0x0 KECCAK256 PUSH1 0x2 ADD SLOAD DUP2 MSTORE PUSH1 0x20 ADD SWAP1 DUP2 MSTORE PUSH1 0x20 ADD PUSH1 0x0 KECCAK256 PUSH1 0x0 SWAP1 SLOAD SWAP1 PUSH2 0x100 EXP SWAP1 DIV PUSH20 0xFFFFFFFFFFFFFFFFFFFFFFFFFFFFFFFFFFFFFFFF AND SWAP2 POP DUP1 DUP1 PUSH2 0x2FF2 SWAP1 PUSH2 0x3FA6 JUMP JUMPDEST SWAP2 POP POP PUSH2 0x2EFA JUMP JUMPDEST POP PUSH1 0x1 DUP11 PUSH2 0x3008 SWAP2 SWAP1 PUSH2 0x3FEF JUMP JUMPDEST DUP10 LT ISZERO PUSH2 0x3290 JUMPI PUSH1 0xA PUSH1 0x0 DUP3 PUSH20 0xFFFFFFFFFFFFFFFFFFFFFFFFFFFFFFFFFFFFFFFF AND PUSH20 0xFFFFFFFFFFFFFFFFFFFFFFFFFFFFFFFFFFFFFFFF AND DUP2 MSTORE PUSH1 0x20 ADD SWAP1 DUP2 MSTORE PUSH1 0x20 ADD PUSH1 0x0 KECCAK256 PUSH1 0x0 ADD PUSH1 0x0 SWAP1 SLOAD SWAP1 PUSH2 0x100 EXP SWAP1 DIV PUSH1 0xFF AND ISZERO DUP1 PUSH2 0x30AD JUMPI POP PUSH1 0x0 PUSH1 0xA PUSH1 0x0 DUP5 PUSH20 0xFFFFFFFFFFFFFFFFFFFFFFFFFFFFFFFFFFFFFFFF AND PUSH20 0xFFFFFFFFFFFFFFFFFFFFFFFFFFFFFFFFFFFFFFFF AND DUP2 MSTORE PUSH1 0x20 ADD SWAP1 DUP2 MSTORE PUSH1 0x20 ADD PUSH1 0x0 KECCAK256 PUSH1 0x2 ADD SLOAD EQ JUMPDEST DUP1 PUSH2 0x30FA JUMPI POP PUSH1 0x1 PUSH1 0xA PUSH1 0x0 DUP5 PUSH20 0xFFFFFFFFFFFFFFFFFFFFFFFFFFFFFFFFFFFFFFFF AND PUSH20 0xFFFFFFFFFFFFFFFFFFFFFFFFFFFFFFFFFFFFFFFF AND DUP2 MSTORE PUSH1 0x20 ADD SWAP1 DUP2 MSTORE PUSH1 0x20 ADD PUSH1 0x0 KECCAK256 PUSH1 0x2 ADD SLOAD EQ JUMPDEST ISZERO PUSH2 0x3285 JUMPI PUSH1 0xA PUSH1 0x0 PUSH1 0xB PUSH1 0x0 PUSH1 0xA PUSH1 0x0 DUP8 PUSH20 0xFFFFFFFFFFFFFFFFFFFFFFFFFFFFFFFFFFFFFFFF AND PUSH20 0xFFFFFFFFFFFFFFFFFFFFFFFFFFFFFFFFFFFFFFFF AND DUP2 MSTORE PUSH1 0x20 ADD SWAP1 DUP2 MSTORE PUSH1 0x20 ADD PUSH1 0x0 KECCAK256 PUSH1 0x2 ADD SLOAD DUP2 MSTORE PUSH1 0x20 ADD SWAP1 DUP2 MSTORE PUSH1 0x20 ADD PUSH1 0x0 KECCAK256 PUSH1 0x0 SWAP1 SLOAD SWAP1 PUSH2 0x100 EXP SWAP1 DIV PUSH20 0xFFFFFFFFFFFFFFFFFFFFFFFFFFFFFFFFFFFFFFFF AND PUSH20 0xFFFFFFFFFFFFFFFFFFFFFFFFFFFFFFFFFFFFFFFF AND PUSH20 0xFFFFFFFFFFFFFFFFFFFFFFFFFFFFFFFFFFFFFFFF AND DUP2 MSTORE PUSH1 0x20 ADD SWAP1 DUP2 MSTORE PUSH1 0x20 ADD PUSH1 0x0 KECCAK256 PUSH1 0x0 ADD PUSH1 0x0 SWAP1 SLOAD SWAP1 PUSH2 0x100 EXP SWAP1 DIV PUSH1 0xFF AND PUSH2 0x3204 JUMPI PUSH1 0xB PUSH1 0x0 PUSH1 0x1 DUP2 MSTORE PUSH1 0x20 ADD SWAP1 DUP2 MSTORE PUSH1 0x20 ADD PUSH1 0x0 KECCAK256 PUSH1 0x0 SWAP1 SLOAD SWAP1 PUSH2 0x100 EXP SWAP1 DIV PUSH20 0xFFFFFFFFFFFFFFFFFFFFFFFFFFFFFFFFFFFFFFFF AND SWAP6 POP PUSH2 0x327D JUMP JUMPDEST PUSH1 0xB PUSH1 0x0 PUSH1 0xA PUSH1 0x0 DUP6 PUSH20 0xFFFFFFFFFFFFFFFFFFFFFFFFFFFFFFFFFFFFFFFF AND PUSH20 0xFFFFFFFFFFFFFFFFFFFFFFFFFFFFFFFFFFFFFFFF AND DUP2 MSTORE PUSH1 0x20 ADD SWAP1 DUP2 MSTORE PUSH1 0x20 ADD PUSH1 0x0 KECCAK256 PUSH1 0x2 ADD SLOAD DUP2 MSTORE PUSH1 0x20 ADD SWAP1 DUP2 MSTORE PUSH1 0x20 ADD PUSH1 0x0 KECCAK256 PUSH1 0x0 SWAP1 SLOAD SWAP1 PUSH2 0x100 EXP SWAP1 DIV PUSH20 0xFFFFFFFFFFFFFFFFFFFFFFFFFFFFFFFFFFFFFFFF AND SWAP6 POP JUMPDEST POP POP POP PUSH2 0x32B1 JUMP JUMPDEST DUP1 SWAP5 POP DUP1 SWAP6 POP PUSH2 0x329B JUMP JUMPDEST DUP5 SWAP6 POP POP POP POP PUSH2 0x32B1 JUMP JUMPDEST POP POP POP DUP1 DUP1 PUSH2 0x32A9 SWAP1 PUSH2 0x423E JUMP JUMPDEST SWAP2 POP POP PUSH2 0x2C85 JUMP JUMPDEST POP PUSH1 0x1 PUSH1 0xA PUSH1 0x0 DUP10 PUSH20 0xFFFFFFFFFFFFFFFFFFFFFFFFFFFFFFFFFFFFFFFF AND PUSH20 0xFFFFFFFFFFFFFFFFFFFFFFFFFFFFFFFFFFFFFFFF AND DUP2 MSTORE PUSH1 0x20 ADD SWAP1 DUP2 MSTORE PUSH1 0x20 ADD PUSH1 0x0 KECCAK256 PUSH1 0x5 ADD PUSH1 0x0 DUP9 DUP2 MSTORE PUSH1 0x20 ADD SWAP1 DUP2 MSTORE PUSH1 0x20 ADD PUSH1 0x0 KECCAK256 SLOAD PUSH2 0x3312 SWAP2 SWAP1 PUSH2 0x3FEF JUMP JUMPDEST PUSH1 0xA PUSH1 0x0 DUP10 PUSH20 0xFFFFFFFFFFFFFFFFFFFFFFFFFFFFFFFFFFFFFFFF AND PUSH20 0xFFFFFFFFFFFFFFFFFFFFFFFFFFFFFFFFFFFFFFFF AND DUP2 MSTORE PUSH1 0x20 ADD SWAP1 DUP2 MSTORE PUSH1 0x20 ADD PUSH1 0x0 KECCAK256 PUSH1 0x5 ADD PUSH1 0x0 DUP9 DUP2 MSTORE PUSH1 0x20 ADD SWAP1 DUP2 MSTORE PUSH1 0x20 ADD PUSH1 0x0 KECCAK256 DUP2 SWAP1 SSTORE POP DUP2 DUP8 SWAP4 POP SWAP4 POP POP POP SWAP4 POP SWAP4 SWAP2 POP POP JUMP JUMPDEST PUSH1 0x0 DUP1 PUSH1 0x0 SWAP1 POP PUSH1 0x0 PUSH2 0x338B DUP7 PUSH2 0x683 JUMP JUMPDEST SWAP1 POP PUSH1 0x0 DUP6 SWAP1 POP PUSH1 0x0 DUP6 SWAP1 POP PUSH1 0x0 PUSH1 0xB PUSH1 0x0 PUSH1 0xA PUSH1 0x0 DUP7 PUSH20 0xFFFFFFFFFFFFFFFFFFFFFFFFFFFFFFFFFFFFFFFF AND PUSH20 0xFFFFFFFFFFFFFFFFFFFFFFFFFFFFFFFFFFFFFFFF AND DUP2 MSTORE PUSH1 0x20 ADD SWAP1 DUP2 MSTORE PUSH1 0x20 ADD PUSH1 0x0 KECCAK256 PUSH1 0x2 ADD SLOAD DUP2 MSTORE PUSH1 0x20 ADD SWAP1 DUP2 MSTORE PUSH1 0x20 ADD PUSH1 0x0 KECCAK256 PUSH1 0x0 SWAP1 SLOAD SWAP1 PUSH2 0x100 EXP SWAP1 DIV PUSH20 0xFFFFFFFFFFFFFFFFFFFFFFFFFFFFFFFFFFFFFFFF AND SWAP1 POP PUSH1 0x0 JUMPDEST PUSH1 0xC DUP2 SLT ISZERO PUSH2 0x354A JUMPI PUSH1 0x0 DUP1 JUMPDEST DUP7 MLOAD DUP2 LT ISZERO PUSH2 0x34B1 JUMPI DUP7 DUP2 DUP2 MLOAD DUP2 LT PUSH2 0x343D JUMPI PUSH2 0x343C PUSH2 0x4045 JUMP JUMPDEST JUMPDEST PUSH1 0x20 MUL PUSH1 0x20 ADD ADD MLOAD PUSH20 0xFFFFFFFFFFFFFFFFFFFFFFFFFFFFFFFFFFFFFFFF AND DUP5 PUSH20 0xFFFFFFFFFFFFFFFFFFFFFFFFFFFFFFFFFFFFFFFF AND EQ ISZERO PUSH2 0x349E JUMPI DUP7 DUP2 DUP2 MLOAD DUP2 LT PUSH2 0x348B JUMPI PUSH2 0x348A PUSH2 0x4045 JUMP JUMPDEST JUMPDEST PUSH1 0x20 MUL PUSH1 0x20 ADD ADD MLOAD SWAP6 POP PUSH1 0x1 SWAP2 POP PUSH2 0x34B1 JUMP JUMPDEST DUP1 DUP1 PUSH2 0x34A9 SWAP1 PUSH2 0x3FA6 JUMP JUMPDEST SWAP2 POP POP PUSH2 0x3421 JUMP JUMPDEST POP DUP1 ISZERO PUSH2 0x34BE JUMPI POP PUSH2 0x354A JUMP JUMPDEST PUSH1 0xB PUSH1 0x0 PUSH1 0xA PUSH1 0x0 DUP7 PUSH20 0xFFFFFFFFFFFFFFFFFFFFFFFFFFFFFFFFFFFFFFFF AND PUSH20 0xFFFFFFFFFFFFFFFFFFFFFFFFFFFFFFFFFFFFFFFF AND DUP2 MSTORE PUSH1 0x20 ADD SWAP1 DUP2 MSTORE PUSH1 0x20 ADD PUSH1 0x0 KECCAK256 PUSH1 0x2 ADD SLOAD DUP2 MSTORE PUSH1 0x20 ADD SWAP1 DUP2 MSTORE PUSH1 0x20 ADD PUSH1 0x0 KECCAK256 PUSH1 0x0 SWAP1 SLOAD SWAP1 PUSH2 0x100 EXP SWAP1 DIV PUSH20 0xFFFFFFFFFFFFFFFFFFFFFFFFFFFFFFFFFFFFFFFF AND SWAP3 POP POP DUP1 DUP1 PUSH2 0x3542 SWAP1 PUSH2 0x423E JUMP JUMPDEST SWAP2 POP POP PUSH2 0x3414 JUMP JUMPDEST POP PUSH1 0x0 PUSH1 0xB PUSH1 0x0 PUSH1 0xA PUSH1 0x0 DUP7 PUSH20 0xFFFFFFFFFFFFFFFFFFFFFFFFFFFFFFFFFFFFFFFF AND PUSH20 0xFFFFFFFFFFFFFFFFFFFFFFFFFFFFFFFFFFFFFFFF AND DUP2 MSTORE PUSH1 0x20 ADD SWAP1 DUP2 MSTORE PUSH1 0x20 ADD PUSH1 0x0 KECCAK256 PUSH1 0x2 ADD SLOAD DUP2 MSTORE PUSH1 0x20 ADD SWAP1 DUP2 MSTORE PUSH1 0x20 ADD PUSH1 0x0 KECCAK256 PUSH1 0x0 SWAP1 SLOAD SWAP1 PUSH2 0x100 EXP SWAP1 DIV PUSH20 0xFFFFFFFFFFFFFFFFFFFFFFFFFFFFFFFFFFFFFFFF AND SWAP1 POP PUSH1 0x0 JUMPDEST PUSH1 0xC DUP2 SLT ISZERO PUSH2 0x36FE JUMPI PUSH1 0x0 DUP1 JUMPDEST DUP8 MLOAD DUP2 LT ISZERO PUSH2 0x3665 JUMPI DUP8 DUP2 DUP2 MLOAD DUP2 LT PUSH2 0x35F1 JUMPI PUSH2 0x35F0 PUSH2 0x4045 JUMP JUMPDEST JUMPDEST PUSH1 0x20 MUL PUSH1 0x20 ADD ADD MLOAD PUSH20 0xFFFFFFFFFFFFFFFFFFFFFFFFFFFFFFFFFFFFFFFF AND DUP5 PUSH20 0xFFFFFFFFFFFFFFFFFFFFFFFFFFFFFFFFFFFFFFFF AND EQ ISZERO PUSH2 0x3652 JUMPI DUP8 DUP2 DUP2 MLOAD DUP2 LT PUSH2 0x363F JUMPI PUSH2 0x363E PUSH2 0x4045 JUMP JUMPDEST JUMPDEST PUSH1 0x20 MUL PUSH1 0x20 ADD ADD MLOAD SWAP6 POP PUSH1 0x1 SWAP2 POP PUSH2 0x3665 JUMP JUMPDEST DUP1 DUP1 PUSH2 0x365D SWAP1 PUSH2 0x3FA6 JUMP JUMPDEST SWAP2 POP POP PUSH2 0x35D5 JUMP JUMPDEST POP DUP1 ISZERO PUSH2 0x3672 JUMPI POP PUSH2 0x36FE JUMP JUMPDEST PUSH1 0xB PUSH1 0x0 PUSH1 0xA PUSH1 0x0 DUP7 PUSH20 0xFFFFFFFFFFFFFFFFFFFFFFFFFFFFFFFFFFFFFFFF AND PUSH20 0xFFFFFFFFFFFFFFFFFFFFFFFFFFFFFFFFFFFFFFFF AND DUP2 MSTORE PUSH1 0x20 ADD SWAP1 DUP2 MSTORE PUSH1 0x20 ADD PUSH1 0x0 KECCAK256 PUSH1 0x2 ADD SLOAD DUP2 MSTORE PUSH1 0x20 ADD SWAP1 DUP2 MSTORE PUSH1 0x20 ADD PUSH1 0x0 KECCAK256 PUSH1 0x0 SWAP1 SLOAD SWAP1 PUSH2 0x100 EXP SWAP1 DIV PUSH20 0xFFFFFFFFFFFFFFFFFFFFFFFFFFFFFFFFFFFFFFFF AND SWAP3 POP POP DUP1 DUP1 PUSH2 0x36F6 SWAP1 PUSH2 0x423E JUMP JUMPDEST SWAP2 POP POP PUSH2 0x35C8 JUMP JUMPDEST POP DUP3 PUSH20 0xFFFFFFFFFFFFFFFFFFFFFFFFFFFFFFFFFFFFFFFF AND DUP5 PUSH20 0xFFFFFFFFFFFFFFFFFFFFFFFFFFFFFFFFFFFFFFFF AND EQ ISZERO PUSH2 0x3738 JUMPI PUSH1 0x1 SWAP6 POP JUMPDEST DUP6 SWAP7 POP POP POP POP POP POP POP SWAP4 SWAP3 POP POP POP JUMP JUMPDEST DUP3 DUP1 SLOAD DUP3 DUP3 SSTORE SWAP1 PUSH1 0x0 MSTORE PUSH1 0x20 PUSH1 0x0 KECCAK256 SWAP1 DUP2 ADD SWAP3 DUP3 ISZERO PUSH2 0x37C1 JUMPI SWAP2 PUSH1 0x20 MUL DUP3 ADD JUMPDEST DUP3 DUP2 GT ISZERO PUSH2 0x37C0 JUMPI DUP3 MLOAD DUP3 PUSH1 0x0 PUSH2 0x100 EXP DUP2 SLOAD DUP2 PUSH20 0xFFFFFFFFFFFFFFFFFFFFFFFFFFFFFFFFFFFFFFFF MUL NOT AND SWAP1 DUP4 PUSH20 0xFFFFFFFFFFFFFFFFFFFFFFFFFFFFFFFFFFFFFFFF AND MUL OR SWAP1 SSTORE POP SWAP2 PUSH1 0x20 ADD SWAP2 SWAP1 PUSH1 0x1 ADD SWAP1 PUSH2 0x3768 JUMP JUMPDEST JUMPDEST POP SWAP1 POP PUSH2 0x37CE SWAP2 SWAP1 PUSH2 0x381F JUMP JUMPDEST POP SWAP1 JUMP JUMPDEST DUP3 DUP1 SLOAD DUP3 DUP3 SSTORE SWAP1 PUSH1 0x0 MSTORE PUSH1 0x20 PUSH1 0x0 KECCAK256 SWAP1 DUP2 ADD SWAP3 DUP3 ISZERO PUSH2 0x380E JUMPI SWAP2 PUSH1 0x20 MUL DUP3 ADD JUMPDEST DUP3 DUP2 GT ISZERO PUSH2 0x380D JUMPI DUP3 MLOAD DUP3 SSTORE SWAP2 PUSH1 0x20 ADD SWAP2 SWAP1 PUSH1 0x1 ADD SWAP1 PUSH2 0x37F2 JUMP JUMPDEST JUMPDEST POP SWAP1 POP PUSH2 0x381B SWAP2 SWAP1 PUSH2 0x381F JUMP JUMPDEST POP SWAP1 JUMP JUMPDEST JUMPDEST DUP1 DUP3 GT ISZERO PUSH2 0x3838 JUMPI PUSH1 0x0 DUP2 PUSH1 0x0 SWAP1 SSTORE POP PUSH1 0x1 ADD PUSH2 0x3820 JUMP JUMPDEST POP SWAP1 JUMP JUMPDEST PUSH1 0x0 DUP1 REVERT JUMPDEST PUSH1 0x0 DUP2 SWAP1 POP SWAP2 SWAP1 POP JUMP JUMPDEST PUSH2 0x3854 DUP2 PUSH2 0x3841 JUMP JUMPDEST DUP2 EQ PUSH2 0x385F JUMPI PUSH1 0x0 DUP1 REVERT JUMPDEST POP JUMP JUMPDEST PUSH1 0x0 DUP2 CALLDATALOAD SWAP1 POP PUSH2 0x3871 DUP2 PUSH2 0x384B JUMP JUMPDEST SWAP3 SWAP2 POP POP JUMP JUMPDEST PUSH1 0x0 PUSH1 0x20 DUP3 DUP5 SUB SLT ISZERO PUSH2 0x388D JUMPI PUSH2 0x388C PUSH2 0x383C JUMP JUMPDEST JUMPDEST PUSH1 0x0 PUSH2 0x389B DUP5 DUP3 DUP6 ADD PUSH2 0x3862 JUMP JUMPDEST SWAP2 POP POP SWAP3 SWAP2 POP POP JUMP JUMPDEST PUSH1 0x0 PUSH20 0xFFFFFFFFFFFFFFFFFFFFFFFFFFFFFFFFFFFFFFFF DUP3 AND SWAP1 POP SWAP2 SWAP1 POP JUMP JUMPDEST PUSH1 0x0 PUSH2 0x38CF DUP3 PUSH2 0x38A4 JUMP JUMPDEST SWAP1 POP SWAP2 SWAP1 POP JUMP JUMPDEST PUSH2 0x38DF DUP2 PUSH2 0x38C4 JUMP JUMPDEST DUP3 MSTORE POP POP JUMP JUMPDEST PUSH1 0x0 PUSH1 0x20 DUP3 ADD SWAP1 POP PUSH2 0x38FA PUSH1 0x0 DUP4 ADD DUP5 PUSH2 0x38D6 JUMP JUMPDEST SWAP3 SWAP2 POP POP JUMP JUMPDEST PUSH2 0x3909 DUP2 PUSH2 0x38C4 JUMP JUMPDEST DUP2 EQ PUSH2 0x3914 JUMPI PUSH1 0x0 DUP1 REVERT JUMPDEST POP JUMP JUMPDEST PUSH1 0x0 DUP2 CALLDATALOAD SWAP1 POP PUSH2 0x3926 DUP2 PUSH2 0x3900 JUMP JUMPDEST SWAP3 SWAP2 POP POP JUMP JUMPDEST PUSH1 0x0 DUP1 PUSH1 0x40 DUP4 DUP6 SUB SLT ISZERO PUSH2 0x3943 JUMPI PUSH2 0x3942 PUSH2 0x383C JUMP JUMPDEST JUMPDEST PUSH1 0x0 PUSH2 0x3951 DUP6 DUP3 DUP7 ADD PUSH2 0x3862 JUMP JUMPDEST SWAP3 POP POP PUSH1 0x20 PUSH2 0x3962 DUP6 DUP3 DUP7 ADD PUSH2 0x3917 JUMP JUMPDEST SWAP2 POP POP SWAP3 POP SWAP3 SWAP1 POP JUMP JUMPDEST PUSH1 0x0 DUP2 ISZERO ISZERO SWAP1 POP SWAP2 SWAP1 POP JUMP JUMPDEST PUSH2 0x3981 DUP2 PUSH2 0x396C JUMP JUMPDEST DUP3 MSTORE POP POP JUMP JUMPDEST PUSH1 0x0 PUSH1 0x20 DUP3 ADD SWAP1 POP PUSH2 0x399C PUSH1 0x0 DUP4 ADD DUP5 PUSH2 0x3978 JUMP JUMPDEST SWAP3 SWAP2 POP POP JUMP JUMPDEST PUSH1 0x0 PUSH1 0x20 DUP3 DUP5 SUB SLT ISZERO PUSH2 0x39B8 JUMPI PUSH2 0x39B7 PUSH2 0x383C JUMP JUMPDEST JUMPDEST PUSH1 0x0 PUSH2 0x39C6 DUP5 DUP3 DUP6 ADD PUSH2 0x3917 JUMP JUMPDEST SWAP2 POP POP SWAP3 SWAP2 POP POP JUMP JUMPDEST PUSH1 0x0 DUP2 MLOAD SWAP1 POP SWAP2 SWAP1 POP JUMP JUMPDEST PUSH1 0x0 DUP3 DUP3 MSTORE PUSH1 0x20 DUP3 ADD SWAP1 POP SWAP3 SWAP2 POP POP JUMP JUMPDEST PUSH1 0x0 DUP2 SWAP1 POP PUSH1 0x20 DUP3 ADD SWAP1 POP SWAP2 SWAP1 POP JUMP JUMPDEST PUSH2 0x3A04 DUP2 PUSH2 0x38C4 JUMP JUMPDEST DUP3 MSTORE POP POP JUMP JUMPDEST PUSH1 0x0 PUSH2 0x3A16 DUP4 DUP4 PUSH2 0x39FB JUMP JUMPDEST PUSH1 0x20 DUP4 ADD SWAP1 POP SWAP3 SWAP2 POP POP JUMP JUMPDEST PUSH1 0x0 PUSH1 0x20 DUP3 ADD SWAP1 POP SWAP2 SWAP1 POP JUMP JUMPDEST PUSH1 0x0 PUSH2 0x3A3A DUP3 PUSH2 0x39CF JUMP JUMPDEST PUSH2 0x3A44 DUP2 DUP6 PUSH2 0x39DA JUMP JUMPDEST SWAP4 POP PUSH2 0x3A4F DUP4 PUSH2 0x39EB JUMP JUMPDEST DUP1 PUSH1 0x0 JUMPDEST DUP4 DUP2 LT ISZERO PUSH2 0x3A80 JUMPI DUP2 MLOAD PUSH2 0x3A67 DUP9 DUP3 PUSH2 0x3A0A JUMP JUMPDEST SWAP8 POP PUSH2 0x3A72 DUP4 PUSH2 0x3A22 JUMP JUMPDEST SWAP3 POP POP PUSH1 0x1 DUP2 ADD SWAP1 POP PUSH2 0x3A53 JUMP JUMPDEST POP DUP6 SWAP4 POP POP POP POP SWAP3 SWAP2 POP POP JUMP JUMPDEST PUSH1 0x0 PUSH1 0x20 DUP3 ADD SWAP1 POP DUP2 DUP2 SUB PUSH1 0x0 DUP4 ADD MSTORE PUSH2 0x3AA7 DUP2 DUP5 PUSH2 0x3A2F JUMP JUMPDEST SWAP1 POP SWAP3 SWAP2 POP POP JUMP JUMPDEST PUSH1 0x0 PUSH1 0xFF DUP3 AND SWAP1 POP SWAP2 SWAP1 POP JUMP JUMPDEST PUSH2 0x3AC5 DUP2 PUSH2 0x3AAF JUMP JUMPDEST DUP3 MSTORE POP POP JUMP JUMPDEST PUSH1 0x0 PUSH1 0x20 DUP3 ADD SWAP1 POP PUSH2 0x3AE0 PUSH1 0x0 DUP4 ADD DUP5 PUSH2 0x3ABC JUMP JUMPDEST SWAP3 SWAP2 POP POP JUMP JUMPDEST PUSH1 0x0 DUP2 MLOAD SWAP1 POP SWAP2 SWAP1 POP JUMP JUMPDEST PUSH1 0x0 DUP3 DUP3 MSTORE PUSH1 0x20 DUP3 ADD SWAP1 POP SWAP3 SWAP2 POP POP JUMP JUMPDEST PUSH1 0x0 DUP2 SWAP1 POP PUSH1 0x20 DUP3 ADD SWAP1 POP SWAP2 SWAP1 POP JUMP JUMPDEST PUSH2 0x3B1B DUP2 PUSH2 0x3841 JUMP JUMPDEST DUP3 MSTORE POP POP JUMP JUMPDEST PUSH1 0x0 PUSH2 0x3B2D DUP4 DUP4 PUSH2 0x3B12 JUMP JUMPDEST PUSH1 0x20 DUP4 ADD SWAP1 POP SWAP3 SWAP2 POP POP JUMP JUMPDEST PUSH1 0x0 PUSH1 0x20 DUP3 ADD SWAP1 POP SWAP2 SWAP1 POP JUMP JUMPDEST PUSH1 0x0 PUSH2 0x3B51 DUP3 PUSH2 0x3AE6 JUMP JUMPDEST PUSH2 0x3B5B DUP2 DUP6 PUSH2 0x3AF1 JUMP JUMPDEST SWAP4 POP PUSH2 0x3B66 DUP4 PUSH2 0x3B02 JUMP JUMPDEST DUP1 PUSH1 0x0 JUMPDEST DUP4 DUP2 LT ISZERO PUSH2 0x3B97 JUMPI DUP2 MLOAD PUSH2 0x3B7E DUP9 DUP3 PUSH2 0x3B21 JUMP JUMPDEST SWAP8 POP PUSH2 0x3B89 DUP4 PUSH2 0x3B39 JUMP JUMPDEST SWAP3 POP POP PUSH1 0x1 DUP2 ADD SWAP1 POP PUSH2 0x3B6A JUMP JUMPDEST POP DUP6 SWAP4 POP POP POP POP SWAP3 SWAP2 POP POP JUMP JUMPDEST PUSH1 0x0 PUSH1 0x20 DUP3 ADD SWAP1 POP DUP2 DUP2 SUB PUSH1 0x0 DUP4 ADD MSTORE PUSH2 0x3BBE DUP2 DUP5 PUSH2 0x3B46 JUMP JUMPDEST SWAP1 POP SWAP3 SWAP2 POP POP JUMP JUMPDEST PUSH2 0x3BCF DUP2 PUSH2 0x3841 JUMP JUMPDEST DUP3 MSTORE POP POP JUMP JUMPDEST PUSH1 0x0 PUSH1 0x20 DUP3 ADD SWAP1 POP PUSH2 0x3BEA PUSH1 0x0 DUP4 ADD DUP5 PUSH2 0x3BC6 JUMP JUMPDEST SWAP3 SWAP2 POP POP JUMP JUMPDEST PUSH1 0x0 PUSH1 0x80 DUP3 ADD SWAP1 POP PUSH2 0x3C05 PUSH1 0x0 DUP4 ADD DUP8 PUSH2 0x3978 JUMP JUMPDEST PUSH2 0x3C12 PUSH1 0x20 DUP4 ADD DUP7 PUSH2 0x3BC6 JUMP JUMPDEST PUSH2 0x3C1F PUSH1 0x40 DUP4 ADD DUP6 PUSH2 0x3BC6 JUMP JUMPDEST PUSH2 0x3C2C PUSH1 0x60 DUP4 ADD DUP5 PUSH2 0x3BC6 JUMP JUMPDEST SWAP6 SWAP5 POP POP POP POP POP JUMP JUMPDEST PUSH1 0x0 DUP1 PUSH1 0x40 DUP4 DUP6 SUB SLT ISZERO PUSH2 0x3C4C JUMPI PUSH2 0x3C4B PUSH2 0x383C JUMP JUMPDEST JUMPDEST PUSH1 0x0 PUSH2 0x3C5A DUP6 DUP3 DUP7 ADD PUSH2 0x3917 JUMP JUMPDEST SWAP3 POP POP PUSH1 0x20 PUSH2 0x3C6B DUP6 DUP3 DUP7 ADD PUSH2 0x3862 JUMP JUMPDEST SWAP2 POP POP SWAP3 POP SWAP3 SWAP1 POP JUMP JUMPDEST PUSH1 0x0 DUP3 DUP3 MSTORE PUSH1 0x20 DUP3 ADD SWAP1 POP SWAP3 SWAP2 POP POP JUMP JUMPDEST PUSH32 0x496E76616C69642063616C6C6572000000000000000000000000000000000000 PUSH1 0x0 DUP3 ADD MSTORE POP JUMP JUMPDEST PUSH1 0x0 PUSH2 0x3CBC PUSH1 0xE DUP4 PUSH2 0x3C75 JUMP JUMPDEST SWAP2 POP PUSH2 0x3CC7 DUP3 PUSH2 0x3C86 JUMP JUMPDEST PUSH1 0x20 DUP3 ADD SWAP1 POP SWAP2 SWAP1 POP JUMP JUMPDEST PUSH1 0x0 PUSH1 0x20 DUP3 ADD SWAP1 POP DUP2 DUP2 SUB PUSH1 0x0 DUP4 ADD MSTORE PUSH2 0x3CEB DUP2 PUSH2 0x3CAF JUMP JUMPDEST SWAP1 POP SWAP2 SWAP1 POP JUMP JUMPDEST PUSH1 0x0 DUP2 SWAP1 POP SWAP3 SWAP2 POP POP JUMP JUMPDEST POP JUMP JUMPDEST PUSH1 0x0 PUSH2 0x3D0D PUSH1 0x0 DUP4 PUSH2 0x3CF2 JUMP JUMPDEST SWAP2 POP PUSH2 0x3D18 DUP3 PUSH2 0x3CFD JUMP JUMPDEST PUSH1 0x0 DUP3 ADD SWAP1 POP SWAP2 SWAP1 POP JUMP JUMPDEST PUSH1 0x0 PUSH2 0x3D2E DUP3 PUSH2 0x3D00 JUMP JUMPDEST SWAP2 POP DUP2 SWAP1 POP SWAP2 SWAP1 POP JUMP JUMPDEST PUSH32 0x5472616E73616374696F6E206661696C65642100000000000000000000000000 PUSH1 0x0 DUP3 ADD MSTORE POP JUMP JUMPDEST PUSH1 0x0 PUSH2 0x3D6E PUSH1 0x13 DUP4 PUSH2 0x3C75 JUMP JUMPDEST SWAP2 POP PUSH2 0x3D79 DUP3 PUSH2 0x3D38 JUMP JUMPDEST PUSH1 0x20 DUP3 ADD SWAP1 POP SWAP2 SWAP1 POP JUMP JUMPDEST PUSH1 0x0 PUSH1 0x20 DUP3 ADD SWAP1 POP DUP2 DUP2 SUB PUSH1 0x0 DUP4 ADD MSTORE PUSH2 0x3D9D DUP2 PUSH2 0x3D61 JUMP JUMPDEST SWAP1 POP SWAP2 SWAP1 POP JUMP JUMPDEST PUSH32 0x4E487B7100000000000000000000000000000000000000000000000000000000 PUSH1 0x0 MSTORE PUSH1 0x12 PUSH1 0x4 MSTORE PUSH1 0x24 PUSH1 0x0 REVERT JUMPDEST PUSH32 0x4E487B7100000000000000000000000000000000000000000000000000000000 PUSH1 0x0 MSTORE PUSH1 0x11 PUSH1 0x4 MSTORE PUSH1 0x24 PUSH1 0x0 REVERT JUMPDEST PUSH1 0x0 PUSH2 0x3E0D DUP3 PUSH2 0x3841 JUMP JUMPDEST SWAP2 POP PUSH2 0x3E18 DUP4 PUSH2 0x3841 JUMP JUMPDEST SWAP3 POP DUP3 PUSH2 0x3E28 JUMPI PUSH2 0x3E27 PUSH2 0x3DA4 JUMP JUMPDEST JUMPDEST DUP3 DUP3 DIV SWAP1 POP SWAP3 SWAP2 POP POP JUMP JUMPDEST PUSH32 0x5573657220657869737400000000000000000000000000000000000000000000 PUSH1 0x0 DUP3 ADD MSTORE POP JUMP JUMPDEST PUSH1 0x0 PUSH2 0x3E69 PUSH1 0xA DUP4 PUSH2 0x3C75 JUMP JUMPDEST SWAP2 POP PUSH2 0x3E74 DUP3 PUSH2 0x3E33 JUMP JUMPDEST PUSH1 0x20 DUP3 ADD SWAP1 POP SWAP2 SWAP1 POP JUMP JUMPDEST PUSH1 0x0 PUSH1 0x20 DUP3 ADD SWAP1 POP DUP2 DUP2 SUB PUSH1 0x0 DUP4 ADD MSTORE PUSH2 0x3E98 DUP2 PUSH2 0x3E5C JUMP JUMPDEST SWAP1 POP SWAP2 SWAP1 POP JUMP JUMPDEST PUSH32 0x496E636F72726563742072656665727265722049640000000000000000000000 PUSH1 0x0 DUP3 ADD MSTORE POP JUMP JUMPDEST PUSH1 0x0 PUSH2 0x3ED5 PUSH1 0x15 DUP4 PUSH2 0x3C75 JUMP JUMPDEST SWAP2 POP PUSH2 0x3EE0 DUP3 PUSH2 0x3E9F JUMP JUMPDEST PUSH1 0x20 DUP3 ADD SWAP1 POP SWAP2 SWAP1 POP JUMP JUMPDEST PUSH1 0x0 PUSH1 0x20 DUP3 ADD SWAP1 POP DUP2 DUP2 SUB PUSH1 0x0 DUP4 ADD MSTORE PUSH2 0x3F04 DUP2 PUSH2 0x3EC8 JUMP JUMPDEST SWAP1 POP SWAP2 SWAP1 POP JUMP JUMPDEST PUSH32 0x496E636F72726563742056616C75650000000000000000000000000000000000 PUSH1 0x0 DUP3 ADD MSTORE POP JUMP JUMPDEST PUSH1 0x0 PUSH2 0x3F41 PUSH1 0xF DUP4 PUSH2 0x3C75 JUMP JUMPDEST SWAP2 POP PUSH2 0x3F4C DUP3 PUSH2 0x3F0B JUMP JUMPDEST PUSH1 0x20 DUP3 ADD SWAP1 POP SWAP2 SWAP1 POP JUMP JUMPDEST PUSH1 0x0 PUSH1 0x20 DUP3 ADD SWAP1 POP DUP2 DUP2 SUB PUSH1 0x0 DUP4 ADD MSTORE PUSH2 0x3F70 DUP2 PUSH2 0x3F34 JUMP JUMPDEST SWAP1 POP SWAP2 SWAP1 POP JUMP JUMPDEST PUSH32 0x4E487B7100000000000000000000000000000000000000000000000000000000 PUSH1 0x0 MSTORE PUSH1 0x41 PUSH1 0x4 MSTORE PUSH1 0x24 PUSH1 0x0 REVERT JUMPDEST PUSH1 0x0 PUSH2 0x3FB1 DUP3 PUSH2 0x3841 JUMP JUMPDEST SWAP2 POP PUSH32 0xFFFFFFFFFFFFFFFFFFFFFFFFFFFFFFFFFFFFFFFFFFFFFFFFFFFFFFFFFFFFFFFF DUP3 EQ ISZERO PUSH2 0x3FE4 JUMPI PUSH2 0x3FE3 PUSH2 0x3DD3 JUMP JUMPDEST JUMPDEST PUSH1 0x1 DUP3 ADD SWAP1 POP SWAP2 SWAP1 POP JUMP JUMPDEST PUSH1 0x0 PUSH2 0x3FFA DUP3 PUSH2 0x3841 JUMP JUMPDEST SWAP2 POP PUSH2 0x4005 DUP4 PUSH2 0x3841 JUMP JUMPDEST SWAP3 POP DUP3 PUSH32 0xFFFFFFFFFFFFFFFFFFFFFFFFFFFFFFFFFFFFFFFFFFFFFFFFFFFFFFFFFFFFFFFF SUB DUP3 GT ISZERO PUSH2 0x403A JUMPI PUSH2 0x4039 PUSH2 0x3DD3 JUMP JUMPDEST JUMPDEST DUP3 DUP3 ADD SWAP1 POP SWAP3 SWAP2 POP POP JUMP JUMPDEST PUSH32 0x4E487B7100000000000000000000000000000000000000000000000000000000 PUSH1 0x0 MSTORE PUSH1 0x32 PUSH1 0x4 MSTORE PUSH1 0x24 PUSH1 0x0 REVERT JUMPDEST PUSH1 0x0 PUSH2 0x407F DUP3 PUSH2 0x3841 JUMP JUMPDEST SWAP2 POP PUSH2 0x408A DUP4 PUSH2 0x3841 JUMP JUMPDEST SWAP3 POP DUP2 PUSH32 0xFFFFFFFFFFFFFFFFFFFFFFFFFFFFFFFFFFFFFFFFFFFFFFFFFFFFFFFFFFFFFFFF DIV DUP4 GT DUP3 ISZERO ISZERO AND ISZERO PUSH2 0x40C3 JUMPI PUSH2 0x40C2 PUSH2 0x3DD3 JUMP JUMPDEST JUMPDEST DUP3 DUP3 MUL SWAP1 POP SWAP3 SWAP2 POP POP JUMP JUMPDEST PUSH32 0x43616C6C6572206973206E6F742041646D696E2E000000000000000000000000 PUSH1 0x0 DUP3 ADD MSTORE POP JUMP JUMPDEST PUSH1 0x0 PUSH2 0x4104 PUSH1 0x14 DUP4 PUSH2 0x3C75 JUMP JUMPDEST SWAP2 POP PUSH2 0x410F DUP3 PUSH2 0x40CE JUMP JUMPDEST PUSH1 0x20 DUP3 ADD SWAP1 POP SWAP2 SWAP1 POP JUMP JUMPDEST PUSH1 0x0 PUSH1 0x20 DUP3 ADD SWAP1 POP DUP2 DUP2 SUB PUSH1 0x0 DUP4 ADD MSTORE PUSH2 0x4133 DUP2 PUSH2 0x40F7 JUMP JUMPDEST SWAP1 POP SWAP2 SWAP1 POP JUMP JUMPDEST PUSH32 0x496E76616C696420496E64657800000000000000000000000000000000000000 PUSH1 0x0 DUP3 ADD MSTORE POP JUMP JUMPDEST PUSH1 0x0 PUSH2 0x4170 PUSH1 0xD DUP4 PUSH2 0x3C75 JUMP JUMPDEST SWAP2 POP PUSH2 0x417B DUP3 PUSH2 0x413A JUMP JUMPDEST PUSH1 0x20 DUP3 ADD SWAP1 POP SWAP2 SWAP1 POP JUMP JUMPDEST PUSH1 0x0 PUSH1 0x20 DUP3 ADD SWAP1 POP DUP2 DUP2 SUB PUSH1 0x0 DUP4 ADD MSTORE PUSH2 0x419F DUP2 PUSH2 0x4163 JUMP JUMPDEST SWAP1 POP SWAP2 SWAP1 POP JUMP JUMPDEST PUSH1 0x0 PUSH2 0x41B1 DUP3 PUSH2 0x3841 JUMP JUMPDEST SWAP2 POP PUSH2 0x41BC DUP4 PUSH2 0x3841 JUMP JUMPDEST SWAP3 POP DUP3 DUP3 LT ISZERO PUSH2 0x41CF JUMPI PUSH2 0x41CE PUSH2 0x3DD3 JUMP JUMPDEST JUMPDEST DUP3 DUP3 SUB SWAP1 POP SWAP3 SWAP2 POP POP JUMP JUMPDEST PUSH1 0x0 PUSH2 0x41E5 DUP3 PUSH2 0x3841 JUMP JUMPDEST SWAP2 POP PUSH2 0x41F0 DUP4 PUSH2 0x3841 JUMP JUMPDEST SWAP3 POP DUP3 PUSH2 0x4200 JUMPI PUSH2 0x41FF PUSH2 0x3DA4 JUMP JUMPDEST JUMPDEST DUP3 DUP3 MOD SWAP1 POP SWAP3 SWAP2 POP POP JUMP JUMPDEST PUSH1 0x0 PUSH1 0x40 DUP3 ADD SWAP1 POP PUSH2 0x4220 PUSH1 0x0 DUP4 ADD DUP6 PUSH2 0x3BC6 JUMP JUMPDEST PUSH2 0x422D PUSH1 0x20 DUP4 ADD DUP5 PUSH2 0x3BC6 JUMP JUMPDEST SWAP4 SWAP3 POP POP POP JUMP JUMPDEST PUSH1 0x0 DUP2 SWAP1 POP SWAP2 SWAP1 POP JUMP JUMPDEST PUSH1 0x0 PUSH2 0x4249 DUP3 PUSH2 0x4234 JUMP JUMPDEST SWAP2 POP PUSH32 0x7FFFFFFFFFFFFFFFFFFFFFFFFFFFFFFFFFFFFFFFFFFFFFFFFFFFFFFFFFFFFFFF DUP3 EQ ISZERO PUSH2 0x427C JUMPI PUSH2 0x427B PUSH2 0x3DD3 JUMP JUMPDEST JUMPDEST PUSH1 0x1 DUP3 ADD SWAP1 POP SWAP2 SWAP1 POP JUMP INVALID LOG2 PUSH5 0x6970667358 0x22 SLT KECCAK256 0x2D 0x4F TIMESTAMP PUSH23 0x1C9C464D119A7D1BE0436930F2ECE4B0BBC01F20B7B2BC MSTORE SWAP13 LOG3 0x1F 0xE2 PUSH5 0x736F6C6343 STOP ADDMOD SIGNEXTEND STOP CALLER "
				},
				"gasEstimates": {
					"creation": {
						"codeDepositCost": "3417000",
						"executionCost": "infinite",
						"totalCost": "infinite"
					},
					"external": {
						"LEVEL_PRICE(uint256)": "infinite",
						"adminWallet()": "2557",
						"currUserID()": "2540",
						"getContractBalance()": "infinite",
						"getUserIncomeCount(address,uint256)": "infinite",
						"getUserLevelEligibility(address)": "infinite",
						"getUserReferrals(address)": "infinite",
						"isLevelUpgradedForAddress(uint256,address)": "3177",
						"levelCounter(uint256,address)": "infinite",
						"levelUpgradePayments(uint256,address)": "infinite",
						"promotionPercantage(uint256)": "4432",
						"promotionWallets(uint256)": "2829",
						"regUser(uint256)": "infinite",
						"rewardWallet()": "2646",
						"splPromoWallet()": "2537",
						"transferURS()": "infinite",
						"updatePromotionWallet(address,uint256)": "infinite",
						"ursWallet()": "2602",
						"userList(uint256)": "2906",
						"users(address)": "infinite",
						"withdrawPromotion()": "infinite",
						"withdrawSplPromotion()": "infinite"
					},
					"internal": {
						"checkLoopRequired(address,uint256,uint256,bool,bool)": "infinite",
						"findEligiblePayer(address,uint256,uint256)": "infinite",
						"isLevelUpgradeFromSameLeg(address,address,address)": "infinite",
						"levelRenewal(bool,address,uint256)": "infinite",
						"levelUpgrade(uint256,address,uint256,bool,bool)": "infinite",
						"payment(uint256,address,uint256,bool)": "infinite"
					}
				},
				"methodIdentifiers": {
					"LEVEL_PRICE(uint256)": "79378e30",
					"adminWallet()": "36b19cd7",
					"currUserID()": "a4bb170d",
					"getContractBalance()": "6f9fb98a",
					"getUserIncomeCount(address,uint256)": "aa24c5c5",
					"getUserLevelEligibility(address)": "6158fa00",
					"getUserReferrals(address)": "575cea6b",
					"isLevelUpgradedForAddress(uint256,address)": "4d948bea",
					"levelCounter(uint256,address)": "bbf57068",
					"levelUpgradePayments(uint256,address)": "43f6753c",
					"promotionPercantage(uint256)": "6043ddad",
					"promotionWallets(uint256)": "10e4077a",
					"regUser(uint256)": "8853b53e",
					"rewardWallet()": "fb75b2c7",
					"splPromoWallet()": "992c85d2",
					"transferURS()": "5e8a7069",
					"updatePromotionWallet(address,uint256)": "f7bbfccd",
					"ursWallet()": "c15dec85",
					"userList(uint256)": "9f4216e8",
					"users(address)": "a87430ba",
					"withdrawPromotion()": "99cbd74f",
					"withdrawSplPromotion()": "a457c050"
				}
			},
			"storageLayout": {
				"storage": [
					{
						"astId": 4,
						"contract": "tronbox/contracts/SmartGenie.sol:SmartGenie",
						"label": "adminWallet",
						"offset": 0,
						"slot": "0",
						"type": "t_address"
					},
					{
						"astId": 6,
						"contract": "tronbox/contracts/SmartGenie.sol:SmartGenie",
						"label": "ursWallet",
						"offset": 0,
						"slot": "1",
						"type": "t_address"
					},
					{
						"astId": 8,
						"contract": "tronbox/contracts/SmartGenie.sol:SmartGenie",
						"label": "splPromoWallet",
						"offset": 0,
						"slot": "2",
						"type": "t_address"
					},
					{
						"astId": 10,
						"contract": "tronbox/contracts/SmartGenie.sol:SmartGenie",
						"label": "rewardWallet",
						"offset": 0,
						"slot": "3",
						"type": "t_address"
					},
					{
						"astId": 33,
						"contract": "tronbox/contracts/SmartGenie.sol:SmartGenie",
						"label": "promotionWallets",
						"offset": 0,
						"slot": "4",
						"type": "t_array(t_address)4_storage"
					},
					{
						"astId": 42,
						"contract": "tronbox/contracts/SmartGenie.sol:SmartGenie",
						"label": "promotionPercantage",
						"offset": 0,
						"slot": "8",
						"type": "t_array(t_uint8)4_storage"
					},
					{
						"astId": 46,
						"contract": "tronbox/contracts/SmartGenie.sol:SmartGenie",
						"label": "LEVEL_PRICE",
						"offset": 0,
						"slot": "9",
						"type": "t_mapping(t_uint256,t_uint256)"
					},
					{
						"astId": 51,
						"contract": "tronbox/contracts/SmartGenie.sol:SmartGenie",
						"label": "users",
						"offset": 0,
						"slot": "10",
						"type": "t_mapping(t_address,t_struct(UserStruct)29_storage)"
					},
					{
						"astId": 55,
						"contract": "tronbox/contracts/SmartGenie.sol:SmartGenie",
						"label": "userList",
						"offset": 0,
						"slot": "11",
						"type": "t_mapping(t_uint256,t_address)"
					},
					{
						"astId": 61,
						"contract": "tronbox/contracts/SmartGenie.sol:SmartGenie",
						"label": "levelCounter",
						"offset": 0,
						"slot": "12",
						"type": "t_mapping(t_uint256,t_mapping(t_address,t_uint256))"
					},
					{
						"astId": 67,
						"contract": "tronbox/contracts/SmartGenie.sol:SmartGenie",
						"label": "levelUpgradePayments",
						"offset": 0,
						"slot": "13",
						"type": "t_mapping(t_uint256,t_mapping(t_address,t_address))"
					},
					{
						"astId": 73,
						"contract": "tronbox/contracts/SmartGenie.sol:SmartGenie",
						"label": "isLevelUpgradedForAddress",
						"offset": 0,
						"slot": "14",
						"type": "t_mapping(t_uint256,t_mapping(t_address,t_bool))"
					},
					{
						"astId": 76,
						"contract": "tronbox/contracts/SmartGenie.sol:SmartGenie",
						"label": "currUserID",
						"offset": 0,
						"slot": "15",
						"type": "t_uint256"
					},
					{
						"astId": 79,
						"contract": "tronbox/contracts/SmartGenie.sol:SmartGenie",
						"label": "splPromAmt",
						"offset": 0,
						"slot": "16",
						"type": "t_uint256"
					},
					{
						"astId": 82,
						"contract": "tronbox/contracts/SmartGenie.sol:SmartGenie",
						"label": "promAmt",
						"offset": 0,
						"slot": "17",
						"type": "t_uint256"
					},
					{
						"astId": 85,
						"contract": "tronbox/contracts/SmartGenie.sol:SmartGenie",
						"label": "ursAmt",
						"offset": 0,
						"slot": "18",
						"type": "t_uint256"
					},
					{
						"astId": 88,
						"contract": "tronbox/contracts/SmartGenie.sol:SmartGenie",
						"label": "regFee",
						"offset": 0,
						"slot": "19",
						"type": "t_uint256"
					},
					{
						"astId": 96,
						"contract": "tronbox/contracts/SmartGenie.sol:SmartGenie",
						"label": "regShare",
						"offset": 0,
						"slot": "20",
						"type": "t_uint256"
					},
					{
						"astId": 104,
						"contract": "tronbox/contracts/SmartGenie.sol:SmartGenie",
						"label": "promotionShare",
						"offset": 0,
						"slot": "21",
						"type": "t_uint256"
					},
					{
						"astId": 112,
						"contract": "tronbox/contracts/SmartGenie.sol:SmartGenie",
						"label": "splPromoShare",
						"offset": 0,
						"slot": "22",
						"type": "t_uint256"
					}
				],
				"types": {
					"t_address": {
						"encoding": "inplace",
						"label": "address",
						"numberOfBytes": "20"
					},
					"t_array(t_address)4_storage": {
						"base": "t_address",
						"encoding": "inplace",
						"label": "address[4]",
						"numberOfBytes": "128"
					},
					"t_array(t_address)dyn_storage": {
						"base": "t_address",
						"encoding": "dynamic_array",
						"label": "address[]",
						"numberOfBytes": "32"
					},
					"t_array(t_uint256)dyn_storage": {
						"base": "t_uint256",
						"encoding": "dynamic_array",
						"label": "uint256[]",
						"numberOfBytes": "32"
					},
					"t_array(t_uint8)4_storage": {
						"base": "t_uint8",
						"encoding": "inplace",
						"label": "uint8[4]",
						"numberOfBytes": "32"
					},
					"t_bool": {
						"encoding": "inplace",
						"label": "bool",
						"numberOfBytes": "1"
					},
					"t_mapping(t_address,t_address)": {
						"encoding": "mapping",
						"key": "t_address",
						"label": "mapping(address => address)",
						"numberOfBytes": "32",
						"value": "t_address"
					},
					"t_mapping(t_address,t_bool)": {
						"encoding": "mapping",
						"key": "t_address",
						"label": "mapping(address => bool)",
						"numberOfBytes": "32",
						"value": "t_bool"
					},
					"t_mapping(t_address,t_struct(UserStruct)29_storage)": {
						"encoding": "mapping",
						"key": "t_address",
						"label": "mapping(address => struct SmartGenie.UserStruct)",
						"numberOfBytes": "32",
						"value": "t_struct(UserStruct)29_storage"
					},
					"t_mapping(t_address,t_uint256)": {
						"encoding": "mapping",
						"key": "t_address",
						"label": "mapping(address => uint256)",
						"numberOfBytes": "32",
						"value": "t_uint256"
					},
					"t_mapping(t_uint256,t_address)": {
						"encoding": "mapping",
						"key": "t_uint256",
						"label": "mapping(uint256 => address)",
						"numberOfBytes": "32",
						"value": "t_address"
					},
					"t_mapping(t_uint256,t_mapping(t_address,t_address))": {
						"encoding": "mapping",
						"key": "t_uint256",
						"label": "mapping(uint256 => mapping(address => address))",
						"numberOfBytes": "32",
						"value": "t_mapping(t_address,t_address)"
					},
					"t_mapping(t_uint256,t_mapping(t_address,t_bool))": {
						"encoding": "mapping",
						"key": "t_uint256",
						"label": "mapping(uint256 => mapping(address => bool))",
						"numberOfBytes": "32",
						"value": "t_mapping(t_address,t_bool)"
					},
					"t_mapping(t_uint256,t_mapping(t_address,t_uint256))": {
						"encoding": "mapping",
						"key": "t_uint256",
						"label": "mapping(uint256 => mapping(address => uint256))",
						"numberOfBytes": "32",
						"value": "t_mapping(t_address,t_uint256)"
					},
					"t_mapping(t_uint256,t_uint256)": {
						"encoding": "mapping",
						"key": "t_uint256",
						"label": "mapping(uint256 => uint256)",
						"numberOfBytes": "32",
						"value": "t_uint256"
					},
					"t_struct(UserStruct)29_storage": {
						"encoding": "inplace",
						"label": "struct SmartGenie.UserStruct",
						"members": [
							{
								"astId": 12,
								"contract": "tronbox/contracts/SmartGenie.sol:SmartGenie",
								"label": "isExist",
								"offset": 0,
								"slot": "0",
								"type": "t_bool"
							},
							{
								"astId": 14,
								"contract": "tronbox/contracts/SmartGenie.sol:SmartGenie",
								"label": "id",
								"offset": 0,
								"slot": "1",
								"type": "t_uint256"
							},
							{
								"astId": 16,
								"contract": "tronbox/contracts/SmartGenie.sol:SmartGenie",
								"label": "referrerID",
								"offset": 0,
								"slot": "2",
								"type": "t_uint256"
							},
							{
								"astId": 19,
								"contract": "tronbox/contracts/SmartGenie.sol:SmartGenie",
								"label": "referral",
								"offset": 0,
								"slot": "3",
								"type": "t_array(t_address)dyn_storage"
							},
							{
								"astId": 21,
								"contract": "tronbox/contracts/SmartGenie.sol:SmartGenie",
								"label": "joined",
								"offset": 0,
								"slot": "4",
								"type": "t_uint256"
							},
							{
								"astId": 25,
								"contract": "tronbox/contracts/SmartGenie.sol:SmartGenie",
								"label": "incomeCount",
								"offset": 0,
								"slot": "5",
								"type": "t_mapping(t_uint256,t_uint256)"
							},
							{
								"astId": 28,
								"contract": "tronbox/contracts/SmartGenie.sol:SmartGenie",
								"label": "levelEligibility",
								"offset": 0,
								"slot": "6",
								"type": "t_array(t_uint256)dyn_storage"
							}
						],
						"numberOfBytes": "224"
					},
					"t_uint256": {
						"encoding": "inplace",
						"label": "uint256",
						"numberOfBytes": "32"
					},
					"t_uint8": {
						"encoding": "inplace",
						"label": "uint8",
						"numberOfBytes": "1"
					}
				}
			},
			"userdoc": {
				"kind": "user",
				"methods": {},
				"version": 1
			}
		}
	}
}